{
	"contracts/Lotto.sol": {
		"Lottery": {
			"abi": [
				{
					"inputs": [
						{
							"internalType": "address",
							"name": "_token",
							"type": "address"
						},
						{
							"internalType": "uint256",
							"name": "_round_interval",
							"type": "uint256"
						},
						{
							"internalType": "uint256",
							"name": "_ticket_price",
							"type": "uint256"
						},
						{
							"internalType": "uint256",
							"name": "_ticket_token_price",
							"type": "uint256"
						}
					],
					"stateMutability": "nonpayable",
					"type": "constructor"
				},
				{
					"anonymous": false,
					"inputs": [
						{
							"indexed": true,
							"internalType": "address",
							"name": "previousOwner",
							"type": "address"
						},
						{
							"indexed": true,
							"internalType": "address",
							"name": "newOwner",
							"type": "address"
						}
					],
					"name": "OwnershipTransferred",
					"type": "event"
				},
				{
					"inputs": [],
					"name": "MAX_NUMBER",
					"outputs": [
						{
							"internalType": "uint256",
							"name": "",
							"type": "uint256"
						}
					],
					"stateMutability": "view",
					"type": "function"
				},
				{
					"inputs": [],
					"name": "MIN_NUMBER",
					"outputs": [
						{
							"internalType": "uint256",
							"name": "",
							"type": "uint256"
						}
					],
					"stateMutability": "view",
					"type": "function"
				},
				{
					"inputs": [],
					"name": "Stop",
					"outputs": [],
					"stateMutability": "nonpayable",
					"type": "function"
				},
				{
					"inputs": [],
					"name": "TICKET_PRICE",
					"outputs": [
						{
							"internalType": "uint256",
							"name": "",
							"type": "uint256"
						}
					],
					"stateMutability": "view",
					"type": "function"
				},
				{
					"inputs": [],
					"name": "TICKET_TOKEN_PRICE",
					"outputs": [
						{
							"internalType": "uint256",
							"name": "",
							"type": "uint256"
						}
					],
					"stateMutability": "view",
					"type": "function"
				},
				{
					"inputs": [
						{
							"internalType": "uint256[6]",
							"name": "numbers",
							"type": "uint256[6]"
						}
					],
					"name": "buy",
					"outputs": [],
					"stateMutability": "payable",
					"type": "function"
				},
				{
					"inputs": [
						{
							"internalType": "uint256",
							"name": "_interval",
							"type": "uint256"
						}
					],
					"name": "changeInterval",
					"outputs": [],
					"stateMutability": "nonpayable",
					"type": "function"
				},
				{
					"inputs": [
						{
							"internalType": "uint256",
							"name": "_price",
							"type": "uint256"
						}
					],
					"name": "changePrice",
					"outputs": [],
					"stateMutability": "nonpayable",
					"type": "function"
				},
				{
					"inputs": [
						{
							"internalType": "uint256",
							"name": "number",
							"type": "uint256"
						}
					],
					"name": "claim",
					"outputs": [],
					"stateMutability": "nonpayable",
					"type": "function"
				},
				{
					"inputs": [],
					"name": "currentBlock",
					"outputs": [
						{
							"internalType": "uint256",
							"name": "",
							"type": "uint256"
						}
					],
					"stateMutability": "view",
					"type": "function"
				},
				{
					"inputs": [],
					"name": "getContractBalance",
					"outputs": [
						{
							"internalType": "uint256",
							"name": "",
							"type": "uint256"
						}
					],
					"stateMutability": "view",
					"type": "function"
				},
				{
					"inputs": [
						{
							"internalType": "uint256",
							"name": "_round",
							"type": "uint256"
						}
					],
					"name": "getMyTicket",
					"outputs": [
						{
							"internalType": "uint256[6][]",
							"name": "",
							"type": "uint256[6][]"
						}
					],
					"stateMutability": "view",
					"type": "function"
				},
				{
					"inputs": [
						{
							"internalType": "uint256",
							"name": "_round",
							"type": "uint256"
						}
					],
					"name": "getWinNumbers",
					"outputs": [
						{
							"internalType": "uint256[7]",
							"name": "",
							"type": "uint256[7]"
						}
					],
					"stateMutability": "view",
					"type": "function"
				},
				{
					"inputs": [],
					"name": "nextRound",
					"outputs": [],
					"stateMutability": "nonpayable",
					"type": "function"
				},
				{
					"inputs": [],
					"name": "owner",
					"outputs": [
						{
							"internalType": "address",
							"name": "",
							"type": "address"
						}
					],
					"stateMutability": "view",
					"type": "function"
				},
				{
					"inputs": [],
					"name": "renounceOwnership",
					"outputs": [],
					"stateMutability": "nonpayable",
					"type": "function"
				},
				{
					"inputs": [],
					"name": "round_interval",
					"outputs": [
						{
							"internalType": "uint256",
							"name": "",
							"type": "uint256"
						}
					],
					"stateMutability": "view",
					"type": "function"
				},
				{
					"inputs": [
						{
							"internalType": "uint256",
							"name": "",
							"type": "uint256"
						}
					],
					"name": "rounds",
					"outputs": [
						{
							"internalType": "uint256",
							"name": "startTime",
							"type": "uint256"
						},
						{
							"internalType": "uint256",
							"name": "endTime",
							"type": "uint256"
						},
						{
							"internalType": "enum Lottery.RoundStatus",
							"name": "status",
							"type": "uint8"
						},
						{
							"internalType": "uint256",
							"name": "totalQuantity",
							"type": "uint256"
						}
					],
					"stateMutability": "view",
					"type": "function"
				},
				{
					"inputs": [
						{
							"internalType": "uint256",
							"name": "",
							"type": "uint256"
						}
					],
					"name": "tickets",
					"outputs": [
						{
							"internalType": "address",
							"name": "owner",
							"type": "address"
						},
						{
							"internalType": "uint256",
							"name": "round",
							"type": "uint256"
						}
					],
					"stateMutability": "view",
					"type": "function"
				},
				{
					"inputs": [],
					"name": "token",
					"outputs": [
						{
							"internalType": "contract IKIP7",
							"name": "",
							"type": "address"
						}
					],
					"stateMutability": "view",
					"type": "function"
				},
				{
					"inputs": [
						{
							"internalType": "uint256[6]",
							"name": "numbers",
							"type": "uint256[6]"
						}
					],
					"name": "tokenBuy",
					"outputs": [],
					"stateMutability": "nonpayable",
					"type": "function"
				},
				{
					"inputs": [
						{
							"internalType": "address payable",
							"name": "toAdress",
							"type": "address"
						}
					],
					"name": "tokenWithdraw",
					"outputs": [],
					"stateMutability": "nonpayable",
					"type": "function"
				},
				{
					"inputs": [
						{
							"internalType": "address",
							"name": "newOwner",
							"type": "address"
						}
					],
					"name": "transferOwnership",
					"outputs": [],
					"stateMutability": "nonpayable",
					"type": "function"
				}
			],
			"devdoc": {
				"kind": "dev",
				"methods": {
					"owner()": {
						"details": "Returns the address of the current owner."
					},
					"renounceOwnership()": {
						"details": "Leaves the contract without owner. It will not be possible to call `onlyOwner` functions anymore. Can only be called by the current owner. NOTE: Renouncing ownership will leave the contract without an owner, thereby removing any functionality that is only available to the owner."
					},
					"transferOwnership(address)": {
						"details": "Transfers ownership of the contract to a new account (`newOwner`). Can only be called by the current owner."
					}
				},
				"version": 1
			},
			"evm": {
				"assembly": "    /* \"contracts/Lotto.sol\":184:8269  contract Lottery is Ownable {... */\n  mstore(0x40, 0x80)\n    /* \"contracts/Lotto.sol\":998:1278  constructor(address _token, uint256 _round_interval, uint256 _ticket_price, uint256 _ticket_token_price) {... */\n  callvalue\n  dup1\n  iszero\n  tag_1\n  jumpi\n  0x00\n  dup1\n  revert\ntag_1:\n  pop\n  mload(0x40)\n  sub(codesize, bytecodeSize)\n  dup1\n  bytecodeSize\n  dup4\n  codecopy\n  dup2\n  dup2\n  add\n  0x40\n  mstore\n  dup2\n  add\n  swap1\n  tag_2\n  swap2\n  swap1\n  tag_3\n  jump\t// in\ntag_2:\n    /* \"@klaytn/contracts/contracts/access/Ownable.sol\":921:953  _transferOwnership(_msgSender()) */\n  tag_7\n    /* \"@klaytn/contracts/contracts/access/Ownable.sol\":940:952  _msgSender() */\n  tag_8\n    /* \"@klaytn/contracts/contracts/access/Ownable.sol\":940:950  _msgSender */\n  shl(0x20, tag_9)\n    /* \"@klaytn/contracts/contracts/access/Ownable.sol\":940:952  _msgSender() */\n  0x20\n  shr\n  jump\t// in\ntag_8:\n    /* \"@klaytn/contracts/contracts/access/Ownable.sol\":921:939  _transferOwnership */\n  shl(0x20, tag_10)\n    /* \"@klaytn/contracts/contracts/access/Ownable.sol\":921:953  _transferOwnership(_msgSender()) */\n  0x20\n  shr\n  jump\t// in\ntag_7:\n    /* \"contracts/Lotto.sol\":1124:1130  _token */\n  dup4\n    /* \"contracts/Lotto.sol\":1110:1115  token */\n  0x01\n  0x00\n    /* \"contracts/Lotto.sol\":1110:1131  token = IKIP7(_token) */\n  0x0100\n  exp\n  dup2\n  sload\n  dup2\n  0xffffffffffffffffffffffffffffffffffffffff\n  mul\n  not\n  and\n  swap1\n  dup4\n  0xffffffffffffffffffffffffffffffffffffffff\n  and\n  mul\n  or\n  swap1\n  sstore\n  pop\n    /* \"contracts/Lotto.sol\":1155:1170  _round_interval */\n  dup3\n    /* \"contracts/Lotto.sol\":1138:1152  round_interval */\n  0x06\n    /* \"contracts/Lotto.sol\":1138:1170  round_interval = _round_interval */\n  dup2\n  swap1\n  sstore\n  pop\n    /* \"contracts/Lotto.sol\":1192:1205  _ticket_price */\n  dup2\n    /* \"contracts/Lotto.sol\":1177:1189  TICKET_PRICE */\n  0x02\n    /* \"contracts/Lotto.sol\":1177:1205  TICKET_PRICE = _ticket_price */\n  dup2\n  swap1\n  sstore\n  pop\n    /* \"contracts/Lotto.sol\":1233:1252  _ticket_token_price */\n  dup1\n    /* \"contracts/Lotto.sol\":1212:1230  TICKET_TOKEN_PRICE */\n  0x03\n    /* \"contracts/Lotto.sol\":1212:1252  TICKET_TOKEN_PRICE = _ticket_token_price */\n  dup2\n  swap1\n  sstore\n  pop\n    /* \"contracts/Lotto.sol\":1259:1272  createRound() */\n  tag_12\n    /* \"contracts/Lotto.sol\":1259:1270  createRound */\n  shl(0x20, tag_13)\n    /* \"contracts/Lotto.sol\":1259:1272  createRound() */\n  0x20\n  shr\n  jump\t// in\ntag_12:\n    /* \"contracts/Lotto.sol\":998:1278  constructor(address _token, uint256 _round_interval, uint256 _ticket_price, uint256 _ticket_token_price) {... */\n  pop\n  pop\n  pop\n  pop\n    /* \"contracts/Lotto.sol\":184:8269  contract Lottery is Ownable {... */\n  jump(tag_14)\n    /* \"@klaytn/contracts/contracts/utils/Context.sol\":640:736  function _msgSender() internal view virtual returns (address) {... */\ntag_9:\n    /* \"@klaytn/contracts/contracts/utils/Context.sol\":693:700  address */\n  0x00\n    /* \"@klaytn/contracts/contracts/utils/Context.sol\":719:729  msg.sender */\n  caller\n    /* \"@klaytn/contracts/contracts/utils/Context.sol\":712:729  return msg.sender */\n  swap1\n  pop\n    /* \"@klaytn/contracts/contracts/utils/Context.sol\":640:736  function _msgSender() internal view virtual returns (address) {... */\n  swap1\n  jump\t// out\n    /* \"@klaytn/contracts/contracts/access/Ownable.sol\":2270:2457  function _transferOwnership(address newOwner) internal virtual {... */\ntag_10:\n    /* \"@klaytn/contracts/contracts/access/Ownable.sol\":2343:2359  address oldOwner */\n  0x00\n    /* \"@klaytn/contracts/contracts/access/Ownable.sol\":2362:2368  _owner */\n  dup1\n  0x00\n  swap1\n  sload\n  swap1\n  0x0100\n  exp\n  swap1\n  div\n  0xffffffffffffffffffffffffffffffffffffffff\n  and\n    /* \"@klaytn/contracts/contracts/access/Ownable.sol\":2343:2368  address oldOwner = _owner */\n  swap1\n  pop\n    /* \"@klaytn/contracts/contracts/access/Ownable.sol\":2387:2395  newOwner */\n  dup2\n    /* \"@klaytn/contracts/contracts/access/Ownable.sol\":2378:2384  _owner */\n  0x00\n  dup1\n    /* \"@klaytn/contracts/contracts/access/Ownable.sol\":2378:2395  _owner = newOwner */\n  0x0100\n  exp\n  dup2\n  sload\n  dup2\n  0xffffffffffffffffffffffffffffffffffffffff\n  mul\n  not\n  and\n  swap1\n  dup4\n  0xffffffffffffffffffffffffffffffffffffffff\n  and\n  mul\n  or\n  swap1\n  sstore\n  pop\n    /* \"@klaytn/contracts/contracts/access/Ownable.sol\":2441:2449  newOwner */\n  dup2\n    /* \"@klaytn/contracts/contracts/access/Ownable.sol\":2410:2450  OwnershipTransferred(oldOwner, newOwner) */\n  0xffffffffffffffffffffffffffffffffffffffff\n  and\n    /* \"@klaytn/contracts/contracts/access/Ownable.sol\":2431:2439  oldOwner */\n  dup2\n    /* \"@klaytn/contracts/contracts/access/Ownable.sol\":2410:2450  OwnershipTransferred(oldOwner, newOwner) */\n  0xffffffffffffffffffffffffffffffffffffffff\n  and\n  0x8be0079c531659141344cd1fd0a4f28419497f9722a3daafe3b4186f6b6457e0\n  mload(0x40)\n  mload(0x40)\n  dup1\n  swap2\n  sub\n  swap1\n  log3\n    /* \"@klaytn/contracts/contracts/access/Ownable.sol\":2333:2457  {... */\n  pop\n    /* \"@klaytn/contracts/contracts/access/Ownable.sol\":2270:2457  function _transferOwnership(address newOwner) internal virtual {... */\n  pop\n  jump\t// out\n    /* \"contracts/Lotto.sol\":1334:1721  function createRound() internal {... */\ntag_13:\n    /* \"contracts/Lotto.sol\":1392:1393  0 */\n  0x00\n    /* \"contracts/Lotto.sol\":1376:1382  rounds */\n  0x04\n    /* \"contracts/Lotto.sol\":1376:1389  rounds.length */\n  dup1\n  sload\n  swap1\n  pop\n    /* \"contracts/Lotto.sol\":1376:1393  rounds.length > 0 */\n  gt\n    /* \"contracts/Lotto.sol\":1376:1448  rounds.length > 0 && rounds[rounds.length - 1].status != RoundStatus.End */\n  dup1\n  iszero\n  tag_18\n  jumpi\n  pop\n    /* \"contracts/Lotto.sol\":1433:1448  RoundStatus.End */\n  0x01\n    /* \"contracts/Lotto.sol\":1397:1448  rounds[rounds.length - 1].status != RoundStatus.End */\n  dup1\n  dup2\n  gt\n  iszero\n  tag_19\n  jumpi\n  tag_20\n  tag_21\n  jump\t// in\ntag_20:\ntag_19:\n    /* \"contracts/Lotto.sol\":1397:1403  rounds */\n  0x04\n    /* \"contracts/Lotto.sol\":1420:1421  1 */\n  0x01\n    /* \"contracts/Lotto.sol\":1404:1410  rounds */\n  0x04\n    /* \"contracts/Lotto.sol\":1404:1417  rounds.length */\n  dup1\n  sload\n  swap1\n  pop\n    /* \"contracts/Lotto.sol\":1404:1421  rounds.length - 1 */\n  tag_22\n  swap2\n  swap1\n  tag_23\n  jump\t// in\ntag_22:\n    /* \"contracts/Lotto.sol\":1397:1422  rounds[rounds.length - 1] */\n  dup2\n  sload\n  dup2\n  lt\n  tag_24\n  jumpi\n  tag_25\n  tag_26\n  jump\t// in\ntag_25:\ntag_24:\n  swap1\n  0x00\n  mstore\n  keccak256(0x00, 0x20)\n  swap1\n  0x0b\n  mul\n  add\n    /* \"contracts/Lotto.sol\":1397:1429  rounds[rounds.length - 1].status */\n  0x02\n  add\n  0x00\n  swap1\n  sload\n  swap1\n  0x0100\n  exp\n  swap1\n  div\n  0xff\n  and\n    /* \"contracts/Lotto.sol\":1397:1448  rounds[rounds.length - 1].status != RoundStatus.End */\n  0x01\n  dup2\n  gt\n  iszero\n  tag_28\n  jumpi\n  tag_29\n  tag_21\n  jump\t// in\ntag_29:\ntag_28:\n  eq\n  iszero\n    /* \"contracts/Lotto.sol\":1376:1448  rounds.length > 0 && rounds[rounds.length - 1].status != RoundStatus.End */\ntag_18:\n    /* \"contracts/Lotto.sol\":1373:1494  if(rounds.length > 0 && rounds[rounds.length - 1].status != RoundStatus.End) {... */\n  iszero\n  tag_30\n  jumpi\n    /* \"contracts/Lotto.sol\":1459:1486  revert(\"Round in progress\") */\n  mload(0x40)\n  0x08c379a000000000000000000000000000000000000000000000000000000000\n  dup2\n  mstore\n  0x04\n  add\n  tag_31\n  swap1\n  tag_32\n  jump\t// in\ntag_31:\n  mload(0x40)\n  dup1\n  swap2\n  sub\n  swap1\n  revert\n    /* \"contracts/Lotto.sol\":1373:1494  if(rounds.length > 0 && rounds[rounds.length - 1].status != RoundStatus.End) {... */\ntag_30:\n    /* \"contracts/Lotto.sol\":1502:1526  uint256[7] memory winNum */\n  tag_33\n  tag_34\n  jump\t// in\ntag_33:\n    /* \"contracts/Lotto.sol\":1539:1557  Round memory round */\n  0x00\n    /* \"contracts/Lotto.sol\":1560:1688  Round(... */\n  mload(0x40)\n  dup1\n  0xa0\n  add\n  0x40\n  mstore\n  dup1\n    /* \"contracts/Lotto.sol\":1574:1589  block.timestamp */\n  timestamp\n    /* \"contracts/Lotto.sol\":1560:1688  Round(... */\n  dup2\n  mstore\n  0x20\n  add\n    /* \"contracts/Lotto.sol\":1616:1630  round_interval */\n  sload(0x06)\n    /* \"contracts/Lotto.sol\":1598:1613  block.timestamp */\n  timestamp\n    /* \"contracts/Lotto.sol\":1598:1630  block.timestamp + round_interval */\n  tag_35\n  swap2\n  swap1\n  tag_36\n  jump\t// in\ntag_35:\n    /* \"contracts/Lotto.sol\":1560:1688  Round(... */\n  dup2\n  mstore\n  0x20\n  add\n    /* \"contracts/Lotto.sol\":1639:1656  RoundStatus.Start */\n  0x00\n    /* \"contracts/Lotto.sol\":1560:1688  Round(... */\n  0x01\n  dup2\n  gt\n  iszero\n  tag_37\n  jumpi\n  tag_38\n  tag_21\n  jump\t// in\ntag_38:\ntag_37:\n  dup2\n  mstore\n  0x20\n  add\n    /* \"contracts/Lotto.sol\":1665:1671  winNum */\n  dup4\n    /* \"contracts/Lotto.sol\":1560:1688  Round(... */\n  dup2\n  mstore\n  0x20\n  add\n    /* \"contracts/Lotto.sol\":1680:1681  0 */\n  0x00\n    /* \"contracts/Lotto.sol\":1560:1688  Round(... */\n  dup2\n  mstore\n  pop\n    /* \"contracts/Lotto.sol\":1539:1688  Round memory round = Round(... */\n  swap1\n  pop\n    /* \"contracts/Lotto.sol\":1697:1703  rounds */\n  0x04\n    /* \"contracts/Lotto.sol\":1709:1714  round */\n  dup2\n    /* \"contracts/Lotto.sol\":1697:1715  rounds.push(round) */\n  swap1\n  dup1\n  0x01\n  dup2\n  sload\n  add\n  dup1\n  dup3\n  sstore\n  dup1\n  swap2\n  pop\n  pop\n  0x01\n  swap1\n  sub\n  swap1\n  0x00\n  mstore\n  keccak256(0x00, 0x20)\n  swap1\n  0x0b\n  mul\n  add\n  0x00\n  swap1\n  swap2\n  swap1\n  swap2\n  swap1\n  swap2\n  pop\n  0x00\n  dup3\n  add\n  mload\n  dup2\n  0x00\n  add\n  sstore\n  0x20\n  dup3\n  add\n  mload\n  dup2\n  0x01\n  add\n  sstore\n  0x40\n  dup3\n  add\n  mload\n  dup2\n  0x02\n  add\n  exp(0x0100, 0x00)\n  dup2\n  sload\n  dup2\n  0xff\n  mul\n  not\n  and\n  swap1\n  dup4\n  0x01\n  dup2\n  gt\n  iszero\n  tag_40\n  jumpi\n  tag_41\n  tag_21\n  jump\t// in\ntag_41:\ntag_40:\n  mul\n  or\n  swap1\n  sstore\n  pop\n  0x60\n  dup3\n  add\n  mload\n  dup2\n  0x03\n  add\n  swap1\n  0x07\n  tag_42\n  swap3\n  swap2\n  swap1\n  tag_43\n  jump\t// in\ntag_42:\n  pop\n  0x80\n  dup3\n  add\n  mload\n  dup2\n  0x0a\n  add\n  sstore\n  pop\n  pop\n    /* \"contracts/Lotto.sol\":1366:1721  {... */\n  pop\n  pop\n    /* \"contracts/Lotto.sol\":1334:1721  function createRound() internal {... */\n  jump\t// out\n    /* \"contracts/Lotto.sol\":184:8269  contract Lottery is Ownable {... */\ntag_34:\n  mload(0x40)\n  dup1\n  0xe0\n  add\n  0x40\n  mstore\n  dup1\n  0x07\n  swap1\n  0x20\n  dup3\n  mul\n  dup1\n  calldatasize\n  dup4\n  calldatacopy\n  dup1\n  dup3\n  add\n  swap2\n  pop\n  pop\n  swap1\n  pop\n  pop\n  swap1\n  jump\t// out\ntag_43:\n  dup3\n  0x07\n  dup2\n  add\n  swap3\n  dup3\n  iszero\n  tag_44\n  jumpi\n  swap2\n  0x20\n  mul\n  dup3\n  add\ntag_45:\n  dup3\n  dup2\n  gt\n  iszero\n  tag_46\n  jumpi\n  dup3\n  mload\n  dup3\n  sstore\n  swap2\n  0x20\n  add\n  swap2\n  swap1\n  0x01\n  add\n  swap1\n  jump(tag_45)\ntag_46:\ntag_44:\n  pop\n  swap1\n  pop\n  tag_47\n  swap2\n  swap1\n  tag_48\n  jump\t// in\ntag_47:\n  pop\n  swap1\n  jump\t// out\ntag_48:\ntag_49:\n  dup1\n  dup3\n  gt\n  iszero\n  tag_50\n  jumpi\n  0x00\n  dup2\n  0x00\n  swap1\n  sstore\n  pop\n  0x01\n  add\n  jump(tag_49)\ntag_50:\n  pop\n  swap1\n  jump\t// out\n    /* \"#utility.yul\":88:205   */\ntag_52:\n    /* \"#utility.yul\":197:198   */\n  0x00\n    /* \"#utility.yul\":194:195   */\n  dup1\n    /* \"#utility.yul\":187:199   */\n  revert\n    /* \"#utility.yul\":334:460   */\ntag_54:\n    /* \"#utility.yul\":371:378   */\n  0x00\n    /* \"#utility.yul\":411:453   */\n  0xffffffffffffffffffffffffffffffffffffffff\n    /* \"#utility.yul\":404:409   */\n  dup3\n    /* \"#utility.yul\":400:454   */\n  and\n    /* \"#utility.yul\":389:454   */\n  swap1\n  pop\n    /* \"#utility.yul\":334:460   */\n  swap2\n  swap1\n  pop\n  jump\t// out\n    /* \"#utility.yul\":466:562   */\ntag_55:\n    /* \"#utility.yul\":503:510   */\n  0x00\n    /* \"#utility.yul\":532:556   */\n  tag_71\n    /* \"#utility.yul\":550:555   */\n  dup3\n    /* \"#utility.yul\":532:556   */\n  tag_54\n  jump\t// in\ntag_71:\n    /* \"#utility.yul\":521:556   */\n  swap1\n  pop\n    /* \"#utility.yul\":466:562   */\n  swap2\n  swap1\n  pop\n  jump\t// out\n    /* \"#utility.yul\":568:690   */\ntag_56:\n    /* \"#utility.yul\":641:665   */\n  tag_73\n    /* \"#utility.yul\":659:664   */\n  dup2\n    /* \"#utility.yul\":641:665   */\n  tag_55\n  jump\t// in\ntag_73:\n    /* \"#utility.yul\":634:639   */\n  dup2\n    /* \"#utility.yul\":631:666   */\n  eq\n    /* \"#utility.yul\":621:684   */\n  tag_74\n  jumpi\n    /* \"#utility.yul\":680:681   */\n  0x00\n    /* \"#utility.yul\":677:678   */\n  dup1\n    /* \"#utility.yul\":670:682   */\n  revert\n    /* \"#utility.yul\":621:684   */\ntag_74:\n    /* \"#utility.yul\":568:690   */\n  pop\n  jump\t// out\n    /* \"#utility.yul\":696:839   */\ntag_57:\n    /* \"#utility.yul\":753:758   */\n  0x00\n    /* \"#utility.yul\":784:790   */\n  dup2\n    /* \"#utility.yul\":778:791   */\n  mload\n    /* \"#utility.yul\":769:791   */\n  swap1\n  pop\n    /* \"#utility.yul\":800:833   */\n  tag_76\n    /* \"#utility.yul\":827:832   */\n  dup2\n    /* \"#utility.yul\":800:833   */\n  tag_56\n  jump\t// in\ntag_76:\n    /* \"#utility.yul\":696:839   */\n  swap3\n  swap2\n  pop\n  pop\n  jump\t// out\n    /* \"#utility.yul\":845:922   */\ntag_58:\n    /* \"#utility.yul\":882:889   */\n  0x00\n    /* \"#utility.yul\":911:916   */\n  dup2\n    /* \"#utility.yul\":900:916   */\n  swap1\n  pop\n    /* \"#utility.yul\":845:922   */\n  swap2\n  swap1\n  pop\n  jump\t// out\n    /* \"#utility.yul\":928:1050   */\ntag_59:\n    /* \"#utility.yul\":1001:1025   */\n  tag_79\n    /* \"#utility.yul\":1019:1024   */\n  dup2\n    /* \"#utility.yul\":1001:1025   */\n  tag_58\n  jump\t// in\ntag_79:\n    /* \"#utility.yul\":994:999   */\n  dup2\n    /* \"#utility.yul\":991:1026   */\n  eq\n    /* \"#utility.yul\":981:1044   */\n  tag_80\n  jumpi\n    /* \"#utility.yul\":1040:1041   */\n  0x00\n    /* \"#utility.yul\":1037:1038   */\n  dup1\n    /* \"#utility.yul\":1030:1042   */\n  revert\n    /* \"#utility.yul\":981:1044   */\ntag_80:\n    /* \"#utility.yul\":928:1050   */\n  pop\n  jump\t// out\n    /* \"#utility.yul\":1056:1199   */\ntag_60:\n    /* \"#utility.yul\":1113:1118   */\n  0x00\n    /* \"#utility.yul\":1144:1150   */\n  dup2\n    /* \"#utility.yul\":1138:1151   */\n  mload\n    /* \"#utility.yul\":1129:1151   */\n  swap1\n  pop\n    /* \"#utility.yul\":1160:1193   */\n  tag_82\n    /* \"#utility.yul\":1187:1192   */\n  dup2\n    /* \"#utility.yul\":1160:1193   */\n  tag_59\n  jump\t// in\ntag_82:\n    /* \"#utility.yul\":1056:1199   */\n  swap3\n  swap2\n  pop\n  pop\n  jump\t// out\n    /* \"#utility.yul\":1205:2025   */\ntag_3:\n    /* \"#utility.yul\":1302:1308   */\n  0x00\n    /* \"#utility.yul\":1310:1316   */\n  dup1\n    /* \"#utility.yul\":1318:1324   */\n  0x00\n    /* \"#utility.yul\":1326:1332   */\n  dup1\n    /* \"#utility.yul\":1375:1378   */\n  0x80\n    /* \"#utility.yul\":1363:1372   */\n  dup6\n    /* \"#utility.yul\":1354:1361   */\n  dup8\n    /* \"#utility.yul\":1350:1373   */\n  sub\n    /* \"#utility.yul\":1346:1379   */\n  slt\n    /* \"#utility.yul\":1343:1463   */\n  iszero\n  tag_84\n  jumpi\n    /* \"#utility.yul\":1382:1461   */\n  tag_85\n  tag_52\n  jump\t// in\ntag_85:\n    /* \"#utility.yul\":1343:1463   */\ntag_84:\n    /* \"#utility.yul\":1502:1503   */\n  0x00\n    /* \"#utility.yul\":1527:1591   */\n  tag_86\n    /* \"#utility.yul\":1583:1590   */\n  dup8\n    /* \"#utility.yul\":1574:1580   */\n  dup3\n    /* \"#utility.yul\":1563:1572   */\n  dup9\n    /* \"#utility.yul\":1559:1581   */\n  add\n    /* \"#utility.yul\":1527:1591   */\n  tag_57\n  jump\t// in\ntag_86:\n    /* \"#utility.yul\":1517:1591   */\n  swap5\n  pop\n    /* \"#utility.yul\":1473:1601   */\n  pop\n    /* \"#utility.yul\":1640:1642   */\n  0x20\n    /* \"#utility.yul\":1666:1730   */\n  tag_87\n    /* \"#utility.yul\":1722:1729   */\n  dup8\n    /* \"#utility.yul\":1713:1719   */\n  dup3\n    /* \"#utility.yul\":1702:1711   */\n  dup9\n    /* \"#utility.yul\":1698:1720   */\n  add\n    /* \"#utility.yul\":1666:1730   */\n  tag_60\n  jump\t// in\ntag_87:\n    /* \"#utility.yul\":1656:1730   */\n  swap4\n  pop\n    /* \"#utility.yul\":1611:1740   */\n  pop\n    /* \"#utility.yul\":1779:1781   */\n  0x40\n    /* \"#utility.yul\":1805:1869   */\n  tag_88\n    /* \"#utility.yul\":1861:1868   */\n  dup8\n    /* \"#utility.yul\":1852:1858   */\n  dup3\n    /* \"#utility.yul\":1841:1850   */\n  dup9\n    /* \"#utility.yul\":1837:1859   */\n  add\n    /* \"#utility.yul\":1805:1869   */\n  tag_60\n  jump\t// in\ntag_88:\n    /* \"#utility.yul\":1795:1869   */\n  swap3\n  pop\n    /* \"#utility.yul\":1750:1879   */\n  pop\n    /* \"#utility.yul\":1918:1920   */\n  0x60\n    /* \"#utility.yul\":1944:2008   */\n  tag_89\n    /* \"#utility.yul\":2000:2007   */\n  dup8\n    /* \"#utility.yul\":1991:1997   */\n  dup3\n    /* \"#utility.yul\":1980:1989   */\n  dup9\n    /* \"#utility.yul\":1976:1998   */\n  add\n    /* \"#utility.yul\":1944:2008   */\n  tag_60\n  jump\t// in\ntag_89:\n    /* \"#utility.yul\":1934:2008   */\n  swap2\n  pop\n    /* \"#utility.yul\":1889:2018   */\n  pop\n    /* \"#utility.yul\":1205:2025   */\n  swap3\n  swap6\n  swap2\n  swap5\n  pop\n  swap3\n  pop\n  jump\t// out\n    /* \"#utility.yul\":2031:2211   */\ntag_21:\n    /* \"#utility.yul\":2079:2156   */\n  0x4e487b7100000000000000000000000000000000000000000000000000000000\n    /* \"#utility.yul\":2076:2077   */\n  0x00\n    /* \"#utility.yul\":2069:2157   */\n  mstore\n    /* \"#utility.yul\":2176:2180   */\n  0x21\n    /* \"#utility.yul\":2173:2174   */\n  0x04\n    /* \"#utility.yul\":2166:2181   */\n  mstore\n    /* \"#utility.yul\":2200:2204   */\n  0x24\n    /* \"#utility.yul\":2197:2198   */\n  0x00\n    /* \"#utility.yul\":2190:2205   */\n  revert\n    /* \"#utility.yul\":2217:2397   */\ntag_61:\n    /* \"#utility.yul\":2265:2342   */\n  0x4e487b7100000000000000000000000000000000000000000000000000000000\n    /* \"#utility.yul\":2262:2263   */\n  0x00\n    /* \"#utility.yul\":2255:2343   */\n  mstore\n    /* \"#utility.yul\":2362:2366   */\n  0x11\n    /* \"#utility.yul\":2359:2360   */\n  0x04\n    /* \"#utility.yul\":2352:2367   */\n  mstore\n    /* \"#utility.yul\":2386:2390   */\n  0x24\n    /* \"#utility.yul\":2383:2384   */\n  0x00\n    /* \"#utility.yul\":2376:2391   */\n  revert\n    /* \"#utility.yul\":2403:2597   */\ntag_23:\n    /* \"#utility.yul\":2443:2447   */\n  0x00\n    /* \"#utility.yul\":2463:2483   */\n  tag_93\n    /* \"#utility.yul\":2481:2482   */\n  dup3\n    /* \"#utility.yul\":2463:2483   */\n  tag_58\n  jump\t// in\ntag_93:\n    /* \"#utility.yul\":2458:2483   */\n  swap2\n  pop\n    /* \"#utility.yul\":2497:2517   */\n  tag_94\n    /* \"#utility.yul\":2515:2516   */\n  dup4\n    /* \"#utility.yul\":2497:2517   */\n  tag_58\n  jump\t// in\ntag_94:\n    /* \"#utility.yul\":2492:2517   */\n  swap3\n  pop\n    /* \"#utility.yul\":2541:2542   */\n  dup3\n    /* \"#utility.yul\":2538:2539   */\n  dup3\n    /* \"#utility.yul\":2534:2543   */\n  sub\n    /* \"#utility.yul\":2526:2543   */\n  swap1\n  pop\n    /* \"#utility.yul\":2565:2566   */\n  dup2\n    /* \"#utility.yul\":2559:2563   */\n  dup2\n    /* \"#utility.yul\":2556:2567   */\n  gt\n    /* \"#utility.yul\":2553:2590   */\n  iszero\n  tag_95\n  jumpi\n    /* \"#utility.yul\":2570:2588   */\n  tag_96\n  tag_61\n  jump\t// in\ntag_96:\n    /* \"#utility.yul\":2553:2590   */\ntag_95:\n    /* \"#utility.yul\":2403:2597   */\n  swap3\n  swap2\n  pop\n  pop\n  jump\t// out\n    /* \"#utility.yul\":2603:2783   */\ntag_26:\n    /* \"#utility.yul\":2651:2728   */\n  0x4e487b7100000000000000000000000000000000000000000000000000000000\n    /* \"#utility.yul\":2648:2649   */\n  0x00\n    /* \"#utility.yul\":2641:2729   */\n  mstore\n    /* \"#utility.yul\":2748:2752   */\n  0x32\n    /* \"#utility.yul\":2745:2746   */\n  0x04\n    /* \"#utility.yul\":2738:2753   */\n  mstore\n    /* \"#utility.yul\":2772:2776   */\n  0x24\n    /* \"#utility.yul\":2769:2770   */\n  0x00\n    /* \"#utility.yul\":2762:2777   */\n  revert\n    /* \"#utility.yul\":2789:2958   */\ntag_62:\n    /* \"#utility.yul\":2873:2884   */\n  0x00\n    /* \"#utility.yul\":2907:2913   */\n  dup3\n    /* \"#utility.yul\":2902:2905   */\n  dup3\n    /* \"#utility.yul\":2895:2914   */\n  mstore\n    /* \"#utility.yul\":2947:2951   */\n  0x20\n    /* \"#utility.yul\":2942:2945   */\n  dup3\n    /* \"#utility.yul\":2938:2952   */\n  add\n    /* \"#utility.yul\":2923:2952   */\n  swap1\n  pop\n    /* \"#utility.yul\":2789:2958   */\n  swap3\n  swap2\n  pop\n  pop\n  jump\t// out\n    /* \"#utility.yul\":2964:3131   */\ntag_63:\n    /* \"#utility.yul\":3104:3123   */\n  0x526f756e6420696e2070726f6772657373000000000000000000000000000000\n    /* \"#utility.yul\":3100:3101   */\n  0x00\n    /* \"#utility.yul\":3092:3098   */\n  dup3\n    /* \"#utility.yul\":3088:3102   */\n  add\n    /* \"#utility.yul\":3081:3124   */\n  mstore\n    /* \"#utility.yul\":2964:3131   */\n  pop\n  jump\t// out\n    /* \"#utility.yul\":3137:3503   */\ntag_64:\n    /* \"#utility.yul\":3279:3282   */\n  0x00\n    /* \"#utility.yul\":3300:3367   */\n  tag_101\n    /* \"#utility.yul\":3364:3366   */\n  0x11\n    /* \"#utility.yul\":3359:3362   */\n  dup4\n    /* \"#utility.yul\":3300:3367   */\n  tag_62\n  jump\t// in\ntag_101:\n    /* \"#utility.yul\":3293:3367   */\n  swap2\n  pop\n    /* \"#utility.yul\":3376:3469   */\n  tag_102\n    /* \"#utility.yul\":3465:3468   */\n  dup3\n    /* \"#utility.yul\":3376:3469   */\n  tag_63\n  jump\t// in\ntag_102:\n    /* \"#utility.yul\":3494:3496   */\n  0x20\n    /* \"#utility.yul\":3489:3492   */\n  dup3\n    /* \"#utility.yul\":3485:3497   */\n  add\n    /* \"#utility.yul\":3478:3497   */\n  swap1\n  pop\n    /* \"#utility.yul\":3137:3503   */\n  swap2\n  swap1\n  pop\n  jump\t// out\n    /* \"#utility.yul\":3509:3928   */\ntag_32:\n    /* \"#utility.yul\":3675:3679   */\n  0x00\n    /* \"#utility.yul\":3713:3715   */\n  0x20\n    /* \"#utility.yul\":3702:3711   */\n  dup3\n    /* \"#utility.yul\":3698:3716   */\n  add\n    /* \"#utility.yul\":3690:3716   */\n  swap1\n  pop\n    /* \"#utility.yul\":3762:3771   */\n  dup2\n    /* \"#utility.yul\":3756:3760   */\n  dup2\n    /* \"#utility.yul\":3752:3772   */\n  sub\n    /* \"#utility.yul\":3748:3749   */\n  0x00\n    /* \"#utility.yul\":3737:3746   */\n  dup4\n    /* \"#utility.yul\":3733:3750   */\n  add\n    /* \"#utility.yul\":3726:3773   */\n  mstore\n    /* \"#utility.yul\":3790:3921   */\n  tag_104\n    /* \"#utility.yul\":3916:3920   */\n  dup2\n    /* \"#utility.yul\":3790:3921   */\n  tag_64\n  jump\t// in\ntag_104:\n    /* \"#utility.yul\":3782:3921   */\n  swap1\n  pop\n    /* \"#utility.yul\":3509:3928   */\n  swap2\n  swap1\n  pop\n  jump\t// out\n    /* \"#utility.yul\":3934:4125   */\ntag_36:\n    /* \"#utility.yul\":3974:3977   */\n  0x00\n    /* \"#utility.yul\":3993:4013   */\n  tag_106\n    /* \"#utility.yul\":4011:4012   */\n  dup3\n    /* \"#utility.yul\":3993:4013   */\n  tag_58\n  jump\t// in\ntag_106:\n    /* \"#utility.yul\":3988:4013   */\n  swap2\n  pop\n    /* \"#utility.yul\":4027:4047   */\n  tag_107\n    /* \"#utility.yul\":4045:4046   */\n  dup4\n    /* \"#utility.yul\":4027:4047   */\n  tag_58\n  jump\t// in\ntag_107:\n    /* \"#utility.yul\":4022:4047   */\n  swap3\n  pop\n    /* \"#utility.yul\":4070:4071   */\n  dup3\n    /* \"#utility.yul\":4067:4068   */\n  dup3\n    /* \"#utility.yul\":4063:4072   */\n  add\n    /* \"#utility.yul\":4056:4072   */\n  swap1\n  pop\n    /* \"#utility.yul\":4091:4094   */\n  dup1\n    /* \"#utility.yul\":4088:4089   */\n  dup3\n    /* \"#utility.yul\":4085:4095   */\n  gt\n    /* \"#utility.yul\":4082:4118   */\n  iszero\n  tag_108\n  jumpi\n    /* \"#utility.yul\":4098:4116   */\n  tag_109\n  tag_61\n  jump\t// in\ntag_109:\n    /* \"#utility.yul\":4082:4118   */\ntag_108:\n    /* \"#utility.yul\":3934:4125   */\n  swap3\n  swap2\n  pop\n  pop\n  jump\t// out\n    /* \"contracts/Lotto.sol\":184:8269  contract Lottery is Ownable {... */\ntag_14:\n  dataSize(sub_0)\n  dup1\n  dataOffset(sub_0)\n  0x00\n  codecopy\n  0x00\n  return\nstop\n\nsub_0: assembly {\n        /* \"contracts/Lotto.sol\":184:8269  contract Lottery is Ownable {... */\n      mstore(0x40, 0x80)\n      jumpi(tag_1, lt(calldatasize, 0x04))\n      shr(0xe0, calldataload(0x00))\n      dup1\n      0x8c65c81f\n      gt\n      tag_25\n      jumpi\n      dup1\n      0xbedf0f4a\n      gt\n      tag_26\n      jumpi\n      dup1\n      0xbedf0f4a\n      eq\n      tag_19\n      jumpi\n      dup1\n      0xdd8ab8f9\n      eq\n      tag_20\n      jumpi\n      dup1\n      0xe12ed13c\n      eq\n      tag_21\n      jumpi\n      dup1\n      0xf2fde38b\n      eq\n      tag_22\n      jumpi\n      dup1\n      0xfc0c546a\n      eq\n      tag_23\n      jumpi\n      dup1\n      0xfea9b572\n      eq\n      tag_24\n      jumpi\n      jump(tag_1)\n    tag_26:\n      dup1\n      0x8c65c81f\n      eq\n      tag_13\n      jumpi\n      dup1\n      0x8cd85dc2\n      eq\n      tag_14\n      jumpi\n      dup1\n      0x8da5cb5b\n      eq\n      tag_15\n      jumpi\n      dup1\n      0xa2b40d19\n      eq\n      tag_16\n      jumpi\n      dup1\n      0xa8bd5634\n      eq\n      tag_17\n      jumpi\n      dup1\n      0xb5558562\n      eq\n      tag_18\n      jumpi\n      jump(tag_1)\n    tag_25:\n      dup1\n      0x49c4e5b8\n      gt\n      tag_27\n      jumpi\n      dup1\n      0x49c4e5b8\n      eq\n      tag_7\n      jumpi\n      dup1\n      0x50b44712\n      eq\n      tag_8\n      jumpi\n      dup1\n      0x63c75607\n      eq\n      tag_9\n      jumpi\n      dup1\n      0x6f9fb98a\n      eq\n      tag_10\n      jumpi\n      dup1\n      0x715018a6\n      eq\n      tag_11\n      jumpi\n      dup1\n      0x7157c113\n      eq\n      tag_12\n      jumpi\n      jump(tag_1)\n    tag_27:\n      dup1\n      0x1a95f15f\n      eq\n      tag_2\n      jumpi\n      dup1\n      0x379607f5\n      eq\n      tag_3\n      jumpi\n      dup1\n      0x44352d0a\n      eq\n      tag_4\n      jumpi\n      dup1\n      0x46583a26\n      eq\n      tag_5\n      jumpi\n      dup1\n      0x47e40553\n      eq\n      tag_6\n      jumpi\n    tag_1:\n      0x00\n      dup1\n      revert\n        /* \"contracts/Lotto.sol\":694:721  uint256 public TICKET_PRICE */\n    tag_2:\n      callvalue\n      dup1\n      iszero\n      tag_28\n      jumpi\n      0x00\n      dup1\n      revert\n    tag_28:\n      pop\n      tag_29\n      tag_30\n      jump\t// in\n    tag_29:\n      mload(0x40)\n      tag_31\n      swap2\n      swap1\n      tag_32\n      jump\t// in\n    tag_31:\n      mload(0x40)\n      dup1\n      swap2\n      sub\n      swap1\n      return\n        /* \"contracts/Lotto.sol\":4866:6242  function claim(uint256 number) public {... */\n    tag_3:\n      callvalue\n      dup1\n      iszero\n      tag_33\n      jumpi\n      0x00\n      dup1\n      revert\n    tag_33:\n      pop\n      tag_34\n      0x04\n      dup1\n      calldatasize\n      sub\n      dup2\n      add\n      swap1\n      tag_35\n      swap2\n      swap1\n      tag_36\n      jump\t// in\n    tag_35:\n      tag_37\n      jump\t// in\n    tag_34:\n      stop\n        /* \"contracts/Lotto.sol\":6917:7518  function getMyTicket(uint256 _round) public view returns(uint[6][] memory){... */\n    tag_4:\n      callvalue\n      dup1\n      iszero\n      tag_38\n      jumpi\n      0x00\n      dup1\n      revert\n    tag_38:\n      pop\n      tag_39\n      0x04\n      dup1\n      calldatasize\n      sub\n      dup2\n      add\n      swap1\n      tag_40\n      swap2\n      swap1\n      tag_36\n      jump\t// in\n    tag_40:\n      tag_41\n      jump\t// in\n    tag_39:\n      mload(0x40)\n      tag_42\n      swap2\n      swap1\n      tag_43\n      jump\t// in\n    tag_42:\n      mload(0x40)\n      dup1\n      swap2\n      sub\n      swap1\n      return\n        /* \"contracts/Lotto.sol\":1753:2771  function tokenBuy(uint256[6] memory numbers) public {... */\n    tag_5:\n      callvalue\n      dup1\n      iszero\n      tag_44\n      jumpi\n      0x00\n      dup1\n      revert\n    tag_44:\n      pop\n      tag_45\n      0x04\n      dup1\n      calldatasize\n      sub\n      dup2\n      add\n      swap1\n      tag_46\n      swap2\n      swap1\n      tag_47\n      jump\t// in\n    tag_46:\n      tag_48\n      jump\t// in\n    tag_45:\n      stop\n        /* \"contracts/Lotto.sol\":6757:6881  function nextRound() external onlyOwner{... */\n    tag_6:\n      callvalue\n      dup1\n      iszero\n      tag_49\n      jumpi\n      0x00\n      dup1\n      revert\n    tag_49:\n      pop\n      tag_50\n      tag_51\n      jump\t// in\n    tag_50:\n      stop\n        /* \"contracts/Lotto.sol\":726:759  uint256 public TICKET_TOKEN_PRICE */\n    tag_7:\n      callvalue\n      dup1\n      iszero\n      tag_52\n      jumpi\n      0x00\n      dup1\n      revert\n    tag_52:\n      pop\n      tag_53\n      tag_54\n      jump\t// in\n    tag_53:\n      mload(0x40)\n      tag_55\n      swap2\n      swap1\n      tag_32\n      jump\t// in\n    tag_55:\n      mload(0x40)\n      dup1\n      swap2\n      sub\n      swap1\n      return\n        /* \"contracts/Lotto.sol\":877:900  Ticket[] public tickets */\n    tag_8:\n      callvalue\n      dup1\n      iszero\n      tag_56\n      jumpi\n      0x00\n      dup1\n      revert\n    tag_56:\n      pop\n      tag_57\n      0x04\n      dup1\n      calldatasize\n      sub\n      dup2\n      add\n      swap1\n      tag_58\n      swap2\n      swap1\n      tag_36\n      jump\t// in\n    tag_58:\n      tag_59\n      jump\t// in\n    tag_57:\n      mload(0x40)\n      tag_60\n      swap3\n      swap2\n      swap1\n      tag_61\n      jump\t// in\n    tag_60:\n      mload(0x40)\n      dup1\n      swap2\n      sub\n      swap1\n      return\n        /* \"contracts/Lotto.sol\":7925:8025  function changeInterval(uint256 _interval) external onlyOwner{... */\n    tag_9:\n      callvalue\n      dup1\n      iszero\n      tag_62\n      jumpi\n      0x00\n      dup1\n      revert\n    tag_62:\n      pop\n      tag_63\n      0x04\n      dup1\n      calldatasize\n      sub\n      dup2\n      add\n      swap1\n      tag_64\n      swap2\n      swap1\n      tag_36\n      jump\t// in\n    tag_64:\n      tag_65\n      jump\t// in\n    tag_63:\n      stop\n        /* \"contracts/Lotto.sol\":7681:7778  function getContractBalance() public view returns(uint) {... */\n    tag_10:\n      callvalue\n      dup1\n      iszero\n      tag_66\n      jumpi\n      0x00\n      dup1\n      revert\n    tag_66:\n      pop\n      tag_67\n      tag_68\n      jump\t// in\n    tag_67:\n      mload(0x40)\n      tag_69\n      swap2\n      swap1\n      tag_32\n      jump\t// in\n    tag_69:\n      mload(0x40)\n      dup1\n      swap2\n      sub\n      swap1\n      return\n        /* \"@klaytn/contracts/contracts/access/Ownable.sol\":1668:1769  function renounceOwnership() public virtual onlyOwner {... */\n    tag_11:\n      callvalue\n      dup1\n      iszero\n      tag_70\n      jumpi\n      0x00\n      dup1\n      revert\n    tag_70:\n      pop\n      tag_71\n      tag_72\n      jump\t// in\n    tag_71:\n      stop\n        /* \"contracts/Lotto.sol\":907:936  uint256 public round_interval */\n    tag_12:\n      callvalue\n      dup1\n      iszero\n      tag_73\n      jumpi\n      0x00\n      dup1\n      revert\n    tag_73:\n      pop\n      tag_74\n      tag_75\n      jump\t// in\n    tag_74:\n      mload(0x40)\n      tag_76\n      swap2\n      swap1\n      tag_32\n      jump\t// in\n    tag_76:\n      mload(0x40)\n      dup1\n      swap2\n      sub\n      swap1\n      return\n        /* \"contracts/Lotto.sol\":851:872  Round[] public rounds */\n    tag_13:\n      callvalue\n      dup1\n      iszero\n      tag_77\n      jumpi\n      0x00\n      dup1\n      revert\n    tag_77:\n      pop\n      tag_78\n      0x04\n      dup1\n      calldatasize\n      sub\n      dup2\n      add\n      swap1\n      tag_79\n      swap2\n      swap1\n      tag_36\n      jump\t// in\n    tag_79:\n      tag_80\n      jump\t// in\n    tag_78:\n      mload(0x40)\n      tag_81\n      swap5\n      swap4\n      swap3\n      swap2\n      swap1\n      tag_82\n      jump\t// in\n    tag_81:\n      mload(0x40)\n      dup1\n      swap2\n      sub\n      swap1\n      return\n        /* \"contracts/Lotto.sol\":7552:7675  function getWinNumbers(uint256 _round) public view returns(uint256[7] memory) {... */\n    tag_14:\n      callvalue\n      dup1\n      iszero\n      tag_83\n      jumpi\n      0x00\n      dup1\n      revert\n    tag_83:\n      pop\n      tag_84\n      0x04\n      dup1\n      calldatasize\n      sub\n      dup2\n      add\n      swap1\n      tag_85\n      swap2\n      swap1\n      tag_36\n      jump\t// in\n    tag_85:\n      tag_86\n      jump\t// in\n    tag_84:\n      mload(0x40)\n      tag_87\n      swap2\n      swap1\n      tag_88\n      jump\t// in\n    tag_87:\n      mload(0x40)\n      dup1\n      swap2\n      sub\n      swap1\n      return\n        /* \"@klaytn/contracts/contracts/access/Ownable.sol\":1036:1121  function owner() public view virtual returns (address) {... */\n    tag_15:\n      callvalue\n      dup1\n      iszero\n      tag_89\n      jumpi\n      0x00\n      dup1\n      revert\n    tag_89:\n      pop\n      tag_90\n      tag_91\n      jump\t// in\n    tag_90:\n      mload(0x40)\n      tag_92\n      swap2\n      swap1\n      tag_93\n      jump\t// in\n    tag_92:\n      mload(0x40)\n      dup1\n      swap2\n      sub\n      swap1\n      return\n        /* \"contracts/Lotto.sol\":8031:8121  function changePrice(uint256 _price) external onlyOwner {... */\n    tag_16:\n      callvalue\n      dup1\n      iszero\n      tag_94\n      jumpi\n      0x00\n      dup1\n      revert\n    tag_94:\n      pop\n      tag_95\n      0x04\n      dup1\n      calldatasize\n      sub\n      dup2\n      add\n      swap1\n      tag_96\n      swap2\n      swap1\n      tag_36\n      jump\t// in\n    tag_96:\n      tag_97\n      jump\t// in\n    tag_95:\n      stop\n        /* \"contracts/Lotto.sol\":2777:3640  function buy(uint256[6] memory numbers) public payable {... */\n    tag_17:\n      tag_98\n      0x04\n      dup1\n      calldatasize\n      sub\n      dup2\n      add\n      swap1\n      tag_99\n      swap2\n      swap1\n      tag_47\n      jump\t// in\n    tag_99:\n      tag_100\n      jump\t// in\n    tag_98:\n      stop\n        /* \"contracts/Lotto.sol\":8127:8264  function tokenWithdraw(address payable toAdress) external onlyOwner {... */\n    tag_18:\n      callvalue\n      dup1\n      iszero\n      tag_101\n      jumpi\n      0x00\n      dup1\n      revert\n    tag_101:\n      pop\n      tag_102\n      0x04\n      dup1\n      calldatasize\n      sub\n      dup2\n      add\n      swap1\n      tag_103\n      swap2\n      swap1\n      tag_104\n      jump\t// in\n    tag_103:\n      tag_105\n      jump\t// in\n    tag_102:\n      stop\n        /* \"contracts/Lotto.sol\":7784:7919  function Stop() public onlyOwner{... */\n    tag_19:\n      callvalue\n      dup1\n      iszero\n      tag_106\n      jumpi\n      0x00\n      dup1\n      revert\n    tag_106:\n      pop\n      tag_107\n      tag_108\n      jump\t// in\n    tag_107:\n      stop\n        /* \"contracts/Lotto.sol\":764:802  uint256 constant public MIN_NUMBER = 1 */\n    tag_20:\n      callvalue\n      dup1\n      iszero\n      tag_109\n      jumpi\n      0x00\n      dup1\n      revert\n    tag_109:\n      pop\n      tag_110\n      tag_111\n      jump\t// in\n    tag_110:\n      mload(0x40)\n      tag_112\n      swap2\n      swap1\n      tag_32\n      jump\t// in\n    tag_112:\n      mload(0x40)\n      dup1\n      swap2\n      sub\n      swap1\n      return\n        /* \"contracts/Lotto.sol\":964:991  uint256 public currentBlock */\n    tag_21:\n      callvalue\n      dup1\n      iszero\n      tag_113\n      jumpi\n      0x00\n      dup1\n      revert\n    tag_113:\n      pop\n      tag_114\n      tag_115\n      jump\t// in\n    tag_114:\n      mload(0x40)\n      tag_116\n      swap2\n      swap1\n      tag_32\n      jump\t// in\n    tag_116:\n      mload(0x40)\n      dup1\n      swap2\n      sub\n      swap1\n      return\n        /* \"@klaytn/contracts/contracts/access/Ownable.sol\":1918:2116  function transferOwnership(address newOwner) public virtual onlyOwner {... */\n    tag_22:\n      callvalue\n      dup1\n      iszero\n      tag_117\n      jumpi\n      0x00\n      dup1\n      revert\n    tag_117:\n      pop\n      tag_118\n      0x04\n      dup1\n      calldatasize\n      sub\n      dup2\n      add\n      swap1\n      tag_119\n      swap2\n      swap1\n      tag_120\n      jump\t// in\n    tag_119:\n      tag_121\n      jump\t// in\n    tag_118:\n      stop\n        /* \"contracts/Lotto.sol\":219:237  IKIP7 public token */\n    tag_23:\n      callvalue\n      dup1\n      iszero\n      tag_122\n      jumpi\n      0x00\n      dup1\n      revert\n    tag_122:\n      pop\n      tag_123\n      tag_124\n      jump\t// in\n    tag_123:\n      mload(0x40)\n      tag_125\n      swap2\n      swap1\n      tag_126\n      jump\t// in\n    tag_125:\n      mload(0x40)\n      dup1\n      swap2\n      sub\n      swap1\n      return\n        /* \"contracts/Lotto.sol\":807:846  uint256 constant public MAX_NUMBER = 45 */\n    tag_24:\n      callvalue\n      dup1\n      iszero\n      tag_127\n      jumpi\n      0x00\n      dup1\n      revert\n    tag_127:\n      pop\n      tag_128\n      tag_129\n      jump\t// in\n    tag_128:\n      mload(0x40)\n      tag_130\n      swap2\n      swap1\n      tag_32\n      jump\t// in\n    tag_130:\n      mload(0x40)\n      dup1\n      swap2\n      sub\n      swap1\n      return\n        /* \"contracts/Lotto.sol\":694:721  uint256 public TICKET_PRICE */\n    tag_30:\n      sload(0x02)\n      dup2\n      jump\t// out\n        /* \"contracts/Lotto.sol\":4866:6242  function claim(uint256 number) public {... */\n    tag_37:\n        /* \"contracts/Lotto.sol\":4944:4954  msg.sender */\n      caller\n        /* \"contracts/Lotto.sol\":4919:4954  tickets[number].owner == msg.sender */\n      0xffffffffffffffffffffffffffffffffffffffff\n      and\n        /* \"contracts/Lotto.sol\":4919:4926  tickets */\n      0x05\n        /* \"contracts/Lotto.sol\":4927:4933  number */\n      dup3\n        /* \"contracts/Lotto.sol\":4919:4934  tickets[number] */\n      dup2\n      sload\n      dup2\n      lt\n      tag_132\n      jumpi\n      tag_133\n      tag_134\n      jump\t// in\n    tag_133:\n    tag_132:\n      swap1\n      0x00\n      mstore\n      keccak256(0x00, 0x20)\n      swap1\n      0x08\n      mul\n      add\n        /* \"contracts/Lotto.sol\":4919:4940  tickets[number].owner */\n      0x00\n      add\n      0x00\n      swap1\n      sload\n      swap1\n      0x0100\n      exp\n      swap1\n      div\n      0xffffffffffffffffffffffffffffffffffffffff\n      and\n        /* \"contracts/Lotto.sol\":4919:4954  tickets[number].owner == msg.sender */\n      0xffffffffffffffffffffffffffffffffffffffff\n      and\n      eq\n        /* \"contracts/Lotto.sol\":4911:4955  require(tickets[number].owner == msg.sender) */\n      tag_136\n      jumpi\n      0x00\n      dup1\n      revert\n    tag_136:\n        /* \"contracts/Lotto.sol\":5010:5025  RoundStatus.End */\n      0x01\n        /* \"contracts/Lotto.sol\":4970:5025  rounds[tickets[number].round].status == RoundStatus.End */\n      dup1\n      dup2\n      gt\n      iszero\n      tag_137\n      jumpi\n      tag_138\n      tag_139\n      jump\t// in\n    tag_138:\n    tag_137:\n        /* \"contracts/Lotto.sol\":4970:4976  rounds */\n      0x04\n        /* \"contracts/Lotto.sol\":4977:4984  tickets */\n      0x05\n        /* \"contracts/Lotto.sol\":4985:4991  number */\n      dup4\n        /* \"contracts/Lotto.sol\":4977:4992  tickets[number] */\n      dup2\n      sload\n      dup2\n      lt\n      tag_140\n      jumpi\n      tag_141\n      tag_134\n      jump\t// in\n    tag_141:\n    tag_140:\n      swap1\n      0x00\n      mstore\n      keccak256(0x00, 0x20)\n      swap1\n      0x08\n      mul\n      add\n        /* \"contracts/Lotto.sol\":4977:4998  tickets[number].round */\n      0x01\n      add\n      sload\n        /* \"contracts/Lotto.sol\":4970:4999  rounds[tickets[number].round] */\n      dup2\n      sload\n      dup2\n      lt\n      tag_143\n      jumpi\n      tag_144\n      tag_134\n      jump\t// in\n    tag_144:\n    tag_143:\n      swap1\n      0x00\n      mstore\n      keccak256(0x00, 0x20)\n      swap1\n      0x0b\n      mul\n      add\n        /* \"contracts/Lotto.sol\":4970:5006  rounds[tickets[number].round].status */\n      0x02\n      add\n      0x00\n      swap1\n      sload\n      swap1\n      0x0100\n      exp\n      swap1\n      div\n      0xff\n      and\n        /* \"contracts/Lotto.sol\":4970:5025  rounds[tickets[number].round].status == RoundStatus.End */\n      0x01\n      dup2\n      gt\n      iszero\n      tag_146\n      jumpi\n      tag_147\n      tag_139\n      jump\t// in\n    tag_147:\n    tag_146:\n      eq\n        /* \"contracts/Lotto.sol\":4962:5026  require(rounds[tickets[number].round].status == RoundStatus.End) */\n      tag_148\n      jumpi\n      0x00\n      dup1\n      revert\n    tag_148:\n        /* \"contracts/Lotto.sol\":5039:5067  uint256[6] storage myNumbers */\n      0x00\n        /* \"contracts/Lotto.sol\":5070:5077  tickets */\n      0x05\n        /* \"contracts/Lotto.sol\":5078:5084  number */\n      dup3\n        /* \"contracts/Lotto.sol\":5070:5085  tickets[number] */\n      dup2\n      sload\n      dup2\n      lt\n      tag_149\n      jumpi\n      tag_150\n      tag_134\n      jump\t// in\n    tag_150:\n    tag_149:\n      swap1\n      0x00\n      mstore\n      keccak256(0x00, 0x20)\n      swap1\n      0x08\n      mul\n      add\n        /* \"contracts/Lotto.sol\":5070:5092  tickets[number].number */\n      0x02\n      add\n        /* \"contracts/Lotto.sol\":5039:5092  uint256[6] storage myNumbers = tickets[number].number */\n      swap1\n      pop\n        /* \"contracts/Lotto.sol\":5099:5128  uint256[7] storage winNumbers */\n      0x00\n        /* \"contracts/Lotto.sol\":5131:5137  rounds */\n      0x04\n        /* \"contracts/Lotto.sol\":5154:5155  1 */\n      0x01\n        /* \"contracts/Lotto.sol\":5138:5144  rounds */\n      0x04\n        /* \"contracts/Lotto.sol\":5138:5151  rounds.length */\n      dup1\n      sload\n      swap1\n      pop\n        /* \"contracts/Lotto.sol\":5138:5155  rounds.length - 1 */\n      tag_152\n      swap2\n      swap1\n      tag_153\n      jump\t// in\n    tag_152:\n        /* \"contracts/Lotto.sol\":5131:5156  rounds[rounds.length - 1] */\n      dup2\n      sload\n      dup2\n      lt\n      tag_154\n      jumpi\n      tag_155\n      tag_134\n      jump\t// in\n    tag_155:\n    tag_154:\n      swap1\n      0x00\n      mstore\n      keccak256(0x00, 0x20)\n      swap1\n      0x0b\n      mul\n      add\n        /* \"contracts/Lotto.sol\":5131:5167  rounds[rounds.length - 1].winNumbers */\n      0x03\n      add\n        /* \"contracts/Lotto.sol\":5099:5167  uint256[7] storage winNumbers = rounds[rounds.length - 1].winNumbers */\n      swap1\n      pop\n        /* \"contracts/Lotto.sol\":5176:5190  uint256 reward */\n      0x00\n        /* \"contracts/Lotto.sol\":5201:5222  uint256 numberMatches */\n      dup1\n        /* \"contracts/Lotto.sol\":5233:5253  bool bonusNumMatches */\n      0x00\n        /* \"contracts/Lotto.sol\":5266:5275  uint256 i */\n      dup1\n        /* \"contracts/Lotto.sol\":5278:5279  0 */\n      0x00\n        /* \"contracts/Lotto.sol\":5266:5279  uint256 i = 0 */\n      swap1\n      pop\n        /* \"contracts/Lotto.sol\":5262:5534  for(uint256 i = 0; i < myNumbers.length; i++) {... */\n    tag_157:\n        /* \"contracts/Lotto.sol\":5285:5301  myNumbers.length */\n      0x06\n        /* \"contracts/Lotto.sol\":5281:5282  i */\n      dup2\n        /* \"contracts/Lotto.sol\":5281:5301  i < myNumbers.length */\n      lt\n        /* \"contracts/Lotto.sol\":5262:5534  for(uint256 i = 0; i < myNumbers.length; i++) {... */\n      iszero\n      tag_158\n      jumpi\n        /* \"contracts/Lotto.sol\":5321:5330  uint256 j */\n      0x00\n        /* \"contracts/Lotto.sol\":5317:5527  for(uint256 j = 0; j < winNumbers.length - 1; j++) {... */\n    tag_160:\n        /* \"contracts/Lotto.sol\":5360:5361  1 */\n      0x01\n        /* \"contracts/Lotto.sol\":5340:5357  winNumbers.length */\n      0x07\n        /* \"contracts/Lotto.sol\":5340:5361  winNumbers.length - 1 */\n      tag_163\n      swap2\n      swap1\n      tag_153\n      jump\t// in\n    tag_163:\n        /* \"contracts/Lotto.sol\":5336:5337  j */\n      dup2\n        /* \"contracts/Lotto.sol\":5336:5361  j < winNumbers.length - 1 */\n      lt\n        /* \"contracts/Lotto.sol\":5317:5527  for(uint256 j = 0; j < winNumbers.length - 1; j++) {... */\n      iszero\n      tag_161\n      jumpi\n        /* \"contracts/Lotto.sol\":5398:5408  winNumbers */\n      dup6\n        /* \"contracts/Lotto.sol\":5409:5410  j */\n      dup2\n        /* \"contracts/Lotto.sol\":5398:5411  winNumbers[j] */\n      0x07\n      dup2\n      lt\n      tag_164\n      jumpi\n      tag_165\n      tag_134\n      jump\t// in\n    tag_165:\n    tag_164:\n      add\n      sload\n        /* \"contracts/Lotto.sol\":5382:5391  myNumbers */\n      dup8\n        /* \"contracts/Lotto.sol\":5392:5393  i */\n      dup4\n        /* \"contracts/Lotto.sol\":5382:5394  myNumbers[i] */\n      0x06\n      dup2\n      lt\n      tag_167\n      jumpi\n      tag_168\n      tag_134\n      jump\t// in\n    tag_168:\n    tag_167:\n      add\n      sload\n        /* \"contracts/Lotto.sol\":5382:5411  myNumbers[i] == winNumbers[j] */\n      sub\n        /* \"contracts/Lotto.sol\":5379:5439  if(myNumbers[i] == winNumbers[j])... */\n      tag_170\n      jumpi\n        /* \"contracts/Lotto.sol\":5424:5439  numberMatches++ */\n      dup4\n      dup1\n      tag_171\n      swap1\n      tag_172\n      jump\t// in\n    tag_171:\n      swap5\n      pop\n      pop\n        /* \"contracts/Lotto.sol\":5379:5439  if(myNumbers[i] == winNumbers[j])... */\n    tag_170:\n        /* \"contracts/Lotto.sol\":5469:5479  winNumbers */\n      dup6\n        /* \"contracts/Lotto.sol\":5480:5481  6 */\n      0x06\n        /* \"contracts/Lotto.sol\":5469:5482  winNumbers[6] */\n      0x07\n      dup2\n      lt\n      tag_173\n      jumpi\n      tag_174\n      tag_134\n      jump\t// in\n    tag_174:\n    tag_173:\n      add\n      sload\n        /* \"contracts/Lotto.sol\":5453:5462  myNumbers */\n      dup8\n        /* \"contracts/Lotto.sol\":5463:5464  i */\n      dup4\n        /* \"contracts/Lotto.sol\":5453:5465  myNumbers[i] */\n      0x06\n      dup2\n      lt\n      tag_176\n      jumpi\n      tag_177\n      tag_134\n      jump\t// in\n    tag_177:\n    tag_176:\n      add\n      sload\n        /* \"contracts/Lotto.sol\":5453:5482  myNumbers[i] == winNumbers[6] */\n      sub\n        /* \"contracts/Lotto.sol\":5450:5517  if(myNumbers[i] == winNumbers[6])... */\n      tag_179\n      jumpi\n        /* \"contracts/Lotto.sol\":5513:5517  true */\n      0x01\n        /* \"contracts/Lotto.sol\":5495:5517  bonusNumMatches = true */\n      swap3\n      pop\n        /* \"contracts/Lotto.sol\":5450:5517  if(myNumbers[i] == winNumbers[6])... */\n    tag_179:\n        /* \"contracts/Lotto.sol\":5363:5366  j++ */\n      dup1\n      dup1\n      tag_180\n      swap1\n      tag_172\n      jump\t// in\n    tag_180:\n      swap2\n      pop\n      pop\n        /* \"contracts/Lotto.sol\":5317:5527  for(uint256 j = 0; j < winNumbers.length - 1; j++) {... */\n      jump(tag_160)\n    tag_161:\n      pop\n        /* \"contracts/Lotto.sol\":5303:5306  i++ */\n      dup1\n      dup1\n      tag_181\n      swap1\n      tag_172\n      jump\t// in\n    tag_181:\n      swap2\n      pop\n      pop\n        /* \"contracts/Lotto.sol\":5262:5534  for(uint256 i = 0; i < myNumbers.length; i++) {... */\n      jump(tag_157)\n    tag_158:\n      pop\n        /* \"contracts/Lotto.sol\":5616:5617  6 */\n      0x06\n        /* \"contracts/Lotto.sol\":5599:5612  numberMatches */\n      dup3\n        /* \"contracts/Lotto.sol\":5599:5617  numberMatches == 6 */\n      sub\n        /* \"contracts/Lotto.sol\":5596:6121  if(numberMatches == 6) {... */\n      tag_182\n      jumpi\n        /* \"contracts/Lotto.sol\":5693:5714  address(this).balance */\n      selfbalance\n        /* \"contracts/Lotto.sol\":5684:5714  reward = address(this).balance */\n      swap3\n      pop\n        /* \"contracts/Lotto.sol\":5596:6121  if(numberMatches == 6) {... */\n      jump(tag_183)\n    tag_182:\n        /* \"contracts/Lotto.sol\":5750:5751  5 */\n      0x05\n        /* \"contracts/Lotto.sol\":5733:5746  numberMatches */\n      dup3\n        /* \"contracts/Lotto.sol\":5733:5751  numberMatches == 5 */\n      eq\n        /* \"contracts/Lotto.sol\":5733:5770  numberMatches == 5 && bonusNumMatches */\n      dup1\n      iszero\n      tag_184\n      jumpi\n      pop\n        /* \"contracts/Lotto.sol\":5755:5770  bonusNumMatches */\n      dup1\n        /* \"contracts/Lotto.sol\":5733:5770  numberMatches == 5 && bonusNumMatches */\n    tag_184:\n        /* \"contracts/Lotto.sol\":5730:6121  if(numberMatches == 5 && bonusNumMatches) {   ... */\n      pop\n        /* \"contracts/Lotto.sol\":5596:6121  if(numberMatches == 6) {... */\n    tag_183:\n        /* \"contracts/Lotto.sol\":6136:6143  tickets */\n      0x05\n        /* \"contracts/Lotto.sol\":6144:6150  number */\n      dup7\n        /* \"contracts/Lotto.sol\":6136:6151  tickets[number] */\n      dup2\n      sload\n      dup2\n      lt\n      tag_193\n      jumpi\n      tag_194\n      tag_134\n      jump\t// in\n    tag_194:\n    tag_193:\n      swap1\n      0x00\n      mstore\n      keccak256(0x00, 0x20)\n      swap1\n      0x08\n      mul\n      add\n      0x00\n        /* \"contracts/Lotto.sol\":6129:6151  delete tickets[number] */\n      dup1\n      dup3\n      add\n      exp(0x0100, 0x00)\n      dup2\n      sload\n      swap1\n      0xffffffffffffffffffffffffffffffffffffffff\n      mul\n      not\n      and\n      swap1\n      sstore\n      0x01\n      dup3\n      add\n      0x00\n      swap1\n      sstore\n      0x02\n      dup3\n      add\n      0x00\n      tag_196\n      swap2\n      swap1\n      tag_197\n      jump\t// in\n    tag_196:\n      pop\n      pop\n        /* \"contracts/Lotto.sol\":6191:6201  msg.sender */\n      caller\n        /* \"contracts/Lotto.sol\":6183:6211  payable(msg.sender).transfer */\n      0xffffffffffffffffffffffffffffffffffffffff\n      and\n        /* \"contracts/Lotto.sol\":6183:6219  payable(msg.sender).transfer(reward) */\n      0x08fc\n        /* \"contracts/Lotto.sol\":6212:6218  reward */\n      dup5\n        /* \"contracts/Lotto.sol\":6183:6219  payable(msg.sender).transfer(reward) */\n      swap1\n      dup2\n      iszero\n      mul\n      swap1\n      mload(0x40)\n      0x00\n      mload(0x40)\n      dup1\n      dup4\n      sub\n      dup2\n      dup6\n      dup9\n      dup9\n      call\n      swap4\n      pop\n      pop\n      pop\n      pop\n      iszero\n      dup1\n      iszero\n      tag_199\n      jumpi\n      returndatasize\n      0x00\n      dup1\n      returndatacopy\n      revert(0x00, returndatasize)\n    tag_199:\n      pop\n        /* \"contracts/Lotto.sol\":4904:6242  {... */\n      pop\n      pop\n      pop\n      pop\n      pop\n        /* \"contracts/Lotto.sol\":4866:6242  function claim(uint256 number) public {... */\n      pop\n      jump\t// out\n        /* \"contracts/Lotto.sol\":6917:7518  function getMyTicket(uint256 _round) public view returns(uint[6][] memory){... */\n    tag_41:\n        /* \"contracts/Lotto.sol\":6974:6990  uint[6][] memory */\n      0x60\n        /* \"contracts/Lotto.sol\":7000:7019  uint256 myTicketLen */\n      0x00\n        /* \"contracts/Lotto.sol\":7030:7046  uint256 arrayCnt */\n      dup1\n        /* \"contracts/Lotto.sol\":7062:7068  uint i */\n      0x00\n        /* \"contracts/Lotto.sol\":7058:7216  for(uint i = 0; i < tickets.length; i++){... */\n    tag_201:\n        /* \"contracts/Lotto.sol\":7078:7085  tickets */\n      0x05\n        /* \"contracts/Lotto.sol\":7078:7092  tickets.length */\n      dup1\n      sload\n      swap1\n      pop\n        /* \"contracts/Lotto.sol\":7074:7075  i */\n      dup2\n        /* \"contracts/Lotto.sol\":7074:7092  i < tickets.length */\n      lt\n        /* \"contracts/Lotto.sol\":7058:7216  for(uint i = 0; i < tickets.length; i++){... */\n      iszero\n      tag_202\n      jumpi\n        /* \"contracts/Lotto.sol\":7131:7141  msg.sender */\n      caller\n        /* \"contracts/Lotto.sol\":7111:7141  tickets[i].owner == msg.sender */\n      0xffffffffffffffffffffffffffffffffffffffff\n      and\n        /* \"contracts/Lotto.sol\":7111:7118  tickets */\n      0x05\n        /* \"contracts/Lotto.sol\":7119:7120  i */\n      dup3\n        /* \"contracts/Lotto.sol\":7111:7121  tickets[i] */\n      dup2\n      sload\n      dup2\n      lt\n      tag_204\n      jumpi\n      tag_205\n      tag_134\n      jump\t// in\n    tag_205:\n    tag_204:\n      swap1\n      0x00\n      mstore\n      keccak256(0x00, 0x20)\n      swap1\n      0x08\n      mul\n      add\n        /* \"contracts/Lotto.sol\":7111:7127  tickets[i].owner */\n      0x00\n      add\n      0x00\n      swap1\n      sload\n      swap1\n      0x0100\n      exp\n      swap1\n      div\n      0xffffffffffffffffffffffffffffffffffffffff\n      and\n        /* \"contracts/Lotto.sol\":7111:7141  tickets[i].owner == msg.sender */\n      0xffffffffffffffffffffffffffffffffffffffff\n      and\n      eq\n        /* \"contracts/Lotto.sol\":7111:7171  tickets[i].owner == msg.sender && tickets[i].round == _round */\n      dup1\n      iszero\n      tag_207\n      jumpi\n      pop\n        /* \"contracts/Lotto.sol\":7165:7171  _round */\n      dup5\n        /* \"contracts/Lotto.sol\":7145:7152  tickets */\n      0x05\n        /* \"contracts/Lotto.sol\":7153:7154  i */\n      dup3\n        /* \"contracts/Lotto.sol\":7145:7155  tickets[i] */\n      dup2\n      sload\n      dup2\n      lt\n      tag_208\n      jumpi\n      tag_209\n      tag_134\n      jump\t// in\n    tag_209:\n    tag_208:\n      swap1\n      0x00\n      mstore\n      keccak256(0x00, 0x20)\n      swap1\n      0x08\n      mul\n      add\n        /* \"contracts/Lotto.sol\":7145:7161  tickets[i].round */\n      0x01\n      add\n      sload\n        /* \"contracts/Lotto.sol\":7145:7171  tickets[i].round == _round */\n      eq\n        /* \"contracts/Lotto.sol\":7111:7171  tickets[i].owner == msg.sender && tickets[i].round == _round */\n    tag_207:\n        /* \"contracts/Lotto.sol\":7108:7210  if(tickets[i].owner == msg.sender && tickets[i].round == _round){... */\n      iszero\n      tag_211\n      jumpi\n        /* \"contracts/Lotto.sol\":7186:7199  myTicketLen++ */\n      dup3\n      dup1\n      tag_212\n      swap1\n      tag_172\n      jump\t// in\n    tag_212:\n      swap4\n      pop\n      pop\n        /* \"contracts/Lotto.sol\":7108:7210  if(tickets[i].owner == msg.sender && tickets[i].round == _round){... */\n    tag_211:\n        /* \"contracts/Lotto.sol\":7094:7097  i++ */\n      dup1\n      dup1\n      tag_213\n      swap1\n      tag_172\n      jump\t// in\n    tag_213:\n      swap2\n      pop\n      pop\n        /* \"contracts/Lotto.sol\":7058:7216  for(uint i = 0; i < tickets.length; i++){... */\n      jump(tag_201)\n    tag_202:\n      pop\n        /* \"contracts/Lotto.sol\":7223:7247  uint[6][] memory numbers */\n      0x00\n        /* \"contracts/Lotto.sol\":7264:7275  myTicketLen */\n      dup3\n        /* \"contracts/Lotto.sol\":7250:7276  new uint[6][](myTicketLen) */\n      0xffffffffffffffff\n      dup2\n      gt\n      iszero\n      tag_214\n      jumpi\n      tag_215\n      tag_216\n      jump\t// in\n    tag_215:\n    tag_214:\n      mload(0x40)\n      swap1\n      dup1\n      dup3\n      mstore\n      dup1\n      0x20\n      mul\n      0x20\n      add\n      dup3\n      add\n      0x40\n      mstore\n      dup1\n      iszero\n      tag_217\n      jumpi\n      dup2\n      0x20\n      add\n    tag_218:\n      tag_219\n      tag_220\n      jump\t// in\n    tag_219:\n      dup2\n      mstore\n      0x20\n      add\n      swap1\n      0x01\n      swap1\n      sub\n      swap1\n      dup2\n      tag_218\n      jumpi\n      swap1\n      pop\n    tag_217:\n      pop\n        /* \"contracts/Lotto.sol\":7223:7276  uint[6][] memory numbers = new uint[6][](myTicketLen) */\n      swap1\n      pop\n        /* \"contracts/Lotto.sol\":7289:7295  uint i */\n      0x00\n        /* \"contracts/Lotto.sol\":7285:7491  for(uint i = 0; i < tickets.length; i++){... */\n    tag_221:\n        /* \"contracts/Lotto.sol\":7305:7312  tickets */\n      0x05\n        /* \"contracts/Lotto.sol\":7305:7319  tickets.length */\n      dup1\n      sload\n      swap1\n      pop\n        /* \"contracts/Lotto.sol\":7301:7302  i */\n      dup2\n        /* \"contracts/Lotto.sol\":7301:7319  i < tickets.length */\n      lt\n        /* \"contracts/Lotto.sol\":7285:7491  for(uint i = 0; i < tickets.length; i++){... */\n      iszero\n      tag_222\n      jumpi\n        /* \"contracts/Lotto.sol\":7358:7368  msg.sender */\n      caller\n        /* \"contracts/Lotto.sol\":7338:7368  tickets[i].owner == msg.sender */\n      0xffffffffffffffffffffffffffffffffffffffff\n      and\n        /* \"contracts/Lotto.sol\":7338:7345  tickets */\n      0x05\n        /* \"contracts/Lotto.sol\":7346:7347  i */\n      dup3\n        /* \"contracts/Lotto.sol\":7338:7348  tickets[i] */\n      dup2\n      sload\n      dup2\n      lt\n      tag_224\n      jumpi\n      tag_225\n      tag_134\n      jump\t// in\n    tag_225:\n    tag_224:\n      swap1\n      0x00\n      mstore\n      keccak256(0x00, 0x20)\n      swap1\n      0x08\n      mul\n      add\n        /* \"contracts/Lotto.sol\":7338:7354  tickets[i].owner */\n      0x00\n      add\n      0x00\n      swap1\n      sload\n      swap1\n      0x0100\n      exp\n      swap1\n      div\n      0xffffffffffffffffffffffffffffffffffffffff\n      and\n        /* \"contracts/Lotto.sol\":7338:7368  tickets[i].owner == msg.sender */\n      0xffffffffffffffffffffffffffffffffffffffff\n      and\n      eq\n        /* \"contracts/Lotto.sol\":7338:7398  tickets[i].owner == msg.sender && tickets[i].round == _round */\n      dup1\n      iszero\n      tag_227\n      jumpi\n      pop\n        /* \"contracts/Lotto.sol\":7392:7398  _round */\n      dup6\n        /* \"contracts/Lotto.sol\":7372:7379  tickets */\n      0x05\n        /* \"contracts/Lotto.sol\":7380:7381  i */\n      dup3\n        /* \"contracts/Lotto.sol\":7372:7382  tickets[i] */\n      dup2\n      sload\n      dup2\n      lt\n      tag_228\n      jumpi\n      tag_229\n      tag_134\n      jump\t// in\n    tag_229:\n    tag_228:\n      swap1\n      0x00\n      mstore\n      keccak256(0x00, 0x20)\n      swap1\n      0x08\n      mul\n      add\n        /* \"contracts/Lotto.sol\":7372:7388  tickets[i].round */\n      0x01\n      add\n      sload\n        /* \"contracts/Lotto.sol\":7372:7398  tickets[i].round == _round */\n      eq\n        /* \"contracts/Lotto.sol\":7338:7398  tickets[i].owner == msg.sender && tickets[i].round == _round */\n    tag_227:\n        /* \"contracts/Lotto.sol\":7335:7485  if(tickets[i].owner == msg.sender && tickets[i].round == _round){... */\n      iszero\n      tag_231\n      jumpi\n        /* \"contracts/Lotto.sol\":7433:7440  tickets */\n      0x05\n        /* \"contracts/Lotto.sol\":7441:7442  i */\n      dup2\n        /* \"contracts/Lotto.sol\":7433:7443  tickets[i] */\n      dup2\n      sload\n      dup2\n      lt\n      tag_232\n      jumpi\n      tag_233\n      tag_134\n      jump\t// in\n    tag_233:\n    tag_232:\n      swap1\n      0x00\n      mstore\n      keccak256(0x00, 0x20)\n      swap1\n      0x08\n      mul\n      add\n        /* \"contracts/Lotto.sol\":7433:7450  tickets[i].number */\n      0x02\n      add\n        /* \"contracts/Lotto.sol\":7413:7450  numbers[arrayCnt] = tickets[i].number */\n      0x06\n      dup1\n      0x20\n      mul\n      mload(0x40)\n      swap1\n      dup2\n      add\n      0x40\n      mstore\n      dup1\n      swap3\n      swap2\n      swap1\n      dup3\n      0x06\n      dup1\n      iszero\n      tag_235\n      jumpi\n      0x20\n      mul\n      dup3\n      add\n      swap2\n    tag_236:\n      dup2\n      sload\n      dup2\n      mstore\n      0x20\n      add\n      swap1\n      0x01\n      add\n      swap1\n      dup1\n      dup4\n      gt\n      tag_236\n      jumpi\n    tag_235:\n      pop\n      pop\n      pop\n      pop\n      pop\n        /* \"contracts/Lotto.sol\":7413:7420  numbers */\n      dup3\n        /* \"contracts/Lotto.sol\":7421:7429  arrayCnt */\n      dup5\n        /* \"contracts/Lotto.sol\":7413:7430  numbers[arrayCnt] */\n      dup2\n      mload\n      dup2\n      lt\n      tag_237\n      jumpi\n      tag_238\n      tag_134\n      jump\t// in\n    tag_238:\n    tag_237:\n      0x20\n      mul\n      0x20\n      add\n      add\n        /* \"contracts/Lotto.sol\":7413:7450  numbers[arrayCnt] = tickets[i].number */\n      dup2\n      swap1\n      mstore\n      pop\n        /* \"contracts/Lotto.sol\":7464:7474  arrayCnt++ */\n      dup3\n      dup1\n      tag_239\n      swap1\n      tag_172\n      jump\t// in\n    tag_239:\n      swap4\n      pop\n      pop\n        /* \"contracts/Lotto.sol\":7335:7485  if(tickets[i].owner == msg.sender && tickets[i].round == _round){... */\n    tag_231:\n        /* \"contracts/Lotto.sol\":7321:7324  i++ */\n      dup1\n      dup1\n      tag_240\n      swap1\n      tag_172\n      jump\t// in\n    tag_240:\n      swap2\n      pop\n      pop\n        /* \"contracts/Lotto.sol\":7285:7491  for(uint i = 0; i < tickets.length; i++){... */\n      jump(tag_221)\n    tag_222:\n      pop\n        /* \"contracts/Lotto.sol\":7505:7512  numbers */\n      dup1\n        /* \"contracts/Lotto.sol\":7498:7512  return numbers */\n      swap4\n      pop\n      pop\n      pop\n      pop\n        /* \"contracts/Lotto.sol\":6917:7518  function getMyTicket(uint256 _round) public view returns(uint[6][] memory){... */\n      swap2\n      swap1\n      pop\n      jump\t// out\n        /* \"contracts/Lotto.sol\":1753:2771  function tokenBuy(uint256[6] memory numbers) public {... */\n    tag_48:\n        /* \"contracts/Lotto.sol\":1857:1872  block.timestamp */\n      timestamp\n        /* \"contracts/Lotto.sol\":1820:1826  rounds */\n      0x04\n        /* \"contracts/Lotto.sol\":1843:1844  1 */\n      0x01\n        /* \"contracts/Lotto.sol\":1827:1833  rounds */\n      0x04\n        /* \"contracts/Lotto.sol\":1827:1840  rounds.length */\n      dup1\n      sload\n      swap1\n      pop\n        /* \"contracts/Lotto.sol\":1827:1844  rounds.length - 1 */\n      tag_242\n      swap2\n      swap1\n      tag_153\n      jump\t// in\n    tag_242:\n        /* \"contracts/Lotto.sol\":1820:1845  rounds[rounds.length - 1] */\n      dup2\n      sload\n      dup2\n      lt\n      tag_243\n      jumpi\n      tag_244\n      tag_134\n      jump\t// in\n    tag_244:\n    tag_243:\n      swap1\n      0x00\n      mstore\n      keccak256(0x00, 0x20)\n      swap1\n      0x0b\n      mul\n      add\n        /* \"contracts/Lotto.sol\":1820:1853  rounds[rounds.length - 1].endTime */\n      0x01\n      add\n      sload\n        /* \"contracts/Lotto.sol\":1820:1872  rounds[rounds.length - 1].endTime >= block.timestamp */\n      lt\n      iszero\n        /* \"contracts/Lotto.sol\":1812:1886  require(rounds[rounds.length - 1].endTime >= block.timestamp, \"Round End\") */\n      tag_246\n      jumpi\n      mload(0x40)\n      0x08c379a000000000000000000000000000000000000000000000000000000000\n      dup2\n      mstore\n      0x04\n      add\n      tag_247\n      swap1\n      tag_248\n      jump\t// in\n    tag_247:\n      mload(0x40)\n      dup1\n      swap2\n      sub\n      swap1\n      revert\n    tag_246:\n        /* \"contracts/Lotto.sol\":1937:1952  RoundStatus.End */\n      0x01\n        /* \"contracts/Lotto.sol\":1901:1952  rounds[rounds.length - 1].status != RoundStatus.End */\n      dup1\n      dup2\n      gt\n      iszero\n      tag_249\n      jumpi\n      tag_250\n      tag_139\n      jump\t// in\n    tag_250:\n    tag_249:\n        /* \"contracts/Lotto.sol\":1901:1907  rounds */\n      0x04\n        /* \"contracts/Lotto.sol\":1924:1925  1 */\n      0x01\n        /* \"contracts/Lotto.sol\":1908:1914  rounds */\n      0x04\n        /* \"contracts/Lotto.sol\":1908:1921  rounds.length */\n      dup1\n      sload\n      swap1\n      pop\n        /* \"contracts/Lotto.sol\":1908:1925  rounds.length - 1 */\n      tag_251\n      swap2\n      swap1\n      tag_153\n      jump\t// in\n    tag_251:\n        /* \"contracts/Lotto.sol\":1901:1926  rounds[rounds.length - 1] */\n      dup2\n      sload\n      dup2\n      lt\n      tag_252\n      jumpi\n      tag_253\n      tag_134\n      jump\t// in\n    tag_253:\n    tag_252:\n      swap1\n      0x00\n      mstore\n      keccak256(0x00, 0x20)\n      swap1\n      0x0b\n      mul\n      add\n        /* \"contracts/Lotto.sol\":1901:1933  rounds[rounds.length - 1].status */\n      0x02\n      add\n      0x00\n      swap1\n      sload\n      swap1\n      0x0100\n      exp\n      swap1\n      div\n      0xff\n      and\n        /* \"contracts/Lotto.sol\":1901:1952  rounds[rounds.length - 1].status != RoundStatus.End */\n      0x01\n      dup2\n      gt\n      iszero\n      tag_255\n      jumpi\n      tag_256\n      tag_139\n      jump\t// in\n    tag_256:\n    tag_255:\n      sub\n        /* \"contracts/Lotto.sol\":1893:1966  require(rounds[rounds.length - 1].status != RoundStatus.End, \"Round End\") */\n      tag_257\n      jumpi\n      mload(0x40)\n      0x08c379a000000000000000000000000000000000000000000000000000000000\n      dup2\n      mstore\n      0x04\n      add\n      tag_258\n      swap1\n      tag_248\n      jump\t// in\n    tag_258:\n      mload(0x40)\n      dup1\n      swap2\n      sub\n      swap1\n      revert\n    tag_257:\n        /* \"contracts/Lotto.sol\":2012:2030  TICKET_TOKEN_PRICE */\n      sload(0x03)\n        /* \"contracts/Lotto.sol\":1981:1986  token */\n      0x01\n      0x00\n      swap1\n      sload\n      swap1\n      0x0100\n      exp\n      swap1\n      div\n      0xffffffffffffffffffffffffffffffffffffffff\n      and\n        /* \"contracts/Lotto.sol\":1981:1996  token.balanceOf */\n      0xffffffffffffffffffffffffffffffffffffffff\n      and\n      0x70a08231\n        /* \"contracts/Lotto.sol\":1997:2007  msg.sender */\n      caller\n        /* \"contracts/Lotto.sol\":1981:2008  token.balanceOf(msg.sender) */\n      mload(0x40)\n      dup3\n      0xffffffff\n      and\n      0xe0\n      shl\n      dup2\n      mstore\n      0x04\n      add\n      tag_259\n      swap2\n      swap1\n      tag_93\n      jump\t// in\n    tag_259:\n      0x20\n      mload(0x40)\n      dup1\n      dup4\n      sub\n      dup2\n      dup7\n      gas\n      staticcall\n      iszero\n      dup1\n      iszero\n      tag_261\n      jumpi\n      returndatasize\n      0x00\n      dup1\n      returndatacopy\n      revert(0x00, returndatasize)\n    tag_261:\n      pop\n      pop\n      pop\n      pop\n      mload(0x40)\n      returndatasize\n      not(0x1f)\n      0x1f\n      dup3\n      add\n      and\n      dup3\n      add\n      dup1\n      0x40\n      mstore\n      pop\n      dup2\n      add\n      swap1\n      tag_262\n      swap2\n      swap1\n      tag_263\n      jump\t// in\n    tag_262:\n        /* \"contracts/Lotto.sol\":1981:2030  token.balanceOf(msg.sender) >= TICKET_TOKEN_PRICE */\n      lt\n      iszero\n        /* \"contracts/Lotto.sol\":1973:2050  require(token.balanceOf(msg.sender) >= TICKET_TOKEN_PRICE, \"Not valid value\") */\n      tag_264\n      jumpi\n      mload(0x40)\n      0x08c379a000000000000000000000000000000000000000000000000000000000\n      dup2\n      mstore\n      0x04\n      add\n      tag_265\n      swap1\n      tag_266\n      jump\t// in\n    tag_265:\n      mload(0x40)\n      dup1\n      swap2\n      sub\n      swap1\n      revert\n    tag_264:\n        /* \"contracts/Lotto.sol\":2092:2101  uint256 i */\n      0x00\n        /* \"contracts/Lotto.sol\":2088:2252  for(uint256 i = 0; i < numbers.length - 1; i++) {... */\n    tag_267:\n        /* \"contracts/Lotto.sol\":2128:2129  1 */\n      0x01\n        /* \"contracts/Lotto.sol\":2111:2125  numbers.length */\n      0x06\n        /* \"contracts/Lotto.sol\":2111:2129  numbers.length - 1 */\n      tag_270\n      swap2\n      swap1\n      tag_153\n      jump\t// in\n    tag_270:\n        /* \"contracts/Lotto.sol\":2107:2108  i */\n      dup2\n        /* \"contracts/Lotto.sol\":2107:2129  i < numbers.length - 1 */\n      lt\n        /* \"contracts/Lotto.sol\":2088:2252  for(uint256 i = 0; i < numbers.length - 1; i++) {... */\n      iszero\n      tag_268\n      jumpi\n        /* \"contracts/Lotto.sol\":2149:2158  uint256 j */\n      0x00\n        /* \"contracts/Lotto.sol\":2163:2164  1 */\n      0x01\n        /* \"contracts/Lotto.sol\":2161:2162  i */\n      dup3\n        /* \"contracts/Lotto.sol\":2161:2164  i+1 */\n      tag_274\n      swap2\n      swap1\n      tag_275\n      jump\t// in\n    tag_274:\n        /* \"contracts/Lotto.sol\":2149:2164  uint256 j = i+1 */\n      swap1\n      pop\n        /* \"contracts/Lotto.sol\":2145:2245  for(uint256 j = i+1; j < numbers.length; j++) {... */\n    tag_271:\n        /* \"contracts/Lotto.sol\":2170:2184  numbers.length */\n      0x06\n        /* \"contracts/Lotto.sol\":2166:2167  j */\n      dup2\n        /* \"contracts/Lotto.sol\":2166:2184  j < numbers.length */\n      lt\n        /* \"contracts/Lotto.sol\":2145:2245  for(uint256 j = i+1; j < numbers.length; j++) {... */\n      iszero\n      tag_272\n      jumpi\n        /* \"contracts/Lotto.sol\":2224:2231  numbers */\n      dup3\n        /* \"contracts/Lotto.sol\":2232:2233  j */\n      dup2\n        /* \"contracts/Lotto.sol\":2224:2234  numbers[j] */\n      0x06\n      dup2\n      lt\n      tag_276\n      jumpi\n      tag_277\n      tag_134\n      jump\t// in\n    tag_277:\n    tag_276:\n      0x20\n      mul\n      add\n      mload\n        /* \"contracts/Lotto.sol\":2210:2217  numbers */\n      dup4\n        /* \"contracts/Lotto.sol\":2218:2219  i */\n      dup4\n        /* \"contracts/Lotto.sol\":2210:2220  numbers[i] */\n      0x06\n      dup2\n      lt\n      tag_278\n      jumpi\n      tag_279\n      tag_134\n      jump\t// in\n    tag_279:\n    tag_278:\n      0x20\n      mul\n      add\n      mload\n        /* \"contracts/Lotto.sol\":2210:2234  numbers[i] != numbers[j] */\n      sub\n        /* \"contracts/Lotto.sol\":2202:2235  require(numbers[i] != numbers[j]) */\n      tag_280\n      jumpi\n      0x00\n      dup1\n      revert\n    tag_280:\n        /* \"contracts/Lotto.sol\":2186:2189  j++ */\n      dup1\n      dup1\n      tag_281\n      swap1\n      tag_172\n      jump\t// in\n    tag_281:\n      swap2\n      pop\n      pop\n        /* \"contracts/Lotto.sol\":2145:2245  for(uint256 j = i+1; j < numbers.length; j++) {... */\n      jump(tag_271)\n    tag_272:\n      pop\n        /* \"contracts/Lotto.sol\":2131:2134  i++ */\n      dup1\n      dup1\n      tag_282\n      swap1\n      tag_172\n      jump\t// in\n    tag_282:\n      swap2\n      pop\n      pop\n        /* \"contracts/Lotto.sol\":2088:2252  for(uint256 i = 0; i < numbers.length - 1; i++) {... */\n      jump(tag_267)\n    tag_268:\n      pop\n        /* \"contracts/Lotto.sol\":2290:2299  uint256 i */\n      0x00\n        /* \"contracts/Lotto.sol\":2286:2446  for(uint256 i = 0; i < numbers.length; i++) {... */\n    tag_283:\n        /* \"contracts/Lotto.sol\":2309:2323  numbers.length */\n      0x06\n        /* \"contracts/Lotto.sol\":2305:2306  i */\n      dup2\n        /* \"contracts/Lotto.sol\":2305:2323  i < numbers.length */\n      lt\n        /* \"contracts/Lotto.sol\":2286:2446  for(uint256 i = 0; i < numbers.length; i++) {... */\n      iszero\n      tag_284\n      jumpi\n        /* \"contracts/Lotto.sol\":801:802  1 */\n      0x01\n        /* \"contracts/Lotto.sol\":2347:2354  numbers */\n      dup3\n        /* \"contracts/Lotto.sol\":2355:2356  i */\n      dup3\n        /* \"contracts/Lotto.sol\":2347:2357  numbers[i] */\n      0x06\n      dup2\n      lt\n      tag_286\n      jumpi\n      tag_287\n      tag_134\n      jump\t// in\n    tag_287:\n    tag_286:\n      0x20\n      mul\n      add\n      mload\n        /* \"contracts/Lotto.sol\":2347:2371  numbers[i] >= MIN_NUMBER */\n      lt\n      iszero\n        /* \"contracts/Lotto.sol\":2347:2399  numbers[i] >= MIN_NUMBER && numbers[i] <= MAX_NUMBER */\n      dup1\n      iszero\n      tag_288\n      jumpi\n      pop\n        /* \"contracts/Lotto.sol\":844:846  45 */\n      0x2d\n        /* \"contracts/Lotto.sol\":2375:2382  numbers */\n      dup3\n        /* \"contracts/Lotto.sol\":2383:2384  i */\n      dup3\n        /* \"contracts/Lotto.sol\":2375:2385  numbers[i] */\n      0x06\n      dup2\n      lt\n      tag_289\n      jumpi\n      tag_290\n      tag_134\n      jump\t// in\n    tag_290:\n    tag_289:\n      0x20\n      mul\n      add\n      mload\n        /* \"contracts/Lotto.sol\":2375:2399  numbers[i] <= MAX_NUMBER */\n      gt\n      iszero\n        /* \"contracts/Lotto.sol\":2347:2399  numbers[i] >= MIN_NUMBER && numbers[i] <= MAX_NUMBER */\n    tag_288:\n        /* \"contracts/Lotto.sol\":2339:2438  require(numbers[i] >= MIN_NUMBER && numbers[i] <= MAX_NUMBER, \"Only numbers 0 ~ 45 can be entered\") */\n      tag_291\n      jumpi\n      mload(0x40)\n      0x08c379a000000000000000000000000000000000000000000000000000000000\n      dup2\n      mstore\n      0x04\n      add\n      tag_292\n      swap1\n      tag_293\n      jump\t// in\n    tag_292:\n      mload(0x40)\n      dup1\n      swap2\n      sub\n      swap1\n      revert\n    tag_291:\n        /* \"contracts/Lotto.sol\":2325:2328  i++ */\n      dup1\n      dup1\n      tag_294\n      swap1\n      tag_172\n      jump\t// in\n    tag_294:\n      swap2\n      pop\n      pop\n        /* \"contracts/Lotto.sol\":2286:2446  for(uint256 i = 0; i < numbers.length; i++) {... */\n      jump(tag_283)\n    tag_284:\n      pop\n        /* \"contracts/Lotto.sol\":2514:2519  token */\n      0x01\n      0x00\n      swap1\n      sload\n      swap1\n      0x0100\n      exp\n      swap1\n      div\n      0xffffffffffffffffffffffffffffffffffffffff\n      and\n        /* \"contracts/Lotto.sol\":2514:2532  token.transferFrom */\n      0xffffffffffffffffffffffffffffffffffffffff\n      and\n      0x23b872dd\n        /* \"contracts/Lotto.sol\":2533:2543  msg.sender */\n      caller\n        /* \"contracts/Lotto.sol\":2553:2557  this */\n      address\n        /* \"contracts/Lotto.sol\":2560:2578  TICKET_TOKEN_PRICE */\n      sload(0x03)\n        /* \"contracts/Lotto.sol\":2514:2579  token.transferFrom(msg.sender, address(this), TICKET_TOKEN_PRICE) */\n      mload(0x40)\n      dup5\n      0xffffffff\n      and\n      0xe0\n      shl\n      dup2\n      mstore\n      0x04\n      add\n      tag_295\n      swap4\n      swap3\n      swap2\n      swap1\n      tag_296\n      jump\t// in\n    tag_295:\n      0x20\n      mload(0x40)\n      dup1\n      dup4\n      sub\n      dup2\n      0x00\n      dup8\n      gas\n      call\n      iszero\n      dup1\n      iszero\n      tag_298\n      jumpi\n      returndatasize\n      0x00\n      dup1\n      returndatacopy\n      revert(0x00, returndatasize)\n    tag_298:\n      pop\n      pop\n      pop\n      pop\n      mload(0x40)\n      returndatasize\n      not(0x1f)\n      0x1f\n      dup3\n      add\n      and\n      dup3\n      add\n      dup1\n      0x40\n      mstore\n      pop\n      dup2\n      add\n      swap1\n      tag_299\n      swap2\n      swap1\n      tag_300\n      jump\t// in\n    tag_299:\n      pop\n        /* \"contracts/Lotto.sol\":2588:2608  Ticket memory ticket */\n      0x00\n        /* \"contracts/Lotto.sol\":2611:2683  Ticket(... */\n      mload(0x40)\n      dup1\n      0x60\n      add\n      0x40\n      mstore\n      dup1\n        /* \"contracts/Lotto.sol\":2626:2636  msg.sender */\n      caller\n        /* \"contracts/Lotto.sol\":2611:2683  Ticket(... */\n      0xffffffffffffffffffffffffffffffffffffffff\n      and\n      dup2\n      mstore\n      0x20\n      add\n        /* \"contracts/Lotto.sol\":2659:2660  1 */\n      0x01\n        /* \"contracts/Lotto.sol\":2645:2651  rounds */\n      0x04\n        /* \"contracts/Lotto.sol\":2645:2658  rounds.length */\n      dup1\n      sload\n      swap1\n      pop\n        /* \"contracts/Lotto.sol\":2645:2660  rounds.length-1 */\n      tag_301\n      swap2\n      swap1\n      tag_153\n      jump\t// in\n    tag_301:\n        /* \"contracts/Lotto.sol\":2611:2683  Ticket(... */\n      dup2\n      mstore\n      0x20\n      add\n        /* \"contracts/Lotto.sol\":2669:2676  numbers */\n      dup4\n        /* \"contracts/Lotto.sol\":2611:2683  Ticket(... */\n      dup2\n      mstore\n      pop\n        /* \"contracts/Lotto.sol\":2588:2683  Ticket memory ticket = Ticket(... */\n      swap1\n      pop\n        /* \"contracts/Lotto.sol\":2692:2699  tickets */\n      0x05\n        /* \"contracts/Lotto.sol\":2705:2711  ticket */\n      dup2\n        /* \"contracts/Lotto.sol\":2692:2712  tickets.push(ticket) */\n      swap1\n      dup1\n      0x01\n      dup2\n      sload\n      add\n      dup1\n      dup3\n      sstore\n      dup1\n      swap2\n      pop\n      pop\n      0x01\n      swap1\n      sub\n      swap1\n      0x00\n      mstore\n      keccak256(0x00, 0x20)\n      swap1\n      0x08\n      mul\n      add\n      0x00\n      swap1\n      swap2\n      swap1\n      swap2\n      swap1\n      swap2\n      pop\n      0x00\n      dup3\n      add\n      mload\n      dup2\n      0x00\n      add\n      exp(0x0100, 0x00)\n      dup2\n      sload\n      dup2\n      0xffffffffffffffffffffffffffffffffffffffff\n      mul\n      not\n      and\n      swap1\n      dup4\n      0xffffffffffffffffffffffffffffffffffffffff\n      and\n      mul\n      or\n      swap1\n      sstore\n      pop\n      0x20\n      dup3\n      add\n      mload\n      dup2\n      0x01\n      add\n      sstore\n      0x40\n      dup3\n      add\n      mload\n      dup2\n      0x02\n      add\n      swap1\n      0x06\n      tag_303\n      swap3\n      swap2\n      swap1\n      tag_304\n      jump\t// in\n    tag_303:\n      pop\n      pop\n      pop\n        /* \"contracts/Lotto.sol\":2764:2765  1 */\n      0x01\n        /* \"contracts/Lotto.sol\":2721:2727  rounds */\n      0x04\n        /* \"contracts/Lotto.sol\":2744:2745  1 */\n      0x01\n        /* \"contracts/Lotto.sol\":2728:2734  rounds */\n      0x04\n        /* \"contracts/Lotto.sol\":2728:2741  rounds.length */\n      dup1\n      sload\n      swap1\n      pop\n        /* \"contracts/Lotto.sol\":2728:2745  rounds.length - 1 */\n      tag_305\n      swap2\n      swap1\n      tag_153\n      jump\t// in\n    tag_305:\n        /* \"contracts/Lotto.sol\":2721:2746  rounds[rounds.length - 1] */\n      dup2\n      sload\n      dup2\n      lt\n      tag_306\n      jumpi\n      tag_307\n      tag_134\n      jump\t// in\n    tag_307:\n    tag_306:\n      swap1\n      0x00\n      mstore\n      keccak256(0x00, 0x20)\n      swap1\n      0x0b\n      mul\n      add\n        /* \"contracts/Lotto.sol\":2721:2760  rounds[rounds.length - 1].totalQuantity */\n      0x0a\n      add\n      0x00\n        /* \"contracts/Lotto.sol\":2721:2765  rounds[rounds.length - 1].totalQuantity += 1 */\n      dup3\n      dup3\n      sload\n      tag_309\n      swap2\n      swap1\n      tag_275\n      jump\t// in\n    tag_309:\n      swap3\n      pop\n      pop\n      dup2\n      swap1\n      sstore\n      pop\n        /* \"contracts/Lotto.sol\":1805:2771  {... */\n      pop\n        /* \"contracts/Lotto.sol\":1753:2771  function tokenBuy(uint256[6] memory numbers) public {... */\n      pop\n      jump\t// out\n        /* \"contracts/Lotto.sol\":6757:6881  function nextRound() external onlyOwner{... */\n    tag_51:\n        /* \"@klaytn/contracts/contracts/access/Ownable.sol\":1259:1271  _msgSender() */\n      tag_311\n        /* \"@klaytn/contracts/contracts/access/Ownable.sol\":1259:1269  _msgSender */\n      tag_312\n        /* \"@klaytn/contracts/contracts/access/Ownable.sol\":1259:1271  _msgSender() */\n      jump\t// in\n    tag_311:\n        /* \"@klaytn/contracts/contracts/access/Ownable.sol\":1248:1271  owner() == _msgSender() */\n      0xffffffffffffffffffffffffffffffffffffffff\n      and\n        /* \"@klaytn/contracts/contracts/access/Ownable.sol\":1248:1255  owner() */\n      tag_313\n        /* \"@klaytn/contracts/contracts/access/Ownable.sol\":1248:1253  owner */\n      tag_91\n        /* \"@klaytn/contracts/contracts/access/Ownable.sol\":1248:1255  owner() */\n      jump\t// in\n    tag_313:\n        /* \"@klaytn/contracts/contracts/access/Ownable.sol\":1248:1271  owner() == _msgSender() */\n      0xffffffffffffffffffffffffffffffffffffffff\n      and\n      eq\n        /* \"@klaytn/contracts/contracts/access/Ownable.sol\":1240:1308  require(owner() == _msgSender(), \"Ownable: caller is not the owner\") */\n      tag_314\n      jumpi\n      mload(0x40)\n      0x08c379a000000000000000000000000000000000000000000000000000000000\n      dup2\n      mstore\n      0x04\n      add\n      tag_315\n      swap1\n      tag_316\n      jump\t// in\n    tag_315:\n      mload(0x40)\n      dup1\n      swap2\n      sub\n      swap1\n      revert\n    tag_314:\n        /* \"contracts/Lotto.sol\":6822:6823  0 */\n      0x00\n        /* \"contracts/Lotto.sol\":6806:6812  rounds */\n      0x04\n        /* \"contracts/Lotto.sol\":6806:6819  rounds.length */\n      dup1\n      sload\n      swap1\n      pop\n        /* \"contracts/Lotto.sol\":6806:6823  rounds.length > 0 */\n      gt\n        /* \"contracts/Lotto.sol\":6803:6854  if(rounds.length > 0) {... */\n      iszero\n      tag_318\n      jumpi\n        /* \"contracts/Lotto.sol\":6834:6846  closeRound() */\n      tag_319\n        /* \"contracts/Lotto.sol\":6834:6844  closeRound */\n      tag_320\n        /* \"contracts/Lotto.sol\":6834:6846  closeRound() */\n      jump\t// in\n    tag_319:\n        /* \"contracts/Lotto.sol\":6803:6854  if(rounds.length > 0) {... */\n    tag_318:\n        /* \"contracts/Lotto.sol\":6862:6875  createRound() */\n      tag_321\n        /* \"contracts/Lotto.sol\":6862:6873  createRound */\n      tag_322\n        /* \"contracts/Lotto.sol\":6862:6875  createRound() */\n      jump\t// in\n    tag_321:\n        /* \"contracts/Lotto.sol\":6757:6881  function nextRound() external onlyOwner{... */\n      jump\t// out\n        /* \"contracts/Lotto.sol\":726:759  uint256 public TICKET_TOKEN_PRICE */\n    tag_54:\n      sload(0x03)\n      dup2\n      jump\t// out\n        /* \"contracts/Lotto.sol\":877:900  Ticket[] public tickets */\n    tag_59:\n      0x05\n      dup2\n      dup2\n      sload\n      dup2\n      lt\n      tag_323\n      jumpi\n      0x00\n      dup1\n      revert\n    tag_323:\n      swap1\n      0x00\n      mstore\n      keccak256(0x00, 0x20)\n      swap1\n      0x08\n      mul\n      add\n      0x00\n      swap2\n      pop\n      swap1\n      pop\n      dup1\n      0x00\n      add\n      0x00\n      swap1\n      sload\n      swap1\n      0x0100\n      exp\n      swap1\n      div\n      0xffffffffffffffffffffffffffffffffffffffff\n      and\n      swap1\n      dup1\n      0x01\n      add\n      sload\n      swap1\n      pop\n      dup3\n      jump\t// out\n        /* \"contracts/Lotto.sol\":7925:8025  function changeInterval(uint256 _interval) external onlyOwner{... */\n    tag_65:\n        /* \"@klaytn/contracts/contracts/access/Ownable.sol\":1259:1271  _msgSender() */\n      tag_326\n        /* \"@klaytn/contracts/contracts/access/Ownable.sol\":1259:1269  _msgSender */\n      tag_312\n        /* \"@klaytn/contracts/contracts/access/Ownable.sol\":1259:1271  _msgSender() */\n      jump\t// in\n    tag_326:\n        /* \"@klaytn/contracts/contracts/access/Ownable.sol\":1248:1271  owner() == _msgSender() */\n      0xffffffffffffffffffffffffffffffffffffffff\n      and\n        /* \"@klaytn/contracts/contracts/access/Ownable.sol\":1248:1255  owner() */\n      tag_327\n        /* \"@klaytn/contracts/contracts/access/Ownable.sol\":1248:1253  owner */\n      tag_91\n        /* \"@klaytn/contracts/contracts/access/Ownable.sol\":1248:1255  owner() */\n      jump\t// in\n    tag_327:\n        /* \"@klaytn/contracts/contracts/access/Ownable.sol\":1248:1271  owner() == _msgSender() */\n      0xffffffffffffffffffffffffffffffffffffffff\n      and\n      eq\n        /* \"@klaytn/contracts/contracts/access/Ownable.sol\":1240:1308  require(owner() == _msgSender(), \"Ownable: caller is not the owner\") */\n      tag_328\n      jumpi\n      mload(0x40)\n      0x08c379a000000000000000000000000000000000000000000000000000000000\n      dup2\n      mstore\n      0x04\n      add\n      tag_329\n      swap1\n      tag_316\n      jump\t// in\n    tag_329:\n      mload(0x40)\n      dup1\n      swap2\n      sub\n      swap1\n      revert\n    tag_328:\n        /* \"contracts/Lotto.sol\":8010:8019  _interval */\n      dup1\n        /* \"contracts/Lotto.sol\":7993:8007  round_interval */\n      0x06\n        /* \"contracts/Lotto.sol\":7993:8019  round_interval = _interval */\n      dup2\n      swap1\n      sstore\n      pop\n        /* \"contracts/Lotto.sol\":7925:8025  function changeInterval(uint256 _interval) external onlyOwner{... */\n      pop\n      jump\t// out\n        /* \"contracts/Lotto.sol\":7681:7778  function getContractBalance() public view returns(uint) {... */\n    tag_68:\n        /* \"contracts/Lotto.sol\":7731:7735  uint */\n      0x00\n        /* \"contracts/Lotto.sol\":7751:7772  address(this).balance */\n      selfbalance\n        /* \"contracts/Lotto.sol\":7744:7772  return address(this).balance */\n      swap1\n      pop\n        /* \"contracts/Lotto.sol\":7681:7778  function getContractBalance() public view returns(uint) {... */\n      swap1\n      jump\t// out\n        /* \"@klaytn/contracts/contracts/access/Ownable.sol\":1668:1769  function renounceOwnership() public virtual onlyOwner {... */\n    tag_72:\n        /* \"@klaytn/contracts/contracts/access/Ownable.sol\":1259:1271  _msgSender() */\n      tag_333\n        /* \"@klaytn/contracts/contracts/access/Ownable.sol\":1259:1269  _msgSender */\n      tag_312\n        /* \"@klaytn/contracts/contracts/access/Ownable.sol\":1259:1271  _msgSender() */\n      jump\t// in\n    tag_333:\n        /* \"@klaytn/contracts/contracts/access/Ownable.sol\":1248:1271  owner() == _msgSender() */\n      0xffffffffffffffffffffffffffffffffffffffff\n      and\n        /* \"@klaytn/contracts/contracts/access/Ownable.sol\":1248:1255  owner() */\n      tag_334\n        /* \"@klaytn/contracts/contracts/access/Ownable.sol\":1248:1253  owner */\n      tag_91\n        /* \"@klaytn/contracts/contracts/access/Ownable.sol\":1248:1255  owner() */\n      jump\t// in\n    tag_334:\n        /* \"@klaytn/contracts/contracts/access/Ownable.sol\":1248:1271  owner() == _msgSender() */\n      0xffffffffffffffffffffffffffffffffffffffff\n      and\n      eq\n        /* \"@klaytn/contracts/contracts/access/Ownable.sol\":1240:1308  require(owner() == _msgSender(), \"Ownable: caller is not the owner\") */\n      tag_335\n      jumpi\n      mload(0x40)\n      0x08c379a000000000000000000000000000000000000000000000000000000000\n      dup2\n      mstore\n      0x04\n      add\n      tag_336\n      swap1\n      tag_316\n      jump\t// in\n    tag_336:\n      mload(0x40)\n      dup1\n      swap2\n      sub\n      swap1\n      revert\n    tag_335:\n        /* \"@klaytn/contracts/contracts/access/Ownable.sol\":1732:1762  _transferOwnership(address(0)) */\n      tag_338\n        /* \"@klaytn/contracts/contracts/access/Ownable.sol\":1759:1760  0 */\n      0x00\n        /* \"@klaytn/contracts/contracts/access/Ownable.sol\":1732:1750  _transferOwnership */\n      tag_339\n        /* \"@klaytn/contracts/contracts/access/Ownable.sol\":1732:1762  _transferOwnership(address(0)) */\n      jump\t// in\n    tag_338:\n        /* \"@klaytn/contracts/contracts/access/Ownable.sol\":1668:1769  function renounceOwnership() public virtual onlyOwner {... */\n      jump\t// out\n        /* \"contracts/Lotto.sol\":907:936  uint256 public round_interval */\n    tag_75:\n      sload(0x06)\n      dup2\n      jump\t// out\n        /* \"contracts/Lotto.sol\":851:872  Round[] public rounds */\n    tag_80:\n      0x04\n      dup2\n      dup2\n      sload\n      dup2\n      lt\n      tag_340\n      jumpi\n      0x00\n      dup1\n      revert\n    tag_340:\n      swap1\n      0x00\n      mstore\n      keccak256(0x00, 0x20)\n      swap1\n      0x0b\n      mul\n      add\n      0x00\n      swap2\n      pop\n      swap1\n      pop\n      dup1\n      0x00\n      add\n      sload\n      swap1\n      dup1\n      0x01\n      add\n      sload\n      swap1\n      dup1\n      0x02\n      add\n      0x00\n      swap1\n      sload\n      swap1\n      0x0100\n      exp\n      swap1\n      div\n      0xff\n      and\n      swap1\n      dup1\n      0x0a\n      add\n      sload\n      swap1\n      pop\n      dup5\n      jump\t// out\n        /* \"contracts/Lotto.sol\":7552:7675  function getWinNumbers(uint256 _round) public view returns(uint256[7] memory) {... */\n    tag_86:\n        /* \"contracts/Lotto.sol\":7611:7628  uint256[7] memory */\n      tag_342\n      tag_343\n      jump\t// in\n    tag_342:\n        /* \"contracts/Lotto.sol\":7644:7650  rounds */\n      0x04\n        /* \"contracts/Lotto.sol\":7651:7657  _round */\n      dup3\n        /* \"contracts/Lotto.sol\":7644:7658  rounds[_round] */\n      dup2\n      sload\n      dup2\n      lt\n      tag_345\n      jumpi\n      tag_346\n      tag_134\n      jump\t// in\n    tag_346:\n    tag_345:\n      swap1\n      0x00\n      mstore\n      keccak256(0x00, 0x20)\n      swap1\n      0x0b\n      mul\n      add\n        /* \"contracts/Lotto.sol\":7644:7669  rounds[_round].winNumbers */\n      0x03\n      add\n        /* \"contracts/Lotto.sol\":7637:7669  return rounds[_round].winNumbers */\n      0x07\n      dup1\n      0x20\n      mul\n      mload(0x40)\n      swap1\n      dup2\n      add\n      0x40\n      mstore\n      dup1\n      swap3\n      swap2\n      swap1\n      dup3\n      0x07\n      dup1\n      iszero\n      tag_348\n      jumpi\n      0x20\n      mul\n      dup3\n      add\n      swap2\n    tag_349:\n      dup2\n      sload\n      dup2\n      mstore\n      0x20\n      add\n      swap1\n      0x01\n      add\n      swap1\n      dup1\n      dup4\n      gt\n      tag_349\n      jumpi\n    tag_348:\n      pop\n      pop\n      pop\n      pop\n      pop\n      swap1\n      pop\n        /* \"contracts/Lotto.sol\":7552:7675  function getWinNumbers(uint256 _round) public view returns(uint256[7] memory) {... */\n      swap2\n      swap1\n      pop\n      jump\t// out\n        /* \"@klaytn/contracts/contracts/access/Ownable.sol\":1036:1121  function owner() public view virtual returns (address) {... */\n    tag_91:\n        /* \"@klaytn/contracts/contracts/access/Ownable.sol\":1082:1089  address */\n      0x00\n        /* \"@klaytn/contracts/contracts/access/Ownable.sol\":1108:1114  _owner */\n      dup1\n      0x00\n      swap1\n      sload\n      swap1\n      0x0100\n      exp\n      swap1\n      div\n      0xffffffffffffffffffffffffffffffffffffffff\n      and\n        /* \"@klaytn/contracts/contracts/access/Ownable.sol\":1101:1114  return _owner */\n      swap1\n      pop\n        /* \"@klaytn/contracts/contracts/access/Ownable.sol\":1036:1121  function owner() public view virtual returns (address) {... */\n      swap1\n      jump\t// out\n        /* \"contracts/Lotto.sol\":8031:8121  function changePrice(uint256 _price) external onlyOwner {... */\n    tag_97:\n        /* \"@klaytn/contracts/contracts/access/Ownable.sol\":1259:1271  _msgSender() */\n      tag_352\n        /* \"@klaytn/contracts/contracts/access/Ownable.sol\":1259:1269  _msgSender */\n      tag_312\n        /* \"@klaytn/contracts/contracts/access/Ownable.sol\":1259:1271  _msgSender() */\n      jump\t// in\n    tag_352:\n        /* \"@klaytn/contracts/contracts/access/Ownable.sol\":1248:1271  owner() == _msgSender() */\n      0xffffffffffffffffffffffffffffffffffffffff\n      and\n        /* \"@klaytn/contracts/contracts/access/Ownable.sol\":1248:1255  owner() */\n      tag_353\n        /* \"@klaytn/contracts/contracts/access/Ownable.sol\":1248:1253  owner */\n      tag_91\n        /* \"@klaytn/contracts/contracts/access/Ownable.sol\":1248:1255  owner() */\n      jump\t// in\n    tag_353:\n        /* \"@klaytn/contracts/contracts/access/Ownable.sol\":1248:1271  owner() == _msgSender() */\n      0xffffffffffffffffffffffffffffffffffffffff\n      and\n      eq\n        /* \"@klaytn/contracts/contracts/access/Ownable.sol\":1240:1308  require(owner() == _msgSender(), \"Ownable: caller is not the owner\") */\n      tag_354\n      jumpi\n      mload(0x40)\n      0x08c379a000000000000000000000000000000000000000000000000000000000\n      dup2\n      mstore\n      0x04\n      add\n      tag_355\n      swap1\n      tag_316\n      jump\t// in\n    tag_355:\n      mload(0x40)\n      dup1\n      swap2\n      sub\n      swap1\n      revert\n    tag_354:\n        /* \"contracts/Lotto.sol\":8109:8115  _price */\n      dup1\n        /* \"contracts/Lotto.sol\":8094:8106  TICKET_PRICE */\n      0x02\n        /* \"contracts/Lotto.sol\":8094:8115  TICKET_PRICE = _price */\n      dup2\n      swap1\n      sstore\n      pop\n        /* \"contracts/Lotto.sol\":8031:8121  function changePrice(uint256 _price) external onlyOwner {... */\n      pop\n      jump\t// out\n        /* \"contracts/Lotto.sol\":2777:3640  function buy(uint256[6] memory numbers) public payable {... */\n    tag_100:\n        /* \"contracts/Lotto.sol\":2884:2899  block.timestamp */\n      timestamp\n        /* \"contracts/Lotto.sol\":2847:2853  rounds */\n      0x04\n        /* \"contracts/Lotto.sol\":2870:2871  1 */\n      0x01\n        /* \"contracts/Lotto.sol\":2854:2860  rounds */\n      0x04\n        /* \"contracts/Lotto.sol\":2854:2867  rounds.length */\n      dup1\n      sload\n      swap1\n      pop\n        /* \"contracts/Lotto.sol\":2854:2871  rounds.length - 1 */\n      tag_358\n      swap2\n      swap1\n      tag_153\n      jump\t// in\n    tag_358:\n        /* \"contracts/Lotto.sol\":2847:2872  rounds[rounds.length - 1] */\n      dup2\n      sload\n      dup2\n      lt\n      tag_359\n      jumpi\n      tag_360\n      tag_134\n      jump\t// in\n    tag_360:\n    tag_359:\n      swap1\n      0x00\n      mstore\n      keccak256(0x00, 0x20)\n      swap1\n      0x0b\n      mul\n      add\n        /* \"contracts/Lotto.sol\":2847:2880  rounds[rounds.length - 1].endTime */\n      0x01\n      add\n      sload\n        /* \"contracts/Lotto.sol\":2847:2899  rounds[rounds.length - 1].endTime >= block.timestamp */\n      lt\n      iszero\n        /* \"contracts/Lotto.sol\":2839:2913  require(rounds[rounds.length - 1].endTime >= block.timestamp, \"Round End\") */\n      tag_362\n      jumpi\n      mload(0x40)\n      0x08c379a000000000000000000000000000000000000000000000000000000000\n      dup2\n      mstore\n      0x04\n      add\n      tag_363\n      swap1\n      tag_248\n      jump\t// in\n    tag_363:\n      mload(0x40)\n      dup1\n      swap2\n      sub\n      swap1\n      revert\n    tag_362:\n        /* \"contracts/Lotto.sol\":2964:2979  RoundStatus.End */\n      0x01\n        /* \"contracts/Lotto.sol\":2928:2979  rounds[rounds.length - 1].status != RoundStatus.End */\n      dup1\n      dup2\n      gt\n      iszero\n      tag_364\n      jumpi\n      tag_365\n      tag_139\n      jump\t// in\n    tag_365:\n    tag_364:\n        /* \"contracts/Lotto.sol\":2928:2934  rounds */\n      0x04\n        /* \"contracts/Lotto.sol\":2951:2952  1 */\n      0x01\n        /* \"contracts/Lotto.sol\":2935:2941  rounds */\n      0x04\n        /* \"contracts/Lotto.sol\":2935:2948  rounds.length */\n      dup1\n      sload\n      swap1\n      pop\n        /* \"contracts/Lotto.sol\":2935:2952  rounds.length - 1 */\n      tag_366\n      swap2\n      swap1\n      tag_153\n      jump\t// in\n    tag_366:\n        /* \"contracts/Lotto.sol\":2928:2953  rounds[rounds.length - 1] */\n      dup2\n      sload\n      dup2\n      lt\n      tag_367\n      jumpi\n      tag_368\n      tag_134\n      jump\t// in\n    tag_368:\n    tag_367:\n      swap1\n      0x00\n      mstore\n      keccak256(0x00, 0x20)\n      swap1\n      0x0b\n      mul\n      add\n        /* \"contracts/Lotto.sol\":2928:2960  rounds[rounds.length - 1].status */\n      0x02\n      add\n      0x00\n      swap1\n      sload\n      swap1\n      0x0100\n      exp\n      swap1\n      div\n      0xff\n      and\n        /* \"contracts/Lotto.sol\":2928:2979  rounds[rounds.length - 1].status != RoundStatus.End */\n      0x01\n      dup2\n      gt\n      iszero\n      tag_370\n      jumpi\n      tag_371\n      tag_139\n      jump\t// in\n    tag_371:\n    tag_370:\n      sub\n        /* \"contracts/Lotto.sol\":2920:2993  require(rounds[rounds.length - 1].status != RoundStatus.End, \"Round End\") */\n      tag_372\n      jumpi\n      mload(0x40)\n      0x08c379a000000000000000000000000000000000000000000000000000000000\n      dup2\n      mstore\n      0x04\n      add\n      tag_373\n      swap1\n      tag_248\n      jump\t// in\n    tag_373:\n      mload(0x40)\n      dup1\n      swap2\n      sub\n      swap1\n      revert\n    tag_372:\n        /* \"contracts/Lotto.sol\":3021:3033  TICKET_PRICE */\n      sload(0x02)\n        /* \"contracts/Lotto.sol\":3008:3017  msg.value */\n      callvalue\n        /* \"contracts/Lotto.sol\":3008:3033  msg.value == TICKET_PRICE */\n      eq\n        /* \"contracts/Lotto.sol\":3000:3053  require(msg.value == TICKET_PRICE, \"Not valid value\") */\n      tag_374\n      jumpi\n      mload(0x40)\n      0x08c379a000000000000000000000000000000000000000000000000000000000\n      dup2\n      mstore\n      0x04\n      add\n      tag_375\n      swap1\n      tag_266\n      jump\t// in\n    tag_375:\n      mload(0x40)\n      dup1\n      swap2\n      sub\n      swap1\n      revert\n    tag_374:\n        /* \"contracts/Lotto.sol\":3095:3104  uint256 i */\n      0x00\n        /* \"contracts/Lotto.sol\":3091:3255  for(uint256 i = 0; i < numbers.length - 1; i++) {... */\n    tag_376:\n        /* \"contracts/Lotto.sol\":3131:3132  1 */\n      0x01\n        /* \"contracts/Lotto.sol\":3114:3128  numbers.length */\n      0x06\n        /* \"contracts/Lotto.sol\":3114:3132  numbers.length - 1 */\n      tag_379\n      swap2\n      swap1\n      tag_153\n      jump\t// in\n    tag_379:\n        /* \"contracts/Lotto.sol\":3110:3111  i */\n      dup2\n        /* \"contracts/Lotto.sol\":3110:3132  i < numbers.length - 1 */\n      lt\n        /* \"contracts/Lotto.sol\":3091:3255  for(uint256 i = 0; i < numbers.length - 1; i++) {... */\n      iszero\n      tag_377\n      jumpi\n        /* \"contracts/Lotto.sol\":3152:3161  uint256 j */\n      0x00\n        /* \"contracts/Lotto.sol\":3166:3167  1 */\n      0x01\n        /* \"contracts/Lotto.sol\":3164:3165  i */\n      dup3\n        /* \"contracts/Lotto.sol\":3164:3167  i+1 */\n      tag_383\n      swap2\n      swap1\n      tag_275\n      jump\t// in\n    tag_383:\n        /* \"contracts/Lotto.sol\":3152:3167  uint256 j = i+1 */\n      swap1\n      pop\n        /* \"contracts/Lotto.sol\":3148:3248  for(uint256 j = i+1; j < numbers.length; j++) {... */\n    tag_380:\n        /* \"contracts/Lotto.sol\":3173:3187  numbers.length */\n      0x06\n        /* \"contracts/Lotto.sol\":3169:3170  j */\n      dup2\n        /* \"contracts/Lotto.sol\":3169:3187  j < numbers.length */\n      lt\n        /* \"contracts/Lotto.sol\":3148:3248  for(uint256 j = i+1; j < numbers.length; j++) {... */\n      iszero\n      tag_381\n      jumpi\n        /* \"contracts/Lotto.sol\":3227:3234  numbers */\n      dup3\n        /* \"contracts/Lotto.sol\":3235:3236  j */\n      dup2\n        /* \"contracts/Lotto.sol\":3227:3237  numbers[j] */\n      0x06\n      dup2\n      lt\n      tag_384\n      jumpi\n      tag_385\n      tag_134\n      jump\t// in\n    tag_385:\n    tag_384:\n      0x20\n      mul\n      add\n      mload\n        /* \"contracts/Lotto.sol\":3213:3220  numbers */\n      dup4\n        /* \"contracts/Lotto.sol\":3221:3222  i */\n      dup4\n        /* \"contracts/Lotto.sol\":3213:3223  numbers[i] */\n      0x06\n      dup2\n      lt\n      tag_386\n      jumpi\n      tag_387\n      tag_134\n      jump\t// in\n    tag_387:\n    tag_386:\n      0x20\n      mul\n      add\n      mload\n        /* \"contracts/Lotto.sol\":3213:3237  numbers[i] != numbers[j] */\n      sub\n        /* \"contracts/Lotto.sol\":3205:3238  require(numbers[i] != numbers[j]) */\n      tag_388\n      jumpi\n      0x00\n      dup1\n      revert\n    tag_388:\n        /* \"contracts/Lotto.sol\":3189:3192  j++ */\n      dup1\n      dup1\n      tag_389\n      swap1\n      tag_172\n      jump\t// in\n    tag_389:\n      swap2\n      pop\n      pop\n        /* \"contracts/Lotto.sol\":3148:3248  for(uint256 j = i+1; j < numbers.length; j++) {... */\n      jump(tag_380)\n    tag_381:\n      pop\n        /* \"contracts/Lotto.sol\":3134:3137  i++ */\n      dup1\n      dup1\n      tag_390\n      swap1\n      tag_172\n      jump\t// in\n    tag_390:\n      swap2\n      pop\n      pop\n        /* \"contracts/Lotto.sol\":3091:3255  for(uint256 i = 0; i < numbers.length - 1; i++) {... */\n      jump(tag_376)\n    tag_377:\n      pop\n        /* \"contracts/Lotto.sol\":3293:3302  uint256 i */\n      0x00\n        /* \"contracts/Lotto.sol\":3289:3449  for(uint256 i = 0; i < numbers.length; i++) {... */\n    tag_391:\n        /* \"contracts/Lotto.sol\":3312:3326  numbers.length */\n      0x06\n        /* \"contracts/Lotto.sol\":3308:3309  i */\n      dup2\n        /* \"contracts/Lotto.sol\":3308:3326  i < numbers.length */\n      lt\n        /* \"contracts/Lotto.sol\":3289:3449  for(uint256 i = 0; i < numbers.length; i++) {... */\n      iszero\n      tag_392\n      jumpi\n        /* \"contracts/Lotto.sol\":801:802  1 */\n      0x01\n        /* \"contracts/Lotto.sol\":3350:3357  numbers */\n      dup3\n        /* \"contracts/Lotto.sol\":3358:3359  i */\n      dup3\n        /* \"contracts/Lotto.sol\":3350:3360  numbers[i] */\n      0x06\n      dup2\n      lt\n      tag_394\n      jumpi\n      tag_395\n      tag_134\n      jump\t// in\n    tag_395:\n    tag_394:\n      0x20\n      mul\n      add\n      mload\n        /* \"contracts/Lotto.sol\":3350:3374  numbers[i] >= MIN_NUMBER */\n      lt\n      iszero\n        /* \"contracts/Lotto.sol\":3350:3402  numbers[i] >= MIN_NUMBER && numbers[i] <= MAX_NUMBER */\n      dup1\n      iszero\n      tag_396\n      jumpi\n      pop\n        /* \"contracts/Lotto.sol\":844:846  45 */\n      0x2d\n        /* \"contracts/Lotto.sol\":3378:3385  numbers */\n      dup3\n        /* \"contracts/Lotto.sol\":3386:3387  i */\n      dup3\n        /* \"contracts/Lotto.sol\":3378:3388  numbers[i] */\n      0x06\n      dup2\n      lt\n      tag_397\n      jumpi\n      tag_398\n      tag_134\n      jump\t// in\n    tag_398:\n    tag_397:\n      0x20\n      mul\n      add\n      mload\n        /* \"contracts/Lotto.sol\":3378:3402  numbers[i] <= MAX_NUMBER */\n      gt\n      iszero\n        /* \"contracts/Lotto.sol\":3350:3402  numbers[i] >= MIN_NUMBER && numbers[i] <= MAX_NUMBER */\n    tag_396:\n        /* \"contracts/Lotto.sol\":3342:3441  require(numbers[i] >= MIN_NUMBER && numbers[i] <= MAX_NUMBER, \"Only numbers 0 ~ 45 can be entered\") */\n      tag_399\n      jumpi\n      mload(0x40)\n      0x08c379a000000000000000000000000000000000000000000000000000000000\n      dup2\n      mstore\n      0x04\n      add\n      tag_400\n      swap1\n      tag_293\n      jump\t// in\n    tag_400:\n      mload(0x40)\n      dup1\n      swap2\n      sub\n      swap1\n      revert\n    tag_399:\n        /* \"contracts/Lotto.sol\":3328:3331  i++ */\n      dup1\n      dup1\n      tag_401\n      swap1\n      tag_172\n      jump\t// in\n    tag_401:\n      swap2\n      pop\n      pop\n        /* \"contracts/Lotto.sol\":3289:3449  for(uint256 i = 0; i < numbers.length; i++) {... */\n      jump(tag_391)\n    tag_392:\n      pop\n        /* \"contracts/Lotto.sol\":3457:3477  Ticket memory ticket */\n      0x00\n        /* \"contracts/Lotto.sol\":3480:3552  Ticket(... */\n      mload(0x40)\n      dup1\n      0x60\n      add\n      0x40\n      mstore\n      dup1\n        /* \"contracts/Lotto.sol\":3495:3505  msg.sender */\n      caller\n        /* \"contracts/Lotto.sol\":3480:3552  Ticket(... */\n      0xffffffffffffffffffffffffffffffffffffffff\n      and\n      dup2\n      mstore\n      0x20\n      add\n        /* \"contracts/Lotto.sol\":3528:3529  1 */\n      0x01\n        /* \"contracts/Lotto.sol\":3514:3520  rounds */\n      0x04\n        /* \"contracts/Lotto.sol\":3514:3527  rounds.length */\n      dup1\n      sload\n      swap1\n      pop\n        /* \"contracts/Lotto.sol\":3514:3529  rounds.length-1 */\n      tag_402\n      swap2\n      swap1\n      tag_153\n      jump\t// in\n    tag_402:\n        /* \"contracts/Lotto.sol\":3480:3552  Ticket(... */\n      dup2\n      mstore\n      0x20\n      add\n        /* \"contracts/Lotto.sol\":3538:3545  numbers */\n      dup4\n        /* \"contracts/Lotto.sol\":3480:3552  Ticket(... */\n      dup2\n      mstore\n      pop\n        /* \"contracts/Lotto.sol\":3457:3552  Ticket memory ticket = Ticket(... */\n      swap1\n      pop\n        /* \"contracts/Lotto.sol\":3561:3568  tickets */\n      0x05\n        /* \"contracts/Lotto.sol\":3574:3580  ticket */\n      dup2\n        /* \"contracts/Lotto.sol\":3561:3581  tickets.push(ticket) */\n      swap1\n      dup1\n      0x01\n      dup2\n      sload\n      add\n      dup1\n      dup3\n      sstore\n      dup1\n      swap2\n      pop\n      pop\n      0x01\n      swap1\n      sub\n      swap1\n      0x00\n      mstore\n      keccak256(0x00, 0x20)\n      swap1\n      0x08\n      mul\n      add\n      0x00\n      swap1\n      swap2\n      swap1\n      swap2\n      swap1\n      swap2\n      pop\n      0x00\n      dup3\n      add\n      mload\n      dup2\n      0x00\n      add\n      exp(0x0100, 0x00)\n      dup2\n      sload\n      dup2\n      0xffffffffffffffffffffffffffffffffffffffff\n      mul\n      not\n      and\n      swap1\n      dup4\n      0xffffffffffffffffffffffffffffffffffffffff\n      and\n      mul\n      or\n      swap1\n      sstore\n      pop\n      0x20\n      dup3\n      add\n      mload\n      dup2\n      0x01\n      add\n      sstore\n      0x40\n      dup3\n      add\n      mload\n      dup2\n      0x02\n      add\n      swap1\n      0x06\n      tag_404\n      swap3\n      swap2\n      swap1\n      tag_304\n      jump\t// in\n    tag_404:\n      pop\n      pop\n      pop\n        /* \"contracts/Lotto.sol\":3633:3634  1 */\n      0x01\n        /* \"contracts/Lotto.sol\":3590:3596  rounds */\n      0x04\n        /* \"contracts/Lotto.sol\":3613:3614  1 */\n      0x01\n        /* \"contracts/Lotto.sol\":3597:3603  rounds */\n      0x04\n        /* \"contracts/Lotto.sol\":3597:3610  rounds.length */\n      dup1\n      sload\n      swap1\n      pop\n        /* \"contracts/Lotto.sol\":3597:3614  rounds.length - 1 */\n      tag_405\n      swap2\n      swap1\n      tag_153\n      jump\t// in\n    tag_405:\n        /* \"contracts/Lotto.sol\":3590:3615  rounds[rounds.length - 1] */\n      dup2\n      sload\n      dup2\n      lt\n      tag_406\n      jumpi\n      tag_407\n      tag_134\n      jump\t// in\n    tag_407:\n    tag_406:\n      swap1\n      0x00\n      mstore\n      keccak256(0x00, 0x20)\n      swap1\n      0x0b\n      mul\n      add\n        /* \"contracts/Lotto.sol\":3590:3629  rounds[rounds.length - 1].totalQuantity */\n      0x0a\n      add\n      0x00\n        /* \"contracts/Lotto.sol\":3590:3634  rounds[rounds.length - 1].totalQuantity += 1 */\n      dup3\n      dup3\n      sload\n      tag_409\n      swap2\n      swap1\n      tag_275\n      jump\t// in\n    tag_409:\n      swap3\n      pop\n      pop\n      dup2\n      swap1\n      sstore\n      pop\n        /* \"contracts/Lotto.sol\":2832:3640  {... */\n      pop\n        /* \"contracts/Lotto.sol\":2777:3640  function buy(uint256[6] memory numbers) public payable {... */\n      pop\n      jump\t// out\n        /* \"contracts/Lotto.sol\":8127:8264  function tokenWithdraw(address payable toAdress) external onlyOwner {... */\n    tag_105:\n        /* \"@klaytn/contracts/contracts/access/Ownable.sol\":1259:1271  _msgSender() */\n      tag_411\n        /* \"@klaytn/contracts/contracts/access/Ownable.sol\":1259:1269  _msgSender */\n      tag_312\n        /* \"@klaytn/contracts/contracts/access/Ownable.sol\":1259:1271  _msgSender() */\n      jump\t// in\n    tag_411:\n        /* \"@klaytn/contracts/contracts/access/Ownable.sol\":1248:1271  owner() == _msgSender() */\n      0xffffffffffffffffffffffffffffffffffffffff\n      and\n        /* \"@klaytn/contracts/contracts/access/Ownable.sol\":1248:1255  owner() */\n      tag_412\n        /* \"@klaytn/contracts/contracts/access/Ownable.sol\":1248:1253  owner */\n      tag_91\n        /* \"@klaytn/contracts/contracts/access/Ownable.sol\":1248:1255  owner() */\n      jump\t// in\n    tag_412:\n        /* \"@klaytn/contracts/contracts/access/Ownable.sol\":1248:1271  owner() == _msgSender() */\n      0xffffffffffffffffffffffffffffffffffffffff\n      and\n      eq\n        /* \"@klaytn/contracts/contracts/access/Ownable.sol\":1240:1308  require(owner() == _msgSender(), \"Ownable: caller is not the owner\") */\n      tag_413\n      jumpi\n      mload(0x40)\n      0x08c379a000000000000000000000000000000000000000000000000000000000\n      dup2\n      mstore\n      0x04\n      add\n      tag_414\n      swap1\n      tag_316\n      jump\t// in\n    tag_414:\n      mload(0x40)\n      dup1\n      swap2\n      sub\n      swap1\n      revert\n    tag_413:\n        /* \"contracts/Lotto.sol\":8202:8207  token */\n      0x01\n      0x00\n      swap1\n      sload\n      swap1\n      0x0100\n      exp\n      swap1\n      div\n      0xffffffffffffffffffffffffffffffffffffffff\n      and\n        /* \"contracts/Lotto.sol\":8202:8216  token.transfer */\n      0xffffffffffffffffffffffffffffffffffffffff\n      and\n      0xa9059cbb\n        /* \"contracts/Lotto.sol\":8217:8225  toAdress */\n      dup3\n        /* \"contracts/Lotto.sol\":8227:8232  token */\n      0x01\n      0x00\n      swap1\n      sload\n      swap1\n      0x0100\n      exp\n      swap1\n      div\n      0xffffffffffffffffffffffffffffffffffffffff\n      and\n        /* \"contracts/Lotto.sol\":8227:8242  token.balanceOf */\n      0xffffffffffffffffffffffffffffffffffffffff\n      and\n      0x70a08231\n        /* \"contracts/Lotto.sol\":8251:8255  this */\n      address\n        /* \"contracts/Lotto.sol\":8227:8257  token.balanceOf(address(this)) */\n      mload(0x40)\n      dup3\n      0xffffffff\n      and\n      0xe0\n      shl\n      dup2\n      mstore\n      0x04\n      add\n      tag_416\n      swap2\n      swap1\n      tag_93\n      jump\t// in\n    tag_416:\n      0x20\n      mload(0x40)\n      dup1\n      dup4\n      sub\n      dup2\n      dup7\n      gas\n      staticcall\n      iszero\n      dup1\n      iszero\n      tag_418\n      jumpi\n      returndatasize\n      0x00\n      dup1\n      returndatacopy\n      revert(0x00, returndatasize)\n    tag_418:\n      pop\n      pop\n      pop\n      pop\n      mload(0x40)\n      returndatasize\n      not(0x1f)\n      0x1f\n      dup3\n      add\n      and\n      dup3\n      add\n      dup1\n      0x40\n      mstore\n      pop\n      dup2\n      add\n      swap1\n      tag_419\n      swap2\n      swap1\n      tag_263\n      jump\t// in\n    tag_419:\n        /* \"contracts/Lotto.sol\":8202:8258  token.transfer(toAdress, token.balanceOf(address(this))) */\n      mload(0x40)\n      dup4\n      0xffffffff\n      and\n      0xe0\n      shl\n      dup2\n      mstore\n      0x04\n      add\n      tag_420\n      swap3\n      swap2\n      swap1\n      tag_421\n      jump\t// in\n    tag_420:\n      0x20\n      mload(0x40)\n      dup1\n      dup4\n      sub\n      dup2\n      0x00\n      dup8\n      gas\n      call\n      iszero\n      dup1\n      iszero\n      tag_423\n      jumpi\n      returndatasize\n      0x00\n      dup1\n      returndatacopy\n      revert(0x00, returndatasize)\n    tag_423:\n      pop\n      pop\n      pop\n      pop\n      mload(0x40)\n      returndatasize\n      not(0x1f)\n      0x1f\n      dup3\n      add\n      and\n      dup3\n      add\n      dup1\n      0x40\n      mstore\n      pop\n      dup2\n      add\n      swap1\n      tag_424\n      swap2\n      swap1\n      tag_300\n      jump\t// in\n    tag_424:\n      pop\n        /* \"contracts/Lotto.sol\":8127:8264  function tokenWithdraw(address payable toAdress) external onlyOwner {... */\n      pop\n      jump\t// out\n        /* \"contracts/Lotto.sol\":7784:7919  function Stop() public onlyOwner{... */\n    tag_108:\n        /* \"@klaytn/contracts/contracts/access/Ownable.sol\":1259:1271  _msgSender() */\n      tag_426\n        /* \"@klaytn/contracts/contracts/access/Ownable.sol\":1259:1269  _msgSender */\n      tag_312\n        /* \"@klaytn/contracts/contracts/access/Ownable.sol\":1259:1271  _msgSender() */\n      jump\t// in\n    tag_426:\n        /* \"@klaytn/contracts/contracts/access/Ownable.sol\":1248:1271  owner() == _msgSender() */\n      0xffffffffffffffffffffffffffffffffffffffff\n      and\n        /* \"@klaytn/contracts/contracts/access/Ownable.sol\":1248:1255  owner() */\n      tag_427\n        /* \"@klaytn/contracts/contracts/access/Ownable.sol\":1248:1253  owner */\n      tag_91\n        /* \"@klaytn/contracts/contracts/access/Ownable.sol\":1248:1255  owner() */\n      jump\t// in\n    tag_427:\n        /* \"@klaytn/contracts/contracts/access/Ownable.sol\":1248:1271  owner() == _msgSender() */\n      0xffffffffffffffffffffffffffffffffffffffff\n      and\n      eq\n        /* \"@klaytn/contracts/contracts/access/Ownable.sol\":1240:1308  require(owner() == _msgSender(), \"Ownable: caller is not the owner\") */\n      tag_428\n      jumpi\n      mload(0x40)\n      0x08c379a000000000000000000000000000000000000000000000000000000000\n      dup2\n      mstore\n      0x04\n      add\n      tag_429\n      swap1\n      tag_316\n      jump\t// in\n    tag_429:\n      mload(0x40)\n      dup1\n      swap2\n      sub\n      swap1\n      revert\n    tag_428:\n        /* \"contracts/Lotto.sol\":7858:7873  RoundStatus.End */\n      0x01\n        /* \"contracts/Lotto.sol\":7823:7829  rounds */\n      0x04\n        /* \"contracts/Lotto.sol\":7846:7847  1 */\n      0x01\n        /* \"contracts/Lotto.sol\":7830:7836  rounds */\n      0x04\n        /* \"contracts/Lotto.sol\":7830:7843  rounds.length */\n      dup1\n      sload\n      swap1\n      pop\n        /* \"contracts/Lotto.sol\":7830:7847  rounds.length - 1 */\n      tag_431\n      swap2\n      swap1\n      tag_153\n      jump\t// in\n    tag_431:\n        /* \"contracts/Lotto.sol\":7823:7848  rounds[rounds.length - 1] */\n      dup2\n      sload\n      dup2\n      lt\n      tag_432\n      jumpi\n      tag_433\n      tag_134\n      jump\t// in\n    tag_433:\n    tag_432:\n      swap1\n      0x00\n      mstore\n      keccak256(0x00, 0x20)\n      swap1\n      0x0b\n      mul\n      add\n        /* \"contracts/Lotto.sol\":7823:7855  rounds[rounds.length - 1].status */\n      0x02\n      add\n      0x00\n        /* \"contracts/Lotto.sol\":7823:7873  rounds[rounds.length - 1].status = RoundStatus.End */\n      0x0100\n      exp\n      dup2\n      sload\n      dup2\n      0xff\n      mul\n      not\n      and\n      swap1\n      dup4\n      0x01\n      dup2\n      gt\n      iszero\n      tag_435\n      jumpi\n      tag_436\n      tag_139\n      jump\t// in\n    tag_436:\n    tag_435:\n      mul\n      or\n      swap1\n      sstore\n      pop\n        /* \"contracts/Lotto.sol\":7880:7893  drawNumbers() */\n      tag_437\n        /* \"contracts/Lotto.sol\":7880:7891  drawNumbers */\n      tag_438\n        /* \"contracts/Lotto.sol\":7880:7893  drawNumbers() */\n      jump\t// in\n    tag_437:\n        /* \"contracts/Lotto.sol\":7900:7913  createRound() */\n      tag_439\n        /* \"contracts/Lotto.sol\":7900:7911  createRound */\n      tag_322\n        /* \"contracts/Lotto.sol\":7900:7913  createRound() */\n      jump\t// in\n    tag_439:\n        /* \"contracts/Lotto.sol\":7784:7919  function Stop() public onlyOwner{... */\n      jump\t// out\n        /* \"contracts/Lotto.sol\":764:802  uint256 constant public MIN_NUMBER = 1 */\n    tag_111:\n        /* \"contracts/Lotto.sol\":801:802  1 */\n      0x01\n        /* \"contracts/Lotto.sol\":764:802  uint256 constant public MIN_NUMBER = 1 */\n      dup2\n      jump\t// out\n        /* \"contracts/Lotto.sol\":964:991  uint256 public currentBlock */\n    tag_115:\n      sload(0x07)\n      dup2\n      jump\t// out\n        /* \"@klaytn/contracts/contracts/access/Ownable.sol\":1918:2116  function transferOwnership(address newOwner) public virtual onlyOwner {... */\n    tag_121:\n        /* \"@klaytn/contracts/contracts/access/Ownable.sol\":1259:1271  _msgSender() */\n      tag_441\n        /* \"@klaytn/contracts/contracts/access/Ownable.sol\":1259:1269  _msgSender */\n      tag_312\n        /* \"@klaytn/contracts/contracts/access/Ownable.sol\":1259:1271  _msgSender() */\n      jump\t// in\n    tag_441:\n        /* \"@klaytn/contracts/contracts/access/Ownable.sol\":1248:1271  owner() == _msgSender() */\n      0xffffffffffffffffffffffffffffffffffffffff\n      and\n        /* \"@klaytn/contracts/contracts/access/Ownable.sol\":1248:1255  owner() */\n      tag_442\n        /* \"@klaytn/contracts/contracts/access/Ownable.sol\":1248:1253  owner */\n      tag_91\n        /* \"@klaytn/contracts/contracts/access/Ownable.sol\":1248:1255  owner() */\n      jump\t// in\n    tag_442:\n        /* \"@klaytn/contracts/contracts/access/Ownable.sol\":1248:1271  owner() == _msgSender() */\n      0xffffffffffffffffffffffffffffffffffffffff\n      and\n      eq\n        /* \"@klaytn/contracts/contracts/access/Ownable.sol\":1240:1308  require(owner() == _msgSender(), \"Ownable: caller is not the owner\") */\n      tag_443\n      jumpi\n      mload(0x40)\n      0x08c379a000000000000000000000000000000000000000000000000000000000\n      dup2\n      mstore\n      0x04\n      add\n      tag_444\n      swap1\n      tag_316\n      jump\t// in\n    tag_444:\n      mload(0x40)\n      dup1\n      swap2\n      sub\n      swap1\n      revert\n    tag_443:\n        /* \"@klaytn/contracts/contracts/access/Ownable.sol\":2026:2027  0 */\n      0x00\n        /* \"@klaytn/contracts/contracts/access/Ownable.sol\":2006:2028  newOwner != address(0) */\n      0xffffffffffffffffffffffffffffffffffffffff\n      and\n        /* \"@klaytn/contracts/contracts/access/Ownable.sol\":2006:2014  newOwner */\n      dup2\n        /* \"@klaytn/contracts/contracts/access/Ownable.sol\":2006:2028  newOwner != address(0) */\n      0xffffffffffffffffffffffffffffffffffffffff\n      and\n      sub\n        /* \"@klaytn/contracts/contracts/access/Ownable.sol\":1998:2071  require(newOwner != address(0), \"Ownable: new owner is the zero address\") */\n      tag_446\n      jumpi\n      mload(0x40)\n      0x08c379a000000000000000000000000000000000000000000000000000000000\n      dup2\n      mstore\n      0x04\n      add\n      tag_447\n      swap1\n      tag_448\n      jump\t// in\n    tag_447:\n      mload(0x40)\n      dup1\n      swap2\n      sub\n      swap1\n      revert\n    tag_446:\n        /* \"@klaytn/contracts/contracts/access/Ownable.sol\":2081:2109  _transferOwnership(newOwner) */\n      tag_449\n        /* \"@klaytn/contracts/contracts/access/Ownable.sol\":2100:2108  newOwner */\n      dup2\n        /* \"@klaytn/contracts/contracts/access/Ownable.sol\":2081:2099  _transferOwnership */\n      tag_339\n        /* \"@klaytn/contracts/contracts/access/Ownable.sol\":2081:2109  _transferOwnership(newOwner) */\n      jump\t// in\n    tag_449:\n        /* \"@klaytn/contracts/contracts/access/Ownable.sol\":1918:2116  function transferOwnership(address newOwner) public virtual onlyOwner {... */\n      pop\n      jump\t// out\n        /* \"contracts/Lotto.sol\":219:237  IKIP7 public token */\n    tag_124:\n      0x01\n      0x00\n      swap1\n      sload\n      swap1\n      0x0100\n      exp\n      swap1\n      div\n      0xffffffffffffffffffffffffffffffffffffffff\n      and\n      dup2\n      jump\t// out\n        /* \"contracts/Lotto.sol\":807:846  uint256 constant public MAX_NUMBER = 45 */\n    tag_129:\n        /* \"contracts/Lotto.sol\":844:846  45 */\n      0x2d\n        /* \"contracts/Lotto.sol\":807:846  uint256 constant public MAX_NUMBER = 45 */\n      dup2\n      jump\t// out\n        /* \"@klaytn/contracts/contracts/utils/Context.sol\":640:736  function _msgSender() internal view virtual returns (address) {... */\n    tag_312:\n        /* \"@klaytn/contracts/contracts/utils/Context.sol\":693:700  address */\n      0x00\n        /* \"@klaytn/contracts/contracts/utils/Context.sol\":719:729  msg.sender */\n      caller\n        /* \"@klaytn/contracts/contracts/utils/Context.sol\":712:729  return msg.sender */\n      swap1\n      pop\n        /* \"@klaytn/contracts/contracts/utils/Context.sol\":640:736  function _msgSender() internal view virtual returns (address) {... */\n      swap1\n      jump\t// out\n        /* \"contracts/Lotto.sol\":6271:6721  function closeRound() internal {... */\n    tag_320:\n        /* \"contracts/Lotto.sol\":6383:6398  RoundStatus.End */\n      0x01\n        /* \"contracts/Lotto.sol\":6347:6398  rounds[rounds.length - 1].status == RoundStatus.End */\n      dup1\n      dup2\n      gt\n      iszero\n      tag_452\n      jumpi\n      tag_453\n      tag_139\n      jump\t// in\n    tag_453:\n    tag_452:\n        /* \"contracts/Lotto.sol\":6347:6353  rounds */\n      0x04\n        /* \"contracts/Lotto.sol\":6370:6371  1 */\n      0x01\n        /* \"contracts/Lotto.sol\":6354:6360  rounds */\n      0x04\n        /* \"contracts/Lotto.sol\":6354:6367  rounds.length */\n      dup1\n      sload\n      swap1\n      pop\n        /* \"contracts/Lotto.sol\":6354:6371  rounds.length - 1 */\n      tag_454\n      swap2\n      swap1\n      tag_153\n      jump\t// in\n    tag_454:\n        /* \"contracts/Lotto.sol\":6347:6372  rounds[rounds.length - 1] */\n      dup2\n      sload\n      dup2\n      lt\n      tag_455\n      jumpi\n      tag_456\n      tag_134\n      jump\t// in\n    tag_456:\n    tag_455:\n      swap1\n      0x00\n      mstore\n      keccak256(0x00, 0x20)\n      swap1\n      0x0b\n      mul\n      add\n        /* \"contracts/Lotto.sol\":6347:6379  rounds[rounds.length - 1].status */\n      0x02\n      add\n      0x00\n      swap1\n      sload\n      swap1\n      0x0100\n      exp\n      swap1\n      div\n      0xff\n      and\n        /* \"contracts/Lotto.sol\":6347:6398  rounds[rounds.length - 1].status == RoundStatus.End */\n      0x01\n      dup2\n      gt\n      iszero\n      tag_458\n      jumpi\n      tag_459\n      tag_139\n      jump\t// in\n    tag_459:\n    tag_458:\n      sub\n        /* \"contracts/Lotto.sol\":6344:6436  if(rounds[rounds.length - 1].status == RoundStatus.End)... */\n      tag_460\n      jumpi\n        /* \"contracts/Lotto.sol\":6407:6436  revert(\"Round already ended\") */\n      mload(0x40)\n      0x08c379a000000000000000000000000000000000000000000000000000000000\n      dup2\n      mstore\n      0x04\n      add\n      tag_461\n      swap1\n      tag_462\n      jump\t// in\n    tag_461:\n      mload(0x40)\n      dup1\n      swap2\n      sub\n      swap1\n      revert\n        /* \"contracts/Lotto.sol\":6344:6436  if(rounds[rounds.length - 1].status == RoundStatus.End)... */\n    tag_460:\n        /* \"contracts/Lotto.sol\":6508:6514  rounds */\n      0x04\n        /* \"contracts/Lotto.sol\":6531:6532  1 */\n      0x01\n        /* \"contracts/Lotto.sol\":6515:6521  rounds */\n      0x04\n        /* \"contracts/Lotto.sol\":6515:6528  rounds.length */\n      dup1\n      sload\n      swap1\n      pop\n        /* \"contracts/Lotto.sol\":6515:6532  rounds.length - 1 */\n      tag_463\n      swap2\n      swap1\n      tag_153\n      jump\t// in\n    tag_463:\n        /* \"contracts/Lotto.sol\":6508:6533  rounds[rounds.length - 1] */\n      dup2\n      sload\n      dup2\n      lt\n      tag_464\n      jumpi\n      tag_465\n      tag_134\n      jump\t// in\n    tag_465:\n    tag_464:\n      swap1\n      0x00\n      mstore\n      keccak256(0x00, 0x20)\n      swap1\n      0x0b\n      mul\n      add\n        /* \"contracts/Lotto.sol\":6508:6541  rounds[rounds.length - 1].endTime */\n      0x01\n      add\n      sload\n        /* \"contracts/Lotto.sol\":6490:6505  block.timestamp */\n      timestamp\n        /* \"contracts/Lotto.sol\":6490:6541  block.timestamp < rounds[rounds.length - 1].endTime */\n      lt\n        /* \"contracts/Lotto.sol\":6487:6581  if(block.timestamp < rounds[rounds.length - 1].endTime)... */\n      iszero\n      tag_467\n      jumpi\n        /* \"contracts/Lotto.sol\":6550:6581  revert(\"The round not endtime\") */\n      mload(0x40)\n      0x08c379a000000000000000000000000000000000000000000000000000000000\n      dup2\n      mstore\n      0x04\n      add\n      tag_468\n      swap1\n      tag_469\n      jump\t// in\n    tag_468:\n      mload(0x40)\n      dup1\n      swap2\n      sub\n      swap1\n      revert\n        /* \"contracts/Lotto.sol\":6487:6581  if(block.timestamp < rounds[rounds.length - 1].endTime)... */\n    tag_467:\n        /* \"contracts/Lotto.sol\":6625:6640  RoundStatus.End */\n      0x01\n        /* \"contracts/Lotto.sol\":6590:6596  rounds */\n      0x04\n        /* \"contracts/Lotto.sol\":6613:6614  1 */\n      0x01\n        /* \"contracts/Lotto.sol\":6597:6603  rounds */\n      0x04\n        /* \"contracts/Lotto.sol\":6597:6610  rounds.length */\n      dup1\n      sload\n      swap1\n      pop\n        /* \"contracts/Lotto.sol\":6597:6614  rounds.length - 1 */\n      tag_470\n      swap2\n      swap1\n      tag_153\n      jump\t// in\n    tag_470:\n        /* \"contracts/Lotto.sol\":6590:6615  rounds[rounds.length - 1] */\n      dup2\n      sload\n      dup2\n      lt\n      tag_471\n      jumpi\n      tag_472\n      tag_134\n      jump\t// in\n    tag_472:\n    tag_471:\n      swap1\n      0x00\n      mstore\n      keccak256(0x00, 0x20)\n      swap1\n      0x0b\n      mul\n      add\n        /* \"contracts/Lotto.sol\":6590:6622  rounds[rounds.length - 1].status */\n      0x02\n      add\n      0x00\n        /* \"contracts/Lotto.sol\":6590:6640  rounds[rounds.length - 1].status = RoundStatus.End */\n      0x0100\n      exp\n      dup2\n      sload\n      dup2\n      0xff\n      mul\n      not\n      and\n      swap1\n      dup4\n      0x01\n      dup2\n      gt\n      iszero\n      tag_474\n      jumpi\n      tag_475\n      tag_139\n      jump\t// in\n    tag_475:\n    tag_474:\n      mul\n      or\n      swap1\n      sstore\n      pop\n        /* \"contracts/Lotto.sol\":6684:6697  drawNumbers() */\n      tag_476\n        /* \"contracts/Lotto.sol\":6684:6695  drawNumbers */\n      tag_438\n        /* \"contracts/Lotto.sol\":6684:6697  drawNumbers() */\n      jump\t// in\n    tag_476:\n        /* \"contracts/Lotto.sol\":6271:6721  function closeRound() internal {... */\n      jump\t// out\n        /* \"contracts/Lotto.sol\":1334:1721  function createRound() internal {... */\n    tag_322:\n        /* \"contracts/Lotto.sol\":1392:1393  0 */\n      0x00\n        /* \"contracts/Lotto.sol\":1376:1382  rounds */\n      0x04\n        /* \"contracts/Lotto.sol\":1376:1389  rounds.length */\n      dup1\n      sload\n      swap1\n      pop\n        /* \"contracts/Lotto.sol\":1376:1393  rounds.length > 0 */\n      gt\n        /* \"contracts/Lotto.sol\":1376:1448  rounds.length > 0 && rounds[rounds.length - 1].status != RoundStatus.End */\n      dup1\n      iszero\n      tag_478\n      jumpi\n      pop\n        /* \"contracts/Lotto.sol\":1433:1448  RoundStatus.End */\n      0x01\n        /* \"contracts/Lotto.sol\":1397:1448  rounds[rounds.length - 1].status != RoundStatus.End */\n      dup1\n      dup2\n      gt\n      iszero\n      tag_479\n      jumpi\n      tag_480\n      tag_139\n      jump\t// in\n    tag_480:\n    tag_479:\n        /* \"contracts/Lotto.sol\":1397:1403  rounds */\n      0x04\n        /* \"contracts/Lotto.sol\":1420:1421  1 */\n      0x01\n        /* \"contracts/Lotto.sol\":1404:1410  rounds */\n      0x04\n        /* \"contracts/Lotto.sol\":1404:1417  rounds.length */\n      dup1\n      sload\n      swap1\n      pop\n        /* \"contracts/Lotto.sol\":1404:1421  rounds.length - 1 */\n      tag_481\n      swap2\n      swap1\n      tag_153\n      jump\t// in\n    tag_481:\n        /* \"contracts/Lotto.sol\":1397:1422  rounds[rounds.length - 1] */\n      dup2\n      sload\n      dup2\n      lt\n      tag_482\n      jumpi\n      tag_483\n      tag_134\n      jump\t// in\n    tag_483:\n    tag_482:\n      swap1\n      0x00\n      mstore\n      keccak256(0x00, 0x20)\n      swap1\n      0x0b\n      mul\n      add\n        /* \"contracts/Lotto.sol\":1397:1429  rounds[rounds.length - 1].status */\n      0x02\n      add\n      0x00\n      swap1\n      sload\n      swap1\n      0x0100\n      exp\n      swap1\n      div\n      0xff\n      and\n        /* \"contracts/Lotto.sol\":1397:1448  rounds[rounds.length - 1].status != RoundStatus.End */\n      0x01\n      dup2\n      gt\n      iszero\n      tag_485\n      jumpi\n      tag_486\n      tag_139\n      jump\t// in\n    tag_486:\n    tag_485:\n      eq\n      iszero\n        /* \"contracts/Lotto.sol\":1376:1448  rounds.length > 0 && rounds[rounds.length - 1].status != RoundStatus.End */\n    tag_478:\n        /* \"contracts/Lotto.sol\":1373:1494  if(rounds.length > 0 && rounds[rounds.length - 1].status != RoundStatus.End) {... */\n      iszero\n      tag_487\n      jumpi\n        /* \"contracts/Lotto.sol\":1459:1486  revert(\"Round in progress\") */\n      mload(0x40)\n      0x08c379a000000000000000000000000000000000000000000000000000000000\n      dup2\n      mstore\n      0x04\n      add\n      tag_488\n      swap1\n      tag_489\n      jump\t// in\n    tag_488:\n      mload(0x40)\n      dup1\n      swap2\n      sub\n      swap1\n      revert\n        /* \"contracts/Lotto.sol\":1373:1494  if(rounds.length > 0 && rounds[rounds.length - 1].status != RoundStatus.End) {... */\n    tag_487:\n        /* \"contracts/Lotto.sol\":1502:1526  uint256[7] memory winNum */\n      tag_490\n      tag_343\n      jump\t// in\n    tag_490:\n        /* \"contracts/Lotto.sol\":1539:1557  Round memory round */\n      0x00\n        /* \"contracts/Lotto.sol\":1560:1688  Round(... */\n      mload(0x40)\n      dup1\n      0xa0\n      add\n      0x40\n      mstore\n      dup1\n        /* \"contracts/Lotto.sol\":1574:1589  block.timestamp */\n      timestamp\n        /* \"contracts/Lotto.sol\":1560:1688  Round(... */\n      dup2\n      mstore\n      0x20\n      add\n        /* \"contracts/Lotto.sol\":1616:1630  round_interval */\n      sload(0x06)\n        /* \"contracts/Lotto.sol\":1598:1613  block.timestamp */\n      timestamp\n        /* \"contracts/Lotto.sol\":1598:1630  block.timestamp + round_interval */\n      tag_491\n      swap2\n      swap1\n      tag_275\n      jump\t// in\n    tag_491:\n        /* \"contracts/Lotto.sol\":1560:1688  Round(... */\n      dup2\n      mstore\n      0x20\n      add\n        /* \"contracts/Lotto.sol\":1639:1656  RoundStatus.Start */\n      0x00\n        /* \"contracts/Lotto.sol\":1560:1688  Round(... */\n      0x01\n      dup2\n      gt\n      iszero\n      tag_492\n      jumpi\n      tag_493\n      tag_139\n      jump\t// in\n    tag_493:\n    tag_492:\n      dup2\n      mstore\n      0x20\n      add\n        /* \"contracts/Lotto.sol\":1665:1671  winNum */\n      dup4\n        /* \"contracts/Lotto.sol\":1560:1688  Round(... */\n      dup2\n      mstore\n      0x20\n      add\n        /* \"contracts/Lotto.sol\":1680:1681  0 */\n      0x00\n        /* \"contracts/Lotto.sol\":1560:1688  Round(... */\n      dup2\n      mstore\n      pop\n        /* \"contracts/Lotto.sol\":1539:1688  Round memory round = Round(... */\n      swap1\n      pop\n        /* \"contracts/Lotto.sol\":1697:1703  rounds */\n      0x04\n        /* \"contracts/Lotto.sol\":1709:1714  round */\n      dup2\n        /* \"contracts/Lotto.sol\":1697:1715  rounds.push(round) */\n      swap1\n      dup1\n      0x01\n      dup2\n      sload\n      add\n      dup1\n      dup3\n      sstore\n      dup1\n      swap2\n      pop\n      pop\n      0x01\n      swap1\n      sub\n      swap1\n      0x00\n      mstore\n      keccak256(0x00, 0x20)\n      swap1\n      0x0b\n      mul\n      add\n      0x00\n      swap1\n      swap2\n      swap1\n      swap2\n      swap1\n      swap2\n      pop\n      0x00\n      dup3\n      add\n      mload\n      dup2\n      0x00\n      add\n      sstore\n      0x20\n      dup3\n      add\n      mload\n      dup2\n      0x01\n      add\n      sstore\n      0x40\n      dup3\n      add\n      mload\n      dup2\n      0x02\n      add\n      exp(0x0100, 0x00)\n      dup2\n      sload\n      dup2\n      0xff\n      mul\n      not\n      and\n      swap1\n      dup4\n      0x01\n      dup2\n      gt\n      iszero\n      tag_495\n      jumpi\n      tag_496\n      tag_139\n      jump\t// in\n    tag_496:\n    tag_495:\n      mul\n      or\n      swap1\n      sstore\n      pop\n      0x60\n      dup3\n      add\n      mload\n      dup2\n      0x03\n      add\n      swap1\n      0x07\n      tag_497\n      swap3\n      swap2\n      swap1\n      tag_498\n      jump\t// in\n    tag_497:\n      pop\n      0x80\n      dup3\n      add\n      mload\n      dup2\n      0x0a\n      add\n      sstore\n      pop\n      pop\n        /* \"contracts/Lotto.sol\":1366:1721  {... */\n      pop\n      pop\n        /* \"contracts/Lotto.sol\":1334:1721  function createRound() internal {... */\n      jump\t// out\n        /* \"@klaytn/contracts/contracts/access/Ownable.sol\":2270:2457  function _transferOwnership(address newOwner) internal virtual {... */\n    tag_339:\n        /* \"@klaytn/contracts/contracts/access/Ownable.sol\":2343:2359  address oldOwner */\n      0x00\n        /* \"@klaytn/contracts/contracts/access/Ownable.sol\":2362:2368  _owner */\n      dup1\n      0x00\n      swap1\n      sload\n      swap1\n      0x0100\n      exp\n      swap1\n      div\n      0xffffffffffffffffffffffffffffffffffffffff\n      and\n        /* \"@klaytn/contracts/contracts/access/Ownable.sol\":2343:2368  address oldOwner = _owner */\n      swap1\n      pop\n        /* \"@klaytn/contracts/contracts/access/Ownable.sol\":2387:2395  newOwner */\n      dup2\n        /* \"@klaytn/contracts/contracts/access/Ownable.sol\":2378:2384  _owner */\n      0x00\n      dup1\n        /* \"@klaytn/contracts/contracts/access/Ownable.sol\":2378:2395  _owner = newOwner */\n      0x0100\n      exp\n      dup2\n      sload\n      dup2\n      0xffffffffffffffffffffffffffffffffffffffff\n      mul\n      not\n      and\n      swap1\n      dup4\n      0xffffffffffffffffffffffffffffffffffffffff\n      and\n      mul\n      or\n      swap1\n      sstore\n      pop\n        /* \"@klaytn/contracts/contracts/access/Ownable.sol\":2441:2449  newOwner */\n      dup2\n        /* \"@klaytn/contracts/contracts/access/Ownable.sol\":2410:2450  OwnershipTransferred(oldOwner, newOwner) */\n      0xffffffffffffffffffffffffffffffffffffffff\n      and\n        /* \"@klaytn/contracts/contracts/access/Ownable.sol\":2431:2439  oldOwner */\n      dup2\n        /* \"@klaytn/contracts/contracts/access/Ownable.sol\":2410:2450  OwnershipTransferred(oldOwner, newOwner) */\n      0xffffffffffffffffffffffffffffffffffffffff\n      and\n      0x8be0079c531659141344cd1fd0a4f28419497f9722a3daafe3b4186f6b6457e0\n      mload(0x40)\n      mload(0x40)\n      dup1\n      swap2\n      sub\n      swap1\n      log3\n        /* \"@klaytn/contracts/contracts/access/Ownable.sol\":2333:2457  {... */\n      pop\n        /* \"@klaytn/contracts/contracts/access/Ownable.sol\":2270:2457  function _transferOwnership(address newOwner) internal virtual {... */\n      pop\n      jump\t// out\n        /* \"contracts/Lotto.sol\":3694:4840  function drawNumbers() internal {... */\n    tag_438:\n        /* \"contracts/Lotto.sol\":3733:3750  uint256 drawBlock */\n      0x00\n        /* \"contracts/Lotto.sol\":3753:3759  rounds */\n      0x04\n        /* \"contracts/Lotto.sol\":3776:3777  1 */\n      0x01\n        /* \"contracts/Lotto.sol\":3760:3766  rounds */\n      0x04\n        /* \"contracts/Lotto.sol\":3760:3773  rounds.length */\n      dup1\n      sload\n      swap1\n      pop\n        /* \"contracts/Lotto.sol\":3760:3777  rounds.length - 1 */\n      tag_501\n      swap2\n      swap1\n      tag_153\n      jump\t// in\n    tag_501:\n        /* \"contracts/Lotto.sol\":3753:3778  rounds[rounds.length - 1] */\n      dup2\n      sload\n      dup2\n      lt\n      tag_502\n      jumpi\n      tag_503\n      tag_134\n      jump\t// in\n    tag_503:\n    tag_502:\n      swap1\n      0x00\n      mstore\n      keccak256(0x00, 0x20)\n      swap1\n      0x0b\n      mul\n      add\n        /* \"contracts/Lotto.sol\":3753:3786  rounds[rounds.length - 1].endTime */\n      0x01\n      add\n      sload\n        /* \"contracts/Lotto.sol\":3733:3786  uint256 drawBlock = rounds[rounds.length - 1].endTime */\n      swap1\n      pop\n        /* \"contracts/Lotto.sol\":3821:3827  rounds */\n      0x04\n        /* \"contracts/Lotto.sol\":3844:3845  1 */\n      0x01\n        /* \"contracts/Lotto.sol\":3828:3834  rounds */\n      0x04\n        /* \"contracts/Lotto.sol\":3828:3841  rounds.length */\n      dup1\n      sload\n      swap1\n      pop\n        /* \"contracts/Lotto.sol\":3828:3845  rounds.length - 1 */\n      tag_505\n      swap2\n      swap1\n      tag_153\n      jump\t// in\n    tag_505:\n        /* \"contracts/Lotto.sol\":3821:3846  rounds[rounds.length - 1] */\n      dup2\n      sload\n      dup2\n      lt\n      tag_506\n      jumpi\n      tag_507\n      tag_134\n      jump\t// in\n    tag_507:\n    tag_506:\n      swap1\n      0x00\n      mstore\n      keccak256(0x00, 0x20)\n      swap1\n      0x0b\n      mul\n      add\n        /* \"contracts/Lotto.sol\":3821:3854  rounds[rounds.length - 1].endTime */\n      0x01\n      add\n      sload\n        /* \"contracts/Lotto.sol\":3803:3818  block.timestamp */\n      timestamp\n        /* \"contracts/Lotto.sol\":3803:3854  block.timestamp > rounds[rounds.length - 1].endTime */\n      gt\n        /* \"contracts/Lotto.sol\":3795:3855  require(block.timestamp > rounds[rounds.length - 1].endTime) */\n      tag_509\n      jumpi\n      0x00\n      dup1\n      revert\n    tag_509:\n        /* \"contracts/Lotto.sol\":3913:3914  0 */\n      0x00\n        /* \"contracts/Lotto.sol\":3870:3876  rounds */\n      0x04\n        /* \"contracts/Lotto.sol\":3893:3894  1 */\n      0x01\n        /* \"contracts/Lotto.sol\":3877:3883  rounds */\n      0x04\n        /* \"contracts/Lotto.sol\":3877:3890  rounds.length */\n      dup1\n      sload\n      swap1\n      pop\n        /* \"contracts/Lotto.sol\":3877:3894  rounds.length - 1 */\n      tag_510\n      swap2\n      swap1\n      tag_153\n      jump\t// in\n    tag_510:\n        /* \"contracts/Lotto.sol\":3870:3895  rounds[rounds.length - 1] */\n      dup2\n      sload\n      dup2\n      lt\n      tag_511\n      jumpi\n      tag_512\n      tag_134\n      jump\t// in\n    tag_512:\n    tag_511:\n      swap1\n      0x00\n      mstore\n      keccak256(0x00, 0x20)\n      swap1\n      0x0b\n      mul\n      add\n        /* \"contracts/Lotto.sol\":3870:3906  rounds[rounds.length - 1].winNumbers */\n      0x03\n      add\n        /* \"contracts/Lotto.sol\":3907:3908  0 */\n      0x00\n        /* \"contracts/Lotto.sol\":3870:3909  rounds[rounds.length - 1].winNumbers[0] */\n      0x07\n      dup2\n      lt\n      tag_514\n      jumpi\n      tag_515\n      tag_134\n      jump\t// in\n    tag_515:\n    tag_514:\n      add\n      sload\n        /* \"contracts/Lotto.sol\":3870:3914  rounds[rounds.length - 1].winNumbers[0] == 0 */\n      eq\n        /* \"contracts/Lotto.sol\":3862:3915  require(rounds[rounds.length - 1].winNumbers[0] == 0) */\n      tag_517\n      jumpi\n      0x00\n      dup1\n      revert\n    tag_517:\n        /* \"contracts/Lotto.sol\":3924:3933  uint256 i */\n      0x00\n        /* \"contracts/Lotto.sol\":3944:3956  uint256 seed */\n      dup1\n        /* \"contracts/Lotto.sol\":3969:4560  while(i < 7) {... */\n    tag_518:\n        /* \"contracts/Lotto.sol\":3979:3980  7 */\n      0x07\n        /* \"contracts/Lotto.sol\":3975:3976  i */\n      dup3\n        /* \"contracts/Lotto.sol\":3975:3980  i < 7 */\n      lt\n        /* \"contracts/Lotto.sol\":3969:4560  while(i < 7) {... */\n      iszero\n      tag_519\n      jumpi\n        /* \"contracts/Lotto.sol\":3991:4005  bytes32 source */\n      0x00\n        /* \"contracts/Lotto.sol\":4018:4027  drawBlock */\n      dup4\n        /* \"contracts/Lotto.sol\":4008:4028  blockhash(drawBlock) */\n      blockhash\n        /* \"contracts/Lotto.sol\":3991:4028  bytes32 source = blockhash(drawBlock) */\n      swap1\n      pop\n        /* \"contracts/Lotto.sol\":4039:4065  bytes memory encodedSource */\n      0x00\n        /* \"contracts/Lotto.sol\":4079:4085  source */\n      dup2\n        /* \"contracts/Lotto.sol\":4086:4090  seed */\n      dup4\n        /* \"contracts/Lotto.sol\":4068:4091  abi.encode(source,seed) */\n      add(0x20, mload(0x40))\n      tag_520\n      swap3\n      swap2\n      swap1\n      tag_521\n      jump\t// in\n    tag_520:\n      mload(0x40)\n      0x20\n      dup2\n      dup4\n      sub\n      sub\n      dup2\n      mstore\n      swap1\n      0x40\n      mstore\n        /* \"contracts/Lotto.sol\":4039:4091  bytes memory encodedSource = abi.encode(source,seed) */\n      swap1\n      pop\n        /* \"contracts/Lotto.sol\":4100:4113  bytes32 _rand */\n      0x00\n        /* \"contracts/Lotto.sol\":4126:4139  encodedSource */\n      dup2\n        /* \"contracts/Lotto.sol\":4116:4140  keccak256(encodedSource) */\n      dup1\n      mload\n      swap1\n      0x20\n      add\n      keccak256\n        /* \"contracts/Lotto.sol\":4100:4140  bytes32 _rand = keccak256(encodedSource) */\n      swap1\n      pop\n        /* \"contracts/Lotto.sol\":4149:4167  uint256 numberDraw */\n      0x00\n        /* \"contracts/Lotto.sol\":4202:4203  1 */\n      0x01\n        /* \"contracts/Lotto.sol\":844:846  45 */\n      0x2d\n        /* \"contracts/Lotto.sol\":4179:4184  _rand */\n      dup4\n        /* \"contracts/Lotto.sol\":4171:4185  uint256(_rand) */\n      0x00\n      shr\n        /* \"contracts/Lotto.sol\":4171:4198  uint256(_rand) % MAX_NUMBER */\n      tag_522\n      swap2\n      swap1\n      tag_523\n      jump\t// in\n    tag_522:\n        /* \"contracts/Lotto.sol\":4170:4203  (uint256(_rand) % MAX_NUMBER) + 1 */\n      tag_524\n      swap2\n      swap1\n      tag_275\n      jump\t// in\n    tag_524:\n        /* \"contracts/Lotto.sol\":4149:4203  uint256 numberDraw = (uint256(_rand) % MAX_NUMBER) + 1 */\n      swap1\n      pop\n        /* \"contracts/Lotto.sol\":4214:4228  bool duplicate */\n      0x00\n        /* \"contracts/Lotto.sol\":4249:4258  uint256 j */\n      dup1\n        /* \"contracts/Lotto.sol\":4245:4432  for(uint256 j = 0; j < i; j++) {... */\n    tag_525:\n        /* \"contracts/Lotto.sol\":4268:4269  i */\n      dup8\n        /* \"contracts/Lotto.sol\":4264:4265  j */\n      dup2\n        /* \"contracts/Lotto.sol\":4264:4269  j < i */\n      lt\n        /* \"contracts/Lotto.sol\":4245:4432  for(uint256 j = 0; j < i; j++) {... */\n      iszero\n      tag_526\n      jumpi\n        /* \"contracts/Lotto.sol\":4304:4310  rounds */\n      0x04\n        /* \"contracts/Lotto.sol\":4327:4328  1 */\n      0x01\n        /* \"contracts/Lotto.sol\":4311:4317  rounds */\n      0x04\n        /* \"contracts/Lotto.sol\":4311:4324  rounds.length */\n      dup1\n      sload\n      swap1\n      pop\n        /* \"contracts/Lotto.sol\":4311:4328  rounds.length - 1 */\n      tag_528\n      swap2\n      swap1\n      tag_153\n      jump\t// in\n    tag_528:\n        /* \"contracts/Lotto.sol\":4304:4329  rounds[rounds.length - 1] */\n      dup2\n      sload\n      dup2\n      lt\n      tag_529\n      jumpi\n      tag_530\n      tag_134\n      jump\t// in\n    tag_530:\n    tag_529:\n      swap1\n      0x00\n      mstore\n      keccak256(0x00, 0x20)\n      swap1\n      0x0b\n      mul\n      add\n        /* \"contracts/Lotto.sol\":4304:4340  rounds[rounds.length - 1].winNumbers */\n      0x03\n      add\n        /* \"contracts/Lotto.sol\":4341:4342  j */\n      dup2\n        /* \"contracts/Lotto.sol\":4304:4343  rounds[rounds.length - 1].winNumbers[j] */\n      0x07\n      dup2\n      lt\n      tag_532\n      jumpi\n      tag_533\n      tag_134\n      jump\t// in\n    tag_533:\n    tag_532:\n      add\n      sload\n        /* \"contracts/Lotto.sol\":4290:4300  numberDraw */\n      dup4\n        /* \"contracts/Lotto.sol\":4290:4343  numberDraw == rounds[rounds.length - 1].winNumbers[j] */\n      sub\n        /* \"contracts/Lotto.sol\":4287:4423  if(numberDraw == rounds[rounds.length - 1].winNumbers[j]) {... */\n      tag_535\n      jumpi\n        /* \"contracts/Lotto.sol\":4370:4374  true */\n      0x01\n        /* \"contracts/Lotto.sol\":4358:4374  duplicate = true */\n      swap2\n      pop\n        /* \"contracts/Lotto.sol\":4387:4393  seed++ */\n      dup7\n      dup1\n      tag_536\n      swap1\n      tag_172\n      jump\t// in\n    tag_536:\n      swap8\n      pop\n      pop\n        /* \"contracts/Lotto.sol\":4406:4411  break */\n      jump(tag_526)\n        /* \"contracts/Lotto.sol\":4287:4423  if(numberDraw == rounds[rounds.length - 1].winNumbers[j]) {... */\n    tag_535:\n        /* \"contracts/Lotto.sol\":4271:4274  j++ */\n      dup1\n      dup1\n      tag_537\n      swap1\n      tag_172\n      jump\t// in\n    tag_537:\n      swap2\n      pop\n      pop\n        /* \"contracts/Lotto.sol\":4245:4432  for(uint256 j = 0; j < i; j++) {... */\n      jump(tag_525)\n    tag_526:\n      pop\n        /* \"contracts/Lotto.sol\":4443:4452  duplicate */\n      dup1\n        /* \"contracts/Lotto.sol\":4440:4462  if(duplicate) continue */\n      iszero\n      tag_538\n      jumpi\n        /* \"contracts/Lotto.sol\":4454:4462  continue */\n      pop\n      pop\n      pop\n      pop\n      pop\n      jump(tag_518)\n        /* \"contracts/Lotto.sol\":4440:4462  if(duplicate) continue */\n    tag_538:\n        /* \"contracts/Lotto.sol\":4515:4525  numberDraw */\n      dup2\n        /* \"contracts/Lotto.sol\":4473:4479  rounds */\n      0x04\n        /* \"contracts/Lotto.sol\":4496:4497  1 */\n      0x01\n        /* \"contracts/Lotto.sol\":4480:4486  rounds */\n      0x04\n        /* \"contracts/Lotto.sol\":4480:4493  rounds.length */\n      dup1\n      sload\n      swap1\n      pop\n        /* \"contracts/Lotto.sol\":4480:4497  rounds.length - 1 */\n      tag_539\n      swap2\n      swap1\n      tag_153\n      jump\t// in\n    tag_539:\n        /* \"contracts/Lotto.sol\":4473:4498  rounds[rounds.length - 1] */\n      dup2\n      sload\n      dup2\n      lt\n      tag_540\n      jumpi\n      tag_541\n      tag_134\n      jump\t// in\n    tag_541:\n    tag_540:\n      swap1\n      0x00\n      mstore\n      keccak256(0x00, 0x20)\n      swap1\n      0x0b\n      mul\n      add\n        /* \"contracts/Lotto.sol\":4473:4509  rounds[rounds.length - 1].winNumbers */\n      0x03\n      add\n        /* \"contracts/Lotto.sol\":4510:4511  i */\n      dup9\n        /* \"contracts/Lotto.sol\":4473:4512  rounds[rounds.length - 1].winNumbers[i] */\n      0x07\n      dup2\n      lt\n      tag_543\n      jumpi\n      tag_544\n      tag_134\n      jump\t// in\n    tag_544:\n    tag_543:\n      add\n        /* \"contracts/Lotto.sol\":4473:4525  rounds[rounds.length - 1].winNumbers[i] = numberDraw */\n      dup2\n      swap1\n      sstore\n      pop\n        /* \"contracts/Lotto.sol\":4534:4537  i++ */\n      dup7\n      dup1\n      tag_546\n      swap1\n      tag_172\n      jump\t// in\n    tag_546:\n      swap8\n      pop\n      pop\n        /* \"contracts/Lotto.sol\":4546:4552  seed++ */\n      dup6\n      dup1\n      tag_547\n      swap1\n      tag_172\n      jump\t// in\n    tag_547:\n      swap7\n      pop\n      pop\n        /* \"contracts/Lotto.sol\":3982:4560  {... */\n      pop\n      pop\n      pop\n      pop\n      pop\n        /* \"contracts/Lotto.sol\":3969:4560  while(i < 7) {... */\n      jump(tag_518)\n    tag_519:\n        /* \"contracts/Lotto.sol\":4566:4580  bytes32 source */\n      0x00\n        /* \"contracts/Lotto.sol\":4594:4603  drawBlock */\n      dup4\n        /* \"contracts/Lotto.sol\":4583:4605  blockhash((drawBlock)) */\n      blockhash\n        /* \"contracts/Lotto.sol\":4566:4605  bytes32 source = blockhash((drawBlock)) */\n      swap1\n      pop\n        /* \"contracts/Lotto.sol\":4612:4638  bytes memory encodedSource */\n      0x00\n        /* \"contracts/Lotto.sol\":4652:4658  source */\n      dup2\n        /* \"contracts/Lotto.sol\":4660:4664  seed */\n      dup4\n        /* \"contracts/Lotto.sol\":4641:4665  abi.encode(source, seed) */\n      add(0x20, mload(0x40))\n      tag_548\n      swap3\n      swap2\n      swap1\n      tag_521\n      jump\t// in\n    tag_548:\n      mload(0x40)\n      0x20\n      dup2\n      dup4\n      sub\n      sub\n      dup2\n      mstore\n      swap1\n      0x40\n      mstore\n        /* \"contracts/Lotto.sol\":4612:4665  bytes memory encodedSource = abi.encode(source, seed) */\n      swap1\n      pop\n        /* \"contracts/Lotto.sol\":4672:4685  bytes32 _rand */\n      0x00\n        /* \"contracts/Lotto.sol\":4698:4711  encodedSource */\n      dup2\n        /* \"contracts/Lotto.sol\":4688:4712  keccak256(encodedSource) */\n      dup1\n      mload\n      swap1\n      0x20\n      add\n      keccak256\n        /* \"contracts/Lotto.sol\":4672:4712  bytes32 _rand = keccak256(encodedSource) */\n      swap1\n      pop\n        /* \"contracts/Lotto.sol\":4719:4738  uint256 bonusNumber */\n      0x00\n        /* \"contracts/Lotto.sol\":4773:4774  1 */\n      0x01\n        /* \"contracts/Lotto.sol\":844:846  45 */\n      0x2d\n        /* \"contracts/Lotto.sol\":4750:4755  _rand */\n      dup4\n        /* \"contracts/Lotto.sol\":4742:4756  uint256(_rand) */\n      0x00\n      shr\n        /* \"contracts/Lotto.sol\":4742:4769  uint256(_rand) % MAX_NUMBER */\n      tag_549\n      swap2\n      swap1\n      tag_523\n      jump\t// in\n    tag_549:\n        /* \"contracts/Lotto.sol\":4741:4774  (uint256(_rand) % MAX_NUMBER) + 1 */\n      tag_550\n      swap2\n      swap1\n      tag_275\n      jump\t// in\n    tag_550:\n        /* \"contracts/Lotto.sol\":4719:4774  uint256 bonusNumber = (uint256(_rand) % MAX_NUMBER) + 1 */\n      swap1\n      pop\n        /* \"contracts/Lotto.sol\":4823:4834  bonusNumber */\n      dup1\n        /* \"contracts/Lotto.sol\":4781:4787  rounds */\n      0x04\n        /* \"contracts/Lotto.sol\":4804:4805  1 */\n      0x01\n        /* \"contracts/Lotto.sol\":4788:4794  rounds */\n      0x04\n        /* \"contracts/Lotto.sol\":4788:4801  rounds.length */\n      dup1\n      sload\n      swap1\n      pop\n        /* \"contracts/Lotto.sol\":4788:4805  rounds.length - 1 */\n      tag_551\n      swap2\n      swap1\n      tag_153\n      jump\t// in\n    tag_551:\n        /* \"contracts/Lotto.sol\":4781:4806  rounds[rounds.length - 1] */\n      dup2\n      sload\n      dup2\n      lt\n      tag_552\n      jumpi\n      tag_553\n      tag_134\n      jump\t// in\n    tag_553:\n    tag_552:\n      swap1\n      0x00\n      mstore\n      keccak256(0x00, 0x20)\n      swap1\n      0x0b\n      mul\n      add\n        /* \"contracts/Lotto.sol\":4781:4817  rounds[rounds.length - 1].winNumbers */\n      0x03\n      add\n        /* \"contracts/Lotto.sol\":4818:4819  6 */\n      0x06\n        /* \"contracts/Lotto.sol\":4781:4820  rounds[rounds.length - 1].winNumbers[6] */\n      0x07\n      dup2\n      lt\n      tag_555\n      jumpi\n      tag_556\n      tag_134\n      jump\t// in\n    tag_556:\n    tag_555:\n      add\n        /* \"contracts/Lotto.sol\":4781:4834  rounds[rounds.length - 1].winNumbers[6] = bonusNumber */\n      dup2\n      swap1\n      sstore\n      pop\n        /* \"contracts/Lotto.sol\":3726:4840  {... */\n      pop\n      pop\n      pop\n      pop\n      pop\n      pop\n      pop\n        /* \"contracts/Lotto.sol\":3694:4840  function drawNumbers() internal {... */\n      jump\t// out\n    tag_197:\n      pop\n      dup1\n      0x06\n      add\n      swap1\n      tag_558\n      swap2\n      swap1\n      tag_559\n      jump\t// in\n    tag_558:\n      pop\n      jump\t// out\n    tag_220:\n      mload(0x40)\n      dup1\n      0xc0\n      add\n      0x40\n      mstore\n      dup1\n      0x06\n      swap1\n      0x20\n      dup3\n      mul\n      dup1\n      calldatasize\n      dup4\n      calldatacopy\n      dup1\n      dup3\n      add\n      swap2\n      pop\n      pop\n      swap1\n      pop\n      pop\n      swap1\n      jump\t// out\n    tag_304:\n      dup3\n      0x06\n      dup2\n      add\n      swap3\n      dup3\n      iszero\n      tag_560\n      jumpi\n      swap2\n      0x20\n      mul\n      dup3\n      add\n    tag_561:\n      dup3\n      dup2\n      gt\n      iszero\n      tag_562\n      jumpi\n      dup3\n      mload\n      dup3\n      sstore\n      swap2\n      0x20\n      add\n      swap2\n      swap1\n      0x01\n      add\n      swap1\n      jump(tag_561)\n    tag_562:\n    tag_560:\n      pop\n      swap1\n      pop\n      tag_563\n      swap2\n      swap1\n      tag_559\n      jump\t// in\n    tag_563:\n      pop\n      swap1\n      jump\t// out\n    tag_343:\n      mload(0x40)\n      dup1\n      0xe0\n      add\n      0x40\n      mstore\n      dup1\n      0x07\n      swap1\n      0x20\n      dup3\n      mul\n      dup1\n      calldatasize\n      dup4\n      calldatacopy\n      dup1\n      dup3\n      add\n      swap2\n      pop\n      pop\n      swap1\n      pop\n      pop\n      swap1\n      jump\t// out\n    tag_498:\n      dup3\n      0x07\n      dup2\n      add\n      swap3\n      dup3\n      iszero\n      tag_564\n      jumpi\n      swap2\n      0x20\n      mul\n      dup3\n      add\n    tag_565:\n      dup3\n      dup2\n      gt\n      iszero\n      tag_566\n      jumpi\n      dup3\n      mload\n      dup3\n      sstore\n      swap2\n      0x20\n      add\n      swap2\n      swap1\n      0x01\n      add\n      swap1\n      jump(tag_565)\n    tag_566:\n    tag_564:\n      pop\n      swap1\n      pop\n      tag_567\n      swap2\n      swap1\n      tag_559\n      jump\t// in\n    tag_567:\n      pop\n      swap1\n      jump\t// out\n    tag_559:\n    tag_568:\n      dup1\n      dup3\n      gt\n      iszero\n      tag_569\n      jumpi\n      0x00\n      dup2\n      0x00\n      swap1\n      sstore\n      pop\n      0x01\n      add\n      jump(tag_568)\n    tag_569:\n      pop\n      swap1\n      jump\t// out\n        /* \"#utility.yul\":7:84   */\n    tag_570:\n        /* \"#utility.yul\":44:51   */\n      0x00\n        /* \"#utility.yul\":73:78   */\n      dup2\n        /* \"#utility.yul\":62:78   */\n      swap1\n      pop\n        /* \"#utility.yul\":7:84   */\n      swap2\n      swap1\n      pop\n      jump\t// out\n        /* \"#utility.yul\":90:208   */\n    tag_571:\n        /* \"#utility.yul\":177:201   */\n      tag_650\n        /* \"#utility.yul\":195:200   */\n      dup2\n        /* \"#utility.yul\":177:201   */\n      tag_570\n      jump\t// in\n    tag_650:\n        /* \"#utility.yul\":172:175   */\n      dup3\n        /* \"#utility.yul\":165:202   */\n      mstore\n        /* \"#utility.yul\":90:208   */\n      pop\n      pop\n      jump\t// out\n        /* \"#utility.yul\":214:436   */\n    tag_32:\n        /* \"#utility.yul\":307:311   */\n      0x00\n        /* \"#utility.yul\":345:347   */\n      0x20\n        /* \"#utility.yul\":334:343   */\n      dup3\n        /* \"#utility.yul\":330:348   */\n      add\n        /* \"#utility.yul\":322:348   */\n      swap1\n      pop\n        /* \"#utility.yul\":358:429   */\n      tag_652\n        /* \"#utility.yul\":426:427   */\n      0x00\n        /* \"#utility.yul\":415:424   */\n      dup4\n        /* \"#utility.yul\":411:428   */\n      add\n        /* \"#utility.yul\":402:408   */\n      dup5\n        /* \"#utility.yul\":358:429   */\n      tag_571\n      jump\t// in\n    tag_652:\n        /* \"#utility.yul\":214:436   */\n      swap3\n      swap2\n      pop\n      pop\n      jump\t// out\n        /* \"#utility.yul\":442:517   */\n    tag_572:\n        /* \"#utility.yul\":475:481   */\n      0x00\n        /* \"#utility.yul\":508:510   */\n      0x40\n        /* \"#utility.yul\":502:511   */\n      mload\n        /* \"#utility.yul\":492:511   */\n      swap1\n      pop\n        /* \"#utility.yul\":442:517   */\n      swap1\n      jump\t// out\n        /* \"#utility.yul\":523:640   */\n    tag_573:\n        /* \"#utility.yul\":632:633   */\n      0x00\n        /* \"#utility.yul\":629:630   */\n      dup1\n        /* \"#utility.yul\":622:634   */\n      revert\n        /* \"#utility.yul\":769:891   */\n    tag_575:\n        /* \"#utility.yul\":842:866   */\n      tag_657\n        /* \"#utility.yul\":860:865   */\n      dup2\n        /* \"#utility.yul\":842:866   */\n      tag_570\n      jump\t// in\n    tag_657:\n        /* \"#utility.yul\":835:840   */\n      dup2\n        /* \"#utility.yul\":832:867   */\n      eq\n        /* \"#utility.yul\":822:885   */\n      tag_658\n      jumpi\n        /* \"#utility.yul\":881:882   */\n      0x00\n        /* \"#utility.yul\":878:879   */\n      dup1\n        /* \"#utility.yul\":871:883   */\n      revert\n        /* \"#utility.yul\":822:885   */\n    tag_658:\n        /* \"#utility.yul\":769:891   */\n      pop\n      jump\t// out\n        /* \"#utility.yul\":897:1036   */\n    tag_576:\n        /* \"#utility.yul\":943:948   */\n      0x00\n        /* \"#utility.yul\":981:987   */\n      dup2\n        /* \"#utility.yul\":968:988   */\n      calldataload\n        /* \"#utility.yul\":959:988   */\n      swap1\n      pop\n        /* \"#utility.yul\":997:1030   */\n      tag_660\n        /* \"#utility.yul\":1024:1029   */\n      dup2\n        /* \"#utility.yul\":997:1030   */\n      tag_575\n      jump\t// in\n    tag_660:\n        /* \"#utility.yul\":897:1036   */\n      swap3\n      swap2\n      pop\n      pop\n      jump\t// out\n        /* \"#utility.yul\":1042:1371   */\n    tag_36:\n        /* \"#utility.yul\":1101:1107   */\n      0x00\n        /* \"#utility.yul\":1150:1152   */\n      0x20\n        /* \"#utility.yul\":1138:1147   */\n      dup3\n        /* \"#utility.yul\":1129:1136   */\n      dup5\n        /* \"#utility.yul\":1125:1148   */\n      sub\n        /* \"#utility.yul\":1121:1153   */\n      slt\n        /* \"#utility.yul\":1118:1237   */\n      iszero\n      tag_662\n      jumpi\n        /* \"#utility.yul\":1156:1235   */\n      tag_663\n      tag_573\n      jump\t// in\n    tag_663:\n        /* \"#utility.yul\":1118:1237   */\n    tag_662:\n        /* \"#utility.yul\":1276:1277   */\n      0x00\n        /* \"#utility.yul\":1301:1354   */\n      tag_664\n        /* \"#utility.yul\":1346:1353   */\n      dup5\n        /* \"#utility.yul\":1337:1343   */\n      dup3\n        /* \"#utility.yul\":1326:1335   */\n      dup6\n        /* \"#utility.yul\":1322:1344   */\n      add\n        /* \"#utility.yul\":1301:1354   */\n      tag_576\n      jump\t// in\n    tag_664:\n        /* \"#utility.yul\":1291:1354   */\n      swap2\n      pop\n        /* \"#utility.yul\":1247:1364   */\n      pop\n        /* \"#utility.yul\":1042:1371   */\n      swap3\n      swap2\n      pop\n      pop\n      jump\t// out\n        /* \"#utility.yul\":1377:1514   */\n    tag_577:\n        /* \"#utility.yul\":1467:1473   */\n      0x00\n        /* \"#utility.yul\":1501:1506   */\n      dup2\n        /* \"#utility.yul\":1495:1507   */\n      mload\n        /* \"#utility.yul\":1485:1507   */\n      swap1\n      pop\n        /* \"#utility.yul\":1377:1514   */\n      swap2\n      swap1\n      pop\n      jump\t// out\n        /* \"#utility.yul\":1520:1727   */\n    tag_578:\n        /* \"#utility.yul\":1642:1653   */\n      0x00\n        /* \"#utility.yul\":1676:1682   */\n      dup3\n        /* \"#utility.yul\":1671:1674   */\n      dup3\n        /* \"#utility.yul\":1664:1683   */\n      mstore\n        /* \"#utility.yul\":1716:1720   */\n      0x20\n        /* \"#utility.yul\":1711:1714   */\n      dup3\n        /* \"#utility.yul\":1707:1721   */\n      add\n        /* \"#utility.yul\":1692:1721   */\n      swap1\n      pop\n        /* \"#utility.yul\":1520:1727   */\n      swap3\n      swap2\n      pop\n      pop\n      jump\t// out\n        /* \"#utility.yul\":1733:1888   */\n    tag_579:\n        /* \"#utility.yul\":1823:1827   */\n      0x00\n        /* \"#utility.yul\":1846:1849   */\n      dup2\n        /* \"#utility.yul\":1838:1849   */\n      swap1\n      pop\n        /* \"#utility.yul\":1876:1880   */\n      0x20\n        /* \"#utility.yul\":1871:1874   */\n      dup3\n        /* \"#utility.yul\":1867:1881   */\n      add\n        /* \"#utility.yul\":1859:1881   */\n      swap1\n      pop\n        /* \"#utility.yul\":1733:1888   */\n      swap2\n      swap1\n      pop\n      jump\t// out\n        /* \"#utility.yul\":1894:1998   */\n    tag_580:\n        /* \"#utility.yul\":1959:1965   */\n      0x00\n        /* \"#utility.yul\":1987:1991   */\n      0x06\n        /* \"#utility.yul\":1977:1991   */\n      swap1\n      pop\n        /* \"#utility.yul\":1894:1998   */\n      swap2\n      swap1\n      pop\n      jump\t// out\n        /* \"#utility.yul\":2004:2137   */\n    tag_581:\n        /* \"#utility.yul\":2091:2102   */\n      0x00\n        /* \"#utility.yul\":2128:2131   */\n      dup2\n        /* \"#utility.yul\":2113:2131   */\n      swap1\n      pop\n        /* \"#utility.yul\":2004:2137   */\n      swap3\n      swap2\n      pop\n      pop\n      jump\t// out\n        /* \"#utility.yul\":2143:2241   */\n    tag_582:\n        /* \"#utility.yul\":2208:2212   */\n      0x00\n        /* \"#utility.yul\":2231:2234   */\n      dup2\n        /* \"#utility.yul\":2223:2234   */\n      swap1\n      pop\n        /* \"#utility.yul\":2143:2241   */\n      swap2\n      swap1\n      pop\n      jump\t// out\n        /* \"#utility.yul\":2247:2355   */\n    tag_583:\n        /* \"#utility.yul\":2324:2348   */\n      tag_672\n        /* \"#utility.yul\":2342:2347   */\n      dup2\n        /* \"#utility.yul\":2324:2348   */\n      tag_570\n      jump\t// in\n    tag_672:\n        /* \"#utility.yul\":2319:2322   */\n      dup3\n        /* \"#utility.yul\":2312:2349   */\n      mstore\n        /* \"#utility.yul\":2247:2355   */\n      pop\n      pop\n      jump\t// out\n        /* \"#utility.yul\":2361:2540   */\n    tag_584:\n        /* \"#utility.yul\":2430:2440   */\n      0x00\n        /* \"#utility.yul\":2451:2497   */\n      tag_674\n        /* \"#utility.yul\":2493:2496   */\n      dup4\n        /* \"#utility.yul\":2485:2491   */\n      dup4\n        /* \"#utility.yul\":2451:2497   */\n      tag_583\n      jump\t// in\n    tag_674:\n        /* \"#utility.yul\":2529:2533   */\n      0x20\n        /* \"#utility.yul\":2524:2527   */\n      dup4\n        /* \"#utility.yul\":2520:2534   */\n      add\n        /* \"#utility.yul\":2506:2534   */\n      swap1\n      pop\n        /* \"#utility.yul\":2361:2540   */\n      swap3\n      swap2\n      pop\n      pop\n      jump\t// out\n        /* \"#utility.yul\":2546:2657   */\n    tag_585:\n        /* \"#utility.yul\":2614:2618   */\n      0x00\n        /* \"#utility.yul\":2646:2650   */\n      0x20\n        /* \"#utility.yul\":2641:2644   */\n      dup3\n        /* \"#utility.yul\":2637:2651   */\n      add\n        /* \"#utility.yul\":2629:2651   */\n      swap1\n      pop\n        /* \"#utility.yul\":2546:2657   */\n      swap2\n      swap1\n      pop\n      jump\t// out\n        /* \"#utility.yul\":2695:3369   */\n    tag_586:\n        /* \"#utility.yul\":2821:2873   */\n      tag_677\n        /* \"#utility.yul\":2867:2872   */\n      dup2\n        /* \"#utility.yul\":2821:2873   */\n      tag_580\n      jump\t// in\n    tag_677:\n        /* \"#utility.yul\":2889:2963   */\n      tag_678\n        /* \"#utility.yul\":2956:2962   */\n      dup2\n        /* \"#utility.yul\":2951:2954   */\n      dup5\n        /* \"#utility.yul\":2889:2963   */\n      tag_581\n      jump\t// in\n    tag_678:\n        /* \"#utility.yul\":2882:2963   */\n      swap3\n      pop\n        /* \"#utility.yul\":2987:3041   */\n      tag_679\n        /* \"#utility.yul\":3035:3040   */\n      dup3\n        /* \"#utility.yul\":2987:3041   */\n      tag_582\n      jump\t// in\n    tag_679:\n        /* \"#utility.yul\":3064:3071   */\n      dup1\n        /* \"#utility.yul\":3095:3096   */\n      0x00\n        /* \"#utility.yul\":3080:3362   */\n    tag_680:\n        /* \"#utility.yul\":3105:3111   */\n      dup4\n        /* \"#utility.yul\":3102:3103   */\n      dup2\n        /* \"#utility.yul\":3099:3112   */\n      lt\n        /* \"#utility.yul\":3080:3362   */\n      iszero\n      tag_682\n      jumpi\n        /* \"#utility.yul\":3181:3187   */\n      dup2\n        /* \"#utility.yul\":3175:3188   */\n      mload\n        /* \"#utility.yul\":3208:3271   */\n      tag_683\n        /* \"#utility.yul\":3267:3270   */\n      dup8\n        /* \"#utility.yul\":3252:3265   */\n      dup3\n        /* \"#utility.yul\":3208:3271   */\n      tag_584\n      jump\t// in\n    tag_683:\n        /* \"#utility.yul\":3201:3271   */\n      swap7\n      pop\n        /* \"#utility.yul\":3294:3352   */\n      tag_684\n        /* \"#utility.yul\":3345:3351   */\n      dup4\n        /* \"#utility.yul\":3294:3352   */\n      tag_585\n      jump\t// in\n    tag_684:\n        /* \"#utility.yul\":3284:3352   */\n      swap3\n      pop\n        /* \"#utility.yul\":3140:3362   */\n      pop\n        /* \"#utility.yul\":3127:3128   */\n      0x01\n        /* \"#utility.yul\":3124:3125   */\n      dup2\n        /* \"#utility.yul\":3120:3129   */\n      add\n        /* \"#utility.yul\":3115:3129   */\n      swap1\n      pop\n        /* \"#utility.yul\":3080:3362   */\n      jump(tag_680)\n    tag_682:\n        /* \"#utility.yul\":3084:3098   */\n      pop\n        /* \"#utility.yul\":2797:3369   */\n      pop\n      pop\n      pop\n        /* \"#utility.yul\":2695:3369   */\n      pop\n      pop\n      jump\t// out\n        /* \"#utility.yul\":3375:3646   */\n    tag_587:\n        /* \"#utility.yul\":3490:3500   */\n      0x00\n        /* \"#utility.yul\":3511:3603   */\n      tag_686\n        /* \"#utility.yul\":3599:3602   */\n      dup4\n        /* \"#utility.yul\":3591:3597   */\n      dup4\n        /* \"#utility.yul\":3511:3603   */\n      tag_586\n      jump\t// in\n    tag_686:\n        /* \"#utility.yul\":3635:3639   */\n      0xc0\n        /* \"#utility.yul\":3630:3633   */\n      dup4\n        /* \"#utility.yul\":3626:3640   */\n      add\n        /* \"#utility.yul\":3612:3640   */\n      swap1\n      pop\n        /* \"#utility.yul\":3375:3646   */\n      swap3\n      swap2\n      pop\n      pop\n      jump\t// out\n        /* \"#utility.yul\":3652:3788   */\n    tag_588:\n        /* \"#utility.yul\":3745:3749   */\n      0x00\n        /* \"#utility.yul\":3777:3781   */\n      0x20\n        /* \"#utility.yul\":3772:3775   */\n      dup3\n        /* \"#utility.yul\":3768:3782   */\n      add\n        /* \"#utility.yul\":3760:3782   */\n      swap1\n      pop\n        /* \"#utility.yul\":3652:3788   */\n      swap2\n      swap1\n      pop\n      jump\t// out\n        /* \"#utility.yul\":3830:4746   */\n    tag_589:\n        /* \"#utility.yul\":3995:3998   */\n      0x00\n        /* \"#utility.yul\":4024:4101   */\n      tag_689\n        /* \"#utility.yul\":4095:4100   */\n      dup3\n        /* \"#utility.yul\":4024:4101   */\n      tag_577\n      jump\t// in\n    tag_689:\n        /* \"#utility.yul\":4117:4226   */\n      tag_690\n        /* \"#utility.yul\":4219:4225   */\n      dup2\n        /* \"#utility.yul\":4214:4217   */\n      dup6\n        /* \"#utility.yul\":4117:4226   */\n      tag_578\n      jump\t// in\n    tag_690:\n        /* \"#utility.yul\":4110:4226   */\n      swap4\n      pop\n        /* \"#utility.yul\":4250:4329   */\n      tag_691\n        /* \"#utility.yul\":4323:4328   */\n      dup4\n        /* \"#utility.yul\":4250:4329   */\n      tag_579\n      jump\t// in\n    tag_691:\n        /* \"#utility.yul\":4352:4359   */\n      dup1\n        /* \"#utility.yul\":4383:4384   */\n      0x00\n        /* \"#utility.yul\":4368:4721   */\n    tag_692:\n        /* \"#utility.yul\":4393:4399   */\n      dup4\n        /* \"#utility.yul\":4390:4391   */\n      dup2\n        /* \"#utility.yul\":4387:4400   */\n      lt\n        /* \"#utility.yul\":4368:4721   */\n      iszero\n      tag_694\n      jumpi\n        /* \"#utility.yul\":4469:4475   */\n      dup2\n        /* \"#utility.yul\":4463:4476   */\n      mload\n        /* \"#utility.yul\":4496:4605   */\n      tag_695\n        /* \"#utility.yul\":4601:4604   */\n      dup9\n        /* \"#utility.yul\":4586:4599   */\n      dup3\n        /* \"#utility.yul\":4496:4605   */\n      tag_587\n      jump\t// in\n    tag_695:\n        /* \"#utility.yul\":4489:4605   */\n      swap8\n      pop\n        /* \"#utility.yul\":4628:4711   */\n      tag_696\n        /* \"#utility.yul\":4704:4710   */\n      dup4\n        /* \"#utility.yul\":4628:4711   */\n      tag_588\n      jump\t// in\n    tag_696:\n        /* \"#utility.yul\":4618:4711   */\n      swap3\n      pop\n        /* \"#utility.yul\":4428:4721   */\n      pop\n        /* \"#utility.yul\":4415:4416   */\n      0x01\n        /* \"#utility.yul\":4412:4413   */\n      dup2\n        /* \"#utility.yul\":4408:4417   */\n      add\n        /* \"#utility.yul\":4403:4417   */\n      swap1\n      pop\n        /* \"#utility.yul\":4368:4721   */\n      jump(tag_692)\n    tag_694:\n        /* \"#utility.yul\":4372:4386   */\n      pop\n        /* \"#utility.yul\":4737:4740   */\n      dup6\n        /* \"#utility.yul\":4730:4740   */\n      swap4\n      pop\n        /* \"#utility.yul\":4000:4746   */\n      pop\n      pop\n      pop\n        /* \"#utility.yul\":3830:4746   */\n      swap3\n      swap2\n      pop\n      pop\n      jump\t// out\n        /* \"#utility.yul\":4752:5217   */\n    tag_43:\n        /* \"#utility.yul\":4941:4945   */\n      0x00\n        /* \"#utility.yul\":4979:4981   */\n      0x20\n        /* \"#utility.yul\":4968:4977   */\n      dup3\n        /* \"#utility.yul\":4964:4982   */\n      add\n        /* \"#utility.yul\":4956:4982   */\n      swap1\n      pop\n        /* \"#utility.yul\":5028:5037   */\n      dup2\n        /* \"#utility.yul\":5022:5026   */\n      dup2\n        /* \"#utility.yul\":5018:5038   */\n      sub\n        /* \"#utility.yul\":5014:5015   */\n      0x00\n        /* \"#utility.yul\":5003:5012   */\n      dup4\n        /* \"#utility.yul\":4999:5016   */\n      add\n        /* \"#utility.yul\":4992:5039   */\n      mstore\n        /* \"#utility.yul\":5056:5210   */\n      tag_698\n        /* \"#utility.yul\":5205:5209   */\n      dup2\n        /* \"#utility.yul\":5196:5202   */\n      dup5\n        /* \"#utility.yul\":5056:5210   */\n      tag_589\n      jump\t// in\n    tag_698:\n        /* \"#utility.yul\":5048:5210   */\n      swap1\n      pop\n        /* \"#utility.yul\":4752:5217   */\n      swap3\n      swap2\n      pop\n      pop\n      jump\t// out\n        /* \"#utility.yul\":5223:5340   */\n    tag_590:\n        /* \"#utility.yul\":5332:5333   */\n      0x00\n        /* \"#utility.yul\":5329:5330   */\n      dup1\n        /* \"#utility.yul\":5322:5334   */\n      revert\n        /* \"#utility.yul\":5346:5448   */\n    tag_591:\n        /* \"#utility.yul\":5387:5393   */\n      0x00\n        /* \"#utility.yul\":5438:5440   */\n      0x1f\n        /* \"#utility.yul\":5434:5441   */\n      not\n        /* \"#utility.yul\":5429:5431   */\n      0x1f\n        /* \"#utility.yul\":5422:5427   */\n      dup4\n        /* \"#utility.yul\":5418:5432   */\n      add\n        /* \"#utility.yul\":5414:5442   */\n      and\n        /* \"#utility.yul\":5404:5442   */\n      swap1\n      pop\n        /* \"#utility.yul\":5346:5448   */\n      swap2\n      swap1\n      pop\n      jump\t// out\n        /* \"#utility.yul\":5454:5634   */\n    tag_216:\n        /* \"#utility.yul\":5502:5579   */\n      0x4e487b7100000000000000000000000000000000000000000000000000000000\n        /* \"#utility.yul\":5499:5500   */\n      0x00\n        /* \"#utility.yul\":5492:5580   */\n      mstore\n        /* \"#utility.yul\":5599:5603   */\n      0x41\n        /* \"#utility.yul\":5596:5597   */\n      0x04\n        /* \"#utility.yul\":5589:5604   */\n      mstore\n        /* \"#utility.yul\":5623:5627   */\n      0x24\n        /* \"#utility.yul\":5620:5621   */\n      0x00\n        /* \"#utility.yul\":5613:5628   */\n      revert\n        /* \"#utility.yul\":5640:5921   */\n    tag_592:\n        /* \"#utility.yul\":5723:5750   */\n      tag_703\n        /* \"#utility.yul\":5745:5749   */\n      dup3\n        /* \"#utility.yul\":5723:5750   */\n      tag_591\n      jump\t// in\n    tag_703:\n        /* \"#utility.yul\":5715:5721   */\n      dup2\n        /* \"#utility.yul\":5711:5751   */\n      add\n        /* \"#utility.yul\":5853:5859   */\n      dup2\n        /* \"#utility.yul\":5841:5851   */\n      dup2\n        /* \"#utility.yul\":5838:5860   */\n      lt\n        /* \"#utility.yul\":5817:5835   */\n      0xffffffffffffffff\n        /* \"#utility.yul\":5805:5815   */\n      dup3\n        /* \"#utility.yul\":5802:5836   */\n      gt\n        /* \"#utility.yul\":5799:5861   */\n      or\n        /* \"#utility.yul\":5796:5884   */\n      iszero\n      tag_704\n      jumpi\n        /* \"#utility.yul\":5864:5882   */\n      tag_705\n      tag_216\n      jump\t// in\n    tag_705:\n        /* \"#utility.yul\":5796:5884   */\n    tag_704:\n        /* \"#utility.yul\":5904:5914   */\n      dup1\n        /* \"#utility.yul\":5900:5902   */\n      0x40\n        /* \"#utility.yul\":5893:5915   */\n      mstore\n        /* \"#utility.yul\":5683:5921   */\n      pop\n        /* \"#utility.yul\":5640:5921   */\n      pop\n      pop\n      jump\t// out\n        /* \"#utility.yul\":5927:6056   */\n    tag_593:\n        /* \"#utility.yul\":5961:5967   */\n      0x00\n        /* \"#utility.yul\":5988:6008   */\n      tag_707\n      tag_572\n      jump\t// in\n    tag_707:\n        /* \"#utility.yul\":5978:6008   */\n      swap1\n      pop\n        /* \"#utility.yul\":6017:6050   */\n      tag_708\n        /* \"#utility.yul\":6045:6049   */\n      dup3\n        /* \"#utility.yul\":6037:6043   */\n      dup3\n        /* \"#utility.yul\":6017:6050   */\n      tag_592\n      jump\t// in\n    tag_708:\n        /* \"#utility.yul\":5927:6056   */\n      swap2\n      swap1\n      pop\n      jump\t// out\n        /* \"#utility.yul\":6062:6311   */\n    tag_594:\n        /* \"#utility.yul\":6137:6141   */\n      0x00\n        /* \"#utility.yul\":6227:6245   */\n      0xffffffffffffffff\n        /* \"#utility.yul\":6219:6225   */\n      dup3\n        /* \"#utility.yul\":6216:6246   */\n      gt\n        /* \"#utility.yul\":6213:6269   */\n      iszero\n      tag_710\n      jumpi\n        /* \"#utility.yul\":6249:6267   */\n      tag_711\n      tag_216\n      jump\t// in\n    tag_711:\n        /* \"#utility.yul\":6213:6269   */\n    tag_710:\n        /* \"#utility.yul\":6299:6303   */\n      0x20\n        /* \"#utility.yul\":6291:6297   */\n      dup3\n        /* \"#utility.yul\":6287:6304   */\n      mul\n        /* \"#utility.yul\":6279:6304   */\n      swap1\n      pop\n        /* \"#utility.yul\":6062:6311   */\n      swap2\n      swap1\n      pop\n      jump\t// out\n        /* \"#utility.yul\":6317:6434   */\n    tag_595:\n        /* \"#utility.yul\":6426:6427   */\n      0x00\n        /* \"#utility.yul\":6423:6424   */\n      dup1\n        /* \"#utility.yul\":6416:6428   */\n      revert\n        /* \"#utility.yul\":6458:7101   */\n    tag_596:\n        /* \"#utility.yul\":6552:6557   */\n      0x00\n        /* \"#utility.yul\":6577:6656   */\n      tag_714\n        /* \"#utility.yul\":6593:6655   */\n      tag_715\n        /* \"#utility.yul\":6648:6654   */\n      dup5\n        /* \"#utility.yul\":6593:6655   */\n      tag_594\n      jump\t// in\n    tag_715:\n        /* \"#utility.yul\":6577:6656   */\n      tag_593\n      jump\t// in\n    tag_714:\n        /* \"#utility.yul\":6568:6656   */\n      swap1\n      pop\n        /* \"#utility.yul\":6676:6681   */\n      dup1\n        /* \"#utility.yul\":6729:6733   */\n      0x20\n        /* \"#utility.yul\":6721:6727   */\n      dup5\n        /* \"#utility.yul\":6717:6734   */\n      mul\n        /* \"#utility.yul\":6709:6715   */\n      dup4\n        /* \"#utility.yul\":6705:6735   */\n      add\n        /* \"#utility.yul\":6758:6761   */\n      dup6\n        /* \"#utility.yul\":6750:6756   */\n      dup2\n        /* \"#utility.yul\":6747:6762   */\n      gt\n        /* \"#utility.yul\":6744:6866   */\n      iszero\n      tag_716\n      jumpi\n        /* \"#utility.yul\":6777:6856   */\n      tag_717\n      tag_595\n      jump\t// in\n    tag_717:\n        /* \"#utility.yul\":6744:6866   */\n    tag_716:\n        /* \"#utility.yul\":6892:6898   */\n      dup4\n        /* \"#utility.yul\":6875:7095   */\n    tag_718:\n        /* \"#utility.yul\":6909:6915   */\n      dup2\n        /* \"#utility.yul\":6904:6907   */\n      dup2\n        /* \"#utility.yul\":6901:6916   */\n      lt\n        /* \"#utility.yul\":6875:7095   */\n      iszero\n      tag_720\n      jumpi\n        /* \"#utility.yul\":6984:6987   */\n      dup1\n        /* \"#utility.yul\":7013:7050   */\n      tag_721\n        /* \"#utility.yul\":7046:7049   */\n      dup9\n        /* \"#utility.yul\":7034:7044   */\n      dup3\n        /* \"#utility.yul\":7013:7050   */\n      tag_576\n      jump\t// in\n    tag_721:\n        /* \"#utility.yul\":7008:7011   */\n      dup5\n        /* \"#utility.yul\":7001:7051   */\n      mstore\n        /* \"#utility.yul\":7080:7084   */\n      0x20\n        /* \"#utility.yul\":7075:7078   */\n      dup5\n        /* \"#utility.yul\":7071:7085   */\n      add\n        /* \"#utility.yul\":7064:7085   */\n      swap4\n      pop\n        /* \"#utility.yul\":6951:7095   */\n      pop\n        /* \"#utility.yul\":6935:6939   */\n      0x20\n        /* \"#utility.yul\":6930:6933   */\n      dup2\n        /* \"#utility.yul\":6926:6940   */\n      add\n        /* \"#utility.yul\":6919:6940   */\n      swap1\n      pop\n        /* \"#utility.yul\":6875:7095   */\n      jump(tag_718)\n    tag_720:\n        /* \"#utility.yul\":6879:6900   */\n      pop\n        /* \"#utility.yul\":6558:7101   */\n      pop\n      pop\n        /* \"#utility.yul\":6458:7101   */\n      swap4\n      swap3\n      pop\n      pop\n      pop\n      jump\t// out\n        /* \"#utility.yul\":7125:7464   */\n    tag_597:\n        /* \"#utility.yul\":7194:7199   */\n      0x00\n        /* \"#utility.yul\":7243:7246   */\n      dup3\n        /* \"#utility.yul\":7236:7240   */\n      0x1f\n        /* \"#utility.yul\":7228:7234   */\n      dup4\n        /* \"#utility.yul\":7224:7241   */\n      add\n        /* \"#utility.yul\":7220:7247   */\n      slt\n        /* \"#utility.yul\":7210:7332   */\n      tag_723\n      jumpi\n        /* \"#utility.yul\":7251:7330   */\n      tag_724\n      tag_590\n      jump\t// in\n    tag_724:\n        /* \"#utility.yul\":7210:7332   */\n    tag_723:\n        /* \"#utility.yul\":7355:7359   */\n      0x06\n        /* \"#utility.yul\":7377:7458   */\n      tag_725\n        /* \"#utility.yul\":7454:7457   */\n      dup5\n        /* \"#utility.yul\":7446:7452   */\n      dup3\n        /* \"#utility.yul\":7438:7444   */\n      dup6\n        /* \"#utility.yul\":7377:7458   */\n      tag_596\n      jump\t// in\n    tag_725:\n        /* \"#utility.yul\":7368:7458   */\n      swap2\n      pop\n        /* \"#utility.yul\":7200:7464   */\n      pop\n        /* \"#utility.yul\":7125:7464   */\n      swap3\n      swap2\n      pop\n      pop\n      jump\t// out\n        /* \"#utility.yul\":7470:7846   */\n    tag_47:\n        /* \"#utility.yul\":7552:7558   */\n      0x00\n        /* \"#utility.yul\":7601:7604   */\n      0xc0\n        /* \"#utility.yul\":7589:7598   */\n      dup3\n        /* \"#utility.yul\":7580:7587   */\n      dup5\n        /* \"#utility.yul\":7576:7599   */\n      sub\n        /* \"#utility.yul\":7572:7605   */\n      slt\n        /* \"#utility.yul\":7569:7689   */\n      iszero\n      tag_727\n      jumpi\n        /* \"#utility.yul\":7608:7687   */\n      tag_728\n      tag_573\n      jump\t// in\n    tag_728:\n        /* \"#utility.yul\":7569:7689   */\n    tag_727:\n        /* \"#utility.yul\":7728:7729   */\n      0x00\n        /* \"#utility.yul\":7753:7829   */\n      tag_729\n        /* \"#utility.yul\":7821:7828   */\n      dup5\n        /* \"#utility.yul\":7812:7818   */\n      dup3\n        /* \"#utility.yul\":7801:7810   */\n      dup6\n        /* \"#utility.yul\":7797:7819   */\n      add\n        /* \"#utility.yul\":7753:7829   */\n      tag_597\n      jump\t// in\n    tag_729:\n        /* \"#utility.yul\":7743:7829   */\n      swap2\n      pop\n        /* \"#utility.yul\":7699:7839   */\n      pop\n        /* \"#utility.yul\":7470:7846   */\n      swap3\n      swap2\n      pop\n      pop\n      jump\t// out\n        /* \"#utility.yul\":7852:7978   */\n    tag_598:\n        /* \"#utility.yul\":7889:7896   */\n      0x00\n        /* \"#utility.yul\":7929:7971   */\n      0xffffffffffffffffffffffffffffffffffffffff\n        /* \"#utility.yul\":7922:7927   */\n      dup3\n        /* \"#utility.yul\":7918:7972   */\n      and\n        /* \"#utility.yul\":7907:7972   */\n      swap1\n      pop\n        /* \"#utility.yul\":7852:7978   */\n      swap2\n      swap1\n      pop\n      jump\t// out\n        /* \"#utility.yul\":7984:8080   */\n    tag_599:\n        /* \"#utility.yul\":8021:8028   */\n      0x00\n        /* \"#utility.yul\":8050:8074   */\n      tag_732\n        /* \"#utility.yul\":8068:8073   */\n      dup3\n        /* \"#utility.yul\":8050:8074   */\n      tag_598\n      jump\t// in\n    tag_732:\n        /* \"#utility.yul\":8039:8074   */\n      swap1\n      pop\n        /* \"#utility.yul\":7984:8080   */\n      swap2\n      swap1\n      pop\n      jump\t// out\n        /* \"#utility.yul\":8086:8204   */\n    tag_600:\n        /* \"#utility.yul\":8173:8197   */\n      tag_734\n        /* \"#utility.yul\":8191:8196   */\n      dup2\n        /* \"#utility.yul\":8173:8197   */\n      tag_599\n      jump\t// in\n    tag_734:\n        /* \"#utility.yul\":8168:8171   */\n      dup3\n        /* \"#utility.yul\":8161:8198   */\n      mstore\n        /* \"#utility.yul\":8086:8204   */\n      pop\n      pop\n      jump\t// out\n        /* \"#utility.yul\":8210:8542   */\n    tag_61:\n        /* \"#utility.yul\":8331:8335   */\n      0x00\n        /* \"#utility.yul\":8369:8371   */\n      0x40\n        /* \"#utility.yul\":8358:8367   */\n      dup3\n        /* \"#utility.yul\":8354:8372   */\n      add\n        /* \"#utility.yul\":8346:8372   */\n      swap1\n      pop\n        /* \"#utility.yul\":8382:8453   */\n      tag_736\n        /* \"#utility.yul\":8450:8451   */\n      0x00\n        /* \"#utility.yul\":8439:8448   */\n      dup4\n        /* \"#utility.yul\":8435:8452   */\n      add\n        /* \"#utility.yul\":8426:8432   */\n      dup6\n        /* \"#utility.yul\":8382:8453   */\n      tag_600\n      jump\t// in\n    tag_736:\n        /* \"#utility.yul\":8463:8535   */\n      tag_737\n        /* \"#utility.yul\":8531:8533   */\n      0x20\n        /* \"#utility.yul\":8520:8529   */\n      dup4\n        /* \"#utility.yul\":8516:8534   */\n      add\n        /* \"#utility.yul\":8507:8513   */\n      dup5\n        /* \"#utility.yul\":8463:8535   */\n      tag_571\n      jump\t// in\n    tag_737:\n        /* \"#utility.yul\":8210:8542   */\n      swap4\n      swap3\n      pop\n      pop\n      pop\n      jump\t// out\n        /* \"#utility.yul\":8548:8728   */\n    tag_139:\n        /* \"#utility.yul\":8596:8673   */\n      0x4e487b7100000000000000000000000000000000000000000000000000000000\n        /* \"#utility.yul\":8593:8594   */\n      0x00\n        /* \"#utility.yul\":8586:8674   */\n      mstore\n        /* \"#utility.yul\":8693:8697   */\n      0x21\n        /* \"#utility.yul\":8690:8691   */\n      0x04\n        /* \"#utility.yul\":8683:8698   */\n      mstore\n        /* \"#utility.yul\":8717:8721   */\n      0x24\n        /* \"#utility.yul\":8714:8715   */\n      0x00\n        /* \"#utility.yul\":8707:8722   */\n      revert\n        /* \"#utility.yul\":8734:8854   */\n    tag_601:\n        /* \"#utility.yul\":8822:8823   */\n      0x02\n        /* \"#utility.yul\":8815:8820   */\n      dup2\n        /* \"#utility.yul\":8812:8824   */\n      lt\n        /* \"#utility.yul\":8802:8848   */\n      tag_740\n      jumpi\n        /* \"#utility.yul\":8828:8846   */\n      tag_741\n      tag_139\n      jump\t// in\n    tag_741:\n        /* \"#utility.yul\":8802:8848   */\n    tag_740:\n        /* \"#utility.yul\":8734:8854   */\n      pop\n      jump\t// out\n        /* \"#utility.yul\":8860:9001   */\n    tag_602:\n        /* \"#utility.yul\":8912:8919   */\n      0x00\n        /* \"#utility.yul\":8941:8946   */\n      dup2\n        /* \"#utility.yul\":8930:8946   */\n      swap1\n      pop\n        /* \"#utility.yul\":8947:8995   */\n      tag_743\n        /* \"#utility.yul\":8989:8994   */\n      dup3\n        /* \"#utility.yul\":8947:8995   */\n      tag_601\n      jump\t// in\n    tag_743:\n        /* \"#utility.yul\":8860:9001   */\n      swap2\n      swap1\n      pop\n      jump\t// out\n        /* \"#utility.yul\":9007:9148   */\n    tag_603:\n        /* \"#utility.yul\":9070:9079   */\n      0x00\n        /* \"#utility.yul\":9103:9142   */\n      tag_745\n        /* \"#utility.yul\":9136:9141   */\n      dup3\n        /* \"#utility.yul\":9103:9142   */\n      tag_602\n      jump\t// in\n    tag_745:\n        /* \"#utility.yul\":9090:9142   */\n      swap1\n      pop\n        /* \"#utility.yul\":9007:9148   */\n      swap2\n      swap1\n      pop\n      jump\t// out\n        /* \"#utility.yul\":9154:9311   */\n    tag_604:\n        /* \"#utility.yul\":9254:9304   */\n      tag_747\n        /* \"#utility.yul\":9298:9303   */\n      dup2\n        /* \"#utility.yul\":9254:9304   */\n      tag_603\n      jump\t// in\n    tag_747:\n        /* \"#utility.yul\":9249:9252   */\n      dup3\n        /* \"#utility.yul\":9242:9305   */\n      mstore\n        /* \"#utility.yul\":9154:9311   */\n      pop\n      pop\n      jump\t// out\n        /* \"#utility.yul\":9317:9896   */\n    tag_82:\n        /* \"#utility.yul\":9507:9511   */\n      0x00\n        /* \"#utility.yul\":9545:9548   */\n      0x80\n        /* \"#utility.yul\":9534:9543   */\n      dup3\n        /* \"#utility.yul\":9530:9549   */\n      add\n        /* \"#utility.yul\":9522:9549   */\n      swap1\n      pop\n        /* \"#utility.yul\":9559:9630   */\n      tag_749\n        /* \"#utility.yul\":9627:9628   */\n      0x00\n        /* \"#utility.yul\":9616:9625   */\n      dup4\n        /* \"#utility.yul\":9612:9629   */\n      add\n        /* \"#utility.yul\":9603:9609   */\n      dup8\n        /* \"#utility.yul\":9559:9630   */\n      tag_571\n      jump\t// in\n    tag_749:\n        /* \"#utility.yul\":9640:9712   */\n      tag_750\n        /* \"#utility.yul\":9708:9710   */\n      0x20\n        /* \"#utility.yul\":9697:9706   */\n      dup4\n        /* \"#utility.yul\":9693:9711   */\n      add\n        /* \"#utility.yul\":9684:9690   */\n      dup7\n        /* \"#utility.yul\":9640:9712   */\n      tag_571\n      jump\t// in\n    tag_750:\n        /* \"#utility.yul\":9722:9807   */\n      tag_751\n        /* \"#utility.yul\":9803:9805   */\n      0x40\n        /* \"#utility.yul\":9792:9801   */\n      dup4\n        /* \"#utility.yul\":9788:9806   */\n      add\n        /* \"#utility.yul\":9779:9785   */\n      dup6\n        /* \"#utility.yul\":9722:9807   */\n      tag_604\n      jump\t// in\n    tag_751:\n        /* \"#utility.yul\":9817:9889   */\n      tag_752\n        /* \"#utility.yul\":9885:9887   */\n      0x60\n        /* \"#utility.yul\":9874:9883   */\n      dup4\n        /* \"#utility.yul\":9870:9888   */\n      add\n        /* \"#utility.yul\":9861:9867   */\n      dup5\n        /* \"#utility.yul\":9817:9889   */\n      tag_571\n      jump\t// in\n    tag_752:\n        /* \"#utility.yul\":9317:9896   */\n      swap6\n      swap5\n      pop\n      pop\n      pop\n      pop\n      pop\n      jump\t// out\n        /* \"#utility.yul\":9902:10006   */\n    tag_605:\n        /* \"#utility.yul\":9967:9973   */\n      0x00\n        /* \"#utility.yul\":9995:9999   */\n      0x07\n        /* \"#utility.yul\":9985:9999   */\n      swap1\n      pop\n        /* \"#utility.yul\":9902:10006   */\n      swap2\n      swap1\n      pop\n      jump\t// out\n        /* \"#utility.yul\":10012:10155   */\n    tag_606:\n        /* \"#utility.yul\":10109:10120   */\n      0x00\n        /* \"#utility.yul\":10146:10149   */\n      dup2\n        /* \"#utility.yul\":10131:10149   */\n      swap1\n      pop\n        /* \"#utility.yul\":10012:10155   */\n      swap3\n      swap2\n      pop\n      pop\n      jump\t// out\n        /* \"#utility.yul\":10161:10259   */\n    tag_607:\n        /* \"#utility.yul\":10226:10230   */\n      0x00\n        /* \"#utility.yul\":10249:10252   */\n      dup2\n        /* \"#utility.yul\":10241:10252   */\n      swap1\n      pop\n        /* \"#utility.yul\":10161:10259   */\n      swap2\n      swap1\n      pop\n      jump\t// out\n        /* \"#utility.yul\":10265:10376   */\n    tag_608:\n        /* \"#utility.yul\":10333:10337   */\n      0x00\n        /* \"#utility.yul\":10365:10369   */\n      0x20\n        /* \"#utility.yul\":10360:10363   */\n      dup3\n        /* \"#utility.yul\":10356:10370   */\n      add\n        /* \"#utility.yul\":10348:10370   */\n      swap1\n      pop\n        /* \"#utility.yul\":10265:10376   */\n      swap2\n      swap1\n      pop\n      jump\t// out\n        /* \"#utility.yul\":10414:11108   */\n    tag_609:\n        /* \"#utility.yul\":10550:10602   */\n      tag_758\n        /* \"#utility.yul\":10596:10601   */\n      dup2\n        /* \"#utility.yul\":10550:10602   */\n      tag_605\n      jump\t// in\n    tag_758:\n        /* \"#utility.yul\":10618:10702   */\n      tag_759\n        /* \"#utility.yul\":10695:10701   */\n      dup2\n        /* \"#utility.yul\":10690:10693   */\n      dup5\n        /* \"#utility.yul\":10618:10702   */\n      tag_606\n      jump\t// in\n    tag_759:\n        /* \"#utility.yul\":10611:10702   */\n      swap3\n      pop\n        /* \"#utility.yul\":10726:10780   */\n      tag_760\n        /* \"#utility.yul\":10774:10779   */\n      dup3\n        /* \"#utility.yul\":10726:10780   */\n      tag_607\n      jump\t// in\n    tag_760:\n        /* \"#utility.yul\":10803:10810   */\n      dup1\n        /* \"#utility.yul\":10834:10835   */\n      0x00\n        /* \"#utility.yul\":10819:11101   */\n    tag_761:\n        /* \"#utility.yul\":10844:10850   */\n      dup4\n        /* \"#utility.yul\":10841:10842   */\n      dup2\n        /* \"#utility.yul\":10838:10851   */\n      lt\n        /* \"#utility.yul\":10819:11101   */\n      iszero\n      tag_763\n      jumpi\n        /* \"#utility.yul\":10920:10926   */\n      dup2\n        /* \"#utility.yul\":10914:10927   */\n      mload\n        /* \"#utility.yul\":10947:11010   */\n      tag_764\n        /* \"#utility.yul\":11006:11009   */\n      dup8\n        /* \"#utility.yul\":10991:11004   */\n      dup3\n        /* \"#utility.yul\":10947:11010   */\n      tag_584\n      jump\t// in\n    tag_764:\n        /* \"#utility.yul\":10940:11010   */\n      swap7\n      pop\n        /* \"#utility.yul\":11033:11091   */\n      tag_765\n        /* \"#utility.yul\":11084:11090   */\n      dup4\n        /* \"#utility.yul\":11033:11091   */\n      tag_608\n      jump\t// in\n    tag_765:\n        /* \"#utility.yul\":11023:11091   */\n      swap3\n      pop\n        /* \"#utility.yul\":10879:11101   */\n      pop\n        /* \"#utility.yul\":10866:10867   */\n      0x01\n        /* \"#utility.yul\":10863:10864   */\n      dup2\n        /* \"#utility.yul\":10859:10868   */\n      add\n        /* \"#utility.yul\":10854:10868   */\n      swap1\n      pop\n        /* \"#utility.yul\":10819:11101   */\n      jump(tag_761)\n    tag_763:\n        /* \"#utility.yul\":10823:10837   */\n      pop\n        /* \"#utility.yul\":10526:11108   */\n      pop\n      pop\n      pop\n        /* \"#utility.yul\":10414:11108   */\n      pop\n      pop\n      jump\t// out\n        /* \"#utility.yul\":11114:11429   */\n    tag_88:\n        /* \"#utility.yul\":11253:11257   */\n      0x00\n        /* \"#utility.yul\":11291:11294   */\n      0xe0\n        /* \"#utility.yul\":11280:11289   */\n      dup3\n        /* \"#utility.yul\":11276:11295   */\n      add\n        /* \"#utility.yul\":11268:11295   */\n      swap1\n      pop\n        /* \"#utility.yul\":11305:11422   */\n      tag_767\n        /* \"#utility.yul\":11419:11420   */\n      0x00\n        /* \"#utility.yul\":11408:11417   */\n      dup4\n        /* \"#utility.yul\":11404:11421   */\n      add\n        /* \"#utility.yul\":11395:11401   */\n      dup5\n        /* \"#utility.yul\":11305:11422   */\n      tag_609\n      jump\t// in\n    tag_767:\n        /* \"#utility.yul\":11114:11429   */\n      swap3\n      swap2\n      pop\n      pop\n      jump\t// out\n        /* \"#utility.yul\":11435:11657   */\n    tag_93:\n        /* \"#utility.yul\":11528:11532   */\n      0x00\n        /* \"#utility.yul\":11566:11568   */\n      0x20\n        /* \"#utility.yul\":11555:11564   */\n      dup3\n        /* \"#utility.yul\":11551:11569   */\n      add\n        /* \"#utility.yul\":11543:11569   */\n      swap1\n      pop\n        /* \"#utility.yul\":11579:11650   */\n      tag_769\n        /* \"#utility.yul\":11647:11648   */\n      0x00\n        /* \"#utility.yul\":11636:11645   */\n      dup4\n        /* \"#utility.yul\":11632:11649   */\n      add\n        /* \"#utility.yul\":11623:11629   */\n      dup5\n        /* \"#utility.yul\":11579:11650   */\n      tag_600\n      jump\t// in\n    tag_769:\n        /* \"#utility.yul\":11435:11657   */\n      swap3\n      swap2\n      pop\n      pop\n      jump\t// out\n        /* \"#utility.yul\":11663:11767   */\n    tag_610:\n        /* \"#utility.yul\":11708:11715   */\n      0x00\n        /* \"#utility.yul\":11737:11761   */\n      tag_771\n        /* \"#utility.yul\":11755:11760   */\n      dup3\n        /* \"#utility.yul\":11737:11761   */\n      tag_598\n      jump\t// in\n    tag_771:\n        /* \"#utility.yul\":11726:11761   */\n      swap1\n      pop\n        /* \"#utility.yul\":11663:11767   */\n      swap2\n      swap1\n      pop\n      jump\t// out\n        /* \"#utility.yul\":11773:11911   */\n    tag_611:\n        /* \"#utility.yul\":11854:11886   */\n      tag_773\n        /* \"#utility.yul\":11880:11885   */\n      dup2\n        /* \"#utility.yul\":11854:11886   */\n      tag_610\n      jump\t// in\n    tag_773:\n        /* \"#utility.yul\":11847:11852   */\n      dup2\n        /* \"#utility.yul\":11844:11887   */\n      eq\n        /* \"#utility.yul\":11834:11905   */\n      tag_774\n      jumpi\n        /* \"#utility.yul\":11901:11902   */\n      0x00\n        /* \"#utility.yul\":11898:11899   */\n      dup1\n        /* \"#utility.yul\":11891:11903   */\n      revert\n        /* \"#utility.yul\":11834:11905   */\n    tag_774:\n        /* \"#utility.yul\":11773:11911   */\n      pop\n      jump\t// out\n        /* \"#utility.yul\":11917:12072   */\n    tag_612:\n        /* \"#utility.yul\":11971:11976   */\n      0x00\n        /* \"#utility.yul\":12009:12015   */\n      dup2\n        /* \"#utility.yul\":11996:12016   */\n      calldataload\n        /* \"#utility.yul\":11987:12016   */\n      swap1\n      pop\n        /* \"#utility.yul\":12025:12066   */\n      tag_776\n        /* \"#utility.yul\":12060:12065   */\n      dup2\n        /* \"#utility.yul\":12025:12066   */\n      tag_611\n      jump\t// in\n    tag_776:\n        /* \"#utility.yul\":11917:12072   */\n      swap3\n      swap2\n      pop\n      pop\n      jump\t// out\n        /* \"#utility.yul\":12078:12423   */\n    tag_104:\n        /* \"#utility.yul\":12145:12151   */\n      0x00\n        /* \"#utility.yul\":12194:12196   */\n      0x20\n        /* \"#utility.yul\":12182:12191   */\n      dup3\n        /* \"#utility.yul\":12173:12180   */\n      dup5\n        /* \"#utility.yul\":12169:12192   */\n      sub\n        /* \"#utility.yul\":12165:12197   */\n      slt\n        /* \"#utility.yul\":12162:12281   */\n      iszero\n      tag_778\n      jumpi\n        /* \"#utility.yul\":12200:12279   */\n      tag_779\n      tag_573\n      jump\t// in\n    tag_779:\n        /* \"#utility.yul\":12162:12281   */\n    tag_778:\n        /* \"#utility.yul\":12320:12321   */\n      0x00\n        /* \"#utility.yul\":12345:12406   */\n      tag_780\n        /* \"#utility.yul\":12398:12405   */\n      dup5\n        /* \"#utility.yul\":12389:12395   */\n      dup3\n        /* \"#utility.yul\":12378:12387   */\n      dup6\n        /* \"#utility.yul\":12374:12396   */\n      add\n        /* \"#utility.yul\":12345:12406   */\n      tag_612\n      jump\t// in\n    tag_780:\n        /* \"#utility.yul\":12335:12406   */\n      swap2\n      pop\n        /* \"#utility.yul\":12291:12416   */\n      pop\n        /* \"#utility.yul\":12078:12423   */\n      swap3\n      swap2\n      pop\n      pop\n      jump\t// out\n        /* \"#utility.yul\":12429:12551   */\n    tag_613:\n        /* \"#utility.yul\":12502:12526   */\n      tag_782\n        /* \"#utility.yul\":12520:12525   */\n      dup2\n        /* \"#utility.yul\":12502:12526   */\n      tag_599\n      jump\t// in\n    tag_782:\n        /* \"#utility.yul\":12495:12500   */\n      dup2\n        /* \"#utility.yul\":12492:12527   */\n      eq\n        /* \"#utility.yul\":12482:12545   */\n      tag_783\n      jumpi\n        /* \"#utility.yul\":12541:12542   */\n      0x00\n        /* \"#utility.yul\":12538:12539   */\n      dup1\n        /* \"#utility.yul\":12531:12543   */\n      revert\n        /* \"#utility.yul\":12482:12545   */\n    tag_783:\n        /* \"#utility.yul\":12429:12551   */\n      pop\n      jump\t// out\n        /* \"#utility.yul\":12557:12696   */\n    tag_614:\n        /* \"#utility.yul\":12603:12608   */\n      0x00\n        /* \"#utility.yul\":12641:12647   */\n      dup2\n        /* \"#utility.yul\":12628:12648   */\n      calldataload\n        /* \"#utility.yul\":12619:12648   */\n      swap1\n      pop\n        /* \"#utility.yul\":12657:12690   */\n      tag_785\n        /* \"#utility.yul\":12684:12689   */\n      dup2\n        /* \"#utility.yul\":12657:12690   */\n      tag_613\n      jump\t// in\n    tag_785:\n        /* \"#utility.yul\":12557:12696   */\n      swap3\n      swap2\n      pop\n      pop\n      jump\t// out\n        /* \"#utility.yul\":12702:13031   */\n    tag_120:\n        /* \"#utility.yul\":12761:12767   */\n      0x00\n        /* \"#utility.yul\":12810:12812   */\n      0x20\n        /* \"#utility.yul\":12798:12807   */\n      dup3\n        /* \"#utility.yul\":12789:12796   */\n      dup5\n        /* \"#utility.yul\":12785:12808   */\n      sub\n        /* \"#utility.yul\":12781:12813   */\n      slt\n        /* \"#utility.yul\":12778:12897   */\n      iszero\n      tag_787\n      jumpi\n        /* \"#utility.yul\":12816:12895   */\n      tag_788\n      tag_573\n      jump\t// in\n    tag_788:\n        /* \"#utility.yul\":12778:12897   */\n    tag_787:\n        /* \"#utility.yul\":12936:12937   */\n      0x00\n        /* \"#utility.yul\":12961:13014   */\n      tag_789\n        /* \"#utility.yul\":13006:13013   */\n      dup5\n        /* \"#utility.yul\":12997:13003   */\n      dup3\n        /* \"#utility.yul\":12986:12995   */\n      dup6\n        /* \"#utility.yul\":12982:13004   */\n      add\n        /* \"#utility.yul\":12961:13014   */\n      tag_614\n      jump\t// in\n    tag_789:\n        /* \"#utility.yul\":12951:13014   */\n      swap2\n      pop\n        /* \"#utility.yul\":12907:13024   */\n      pop\n        /* \"#utility.yul\":12702:13031   */\n      swap3\n      swap2\n      pop\n      pop\n      jump\t// out\n        /* \"#utility.yul\":13037:13097   */\n    tag_615:\n        /* \"#utility.yul\":13065:13068   */\n      0x00\n        /* \"#utility.yul\":13086:13091   */\n      dup2\n        /* \"#utility.yul\":13079:13091   */\n      swap1\n      pop\n        /* \"#utility.yul\":13037:13097   */\n      swap2\n      swap1\n      pop\n      jump\t// out\n        /* \"#utility.yul\":13103:13245   */\n    tag_616:\n        /* \"#utility.yul\":13153:13162   */\n      0x00\n        /* \"#utility.yul\":13186:13239   */\n      tag_792\n        /* \"#utility.yul\":13204:13238   */\n      tag_793\n        /* \"#utility.yul\":13213:13237   */\n      tag_794\n        /* \"#utility.yul\":13231:13236   */\n      dup5\n        /* \"#utility.yul\":13213:13237   */\n      tag_598\n      jump\t// in\n    tag_794:\n        /* \"#utility.yul\":13204:13238   */\n      tag_615\n      jump\t// in\n    tag_793:\n        /* \"#utility.yul\":13186:13239   */\n      tag_598\n      jump\t// in\n    tag_792:\n        /* \"#utility.yul\":13173:13239   */\n      swap1\n      pop\n        /* \"#utility.yul\":13103:13245   */\n      swap2\n      swap1\n      pop\n      jump\t// out\n        /* \"#utility.yul\":13251:13377   */\n    tag_617:\n        /* \"#utility.yul\":13301:13310   */\n      0x00\n        /* \"#utility.yul\":13334:13371   */\n      tag_796\n        /* \"#utility.yul\":13365:13370   */\n      dup3\n        /* \"#utility.yul\":13334:13371   */\n      tag_616\n      jump\t// in\n    tag_796:\n        /* \"#utility.yul\":13321:13371   */\n      swap1\n      pop\n        /* \"#utility.yul\":13251:13377   */\n      swap2\n      swap1\n      pop\n      jump\t// out\n        /* \"#utility.yul\":13383:13522   */\n    tag_618:\n        /* \"#utility.yul\":13446:13455   */\n      0x00\n        /* \"#utility.yul\":13479:13516   */\n      tag_798\n        /* \"#utility.yul\":13510:13515   */\n      dup3\n        /* \"#utility.yul\":13479:13516   */\n      tag_617\n      jump\t// in\n    tag_798:\n        /* \"#utility.yul\":13466:13516   */\n      swap1\n      pop\n        /* \"#utility.yul\":13383:13522   */\n      swap2\n      swap1\n      pop\n      jump\t// out\n        /* \"#utility.yul\":13528:13685   */\n    tag_619:\n        /* \"#utility.yul\":13628:13678   */\n      tag_800\n        /* \"#utility.yul\":13672:13677   */\n      dup2\n        /* \"#utility.yul\":13628:13678   */\n      tag_618\n      jump\t// in\n    tag_800:\n        /* \"#utility.yul\":13623:13626   */\n      dup3\n        /* \"#utility.yul\":13616:13679   */\n      mstore\n        /* \"#utility.yul\":13528:13685   */\n      pop\n      pop\n      jump\t// out\n        /* \"#utility.yul\":13691:13939   */\n    tag_126:\n        /* \"#utility.yul\":13797:13801   */\n      0x00\n        /* \"#utility.yul\":13835:13837   */\n      0x20\n        /* \"#utility.yul\":13824:13833   */\n      dup3\n        /* \"#utility.yul\":13820:13838   */\n      add\n        /* \"#utility.yul\":13812:13838   */\n      swap1\n      pop\n        /* \"#utility.yul\":13848:13932   */\n      tag_802\n        /* \"#utility.yul\":13929:13930   */\n      0x00\n        /* \"#utility.yul\":13918:13927   */\n      dup4\n        /* \"#utility.yul\":13914:13931   */\n      add\n        /* \"#utility.yul\":13905:13911   */\n      dup5\n        /* \"#utility.yul\":13848:13932   */\n      tag_619\n      jump\t// in\n    tag_802:\n        /* \"#utility.yul\":13691:13939   */\n      swap3\n      swap2\n      pop\n      pop\n      jump\t// out\n        /* \"#utility.yul\":13945:14125   */\n    tag_134:\n        /* \"#utility.yul\":13993:14070   */\n      0x4e487b7100000000000000000000000000000000000000000000000000000000\n        /* \"#utility.yul\":13990:13991   */\n      0x00\n        /* \"#utility.yul\":13983:14071   */\n      mstore\n        /* \"#utility.yul\":14090:14094   */\n      0x32\n        /* \"#utility.yul\":14087:14088   */\n      0x04\n        /* \"#utility.yul\":14080:14095   */\n      mstore\n        /* \"#utility.yul\":14114:14118   */\n      0x24\n        /* \"#utility.yul\":14111:14112   */\n      0x00\n        /* \"#utility.yul\":14104:14119   */\n      revert\n        /* \"#utility.yul\":14131:14311   */\n    tag_620:\n        /* \"#utility.yul\":14179:14256   */\n      0x4e487b7100000000000000000000000000000000000000000000000000000000\n        /* \"#utility.yul\":14176:14177   */\n      0x00\n        /* \"#utility.yul\":14169:14257   */\n      mstore\n        /* \"#utility.yul\":14276:14280   */\n      0x11\n        /* \"#utility.yul\":14273:14274   */\n      0x04\n        /* \"#utility.yul\":14266:14281   */\n      mstore\n        /* \"#utility.yul\":14300:14304   */\n      0x24\n        /* \"#utility.yul\":14297:14298   */\n      0x00\n        /* \"#utility.yul\":14290:14305   */\n      revert\n        /* \"#utility.yul\":14317:14511   */\n    tag_153:\n        /* \"#utility.yul\":14357:14361   */\n      0x00\n        /* \"#utility.yul\":14377:14397   */\n      tag_806\n        /* \"#utility.yul\":14395:14396   */\n      dup3\n        /* \"#utility.yul\":14377:14397   */\n      tag_570\n      jump\t// in\n    tag_806:\n        /* \"#utility.yul\":14372:14397   */\n      swap2\n      pop\n        /* \"#utility.yul\":14411:14431   */\n      tag_807\n        /* \"#utility.yul\":14429:14430   */\n      dup4\n        /* \"#utility.yul\":14411:14431   */\n      tag_570\n      jump\t// in\n    tag_807:\n        /* \"#utility.yul\":14406:14431   */\n      swap3\n      pop\n        /* \"#utility.yul\":14455:14456   */\n      dup3\n        /* \"#utility.yul\":14452:14453   */\n      dup3\n        /* \"#utility.yul\":14448:14457   */\n      sub\n        /* \"#utility.yul\":14440:14457   */\n      swap1\n      pop\n        /* \"#utility.yul\":14479:14480   */\n      dup2\n        /* \"#utility.yul\":14473:14477   */\n      dup2\n        /* \"#utility.yul\":14470:14481   */\n      gt\n        /* \"#utility.yul\":14467:14504   */\n      iszero\n      tag_808\n      jumpi\n        /* \"#utility.yul\":14484:14502   */\n      tag_809\n      tag_620\n      jump\t// in\n    tag_809:\n        /* \"#utility.yul\":14467:14504   */\n    tag_808:\n        /* \"#utility.yul\":14317:14511   */\n      swap3\n      swap2\n      pop\n      pop\n      jump\t// out\n        /* \"#utility.yul\":14517:14750   */\n    tag_172:\n        /* \"#utility.yul\":14556:14559   */\n      0x00\n        /* \"#utility.yul\":14579:14603   */\n      tag_811\n        /* \"#utility.yul\":14597:14602   */\n      dup3\n        /* \"#utility.yul\":14579:14603   */\n      tag_570\n      jump\t// in\n    tag_811:\n        /* \"#utility.yul\":14570:14603   */\n      swap2\n      pop\n        /* \"#utility.yul\":14625:14691   */\n      0xffffffffffffffffffffffffffffffffffffffffffffffffffffffffffffffff\n        /* \"#utility.yul\":14618:14623   */\n      dup3\n        /* \"#utility.yul\":14615:14692   */\n      sub\n        /* \"#utility.yul\":14612:14715   */\n      tag_812\n      jumpi\n        /* \"#utility.yul\":14695:14713   */\n      tag_813\n      tag_620\n      jump\t// in\n    tag_813:\n        /* \"#utility.yul\":14612:14715   */\n    tag_812:\n        /* \"#utility.yul\":14742:14743   */\n      0x01\n        /* \"#utility.yul\":14735:14740   */\n      dup3\n        /* \"#utility.yul\":14731:14744   */\n      add\n        /* \"#utility.yul\":14724:14744   */\n      swap1\n      pop\n        /* \"#utility.yul\":14517:14750   */\n      swap2\n      swap1\n      pop\n      jump\t// out\n        /* \"#utility.yul\":14756:14925   */\n    tag_621:\n        /* \"#utility.yul\":14840:14851   */\n      0x00\n        /* \"#utility.yul\":14874:14880   */\n      dup3\n        /* \"#utility.yul\":14869:14872   */\n      dup3\n        /* \"#utility.yul\":14862:14881   */\n      mstore\n        /* \"#utility.yul\":14914:14918   */\n      0x20\n        /* \"#utility.yul\":14909:14912   */\n      dup3\n        /* \"#utility.yul\":14905:14919   */\n      add\n        /* \"#utility.yul\":14890:14919   */\n      swap1\n      pop\n        /* \"#utility.yul\":14756:14925   */\n      swap3\n      swap2\n      pop\n      pop\n      jump\t// out\n        /* \"#utility.yul\":14931:15090   */\n    tag_622:\n        /* \"#utility.yul\":15071:15082   */\n      0x526f756e6420456e640000000000000000000000000000000000000000000000\n        /* \"#utility.yul\":15067:15068   */\n      0x00\n        /* \"#utility.yul\":15059:15065   */\n      dup3\n        /* \"#utility.yul\":15055:15069   */\n      add\n        /* \"#utility.yul\":15048:15083   */\n      mstore\n        /* \"#utility.yul\":14931:15090   */\n      pop\n      jump\t// out\n        /* \"#utility.yul\":15096:15461   */\n    tag_623:\n        /* \"#utility.yul\":15238:15241   */\n      0x00\n        /* \"#utility.yul\":15259:15325   */\n      tag_817\n        /* \"#utility.yul\":15323:15324   */\n      0x09\n        /* \"#utility.yul\":15318:15321   */\n      dup4\n        /* \"#utility.yul\":15259:15325   */\n      tag_621\n      jump\t// in\n    tag_817:\n        /* \"#utility.yul\":15252:15325   */\n      swap2\n      pop\n        /* \"#utility.yul\":15334:15427   */\n      tag_818\n        /* \"#utility.yul\":15423:15426   */\n      dup3\n        /* \"#utility.yul\":15334:15427   */\n      tag_622\n      jump\t// in\n    tag_818:\n        /* \"#utility.yul\":15452:15454   */\n      0x20\n        /* \"#utility.yul\":15447:15450   */\n      dup3\n        /* \"#utility.yul\":15443:15455   */\n      add\n        /* \"#utility.yul\":15436:15455   */\n      swap1\n      pop\n        /* \"#utility.yul\":15096:15461   */\n      swap2\n      swap1\n      pop\n      jump\t// out\n        /* \"#utility.yul\":15467:15886   */\n    tag_248:\n        /* \"#utility.yul\":15633:15637   */\n      0x00\n        /* \"#utility.yul\":15671:15673   */\n      0x20\n        /* \"#utility.yul\":15660:15669   */\n      dup3\n        /* \"#utility.yul\":15656:15674   */\n      add\n        /* \"#utility.yul\":15648:15674   */\n      swap1\n      pop\n        /* \"#utility.yul\":15720:15729   */\n      dup2\n        /* \"#utility.yul\":15714:15718   */\n      dup2\n        /* \"#utility.yul\":15710:15730   */\n      sub\n        /* \"#utility.yul\":15706:15707   */\n      0x00\n        /* \"#utility.yul\":15695:15704   */\n      dup4\n        /* \"#utility.yul\":15691:15708   */\n      add\n        /* \"#utility.yul\":15684:15731   */\n      mstore\n        /* \"#utility.yul\":15748:15879   */\n      tag_820\n        /* \"#utility.yul\":15874:15878   */\n      dup2\n        /* \"#utility.yul\":15748:15879   */\n      tag_623\n      jump\t// in\n    tag_820:\n        /* \"#utility.yul\":15740:15879   */\n      swap1\n      pop\n        /* \"#utility.yul\":15467:15886   */\n      swap2\n      swap1\n      pop\n      jump\t// out\n        /* \"#utility.yul\":15892:16035   */\n    tag_624:\n        /* \"#utility.yul\":15949:15954   */\n      0x00\n        /* \"#utility.yul\":15980:15986   */\n      dup2\n        /* \"#utility.yul\":15974:15987   */\n      mload\n        /* \"#utility.yul\":15965:15987   */\n      swap1\n      pop\n        /* \"#utility.yul\":15996:16029   */\n      tag_822\n        /* \"#utility.yul\":16023:16028   */\n      dup2\n        /* \"#utility.yul\":15996:16029   */\n      tag_575\n      jump\t// in\n    tag_822:\n        /* \"#utility.yul\":15892:16035   */\n      swap3\n      swap2\n      pop\n      pop\n      jump\t// out\n        /* \"#utility.yul\":16041:16392   */\n    tag_263:\n        /* \"#utility.yul\":16111:16117   */\n      0x00\n        /* \"#utility.yul\":16160:16162   */\n      0x20\n        /* \"#utility.yul\":16148:16157   */\n      dup3\n        /* \"#utility.yul\":16139:16146   */\n      dup5\n        /* \"#utility.yul\":16135:16158   */\n      sub\n        /* \"#utility.yul\":16131:16163   */\n      slt\n        /* \"#utility.yul\":16128:16247   */\n      iszero\n      tag_824\n      jumpi\n        /* \"#utility.yul\":16166:16245   */\n      tag_825\n      tag_573\n      jump\t// in\n    tag_825:\n        /* \"#utility.yul\":16128:16247   */\n    tag_824:\n        /* \"#utility.yul\":16286:16287   */\n      0x00\n        /* \"#utility.yul\":16311:16375   */\n      tag_826\n        /* \"#utility.yul\":16367:16374   */\n      dup5\n        /* \"#utility.yul\":16358:16364   */\n      dup3\n        /* \"#utility.yul\":16347:16356   */\n      dup6\n        /* \"#utility.yul\":16343:16365   */\n      add\n        /* \"#utility.yul\":16311:16375   */\n      tag_624\n      jump\t// in\n    tag_826:\n        /* \"#utility.yul\":16301:16375   */\n      swap2\n      pop\n        /* \"#utility.yul\":16257:16385   */\n      pop\n        /* \"#utility.yul\":16041:16392   */\n      swap3\n      swap2\n      pop\n      pop\n      jump\t// out\n        /* \"#utility.yul\":16398:16563   */\n    tag_625:\n        /* \"#utility.yul\":16538:16555   */\n      0x4e6f742076616c69642076616c75650000000000000000000000000000000000\n        /* \"#utility.yul\":16534:16535   */\n      0x00\n        /* \"#utility.yul\":16526:16532   */\n      dup3\n        /* \"#utility.yul\":16522:16536   */\n      add\n        /* \"#utility.yul\":16515:16556   */\n      mstore\n        /* \"#utility.yul\":16398:16563   */\n      pop\n      jump\t// out\n        /* \"#utility.yul\":16569:16935   */\n    tag_626:\n        /* \"#utility.yul\":16711:16714   */\n      0x00\n        /* \"#utility.yul\":16732:16799   */\n      tag_829\n        /* \"#utility.yul\":16796:16798   */\n      0x0f\n        /* \"#utility.yul\":16791:16794   */\n      dup4\n        /* \"#utility.yul\":16732:16799   */\n      tag_621\n      jump\t// in\n    tag_829:\n        /* \"#utility.yul\":16725:16799   */\n      swap2\n      pop\n        /* \"#utility.yul\":16808:16901   */\n      tag_830\n        /* \"#utility.yul\":16897:16900   */\n      dup3\n        /* \"#utility.yul\":16808:16901   */\n      tag_625\n      jump\t// in\n    tag_830:\n        /* \"#utility.yul\":16926:16928   */\n      0x20\n        /* \"#utility.yul\":16921:16924   */\n      dup3\n        /* \"#utility.yul\":16917:16929   */\n      add\n        /* \"#utility.yul\":16910:16929   */\n      swap1\n      pop\n        /* \"#utility.yul\":16569:16935   */\n      swap2\n      swap1\n      pop\n      jump\t// out\n        /* \"#utility.yul\":16941:17360   */\n    tag_266:\n        /* \"#utility.yul\":17107:17111   */\n      0x00\n        /* \"#utility.yul\":17145:17147   */\n      0x20\n        /* \"#utility.yul\":17134:17143   */\n      dup3\n        /* \"#utility.yul\":17130:17148   */\n      add\n        /* \"#utility.yul\":17122:17148   */\n      swap1\n      pop\n        /* \"#utility.yul\":17194:17203   */\n      dup2\n        /* \"#utility.yul\":17188:17192   */\n      dup2\n        /* \"#utility.yul\":17184:17204   */\n      sub\n        /* \"#utility.yul\":17180:17181   */\n      0x00\n        /* \"#utility.yul\":17169:17178   */\n      dup4\n        /* \"#utility.yul\":17165:17182   */\n      add\n        /* \"#utility.yul\":17158:17205   */\n      mstore\n        /* \"#utility.yul\":17222:17353   */\n      tag_832\n        /* \"#utility.yul\":17348:17352   */\n      dup2\n        /* \"#utility.yul\":17222:17353   */\n      tag_626\n      jump\t// in\n    tag_832:\n        /* \"#utility.yul\":17214:17353   */\n      swap1\n      pop\n        /* \"#utility.yul\":16941:17360   */\n      swap2\n      swap1\n      pop\n      jump\t// out\n        /* \"#utility.yul\":17366:17557   */\n    tag_275:\n        /* \"#utility.yul\":17406:17409   */\n      0x00\n        /* \"#utility.yul\":17425:17445   */\n      tag_834\n        /* \"#utility.yul\":17443:17444   */\n      dup3\n        /* \"#utility.yul\":17425:17445   */\n      tag_570\n      jump\t// in\n    tag_834:\n        /* \"#utility.yul\":17420:17445   */\n      swap2\n      pop\n        /* \"#utility.yul\":17459:17479   */\n      tag_835\n        /* \"#utility.yul\":17477:17478   */\n      dup4\n        /* \"#utility.yul\":17459:17479   */\n      tag_570\n      jump\t// in\n    tag_835:\n        /* \"#utility.yul\":17454:17479   */\n      swap3\n      pop\n        /* \"#utility.yul\":17502:17503   */\n      dup3\n        /* \"#utility.yul\":17499:17500   */\n      dup3\n        /* \"#utility.yul\":17495:17504   */\n      add\n        /* \"#utility.yul\":17488:17504   */\n      swap1\n      pop\n        /* \"#utility.yul\":17523:17526   */\n      dup1\n        /* \"#utility.yul\":17520:17521   */\n      dup3\n        /* \"#utility.yul\":17517:17527   */\n      gt\n        /* \"#utility.yul\":17514:17550   */\n      iszero\n      tag_836\n      jumpi\n        /* \"#utility.yul\":17530:17548   */\n      tag_837\n      tag_620\n      jump\t// in\n    tag_837:\n        /* \"#utility.yul\":17514:17550   */\n    tag_836:\n        /* \"#utility.yul\":17366:17557   */\n      swap3\n      swap2\n      pop\n      pop\n      jump\t// out\n        /* \"#utility.yul\":17563:17784   */\n    tag_627:\n        /* \"#utility.yul\":17703:17737   */\n      0x4f6e6c79206e756d626572732030207e2034352063616e20626520656e746572\n        /* \"#utility.yul\":17699:17700   */\n      0x00\n        /* \"#utility.yul\":17691:17697   */\n      dup3\n        /* \"#utility.yul\":17687:17701   */\n      add\n        /* \"#utility.yul\":17680:17738   */\n      mstore\n        /* \"#utility.yul\":17772:17776   */\n      0x6564000000000000000000000000000000000000000000000000000000000000\n        /* \"#utility.yul\":17767:17769   */\n      0x20\n        /* \"#utility.yul\":17759:17765   */\n      dup3\n        /* \"#utility.yul\":17755:17770   */\n      add\n        /* \"#utility.yul\":17748:17777   */\n      mstore\n        /* \"#utility.yul\":17563:17784   */\n      pop\n      jump\t// out\n        /* \"#utility.yul\":17790:18156   */\n    tag_628:\n        /* \"#utility.yul\":17932:17935   */\n      0x00\n        /* \"#utility.yul\":17953:18020   */\n      tag_840\n        /* \"#utility.yul\":18017:18019   */\n      0x22\n        /* \"#utility.yul\":18012:18015   */\n      dup4\n        /* \"#utility.yul\":17953:18020   */\n      tag_621\n      jump\t// in\n    tag_840:\n        /* \"#utility.yul\":17946:18020   */\n      swap2\n      pop\n        /* \"#utility.yul\":18029:18122   */\n      tag_841\n        /* \"#utility.yul\":18118:18121   */\n      dup3\n        /* \"#utility.yul\":18029:18122   */\n      tag_627\n      jump\t// in\n    tag_841:\n        /* \"#utility.yul\":18147:18149   */\n      0x40\n        /* \"#utility.yul\":18142:18145   */\n      dup3\n        /* \"#utility.yul\":18138:18150   */\n      add\n        /* \"#utility.yul\":18131:18150   */\n      swap1\n      pop\n        /* \"#utility.yul\":17790:18156   */\n      swap2\n      swap1\n      pop\n      jump\t// out\n        /* \"#utility.yul\":18162:18581   */\n    tag_293:\n        /* \"#utility.yul\":18328:18332   */\n      0x00\n        /* \"#utility.yul\":18366:18368   */\n      0x20\n        /* \"#utility.yul\":18355:18364   */\n      dup3\n        /* \"#utility.yul\":18351:18369   */\n      add\n        /* \"#utility.yul\":18343:18369   */\n      swap1\n      pop\n        /* \"#utility.yul\":18415:18424   */\n      dup2\n        /* \"#utility.yul\":18409:18413   */\n      dup2\n        /* \"#utility.yul\":18405:18425   */\n      sub\n        /* \"#utility.yul\":18401:18402   */\n      0x00\n        /* \"#utility.yul\":18390:18399   */\n      dup4\n        /* \"#utility.yul\":18386:18403   */\n      add\n        /* \"#utility.yul\":18379:18426   */\n      mstore\n        /* \"#utility.yul\":18443:18574   */\n      tag_843\n        /* \"#utility.yul\":18569:18573   */\n      dup2\n        /* \"#utility.yul\":18443:18574   */\n      tag_628\n      jump\t// in\n    tag_843:\n        /* \"#utility.yul\":18435:18574   */\n      swap1\n      pop\n        /* \"#utility.yul\":18162:18581   */\n      swap2\n      swap1\n      pop\n      jump\t// out\n        /* \"#utility.yul\":18587:19029   */\n    tag_296:\n        /* \"#utility.yul\":18736:18740   */\n      0x00\n        /* \"#utility.yul\":18774:18776   */\n      0x60\n        /* \"#utility.yul\":18763:18772   */\n      dup3\n        /* \"#utility.yul\":18759:18777   */\n      add\n        /* \"#utility.yul\":18751:18777   */\n      swap1\n      pop\n        /* \"#utility.yul\":18787:18858   */\n      tag_845\n        /* \"#utility.yul\":18855:18856   */\n      0x00\n        /* \"#utility.yul\":18844:18853   */\n      dup4\n        /* \"#utility.yul\":18840:18857   */\n      add\n        /* \"#utility.yul\":18831:18837   */\n      dup7\n        /* \"#utility.yul\":18787:18858   */\n      tag_600\n      jump\t// in\n    tag_845:\n        /* \"#utility.yul\":18868:18940   */\n      tag_846\n        /* \"#utility.yul\":18936:18938   */\n      0x20\n        /* \"#utility.yul\":18925:18934   */\n      dup4\n        /* \"#utility.yul\":18921:18939   */\n      add\n        /* \"#utility.yul\":18912:18918   */\n      dup6\n        /* \"#utility.yul\":18868:18940   */\n      tag_600\n      jump\t// in\n    tag_846:\n        /* \"#utility.yul\":18950:19022   */\n      tag_847\n        /* \"#utility.yul\":19018:19020   */\n      0x40\n        /* \"#utility.yul\":19007:19016   */\n      dup4\n        /* \"#utility.yul\":19003:19021   */\n      add\n        /* \"#utility.yul\":18994:19000   */\n      dup5\n        /* \"#utility.yul\":18950:19022   */\n      tag_571\n      jump\t// in\n    tag_847:\n        /* \"#utility.yul\":18587:19029   */\n      swap5\n      swap4\n      pop\n      pop\n      pop\n      pop\n      jump\t// out\n        /* \"#utility.yul\":19035:19125   */\n    tag_629:\n        /* \"#utility.yul\":19069:19076   */\n      0x00\n        /* \"#utility.yul\":19112:19117   */\n      dup2\n        /* \"#utility.yul\":19105:19118   */\n      iszero\n        /* \"#utility.yul\":19098:19119   */\n      iszero\n        /* \"#utility.yul\":19087:19119   */\n      swap1\n      pop\n        /* \"#utility.yul\":19035:19125   */\n      swap2\n      swap1\n      pop\n      jump\t// out\n        /* \"#utility.yul\":19131:19247   */\n    tag_630:\n        /* \"#utility.yul\":19201:19222   */\n      tag_850\n        /* \"#utility.yul\":19216:19221   */\n      dup2\n        /* \"#utility.yul\":19201:19222   */\n      tag_629\n      jump\t// in\n    tag_850:\n        /* \"#utility.yul\":19194:19199   */\n      dup2\n        /* \"#utility.yul\":19191:19223   */\n      eq\n        /* \"#utility.yul\":19181:19241   */\n      tag_851\n      jumpi\n        /* \"#utility.yul\":19237:19238   */\n      0x00\n        /* \"#utility.yul\":19234:19235   */\n      dup1\n        /* \"#utility.yul\":19227:19239   */\n      revert\n        /* \"#utility.yul\":19181:19241   */\n    tag_851:\n        /* \"#utility.yul\":19131:19247   */\n      pop\n      jump\t// out\n        /* \"#utility.yul\":19253:19390   */\n    tag_631:\n        /* \"#utility.yul\":19307:19312   */\n      0x00\n        /* \"#utility.yul\":19338:19344   */\n      dup2\n        /* \"#utility.yul\":19332:19345   */\n      mload\n        /* \"#utility.yul\":19323:19345   */\n      swap1\n      pop\n        /* \"#utility.yul\":19354:19384   */\n      tag_853\n        /* \"#utility.yul\":19378:19383   */\n      dup2\n        /* \"#utility.yul\":19354:19384   */\n      tag_630\n      jump\t// in\n    tag_853:\n        /* \"#utility.yul\":19253:19390   */\n      swap3\n      swap2\n      pop\n      pop\n      jump\t// out\n        /* \"#utility.yul\":19396:19741   */\n    tag_300:\n        /* \"#utility.yul\":19463:19469   */\n      0x00\n        /* \"#utility.yul\":19512:19514   */\n      0x20\n        /* \"#utility.yul\":19500:19509   */\n      dup3\n        /* \"#utility.yul\":19491:19498   */\n      dup5\n        /* \"#utility.yul\":19487:19510   */\n      sub\n        /* \"#utility.yul\":19483:19515   */\n      slt\n        /* \"#utility.yul\":19480:19599   */\n      iszero\n      tag_855\n      jumpi\n        /* \"#utility.yul\":19518:19597   */\n      tag_856\n      tag_573\n      jump\t// in\n    tag_856:\n        /* \"#utility.yul\":19480:19599   */\n    tag_855:\n        /* \"#utility.yul\":19638:19639   */\n      0x00\n        /* \"#utility.yul\":19663:19724   */\n      tag_857\n        /* \"#utility.yul\":19716:19723   */\n      dup5\n        /* \"#utility.yul\":19707:19713   */\n      dup3\n        /* \"#utility.yul\":19696:19705   */\n      dup6\n        /* \"#utility.yul\":19692:19714   */\n      add\n        /* \"#utility.yul\":19663:19724   */\n      tag_631\n      jump\t// in\n    tag_857:\n        /* \"#utility.yul\":19653:19724   */\n      swap2\n      pop\n        /* \"#utility.yul\":19609:19734   */\n      pop\n        /* \"#utility.yul\":19396:19741   */\n      swap3\n      swap2\n      pop\n      pop\n      jump\t// out\n        /* \"#utility.yul\":19747:19929   */\n    tag_632:\n        /* \"#utility.yul\":19887:19921   */\n      0x4f776e61626c653a2063616c6c6572206973206e6f7420746865206f776e6572\n        /* \"#utility.yul\":19883:19884   */\n      0x00\n        /* \"#utility.yul\":19875:19881   */\n      dup3\n        /* \"#utility.yul\":19871:19885   */\n      add\n        /* \"#utility.yul\":19864:19922   */\n      mstore\n        /* \"#utility.yul\":19747:19929   */\n      pop\n      jump\t// out\n        /* \"#utility.yul\":19935:20301   */\n    tag_633:\n        /* \"#utility.yul\":20077:20080   */\n      0x00\n        /* \"#utility.yul\":20098:20165   */\n      tag_860\n        /* \"#utility.yul\":20162:20164   */\n      0x20\n        /* \"#utility.yul\":20157:20160   */\n      dup4\n        /* \"#utility.yul\":20098:20165   */\n      tag_621\n      jump\t// in\n    tag_860:\n        /* \"#utility.yul\":20091:20165   */\n      swap2\n      pop\n        /* \"#utility.yul\":20174:20267   */\n      tag_861\n        /* \"#utility.yul\":20263:20266   */\n      dup3\n        /* \"#utility.yul\":20174:20267   */\n      tag_632\n      jump\t// in\n    tag_861:\n        /* \"#utility.yul\":20292:20294   */\n      0x20\n        /* \"#utility.yul\":20287:20290   */\n      dup3\n        /* \"#utility.yul\":20283:20295   */\n      add\n        /* \"#utility.yul\":20276:20295   */\n      swap1\n      pop\n        /* \"#utility.yul\":19935:20301   */\n      swap2\n      swap1\n      pop\n      jump\t// out\n        /* \"#utility.yul\":20307:20726   */\n    tag_316:\n        /* \"#utility.yul\":20473:20477   */\n      0x00\n        /* \"#utility.yul\":20511:20513   */\n      0x20\n        /* \"#utility.yul\":20500:20509   */\n      dup3\n        /* \"#utility.yul\":20496:20514   */\n      add\n        /* \"#utility.yul\":20488:20514   */\n      swap1\n      pop\n        /* \"#utility.yul\":20560:20569   */\n      dup2\n        /* \"#utility.yul\":20554:20558   */\n      dup2\n        /* \"#utility.yul\":20550:20570   */\n      sub\n        /* \"#utility.yul\":20546:20547   */\n      0x00\n        /* \"#utility.yul\":20535:20544   */\n      dup4\n        /* \"#utility.yul\":20531:20548   */\n      add\n        /* \"#utility.yul\":20524:20571   */\n      mstore\n        /* \"#utility.yul\":20588:20719   */\n      tag_863\n        /* \"#utility.yul\":20714:20718   */\n      dup2\n        /* \"#utility.yul\":20588:20719   */\n      tag_633\n      jump\t// in\n    tag_863:\n        /* \"#utility.yul\":20580:20719   */\n      swap1\n      pop\n        /* \"#utility.yul\":20307:20726   */\n      swap2\n      swap1\n      pop\n      jump\t// out\n        /* \"#utility.yul\":20732:20866   */\n    tag_634:\n        /* \"#utility.yul\":20790:20799   */\n      0x00\n        /* \"#utility.yul\":20823:20860   */\n      tag_865\n        /* \"#utility.yul\":20854:20859   */\n      dup3\n        /* \"#utility.yul\":20823:20860   */\n      tag_617\n      jump\t// in\n    tag_865:\n        /* \"#utility.yul\":20810:20860   */\n      swap1\n      pop\n        /* \"#utility.yul\":20732:20866   */\n      swap2\n      swap1\n      pop\n      jump\t// out\n        /* \"#utility.yul\":20872:21019   */\n    tag_635:\n        /* \"#utility.yul\":20967:21012   */\n      tag_867\n        /* \"#utility.yul\":21006:21011   */\n      dup2\n        /* \"#utility.yul\":20967:21012   */\n      tag_634\n      jump\t// in\n    tag_867:\n        /* \"#utility.yul\":20962:20965   */\n      dup3\n        /* \"#utility.yul\":20955:21013   */\n      mstore\n        /* \"#utility.yul\":20872:21019   */\n      pop\n      pop\n      jump\t// out\n        /* \"#utility.yul\":21025:21373   */\n    tag_421:\n        /* \"#utility.yul\":21154:21158   */\n      0x00\n        /* \"#utility.yul\":21192:21194   */\n      0x40\n        /* \"#utility.yul\":21181:21190   */\n      dup3\n        /* \"#utility.yul\":21177:21195   */\n      add\n        /* \"#utility.yul\":21169:21195   */\n      swap1\n      pop\n        /* \"#utility.yul\":21205:21284   */\n      tag_869\n        /* \"#utility.yul\":21281:21282   */\n      0x00\n        /* \"#utility.yul\":21270:21279   */\n      dup4\n        /* \"#utility.yul\":21266:21283   */\n      add\n        /* \"#utility.yul\":21257:21263   */\n      dup6\n        /* \"#utility.yul\":21205:21284   */\n      tag_635\n      jump\t// in\n    tag_869:\n        /* \"#utility.yul\":21294:21366   */\n      tag_870\n        /* \"#utility.yul\":21362:21364   */\n      0x20\n        /* \"#utility.yul\":21351:21360   */\n      dup4\n        /* \"#utility.yul\":21347:21365   */\n      add\n        /* \"#utility.yul\":21338:21344   */\n      dup5\n        /* \"#utility.yul\":21294:21366   */\n      tag_571\n      jump\t// in\n    tag_870:\n        /* \"#utility.yul\":21025:21373   */\n      swap4\n      swap3\n      pop\n      pop\n      pop\n      jump\t// out\n        /* \"#utility.yul\":21379:21604   */\n    tag_636:\n        /* \"#utility.yul\":21519:21553   */\n      0x4f776e61626c653a206e6577206f776e657220697320746865207a65726f2061\n        /* \"#utility.yul\":21515:21516   */\n      0x00\n        /* \"#utility.yul\":21507:21513   */\n      dup3\n        /* \"#utility.yul\":21503:21517   */\n      add\n        /* \"#utility.yul\":21496:21554   */\n      mstore\n        /* \"#utility.yul\":21588:21596   */\n      0x6464726573730000000000000000000000000000000000000000000000000000\n        /* \"#utility.yul\":21583:21585   */\n      0x20\n        /* \"#utility.yul\":21575:21581   */\n      dup3\n        /* \"#utility.yul\":21571:21586   */\n      add\n        /* \"#utility.yul\":21564:21597   */\n      mstore\n        /* \"#utility.yul\":21379:21604   */\n      pop\n      jump\t// out\n        /* \"#utility.yul\":21610:21976   */\n    tag_637:\n        /* \"#utility.yul\":21752:21755   */\n      0x00\n        /* \"#utility.yul\":21773:21840   */\n      tag_873\n        /* \"#utility.yul\":21837:21839   */\n      0x26\n        /* \"#utility.yul\":21832:21835   */\n      dup4\n        /* \"#utility.yul\":21773:21840   */\n      tag_621\n      jump\t// in\n    tag_873:\n        /* \"#utility.yul\":21766:21840   */\n      swap2\n      pop\n        /* \"#utility.yul\":21849:21942   */\n      tag_874\n        /* \"#utility.yul\":21938:21941   */\n      dup3\n        /* \"#utility.yul\":21849:21942   */\n      tag_636\n      jump\t// in\n    tag_874:\n        /* \"#utility.yul\":21967:21969   */\n      0x40\n        /* \"#utility.yul\":21962:21965   */\n      dup3\n        /* \"#utility.yul\":21958:21970   */\n      add\n        /* \"#utility.yul\":21951:21970   */\n      swap1\n      pop\n        /* \"#utility.yul\":21610:21976   */\n      swap2\n      swap1\n      pop\n      jump\t// out\n        /* \"#utility.yul\":21982:22401   */\n    tag_448:\n        /* \"#utility.yul\":22148:22152   */\n      0x00\n        /* \"#utility.yul\":22186:22188   */\n      0x20\n        /* \"#utility.yul\":22175:22184   */\n      dup3\n        /* \"#utility.yul\":22171:22189   */\n      add\n        /* \"#utility.yul\":22163:22189   */\n      swap1\n      pop\n        /* \"#utility.yul\":22235:22244   */\n      dup2\n        /* \"#utility.yul\":22229:22233   */\n      dup2\n        /* \"#utility.yul\":22225:22245   */\n      sub\n        /* \"#utility.yul\":22221:22222   */\n      0x00\n        /* \"#utility.yul\":22210:22219   */\n      dup4\n        /* \"#utility.yul\":22206:22223   */\n      add\n        /* \"#utility.yul\":22199:22246   */\n      mstore\n        /* \"#utility.yul\":22263:22394   */\n      tag_876\n        /* \"#utility.yul\":22389:22393   */\n      dup2\n        /* \"#utility.yul\":22263:22394   */\n      tag_637\n      jump\t// in\n    tag_876:\n        /* \"#utility.yul\":22255:22394   */\n      swap1\n      pop\n        /* \"#utility.yul\":21982:22401   */\n      swap2\n      swap1\n      pop\n      jump\t// out\n        /* \"#utility.yul\":22407:22576   */\n    tag_638:\n        /* \"#utility.yul\":22547:22568   */\n      0x526f756e6420616c726561647920656e64656400000000000000000000000000\n        /* \"#utility.yul\":22543:22544   */\n      0x00\n        /* \"#utility.yul\":22535:22541   */\n      dup3\n        /* \"#utility.yul\":22531:22545   */\n      add\n        /* \"#utility.yul\":22524:22569   */\n      mstore\n        /* \"#utility.yul\":22407:22576   */\n      pop\n      jump\t// out\n        /* \"#utility.yul\":22582:22948   */\n    tag_639:\n        /* \"#utility.yul\":22724:22727   */\n      0x00\n        /* \"#utility.yul\":22745:22812   */\n      tag_879\n        /* \"#utility.yul\":22809:22811   */\n      0x13\n        /* \"#utility.yul\":22804:22807   */\n      dup4\n        /* \"#utility.yul\":22745:22812   */\n      tag_621\n      jump\t// in\n    tag_879:\n        /* \"#utility.yul\":22738:22812   */\n      swap2\n      pop\n        /* \"#utility.yul\":22821:22914   */\n      tag_880\n        /* \"#utility.yul\":22910:22913   */\n      dup3\n        /* \"#utility.yul\":22821:22914   */\n      tag_638\n      jump\t// in\n    tag_880:\n        /* \"#utility.yul\":22939:22941   */\n      0x20\n        /* \"#utility.yul\":22934:22937   */\n      dup3\n        /* \"#utility.yul\":22930:22942   */\n      add\n        /* \"#utility.yul\":22923:22942   */\n      swap1\n      pop\n        /* \"#utility.yul\":22582:22948   */\n      swap2\n      swap1\n      pop\n      jump\t// out\n        /* \"#utility.yul\":22954:23373   */\n    tag_462:\n        /* \"#utility.yul\":23120:23124   */\n      0x00\n        /* \"#utility.yul\":23158:23160   */\n      0x20\n        /* \"#utility.yul\":23147:23156   */\n      dup3\n        /* \"#utility.yul\":23143:23161   */\n      add\n        /* \"#utility.yul\":23135:23161   */\n      swap1\n      pop\n        /* \"#utility.yul\":23207:23216   */\n      dup2\n        /* \"#utility.yul\":23201:23205   */\n      dup2\n        /* \"#utility.yul\":23197:23217   */\n      sub\n        /* \"#utility.yul\":23193:23194   */\n      0x00\n        /* \"#utility.yul\":23182:23191   */\n      dup4\n        /* \"#utility.yul\":23178:23195   */\n      add\n        /* \"#utility.yul\":23171:23218   */\n      mstore\n        /* \"#utility.yul\":23235:23366   */\n      tag_882\n        /* \"#utility.yul\":23361:23365   */\n      dup2\n        /* \"#utility.yul\":23235:23366   */\n      tag_639\n      jump\t// in\n    tag_882:\n        /* \"#utility.yul\":23227:23366   */\n      swap1\n      pop\n        /* \"#utility.yul\":22954:23373   */\n      swap2\n      swap1\n      pop\n      jump\t// out\n        /* \"#utility.yul\":23379:23550   */\n    tag_640:\n        /* \"#utility.yul\":23519:23542   */\n      0x54686520726f756e64206e6f7420656e6474696d650000000000000000000000\n        /* \"#utility.yul\":23515:23516   */\n      0x00\n        /* \"#utility.yul\":23507:23513   */\n      dup3\n        /* \"#utility.yul\":23503:23517   */\n      add\n        /* \"#utility.yul\":23496:23543   */\n      mstore\n        /* \"#utility.yul\":23379:23550   */\n      pop\n      jump\t// out\n        /* \"#utility.yul\":23556:23922   */\n    tag_641:\n        /* \"#utility.yul\":23698:23701   */\n      0x00\n        /* \"#utility.yul\":23719:23786   */\n      tag_885\n        /* \"#utility.yul\":23783:23785   */\n      0x15\n        /* \"#utility.yul\":23778:23781   */\n      dup4\n        /* \"#utility.yul\":23719:23786   */\n      tag_621\n      jump\t// in\n    tag_885:\n        /* \"#utility.yul\":23712:23786   */\n      swap2\n      pop\n        /* \"#utility.yul\":23795:23888   */\n      tag_886\n        /* \"#utility.yul\":23884:23887   */\n      dup3\n        /* \"#utility.yul\":23795:23888   */\n      tag_640\n      jump\t// in\n    tag_886:\n        /* \"#utility.yul\":23913:23915   */\n      0x20\n        /* \"#utility.yul\":23908:23911   */\n      dup3\n        /* \"#utility.yul\":23904:23916   */\n      add\n        /* \"#utility.yul\":23897:23916   */\n      swap1\n      pop\n        /* \"#utility.yul\":23556:23922   */\n      swap2\n      swap1\n      pop\n      jump\t// out\n        /* \"#utility.yul\":23928:24347   */\n    tag_469:\n        /* \"#utility.yul\":24094:24098   */\n      0x00\n        /* \"#utility.yul\":24132:24134   */\n      0x20\n        /* \"#utility.yul\":24121:24130   */\n      dup3\n        /* \"#utility.yul\":24117:24135   */\n      add\n        /* \"#utility.yul\":24109:24135   */\n      swap1\n      pop\n        /* \"#utility.yul\":24181:24190   */\n      dup2\n        /* \"#utility.yul\":24175:24179   */\n      dup2\n        /* \"#utility.yul\":24171:24191   */\n      sub\n        /* \"#utility.yul\":24167:24168   */\n      0x00\n        /* \"#utility.yul\":24156:24165   */\n      dup4\n        /* \"#utility.yul\":24152:24169   */\n      add\n        /* \"#utility.yul\":24145:24192   */\n      mstore\n        /* \"#utility.yul\":24209:24340   */\n      tag_888\n        /* \"#utility.yul\":24335:24339   */\n      dup2\n        /* \"#utility.yul\":24209:24340   */\n      tag_641\n      jump\t// in\n    tag_888:\n        /* \"#utility.yul\":24201:24340   */\n      swap1\n      pop\n        /* \"#utility.yul\":23928:24347   */\n      swap2\n      swap1\n      pop\n      jump\t// out\n        /* \"#utility.yul\":24353:24520   */\n    tag_642:\n        /* \"#utility.yul\":24493:24512   */\n      0x526f756e6420696e2070726f6772657373000000000000000000000000000000\n        /* \"#utility.yul\":24489:24490   */\n      0x00\n        /* \"#utility.yul\":24481:24487   */\n      dup3\n        /* \"#utility.yul\":24477:24491   */\n      add\n        /* \"#utility.yul\":24470:24513   */\n      mstore\n        /* \"#utility.yul\":24353:24520   */\n      pop\n      jump\t// out\n        /* \"#utility.yul\":24526:24892   */\n    tag_643:\n        /* \"#utility.yul\":24668:24671   */\n      0x00\n        /* \"#utility.yul\":24689:24756   */\n      tag_891\n        /* \"#utility.yul\":24753:24755   */\n      0x11\n        /* \"#utility.yul\":24748:24751   */\n      dup4\n        /* \"#utility.yul\":24689:24756   */\n      tag_621\n      jump\t// in\n    tag_891:\n        /* \"#utility.yul\":24682:24756   */\n      swap2\n      pop\n        /* \"#utility.yul\":24765:24858   */\n      tag_892\n        /* \"#utility.yul\":24854:24857   */\n      dup3\n        /* \"#utility.yul\":24765:24858   */\n      tag_642\n      jump\t// in\n    tag_892:\n        /* \"#utility.yul\":24883:24885   */\n      0x20\n        /* \"#utility.yul\":24878:24881   */\n      dup3\n        /* \"#utility.yul\":24874:24886   */\n      add\n        /* \"#utility.yul\":24867:24886   */\n      swap1\n      pop\n        /* \"#utility.yul\":24526:24892   */\n      swap2\n      swap1\n      pop\n      jump\t// out\n        /* \"#utility.yul\":24898:25317   */\n    tag_489:\n        /* \"#utility.yul\":25064:25068   */\n      0x00\n        /* \"#utility.yul\":25102:25104   */\n      0x20\n        /* \"#utility.yul\":25091:25100   */\n      dup3\n        /* \"#utility.yul\":25087:25105   */\n      add\n        /* \"#utility.yul\":25079:25105   */\n      swap1\n      pop\n        /* \"#utility.yul\":25151:25160   */\n      dup2\n        /* \"#utility.yul\":25145:25149   */\n      dup2\n        /* \"#utility.yul\":25141:25161   */\n      sub\n        /* \"#utility.yul\":25137:25138   */\n      0x00\n        /* \"#utility.yul\":25126:25135   */\n      dup4\n        /* \"#utility.yul\":25122:25139   */\n      add\n        /* \"#utility.yul\":25115:25162   */\n      mstore\n        /* \"#utility.yul\":25179:25310   */\n      tag_894\n        /* \"#utility.yul\":25305:25309   */\n      dup2\n        /* \"#utility.yul\":25179:25310   */\n      tag_643\n      jump\t// in\n    tag_894:\n        /* \"#utility.yul\":25171:25310   */\n      swap1\n      pop\n        /* \"#utility.yul\":24898:25317   */\n      swap2\n      swap1\n      pop\n      jump\t// out\n        /* \"#utility.yul\":25323:25400   */\n    tag_644:\n        /* \"#utility.yul\":25360:25367   */\n      0x00\n        /* \"#utility.yul\":25389:25394   */\n      dup2\n        /* \"#utility.yul\":25378:25394   */\n      swap1\n      pop\n        /* \"#utility.yul\":25323:25400   */\n      swap2\n      swap1\n      pop\n      jump\t// out\n        /* \"#utility.yul\":25406:25524   */\n    tag_645:\n        /* \"#utility.yul\":25493:25517   */\n      tag_897\n        /* \"#utility.yul\":25511:25516   */\n      dup2\n        /* \"#utility.yul\":25493:25517   */\n      tag_644\n      jump\t// in\n    tag_897:\n        /* \"#utility.yul\":25488:25491   */\n      dup3\n        /* \"#utility.yul\":25481:25518   */\n      mstore\n        /* \"#utility.yul\":25406:25524   */\n      pop\n      pop\n      jump\t// out\n        /* \"#utility.yul\":25530:25862   */\n    tag_521:\n        /* \"#utility.yul\":25651:25655   */\n      0x00\n        /* \"#utility.yul\":25689:25691   */\n      0x40\n        /* \"#utility.yul\":25678:25687   */\n      dup3\n        /* \"#utility.yul\":25674:25692   */\n      add\n        /* \"#utility.yul\":25666:25692   */\n      swap1\n      pop\n        /* \"#utility.yul\":25702:25773   */\n      tag_899\n        /* \"#utility.yul\":25770:25771   */\n      0x00\n        /* \"#utility.yul\":25759:25768   */\n      dup4\n        /* \"#utility.yul\":25755:25772   */\n      add\n        /* \"#utility.yul\":25746:25752   */\n      dup6\n        /* \"#utility.yul\":25702:25773   */\n      tag_645\n      jump\t// in\n    tag_899:\n        /* \"#utility.yul\":25783:25855   */\n      tag_900\n        /* \"#utility.yul\":25851:25853   */\n      0x20\n        /* \"#utility.yul\":25840:25849   */\n      dup4\n        /* \"#utility.yul\":25836:25854   */\n      add\n        /* \"#utility.yul\":25827:25833   */\n      dup5\n        /* \"#utility.yul\":25783:25855   */\n      tag_571\n      jump\t// in\n    tag_900:\n        /* \"#utility.yul\":25530:25862   */\n      swap4\n      swap3\n      pop\n      pop\n      pop\n      jump\t// out\n        /* \"#utility.yul\":25868:26048   */\n    tag_646:\n        /* \"#utility.yul\":25916:25993   */\n      0x4e487b7100000000000000000000000000000000000000000000000000000000\n        /* \"#utility.yul\":25913:25914   */\n      0x00\n        /* \"#utility.yul\":25906:25994   */\n      mstore\n        /* \"#utility.yul\":26013:26017   */\n      0x12\n        /* \"#utility.yul\":26010:26011   */\n      0x04\n        /* \"#utility.yul\":26003:26018   */\n      mstore\n        /* \"#utility.yul\":26037:26041   */\n      0x24\n        /* \"#utility.yul\":26034:26035   */\n      0x00\n        /* \"#utility.yul\":26027:26042   */\n      revert\n        /* \"#utility.yul\":26054:26230   */\n    tag_523:\n        /* \"#utility.yul\":26086:26087   */\n      0x00\n        /* \"#utility.yul\":26103:26123   */\n      tag_903\n        /* \"#utility.yul\":26121:26122   */\n      dup3\n        /* \"#utility.yul\":26103:26123   */\n      tag_570\n      jump\t// in\n    tag_903:\n        /* \"#utility.yul\":26098:26123   */\n      swap2\n      pop\n        /* \"#utility.yul\":26137:26157   */\n      tag_904\n        /* \"#utility.yul\":26155:26156   */\n      dup4\n        /* \"#utility.yul\":26137:26157   */\n      tag_570\n      jump\t// in\n    tag_904:\n        /* \"#utility.yul\":26132:26157   */\n      swap3\n      pop\n        /* \"#utility.yul\":26176:26177   */\n      dup3\n        /* \"#utility.yul\":26166:26201   */\n      tag_905\n      jumpi\n        /* \"#utility.yul\":26181:26199   */\n      tag_906\n      tag_646\n      jump\t// in\n    tag_906:\n        /* \"#utility.yul\":26166:26201   */\n    tag_905:\n        /* \"#utility.yul\":26222:26223   */\n      dup3\n        /* \"#utility.yul\":26219:26220   */\n      dup3\n        /* \"#utility.yul\":26215:26224   */\n      mod\n        /* \"#utility.yul\":26210:26224   */\n      swap1\n      pop\n        /* \"#utility.yul\":26054:26230   */\n      swap3\n      swap2\n      pop\n      pop\n      jump\t// out\n\n    auxdata: 0xa26469706673582212201f4408b264060b51cb5a4a36cfd506219f43e09ba981b5a65a9b43aa413a3bb764736f6c63430008110033\n}\n",
				"bytecode": {
					"linkReferences": {},
					"object": "60806040523480156200001157600080fd5b50604051620036c8380380620036c8833981810160405281019062000037919062000481565b620000576200004b620000c760201b60201c565b620000cf60201b60201c565b83600160006101000a81548173ffffffffffffffffffffffffffffffffffffffff021916908373ffffffffffffffffffffffffffffffffffffffff160217905550826006819055508160028190555080600381905550620000bd6200019360201b60201c565b5050505062000679565b600033905090565b60008060009054906101000a900473ffffffffffffffffffffffffffffffffffffffff169050816000806101000a81548173ffffffffffffffffffffffffffffffffffffffff021916908373ffffffffffffffffffffffffffffffffffffffff1602179055508173ffffffffffffffffffffffffffffffffffffffff168173ffffffffffffffffffffffffffffffffffffffff167f8be0079c531659141344cd1fd0a4f28419497f9722a3daafe3b4186f6b6457e060405160405180910390a35050565b60006004805490501180156200021b5750600180811115620001ba57620001b9620004f3565b5b60046001600480549050620001d0919062000551565b81548110620001e457620001e36200058c565b5b90600052602060002090600b020160020160009054906101000a900460ff166001811115620002185762000217620004f3565b5b14155b156200025e576040517f08c379a000000000000000000000000000000000000000000000000000000000815260040162000255906200061c565b60405180910390fd5b6200026862000356565b60006040518060a00160405280428152602001600654426200028b91906200063e565b815260200160006001811115620002a757620002a6620004f3565b5b81526020018381526020016000815250905060048190806001815401808255809150506001900390600052602060002090600b0201600090919091909150600082015181600001556020820151816001015560408201518160020160006101000a81548160ff02191690836001811115620003275762000326620004f3565b5b02179055506060820151816003019060076200034592919062000378565b50608082015181600a015550505050565b6040518060e00160405280600790602082028036833780820191505090505090565b8260078101928215620003aa579160200282015b82811115620003a95782518255916020019190600101906200038c565b5b509050620003b99190620003bd565b5090565b5b80821115620003d8576000816000905550600101620003be565b5090565b600080fd5b600073ffffffffffffffffffffffffffffffffffffffff82169050919050565b60006200040e82620003e1565b9050919050565b620004208162000401565b81146200042c57600080fd5b50565b600081519050620004408162000415565b92915050565b6000819050919050565b6200045b8162000446565b81146200046757600080fd5b50565b6000815190506200047b8162000450565b92915050565b600080600080608085870312156200049e576200049d620003dc565b5b6000620004ae878288016200042f565b9450506020620004c1878288016200046a565b9350506040620004d4878288016200046a565b9250506060620004e7878288016200046a565b91505092959194509250565b7f4e487b7100000000000000000000000000000000000000000000000000000000600052602160045260246000fd5b7f4e487b7100000000000000000000000000000000000000000000000000000000600052601160045260246000fd5b60006200055e8262000446565b91506200056b8362000446565b925082820390508181111562000586576200058562000522565b5b92915050565b7f4e487b7100000000000000000000000000000000000000000000000000000000600052603260045260246000fd5b600082825260208201905092915050565b7f526f756e6420696e2070726f6772657373000000000000000000000000000000600082015250565b600062000604601183620005bb565b91506200061182620005cc565b602082019050919050565b600060208201905081810360008301526200063781620005f5565b9050919050565b60006200064b8262000446565b9150620006588362000446565b925082820190508082111562000673576200067262000522565b5b92915050565b61303f80620006896000396000f3fe6080604052600436106101405760003560e01c80638c65c81f116100b6578063bedf0f4a1161006f578063bedf0f4a1461042b578063dd8ab8f914610442578063e12ed13c1461046d578063f2fde38b14610498578063fc0c546a146104c1578063fea9b572146104ec57610140565b80638c65c81f146103155780638cd85dc2146103555780638da5cb5b14610392578063a2b40d19146103bd578063a8bd5634146103e6578063b55585621461040257610140565b806349c4e5b81161010857806349c4e5b81461021657806350b447121461024157806363c756071461027f5780636f9fb98a146102a8578063715018a6146102d35780637157c113146102ea57610140565b80631a95f15f14610145578063379607f51461017057806344352d0a1461019957806346583a26146101d657806347e40553146101ff575b600080fd5b34801561015157600080fd5b5061015a610517565b60405161016791906122e3565b60405180910390f35b34801561017c57600080fd5b5061019760048036038101906101929190612339565b61051d565b005b3480156101a557600080fd5b506101c060048036038101906101bb9190612339565b61081d565b6040516101cd91906124c0565b60405180910390f35b3480156101e257600080fd5b506101fd60048036038101906101f89190612629565b610abc565b005b34801561020b57600080fd5b50610214610fc6565b005b34801561022257600080fd5b5061022b611063565b60405161023891906122e3565b60405180910390f35b34801561024d57600080fd5b5061026860048036038101906102639190612339565b611069565b604051610276929190612697565b60405180910390f35b34801561028b57600080fd5b506102a660048036038101906102a19190612339565b6110bd565b005b3480156102b457600080fd5b506102bd611143565b6040516102ca91906122e3565b60405180910390f35b3480156102df57600080fd5b506102e861114b565b005b3480156102f657600080fd5b506102ff6111d3565b60405161030c91906122e3565b60405180910390f35b34801561032157600080fd5b5061033c60048036038101906103379190612339565b6111d9565b60405161034c9493929190612737565b60405180910390f35b34801561036157600080fd5b5061037c60048036038101906103779190612339565b611226565b6040516103899190612800565b60405180910390f35b34801561039e57600080fd5b506103a7611296565b6040516103b4919061281b565b60405180910390f35b3480156103c957600080fd5b506103e460048036038101906103df9190612339565b6112bf565b005b61040060048036038101906103fb9190612629565b611345565b005b34801561040e57600080fd5b5061042960048036038101906104249190612874565b61170e565b005b34801561043757600080fd5b506104406118c9565b005b34801561044e57600080fd5b506104576119b6565b60405161046491906122e3565b60405180910390f35b34801561047957600080fd5b506104826119bb565b60405161048f91906122e3565b60405180910390f35b3480156104a457600080fd5b506104bf60048036038101906104ba91906128cd565b6119c1565b005b3480156104cd57600080fd5b506104d6611ab8565b6040516104e39190612959565b60405180910390f35b3480156104f857600080fd5b50610501611ade565b60405161050e91906122e3565b60405180910390f35b60025481565b3373ffffffffffffffffffffffffffffffffffffffff166005828154811061054857610547612974565b5b906000526020600020906008020160000160009054906101000a900473ffffffffffffffffffffffffffffffffffffffff1673ffffffffffffffffffffffffffffffffffffffff161461059a57600080fd5b6001808111156105ad576105ac6126c0565b5b6004600583815481106105c3576105c2612974565b5b906000526020600020906008020160010154815481106105e6576105e5612974565b5b90600052602060002090600b020160020160009054906101000a900460ff166001811115610617576106166126c0565b5b1461062157600080fd5b60006005828154811061063757610636612974565b5b9060005260206000209060080201600201905060006004600160048054905061066091906129d2565b8154811061067157610670612974565b5b90600052602060002090600b02016003019050600080600080600090505b600681101561074a5760005b600160076106a991906129d2565b811015610736578581600781106106c3576106c2612974565b5b01548783600681106106d8576106d7612974565b5b0154036106ee5783806106ea90612a06565b9450505b8560066007811061070257610701612974565b5b015487836006811061071757610716612974565b5b01540361072357600192505b808061072e90612a06565b91505061069b565b50808061074290612a06565b91505061068f565b506006820361075b5747925061076a565b6005821480156107685750805b505b6005868154811061077e5761077d612974565b5b9060005260206000209060080201600080820160006101000a81549073ffffffffffffffffffffffffffffffffffffffff021916905560018201600090556002820160006107cc91906121d6565b50503373ffffffffffffffffffffffffffffffffffffffff166108fc849081150290604051600060405180830381858888f19350505050158015610814573d6000803e3d6000fd5b50505050505050565b606060008060005b6005805490508110156108fd573373ffffffffffffffffffffffffffffffffffffffff166005828154811061085d5761085c612974565b5b906000526020600020906008020160000160009054906101000a900473ffffffffffffffffffffffffffffffffffffffff1673ffffffffffffffffffffffffffffffffffffffff161480156108d6575084600582815481106108c2576108c1612974565b5b906000526020600020906008020160010154145b156108ea5782806108e690612a06565b9350505b80806108f590612a06565b915050610825565b5060008267ffffffffffffffff81111561091a576109196124f8565b5b60405190808252806020026020018201604052801561095357816020015b6109406121e9565b8152602001906001900390816109385790505b50905060005b600580549050811015610ab0573373ffffffffffffffffffffffffffffffffffffffff166005828154811061099157610990612974565b5b906000526020600020906008020160000160009054906101000a900473ffffffffffffffffffffffffffffffffffffffff1673ffffffffffffffffffffffffffffffffffffffff16148015610a0a575085600582815481106109f6576109f5612974565b5b906000526020600020906008020160010154145b15610a9d5760058181548110610a2357610a22612974565b5b9060005260206000209060080201600201600680602002604051908101604052809291908260068015610a6b576020028201915b815481526020019060010190808311610a57575b5050505050828481518110610a8357610a82612974565b5b60200260200101819052508280610a9990612a06565b9350505b8080610aa890612a06565b915050610959565b50809350505050919050565b4260046001600480549050610ad191906129d2565b81548110610ae257610ae1612974565b5b90600052602060002090600b0201600101541015610b35576040517f08c379a0000000000000000000000000000000000000000000000000000000008152600401610b2c90612aab565b60405180910390fd5b600180811115610b4857610b476126c0565b5b60046001600480549050610b5c91906129d2565b81548110610b6d57610b6c612974565b5b90600052602060002090600b020160020160009054906101000a900460ff166001811115610b9e57610b9d6126c0565b5b03610bde576040517f08c379a0000000000000000000000000000000000000000000000000000000008152600401610bd590612aab565b60405180910390fd5b600354600160009054906101000a900473ffffffffffffffffffffffffffffffffffffffff1673ffffffffffffffffffffffffffffffffffffffff166370a08231336040518263ffffffff1660e01b8152600401610c3c919061281b565b602060405180830381865afa158015610c59573d6000803e3d6000fd5b505050506040513d601f19601f82011682018060405250810190610c7d9190612ae0565b1015610cbe576040517f08c379a0000000000000000000000000000000000000000000000000000000008152600401610cb590612b59565b60405180910390fd5b60005b60016006610ccf91906129d2565b811015610d52576000600182610ce59190612b79565b90505b6006811015610d3e57828160068110610d0457610d03612974565b5b6020020151838360068110610d1c57610d1b612974565b5b602002015103610d2b57600080fd5b8080610d3690612a06565b915050610ce8565b508080610d4a90612a06565b915050610cc1565b5060005b6006811015610df1576001828260068110610d7457610d73612974565b5b602002015110158015610d9f5750602d828260068110610d9757610d96612974565b5b602002015111155b610dde576040517f08c379a0000000000000000000000000000000000000000000000000000000008152600401610dd590612c1f565b60405180910390fd5b8080610de990612a06565b915050610d56565b50600160009054906101000a900473ffffffffffffffffffffffffffffffffffffffff1673ffffffffffffffffffffffffffffffffffffffff166323b872dd33306003546040518463ffffffff1660e01b8152600401610e5393929190612c3f565b6020604051808303816000875af1158015610e72573d6000803e3d6000fd5b505050506040513d601f19601f82011682018060405250810190610e969190612cae565b50600060405180606001604052803373ffffffffffffffffffffffffffffffffffffffff1681526020016001600480549050610ed291906129d2565b8152602001838152509050600581908060018154018082558091505060019003906000526020600020906008020160009091909190915060008201518160000160006101000a81548173ffffffffffffffffffffffffffffffffffffffff021916908373ffffffffffffffffffffffffffffffffffffffff16021790555060208201518160010155604082015181600201906006610f7192919061220b565b505050600160046001600480549050610f8a91906129d2565b81548110610f9b57610f9a612974565b5b90600052602060002090600b0201600a016000828254610fbb9190612b79565b925050819055505050565b610fce611ae3565b73ffffffffffffffffffffffffffffffffffffffff16610fec611296565b73ffffffffffffffffffffffffffffffffffffffff1614611042576040517f08c379a000000000000000000000000000000000000000000000000000000000815260040161103990612d27565b60405180910390fd5b6000600480549050111561105957611058611aeb565b5b611061611c76565b565b60035481565b6005818154811061107957600080fd5b90600052602060002090600802016000915090508060000160009054906101000a900473ffffffffffffffffffffffffffffffffffffffff16908060010154905082565b6110c5611ae3565b73ffffffffffffffffffffffffffffffffffffffff166110e3611296565b73ffffffffffffffffffffffffffffffffffffffff1614611139576040517f08c379a000000000000000000000000000000000000000000000000000000000815260040161113090612d27565b60405180910390fd5b8060068190555050565b600047905090565b611153611ae3565b73ffffffffffffffffffffffffffffffffffffffff16611171611296565b73ffffffffffffffffffffffffffffffffffffffff16146111c7576040517f08c379a00000000000000000000000000000000000000000000000000000000081526004016111be90612d27565b60405180910390fd5b6111d16000611e1e565b565b60065481565b600481815481106111e957600080fd5b90600052602060002090600b02016000915090508060000154908060010154908060020160009054906101000a900460ff169080600a0154905084565b61122e61224b565b6004828154811061124257611241612974565b5b90600052602060002090600b020160030160078060200260405190810160405280929190826007801561128a576020028201915b815481526020019060010190808311611276575b50505050509050919050565b60008060009054906101000a900473ffffffffffffffffffffffffffffffffffffffff16905090565b6112c7611ae3565b73ffffffffffffffffffffffffffffffffffffffff166112e5611296565b73ffffffffffffffffffffffffffffffffffffffff161461133b576040517f08c379a000000000000000000000000000000000000000000000000000000000815260040161133290612d27565b60405180910390fd5b8060028190555050565b426004600160048054905061135a91906129d2565b8154811061136b5761136a612974565b5b90600052602060002090600b02016001015410156113be576040517f08c379a00000000000000000000000000000000000000000000000000000000081526004016113b590612aab565b60405180910390fd5b6001808111156113d1576113d06126c0565b5b600460016004805490506113e591906129d2565b815481106113f6576113f5612974565b5b90600052602060002090600b020160020160009054906101000a900460ff166001811115611427576114266126c0565b5b03611467576040517f08c379a000000000000000000000000000000000000000000000000000000000815260040161145e90612aab565b60405180910390fd5b60025434146114ab576040517f08c379a00000000000000000000000000000000000000000000000000000000081526004016114a290612b59565b60405180910390fd5b60005b600160066114bc91906129d2565b81101561153f5760006001826114d29190612b79565b90505b600681101561152b578281600681106114f1576114f0612974565b5b602002015183836006811061150957611508612974565b5b60200201510361151857600080fd5b808061152390612a06565b9150506114d5565b50808061153790612a06565b9150506114ae565b5060005b60068110156115de57600182826006811061156157611560612974565b5b60200201511015801561158c5750602d82826006811061158457611583612974565b5b602002015111155b6115cb576040517f08c379a00000000000000000000000000000000000000000000000000000000081526004016115c290612c1f565b60405180910390fd5b80806115d690612a06565b915050611543565b50600060405180606001604052803373ffffffffffffffffffffffffffffffffffffffff168152602001600160048054905061161a91906129d2565b8152602001838152509050600581908060018154018082558091505060019003906000526020600020906008020160009091909190915060008201518160000160006101000a81548173ffffffffffffffffffffffffffffffffffffffff021916908373ffffffffffffffffffffffffffffffffffffffff160217905550602082015181600101556040820151816002019060066116b992919061220b565b5050506001600460016004805490506116d291906129d2565b815481106116e3576116e2612974565b5b90600052602060002090600b0201600a0160008282546117039190612b79565b925050819055505050565b611716611ae3565b73ffffffffffffffffffffffffffffffffffffffff16611734611296565b73ffffffffffffffffffffffffffffffffffffffff161461178a576040517f08c379a000000000000000000000000000000000000000000000000000000000815260040161178190612d27565b60405180910390fd5b600160009054906101000a900473ffffffffffffffffffffffffffffffffffffffff1673ffffffffffffffffffffffffffffffffffffffff1663a9059cbb82600160009054906101000a900473ffffffffffffffffffffffffffffffffffffffff1673ffffffffffffffffffffffffffffffffffffffff166370a08231306040518263ffffffff1660e01b8152600401611824919061281b565b602060405180830381865afa158015611841573d6000803e3d6000fd5b505050506040513d601f19601f820116820180604052508101906118659190612ae0565b6040518363ffffffff1660e01b8152600401611882929190612d68565b6020604051808303816000875af11580156118a1573d6000803e3d6000fd5b505050506040513d601f19601f820116820180604052508101906118c59190612cae565b5050565b6118d1611ae3565b73ffffffffffffffffffffffffffffffffffffffff166118ef611296565b73ffffffffffffffffffffffffffffffffffffffff1614611945576040517f08c379a000000000000000000000000000000000000000000000000000000000815260040161193c90612d27565b60405180910390fd5b60016004600160048054905061195b91906129d2565b8154811061196c5761196b612974565b5b90600052602060002090600b020160020160006101000a81548160ff0219169083600181111561199f5761199e6126c0565b5b02179055506119ac611ee2565b6119b4611c76565b565b600181565b60075481565b6119c9611ae3565b73ffffffffffffffffffffffffffffffffffffffff166119e7611296565b73ffffffffffffffffffffffffffffffffffffffff1614611a3d576040517f08c379a0000000000000000000000000000000000000000000000000000000008152600401611a3490612d27565b60405180910390fd5b600073ffffffffffffffffffffffffffffffffffffffff168173ffffffffffffffffffffffffffffffffffffffff1603611aac576040517f08c379a0000000000000000000000000000000000000000000000000000000008152600401611aa390612e03565b60405180910390fd5b611ab581611e1e565b50565b600160009054906101000a900473ffffffffffffffffffffffffffffffffffffffff1681565b602d81565b600033905090565b600180811115611afe57611afd6126c0565b5b60046001600480549050611b1291906129d2565b81548110611b2357611b22612974565b5b90600052602060002090600b020160020160009054906101000a900460ff166001811115611b5457611b536126c0565b5b03611b94576040517f08c379a0000000000000000000000000000000000000000000000000000000008152600401611b8b90612e6f565b60405180910390fd5b60046001600480549050611ba891906129d2565b81548110611bb957611bb8612974565b5b90600052602060002090600b020160010154421015611c0d576040517f08c379a0000000000000000000000000000000000000000000000000000000008152600401611c0490612edb565b60405180910390fd5b600160046001600480549050611c2391906129d2565b81548110611c3457611c33612974565b5b90600052602060002090600b020160020160006101000a81548160ff02191690836001811115611c6757611c666126c0565b5b0217905550611c74611ee2565b565b6000600480549050118015611cf25750600180811115611c9957611c986126c0565b5b60046001600480549050611cad91906129d2565b81548110611cbe57611cbd612974565b5b90600052602060002090600b020160020160009054906101000a900460ff166001811115611cef57611cee6126c0565b5b14155b15611d32576040517f08c379a0000000000000000000000000000000000000000000000000000000008152600401611d2990612f47565b60405180910390fd5b611d3a61224b565b60006040518060a0016040528042815260200160065442611d5b9190612b79565b815260200160006001811115611d7457611d736126c0565b5b81526020018381526020016000815250905060048190806001815401808255809150506001900390600052602060002090600b0201600090919091909150600082015181600001556020820151816001015560408201518160020160006101000a81548160ff02191690836001811115611df157611df06126c0565b5b0217905550606082015181600301906007611e0d92919061226d565b50608082015181600a015550505050565b60008060009054906101000a900473ffffffffffffffffffffffffffffffffffffffff169050816000806101000a81548173ffffffffffffffffffffffffffffffffffffffff021916908373ffffffffffffffffffffffffffffffffffffffff1602179055508173ffffffffffffffffffffffffffffffffffffffff168173ffffffffffffffffffffffffffffffffffffffff167f8be0079c531659141344cd1fd0a4f28419497f9722a3daafe3b4186f6b6457e060405160405180910390a35050565b600060046001600480549050611ef891906129d2565b81548110611f0957611f08612974565b5b90600052602060002090600b020160010154905060046001600480549050611f3191906129d2565b81548110611f4257611f41612974565b5b90600052602060002090600b0201600101544211611f5f57600080fd5b600060046001600480549050611f7591906129d2565b81548110611f8657611f85612974565b5b90600052602060002090600b0201600301600060078110611faa57611fa9612974565b5b015414611fb657600080fd5b6000805b60078210156121265760008340905060008183604051602001611fde929190612f80565b604051602081830303815290604052905060008180519060200120905060006001602d8360001c61200f9190612fd8565b6120199190612b79565b90506000805b878110156120a1576004600160048054905061203b91906129d2565b8154811061204c5761204b612974565b5b90600052602060002090600b0201600301816007811061206f5761206e612974565b5b0154830361208e5760019150868061208690612a06565b9750506120a1565b808061209990612a06565b91505061201f565b5080156120b2575050505050611fba565b81600460016004805490506120c791906129d2565b815481106120d8576120d7612974565b5b90600052602060002090600b020160030188600781106120fb576120fa612974565b5b0181905550868061210b90612a06565b975050858061211990612a06565b9650505050505050611fba565b60008340905060008183604051602001612141929190612f80565b604051602081830303815290604052905060008180519060200120905060006001602d8360001c6121729190612fd8565b61217c9190612b79565b9050806004600160048054905061219391906129d2565b815481106121a4576121a3612974565b5b90600052602060002090600b02016003016006600781106121c8576121c7612974565b5b018190555050505050505050565b5080600601906121e691906122ad565b50565b6040518060c00160405280600690602082028036833780820191505090505090565b826006810192821561223a579160200282015b8281111561223957825182559160200191906001019061221e565b5b50905061224791906122ad565b5090565b6040518060e00160405280600790602082028036833780820191505090505090565b826007810192821561229c579160200282015b8281111561229b578251825591602001919060010190612280565b5b5090506122a991906122ad565b5090565b5b808211156122c65760008160009055506001016122ae565b5090565b6000819050919050565b6122dd816122ca565b82525050565b60006020820190506122f860008301846122d4565b92915050565b6000604051905090565b600080fd5b612316816122ca565b811461232157600080fd5b50565b6000813590506123338161230d565b92915050565b60006020828403121561234f5761234e612308565b5b600061235d84828501612324565b91505092915050565b600081519050919050565b600082825260208201905092915050565b6000819050602082019050919050565b600060069050919050565b600081905092915050565b6000819050919050565b6123bb816122ca565b82525050565b60006123cd83836123b2565b60208301905092915050565b6000602082019050919050565b6123ef81612392565b6123f9818461239d565b9250612404826123a8565b8060005b8381101561243557815161241c87826123c1565b9650612427836123d9565b925050600181019050612408565b505050505050565b600061244983836123e6565b60c08301905092915050565b6000602082019050919050565b600061246d82612366565b6124778185612371565b935061248283612382565b8060005b838110156124b357815161249a888261243d565b97506124a583612455565b925050600181019050612486565b5085935050505092915050565b600060208201905081810360008301526124da8184612462565b905092915050565b600080fd5b6000601f19601f8301169050919050565b7f4e487b7100000000000000000000000000000000000000000000000000000000600052604160045260246000fd5b612530826124e7565b810181811067ffffffffffffffff8211171561254f5761254e6124f8565b5b80604052505050565b60006125626122fe565b905061256e8282612527565b919050565b600067ffffffffffffffff82111561258e5761258d6124f8565b5b602082029050919050565b600080fd5b60006125b16125ac84612573565b612558565b905080602084028301858111156125cb576125ca612599565b5b835b818110156125f457806125e08882612324565b8452602084019350506020810190506125cd565b5050509392505050565b600082601f830112612613576126126124e2565b5b600661262084828561259e565b91505092915050565b600060c0828403121561263f5761263e612308565b5b600061264d848285016125fe565b91505092915050565b600073ffffffffffffffffffffffffffffffffffffffff82169050919050565b600061268182612656565b9050919050565b61269181612676565b82525050565b60006040820190506126ac6000830185612688565b6126b960208301846122d4565b9392505050565b7f4e487b7100000000000000000000000000000000000000000000000000000000600052602160045260246000fd5b60028110612700576126ff6126c0565b5b50565b6000819050612711826126ef565b919050565b600061272182612703565b9050919050565b61273181612716565b82525050565b600060808201905061274c60008301876122d4565b61275960208301866122d4565b6127666040830185612728565b61277360608301846122d4565b95945050505050565b600060079050919050565b600081905092915050565b6000819050919050565b6000602082019050919050565b6127b28161277c565b6127bc8184612787565b92506127c782612792565b8060005b838110156127f85781516127df87826123c1565b96506127ea8361279c565b9250506001810190506127cb565b505050505050565b600060e08201905061281560008301846127a9565b92915050565b60006020820190506128306000830184612688565b92915050565b600061284182612656565b9050919050565b61285181612836565b811461285c57600080fd5b50565b60008135905061286e81612848565b92915050565b60006020828403121561288a57612889612308565b5b60006128988482850161285f565b91505092915050565b6128aa81612676565b81146128b557600080fd5b50565b6000813590506128c7816128a1565b92915050565b6000602082840312156128e3576128e2612308565b5b60006128f1848285016128b8565b91505092915050565b6000819050919050565b600061291f61291a61291584612656565b6128fa565b612656565b9050919050565b600061293182612904565b9050919050565b600061294382612926565b9050919050565b61295381612938565b82525050565b600060208201905061296e600083018461294a565b92915050565b7f4e487b7100000000000000000000000000000000000000000000000000000000600052603260045260246000fd5b7f4e487b7100000000000000000000000000000000000000000000000000000000600052601160045260246000fd5b60006129dd826122ca565b91506129e8836122ca565b9250828203905081811115612a00576129ff6129a3565b5b92915050565b6000612a11826122ca565b91507fffffffffffffffffffffffffffffffffffffffffffffffffffffffffffffffff8203612a4357612a426129a3565b5b600182019050919050565b600082825260208201905092915050565b7f526f756e6420456e640000000000000000000000000000000000000000000000600082015250565b6000612a95600983612a4e565b9150612aa082612a5f565b602082019050919050565b60006020820190508181036000830152612ac481612a88565b9050919050565b600081519050612ada8161230d565b92915050565b600060208284031215612af657612af5612308565b5b6000612b0484828501612acb565b91505092915050565b7f4e6f742076616c69642076616c75650000000000000000000000000000000000600082015250565b6000612b43600f83612a4e565b9150612b4e82612b0d565b602082019050919050565b60006020820190508181036000830152612b7281612b36565b9050919050565b6000612b84826122ca565b9150612b8f836122ca565b9250828201905080821115612ba757612ba66129a3565b5b92915050565b7f4f6e6c79206e756d626572732030207e2034352063616e20626520656e74657260008201527f6564000000000000000000000000000000000000000000000000000000000000602082015250565b6000612c09602283612a4e565b9150612c1482612bad565b604082019050919050565b60006020820190508181036000830152612c3881612bfc565b9050919050565b6000606082019050612c546000830186612688565b612c616020830185612688565b612c6e60408301846122d4565b949350505050565b60008115159050919050565b612c8b81612c76565b8114612c9657600080fd5b50565b600081519050612ca881612c82565b92915050565b600060208284031215612cc457612cc3612308565b5b6000612cd284828501612c99565b91505092915050565b7f4f776e61626c653a2063616c6c6572206973206e6f7420746865206f776e6572600082015250565b6000612d11602083612a4e565b9150612d1c82612cdb565b602082019050919050565b60006020820190508181036000830152612d4081612d04565b9050919050565b6000612d5282612926565b9050919050565b612d6281612d47565b82525050565b6000604082019050612d7d6000830185612d59565b612d8a60208301846122d4565b9392505050565b7f4f776e61626c653a206e6577206f776e657220697320746865207a65726f206160008201527f6464726573730000000000000000000000000000000000000000000000000000602082015250565b6000612ded602683612a4e565b9150612df882612d91565b604082019050919050565b60006020820190508181036000830152612e1c81612de0565b9050919050565b7f526f756e6420616c726561647920656e64656400000000000000000000000000600082015250565b6000612e59601383612a4e565b9150612e6482612e23565b602082019050919050565b60006020820190508181036000830152612e8881612e4c565b9050919050565b7f54686520726f756e64206e6f7420656e6474696d650000000000000000000000600082015250565b6000612ec5601583612a4e565b9150612ed082612e8f565b602082019050919050565b60006020820190508181036000830152612ef481612eb8565b9050919050565b7f526f756e6420696e2070726f6772657373000000000000000000000000000000600082015250565b6000612f31601183612a4e565b9150612f3c82612efb565b602082019050919050565b60006020820190508181036000830152612f6081612f24565b9050919050565b6000819050919050565b612f7a81612f67565b82525050565b6000604082019050612f956000830185612f71565b612fa260208301846122d4565b9392505050565b7f4e487b7100000000000000000000000000000000000000000000000000000000600052601260045260246000fd5b6000612fe3826122ca565b9150612fee836122ca565b925082612ffe57612ffd612fa9565b5b82820690509291505056fea26469706673582212201f4408b264060b51cb5a4a36cfd506219f43e09ba981b5a65a9b43aa413a3bb764736f6c63430008110033",
					"opcodes": "PUSH1 0x80 PUSH1 0x40 MSTORE CALLVALUE DUP1 ISZERO PUSH3 0x11 JUMPI PUSH1 0x0 DUP1 REVERT JUMPDEST POP PUSH1 0x40 MLOAD PUSH3 0x36C8 CODESIZE SUB DUP1 PUSH3 0x36C8 DUP4 CODECOPY DUP2 DUP2 ADD PUSH1 0x40 MSTORE DUP2 ADD SWAP1 PUSH3 0x37 SWAP2 SWAP1 PUSH3 0x481 JUMP JUMPDEST PUSH3 0x57 PUSH3 0x4B PUSH3 0xC7 PUSH1 0x20 SHL PUSH1 0x20 SHR JUMP JUMPDEST PUSH3 0xCF PUSH1 0x20 SHL PUSH1 0x20 SHR JUMP JUMPDEST DUP4 PUSH1 0x1 PUSH1 0x0 PUSH2 0x100 EXP DUP2 SLOAD DUP2 PUSH20 0xFFFFFFFFFFFFFFFFFFFFFFFFFFFFFFFFFFFFFFFF MUL NOT AND SWAP1 DUP4 PUSH20 0xFFFFFFFFFFFFFFFFFFFFFFFFFFFFFFFFFFFFFFFF AND MUL OR SWAP1 SSTORE POP DUP3 PUSH1 0x6 DUP2 SWAP1 SSTORE POP DUP2 PUSH1 0x2 DUP2 SWAP1 SSTORE POP DUP1 PUSH1 0x3 DUP2 SWAP1 SSTORE POP PUSH3 0xBD PUSH3 0x193 PUSH1 0x20 SHL PUSH1 0x20 SHR JUMP JUMPDEST POP POP POP POP PUSH3 0x679 JUMP JUMPDEST PUSH1 0x0 CALLER SWAP1 POP SWAP1 JUMP JUMPDEST PUSH1 0x0 DUP1 PUSH1 0x0 SWAP1 SLOAD SWAP1 PUSH2 0x100 EXP SWAP1 DIV PUSH20 0xFFFFFFFFFFFFFFFFFFFFFFFFFFFFFFFFFFFFFFFF AND SWAP1 POP DUP2 PUSH1 0x0 DUP1 PUSH2 0x100 EXP DUP2 SLOAD DUP2 PUSH20 0xFFFFFFFFFFFFFFFFFFFFFFFFFFFFFFFFFFFFFFFF MUL NOT AND SWAP1 DUP4 PUSH20 0xFFFFFFFFFFFFFFFFFFFFFFFFFFFFFFFFFFFFFFFF AND MUL OR SWAP1 SSTORE POP DUP2 PUSH20 0xFFFFFFFFFFFFFFFFFFFFFFFFFFFFFFFFFFFFFFFF AND DUP2 PUSH20 0xFFFFFFFFFFFFFFFFFFFFFFFFFFFFFFFFFFFFFFFF AND PUSH32 0x8BE0079C531659141344CD1FD0A4F28419497F9722A3DAAFE3B4186F6B6457E0 PUSH1 0x40 MLOAD PUSH1 0x40 MLOAD DUP1 SWAP2 SUB SWAP1 LOG3 POP POP JUMP JUMPDEST PUSH1 0x0 PUSH1 0x4 DUP1 SLOAD SWAP1 POP GT DUP1 ISZERO PUSH3 0x21B JUMPI POP PUSH1 0x1 DUP1 DUP2 GT ISZERO PUSH3 0x1BA JUMPI PUSH3 0x1B9 PUSH3 0x4F3 JUMP JUMPDEST JUMPDEST PUSH1 0x4 PUSH1 0x1 PUSH1 0x4 DUP1 SLOAD SWAP1 POP PUSH3 0x1D0 SWAP2 SWAP1 PUSH3 0x551 JUMP JUMPDEST DUP2 SLOAD DUP2 LT PUSH3 0x1E4 JUMPI PUSH3 0x1E3 PUSH3 0x58C JUMP JUMPDEST JUMPDEST SWAP1 PUSH1 0x0 MSTORE PUSH1 0x20 PUSH1 0x0 KECCAK256 SWAP1 PUSH1 0xB MUL ADD PUSH1 0x2 ADD PUSH1 0x0 SWAP1 SLOAD SWAP1 PUSH2 0x100 EXP SWAP1 DIV PUSH1 0xFF AND PUSH1 0x1 DUP2 GT ISZERO PUSH3 0x218 JUMPI PUSH3 0x217 PUSH3 0x4F3 JUMP JUMPDEST JUMPDEST EQ ISZERO JUMPDEST ISZERO PUSH3 0x25E JUMPI PUSH1 0x40 MLOAD PUSH32 0x8C379A000000000000000000000000000000000000000000000000000000000 DUP2 MSTORE PUSH1 0x4 ADD PUSH3 0x255 SWAP1 PUSH3 0x61C JUMP JUMPDEST PUSH1 0x40 MLOAD DUP1 SWAP2 SUB SWAP1 REVERT JUMPDEST PUSH3 0x268 PUSH3 0x356 JUMP JUMPDEST PUSH1 0x0 PUSH1 0x40 MLOAD DUP1 PUSH1 0xA0 ADD PUSH1 0x40 MSTORE DUP1 TIMESTAMP DUP2 MSTORE PUSH1 0x20 ADD PUSH1 0x6 SLOAD TIMESTAMP PUSH3 0x28B SWAP2 SWAP1 PUSH3 0x63E JUMP JUMPDEST DUP2 MSTORE PUSH1 0x20 ADD PUSH1 0x0 PUSH1 0x1 DUP2 GT ISZERO PUSH3 0x2A7 JUMPI PUSH3 0x2A6 PUSH3 0x4F3 JUMP JUMPDEST JUMPDEST DUP2 MSTORE PUSH1 0x20 ADD DUP4 DUP2 MSTORE PUSH1 0x20 ADD PUSH1 0x0 DUP2 MSTORE POP SWAP1 POP PUSH1 0x4 DUP2 SWAP1 DUP1 PUSH1 0x1 DUP2 SLOAD ADD DUP1 DUP3 SSTORE DUP1 SWAP2 POP POP PUSH1 0x1 SWAP1 SUB SWAP1 PUSH1 0x0 MSTORE PUSH1 0x20 PUSH1 0x0 KECCAK256 SWAP1 PUSH1 0xB MUL ADD PUSH1 0x0 SWAP1 SWAP2 SWAP1 SWAP2 SWAP1 SWAP2 POP PUSH1 0x0 DUP3 ADD MLOAD DUP2 PUSH1 0x0 ADD SSTORE PUSH1 0x20 DUP3 ADD MLOAD DUP2 PUSH1 0x1 ADD SSTORE PUSH1 0x40 DUP3 ADD MLOAD DUP2 PUSH1 0x2 ADD PUSH1 0x0 PUSH2 0x100 EXP DUP2 SLOAD DUP2 PUSH1 0xFF MUL NOT AND SWAP1 DUP4 PUSH1 0x1 DUP2 GT ISZERO PUSH3 0x327 JUMPI PUSH3 0x326 PUSH3 0x4F3 JUMP JUMPDEST JUMPDEST MUL OR SWAP1 SSTORE POP PUSH1 0x60 DUP3 ADD MLOAD DUP2 PUSH1 0x3 ADD SWAP1 PUSH1 0x7 PUSH3 0x345 SWAP3 SWAP2 SWAP1 PUSH3 0x378 JUMP JUMPDEST POP PUSH1 0x80 DUP3 ADD MLOAD DUP2 PUSH1 0xA ADD SSTORE POP POP POP POP JUMP JUMPDEST PUSH1 0x40 MLOAD DUP1 PUSH1 0xE0 ADD PUSH1 0x40 MSTORE DUP1 PUSH1 0x7 SWAP1 PUSH1 0x20 DUP3 MUL DUP1 CALLDATASIZE DUP4 CALLDATACOPY DUP1 DUP3 ADD SWAP2 POP POP SWAP1 POP POP SWAP1 JUMP JUMPDEST DUP3 PUSH1 0x7 DUP2 ADD SWAP3 DUP3 ISZERO PUSH3 0x3AA JUMPI SWAP2 PUSH1 0x20 MUL DUP3 ADD JUMPDEST DUP3 DUP2 GT ISZERO PUSH3 0x3A9 JUMPI DUP3 MLOAD DUP3 SSTORE SWAP2 PUSH1 0x20 ADD SWAP2 SWAP1 PUSH1 0x1 ADD SWAP1 PUSH3 0x38C JUMP JUMPDEST JUMPDEST POP SWAP1 POP PUSH3 0x3B9 SWAP2 SWAP1 PUSH3 0x3BD JUMP JUMPDEST POP SWAP1 JUMP JUMPDEST JUMPDEST DUP1 DUP3 GT ISZERO PUSH3 0x3D8 JUMPI PUSH1 0x0 DUP2 PUSH1 0x0 SWAP1 SSTORE POP PUSH1 0x1 ADD PUSH3 0x3BE JUMP JUMPDEST POP SWAP1 JUMP JUMPDEST PUSH1 0x0 DUP1 REVERT JUMPDEST PUSH1 0x0 PUSH20 0xFFFFFFFFFFFFFFFFFFFFFFFFFFFFFFFFFFFFFFFF DUP3 AND SWAP1 POP SWAP2 SWAP1 POP JUMP JUMPDEST PUSH1 0x0 PUSH3 0x40E DUP3 PUSH3 0x3E1 JUMP JUMPDEST SWAP1 POP SWAP2 SWAP1 POP JUMP JUMPDEST PUSH3 0x420 DUP2 PUSH3 0x401 JUMP JUMPDEST DUP2 EQ PUSH3 0x42C JUMPI PUSH1 0x0 DUP1 REVERT JUMPDEST POP JUMP JUMPDEST PUSH1 0x0 DUP2 MLOAD SWAP1 POP PUSH3 0x440 DUP2 PUSH3 0x415 JUMP JUMPDEST SWAP3 SWAP2 POP POP JUMP JUMPDEST PUSH1 0x0 DUP2 SWAP1 POP SWAP2 SWAP1 POP JUMP JUMPDEST PUSH3 0x45B DUP2 PUSH3 0x446 JUMP JUMPDEST DUP2 EQ PUSH3 0x467 JUMPI PUSH1 0x0 DUP1 REVERT JUMPDEST POP JUMP JUMPDEST PUSH1 0x0 DUP2 MLOAD SWAP1 POP PUSH3 0x47B DUP2 PUSH3 0x450 JUMP JUMPDEST SWAP3 SWAP2 POP POP JUMP JUMPDEST PUSH1 0x0 DUP1 PUSH1 0x0 DUP1 PUSH1 0x80 DUP6 DUP8 SUB SLT ISZERO PUSH3 0x49E JUMPI PUSH3 0x49D PUSH3 0x3DC JUMP JUMPDEST JUMPDEST PUSH1 0x0 PUSH3 0x4AE DUP8 DUP3 DUP9 ADD PUSH3 0x42F JUMP JUMPDEST SWAP5 POP POP PUSH1 0x20 PUSH3 0x4C1 DUP8 DUP3 DUP9 ADD PUSH3 0x46A JUMP JUMPDEST SWAP4 POP POP PUSH1 0x40 PUSH3 0x4D4 DUP8 DUP3 DUP9 ADD PUSH3 0x46A JUMP JUMPDEST SWAP3 POP POP PUSH1 0x60 PUSH3 0x4E7 DUP8 DUP3 DUP9 ADD PUSH3 0x46A JUMP JUMPDEST SWAP2 POP POP SWAP3 SWAP6 SWAP2 SWAP5 POP SWAP3 POP JUMP JUMPDEST PUSH32 0x4E487B7100000000000000000000000000000000000000000000000000000000 PUSH1 0x0 MSTORE PUSH1 0x21 PUSH1 0x4 MSTORE PUSH1 0x24 PUSH1 0x0 REVERT JUMPDEST PUSH32 0x4E487B7100000000000000000000000000000000000000000000000000000000 PUSH1 0x0 MSTORE PUSH1 0x11 PUSH1 0x4 MSTORE PUSH1 0x24 PUSH1 0x0 REVERT JUMPDEST PUSH1 0x0 PUSH3 0x55E DUP3 PUSH3 0x446 JUMP JUMPDEST SWAP2 POP PUSH3 0x56B DUP4 PUSH3 0x446 JUMP JUMPDEST SWAP3 POP DUP3 DUP3 SUB SWAP1 POP DUP2 DUP2 GT ISZERO PUSH3 0x586 JUMPI PUSH3 0x585 PUSH3 0x522 JUMP JUMPDEST JUMPDEST SWAP3 SWAP2 POP POP JUMP JUMPDEST PUSH32 0x4E487B7100000000000000000000000000000000000000000000000000000000 PUSH1 0x0 MSTORE PUSH1 0x32 PUSH1 0x4 MSTORE PUSH1 0x24 PUSH1 0x0 REVERT JUMPDEST PUSH1 0x0 DUP3 DUP3 MSTORE PUSH1 0x20 DUP3 ADD SWAP1 POP SWAP3 SWAP2 POP POP JUMP JUMPDEST PUSH32 0x526F756E6420696E2070726F6772657373000000000000000000000000000000 PUSH1 0x0 DUP3 ADD MSTORE POP JUMP JUMPDEST PUSH1 0x0 PUSH3 0x604 PUSH1 0x11 DUP4 PUSH3 0x5BB JUMP JUMPDEST SWAP2 POP PUSH3 0x611 DUP3 PUSH3 0x5CC JUMP JUMPDEST PUSH1 0x20 DUP3 ADD SWAP1 POP SWAP2 SWAP1 POP JUMP JUMPDEST PUSH1 0x0 PUSH1 0x20 DUP3 ADD SWAP1 POP DUP2 DUP2 SUB PUSH1 0x0 DUP4 ADD MSTORE PUSH3 0x637 DUP2 PUSH3 0x5F5 JUMP JUMPDEST SWAP1 POP SWAP2 SWAP1 POP JUMP JUMPDEST PUSH1 0x0 PUSH3 0x64B DUP3 PUSH3 0x446 JUMP JUMPDEST SWAP2 POP PUSH3 0x658 DUP4 PUSH3 0x446 JUMP JUMPDEST SWAP3 POP DUP3 DUP3 ADD SWAP1 POP DUP1 DUP3 GT ISZERO PUSH3 0x673 JUMPI PUSH3 0x672 PUSH3 0x522 JUMP JUMPDEST JUMPDEST SWAP3 SWAP2 POP POP JUMP JUMPDEST PUSH2 0x303F DUP1 PUSH3 0x689 PUSH1 0x0 CODECOPY PUSH1 0x0 RETURN INVALID PUSH1 0x80 PUSH1 0x40 MSTORE PUSH1 0x4 CALLDATASIZE LT PUSH2 0x140 JUMPI PUSH1 0x0 CALLDATALOAD PUSH1 0xE0 SHR DUP1 PUSH4 0x8C65C81F GT PUSH2 0xB6 JUMPI DUP1 PUSH4 0xBEDF0F4A GT PUSH2 0x6F JUMPI DUP1 PUSH4 0xBEDF0F4A EQ PUSH2 0x42B JUMPI DUP1 PUSH4 0xDD8AB8F9 EQ PUSH2 0x442 JUMPI DUP1 PUSH4 0xE12ED13C EQ PUSH2 0x46D JUMPI DUP1 PUSH4 0xF2FDE38B EQ PUSH2 0x498 JUMPI DUP1 PUSH4 0xFC0C546A EQ PUSH2 0x4C1 JUMPI DUP1 PUSH4 0xFEA9B572 EQ PUSH2 0x4EC JUMPI PUSH2 0x140 JUMP JUMPDEST DUP1 PUSH4 0x8C65C81F EQ PUSH2 0x315 JUMPI DUP1 PUSH4 0x8CD85DC2 EQ PUSH2 0x355 JUMPI DUP1 PUSH4 0x8DA5CB5B EQ PUSH2 0x392 JUMPI DUP1 PUSH4 0xA2B40D19 EQ PUSH2 0x3BD JUMPI DUP1 PUSH4 0xA8BD5634 EQ PUSH2 0x3E6 JUMPI DUP1 PUSH4 0xB5558562 EQ PUSH2 0x402 JUMPI PUSH2 0x140 JUMP JUMPDEST DUP1 PUSH4 0x49C4E5B8 GT PUSH2 0x108 JUMPI DUP1 PUSH4 0x49C4E5B8 EQ PUSH2 0x216 JUMPI DUP1 PUSH4 0x50B44712 EQ PUSH2 0x241 JUMPI DUP1 PUSH4 0x63C75607 EQ PUSH2 0x27F JUMPI DUP1 PUSH4 0x6F9FB98A EQ PUSH2 0x2A8 JUMPI DUP1 PUSH4 0x715018A6 EQ PUSH2 0x2D3 JUMPI DUP1 PUSH4 0x7157C113 EQ PUSH2 0x2EA JUMPI PUSH2 0x140 JUMP JUMPDEST DUP1 PUSH4 0x1A95F15F EQ PUSH2 0x145 JUMPI DUP1 PUSH4 0x379607F5 EQ PUSH2 0x170 JUMPI DUP1 PUSH4 0x44352D0A EQ PUSH2 0x199 JUMPI DUP1 PUSH4 0x46583A26 EQ PUSH2 0x1D6 JUMPI DUP1 PUSH4 0x47E40553 EQ PUSH2 0x1FF JUMPI JUMPDEST PUSH1 0x0 DUP1 REVERT JUMPDEST CALLVALUE DUP1 ISZERO PUSH2 0x151 JUMPI PUSH1 0x0 DUP1 REVERT JUMPDEST POP PUSH2 0x15A PUSH2 0x517 JUMP JUMPDEST PUSH1 0x40 MLOAD PUSH2 0x167 SWAP2 SWAP1 PUSH2 0x22E3 JUMP JUMPDEST PUSH1 0x40 MLOAD DUP1 SWAP2 SUB SWAP1 RETURN JUMPDEST CALLVALUE DUP1 ISZERO PUSH2 0x17C JUMPI PUSH1 0x0 DUP1 REVERT JUMPDEST POP PUSH2 0x197 PUSH1 0x4 DUP1 CALLDATASIZE SUB DUP2 ADD SWAP1 PUSH2 0x192 SWAP2 SWAP1 PUSH2 0x2339 JUMP JUMPDEST PUSH2 0x51D JUMP JUMPDEST STOP JUMPDEST CALLVALUE DUP1 ISZERO PUSH2 0x1A5 JUMPI PUSH1 0x0 DUP1 REVERT JUMPDEST POP PUSH2 0x1C0 PUSH1 0x4 DUP1 CALLDATASIZE SUB DUP2 ADD SWAP1 PUSH2 0x1BB SWAP2 SWAP1 PUSH2 0x2339 JUMP JUMPDEST PUSH2 0x81D JUMP JUMPDEST PUSH1 0x40 MLOAD PUSH2 0x1CD SWAP2 SWAP1 PUSH2 0x24C0 JUMP JUMPDEST PUSH1 0x40 MLOAD DUP1 SWAP2 SUB SWAP1 RETURN JUMPDEST CALLVALUE DUP1 ISZERO PUSH2 0x1E2 JUMPI PUSH1 0x0 DUP1 REVERT JUMPDEST POP PUSH2 0x1FD PUSH1 0x4 DUP1 CALLDATASIZE SUB DUP2 ADD SWAP1 PUSH2 0x1F8 SWAP2 SWAP1 PUSH2 0x2629 JUMP JUMPDEST PUSH2 0xABC JUMP JUMPDEST STOP JUMPDEST CALLVALUE DUP1 ISZERO PUSH2 0x20B JUMPI PUSH1 0x0 DUP1 REVERT JUMPDEST POP PUSH2 0x214 PUSH2 0xFC6 JUMP JUMPDEST STOP JUMPDEST CALLVALUE DUP1 ISZERO PUSH2 0x222 JUMPI PUSH1 0x0 DUP1 REVERT JUMPDEST POP PUSH2 0x22B PUSH2 0x1063 JUMP JUMPDEST PUSH1 0x40 MLOAD PUSH2 0x238 SWAP2 SWAP1 PUSH2 0x22E3 JUMP JUMPDEST PUSH1 0x40 MLOAD DUP1 SWAP2 SUB SWAP1 RETURN JUMPDEST CALLVALUE DUP1 ISZERO PUSH2 0x24D JUMPI PUSH1 0x0 DUP1 REVERT JUMPDEST POP PUSH2 0x268 PUSH1 0x4 DUP1 CALLDATASIZE SUB DUP2 ADD SWAP1 PUSH2 0x263 SWAP2 SWAP1 PUSH2 0x2339 JUMP JUMPDEST PUSH2 0x1069 JUMP JUMPDEST PUSH1 0x40 MLOAD PUSH2 0x276 SWAP3 SWAP2 SWAP1 PUSH2 0x2697 JUMP JUMPDEST PUSH1 0x40 MLOAD DUP1 SWAP2 SUB SWAP1 RETURN JUMPDEST CALLVALUE DUP1 ISZERO PUSH2 0x28B JUMPI PUSH1 0x0 DUP1 REVERT JUMPDEST POP PUSH2 0x2A6 PUSH1 0x4 DUP1 CALLDATASIZE SUB DUP2 ADD SWAP1 PUSH2 0x2A1 SWAP2 SWAP1 PUSH2 0x2339 JUMP JUMPDEST PUSH2 0x10BD JUMP JUMPDEST STOP JUMPDEST CALLVALUE DUP1 ISZERO PUSH2 0x2B4 JUMPI PUSH1 0x0 DUP1 REVERT JUMPDEST POP PUSH2 0x2BD PUSH2 0x1143 JUMP JUMPDEST PUSH1 0x40 MLOAD PUSH2 0x2CA SWAP2 SWAP1 PUSH2 0x22E3 JUMP JUMPDEST PUSH1 0x40 MLOAD DUP1 SWAP2 SUB SWAP1 RETURN JUMPDEST CALLVALUE DUP1 ISZERO PUSH2 0x2DF JUMPI PUSH1 0x0 DUP1 REVERT JUMPDEST POP PUSH2 0x2E8 PUSH2 0x114B JUMP JUMPDEST STOP JUMPDEST CALLVALUE DUP1 ISZERO PUSH2 0x2F6 JUMPI PUSH1 0x0 DUP1 REVERT JUMPDEST POP PUSH2 0x2FF PUSH2 0x11D3 JUMP JUMPDEST PUSH1 0x40 MLOAD PUSH2 0x30C SWAP2 SWAP1 PUSH2 0x22E3 JUMP JUMPDEST PUSH1 0x40 MLOAD DUP1 SWAP2 SUB SWAP1 RETURN JUMPDEST CALLVALUE DUP1 ISZERO PUSH2 0x321 JUMPI PUSH1 0x0 DUP1 REVERT JUMPDEST POP PUSH2 0x33C PUSH1 0x4 DUP1 CALLDATASIZE SUB DUP2 ADD SWAP1 PUSH2 0x337 SWAP2 SWAP1 PUSH2 0x2339 JUMP JUMPDEST PUSH2 0x11D9 JUMP JUMPDEST PUSH1 0x40 MLOAD PUSH2 0x34C SWAP5 SWAP4 SWAP3 SWAP2 SWAP1 PUSH2 0x2737 JUMP JUMPDEST PUSH1 0x40 MLOAD DUP1 SWAP2 SUB SWAP1 RETURN JUMPDEST CALLVALUE DUP1 ISZERO PUSH2 0x361 JUMPI PUSH1 0x0 DUP1 REVERT JUMPDEST POP PUSH2 0x37C PUSH1 0x4 DUP1 CALLDATASIZE SUB DUP2 ADD SWAP1 PUSH2 0x377 SWAP2 SWAP1 PUSH2 0x2339 JUMP JUMPDEST PUSH2 0x1226 JUMP JUMPDEST PUSH1 0x40 MLOAD PUSH2 0x389 SWAP2 SWAP1 PUSH2 0x2800 JUMP JUMPDEST PUSH1 0x40 MLOAD DUP1 SWAP2 SUB SWAP1 RETURN JUMPDEST CALLVALUE DUP1 ISZERO PUSH2 0x39E JUMPI PUSH1 0x0 DUP1 REVERT JUMPDEST POP PUSH2 0x3A7 PUSH2 0x1296 JUMP JUMPDEST PUSH1 0x40 MLOAD PUSH2 0x3B4 SWAP2 SWAP1 PUSH2 0x281B JUMP JUMPDEST PUSH1 0x40 MLOAD DUP1 SWAP2 SUB SWAP1 RETURN JUMPDEST CALLVALUE DUP1 ISZERO PUSH2 0x3C9 JUMPI PUSH1 0x0 DUP1 REVERT JUMPDEST POP PUSH2 0x3E4 PUSH1 0x4 DUP1 CALLDATASIZE SUB DUP2 ADD SWAP1 PUSH2 0x3DF SWAP2 SWAP1 PUSH2 0x2339 JUMP JUMPDEST PUSH2 0x12BF JUMP JUMPDEST STOP JUMPDEST PUSH2 0x400 PUSH1 0x4 DUP1 CALLDATASIZE SUB DUP2 ADD SWAP1 PUSH2 0x3FB SWAP2 SWAP1 PUSH2 0x2629 JUMP JUMPDEST PUSH2 0x1345 JUMP JUMPDEST STOP JUMPDEST CALLVALUE DUP1 ISZERO PUSH2 0x40E JUMPI PUSH1 0x0 DUP1 REVERT JUMPDEST POP PUSH2 0x429 PUSH1 0x4 DUP1 CALLDATASIZE SUB DUP2 ADD SWAP1 PUSH2 0x424 SWAP2 SWAP1 PUSH2 0x2874 JUMP JUMPDEST PUSH2 0x170E JUMP JUMPDEST STOP JUMPDEST CALLVALUE DUP1 ISZERO PUSH2 0x437 JUMPI PUSH1 0x0 DUP1 REVERT JUMPDEST POP PUSH2 0x440 PUSH2 0x18C9 JUMP JUMPDEST STOP JUMPDEST CALLVALUE DUP1 ISZERO PUSH2 0x44E JUMPI PUSH1 0x0 DUP1 REVERT JUMPDEST POP PUSH2 0x457 PUSH2 0x19B6 JUMP JUMPDEST PUSH1 0x40 MLOAD PUSH2 0x464 SWAP2 SWAP1 PUSH2 0x22E3 JUMP JUMPDEST PUSH1 0x40 MLOAD DUP1 SWAP2 SUB SWAP1 RETURN JUMPDEST CALLVALUE DUP1 ISZERO PUSH2 0x479 JUMPI PUSH1 0x0 DUP1 REVERT JUMPDEST POP PUSH2 0x482 PUSH2 0x19BB JUMP JUMPDEST PUSH1 0x40 MLOAD PUSH2 0x48F SWAP2 SWAP1 PUSH2 0x22E3 JUMP JUMPDEST PUSH1 0x40 MLOAD DUP1 SWAP2 SUB SWAP1 RETURN JUMPDEST CALLVALUE DUP1 ISZERO PUSH2 0x4A4 JUMPI PUSH1 0x0 DUP1 REVERT JUMPDEST POP PUSH2 0x4BF PUSH1 0x4 DUP1 CALLDATASIZE SUB DUP2 ADD SWAP1 PUSH2 0x4BA SWAP2 SWAP1 PUSH2 0x28CD JUMP JUMPDEST PUSH2 0x19C1 JUMP JUMPDEST STOP JUMPDEST CALLVALUE DUP1 ISZERO PUSH2 0x4CD JUMPI PUSH1 0x0 DUP1 REVERT JUMPDEST POP PUSH2 0x4D6 PUSH2 0x1AB8 JUMP JUMPDEST PUSH1 0x40 MLOAD PUSH2 0x4E3 SWAP2 SWAP1 PUSH2 0x2959 JUMP JUMPDEST PUSH1 0x40 MLOAD DUP1 SWAP2 SUB SWAP1 RETURN JUMPDEST CALLVALUE DUP1 ISZERO PUSH2 0x4F8 JUMPI PUSH1 0x0 DUP1 REVERT JUMPDEST POP PUSH2 0x501 PUSH2 0x1ADE JUMP JUMPDEST PUSH1 0x40 MLOAD PUSH2 0x50E SWAP2 SWAP1 PUSH2 0x22E3 JUMP JUMPDEST PUSH1 0x40 MLOAD DUP1 SWAP2 SUB SWAP1 RETURN JUMPDEST PUSH1 0x2 SLOAD DUP2 JUMP JUMPDEST CALLER PUSH20 0xFFFFFFFFFFFFFFFFFFFFFFFFFFFFFFFFFFFFFFFF AND PUSH1 0x5 DUP3 DUP2 SLOAD DUP2 LT PUSH2 0x548 JUMPI PUSH2 0x547 PUSH2 0x2974 JUMP JUMPDEST JUMPDEST SWAP1 PUSH1 0x0 MSTORE PUSH1 0x20 PUSH1 0x0 KECCAK256 SWAP1 PUSH1 0x8 MUL ADD PUSH1 0x0 ADD PUSH1 0x0 SWAP1 SLOAD SWAP1 PUSH2 0x100 EXP SWAP1 DIV PUSH20 0xFFFFFFFFFFFFFFFFFFFFFFFFFFFFFFFFFFFFFFFF AND PUSH20 0xFFFFFFFFFFFFFFFFFFFFFFFFFFFFFFFFFFFFFFFF AND EQ PUSH2 0x59A JUMPI PUSH1 0x0 DUP1 REVERT JUMPDEST PUSH1 0x1 DUP1 DUP2 GT ISZERO PUSH2 0x5AD JUMPI PUSH2 0x5AC PUSH2 0x26C0 JUMP JUMPDEST JUMPDEST PUSH1 0x4 PUSH1 0x5 DUP4 DUP2 SLOAD DUP2 LT PUSH2 0x5C3 JUMPI PUSH2 0x5C2 PUSH2 0x2974 JUMP JUMPDEST JUMPDEST SWAP1 PUSH1 0x0 MSTORE PUSH1 0x20 PUSH1 0x0 KECCAK256 SWAP1 PUSH1 0x8 MUL ADD PUSH1 0x1 ADD SLOAD DUP2 SLOAD DUP2 LT PUSH2 0x5E6 JUMPI PUSH2 0x5E5 PUSH2 0x2974 JUMP JUMPDEST JUMPDEST SWAP1 PUSH1 0x0 MSTORE PUSH1 0x20 PUSH1 0x0 KECCAK256 SWAP1 PUSH1 0xB MUL ADD PUSH1 0x2 ADD PUSH1 0x0 SWAP1 SLOAD SWAP1 PUSH2 0x100 EXP SWAP1 DIV PUSH1 0xFF AND PUSH1 0x1 DUP2 GT ISZERO PUSH2 0x617 JUMPI PUSH2 0x616 PUSH2 0x26C0 JUMP JUMPDEST JUMPDEST EQ PUSH2 0x621 JUMPI PUSH1 0x0 DUP1 REVERT JUMPDEST PUSH1 0x0 PUSH1 0x5 DUP3 DUP2 SLOAD DUP2 LT PUSH2 0x637 JUMPI PUSH2 0x636 PUSH2 0x2974 JUMP JUMPDEST JUMPDEST SWAP1 PUSH1 0x0 MSTORE PUSH1 0x20 PUSH1 0x0 KECCAK256 SWAP1 PUSH1 0x8 MUL ADD PUSH1 0x2 ADD SWAP1 POP PUSH1 0x0 PUSH1 0x4 PUSH1 0x1 PUSH1 0x4 DUP1 SLOAD SWAP1 POP PUSH2 0x660 SWAP2 SWAP1 PUSH2 0x29D2 JUMP JUMPDEST DUP2 SLOAD DUP2 LT PUSH2 0x671 JUMPI PUSH2 0x670 PUSH2 0x2974 JUMP JUMPDEST JUMPDEST SWAP1 PUSH1 0x0 MSTORE PUSH1 0x20 PUSH1 0x0 KECCAK256 SWAP1 PUSH1 0xB MUL ADD PUSH1 0x3 ADD SWAP1 POP PUSH1 0x0 DUP1 PUSH1 0x0 DUP1 PUSH1 0x0 SWAP1 POP JUMPDEST PUSH1 0x6 DUP2 LT ISZERO PUSH2 0x74A JUMPI PUSH1 0x0 JUMPDEST PUSH1 0x1 PUSH1 0x7 PUSH2 0x6A9 SWAP2 SWAP1 PUSH2 0x29D2 JUMP JUMPDEST DUP2 LT ISZERO PUSH2 0x736 JUMPI DUP6 DUP2 PUSH1 0x7 DUP2 LT PUSH2 0x6C3 JUMPI PUSH2 0x6C2 PUSH2 0x2974 JUMP JUMPDEST JUMPDEST ADD SLOAD DUP8 DUP4 PUSH1 0x6 DUP2 LT PUSH2 0x6D8 JUMPI PUSH2 0x6D7 PUSH2 0x2974 JUMP JUMPDEST JUMPDEST ADD SLOAD SUB PUSH2 0x6EE JUMPI DUP4 DUP1 PUSH2 0x6EA SWAP1 PUSH2 0x2A06 JUMP JUMPDEST SWAP5 POP POP JUMPDEST DUP6 PUSH1 0x6 PUSH1 0x7 DUP2 LT PUSH2 0x702 JUMPI PUSH2 0x701 PUSH2 0x2974 JUMP JUMPDEST JUMPDEST ADD SLOAD DUP8 DUP4 PUSH1 0x6 DUP2 LT PUSH2 0x717 JUMPI PUSH2 0x716 PUSH2 0x2974 JUMP JUMPDEST JUMPDEST ADD SLOAD SUB PUSH2 0x723 JUMPI PUSH1 0x1 SWAP3 POP JUMPDEST DUP1 DUP1 PUSH2 0x72E SWAP1 PUSH2 0x2A06 JUMP JUMPDEST SWAP2 POP POP PUSH2 0x69B JUMP JUMPDEST POP DUP1 DUP1 PUSH2 0x742 SWAP1 PUSH2 0x2A06 JUMP JUMPDEST SWAP2 POP POP PUSH2 0x68F JUMP JUMPDEST POP PUSH1 0x6 DUP3 SUB PUSH2 0x75B JUMPI SELFBALANCE SWAP3 POP PUSH2 0x76A JUMP JUMPDEST PUSH1 0x5 DUP3 EQ DUP1 ISZERO PUSH2 0x768 JUMPI POP DUP1 JUMPDEST POP JUMPDEST PUSH1 0x5 DUP7 DUP2 SLOAD DUP2 LT PUSH2 0x77E JUMPI PUSH2 0x77D PUSH2 0x2974 JUMP JUMPDEST JUMPDEST SWAP1 PUSH1 0x0 MSTORE PUSH1 0x20 PUSH1 0x0 KECCAK256 SWAP1 PUSH1 0x8 MUL ADD PUSH1 0x0 DUP1 DUP3 ADD PUSH1 0x0 PUSH2 0x100 EXP DUP2 SLOAD SWAP1 PUSH20 0xFFFFFFFFFFFFFFFFFFFFFFFFFFFFFFFFFFFFFFFF MUL NOT AND SWAP1 SSTORE PUSH1 0x1 DUP3 ADD PUSH1 0x0 SWAP1 SSTORE PUSH1 0x2 DUP3 ADD PUSH1 0x0 PUSH2 0x7CC SWAP2 SWAP1 PUSH2 0x21D6 JUMP JUMPDEST POP POP CALLER PUSH20 0xFFFFFFFFFFFFFFFFFFFFFFFFFFFFFFFFFFFFFFFF AND PUSH2 0x8FC DUP5 SWAP1 DUP2 ISZERO MUL SWAP1 PUSH1 0x40 MLOAD PUSH1 0x0 PUSH1 0x40 MLOAD DUP1 DUP4 SUB DUP2 DUP6 DUP9 DUP9 CALL SWAP4 POP POP POP POP ISZERO DUP1 ISZERO PUSH2 0x814 JUMPI RETURNDATASIZE PUSH1 0x0 DUP1 RETURNDATACOPY RETURNDATASIZE PUSH1 0x0 REVERT JUMPDEST POP POP POP POP POP POP POP JUMP JUMPDEST PUSH1 0x60 PUSH1 0x0 DUP1 PUSH1 0x0 JUMPDEST PUSH1 0x5 DUP1 SLOAD SWAP1 POP DUP2 LT ISZERO PUSH2 0x8FD JUMPI CALLER PUSH20 0xFFFFFFFFFFFFFFFFFFFFFFFFFFFFFFFFFFFFFFFF AND PUSH1 0x5 DUP3 DUP2 SLOAD DUP2 LT PUSH2 0x85D JUMPI PUSH2 0x85C PUSH2 0x2974 JUMP JUMPDEST JUMPDEST SWAP1 PUSH1 0x0 MSTORE PUSH1 0x20 PUSH1 0x0 KECCAK256 SWAP1 PUSH1 0x8 MUL ADD PUSH1 0x0 ADD PUSH1 0x0 SWAP1 SLOAD SWAP1 PUSH2 0x100 EXP SWAP1 DIV PUSH20 0xFFFFFFFFFFFFFFFFFFFFFFFFFFFFFFFFFFFFFFFF AND PUSH20 0xFFFFFFFFFFFFFFFFFFFFFFFFFFFFFFFFFFFFFFFF AND EQ DUP1 ISZERO PUSH2 0x8D6 JUMPI POP DUP5 PUSH1 0x5 DUP3 DUP2 SLOAD DUP2 LT PUSH2 0x8C2 JUMPI PUSH2 0x8C1 PUSH2 0x2974 JUMP JUMPDEST JUMPDEST SWAP1 PUSH1 0x0 MSTORE PUSH1 0x20 PUSH1 0x0 KECCAK256 SWAP1 PUSH1 0x8 MUL ADD PUSH1 0x1 ADD SLOAD EQ JUMPDEST ISZERO PUSH2 0x8EA JUMPI DUP3 DUP1 PUSH2 0x8E6 SWAP1 PUSH2 0x2A06 JUMP JUMPDEST SWAP4 POP POP JUMPDEST DUP1 DUP1 PUSH2 0x8F5 SWAP1 PUSH2 0x2A06 JUMP JUMPDEST SWAP2 POP POP PUSH2 0x825 JUMP JUMPDEST POP PUSH1 0x0 DUP3 PUSH8 0xFFFFFFFFFFFFFFFF DUP2 GT ISZERO PUSH2 0x91A JUMPI PUSH2 0x919 PUSH2 0x24F8 JUMP JUMPDEST JUMPDEST PUSH1 0x40 MLOAD SWAP1 DUP1 DUP3 MSTORE DUP1 PUSH1 0x20 MUL PUSH1 0x20 ADD DUP3 ADD PUSH1 0x40 MSTORE DUP1 ISZERO PUSH2 0x953 JUMPI DUP2 PUSH1 0x20 ADD JUMPDEST PUSH2 0x940 PUSH2 0x21E9 JUMP JUMPDEST DUP2 MSTORE PUSH1 0x20 ADD SWAP1 PUSH1 0x1 SWAP1 SUB SWAP1 DUP2 PUSH2 0x938 JUMPI SWAP1 POP JUMPDEST POP SWAP1 POP PUSH1 0x0 JUMPDEST PUSH1 0x5 DUP1 SLOAD SWAP1 POP DUP2 LT ISZERO PUSH2 0xAB0 JUMPI CALLER PUSH20 0xFFFFFFFFFFFFFFFFFFFFFFFFFFFFFFFFFFFFFFFF AND PUSH1 0x5 DUP3 DUP2 SLOAD DUP2 LT PUSH2 0x991 JUMPI PUSH2 0x990 PUSH2 0x2974 JUMP JUMPDEST JUMPDEST SWAP1 PUSH1 0x0 MSTORE PUSH1 0x20 PUSH1 0x0 KECCAK256 SWAP1 PUSH1 0x8 MUL ADD PUSH1 0x0 ADD PUSH1 0x0 SWAP1 SLOAD SWAP1 PUSH2 0x100 EXP SWAP1 DIV PUSH20 0xFFFFFFFFFFFFFFFFFFFFFFFFFFFFFFFFFFFFFFFF AND PUSH20 0xFFFFFFFFFFFFFFFFFFFFFFFFFFFFFFFFFFFFFFFF AND EQ DUP1 ISZERO PUSH2 0xA0A JUMPI POP DUP6 PUSH1 0x5 DUP3 DUP2 SLOAD DUP2 LT PUSH2 0x9F6 JUMPI PUSH2 0x9F5 PUSH2 0x2974 JUMP JUMPDEST JUMPDEST SWAP1 PUSH1 0x0 MSTORE PUSH1 0x20 PUSH1 0x0 KECCAK256 SWAP1 PUSH1 0x8 MUL ADD PUSH1 0x1 ADD SLOAD EQ JUMPDEST ISZERO PUSH2 0xA9D JUMPI PUSH1 0x5 DUP2 DUP2 SLOAD DUP2 LT PUSH2 0xA23 JUMPI PUSH2 0xA22 PUSH2 0x2974 JUMP JUMPDEST JUMPDEST SWAP1 PUSH1 0x0 MSTORE PUSH1 0x20 PUSH1 0x0 KECCAK256 SWAP1 PUSH1 0x8 MUL ADD PUSH1 0x2 ADD PUSH1 0x6 DUP1 PUSH1 0x20 MUL PUSH1 0x40 MLOAD SWAP1 DUP2 ADD PUSH1 0x40 MSTORE DUP1 SWAP3 SWAP2 SWAP1 DUP3 PUSH1 0x6 DUP1 ISZERO PUSH2 0xA6B JUMPI PUSH1 0x20 MUL DUP3 ADD SWAP2 JUMPDEST DUP2 SLOAD DUP2 MSTORE PUSH1 0x20 ADD SWAP1 PUSH1 0x1 ADD SWAP1 DUP1 DUP4 GT PUSH2 0xA57 JUMPI JUMPDEST POP POP POP POP POP DUP3 DUP5 DUP2 MLOAD DUP2 LT PUSH2 0xA83 JUMPI PUSH2 0xA82 PUSH2 0x2974 JUMP JUMPDEST JUMPDEST PUSH1 0x20 MUL PUSH1 0x20 ADD ADD DUP2 SWAP1 MSTORE POP DUP3 DUP1 PUSH2 0xA99 SWAP1 PUSH2 0x2A06 JUMP JUMPDEST SWAP4 POP POP JUMPDEST DUP1 DUP1 PUSH2 0xAA8 SWAP1 PUSH2 0x2A06 JUMP JUMPDEST SWAP2 POP POP PUSH2 0x959 JUMP JUMPDEST POP DUP1 SWAP4 POP POP POP POP SWAP2 SWAP1 POP JUMP JUMPDEST TIMESTAMP PUSH1 0x4 PUSH1 0x1 PUSH1 0x4 DUP1 SLOAD SWAP1 POP PUSH2 0xAD1 SWAP2 SWAP1 PUSH2 0x29D2 JUMP JUMPDEST DUP2 SLOAD DUP2 LT PUSH2 0xAE2 JUMPI PUSH2 0xAE1 PUSH2 0x2974 JUMP JUMPDEST JUMPDEST SWAP1 PUSH1 0x0 MSTORE PUSH1 0x20 PUSH1 0x0 KECCAK256 SWAP1 PUSH1 0xB MUL ADD PUSH1 0x1 ADD SLOAD LT ISZERO PUSH2 0xB35 JUMPI PUSH1 0x40 MLOAD PUSH32 0x8C379A000000000000000000000000000000000000000000000000000000000 DUP2 MSTORE PUSH1 0x4 ADD PUSH2 0xB2C SWAP1 PUSH2 0x2AAB JUMP JUMPDEST PUSH1 0x40 MLOAD DUP1 SWAP2 SUB SWAP1 REVERT JUMPDEST PUSH1 0x1 DUP1 DUP2 GT ISZERO PUSH2 0xB48 JUMPI PUSH2 0xB47 PUSH2 0x26C0 JUMP JUMPDEST JUMPDEST PUSH1 0x4 PUSH1 0x1 PUSH1 0x4 DUP1 SLOAD SWAP1 POP PUSH2 0xB5C SWAP2 SWAP1 PUSH2 0x29D2 JUMP JUMPDEST DUP2 SLOAD DUP2 LT PUSH2 0xB6D JUMPI PUSH2 0xB6C PUSH2 0x2974 JUMP JUMPDEST JUMPDEST SWAP1 PUSH1 0x0 MSTORE PUSH1 0x20 PUSH1 0x0 KECCAK256 SWAP1 PUSH1 0xB MUL ADD PUSH1 0x2 ADD PUSH1 0x0 SWAP1 SLOAD SWAP1 PUSH2 0x100 EXP SWAP1 DIV PUSH1 0xFF AND PUSH1 0x1 DUP2 GT ISZERO PUSH2 0xB9E JUMPI PUSH2 0xB9D PUSH2 0x26C0 JUMP JUMPDEST JUMPDEST SUB PUSH2 0xBDE JUMPI PUSH1 0x40 MLOAD PUSH32 0x8C379A000000000000000000000000000000000000000000000000000000000 DUP2 MSTORE PUSH1 0x4 ADD PUSH2 0xBD5 SWAP1 PUSH2 0x2AAB JUMP JUMPDEST PUSH1 0x40 MLOAD DUP1 SWAP2 SUB SWAP1 REVERT JUMPDEST PUSH1 0x3 SLOAD PUSH1 0x1 PUSH1 0x0 SWAP1 SLOAD SWAP1 PUSH2 0x100 EXP SWAP1 DIV PUSH20 0xFFFFFFFFFFFFFFFFFFFFFFFFFFFFFFFFFFFFFFFF AND PUSH20 0xFFFFFFFFFFFFFFFFFFFFFFFFFFFFFFFFFFFFFFFF AND PUSH4 0x70A08231 CALLER PUSH1 0x40 MLOAD DUP3 PUSH4 0xFFFFFFFF AND PUSH1 0xE0 SHL DUP2 MSTORE PUSH1 0x4 ADD PUSH2 0xC3C SWAP2 SWAP1 PUSH2 0x281B JUMP JUMPDEST PUSH1 0x20 PUSH1 0x40 MLOAD DUP1 DUP4 SUB DUP2 DUP7 GAS STATICCALL ISZERO DUP1 ISZERO PUSH2 0xC59 JUMPI RETURNDATASIZE PUSH1 0x0 DUP1 RETURNDATACOPY RETURNDATASIZE PUSH1 0x0 REVERT JUMPDEST POP POP POP POP PUSH1 0x40 MLOAD RETURNDATASIZE PUSH1 0x1F NOT PUSH1 0x1F DUP3 ADD AND DUP3 ADD DUP1 PUSH1 0x40 MSTORE POP DUP2 ADD SWAP1 PUSH2 0xC7D SWAP2 SWAP1 PUSH2 0x2AE0 JUMP JUMPDEST LT ISZERO PUSH2 0xCBE JUMPI PUSH1 0x40 MLOAD PUSH32 0x8C379A000000000000000000000000000000000000000000000000000000000 DUP2 MSTORE PUSH1 0x4 ADD PUSH2 0xCB5 SWAP1 PUSH2 0x2B59 JUMP JUMPDEST PUSH1 0x40 MLOAD DUP1 SWAP2 SUB SWAP1 REVERT JUMPDEST PUSH1 0x0 JUMPDEST PUSH1 0x1 PUSH1 0x6 PUSH2 0xCCF SWAP2 SWAP1 PUSH2 0x29D2 JUMP JUMPDEST DUP2 LT ISZERO PUSH2 0xD52 JUMPI PUSH1 0x0 PUSH1 0x1 DUP3 PUSH2 0xCE5 SWAP2 SWAP1 PUSH2 0x2B79 JUMP JUMPDEST SWAP1 POP JUMPDEST PUSH1 0x6 DUP2 LT ISZERO PUSH2 0xD3E JUMPI DUP3 DUP2 PUSH1 0x6 DUP2 LT PUSH2 0xD04 JUMPI PUSH2 0xD03 PUSH2 0x2974 JUMP JUMPDEST JUMPDEST PUSH1 0x20 MUL ADD MLOAD DUP4 DUP4 PUSH1 0x6 DUP2 LT PUSH2 0xD1C JUMPI PUSH2 0xD1B PUSH2 0x2974 JUMP JUMPDEST JUMPDEST PUSH1 0x20 MUL ADD MLOAD SUB PUSH2 0xD2B JUMPI PUSH1 0x0 DUP1 REVERT JUMPDEST DUP1 DUP1 PUSH2 0xD36 SWAP1 PUSH2 0x2A06 JUMP JUMPDEST SWAP2 POP POP PUSH2 0xCE8 JUMP JUMPDEST POP DUP1 DUP1 PUSH2 0xD4A SWAP1 PUSH2 0x2A06 JUMP JUMPDEST SWAP2 POP POP PUSH2 0xCC1 JUMP JUMPDEST POP PUSH1 0x0 JUMPDEST PUSH1 0x6 DUP2 LT ISZERO PUSH2 0xDF1 JUMPI PUSH1 0x1 DUP3 DUP3 PUSH1 0x6 DUP2 LT PUSH2 0xD74 JUMPI PUSH2 0xD73 PUSH2 0x2974 JUMP JUMPDEST JUMPDEST PUSH1 0x20 MUL ADD MLOAD LT ISZERO DUP1 ISZERO PUSH2 0xD9F JUMPI POP PUSH1 0x2D DUP3 DUP3 PUSH1 0x6 DUP2 LT PUSH2 0xD97 JUMPI PUSH2 0xD96 PUSH2 0x2974 JUMP JUMPDEST JUMPDEST PUSH1 0x20 MUL ADD MLOAD GT ISZERO JUMPDEST PUSH2 0xDDE JUMPI PUSH1 0x40 MLOAD PUSH32 0x8C379A000000000000000000000000000000000000000000000000000000000 DUP2 MSTORE PUSH1 0x4 ADD PUSH2 0xDD5 SWAP1 PUSH2 0x2C1F JUMP JUMPDEST PUSH1 0x40 MLOAD DUP1 SWAP2 SUB SWAP1 REVERT JUMPDEST DUP1 DUP1 PUSH2 0xDE9 SWAP1 PUSH2 0x2A06 JUMP JUMPDEST SWAP2 POP POP PUSH2 0xD56 JUMP JUMPDEST POP PUSH1 0x1 PUSH1 0x0 SWAP1 SLOAD SWAP1 PUSH2 0x100 EXP SWAP1 DIV PUSH20 0xFFFFFFFFFFFFFFFFFFFFFFFFFFFFFFFFFFFFFFFF AND PUSH20 0xFFFFFFFFFFFFFFFFFFFFFFFFFFFFFFFFFFFFFFFF AND PUSH4 0x23B872DD CALLER ADDRESS PUSH1 0x3 SLOAD PUSH1 0x40 MLOAD DUP5 PUSH4 0xFFFFFFFF AND PUSH1 0xE0 SHL DUP2 MSTORE PUSH1 0x4 ADD PUSH2 0xE53 SWAP4 SWAP3 SWAP2 SWAP1 PUSH2 0x2C3F JUMP JUMPDEST PUSH1 0x20 PUSH1 0x40 MLOAD DUP1 DUP4 SUB DUP2 PUSH1 0x0 DUP8 GAS CALL ISZERO DUP1 ISZERO PUSH2 0xE72 JUMPI RETURNDATASIZE PUSH1 0x0 DUP1 RETURNDATACOPY RETURNDATASIZE PUSH1 0x0 REVERT JUMPDEST POP POP POP POP PUSH1 0x40 MLOAD RETURNDATASIZE PUSH1 0x1F NOT PUSH1 0x1F DUP3 ADD AND DUP3 ADD DUP1 PUSH1 0x40 MSTORE POP DUP2 ADD SWAP1 PUSH2 0xE96 SWAP2 SWAP1 PUSH2 0x2CAE JUMP JUMPDEST POP PUSH1 0x0 PUSH1 0x40 MLOAD DUP1 PUSH1 0x60 ADD PUSH1 0x40 MSTORE DUP1 CALLER PUSH20 0xFFFFFFFFFFFFFFFFFFFFFFFFFFFFFFFFFFFFFFFF AND DUP2 MSTORE PUSH1 0x20 ADD PUSH1 0x1 PUSH1 0x4 DUP1 SLOAD SWAP1 POP PUSH2 0xED2 SWAP2 SWAP1 PUSH2 0x29D2 JUMP JUMPDEST DUP2 MSTORE PUSH1 0x20 ADD DUP4 DUP2 MSTORE POP SWAP1 POP PUSH1 0x5 DUP2 SWAP1 DUP1 PUSH1 0x1 DUP2 SLOAD ADD DUP1 DUP3 SSTORE DUP1 SWAP2 POP POP PUSH1 0x1 SWAP1 SUB SWAP1 PUSH1 0x0 MSTORE PUSH1 0x20 PUSH1 0x0 KECCAK256 SWAP1 PUSH1 0x8 MUL ADD PUSH1 0x0 SWAP1 SWAP2 SWAP1 SWAP2 SWAP1 SWAP2 POP PUSH1 0x0 DUP3 ADD MLOAD DUP2 PUSH1 0x0 ADD PUSH1 0x0 PUSH2 0x100 EXP DUP2 SLOAD DUP2 PUSH20 0xFFFFFFFFFFFFFFFFFFFFFFFFFFFFFFFFFFFFFFFF MUL NOT AND SWAP1 DUP4 PUSH20 0xFFFFFFFFFFFFFFFFFFFFFFFFFFFFFFFFFFFFFFFF AND MUL OR SWAP1 SSTORE POP PUSH1 0x20 DUP3 ADD MLOAD DUP2 PUSH1 0x1 ADD SSTORE PUSH1 0x40 DUP3 ADD MLOAD DUP2 PUSH1 0x2 ADD SWAP1 PUSH1 0x6 PUSH2 0xF71 SWAP3 SWAP2 SWAP1 PUSH2 0x220B JUMP JUMPDEST POP POP POP PUSH1 0x1 PUSH1 0x4 PUSH1 0x1 PUSH1 0x4 DUP1 SLOAD SWAP1 POP PUSH2 0xF8A SWAP2 SWAP1 PUSH2 0x29D2 JUMP JUMPDEST DUP2 SLOAD DUP2 LT PUSH2 0xF9B JUMPI PUSH2 0xF9A PUSH2 0x2974 JUMP JUMPDEST JUMPDEST SWAP1 PUSH1 0x0 MSTORE PUSH1 0x20 PUSH1 0x0 KECCAK256 SWAP1 PUSH1 0xB MUL ADD PUSH1 0xA ADD PUSH1 0x0 DUP3 DUP3 SLOAD PUSH2 0xFBB SWAP2 SWAP1 PUSH2 0x2B79 JUMP JUMPDEST SWAP3 POP POP DUP2 SWAP1 SSTORE POP POP POP JUMP JUMPDEST PUSH2 0xFCE PUSH2 0x1AE3 JUMP JUMPDEST PUSH20 0xFFFFFFFFFFFFFFFFFFFFFFFFFFFFFFFFFFFFFFFF AND PUSH2 0xFEC PUSH2 0x1296 JUMP JUMPDEST PUSH20 0xFFFFFFFFFFFFFFFFFFFFFFFFFFFFFFFFFFFFFFFF AND EQ PUSH2 0x1042 JUMPI PUSH1 0x40 MLOAD PUSH32 0x8C379A000000000000000000000000000000000000000000000000000000000 DUP2 MSTORE PUSH1 0x4 ADD PUSH2 0x1039 SWAP1 PUSH2 0x2D27 JUMP JUMPDEST PUSH1 0x40 MLOAD DUP1 SWAP2 SUB SWAP1 REVERT JUMPDEST PUSH1 0x0 PUSH1 0x4 DUP1 SLOAD SWAP1 POP GT ISZERO PUSH2 0x1059 JUMPI PUSH2 0x1058 PUSH2 0x1AEB JUMP JUMPDEST JUMPDEST PUSH2 0x1061 PUSH2 0x1C76 JUMP JUMPDEST JUMP JUMPDEST PUSH1 0x3 SLOAD DUP2 JUMP JUMPDEST PUSH1 0x5 DUP2 DUP2 SLOAD DUP2 LT PUSH2 0x1079 JUMPI PUSH1 0x0 DUP1 REVERT JUMPDEST SWAP1 PUSH1 0x0 MSTORE PUSH1 0x20 PUSH1 0x0 KECCAK256 SWAP1 PUSH1 0x8 MUL ADD PUSH1 0x0 SWAP2 POP SWAP1 POP DUP1 PUSH1 0x0 ADD PUSH1 0x0 SWAP1 SLOAD SWAP1 PUSH2 0x100 EXP SWAP1 DIV PUSH20 0xFFFFFFFFFFFFFFFFFFFFFFFFFFFFFFFFFFFFFFFF AND SWAP1 DUP1 PUSH1 0x1 ADD SLOAD SWAP1 POP DUP3 JUMP JUMPDEST PUSH2 0x10C5 PUSH2 0x1AE3 JUMP JUMPDEST PUSH20 0xFFFFFFFFFFFFFFFFFFFFFFFFFFFFFFFFFFFFFFFF AND PUSH2 0x10E3 PUSH2 0x1296 JUMP JUMPDEST PUSH20 0xFFFFFFFFFFFFFFFFFFFFFFFFFFFFFFFFFFFFFFFF AND EQ PUSH2 0x1139 JUMPI PUSH1 0x40 MLOAD PUSH32 0x8C379A000000000000000000000000000000000000000000000000000000000 DUP2 MSTORE PUSH1 0x4 ADD PUSH2 0x1130 SWAP1 PUSH2 0x2D27 JUMP JUMPDEST PUSH1 0x40 MLOAD DUP1 SWAP2 SUB SWAP1 REVERT JUMPDEST DUP1 PUSH1 0x6 DUP2 SWAP1 SSTORE POP POP JUMP JUMPDEST PUSH1 0x0 SELFBALANCE SWAP1 POP SWAP1 JUMP JUMPDEST PUSH2 0x1153 PUSH2 0x1AE3 JUMP JUMPDEST PUSH20 0xFFFFFFFFFFFFFFFFFFFFFFFFFFFFFFFFFFFFFFFF AND PUSH2 0x1171 PUSH2 0x1296 JUMP JUMPDEST PUSH20 0xFFFFFFFFFFFFFFFFFFFFFFFFFFFFFFFFFFFFFFFF AND EQ PUSH2 0x11C7 JUMPI PUSH1 0x40 MLOAD PUSH32 0x8C379A000000000000000000000000000000000000000000000000000000000 DUP2 MSTORE PUSH1 0x4 ADD PUSH2 0x11BE SWAP1 PUSH2 0x2D27 JUMP JUMPDEST PUSH1 0x40 MLOAD DUP1 SWAP2 SUB SWAP1 REVERT JUMPDEST PUSH2 0x11D1 PUSH1 0x0 PUSH2 0x1E1E JUMP JUMPDEST JUMP JUMPDEST PUSH1 0x6 SLOAD DUP2 JUMP JUMPDEST PUSH1 0x4 DUP2 DUP2 SLOAD DUP2 LT PUSH2 0x11E9 JUMPI PUSH1 0x0 DUP1 REVERT JUMPDEST SWAP1 PUSH1 0x0 MSTORE PUSH1 0x20 PUSH1 0x0 KECCAK256 SWAP1 PUSH1 0xB MUL ADD PUSH1 0x0 SWAP2 POP SWAP1 POP DUP1 PUSH1 0x0 ADD SLOAD SWAP1 DUP1 PUSH1 0x1 ADD SLOAD SWAP1 DUP1 PUSH1 0x2 ADD PUSH1 0x0 SWAP1 SLOAD SWAP1 PUSH2 0x100 EXP SWAP1 DIV PUSH1 0xFF AND SWAP1 DUP1 PUSH1 0xA ADD SLOAD SWAP1 POP DUP5 JUMP JUMPDEST PUSH2 0x122E PUSH2 0x224B JUMP JUMPDEST PUSH1 0x4 DUP3 DUP2 SLOAD DUP2 LT PUSH2 0x1242 JUMPI PUSH2 0x1241 PUSH2 0x2974 JUMP JUMPDEST JUMPDEST SWAP1 PUSH1 0x0 MSTORE PUSH1 0x20 PUSH1 0x0 KECCAK256 SWAP1 PUSH1 0xB MUL ADD PUSH1 0x3 ADD PUSH1 0x7 DUP1 PUSH1 0x20 MUL PUSH1 0x40 MLOAD SWAP1 DUP2 ADD PUSH1 0x40 MSTORE DUP1 SWAP3 SWAP2 SWAP1 DUP3 PUSH1 0x7 DUP1 ISZERO PUSH2 0x128A JUMPI PUSH1 0x20 MUL DUP3 ADD SWAP2 JUMPDEST DUP2 SLOAD DUP2 MSTORE PUSH1 0x20 ADD SWAP1 PUSH1 0x1 ADD SWAP1 DUP1 DUP4 GT PUSH2 0x1276 JUMPI JUMPDEST POP POP POP POP POP SWAP1 POP SWAP2 SWAP1 POP JUMP JUMPDEST PUSH1 0x0 DUP1 PUSH1 0x0 SWAP1 SLOAD SWAP1 PUSH2 0x100 EXP SWAP1 DIV PUSH20 0xFFFFFFFFFFFFFFFFFFFFFFFFFFFFFFFFFFFFFFFF AND SWAP1 POP SWAP1 JUMP JUMPDEST PUSH2 0x12C7 PUSH2 0x1AE3 JUMP JUMPDEST PUSH20 0xFFFFFFFFFFFFFFFFFFFFFFFFFFFFFFFFFFFFFFFF AND PUSH2 0x12E5 PUSH2 0x1296 JUMP JUMPDEST PUSH20 0xFFFFFFFFFFFFFFFFFFFFFFFFFFFFFFFFFFFFFFFF AND EQ PUSH2 0x133B JUMPI PUSH1 0x40 MLOAD PUSH32 0x8C379A000000000000000000000000000000000000000000000000000000000 DUP2 MSTORE PUSH1 0x4 ADD PUSH2 0x1332 SWAP1 PUSH2 0x2D27 JUMP JUMPDEST PUSH1 0x40 MLOAD DUP1 SWAP2 SUB SWAP1 REVERT JUMPDEST DUP1 PUSH1 0x2 DUP2 SWAP1 SSTORE POP POP JUMP JUMPDEST TIMESTAMP PUSH1 0x4 PUSH1 0x1 PUSH1 0x4 DUP1 SLOAD SWAP1 POP PUSH2 0x135A SWAP2 SWAP1 PUSH2 0x29D2 JUMP JUMPDEST DUP2 SLOAD DUP2 LT PUSH2 0x136B JUMPI PUSH2 0x136A PUSH2 0x2974 JUMP JUMPDEST JUMPDEST SWAP1 PUSH1 0x0 MSTORE PUSH1 0x20 PUSH1 0x0 KECCAK256 SWAP1 PUSH1 0xB MUL ADD PUSH1 0x1 ADD SLOAD LT ISZERO PUSH2 0x13BE JUMPI PUSH1 0x40 MLOAD PUSH32 0x8C379A000000000000000000000000000000000000000000000000000000000 DUP2 MSTORE PUSH1 0x4 ADD PUSH2 0x13B5 SWAP1 PUSH2 0x2AAB JUMP JUMPDEST PUSH1 0x40 MLOAD DUP1 SWAP2 SUB SWAP1 REVERT JUMPDEST PUSH1 0x1 DUP1 DUP2 GT ISZERO PUSH2 0x13D1 JUMPI PUSH2 0x13D0 PUSH2 0x26C0 JUMP JUMPDEST JUMPDEST PUSH1 0x4 PUSH1 0x1 PUSH1 0x4 DUP1 SLOAD SWAP1 POP PUSH2 0x13E5 SWAP2 SWAP1 PUSH2 0x29D2 JUMP JUMPDEST DUP2 SLOAD DUP2 LT PUSH2 0x13F6 JUMPI PUSH2 0x13F5 PUSH2 0x2974 JUMP JUMPDEST JUMPDEST SWAP1 PUSH1 0x0 MSTORE PUSH1 0x20 PUSH1 0x0 KECCAK256 SWAP1 PUSH1 0xB MUL ADD PUSH1 0x2 ADD PUSH1 0x0 SWAP1 SLOAD SWAP1 PUSH2 0x100 EXP SWAP1 DIV PUSH1 0xFF AND PUSH1 0x1 DUP2 GT ISZERO PUSH2 0x1427 JUMPI PUSH2 0x1426 PUSH2 0x26C0 JUMP JUMPDEST JUMPDEST SUB PUSH2 0x1467 JUMPI PUSH1 0x40 MLOAD PUSH32 0x8C379A000000000000000000000000000000000000000000000000000000000 DUP2 MSTORE PUSH1 0x4 ADD PUSH2 0x145E SWAP1 PUSH2 0x2AAB JUMP JUMPDEST PUSH1 0x40 MLOAD DUP1 SWAP2 SUB SWAP1 REVERT JUMPDEST PUSH1 0x2 SLOAD CALLVALUE EQ PUSH2 0x14AB JUMPI PUSH1 0x40 MLOAD PUSH32 0x8C379A000000000000000000000000000000000000000000000000000000000 DUP2 MSTORE PUSH1 0x4 ADD PUSH2 0x14A2 SWAP1 PUSH2 0x2B59 JUMP JUMPDEST PUSH1 0x40 MLOAD DUP1 SWAP2 SUB SWAP1 REVERT JUMPDEST PUSH1 0x0 JUMPDEST PUSH1 0x1 PUSH1 0x6 PUSH2 0x14BC SWAP2 SWAP1 PUSH2 0x29D2 JUMP JUMPDEST DUP2 LT ISZERO PUSH2 0x153F JUMPI PUSH1 0x0 PUSH1 0x1 DUP3 PUSH2 0x14D2 SWAP2 SWAP1 PUSH2 0x2B79 JUMP JUMPDEST SWAP1 POP JUMPDEST PUSH1 0x6 DUP2 LT ISZERO PUSH2 0x152B JUMPI DUP3 DUP2 PUSH1 0x6 DUP2 LT PUSH2 0x14F1 JUMPI PUSH2 0x14F0 PUSH2 0x2974 JUMP JUMPDEST JUMPDEST PUSH1 0x20 MUL ADD MLOAD DUP4 DUP4 PUSH1 0x6 DUP2 LT PUSH2 0x1509 JUMPI PUSH2 0x1508 PUSH2 0x2974 JUMP JUMPDEST JUMPDEST PUSH1 0x20 MUL ADD MLOAD SUB PUSH2 0x1518 JUMPI PUSH1 0x0 DUP1 REVERT JUMPDEST DUP1 DUP1 PUSH2 0x1523 SWAP1 PUSH2 0x2A06 JUMP JUMPDEST SWAP2 POP POP PUSH2 0x14D5 JUMP JUMPDEST POP DUP1 DUP1 PUSH2 0x1537 SWAP1 PUSH2 0x2A06 JUMP JUMPDEST SWAP2 POP POP PUSH2 0x14AE JUMP JUMPDEST POP PUSH1 0x0 JUMPDEST PUSH1 0x6 DUP2 LT ISZERO PUSH2 0x15DE JUMPI PUSH1 0x1 DUP3 DUP3 PUSH1 0x6 DUP2 LT PUSH2 0x1561 JUMPI PUSH2 0x1560 PUSH2 0x2974 JUMP JUMPDEST JUMPDEST PUSH1 0x20 MUL ADD MLOAD LT ISZERO DUP1 ISZERO PUSH2 0x158C JUMPI POP PUSH1 0x2D DUP3 DUP3 PUSH1 0x6 DUP2 LT PUSH2 0x1584 JUMPI PUSH2 0x1583 PUSH2 0x2974 JUMP JUMPDEST JUMPDEST PUSH1 0x20 MUL ADD MLOAD GT ISZERO JUMPDEST PUSH2 0x15CB JUMPI PUSH1 0x40 MLOAD PUSH32 0x8C379A000000000000000000000000000000000000000000000000000000000 DUP2 MSTORE PUSH1 0x4 ADD PUSH2 0x15C2 SWAP1 PUSH2 0x2C1F JUMP JUMPDEST PUSH1 0x40 MLOAD DUP1 SWAP2 SUB SWAP1 REVERT JUMPDEST DUP1 DUP1 PUSH2 0x15D6 SWAP1 PUSH2 0x2A06 JUMP JUMPDEST SWAP2 POP POP PUSH2 0x1543 JUMP JUMPDEST POP PUSH1 0x0 PUSH1 0x40 MLOAD DUP1 PUSH1 0x60 ADD PUSH1 0x40 MSTORE DUP1 CALLER PUSH20 0xFFFFFFFFFFFFFFFFFFFFFFFFFFFFFFFFFFFFFFFF AND DUP2 MSTORE PUSH1 0x20 ADD PUSH1 0x1 PUSH1 0x4 DUP1 SLOAD SWAP1 POP PUSH2 0x161A SWAP2 SWAP1 PUSH2 0x29D2 JUMP JUMPDEST DUP2 MSTORE PUSH1 0x20 ADD DUP4 DUP2 MSTORE POP SWAP1 POP PUSH1 0x5 DUP2 SWAP1 DUP1 PUSH1 0x1 DUP2 SLOAD ADD DUP1 DUP3 SSTORE DUP1 SWAP2 POP POP PUSH1 0x1 SWAP1 SUB SWAP1 PUSH1 0x0 MSTORE PUSH1 0x20 PUSH1 0x0 KECCAK256 SWAP1 PUSH1 0x8 MUL ADD PUSH1 0x0 SWAP1 SWAP2 SWAP1 SWAP2 SWAP1 SWAP2 POP PUSH1 0x0 DUP3 ADD MLOAD DUP2 PUSH1 0x0 ADD PUSH1 0x0 PUSH2 0x100 EXP DUP2 SLOAD DUP2 PUSH20 0xFFFFFFFFFFFFFFFFFFFFFFFFFFFFFFFFFFFFFFFF MUL NOT AND SWAP1 DUP4 PUSH20 0xFFFFFFFFFFFFFFFFFFFFFFFFFFFFFFFFFFFFFFFF AND MUL OR SWAP1 SSTORE POP PUSH1 0x20 DUP3 ADD MLOAD DUP2 PUSH1 0x1 ADD SSTORE PUSH1 0x40 DUP3 ADD MLOAD DUP2 PUSH1 0x2 ADD SWAP1 PUSH1 0x6 PUSH2 0x16B9 SWAP3 SWAP2 SWAP1 PUSH2 0x220B JUMP JUMPDEST POP POP POP PUSH1 0x1 PUSH1 0x4 PUSH1 0x1 PUSH1 0x4 DUP1 SLOAD SWAP1 POP PUSH2 0x16D2 SWAP2 SWAP1 PUSH2 0x29D2 JUMP JUMPDEST DUP2 SLOAD DUP2 LT PUSH2 0x16E3 JUMPI PUSH2 0x16E2 PUSH2 0x2974 JUMP JUMPDEST JUMPDEST SWAP1 PUSH1 0x0 MSTORE PUSH1 0x20 PUSH1 0x0 KECCAK256 SWAP1 PUSH1 0xB MUL ADD PUSH1 0xA ADD PUSH1 0x0 DUP3 DUP3 SLOAD PUSH2 0x1703 SWAP2 SWAP1 PUSH2 0x2B79 JUMP JUMPDEST SWAP3 POP POP DUP2 SWAP1 SSTORE POP POP POP JUMP JUMPDEST PUSH2 0x1716 PUSH2 0x1AE3 JUMP JUMPDEST PUSH20 0xFFFFFFFFFFFFFFFFFFFFFFFFFFFFFFFFFFFFFFFF AND PUSH2 0x1734 PUSH2 0x1296 JUMP JUMPDEST PUSH20 0xFFFFFFFFFFFFFFFFFFFFFFFFFFFFFFFFFFFFFFFF AND EQ PUSH2 0x178A JUMPI PUSH1 0x40 MLOAD PUSH32 0x8C379A000000000000000000000000000000000000000000000000000000000 DUP2 MSTORE PUSH1 0x4 ADD PUSH2 0x1781 SWAP1 PUSH2 0x2D27 JUMP JUMPDEST PUSH1 0x40 MLOAD DUP1 SWAP2 SUB SWAP1 REVERT JUMPDEST PUSH1 0x1 PUSH1 0x0 SWAP1 SLOAD SWAP1 PUSH2 0x100 EXP SWAP1 DIV PUSH20 0xFFFFFFFFFFFFFFFFFFFFFFFFFFFFFFFFFFFFFFFF AND PUSH20 0xFFFFFFFFFFFFFFFFFFFFFFFFFFFFFFFFFFFFFFFF AND PUSH4 0xA9059CBB DUP3 PUSH1 0x1 PUSH1 0x0 SWAP1 SLOAD SWAP1 PUSH2 0x100 EXP SWAP1 DIV PUSH20 0xFFFFFFFFFFFFFFFFFFFFFFFFFFFFFFFFFFFFFFFF AND PUSH20 0xFFFFFFFFFFFFFFFFFFFFFFFFFFFFFFFFFFFFFFFF AND PUSH4 0x70A08231 ADDRESS PUSH1 0x40 MLOAD DUP3 PUSH4 0xFFFFFFFF AND PUSH1 0xE0 SHL DUP2 MSTORE PUSH1 0x4 ADD PUSH2 0x1824 SWAP2 SWAP1 PUSH2 0x281B JUMP JUMPDEST PUSH1 0x20 PUSH1 0x40 MLOAD DUP1 DUP4 SUB DUP2 DUP7 GAS STATICCALL ISZERO DUP1 ISZERO PUSH2 0x1841 JUMPI RETURNDATASIZE PUSH1 0x0 DUP1 RETURNDATACOPY RETURNDATASIZE PUSH1 0x0 REVERT JUMPDEST POP POP POP POP PUSH1 0x40 MLOAD RETURNDATASIZE PUSH1 0x1F NOT PUSH1 0x1F DUP3 ADD AND DUP3 ADD DUP1 PUSH1 0x40 MSTORE POP DUP2 ADD SWAP1 PUSH2 0x1865 SWAP2 SWAP1 PUSH2 0x2AE0 JUMP JUMPDEST PUSH1 0x40 MLOAD DUP4 PUSH4 0xFFFFFFFF AND PUSH1 0xE0 SHL DUP2 MSTORE PUSH1 0x4 ADD PUSH2 0x1882 SWAP3 SWAP2 SWAP1 PUSH2 0x2D68 JUMP JUMPDEST PUSH1 0x20 PUSH1 0x40 MLOAD DUP1 DUP4 SUB DUP2 PUSH1 0x0 DUP8 GAS CALL ISZERO DUP1 ISZERO PUSH2 0x18A1 JUMPI RETURNDATASIZE PUSH1 0x0 DUP1 RETURNDATACOPY RETURNDATASIZE PUSH1 0x0 REVERT JUMPDEST POP POP POP POP PUSH1 0x40 MLOAD RETURNDATASIZE PUSH1 0x1F NOT PUSH1 0x1F DUP3 ADD AND DUP3 ADD DUP1 PUSH1 0x40 MSTORE POP DUP2 ADD SWAP1 PUSH2 0x18C5 SWAP2 SWAP1 PUSH2 0x2CAE JUMP JUMPDEST POP POP JUMP JUMPDEST PUSH2 0x18D1 PUSH2 0x1AE3 JUMP JUMPDEST PUSH20 0xFFFFFFFFFFFFFFFFFFFFFFFFFFFFFFFFFFFFFFFF AND PUSH2 0x18EF PUSH2 0x1296 JUMP JUMPDEST PUSH20 0xFFFFFFFFFFFFFFFFFFFFFFFFFFFFFFFFFFFFFFFF AND EQ PUSH2 0x1945 JUMPI PUSH1 0x40 MLOAD PUSH32 0x8C379A000000000000000000000000000000000000000000000000000000000 DUP2 MSTORE PUSH1 0x4 ADD PUSH2 0x193C SWAP1 PUSH2 0x2D27 JUMP JUMPDEST PUSH1 0x40 MLOAD DUP1 SWAP2 SUB SWAP1 REVERT JUMPDEST PUSH1 0x1 PUSH1 0x4 PUSH1 0x1 PUSH1 0x4 DUP1 SLOAD SWAP1 POP PUSH2 0x195B SWAP2 SWAP1 PUSH2 0x29D2 JUMP JUMPDEST DUP2 SLOAD DUP2 LT PUSH2 0x196C JUMPI PUSH2 0x196B PUSH2 0x2974 JUMP JUMPDEST JUMPDEST SWAP1 PUSH1 0x0 MSTORE PUSH1 0x20 PUSH1 0x0 KECCAK256 SWAP1 PUSH1 0xB MUL ADD PUSH1 0x2 ADD PUSH1 0x0 PUSH2 0x100 EXP DUP2 SLOAD DUP2 PUSH1 0xFF MUL NOT AND SWAP1 DUP4 PUSH1 0x1 DUP2 GT ISZERO PUSH2 0x199F JUMPI PUSH2 0x199E PUSH2 0x26C0 JUMP JUMPDEST JUMPDEST MUL OR SWAP1 SSTORE POP PUSH2 0x19AC PUSH2 0x1EE2 JUMP JUMPDEST PUSH2 0x19B4 PUSH2 0x1C76 JUMP JUMPDEST JUMP JUMPDEST PUSH1 0x1 DUP2 JUMP JUMPDEST PUSH1 0x7 SLOAD DUP2 JUMP JUMPDEST PUSH2 0x19C9 PUSH2 0x1AE3 JUMP JUMPDEST PUSH20 0xFFFFFFFFFFFFFFFFFFFFFFFFFFFFFFFFFFFFFFFF AND PUSH2 0x19E7 PUSH2 0x1296 JUMP JUMPDEST PUSH20 0xFFFFFFFFFFFFFFFFFFFFFFFFFFFFFFFFFFFFFFFF AND EQ PUSH2 0x1A3D JUMPI PUSH1 0x40 MLOAD PUSH32 0x8C379A000000000000000000000000000000000000000000000000000000000 DUP2 MSTORE PUSH1 0x4 ADD PUSH2 0x1A34 SWAP1 PUSH2 0x2D27 JUMP JUMPDEST PUSH1 0x40 MLOAD DUP1 SWAP2 SUB SWAP1 REVERT JUMPDEST PUSH1 0x0 PUSH20 0xFFFFFFFFFFFFFFFFFFFFFFFFFFFFFFFFFFFFFFFF AND DUP2 PUSH20 0xFFFFFFFFFFFFFFFFFFFFFFFFFFFFFFFFFFFFFFFF AND SUB PUSH2 0x1AAC JUMPI PUSH1 0x40 MLOAD PUSH32 0x8C379A000000000000000000000000000000000000000000000000000000000 DUP2 MSTORE PUSH1 0x4 ADD PUSH2 0x1AA3 SWAP1 PUSH2 0x2E03 JUMP JUMPDEST PUSH1 0x40 MLOAD DUP1 SWAP2 SUB SWAP1 REVERT JUMPDEST PUSH2 0x1AB5 DUP2 PUSH2 0x1E1E JUMP JUMPDEST POP JUMP JUMPDEST PUSH1 0x1 PUSH1 0x0 SWAP1 SLOAD SWAP1 PUSH2 0x100 EXP SWAP1 DIV PUSH20 0xFFFFFFFFFFFFFFFFFFFFFFFFFFFFFFFFFFFFFFFF AND DUP2 JUMP JUMPDEST PUSH1 0x2D DUP2 JUMP JUMPDEST PUSH1 0x0 CALLER SWAP1 POP SWAP1 JUMP JUMPDEST PUSH1 0x1 DUP1 DUP2 GT ISZERO PUSH2 0x1AFE JUMPI PUSH2 0x1AFD PUSH2 0x26C0 JUMP JUMPDEST JUMPDEST PUSH1 0x4 PUSH1 0x1 PUSH1 0x4 DUP1 SLOAD SWAP1 POP PUSH2 0x1B12 SWAP2 SWAP1 PUSH2 0x29D2 JUMP JUMPDEST DUP2 SLOAD DUP2 LT PUSH2 0x1B23 JUMPI PUSH2 0x1B22 PUSH2 0x2974 JUMP JUMPDEST JUMPDEST SWAP1 PUSH1 0x0 MSTORE PUSH1 0x20 PUSH1 0x0 KECCAK256 SWAP1 PUSH1 0xB MUL ADD PUSH1 0x2 ADD PUSH1 0x0 SWAP1 SLOAD SWAP1 PUSH2 0x100 EXP SWAP1 DIV PUSH1 0xFF AND PUSH1 0x1 DUP2 GT ISZERO PUSH2 0x1B54 JUMPI PUSH2 0x1B53 PUSH2 0x26C0 JUMP JUMPDEST JUMPDEST SUB PUSH2 0x1B94 JUMPI PUSH1 0x40 MLOAD PUSH32 0x8C379A000000000000000000000000000000000000000000000000000000000 DUP2 MSTORE PUSH1 0x4 ADD PUSH2 0x1B8B SWAP1 PUSH2 0x2E6F JUMP JUMPDEST PUSH1 0x40 MLOAD DUP1 SWAP2 SUB SWAP1 REVERT JUMPDEST PUSH1 0x4 PUSH1 0x1 PUSH1 0x4 DUP1 SLOAD SWAP1 POP PUSH2 0x1BA8 SWAP2 SWAP1 PUSH2 0x29D2 JUMP JUMPDEST DUP2 SLOAD DUP2 LT PUSH2 0x1BB9 JUMPI PUSH2 0x1BB8 PUSH2 0x2974 JUMP JUMPDEST JUMPDEST SWAP1 PUSH1 0x0 MSTORE PUSH1 0x20 PUSH1 0x0 KECCAK256 SWAP1 PUSH1 0xB MUL ADD PUSH1 0x1 ADD SLOAD TIMESTAMP LT ISZERO PUSH2 0x1C0D JUMPI PUSH1 0x40 MLOAD PUSH32 0x8C379A000000000000000000000000000000000000000000000000000000000 DUP2 MSTORE PUSH1 0x4 ADD PUSH2 0x1C04 SWAP1 PUSH2 0x2EDB JUMP JUMPDEST PUSH1 0x40 MLOAD DUP1 SWAP2 SUB SWAP1 REVERT JUMPDEST PUSH1 0x1 PUSH1 0x4 PUSH1 0x1 PUSH1 0x4 DUP1 SLOAD SWAP1 POP PUSH2 0x1C23 SWAP2 SWAP1 PUSH2 0x29D2 JUMP JUMPDEST DUP2 SLOAD DUP2 LT PUSH2 0x1C34 JUMPI PUSH2 0x1C33 PUSH2 0x2974 JUMP JUMPDEST JUMPDEST SWAP1 PUSH1 0x0 MSTORE PUSH1 0x20 PUSH1 0x0 KECCAK256 SWAP1 PUSH1 0xB MUL ADD PUSH1 0x2 ADD PUSH1 0x0 PUSH2 0x100 EXP DUP2 SLOAD DUP2 PUSH1 0xFF MUL NOT AND SWAP1 DUP4 PUSH1 0x1 DUP2 GT ISZERO PUSH2 0x1C67 JUMPI PUSH2 0x1C66 PUSH2 0x26C0 JUMP JUMPDEST JUMPDEST MUL OR SWAP1 SSTORE POP PUSH2 0x1C74 PUSH2 0x1EE2 JUMP JUMPDEST JUMP JUMPDEST PUSH1 0x0 PUSH1 0x4 DUP1 SLOAD SWAP1 POP GT DUP1 ISZERO PUSH2 0x1CF2 JUMPI POP PUSH1 0x1 DUP1 DUP2 GT ISZERO PUSH2 0x1C99 JUMPI PUSH2 0x1C98 PUSH2 0x26C0 JUMP JUMPDEST JUMPDEST PUSH1 0x4 PUSH1 0x1 PUSH1 0x4 DUP1 SLOAD SWAP1 POP PUSH2 0x1CAD SWAP2 SWAP1 PUSH2 0x29D2 JUMP JUMPDEST DUP2 SLOAD DUP2 LT PUSH2 0x1CBE JUMPI PUSH2 0x1CBD PUSH2 0x2974 JUMP JUMPDEST JUMPDEST SWAP1 PUSH1 0x0 MSTORE PUSH1 0x20 PUSH1 0x0 KECCAK256 SWAP1 PUSH1 0xB MUL ADD PUSH1 0x2 ADD PUSH1 0x0 SWAP1 SLOAD SWAP1 PUSH2 0x100 EXP SWAP1 DIV PUSH1 0xFF AND PUSH1 0x1 DUP2 GT ISZERO PUSH2 0x1CEF JUMPI PUSH2 0x1CEE PUSH2 0x26C0 JUMP JUMPDEST JUMPDEST EQ ISZERO JUMPDEST ISZERO PUSH2 0x1D32 JUMPI PUSH1 0x40 MLOAD PUSH32 0x8C379A000000000000000000000000000000000000000000000000000000000 DUP2 MSTORE PUSH1 0x4 ADD PUSH2 0x1D29 SWAP1 PUSH2 0x2F47 JUMP JUMPDEST PUSH1 0x40 MLOAD DUP1 SWAP2 SUB SWAP1 REVERT JUMPDEST PUSH2 0x1D3A PUSH2 0x224B JUMP JUMPDEST PUSH1 0x0 PUSH1 0x40 MLOAD DUP1 PUSH1 0xA0 ADD PUSH1 0x40 MSTORE DUP1 TIMESTAMP DUP2 MSTORE PUSH1 0x20 ADD PUSH1 0x6 SLOAD TIMESTAMP PUSH2 0x1D5B SWAP2 SWAP1 PUSH2 0x2B79 JUMP JUMPDEST DUP2 MSTORE PUSH1 0x20 ADD PUSH1 0x0 PUSH1 0x1 DUP2 GT ISZERO PUSH2 0x1D74 JUMPI PUSH2 0x1D73 PUSH2 0x26C0 JUMP JUMPDEST JUMPDEST DUP2 MSTORE PUSH1 0x20 ADD DUP4 DUP2 MSTORE PUSH1 0x20 ADD PUSH1 0x0 DUP2 MSTORE POP SWAP1 POP PUSH1 0x4 DUP2 SWAP1 DUP1 PUSH1 0x1 DUP2 SLOAD ADD DUP1 DUP3 SSTORE DUP1 SWAP2 POP POP PUSH1 0x1 SWAP1 SUB SWAP1 PUSH1 0x0 MSTORE PUSH1 0x20 PUSH1 0x0 KECCAK256 SWAP1 PUSH1 0xB MUL ADD PUSH1 0x0 SWAP1 SWAP2 SWAP1 SWAP2 SWAP1 SWAP2 POP PUSH1 0x0 DUP3 ADD MLOAD DUP2 PUSH1 0x0 ADD SSTORE PUSH1 0x20 DUP3 ADD MLOAD DUP2 PUSH1 0x1 ADD SSTORE PUSH1 0x40 DUP3 ADD MLOAD DUP2 PUSH1 0x2 ADD PUSH1 0x0 PUSH2 0x100 EXP DUP2 SLOAD DUP2 PUSH1 0xFF MUL NOT AND SWAP1 DUP4 PUSH1 0x1 DUP2 GT ISZERO PUSH2 0x1DF1 JUMPI PUSH2 0x1DF0 PUSH2 0x26C0 JUMP JUMPDEST JUMPDEST MUL OR SWAP1 SSTORE POP PUSH1 0x60 DUP3 ADD MLOAD DUP2 PUSH1 0x3 ADD SWAP1 PUSH1 0x7 PUSH2 0x1E0D SWAP3 SWAP2 SWAP1 PUSH2 0x226D JUMP JUMPDEST POP PUSH1 0x80 DUP3 ADD MLOAD DUP2 PUSH1 0xA ADD SSTORE POP POP POP POP JUMP JUMPDEST PUSH1 0x0 DUP1 PUSH1 0x0 SWAP1 SLOAD SWAP1 PUSH2 0x100 EXP SWAP1 DIV PUSH20 0xFFFFFFFFFFFFFFFFFFFFFFFFFFFFFFFFFFFFFFFF AND SWAP1 POP DUP2 PUSH1 0x0 DUP1 PUSH2 0x100 EXP DUP2 SLOAD DUP2 PUSH20 0xFFFFFFFFFFFFFFFFFFFFFFFFFFFFFFFFFFFFFFFF MUL NOT AND SWAP1 DUP4 PUSH20 0xFFFFFFFFFFFFFFFFFFFFFFFFFFFFFFFFFFFFFFFF AND MUL OR SWAP1 SSTORE POP DUP2 PUSH20 0xFFFFFFFFFFFFFFFFFFFFFFFFFFFFFFFFFFFFFFFF AND DUP2 PUSH20 0xFFFFFFFFFFFFFFFFFFFFFFFFFFFFFFFFFFFFFFFF AND PUSH32 0x8BE0079C531659141344CD1FD0A4F28419497F9722A3DAAFE3B4186F6B6457E0 PUSH1 0x40 MLOAD PUSH1 0x40 MLOAD DUP1 SWAP2 SUB SWAP1 LOG3 POP POP JUMP JUMPDEST PUSH1 0x0 PUSH1 0x4 PUSH1 0x1 PUSH1 0x4 DUP1 SLOAD SWAP1 POP PUSH2 0x1EF8 SWAP2 SWAP1 PUSH2 0x29D2 JUMP JUMPDEST DUP2 SLOAD DUP2 LT PUSH2 0x1F09 JUMPI PUSH2 0x1F08 PUSH2 0x2974 JUMP JUMPDEST JUMPDEST SWAP1 PUSH1 0x0 MSTORE PUSH1 0x20 PUSH1 0x0 KECCAK256 SWAP1 PUSH1 0xB MUL ADD PUSH1 0x1 ADD SLOAD SWAP1 POP PUSH1 0x4 PUSH1 0x1 PUSH1 0x4 DUP1 SLOAD SWAP1 POP PUSH2 0x1F31 SWAP2 SWAP1 PUSH2 0x29D2 JUMP JUMPDEST DUP2 SLOAD DUP2 LT PUSH2 0x1F42 JUMPI PUSH2 0x1F41 PUSH2 0x2974 JUMP JUMPDEST JUMPDEST SWAP1 PUSH1 0x0 MSTORE PUSH1 0x20 PUSH1 0x0 KECCAK256 SWAP1 PUSH1 0xB MUL ADD PUSH1 0x1 ADD SLOAD TIMESTAMP GT PUSH2 0x1F5F JUMPI PUSH1 0x0 DUP1 REVERT JUMPDEST PUSH1 0x0 PUSH1 0x4 PUSH1 0x1 PUSH1 0x4 DUP1 SLOAD SWAP1 POP PUSH2 0x1F75 SWAP2 SWAP1 PUSH2 0x29D2 JUMP JUMPDEST DUP2 SLOAD DUP2 LT PUSH2 0x1F86 JUMPI PUSH2 0x1F85 PUSH2 0x2974 JUMP JUMPDEST JUMPDEST SWAP1 PUSH1 0x0 MSTORE PUSH1 0x20 PUSH1 0x0 KECCAK256 SWAP1 PUSH1 0xB MUL ADD PUSH1 0x3 ADD PUSH1 0x0 PUSH1 0x7 DUP2 LT PUSH2 0x1FAA JUMPI PUSH2 0x1FA9 PUSH2 0x2974 JUMP JUMPDEST JUMPDEST ADD SLOAD EQ PUSH2 0x1FB6 JUMPI PUSH1 0x0 DUP1 REVERT JUMPDEST PUSH1 0x0 DUP1 JUMPDEST PUSH1 0x7 DUP3 LT ISZERO PUSH2 0x2126 JUMPI PUSH1 0x0 DUP4 BLOCKHASH SWAP1 POP PUSH1 0x0 DUP2 DUP4 PUSH1 0x40 MLOAD PUSH1 0x20 ADD PUSH2 0x1FDE SWAP3 SWAP2 SWAP1 PUSH2 0x2F80 JUMP JUMPDEST PUSH1 0x40 MLOAD PUSH1 0x20 DUP2 DUP4 SUB SUB DUP2 MSTORE SWAP1 PUSH1 0x40 MSTORE SWAP1 POP PUSH1 0x0 DUP2 DUP1 MLOAD SWAP1 PUSH1 0x20 ADD KECCAK256 SWAP1 POP PUSH1 0x0 PUSH1 0x1 PUSH1 0x2D DUP4 PUSH1 0x0 SHR PUSH2 0x200F SWAP2 SWAP1 PUSH2 0x2FD8 JUMP JUMPDEST PUSH2 0x2019 SWAP2 SWAP1 PUSH2 0x2B79 JUMP JUMPDEST SWAP1 POP PUSH1 0x0 DUP1 JUMPDEST DUP8 DUP2 LT ISZERO PUSH2 0x20A1 JUMPI PUSH1 0x4 PUSH1 0x1 PUSH1 0x4 DUP1 SLOAD SWAP1 POP PUSH2 0x203B SWAP2 SWAP1 PUSH2 0x29D2 JUMP JUMPDEST DUP2 SLOAD DUP2 LT PUSH2 0x204C JUMPI PUSH2 0x204B PUSH2 0x2974 JUMP JUMPDEST JUMPDEST SWAP1 PUSH1 0x0 MSTORE PUSH1 0x20 PUSH1 0x0 KECCAK256 SWAP1 PUSH1 0xB MUL ADD PUSH1 0x3 ADD DUP2 PUSH1 0x7 DUP2 LT PUSH2 0x206F JUMPI PUSH2 0x206E PUSH2 0x2974 JUMP JUMPDEST JUMPDEST ADD SLOAD DUP4 SUB PUSH2 0x208E JUMPI PUSH1 0x1 SWAP2 POP DUP7 DUP1 PUSH2 0x2086 SWAP1 PUSH2 0x2A06 JUMP JUMPDEST SWAP8 POP POP PUSH2 0x20A1 JUMP JUMPDEST DUP1 DUP1 PUSH2 0x2099 SWAP1 PUSH2 0x2A06 JUMP JUMPDEST SWAP2 POP POP PUSH2 0x201F JUMP JUMPDEST POP DUP1 ISZERO PUSH2 0x20B2 JUMPI POP POP POP POP POP PUSH2 0x1FBA JUMP JUMPDEST DUP2 PUSH1 0x4 PUSH1 0x1 PUSH1 0x4 DUP1 SLOAD SWAP1 POP PUSH2 0x20C7 SWAP2 SWAP1 PUSH2 0x29D2 JUMP JUMPDEST DUP2 SLOAD DUP2 LT PUSH2 0x20D8 JUMPI PUSH2 0x20D7 PUSH2 0x2974 JUMP JUMPDEST JUMPDEST SWAP1 PUSH1 0x0 MSTORE PUSH1 0x20 PUSH1 0x0 KECCAK256 SWAP1 PUSH1 0xB MUL ADD PUSH1 0x3 ADD DUP9 PUSH1 0x7 DUP2 LT PUSH2 0x20FB JUMPI PUSH2 0x20FA PUSH2 0x2974 JUMP JUMPDEST JUMPDEST ADD DUP2 SWAP1 SSTORE POP DUP7 DUP1 PUSH2 0x210B SWAP1 PUSH2 0x2A06 JUMP JUMPDEST SWAP8 POP POP DUP6 DUP1 PUSH2 0x2119 SWAP1 PUSH2 0x2A06 JUMP JUMPDEST SWAP7 POP POP POP POP POP POP POP PUSH2 0x1FBA JUMP JUMPDEST PUSH1 0x0 DUP4 BLOCKHASH SWAP1 POP PUSH1 0x0 DUP2 DUP4 PUSH1 0x40 MLOAD PUSH1 0x20 ADD PUSH2 0x2141 SWAP3 SWAP2 SWAP1 PUSH2 0x2F80 JUMP JUMPDEST PUSH1 0x40 MLOAD PUSH1 0x20 DUP2 DUP4 SUB SUB DUP2 MSTORE SWAP1 PUSH1 0x40 MSTORE SWAP1 POP PUSH1 0x0 DUP2 DUP1 MLOAD SWAP1 PUSH1 0x20 ADD KECCAK256 SWAP1 POP PUSH1 0x0 PUSH1 0x1 PUSH1 0x2D DUP4 PUSH1 0x0 SHR PUSH2 0x2172 SWAP2 SWAP1 PUSH2 0x2FD8 JUMP JUMPDEST PUSH2 0x217C SWAP2 SWAP1 PUSH2 0x2B79 JUMP JUMPDEST SWAP1 POP DUP1 PUSH1 0x4 PUSH1 0x1 PUSH1 0x4 DUP1 SLOAD SWAP1 POP PUSH2 0x2193 SWAP2 SWAP1 PUSH2 0x29D2 JUMP JUMPDEST DUP2 SLOAD DUP2 LT PUSH2 0x21A4 JUMPI PUSH2 0x21A3 PUSH2 0x2974 JUMP JUMPDEST JUMPDEST SWAP1 PUSH1 0x0 MSTORE PUSH1 0x20 PUSH1 0x0 KECCAK256 SWAP1 PUSH1 0xB MUL ADD PUSH1 0x3 ADD PUSH1 0x6 PUSH1 0x7 DUP2 LT PUSH2 0x21C8 JUMPI PUSH2 0x21C7 PUSH2 0x2974 JUMP JUMPDEST JUMPDEST ADD DUP2 SWAP1 SSTORE POP POP POP POP POP POP POP POP JUMP JUMPDEST POP DUP1 PUSH1 0x6 ADD SWAP1 PUSH2 0x21E6 SWAP2 SWAP1 PUSH2 0x22AD JUMP JUMPDEST POP JUMP JUMPDEST PUSH1 0x40 MLOAD DUP1 PUSH1 0xC0 ADD PUSH1 0x40 MSTORE DUP1 PUSH1 0x6 SWAP1 PUSH1 0x20 DUP3 MUL DUP1 CALLDATASIZE DUP4 CALLDATACOPY DUP1 DUP3 ADD SWAP2 POP POP SWAP1 POP POP SWAP1 JUMP JUMPDEST DUP3 PUSH1 0x6 DUP2 ADD SWAP3 DUP3 ISZERO PUSH2 0x223A JUMPI SWAP2 PUSH1 0x20 MUL DUP3 ADD JUMPDEST DUP3 DUP2 GT ISZERO PUSH2 0x2239 JUMPI DUP3 MLOAD DUP3 SSTORE SWAP2 PUSH1 0x20 ADD SWAP2 SWAP1 PUSH1 0x1 ADD SWAP1 PUSH2 0x221E JUMP JUMPDEST JUMPDEST POP SWAP1 POP PUSH2 0x2247 SWAP2 SWAP1 PUSH2 0x22AD JUMP JUMPDEST POP SWAP1 JUMP JUMPDEST PUSH1 0x40 MLOAD DUP1 PUSH1 0xE0 ADD PUSH1 0x40 MSTORE DUP1 PUSH1 0x7 SWAP1 PUSH1 0x20 DUP3 MUL DUP1 CALLDATASIZE DUP4 CALLDATACOPY DUP1 DUP3 ADD SWAP2 POP POP SWAP1 POP POP SWAP1 JUMP JUMPDEST DUP3 PUSH1 0x7 DUP2 ADD SWAP3 DUP3 ISZERO PUSH2 0x229C JUMPI SWAP2 PUSH1 0x20 MUL DUP3 ADD JUMPDEST DUP3 DUP2 GT ISZERO PUSH2 0x229B JUMPI DUP3 MLOAD DUP3 SSTORE SWAP2 PUSH1 0x20 ADD SWAP2 SWAP1 PUSH1 0x1 ADD SWAP1 PUSH2 0x2280 JUMP JUMPDEST JUMPDEST POP SWAP1 POP PUSH2 0x22A9 SWAP2 SWAP1 PUSH2 0x22AD JUMP JUMPDEST POP SWAP1 JUMP JUMPDEST JUMPDEST DUP1 DUP3 GT ISZERO PUSH2 0x22C6 JUMPI PUSH1 0x0 DUP2 PUSH1 0x0 SWAP1 SSTORE POP PUSH1 0x1 ADD PUSH2 0x22AE JUMP JUMPDEST POP SWAP1 JUMP JUMPDEST PUSH1 0x0 DUP2 SWAP1 POP SWAP2 SWAP1 POP JUMP JUMPDEST PUSH2 0x22DD DUP2 PUSH2 0x22CA JUMP JUMPDEST DUP3 MSTORE POP POP JUMP JUMPDEST PUSH1 0x0 PUSH1 0x20 DUP3 ADD SWAP1 POP PUSH2 0x22F8 PUSH1 0x0 DUP4 ADD DUP5 PUSH2 0x22D4 JUMP JUMPDEST SWAP3 SWAP2 POP POP JUMP JUMPDEST PUSH1 0x0 PUSH1 0x40 MLOAD SWAP1 POP SWAP1 JUMP JUMPDEST PUSH1 0x0 DUP1 REVERT JUMPDEST PUSH2 0x2316 DUP2 PUSH2 0x22CA JUMP JUMPDEST DUP2 EQ PUSH2 0x2321 JUMPI PUSH1 0x0 DUP1 REVERT JUMPDEST POP JUMP JUMPDEST PUSH1 0x0 DUP2 CALLDATALOAD SWAP1 POP PUSH2 0x2333 DUP2 PUSH2 0x230D JUMP JUMPDEST SWAP3 SWAP2 POP POP JUMP JUMPDEST PUSH1 0x0 PUSH1 0x20 DUP3 DUP5 SUB SLT ISZERO PUSH2 0x234F JUMPI PUSH2 0x234E PUSH2 0x2308 JUMP JUMPDEST JUMPDEST PUSH1 0x0 PUSH2 0x235D DUP5 DUP3 DUP6 ADD PUSH2 0x2324 JUMP JUMPDEST SWAP2 POP POP SWAP3 SWAP2 POP POP JUMP JUMPDEST PUSH1 0x0 DUP2 MLOAD SWAP1 POP SWAP2 SWAP1 POP JUMP JUMPDEST PUSH1 0x0 DUP3 DUP3 MSTORE PUSH1 0x20 DUP3 ADD SWAP1 POP SWAP3 SWAP2 POP POP JUMP JUMPDEST PUSH1 0x0 DUP2 SWAP1 POP PUSH1 0x20 DUP3 ADD SWAP1 POP SWAP2 SWAP1 POP JUMP JUMPDEST PUSH1 0x0 PUSH1 0x6 SWAP1 POP SWAP2 SWAP1 POP JUMP JUMPDEST PUSH1 0x0 DUP2 SWAP1 POP SWAP3 SWAP2 POP POP JUMP JUMPDEST PUSH1 0x0 DUP2 SWAP1 POP SWAP2 SWAP1 POP JUMP JUMPDEST PUSH2 0x23BB DUP2 PUSH2 0x22CA JUMP JUMPDEST DUP3 MSTORE POP POP JUMP JUMPDEST PUSH1 0x0 PUSH2 0x23CD DUP4 DUP4 PUSH2 0x23B2 JUMP JUMPDEST PUSH1 0x20 DUP4 ADD SWAP1 POP SWAP3 SWAP2 POP POP JUMP JUMPDEST PUSH1 0x0 PUSH1 0x20 DUP3 ADD SWAP1 POP SWAP2 SWAP1 POP JUMP JUMPDEST PUSH2 0x23EF DUP2 PUSH2 0x2392 JUMP JUMPDEST PUSH2 0x23F9 DUP2 DUP5 PUSH2 0x239D JUMP JUMPDEST SWAP3 POP PUSH2 0x2404 DUP3 PUSH2 0x23A8 JUMP JUMPDEST DUP1 PUSH1 0x0 JUMPDEST DUP4 DUP2 LT ISZERO PUSH2 0x2435 JUMPI DUP2 MLOAD PUSH2 0x241C DUP8 DUP3 PUSH2 0x23C1 JUMP JUMPDEST SWAP7 POP PUSH2 0x2427 DUP4 PUSH2 0x23D9 JUMP JUMPDEST SWAP3 POP POP PUSH1 0x1 DUP2 ADD SWAP1 POP PUSH2 0x2408 JUMP JUMPDEST POP POP POP POP POP POP JUMP JUMPDEST PUSH1 0x0 PUSH2 0x2449 DUP4 DUP4 PUSH2 0x23E6 JUMP JUMPDEST PUSH1 0xC0 DUP4 ADD SWAP1 POP SWAP3 SWAP2 POP POP JUMP JUMPDEST PUSH1 0x0 PUSH1 0x20 DUP3 ADD SWAP1 POP SWAP2 SWAP1 POP JUMP JUMPDEST PUSH1 0x0 PUSH2 0x246D DUP3 PUSH2 0x2366 JUMP JUMPDEST PUSH2 0x2477 DUP2 DUP6 PUSH2 0x2371 JUMP JUMPDEST SWAP4 POP PUSH2 0x2482 DUP4 PUSH2 0x2382 JUMP JUMPDEST DUP1 PUSH1 0x0 JUMPDEST DUP4 DUP2 LT ISZERO PUSH2 0x24B3 JUMPI DUP2 MLOAD PUSH2 0x249A DUP9 DUP3 PUSH2 0x243D JUMP JUMPDEST SWAP8 POP PUSH2 0x24A5 DUP4 PUSH2 0x2455 JUMP JUMPDEST SWAP3 POP POP PUSH1 0x1 DUP2 ADD SWAP1 POP PUSH2 0x2486 JUMP JUMPDEST POP DUP6 SWAP4 POP POP POP POP SWAP3 SWAP2 POP POP JUMP JUMPDEST PUSH1 0x0 PUSH1 0x20 DUP3 ADD SWAP1 POP DUP2 DUP2 SUB PUSH1 0x0 DUP4 ADD MSTORE PUSH2 0x24DA DUP2 DUP5 PUSH2 0x2462 JUMP JUMPDEST SWAP1 POP SWAP3 SWAP2 POP POP JUMP JUMPDEST PUSH1 0x0 DUP1 REVERT JUMPDEST PUSH1 0x0 PUSH1 0x1F NOT PUSH1 0x1F DUP4 ADD AND SWAP1 POP SWAP2 SWAP1 POP JUMP JUMPDEST PUSH32 0x4E487B7100000000000000000000000000000000000000000000000000000000 PUSH1 0x0 MSTORE PUSH1 0x41 PUSH1 0x4 MSTORE PUSH1 0x24 PUSH1 0x0 REVERT JUMPDEST PUSH2 0x2530 DUP3 PUSH2 0x24E7 JUMP JUMPDEST DUP2 ADD DUP2 DUP2 LT PUSH8 0xFFFFFFFFFFFFFFFF DUP3 GT OR ISZERO PUSH2 0x254F JUMPI PUSH2 0x254E PUSH2 0x24F8 JUMP JUMPDEST JUMPDEST DUP1 PUSH1 0x40 MSTORE POP POP POP JUMP JUMPDEST PUSH1 0x0 PUSH2 0x2562 PUSH2 0x22FE JUMP JUMPDEST SWAP1 POP PUSH2 0x256E DUP3 DUP3 PUSH2 0x2527 JUMP JUMPDEST SWAP2 SWAP1 POP JUMP JUMPDEST PUSH1 0x0 PUSH8 0xFFFFFFFFFFFFFFFF DUP3 GT ISZERO PUSH2 0x258E JUMPI PUSH2 0x258D PUSH2 0x24F8 JUMP JUMPDEST JUMPDEST PUSH1 0x20 DUP3 MUL SWAP1 POP SWAP2 SWAP1 POP JUMP JUMPDEST PUSH1 0x0 DUP1 REVERT JUMPDEST PUSH1 0x0 PUSH2 0x25B1 PUSH2 0x25AC DUP5 PUSH2 0x2573 JUMP JUMPDEST PUSH2 0x2558 JUMP JUMPDEST SWAP1 POP DUP1 PUSH1 0x20 DUP5 MUL DUP4 ADD DUP6 DUP2 GT ISZERO PUSH2 0x25CB JUMPI PUSH2 0x25CA PUSH2 0x2599 JUMP JUMPDEST JUMPDEST DUP4 JUMPDEST DUP2 DUP2 LT ISZERO PUSH2 0x25F4 JUMPI DUP1 PUSH2 0x25E0 DUP9 DUP3 PUSH2 0x2324 JUMP JUMPDEST DUP5 MSTORE PUSH1 0x20 DUP5 ADD SWAP4 POP POP PUSH1 0x20 DUP2 ADD SWAP1 POP PUSH2 0x25CD JUMP JUMPDEST POP POP POP SWAP4 SWAP3 POP POP POP JUMP JUMPDEST PUSH1 0x0 DUP3 PUSH1 0x1F DUP4 ADD SLT PUSH2 0x2613 JUMPI PUSH2 0x2612 PUSH2 0x24E2 JUMP JUMPDEST JUMPDEST PUSH1 0x6 PUSH2 0x2620 DUP5 DUP3 DUP6 PUSH2 0x259E JUMP JUMPDEST SWAP2 POP POP SWAP3 SWAP2 POP POP JUMP JUMPDEST PUSH1 0x0 PUSH1 0xC0 DUP3 DUP5 SUB SLT ISZERO PUSH2 0x263F JUMPI PUSH2 0x263E PUSH2 0x2308 JUMP JUMPDEST JUMPDEST PUSH1 0x0 PUSH2 0x264D DUP5 DUP3 DUP6 ADD PUSH2 0x25FE JUMP JUMPDEST SWAP2 POP POP SWAP3 SWAP2 POP POP JUMP JUMPDEST PUSH1 0x0 PUSH20 0xFFFFFFFFFFFFFFFFFFFFFFFFFFFFFFFFFFFFFFFF DUP3 AND SWAP1 POP SWAP2 SWAP1 POP JUMP JUMPDEST PUSH1 0x0 PUSH2 0x2681 DUP3 PUSH2 0x2656 JUMP JUMPDEST SWAP1 POP SWAP2 SWAP1 POP JUMP JUMPDEST PUSH2 0x2691 DUP2 PUSH2 0x2676 JUMP JUMPDEST DUP3 MSTORE POP POP JUMP JUMPDEST PUSH1 0x0 PUSH1 0x40 DUP3 ADD SWAP1 POP PUSH2 0x26AC PUSH1 0x0 DUP4 ADD DUP6 PUSH2 0x2688 JUMP JUMPDEST PUSH2 0x26B9 PUSH1 0x20 DUP4 ADD DUP5 PUSH2 0x22D4 JUMP JUMPDEST SWAP4 SWAP3 POP POP POP JUMP JUMPDEST PUSH32 0x4E487B7100000000000000000000000000000000000000000000000000000000 PUSH1 0x0 MSTORE PUSH1 0x21 PUSH1 0x4 MSTORE PUSH1 0x24 PUSH1 0x0 REVERT JUMPDEST PUSH1 0x2 DUP2 LT PUSH2 0x2700 JUMPI PUSH2 0x26FF PUSH2 0x26C0 JUMP JUMPDEST JUMPDEST POP JUMP JUMPDEST PUSH1 0x0 DUP2 SWAP1 POP PUSH2 0x2711 DUP3 PUSH2 0x26EF JUMP JUMPDEST SWAP2 SWAP1 POP JUMP JUMPDEST PUSH1 0x0 PUSH2 0x2721 DUP3 PUSH2 0x2703 JUMP JUMPDEST SWAP1 POP SWAP2 SWAP1 POP JUMP JUMPDEST PUSH2 0x2731 DUP2 PUSH2 0x2716 JUMP JUMPDEST DUP3 MSTORE POP POP JUMP JUMPDEST PUSH1 0x0 PUSH1 0x80 DUP3 ADD SWAP1 POP PUSH2 0x274C PUSH1 0x0 DUP4 ADD DUP8 PUSH2 0x22D4 JUMP JUMPDEST PUSH2 0x2759 PUSH1 0x20 DUP4 ADD DUP7 PUSH2 0x22D4 JUMP JUMPDEST PUSH2 0x2766 PUSH1 0x40 DUP4 ADD DUP6 PUSH2 0x2728 JUMP JUMPDEST PUSH2 0x2773 PUSH1 0x60 DUP4 ADD DUP5 PUSH2 0x22D4 JUMP JUMPDEST SWAP6 SWAP5 POP POP POP POP POP JUMP JUMPDEST PUSH1 0x0 PUSH1 0x7 SWAP1 POP SWAP2 SWAP1 POP JUMP JUMPDEST PUSH1 0x0 DUP2 SWAP1 POP SWAP3 SWAP2 POP POP JUMP JUMPDEST PUSH1 0x0 DUP2 SWAP1 POP SWAP2 SWAP1 POP JUMP JUMPDEST PUSH1 0x0 PUSH1 0x20 DUP3 ADD SWAP1 POP SWAP2 SWAP1 POP JUMP JUMPDEST PUSH2 0x27B2 DUP2 PUSH2 0x277C JUMP JUMPDEST PUSH2 0x27BC DUP2 DUP5 PUSH2 0x2787 JUMP JUMPDEST SWAP3 POP PUSH2 0x27C7 DUP3 PUSH2 0x2792 JUMP JUMPDEST DUP1 PUSH1 0x0 JUMPDEST DUP4 DUP2 LT ISZERO PUSH2 0x27F8 JUMPI DUP2 MLOAD PUSH2 0x27DF DUP8 DUP3 PUSH2 0x23C1 JUMP JUMPDEST SWAP7 POP PUSH2 0x27EA DUP4 PUSH2 0x279C JUMP JUMPDEST SWAP3 POP POP PUSH1 0x1 DUP2 ADD SWAP1 POP PUSH2 0x27CB JUMP JUMPDEST POP POP POP POP POP POP JUMP JUMPDEST PUSH1 0x0 PUSH1 0xE0 DUP3 ADD SWAP1 POP PUSH2 0x2815 PUSH1 0x0 DUP4 ADD DUP5 PUSH2 0x27A9 JUMP JUMPDEST SWAP3 SWAP2 POP POP JUMP JUMPDEST PUSH1 0x0 PUSH1 0x20 DUP3 ADD SWAP1 POP PUSH2 0x2830 PUSH1 0x0 DUP4 ADD DUP5 PUSH2 0x2688 JUMP JUMPDEST SWAP3 SWAP2 POP POP JUMP JUMPDEST PUSH1 0x0 PUSH2 0x2841 DUP3 PUSH2 0x2656 JUMP JUMPDEST SWAP1 POP SWAP2 SWAP1 POP JUMP JUMPDEST PUSH2 0x2851 DUP2 PUSH2 0x2836 JUMP JUMPDEST DUP2 EQ PUSH2 0x285C JUMPI PUSH1 0x0 DUP1 REVERT JUMPDEST POP JUMP JUMPDEST PUSH1 0x0 DUP2 CALLDATALOAD SWAP1 POP PUSH2 0x286E DUP2 PUSH2 0x2848 JUMP JUMPDEST SWAP3 SWAP2 POP POP JUMP JUMPDEST PUSH1 0x0 PUSH1 0x20 DUP3 DUP5 SUB SLT ISZERO PUSH2 0x288A JUMPI PUSH2 0x2889 PUSH2 0x2308 JUMP JUMPDEST JUMPDEST PUSH1 0x0 PUSH2 0x2898 DUP5 DUP3 DUP6 ADD PUSH2 0x285F JUMP JUMPDEST SWAP2 POP POP SWAP3 SWAP2 POP POP JUMP JUMPDEST PUSH2 0x28AA DUP2 PUSH2 0x2676 JUMP JUMPDEST DUP2 EQ PUSH2 0x28B5 JUMPI PUSH1 0x0 DUP1 REVERT JUMPDEST POP JUMP JUMPDEST PUSH1 0x0 DUP2 CALLDATALOAD SWAP1 POP PUSH2 0x28C7 DUP2 PUSH2 0x28A1 JUMP JUMPDEST SWAP3 SWAP2 POP POP JUMP JUMPDEST PUSH1 0x0 PUSH1 0x20 DUP3 DUP5 SUB SLT ISZERO PUSH2 0x28E3 JUMPI PUSH2 0x28E2 PUSH2 0x2308 JUMP JUMPDEST JUMPDEST PUSH1 0x0 PUSH2 0x28F1 DUP5 DUP3 DUP6 ADD PUSH2 0x28B8 JUMP JUMPDEST SWAP2 POP POP SWAP3 SWAP2 POP POP JUMP JUMPDEST PUSH1 0x0 DUP2 SWAP1 POP SWAP2 SWAP1 POP JUMP JUMPDEST PUSH1 0x0 PUSH2 0x291F PUSH2 0x291A PUSH2 0x2915 DUP5 PUSH2 0x2656 JUMP JUMPDEST PUSH2 0x28FA JUMP JUMPDEST PUSH2 0x2656 JUMP JUMPDEST SWAP1 POP SWAP2 SWAP1 POP JUMP JUMPDEST PUSH1 0x0 PUSH2 0x2931 DUP3 PUSH2 0x2904 JUMP JUMPDEST SWAP1 POP SWAP2 SWAP1 POP JUMP JUMPDEST PUSH1 0x0 PUSH2 0x2943 DUP3 PUSH2 0x2926 JUMP JUMPDEST SWAP1 POP SWAP2 SWAP1 POP JUMP JUMPDEST PUSH2 0x2953 DUP2 PUSH2 0x2938 JUMP JUMPDEST DUP3 MSTORE POP POP JUMP JUMPDEST PUSH1 0x0 PUSH1 0x20 DUP3 ADD SWAP1 POP PUSH2 0x296E PUSH1 0x0 DUP4 ADD DUP5 PUSH2 0x294A JUMP JUMPDEST SWAP3 SWAP2 POP POP JUMP JUMPDEST PUSH32 0x4E487B7100000000000000000000000000000000000000000000000000000000 PUSH1 0x0 MSTORE PUSH1 0x32 PUSH1 0x4 MSTORE PUSH1 0x24 PUSH1 0x0 REVERT JUMPDEST PUSH32 0x4E487B7100000000000000000000000000000000000000000000000000000000 PUSH1 0x0 MSTORE PUSH1 0x11 PUSH1 0x4 MSTORE PUSH1 0x24 PUSH1 0x0 REVERT JUMPDEST PUSH1 0x0 PUSH2 0x29DD DUP3 PUSH2 0x22CA JUMP JUMPDEST SWAP2 POP PUSH2 0x29E8 DUP4 PUSH2 0x22CA JUMP JUMPDEST SWAP3 POP DUP3 DUP3 SUB SWAP1 POP DUP2 DUP2 GT ISZERO PUSH2 0x2A00 JUMPI PUSH2 0x29FF PUSH2 0x29A3 JUMP JUMPDEST JUMPDEST SWAP3 SWAP2 POP POP JUMP JUMPDEST PUSH1 0x0 PUSH2 0x2A11 DUP3 PUSH2 0x22CA JUMP JUMPDEST SWAP2 POP PUSH32 0xFFFFFFFFFFFFFFFFFFFFFFFFFFFFFFFFFFFFFFFFFFFFFFFFFFFFFFFFFFFFFFFF DUP3 SUB PUSH2 0x2A43 JUMPI PUSH2 0x2A42 PUSH2 0x29A3 JUMP JUMPDEST JUMPDEST PUSH1 0x1 DUP3 ADD SWAP1 POP SWAP2 SWAP1 POP JUMP JUMPDEST PUSH1 0x0 DUP3 DUP3 MSTORE PUSH1 0x20 DUP3 ADD SWAP1 POP SWAP3 SWAP2 POP POP JUMP JUMPDEST PUSH32 0x526F756E6420456E640000000000000000000000000000000000000000000000 PUSH1 0x0 DUP3 ADD MSTORE POP JUMP JUMPDEST PUSH1 0x0 PUSH2 0x2A95 PUSH1 0x9 DUP4 PUSH2 0x2A4E JUMP JUMPDEST SWAP2 POP PUSH2 0x2AA0 DUP3 PUSH2 0x2A5F JUMP JUMPDEST PUSH1 0x20 DUP3 ADD SWAP1 POP SWAP2 SWAP1 POP JUMP JUMPDEST PUSH1 0x0 PUSH1 0x20 DUP3 ADD SWAP1 POP DUP2 DUP2 SUB PUSH1 0x0 DUP4 ADD MSTORE PUSH2 0x2AC4 DUP2 PUSH2 0x2A88 JUMP JUMPDEST SWAP1 POP SWAP2 SWAP1 POP JUMP JUMPDEST PUSH1 0x0 DUP2 MLOAD SWAP1 POP PUSH2 0x2ADA DUP2 PUSH2 0x230D JUMP JUMPDEST SWAP3 SWAP2 POP POP JUMP JUMPDEST PUSH1 0x0 PUSH1 0x20 DUP3 DUP5 SUB SLT ISZERO PUSH2 0x2AF6 JUMPI PUSH2 0x2AF5 PUSH2 0x2308 JUMP JUMPDEST JUMPDEST PUSH1 0x0 PUSH2 0x2B04 DUP5 DUP3 DUP6 ADD PUSH2 0x2ACB JUMP JUMPDEST SWAP2 POP POP SWAP3 SWAP2 POP POP JUMP JUMPDEST PUSH32 0x4E6F742076616C69642076616C75650000000000000000000000000000000000 PUSH1 0x0 DUP3 ADD MSTORE POP JUMP JUMPDEST PUSH1 0x0 PUSH2 0x2B43 PUSH1 0xF DUP4 PUSH2 0x2A4E JUMP JUMPDEST SWAP2 POP PUSH2 0x2B4E DUP3 PUSH2 0x2B0D JUMP JUMPDEST PUSH1 0x20 DUP3 ADD SWAP1 POP SWAP2 SWAP1 POP JUMP JUMPDEST PUSH1 0x0 PUSH1 0x20 DUP3 ADD SWAP1 POP DUP2 DUP2 SUB PUSH1 0x0 DUP4 ADD MSTORE PUSH2 0x2B72 DUP2 PUSH2 0x2B36 JUMP JUMPDEST SWAP1 POP SWAP2 SWAP1 POP JUMP JUMPDEST PUSH1 0x0 PUSH2 0x2B84 DUP3 PUSH2 0x22CA JUMP JUMPDEST SWAP2 POP PUSH2 0x2B8F DUP4 PUSH2 0x22CA JUMP JUMPDEST SWAP3 POP DUP3 DUP3 ADD SWAP1 POP DUP1 DUP3 GT ISZERO PUSH2 0x2BA7 JUMPI PUSH2 0x2BA6 PUSH2 0x29A3 JUMP JUMPDEST JUMPDEST SWAP3 SWAP2 POP POP JUMP JUMPDEST PUSH32 0x4F6E6C79206E756D626572732030207E2034352063616E20626520656E746572 PUSH1 0x0 DUP3 ADD MSTORE PUSH32 0x6564000000000000000000000000000000000000000000000000000000000000 PUSH1 0x20 DUP3 ADD MSTORE POP JUMP JUMPDEST PUSH1 0x0 PUSH2 0x2C09 PUSH1 0x22 DUP4 PUSH2 0x2A4E JUMP JUMPDEST SWAP2 POP PUSH2 0x2C14 DUP3 PUSH2 0x2BAD JUMP JUMPDEST PUSH1 0x40 DUP3 ADD SWAP1 POP SWAP2 SWAP1 POP JUMP JUMPDEST PUSH1 0x0 PUSH1 0x20 DUP3 ADD SWAP1 POP DUP2 DUP2 SUB PUSH1 0x0 DUP4 ADD MSTORE PUSH2 0x2C38 DUP2 PUSH2 0x2BFC JUMP JUMPDEST SWAP1 POP SWAP2 SWAP1 POP JUMP JUMPDEST PUSH1 0x0 PUSH1 0x60 DUP3 ADD SWAP1 POP PUSH2 0x2C54 PUSH1 0x0 DUP4 ADD DUP7 PUSH2 0x2688 JUMP JUMPDEST PUSH2 0x2C61 PUSH1 0x20 DUP4 ADD DUP6 PUSH2 0x2688 JUMP JUMPDEST PUSH2 0x2C6E PUSH1 0x40 DUP4 ADD DUP5 PUSH2 0x22D4 JUMP JUMPDEST SWAP5 SWAP4 POP POP POP POP JUMP JUMPDEST PUSH1 0x0 DUP2 ISZERO ISZERO SWAP1 POP SWAP2 SWAP1 POP JUMP JUMPDEST PUSH2 0x2C8B DUP2 PUSH2 0x2C76 JUMP JUMPDEST DUP2 EQ PUSH2 0x2C96 JUMPI PUSH1 0x0 DUP1 REVERT JUMPDEST POP JUMP JUMPDEST PUSH1 0x0 DUP2 MLOAD SWAP1 POP PUSH2 0x2CA8 DUP2 PUSH2 0x2C82 JUMP JUMPDEST SWAP3 SWAP2 POP POP JUMP JUMPDEST PUSH1 0x0 PUSH1 0x20 DUP3 DUP5 SUB SLT ISZERO PUSH2 0x2CC4 JUMPI PUSH2 0x2CC3 PUSH2 0x2308 JUMP JUMPDEST JUMPDEST PUSH1 0x0 PUSH2 0x2CD2 DUP5 DUP3 DUP6 ADD PUSH2 0x2C99 JUMP JUMPDEST SWAP2 POP POP SWAP3 SWAP2 POP POP JUMP JUMPDEST PUSH32 0x4F776E61626C653A2063616C6C6572206973206E6F7420746865206F776E6572 PUSH1 0x0 DUP3 ADD MSTORE POP JUMP JUMPDEST PUSH1 0x0 PUSH2 0x2D11 PUSH1 0x20 DUP4 PUSH2 0x2A4E JUMP JUMPDEST SWAP2 POP PUSH2 0x2D1C DUP3 PUSH2 0x2CDB JUMP JUMPDEST PUSH1 0x20 DUP3 ADD SWAP1 POP SWAP2 SWAP1 POP JUMP JUMPDEST PUSH1 0x0 PUSH1 0x20 DUP3 ADD SWAP1 POP DUP2 DUP2 SUB PUSH1 0x0 DUP4 ADD MSTORE PUSH2 0x2D40 DUP2 PUSH2 0x2D04 JUMP JUMPDEST SWAP1 POP SWAP2 SWAP1 POP JUMP JUMPDEST PUSH1 0x0 PUSH2 0x2D52 DUP3 PUSH2 0x2926 JUMP JUMPDEST SWAP1 POP SWAP2 SWAP1 POP JUMP JUMPDEST PUSH2 0x2D62 DUP2 PUSH2 0x2D47 JUMP JUMPDEST DUP3 MSTORE POP POP JUMP JUMPDEST PUSH1 0x0 PUSH1 0x40 DUP3 ADD SWAP1 POP PUSH2 0x2D7D PUSH1 0x0 DUP4 ADD DUP6 PUSH2 0x2D59 JUMP JUMPDEST PUSH2 0x2D8A PUSH1 0x20 DUP4 ADD DUP5 PUSH2 0x22D4 JUMP JUMPDEST SWAP4 SWAP3 POP POP POP JUMP JUMPDEST PUSH32 0x4F776E61626C653A206E6577206F776E657220697320746865207A65726F2061 PUSH1 0x0 DUP3 ADD MSTORE PUSH32 0x6464726573730000000000000000000000000000000000000000000000000000 PUSH1 0x20 DUP3 ADD MSTORE POP JUMP JUMPDEST PUSH1 0x0 PUSH2 0x2DED PUSH1 0x26 DUP4 PUSH2 0x2A4E JUMP JUMPDEST SWAP2 POP PUSH2 0x2DF8 DUP3 PUSH2 0x2D91 JUMP JUMPDEST PUSH1 0x40 DUP3 ADD SWAP1 POP SWAP2 SWAP1 POP JUMP JUMPDEST PUSH1 0x0 PUSH1 0x20 DUP3 ADD SWAP1 POP DUP2 DUP2 SUB PUSH1 0x0 DUP4 ADD MSTORE PUSH2 0x2E1C DUP2 PUSH2 0x2DE0 JUMP JUMPDEST SWAP1 POP SWAP2 SWAP1 POP JUMP JUMPDEST PUSH32 0x526F756E6420616C726561647920656E64656400000000000000000000000000 PUSH1 0x0 DUP3 ADD MSTORE POP JUMP JUMPDEST PUSH1 0x0 PUSH2 0x2E59 PUSH1 0x13 DUP4 PUSH2 0x2A4E JUMP JUMPDEST SWAP2 POP PUSH2 0x2E64 DUP3 PUSH2 0x2E23 JUMP JUMPDEST PUSH1 0x20 DUP3 ADD SWAP1 POP SWAP2 SWAP1 POP JUMP JUMPDEST PUSH1 0x0 PUSH1 0x20 DUP3 ADD SWAP1 POP DUP2 DUP2 SUB PUSH1 0x0 DUP4 ADD MSTORE PUSH2 0x2E88 DUP2 PUSH2 0x2E4C JUMP JUMPDEST SWAP1 POP SWAP2 SWAP1 POP JUMP JUMPDEST PUSH32 0x54686520726F756E64206E6F7420656E6474696D650000000000000000000000 PUSH1 0x0 DUP3 ADD MSTORE POP JUMP JUMPDEST PUSH1 0x0 PUSH2 0x2EC5 PUSH1 0x15 DUP4 PUSH2 0x2A4E JUMP JUMPDEST SWAP2 POP PUSH2 0x2ED0 DUP3 PUSH2 0x2E8F JUMP JUMPDEST PUSH1 0x20 DUP3 ADD SWAP1 POP SWAP2 SWAP1 POP JUMP JUMPDEST PUSH1 0x0 PUSH1 0x20 DUP3 ADD SWAP1 POP DUP2 DUP2 SUB PUSH1 0x0 DUP4 ADD MSTORE PUSH2 0x2EF4 DUP2 PUSH2 0x2EB8 JUMP JUMPDEST SWAP1 POP SWAP2 SWAP1 POP JUMP JUMPDEST PUSH32 0x526F756E6420696E2070726F6772657373000000000000000000000000000000 PUSH1 0x0 DUP3 ADD MSTORE POP JUMP JUMPDEST PUSH1 0x0 PUSH2 0x2F31 PUSH1 0x11 DUP4 PUSH2 0x2A4E JUMP JUMPDEST SWAP2 POP PUSH2 0x2F3C DUP3 PUSH2 0x2EFB JUMP JUMPDEST PUSH1 0x20 DUP3 ADD SWAP1 POP SWAP2 SWAP1 POP JUMP JUMPDEST PUSH1 0x0 PUSH1 0x20 DUP3 ADD SWAP1 POP DUP2 DUP2 SUB PUSH1 0x0 DUP4 ADD MSTORE PUSH2 0x2F60 DUP2 PUSH2 0x2F24 JUMP JUMPDEST SWAP1 POP SWAP2 SWAP1 POP JUMP JUMPDEST PUSH1 0x0 DUP2 SWAP1 POP SWAP2 SWAP1 POP JUMP JUMPDEST PUSH2 0x2F7A DUP2 PUSH2 0x2F67 JUMP JUMPDEST DUP3 MSTORE POP POP JUMP JUMPDEST PUSH1 0x0 PUSH1 0x40 DUP3 ADD SWAP1 POP PUSH2 0x2F95 PUSH1 0x0 DUP4 ADD DUP6 PUSH2 0x2F71 JUMP JUMPDEST PUSH2 0x2FA2 PUSH1 0x20 DUP4 ADD DUP5 PUSH2 0x22D4 JUMP JUMPDEST SWAP4 SWAP3 POP POP POP JUMP JUMPDEST PUSH32 0x4E487B7100000000000000000000000000000000000000000000000000000000 PUSH1 0x0 MSTORE PUSH1 0x12 PUSH1 0x4 MSTORE PUSH1 0x24 PUSH1 0x0 REVERT JUMPDEST PUSH1 0x0 PUSH2 0x2FE3 DUP3 PUSH2 0x22CA JUMP JUMPDEST SWAP2 POP PUSH2 0x2FEE DUP4 PUSH2 0x22CA JUMP JUMPDEST SWAP3 POP DUP3 PUSH2 0x2FFE JUMPI PUSH2 0x2FFD PUSH2 0x2FA9 JUMP JUMPDEST JUMPDEST DUP3 DUP3 MOD SWAP1 POP SWAP3 SWAP2 POP POP JUMP INVALID LOG2 PUSH5 0x6970667358 0x22 SLT KECCAK256 0x1F DIFFICULTY ADDMOD 0xB2 PUSH5 0x60B51CB5A 0x4A CALLDATASIZE 0xCF 0xD5 MOD 0x21 SWAP16 NUMBER 0xE0 SWAP12 0xA9 DUP2 0xB5 0xA6 GAS SWAP12 NUMBER 0xAA COINBASE GASPRICE EXTCODESIZE 0xB7 PUSH5 0x736F6C6343 STOP ADDMOD GT STOP CALLER "
				},
				"gasEstimates": {
					"creation": {
						"codeDepositCost": "2470200",
						"executionCost": "infinite",
						"totalCost": "infinite"
					},
					"external": {
						"MAX_NUMBER()": "461",
						"MIN_NUMBER()": "373",
						"Stop()": "infinite",
						"TICKET_PRICE()": "2453",
						"TICKET_TOKEN_PRICE()": "2452",
						"buy(uint256[6])": "infinite",
						"changeInterval(uint256)": "24827",
						"changePrice(uint256)": "24849",
						"claim(uint256)": "infinite",
						"currentBlock()": "2495",
						"getContractBalance()": "428",
						"getMyTicket(uint256)": "infinite",
						"getWinNumbers(uint256)": "infinite",
						"nextRound()": "infinite",
						"owner()": "2589",
						"renounceOwnership()": "30485",
						"round_interval()": "2562",
						"rounds(uint256)": "infinite",
						"tickets(uint256)": "infinite",
						"token()": "infinite",
						"tokenBuy(uint256[6])": "infinite",
						"tokenWithdraw(address)": "infinite",
						"transferOwnership(address)": "30808"
					},
					"internal": {
						"closeRound()": "infinite",
						"createRound()": "infinite",
						"drawNumbers()": "infinite"
					}
				},
				"methodIdentifiers": {
					"MAX_NUMBER()": "fea9b572",
					"MIN_NUMBER()": "dd8ab8f9",
					"Stop()": "bedf0f4a",
					"TICKET_PRICE()": "1a95f15f",
					"TICKET_TOKEN_PRICE()": "49c4e5b8",
					"buy(uint256[6])": "a8bd5634",
					"changeInterval(uint256)": "63c75607",
					"changePrice(uint256)": "a2b40d19",
					"claim(uint256)": "379607f5",
					"currentBlock()": "e12ed13c",
					"getContractBalance()": "6f9fb98a",
					"getMyTicket(uint256)": "44352d0a",
					"getWinNumbers(uint256)": "8cd85dc2",
					"nextRound()": "47e40553",
					"owner()": "8da5cb5b",
					"renounceOwnership()": "715018a6",
					"round_interval()": "7157c113",
					"rounds(uint256)": "8c65c81f",
					"tickets(uint256)": "50b44712",
					"token()": "fc0c546a",
					"tokenBuy(uint256[6])": "46583a26",
					"tokenWithdraw(address)": "b5558562",
					"transferOwnership(address)": "f2fde38b"
				}
			},
			"storageLayout": {
				"storage": [
					{
						"astId": 125,
						"contract": "contracts/Lotto.sol:Lottery",
						"label": "_owner",
						"offset": 0,
						"slot": "0",
						"type": "t_address"
					},
					{
						"astId": 253,
						"contract": "contracts/Lotto.sol:Lottery",
						"label": "token",
						"offset": 0,
						"slot": "1",
						"type": "t_contract(IKIP7)117"
					},
					{
						"astId": 281,
						"contract": "contracts/Lotto.sol:Lottery",
						"label": "TICKET_PRICE",
						"offset": 0,
						"slot": "2",
						"type": "t_uint256"
					},
					{
						"astId": 283,
						"contract": "contracts/Lotto.sol:Lottery",
						"label": "TICKET_TOKEN_PRICE",
						"offset": 0,
						"slot": "3",
						"type": "t_uint256"
					},
					{
						"astId": 293,
						"contract": "contracts/Lotto.sol:Lottery",
						"label": "rounds",
						"offset": 0,
						"slot": "4",
						"type": "t_array(t_struct(Round)267_storage)dyn_storage"
					},
					{
						"astId": 297,
						"contract": "contracts/Lotto.sol:Lottery",
						"label": "tickets",
						"offset": 0,
						"slot": "5",
						"type": "t_array(t_struct(Ticket)279_storage)dyn_storage"
					},
					{
						"astId": 299,
						"contract": "contracts/Lotto.sol:Lottery",
						"label": "round_interval",
						"offset": 0,
						"slot": "6",
						"type": "t_uint256"
					},
					{
						"astId": 301,
						"contract": "contracts/Lotto.sol:Lottery",
						"label": "currentBlock",
						"offset": 0,
						"slot": "7",
						"type": "t_uint256"
					}
				],
				"types": {
					"t_address": {
						"encoding": "inplace",
						"label": "address",
						"numberOfBytes": "20"
					},
					"t_array(t_struct(Round)267_storage)dyn_storage": {
						"base": "t_struct(Round)267_storage",
						"encoding": "dynamic_array",
						"label": "struct Lottery.Round[]",
						"numberOfBytes": "32"
					},
					"t_array(t_struct(Ticket)279_storage)dyn_storage": {
						"base": "t_struct(Ticket)279_storage",
						"encoding": "dynamic_array",
						"label": "struct Lottery.Ticket[]",
						"numberOfBytes": "32"
					},
					"t_array(t_uint256)6_storage": {
						"base": "t_uint256",
						"encoding": "inplace",
						"label": "uint256[6]",
						"numberOfBytes": "192"
					},
					"t_array(t_uint256)7_storage": {
						"base": "t_uint256",
						"encoding": "inplace",
						"label": "uint256[7]",
						"numberOfBytes": "224"
					},
					"t_contract(IKIP7)117": {
						"encoding": "inplace",
						"label": "contract IKIP7",
						"numberOfBytes": "20"
					},
					"t_enum(RoundStatus)270": {
						"encoding": "inplace",
						"label": "enum Lottery.RoundStatus",
						"numberOfBytes": "1"
					},
					"t_struct(Round)267_storage": {
						"encoding": "inplace",
						"label": "struct Lottery.Round",
						"members": [
							{
								"astId": 255,
								"contract": "contracts/Lotto.sol:Lottery",
								"label": "startTime",
								"offset": 0,
								"slot": "0",
								"type": "t_uint256"
							},
							{
								"astId": 257,
								"contract": "contracts/Lotto.sol:Lottery",
								"label": "endTime",
								"offset": 0,
								"slot": "1",
								"type": "t_uint256"
							},
							{
								"astId": 260,
								"contract": "contracts/Lotto.sol:Lottery",
								"label": "status",
								"offset": 0,
								"slot": "2",
								"type": "t_enum(RoundStatus)270"
							},
							{
								"astId": 264,
								"contract": "contracts/Lotto.sol:Lottery",
								"label": "winNumbers",
								"offset": 0,
								"slot": "3",
								"type": "t_array(t_uint256)7_storage"
							},
							{
								"astId": 266,
								"contract": "contracts/Lotto.sol:Lottery",
								"label": "totalQuantity",
								"offset": 0,
								"slot": "10",
								"type": "t_uint256"
							}
						],
						"numberOfBytes": "352"
					},
					"t_struct(Ticket)279_storage": {
						"encoding": "inplace",
						"label": "struct Lottery.Ticket",
						"members": [
							{
								"astId": 272,
								"contract": "contracts/Lotto.sol:Lottery",
								"label": "owner",
								"offset": 0,
								"slot": "0",
								"type": "t_address"
							},
							{
								"astId": 274,
								"contract": "contracts/Lotto.sol:Lottery",
								"label": "round",
								"offset": 0,
								"slot": "1",
								"type": "t_uint256"
							},
							{
								"astId": 278,
								"contract": "contracts/Lotto.sol:Lottery",
								"label": "number",
								"offset": 0,
								"slot": "2",
								"type": "t_array(t_uint256)6_storage"
							}
						],
						"numberOfBytes": "256"
					},
					"t_uint256": {
						"encoding": "inplace",
						"label": "uint256",
						"numberOfBytes": "32"
					}
				}
			},
			"userdoc": {
				"kind": "user",
				"methods": {},
				"version": 1
			}
		}
	}
}