{
	"contracts/TestToken.sol": {
		"TestToken": {
			"abi": [
				{
					"inputs": [
						{
							"internalType": "string",
							"name": "_name",
							"type": "string"
						},
						{
							"internalType": "string",
							"name": "_symbol",
							"type": "string"
						}
					],
					"stateMutability": "nonpayable",
					"type": "constructor"
				},
				{
					"anonymous": false,
					"inputs": [
						{
							"indexed": true,
							"internalType": "address",
							"name": "owner",
							"type": "address"
						},
						{
							"indexed": true,
							"internalType": "address",
							"name": "spender",
							"type": "address"
						},
						{
							"indexed": false,
							"internalType": "uint256",
							"name": "value",
							"type": "uint256"
						}
					],
					"name": "Approval",
					"type": "event"
				},
				{
					"anonymous": false,
					"inputs": [
						{
							"indexed": true,
							"internalType": "address",
							"name": "from",
							"type": "address"
						},
						{
							"indexed": true,
							"internalType": "address",
							"name": "to",
							"type": "address"
						},
						{
							"indexed": false,
							"internalType": "uint256",
							"name": "value",
							"type": "uint256"
						}
					],
					"name": "Transfer",
					"type": "event"
				},
				{
					"inputs": [
						{
							"internalType": "address",
							"name": "owner",
							"type": "address"
						},
						{
							"internalType": "address",
							"name": "spender",
							"type": "address"
						}
					],
					"name": "allowance",
					"outputs": [
						{
							"internalType": "uint256",
							"name": "",
							"type": "uint256"
						}
					],
					"stateMutability": "view",
					"type": "function"
				},
				{
					"inputs": [
						{
							"internalType": "address",
							"name": "spender",
							"type": "address"
						},
						{
							"internalType": "uint256",
							"name": "amount",
							"type": "uint256"
						}
					],
					"name": "approve",
					"outputs": [
						{
							"internalType": "bool",
							"name": "",
							"type": "bool"
						}
					],
					"stateMutability": "nonpayable",
					"type": "function"
				},
				{
					"inputs": [
						{
							"internalType": "address",
							"name": "account",
							"type": "address"
						}
					],
					"name": "balanceOf",
					"outputs": [
						{
							"internalType": "uint256",
							"name": "",
							"type": "uint256"
						}
					],
					"stateMutability": "view",
					"type": "function"
				},
				{
					"inputs": [],
					"name": "decimals",
					"outputs": [
						{
							"internalType": "uint8",
							"name": "",
							"type": "uint8"
						}
					],
					"stateMutability": "view",
					"type": "function"
				},
				{
					"inputs": [
						{
							"internalType": "address",
							"name": "spender",
							"type": "address"
						},
						{
							"internalType": "uint256",
							"name": "subtractedValue",
							"type": "uint256"
						}
					],
					"name": "decreaseAllowance",
					"outputs": [
						{
							"internalType": "bool",
							"name": "",
							"type": "bool"
						}
					],
					"stateMutability": "nonpayable",
					"type": "function"
				},
				{
					"inputs": [
						{
							"internalType": "address",
							"name": "spender",
							"type": "address"
						},
						{
							"internalType": "uint256",
							"name": "addedValue",
							"type": "uint256"
						}
					],
					"name": "increaseAllowance",
					"outputs": [
						{
							"internalType": "bool",
							"name": "",
							"type": "bool"
						}
					],
					"stateMutability": "nonpayable",
					"type": "function"
				},
				{
					"inputs": [
						{
							"internalType": "address",
							"name": "_user",
							"type": "address"
						},
						{
							"internalType": "uint256",
							"name": "_amount",
							"type": "uint256"
						}
					],
					"name": "mint",
					"outputs": [],
					"stateMutability": "nonpayable",
					"type": "function"
				},
				{
					"inputs": [],
					"name": "name",
					"outputs": [
						{
							"internalType": "string",
							"name": "",
							"type": "string"
						}
					],
					"stateMutability": "view",
					"type": "function"
				},
				{
					"inputs": [
						{
							"internalType": "address",
							"name": "recipient",
							"type": "address"
						},
						{
							"internalType": "uint256",
							"name": "amount",
							"type": "uint256"
						}
					],
					"name": "safeTransfer",
					"outputs": [],
					"stateMutability": "nonpayable",
					"type": "function"
				},
				{
					"inputs": [
						{
							"internalType": "address",
							"name": "recipient",
							"type": "address"
						},
						{
							"internalType": "uint256",
							"name": "amount",
							"type": "uint256"
						},
						{
							"internalType": "bytes",
							"name": "_data",
							"type": "bytes"
						}
					],
					"name": "safeTransfer",
					"outputs": [],
					"stateMutability": "nonpayable",
					"type": "function"
				},
				{
					"inputs": [
						{
							"internalType": "address",
							"name": "sender",
							"type": "address"
						},
						{
							"internalType": "address",
							"name": "recipient",
							"type": "address"
						},
						{
							"internalType": "uint256",
							"name": "amount",
							"type": "uint256"
						}
					],
					"name": "safeTransferFrom",
					"outputs": [],
					"stateMutability": "nonpayable",
					"type": "function"
				},
				{
					"inputs": [
						{
							"internalType": "address",
							"name": "sender",
							"type": "address"
						},
						{
							"internalType": "address",
							"name": "recipient",
							"type": "address"
						},
						{
							"internalType": "uint256",
							"name": "amount",
							"type": "uint256"
						},
						{
							"internalType": "bytes",
							"name": "_data",
							"type": "bytes"
						}
					],
					"name": "safeTransferFrom",
					"outputs": [],
					"stateMutability": "nonpayable",
					"type": "function"
				},
				{
					"inputs": [],
					"name": "symbol",
					"outputs": [
						{
							"internalType": "string",
							"name": "",
							"type": "string"
						}
					],
					"stateMutability": "view",
					"type": "function"
				},
				{
					"inputs": [],
					"name": "totalSupply",
					"outputs": [
						{
							"internalType": "uint256",
							"name": "",
							"type": "uint256"
						}
					],
					"stateMutability": "view",
					"type": "function"
				},
				{
					"inputs": [
						{
							"internalType": "address",
							"name": "to",
							"type": "address"
						},
						{
							"internalType": "uint256",
							"name": "amount",
							"type": "uint256"
						}
					],
					"name": "transfer",
					"outputs": [
						{
							"internalType": "bool",
							"name": "",
							"type": "bool"
						}
					],
					"stateMutability": "nonpayable",
					"type": "function"
				},
				{
					"inputs": [
						{
							"internalType": "address",
							"name": "from",
							"type": "address"
						},
						{
							"internalType": "address",
							"name": "to",
							"type": "address"
						},
						{
							"internalType": "uint256",
							"name": "amount",
							"type": "uint256"
						}
					],
					"name": "transferFrom",
					"outputs": [
						{
							"internalType": "bool",
							"name": "",
							"type": "bool"
						}
					],
					"stateMutability": "nonpayable",
					"type": "function"
				}
			],
			"devdoc": {
				"events": {
					"Approval(address,address,uint256)": {
						"details": "Emitted when the allowance of a `spender` for an `owner` is set by a call to {approve}. `value` is the new allowance."
					},
					"Transfer(address,address,uint256)": {
						"details": "Emitted when `value` tokens are moved from one account (`from`) to another (`to`). Note that `value` may be zero."
					}
				},
				"kind": "dev",
				"methods": {
					"allowance(address,address)": {
						"details": "See {IKIP7-allowance}."
					},
					"approve(address,uint256)": {
						"details": "See {IKIP7-approve}. NOTE: If `amount` is the maximum `uint256`, the allowance is not updated on `transferFrom`. This is semantically equivalent to an infinite approval. Requirements: - `spender` cannot be the zero address."
					},
					"balanceOf(address)": {
						"details": "See {IKIP7-balanceOf}."
					},
					"decimals()": {
						"details": "Returns the number of decimals used to get its user representation. For example, if `decimals` equals `2`, a balance of `505` tokens should be displayed to a user as `5.05` (`505 / 10 ** 2`). Tokens usually opt for a value of 18, imitating the relationship between Ether and Wei. This is the value {KIP7} uses, unless this function is overridden; NOTE: This information is only used for _display_ purposes: it in no way affects any of the arithmetic of the contract, including {IKIP7-balanceOf} and {IKIP7-transfer}."
					},
					"decreaseAllowance(address,uint256)": {
						"details": "Atomically decreases the allowance granted to `spender` by the caller. This is an alternative to {approve} that can be used as a mitigation for problems described in {IKIP7-approve}. Emits an {Approval} event indicating the updated allowance. Requirements: - `spender` cannot be the zero address. - `spender` must have allowance for the caller of at least `subtractedValue`."
					},
					"increaseAllowance(address,uint256)": {
						"details": "Atomically increases the allowance granted to `spender` by the caller. This is an alternative to {approve} that can be used as a mitigation for problems described in {IKIP7-approve}. Emits an {Approval} event indicating the updated allowance. Requirements: - `spender` cannot be the zero address."
					},
					"name()": {
						"details": "Returns the name of the token."
					},
					"safeTransfer(address,uint256)": {
						"details": "See {IKIP7-safeTransfer}. Emits a {Transfer} event Requirements: - `recipient` cannot be the zero address. - the caller must have a balance of at least `amount`. - if `recipient` is a smart contract, it must implement {IKIP7Receiver}"
					},
					"safeTransfer(address,uint256,bytes)": {
						"details": "Same as {xref-KIP7-safeTransfer-address-uint256-}[`safeTransfer`], with an additional `_data` parameter which is forwarded in {IKIP7Receiver-onKIP7Received} to contract recipients. Emits a {Transfer} event"
					},
					"safeTransferFrom(address,address,uint256)": {
						"details": "See {IKIP7-safeTransferFrom}. Emits a {Transfer} event Emits an {Approval} event indicating the updated allowance. This is not required by the KIP. See the note at the beginning of {KIP7}. NOTE: Does not update the allowance if the current allowance is the maximum `uint256`. Requirements: - `sender` and `recipient` cannot be the zero address. - `sender` must have a balance of at least `amount`. - the caller must have allowance for ``sender``'s tokens of at least `amount`. - if `recipient` is a smart contract, it must implement {IKIP7Receiver}"
					},
					"safeTransferFrom(address,address,uint256,bytes)": {
						"details": "Same as {xref-KIP7-safeTransferFrom-address-uint256-}[`safeTransferFrom`], with an additional `_data` parameter which is forwarded in {IKIP7Receiver-onKIP7Received} to contract recipients. Emits a {Transfer} event Emits an {Approval} event indicating the updated allowance."
					},
					"symbol()": {
						"details": "Returns the symbol of the token, usually a shorter version of the name."
					},
					"totalSupply()": {
						"details": "See {IKIP7-totalSupply}."
					},
					"transfer(address,uint256)": {
						"details": "See {IKIP7-transfer}. Requirements: - `to` cannot be the zero address. - the caller must have a balance of at least `amount`."
					},
					"transferFrom(address,address,uint256)": {
						"details": "See {IKIP7-transferFrom}. Emits an {Approval} event indicating the updated allowance. This is not required by the EIP. See the note at the beginning of {KIP7}. NOTE: Does not update the allowance if the current allowance is the maximum `uint256`. Requirements: - `from` and `to` cannot be the zero address. - `from` must have a balance of at least `amount`. - the caller must have allowance for ``from``'s tokens of at least `amount`."
					}
				},
				"version": 1
			},
			"evm": {
				"assembly": "    /* \"contracts/TestToken.sol\":125:355  contract TestToken is KIP7{... */\n  mstore(0x40, 0x80)\n    /* \"contracts/TestToken.sol\":158:252  constructor(string memory _name, string memory _symbol) KIP7(_name,_symbol) {... */\n  callvalue\n  dup1\n  iszero\n  tag_1\n  jumpi\n  0x00\n  dup1\n  revert\ntag_1:\n  pop\n  mload(0x40)\n  sub(codesize, bytecodeSize)\n  dup1\n  bytecodeSize\n  dup4\n  codecopy\n  dup2\n  dup2\n  add\n  0x40\n  mstore\n  dup2\n  add\n  swap1\n  tag_2\n  swap2\n  swap1\n  tag_3\n  jump\t// in\ntag_2:\n    /* \"contracts/TestToken.sol\":219:224  _name */\n  dup2\n    /* \"contracts/TestToken.sol\":225:232  _symbol */\n  dup2\n    /* \"@klaytn/contracts/contracts/KIP/token/KIP7/KIP7.sol\":2165:2170  name_ */\n  dup2\n    /* \"@klaytn/contracts/contracts/KIP/token/KIP7/KIP7.sol\":2157:2162  _name */\n  0x03\n    /* \"@klaytn/contracts/contracts/KIP/token/KIP7/KIP7.sol\":2157:2170  _name = name_ */\n  swap1\n  dup2\n  tag_7\n  swap2\n  swap1\n  tag_8\n  jump\t// in\ntag_7:\n  pop\n    /* \"@klaytn/contracts/contracts/KIP/token/KIP7/KIP7.sol\":2190:2197  symbol_ */\n  dup1\n    /* \"@klaytn/contracts/contracts/KIP/token/KIP7/KIP7.sol\":2180:2187  _symbol */\n  0x04\n    /* \"@klaytn/contracts/contracts/KIP/token/KIP7/KIP7.sol\":2180:2197  _symbol = symbol_ */\n  swap1\n  dup2\n  tag_9\n  swap2\n  swap1\n  tag_8\n  jump\t// in\ntag_9:\n  pop\n    /* \"@klaytn/contracts/contracts/KIP/token/KIP7/KIP7.sol\":2091:2204  constructor(string memory name_, string memory symbol_) {... */\n  pop\n  pop\n    /* \"contracts/TestToken.sol\":158:252  constructor(string memory _name, string memory _symbol) KIP7(_name,_symbol) {... */\n  pop\n  pop\n    /* \"contracts/TestToken.sol\":125:355  contract TestToken is KIP7{... */\n  jump(tag_11)\n    /* \"#utility.yul\":7:82   */\ntag_12:\n    /* \"#utility.yul\":40:46   */\n  0x00\n    /* \"#utility.yul\":73:75   */\n  0x40\n    /* \"#utility.yul\":67:76   */\n  mload\n    /* \"#utility.yul\":57:76   */\n  swap1\n  pop\n    /* \"#utility.yul\":7:82   */\n  swap1\n  jump\t// out\n    /* \"#utility.yul\":88:205   */\ntag_13:\n    /* \"#utility.yul\":197:198   */\n  0x00\n    /* \"#utility.yul\":194:195   */\n  dup1\n    /* \"#utility.yul\":187:199   */\n  revert\n    /* \"#utility.yul\":211:328   */\ntag_14:\n    /* \"#utility.yul\":320:321   */\n  0x00\n    /* \"#utility.yul\":317:318   */\n  dup1\n    /* \"#utility.yul\":310:322   */\n  revert\n    /* \"#utility.yul\":334:451   */\ntag_15:\n    /* \"#utility.yul\":443:444   */\n  0x00\n    /* \"#utility.yul\":440:441   */\n  dup1\n    /* \"#utility.yul\":433:445   */\n  revert\n    /* \"#utility.yul\":457:574   */\ntag_16:\n    /* \"#utility.yul\":566:567   */\n  0x00\n    /* \"#utility.yul\":563:564   */\n  dup1\n    /* \"#utility.yul\":556:568   */\n  revert\n    /* \"#utility.yul\":580:682   */\ntag_17:\n    /* \"#utility.yul\":621:627   */\n  0x00\n    /* \"#utility.yul\":672:674   */\n  0x1f\n    /* \"#utility.yul\":668:675   */\n  not\n    /* \"#utility.yul\":663:665   */\n  0x1f\n    /* \"#utility.yul\":656:661   */\n  dup4\n    /* \"#utility.yul\":652:666   */\n  add\n    /* \"#utility.yul\":648:676   */\n  and\n    /* \"#utility.yul\":638:676   */\n  swap1\n  pop\n    /* \"#utility.yul\":580:682   */\n  swap2\n  swap1\n  pop\n  jump\t// out\n    /* \"#utility.yul\":688:868   */\ntag_18:\n    /* \"#utility.yul\":736:813   */\n  0x4e487b7100000000000000000000000000000000000000000000000000000000\n    /* \"#utility.yul\":733:734   */\n  0x00\n    /* \"#utility.yul\":726:814   */\n  mstore\n    /* \"#utility.yul\":833:837   */\n  0x41\n    /* \"#utility.yul\":830:831   */\n  0x04\n    /* \"#utility.yul\":823:838   */\n  mstore\n    /* \"#utility.yul\":857:861   */\n  0x24\n    /* \"#utility.yul\":854:855   */\n  0x00\n    /* \"#utility.yul\":847:862   */\n  revert\n    /* \"#utility.yul\":874:1155   */\ntag_19:\n    /* \"#utility.yul\":957:984   */\n  tag_53\n    /* \"#utility.yul\":979:983   */\n  dup3\n    /* \"#utility.yul\":957:984   */\n  tag_17\n  jump\t// in\ntag_53:\n    /* \"#utility.yul\":949:955   */\n  dup2\n    /* \"#utility.yul\":945:985   */\n  add\n    /* \"#utility.yul\":1087:1093   */\n  dup2\n    /* \"#utility.yul\":1075:1085   */\n  dup2\n    /* \"#utility.yul\":1072:1094   */\n  lt\n    /* \"#utility.yul\":1051:1069   */\n  0xffffffffffffffff\n    /* \"#utility.yul\":1039:1049   */\n  dup3\n    /* \"#utility.yul\":1036:1070   */\n  gt\n    /* \"#utility.yul\":1033:1095   */\n  or\n    /* \"#utility.yul\":1030:1118   */\n  iszero\n  tag_54\n  jumpi\n    /* \"#utility.yul\":1098:1116   */\n  tag_55\n  tag_18\n  jump\t// in\ntag_55:\n    /* \"#utility.yul\":1030:1118   */\ntag_54:\n    /* \"#utility.yul\":1138:1148   */\n  dup1\n    /* \"#utility.yul\":1134:1136   */\n  0x40\n    /* \"#utility.yul\":1127:1149   */\n  mstore\n    /* \"#utility.yul\":917:1155   */\n  pop\n    /* \"#utility.yul\":874:1155   */\n  pop\n  pop\n  jump\t// out\n    /* \"#utility.yul\":1161:1290   */\ntag_20:\n    /* \"#utility.yul\":1195:1201   */\n  0x00\n    /* \"#utility.yul\":1222:1242   */\n  tag_57\n  tag_12\n  jump\t// in\ntag_57:\n    /* \"#utility.yul\":1212:1242   */\n  swap1\n  pop\n    /* \"#utility.yul\":1251:1284   */\n  tag_58\n    /* \"#utility.yul\":1279:1283   */\n  dup3\n    /* \"#utility.yul\":1271:1277   */\n  dup3\n    /* \"#utility.yul\":1251:1284   */\n  tag_19\n  jump\t// in\ntag_58:\n    /* \"#utility.yul\":1161:1290   */\n  swap2\n  swap1\n  pop\n  jump\t// out\n    /* \"#utility.yul\":1296:1604   */\ntag_21:\n    /* \"#utility.yul\":1358:1362   */\n  0x00\n    /* \"#utility.yul\":1448:1466   */\n  0xffffffffffffffff\n    /* \"#utility.yul\":1440:1446   */\n  dup3\n    /* \"#utility.yul\":1437:1467   */\n  gt\n    /* \"#utility.yul\":1434:1490   */\n  iszero\n  tag_60\n  jumpi\n    /* \"#utility.yul\":1470:1488   */\n  tag_61\n  tag_18\n  jump\t// in\ntag_61:\n    /* \"#utility.yul\":1434:1490   */\ntag_60:\n    /* \"#utility.yul\":1508:1537   */\n  tag_62\n    /* \"#utility.yul\":1530:1536   */\n  dup3\n    /* \"#utility.yul\":1508:1537   */\n  tag_17\n  jump\t// in\ntag_62:\n    /* \"#utility.yul\":1500:1537   */\n  swap1\n  pop\n    /* \"#utility.yul\":1592:1596   */\n  0x20\n    /* \"#utility.yul\":1586:1590   */\n  dup2\n    /* \"#utility.yul\":1582:1597   */\n  add\n    /* \"#utility.yul\":1574:1597   */\n  swap1\n  pop\n    /* \"#utility.yul\":1296:1604   */\n  swap2\n  swap1\n  pop\n  jump\t// out\n    /* \"#utility.yul\":1610:1856   */\ntag_22:\n    /* \"#utility.yul\":1691:1692   */\n  0x00\n    /* \"#utility.yul\":1701:1814   */\ntag_64:\n    /* \"#utility.yul\":1715:1721   */\n  dup4\n    /* \"#utility.yul\":1712:1713   */\n  dup2\n    /* \"#utility.yul\":1709:1722   */\n  lt\n    /* \"#utility.yul\":1701:1814   */\n  iszero\n  tag_66\n  jumpi\n    /* \"#utility.yul\":1800:1801   */\n  dup1\n    /* \"#utility.yul\":1795:1798   */\n  dup3\n    /* \"#utility.yul\":1791:1802   */\n  add\n    /* \"#utility.yul\":1785:1803   */\n  mload\n    /* \"#utility.yul\":1781:1782   */\n  dup2\n    /* \"#utility.yul\":1776:1779   */\n  dup5\n    /* \"#utility.yul\":1772:1783   */\n  add\n    /* \"#utility.yul\":1765:1804   */\n  mstore\n    /* \"#utility.yul\":1737:1739   */\n  0x20\n    /* \"#utility.yul\":1734:1735   */\n  dup2\n    /* \"#utility.yul\":1730:1740   */\n  add\n    /* \"#utility.yul\":1725:1740   */\n  swap1\n  pop\n    /* \"#utility.yul\":1701:1814   */\n  jump(tag_64)\ntag_66:\n    /* \"#utility.yul\":1848:1849   */\n  0x00\n    /* \"#utility.yul\":1839:1845   */\n  dup5\n    /* \"#utility.yul\":1834:1837   */\n  dup5\n    /* \"#utility.yul\":1830:1846   */\n  add\n    /* \"#utility.yul\":1823:1850   */\n  mstore\n    /* \"#utility.yul\":1672:1856   */\n  pop\n    /* \"#utility.yul\":1610:1856   */\n  pop\n  pop\n  pop\n  jump\t// out\n    /* \"#utility.yul\":1862:2296   */\ntag_23:\n    /* \"#utility.yul\":1951:1956   */\n  0x00\n    /* \"#utility.yul\":1976:2042   */\n  tag_68\n    /* \"#utility.yul\":1992:2041   */\n  tag_69\n    /* \"#utility.yul\":2034:2040   */\n  dup5\n    /* \"#utility.yul\":1992:2041   */\n  tag_21\n  jump\t// in\ntag_69:\n    /* \"#utility.yul\":1976:2042   */\n  tag_20\n  jump\t// in\ntag_68:\n    /* \"#utility.yul\":1967:2042   */\n  swap1\n  pop\n    /* \"#utility.yul\":2065:2071   */\n  dup3\n    /* \"#utility.yul\":2058:2063   */\n  dup2\n    /* \"#utility.yul\":2051:2072   */\n  mstore\n    /* \"#utility.yul\":2103:2107   */\n  0x20\n    /* \"#utility.yul\":2096:2101   */\n  dup2\n    /* \"#utility.yul\":2092:2108   */\n  add\n    /* \"#utility.yul\":2141:2144   */\n  dup5\n    /* \"#utility.yul\":2132:2138   */\n  dup5\n    /* \"#utility.yul\":2127:2130   */\n  dup5\n    /* \"#utility.yul\":2123:2139   */\n  add\n    /* \"#utility.yul\":2120:2145   */\n  gt\n    /* \"#utility.yul\":2117:2229   */\n  iszero\n  tag_70\n  jumpi\n    /* \"#utility.yul\":2148:2227   */\n  tag_71\n  tag_16\n  jump\t// in\ntag_71:\n    /* \"#utility.yul\":2117:2229   */\ntag_70:\n    /* \"#utility.yul\":2238:2290   */\n  tag_72\n    /* \"#utility.yul\":2283:2289   */\n  dup5\n    /* \"#utility.yul\":2278:2281   */\n  dup3\n    /* \"#utility.yul\":2273:2276   */\n  dup6\n    /* \"#utility.yul\":2238:2290   */\n  tag_22\n  jump\t// in\ntag_72:\n    /* \"#utility.yul\":1957:2296   */\n  pop\n    /* \"#utility.yul\":1862:2296   */\n  swap4\n  swap3\n  pop\n  pop\n  pop\n  jump\t// out\n    /* \"#utility.yul\":2316:2671   */\ntag_24:\n    /* \"#utility.yul\":2383:2388   */\n  0x00\n    /* \"#utility.yul\":2432:2435   */\n  dup3\n    /* \"#utility.yul\":2425:2429   */\n  0x1f\n    /* \"#utility.yul\":2417:2423   */\n  dup4\n    /* \"#utility.yul\":2413:2430   */\n  add\n    /* \"#utility.yul\":2409:2436   */\n  slt\n    /* \"#utility.yul\":2399:2521   */\n  tag_74\n  jumpi\n    /* \"#utility.yul\":2440:2519   */\n  tag_75\n  tag_15\n  jump\t// in\ntag_75:\n    /* \"#utility.yul\":2399:2521   */\ntag_74:\n    /* \"#utility.yul\":2550:2556   */\n  dup2\n    /* \"#utility.yul\":2544:2557   */\n  mload\n    /* \"#utility.yul\":2575:2665   */\n  tag_76\n    /* \"#utility.yul\":2661:2664   */\n  dup5\n    /* \"#utility.yul\":2653:2659   */\n  dup3\n    /* \"#utility.yul\":2646:2650   */\n  0x20\n    /* \"#utility.yul\":2638:2644   */\n  dup7\n    /* \"#utility.yul\":2634:2651   */\n  add\n    /* \"#utility.yul\":2575:2665   */\n  tag_23\n  jump\t// in\ntag_76:\n    /* \"#utility.yul\":2566:2665   */\n  swap2\n  pop\n    /* \"#utility.yul\":2389:2671   */\n  pop\n    /* \"#utility.yul\":2316:2671   */\n  swap3\n  swap2\n  pop\n  pop\n  jump\t// out\n    /* \"#utility.yul\":2677:3530   */\ntag_3:\n    /* \"#utility.yul\":2776:2782   */\n  0x00\n    /* \"#utility.yul\":2784:2790   */\n  dup1\n    /* \"#utility.yul\":2833:2835   */\n  0x40\n    /* \"#utility.yul\":2821:2830   */\n  dup4\n    /* \"#utility.yul\":2812:2819   */\n  dup6\n    /* \"#utility.yul\":2808:2831   */\n  sub\n    /* \"#utility.yul\":2804:2836   */\n  slt\n    /* \"#utility.yul\":2801:2920   */\n  iszero\n  tag_78\n  jumpi\n    /* \"#utility.yul\":2839:2918   */\n  tag_79\n  tag_13\n  jump\t// in\ntag_79:\n    /* \"#utility.yul\":2801:2920   */\ntag_78:\n    /* \"#utility.yul\":2980:2981   */\n  0x00\n    /* \"#utility.yul\":2969:2978   */\n  dup4\n    /* \"#utility.yul\":2965:2982   */\n  add\n    /* \"#utility.yul\":2959:2983   */\n  mload\n    /* \"#utility.yul\":3010:3028   */\n  0xffffffffffffffff\n    /* \"#utility.yul\":3002:3008   */\n  dup2\n    /* \"#utility.yul\":2999:3029   */\n  gt\n    /* \"#utility.yul\":2996:3113   */\n  iszero\n  tag_80\n  jumpi\n    /* \"#utility.yul\":3032:3111   */\n  tag_81\n  tag_14\n  jump\t// in\ntag_81:\n    /* \"#utility.yul\":2996:3113   */\ntag_80:\n    /* \"#utility.yul\":3137:3211   */\n  tag_82\n    /* \"#utility.yul\":3203:3210   */\n  dup6\n    /* \"#utility.yul\":3194:3200   */\n  dup3\n    /* \"#utility.yul\":3183:3192   */\n  dup7\n    /* \"#utility.yul\":3179:3201   */\n  add\n    /* \"#utility.yul\":3137:3211   */\n  tag_24\n  jump\t// in\ntag_82:\n    /* \"#utility.yul\":3127:3211   */\n  swap3\n  pop\n    /* \"#utility.yul\":2930:3221   */\n  pop\n    /* \"#utility.yul\":3281:3283   */\n  0x20\n    /* \"#utility.yul\":3270:3279   */\n  dup4\n    /* \"#utility.yul\":3266:3284   */\n  add\n    /* \"#utility.yul\":3260:3285   */\n  mload\n    /* \"#utility.yul\":3312:3330   */\n  0xffffffffffffffff\n    /* \"#utility.yul\":3304:3310   */\n  dup2\n    /* \"#utility.yul\":3301:3331   */\n  gt\n    /* \"#utility.yul\":3298:3415   */\n  iszero\n  tag_83\n  jumpi\n    /* \"#utility.yul\":3334:3413   */\n  tag_84\n  tag_14\n  jump\t// in\ntag_84:\n    /* \"#utility.yul\":3298:3415   */\ntag_83:\n    /* \"#utility.yul\":3439:3513   */\n  tag_85\n    /* \"#utility.yul\":3505:3512   */\n  dup6\n    /* \"#utility.yul\":3496:3502   */\n  dup3\n    /* \"#utility.yul\":3485:3494   */\n  dup7\n    /* \"#utility.yul\":3481:3503   */\n  add\n    /* \"#utility.yul\":3439:3513   */\n  tag_24\n  jump\t// in\ntag_85:\n    /* \"#utility.yul\":3429:3513   */\n  swap2\n  pop\n    /* \"#utility.yul\":3231:3523   */\n  pop\n    /* \"#utility.yul\":2677:3530   */\n  swap3\n  pop\n  swap3\n  swap1\n  pop\n  jump\t// out\n    /* \"#utility.yul\":3536:3635   */\ntag_25:\n    /* \"#utility.yul\":3588:3594   */\n  0x00\n    /* \"#utility.yul\":3622:3627   */\n  dup2\n    /* \"#utility.yul\":3616:3628   */\n  mload\n    /* \"#utility.yul\":3606:3628   */\n  swap1\n  pop\n    /* \"#utility.yul\":3536:3635   */\n  swap2\n  swap1\n  pop\n  jump\t// out\n    /* \"#utility.yul\":3641:3821   */\ntag_26:\n    /* \"#utility.yul\":3689:3766   */\n  0x4e487b7100000000000000000000000000000000000000000000000000000000\n    /* \"#utility.yul\":3686:3687   */\n  0x00\n    /* \"#utility.yul\":3679:3767   */\n  mstore\n    /* \"#utility.yul\":3786:3790   */\n  0x22\n    /* \"#utility.yul\":3783:3784   */\n  0x04\n    /* \"#utility.yul\":3776:3791   */\n  mstore\n    /* \"#utility.yul\":3810:3814   */\n  0x24\n    /* \"#utility.yul\":3807:3808   */\n  0x00\n    /* \"#utility.yul\":3800:3815   */\n  revert\n    /* \"#utility.yul\":3827:4147   */\ntag_27:\n    /* \"#utility.yul\":3871:3877   */\n  0x00\n    /* \"#utility.yul\":3908:3909   */\n  0x02\n    /* \"#utility.yul\":3902:3906   */\n  dup3\n    /* \"#utility.yul\":3898:3910   */\n  div\n    /* \"#utility.yul\":3888:3910   */\n  swap1\n  pop\n    /* \"#utility.yul\":3955:3956   */\n  0x01\n    /* \"#utility.yul\":3949:3953   */\n  dup3\n    /* \"#utility.yul\":3945:3957   */\n  and\n    /* \"#utility.yul\":3976:3994   */\n  dup1\n    /* \"#utility.yul\":3966:4047   */\n  tag_89\n  jumpi\n    /* \"#utility.yul\":4032:4036   */\n  0x7f\n    /* \"#utility.yul\":4024:4030   */\n  dup3\n    /* \"#utility.yul\":4020:4037   */\n  and\n    /* \"#utility.yul\":4010:4037   */\n  swap2\n  pop\n    /* \"#utility.yul\":3966:4047   */\ntag_89:\n    /* \"#utility.yul\":4094:4096   */\n  0x20\n    /* \"#utility.yul\":4086:4092   */\n  dup3\n    /* \"#utility.yul\":4083:4097   */\n  lt\n    /* \"#utility.yul\":4063:4081   */\n  dup2\n    /* \"#utility.yul\":4060:4098   */\n  sub\n    /* \"#utility.yul\":4057:4141   */\n  tag_90\n  jumpi\n    /* \"#utility.yul\":4113:4131   */\n  tag_91\n  tag_26\n  jump\t// in\ntag_91:\n    /* \"#utility.yul\":4057:4141   */\ntag_90:\n    /* \"#utility.yul\":3878:4147   */\n  pop\n    /* \"#utility.yul\":3827:4147   */\n  swap2\n  swap1\n  pop\n  jump\t// out\n    /* \"#utility.yul\":4153:4294   */\ntag_28:\n    /* \"#utility.yul\":4202:4206   */\n  0x00\n    /* \"#utility.yul\":4225:4228   */\n  dup2\n    /* \"#utility.yul\":4217:4228   */\n  swap1\n  pop\n    /* \"#utility.yul\":4248:4251   */\n  dup2\n    /* \"#utility.yul\":4245:4246   */\n  0x00\n    /* \"#utility.yul\":4238:4252   */\n  mstore\n    /* \"#utility.yul\":4282:4286   */\n  0x20\n    /* \"#utility.yul\":4279:4280   */\n  0x00\n    /* \"#utility.yul\":4269:4287   */\n  keccak256\n    /* \"#utility.yul\":4261:4287   */\n  swap1\n  pop\n    /* \"#utility.yul\":4153:4294   */\n  swap2\n  swap1\n  pop\n  jump\t// out\n    /* \"#utility.yul\":4300:4393   */\ntag_29:\n    /* \"#utility.yul\":4337:4343   */\n  0x00\n    /* \"#utility.yul\":4384:4386   */\n  0x20\n    /* \"#utility.yul\":4379:4381   */\n  0x1f\n    /* \"#utility.yul\":4372:4377   */\n  dup4\n    /* \"#utility.yul\":4368:4382   */\n  add\n    /* \"#utility.yul\":4364:4387   */\n  div\n    /* \"#utility.yul\":4354:4387   */\n  swap1\n  pop\n    /* \"#utility.yul\":4300:4393   */\n  swap2\n  swap1\n  pop\n  jump\t// out\n    /* \"#utility.yul\":4399:4506   */\ntag_30:\n    /* \"#utility.yul\":4443:4451   */\n  0x00\n    /* \"#utility.yul\":4493:4498   */\n  dup3\n    /* \"#utility.yul\":4487:4491   */\n  dup3\n    /* \"#utility.yul\":4483:4499   */\n  shl\n    /* \"#utility.yul\":4462:4499   */\n  swap1\n  pop\n    /* \"#utility.yul\":4399:4506   */\n  swap3\n  swap2\n  pop\n  pop\n  jump\t// out\n    /* \"#utility.yul\":4512:4905   */\ntag_31:\n    /* \"#utility.yul\":4581:4587   */\n  0x00\n    /* \"#utility.yul\":4631:4632   */\n  0x08\n    /* \"#utility.yul\":4619:4629   */\n  dup4\n    /* \"#utility.yul\":4615:4633   */\n  mul\n    /* \"#utility.yul\":4654:4751   */\n  tag_96\n    /* \"#utility.yul\":4684:4750   */\n  0xffffffffffffffffffffffffffffffffffffffffffffffffffffffffffffffff\n    /* \"#utility.yul\":4673:4682   */\n  dup3\n    /* \"#utility.yul\":4654:4751   */\n  tag_30\n  jump\t// in\ntag_96:\n    /* \"#utility.yul\":4772:4811   */\n  tag_97\n    /* \"#utility.yul\":4802:4810   */\n  dup7\n    /* \"#utility.yul\":4791:4800   */\n  dup4\n    /* \"#utility.yul\":4772:4811   */\n  tag_30\n  jump\t// in\ntag_97:\n    /* \"#utility.yul\":4760:4811   */\n  swap6\n  pop\n    /* \"#utility.yul\":4844:4848   */\n  dup1\n    /* \"#utility.yul\":4840:4849   */\n  not\n    /* \"#utility.yul\":4833:4838   */\n  dup5\n    /* \"#utility.yul\":4829:4850   */\n  and\n    /* \"#utility.yul\":4820:4850   */\n  swap4\n  pop\n    /* \"#utility.yul\":4893:4897   */\n  dup1\n    /* \"#utility.yul\":4883:4891   */\n  dup7\n    /* \"#utility.yul\":4879:4898   */\n  and\n    /* \"#utility.yul\":4872:4877   */\n  dup5\n    /* \"#utility.yul\":4869:4899   */\n  or\n    /* \"#utility.yul\":4859:4899   */\n  swap3\n  pop\n    /* \"#utility.yul\":4588:4905   */\n  pop\n  pop\n    /* \"#utility.yul\":4512:4905   */\n  swap4\n  swap3\n  pop\n  pop\n  pop\n  jump\t// out\n    /* \"#utility.yul\":4911:4988   */\ntag_32:\n    /* \"#utility.yul\":4948:4955   */\n  0x00\n    /* \"#utility.yul\":4977:4982   */\n  dup2\n    /* \"#utility.yul\":4966:4982   */\n  swap1\n  pop\n    /* \"#utility.yul\":4911:4988   */\n  swap2\n  swap1\n  pop\n  jump\t// out\n    /* \"#utility.yul\":4994:5054   */\ntag_33:\n    /* \"#utility.yul\":5022:5025   */\n  0x00\n    /* \"#utility.yul\":5043:5048   */\n  dup2\n    /* \"#utility.yul\":5036:5048   */\n  swap1\n  pop\n    /* \"#utility.yul\":4994:5054   */\n  swap2\n  swap1\n  pop\n  jump\t// out\n    /* \"#utility.yul\":5060:5202   */\ntag_34:\n    /* \"#utility.yul\":5110:5119   */\n  0x00\n    /* \"#utility.yul\":5143:5196   */\n  tag_101\n    /* \"#utility.yul\":5161:5195   */\n  tag_102\n    /* \"#utility.yul\":5170:5194   */\n  tag_103\n    /* \"#utility.yul\":5188:5193   */\n  dup5\n    /* \"#utility.yul\":5170:5194   */\n  tag_32\n  jump\t// in\ntag_103:\n    /* \"#utility.yul\":5161:5195   */\n  tag_33\n  jump\t// in\ntag_102:\n    /* \"#utility.yul\":5143:5196   */\n  tag_32\n  jump\t// in\ntag_101:\n    /* \"#utility.yul\":5130:5196   */\n  swap1\n  pop\n    /* \"#utility.yul\":5060:5202   */\n  swap2\n  swap1\n  pop\n  jump\t// out\n    /* \"#utility.yul\":5208:5283   */\ntag_35:\n    /* \"#utility.yul\":5251:5254   */\n  0x00\n    /* \"#utility.yul\":5272:5277   */\n  dup2\n    /* \"#utility.yul\":5265:5277   */\n  swap1\n  pop\n    /* \"#utility.yul\":5208:5283   */\n  swap2\n  swap1\n  pop\n  jump\t// out\n    /* \"#utility.yul\":5289:5558   */\ntag_36:\n    /* \"#utility.yul\":5399:5438   */\n  tag_106\n    /* \"#utility.yul\":5430:5437   */\n  dup4\n    /* \"#utility.yul\":5399:5438   */\n  tag_34\n  jump\t// in\ntag_106:\n    /* \"#utility.yul\":5460:5551   */\n  tag_107\n    /* \"#utility.yul\":5509:5550   */\n  tag_108\n    /* \"#utility.yul\":5533:5549   */\n  dup3\n    /* \"#utility.yul\":5509:5550   */\n  tag_35\n  jump\t// in\ntag_108:\n    /* \"#utility.yul\":5501:5507   */\n  dup5\n    /* \"#utility.yul\":5494:5498   */\n  dup5\n    /* \"#utility.yul\":5488:5499   */\n  sload\n    /* \"#utility.yul\":5460:5551   */\n  tag_31\n  jump\t// in\ntag_107:\n    /* \"#utility.yul\":5454:5458   */\n  dup3\n    /* \"#utility.yul\":5447:5552   */\n  sstore\n    /* \"#utility.yul\":5365:5558   */\n  pop\n    /* \"#utility.yul\":5289:5558   */\n  pop\n  pop\n  pop\n  jump\t// out\n    /* \"#utility.yul\":5564:5637   */\ntag_37:\n    /* \"#utility.yul\":5609:5612   */\n  0x00\n    /* \"#utility.yul\":5564:5637   */\n  swap1\n  jump\t// out\n    /* \"#utility.yul\":5643:5832   */\ntag_38:\n    /* \"#utility.yul\":5720:5752   */\n  tag_111\n  tag_37\n  jump\t// in\ntag_111:\n    /* \"#utility.yul\":5761:5826   */\n  tag_112\n    /* \"#utility.yul\":5819:5825   */\n  dup2\n    /* \"#utility.yul\":5811:5817   */\n  dup5\n    /* \"#utility.yul\":5805:5809   */\n  dup5\n    /* \"#utility.yul\":5761:5826   */\n  tag_36\n  jump\t// in\ntag_112:\n    /* \"#utility.yul\":5696:5832   */\n  pop\n    /* \"#utility.yul\":5643:5832   */\n  pop\n  pop\n  jump\t// out\n    /* \"#utility.yul\":5838:6024   */\ntag_39:\n    /* \"#utility.yul\":5898:6018   */\ntag_114:\n    /* \"#utility.yul\":5915:5918   */\n  dup2\n    /* \"#utility.yul\":5908:5913   */\n  dup2\n    /* \"#utility.yul\":5905:5919   */\n  lt\n    /* \"#utility.yul\":5898:6018   */\n  iszero\n  tag_116\n  jumpi\n    /* \"#utility.yul\":5969:6008   */\n  tag_117\n    /* \"#utility.yul\":6006:6007   */\n  0x00\n    /* \"#utility.yul\":5999:6004   */\n  dup3\n    /* \"#utility.yul\":5969:6008   */\n  tag_38\n  jump\t// in\ntag_117:\n    /* \"#utility.yul\":5942:5943   */\n  0x01\n    /* \"#utility.yul\":5935:5940   */\n  dup2\n    /* \"#utility.yul\":5931:5944   */\n  add\n    /* \"#utility.yul\":5922:5944   */\n  swap1\n  pop\n    /* \"#utility.yul\":5898:6018   */\n  jump(tag_114)\ntag_116:\n    /* \"#utility.yul\":5838:6024   */\n  pop\n  pop\n  jump\t// out\n    /* \"#utility.yul\":6030:6573   */\ntag_40:\n    /* \"#utility.yul\":6131:6133   */\n  0x1f\n    /* \"#utility.yul\":6126:6129   */\n  dup3\n    /* \"#utility.yul\":6123:6134   */\n  gt\n    /* \"#utility.yul\":6120:6566   */\n  iszero\n  tag_119\n  jumpi\n    /* \"#utility.yul\":6165:6203   */\n  tag_120\n    /* \"#utility.yul\":6197:6202   */\n  dup2\n    /* \"#utility.yul\":6165:6203   */\n  tag_28\n  jump\t// in\ntag_120:\n    /* \"#utility.yul\":6249:6278   */\n  tag_121\n    /* \"#utility.yul\":6267:6277   */\n  dup5\n    /* \"#utility.yul\":6249:6278   */\n  tag_29\n  jump\t// in\ntag_121:\n    /* \"#utility.yul\":6239:6247   */\n  dup2\n    /* \"#utility.yul\":6235:6279   */\n  add\n    /* \"#utility.yul\":6432:6434   */\n  0x20\n    /* \"#utility.yul\":6420:6430   */\n  dup6\n    /* \"#utility.yul\":6417:6435   */\n  lt\n    /* \"#utility.yul\":6414:6463   */\n  iszero\n  tag_122\n  jumpi\n    /* \"#utility.yul\":6453:6461   */\n  dup2\n    /* \"#utility.yul\":6438:6461   */\n  swap1\n  pop\n    /* \"#utility.yul\":6414:6463   */\ntag_122:\n    /* \"#utility.yul\":6476:6556   */\n  tag_123\n    /* \"#utility.yul\":6532:6554   */\n  tag_124\n    /* \"#utility.yul\":6550:6553   */\n  dup6\n    /* \"#utility.yul\":6532:6554   */\n  tag_29\n  jump\t// in\ntag_124:\n    /* \"#utility.yul\":6522:6530   */\n  dup4\n    /* \"#utility.yul\":6518:6555   */\n  add\n    /* \"#utility.yul\":6505:6516   */\n  dup3\n    /* \"#utility.yul\":6476:6556   */\n  tag_39\n  jump\t// in\ntag_123:\n    /* \"#utility.yul\":6135:6566   */\n  pop\n  pop\n    /* \"#utility.yul\":6120:6566   */\ntag_119:\n    /* \"#utility.yul\":6030:6573   */\n  pop\n  pop\n  pop\n  jump\t// out\n    /* \"#utility.yul\":6579:6696   */\ntag_41:\n    /* \"#utility.yul\":6633:6641   */\n  0x00\n    /* \"#utility.yul\":6683:6688   */\n  dup3\n    /* \"#utility.yul\":6677:6681   */\n  dup3\n    /* \"#utility.yul\":6673:6689   */\n  shr\n    /* \"#utility.yul\":6652:6689   */\n  swap1\n  pop\n    /* \"#utility.yul\":6579:6696   */\n  swap3\n  swap2\n  pop\n  pop\n  jump\t// out\n    /* \"#utility.yul\":6702:6871   */\ntag_42:\n    /* \"#utility.yul\":6746:6752   */\n  0x00\n    /* \"#utility.yul\":6779:6830   */\n  tag_127\n    /* \"#utility.yul\":6827:6828   */\n  0x00\n    /* \"#utility.yul\":6823:6829   */\n  not\n    /* \"#utility.yul\":6815:6820   */\n  dup5\n    /* \"#utility.yul\":6812:6813   */\n  0x08\n    /* \"#utility.yul\":6808:6821   */\n  mul\n    /* \"#utility.yul\":6779:6830   */\n  tag_41\n  jump\t// in\ntag_127:\n    /* \"#utility.yul\":6775:6831   */\n  not\n    /* \"#utility.yul\":6860:6864   */\n  dup1\n    /* \"#utility.yul\":6854:6858   */\n  dup4\n    /* \"#utility.yul\":6850:6865   */\n  and\n    /* \"#utility.yul\":6840:6865   */\n  swap2\n  pop\n    /* \"#utility.yul\":6753:6871   */\n  pop\n    /* \"#utility.yul\":6702:6871   */\n  swap3\n  swap2\n  pop\n  pop\n  jump\t// out\n    /* \"#utility.yul\":6876:7171   */\ntag_43:\n    /* \"#utility.yul\":6952:6956   */\n  0x00\n    /* \"#utility.yul\":7098:7127   */\n  tag_129\n    /* \"#utility.yul\":7123:7126   */\n  dup4\n    /* \"#utility.yul\":7117:7121   */\n  dup4\n    /* \"#utility.yul\":7098:7127   */\n  tag_42\n  jump\t// in\ntag_129:\n    /* \"#utility.yul\":7090:7127   */\n  swap2\n  pop\n    /* \"#utility.yul\":7160:7163   */\n  dup3\n    /* \"#utility.yul\":7157:7158   */\n  0x02\n    /* \"#utility.yul\":7153:7164   */\n  mul\n    /* \"#utility.yul\":7147:7151   */\n  dup3\n    /* \"#utility.yul\":7144:7165   */\n  or\n    /* \"#utility.yul\":7136:7165   */\n  swap1\n  pop\n    /* \"#utility.yul\":6876:7171   */\n  swap3\n  swap2\n  pop\n  pop\n  jump\t// out\n    /* \"#utility.yul\":7176:8571   */\ntag_8:\n    /* \"#utility.yul\":7293:7330   */\n  tag_131\n    /* \"#utility.yul\":7326:7329   */\n  dup3\n    /* \"#utility.yul\":7293:7330   */\n  tag_25\n  jump\t// in\ntag_131:\n    /* \"#utility.yul\":7395:7413   */\n  0xffffffffffffffff\n    /* \"#utility.yul\":7387:7393   */\n  dup2\n    /* \"#utility.yul\":7384:7414   */\n  gt\n    /* \"#utility.yul\":7381:7437   */\n  iszero\n  tag_132\n  jumpi\n    /* \"#utility.yul\":7417:7435   */\n  tag_133\n  tag_18\n  jump\t// in\ntag_133:\n    /* \"#utility.yul\":7381:7437   */\ntag_132:\n    /* \"#utility.yul\":7461:7499   */\n  tag_134\n    /* \"#utility.yul\":7493:7497   */\n  dup3\n    /* \"#utility.yul\":7487:7498   */\n  sload\n    /* \"#utility.yul\":7461:7499   */\n  tag_27\n  jump\t// in\ntag_134:\n    /* \"#utility.yul\":7546:7613   */\n  tag_135\n    /* \"#utility.yul\":7606:7612   */\n  dup3\n    /* \"#utility.yul\":7598:7604   */\n  dup3\n    /* \"#utility.yul\":7592:7596   */\n  dup6\n    /* \"#utility.yul\":7546:7613   */\n  tag_40\n  jump\t// in\ntag_135:\n    /* \"#utility.yul\":7640:7641   */\n  0x00\n    /* \"#utility.yul\":7664:7668   */\n  0x20\n    /* \"#utility.yul\":7651:7668   */\n  swap1\n  pop\n    /* \"#utility.yul\":7696:7698   */\n  0x1f\n    /* \"#utility.yul\":7688:7694   */\n  dup4\n    /* \"#utility.yul\":7685:7699   */\n  gt\n    /* \"#utility.yul\":7713:7714   */\n  0x01\n    /* \"#utility.yul\":7708:8326   */\n  dup2\n  eq\n  tag_137\n  jumpi\n    /* \"#utility.yul\":8370:8371   */\n  0x00\n    /* \"#utility.yul\":8387:8393   */\n  dup5\n    /* \"#utility.yul\":8384:8461   */\n  iszero\n  tag_138\n  jumpi\n    /* \"#utility.yul\":8436:8445   */\n  dup3\n    /* \"#utility.yul\":8431:8434   */\n  dup8\n    /* \"#utility.yul\":8427:8446   */\n  add\n    /* \"#utility.yul\":8421:8447   */\n  mload\n    /* \"#utility.yul\":8412:8447   */\n  swap1\n  pop\n    /* \"#utility.yul\":8384:8461   */\ntag_138:\n    /* \"#utility.yul\":8487:8554   */\n  tag_139\n    /* \"#utility.yul\":8547:8553   */\n  dup6\n    /* \"#utility.yul\":8540:8545   */\n  dup3\n    /* \"#utility.yul\":8487:8554   */\n  tag_43\n  jump\t// in\ntag_139:\n    /* \"#utility.yul\":8481:8485   */\n  dup7\n    /* \"#utility.yul\":8474:8555   */\n  sstore\n    /* \"#utility.yul\":8343:8565   */\n  pop\n    /* \"#utility.yul\":7678:8565   */\n  jump(tag_136)\n    /* \"#utility.yul\":7708:8326   */\ntag_137:\n    /* \"#utility.yul\":7760:7764   */\n  0x1f\n    /* \"#utility.yul\":7756:7765   */\n  not\n    /* \"#utility.yul\":7748:7754   */\n  dup5\n    /* \"#utility.yul\":7744:7766   */\n  and\n    /* \"#utility.yul\":7794:7831   */\n  tag_140\n    /* \"#utility.yul\":7826:7830   */\n  dup7\n    /* \"#utility.yul\":7794:7831   */\n  tag_28\n  jump\t// in\ntag_140:\n    /* \"#utility.yul\":7853:7854   */\n  0x00\n    /* \"#utility.yul\":7867:8075   */\ntag_141:\n    /* \"#utility.yul\":7881:7888   */\n  dup3\n    /* \"#utility.yul\":7878:7879   */\n  dup2\n    /* \"#utility.yul\":7875:7889   */\n  lt\n    /* \"#utility.yul\":7867:8075   */\n  iszero\n  tag_143\n  jumpi\n    /* \"#utility.yul\":7960:7969   */\n  dup5\n    /* \"#utility.yul\":7955:7958   */\n  dup10\n    /* \"#utility.yul\":7951:7970   */\n  add\n    /* \"#utility.yul\":7945:7971   */\n  mload\n    /* \"#utility.yul\":7937:7943   */\n  dup3\n    /* \"#utility.yul\":7930:7972   */\n  sstore\n    /* \"#utility.yul\":8011:8012   */\n  0x01\n    /* \"#utility.yul\":8003:8009   */\n  dup3\n    /* \"#utility.yul\":7999:8013   */\n  add\n    /* \"#utility.yul\":7989:8013   */\n  swap2\n  pop\n    /* \"#utility.yul\":8058:8060   */\n  0x20\n    /* \"#utility.yul\":8047:8056   */\n  dup6\n    /* \"#utility.yul\":8043:8061   */\n  add\n    /* \"#utility.yul\":8030:8061   */\n  swap5\n  pop\n    /* \"#utility.yul\":7904:7908   */\n  0x20\n    /* \"#utility.yul\":7901:7902   */\n  dup2\n    /* \"#utility.yul\":7897:7909   */\n  add\n    /* \"#utility.yul\":7892:7909   */\n  swap1\n  pop\n    /* \"#utility.yul\":7867:8075   */\n  jump(tag_141)\ntag_143:\n    /* \"#utility.yul\":8103:8109   */\n  dup7\n    /* \"#utility.yul\":8094:8101   */\n  dup4\n    /* \"#utility.yul\":8091:8110   */\n  lt\n    /* \"#utility.yul\":8088:8267   */\n  iszero\n  tag_144\n  jumpi\n    /* \"#utility.yul\":8161:8170   */\n  dup5\n    /* \"#utility.yul\":8156:8159   */\n  dup10\n    /* \"#utility.yul\":8152:8171   */\n  add\n    /* \"#utility.yul\":8146:8172   */\n  mload\n    /* \"#utility.yul\":8204:8252   */\n  tag_145\n    /* \"#utility.yul\":8246:8250   */\n  0x1f\n    /* \"#utility.yul\":8238:8244   */\n  dup10\n    /* \"#utility.yul\":8234:8251   */\n  and\n    /* \"#utility.yul\":8223:8232   */\n  dup3\n    /* \"#utility.yul\":8204:8252   */\n  tag_42\n  jump\t// in\ntag_145:\n    /* \"#utility.yul\":8196:8202   */\n  dup4\n    /* \"#utility.yul\":8189:8253   */\n  sstore\n    /* \"#utility.yul\":8111:8267   */\n  pop\n    /* \"#utility.yul\":8088:8267   */\ntag_144:\n    /* \"#utility.yul\":8313:8314   */\n  0x01\n    /* \"#utility.yul\":8309:8310   */\n  0x02\n    /* \"#utility.yul\":8301:8307   */\n  dup9\n    /* \"#utility.yul\":8297:8311   */\n  mul\n    /* \"#utility.yul\":8293:8315   */\n  add\n    /* \"#utility.yul\":8287:8291   */\n  dup9\n    /* \"#utility.yul\":8280:8316   */\n  sstore\n    /* \"#utility.yul\":7715:8326   */\n  pop\n  pop\n  pop\n    /* \"#utility.yul\":7678:8565   */\ntag_136:\n  pop\n    /* \"#utility.yul\":7268:8571   */\n  pop\n  pop\n  pop\n    /* \"#utility.yul\":7176:8571   */\n  pop\n  pop\n  jump\t// out\n    /* \"contracts/TestToken.sol\":125:355  contract TestToken is KIP7{... */\ntag_11:\n  dataSize(sub_0)\n  dup1\n  dataOffset(sub_0)\n  0x00\n  codecopy\n  0x00\n  return\nstop\n\nsub_0: assembly {\n        /* \"contracts/TestToken.sol\":125:355  contract TestToken is KIP7{... */\n      mstore(0x40, 0x80)\n      callvalue\n      dup1\n      iszero\n      tag_1\n      jumpi\n      0x00\n      dup1\n      revert\n    tag_1:\n      pop\n      jumpi(tag_2, lt(calldatasize, 0x04))\n      shr(0xe0, calldataload(0x00))\n      dup1\n      0x42842e0e\n      gt\n      tag_19\n      jumpi\n      dup1\n      0xa9059cbb\n      gt\n      tag_20\n      jumpi\n      dup1\n      0xa9059cbb\n      eq\n      tag_15\n      jumpi\n      dup1\n      0xb88d4fde\n      eq\n      tag_16\n      jumpi\n      dup1\n      0xdd62ed3e\n      eq\n      tag_17\n      jumpi\n      dup1\n      0xeb795549\n      eq\n      tag_18\n      jumpi\n      jump(tag_2)\n    tag_20:\n      dup1\n      0x42842e0e\n      eq\n      tag_11\n      jumpi\n      dup1\n      0x70a08231\n      eq\n      tag_12\n      jumpi\n      dup1\n      0x95d89b41\n      eq\n      tag_13\n      jumpi\n      dup1\n      0xa457c2d7\n      eq\n      tag_14\n      jumpi\n      jump(tag_2)\n    tag_19:\n      dup1\n      0x313ce567\n      gt\n      tag_21\n      jumpi\n      dup1\n      0x313ce567\n      eq\n      tag_7\n      jumpi\n      dup1\n      0x39509351\n      eq\n      tag_8\n      jumpi\n      dup1\n      0x40c10f19\n      eq\n      tag_9\n      jumpi\n      dup1\n      0x423f6cef\n      eq\n      tag_10\n      jumpi\n      jump(tag_2)\n    tag_21:\n      dup1\n      0x06fdde03\n      eq\n      tag_3\n      jumpi\n      dup1\n      0x095ea7b3\n      eq\n      tag_4\n      jumpi\n      dup1\n      0x18160ddd\n      eq\n      tag_5\n      jumpi\n      dup1\n      0x23b872dd\n      eq\n      tag_6\n      jumpi\n    tag_2:\n      0x00\n      dup1\n      revert\n        /* \"@klaytn/contracts/contracts/KIP/token/KIP7/KIP7.sol\":2269:2367  function name() public view virtual override returns (string memory) {... */\n    tag_3:\n      tag_22\n      tag_23\n      jump\t// in\n    tag_22:\n      mload(0x40)\n      tag_24\n      swap2\n      swap1\n      tag_25\n      jump\t// in\n    tag_24:\n      mload(0x40)\n      dup1\n      swap2\n      sub\n      swap1\n      return\n        /* \"@klaytn/contracts/contracts/KIP/token/KIP7/KIP7.sol\":4538:4735  function approve(address spender, uint256 amount) public virtual override returns (bool) {... */\n    tag_4:\n      tag_26\n      0x04\n      dup1\n      calldatasize\n      sub\n      dup2\n      add\n      swap1\n      tag_27\n      swap2\n      swap1\n      tag_28\n      jump\t// in\n    tag_27:\n      tag_29\n      jump\t// in\n    tag_26:\n      mload(0x40)\n      tag_30\n      swap2\n      swap1\n      tag_31\n      jump\t// in\n    tag_30:\n      mload(0x40)\n      dup1\n      swap2\n      sub\n      swap1\n      return\n        /* \"@klaytn/contracts/contracts/KIP/token/KIP7/KIP7.sol\":3353:3459  function totalSupply() public view virtual override returns (uint256) {... */\n    tag_5:\n      tag_32\n      tag_33\n      jump\t// in\n    tag_32:\n      mload(0x40)\n      tag_34\n      swap2\n      swap1\n      tag_35\n      jump\t// in\n    tag_34:\n      mload(0x40)\n      dup1\n      swap2\n      sub\n      swap1\n      return\n        /* \"@klaytn/contracts/contracts/KIP/token/KIP7/KIP7.sol\":5295:5581  function transferFrom(... */\n    tag_6:\n      tag_36\n      0x04\n      dup1\n      calldatasize\n      sub\n      dup2\n      add\n      swap1\n      tag_37\n      swap2\n      swap1\n      tag_38\n      jump\t// in\n    tag_37:\n      tag_39\n      jump\t// in\n    tag_36:\n      mload(0x40)\n      tag_40\n      swap2\n      swap1\n      tag_31\n      jump\t// in\n    tag_40:\n      mload(0x40)\n      dup1\n      swap2\n      sub\n      swap1\n      return\n        /* \"@klaytn/contracts/contracts/KIP/token/KIP7/KIP7.sol\":3203:3294  function decimals() public view virtual override returns (uint8) {... */\n    tag_7:\n      tag_41\n      tag_42\n      jump\t// in\n    tag_41:\n      mload(0x40)\n      tag_43\n      swap2\n      swap1\n      tag_44\n      jump\t// in\n    tag_43:\n      mload(0x40)\n      dup1\n      swap2\n      sub\n      swap1\n      return\n        /* \"@klaytn/contracts/contracts/KIP/token/KIP7/KIP7.sol\":5975:6209  function increaseAllowance(address spender, uint256 addedValue) public virtual returns (bool) {... */\n    tag_8:\n      tag_45\n      0x04\n      dup1\n      calldatasize\n      sub\n      dup2\n      add\n      swap1\n      tag_46\n      swap2\n      swap1\n      tag_28\n      jump\t// in\n    tag_46:\n      tag_47\n      jump\t// in\n    tag_45:\n      mload(0x40)\n      tag_48\n      swap2\n      swap1\n      tag_31\n      jump\t// in\n    tag_48:\n      mload(0x40)\n      dup1\n      swap2\n      sub\n      swap1\n      return\n        /* \"contracts/TestToken.sol\":260:352  function mint(address _user, uint256 _amount) public {... */\n    tag_9:\n      tag_49\n      0x04\n      dup1\n      calldatasize\n      sub\n      dup2\n      add\n      swap1\n      tag_50\n      swap2\n      swap1\n      tag_28\n      jump\t// in\n    tag_50:\n      tag_51\n      jump\t// in\n    tag_49:\n      stop\n        /* \"@klaytn/contracts/contracts/KIP/token/KIP7/KIP7.sol\":7445:7623  function safeTransfer(address recipient, uint256 amount) public virtual override{... */\n    tag_10:\n      tag_52\n      0x04\n      dup1\n      calldatasize\n      sub\n      dup2\n      add\n      swap1\n      tag_53\n      swap2\n      swap1\n      tag_28\n      jump\t// in\n    tag_53:\n      tag_54\n      jump\t// in\n    tag_52:\n      stop\n        /* \"@klaytn/contracts/contracts/KIP/token/KIP7/KIP7.sol\":8803:9086  function safeTransferFrom(... */\n    tag_11:\n      tag_55\n      0x04\n      dup1\n      calldatasize\n      sub\n      dup2\n      add\n      swap1\n      tag_56\n      swap2\n      swap1\n      tag_38\n      jump\t// in\n    tag_56:\n      tag_57\n      jump\t// in\n    tag_55:\n      stop\n        /* \"@klaytn/contracts/contracts/KIP/token/KIP7/KIP7.sol\":3516:3641  function balanceOf(address account) public view virtual override returns (uint256) {... */\n    tag_12:\n      tag_58\n      0x04\n      dup1\n      calldatasize\n      sub\n      dup2\n      add\n      swap1\n      tag_59\n      swap2\n      swap1\n      tag_60\n      jump\t// in\n    tag_59:\n      tag_61\n      jump\t// in\n    tag_58:\n      mload(0x40)\n      tag_62\n      swap2\n      swap1\n      tag_35\n      jump\t// in\n    tag_62:\n      mload(0x40)\n      dup1\n      swap2\n      sub\n      swap1\n      return\n        /* \"@klaytn/contracts/contracts/KIP/token/KIP7/KIP7.sol\":2480:2582  function symbol() public view virtual override returns (string memory) {... */\n    tag_13:\n      tag_63\n      tag_64\n      jump\t// in\n    tag_63:\n      mload(0x40)\n      tag_65\n      swap2\n      swap1\n      tag_25\n      jump\t// in\n    tag_65:\n      mload(0x40)\n      dup1\n      swap2\n      sub\n      swap1\n      return\n        /* \"@klaytn/contracts/contracts/KIP/token/KIP7/KIP7.sol\":6695:7121  function decreaseAllowance(address spender, uint256 subtractedValue) public virtual returns (bool) {... */\n    tag_14:\n      tag_66\n      0x04\n      dup1\n      calldatasize\n      sub\n      dup2\n      add\n      swap1\n      tag_67\n      swap2\n      swap1\n      tag_28\n      jump\t// in\n    tag_67:\n      tag_68\n      jump\t// in\n    tag_66:\n      mload(0x40)\n      tag_69\n      swap2\n      swap1\n      tag_31\n      jump\t// in\n    tag_69:\n      mload(0x40)\n      dup1\n      swap2\n      sub\n      swap1\n      return\n        /* \"@klaytn/contracts/contracts/KIP/token/KIP7/KIP7.sol\":3836:4025  function transfer(address to, uint256 amount) public virtual override returns (bool) {... */\n    tag_15:\n      tag_70\n      0x04\n      dup1\n      calldatasize\n      sub\n      dup2\n      add\n      swap1\n      tag_71\n      swap2\n      swap1\n      tag_28\n      jump\t// in\n    tag_71:\n      tag_72\n      jump\t// in\n    tag_70:\n      mload(0x40)\n      tag_73\n      swap2\n      swap1\n      tag_31\n      jump\t// in\n    tag_73:\n      mload(0x40)\n      dup1\n      swap2\n      sub\n      swap1\n      return\n        /* \"@klaytn/contracts/contracts/KIP/token/KIP7/KIP7.sol\":9429:9741  function safeTransferFrom(... */\n    tag_16:\n      tag_74\n      0x04\n      dup1\n      calldatasize\n      sub\n      dup2\n      add\n      swap1\n      tag_75\n      swap2\n      swap1\n      tag_76\n      jump\t// in\n    tag_75:\n      tag_77\n      jump\t// in\n    tag_74:\n      stop\n        /* \"@klaytn/contracts/contracts/KIP/token/KIP7/KIP7.sol\":4082:4231  function allowance(address owner, address spender) public view virtual override returns (uint256) {... */\n    tag_17:\n      tag_78\n      0x04\n      dup1\n      calldatasize\n      sub\n      dup2\n      add\n      swap1\n      tag_79\n      swap2\n      swap1\n      tag_80\n      jump\t// in\n    tag_79:\n      tag_81\n      jump\t// in\n    tag_78:\n      mload(0x40)\n      tag_82\n      swap2\n      swap1\n      tag_35\n      jump\t// in\n    tag_82:\n      mload(0x40)\n      dup1\n      swap2\n      sub\n      swap1\n      return\n        /* \"@klaytn/contracts/contracts/KIP/token/KIP7/KIP7.sol\":7884:8115  function safeTransfer(... */\n    tag_18:\n      tag_83\n      0x04\n      dup1\n      calldatasize\n      sub\n      dup2\n      add\n      swap1\n      tag_84\n      swap2\n      swap1\n      tag_85\n      jump\t// in\n    tag_84:\n      tag_86\n      jump\t// in\n    tag_83:\n      stop\n        /* \"@klaytn/contracts/contracts/KIP/token/KIP7/KIP7.sol\":2269:2367  function name() public view virtual override returns (string memory) {... */\n    tag_23:\n        /* \"@klaytn/contracts/contracts/KIP/token/KIP7/KIP7.sol\":2323:2336  string memory */\n      0x60\n        /* \"@klaytn/contracts/contracts/KIP/token/KIP7/KIP7.sol\":2355:2360  _name */\n      0x03\n        /* \"@klaytn/contracts/contracts/KIP/token/KIP7/KIP7.sol\":2348:2360  return _name */\n      dup1\n      sload\n      tag_88\n      swap1\n      tag_89\n      jump\t// in\n    tag_88:\n      dup1\n      0x1f\n      add\n      0x20\n      dup1\n      swap2\n      div\n      mul\n      0x20\n      add\n      mload(0x40)\n      swap1\n      dup2\n      add\n      0x40\n      mstore\n      dup1\n      swap3\n      swap2\n      swap1\n      dup2\n      dup2\n      mstore\n      0x20\n      add\n      dup3\n      dup1\n      sload\n      tag_90\n      swap1\n      tag_89\n      jump\t// in\n    tag_90:\n      dup1\n      iszero\n      tag_91\n      jumpi\n      dup1\n      0x1f\n      lt\n      tag_92\n      jumpi\n      0x0100\n      dup1\n      dup4\n      sload\n      div\n      mul\n      dup4\n      mstore\n      swap2\n      0x20\n      add\n      swap2\n      jump(tag_91)\n    tag_92:\n      dup3\n      add\n      swap2\n      swap1\n      0x00\n      mstore\n      keccak256(0x00, 0x20)\n      swap1\n    tag_93:\n      dup2\n      sload\n      dup2\n      mstore\n      swap1\n      0x01\n      add\n      swap1\n      0x20\n      add\n      dup1\n      dup4\n      gt\n      tag_93\n      jumpi\n      dup3\n      swap1\n      sub\n      0x1f\n      and\n      dup3\n      add\n      swap2\n    tag_91:\n      pop\n      pop\n      pop\n      pop\n      pop\n      swap1\n      pop\n        /* \"@klaytn/contracts/contracts/KIP/token/KIP7/KIP7.sol\":2269:2367  function name() public view virtual override returns (string memory) {... */\n      swap1\n      jump\t// out\n        /* \"@klaytn/contracts/contracts/KIP/token/KIP7/KIP7.sol\":4538:4735  function approve(address spender, uint256 amount) public virtual override returns (bool) {... */\n    tag_29:\n        /* \"@klaytn/contracts/contracts/KIP/token/KIP7/KIP7.sol\":4621:4625  bool */\n      0x00\n        /* \"@klaytn/contracts/contracts/KIP/token/KIP7/KIP7.sol\":4637:4650  address owner */\n      dup1\n        /* \"@klaytn/contracts/contracts/KIP/token/KIP7/KIP7.sol\":4653:4665  _msgSender() */\n      tag_95\n        /* \"@klaytn/contracts/contracts/KIP/token/KIP7/KIP7.sol\":4653:4663  _msgSender */\n      tag_96\n        /* \"@klaytn/contracts/contracts/KIP/token/KIP7/KIP7.sol\":4653:4665  _msgSender() */\n      jump\t// in\n    tag_95:\n        /* \"@klaytn/contracts/contracts/KIP/token/KIP7/KIP7.sol\":4637:4665  address owner = _msgSender() */\n      swap1\n      pop\n        /* \"@klaytn/contracts/contracts/KIP/token/KIP7/KIP7.sol\":4675:4707  _approve(owner, spender, amount) */\n      tag_97\n        /* \"@klaytn/contracts/contracts/KIP/token/KIP7/KIP7.sol\":4684:4689  owner */\n      dup2\n        /* \"@klaytn/contracts/contracts/KIP/token/KIP7/KIP7.sol\":4691:4698  spender */\n      dup6\n        /* \"@klaytn/contracts/contracts/KIP/token/KIP7/KIP7.sol\":4700:4706  amount */\n      dup6\n        /* \"@klaytn/contracts/contracts/KIP/token/KIP7/KIP7.sol\":4675:4683  _approve */\n      tag_98\n        /* \"@klaytn/contracts/contracts/KIP/token/KIP7/KIP7.sol\":4675:4707  _approve(owner, spender, amount) */\n      jump\t// in\n    tag_97:\n        /* \"@klaytn/contracts/contracts/KIP/token/KIP7/KIP7.sol\":4724:4728  true */\n      0x01\n        /* \"@klaytn/contracts/contracts/KIP/token/KIP7/KIP7.sol\":4717:4728  return true */\n      swap2\n      pop\n      pop\n        /* \"@klaytn/contracts/contracts/KIP/token/KIP7/KIP7.sol\":4538:4735  function approve(address spender, uint256 amount) public virtual override returns (bool) {... */\n      swap3\n      swap2\n      pop\n      pop\n      jump\t// out\n        /* \"@klaytn/contracts/contracts/KIP/token/KIP7/KIP7.sol\":3353:3459  function totalSupply() public view virtual override returns (uint256) {... */\n    tag_33:\n        /* \"@klaytn/contracts/contracts/KIP/token/KIP7/KIP7.sol\":3414:3421  uint256 */\n      0x00\n        /* \"@klaytn/contracts/contracts/KIP/token/KIP7/KIP7.sol\":3440:3452  _totalSupply */\n      sload(0x02)\n        /* \"@klaytn/contracts/contracts/KIP/token/KIP7/KIP7.sol\":3433:3452  return _totalSupply */\n      swap1\n      pop\n        /* \"@klaytn/contracts/contracts/KIP/token/KIP7/KIP7.sol\":3353:3459  function totalSupply() public view virtual override returns (uint256) {... */\n      swap1\n      jump\t// out\n        /* \"@klaytn/contracts/contracts/KIP/token/KIP7/KIP7.sol\":5295:5581  function transferFrom(... */\n    tag_39:\n        /* \"@klaytn/contracts/contracts/KIP/token/KIP7/KIP7.sol\":5422:5426  bool */\n      0x00\n        /* \"@klaytn/contracts/contracts/KIP/token/KIP7/KIP7.sol\":5438:5453  address spender */\n      dup1\n        /* \"@klaytn/contracts/contracts/KIP/token/KIP7/KIP7.sol\":5456:5468  _msgSender() */\n      tag_101\n        /* \"@klaytn/contracts/contracts/KIP/token/KIP7/KIP7.sol\":5456:5466  _msgSender */\n      tag_96\n        /* \"@klaytn/contracts/contracts/KIP/token/KIP7/KIP7.sol\":5456:5468  _msgSender() */\n      jump\t// in\n    tag_101:\n        /* \"@klaytn/contracts/contracts/KIP/token/KIP7/KIP7.sol\":5438:5468  address spender = _msgSender() */\n      swap1\n      pop\n        /* \"@klaytn/contracts/contracts/KIP/token/KIP7/KIP7.sol\":5478:5516  _spendAllowance(from, spender, amount) */\n      tag_102\n        /* \"@klaytn/contracts/contracts/KIP/token/KIP7/KIP7.sol\":5494:5498  from */\n      dup6\n        /* \"@klaytn/contracts/contracts/KIP/token/KIP7/KIP7.sol\":5500:5507  spender */\n      dup3\n        /* \"@klaytn/contracts/contracts/KIP/token/KIP7/KIP7.sol\":5509:5515  amount */\n      dup6\n        /* \"@klaytn/contracts/contracts/KIP/token/KIP7/KIP7.sol\":5478:5493  _spendAllowance */\n      tag_103\n        /* \"@klaytn/contracts/contracts/KIP/token/KIP7/KIP7.sol\":5478:5516  _spendAllowance(from, spender, amount) */\n      jump\t// in\n    tag_102:\n        /* \"@klaytn/contracts/contracts/KIP/token/KIP7/KIP7.sol\":5526:5553  _transfer(from, to, amount) */\n      tag_104\n        /* \"@klaytn/contracts/contracts/KIP/token/KIP7/KIP7.sol\":5536:5540  from */\n      dup6\n        /* \"@klaytn/contracts/contracts/KIP/token/KIP7/KIP7.sol\":5542:5544  to */\n      dup6\n        /* \"@klaytn/contracts/contracts/KIP/token/KIP7/KIP7.sol\":5546:5552  amount */\n      dup6\n        /* \"@klaytn/contracts/contracts/KIP/token/KIP7/KIP7.sol\":5526:5535  _transfer */\n      tag_105\n        /* \"@klaytn/contracts/contracts/KIP/token/KIP7/KIP7.sol\":5526:5553  _transfer(from, to, amount) */\n      jump\t// in\n    tag_104:\n        /* \"@klaytn/contracts/contracts/KIP/token/KIP7/KIP7.sol\":5570:5574  true */\n      0x01\n        /* \"@klaytn/contracts/contracts/KIP/token/KIP7/KIP7.sol\":5563:5574  return true */\n      swap2\n      pop\n      pop\n        /* \"@klaytn/contracts/contracts/KIP/token/KIP7/KIP7.sol\":5295:5581  function transferFrom(... */\n      swap4\n      swap3\n      pop\n      pop\n      pop\n      jump\t// out\n        /* \"@klaytn/contracts/contracts/KIP/token/KIP7/KIP7.sol\":3203:3294  function decimals() public view virtual override returns (uint8) {... */\n    tag_42:\n        /* \"@klaytn/contracts/contracts/KIP/token/KIP7/KIP7.sol\":3261:3266  uint8 */\n      0x00\n        /* \"@klaytn/contracts/contracts/KIP/token/KIP7/KIP7.sol\":3285:3287  18 */\n      0x12\n        /* \"@klaytn/contracts/contracts/KIP/token/KIP7/KIP7.sol\":3278:3287  return 18 */\n      swap1\n      pop\n        /* \"@klaytn/contracts/contracts/KIP/token/KIP7/KIP7.sol\":3203:3294  function decimals() public view virtual override returns (uint8) {... */\n      swap1\n      jump\t// out\n        /* \"@klaytn/contracts/contracts/KIP/token/KIP7/KIP7.sol\":5975:6209  function increaseAllowance(address spender, uint256 addedValue) public virtual returns (bool) {... */\n    tag_47:\n        /* \"@klaytn/contracts/contracts/KIP/token/KIP7/KIP7.sol\":6063:6067  bool */\n      0x00\n        /* \"@klaytn/contracts/contracts/KIP/token/KIP7/KIP7.sol\":6079:6092  address owner */\n      dup1\n        /* \"@klaytn/contracts/contracts/KIP/token/KIP7/KIP7.sol\":6095:6107  _msgSender() */\n      tag_108\n        /* \"@klaytn/contracts/contracts/KIP/token/KIP7/KIP7.sol\":6095:6105  _msgSender */\n      tag_96\n        /* \"@klaytn/contracts/contracts/KIP/token/KIP7/KIP7.sol\":6095:6107  _msgSender() */\n      jump\t// in\n    tag_108:\n        /* \"@klaytn/contracts/contracts/KIP/token/KIP7/KIP7.sol\":6079:6107  address owner = _msgSender() */\n      swap1\n      pop\n        /* \"@klaytn/contracts/contracts/KIP/token/KIP7/KIP7.sol\":6117:6181  _approve(owner, spender, allowance(owner, spender) + addedValue) */\n      tag_109\n        /* \"@klaytn/contracts/contracts/KIP/token/KIP7/KIP7.sol\":6126:6131  owner */\n      dup2\n        /* \"@klaytn/contracts/contracts/KIP/token/KIP7/KIP7.sol\":6133:6140  spender */\n      dup6\n        /* \"@klaytn/contracts/contracts/KIP/token/KIP7/KIP7.sol\":6170:6180  addedValue */\n      dup6\n        /* \"@klaytn/contracts/contracts/KIP/token/KIP7/KIP7.sol\":6142:6167  allowance(owner, spender) */\n      tag_110\n        /* \"@klaytn/contracts/contracts/KIP/token/KIP7/KIP7.sol\":6152:6157  owner */\n      dup6\n        /* \"@klaytn/contracts/contracts/KIP/token/KIP7/KIP7.sol\":6159:6166  spender */\n      dup10\n        /* \"@klaytn/contracts/contracts/KIP/token/KIP7/KIP7.sol\":6142:6151  allowance */\n      tag_81\n        /* \"@klaytn/contracts/contracts/KIP/token/KIP7/KIP7.sol\":6142:6167  allowance(owner, spender) */\n      jump\t// in\n    tag_110:\n        /* \"@klaytn/contracts/contracts/KIP/token/KIP7/KIP7.sol\":6142:6180  allowance(owner, spender) + addedValue */\n      tag_111\n      swap2\n      swap1\n      tag_112\n      jump\t// in\n    tag_111:\n        /* \"@klaytn/contracts/contracts/KIP/token/KIP7/KIP7.sol\":6117:6125  _approve */\n      tag_98\n        /* \"@klaytn/contracts/contracts/KIP/token/KIP7/KIP7.sol\":6117:6181  _approve(owner, spender, allowance(owner, spender) + addedValue) */\n      jump\t// in\n    tag_109:\n        /* \"@klaytn/contracts/contracts/KIP/token/KIP7/KIP7.sol\":6198:6202  true */\n      0x01\n        /* \"@klaytn/contracts/contracts/KIP/token/KIP7/KIP7.sol\":6191:6202  return true */\n      swap2\n      pop\n      pop\n        /* \"@klaytn/contracts/contracts/KIP/token/KIP7/KIP7.sol\":5975:6209  function increaseAllowance(address spender, uint256 addedValue) public virtual returns (bool) {... */\n      swap3\n      swap2\n      pop\n      pop\n      jump\t// out\n        /* \"contracts/TestToken.sol\":260:352  function mint(address _user, uint256 _amount) public {... */\n    tag_51:\n        /* \"contracts/TestToken.sol\":324:344  _mint(_user,_amount) */\n      tag_114\n        /* \"contracts/TestToken.sol\":330:335  _user */\n      dup3\n        /* \"contracts/TestToken.sol\":336:343  _amount */\n      dup3\n        /* \"contracts/TestToken.sol\":324:329  _mint */\n      tag_115\n        /* \"contracts/TestToken.sol\":324:344  _mint(_user,_amount) */\n      jump\t// in\n    tag_114:\n        /* \"contracts/TestToken.sol\":260:352  function mint(address _user, uint256 _amount) public {... */\n      pop\n      pop\n      jump\t// out\n        /* \"@klaytn/contracts/contracts/KIP/token/KIP7/KIP7.sol\":7445:7623  function safeTransfer(address recipient, uint256 amount) public virtual override{... */\n    tag_54:\n        /* \"@klaytn/contracts/contracts/KIP/token/KIP7/KIP7.sol\":7535:7548  address owner */\n      0x00\n        /* \"@klaytn/contracts/contracts/KIP/token/KIP7/KIP7.sol\":7551:7563  _msgSender() */\n      tag_117\n        /* \"@klaytn/contracts/contracts/KIP/token/KIP7/KIP7.sol\":7551:7561  _msgSender */\n      tag_96\n        /* \"@klaytn/contracts/contracts/KIP/token/KIP7/KIP7.sol\":7551:7563  _msgSender() */\n      jump\t// in\n    tag_117:\n        /* \"@klaytn/contracts/contracts/KIP/token/KIP7/KIP7.sol\":7535:7563  address owner = _msgSender() */\n      swap1\n      pop\n        /* \"@klaytn/contracts/contracts/KIP/token/KIP7/KIP7.sol\":7573:7616  _safeTransfer(owner, recipient, amount, \"\") */\n      tag_118\n        /* \"@klaytn/contracts/contracts/KIP/token/KIP7/KIP7.sol\":7587:7592  owner */\n      dup2\n        /* \"@klaytn/contracts/contracts/KIP/token/KIP7/KIP7.sol\":7594:7603  recipient */\n      dup5\n        /* \"@klaytn/contracts/contracts/KIP/token/KIP7/KIP7.sol\":7605:7611  amount */\n      dup5\n        /* \"@klaytn/contracts/contracts/KIP/token/KIP7/KIP7.sol\":7573:7616  _safeTransfer(owner, recipient, amount, \"\") */\n      mload(0x40)\n      dup1\n      0x20\n      add\n      0x40\n      mstore\n      dup1\n      0x00\n      dup2\n      mstore\n      pop\n        /* \"@klaytn/contracts/contracts/KIP/token/KIP7/KIP7.sol\":7573:7586  _safeTransfer */\n      tag_119\n        /* \"@klaytn/contracts/contracts/KIP/token/KIP7/KIP7.sol\":7573:7616  _safeTransfer(owner, recipient, amount, \"\") */\n      jump\t// in\n    tag_118:\n        /* \"@klaytn/contracts/contracts/KIP/token/KIP7/KIP7.sol\":7525:7623  {... */\n      pop\n        /* \"@klaytn/contracts/contracts/KIP/token/KIP7/KIP7.sol\":7445:7623  function safeTransfer(address recipient, uint256 amount) public virtual override{... */\n      pop\n      pop\n      jump\t// out\n        /* \"@klaytn/contracts/contracts/KIP/token/KIP7/KIP7.sol\":8803:9086  function safeTransferFrom(... */\n    tag_57:\n        /* \"@klaytn/contracts/contracts/KIP/token/KIP7/KIP7.sol\":8945:8960  address spender */\n      0x00\n        /* \"@klaytn/contracts/contracts/KIP/token/KIP7/KIP7.sol\":8963:8975  _msgSender() */\n      tag_121\n        /* \"@klaytn/contracts/contracts/KIP/token/KIP7/KIP7.sol\":8963:8973  _msgSender */\n      tag_96\n        /* \"@klaytn/contracts/contracts/KIP/token/KIP7/KIP7.sol\":8963:8975  _msgSender() */\n      jump\t// in\n    tag_121:\n        /* \"@klaytn/contracts/contracts/KIP/token/KIP7/KIP7.sol\":8945:8975  address spender = _msgSender() */\n      swap1\n      pop\n        /* \"@klaytn/contracts/contracts/KIP/token/KIP7/KIP7.sol\":8985:9025  _spendAllowance(sender, spender, amount) */\n      tag_122\n        /* \"@klaytn/contracts/contracts/KIP/token/KIP7/KIP7.sol\":9001:9007  sender */\n      dup5\n        /* \"@klaytn/contracts/contracts/KIP/token/KIP7/KIP7.sol\":9009:9016  spender */\n      dup3\n        /* \"@klaytn/contracts/contracts/KIP/token/KIP7/KIP7.sol\":9018:9024  amount */\n      dup5\n        /* \"@klaytn/contracts/contracts/KIP/token/KIP7/KIP7.sol\":8985:9000  _spendAllowance */\n      tag_103\n        /* \"@klaytn/contracts/contracts/KIP/token/KIP7/KIP7.sol\":8985:9025  _spendAllowance(sender, spender, amount) */\n      jump\t// in\n    tag_122:\n        /* \"@klaytn/contracts/contracts/KIP/token/KIP7/KIP7.sol\":9035:9079  _safeTransfer(sender, recipient, amount, \"\") */\n      tag_123\n        /* \"@klaytn/contracts/contracts/KIP/token/KIP7/KIP7.sol\":9049:9055  sender */\n      dup5\n        /* \"@klaytn/contracts/contracts/KIP/token/KIP7/KIP7.sol\":9057:9066  recipient */\n      dup5\n        /* \"@klaytn/contracts/contracts/KIP/token/KIP7/KIP7.sol\":9068:9074  amount */\n      dup5\n        /* \"@klaytn/contracts/contracts/KIP/token/KIP7/KIP7.sol\":9035:9079  _safeTransfer(sender, recipient, amount, \"\") */\n      mload(0x40)\n      dup1\n      0x20\n      add\n      0x40\n      mstore\n      dup1\n      0x00\n      dup2\n      mstore\n      pop\n        /* \"@klaytn/contracts/contracts/KIP/token/KIP7/KIP7.sol\":9035:9048  _safeTransfer */\n      tag_119\n        /* \"@klaytn/contracts/contracts/KIP/token/KIP7/KIP7.sol\":9035:9079  _safeTransfer(sender, recipient, amount, \"\") */\n      jump\t// in\n    tag_123:\n        /* \"@klaytn/contracts/contracts/KIP/token/KIP7/KIP7.sol\":8935:9086  {... */\n      pop\n        /* \"@klaytn/contracts/contracts/KIP/token/KIP7/KIP7.sol\":8803:9086  function safeTransferFrom(... */\n      pop\n      pop\n      pop\n      jump\t// out\n        /* \"@klaytn/contracts/contracts/KIP/token/KIP7/KIP7.sol\":3516:3641  function balanceOf(address account) public view virtual override returns (uint256) {... */\n    tag_61:\n        /* \"@klaytn/contracts/contracts/KIP/token/KIP7/KIP7.sol\":3590:3597  uint256 */\n      0x00\n        /* \"@klaytn/contracts/contracts/KIP/token/KIP7/KIP7.sol\":3616:3625  _balances */\n      dup1\n        /* \"@klaytn/contracts/contracts/KIP/token/KIP7/KIP7.sol\":3616:3634  _balances[account] */\n      0x00\n        /* \"@klaytn/contracts/contracts/KIP/token/KIP7/KIP7.sol\":3626:3633  account */\n      dup4\n        /* \"@klaytn/contracts/contracts/KIP/token/KIP7/KIP7.sol\":3616:3634  _balances[account] */\n      0xffffffffffffffffffffffffffffffffffffffff\n      and\n      0xffffffffffffffffffffffffffffffffffffffff\n      and\n      dup2\n      mstore\n      0x20\n      add\n      swap1\n      dup2\n      mstore\n      0x20\n      add\n      0x00\n      keccak256\n      sload\n        /* \"@klaytn/contracts/contracts/KIP/token/KIP7/KIP7.sol\":3609:3634  return _balances[account] */\n      swap1\n      pop\n        /* \"@klaytn/contracts/contracts/KIP/token/KIP7/KIP7.sol\":3516:3641  function balanceOf(address account) public view virtual override returns (uint256) {... */\n      swap2\n      swap1\n      pop\n      jump\t// out\n        /* \"@klaytn/contracts/contracts/KIP/token/KIP7/KIP7.sol\":2480:2582  function symbol() public view virtual override returns (string memory) {... */\n    tag_64:\n        /* \"@klaytn/contracts/contracts/KIP/token/KIP7/KIP7.sol\":2536:2549  string memory */\n      0x60\n        /* \"@klaytn/contracts/contracts/KIP/token/KIP7/KIP7.sol\":2568:2575  _symbol */\n      0x04\n        /* \"@klaytn/contracts/contracts/KIP/token/KIP7/KIP7.sol\":2561:2575  return _symbol */\n      dup1\n      sload\n      tag_126\n      swap1\n      tag_89\n      jump\t// in\n    tag_126:\n      dup1\n      0x1f\n      add\n      0x20\n      dup1\n      swap2\n      div\n      mul\n      0x20\n      add\n      mload(0x40)\n      swap1\n      dup2\n      add\n      0x40\n      mstore\n      dup1\n      swap3\n      swap2\n      swap1\n      dup2\n      dup2\n      mstore\n      0x20\n      add\n      dup3\n      dup1\n      sload\n      tag_127\n      swap1\n      tag_89\n      jump\t// in\n    tag_127:\n      dup1\n      iszero\n      tag_128\n      jumpi\n      dup1\n      0x1f\n      lt\n      tag_129\n      jumpi\n      0x0100\n      dup1\n      dup4\n      sload\n      div\n      mul\n      dup4\n      mstore\n      swap2\n      0x20\n      add\n      swap2\n      jump(tag_128)\n    tag_129:\n      dup3\n      add\n      swap2\n      swap1\n      0x00\n      mstore\n      keccak256(0x00, 0x20)\n      swap1\n    tag_130:\n      dup2\n      sload\n      dup2\n      mstore\n      swap1\n      0x01\n      add\n      swap1\n      0x20\n      add\n      dup1\n      dup4\n      gt\n      tag_130\n      jumpi\n      dup3\n      swap1\n      sub\n      0x1f\n      and\n      dup3\n      add\n      swap2\n    tag_128:\n      pop\n      pop\n      pop\n      pop\n      pop\n      swap1\n      pop\n        /* \"@klaytn/contracts/contracts/KIP/token/KIP7/KIP7.sol\":2480:2582  function symbol() public view virtual override returns (string memory) {... */\n      swap1\n      jump\t// out\n        /* \"@klaytn/contracts/contracts/KIP/token/KIP7/KIP7.sol\":6695:7121  function decreaseAllowance(address spender, uint256 subtractedValue) public virtual returns (bool) {... */\n    tag_68:\n        /* \"@klaytn/contracts/contracts/KIP/token/KIP7/KIP7.sol\":6788:6792  bool */\n      0x00\n        /* \"@klaytn/contracts/contracts/KIP/token/KIP7/KIP7.sol\":6804:6817  address owner */\n      dup1\n        /* \"@klaytn/contracts/contracts/KIP/token/KIP7/KIP7.sol\":6820:6832  _msgSender() */\n      tag_132\n        /* \"@klaytn/contracts/contracts/KIP/token/KIP7/KIP7.sol\":6820:6830  _msgSender */\n      tag_96\n        /* \"@klaytn/contracts/contracts/KIP/token/KIP7/KIP7.sol\":6820:6832  _msgSender() */\n      jump\t// in\n    tag_132:\n        /* \"@klaytn/contracts/contracts/KIP/token/KIP7/KIP7.sol\":6804:6832  address owner = _msgSender() */\n      swap1\n      pop\n        /* \"@klaytn/contracts/contracts/KIP/token/KIP7/KIP7.sol\":6842:6866  uint256 currentAllowance */\n      0x00\n        /* \"@klaytn/contracts/contracts/KIP/token/KIP7/KIP7.sol\":6869:6894  allowance(owner, spender) */\n      tag_133\n        /* \"@klaytn/contracts/contracts/KIP/token/KIP7/KIP7.sol\":6879:6884  owner */\n      dup3\n        /* \"@klaytn/contracts/contracts/KIP/token/KIP7/KIP7.sol\":6886:6893  spender */\n      dup7\n        /* \"@klaytn/contracts/contracts/KIP/token/KIP7/KIP7.sol\":6869:6878  allowance */\n      tag_81\n        /* \"@klaytn/contracts/contracts/KIP/token/KIP7/KIP7.sol\":6869:6894  allowance(owner, spender) */\n      jump\t// in\n    tag_133:\n        /* \"@klaytn/contracts/contracts/KIP/token/KIP7/KIP7.sol\":6842:6894  uint256 currentAllowance = allowance(owner, spender) */\n      swap1\n      pop\n        /* \"@klaytn/contracts/contracts/KIP/token/KIP7/KIP7.sol\":6932:6947  subtractedValue */\n      dup4\n        /* \"@klaytn/contracts/contracts/KIP/token/KIP7/KIP7.sol\":6912:6928  currentAllowance */\n      dup2\n        /* \"@klaytn/contracts/contracts/KIP/token/KIP7/KIP7.sol\":6912:6947  currentAllowance >= subtractedValue */\n      lt\n      iszero\n        /* \"@klaytn/contracts/contracts/KIP/token/KIP7/KIP7.sol\":6904:6988  require(currentAllowance >= subtractedValue, \"KIP7: decreased allowance below zero\") */\n      tag_134\n      jumpi\n      mload(0x40)\n      0x08c379a000000000000000000000000000000000000000000000000000000000\n      dup2\n      mstore\n      0x04\n      add\n      tag_135\n      swap1\n      tag_136\n      jump\t// in\n    tag_135:\n      mload(0x40)\n      dup1\n      swap2\n      sub\n      swap1\n      revert\n    tag_134:\n        /* \"@klaytn/contracts/contracts/KIP/token/KIP7/KIP7.sol\":7022:7082  _approve(owner, spender, currentAllowance - subtractedValue) */\n      tag_137\n        /* \"@klaytn/contracts/contracts/KIP/token/KIP7/KIP7.sol\":7031:7036  owner */\n      dup3\n        /* \"@klaytn/contracts/contracts/KIP/token/KIP7/KIP7.sol\":7038:7045  spender */\n      dup7\n        /* \"@klaytn/contracts/contracts/KIP/token/KIP7/KIP7.sol\":7066:7081  subtractedValue */\n      dup7\n        /* \"@klaytn/contracts/contracts/KIP/token/KIP7/KIP7.sol\":7047:7063  currentAllowance */\n      dup5\n        /* \"@klaytn/contracts/contracts/KIP/token/KIP7/KIP7.sol\":7047:7081  currentAllowance - subtractedValue */\n      sub\n        /* \"@klaytn/contracts/contracts/KIP/token/KIP7/KIP7.sol\":7022:7030  _approve */\n      tag_98\n        /* \"@klaytn/contracts/contracts/KIP/token/KIP7/KIP7.sol\":7022:7082  _approve(owner, spender, currentAllowance - subtractedValue) */\n      jump\t// in\n    tag_137:\n        /* \"@klaytn/contracts/contracts/KIP/token/KIP7/KIP7.sol\":7110:7114  true */\n      0x01\n        /* \"@klaytn/contracts/contracts/KIP/token/KIP7/KIP7.sol\":7103:7114  return true */\n      swap3\n      pop\n      pop\n      pop\n        /* \"@klaytn/contracts/contracts/KIP/token/KIP7/KIP7.sol\":6695:7121  function decreaseAllowance(address spender, uint256 subtractedValue) public virtual returns (bool) {... */\n      swap3\n      swap2\n      pop\n      pop\n      jump\t// out\n        /* \"@klaytn/contracts/contracts/KIP/token/KIP7/KIP7.sol\":3836:4025  function transfer(address to, uint256 amount) public virtual override returns (bool) {... */\n    tag_72:\n        /* \"@klaytn/contracts/contracts/KIP/token/KIP7/KIP7.sol\":3915:3919  bool */\n      0x00\n        /* \"@klaytn/contracts/contracts/KIP/token/KIP7/KIP7.sol\":3931:3944  address owner */\n      dup1\n        /* \"@klaytn/contracts/contracts/KIP/token/KIP7/KIP7.sol\":3947:3959  _msgSender() */\n      tag_139\n        /* \"@klaytn/contracts/contracts/KIP/token/KIP7/KIP7.sol\":3947:3957  _msgSender */\n      tag_96\n        /* \"@klaytn/contracts/contracts/KIP/token/KIP7/KIP7.sol\":3947:3959  _msgSender() */\n      jump\t// in\n    tag_139:\n        /* \"@klaytn/contracts/contracts/KIP/token/KIP7/KIP7.sol\":3931:3959  address owner = _msgSender() */\n      swap1\n      pop\n        /* \"@klaytn/contracts/contracts/KIP/token/KIP7/KIP7.sol\":3969:3997  _transfer(owner, to, amount) */\n      tag_140\n        /* \"@klaytn/contracts/contracts/KIP/token/KIP7/KIP7.sol\":3979:3984  owner */\n      dup2\n        /* \"@klaytn/contracts/contracts/KIP/token/KIP7/KIP7.sol\":3986:3988  to */\n      dup6\n        /* \"@klaytn/contracts/contracts/KIP/token/KIP7/KIP7.sol\":3990:3996  amount */\n      dup6\n        /* \"@klaytn/contracts/contracts/KIP/token/KIP7/KIP7.sol\":3969:3978  _transfer */\n      tag_105\n        /* \"@klaytn/contracts/contracts/KIP/token/KIP7/KIP7.sol\":3969:3997  _transfer(owner, to, amount) */\n      jump\t// in\n    tag_140:\n        /* \"@klaytn/contracts/contracts/KIP/token/KIP7/KIP7.sol\":4014:4018  true */\n      0x01\n        /* \"@klaytn/contracts/contracts/KIP/token/KIP7/KIP7.sol\":4007:4018  return true */\n      swap2\n      pop\n      pop\n        /* \"@klaytn/contracts/contracts/KIP/token/KIP7/KIP7.sol\":3836:4025  function transfer(address to, uint256 amount) public virtual override returns (bool) {... */\n      swap3\n      swap2\n      pop\n      pop\n      jump\t// out\n        /* \"@klaytn/contracts/contracts/KIP/token/KIP7/KIP7.sol\":9429:9741  function safeTransferFrom(... */\n    tag_77:\n        /* \"@klaytn/contracts/contracts/KIP/token/KIP7/KIP7.sol\":9597:9612  address spender */\n      0x00\n        /* \"@klaytn/contracts/contracts/KIP/token/KIP7/KIP7.sol\":9615:9627  _msgSender() */\n      tag_142\n        /* \"@klaytn/contracts/contracts/KIP/token/KIP7/KIP7.sol\":9615:9625  _msgSender */\n      tag_96\n        /* \"@klaytn/contracts/contracts/KIP/token/KIP7/KIP7.sol\":9615:9627  _msgSender() */\n      jump\t// in\n    tag_142:\n        /* \"@klaytn/contracts/contracts/KIP/token/KIP7/KIP7.sol\":9597:9627  address spender = _msgSender() */\n      swap1\n      pop\n        /* \"@klaytn/contracts/contracts/KIP/token/KIP7/KIP7.sol\":9637:9677  _spendAllowance(sender, spender, amount) */\n      tag_143\n        /* \"@klaytn/contracts/contracts/KIP/token/KIP7/KIP7.sol\":9653:9659  sender */\n      dup6\n        /* \"@klaytn/contracts/contracts/KIP/token/KIP7/KIP7.sol\":9661:9668  spender */\n      dup3\n        /* \"@klaytn/contracts/contracts/KIP/token/KIP7/KIP7.sol\":9670:9676  amount */\n      dup6\n        /* \"@klaytn/contracts/contracts/KIP/token/KIP7/KIP7.sol\":9637:9652  _spendAllowance */\n      tag_103\n        /* \"@klaytn/contracts/contracts/KIP/token/KIP7/KIP7.sol\":9637:9677  _spendAllowance(sender, spender, amount) */\n      jump\t// in\n    tag_143:\n        /* \"@klaytn/contracts/contracts/KIP/token/KIP7/KIP7.sol\":9687:9734  _safeTransfer(sender, recipient, amount, _data) */\n      tag_144\n        /* \"@klaytn/contracts/contracts/KIP/token/KIP7/KIP7.sol\":9701:9707  sender */\n      dup6\n        /* \"@klaytn/contracts/contracts/KIP/token/KIP7/KIP7.sol\":9709:9718  recipient */\n      dup6\n        /* \"@klaytn/contracts/contracts/KIP/token/KIP7/KIP7.sol\":9720:9726  amount */\n      dup6\n        /* \"@klaytn/contracts/contracts/KIP/token/KIP7/KIP7.sol\":9728:9733  _data */\n      dup6\n        /* \"@klaytn/contracts/contracts/KIP/token/KIP7/KIP7.sol\":9687:9700  _safeTransfer */\n      tag_119\n        /* \"@klaytn/contracts/contracts/KIP/token/KIP7/KIP7.sol\":9687:9734  _safeTransfer(sender, recipient, amount, _data) */\n      jump\t// in\n    tag_144:\n        /* \"@klaytn/contracts/contracts/KIP/token/KIP7/KIP7.sol\":9587:9741  {... */\n      pop\n        /* \"@klaytn/contracts/contracts/KIP/token/KIP7/KIP7.sol\":9429:9741  function safeTransferFrom(... */\n      pop\n      pop\n      pop\n      pop\n      jump\t// out\n        /* \"@klaytn/contracts/contracts/KIP/token/KIP7/KIP7.sol\":4082:4231  function allowance(address owner, address spender) public view virtual override returns (uint256) {... */\n    tag_81:\n        /* \"@klaytn/contracts/contracts/KIP/token/KIP7/KIP7.sol\":4171:4178  uint256 */\n      0x00\n        /* \"@klaytn/contracts/contracts/KIP/token/KIP7/KIP7.sol\":4197:4208  _allowances */\n      0x01\n        /* \"@klaytn/contracts/contracts/KIP/token/KIP7/KIP7.sol\":4197:4215  _allowances[owner] */\n      0x00\n        /* \"@klaytn/contracts/contracts/KIP/token/KIP7/KIP7.sol\":4209:4214  owner */\n      dup5\n        /* \"@klaytn/contracts/contracts/KIP/token/KIP7/KIP7.sol\":4197:4215  _allowances[owner] */\n      0xffffffffffffffffffffffffffffffffffffffff\n      and\n      0xffffffffffffffffffffffffffffffffffffffff\n      and\n      dup2\n      mstore\n      0x20\n      add\n      swap1\n      dup2\n      mstore\n      0x20\n      add\n      0x00\n      keccak256\n        /* \"@klaytn/contracts/contracts/KIP/token/KIP7/KIP7.sol\":4197:4224  _allowances[owner][spender] */\n      0x00\n        /* \"@klaytn/contracts/contracts/KIP/token/KIP7/KIP7.sol\":4216:4223  spender */\n      dup4\n        /* \"@klaytn/contracts/contracts/KIP/token/KIP7/KIP7.sol\":4197:4224  _allowances[owner][spender] */\n      0xffffffffffffffffffffffffffffffffffffffff\n      and\n      0xffffffffffffffffffffffffffffffffffffffff\n      and\n      dup2\n      mstore\n      0x20\n      add\n      swap1\n      dup2\n      mstore\n      0x20\n      add\n      0x00\n      keccak256\n      sload\n        /* \"@klaytn/contracts/contracts/KIP/token/KIP7/KIP7.sol\":4190:4224  return _allowances[owner][spender] */\n      swap1\n      pop\n        /* \"@klaytn/contracts/contracts/KIP/token/KIP7/KIP7.sol\":4082:4231  function allowance(address owner, address spender) public view virtual override returns (uint256) {... */\n      swap3\n      swap2\n      pop\n      pop\n      jump\t// out\n        /* \"@klaytn/contracts/contracts/KIP/token/KIP7/KIP7.sol\":7884:8115  function safeTransfer(... */\n    tag_86:\n        /* \"@klaytn/contracts/contracts/KIP/token/KIP7/KIP7.sol\":8024:8037  address owner */\n      0x00\n        /* \"@klaytn/contracts/contracts/KIP/token/KIP7/KIP7.sol\":8040:8052  _msgSender() */\n      tag_147\n        /* \"@klaytn/contracts/contracts/KIP/token/KIP7/KIP7.sol\":8040:8050  _msgSender */\n      tag_96\n        /* \"@klaytn/contracts/contracts/KIP/token/KIP7/KIP7.sol\":8040:8052  _msgSender() */\n      jump\t// in\n    tag_147:\n        /* \"@klaytn/contracts/contracts/KIP/token/KIP7/KIP7.sol\":8024:8052  address owner = _msgSender() */\n      swap1\n      pop\n        /* \"@klaytn/contracts/contracts/KIP/token/KIP7/KIP7.sol\":8062:8108  _safeTransfer(owner, recipient, amount, _data) */\n      tag_148\n        /* \"@klaytn/contracts/contracts/KIP/token/KIP7/KIP7.sol\":8076:8081  owner */\n      dup2\n        /* \"@klaytn/contracts/contracts/KIP/token/KIP7/KIP7.sol\":8083:8092  recipient */\n      dup6\n        /* \"@klaytn/contracts/contracts/KIP/token/KIP7/KIP7.sol\":8094:8100  amount */\n      dup6\n        /* \"@klaytn/contracts/contracts/KIP/token/KIP7/KIP7.sol\":8102:8107  _data */\n      dup6\n        /* \"@klaytn/contracts/contracts/KIP/token/KIP7/KIP7.sol\":8062:8075  _safeTransfer */\n      tag_119\n        /* \"@klaytn/contracts/contracts/KIP/token/KIP7/KIP7.sol\":8062:8108  _safeTransfer(owner, recipient, amount, _data) */\n      jump\t// in\n    tag_148:\n        /* \"@klaytn/contracts/contracts/KIP/token/KIP7/KIP7.sol\":8014:8115  {... */\n      pop\n        /* \"@klaytn/contracts/contracts/KIP/token/KIP7/KIP7.sol\":7884:8115  function safeTransfer(... */\n      pop\n      pop\n      pop\n      jump\t// out\n        /* \"@klaytn/contracts/contracts/utils/Context.sol\":640:736  function _msgSender() internal view virtual returns (address) {... */\n    tag_96:\n        /* \"@klaytn/contracts/contracts/utils/Context.sol\":693:700  address */\n      0x00\n        /* \"@klaytn/contracts/contracts/utils/Context.sol\":719:729  msg.sender */\n      caller\n        /* \"@klaytn/contracts/contracts/utils/Context.sol\":712:729  return msg.sender */\n      swap1\n      pop\n        /* \"@klaytn/contracts/contracts/utils/Context.sol\":640:736  function _msgSender() internal view virtual returns (address) {... */\n      swap1\n      jump\t// out\n        /* \"@klaytn/contracts/contracts/KIP/token/KIP7/KIP7.sol\":16315:16683  function _approve(... */\n    tag_98:\n        /* \"@klaytn/contracts/contracts/KIP/token/KIP7/KIP7.sol\":16463:16464  0 */\n      0x00\n        /* \"@klaytn/contracts/contracts/KIP/token/KIP7/KIP7.sol\":16446:16465  owner != address(0) */\n      0xffffffffffffffffffffffffffffffffffffffff\n      and\n        /* \"@klaytn/contracts/contracts/KIP/token/KIP7/KIP7.sol\":16446:16451  owner */\n      dup4\n        /* \"@klaytn/contracts/contracts/KIP/token/KIP7/KIP7.sol\":16446:16465  owner != address(0) */\n      0xffffffffffffffffffffffffffffffffffffffff\n      and\n      sub\n        /* \"@klaytn/contracts/contracts/KIP/token/KIP7/KIP7.sol\":16438:16505  require(owner != address(0), \"KIP7: approve from the zero address\") */\n      tag_151\n      jumpi\n      mload(0x40)\n      0x08c379a000000000000000000000000000000000000000000000000000000000\n      dup2\n      mstore\n      0x04\n      add\n      tag_152\n      swap1\n      tag_153\n      jump\t// in\n    tag_152:\n      mload(0x40)\n      dup1\n      swap2\n      sub\n      swap1\n      revert\n    tag_151:\n        /* \"@klaytn/contracts/contracts/KIP/token/KIP7/KIP7.sol\":16542:16543  0 */\n      0x00\n        /* \"@klaytn/contracts/contracts/KIP/token/KIP7/KIP7.sol\":16523:16544  spender != address(0) */\n      0xffffffffffffffffffffffffffffffffffffffff\n      and\n        /* \"@klaytn/contracts/contracts/KIP/token/KIP7/KIP7.sol\":16523:16530  spender */\n      dup3\n        /* \"@klaytn/contracts/contracts/KIP/token/KIP7/KIP7.sol\":16523:16544  spender != address(0) */\n      0xffffffffffffffffffffffffffffffffffffffff\n      and\n      sub\n        /* \"@klaytn/contracts/contracts/KIP/token/KIP7/KIP7.sol\":16515:16582  require(spender != address(0), \"KIP7: approve to the zero address\") */\n      tag_154\n      jumpi\n      mload(0x40)\n      0x08c379a000000000000000000000000000000000000000000000000000000000\n      dup2\n      mstore\n      0x04\n      add\n      tag_155\n      swap1\n      tag_156\n      jump\t// in\n    tag_155:\n      mload(0x40)\n      dup1\n      swap2\n      sub\n      swap1\n      revert\n    tag_154:\n        /* \"@klaytn/contracts/contracts/KIP/token/KIP7/KIP7.sol\":16623:16629  amount */\n      dup1\n        /* \"@klaytn/contracts/contracts/KIP/token/KIP7/KIP7.sol\":16593:16604  _allowances */\n      0x01\n        /* \"@klaytn/contracts/contracts/KIP/token/KIP7/KIP7.sol\":16593:16611  _allowances[owner] */\n      0x00\n        /* \"@klaytn/contracts/contracts/KIP/token/KIP7/KIP7.sol\":16605:16610  owner */\n      dup6\n        /* \"@klaytn/contracts/contracts/KIP/token/KIP7/KIP7.sol\":16593:16611  _allowances[owner] */\n      0xffffffffffffffffffffffffffffffffffffffff\n      and\n      0xffffffffffffffffffffffffffffffffffffffff\n      and\n      dup2\n      mstore\n      0x20\n      add\n      swap1\n      dup2\n      mstore\n      0x20\n      add\n      0x00\n      keccak256\n        /* \"@klaytn/contracts/contracts/KIP/token/KIP7/KIP7.sol\":16593:16620  _allowances[owner][spender] */\n      0x00\n        /* \"@klaytn/contracts/contracts/KIP/token/KIP7/KIP7.sol\":16612:16619  spender */\n      dup5\n        /* \"@klaytn/contracts/contracts/KIP/token/KIP7/KIP7.sol\":16593:16620  _allowances[owner][spender] */\n      0xffffffffffffffffffffffffffffffffffffffff\n      and\n      0xffffffffffffffffffffffffffffffffffffffff\n      and\n      dup2\n      mstore\n      0x20\n      add\n      swap1\n      dup2\n      mstore\n      0x20\n      add\n      0x00\n      keccak256\n        /* \"@klaytn/contracts/contracts/KIP/token/KIP7/KIP7.sol\":16593:16629  _allowances[owner][spender] = amount */\n      dup2\n      swap1\n      sstore\n      pop\n        /* \"@klaytn/contracts/contracts/KIP/token/KIP7/KIP7.sol\":16660:16667  spender */\n      dup2\n        /* \"@klaytn/contracts/contracts/KIP/token/KIP7/KIP7.sol\":16644:16676  Approval(owner, spender, amount) */\n      0xffffffffffffffffffffffffffffffffffffffff\n      and\n        /* \"@klaytn/contracts/contracts/KIP/token/KIP7/KIP7.sol\":16653:16658  owner */\n      dup4\n        /* \"@klaytn/contracts/contracts/KIP/token/KIP7/KIP7.sol\":16644:16676  Approval(owner, spender, amount) */\n      0xffffffffffffffffffffffffffffffffffffffff\n      and\n      0x8c5be1e5ebec7d5bd14f71427d1e84f3dd0314c0f7b2291e5b200ac8c7c3b925\n        /* \"@klaytn/contracts/contracts/KIP/token/KIP7/KIP7.sol\":16669:16675  amount */\n      dup4\n        /* \"@klaytn/contracts/contracts/KIP/token/KIP7/KIP7.sol\":16644:16676  Approval(owner, spender, amount) */\n      mload(0x40)\n      tag_157\n      swap2\n      swap1\n      tag_35\n      jump\t// in\n    tag_157:\n      mload(0x40)\n      dup1\n      swap2\n      sub\n      swap1\n      log3\n        /* \"@klaytn/contracts/contracts/KIP/token/KIP7/KIP7.sol\":16315:16683  function _approve(... */\n      pop\n      pop\n      pop\n      jump\t// out\n        /* \"@klaytn/contracts/contracts/KIP/token/KIP7/KIP7.sol\":16964:17404  function _spendAllowance(... */\n    tag_103:\n        /* \"@klaytn/contracts/contracts/KIP/token/KIP7/KIP7.sol\":17094:17118  uint256 currentAllowance */\n      0x00\n        /* \"@klaytn/contracts/contracts/KIP/token/KIP7/KIP7.sol\":17121:17146  allowance(owner, spender) */\n      tag_159\n        /* \"@klaytn/contracts/contracts/KIP/token/KIP7/KIP7.sol\":17131:17136  owner */\n      dup5\n        /* \"@klaytn/contracts/contracts/KIP/token/KIP7/KIP7.sol\":17138:17145  spender */\n      dup5\n        /* \"@klaytn/contracts/contracts/KIP/token/KIP7/KIP7.sol\":17121:17130  allowance */\n      tag_81\n        /* \"@klaytn/contracts/contracts/KIP/token/KIP7/KIP7.sol\":17121:17146  allowance(owner, spender) */\n      jump\t// in\n    tag_159:\n        /* \"@klaytn/contracts/contracts/KIP/token/KIP7/KIP7.sol\":17094:17146  uint256 currentAllowance = allowance(owner, spender) */\n      swap1\n      pop\n        /* \"@klaytn/contracts/contracts/KIP/token/KIP7/KIP7.sol\":17180:17197  type(uint256).max */\n      0xffffffffffffffffffffffffffffffffffffffffffffffffffffffffffffffff\n        /* \"@klaytn/contracts/contracts/KIP/token/KIP7/KIP7.sol\":17160:17176  currentAllowance */\n      dup2\n        /* \"@klaytn/contracts/contracts/KIP/token/KIP7/KIP7.sol\":17160:17197  currentAllowance != type(uint256).max */\n      eq\n        /* \"@klaytn/contracts/contracts/KIP/token/KIP7/KIP7.sol\":17156:17398  if (currentAllowance != type(uint256).max) {... */\n      tag_160\n      jumpi\n        /* \"@klaytn/contracts/contracts/KIP/token/KIP7/KIP7.sol\":17241:17247  amount */\n      dup2\n        /* \"@klaytn/contracts/contracts/KIP/token/KIP7/KIP7.sol\":17221:17237  currentAllowance */\n      dup2\n        /* \"@klaytn/contracts/contracts/KIP/token/KIP7/KIP7.sol\":17221:17247  currentAllowance >= amount */\n      lt\n      iszero\n        /* \"@klaytn/contracts/contracts/KIP/token/KIP7/KIP7.sol\":17213:17280  require(currentAllowance >= amount, \"KIP7: insufficient allowance\") */\n      tag_161\n      jumpi\n      mload(0x40)\n      0x08c379a000000000000000000000000000000000000000000000000000000000\n      dup2\n      mstore\n      0x04\n      add\n      tag_162\n      swap1\n      tag_163\n      jump\t// in\n    tag_162:\n      mload(0x40)\n      dup1\n      swap2\n      sub\n      swap1\n      revert\n    tag_161:\n        /* \"@klaytn/contracts/contracts/KIP/token/KIP7/KIP7.sol\":17322:17373  _approve(owner, spender, currentAllowance - amount) */\n      tag_164\n        /* \"@klaytn/contracts/contracts/KIP/token/KIP7/KIP7.sol\":17331:17336  owner */\n      dup5\n        /* \"@klaytn/contracts/contracts/KIP/token/KIP7/KIP7.sol\":17338:17345  spender */\n      dup5\n        /* \"@klaytn/contracts/contracts/KIP/token/KIP7/KIP7.sol\":17366:17372  amount */\n      dup5\n        /* \"@klaytn/contracts/contracts/KIP/token/KIP7/KIP7.sol\":17347:17363  currentAllowance */\n      dup5\n        /* \"@klaytn/contracts/contracts/KIP/token/KIP7/KIP7.sol\":17347:17372  currentAllowance - amount */\n      sub\n        /* \"@klaytn/contracts/contracts/KIP/token/KIP7/KIP7.sol\":17322:17330  _approve */\n      tag_98\n        /* \"@klaytn/contracts/contracts/KIP/token/KIP7/KIP7.sol\":17322:17373  _approve(owner, spender, currentAllowance - amount) */\n      jump\t// in\n    tag_164:\n        /* \"@klaytn/contracts/contracts/KIP/token/KIP7/KIP7.sol\":17156:17398  if (currentAllowance != type(uint256).max) {... */\n    tag_160:\n        /* \"@klaytn/contracts/contracts/KIP/token/KIP7/KIP7.sol\":17084:17404  {... */\n      pop\n        /* \"@klaytn/contracts/contracts/KIP/token/KIP7/KIP7.sol\":16964:17404  function _spendAllowance(... */\n      pop\n      pop\n      pop\n      jump\t// out\n        /* \"@klaytn/contracts/contracts/KIP/token/KIP7/KIP7.sol\":11287:11935  function _transfer(... */\n    tag_105:\n        /* \"@klaytn/contracts/contracts/KIP/token/KIP7/KIP7.sol\":11429:11430  0 */\n      0x00\n        /* \"@klaytn/contracts/contracts/KIP/token/KIP7/KIP7.sol\":11413:11431  from != address(0) */\n      0xffffffffffffffffffffffffffffffffffffffff\n      and\n        /* \"@klaytn/contracts/contracts/KIP/token/KIP7/KIP7.sol\":11413:11417  from */\n      dup4\n        /* \"@klaytn/contracts/contracts/KIP/token/KIP7/KIP7.sol\":11413:11431  from != address(0) */\n      0xffffffffffffffffffffffffffffffffffffffff\n      and\n      sub\n        /* \"@klaytn/contracts/contracts/KIP/token/KIP7/KIP7.sol\":11405:11472  require(from != address(0), \"KIP7: transfer from the zero address\") */\n      tag_166\n      jumpi\n      mload(0x40)\n      0x08c379a000000000000000000000000000000000000000000000000000000000\n      dup2\n      mstore\n      0x04\n      add\n      tag_167\n      swap1\n      tag_168\n      jump\t// in\n    tag_167:\n      mload(0x40)\n      dup1\n      swap2\n      sub\n      swap1\n      revert\n    tag_166:\n        /* \"@klaytn/contracts/contracts/KIP/token/KIP7/KIP7.sol\":11504:11505  0 */\n      0x00\n        /* \"@klaytn/contracts/contracts/KIP/token/KIP7/KIP7.sol\":11490:11506  to != address(0) */\n      0xffffffffffffffffffffffffffffffffffffffff\n      and\n        /* \"@klaytn/contracts/contracts/KIP/token/KIP7/KIP7.sol\":11490:11492  to */\n      dup3\n        /* \"@klaytn/contracts/contracts/KIP/token/KIP7/KIP7.sol\":11490:11506  to != address(0) */\n      0xffffffffffffffffffffffffffffffffffffffff\n      and\n      sub\n        /* \"@klaytn/contracts/contracts/KIP/token/KIP7/KIP7.sol\":11482:11545  require(to != address(0), \"KIP7: transfer to the zero address\") */\n      tag_169\n      jumpi\n      mload(0x40)\n      0x08c379a000000000000000000000000000000000000000000000000000000000\n      dup2\n      mstore\n      0x04\n      add\n      tag_170\n      swap1\n      tag_171\n      jump\t// in\n    tag_170:\n      mload(0x40)\n      dup1\n      swap2\n      sub\n      swap1\n      revert\n    tag_169:\n        /* \"@klaytn/contracts/contracts/KIP/token/KIP7/KIP7.sol\":11556:11594  _beforeTokenTransfer(from, to, amount) */\n      tag_172\n        /* \"@klaytn/contracts/contracts/KIP/token/KIP7/KIP7.sol\":11577:11581  from */\n      dup4\n        /* \"@klaytn/contracts/contracts/KIP/token/KIP7/KIP7.sol\":11583:11585  to */\n      dup4\n        /* \"@klaytn/contracts/contracts/KIP/token/KIP7/KIP7.sol\":11587:11593  amount */\n      dup4\n        /* \"@klaytn/contracts/contracts/KIP/token/KIP7/KIP7.sol\":11556:11576  _beforeTokenTransfer */\n      tag_173\n        /* \"@klaytn/contracts/contracts/KIP/token/KIP7/KIP7.sol\":11556:11594  _beforeTokenTransfer(from, to, amount) */\n      jump\t// in\n    tag_172:\n        /* \"@klaytn/contracts/contracts/KIP/token/KIP7/KIP7.sol\":11605:11624  uint256 fromBalance */\n      0x00\n        /* \"@klaytn/contracts/contracts/KIP/token/KIP7/KIP7.sol\":11627:11636  _balances */\n      dup1\n        /* \"@klaytn/contracts/contracts/KIP/token/KIP7/KIP7.sol\":11627:11642  _balances[from] */\n      0x00\n        /* \"@klaytn/contracts/contracts/KIP/token/KIP7/KIP7.sol\":11637:11641  from */\n      dup6\n        /* \"@klaytn/contracts/contracts/KIP/token/KIP7/KIP7.sol\":11627:11642  _balances[from] */\n      0xffffffffffffffffffffffffffffffffffffffff\n      and\n      0xffffffffffffffffffffffffffffffffffffffff\n      and\n      dup2\n      mstore\n      0x20\n      add\n      swap1\n      dup2\n      mstore\n      0x20\n      add\n      0x00\n      keccak256\n      sload\n        /* \"@klaytn/contracts/contracts/KIP/token/KIP7/KIP7.sol\":11605:11642  uint256 fromBalance = _balances[from] */\n      swap1\n      pop\n        /* \"@klaytn/contracts/contracts/KIP/token/KIP7/KIP7.sol\":11675:11681  amount */\n      dup2\n        /* \"@klaytn/contracts/contracts/KIP/token/KIP7/KIP7.sol\":11660:11671  fromBalance */\n      dup2\n        /* \"@klaytn/contracts/contracts/KIP/token/KIP7/KIP7.sol\":11660:11681  fromBalance >= amount */\n      lt\n      iszero\n        /* \"@klaytn/contracts/contracts/KIP/token/KIP7/KIP7.sol\":11652:11723  require(fromBalance >= amount, \"KIP7: transfer amount exceeds balance\") */\n      tag_174\n      jumpi\n      mload(0x40)\n      0x08c379a000000000000000000000000000000000000000000000000000000000\n      dup2\n      mstore\n      0x04\n      add\n      tag_175\n      swap1\n      tag_176\n      jump\t// in\n    tag_175:\n      mload(0x40)\n      dup1\n      swap2\n      sub\n      swap1\n      revert\n    tag_174:\n        /* \"@klaytn/contracts/contracts/KIP/token/KIP7/KIP7.sol\":11789:11795  amount */\n      dup2\n        /* \"@klaytn/contracts/contracts/KIP/token/KIP7/KIP7.sol\":11775:11786  fromBalance */\n      dup2\n        /* \"@klaytn/contracts/contracts/KIP/token/KIP7/KIP7.sol\":11775:11795  fromBalance - amount */\n      sub\n        /* \"@klaytn/contracts/contracts/KIP/token/KIP7/KIP7.sol\":11757:11766  _balances */\n      0x00\n        /* \"@klaytn/contracts/contracts/KIP/token/KIP7/KIP7.sol\":11757:11772  _balances[from] */\n      dup1\n        /* \"@klaytn/contracts/contracts/KIP/token/KIP7/KIP7.sol\":11767:11771  from */\n      dup7\n        /* \"@klaytn/contracts/contracts/KIP/token/KIP7/KIP7.sol\":11757:11772  _balances[from] */\n      0xffffffffffffffffffffffffffffffffffffffff\n      and\n      0xffffffffffffffffffffffffffffffffffffffff\n      and\n      dup2\n      mstore\n      0x20\n      add\n      swap1\n      dup2\n      mstore\n      0x20\n      add\n      0x00\n      keccak256\n        /* \"@klaytn/contracts/contracts/KIP/token/KIP7/KIP7.sol\":11757:11795  _balances[from] = fromBalance - amount */\n      dup2\n      swap1\n      sstore\n      pop\n        /* \"@klaytn/contracts/contracts/KIP/token/KIP7/KIP7.sol\":11832:11838  amount */\n      dup2\n        /* \"@klaytn/contracts/contracts/KIP/token/KIP7/KIP7.sol\":11815:11824  _balances */\n      0x00\n        /* \"@klaytn/contracts/contracts/KIP/token/KIP7/KIP7.sol\":11815:11828  _balances[to] */\n      dup1\n        /* \"@klaytn/contracts/contracts/KIP/token/KIP7/KIP7.sol\":11825:11827  to */\n      dup6\n        /* \"@klaytn/contracts/contracts/KIP/token/KIP7/KIP7.sol\":11815:11828  _balances[to] */\n      0xffffffffffffffffffffffffffffffffffffffff\n      and\n      0xffffffffffffffffffffffffffffffffffffffff\n      and\n      dup2\n      mstore\n      0x20\n      add\n      swap1\n      dup2\n      mstore\n      0x20\n      add\n      0x00\n      keccak256\n      0x00\n        /* \"@klaytn/contracts/contracts/KIP/token/KIP7/KIP7.sol\":11815:11838  _balances[to] += amount */\n      dup3\n      dup3\n      sload\n      tag_177\n      swap2\n      swap1\n      tag_112\n      jump\t// in\n    tag_177:\n      swap3\n      pop\n      pop\n      dup2\n      swap1\n      sstore\n      pop\n        /* \"@klaytn/contracts/contracts/KIP/token/KIP7/KIP7.sol\":11869:11871  to */\n      dup3\n        /* \"@klaytn/contracts/contracts/KIP/token/KIP7/KIP7.sol\":11854:11880  Transfer(from, to, amount) */\n      0xffffffffffffffffffffffffffffffffffffffff\n      and\n        /* \"@klaytn/contracts/contracts/KIP/token/KIP7/KIP7.sol\":11863:11867  from */\n      dup5\n        /* \"@klaytn/contracts/contracts/KIP/token/KIP7/KIP7.sol\":11854:11880  Transfer(from, to, amount) */\n      0xffffffffffffffffffffffffffffffffffffffff\n      and\n      0xddf252ad1be2c89b69c2b068fc378daa952ba7f163c4a11628f55a4df523b3ef\n        /* \"@klaytn/contracts/contracts/KIP/token/KIP7/KIP7.sol\":11873:11879  amount */\n      dup5\n        /* \"@klaytn/contracts/contracts/KIP/token/KIP7/KIP7.sol\":11854:11880  Transfer(from, to, amount) */\n      mload(0x40)\n      tag_178\n      swap2\n      swap1\n      tag_35\n      jump\t// in\n    tag_178:\n      mload(0x40)\n      dup1\n      swap2\n      sub\n      swap1\n      log3\n        /* \"@klaytn/contracts/contracts/KIP/token/KIP7/KIP7.sol\":11891:11928  _afterTokenTransfer(from, to, amount) */\n      tag_179\n        /* \"@klaytn/contracts/contracts/KIP/token/KIP7/KIP7.sol\":11911:11915  from */\n      dup5\n        /* \"@klaytn/contracts/contracts/KIP/token/KIP7/KIP7.sol\":11917:11919  to */\n      dup5\n        /* \"@klaytn/contracts/contracts/KIP/token/KIP7/KIP7.sol\":11921:11927  amount */\n      dup5\n        /* \"@klaytn/contracts/contracts/KIP/token/KIP7/KIP7.sol\":11891:11910  _afterTokenTransfer */\n      tag_180\n        /* \"@klaytn/contracts/contracts/KIP/token/KIP7/KIP7.sol\":11891:11928  _afterTokenTransfer(from, to, amount) */\n      jump\t// in\n    tag_179:\n        /* \"@klaytn/contracts/contracts/KIP/token/KIP7/KIP7.sol\":11395:11935  {... */\n      pop\n        /* \"@klaytn/contracts/contracts/KIP/token/KIP7/KIP7.sol\":11287:11935  function _transfer(... */\n      pop\n      pop\n      pop\n      jump\t// out\n        /* \"@klaytn/contracts/contracts/KIP/token/KIP7/KIP7.sol\":13307:13695  function _mint(address account, uint256 amount) internal virtual {... */\n    tag_115:\n        /* \"@klaytn/contracts/contracts/KIP/token/KIP7/KIP7.sol\":13409:13410  0 */\n      0x00\n        /* \"@klaytn/contracts/contracts/KIP/token/KIP7/KIP7.sol\":13390:13411  account != address(0) */\n      0xffffffffffffffffffffffffffffffffffffffff\n      and\n        /* \"@klaytn/contracts/contracts/KIP/token/KIP7/KIP7.sol\":13390:13397  account */\n      dup3\n        /* \"@klaytn/contracts/contracts/KIP/token/KIP7/KIP7.sol\":13390:13411  account != address(0) */\n      0xffffffffffffffffffffffffffffffffffffffff\n      and\n      sub\n        /* \"@klaytn/contracts/contracts/KIP/token/KIP7/KIP7.sol\":13382:13446  require(account != address(0), \"KIP7: mint to the zero address\") */\n      tag_182\n      jumpi\n      mload(0x40)\n      0x08c379a000000000000000000000000000000000000000000000000000000000\n      dup2\n      mstore\n      0x04\n      add\n      tag_183\n      swap1\n      tag_184\n      jump\t// in\n    tag_183:\n      mload(0x40)\n      dup1\n      swap2\n      sub\n      swap1\n      revert\n    tag_182:\n        /* \"@klaytn/contracts/contracts/KIP/token/KIP7/KIP7.sol\":13457:13506  _beforeTokenTransfer(address(0), account, amount) */\n      tag_185\n        /* \"@klaytn/contracts/contracts/KIP/token/KIP7/KIP7.sol\":13486:13487  0 */\n      0x00\n        /* \"@klaytn/contracts/contracts/KIP/token/KIP7/KIP7.sol\":13490:13497  account */\n      dup4\n        /* \"@klaytn/contracts/contracts/KIP/token/KIP7/KIP7.sol\":13499:13505  amount */\n      dup4\n        /* \"@klaytn/contracts/contracts/KIP/token/KIP7/KIP7.sol\":13457:13477  _beforeTokenTransfer */\n      tag_173\n        /* \"@klaytn/contracts/contracts/KIP/token/KIP7/KIP7.sol\":13457:13506  _beforeTokenTransfer(address(0), account, amount) */\n      jump\t// in\n    tag_185:\n        /* \"@klaytn/contracts/contracts/KIP/token/KIP7/KIP7.sol\":13533:13539  amount */\n      dup1\n        /* \"@klaytn/contracts/contracts/KIP/token/KIP7/KIP7.sol\":13517:13529  _totalSupply */\n      0x02\n      0x00\n        /* \"@klaytn/contracts/contracts/KIP/token/KIP7/KIP7.sol\":13517:13539  _totalSupply += amount */\n      dup3\n      dup3\n      sload\n      tag_186\n      swap2\n      swap1\n      tag_112\n      jump\t// in\n    tag_186:\n      swap3\n      pop\n      pop\n      dup2\n      swap1\n      sstore\n      pop\n        /* \"@klaytn/contracts/contracts/KIP/token/KIP7/KIP7.sol\":13571:13577  amount */\n      dup1\n        /* \"@klaytn/contracts/contracts/KIP/token/KIP7/KIP7.sol\":13549:13558  _balances */\n      0x00\n        /* \"@klaytn/contracts/contracts/KIP/token/KIP7/KIP7.sol\":13549:13567  _balances[account] */\n      dup1\n        /* \"@klaytn/contracts/contracts/KIP/token/KIP7/KIP7.sol\":13559:13566  account */\n      dup5\n        /* \"@klaytn/contracts/contracts/KIP/token/KIP7/KIP7.sol\":13549:13567  _balances[account] */\n      0xffffffffffffffffffffffffffffffffffffffff\n      and\n      0xffffffffffffffffffffffffffffffffffffffff\n      and\n      dup2\n      mstore\n      0x20\n      add\n      swap1\n      dup2\n      mstore\n      0x20\n      add\n      0x00\n      keccak256\n      0x00\n        /* \"@klaytn/contracts/contracts/KIP/token/KIP7/KIP7.sol\":13549:13577  _balances[account] += amount */\n      dup3\n      dup3\n      sload\n      tag_187\n      swap2\n      swap1\n      tag_112\n      jump\t// in\n    tag_187:\n      swap3\n      pop\n      pop\n      dup2\n      swap1\n      sstore\n      pop\n        /* \"@klaytn/contracts/contracts/KIP/token/KIP7/KIP7.sol\":13613:13620  account */\n      dup2\n        /* \"@klaytn/contracts/contracts/KIP/token/KIP7/KIP7.sol\":13592:13629  Transfer(address(0), account, amount) */\n      0xffffffffffffffffffffffffffffffffffffffff\n      and\n        /* \"@klaytn/contracts/contracts/KIP/token/KIP7/KIP7.sol\":13609:13610  0 */\n      0x00\n        /* \"@klaytn/contracts/contracts/KIP/token/KIP7/KIP7.sol\":13592:13629  Transfer(address(0), account, amount) */\n      0xffffffffffffffffffffffffffffffffffffffff\n      and\n      0xddf252ad1be2c89b69c2b068fc378daa952ba7f163c4a11628f55a4df523b3ef\n        /* \"@klaytn/contracts/contracts/KIP/token/KIP7/KIP7.sol\":13622:13628  amount */\n      dup4\n        /* \"@klaytn/contracts/contracts/KIP/token/KIP7/KIP7.sol\":13592:13629  Transfer(address(0), account, amount) */\n      mload(0x40)\n      tag_188\n      swap2\n      swap1\n      tag_35\n      jump\t// in\n    tag_188:\n      mload(0x40)\n      dup1\n      swap2\n      sub\n      swap1\n      log3\n        /* \"@klaytn/contracts/contracts/KIP/token/KIP7/KIP7.sol\":13640:13688  _afterTokenTransfer(address(0), account, amount) */\n      tag_189\n        /* \"@klaytn/contracts/contracts/KIP/token/KIP7/KIP7.sol\":13668:13669  0 */\n      0x00\n        /* \"@klaytn/contracts/contracts/KIP/token/KIP7/KIP7.sol\":13672:13679  account */\n      dup4\n        /* \"@klaytn/contracts/contracts/KIP/token/KIP7/KIP7.sol\":13681:13687  amount */\n      dup4\n        /* \"@klaytn/contracts/contracts/KIP/token/KIP7/KIP7.sol\":13640:13659  _afterTokenTransfer */\n      tag_180\n        /* \"@klaytn/contracts/contracts/KIP/token/KIP7/KIP7.sol\":13640:13688  _afterTokenTransfer(address(0), account, amount) */\n      jump\t// in\n    tag_189:\n        /* \"@klaytn/contracts/contracts/KIP/token/KIP7/KIP7.sol\":13307:13695  function _mint(address account, uint256 amount) internal virtual {... */\n      pop\n      pop\n      jump\t// out\n        /* \"@klaytn/contracts/contracts/KIP/token/KIP7/KIP7.sol\":10526:10824  function _safeTransfer(... */\n    tag_119:\n        /* \"@klaytn/contracts/contracts/KIP/token/KIP7/KIP7.sol\":10675:10702  _transfer(from, to, amount) */\n      tag_191\n        /* \"@klaytn/contracts/contracts/KIP/token/KIP7/KIP7.sol\":10685:10689  from */\n      dup5\n        /* \"@klaytn/contracts/contracts/KIP/token/KIP7/KIP7.sol\":10691:10693  to */\n      dup5\n        /* \"@klaytn/contracts/contracts/KIP/token/KIP7/KIP7.sol\":10695:10701  amount */\n      dup5\n        /* \"@klaytn/contracts/contracts/KIP/token/KIP7/KIP7.sol\":10675:10684  _transfer */\n      tag_105\n        /* \"@klaytn/contracts/contracts/KIP/token/KIP7/KIP7.sol\":10675:10702  _transfer(from, to, amount) */\n      jump\t// in\n    tag_191:\n        /* \"@klaytn/contracts/contracts/KIP/token/KIP7/KIP7.sol\":10720:10765  _checkOnKIP7Received(from, to, amount, _data) */\n      tag_192\n        /* \"@klaytn/contracts/contracts/KIP/token/KIP7/KIP7.sol\":10741:10745  from */\n      dup5\n        /* \"@klaytn/contracts/contracts/KIP/token/KIP7/KIP7.sol\":10747:10749  to */\n      dup5\n        /* \"@klaytn/contracts/contracts/KIP/token/KIP7/KIP7.sol\":10751:10757  amount */\n      dup5\n        /* \"@klaytn/contracts/contracts/KIP/token/KIP7/KIP7.sol\":10759:10764  _data */\n      dup5\n        /* \"@klaytn/contracts/contracts/KIP/token/KIP7/KIP7.sol\":10720:10740  _checkOnKIP7Received */\n      tag_193\n        /* \"@klaytn/contracts/contracts/KIP/token/KIP7/KIP7.sol\":10720:10765  _checkOnKIP7Received(from, to, amount, _data) */\n      jump\t// in\n    tag_192:\n        /* \"@klaytn/contracts/contracts/KIP/token/KIP7/KIP7.sol\":10712:10817  require(_checkOnKIP7Received(from, to, amount, _data), \"KIP7: transfer to non IKIP7Receiver implementer\") */\n      tag_194\n      jumpi\n      mload(0x40)\n      0x08c379a000000000000000000000000000000000000000000000000000000000\n      dup2\n      mstore\n      0x04\n      add\n      tag_195\n      swap1\n      tag_196\n      jump\t// in\n    tag_195:\n      mload(0x40)\n      dup1\n      swap2\n      sub\n      swap1\n      revert\n    tag_194:\n        /* \"@klaytn/contracts/contracts/KIP/token/KIP7/KIP7.sol\":10526:10824  function _safeTransfer(... */\n      pop\n      pop\n      pop\n      pop\n      jump\t// out\n        /* \"@klaytn/contracts/contracts/KIP/token/KIP7/KIP7.sol\":17988:18109  function _beforeTokenTransfer(... */\n    tag_173:\n      pop\n      pop\n      pop\n      jump\t// out\n        /* \"@klaytn/contracts/contracts/KIP/token/KIP7/KIP7.sol\":18697:18817  function _afterTokenTransfer(... */\n    tag_180:\n      pop\n      pop\n      pop\n      jump\t// out\n        /* \"@klaytn/contracts/contracts/KIP/token/KIP7/KIP7.sol\":14236:14998  function _checkOnKIP7Received(... */\n    tag_193:\n        /* \"@klaytn/contracts/contracts/KIP/token/KIP7/KIP7.sol\":14383:14387  bool */\n      0x00\n        /* \"@klaytn/contracts/contracts/KIP/token/KIP7/KIP7.sol\":14403:14418  to.isContract() */\n      tag_200\n        /* \"@klaytn/contracts/contracts/KIP/token/KIP7/KIP7.sol\":14403:14405  to */\n      dup5\n        /* \"@klaytn/contracts/contracts/KIP/token/KIP7/KIP7.sol\":14403:14416  to.isContract */\n      0xffffffffffffffffffffffffffffffffffffffff\n      and\n      tag_201\n        /* \"@klaytn/contracts/contracts/KIP/token/KIP7/KIP7.sol\":14403:14418  to.isContract() */\n      jump\t// in\n    tag_200:\n        /* \"@klaytn/contracts/contracts/KIP/token/KIP7/KIP7.sol\":14399:14992  if (to.isContract()) {... */\n      iszero\n      tag_202\n      jumpi\n        /* \"@klaytn/contracts/contracts/KIP/token/KIP7/KIP7.sol\":14452:14454  to */\n      dup4\n        /* \"@klaytn/contracts/contracts/KIP/token/KIP7/KIP7.sol\":14438:14470  IKIP7Receiver(to).onKIP7Received */\n      0xffffffffffffffffffffffffffffffffffffffff\n      and\n      0x9d188c22\n        /* \"@klaytn/contracts/contracts/KIP/token/KIP7/KIP7.sol\":14471:14483  _msgSender() */\n      tag_203\n        /* \"@klaytn/contracts/contracts/KIP/token/KIP7/KIP7.sol\":14471:14481  _msgSender */\n      tag_96\n        /* \"@klaytn/contracts/contracts/KIP/token/KIP7/KIP7.sol\":14471:14483  _msgSender() */\n      jump\t// in\n    tag_203:\n        /* \"@klaytn/contracts/contracts/KIP/token/KIP7/KIP7.sol\":14485:14489  from */\n      dup8\n        /* \"@klaytn/contracts/contracts/KIP/token/KIP7/KIP7.sol\":14491:14497  amount */\n      dup7\n        /* \"@klaytn/contracts/contracts/KIP/token/KIP7/KIP7.sol\":14499:14504  _data */\n      dup7\n        /* \"@klaytn/contracts/contracts/KIP/token/KIP7/KIP7.sol\":14438:14505  IKIP7Receiver(to).onKIP7Received(_msgSender(), from, amount, _data) */\n      mload(0x40)\n      dup6\n      0xffffffff\n      and\n      0xe0\n      shl\n      dup2\n      mstore\n      0x04\n      add\n      tag_204\n      swap5\n      swap4\n      swap3\n      swap2\n      swap1\n      tag_205\n      jump\t// in\n    tag_204:\n      0x20\n      mload(0x40)\n      dup1\n      dup4\n      sub\n      dup2\n      0x00\n      dup8\n      gas\n      call\n      swap3\n      pop\n      pop\n      pop\n      dup1\n      iszero\n      tag_206\n      jumpi\n      pop\n      mload(0x40)\n      returndatasize\n      not(0x1f)\n      0x1f\n      dup3\n      add\n      and\n      dup3\n      add\n      dup1\n      0x40\n      mstore\n      pop\n      dup2\n      add\n      swap1\n      tag_207\n      swap2\n      swap1\n      tag_208\n      jump\t// in\n    tag_207:\n      0x01\n    tag_206:\n        /* \"@klaytn/contracts/contracts/KIP/token/KIP7/KIP7.sol\":14434:14940  try IKIP7Receiver(to).onKIP7Received(_msgSender(), from, amount, _data) returns (bytes4 retval) {... */\n      tag_209\n      jumpi\n      returndatasize\n      dup1\n      0x00\n      dup2\n      eq\n      tag_214\n      jumpi\n      mload(0x40)\n      swap2\n      pop\n      and(add(returndatasize, 0x3f), not(0x1f))\n      dup3\n      add\n      0x40\n      mstore\n      returndatasize\n      dup3\n      mstore\n      returndatasize\n      0x00\n      0x20\n      dup5\n      add\n      returndatacopy\n      jump(tag_213)\n    tag_214:\n      0x60\n      swap2\n      pop\n    tag_213:\n      pop\n        /* \"@klaytn/contracts/contracts/KIP/token/KIP7/KIP7.sol\":14685:14686  0 */\n      0x00\n        /* \"@klaytn/contracts/contracts/KIP/token/KIP7/KIP7.sol\":14668:14674  reason */\n      dup2\n        /* \"@klaytn/contracts/contracts/KIP/token/KIP7/KIP7.sol\":14668:14681  reason.length */\n      mload\n        /* \"@klaytn/contracts/contracts/KIP/token/KIP7/KIP7.sol\":14668:14686  reason.length == 0 */\n      sub\n        /* \"@klaytn/contracts/contracts/KIP/token/KIP7/KIP7.sol\":14664:14926  if (reason.length == 0) {... */\n      tag_215\n      jumpi\n        /* \"@klaytn/contracts/contracts/KIP/token/KIP7/KIP7.sol\":14710:14766  revert(\"KIP7: transfer to non KIP7Receiver implementer\") */\n      mload(0x40)\n      0x08c379a000000000000000000000000000000000000000000000000000000000\n      dup2\n      mstore\n      0x04\n      add\n      tag_216\n      swap1\n      tag_217\n      jump\t// in\n    tag_216:\n      mload(0x40)\n      dup1\n      swap2\n      sub\n      swap1\n      revert\n        /* \"@klaytn/contracts/contracts/KIP/token/KIP7/KIP7.sol\":14664:14926  if (reason.length == 0) {... */\n    tag_215:\n        /* \"@klaytn/contracts/contracts/KIP/token/KIP7/KIP7.sol\":14878:14884  reason */\n      dup1\n        /* \"@klaytn/contracts/contracts/KIP/token/KIP7/KIP7.sol\":14872:14885  mload(reason) */\n      mload\n        /* \"@klaytn/contracts/contracts/KIP/token/KIP7/KIP7.sol\":14863:14869  reason */\n      dup2\n        /* \"@klaytn/contracts/contracts/KIP/token/KIP7/KIP7.sol\":14859:14861  32 */\n      0x20\n        /* \"@klaytn/contracts/contracts/KIP/token/KIP7/KIP7.sol\":14855:14870  add(32, reason) */\n      add\n        /* \"@klaytn/contracts/contracts/KIP/token/KIP7/KIP7.sol\":14848:14886  revert(add(32, reason), mload(reason)) */\n      revert\n        /* \"@klaytn/contracts/contracts/KIP/token/KIP7/KIP7.sol\":14434:14940  try IKIP7Receiver(to).onKIP7Received(_msgSender(), from, amount, _data) returns (bytes4 retval) {... */\n    tag_209:\n        /* \"@klaytn/contracts/contracts/KIP/token/KIP7/KIP7.sol\":14565:14602  IKIP7Receiver.onKIP7Received.selector */\n      shl(0xe0, 0x9d188c22)\n        /* \"@klaytn/contracts/contracts/KIP/token/KIP7/KIP7.sol\":14555:14602  retval == IKIP7Receiver.onKIP7Received.selector */\n      not(0xffffffffffffffffffffffffffffffffffffffffffffffffffffffff)\n      and\n        /* \"@klaytn/contracts/contracts/KIP/token/KIP7/KIP7.sol\":14555:14561  retval */\n      dup2\n        /* \"@klaytn/contracts/contracts/KIP/token/KIP7/KIP7.sol\":14555:14602  retval == IKIP7Receiver.onKIP7Received.selector */\n      not(0xffffffffffffffffffffffffffffffffffffffffffffffffffffffff)\n      and\n      eq\n        /* \"@klaytn/contracts/contracts/KIP/token/KIP7/KIP7.sol\":14548:14602  return retval == IKIP7Receiver.onKIP7Received.selector */\n      swap2\n      pop\n      pop\n      jump(tag_199)\n        /* \"@klaytn/contracts/contracts/KIP/token/KIP7/KIP7.sol\":14399:14992  if (to.isContract()) {... */\n    tag_202:\n        /* \"@klaytn/contracts/contracts/KIP/token/KIP7/KIP7.sol\":14977:14981  true */\n      0x01\n        /* \"@klaytn/contracts/contracts/KIP/token/KIP7/KIP7.sol\":14970:14981  return true */\n      swap1\n      pop\n        /* \"@klaytn/contracts/contracts/KIP/token/KIP7/KIP7.sol\":14236:14998  function _checkOnKIP7Received(... */\n    tag_199:\n      swap5\n      swap4\n      pop\n      pop\n      pop\n      pop\n      jump\t// out\n        /* \"@klaytn/contracts/contracts/utils/Address.sol\":1175:1495  function isContract(address account) internal view returns (bool) {... */\n    tag_201:\n        /* \"@klaytn/contracts/contracts/utils/Address.sol\":1235:1239  bool */\n      0x00\n        /* \"@klaytn/contracts/contracts/utils/Address.sol\":1487:1488  0 */\n      dup1\n        /* \"@klaytn/contracts/contracts/utils/Address.sol\":1465:1472  account */\n      dup3\n        /* \"@klaytn/contracts/contracts/utils/Address.sol\":1465:1484  account.code.length */\n      0xffffffffffffffffffffffffffffffffffffffff\n      and\n      extcodesize\n        /* \"@klaytn/contracts/contracts/utils/Address.sol\":1465:1488  account.code.length > 0 */\n      gt\n        /* \"@klaytn/contracts/contracts/utils/Address.sol\":1458:1488  return account.code.length > 0 */\n      swap1\n      pop\n        /* \"@klaytn/contracts/contracts/utils/Address.sol\":1175:1495  function isContract(address account) internal view returns (bool) {... */\n      swap2\n      swap1\n      pop\n      jump\t// out\n        /* \"#utility.yul\":7:106   */\n    tag_222:\n        /* \"#utility.yul\":59:65   */\n      0x00\n        /* \"#utility.yul\":93:98   */\n      dup2\n        /* \"#utility.yul\":87:99   */\n      mload\n        /* \"#utility.yul\":77:99   */\n      swap1\n      pop\n        /* \"#utility.yul\":7:106   */\n      swap2\n      swap1\n      pop\n      jump\t// out\n        /* \"#utility.yul\":112:281   */\n    tag_223:\n        /* \"#utility.yul\":196:207   */\n      0x00\n        /* \"#utility.yul\":230:236   */\n      dup3\n        /* \"#utility.yul\":225:228   */\n      dup3\n        /* \"#utility.yul\":218:237   */\n      mstore\n        /* \"#utility.yul\":270:274   */\n      0x20\n        /* \"#utility.yul\":265:268   */\n      dup3\n        /* \"#utility.yul\":261:275   */\n      add\n        /* \"#utility.yul\":246:275   */\n      swap1\n      pop\n        /* \"#utility.yul\":112:281   */\n      swap3\n      swap2\n      pop\n      pop\n      jump\t// out\n        /* \"#utility.yul\":287:533   */\n    tag_224:\n        /* \"#utility.yul\":368:369   */\n      0x00\n        /* \"#utility.yul\":378:491   */\n    tag_284:\n        /* \"#utility.yul\":392:398   */\n      dup4\n        /* \"#utility.yul\":389:390   */\n      dup2\n        /* \"#utility.yul\":386:399   */\n      lt\n        /* \"#utility.yul\":378:491   */\n      iszero\n      tag_286\n      jumpi\n        /* \"#utility.yul\":477:478   */\n      dup1\n        /* \"#utility.yul\":472:475   */\n      dup3\n        /* \"#utility.yul\":468:479   */\n      add\n        /* \"#utility.yul\":462:480   */\n      mload\n        /* \"#utility.yul\":458:459   */\n      dup2\n        /* \"#utility.yul\":453:456   */\n      dup5\n        /* \"#utility.yul\":449:460   */\n      add\n        /* \"#utility.yul\":442:481   */\n      mstore\n        /* \"#utility.yul\":414:416   */\n      0x20\n        /* \"#utility.yul\":411:412   */\n      dup2\n        /* \"#utility.yul\":407:417   */\n      add\n        /* \"#utility.yul\":402:417   */\n      swap1\n      pop\n        /* \"#utility.yul\":378:491   */\n      jump(tag_284)\n    tag_286:\n        /* \"#utility.yul\":525:526   */\n      0x00\n        /* \"#utility.yul\":516:522   */\n      dup5\n        /* \"#utility.yul\":511:514   */\n      dup5\n        /* \"#utility.yul\":507:523   */\n      add\n        /* \"#utility.yul\":500:527   */\n      mstore\n        /* \"#utility.yul\":349:533   */\n      pop\n        /* \"#utility.yul\":287:533   */\n      pop\n      pop\n      pop\n      jump\t// out\n        /* \"#utility.yul\":539:641   */\n    tag_225:\n        /* \"#utility.yul\":580:586   */\n      0x00\n        /* \"#utility.yul\":631:633   */\n      0x1f\n        /* \"#utility.yul\":627:634   */\n      not\n        /* \"#utility.yul\":622:624   */\n      0x1f\n        /* \"#utility.yul\":615:620   */\n      dup4\n        /* \"#utility.yul\":611:625   */\n      add\n        /* \"#utility.yul\":607:635   */\n      and\n        /* \"#utility.yul\":597:635   */\n      swap1\n      pop\n        /* \"#utility.yul\":539:641   */\n      swap2\n      swap1\n      pop\n      jump\t// out\n        /* \"#utility.yul\":647:1024   */\n    tag_226:\n        /* \"#utility.yul\":735:738   */\n      0x00\n        /* \"#utility.yul\":763:802   */\n      tag_289\n        /* \"#utility.yul\":796:801   */\n      dup3\n        /* \"#utility.yul\":763:802   */\n      tag_222\n      jump\t// in\n    tag_289:\n        /* \"#utility.yul\":818:889   */\n      tag_290\n        /* \"#utility.yul\":882:888   */\n      dup2\n        /* \"#utility.yul\":877:880   */\n      dup6\n        /* \"#utility.yul\":818:889   */\n      tag_223\n      jump\t// in\n    tag_290:\n        /* \"#utility.yul\":811:889   */\n      swap4\n      pop\n        /* \"#utility.yul\":898:963   */\n      tag_291\n        /* \"#utility.yul\":956:962   */\n      dup2\n        /* \"#utility.yul\":951:954   */\n      dup6\n        /* \"#utility.yul\":944:948   */\n      0x20\n        /* \"#utility.yul\":937:942   */\n      dup7\n        /* \"#utility.yul\":933:949   */\n      add\n        /* \"#utility.yul\":898:963   */\n      tag_224\n      jump\t// in\n    tag_291:\n        /* \"#utility.yul\":988:1017   */\n      tag_292\n        /* \"#utility.yul\":1010:1016   */\n      dup2\n        /* \"#utility.yul\":988:1017   */\n      tag_225\n      jump\t// in\n    tag_292:\n        /* \"#utility.yul\":983:986   */\n      dup5\n        /* \"#utility.yul\":979:1018   */\n      add\n        /* \"#utility.yul\":972:1018   */\n      swap2\n      pop\n        /* \"#utility.yul\":739:1024   */\n      pop\n        /* \"#utility.yul\":647:1024   */\n      swap3\n      swap2\n      pop\n      pop\n      jump\t// out\n        /* \"#utility.yul\":1030:1343   */\n    tag_25:\n        /* \"#utility.yul\":1143:1147   */\n      0x00\n        /* \"#utility.yul\":1181:1183   */\n      0x20\n        /* \"#utility.yul\":1170:1179   */\n      dup3\n        /* \"#utility.yul\":1166:1184   */\n      add\n        /* \"#utility.yul\":1158:1184   */\n      swap1\n      pop\n        /* \"#utility.yul\":1230:1239   */\n      dup2\n        /* \"#utility.yul\":1224:1228   */\n      dup2\n        /* \"#utility.yul\":1220:1240   */\n      sub\n        /* \"#utility.yul\":1216:1217   */\n      0x00\n        /* \"#utility.yul\":1205:1214   */\n      dup4\n        /* \"#utility.yul\":1201:1218   */\n      add\n        /* \"#utility.yul\":1194:1241   */\n      mstore\n        /* \"#utility.yul\":1258:1336   */\n      tag_294\n        /* \"#utility.yul\":1331:1335   */\n      dup2\n        /* \"#utility.yul\":1322:1328   */\n      dup5\n        /* \"#utility.yul\":1258:1336   */\n      tag_226\n      jump\t// in\n    tag_294:\n        /* \"#utility.yul\":1250:1336   */\n      swap1\n      pop\n        /* \"#utility.yul\":1030:1343   */\n      swap3\n      swap2\n      pop\n      pop\n      jump\t// out\n        /* \"#utility.yul\":1349:1424   */\n    tag_227:\n        /* \"#utility.yul\":1382:1388   */\n      0x00\n        /* \"#utility.yul\":1415:1417   */\n      0x40\n        /* \"#utility.yul\":1409:1418   */\n      mload\n        /* \"#utility.yul\":1399:1418   */\n      swap1\n      pop\n        /* \"#utility.yul\":1349:1424   */\n      swap1\n      jump\t// out\n        /* \"#utility.yul\":1430:1547   */\n    tag_228:\n        /* \"#utility.yul\":1539:1540   */\n      0x00\n        /* \"#utility.yul\":1536:1537   */\n      dup1\n        /* \"#utility.yul\":1529:1541   */\n      revert\n        /* \"#utility.yul\":1553:1670   */\n    tag_229:\n        /* \"#utility.yul\":1662:1663   */\n      0x00\n        /* \"#utility.yul\":1659:1660   */\n      dup1\n        /* \"#utility.yul\":1652:1664   */\n      revert\n        /* \"#utility.yul\":1676:1802   */\n    tag_230:\n        /* \"#utility.yul\":1713:1720   */\n      0x00\n        /* \"#utility.yul\":1753:1795   */\n      0xffffffffffffffffffffffffffffffffffffffff\n        /* \"#utility.yul\":1746:1751   */\n      dup3\n        /* \"#utility.yul\":1742:1796   */\n      and\n        /* \"#utility.yul\":1731:1796   */\n      swap1\n      pop\n        /* \"#utility.yul\":1676:1802   */\n      swap2\n      swap1\n      pop\n      jump\t// out\n        /* \"#utility.yul\":1808:1904   */\n    tag_231:\n        /* \"#utility.yul\":1845:1852   */\n      0x00\n        /* \"#utility.yul\":1874:1898   */\n      tag_300\n        /* \"#utility.yul\":1892:1897   */\n      dup3\n        /* \"#utility.yul\":1874:1898   */\n      tag_230\n      jump\t// in\n    tag_300:\n        /* \"#utility.yul\":1863:1898   */\n      swap1\n      pop\n        /* \"#utility.yul\":1808:1904   */\n      swap2\n      swap1\n      pop\n      jump\t// out\n        /* \"#utility.yul\":1910:2032   */\n    tag_232:\n        /* \"#utility.yul\":1983:2007   */\n      tag_302\n        /* \"#utility.yul\":2001:2006   */\n      dup2\n        /* \"#utility.yul\":1983:2007   */\n      tag_231\n      jump\t// in\n    tag_302:\n        /* \"#utility.yul\":1976:1981   */\n      dup2\n        /* \"#utility.yul\":1973:2008   */\n      eq\n        /* \"#utility.yul\":1963:2026   */\n      tag_303\n      jumpi\n        /* \"#utility.yul\":2022:2023   */\n      0x00\n        /* \"#utility.yul\":2019:2020   */\n      dup1\n        /* \"#utility.yul\":2012:2024   */\n      revert\n        /* \"#utility.yul\":1963:2026   */\n    tag_303:\n        /* \"#utility.yul\":1910:2032   */\n      pop\n      jump\t// out\n        /* \"#utility.yul\":2038:2177   */\n    tag_233:\n        /* \"#utility.yul\":2084:2089   */\n      0x00\n        /* \"#utility.yul\":2122:2128   */\n      dup2\n        /* \"#utility.yul\":2109:2129   */\n      calldataload\n        /* \"#utility.yul\":2100:2129   */\n      swap1\n      pop\n        /* \"#utility.yul\":2138:2171   */\n      tag_305\n        /* \"#utility.yul\":2165:2170   */\n      dup2\n        /* \"#utility.yul\":2138:2171   */\n      tag_232\n      jump\t// in\n    tag_305:\n        /* \"#utility.yul\":2038:2177   */\n      swap3\n      swap2\n      pop\n      pop\n      jump\t// out\n        /* \"#utility.yul\":2183:2260   */\n    tag_234:\n        /* \"#utility.yul\":2220:2227   */\n      0x00\n        /* \"#utility.yul\":2249:2254   */\n      dup2\n        /* \"#utility.yul\":2238:2254   */\n      swap1\n      pop\n        /* \"#utility.yul\":2183:2260   */\n      swap2\n      swap1\n      pop\n      jump\t// out\n        /* \"#utility.yul\":2266:2388   */\n    tag_235:\n        /* \"#utility.yul\":2339:2363   */\n      tag_308\n        /* \"#utility.yul\":2357:2362   */\n      dup2\n        /* \"#utility.yul\":2339:2363   */\n      tag_234\n      jump\t// in\n    tag_308:\n        /* \"#utility.yul\":2332:2337   */\n      dup2\n        /* \"#utility.yul\":2329:2364   */\n      eq\n        /* \"#utility.yul\":2319:2382   */\n      tag_309\n      jumpi\n        /* \"#utility.yul\":2378:2379   */\n      0x00\n        /* \"#utility.yul\":2375:2376   */\n      dup1\n        /* \"#utility.yul\":2368:2380   */\n      revert\n        /* \"#utility.yul\":2319:2382   */\n    tag_309:\n        /* \"#utility.yul\":2266:2388   */\n      pop\n      jump\t// out\n        /* \"#utility.yul\":2394:2533   */\n    tag_236:\n        /* \"#utility.yul\":2440:2445   */\n      0x00\n        /* \"#utility.yul\":2478:2484   */\n      dup2\n        /* \"#utility.yul\":2465:2485   */\n      calldataload\n        /* \"#utility.yul\":2456:2485   */\n      swap1\n      pop\n        /* \"#utility.yul\":2494:2527   */\n      tag_311\n        /* \"#utility.yul\":2521:2526   */\n      dup2\n        /* \"#utility.yul\":2494:2527   */\n      tag_235\n      jump\t// in\n    tag_311:\n        /* \"#utility.yul\":2394:2533   */\n      swap3\n      swap2\n      pop\n      pop\n      jump\t// out\n        /* \"#utility.yul\":2539:3013   */\n    tag_28:\n        /* \"#utility.yul\":2607:2613   */\n      0x00\n        /* \"#utility.yul\":2615:2621   */\n      dup1\n        /* \"#utility.yul\":2664:2666   */\n      0x40\n        /* \"#utility.yul\":2652:2661   */\n      dup4\n        /* \"#utility.yul\":2643:2650   */\n      dup6\n        /* \"#utility.yul\":2639:2662   */\n      sub\n        /* \"#utility.yul\":2635:2667   */\n      slt\n        /* \"#utility.yul\":2632:2751   */\n      iszero\n      tag_313\n      jumpi\n        /* \"#utility.yul\":2670:2749   */\n      tag_314\n      tag_228\n      jump\t// in\n    tag_314:\n        /* \"#utility.yul\":2632:2751   */\n    tag_313:\n        /* \"#utility.yul\":2790:2791   */\n      0x00\n        /* \"#utility.yul\":2815:2868   */\n      tag_315\n        /* \"#utility.yul\":2860:2867   */\n      dup6\n        /* \"#utility.yul\":2851:2857   */\n      dup3\n        /* \"#utility.yul\":2840:2849   */\n      dup7\n        /* \"#utility.yul\":2836:2858   */\n      add\n        /* \"#utility.yul\":2815:2868   */\n      tag_233\n      jump\t// in\n    tag_315:\n        /* \"#utility.yul\":2805:2868   */\n      swap3\n      pop\n        /* \"#utility.yul\":2761:2878   */\n      pop\n        /* \"#utility.yul\":2917:2919   */\n      0x20\n        /* \"#utility.yul\":2943:2996   */\n      tag_316\n        /* \"#utility.yul\":2988:2995   */\n      dup6\n        /* \"#utility.yul\":2979:2985   */\n      dup3\n        /* \"#utility.yul\":2968:2977   */\n      dup7\n        /* \"#utility.yul\":2964:2986   */\n      add\n        /* \"#utility.yul\":2943:2996   */\n      tag_236\n      jump\t// in\n    tag_316:\n        /* \"#utility.yul\":2933:2996   */\n      swap2\n      pop\n        /* \"#utility.yul\":2888:3006   */\n      pop\n        /* \"#utility.yul\":2539:3013   */\n      swap3\n      pop\n      swap3\n      swap1\n      pop\n      jump\t// out\n        /* \"#utility.yul\":3019:3109   */\n    tag_237:\n        /* \"#utility.yul\":3053:3060   */\n      0x00\n        /* \"#utility.yul\":3096:3101   */\n      dup2\n        /* \"#utility.yul\":3089:3102   */\n      iszero\n        /* \"#utility.yul\":3082:3103   */\n      iszero\n        /* \"#utility.yul\":3071:3103   */\n      swap1\n      pop\n        /* \"#utility.yul\":3019:3109   */\n      swap2\n      swap1\n      pop\n      jump\t// out\n        /* \"#utility.yul\":3115:3224   */\n    tag_238:\n        /* \"#utility.yul\":3196:3217   */\n      tag_319\n        /* \"#utility.yul\":3211:3216   */\n      dup2\n        /* \"#utility.yul\":3196:3217   */\n      tag_237\n      jump\t// in\n    tag_319:\n        /* \"#utility.yul\":3191:3194   */\n      dup3\n        /* \"#utility.yul\":3184:3218   */\n      mstore\n        /* \"#utility.yul\":3115:3224   */\n      pop\n      pop\n      jump\t// out\n        /* \"#utility.yul\":3230:3440   */\n    tag_31:\n        /* \"#utility.yul\":3317:3321   */\n      0x00\n        /* \"#utility.yul\":3355:3357   */\n      0x20\n        /* \"#utility.yul\":3344:3353   */\n      dup3\n        /* \"#utility.yul\":3340:3358   */\n      add\n        /* \"#utility.yul\":3332:3358   */\n      swap1\n      pop\n        /* \"#utility.yul\":3368:3433   */\n      tag_321\n        /* \"#utility.yul\":3430:3431   */\n      0x00\n        /* \"#utility.yul\":3419:3428   */\n      dup4\n        /* \"#utility.yul\":3415:3432   */\n      add\n        /* \"#utility.yul\":3406:3412   */\n      dup5\n        /* \"#utility.yul\":3368:3433   */\n      tag_238\n      jump\t// in\n    tag_321:\n        /* \"#utility.yul\":3230:3440   */\n      swap3\n      swap2\n      pop\n      pop\n      jump\t// out\n        /* \"#utility.yul\":3446:3564   */\n    tag_239:\n        /* \"#utility.yul\":3533:3557   */\n      tag_323\n        /* \"#utility.yul\":3551:3556   */\n      dup2\n        /* \"#utility.yul\":3533:3557   */\n      tag_234\n      jump\t// in\n    tag_323:\n        /* \"#utility.yul\":3528:3531   */\n      dup3\n        /* \"#utility.yul\":3521:3558   */\n      mstore\n        /* \"#utility.yul\":3446:3564   */\n      pop\n      pop\n      jump\t// out\n        /* \"#utility.yul\":3570:3792   */\n    tag_35:\n        /* \"#utility.yul\":3663:3667   */\n      0x00\n        /* \"#utility.yul\":3701:3703   */\n      0x20\n        /* \"#utility.yul\":3690:3699   */\n      dup3\n        /* \"#utility.yul\":3686:3704   */\n      add\n        /* \"#utility.yul\":3678:3704   */\n      swap1\n      pop\n        /* \"#utility.yul\":3714:3785   */\n      tag_325\n        /* \"#utility.yul\":3782:3783   */\n      0x00\n        /* \"#utility.yul\":3771:3780   */\n      dup4\n        /* \"#utility.yul\":3767:3784   */\n      add\n        /* \"#utility.yul\":3758:3764   */\n      dup5\n        /* \"#utility.yul\":3714:3785   */\n      tag_239\n      jump\t// in\n    tag_325:\n        /* \"#utility.yul\":3570:3792   */\n      swap3\n      swap2\n      pop\n      pop\n      jump\t// out\n        /* \"#utility.yul\":3798:4417   */\n    tag_38:\n        /* \"#utility.yul\":3875:3881   */\n      0x00\n        /* \"#utility.yul\":3883:3889   */\n      dup1\n        /* \"#utility.yul\":3891:3897   */\n      0x00\n        /* \"#utility.yul\":3940:3942   */\n      0x60\n        /* \"#utility.yul\":3928:3937   */\n      dup5\n        /* \"#utility.yul\":3919:3926   */\n      dup7\n        /* \"#utility.yul\":3915:3938   */\n      sub\n        /* \"#utility.yul\":3911:3943   */\n      slt\n        /* \"#utility.yul\":3908:4027   */\n      iszero\n      tag_327\n      jumpi\n        /* \"#utility.yul\":3946:4025   */\n      tag_328\n      tag_228\n      jump\t// in\n    tag_328:\n        /* \"#utility.yul\":3908:4027   */\n    tag_327:\n        /* \"#utility.yul\":4066:4067   */\n      0x00\n        /* \"#utility.yul\":4091:4144   */\n      tag_329\n        /* \"#utility.yul\":4136:4143   */\n      dup7\n        /* \"#utility.yul\":4127:4133   */\n      dup3\n        /* \"#utility.yul\":4116:4125   */\n      dup8\n        /* \"#utility.yul\":4112:4134   */\n      add\n        /* \"#utility.yul\":4091:4144   */\n      tag_233\n      jump\t// in\n    tag_329:\n        /* \"#utility.yul\":4081:4144   */\n      swap4\n      pop\n        /* \"#utility.yul\":4037:4154   */\n      pop\n        /* \"#utility.yul\":4193:4195   */\n      0x20\n        /* \"#utility.yul\":4219:4272   */\n      tag_330\n        /* \"#utility.yul\":4264:4271   */\n      dup7\n        /* \"#utility.yul\":4255:4261   */\n      dup3\n        /* \"#utility.yul\":4244:4253   */\n      dup8\n        /* \"#utility.yul\":4240:4262   */\n      add\n        /* \"#utility.yul\":4219:4272   */\n      tag_233\n      jump\t// in\n    tag_330:\n        /* \"#utility.yul\":4209:4272   */\n      swap3\n      pop\n        /* \"#utility.yul\":4164:4282   */\n      pop\n        /* \"#utility.yul\":4321:4323   */\n      0x40\n        /* \"#utility.yul\":4347:4400   */\n      tag_331\n        /* \"#utility.yul\":4392:4399   */\n      dup7\n        /* \"#utility.yul\":4383:4389   */\n      dup3\n        /* \"#utility.yul\":4372:4381   */\n      dup8\n        /* \"#utility.yul\":4368:4390   */\n      add\n        /* \"#utility.yul\":4347:4400   */\n      tag_236\n      jump\t// in\n    tag_331:\n        /* \"#utility.yul\":4337:4400   */\n      swap2\n      pop\n        /* \"#utility.yul\":4292:4410   */\n      pop\n        /* \"#utility.yul\":3798:4417   */\n      swap3\n      pop\n      swap3\n      pop\n      swap3\n      jump\t// out\n        /* \"#utility.yul\":4423:4509   */\n    tag_240:\n        /* \"#utility.yul\":4458:4465   */\n      0x00\n        /* \"#utility.yul\":4498:4502   */\n      0xff\n        /* \"#utility.yul\":4491:4496   */\n      dup3\n        /* \"#utility.yul\":4487:4503   */\n      and\n        /* \"#utility.yul\":4476:4503   */\n      swap1\n      pop\n        /* \"#utility.yul\":4423:4509   */\n      swap2\n      swap1\n      pop\n      jump\t// out\n        /* \"#utility.yul\":4515:4627   */\n    tag_241:\n        /* \"#utility.yul\":4598:4620   */\n      tag_334\n        /* \"#utility.yul\":4614:4619   */\n      dup2\n        /* \"#utility.yul\":4598:4620   */\n      tag_240\n      jump\t// in\n    tag_334:\n        /* \"#utility.yul\":4593:4596   */\n      dup3\n        /* \"#utility.yul\":4586:4621   */\n      mstore\n        /* \"#utility.yul\":4515:4627   */\n      pop\n      pop\n      jump\t// out\n        /* \"#utility.yul\":4633:4847   */\n    tag_44:\n        /* \"#utility.yul\":4722:4726   */\n      0x00\n        /* \"#utility.yul\":4760:4762   */\n      0x20\n        /* \"#utility.yul\":4749:4758   */\n      dup3\n        /* \"#utility.yul\":4745:4763   */\n      add\n        /* \"#utility.yul\":4737:4763   */\n      swap1\n      pop\n        /* \"#utility.yul\":4773:4840   */\n      tag_336\n        /* \"#utility.yul\":4837:4838   */\n      0x00\n        /* \"#utility.yul\":4826:4835   */\n      dup4\n        /* \"#utility.yul\":4822:4839   */\n      add\n        /* \"#utility.yul\":4813:4819   */\n      dup5\n        /* \"#utility.yul\":4773:4840   */\n      tag_241\n      jump\t// in\n    tag_336:\n        /* \"#utility.yul\":4633:4847   */\n      swap3\n      swap2\n      pop\n      pop\n      jump\t// out\n        /* \"#utility.yul\":4853:5182   */\n    tag_60:\n        /* \"#utility.yul\":4912:4918   */\n      0x00\n        /* \"#utility.yul\":4961:4963   */\n      0x20\n        /* \"#utility.yul\":4949:4958   */\n      dup3\n        /* \"#utility.yul\":4940:4947   */\n      dup5\n        /* \"#utility.yul\":4936:4959   */\n      sub\n        /* \"#utility.yul\":4932:4964   */\n      slt\n        /* \"#utility.yul\":4929:5048   */\n      iszero\n      tag_338\n      jumpi\n        /* \"#utility.yul\":4967:5046   */\n      tag_339\n      tag_228\n      jump\t// in\n    tag_339:\n        /* \"#utility.yul\":4929:5048   */\n    tag_338:\n        /* \"#utility.yul\":5087:5088   */\n      0x00\n        /* \"#utility.yul\":5112:5165   */\n      tag_340\n        /* \"#utility.yul\":5157:5164   */\n      dup5\n        /* \"#utility.yul\":5148:5154   */\n      dup3\n        /* \"#utility.yul\":5137:5146   */\n      dup6\n        /* \"#utility.yul\":5133:5155   */\n      add\n        /* \"#utility.yul\":5112:5165   */\n      tag_233\n      jump\t// in\n    tag_340:\n        /* \"#utility.yul\":5102:5165   */\n      swap2\n      pop\n        /* \"#utility.yul\":5058:5175   */\n      pop\n        /* \"#utility.yul\":4853:5182   */\n      swap3\n      swap2\n      pop\n      pop\n      jump\t// out\n        /* \"#utility.yul\":5188:5305   */\n    tag_242:\n        /* \"#utility.yul\":5297:5298   */\n      0x00\n        /* \"#utility.yul\":5294:5295   */\n      dup1\n        /* \"#utility.yul\":5287:5299   */\n      revert\n        /* \"#utility.yul\":5311:5428   */\n    tag_243:\n        /* \"#utility.yul\":5420:5421   */\n      0x00\n        /* \"#utility.yul\":5417:5418   */\n      dup1\n        /* \"#utility.yul\":5410:5422   */\n      revert\n        /* \"#utility.yul\":5434:5614   */\n    tag_244:\n        /* \"#utility.yul\":5482:5559   */\n      0x4e487b7100000000000000000000000000000000000000000000000000000000\n        /* \"#utility.yul\":5479:5480   */\n      0x00\n        /* \"#utility.yul\":5472:5560   */\n      mstore\n        /* \"#utility.yul\":5579:5583   */\n      0x41\n        /* \"#utility.yul\":5576:5577   */\n      0x04\n        /* \"#utility.yul\":5569:5584   */\n      mstore\n        /* \"#utility.yul\":5603:5607   */\n      0x24\n        /* \"#utility.yul\":5600:5601   */\n      0x00\n        /* \"#utility.yul\":5593:5608   */\n      revert\n        /* \"#utility.yul\":5620:5901   */\n    tag_245:\n        /* \"#utility.yul\":5703:5730   */\n      tag_345\n        /* \"#utility.yul\":5725:5729   */\n      dup3\n        /* \"#utility.yul\":5703:5730   */\n      tag_225\n      jump\t// in\n    tag_345:\n        /* \"#utility.yul\":5695:5701   */\n      dup2\n        /* \"#utility.yul\":5691:5731   */\n      add\n        /* \"#utility.yul\":5833:5839   */\n      dup2\n        /* \"#utility.yul\":5821:5831   */\n      dup2\n        /* \"#utility.yul\":5818:5840   */\n      lt\n        /* \"#utility.yul\":5797:5815   */\n      0xffffffffffffffff\n        /* \"#utility.yul\":5785:5795   */\n      dup3\n        /* \"#utility.yul\":5782:5816   */\n      gt\n        /* \"#utility.yul\":5779:5841   */\n      or\n        /* \"#utility.yul\":5776:5864   */\n      iszero\n      tag_346\n      jumpi\n        /* \"#utility.yul\":5844:5862   */\n      tag_347\n      tag_244\n      jump\t// in\n    tag_347:\n        /* \"#utility.yul\":5776:5864   */\n    tag_346:\n        /* \"#utility.yul\":5884:5894   */\n      dup1\n        /* \"#utility.yul\":5880:5882   */\n      0x40\n        /* \"#utility.yul\":5873:5895   */\n      mstore\n        /* \"#utility.yul\":5663:5901   */\n      pop\n        /* \"#utility.yul\":5620:5901   */\n      pop\n      pop\n      jump\t// out\n        /* \"#utility.yul\":5907:6036   */\n    tag_246:\n        /* \"#utility.yul\":5941:5947   */\n      0x00\n        /* \"#utility.yul\":5968:5988   */\n      tag_349\n      tag_227\n      jump\t// in\n    tag_349:\n        /* \"#utility.yul\":5958:5988   */\n      swap1\n      pop\n        /* \"#utility.yul\":5997:6030   */\n      tag_350\n        /* \"#utility.yul\":6025:6029   */\n      dup3\n        /* \"#utility.yul\":6017:6023   */\n      dup3\n        /* \"#utility.yul\":5997:6030   */\n      tag_245\n      jump\t// in\n    tag_350:\n        /* \"#utility.yul\":5907:6036   */\n      swap2\n      swap1\n      pop\n      jump\t// out\n        /* \"#utility.yul\":6042:6349   */\n    tag_247:\n        /* \"#utility.yul\":6103:6107   */\n      0x00\n        /* \"#utility.yul\":6193:6211   */\n      0xffffffffffffffff\n        /* \"#utility.yul\":6185:6191   */\n      dup3\n        /* \"#utility.yul\":6182:6212   */\n      gt\n        /* \"#utility.yul\":6179:6235   */\n      iszero\n      tag_352\n      jumpi\n        /* \"#utility.yul\":6215:6233   */\n      tag_353\n      tag_244\n      jump\t// in\n    tag_353:\n        /* \"#utility.yul\":6179:6235   */\n    tag_352:\n        /* \"#utility.yul\":6253:6282   */\n      tag_354\n        /* \"#utility.yul\":6275:6281   */\n      dup3\n        /* \"#utility.yul\":6253:6282   */\n      tag_225\n      jump\t// in\n    tag_354:\n        /* \"#utility.yul\":6245:6282   */\n      swap1\n      pop\n        /* \"#utility.yul\":6337:6341   */\n      0x20\n        /* \"#utility.yul\":6331:6335   */\n      dup2\n        /* \"#utility.yul\":6327:6342   */\n      add\n        /* \"#utility.yul\":6319:6342   */\n      swap1\n      pop\n        /* \"#utility.yul\":6042:6349   */\n      swap2\n      swap1\n      pop\n      jump\t// out\n        /* \"#utility.yul\":6355:6501   */\n    tag_248:\n        /* \"#utility.yul\":6452:6458   */\n      dup3\n        /* \"#utility.yul\":6447:6450   */\n      dup2\n        /* \"#utility.yul\":6442:6445   */\n      dup4\n        /* \"#utility.yul\":6429:6459   */\n      calldatacopy\n        /* \"#utility.yul\":6493:6494   */\n      0x00\n        /* \"#utility.yul\":6484:6490   */\n      dup4\n        /* \"#utility.yul\":6479:6482   */\n      dup4\n        /* \"#utility.yul\":6475:6491   */\n      add\n        /* \"#utility.yul\":6468:6495   */\n      mstore\n        /* \"#utility.yul\":6355:6501   */\n      pop\n      pop\n      pop\n      jump\t// out\n        /* \"#utility.yul\":6507:6930   */\n    tag_249:\n        /* \"#utility.yul\":6584:6589   */\n      0x00\n        /* \"#utility.yul\":6609:6674   */\n      tag_357\n        /* \"#utility.yul\":6625:6673   */\n      tag_358\n        /* \"#utility.yul\":6666:6672   */\n      dup5\n        /* \"#utility.yul\":6625:6673   */\n      tag_247\n      jump\t// in\n    tag_358:\n        /* \"#utility.yul\":6609:6674   */\n      tag_246\n      jump\t// in\n    tag_357:\n        /* \"#utility.yul\":6600:6674   */\n      swap1\n      pop\n        /* \"#utility.yul\":6697:6703   */\n      dup3\n        /* \"#utility.yul\":6690:6695   */\n      dup2\n        /* \"#utility.yul\":6683:6704   */\n      mstore\n        /* \"#utility.yul\":6735:6739   */\n      0x20\n        /* \"#utility.yul\":6728:6733   */\n      dup2\n        /* \"#utility.yul\":6724:6740   */\n      add\n        /* \"#utility.yul\":6773:6776   */\n      dup5\n        /* \"#utility.yul\":6764:6770   */\n      dup5\n        /* \"#utility.yul\":6759:6762   */\n      dup5\n        /* \"#utility.yul\":6755:6771   */\n      add\n        /* \"#utility.yul\":6752:6777   */\n      gt\n        /* \"#utility.yul\":6749:6861   */\n      iszero\n      tag_359\n      jumpi\n        /* \"#utility.yul\":6780:6859   */\n      tag_360\n      tag_243\n      jump\t// in\n    tag_360:\n        /* \"#utility.yul\":6749:6861   */\n    tag_359:\n        /* \"#utility.yul\":6870:6924   */\n      tag_361\n        /* \"#utility.yul\":6917:6923   */\n      dup5\n        /* \"#utility.yul\":6912:6915   */\n      dup3\n        /* \"#utility.yul\":6907:6910   */\n      dup6\n        /* \"#utility.yul\":6870:6924   */\n      tag_248\n      jump\t// in\n    tag_361:\n        /* \"#utility.yul\":6590:6930   */\n      pop\n        /* \"#utility.yul\":6507:6930   */\n      swap4\n      swap3\n      pop\n      pop\n      pop\n      jump\t// out\n        /* \"#utility.yul\":6949:7287   */\n    tag_250:\n        /* \"#utility.yul\":7004:7009   */\n      0x00\n        /* \"#utility.yul\":7053:7056   */\n      dup3\n        /* \"#utility.yul\":7046:7050   */\n      0x1f\n        /* \"#utility.yul\":7038:7044   */\n      dup4\n        /* \"#utility.yul\":7034:7051   */\n      add\n        /* \"#utility.yul\":7030:7057   */\n      slt\n        /* \"#utility.yul\":7020:7142   */\n      tag_363\n      jumpi\n        /* \"#utility.yul\":7061:7140   */\n      tag_364\n      tag_242\n      jump\t// in\n    tag_364:\n        /* \"#utility.yul\":7020:7142   */\n    tag_363:\n        /* \"#utility.yul\":7178:7184   */\n      dup2\n        /* \"#utility.yul\":7165:7185   */\n      calldataload\n        /* \"#utility.yul\":7203:7281   */\n      tag_365\n        /* \"#utility.yul\":7277:7280   */\n      dup5\n        /* \"#utility.yul\":7269:7275   */\n      dup3\n        /* \"#utility.yul\":7262:7266   */\n      0x20\n        /* \"#utility.yul\":7254:7260   */\n      dup7\n        /* \"#utility.yul\":7250:7267   */\n      add\n        /* \"#utility.yul\":7203:7281   */\n      tag_249\n      jump\t// in\n    tag_365:\n        /* \"#utility.yul\":7194:7281   */\n      swap2\n      pop\n        /* \"#utility.yul\":7010:7287   */\n      pop\n        /* \"#utility.yul\":6949:7287   */\n      swap3\n      swap2\n      pop\n      pop\n      jump\t// out\n        /* \"#utility.yul\":7293:8236   */\n    tag_76:\n        /* \"#utility.yul\":7388:7394   */\n      0x00\n        /* \"#utility.yul\":7396:7402   */\n      dup1\n        /* \"#utility.yul\":7404:7410   */\n      0x00\n        /* \"#utility.yul\":7412:7418   */\n      dup1\n        /* \"#utility.yul\":7461:7464   */\n      0x80\n        /* \"#utility.yul\":7449:7458   */\n      dup6\n        /* \"#utility.yul\":7440:7447   */\n      dup8\n        /* \"#utility.yul\":7436:7459   */\n      sub\n        /* \"#utility.yul\":7432:7465   */\n      slt\n        /* \"#utility.yul\":7429:7549   */\n      iszero\n      tag_367\n      jumpi\n        /* \"#utility.yul\":7468:7547   */\n      tag_368\n      tag_228\n      jump\t// in\n    tag_368:\n        /* \"#utility.yul\":7429:7549   */\n    tag_367:\n        /* \"#utility.yul\":7588:7589   */\n      0x00\n        /* \"#utility.yul\":7613:7666   */\n      tag_369\n        /* \"#utility.yul\":7658:7665   */\n      dup8\n        /* \"#utility.yul\":7649:7655   */\n      dup3\n        /* \"#utility.yul\":7638:7647   */\n      dup9\n        /* \"#utility.yul\":7634:7656   */\n      add\n        /* \"#utility.yul\":7613:7666   */\n      tag_233\n      jump\t// in\n    tag_369:\n        /* \"#utility.yul\":7603:7666   */\n      swap5\n      pop\n        /* \"#utility.yul\":7559:7676   */\n      pop\n        /* \"#utility.yul\":7715:7717   */\n      0x20\n        /* \"#utility.yul\":7741:7794   */\n      tag_370\n        /* \"#utility.yul\":7786:7793   */\n      dup8\n        /* \"#utility.yul\":7777:7783   */\n      dup3\n        /* \"#utility.yul\":7766:7775   */\n      dup9\n        /* \"#utility.yul\":7762:7784   */\n      add\n        /* \"#utility.yul\":7741:7794   */\n      tag_233\n      jump\t// in\n    tag_370:\n        /* \"#utility.yul\":7731:7794   */\n      swap4\n      pop\n        /* \"#utility.yul\":7686:7804   */\n      pop\n        /* \"#utility.yul\":7843:7845   */\n      0x40\n        /* \"#utility.yul\":7869:7922   */\n      tag_371\n        /* \"#utility.yul\":7914:7921   */\n      dup8\n        /* \"#utility.yul\":7905:7911   */\n      dup3\n        /* \"#utility.yul\":7894:7903   */\n      dup9\n        /* \"#utility.yul\":7890:7912   */\n      add\n        /* \"#utility.yul\":7869:7922   */\n      tag_236\n      jump\t// in\n    tag_371:\n        /* \"#utility.yul\":7859:7922   */\n      swap3\n      pop\n        /* \"#utility.yul\":7814:7932   */\n      pop\n        /* \"#utility.yul\":7999:8001   */\n      0x60\n        /* \"#utility.yul\":7988:7997   */\n      dup6\n        /* \"#utility.yul\":7984:8002   */\n      add\n        /* \"#utility.yul\":7971:8003   */\n      calldataload\n        /* \"#utility.yul\":8030:8048   */\n      0xffffffffffffffff\n        /* \"#utility.yul\":8022:8028   */\n      dup2\n        /* \"#utility.yul\":8019:8049   */\n      gt\n        /* \"#utility.yul\":8016:8133   */\n      iszero\n      tag_372\n      jumpi\n        /* \"#utility.yul\":8052:8131   */\n      tag_373\n      tag_229\n      jump\t// in\n    tag_373:\n        /* \"#utility.yul\":8016:8133   */\n    tag_372:\n        /* \"#utility.yul\":8157:8219   */\n      tag_374\n        /* \"#utility.yul\":8211:8218   */\n      dup8\n        /* \"#utility.yul\":8202:8208   */\n      dup3\n        /* \"#utility.yul\":8191:8200   */\n      dup9\n        /* \"#utility.yul\":8187:8209   */\n      add\n        /* \"#utility.yul\":8157:8219   */\n      tag_250\n      jump\t// in\n    tag_374:\n        /* \"#utility.yul\":8147:8219   */\n      swap2\n      pop\n        /* \"#utility.yul\":7942:8229   */\n      pop\n        /* \"#utility.yul\":7293:8236   */\n      swap3\n      swap6\n      swap2\n      swap5\n      pop\n      swap3\n      pop\n      jump\t// out\n        /* \"#utility.yul\":8242:8716   */\n    tag_80:\n        /* \"#utility.yul\":8310:8316   */\n      0x00\n        /* \"#utility.yul\":8318:8324   */\n      dup1\n        /* \"#utility.yul\":8367:8369   */\n      0x40\n        /* \"#utility.yul\":8355:8364   */\n      dup4\n        /* \"#utility.yul\":8346:8353   */\n      dup6\n        /* \"#utility.yul\":8342:8365   */\n      sub\n        /* \"#utility.yul\":8338:8370   */\n      slt\n        /* \"#utility.yul\":8335:8454   */\n      iszero\n      tag_376\n      jumpi\n        /* \"#utility.yul\":8373:8452   */\n      tag_377\n      tag_228\n      jump\t// in\n    tag_377:\n        /* \"#utility.yul\":8335:8454   */\n    tag_376:\n        /* \"#utility.yul\":8493:8494   */\n      0x00\n        /* \"#utility.yul\":8518:8571   */\n      tag_378\n        /* \"#utility.yul\":8563:8570   */\n      dup6\n        /* \"#utility.yul\":8554:8560   */\n      dup3\n        /* \"#utility.yul\":8543:8552   */\n      dup7\n        /* \"#utility.yul\":8539:8561   */\n      add\n        /* \"#utility.yul\":8518:8571   */\n      tag_233\n      jump\t// in\n    tag_378:\n        /* \"#utility.yul\":8508:8571   */\n      swap3\n      pop\n        /* \"#utility.yul\":8464:8581   */\n      pop\n        /* \"#utility.yul\":8620:8622   */\n      0x20\n        /* \"#utility.yul\":8646:8699   */\n      tag_379\n        /* \"#utility.yul\":8691:8698   */\n      dup6\n        /* \"#utility.yul\":8682:8688   */\n      dup3\n        /* \"#utility.yul\":8671:8680   */\n      dup7\n        /* \"#utility.yul\":8667:8689   */\n      add\n        /* \"#utility.yul\":8646:8699   */\n      tag_233\n      jump\t// in\n    tag_379:\n        /* \"#utility.yul\":8636:8699   */\n      swap2\n      pop\n        /* \"#utility.yul\":8591:8709   */\n      pop\n        /* \"#utility.yul\":8242:8716   */\n      swap3\n      pop\n      swap3\n      swap1\n      pop\n      jump\t// out\n        /* \"#utility.yul\":8722:9519   */\n    tag_85:\n        /* \"#utility.yul\":8808:8814   */\n      0x00\n        /* \"#utility.yul\":8816:8822   */\n      dup1\n        /* \"#utility.yul\":8824:8830   */\n      0x00\n        /* \"#utility.yul\":8873:8875   */\n      0x60\n        /* \"#utility.yul\":8861:8870   */\n      dup5\n        /* \"#utility.yul\":8852:8859   */\n      dup7\n        /* \"#utility.yul\":8848:8871   */\n      sub\n        /* \"#utility.yul\":8844:8876   */\n      slt\n        /* \"#utility.yul\":8841:8960   */\n      iszero\n      tag_381\n      jumpi\n        /* \"#utility.yul\":8879:8958   */\n      tag_382\n      tag_228\n      jump\t// in\n    tag_382:\n        /* \"#utility.yul\":8841:8960   */\n    tag_381:\n        /* \"#utility.yul\":8999:9000   */\n      0x00\n        /* \"#utility.yul\":9024:9077   */\n      tag_383\n        /* \"#utility.yul\":9069:9076   */\n      dup7\n        /* \"#utility.yul\":9060:9066   */\n      dup3\n        /* \"#utility.yul\":9049:9058   */\n      dup8\n        /* \"#utility.yul\":9045:9067   */\n      add\n        /* \"#utility.yul\":9024:9077   */\n      tag_233\n      jump\t// in\n    tag_383:\n        /* \"#utility.yul\":9014:9077   */\n      swap4\n      pop\n        /* \"#utility.yul\":8970:9087   */\n      pop\n        /* \"#utility.yul\":9126:9128   */\n      0x20\n        /* \"#utility.yul\":9152:9205   */\n      tag_384\n        /* \"#utility.yul\":9197:9204   */\n      dup7\n        /* \"#utility.yul\":9188:9194   */\n      dup3\n        /* \"#utility.yul\":9177:9186   */\n      dup8\n        /* \"#utility.yul\":9173:9195   */\n      add\n        /* \"#utility.yul\":9152:9205   */\n      tag_236\n      jump\t// in\n    tag_384:\n        /* \"#utility.yul\":9142:9205   */\n      swap3\n      pop\n        /* \"#utility.yul\":9097:9215   */\n      pop\n        /* \"#utility.yul\":9282:9284   */\n      0x40\n        /* \"#utility.yul\":9271:9280   */\n      dup5\n        /* \"#utility.yul\":9267:9285   */\n      add\n        /* \"#utility.yul\":9254:9286   */\n      calldataload\n        /* \"#utility.yul\":9313:9331   */\n      0xffffffffffffffff\n        /* \"#utility.yul\":9305:9311   */\n      dup2\n        /* \"#utility.yul\":9302:9332   */\n      gt\n        /* \"#utility.yul\":9299:9416   */\n      iszero\n      tag_385\n      jumpi\n        /* \"#utility.yul\":9335:9414   */\n      tag_386\n      tag_229\n      jump\t// in\n    tag_386:\n        /* \"#utility.yul\":9299:9416   */\n    tag_385:\n        /* \"#utility.yul\":9440:9502   */\n      tag_387\n        /* \"#utility.yul\":9494:9501   */\n      dup7\n        /* \"#utility.yul\":9485:9491   */\n      dup3\n        /* \"#utility.yul\":9474:9483   */\n      dup8\n        /* \"#utility.yul\":9470:9492   */\n      add\n        /* \"#utility.yul\":9440:9502   */\n      tag_250\n      jump\t// in\n    tag_387:\n        /* \"#utility.yul\":9430:9502   */\n      swap2\n      pop\n        /* \"#utility.yul\":9225:9512   */\n      pop\n        /* \"#utility.yul\":8722:9519   */\n      swap3\n      pop\n      swap3\n      pop\n      swap3\n      jump\t// out\n        /* \"#utility.yul\":9525:9705   */\n    tag_251:\n        /* \"#utility.yul\":9573:9650   */\n      0x4e487b7100000000000000000000000000000000000000000000000000000000\n        /* \"#utility.yul\":9570:9571   */\n      0x00\n        /* \"#utility.yul\":9563:9651   */\n      mstore\n        /* \"#utility.yul\":9670:9674   */\n      0x22\n        /* \"#utility.yul\":9667:9668   */\n      0x04\n        /* \"#utility.yul\":9660:9675   */\n      mstore\n        /* \"#utility.yul\":9694:9698   */\n      0x24\n        /* \"#utility.yul\":9691:9692   */\n      0x00\n        /* \"#utility.yul\":9684:9699   */\n      revert\n        /* \"#utility.yul\":9711:10031   */\n    tag_89:\n        /* \"#utility.yul\":9755:9761   */\n      0x00\n        /* \"#utility.yul\":9792:9793   */\n      0x02\n        /* \"#utility.yul\":9786:9790   */\n      dup3\n        /* \"#utility.yul\":9782:9794   */\n      div\n        /* \"#utility.yul\":9772:9794   */\n      swap1\n      pop\n        /* \"#utility.yul\":9839:9840   */\n      0x01\n        /* \"#utility.yul\":9833:9837   */\n      dup3\n        /* \"#utility.yul\":9829:9841   */\n      and\n        /* \"#utility.yul\":9860:9878   */\n      dup1\n        /* \"#utility.yul\":9850:9931   */\n      tag_390\n      jumpi\n        /* \"#utility.yul\":9916:9920   */\n      0x7f\n        /* \"#utility.yul\":9908:9914   */\n      dup3\n        /* \"#utility.yul\":9904:9921   */\n      and\n        /* \"#utility.yul\":9894:9921   */\n      swap2\n      pop\n        /* \"#utility.yul\":9850:9931   */\n    tag_390:\n        /* \"#utility.yul\":9978:9980   */\n      0x20\n        /* \"#utility.yul\":9970:9976   */\n      dup3\n        /* \"#utility.yul\":9967:9981   */\n      lt\n        /* \"#utility.yul\":9947:9965   */\n      dup2\n        /* \"#utility.yul\":9944:9982   */\n      sub\n        /* \"#utility.yul\":9941:10025   */\n      tag_391\n      jumpi\n        /* \"#utility.yul\":9997:10015   */\n      tag_392\n      tag_251\n      jump\t// in\n    tag_392:\n        /* \"#utility.yul\":9941:10025   */\n    tag_391:\n        /* \"#utility.yul\":9762:10031   */\n      pop\n        /* \"#utility.yul\":9711:10031   */\n      swap2\n      swap1\n      pop\n      jump\t// out\n        /* \"#utility.yul\":10037:10217   */\n    tag_252:\n        /* \"#utility.yul\":10085:10162   */\n      0x4e487b7100000000000000000000000000000000000000000000000000000000\n        /* \"#utility.yul\":10082:10083   */\n      0x00\n        /* \"#utility.yul\":10075:10163   */\n      mstore\n        /* \"#utility.yul\":10182:10186   */\n      0x11\n        /* \"#utility.yul\":10179:10180   */\n      0x04\n        /* \"#utility.yul\":10172:10187   */\n      mstore\n        /* \"#utility.yul\":10206:10210   */\n      0x24\n        /* \"#utility.yul\":10203:10204   */\n      0x00\n        /* \"#utility.yul\":10196:10211   */\n      revert\n        /* \"#utility.yul\":10223:10414   */\n    tag_112:\n        /* \"#utility.yul\":10263:10266   */\n      0x00\n        /* \"#utility.yul\":10282:10302   */\n      tag_395\n        /* \"#utility.yul\":10300:10301   */\n      dup3\n        /* \"#utility.yul\":10282:10302   */\n      tag_234\n      jump\t// in\n    tag_395:\n        /* \"#utility.yul\":10277:10302   */\n      swap2\n      pop\n        /* \"#utility.yul\":10316:10336   */\n      tag_396\n        /* \"#utility.yul\":10334:10335   */\n      dup4\n        /* \"#utility.yul\":10316:10336   */\n      tag_234\n      jump\t// in\n    tag_396:\n        /* \"#utility.yul\":10311:10336   */\n      swap3\n      pop\n        /* \"#utility.yul\":10359:10360   */\n      dup3\n        /* \"#utility.yul\":10356:10357   */\n      dup3\n        /* \"#utility.yul\":10352:10361   */\n      add\n        /* \"#utility.yul\":10345:10361   */\n      swap1\n      pop\n        /* \"#utility.yul\":10380:10383   */\n      dup1\n        /* \"#utility.yul\":10377:10378   */\n      dup3\n        /* \"#utility.yul\":10374:10384   */\n      gt\n        /* \"#utility.yul\":10371:10407   */\n      iszero\n      tag_397\n      jumpi\n        /* \"#utility.yul\":10387:10405   */\n      tag_398\n      tag_252\n      jump\t// in\n    tag_398:\n        /* \"#utility.yul\":10371:10407   */\n    tag_397:\n        /* \"#utility.yul\":10223:10414   */\n      swap3\n      swap2\n      pop\n      pop\n      jump\t// out\n        /* \"#utility.yul\":10420:10643   */\n    tag_253:\n        /* \"#utility.yul\":10560:10594   */\n      0x4b4950373a2064656372656173656420616c6c6f77616e63652062656c6f7720\n        /* \"#utility.yul\":10556:10557   */\n      0x00\n        /* \"#utility.yul\":10548:10554   */\n      dup3\n        /* \"#utility.yul\":10544:10558   */\n      add\n        /* \"#utility.yul\":10537:10595   */\n      mstore\n        /* \"#utility.yul\":10629:10635   */\n      0x7a65726f00000000000000000000000000000000000000000000000000000000\n        /* \"#utility.yul\":10624:10626   */\n      0x20\n        /* \"#utility.yul\":10616:10622   */\n      dup3\n        /* \"#utility.yul\":10612:10627   */\n      add\n        /* \"#utility.yul\":10605:10636   */\n      mstore\n        /* \"#utility.yul\":10420:10643   */\n      pop\n      jump\t// out\n        /* \"#utility.yul\":10649:11015   */\n    tag_254:\n        /* \"#utility.yul\":10791:10794   */\n      0x00\n        /* \"#utility.yul\":10812:10879   */\n      tag_401\n        /* \"#utility.yul\":10876:10878   */\n      0x24\n        /* \"#utility.yul\":10871:10874   */\n      dup4\n        /* \"#utility.yul\":10812:10879   */\n      tag_223\n      jump\t// in\n    tag_401:\n        /* \"#utility.yul\":10805:10879   */\n      swap2\n      pop\n        /* \"#utility.yul\":10888:10981   */\n      tag_402\n        /* \"#utility.yul\":10977:10980   */\n      dup3\n        /* \"#utility.yul\":10888:10981   */\n      tag_253\n      jump\t// in\n    tag_402:\n        /* \"#utility.yul\":11006:11008   */\n      0x40\n        /* \"#utility.yul\":11001:11004   */\n      dup3\n        /* \"#utility.yul\":10997:11009   */\n      add\n        /* \"#utility.yul\":10990:11009   */\n      swap1\n      pop\n        /* \"#utility.yul\":10649:11015   */\n      swap2\n      swap1\n      pop\n      jump\t// out\n        /* \"#utility.yul\":11021:11440   */\n    tag_136:\n        /* \"#utility.yul\":11187:11191   */\n      0x00\n        /* \"#utility.yul\":11225:11227   */\n      0x20\n        /* \"#utility.yul\":11214:11223   */\n      dup3\n        /* \"#utility.yul\":11210:11228   */\n      add\n        /* \"#utility.yul\":11202:11228   */\n      swap1\n      pop\n        /* \"#utility.yul\":11274:11283   */\n      dup2\n        /* \"#utility.yul\":11268:11272   */\n      dup2\n        /* \"#utility.yul\":11264:11284   */\n      sub\n        /* \"#utility.yul\":11260:11261   */\n      0x00\n        /* \"#utility.yul\":11249:11258   */\n      dup4\n        /* \"#utility.yul\":11245:11262   */\n      add\n        /* \"#utility.yul\":11238:11285   */\n      mstore\n        /* \"#utility.yul\":11302:11433   */\n      tag_404\n        /* \"#utility.yul\":11428:11432   */\n      dup2\n        /* \"#utility.yul\":11302:11433   */\n      tag_254\n      jump\t// in\n    tag_404:\n        /* \"#utility.yul\":11294:11433   */\n      swap1\n      pop\n        /* \"#utility.yul\":11021:11440   */\n      swap2\n      swap1\n      pop\n      jump\t// out\n        /* \"#utility.yul\":11446:11668   */\n    tag_255:\n        /* \"#utility.yul\":11586:11620   */\n      0x4b4950373a20617070726f76652066726f6d20746865207a65726f2061646472\n        /* \"#utility.yul\":11582:11583   */\n      0x00\n        /* \"#utility.yul\":11574:11580   */\n      dup3\n        /* \"#utility.yul\":11570:11584   */\n      add\n        /* \"#utility.yul\":11563:11621   */\n      mstore\n        /* \"#utility.yul\":11655:11660   */\n      0x6573730000000000000000000000000000000000000000000000000000000000\n        /* \"#utility.yul\":11650:11652   */\n      0x20\n        /* \"#utility.yul\":11642:11648   */\n      dup3\n        /* \"#utility.yul\":11638:11653   */\n      add\n        /* \"#utility.yul\":11631:11661   */\n      mstore\n        /* \"#utility.yul\":11446:11668   */\n      pop\n      jump\t// out\n        /* \"#utility.yul\":11674:12040   */\n    tag_256:\n        /* \"#utility.yul\":11816:11819   */\n      0x00\n        /* \"#utility.yul\":11837:11904   */\n      tag_407\n        /* \"#utility.yul\":11901:11903   */\n      0x23\n        /* \"#utility.yul\":11896:11899   */\n      dup4\n        /* \"#utility.yul\":11837:11904   */\n      tag_223\n      jump\t// in\n    tag_407:\n        /* \"#utility.yul\":11830:11904   */\n      swap2\n      pop\n        /* \"#utility.yul\":11913:12006   */\n      tag_408\n        /* \"#utility.yul\":12002:12005   */\n      dup3\n        /* \"#utility.yul\":11913:12006   */\n      tag_255\n      jump\t// in\n    tag_408:\n        /* \"#utility.yul\":12031:12033   */\n      0x40\n        /* \"#utility.yul\":12026:12029   */\n      dup3\n        /* \"#utility.yul\":12022:12034   */\n      add\n        /* \"#utility.yul\":12015:12034   */\n      swap1\n      pop\n        /* \"#utility.yul\":11674:12040   */\n      swap2\n      swap1\n      pop\n      jump\t// out\n        /* \"#utility.yul\":12046:12465   */\n    tag_153:\n        /* \"#utility.yul\":12212:12216   */\n      0x00\n        /* \"#utility.yul\":12250:12252   */\n      0x20\n        /* \"#utility.yul\":12239:12248   */\n      dup3\n        /* \"#utility.yul\":12235:12253   */\n      add\n        /* \"#utility.yul\":12227:12253   */\n      swap1\n      pop\n        /* \"#utility.yul\":12299:12308   */\n      dup2\n        /* \"#utility.yul\":12293:12297   */\n      dup2\n        /* \"#utility.yul\":12289:12309   */\n      sub\n        /* \"#utility.yul\":12285:12286   */\n      0x00\n        /* \"#utility.yul\":12274:12283   */\n      dup4\n        /* \"#utility.yul\":12270:12287   */\n      add\n        /* \"#utility.yul\":12263:12310   */\n      mstore\n        /* \"#utility.yul\":12327:12458   */\n      tag_410\n        /* \"#utility.yul\":12453:12457   */\n      dup2\n        /* \"#utility.yul\":12327:12458   */\n      tag_256\n      jump\t// in\n    tag_410:\n        /* \"#utility.yul\":12319:12458   */\n      swap1\n      pop\n        /* \"#utility.yul\":12046:12465   */\n      swap2\n      swap1\n      pop\n      jump\t// out\n        /* \"#utility.yul\":12471:12691   */\n    tag_257:\n        /* \"#utility.yul\":12611:12645   */\n      0x4b4950373a20617070726f766520746f20746865207a65726f20616464726573\n        /* \"#utility.yul\":12607:12608   */\n      0x00\n        /* \"#utility.yul\":12599:12605   */\n      dup3\n        /* \"#utility.yul\":12595:12609   */\n      add\n        /* \"#utility.yul\":12588:12646   */\n      mstore\n        /* \"#utility.yul\":12680:12683   */\n      0x7300000000000000000000000000000000000000000000000000000000000000\n        /* \"#utility.yul\":12675:12677   */\n      0x20\n        /* \"#utility.yul\":12667:12673   */\n      dup3\n        /* \"#utility.yul\":12663:12678   */\n      add\n        /* \"#utility.yul\":12656:12684   */\n      mstore\n        /* \"#utility.yul\":12471:12691   */\n      pop\n      jump\t// out\n        /* \"#utility.yul\":12697:13063   */\n    tag_258:\n        /* \"#utility.yul\":12839:12842   */\n      0x00\n        /* \"#utility.yul\":12860:12927   */\n      tag_413\n        /* \"#utility.yul\":12924:12926   */\n      0x21\n        /* \"#utility.yul\":12919:12922   */\n      dup4\n        /* \"#utility.yul\":12860:12927   */\n      tag_223\n      jump\t// in\n    tag_413:\n        /* \"#utility.yul\":12853:12927   */\n      swap2\n      pop\n        /* \"#utility.yul\":12936:13029   */\n      tag_414\n        /* \"#utility.yul\":13025:13028   */\n      dup3\n        /* \"#utility.yul\":12936:13029   */\n      tag_257\n      jump\t// in\n    tag_414:\n        /* \"#utility.yul\":13054:13056   */\n      0x40\n        /* \"#utility.yul\":13049:13052   */\n      dup3\n        /* \"#utility.yul\":13045:13057   */\n      add\n        /* \"#utility.yul\":13038:13057   */\n      swap1\n      pop\n        /* \"#utility.yul\":12697:13063   */\n      swap2\n      swap1\n      pop\n      jump\t// out\n        /* \"#utility.yul\":13069:13488   */\n    tag_156:\n        /* \"#utility.yul\":13235:13239   */\n      0x00\n        /* \"#utility.yul\":13273:13275   */\n      0x20\n        /* \"#utility.yul\":13262:13271   */\n      dup3\n        /* \"#utility.yul\":13258:13276   */\n      add\n        /* \"#utility.yul\":13250:13276   */\n      swap1\n      pop\n        /* \"#utility.yul\":13322:13331   */\n      dup2\n        /* \"#utility.yul\":13316:13320   */\n      dup2\n        /* \"#utility.yul\":13312:13332   */\n      sub\n        /* \"#utility.yul\":13308:13309   */\n      0x00\n        /* \"#utility.yul\":13297:13306   */\n      dup4\n        /* \"#utility.yul\":13293:13310   */\n      add\n        /* \"#utility.yul\":13286:13333   */\n      mstore\n        /* \"#utility.yul\":13350:13481   */\n      tag_416\n        /* \"#utility.yul\":13476:13480   */\n      dup2\n        /* \"#utility.yul\":13350:13481   */\n      tag_258\n      jump\t// in\n    tag_416:\n        /* \"#utility.yul\":13342:13481   */\n      swap1\n      pop\n        /* \"#utility.yul\":13069:13488   */\n      swap2\n      swap1\n      pop\n      jump\t// out\n        /* \"#utility.yul\":13494:13672   */\n    tag_259:\n        /* \"#utility.yul\":13634:13664   */\n      0x4b4950373a20696e73756666696369656e7420616c6c6f77616e636500000000\n        /* \"#utility.yul\":13630:13631   */\n      0x00\n        /* \"#utility.yul\":13622:13628   */\n      dup3\n        /* \"#utility.yul\":13618:13632   */\n      add\n        /* \"#utility.yul\":13611:13665   */\n      mstore\n        /* \"#utility.yul\":13494:13672   */\n      pop\n      jump\t// out\n        /* \"#utility.yul\":13678:14044   */\n    tag_260:\n        /* \"#utility.yul\":13820:13823   */\n      0x00\n        /* \"#utility.yul\":13841:13908   */\n      tag_419\n        /* \"#utility.yul\":13905:13907   */\n      0x1c\n        /* \"#utility.yul\":13900:13903   */\n      dup4\n        /* \"#utility.yul\":13841:13908   */\n      tag_223\n      jump\t// in\n    tag_419:\n        /* \"#utility.yul\":13834:13908   */\n      swap2\n      pop\n        /* \"#utility.yul\":13917:14010   */\n      tag_420\n        /* \"#utility.yul\":14006:14009   */\n      dup3\n        /* \"#utility.yul\":13917:14010   */\n      tag_259\n      jump\t// in\n    tag_420:\n        /* \"#utility.yul\":14035:14037   */\n      0x20\n        /* \"#utility.yul\":14030:14033   */\n      dup3\n        /* \"#utility.yul\":14026:14038   */\n      add\n        /* \"#utility.yul\":14019:14038   */\n      swap1\n      pop\n        /* \"#utility.yul\":13678:14044   */\n      swap2\n      swap1\n      pop\n      jump\t// out\n        /* \"#utility.yul\":14050:14469   */\n    tag_163:\n        /* \"#utility.yul\":14216:14220   */\n      0x00\n        /* \"#utility.yul\":14254:14256   */\n      0x20\n        /* \"#utility.yul\":14243:14252   */\n      dup3\n        /* \"#utility.yul\":14239:14257   */\n      add\n        /* \"#utility.yul\":14231:14257   */\n      swap1\n      pop\n        /* \"#utility.yul\":14303:14312   */\n      dup2\n        /* \"#utility.yul\":14297:14301   */\n      dup2\n        /* \"#utility.yul\":14293:14313   */\n      sub\n        /* \"#utility.yul\":14289:14290   */\n      0x00\n        /* \"#utility.yul\":14278:14287   */\n      dup4\n        /* \"#utility.yul\":14274:14291   */\n      add\n        /* \"#utility.yul\":14267:14314   */\n      mstore\n        /* \"#utility.yul\":14331:14462   */\n      tag_422\n        /* \"#utility.yul\":14457:14461   */\n      dup2\n        /* \"#utility.yul\":14331:14462   */\n      tag_260\n      jump\t// in\n    tag_422:\n        /* \"#utility.yul\":14323:14462   */\n      swap1\n      pop\n        /* \"#utility.yul\":14050:14469   */\n      swap2\n      swap1\n      pop\n      jump\t// out\n        /* \"#utility.yul\":14475:14698   */\n    tag_261:\n        /* \"#utility.yul\":14615:14649   */\n      0x4b4950373a207472616e736665722066726f6d20746865207a65726f20616464\n        /* \"#utility.yul\":14611:14612   */\n      0x00\n        /* \"#utility.yul\":14603:14609   */\n      dup3\n        /* \"#utility.yul\":14599:14613   */\n      add\n        /* \"#utility.yul\":14592:14650   */\n      mstore\n        /* \"#utility.yul\":14684:14690   */\n      0x7265737300000000000000000000000000000000000000000000000000000000\n        /* \"#utility.yul\":14679:14681   */\n      0x20\n        /* \"#utility.yul\":14671:14677   */\n      dup3\n        /* \"#utility.yul\":14667:14682   */\n      add\n        /* \"#utility.yul\":14660:14691   */\n      mstore\n        /* \"#utility.yul\":14475:14698   */\n      pop\n      jump\t// out\n        /* \"#utility.yul\":14704:15070   */\n    tag_262:\n        /* \"#utility.yul\":14846:14849   */\n      0x00\n        /* \"#utility.yul\":14867:14934   */\n      tag_425\n        /* \"#utility.yul\":14931:14933   */\n      0x24\n        /* \"#utility.yul\":14926:14929   */\n      dup4\n        /* \"#utility.yul\":14867:14934   */\n      tag_223\n      jump\t// in\n    tag_425:\n        /* \"#utility.yul\":14860:14934   */\n      swap2\n      pop\n        /* \"#utility.yul\":14943:15036   */\n      tag_426\n        /* \"#utility.yul\":15032:15035   */\n      dup3\n        /* \"#utility.yul\":14943:15036   */\n      tag_261\n      jump\t// in\n    tag_426:\n        /* \"#utility.yul\":15061:15063   */\n      0x40\n        /* \"#utility.yul\":15056:15059   */\n      dup3\n        /* \"#utility.yul\":15052:15064   */\n      add\n        /* \"#utility.yul\":15045:15064   */\n      swap1\n      pop\n        /* \"#utility.yul\":14704:15070   */\n      swap2\n      swap1\n      pop\n      jump\t// out\n        /* \"#utility.yul\":15076:15495   */\n    tag_168:\n        /* \"#utility.yul\":15242:15246   */\n      0x00\n        /* \"#utility.yul\":15280:15282   */\n      0x20\n        /* \"#utility.yul\":15269:15278   */\n      dup3\n        /* \"#utility.yul\":15265:15283   */\n      add\n        /* \"#utility.yul\":15257:15283   */\n      swap1\n      pop\n        /* \"#utility.yul\":15329:15338   */\n      dup2\n        /* \"#utility.yul\":15323:15327   */\n      dup2\n        /* \"#utility.yul\":15319:15339   */\n      sub\n        /* \"#utility.yul\":15315:15316   */\n      0x00\n        /* \"#utility.yul\":15304:15313   */\n      dup4\n        /* \"#utility.yul\":15300:15317   */\n      add\n        /* \"#utility.yul\":15293:15340   */\n      mstore\n        /* \"#utility.yul\":15357:15488   */\n      tag_428\n        /* \"#utility.yul\":15483:15487   */\n      dup2\n        /* \"#utility.yul\":15357:15488   */\n      tag_262\n      jump\t// in\n    tag_428:\n        /* \"#utility.yul\":15349:15488   */\n      swap1\n      pop\n        /* \"#utility.yul\":15076:15495   */\n      swap2\n      swap1\n      pop\n      jump\t// out\n        /* \"#utility.yul\":15501:15722   */\n    tag_263:\n        /* \"#utility.yul\":15641:15675   */\n      0x4b4950373a207472616e7366657220746f20746865207a65726f206164647265\n        /* \"#utility.yul\":15637:15638   */\n      0x00\n        /* \"#utility.yul\":15629:15635   */\n      dup3\n        /* \"#utility.yul\":15625:15639   */\n      add\n        /* \"#utility.yul\":15618:15676   */\n      mstore\n        /* \"#utility.yul\":15710:15714   */\n      0x7373000000000000000000000000000000000000000000000000000000000000\n        /* \"#utility.yul\":15705:15707   */\n      0x20\n        /* \"#utility.yul\":15697:15703   */\n      dup3\n        /* \"#utility.yul\":15693:15708   */\n      add\n        /* \"#utility.yul\":15686:15715   */\n      mstore\n        /* \"#utility.yul\":15501:15722   */\n      pop\n      jump\t// out\n        /* \"#utility.yul\":15728:16094   */\n    tag_264:\n        /* \"#utility.yul\":15870:15873   */\n      0x00\n        /* \"#utility.yul\":15891:15958   */\n      tag_431\n        /* \"#utility.yul\":15955:15957   */\n      0x22\n        /* \"#utility.yul\":15950:15953   */\n      dup4\n        /* \"#utility.yul\":15891:15958   */\n      tag_223\n      jump\t// in\n    tag_431:\n        /* \"#utility.yul\":15884:15958   */\n      swap2\n      pop\n        /* \"#utility.yul\":15967:16060   */\n      tag_432\n        /* \"#utility.yul\":16056:16059   */\n      dup3\n        /* \"#utility.yul\":15967:16060   */\n      tag_263\n      jump\t// in\n    tag_432:\n        /* \"#utility.yul\":16085:16087   */\n      0x40\n        /* \"#utility.yul\":16080:16083   */\n      dup3\n        /* \"#utility.yul\":16076:16088   */\n      add\n        /* \"#utility.yul\":16069:16088   */\n      swap1\n      pop\n        /* \"#utility.yul\":15728:16094   */\n      swap2\n      swap1\n      pop\n      jump\t// out\n        /* \"#utility.yul\":16100:16519   */\n    tag_171:\n        /* \"#utility.yul\":16266:16270   */\n      0x00\n        /* \"#utility.yul\":16304:16306   */\n      0x20\n        /* \"#utility.yul\":16293:16302   */\n      dup3\n        /* \"#utility.yul\":16289:16307   */\n      add\n        /* \"#utility.yul\":16281:16307   */\n      swap1\n      pop\n        /* \"#utility.yul\":16353:16362   */\n      dup2\n        /* \"#utility.yul\":16347:16351   */\n      dup2\n        /* \"#utility.yul\":16343:16363   */\n      sub\n        /* \"#utility.yul\":16339:16340   */\n      0x00\n        /* \"#utility.yul\":16328:16337   */\n      dup4\n        /* \"#utility.yul\":16324:16341   */\n      add\n        /* \"#utility.yul\":16317:16364   */\n      mstore\n        /* \"#utility.yul\":16381:16512   */\n      tag_434\n        /* \"#utility.yul\":16507:16511   */\n      dup2\n        /* \"#utility.yul\":16381:16512   */\n      tag_264\n      jump\t// in\n    tag_434:\n        /* \"#utility.yul\":16373:16512   */\n      swap1\n      pop\n        /* \"#utility.yul\":16100:16519   */\n      swap2\n      swap1\n      pop\n      jump\t// out\n        /* \"#utility.yul\":16525:16749   */\n    tag_265:\n        /* \"#utility.yul\":16665:16699   */\n      0x4b4950373a207472616e7366657220616d6f756e742065786365656473206261\n        /* \"#utility.yul\":16661:16662   */\n      0x00\n        /* \"#utility.yul\":16653:16659   */\n      dup3\n        /* \"#utility.yul\":16649:16663   */\n      add\n        /* \"#utility.yul\":16642:16700   */\n      mstore\n        /* \"#utility.yul\":16734:16741   */\n      0x6c616e6365000000000000000000000000000000000000000000000000000000\n        /* \"#utility.yul\":16729:16731   */\n      0x20\n        /* \"#utility.yul\":16721:16727   */\n      dup3\n        /* \"#utility.yul\":16717:16732   */\n      add\n        /* \"#utility.yul\":16710:16742   */\n      mstore\n        /* \"#utility.yul\":16525:16749   */\n      pop\n      jump\t// out\n        /* \"#utility.yul\":16755:17121   */\n    tag_266:\n        /* \"#utility.yul\":16897:16900   */\n      0x00\n        /* \"#utility.yul\":16918:16985   */\n      tag_437\n        /* \"#utility.yul\":16982:16984   */\n      0x25\n        /* \"#utility.yul\":16977:16980   */\n      dup4\n        /* \"#utility.yul\":16918:16985   */\n      tag_223\n      jump\t// in\n    tag_437:\n        /* \"#utility.yul\":16911:16985   */\n      swap2\n      pop\n        /* \"#utility.yul\":16994:17087   */\n      tag_438\n        /* \"#utility.yul\":17083:17086   */\n      dup3\n        /* \"#utility.yul\":16994:17087   */\n      tag_265\n      jump\t// in\n    tag_438:\n        /* \"#utility.yul\":17112:17114   */\n      0x40\n        /* \"#utility.yul\":17107:17110   */\n      dup3\n        /* \"#utility.yul\":17103:17115   */\n      add\n        /* \"#utility.yul\":17096:17115   */\n      swap1\n      pop\n        /* \"#utility.yul\":16755:17121   */\n      swap2\n      swap1\n      pop\n      jump\t// out\n        /* \"#utility.yul\":17127:17546   */\n    tag_176:\n        /* \"#utility.yul\":17293:17297   */\n      0x00\n        /* \"#utility.yul\":17331:17333   */\n      0x20\n        /* \"#utility.yul\":17320:17329   */\n      dup3\n        /* \"#utility.yul\":17316:17334   */\n      add\n        /* \"#utility.yul\":17308:17334   */\n      swap1\n      pop\n        /* \"#utility.yul\":17380:17389   */\n      dup2\n        /* \"#utility.yul\":17374:17378   */\n      dup2\n        /* \"#utility.yul\":17370:17390   */\n      sub\n        /* \"#utility.yul\":17366:17367   */\n      0x00\n        /* \"#utility.yul\":17355:17364   */\n      dup4\n        /* \"#utility.yul\":17351:17368   */\n      add\n        /* \"#utility.yul\":17344:17391   */\n      mstore\n        /* \"#utility.yul\":17408:17539   */\n      tag_440\n        /* \"#utility.yul\":17534:17538   */\n      dup2\n        /* \"#utility.yul\":17408:17539   */\n      tag_266\n      jump\t// in\n    tag_440:\n        /* \"#utility.yul\":17400:17539   */\n      swap1\n      pop\n        /* \"#utility.yul\":17127:17546   */\n      swap2\n      swap1\n      pop\n      jump\t// out\n        /* \"#utility.yul\":17552:17732   */\n    tag_267:\n        /* \"#utility.yul\":17692:17724   */\n      0x4b4950373a206d696e7420746f20746865207a65726f20616464726573730000\n        /* \"#utility.yul\":17688:17689   */\n      0x00\n        /* \"#utility.yul\":17680:17686   */\n      dup3\n        /* \"#utility.yul\":17676:17690   */\n      add\n        /* \"#utility.yul\":17669:17725   */\n      mstore\n        /* \"#utility.yul\":17552:17732   */\n      pop\n      jump\t// out\n        /* \"#utility.yul\":17738:18104   */\n    tag_268:\n        /* \"#utility.yul\":17880:17883   */\n      0x00\n        /* \"#utility.yul\":17901:17968   */\n      tag_443\n        /* \"#utility.yul\":17965:17967   */\n      0x1e\n        /* \"#utility.yul\":17960:17963   */\n      dup4\n        /* \"#utility.yul\":17901:17968   */\n      tag_223\n      jump\t// in\n    tag_443:\n        /* \"#utility.yul\":17894:17968   */\n      swap2\n      pop\n        /* \"#utility.yul\":17977:18070   */\n      tag_444\n        /* \"#utility.yul\":18066:18069   */\n      dup3\n        /* \"#utility.yul\":17977:18070   */\n      tag_267\n      jump\t// in\n    tag_444:\n        /* \"#utility.yul\":18095:18097   */\n      0x20\n        /* \"#utility.yul\":18090:18093   */\n      dup3\n        /* \"#utility.yul\":18086:18098   */\n      add\n        /* \"#utility.yul\":18079:18098   */\n      swap1\n      pop\n        /* \"#utility.yul\":17738:18104   */\n      swap2\n      swap1\n      pop\n      jump\t// out\n        /* \"#utility.yul\":18110:18529   */\n    tag_184:\n        /* \"#utility.yul\":18276:18280   */\n      0x00\n        /* \"#utility.yul\":18314:18316   */\n      0x20\n        /* \"#utility.yul\":18303:18312   */\n      dup3\n        /* \"#utility.yul\":18299:18317   */\n      add\n        /* \"#utility.yul\":18291:18317   */\n      swap1\n      pop\n        /* \"#utility.yul\":18363:18372   */\n      dup2\n        /* \"#utility.yul\":18357:18361   */\n      dup2\n        /* \"#utility.yul\":18353:18373   */\n      sub\n        /* \"#utility.yul\":18349:18350   */\n      0x00\n        /* \"#utility.yul\":18338:18347   */\n      dup4\n        /* \"#utility.yul\":18334:18351   */\n      add\n        /* \"#utility.yul\":18327:18374   */\n      mstore\n        /* \"#utility.yul\":18391:18522   */\n      tag_446\n        /* \"#utility.yul\":18517:18521   */\n      dup2\n        /* \"#utility.yul\":18391:18522   */\n      tag_268\n      jump\t// in\n    tag_446:\n        /* \"#utility.yul\":18383:18522   */\n      swap1\n      pop\n        /* \"#utility.yul\":18110:18529   */\n      swap2\n      swap1\n      pop\n      jump\t// out\n        /* \"#utility.yul\":18535:18769   */\n    tag_269:\n        /* \"#utility.yul\":18675:18709   */\n      0x4b4950373a207472616e7366657220746f206e6f6e20494b4950375265636569\n        /* \"#utility.yul\":18671:18672   */\n      0x00\n        /* \"#utility.yul\":18663:18669   */\n      dup3\n        /* \"#utility.yul\":18659:18673   */\n      add\n        /* \"#utility.yul\":18652:18710   */\n      mstore\n        /* \"#utility.yul\":18744:18761   */\n      0x76657220696d706c656d656e7465720000000000000000000000000000000000\n        /* \"#utility.yul\":18739:18741   */\n      0x20\n        /* \"#utility.yul\":18731:18737   */\n      dup3\n        /* \"#utility.yul\":18727:18742   */\n      add\n        /* \"#utility.yul\":18720:18762   */\n      mstore\n        /* \"#utility.yul\":18535:18769   */\n      pop\n      jump\t// out\n        /* \"#utility.yul\":18775:19141   */\n    tag_270:\n        /* \"#utility.yul\":18917:18920   */\n      0x00\n        /* \"#utility.yul\":18938:19005   */\n      tag_449\n        /* \"#utility.yul\":19002:19004   */\n      0x2f\n        /* \"#utility.yul\":18997:19000   */\n      dup4\n        /* \"#utility.yul\":18938:19005   */\n      tag_223\n      jump\t// in\n    tag_449:\n        /* \"#utility.yul\":18931:19005   */\n      swap2\n      pop\n        /* \"#utility.yul\":19014:19107   */\n      tag_450\n        /* \"#utility.yul\":19103:19106   */\n      dup3\n        /* \"#utility.yul\":19014:19107   */\n      tag_269\n      jump\t// in\n    tag_450:\n        /* \"#utility.yul\":19132:19134   */\n      0x40\n        /* \"#utility.yul\":19127:19130   */\n      dup3\n        /* \"#utility.yul\":19123:19135   */\n      add\n        /* \"#utility.yul\":19116:19135   */\n      swap1\n      pop\n        /* \"#utility.yul\":18775:19141   */\n      swap2\n      swap1\n      pop\n      jump\t// out\n        /* \"#utility.yul\":19147:19566   */\n    tag_196:\n        /* \"#utility.yul\":19313:19317   */\n      0x00\n        /* \"#utility.yul\":19351:19353   */\n      0x20\n        /* \"#utility.yul\":19340:19349   */\n      dup3\n        /* \"#utility.yul\":19336:19354   */\n      add\n        /* \"#utility.yul\":19328:19354   */\n      swap1\n      pop\n        /* \"#utility.yul\":19400:19409   */\n      dup2\n        /* \"#utility.yul\":19394:19398   */\n      dup2\n        /* \"#utility.yul\":19390:19410   */\n      sub\n        /* \"#utility.yul\":19386:19387   */\n      0x00\n        /* \"#utility.yul\":19375:19384   */\n      dup4\n        /* \"#utility.yul\":19371:19388   */\n      add\n        /* \"#utility.yul\":19364:19411   */\n      mstore\n        /* \"#utility.yul\":19428:19559   */\n      tag_452\n        /* \"#utility.yul\":19554:19558   */\n      dup2\n        /* \"#utility.yul\":19428:19559   */\n      tag_270\n      jump\t// in\n    tag_452:\n        /* \"#utility.yul\":19420:19559   */\n      swap1\n      pop\n        /* \"#utility.yul\":19147:19566   */\n      swap2\n      swap1\n      pop\n      jump\t// out\n        /* \"#utility.yul\":19572:19690   */\n    tag_271:\n        /* \"#utility.yul\":19659:19683   */\n      tag_454\n        /* \"#utility.yul\":19677:19682   */\n      dup2\n        /* \"#utility.yul\":19659:19683   */\n      tag_231\n      jump\t// in\n    tag_454:\n        /* \"#utility.yul\":19654:19657   */\n      dup3\n        /* \"#utility.yul\":19647:19684   */\n      mstore\n        /* \"#utility.yul\":19572:19690   */\n      pop\n      pop\n      jump\t// out\n        /* \"#utility.yul\":19696:19794   */\n    tag_272:\n        /* \"#utility.yul\":19747:19753   */\n      0x00\n        /* \"#utility.yul\":19781:19786   */\n      dup2\n        /* \"#utility.yul\":19775:19787   */\n      mload\n        /* \"#utility.yul\":19765:19787   */\n      swap1\n      pop\n        /* \"#utility.yul\":19696:19794   */\n      swap2\n      swap1\n      pop\n      jump\t// out\n        /* \"#utility.yul\":19800:19968   */\n    tag_273:\n        /* \"#utility.yul\":19883:19894   */\n      0x00\n        /* \"#utility.yul\":19917:19923   */\n      dup3\n        /* \"#utility.yul\":19912:19915   */\n      dup3\n        /* \"#utility.yul\":19905:19924   */\n      mstore\n        /* \"#utility.yul\":19957:19961   */\n      0x20\n        /* \"#utility.yul\":19952:19955   */\n      dup3\n        /* \"#utility.yul\":19948:19962   */\n      add\n        /* \"#utility.yul\":19933:19962   */\n      swap1\n      pop\n        /* \"#utility.yul\":19800:19968   */\n      swap3\n      swap2\n      pop\n      pop\n      jump\t// out\n        /* \"#utility.yul\":19974:20347   */\n    tag_274:\n        /* \"#utility.yul\":20060:20063   */\n      0x00\n        /* \"#utility.yul\":20088:20126   */\n      tag_458\n        /* \"#utility.yul\":20120:20125   */\n      dup3\n        /* \"#utility.yul\":20088:20126   */\n      tag_272\n      jump\t// in\n    tag_458:\n        /* \"#utility.yul\":20142:20212   */\n      tag_459\n        /* \"#utility.yul\":20205:20211   */\n      dup2\n        /* \"#utility.yul\":20200:20203   */\n      dup6\n        /* \"#utility.yul\":20142:20212   */\n      tag_273\n      jump\t// in\n    tag_459:\n        /* \"#utility.yul\":20135:20212   */\n      swap4\n      pop\n        /* \"#utility.yul\":20221:20286   */\n      tag_460\n        /* \"#utility.yul\":20279:20285   */\n      dup2\n        /* \"#utility.yul\":20274:20277   */\n      dup6\n        /* \"#utility.yul\":20267:20271   */\n      0x20\n        /* \"#utility.yul\":20260:20265   */\n      dup7\n        /* \"#utility.yul\":20256:20272   */\n      add\n        /* \"#utility.yul\":20221:20286   */\n      tag_224\n      jump\t// in\n    tag_460:\n        /* \"#utility.yul\":20311:20340   */\n      tag_461\n        /* \"#utility.yul\":20333:20339   */\n      dup2\n        /* \"#utility.yul\":20311:20340   */\n      tag_225\n      jump\t// in\n    tag_461:\n        /* \"#utility.yul\":20306:20309   */\n      dup5\n        /* \"#utility.yul\":20302:20341   */\n      add\n        /* \"#utility.yul\":20295:20341   */\n      swap2\n      pop\n        /* \"#utility.yul\":20064:20347   */\n      pop\n        /* \"#utility.yul\":19974:20347   */\n      swap3\n      swap2\n      pop\n      pop\n      jump\t// out\n        /* \"#utility.yul\":20353:20993   */\n    tag_205:\n        /* \"#utility.yul\":20548:20552   */\n      0x00\n        /* \"#utility.yul\":20586:20589   */\n      0x80\n        /* \"#utility.yul\":20575:20584   */\n      dup3\n        /* \"#utility.yul\":20571:20590   */\n      add\n        /* \"#utility.yul\":20563:20590   */\n      swap1\n      pop\n        /* \"#utility.yul\":20600:20671   */\n      tag_463\n        /* \"#utility.yul\":20668:20669   */\n      0x00\n        /* \"#utility.yul\":20657:20666   */\n      dup4\n        /* \"#utility.yul\":20653:20670   */\n      add\n        /* \"#utility.yul\":20644:20650   */\n      dup8\n        /* \"#utility.yul\":20600:20671   */\n      tag_271\n      jump\t// in\n    tag_463:\n        /* \"#utility.yul\":20681:20753   */\n      tag_464\n        /* \"#utility.yul\":20749:20751   */\n      0x20\n        /* \"#utility.yul\":20738:20747   */\n      dup4\n        /* \"#utility.yul\":20734:20752   */\n      add\n        /* \"#utility.yul\":20725:20731   */\n      dup7\n        /* \"#utility.yul\":20681:20753   */\n      tag_271\n      jump\t// in\n    tag_464:\n        /* \"#utility.yul\":20763:20835   */\n      tag_465\n        /* \"#utility.yul\":20831:20833   */\n      0x40\n        /* \"#utility.yul\":20820:20829   */\n      dup4\n        /* \"#utility.yul\":20816:20834   */\n      add\n        /* \"#utility.yul\":20807:20813   */\n      dup6\n        /* \"#utility.yul\":20763:20835   */\n      tag_239\n      jump\t// in\n    tag_465:\n        /* \"#utility.yul\":20882:20891   */\n      dup2\n        /* \"#utility.yul\":20876:20880   */\n      dup2\n        /* \"#utility.yul\":20872:20892   */\n      sub\n        /* \"#utility.yul\":20867:20869   */\n      0x60\n        /* \"#utility.yul\":20856:20865   */\n      dup4\n        /* \"#utility.yul\":20852:20870   */\n      add\n        /* \"#utility.yul\":20845:20893   */\n      mstore\n        /* \"#utility.yul\":20910:20986   */\n      tag_466\n        /* \"#utility.yul\":20981:20985   */\n      dup2\n        /* \"#utility.yul\":20972:20978   */\n      dup5\n        /* \"#utility.yul\":20910:20986   */\n      tag_274\n      jump\t// in\n    tag_466:\n        /* \"#utility.yul\":20902:20986   */\n      swap1\n      pop\n        /* \"#utility.yul\":20353:20993   */\n      swap6\n      swap5\n      pop\n      pop\n      pop\n      pop\n      pop\n      jump\t// out\n        /* \"#utility.yul\":20999:21148   */\n    tag_275:\n        /* \"#utility.yul\":21035:21042   */\n      0x00\n        /* \"#utility.yul\":21075:21141   */\n      0xffffffff00000000000000000000000000000000000000000000000000000000\n        /* \"#utility.yul\":21068:21073   */\n      dup3\n        /* \"#utility.yul\":21064:21142   */\n      and\n        /* \"#utility.yul\":21053:21142   */\n      swap1\n      pop\n        /* \"#utility.yul\":20999:21148   */\n      swap2\n      swap1\n      pop\n      jump\t// out\n        /* \"#utility.yul\":21154:21274   */\n    tag_276:\n        /* \"#utility.yul\":21226:21249   */\n      tag_469\n        /* \"#utility.yul\":21243:21248   */\n      dup2\n        /* \"#utility.yul\":21226:21249   */\n      tag_275\n      jump\t// in\n    tag_469:\n        /* \"#utility.yul\":21219:21224   */\n      dup2\n        /* \"#utility.yul\":21216:21250   */\n      eq\n        /* \"#utility.yul\":21206:21268   */\n      tag_470\n      jumpi\n        /* \"#utility.yul\":21264:21265   */\n      0x00\n        /* \"#utility.yul\":21261:21262   */\n      dup1\n        /* \"#utility.yul\":21254:21266   */\n      revert\n        /* \"#utility.yul\":21206:21268   */\n    tag_470:\n        /* \"#utility.yul\":21154:21274   */\n      pop\n      jump\t// out\n        /* \"#utility.yul\":21280:21421   */\n    tag_277:\n        /* \"#utility.yul\":21336:21341   */\n      0x00\n        /* \"#utility.yul\":21367:21373   */\n      dup2\n        /* \"#utility.yul\":21361:21374   */\n      mload\n        /* \"#utility.yul\":21352:21374   */\n      swap1\n      pop\n        /* \"#utility.yul\":21383:21415   */\n      tag_472\n        /* \"#utility.yul\":21409:21414   */\n      dup2\n        /* \"#utility.yul\":21383:21415   */\n      tag_276\n      jump\t// in\n    tag_472:\n        /* \"#utility.yul\":21280:21421   */\n      swap3\n      swap2\n      pop\n      pop\n      jump\t// out\n        /* \"#utility.yul\":21427:21776   */\n    tag_208:\n        /* \"#utility.yul\":21496:21502   */\n      0x00\n        /* \"#utility.yul\":21545:21547   */\n      0x20\n        /* \"#utility.yul\":21533:21542   */\n      dup3\n        /* \"#utility.yul\":21524:21531   */\n      dup5\n        /* \"#utility.yul\":21520:21543   */\n      sub\n        /* \"#utility.yul\":21516:21548   */\n      slt\n        /* \"#utility.yul\":21513:21632   */\n      iszero\n      tag_474\n      jumpi\n        /* \"#utility.yul\":21551:21630   */\n      tag_475\n      tag_228\n      jump\t// in\n    tag_475:\n        /* \"#utility.yul\":21513:21632   */\n    tag_474:\n        /* \"#utility.yul\":21671:21672   */\n      0x00\n        /* \"#utility.yul\":21696:21759   */\n      tag_476\n        /* \"#utility.yul\":21751:21758   */\n      dup5\n        /* \"#utility.yul\":21742:21748   */\n      dup3\n        /* \"#utility.yul\":21731:21740   */\n      dup6\n        /* \"#utility.yul\":21727:21749   */\n      add\n        /* \"#utility.yul\":21696:21759   */\n      tag_277\n      jump\t// in\n    tag_476:\n        /* \"#utility.yul\":21686:21759   */\n      swap2\n      pop\n        /* \"#utility.yul\":21642:21769   */\n      pop\n        /* \"#utility.yul\":21427:21776   */\n      swap3\n      swap2\n      pop\n      pop\n      jump\t// out\n        /* \"#utility.yul\":21782:22015   */\n    tag_278:\n        /* \"#utility.yul\":21922:21956   */\n      0x4b4950373a207472616e7366657220746f206e6f6e204b495037526563656976\n        /* \"#utility.yul\":21918:21919   */\n      0x00\n        /* \"#utility.yul\":21910:21916   */\n      dup3\n        /* \"#utility.yul\":21906:21920   */\n      add\n        /* \"#utility.yul\":21899:21957   */\n      mstore\n        /* \"#utility.yul\":21991:22007   */\n      0x657220696d706c656d656e746572000000000000000000000000000000000000\n        /* \"#utility.yul\":21986:21988   */\n      0x20\n        /* \"#utility.yul\":21978:21984   */\n      dup3\n        /* \"#utility.yul\":21974:21989   */\n      add\n        /* \"#utility.yul\":21967:22008   */\n      mstore\n        /* \"#utility.yul\":21782:22015   */\n      pop\n      jump\t// out\n        /* \"#utility.yul\":22021:22387   */\n    tag_279:\n        /* \"#utility.yul\":22163:22166   */\n      0x00\n        /* \"#utility.yul\":22184:22251   */\n      tag_479\n        /* \"#utility.yul\":22248:22250   */\n      0x2e\n        /* \"#utility.yul\":22243:22246   */\n      dup4\n        /* \"#utility.yul\":22184:22251   */\n      tag_223\n      jump\t// in\n    tag_479:\n        /* \"#utility.yul\":22177:22251   */\n      swap2\n      pop\n        /* \"#utility.yul\":22260:22353   */\n      tag_480\n        /* \"#utility.yul\":22349:22352   */\n      dup3\n        /* \"#utility.yul\":22260:22353   */\n      tag_278\n      jump\t// in\n    tag_480:\n        /* \"#utility.yul\":22378:22380   */\n      0x40\n        /* \"#utility.yul\":22373:22376   */\n      dup3\n        /* \"#utility.yul\":22369:22381   */\n      add\n        /* \"#utility.yul\":22362:22381   */\n      swap1\n      pop\n        /* \"#utility.yul\":22021:22387   */\n      swap2\n      swap1\n      pop\n      jump\t// out\n        /* \"#utility.yul\":22393:22812   */\n    tag_217:\n        /* \"#utility.yul\":22559:22563   */\n      0x00\n        /* \"#utility.yul\":22597:22599   */\n      0x20\n        /* \"#utility.yul\":22586:22595   */\n      dup3\n        /* \"#utility.yul\":22582:22600   */\n      add\n        /* \"#utility.yul\":22574:22600   */\n      swap1\n      pop\n        /* \"#utility.yul\":22646:22655   */\n      dup2\n        /* \"#utility.yul\":22640:22644   */\n      dup2\n        /* \"#utility.yul\":22636:22656   */\n      sub\n        /* \"#utility.yul\":22632:22633   */\n      0x00\n        /* \"#utility.yul\":22621:22630   */\n      dup4\n        /* \"#utility.yul\":22617:22634   */\n      add\n        /* \"#utility.yul\":22610:22657   */\n      mstore\n        /* \"#utility.yul\":22674:22805   */\n      tag_482\n        /* \"#utility.yul\":22800:22804   */\n      dup2\n        /* \"#utility.yul\":22674:22805   */\n      tag_279\n      jump\t// in\n    tag_482:\n        /* \"#utility.yul\":22666:22805   */\n      swap1\n      pop\n        /* \"#utility.yul\":22393:22812   */\n      swap2\n      swap1\n      pop\n      jump\t// out\n\n    auxdata: 0xa264697066735822122023525916694dc568fc1f96628bdda12beccdc69b3c92c40e06d09978f052215464736f6c63430008120033\n}\n",
				"bytecode": {
					"linkReferences": {},
					"object": "60806040523480156200001157600080fd5b50604051620021f6380380620021f68339818101604052810190620000379190620001fa565b818181600390816200004a9190620004ca565b5080600490816200005c9190620004ca565b5050505050620005b1565b6000604051905090565b600080fd5b600080fd5b600080fd5b600080fd5b6000601f19601f8301169050919050565b7f4e487b7100000000000000000000000000000000000000000000000000000000600052604160045260246000fd5b620000d08262000085565b810181811067ffffffffffffffff82111715620000f257620000f162000096565b5b80604052505050565b60006200010762000067565b9050620001158282620000c5565b919050565b600067ffffffffffffffff82111562000138576200013762000096565b5b620001438262000085565b9050602081019050919050565b60005b838110156200017057808201518184015260208101905062000153565b60008484015250505050565b6000620001936200018d846200011a565b620000fb565b905082815260208101848484011115620001b257620001b162000080565b5b620001bf84828562000150565b509392505050565b600082601f830112620001df57620001de6200007b565b5b8151620001f18482602086016200017c565b91505092915050565b6000806040838503121562000214576200021362000071565b5b600083015167ffffffffffffffff81111562000235576200023462000076565b5b6200024385828601620001c7565b925050602083015167ffffffffffffffff81111562000267576200026662000076565b5b6200027585828601620001c7565b9150509250929050565b600081519050919050565b7f4e487b7100000000000000000000000000000000000000000000000000000000600052602260045260246000fd5b60006002820490506001821680620002d257607f821691505b602082108103620002e857620002e76200028a565b5b50919050565b60008190508160005260206000209050919050565b60006020601f8301049050919050565b600082821b905092915050565b600060088302620003527fffffffffffffffffffffffffffffffffffffffffffffffffffffffffffffffff8262000313565b6200035e868362000313565b95508019841693508086168417925050509392505050565b6000819050919050565b6000819050919050565b6000620003ab620003a56200039f8462000376565b62000380565b62000376565b9050919050565b6000819050919050565b620003c7836200038a565b620003df620003d682620003b2565b84845462000320565b825550505050565b600090565b620003f6620003e7565b62000403818484620003bc565b505050565b5b818110156200042b576200041f600082620003ec565b60018101905062000409565b5050565b601f8211156200047a576200044481620002ee565b6200044f8462000303565b810160208510156200045f578190505b620004776200046e8562000303565b83018262000408565b50505b505050565b600082821c905092915050565b60006200049f600019846008026200047f565b1980831691505092915050565b6000620004ba83836200048c565b9150826002028217905092915050565b620004d5826200027f565b67ffffffffffffffff811115620004f157620004f062000096565b5b620004fd8254620002b9565b6200050a8282856200042f565b600060209050601f8311600181146200054257600084156200052d578287015190505b620005398582620004ac565b865550620005a9565b601f1984166200055286620002ee565b60005b828110156200057c5784890151825560018201915060208501945060208101905062000555565b868310156200059c578489015162000598601f8916826200048c565b8355505b6001600288020188555050505b505050505050565b611c3580620005c16000396000f3fe608060405234801561001057600080fd5b50600436106101005760003560e01c806342842e0e11610097578063a9059cbb11610066578063a9059cbb146102c1578063b88d4fde146102f1578063dd62ed3e1461030d578063eb7955491461033d57610100565b806342842e0e1461022757806370a082311461024357806395d89b4114610273578063a457c2d71461029157610100565b8063313ce567116100d3578063313ce567146101a157806339509351146101bf57806340c10f19146101ef578063423f6cef1461020b57610100565b806306fdde0314610105578063095ea7b31461012357806318160ddd1461015357806323b872dd14610171575b600080fd5b61010d610359565b60405161011a9190611017565b60405180910390f35b61013d600480360381019061013891906110e1565b6103eb565b60405161014a919061113c565b60405180910390f35b61015b61040e565b6040516101689190611166565b60405180910390f35b61018b60048036038101906101869190611181565b610418565b604051610198919061113c565b60405180910390f35b6101a9610447565b6040516101b691906111f0565b60405180910390f35b6101d960048036038101906101d491906110e1565b610450565b6040516101e6919061113c565b60405180910390f35b610209600480360381019061020491906110e1565b610487565b005b610225600480360381019061022091906110e1565b610495565b005b610241600480360381019061023c9190611181565b6104c1565b005b61025d6004803603810190610258919061120b565b6104f9565b60405161026a9190611166565b60405180910390f35b61027b610541565b6040516102889190611017565b60405180910390f35b6102ab60048036038101906102a691906110e1565b6105d3565b6040516102b8919061113c565b60405180910390f35b6102db60048036038101906102d691906110e1565b61064a565b6040516102e8919061113c565b60405180910390f35b61030b6004803603810190610306919061136d565b61066d565b005b610327600480360381019061032291906113f0565b610697565b6040516103349190611166565b60405180910390f35b61035760048036038101906103529190611430565b61071e565b005b606060038054610368906114ce565b80601f0160208091040260200160405190810160405280929190818152602001828054610394906114ce565b80156103e15780601f106103b6576101008083540402835291602001916103e1565b820191906000526020600020905b8154815290600101906020018083116103c457829003601f168201915b5050505050905090565b6000806103f661073c565b9050610403818585610744565b600191505092915050565b6000600254905090565b60008061042361073c565b905061043085828561090d565b61043b858585610999565b60019150509392505050565b60006012905090565b60008061045b61073c565b905061047c81858561046d8589610697565b610477919061152e565b610744565b600191505092915050565b6104918282610c18565b5050565b600061049f61073c565b90506104bc81848460405180602001604052806000815250610d77565b505050565b60006104cb61073c565b90506104d884828461090d565b6104f384848460405180602001604052806000815250610d77565b50505050565b60008060008373ffffffffffffffffffffffffffffffffffffffff1673ffffffffffffffffffffffffffffffffffffffff168152602001908152602001600020549050919050565b606060048054610550906114ce565b80601f016020809104026020016040519081016040528092919081815260200182805461057c906114ce565b80156105c95780601f1061059e576101008083540402835291602001916105c9565b820191906000526020600020905b8154815290600101906020018083116105ac57829003601f168201915b5050505050905090565b6000806105de61073c565b905060006105ec8286610697565b905083811015610631576040517f08c379a0000000000000000000000000000000000000000000000000000000008152600401610628906115d4565b60405180910390fd5b61063e8286868403610744565b60019250505092915050565b60008061065561073c565b9050610662818585610999565b600191505092915050565b600061067761073c565b905061068485828561090d565b61069085858585610d77565b5050505050565b6000600160008473ffffffffffffffffffffffffffffffffffffffff1673ffffffffffffffffffffffffffffffffffffffff16815260200190815260200160002060008373ffffffffffffffffffffffffffffffffffffffff1673ffffffffffffffffffffffffffffffffffffffff16815260200190815260200160002054905092915050565b600061072861073c565b905061073681858585610d77565b50505050565b600033905090565b600073ffffffffffffffffffffffffffffffffffffffff168373ffffffffffffffffffffffffffffffffffffffff16036107b3576040517f08c379a00000000000000000000000000000000000000000000000000000000081526004016107aa90611666565b60405180910390fd5b600073ffffffffffffffffffffffffffffffffffffffff168273ffffffffffffffffffffffffffffffffffffffff1603610822576040517f08c379a0000000000000000000000000000000000000000000000000000000008152600401610819906116f8565b60405180910390fd5b80600160008573ffffffffffffffffffffffffffffffffffffffff1673ffffffffffffffffffffffffffffffffffffffff16815260200190815260200160002060008473ffffffffffffffffffffffffffffffffffffffff1673ffffffffffffffffffffffffffffffffffffffff168152602001908152602001600020819055508173ffffffffffffffffffffffffffffffffffffffff168373ffffffffffffffffffffffffffffffffffffffff167f8c5be1e5ebec7d5bd14f71427d1e84f3dd0314c0f7b2291e5b200ac8c7c3b925836040516109009190611166565b60405180910390a3505050565b60006109198484610697565b90507fffffffffffffffffffffffffffffffffffffffffffffffffffffffffffffffff81146109935781811015610985576040517f08c379a000000000000000000000000000000000000000000000000000000000815260040161097c90611764565b60405180910390fd5b6109928484848403610744565b5b50505050565b600073ffffffffffffffffffffffffffffffffffffffff168373ffffffffffffffffffffffffffffffffffffffff1603610a08576040517f08c379a00000000000000000000000000000000000000000000000000000000081526004016109ff906117f6565b60405180910390fd5b600073ffffffffffffffffffffffffffffffffffffffff168273ffffffffffffffffffffffffffffffffffffffff1603610a77576040517f08c379a0000000000000000000000000000000000000000000000000000000008152600401610a6e90611888565b60405180910390fd5b610a82838383610dd3565b60008060008573ffffffffffffffffffffffffffffffffffffffff1673ffffffffffffffffffffffffffffffffffffffff16815260200190815260200160002054905081811015610b08576040517f08c379a0000000000000000000000000000000000000000000000000000000008152600401610aff9061191a565b60405180910390fd5b8181036000808673ffffffffffffffffffffffffffffffffffffffff1673ffffffffffffffffffffffffffffffffffffffff16815260200190815260200160002081905550816000808573ffffffffffffffffffffffffffffffffffffffff1673ffffffffffffffffffffffffffffffffffffffff1681526020019081526020016000206000828254610b9b919061152e565b925050819055508273ffffffffffffffffffffffffffffffffffffffff168473ffffffffffffffffffffffffffffffffffffffff167fddf252ad1be2c89b69c2b068fc378daa952ba7f163c4a11628f55a4df523b3ef84604051610bff9190611166565b60405180910390a3610c12848484610dd8565b50505050565b600073ffffffffffffffffffffffffffffffffffffffff168273ffffffffffffffffffffffffffffffffffffffff1603610c87576040517f08c379a0000000000000000000000000000000000000000000000000000000008152600401610c7e90611986565b60405180910390fd5b610c9360008383610dd3565b8060026000828254610ca5919061152e565b92505081905550806000808473ffffffffffffffffffffffffffffffffffffffff1673ffffffffffffffffffffffffffffffffffffffff1681526020019081526020016000206000828254610cfa919061152e565b925050819055508173ffffffffffffffffffffffffffffffffffffffff16600073ffffffffffffffffffffffffffffffffffffffff167fddf252ad1be2c89b69c2b068fc378daa952ba7f163c4a11628f55a4df523b3ef83604051610d5f9190611166565b60405180910390a3610d7360008383610dd8565b5050565b610d82848484610999565b610d8e84848484610ddd565b610dcd576040517f08c379a0000000000000000000000000000000000000000000000000000000008152600401610dc490611a18565b60405180910390fd5b50505050565b505050565b505050565b6000610dfe8473ffffffffffffffffffffffffffffffffffffffff16610f64565b15610f57578373ffffffffffffffffffffffffffffffffffffffff16639d188c22610e2761073c565b8786866040518563ffffffff1660e01b8152600401610e499493929190611a9c565b6020604051808303816000875af1925050508015610e8557506040513d601f19601f82011682018060405250810190610e829190611b40565b60015b610f07573d8060008114610eb5576040519150601f19603f3d011682016040523d82523d6000602084013e610eba565b606091505b506000815103610eff576040517f08c379a0000000000000000000000000000000000000000000000000000000008152600401610ef690611bdf565b60405180910390fd5b805181602001fd5b639d188c2260e01b7bffffffffffffffffffffffffffffffffffffffffffffffffffffffff1916817bffffffffffffffffffffffffffffffffffffffffffffffffffffffff191614915050610f5c565b600190505b949350505050565b6000808273ffffffffffffffffffffffffffffffffffffffff163b119050919050565b600081519050919050565b600082825260208201905092915050565b60005b83811015610fc1578082015181840152602081019050610fa6565b60008484015250505050565b6000601f19601f8301169050919050565b6000610fe982610f87565b610ff38185610f92565b9350611003818560208601610fa3565b61100c81610fcd565b840191505092915050565b600060208201905081810360008301526110318184610fde565b905092915050565b6000604051905090565b600080fd5b600080fd5b600073ffffffffffffffffffffffffffffffffffffffff82169050919050565b60006110788261104d565b9050919050565b6110888161106d565b811461109357600080fd5b50565b6000813590506110a58161107f565b92915050565b6000819050919050565b6110be816110ab565b81146110c957600080fd5b50565b6000813590506110db816110b5565b92915050565b600080604083850312156110f8576110f7611043565b5b600061110685828601611096565b9250506020611117858286016110cc565b9150509250929050565b60008115159050919050565b61113681611121565b82525050565b6000602082019050611151600083018461112d565b92915050565b611160816110ab565b82525050565b600060208201905061117b6000830184611157565b92915050565b60008060006060848603121561119a57611199611043565b5b60006111a886828701611096565b93505060206111b986828701611096565b92505060406111ca868287016110cc565b9150509250925092565b600060ff82169050919050565b6111ea816111d4565b82525050565b600060208201905061120560008301846111e1565b92915050565b60006020828403121561122157611220611043565b5b600061122f84828501611096565b91505092915050565b600080fd5b600080fd5b7f4e487b7100000000000000000000000000000000000000000000000000000000600052604160045260246000fd5b61127a82610fcd565b810181811067ffffffffffffffff8211171561129957611298611242565b5b80604052505050565b60006112ac611039565b90506112b88282611271565b919050565b600067ffffffffffffffff8211156112d8576112d7611242565b5b6112e182610fcd565b9050602081019050919050565b82818337600083830152505050565b600061131061130b846112bd565b6112a2565b90508281526020810184848401111561132c5761132b61123d565b5b6113378482856112ee565b509392505050565b600082601f83011261135457611353611238565b5b81356113648482602086016112fd565b91505092915050565b6000806000806080858703121561138757611386611043565b5b600061139587828801611096565b94505060206113a687828801611096565b93505060406113b7878288016110cc565b925050606085013567ffffffffffffffff8111156113d8576113d7611048565b5b6113e48782880161133f565b91505092959194509250565b6000806040838503121561140757611406611043565b5b600061141585828601611096565b925050602061142685828601611096565b9150509250929050565b60008060006060848603121561144957611448611043565b5b600061145786828701611096565b9350506020611468868287016110cc565b925050604084013567ffffffffffffffff81111561148957611488611048565b5b6114958682870161133f565b9150509250925092565b7f4e487b7100000000000000000000000000000000000000000000000000000000600052602260045260246000fd5b600060028204905060018216806114e657607f821691505b6020821081036114f9576114f861149f565b5b50919050565b7f4e487b7100000000000000000000000000000000000000000000000000000000600052601160045260246000fd5b6000611539826110ab565b9150611544836110ab565b925082820190508082111561155c5761155b6114ff565b5b92915050565b7f4b4950373a2064656372656173656420616c6c6f77616e63652062656c6f772060008201527f7a65726f00000000000000000000000000000000000000000000000000000000602082015250565b60006115be602483610f92565b91506115c982611562565b604082019050919050565b600060208201905081810360008301526115ed816115b1565b9050919050565b7f4b4950373a20617070726f76652066726f6d20746865207a65726f206164647260008201527f6573730000000000000000000000000000000000000000000000000000000000602082015250565b6000611650602383610f92565b915061165b826115f4565b604082019050919050565b6000602082019050818103600083015261167f81611643565b9050919050565b7f4b4950373a20617070726f766520746f20746865207a65726f2061646472657360008201527f7300000000000000000000000000000000000000000000000000000000000000602082015250565b60006116e2602183610f92565b91506116ed82611686565b604082019050919050565b60006020820190508181036000830152611711816116d5565b9050919050565b7f4b4950373a20696e73756666696369656e7420616c6c6f77616e636500000000600082015250565b600061174e601c83610f92565b915061175982611718565b602082019050919050565b6000602082019050818103600083015261177d81611741565b9050919050565b7f4b4950373a207472616e736665722066726f6d20746865207a65726f2061646460008201527f7265737300000000000000000000000000000000000000000000000000000000602082015250565b60006117e0602483610f92565b91506117eb82611784565b604082019050919050565b6000602082019050818103600083015261180f816117d3565b9050919050565b7f4b4950373a207472616e7366657220746f20746865207a65726f20616464726560008201527f7373000000000000000000000000000000000000000000000000000000000000602082015250565b6000611872602283610f92565b915061187d82611816565b604082019050919050565b600060208201905081810360008301526118a181611865565b9050919050565b7f4b4950373a207472616e7366657220616d6f756e74206578636565647320626160008201527f6c616e6365000000000000000000000000000000000000000000000000000000602082015250565b6000611904602583610f92565b915061190f826118a8565b604082019050919050565b60006020820190508181036000830152611933816118f7565b9050919050565b7f4b4950373a206d696e7420746f20746865207a65726f20616464726573730000600082015250565b6000611970601e83610f92565b915061197b8261193a565b602082019050919050565b6000602082019050818103600083015261199f81611963565b9050919050565b7f4b4950373a207472616e7366657220746f206e6f6e20494b495037526563656960008201527f76657220696d706c656d656e7465720000000000000000000000000000000000602082015250565b6000611a02602f83610f92565b9150611a0d826119a6565b604082019050919050565b60006020820190508181036000830152611a31816119f5565b9050919050565b611a418161106d565b82525050565b600081519050919050565b600082825260208201905092915050565b6000611a6e82611a47565b611a788185611a52565b9350611a88818560208601610fa3565b611a9181610fcd565b840191505092915050565b6000608082019050611ab16000830187611a38565b611abe6020830186611a38565b611acb6040830185611157565b8181036060830152611add8184611a63565b905095945050505050565b60007fffffffff0000000000000000000000000000000000000000000000000000000082169050919050565b611b1d81611ae8565b8114611b2857600080fd5b50565b600081519050611b3a81611b14565b92915050565b600060208284031215611b5657611b55611043565b5b6000611b6484828501611b2b565b91505092915050565b7f4b4950373a207472616e7366657220746f206e6f6e204b49503752656365697660008201527f657220696d706c656d656e746572000000000000000000000000000000000000602082015250565b6000611bc9602e83610f92565b9150611bd482611b6d565b604082019050919050565b60006020820190508181036000830152611bf881611bbc565b905091905056fea264697066735822122023525916694dc568fc1f96628bdda12beccdc69b3c92c40e06d09978f052215464736f6c63430008120033",
					"opcodes": "PUSH1 0x80 PUSH1 0x40 MSTORE CALLVALUE DUP1 ISZERO PUSH3 0x11 JUMPI PUSH1 0x0 DUP1 REVERT JUMPDEST POP PUSH1 0x40 MLOAD PUSH3 0x21F6 CODESIZE SUB DUP1 PUSH3 0x21F6 DUP4 CODECOPY DUP2 DUP2 ADD PUSH1 0x40 MSTORE DUP2 ADD SWAP1 PUSH3 0x37 SWAP2 SWAP1 PUSH3 0x1FA JUMP JUMPDEST DUP2 DUP2 DUP2 PUSH1 0x3 SWAP1 DUP2 PUSH3 0x4A SWAP2 SWAP1 PUSH3 0x4CA JUMP JUMPDEST POP DUP1 PUSH1 0x4 SWAP1 DUP2 PUSH3 0x5C SWAP2 SWAP1 PUSH3 0x4CA JUMP JUMPDEST POP POP POP POP POP PUSH3 0x5B1 JUMP JUMPDEST PUSH1 0x0 PUSH1 0x40 MLOAD SWAP1 POP SWAP1 JUMP JUMPDEST PUSH1 0x0 DUP1 REVERT JUMPDEST PUSH1 0x0 DUP1 REVERT JUMPDEST PUSH1 0x0 DUP1 REVERT JUMPDEST PUSH1 0x0 DUP1 REVERT JUMPDEST PUSH1 0x0 PUSH1 0x1F NOT PUSH1 0x1F DUP4 ADD AND SWAP1 POP SWAP2 SWAP1 POP JUMP JUMPDEST PUSH32 0x4E487B7100000000000000000000000000000000000000000000000000000000 PUSH1 0x0 MSTORE PUSH1 0x41 PUSH1 0x4 MSTORE PUSH1 0x24 PUSH1 0x0 REVERT JUMPDEST PUSH3 0xD0 DUP3 PUSH3 0x85 JUMP JUMPDEST DUP2 ADD DUP2 DUP2 LT PUSH8 0xFFFFFFFFFFFFFFFF DUP3 GT OR ISZERO PUSH3 0xF2 JUMPI PUSH3 0xF1 PUSH3 0x96 JUMP JUMPDEST JUMPDEST DUP1 PUSH1 0x40 MSTORE POP POP POP JUMP JUMPDEST PUSH1 0x0 PUSH3 0x107 PUSH3 0x67 JUMP JUMPDEST SWAP1 POP PUSH3 0x115 DUP3 DUP3 PUSH3 0xC5 JUMP JUMPDEST SWAP2 SWAP1 POP JUMP JUMPDEST PUSH1 0x0 PUSH8 0xFFFFFFFFFFFFFFFF DUP3 GT ISZERO PUSH3 0x138 JUMPI PUSH3 0x137 PUSH3 0x96 JUMP JUMPDEST JUMPDEST PUSH3 0x143 DUP3 PUSH3 0x85 JUMP JUMPDEST SWAP1 POP PUSH1 0x20 DUP2 ADD SWAP1 POP SWAP2 SWAP1 POP JUMP JUMPDEST PUSH1 0x0 JUMPDEST DUP4 DUP2 LT ISZERO PUSH3 0x170 JUMPI DUP1 DUP3 ADD MLOAD DUP2 DUP5 ADD MSTORE PUSH1 0x20 DUP2 ADD SWAP1 POP PUSH3 0x153 JUMP JUMPDEST PUSH1 0x0 DUP5 DUP5 ADD MSTORE POP POP POP POP JUMP JUMPDEST PUSH1 0x0 PUSH3 0x193 PUSH3 0x18D DUP5 PUSH3 0x11A JUMP JUMPDEST PUSH3 0xFB JUMP JUMPDEST SWAP1 POP DUP3 DUP2 MSTORE PUSH1 0x20 DUP2 ADD DUP5 DUP5 DUP5 ADD GT ISZERO PUSH3 0x1B2 JUMPI PUSH3 0x1B1 PUSH3 0x80 JUMP JUMPDEST JUMPDEST PUSH3 0x1BF DUP5 DUP3 DUP6 PUSH3 0x150 JUMP JUMPDEST POP SWAP4 SWAP3 POP POP POP JUMP JUMPDEST PUSH1 0x0 DUP3 PUSH1 0x1F DUP4 ADD SLT PUSH3 0x1DF JUMPI PUSH3 0x1DE PUSH3 0x7B JUMP JUMPDEST JUMPDEST DUP2 MLOAD PUSH3 0x1F1 DUP5 DUP3 PUSH1 0x20 DUP7 ADD PUSH3 0x17C JUMP JUMPDEST SWAP2 POP POP SWAP3 SWAP2 POP POP JUMP JUMPDEST PUSH1 0x0 DUP1 PUSH1 0x40 DUP4 DUP6 SUB SLT ISZERO PUSH3 0x214 JUMPI PUSH3 0x213 PUSH3 0x71 JUMP JUMPDEST JUMPDEST PUSH1 0x0 DUP4 ADD MLOAD PUSH8 0xFFFFFFFFFFFFFFFF DUP2 GT ISZERO PUSH3 0x235 JUMPI PUSH3 0x234 PUSH3 0x76 JUMP JUMPDEST JUMPDEST PUSH3 0x243 DUP6 DUP3 DUP7 ADD PUSH3 0x1C7 JUMP JUMPDEST SWAP3 POP POP PUSH1 0x20 DUP4 ADD MLOAD PUSH8 0xFFFFFFFFFFFFFFFF DUP2 GT ISZERO PUSH3 0x267 JUMPI PUSH3 0x266 PUSH3 0x76 JUMP JUMPDEST JUMPDEST PUSH3 0x275 DUP6 DUP3 DUP7 ADD PUSH3 0x1C7 JUMP JUMPDEST SWAP2 POP POP SWAP3 POP SWAP3 SWAP1 POP JUMP JUMPDEST PUSH1 0x0 DUP2 MLOAD SWAP1 POP SWAP2 SWAP1 POP JUMP JUMPDEST PUSH32 0x4E487B7100000000000000000000000000000000000000000000000000000000 PUSH1 0x0 MSTORE PUSH1 0x22 PUSH1 0x4 MSTORE PUSH1 0x24 PUSH1 0x0 REVERT JUMPDEST PUSH1 0x0 PUSH1 0x2 DUP3 DIV SWAP1 POP PUSH1 0x1 DUP3 AND DUP1 PUSH3 0x2D2 JUMPI PUSH1 0x7F DUP3 AND SWAP2 POP JUMPDEST PUSH1 0x20 DUP3 LT DUP2 SUB PUSH3 0x2E8 JUMPI PUSH3 0x2E7 PUSH3 0x28A JUMP JUMPDEST JUMPDEST POP SWAP2 SWAP1 POP JUMP JUMPDEST PUSH1 0x0 DUP2 SWAP1 POP DUP2 PUSH1 0x0 MSTORE PUSH1 0x20 PUSH1 0x0 KECCAK256 SWAP1 POP SWAP2 SWAP1 POP JUMP JUMPDEST PUSH1 0x0 PUSH1 0x20 PUSH1 0x1F DUP4 ADD DIV SWAP1 POP SWAP2 SWAP1 POP JUMP JUMPDEST PUSH1 0x0 DUP3 DUP3 SHL SWAP1 POP SWAP3 SWAP2 POP POP JUMP JUMPDEST PUSH1 0x0 PUSH1 0x8 DUP4 MUL PUSH3 0x352 PUSH32 0xFFFFFFFFFFFFFFFFFFFFFFFFFFFFFFFFFFFFFFFFFFFFFFFFFFFFFFFFFFFFFFFF DUP3 PUSH3 0x313 JUMP JUMPDEST PUSH3 0x35E DUP7 DUP4 PUSH3 0x313 JUMP JUMPDEST SWAP6 POP DUP1 NOT DUP5 AND SWAP4 POP DUP1 DUP7 AND DUP5 OR SWAP3 POP POP POP SWAP4 SWAP3 POP POP POP JUMP JUMPDEST PUSH1 0x0 DUP2 SWAP1 POP SWAP2 SWAP1 POP JUMP JUMPDEST PUSH1 0x0 DUP2 SWAP1 POP SWAP2 SWAP1 POP JUMP JUMPDEST PUSH1 0x0 PUSH3 0x3AB PUSH3 0x3A5 PUSH3 0x39F DUP5 PUSH3 0x376 JUMP JUMPDEST PUSH3 0x380 JUMP JUMPDEST PUSH3 0x376 JUMP JUMPDEST SWAP1 POP SWAP2 SWAP1 POP JUMP JUMPDEST PUSH1 0x0 DUP2 SWAP1 POP SWAP2 SWAP1 POP JUMP JUMPDEST PUSH3 0x3C7 DUP4 PUSH3 0x38A JUMP JUMPDEST PUSH3 0x3DF PUSH3 0x3D6 DUP3 PUSH3 0x3B2 JUMP JUMPDEST DUP5 DUP5 SLOAD PUSH3 0x320 JUMP JUMPDEST DUP3 SSTORE POP POP POP POP JUMP JUMPDEST PUSH1 0x0 SWAP1 JUMP JUMPDEST PUSH3 0x3F6 PUSH3 0x3E7 JUMP JUMPDEST PUSH3 0x403 DUP2 DUP5 DUP5 PUSH3 0x3BC JUMP JUMPDEST POP POP POP JUMP JUMPDEST JUMPDEST DUP2 DUP2 LT ISZERO PUSH3 0x42B JUMPI PUSH3 0x41F PUSH1 0x0 DUP3 PUSH3 0x3EC JUMP JUMPDEST PUSH1 0x1 DUP2 ADD SWAP1 POP PUSH3 0x409 JUMP JUMPDEST POP POP JUMP JUMPDEST PUSH1 0x1F DUP3 GT ISZERO PUSH3 0x47A JUMPI PUSH3 0x444 DUP2 PUSH3 0x2EE JUMP JUMPDEST PUSH3 0x44F DUP5 PUSH3 0x303 JUMP JUMPDEST DUP2 ADD PUSH1 0x20 DUP6 LT ISZERO PUSH3 0x45F JUMPI DUP2 SWAP1 POP JUMPDEST PUSH3 0x477 PUSH3 0x46E DUP6 PUSH3 0x303 JUMP JUMPDEST DUP4 ADD DUP3 PUSH3 0x408 JUMP JUMPDEST POP POP JUMPDEST POP POP POP JUMP JUMPDEST PUSH1 0x0 DUP3 DUP3 SHR SWAP1 POP SWAP3 SWAP2 POP POP JUMP JUMPDEST PUSH1 0x0 PUSH3 0x49F PUSH1 0x0 NOT DUP5 PUSH1 0x8 MUL PUSH3 0x47F JUMP JUMPDEST NOT DUP1 DUP4 AND SWAP2 POP POP SWAP3 SWAP2 POP POP JUMP JUMPDEST PUSH1 0x0 PUSH3 0x4BA DUP4 DUP4 PUSH3 0x48C JUMP JUMPDEST SWAP2 POP DUP3 PUSH1 0x2 MUL DUP3 OR SWAP1 POP SWAP3 SWAP2 POP POP JUMP JUMPDEST PUSH3 0x4D5 DUP3 PUSH3 0x27F JUMP JUMPDEST PUSH8 0xFFFFFFFFFFFFFFFF DUP2 GT ISZERO PUSH3 0x4F1 JUMPI PUSH3 0x4F0 PUSH3 0x96 JUMP JUMPDEST JUMPDEST PUSH3 0x4FD DUP3 SLOAD PUSH3 0x2B9 JUMP JUMPDEST PUSH3 0x50A DUP3 DUP3 DUP6 PUSH3 0x42F JUMP JUMPDEST PUSH1 0x0 PUSH1 0x20 SWAP1 POP PUSH1 0x1F DUP4 GT PUSH1 0x1 DUP2 EQ PUSH3 0x542 JUMPI PUSH1 0x0 DUP5 ISZERO PUSH3 0x52D JUMPI DUP3 DUP8 ADD MLOAD SWAP1 POP JUMPDEST PUSH3 0x539 DUP6 DUP3 PUSH3 0x4AC JUMP JUMPDEST DUP7 SSTORE POP PUSH3 0x5A9 JUMP JUMPDEST PUSH1 0x1F NOT DUP5 AND PUSH3 0x552 DUP7 PUSH3 0x2EE JUMP JUMPDEST PUSH1 0x0 JUMPDEST DUP3 DUP2 LT ISZERO PUSH3 0x57C JUMPI DUP5 DUP10 ADD MLOAD DUP3 SSTORE PUSH1 0x1 DUP3 ADD SWAP2 POP PUSH1 0x20 DUP6 ADD SWAP5 POP PUSH1 0x20 DUP2 ADD SWAP1 POP PUSH3 0x555 JUMP JUMPDEST DUP7 DUP4 LT ISZERO PUSH3 0x59C JUMPI DUP5 DUP10 ADD MLOAD PUSH3 0x598 PUSH1 0x1F DUP10 AND DUP3 PUSH3 0x48C JUMP JUMPDEST DUP4 SSTORE POP JUMPDEST PUSH1 0x1 PUSH1 0x2 DUP9 MUL ADD DUP9 SSTORE POP POP POP JUMPDEST POP POP POP POP POP POP JUMP JUMPDEST PUSH2 0x1C35 DUP1 PUSH3 0x5C1 PUSH1 0x0 CODECOPY PUSH1 0x0 RETURN INVALID PUSH1 0x80 PUSH1 0x40 MSTORE CALLVALUE DUP1 ISZERO PUSH2 0x10 JUMPI PUSH1 0x0 DUP1 REVERT JUMPDEST POP PUSH1 0x4 CALLDATASIZE LT PUSH2 0x100 JUMPI PUSH1 0x0 CALLDATALOAD PUSH1 0xE0 SHR DUP1 PUSH4 0x42842E0E GT PUSH2 0x97 JUMPI DUP1 PUSH4 0xA9059CBB GT PUSH2 0x66 JUMPI DUP1 PUSH4 0xA9059CBB EQ PUSH2 0x2C1 JUMPI DUP1 PUSH4 0xB88D4FDE EQ PUSH2 0x2F1 JUMPI DUP1 PUSH4 0xDD62ED3E EQ PUSH2 0x30D JUMPI DUP1 PUSH4 0xEB795549 EQ PUSH2 0x33D JUMPI PUSH2 0x100 JUMP JUMPDEST DUP1 PUSH4 0x42842E0E EQ PUSH2 0x227 JUMPI DUP1 PUSH4 0x70A08231 EQ PUSH2 0x243 JUMPI DUP1 PUSH4 0x95D89B41 EQ PUSH2 0x273 JUMPI DUP1 PUSH4 0xA457C2D7 EQ PUSH2 0x291 JUMPI PUSH2 0x100 JUMP JUMPDEST DUP1 PUSH4 0x313CE567 GT PUSH2 0xD3 JUMPI DUP1 PUSH4 0x313CE567 EQ PUSH2 0x1A1 JUMPI DUP1 PUSH4 0x39509351 EQ PUSH2 0x1BF JUMPI DUP1 PUSH4 0x40C10F19 EQ PUSH2 0x1EF JUMPI DUP1 PUSH4 0x423F6CEF EQ PUSH2 0x20B JUMPI PUSH2 0x100 JUMP JUMPDEST DUP1 PUSH4 0x6FDDE03 EQ PUSH2 0x105 JUMPI DUP1 PUSH4 0x95EA7B3 EQ PUSH2 0x123 JUMPI DUP1 PUSH4 0x18160DDD EQ PUSH2 0x153 JUMPI DUP1 PUSH4 0x23B872DD EQ PUSH2 0x171 JUMPI JUMPDEST PUSH1 0x0 DUP1 REVERT JUMPDEST PUSH2 0x10D PUSH2 0x359 JUMP JUMPDEST PUSH1 0x40 MLOAD PUSH2 0x11A SWAP2 SWAP1 PUSH2 0x1017 JUMP JUMPDEST PUSH1 0x40 MLOAD DUP1 SWAP2 SUB SWAP1 RETURN JUMPDEST PUSH2 0x13D PUSH1 0x4 DUP1 CALLDATASIZE SUB DUP2 ADD SWAP1 PUSH2 0x138 SWAP2 SWAP1 PUSH2 0x10E1 JUMP JUMPDEST PUSH2 0x3EB JUMP JUMPDEST PUSH1 0x40 MLOAD PUSH2 0x14A SWAP2 SWAP1 PUSH2 0x113C JUMP JUMPDEST PUSH1 0x40 MLOAD DUP1 SWAP2 SUB SWAP1 RETURN JUMPDEST PUSH2 0x15B PUSH2 0x40E JUMP JUMPDEST PUSH1 0x40 MLOAD PUSH2 0x168 SWAP2 SWAP1 PUSH2 0x1166 JUMP JUMPDEST PUSH1 0x40 MLOAD DUP1 SWAP2 SUB SWAP1 RETURN JUMPDEST PUSH2 0x18B PUSH1 0x4 DUP1 CALLDATASIZE SUB DUP2 ADD SWAP1 PUSH2 0x186 SWAP2 SWAP1 PUSH2 0x1181 JUMP JUMPDEST PUSH2 0x418 JUMP JUMPDEST PUSH1 0x40 MLOAD PUSH2 0x198 SWAP2 SWAP1 PUSH2 0x113C JUMP JUMPDEST PUSH1 0x40 MLOAD DUP1 SWAP2 SUB SWAP1 RETURN JUMPDEST PUSH2 0x1A9 PUSH2 0x447 JUMP JUMPDEST PUSH1 0x40 MLOAD PUSH2 0x1B6 SWAP2 SWAP1 PUSH2 0x11F0 JUMP JUMPDEST PUSH1 0x40 MLOAD DUP1 SWAP2 SUB SWAP1 RETURN JUMPDEST PUSH2 0x1D9 PUSH1 0x4 DUP1 CALLDATASIZE SUB DUP2 ADD SWAP1 PUSH2 0x1D4 SWAP2 SWAP1 PUSH2 0x10E1 JUMP JUMPDEST PUSH2 0x450 JUMP JUMPDEST PUSH1 0x40 MLOAD PUSH2 0x1E6 SWAP2 SWAP1 PUSH2 0x113C JUMP JUMPDEST PUSH1 0x40 MLOAD DUP1 SWAP2 SUB SWAP1 RETURN JUMPDEST PUSH2 0x209 PUSH1 0x4 DUP1 CALLDATASIZE SUB DUP2 ADD SWAP1 PUSH2 0x204 SWAP2 SWAP1 PUSH2 0x10E1 JUMP JUMPDEST PUSH2 0x487 JUMP JUMPDEST STOP JUMPDEST PUSH2 0x225 PUSH1 0x4 DUP1 CALLDATASIZE SUB DUP2 ADD SWAP1 PUSH2 0x220 SWAP2 SWAP1 PUSH2 0x10E1 JUMP JUMPDEST PUSH2 0x495 JUMP JUMPDEST STOP JUMPDEST PUSH2 0x241 PUSH1 0x4 DUP1 CALLDATASIZE SUB DUP2 ADD SWAP1 PUSH2 0x23C SWAP2 SWAP1 PUSH2 0x1181 JUMP JUMPDEST PUSH2 0x4C1 JUMP JUMPDEST STOP JUMPDEST PUSH2 0x25D PUSH1 0x4 DUP1 CALLDATASIZE SUB DUP2 ADD SWAP1 PUSH2 0x258 SWAP2 SWAP1 PUSH2 0x120B JUMP JUMPDEST PUSH2 0x4F9 JUMP JUMPDEST PUSH1 0x40 MLOAD PUSH2 0x26A SWAP2 SWAP1 PUSH2 0x1166 JUMP JUMPDEST PUSH1 0x40 MLOAD DUP1 SWAP2 SUB SWAP1 RETURN JUMPDEST PUSH2 0x27B PUSH2 0x541 JUMP JUMPDEST PUSH1 0x40 MLOAD PUSH2 0x288 SWAP2 SWAP1 PUSH2 0x1017 JUMP JUMPDEST PUSH1 0x40 MLOAD DUP1 SWAP2 SUB SWAP1 RETURN JUMPDEST PUSH2 0x2AB PUSH1 0x4 DUP1 CALLDATASIZE SUB DUP2 ADD SWAP1 PUSH2 0x2A6 SWAP2 SWAP1 PUSH2 0x10E1 JUMP JUMPDEST PUSH2 0x5D3 JUMP JUMPDEST PUSH1 0x40 MLOAD PUSH2 0x2B8 SWAP2 SWAP1 PUSH2 0x113C JUMP JUMPDEST PUSH1 0x40 MLOAD DUP1 SWAP2 SUB SWAP1 RETURN JUMPDEST PUSH2 0x2DB PUSH1 0x4 DUP1 CALLDATASIZE SUB DUP2 ADD SWAP1 PUSH2 0x2D6 SWAP2 SWAP1 PUSH2 0x10E1 JUMP JUMPDEST PUSH2 0x64A JUMP JUMPDEST PUSH1 0x40 MLOAD PUSH2 0x2E8 SWAP2 SWAP1 PUSH2 0x113C JUMP JUMPDEST PUSH1 0x40 MLOAD DUP1 SWAP2 SUB SWAP1 RETURN JUMPDEST PUSH2 0x30B PUSH1 0x4 DUP1 CALLDATASIZE SUB DUP2 ADD SWAP1 PUSH2 0x306 SWAP2 SWAP1 PUSH2 0x136D JUMP JUMPDEST PUSH2 0x66D JUMP JUMPDEST STOP JUMPDEST PUSH2 0x327 PUSH1 0x4 DUP1 CALLDATASIZE SUB DUP2 ADD SWAP1 PUSH2 0x322 SWAP2 SWAP1 PUSH2 0x13F0 JUMP JUMPDEST PUSH2 0x697 JUMP JUMPDEST PUSH1 0x40 MLOAD PUSH2 0x334 SWAP2 SWAP1 PUSH2 0x1166 JUMP JUMPDEST PUSH1 0x40 MLOAD DUP1 SWAP2 SUB SWAP1 RETURN JUMPDEST PUSH2 0x357 PUSH1 0x4 DUP1 CALLDATASIZE SUB DUP2 ADD SWAP1 PUSH2 0x352 SWAP2 SWAP1 PUSH2 0x1430 JUMP JUMPDEST PUSH2 0x71E JUMP JUMPDEST STOP JUMPDEST PUSH1 0x60 PUSH1 0x3 DUP1 SLOAD PUSH2 0x368 SWAP1 PUSH2 0x14CE JUMP JUMPDEST DUP1 PUSH1 0x1F ADD PUSH1 0x20 DUP1 SWAP2 DIV MUL PUSH1 0x20 ADD PUSH1 0x40 MLOAD SWAP1 DUP2 ADD PUSH1 0x40 MSTORE DUP1 SWAP3 SWAP2 SWAP1 DUP2 DUP2 MSTORE PUSH1 0x20 ADD DUP3 DUP1 SLOAD PUSH2 0x394 SWAP1 PUSH2 0x14CE JUMP JUMPDEST DUP1 ISZERO PUSH2 0x3E1 JUMPI DUP1 PUSH1 0x1F LT PUSH2 0x3B6 JUMPI PUSH2 0x100 DUP1 DUP4 SLOAD DIV MUL DUP4 MSTORE SWAP2 PUSH1 0x20 ADD SWAP2 PUSH2 0x3E1 JUMP JUMPDEST DUP3 ADD SWAP2 SWAP1 PUSH1 0x0 MSTORE PUSH1 0x20 PUSH1 0x0 KECCAK256 SWAP1 JUMPDEST DUP2 SLOAD DUP2 MSTORE SWAP1 PUSH1 0x1 ADD SWAP1 PUSH1 0x20 ADD DUP1 DUP4 GT PUSH2 0x3C4 JUMPI DUP3 SWAP1 SUB PUSH1 0x1F AND DUP3 ADD SWAP2 JUMPDEST POP POP POP POP POP SWAP1 POP SWAP1 JUMP JUMPDEST PUSH1 0x0 DUP1 PUSH2 0x3F6 PUSH2 0x73C JUMP JUMPDEST SWAP1 POP PUSH2 0x403 DUP2 DUP6 DUP6 PUSH2 0x744 JUMP JUMPDEST PUSH1 0x1 SWAP2 POP POP SWAP3 SWAP2 POP POP JUMP JUMPDEST PUSH1 0x0 PUSH1 0x2 SLOAD SWAP1 POP SWAP1 JUMP JUMPDEST PUSH1 0x0 DUP1 PUSH2 0x423 PUSH2 0x73C JUMP JUMPDEST SWAP1 POP PUSH2 0x430 DUP6 DUP3 DUP6 PUSH2 0x90D JUMP JUMPDEST PUSH2 0x43B DUP6 DUP6 DUP6 PUSH2 0x999 JUMP JUMPDEST PUSH1 0x1 SWAP2 POP POP SWAP4 SWAP3 POP POP POP JUMP JUMPDEST PUSH1 0x0 PUSH1 0x12 SWAP1 POP SWAP1 JUMP JUMPDEST PUSH1 0x0 DUP1 PUSH2 0x45B PUSH2 0x73C JUMP JUMPDEST SWAP1 POP PUSH2 0x47C DUP2 DUP6 DUP6 PUSH2 0x46D DUP6 DUP10 PUSH2 0x697 JUMP JUMPDEST PUSH2 0x477 SWAP2 SWAP1 PUSH2 0x152E JUMP JUMPDEST PUSH2 0x744 JUMP JUMPDEST PUSH1 0x1 SWAP2 POP POP SWAP3 SWAP2 POP POP JUMP JUMPDEST PUSH2 0x491 DUP3 DUP3 PUSH2 0xC18 JUMP JUMPDEST POP POP JUMP JUMPDEST PUSH1 0x0 PUSH2 0x49F PUSH2 0x73C JUMP JUMPDEST SWAP1 POP PUSH2 0x4BC DUP2 DUP5 DUP5 PUSH1 0x40 MLOAD DUP1 PUSH1 0x20 ADD PUSH1 0x40 MSTORE DUP1 PUSH1 0x0 DUP2 MSTORE POP PUSH2 0xD77 JUMP JUMPDEST POP POP POP JUMP JUMPDEST PUSH1 0x0 PUSH2 0x4CB PUSH2 0x73C JUMP JUMPDEST SWAP1 POP PUSH2 0x4D8 DUP5 DUP3 DUP5 PUSH2 0x90D JUMP JUMPDEST PUSH2 0x4F3 DUP5 DUP5 DUP5 PUSH1 0x40 MLOAD DUP1 PUSH1 0x20 ADD PUSH1 0x40 MSTORE DUP1 PUSH1 0x0 DUP2 MSTORE POP PUSH2 0xD77 JUMP JUMPDEST POP POP POP POP JUMP JUMPDEST PUSH1 0x0 DUP1 PUSH1 0x0 DUP4 PUSH20 0xFFFFFFFFFFFFFFFFFFFFFFFFFFFFFFFFFFFFFFFF AND PUSH20 0xFFFFFFFFFFFFFFFFFFFFFFFFFFFFFFFFFFFFFFFF AND DUP2 MSTORE PUSH1 0x20 ADD SWAP1 DUP2 MSTORE PUSH1 0x20 ADD PUSH1 0x0 KECCAK256 SLOAD SWAP1 POP SWAP2 SWAP1 POP JUMP JUMPDEST PUSH1 0x60 PUSH1 0x4 DUP1 SLOAD PUSH2 0x550 SWAP1 PUSH2 0x14CE JUMP JUMPDEST DUP1 PUSH1 0x1F ADD PUSH1 0x20 DUP1 SWAP2 DIV MUL PUSH1 0x20 ADD PUSH1 0x40 MLOAD SWAP1 DUP2 ADD PUSH1 0x40 MSTORE DUP1 SWAP3 SWAP2 SWAP1 DUP2 DUP2 MSTORE PUSH1 0x20 ADD DUP3 DUP1 SLOAD PUSH2 0x57C SWAP1 PUSH2 0x14CE JUMP JUMPDEST DUP1 ISZERO PUSH2 0x5C9 JUMPI DUP1 PUSH1 0x1F LT PUSH2 0x59E JUMPI PUSH2 0x100 DUP1 DUP4 SLOAD DIV MUL DUP4 MSTORE SWAP2 PUSH1 0x20 ADD SWAP2 PUSH2 0x5C9 JUMP JUMPDEST DUP3 ADD SWAP2 SWAP1 PUSH1 0x0 MSTORE PUSH1 0x20 PUSH1 0x0 KECCAK256 SWAP1 JUMPDEST DUP2 SLOAD DUP2 MSTORE SWAP1 PUSH1 0x1 ADD SWAP1 PUSH1 0x20 ADD DUP1 DUP4 GT PUSH2 0x5AC JUMPI DUP3 SWAP1 SUB PUSH1 0x1F AND DUP3 ADD SWAP2 JUMPDEST POP POP POP POP POP SWAP1 POP SWAP1 JUMP JUMPDEST PUSH1 0x0 DUP1 PUSH2 0x5DE PUSH2 0x73C JUMP JUMPDEST SWAP1 POP PUSH1 0x0 PUSH2 0x5EC DUP3 DUP7 PUSH2 0x697 JUMP JUMPDEST SWAP1 POP DUP4 DUP2 LT ISZERO PUSH2 0x631 JUMPI PUSH1 0x40 MLOAD PUSH32 0x8C379A000000000000000000000000000000000000000000000000000000000 DUP2 MSTORE PUSH1 0x4 ADD PUSH2 0x628 SWAP1 PUSH2 0x15D4 JUMP JUMPDEST PUSH1 0x40 MLOAD DUP1 SWAP2 SUB SWAP1 REVERT JUMPDEST PUSH2 0x63E DUP3 DUP7 DUP7 DUP5 SUB PUSH2 0x744 JUMP JUMPDEST PUSH1 0x1 SWAP3 POP POP POP SWAP3 SWAP2 POP POP JUMP JUMPDEST PUSH1 0x0 DUP1 PUSH2 0x655 PUSH2 0x73C JUMP JUMPDEST SWAP1 POP PUSH2 0x662 DUP2 DUP6 DUP6 PUSH2 0x999 JUMP JUMPDEST PUSH1 0x1 SWAP2 POP POP SWAP3 SWAP2 POP POP JUMP JUMPDEST PUSH1 0x0 PUSH2 0x677 PUSH2 0x73C JUMP JUMPDEST SWAP1 POP PUSH2 0x684 DUP6 DUP3 DUP6 PUSH2 0x90D JUMP JUMPDEST PUSH2 0x690 DUP6 DUP6 DUP6 DUP6 PUSH2 0xD77 JUMP JUMPDEST POP POP POP POP POP JUMP JUMPDEST PUSH1 0x0 PUSH1 0x1 PUSH1 0x0 DUP5 PUSH20 0xFFFFFFFFFFFFFFFFFFFFFFFFFFFFFFFFFFFFFFFF AND PUSH20 0xFFFFFFFFFFFFFFFFFFFFFFFFFFFFFFFFFFFFFFFF AND DUP2 MSTORE PUSH1 0x20 ADD SWAP1 DUP2 MSTORE PUSH1 0x20 ADD PUSH1 0x0 KECCAK256 PUSH1 0x0 DUP4 PUSH20 0xFFFFFFFFFFFFFFFFFFFFFFFFFFFFFFFFFFFFFFFF AND PUSH20 0xFFFFFFFFFFFFFFFFFFFFFFFFFFFFFFFFFFFFFFFF AND DUP2 MSTORE PUSH1 0x20 ADD SWAP1 DUP2 MSTORE PUSH1 0x20 ADD PUSH1 0x0 KECCAK256 SLOAD SWAP1 POP SWAP3 SWAP2 POP POP JUMP JUMPDEST PUSH1 0x0 PUSH2 0x728 PUSH2 0x73C JUMP JUMPDEST SWAP1 POP PUSH2 0x736 DUP2 DUP6 DUP6 DUP6 PUSH2 0xD77 JUMP JUMPDEST POP POP POP POP JUMP JUMPDEST PUSH1 0x0 CALLER SWAP1 POP SWAP1 JUMP JUMPDEST PUSH1 0x0 PUSH20 0xFFFFFFFFFFFFFFFFFFFFFFFFFFFFFFFFFFFFFFFF AND DUP4 PUSH20 0xFFFFFFFFFFFFFFFFFFFFFFFFFFFFFFFFFFFFFFFF AND SUB PUSH2 0x7B3 JUMPI PUSH1 0x40 MLOAD PUSH32 0x8C379A000000000000000000000000000000000000000000000000000000000 DUP2 MSTORE PUSH1 0x4 ADD PUSH2 0x7AA SWAP1 PUSH2 0x1666 JUMP JUMPDEST PUSH1 0x40 MLOAD DUP1 SWAP2 SUB SWAP1 REVERT JUMPDEST PUSH1 0x0 PUSH20 0xFFFFFFFFFFFFFFFFFFFFFFFFFFFFFFFFFFFFFFFF AND DUP3 PUSH20 0xFFFFFFFFFFFFFFFFFFFFFFFFFFFFFFFFFFFFFFFF AND SUB PUSH2 0x822 JUMPI PUSH1 0x40 MLOAD PUSH32 0x8C379A000000000000000000000000000000000000000000000000000000000 DUP2 MSTORE PUSH1 0x4 ADD PUSH2 0x819 SWAP1 PUSH2 0x16F8 JUMP JUMPDEST PUSH1 0x40 MLOAD DUP1 SWAP2 SUB SWAP1 REVERT JUMPDEST DUP1 PUSH1 0x1 PUSH1 0x0 DUP6 PUSH20 0xFFFFFFFFFFFFFFFFFFFFFFFFFFFFFFFFFFFFFFFF AND PUSH20 0xFFFFFFFFFFFFFFFFFFFFFFFFFFFFFFFFFFFFFFFF AND DUP2 MSTORE PUSH1 0x20 ADD SWAP1 DUP2 MSTORE PUSH1 0x20 ADD PUSH1 0x0 KECCAK256 PUSH1 0x0 DUP5 PUSH20 0xFFFFFFFFFFFFFFFFFFFFFFFFFFFFFFFFFFFFFFFF AND PUSH20 0xFFFFFFFFFFFFFFFFFFFFFFFFFFFFFFFFFFFFFFFF AND DUP2 MSTORE PUSH1 0x20 ADD SWAP1 DUP2 MSTORE PUSH1 0x20 ADD PUSH1 0x0 KECCAK256 DUP2 SWAP1 SSTORE POP DUP2 PUSH20 0xFFFFFFFFFFFFFFFFFFFFFFFFFFFFFFFFFFFFFFFF AND DUP4 PUSH20 0xFFFFFFFFFFFFFFFFFFFFFFFFFFFFFFFFFFFFFFFF AND PUSH32 0x8C5BE1E5EBEC7D5BD14F71427D1E84F3DD0314C0F7B2291E5B200AC8C7C3B925 DUP4 PUSH1 0x40 MLOAD PUSH2 0x900 SWAP2 SWAP1 PUSH2 0x1166 JUMP JUMPDEST PUSH1 0x40 MLOAD DUP1 SWAP2 SUB SWAP1 LOG3 POP POP POP JUMP JUMPDEST PUSH1 0x0 PUSH2 0x919 DUP5 DUP5 PUSH2 0x697 JUMP JUMPDEST SWAP1 POP PUSH32 0xFFFFFFFFFFFFFFFFFFFFFFFFFFFFFFFFFFFFFFFFFFFFFFFFFFFFFFFFFFFFFFFF DUP2 EQ PUSH2 0x993 JUMPI DUP2 DUP2 LT ISZERO PUSH2 0x985 JUMPI PUSH1 0x40 MLOAD PUSH32 0x8C379A000000000000000000000000000000000000000000000000000000000 DUP2 MSTORE PUSH1 0x4 ADD PUSH2 0x97C SWAP1 PUSH2 0x1764 JUMP JUMPDEST PUSH1 0x40 MLOAD DUP1 SWAP2 SUB SWAP1 REVERT JUMPDEST PUSH2 0x992 DUP5 DUP5 DUP5 DUP5 SUB PUSH2 0x744 JUMP JUMPDEST JUMPDEST POP POP POP POP JUMP JUMPDEST PUSH1 0x0 PUSH20 0xFFFFFFFFFFFFFFFFFFFFFFFFFFFFFFFFFFFFFFFF AND DUP4 PUSH20 0xFFFFFFFFFFFFFFFFFFFFFFFFFFFFFFFFFFFFFFFF AND SUB PUSH2 0xA08 JUMPI PUSH1 0x40 MLOAD PUSH32 0x8C379A000000000000000000000000000000000000000000000000000000000 DUP2 MSTORE PUSH1 0x4 ADD PUSH2 0x9FF SWAP1 PUSH2 0x17F6 JUMP JUMPDEST PUSH1 0x40 MLOAD DUP1 SWAP2 SUB SWAP1 REVERT JUMPDEST PUSH1 0x0 PUSH20 0xFFFFFFFFFFFFFFFFFFFFFFFFFFFFFFFFFFFFFFFF AND DUP3 PUSH20 0xFFFFFFFFFFFFFFFFFFFFFFFFFFFFFFFFFFFFFFFF AND SUB PUSH2 0xA77 JUMPI PUSH1 0x40 MLOAD PUSH32 0x8C379A000000000000000000000000000000000000000000000000000000000 DUP2 MSTORE PUSH1 0x4 ADD PUSH2 0xA6E SWAP1 PUSH2 0x1888 JUMP JUMPDEST PUSH1 0x40 MLOAD DUP1 SWAP2 SUB SWAP1 REVERT JUMPDEST PUSH2 0xA82 DUP4 DUP4 DUP4 PUSH2 0xDD3 JUMP JUMPDEST PUSH1 0x0 DUP1 PUSH1 0x0 DUP6 PUSH20 0xFFFFFFFFFFFFFFFFFFFFFFFFFFFFFFFFFFFFFFFF AND PUSH20 0xFFFFFFFFFFFFFFFFFFFFFFFFFFFFFFFFFFFFFFFF AND DUP2 MSTORE PUSH1 0x20 ADD SWAP1 DUP2 MSTORE PUSH1 0x20 ADD PUSH1 0x0 KECCAK256 SLOAD SWAP1 POP DUP2 DUP2 LT ISZERO PUSH2 0xB08 JUMPI PUSH1 0x40 MLOAD PUSH32 0x8C379A000000000000000000000000000000000000000000000000000000000 DUP2 MSTORE PUSH1 0x4 ADD PUSH2 0xAFF SWAP1 PUSH2 0x191A JUMP JUMPDEST PUSH1 0x40 MLOAD DUP1 SWAP2 SUB SWAP1 REVERT JUMPDEST DUP2 DUP2 SUB PUSH1 0x0 DUP1 DUP7 PUSH20 0xFFFFFFFFFFFFFFFFFFFFFFFFFFFFFFFFFFFFFFFF AND PUSH20 0xFFFFFFFFFFFFFFFFFFFFFFFFFFFFFFFFFFFFFFFF AND DUP2 MSTORE PUSH1 0x20 ADD SWAP1 DUP2 MSTORE PUSH1 0x20 ADD PUSH1 0x0 KECCAK256 DUP2 SWAP1 SSTORE POP DUP2 PUSH1 0x0 DUP1 DUP6 PUSH20 0xFFFFFFFFFFFFFFFFFFFFFFFFFFFFFFFFFFFFFFFF AND PUSH20 0xFFFFFFFFFFFFFFFFFFFFFFFFFFFFFFFFFFFFFFFF AND DUP2 MSTORE PUSH1 0x20 ADD SWAP1 DUP2 MSTORE PUSH1 0x20 ADD PUSH1 0x0 KECCAK256 PUSH1 0x0 DUP3 DUP3 SLOAD PUSH2 0xB9B SWAP2 SWAP1 PUSH2 0x152E JUMP JUMPDEST SWAP3 POP POP DUP2 SWAP1 SSTORE POP DUP3 PUSH20 0xFFFFFFFFFFFFFFFFFFFFFFFFFFFFFFFFFFFFFFFF AND DUP5 PUSH20 0xFFFFFFFFFFFFFFFFFFFFFFFFFFFFFFFFFFFFFFFF AND PUSH32 0xDDF252AD1BE2C89B69C2B068FC378DAA952BA7F163C4A11628F55A4DF523B3EF DUP5 PUSH1 0x40 MLOAD PUSH2 0xBFF SWAP2 SWAP1 PUSH2 0x1166 JUMP JUMPDEST PUSH1 0x40 MLOAD DUP1 SWAP2 SUB SWAP1 LOG3 PUSH2 0xC12 DUP5 DUP5 DUP5 PUSH2 0xDD8 JUMP JUMPDEST POP POP POP POP JUMP JUMPDEST PUSH1 0x0 PUSH20 0xFFFFFFFFFFFFFFFFFFFFFFFFFFFFFFFFFFFFFFFF AND DUP3 PUSH20 0xFFFFFFFFFFFFFFFFFFFFFFFFFFFFFFFFFFFFFFFF AND SUB PUSH2 0xC87 JUMPI PUSH1 0x40 MLOAD PUSH32 0x8C379A000000000000000000000000000000000000000000000000000000000 DUP2 MSTORE PUSH1 0x4 ADD PUSH2 0xC7E SWAP1 PUSH2 0x1986 JUMP JUMPDEST PUSH1 0x40 MLOAD DUP1 SWAP2 SUB SWAP1 REVERT JUMPDEST PUSH2 0xC93 PUSH1 0x0 DUP4 DUP4 PUSH2 0xDD3 JUMP JUMPDEST DUP1 PUSH1 0x2 PUSH1 0x0 DUP3 DUP3 SLOAD PUSH2 0xCA5 SWAP2 SWAP1 PUSH2 0x152E JUMP JUMPDEST SWAP3 POP POP DUP2 SWAP1 SSTORE POP DUP1 PUSH1 0x0 DUP1 DUP5 PUSH20 0xFFFFFFFFFFFFFFFFFFFFFFFFFFFFFFFFFFFFFFFF AND PUSH20 0xFFFFFFFFFFFFFFFFFFFFFFFFFFFFFFFFFFFFFFFF AND DUP2 MSTORE PUSH1 0x20 ADD SWAP1 DUP2 MSTORE PUSH1 0x20 ADD PUSH1 0x0 KECCAK256 PUSH1 0x0 DUP3 DUP3 SLOAD PUSH2 0xCFA SWAP2 SWAP1 PUSH2 0x152E JUMP JUMPDEST SWAP3 POP POP DUP2 SWAP1 SSTORE POP DUP2 PUSH20 0xFFFFFFFFFFFFFFFFFFFFFFFFFFFFFFFFFFFFFFFF AND PUSH1 0x0 PUSH20 0xFFFFFFFFFFFFFFFFFFFFFFFFFFFFFFFFFFFFFFFF AND PUSH32 0xDDF252AD1BE2C89B69C2B068FC378DAA952BA7F163C4A11628F55A4DF523B3EF DUP4 PUSH1 0x40 MLOAD PUSH2 0xD5F SWAP2 SWAP1 PUSH2 0x1166 JUMP JUMPDEST PUSH1 0x40 MLOAD DUP1 SWAP2 SUB SWAP1 LOG3 PUSH2 0xD73 PUSH1 0x0 DUP4 DUP4 PUSH2 0xDD8 JUMP JUMPDEST POP POP JUMP JUMPDEST PUSH2 0xD82 DUP5 DUP5 DUP5 PUSH2 0x999 JUMP JUMPDEST PUSH2 0xD8E DUP5 DUP5 DUP5 DUP5 PUSH2 0xDDD JUMP JUMPDEST PUSH2 0xDCD JUMPI PUSH1 0x40 MLOAD PUSH32 0x8C379A000000000000000000000000000000000000000000000000000000000 DUP2 MSTORE PUSH1 0x4 ADD PUSH2 0xDC4 SWAP1 PUSH2 0x1A18 JUMP JUMPDEST PUSH1 0x40 MLOAD DUP1 SWAP2 SUB SWAP1 REVERT JUMPDEST POP POP POP POP JUMP JUMPDEST POP POP POP JUMP JUMPDEST POP POP POP JUMP JUMPDEST PUSH1 0x0 PUSH2 0xDFE DUP5 PUSH20 0xFFFFFFFFFFFFFFFFFFFFFFFFFFFFFFFFFFFFFFFF AND PUSH2 0xF64 JUMP JUMPDEST ISZERO PUSH2 0xF57 JUMPI DUP4 PUSH20 0xFFFFFFFFFFFFFFFFFFFFFFFFFFFFFFFFFFFFFFFF AND PUSH4 0x9D188C22 PUSH2 0xE27 PUSH2 0x73C JUMP JUMPDEST DUP8 DUP7 DUP7 PUSH1 0x40 MLOAD DUP6 PUSH4 0xFFFFFFFF AND PUSH1 0xE0 SHL DUP2 MSTORE PUSH1 0x4 ADD PUSH2 0xE49 SWAP5 SWAP4 SWAP3 SWAP2 SWAP1 PUSH2 0x1A9C JUMP JUMPDEST PUSH1 0x20 PUSH1 0x40 MLOAD DUP1 DUP4 SUB DUP2 PUSH1 0x0 DUP8 GAS CALL SWAP3 POP POP POP DUP1 ISZERO PUSH2 0xE85 JUMPI POP PUSH1 0x40 MLOAD RETURNDATASIZE PUSH1 0x1F NOT PUSH1 0x1F DUP3 ADD AND DUP3 ADD DUP1 PUSH1 0x40 MSTORE POP DUP2 ADD SWAP1 PUSH2 0xE82 SWAP2 SWAP1 PUSH2 0x1B40 JUMP JUMPDEST PUSH1 0x1 JUMPDEST PUSH2 0xF07 JUMPI RETURNDATASIZE DUP1 PUSH1 0x0 DUP2 EQ PUSH2 0xEB5 JUMPI PUSH1 0x40 MLOAD SWAP2 POP PUSH1 0x1F NOT PUSH1 0x3F RETURNDATASIZE ADD AND DUP3 ADD PUSH1 0x40 MSTORE RETURNDATASIZE DUP3 MSTORE RETURNDATASIZE PUSH1 0x0 PUSH1 0x20 DUP5 ADD RETURNDATACOPY PUSH2 0xEBA JUMP JUMPDEST PUSH1 0x60 SWAP2 POP JUMPDEST POP PUSH1 0x0 DUP2 MLOAD SUB PUSH2 0xEFF JUMPI PUSH1 0x40 MLOAD PUSH32 0x8C379A000000000000000000000000000000000000000000000000000000000 DUP2 MSTORE PUSH1 0x4 ADD PUSH2 0xEF6 SWAP1 PUSH2 0x1BDF JUMP JUMPDEST PUSH1 0x40 MLOAD DUP1 SWAP2 SUB SWAP1 REVERT JUMPDEST DUP1 MLOAD DUP2 PUSH1 0x20 ADD REVERT JUMPDEST PUSH4 0x9D188C22 PUSH1 0xE0 SHL PUSH28 0xFFFFFFFFFFFFFFFFFFFFFFFFFFFFFFFFFFFFFFFFFFFFFFFFFFFFFFFF NOT AND DUP2 PUSH28 0xFFFFFFFFFFFFFFFFFFFFFFFFFFFFFFFFFFFFFFFFFFFFFFFFFFFFFFFF NOT AND EQ SWAP2 POP POP PUSH2 0xF5C JUMP JUMPDEST PUSH1 0x1 SWAP1 POP JUMPDEST SWAP5 SWAP4 POP POP POP POP JUMP JUMPDEST PUSH1 0x0 DUP1 DUP3 PUSH20 0xFFFFFFFFFFFFFFFFFFFFFFFFFFFFFFFFFFFFFFFF AND EXTCODESIZE GT SWAP1 POP SWAP2 SWAP1 POP JUMP JUMPDEST PUSH1 0x0 DUP2 MLOAD SWAP1 POP SWAP2 SWAP1 POP JUMP JUMPDEST PUSH1 0x0 DUP3 DUP3 MSTORE PUSH1 0x20 DUP3 ADD SWAP1 POP SWAP3 SWAP2 POP POP JUMP JUMPDEST PUSH1 0x0 JUMPDEST DUP4 DUP2 LT ISZERO PUSH2 0xFC1 JUMPI DUP1 DUP3 ADD MLOAD DUP2 DUP5 ADD MSTORE PUSH1 0x20 DUP2 ADD SWAP1 POP PUSH2 0xFA6 JUMP JUMPDEST PUSH1 0x0 DUP5 DUP5 ADD MSTORE POP POP POP POP JUMP JUMPDEST PUSH1 0x0 PUSH1 0x1F NOT PUSH1 0x1F DUP4 ADD AND SWAP1 POP SWAP2 SWAP1 POP JUMP JUMPDEST PUSH1 0x0 PUSH2 0xFE9 DUP3 PUSH2 0xF87 JUMP JUMPDEST PUSH2 0xFF3 DUP2 DUP6 PUSH2 0xF92 JUMP JUMPDEST SWAP4 POP PUSH2 0x1003 DUP2 DUP6 PUSH1 0x20 DUP7 ADD PUSH2 0xFA3 JUMP JUMPDEST PUSH2 0x100C DUP2 PUSH2 0xFCD JUMP JUMPDEST DUP5 ADD SWAP2 POP POP SWAP3 SWAP2 POP POP JUMP JUMPDEST PUSH1 0x0 PUSH1 0x20 DUP3 ADD SWAP1 POP DUP2 DUP2 SUB PUSH1 0x0 DUP4 ADD MSTORE PUSH2 0x1031 DUP2 DUP5 PUSH2 0xFDE JUMP JUMPDEST SWAP1 POP SWAP3 SWAP2 POP POP JUMP JUMPDEST PUSH1 0x0 PUSH1 0x40 MLOAD SWAP1 POP SWAP1 JUMP JUMPDEST PUSH1 0x0 DUP1 REVERT JUMPDEST PUSH1 0x0 DUP1 REVERT JUMPDEST PUSH1 0x0 PUSH20 0xFFFFFFFFFFFFFFFFFFFFFFFFFFFFFFFFFFFFFFFF DUP3 AND SWAP1 POP SWAP2 SWAP1 POP JUMP JUMPDEST PUSH1 0x0 PUSH2 0x1078 DUP3 PUSH2 0x104D JUMP JUMPDEST SWAP1 POP SWAP2 SWAP1 POP JUMP JUMPDEST PUSH2 0x1088 DUP2 PUSH2 0x106D JUMP JUMPDEST DUP2 EQ PUSH2 0x1093 JUMPI PUSH1 0x0 DUP1 REVERT JUMPDEST POP JUMP JUMPDEST PUSH1 0x0 DUP2 CALLDATALOAD SWAP1 POP PUSH2 0x10A5 DUP2 PUSH2 0x107F JUMP JUMPDEST SWAP3 SWAP2 POP POP JUMP JUMPDEST PUSH1 0x0 DUP2 SWAP1 POP SWAP2 SWAP1 POP JUMP JUMPDEST PUSH2 0x10BE DUP2 PUSH2 0x10AB JUMP JUMPDEST DUP2 EQ PUSH2 0x10C9 JUMPI PUSH1 0x0 DUP1 REVERT JUMPDEST POP JUMP JUMPDEST PUSH1 0x0 DUP2 CALLDATALOAD SWAP1 POP PUSH2 0x10DB DUP2 PUSH2 0x10B5 JUMP JUMPDEST SWAP3 SWAP2 POP POP JUMP JUMPDEST PUSH1 0x0 DUP1 PUSH1 0x40 DUP4 DUP6 SUB SLT ISZERO PUSH2 0x10F8 JUMPI PUSH2 0x10F7 PUSH2 0x1043 JUMP JUMPDEST JUMPDEST PUSH1 0x0 PUSH2 0x1106 DUP6 DUP3 DUP7 ADD PUSH2 0x1096 JUMP JUMPDEST SWAP3 POP POP PUSH1 0x20 PUSH2 0x1117 DUP6 DUP3 DUP7 ADD PUSH2 0x10CC JUMP JUMPDEST SWAP2 POP POP SWAP3 POP SWAP3 SWAP1 POP JUMP JUMPDEST PUSH1 0x0 DUP2 ISZERO ISZERO SWAP1 POP SWAP2 SWAP1 POP JUMP JUMPDEST PUSH2 0x1136 DUP2 PUSH2 0x1121 JUMP JUMPDEST DUP3 MSTORE POP POP JUMP JUMPDEST PUSH1 0x0 PUSH1 0x20 DUP3 ADD SWAP1 POP PUSH2 0x1151 PUSH1 0x0 DUP4 ADD DUP5 PUSH2 0x112D JUMP JUMPDEST SWAP3 SWAP2 POP POP JUMP JUMPDEST PUSH2 0x1160 DUP2 PUSH2 0x10AB JUMP JUMPDEST DUP3 MSTORE POP POP JUMP JUMPDEST PUSH1 0x0 PUSH1 0x20 DUP3 ADD SWAP1 POP PUSH2 0x117B PUSH1 0x0 DUP4 ADD DUP5 PUSH2 0x1157 JUMP JUMPDEST SWAP3 SWAP2 POP POP JUMP JUMPDEST PUSH1 0x0 DUP1 PUSH1 0x0 PUSH1 0x60 DUP5 DUP7 SUB SLT ISZERO PUSH2 0x119A JUMPI PUSH2 0x1199 PUSH2 0x1043 JUMP JUMPDEST JUMPDEST PUSH1 0x0 PUSH2 0x11A8 DUP7 DUP3 DUP8 ADD PUSH2 0x1096 JUMP JUMPDEST SWAP4 POP POP PUSH1 0x20 PUSH2 0x11B9 DUP7 DUP3 DUP8 ADD PUSH2 0x1096 JUMP JUMPDEST SWAP3 POP POP PUSH1 0x40 PUSH2 0x11CA DUP7 DUP3 DUP8 ADD PUSH2 0x10CC JUMP JUMPDEST SWAP2 POP POP SWAP3 POP SWAP3 POP SWAP3 JUMP JUMPDEST PUSH1 0x0 PUSH1 0xFF DUP3 AND SWAP1 POP SWAP2 SWAP1 POP JUMP JUMPDEST PUSH2 0x11EA DUP2 PUSH2 0x11D4 JUMP JUMPDEST DUP3 MSTORE POP POP JUMP JUMPDEST PUSH1 0x0 PUSH1 0x20 DUP3 ADD SWAP1 POP PUSH2 0x1205 PUSH1 0x0 DUP4 ADD DUP5 PUSH2 0x11E1 JUMP JUMPDEST SWAP3 SWAP2 POP POP JUMP JUMPDEST PUSH1 0x0 PUSH1 0x20 DUP3 DUP5 SUB SLT ISZERO PUSH2 0x1221 JUMPI PUSH2 0x1220 PUSH2 0x1043 JUMP JUMPDEST JUMPDEST PUSH1 0x0 PUSH2 0x122F DUP5 DUP3 DUP6 ADD PUSH2 0x1096 JUMP JUMPDEST SWAP2 POP POP SWAP3 SWAP2 POP POP JUMP JUMPDEST PUSH1 0x0 DUP1 REVERT JUMPDEST PUSH1 0x0 DUP1 REVERT JUMPDEST PUSH32 0x4E487B7100000000000000000000000000000000000000000000000000000000 PUSH1 0x0 MSTORE PUSH1 0x41 PUSH1 0x4 MSTORE PUSH1 0x24 PUSH1 0x0 REVERT JUMPDEST PUSH2 0x127A DUP3 PUSH2 0xFCD JUMP JUMPDEST DUP2 ADD DUP2 DUP2 LT PUSH8 0xFFFFFFFFFFFFFFFF DUP3 GT OR ISZERO PUSH2 0x1299 JUMPI PUSH2 0x1298 PUSH2 0x1242 JUMP JUMPDEST JUMPDEST DUP1 PUSH1 0x40 MSTORE POP POP POP JUMP JUMPDEST PUSH1 0x0 PUSH2 0x12AC PUSH2 0x1039 JUMP JUMPDEST SWAP1 POP PUSH2 0x12B8 DUP3 DUP3 PUSH2 0x1271 JUMP JUMPDEST SWAP2 SWAP1 POP JUMP JUMPDEST PUSH1 0x0 PUSH8 0xFFFFFFFFFFFFFFFF DUP3 GT ISZERO PUSH2 0x12D8 JUMPI PUSH2 0x12D7 PUSH2 0x1242 JUMP JUMPDEST JUMPDEST PUSH2 0x12E1 DUP3 PUSH2 0xFCD JUMP JUMPDEST SWAP1 POP PUSH1 0x20 DUP2 ADD SWAP1 POP SWAP2 SWAP1 POP JUMP JUMPDEST DUP3 DUP2 DUP4 CALLDATACOPY PUSH1 0x0 DUP4 DUP4 ADD MSTORE POP POP POP JUMP JUMPDEST PUSH1 0x0 PUSH2 0x1310 PUSH2 0x130B DUP5 PUSH2 0x12BD JUMP JUMPDEST PUSH2 0x12A2 JUMP JUMPDEST SWAP1 POP DUP3 DUP2 MSTORE PUSH1 0x20 DUP2 ADD DUP5 DUP5 DUP5 ADD GT ISZERO PUSH2 0x132C JUMPI PUSH2 0x132B PUSH2 0x123D JUMP JUMPDEST JUMPDEST PUSH2 0x1337 DUP5 DUP3 DUP6 PUSH2 0x12EE JUMP JUMPDEST POP SWAP4 SWAP3 POP POP POP JUMP JUMPDEST PUSH1 0x0 DUP3 PUSH1 0x1F DUP4 ADD SLT PUSH2 0x1354 JUMPI PUSH2 0x1353 PUSH2 0x1238 JUMP JUMPDEST JUMPDEST DUP2 CALLDATALOAD PUSH2 0x1364 DUP5 DUP3 PUSH1 0x20 DUP7 ADD PUSH2 0x12FD JUMP JUMPDEST SWAP2 POP POP SWAP3 SWAP2 POP POP JUMP JUMPDEST PUSH1 0x0 DUP1 PUSH1 0x0 DUP1 PUSH1 0x80 DUP6 DUP8 SUB SLT ISZERO PUSH2 0x1387 JUMPI PUSH2 0x1386 PUSH2 0x1043 JUMP JUMPDEST JUMPDEST PUSH1 0x0 PUSH2 0x1395 DUP8 DUP3 DUP9 ADD PUSH2 0x1096 JUMP JUMPDEST SWAP5 POP POP PUSH1 0x20 PUSH2 0x13A6 DUP8 DUP3 DUP9 ADD PUSH2 0x1096 JUMP JUMPDEST SWAP4 POP POP PUSH1 0x40 PUSH2 0x13B7 DUP8 DUP3 DUP9 ADD PUSH2 0x10CC JUMP JUMPDEST SWAP3 POP POP PUSH1 0x60 DUP6 ADD CALLDATALOAD PUSH8 0xFFFFFFFFFFFFFFFF DUP2 GT ISZERO PUSH2 0x13D8 JUMPI PUSH2 0x13D7 PUSH2 0x1048 JUMP JUMPDEST JUMPDEST PUSH2 0x13E4 DUP8 DUP3 DUP9 ADD PUSH2 0x133F JUMP JUMPDEST SWAP2 POP POP SWAP3 SWAP6 SWAP2 SWAP5 POP SWAP3 POP JUMP JUMPDEST PUSH1 0x0 DUP1 PUSH1 0x40 DUP4 DUP6 SUB SLT ISZERO PUSH2 0x1407 JUMPI PUSH2 0x1406 PUSH2 0x1043 JUMP JUMPDEST JUMPDEST PUSH1 0x0 PUSH2 0x1415 DUP6 DUP3 DUP7 ADD PUSH2 0x1096 JUMP JUMPDEST SWAP3 POP POP PUSH1 0x20 PUSH2 0x1426 DUP6 DUP3 DUP7 ADD PUSH2 0x1096 JUMP JUMPDEST SWAP2 POP POP SWAP3 POP SWAP3 SWAP1 POP JUMP JUMPDEST PUSH1 0x0 DUP1 PUSH1 0x0 PUSH1 0x60 DUP5 DUP7 SUB SLT ISZERO PUSH2 0x1449 JUMPI PUSH2 0x1448 PUSH2 0x1043 JUMP JUMPDEST JUMPDEST PUSH1 0x0 PUSH2 0x1457 DUP7 DUP3 DUP8 ADD PUSH2 0x1096 JUMP JUMPDEST SWAP4 POP POP PUSH1 0x20 PUSH2 0x1468 DUP7 DUP3 DUP8 ADD PUSH2 0x10CC JUMP JUMPDEST SWAP3 POP POP PUSH1 0x40 DUP5 ADD CALLDATALOAD PUSH8 0xFFFFFFFFFFFFFFFF DUP2 GT ISZERO PUSH2 0x1489 JUMPI PUSH2 0x1488 PUSH2 0x1048 JUMP JUMPDEST JUMPDEST PUSH2 0x1495 DUP7 DUP3 DUP8 ADD PUSH2 0x133F JUMP JUMPDEST SWAP2 POP POP SWAP3 POP SWAP3 POP SWAP3 JUMP JUMPDEST PUSH32 0x4E487B7100000000000000000000000000000000000000000000000000000000 PUSH1 0x0 MSTORE PUSH1 0x22 PUSH1 0x4 MSTORE PUSH1 0x24 PUSH1 0x0 REVERT JUMPDEST PUSH1 0x0 PUSH1 0x2 DUP3 DIV SWAP1 POP PUSH1 0x1 DUP3 AND DUP1 PUSH2 0x14E6 JUMPI PUSH1 0x7F DUP3 AND SWAP2 POP JUMPDEST PUSH1 0x20 DUP3 LT DUP2 SUB PUSH2 0x14F9 JUMPI PUSH2 0x14F8 PUSH2 0x149F JUMP JUMPDEST JUMPDEST POP SWAP2 SWAP1 POP JUMP JUMPDEST PUSH32 0x4E487B7100000000000000000000000000000000000000000000000000000000 PUSH1 0x0 MSTORE PUSH1 0x11 PUSH1 0x4 MSTORE PUSH1 0x24 PUSH1 0x0 REVERT JUMPDEST PUSH1 0x0 PUSH2 0x1539 DUP3 PUSH2 0x10AB JUMP JUMPDEST SWAP2 POP PUSH2 0x1544 DUP4 PUSH2 0x10AB JUMP JUMPDEST SWAP3 POP DUP3 DUP3 ADD SWAP1 POP DUP1 DUP3 GT ISZERO PUSH2 0x155C JUMPI PUSH2 0x155B PUSH2 0x14FF JUMP JUMPDEST JUMPDEST SWAP3 SWAP2 POP POP JUMP JUMPDEST PUSH32 0x4B4950373A2064656372656173656420616C6C6F77616E63652062656C6F7720 PUSH1 0x0 DUP3 ADD MSTORE PUSH32 0x7A65726F00000000000000000000000000000000000000000000000000000000 PUSH1 0x20 DUP3 ADD MSTORE POP JUMP JUMPDEST PUSH1 0x0 PUSH2 0x15BE PUSH1 0x24 DUP4 PUSH2 0xF92 JUMP JUMPDEST SWAP2 POP PUSH2 0x15C9 DUP3 PUSH2 0x1562 JUMP JUMPDEST PUSH1 0x40 DUP3 ADD SWAP1 POP SWAP2 SWAP1 POP JUMP JUMPDEST PUSH1 0x0 PUSH1 0x20 DUP3 ADD SWAP1 POP DUP2 DUP2 SUB PUSH1 0x0 DUP4 ADD MSTORE PUSH2 0x15ED DUP2 PUSH2 0x15B1 JUMP JUMPDEST SWAP1 POP SWAP2 SWAP1 POP JUMP JUMPDEST PUSH32 0x4B4950373A20617070726F76652066726F6D20746865207A65726F2061646472 PUSH1 0x0 DUP3 ADD MSTORE PUSH32 0x6573730000000000000000000000000000000000000000000000000000000000 PUSH1 0x20 DUP3 ADD MSTORE POP JUMP JUMPDEST PUSH1 0x0 PUSH2 0x1650 PUSH1 0x23 DUP4 PUSH2 0xF92 JUMP JUMPDEST SWAP2 POP PUSH2 0x165B DUP3 PUSH2 0x15F4 JUMP JUMPDEST PUSH1 0x40 DUP3 ADD SWAP1 POP SWAP2 SWAP1 POP JUMP JUMPDEST PUSH1 0x0 PUSH1 0x20 DUP3 ADD SWAP1 POP DUP2 DUP2 SUB PUSH1 0x0 DUP4 ADD MSTORE PUSH2 0x167F DUP2 PUSH2 0x1643 JUMP JUMPDEST SWAP1 POP SWAP2 SWAP1 POP JUMP JUMPDEST PUSH32 0x4B4950373A20617070726F766520746F20746865207A65726F20616464726573 PUSH1 0x0 DUP3 ADD MSTORE PUSH32 0x7300000000000000000000000000000000000000000000000000000000000000 PUSH1 0x20 DUP3 ADD MSTORE POP JUMP JUMPDEST PUSH1 0x0 PUSH2 0x16E2 PUSH1 0x21 DUP4 PUSH2 0xF92 JUMP JUMPDEST SWAP2 POP PUSH2 0x16ED DUP3 PUSH2 0x1686 JUMP JUMPDEST PUSH1 0x40 DUP3 ADD SWAP1 POP SWAP2 SWAP1 POP JUMP JUMPDEST PUSH1 0x0 PUSH1 0x20 DUP3 ADD SWAP1 POP DUP2 DUP2 SUB PUSH1 0x0 DUP4 ADD MSTORE PUSH2 0x1711 DUP2 PUSH2 0x16D5 JUMP JUMPDEST SWAP1 POP SWAP2 SWAP1 POP JUMP JUMPDEST PUSH32 0x4B4950373A20696E73756666696369656E7420616C6C6F77616E636500000000 PUSH1 0x0 DUP3 ADD MSTORE POP JUMP JUMPDEST PUSH1 0x0 PUSH2 0x174E PUSH1 0x1C DUP4 PUSH2 0xF92 JUMP JUMPDEST SWAP2 POP PUSH2 0x1759 DUP3 PUSH2 0x1718 JUMP JUMPDEST PUSH1 0x20 DUP3 ADD SWAP1 POP SWAP2 SWAP1 POP JUMP JUMPDEST PUSH1 0x0 PUSH1 0x20 DUP3 ADD SWAP1 POP DUP2 DUP2 SUB PUSH1 0x0 DUP4 ADD MSTORE PUSH2 0x177D DUP2 PUSH2 0x1741 JUMP JUMPDEST SWAP1 POP SWAP2 SWAP1 POP JUMP JUMPDEST PUSH32 0x4B4950373A207472616E736665722066726F6D20746865207A65726F20616464 PUSH1 0x0 DUP3 ADD MSTORE PUSH32 0x7265737300000000000000000000000000000000000000000000000000000000 PUSH1 0x20 DUP3 ADD MSTORE POP JUMP JUMPDEST PUSH1 0x0 PUSH2 0x17E0 PUSH1 0x24 DUP4 PUSH2 0xF92 JUMP JUMPDEST SWAP2 POP PUSH2 0x17EB DUP3 PUSH2 0x1784 JUMP JUMPDEST PUSH1 0x40 DUP3 ADD SWAP1 POP SWAP2 SWAP1 POP JUMP JUMPDEST PUSH1 0x0 PUSH1 0x20 DUP3 ADD SWAP1 POP DUP2 DUP2 SUB PUSH1 0x0 DUP4 ADD MSTORE PUSH2 0x180F DUP2 PUSH2 0x17D3 JUMP JUMPDEST SWAP1 POP SWAP2 SWAP1 POP JUMP JUMPDEST PUSH32 0x4B4950373A207472616E7366657220746F20746865207A65726F206164647265 PUSH1 0x0 DUP3 ADD MSTORE PUSH32 0x7373000000000000000000000000000000000000000000000000000000000000 PUSH1 0x20 DUP3 ADD MSTORE POP JUMP JUMPDEST PUSH1 0x0 PUSH2 0x1872 PUSH1 0x22 DUP4 PUSH2 0xF92 JUMP JUMPDEST SWAP2 POP PUSH2 0x187D DUP3 PUSH2 0x1816 JUMP JUMPDEST PUSH1 0x40 DUP3 ADD SWAP1 POP SWAP2 SWAP1 POP JUMP JUMPDEST PUSH1 0x0 PUSH1 0x20 DUP3 ADD SWAP1 POP DUP2 DUP2 SUB PUSH1 0x0 DUP4 ADD MSTORE PUSH2 0x18A1 DUP2 PUSH2 0x1865 JUMP JUMPDEST SWAP1 POP SWAP2 SWAP1 POP JUMP JUMPDEST PUSH32 0x4B4950373A207472616E7366657220616D6F756E742065786365656473206261 PUSH1 0x0 DUP3 ADD MSTORE PUSH32 0x6C616E6365000000000000000000000000000000000000000000000000000000 PUSH1 0x20 DUP3 ADD MSTORE POP JUMP JUMPDEST PUSH1 0x0 PUSH2 0x1904 PUSH1 0x25 DUP4 PUSH2 0xF92 JUMP JUMPDEST SWAP2 POP PUSH2 0x190F DUP3 PUSH2 0x18A8 JUMP JUMPDEST PUSH1 0x40 DUP3 ADD SWAP1 POP SWAP2 SWAP1 POP JUMP JUMPDEST PUSH1 0x0 PUSH1 0x20 DUP3 ADD SWAP1 POP DUP2 DUP2 SUB PUSH1 0x0 DUP4 ADD MSTORE PUSH2 0x1933 DUP2 PUSH2 0x18F7 JUMP JUMPDEST SWAP1 POP SWAP2 SWAP1 POP JUMP JUMPDEST PUSH32 0x4B4950373A206D696E7420746F20746865207A65726F20616464726573730000 PUSH1 0x0 DUP3 ADD MSTORE POP JUMP JUMPDEST PUSH1 0x0 PUSH2 0x1970 PUSH1 0x1E DUP4 PUSH2 0xF92 JUMP JUMPDEST SWAP2 POP PUSH2 0x197B DUP3 PUSH2 0x193A JUMP JUMPDEST PUSH1 0x20 DUP3 ADD SWAP1 POP SWAP2 SWAP1 POP JUMP JUMPDEST PUSH1 0x0 PUSH1 0x20 DUP3 ADD SWAP1 POP DUP2 DUP2 SUB PUSH1 0x0 DUP4 ADD MSTORE PUSH2 0x199F DUP2 PUSH2 0x1963 JUMP JUMPDEST SWAP1 POP SWAP2 SWAP1 POP JUMP JUMPDEST PUSH32 0x4B4950373A207472616E7366657220746F206E6F6E20494B4950375265636569 PUSH1 0x0 DUP3 ADD MSTORE PUSH32 0x76657220696D706C656D656E7465720000000000000000000000000000000000 PUSH1 0x20 DUP3 ADD MSTORE POP JUMP JUMPDEST PUSH1 0x0 PUSH2 0x1A02 PUSH1 0x2F DUP4 PUSH2 0xF92 JUMP JUMPDEST SWAP2 POP PUSH2 0x1A0D DUP3 PUSH2 0x19A6 JUMP JUMPDEST PUSH1 0x40 DUP3 ADD SWAP1 POP SWAP2 SWAP1 POP JUMP JUMPDEST PUSH1 0x0 PUSH1 0x20 DUP3 ADD SWAP1 POP DUP2 DUP2 SUB PUSH1 0x0 DUP4 ADD MSTORE PUSH2 0x1A31 DUP2 PUSH2 0x19F5 JUMP JUMPDEST SWAP1 POP SWAP2 SWAP1 POP JUMP JUMPDEST PUSH2 0x1A41 DUP2 PUSH2 0x106D JUMP JUMPDEST DUP3 MSTORE POP POP JUMP JUMPDEST PUSH1 0x0 DUP2 MLOAD SWAP1 POP SWAP2 SWAP1 POP JUMP JUMPDEST PUSH1 0x0 DUP3 DUP3 MSTORE PUSH1 0x20 DUP3 ADD SWAP1 POP SWAP3 SWAP2 POP POP JUMP JUMPDEST PUSH1 0x0 PUSH2 0x1A6E DUP3 PUSH2 0x1A47 JUMP JUMPDEST PUSH2 0x1A78 DUP2 DUP6 PUSH2 0x1A52 JUMP JUMPDEST SWAP4 POP PUSH2 0x1A88 DUP2 DUP6 PUSH1 0x20 DUP7 ADD PUSH2 0xFA3 JUMP JUMPDEST PUSH2 0x1A91 DUP2 PUSH2 0xFCD JUMP JUMPDEST DUP5 ADD SWAP2 POP POP SWAP3 SWAP2 POP POP JUMP JUMPDEST PUSH1 0x0 PUSH1 0x80 DUP3 ADD SWAP1 POP PUSH2 0x1AB1 PUSH1 0x0 DUP4 ADD DUP8 PUSH2 0x1A38 JUMP JUMPDEST PUSH2 0x1ABE PUSH1 0x20 DUP4 ADD DUP7 PUSH2 0x1A38 JUMP JUMPDEST PUSH2 0x1ACB PUSH1 0x40 DUP4 ADD DUP6 PUSH2 0x1157 JUMP JUMPDEST DUP2 DUP2 SUB PUSH1 0x60 DUP4 ADD MSTORE PUSH2 0x1ADD DUP2 DUP5 PUSH2 0x1A63 JUMP JUMPDEST SWAP1 POP SWAP6 SWAP5 POP POP POP POP POP JUMP JUMPDEST PUSH1 0x0 PUSH32 0xFFFFFFFF00000000000000000000000000000000000000000000000000000000 DUP3 AND SWAP1 POP SWAP2 SWAP1 POP JUMP JUMPDEST PUSH2 0x1B1D DUP2 PUSH2 0x1AE8 JUMP JUMPDEST DUP2 EQ PUSH2 0x1B28 JUMPI PUSH1 0x0 DUP1 REVERT JUMPDEST POP JUMP JUMPDEST PUSH1 0x0 DUP2 MLOAD SWAP1 POP PUSH2 0x1B3A DUP2 PUSH2 0x1B14 JUMP JUMPDEST SWAP3 SWAP2 POP POP JUMP JUMPDEST PUSH1 0x0 PUSH1 0x20 DUP3 DUP5 SUB SLT ISZERO PUSH2 0x1B56 JUMPI PUSH2 0x1B55 PUSH2 0x1043 JUMP JUMPDEST JUMPDEST PUSH1 0x0 PUSH2 0x1B64 DUP5 DUP3 DUP6 ADD PUSH2 0x1B2B JUMP JUMPDEST SWAP2 POP POP SWAP3 SWAP2 POP POP JUMP JUMPDEST PUSH32 0x4B4950373A207472616E7366657220746F206E6F6E204B495037526563656976 PUSH1 0x0 DUP3 ADD MSTORE PUSH32 0x657220696D706C656D656E746572000000000000000000000000000000000000 PUSH1 0x20 DUP3 ADD MSTORE POP JUMP JUMPDEST PUSH1 0x0 PUSH2 0x1BC9 PUSH1 0x2E DUP4 PUSH2 0xF92 JUMP JUMPDEST SWAP2 POP PUSH2 0x1BD4 DUP3 PUSH2 0x1B6D JUMP JUMPDEST PUSH1 0x40 DUP3 ADD SWAP1 POP SWAP2 SWAP1 POP JUMP JUMPDEST PUSH1 0x0 PUSH1 0x20 DUP3 ADD SWAP1 POP DUP2 DUP2 SUB PUSH1 0x0 DUP4 ADD MSTORE PUSH2 0x1BF8 DUP2 PUSH2 0x1BBC JUMP JUMPDEST SWAP1 POP SWAP2 SWAP1 POP JUMP INVALID LOG2 PUSH5 0x6970667358 0x22 SLT KECCAK256 0x23 MSTORE MSIZE AND PUSH10 0x4DC568FC1F96628BDDA1 0x2B 0xEC 0xCD 0xC6 SWAP12 EXTCODECOPY SWAP3 0xC4 0xE MOD 0xD0 SWAP10 PUSH25 0xF052215464736F6C6343000812003300000000000000000000 "
				},
				"gasEstimates": {
					"creation": {
						"codeDepositCost": "1444200",
						"executionCost": "infinite",
						"totalCost": "infinite"
					},
					"external": {
						"allowance(address,address)": "infinite",
						"approve(address,uint256)": "infinite",
						"balanceOf(address)": "2886",
						"decimals()": "366",
						"decreaseAllowance(address,uint256)": "infinite",
						"increaseAllowance(address,uint256)": "infinite",
						"mint(address,uint256)": "infinite",
						"name()": "infinite",
						"safeTransfer(address,uint256)": "infinite",
						"safeTransfer(address,uint256,bytes)": "infinite",
						"safeTransferFrom(address,address,uint256)": "infinite",
						"safeTransferFrom(address,address,uint256,bytes)": "infinite",
						"symbol()": "infinite",
						"totalSupply()": "2505",
						"transfer(address,uint256)": "infinite",
						"transferFrom(address,address,uint256)": "infinite"
					}
				},
				"methodIdentifiers": {
					"allowance(address,address)": "dd62ed3e",
					"approve(address,uint256)": "095ea7b3",
					"balanceOf(address)": "70a08231",
					"decimals()": "313ce567",
					"decreaseAllowance(address,uint256)": "a457c2d7",
					"increaseAllowance(address,uint256)": "39509351",
					"mint(address,uint256)": "40c10f19",
					"name()": "06fdde03",
					"safeTransfer(address,uint256)": "423f6cef",
					"safeTransfer(address,uint256,bytes)": "eb795549",
					"safeTransferFrom(address,address,uint256)": "42842e0e",
					"safeTransferFrom(address,address,uint256,bytes)": "b88d4fde",
					"symbol()": "95d89b41",
					"totalSupply()": "18160ddd",
					"transfer(address,uint256)": "a9059cbb",
					"transferFrom(address,address,uint256)": "23b872dd"
				}
			},
			"storageLayout": {
				"storage": [
					{
						"astId": 155,
						"contract": "contracts/TestToken.sol:TestToken",
						"label": "_balances",
						"offset": 0,
						"slot": "0",
						"type": "t_mapping(t_address,t_uint256)"
					},
					{
						"astId": 161,
						"contract": "contracts/TestToken.sol:TestToken",
						"label": "_allowances",
						"offset": 0,
						"slot": "1",
						"type": "t_mapping(t_address,t_mapping(t_address,t_uint256))"
					},
					{
						"astId": 163,
						"contract": "contracts/TestToken.sol:TestToken",
						"label": "_totalSupply",
						"offset": 0,
						"slot": "2",
						"type": "t_uint256"
					},
					{
						"astId": 165,
						"contract": "contracts/TestToken.sol:TestToken",
						"label": "_name",
						"offset": 0,
						"slot": "3",
						"type": "t_string_storage"
					},
					{
						"astId": 167,
						"contract": "contracts/TestToken.sol:TestToken",
						"label": "_symbol",
						"offset": 0,
						"slot": "4",
						"type": "t_string_storage"
					}
				],
				"types": {
					"t_address": {
						"encoding": "inplace",
						"label": "address",
						"numberOfBytes": "20"
					},
					"t_mapping(t_address,t_mapping(t_address,t_uint256))": {
						"encoding": "mapping",
						"key": "t_address",
						"label": "mapping(address => mapping(address => uint256))",
						"numberOfBytes": "32",
						"value": "t_mapping(t_address,t_uint256)"
					},
					"t_mapping(t_address,t_uint256)": {
						"encoding": "mapping",
						"key": "t_address",
						"label": "mapping(address => uint256)",
						"numberOfBytes": "32",
						"value": "t_uint256"
					},
					"t_string_storage": {
						"encoding": "bytes",
						"label": "string",
						"numberOfBytes": "32"
					},
					"t_uint256": {
						"encoding": "inplace",
						"label": "uint256",
						"numberOfBytes": "32"
					}
				}
			},
			"userdoc": {
				"kind": "user",
				"methods": {},
				"version": 1
			}
		}
	}
}