{
	"@klaytn/contracts/contracts/KIP/token/KIP7/KIP7.sol": {
		"KIP7": {
			"abi": [
				{
					"inputs": [
						{
							"internalType": "string",
							"name": "name_",
							"type": "string"
						},
						{
							"internalType": "string",
							"name": "symbol_",
							"type": "string"
						}
					],
					"stateMutability": "nonpayable",
					"type": "constructor"
				},
				{
					"anonymous": false,
					"inputs": [
						{
							"indexed": true,
							"internalType": "address",
							"name": "owner",
							"type": "address"
						},
						{
							"indexed": true,
							"internalType": "address",
							"name": "spender",
							"type": "address"
						},
						{
							"indexed": false,
							"internalType": "uint256",
							"name": "value",
							"type": "uint256"
						}
					],
					"name": "Approval",
					"type": "event"
				},
				{
					"anonymous": false,
					"inputs": [
						{
							"indexed": true,
							"internalType": "address",
							"name": "from",
							"type": "address"
						},
						{
							"indexed": true,
							"internalType": "address",
							"name": "to",
							"type": "address"
						},
						{
							"indexed": false,
							"internalType": "uint256",
							"name": "value",
							"type": "uint256"
						}
					],
					"name": "Transfer",
					"type": "event"
				},
				{
					"inputs": [
						{
							"internalType": "address",
							"name": "owner",
							"type": "address"
						},
						{
							"internalType": "address",
							"name": "spender",
							"type": "address"
						}
					],
					"name": "allowance",
					"outputs": [
						{
							"internalType": "uint256",
							"name": "",
							"type": "uint256"
						}
					],
					"stateMutability": "view",
					"type": "function"
				},
				{
					"inputs": [
						{
							"internalType": "address",
							"name": "spender",
							"type": "address"
						},
						{
							"internalType": "uint256",
							"name": "amount",
							"type": "uint256"
						}
					],
					"name": "approve",
					"outputs": [
						{
							"internalType": "bool",
							"name": "",
							"type": "bool"
						}
					],
					"stateMutability": "nonpayable",
					"type": "function"
				},
				{
					"inputs": [
						{
							"internalType": "address",
							"name": "account",
							"type": "address"
						}
					],
					"name": "balanceOf",
					"outputs": [
						{
							"internalType": "uint256",
							"name": "",
							"type": "uint256"
						}
					],
					"stateMutability": "view",
					"type": "function"
				},
				{
					"inputs": [],
					"name": "decimals",
					"outputs": [
						{
							"internalType": "uint8",
							"name": "",
							"type": "uint8"
						}
					],
					"stateMutability": "view",
					"type": "function"
				},
				{
					"inputs": [
						{
							"internalType": "address",
							"name": "spender",
							"type": "address"
						},
						{
							"internalType": "uint256",
							"name": "subtractedValue",
							"type": "uint256"
						}
					],
					"name": "decreaseAllowance",
					"outputs": [
						{
							"internalType": "bool",
							"name": "",
							"type": "bool"
						}
					],
					"stateMutability": "nonpayable",
					"type": "function"
				},
				{
					"inputs": [
						{
							"internalType": "address",
							"name": "spender",
							"type": "address"
						},
						{
							"internalType": "uint256",
							"name": "addedValue",
							"type": "uint256"
						}
					],
					"name": "increaseAllowance",
					"outputs": [
						{
							"internalType": "bool",
							"name": "",
							"type": "bool"
						}
					],
					"stateMutability": "nonpayable",
					"type": "function"
				},
				{
					"inputs": [],
					"name": "name",
					"outputs": [
						{
							"internalType": "string",
							"name": "",
							"type": "string"
						}
					],
					"stateMutability": "view",
					"type": "function"
				},
				{
					"inputs": [
						{
							"internalType": "address",
							"name": "recipient",
							"type": "address"
						},
						{
							"internalType": "uint256",
							"name": "amount",
							"type": "uint256"
						}
					],
					"name": "safeTransfer",
					"outputs": [],
					"stateMutability": "nonpayable",
					"type": "function"
				},
				{
					"inputs": [
						{
							"internalType": "address",
							"name": "recipient",
							"type": "address"
						},
						{
							"internalType": "uint256",
							"name": "amount",
							"type": "uint256"
						},
						{
							"internalType": "bytes",
							"name": "_data",
							"type": "bytes"
						}
					],
					"name": "safeTransfer",
					"outputs": [],
					"stateMutability": "nonpayable",
					"type": "function"
				},
				{
					"inputs": [
						{
							"internalType": "address",
							"name": "sender",
							"type": "address"
						},
						{
							"internalType": "address",
							"name": "recipient",
							"type": "address"
						},
						{
							"internalType": "uint256",
							"name": "amount",
							"type": "uint256"
						}
					],
					"name": "safeTransferFrom",
					"outputs": [],
					"stateMutability": "nonpayable",
					"type": "function"
				},
				{
					"inputs": [
						{
							"internalType": "address",
							"name": "sender",
							"type": "address"
						},
						{
							"internalType": "address",
							"name": "recipient",
							"type": "address"
						},
						{
							"internalType": "uint256",
							"name": "amount",
							"type": "uint256"
						},
						{
							"internalType": "bytes",
							"name": "_data",
							"type": "bytes"
						}
					],
					"name": "safeTransferFrom",
					"outputs": [],
					"stateMutability": "nonpayable",
					"type": "function"
				},
				{
					"inputs": [],
					"name": "symbol",
					"outputs": [
						{
							"internalType": "string",
							"name": "",
							"type": "string"
						}
					],
					"stateMutability": "view",
					"type": "function"
				},
				{
					"inputs": [],
					"name": "totalSupply",
					"outputs": [
						{
							"internalType": "uint256",
							"name": "",
							"type": "uint256"
						}
					],
					"stateMutability": "view",
					"type": "function"
				},
				{
					"inputs": [
						{
							"internalType": "address",
							"name": "to",
							"type": "address"
						},
						{
							"internalType": "uint256",
							"name": "amount",
							"type": "uint256"
						}
					],
					"name": "transfer",
					"outputs": [
						{
							"internalType": "bool",
							"name": "",
							"type": "bool"
						}
					],
					"stateMutability": "nonpayable",
					"type": "function"
				},
				{
					"inputs": [
						{
							"internalType": "address",
							"name": "from",
							"type": "address"
						},
						{
							"internalType": "address",
							"name": "to",
							"type": "address"
						},
						{
							"internalType": "uint256",
							"name": "amount",
							"type": "uint256"
						}
					],
					"name": "transferFrom",
					"outputs": [
						{
							"internalType": "bool",
							"name": "",
							"type": "bool"
						}
					],
					"stateMutability": "nonpayable",
					"type": "function"
				}
			],
			"devdoc": {
				"details": "Implementation of the {IKIP7} interface. This implementation is agnostic to the way tokens are created. This means that a supply mechanism has to be added in a derived contract using {_mint}. For a generic mechanism see {KIP7PresetMinterPauser}. We have followed general OpenZeppelin Contracts guidelines: functions revert instead returning `false` on failure. This behavior is nonetheless conventional and does not conflict with the expectations of KIP7 applications. Additionally, an {Approval} event is emitted on calls to {transferFrom}. This allows applications to reconstruct the allowance for all accounts just by listening to said events. Other implementations of the EIP may not emit these events, as it isn't required by the specification. Finally, the non-standard {decreaseAllowance} and {increaseAllowance} functions have been added to mitigate the well-known issues around setting allowances. See {IKIP7-approve}. See http://kips.klaytn.com/KIPs/kip-7-fungible_token",
				"events": {
					"Approval(address,address,uint256)": {
						"details": "Emitted when the allowance of a `spender` for an `owner` is set by a call to {approve}. `value` is the new allowance."
					},
					"Transfer(address,address,uint256)": {
						"details": "Emitted when `value` tokens are moved from one account (`from`) to another (`to`). Note that `value` may be zero."
					}
				},
				"kind": "dev",
				"methods": {
					"allowance(address,address)": {
						"details": "See {IKIP7-allowance}."
					},
					"approve(address,uint256)": {
						"details": "See {IKIP7-approve}. NOTE: If `amount` is the maximum `uint256`, the allowance is not updated on `transferFrom`. This is semantically equivalent to an infinite approval. Requirements: - `spender` cannot be the zero address."
					},
					"balanceOf(address)": {
						"details": "See {IKIP7-balanceOf}."
					},
					"constructor": {
						"details": "Sets the values for {name} and {symbol}. The default value of {decimals} is 18. To select a different value for {decimals} you should overload it. All two of these values are immutable: they can only be set once during construction."
					},
					"decimals()": {
						"details": "Returns the number of decimals used to get its user representation. For example, if `decimals` equals `2`, a balance of `505` tokens should be displayed to a user as `5.05` (`505 / 10 ** 2`). Tokens usually opt for a value of 18, imitating the relationship between Ether and Wei. This is the value {KIP7} uses, unless this function is overridden; NOTE: This information is only used for _display_ purposes: it in no way affects any of the arithmetic of the contract, including {IKIP7-balanceOf} and {IKIP7-transfer}."
					},
					"decreaseAllowance(address,uint256)": {
						"details": "Atomically decreases the allowance granted to `spender` by the caller. This is an alternative to {approve} that can be used as a mitigation for problems described in {IKIP7-approve}. Emits an {Approval} event indicating the updated allowance. Requirements: - `spender` cannot be the zero address. - `spender` must have allowance for the caller of at least `subtractedValue`."
					},
					"increaseAllowance(address,uint256)": {
						"details": "Atomically increases the allowance granted to `spender` by the caller. This is an alternative to {approve} that can be used as a mitigation for problems described in {IKIP7-approve}. Emits an {Approval} event indicating the updated allowance. Requirements: - `spender` cannot be the zero address."
					},
					"name()": {
						"details": "Returns the name of the token."
					},
					"safeTransfer(address,uint256)": {
						"details": "See {IKIP7-safeTransfer}. Emits a {Transfer} event Requirements: - `recipient` cannot be the zero address. - the caller must have a balance of at least `amount`. - if `recipient` is a smart contract, it must implement {IKIP7Receiver}"
					},
					"safeTransfer(address,uint256,bytes)": {
						"details": "Same as {xref-KIP7-safeTransfer-address-uint256-}[`safeTransfer`], with an additional `_data` parameter which is forwarded in {IKIP7Receiver-onKIP7Received} to contract recipients. Emits a {Transfer} event"
					},
					"safeTransferFrom(address,address,uint256)": {
						"details": "See {IKIP7-safeTransferFrom}. Emits a {Transfer} event Emits an {Approval} event indicating the updated allowance. This is not required by the KIP. See the note at the beginning of {KIP7}. NOTE: Does not update the allowance if the current allowance is the maximum `uint256`. Requirements: - `sender` and `recipient` cannot be the zero address. - `sender` must have a balance of at least `amount`. - the caller must have allowance for ``sender``'s tokens of at least `amount`. - if `recipient` is a smart contract, it must implement {IKIP7Receiver}"
					},
					"safeTransferFrom(address,address,uint256,bytes)": {
						"details": "Same as {xref-KIP7-safeTransferFrom-address-uint256-}[`safeTransferFrom`], with an additional `_data` parameter which is forwarded in {IKIP7Receiver-onKIP7Received} to contract recipients. Emits a {Transfer} event Emits an {Approval} event indicating the updated allowance."
					},
					"symbol()": {
						"details": "Returns the symbol of the token, usually a shorter version of the name."
					},
					"totalSupply()": {
						"details": "See {IKIP7-totalSupply}."
					},
					"transfer(address,uint256)": {
						"details": "See {IKIP7-transfer}. Requirements: - `to` cannot be the zero address. - the caller must have a balance of at least `amount`."
					},
					"transferFrom(address,address,uint256)": {
						"details": "See {IKIP7-transferFrom}. Emits an {Approval} event indicating the updated allowance. This is not required by the EIP. See the note at the beginning of {KIP7}. NOTE: Does not update the allowance if the current allowance is the maximum `uint256`. Requirements: - `from` and `to` cannot be the zero address. - `from` must have a balance of at least `amount`. - the caller must have allowance for ``from``'s tokens of at least `amount`."
					}
				},
				"version": 1
			},
			"evm": {
				"assembly": "    /* \"@klaytn/contracts/contracts/KIP/token/KIP7/KIP7.sol\":1487:18819  contract KIP7 is Context, IKIP7, IKIP7Metadata {... */\n  mstore(0x40, 0x80)\n    /* \"@klaytn/contracts/contracts/KIP/token/KIP7/KIP7.sol\":2091:2204  constructor(string memory name_, string memory symbol_) {... */\n  callvalue\n  dup1\n  iszero\n  tag_1\n  jumpi\n  0x00\n  dup1\n  revert\ntag_1:\n  pop\n  mload(0x40)\n  sub(codesize, bytecodeSize)\n  dup1\n  bytecodeSize\n  dup4\n  codecopy\n  dup2\n  dup2\n  add\n  0x40\n  mstore\n  dup2\n  add\n  swap1\n  tag_2\n  swap2\n  swap1\n  tag_3\n  jump\t// in\ntag_2:\n    /* \"@klaytn/contracts/contracts/KIP/token/KIP7/KIP7.sol\":2165:2170  name_ */\n  dup2\n    /* \"@klaytn/contracts/contracts/KIP/token/KIP7/KIP7.sol\":2157:2162  _name */\n  0x03\n    /* \"@klaytn/contracts/contracts/KIP/token/KIP7/KIP7.sol\":2157:2170  _name = name_ */\n  swap1\n  dup2\n  tag_6\n  swap2\n  swap1\n  tag_7\n  jump\t// in\ntag_6:\n  pop\n    /* \"@klaytn/contracts/contracts/KIP/token/KIP7/KIP7.sol\":2190:2197  symbol_ */\n  dup1\n    /* \"@klaytn/contracts/contracts/KIP/token/KIP7/KIP7.sol\":2180:2187  _symbol */\n  0x04\n    /* \"@klaytn/contracts/contracts/KIP/token/KIP7/KIP7.sol\":2180:2197  _symbol = symbol_ */\n  swap1\n  dup2\n  tag_8\n  swap2\n  swap1\n  tag_7\n  jump\t// in\ntag_8:\n  pop\n    /* \"@klaytn/contracts/contracts/KIP/token/KIP7/KIP7.sol\":2091:2204  constructor(string memory name_, string memory symbol_) {... */\n  pop\n  pop\n    /* \"@klaytn/contracts/contracts/KIP/token/KIP7/KIP7.sol\":1487:18819  contract KIP7 is Context, IKIP7, IKIP7Metadata {... */\n  jump(tag_9)\n    /* \"#utility.yul\":7:82   */\ntag_10:\n    /* \"#utility.yul\":40:46   */\n  0x00\n    /* \"#utility.yul\":73:75   */\n  0x40\n    /* \"#utility.yul\":67:76   */\n  mload\n    /* \"#utility.yul\":57:76   */\n  swap1\n  pop\n    /* \"#utility.yul\":7:82   */\n  swap1\n  jump\t// out\n    /* \"#utility.yul\":88:205   */\ntag_11:\n    /* \"#utility.yul\":197:198   */\n  0x00\n    /* \"#utility.yul\":194:195   */\n  dup1\n    /* \"#utility.yul\":187:199   */\n  revert\n    /* \"#utility.yul\":211:328   */\ntag_12:\n    /* \"#utility.yul\":320:321   */\n  0x00\n    /* \"#utility.yul\":317:318   */\n  dup1\n    /* \"#utility.yul\":310:322   */\n  revert\n    /* \"#utility.yul\":334:451   */\ntag_13:\n    /* \"#utility.yul\":443:444   */\n  0x00\n    /* \"#utility.yul\":440:441   */\n  dup1\n    /* \"#utility.yul\":433:445   */\n  revert\n    /* \"#utility.yul\":457:574   */\ntag_14:\n    /* \"#utility.yul\":566:567   */\n  0x00\n    /* \"#utility.yul\":563:564   */\n  dup1\n    /* \"#utility.yul\":556:568   */\n  revert\n    /* \"#utility.yul\":580:682   */\ntag_15:\n    /* \"#utility.yul\":621:627   */\n  0x00\n    /* \"#utility.yul\":672:674   */\n  0x1f\n    /* \"#utility.yul\":668:675   */\n  not\n    /* \"#utility.yul\":663:665   */\n  0x1f\n    /* \"#utility.yul\":656:661   */\n  dup4\n    /* \"#utility.yul\":652:666   */\n  add\n    /* \"#utility.yul\":648:676   */\n  and\n    /* \"#utility.yul\":638:676   */\n  swap1\n  pop\n    /* \"#utility.yul\":580:682   */\n  swap2\n  swap1\n  pop\n  jump\t// out\n    /* \"#utility.yul\":688:868   */\ntag_16:\n    /* \"#utility.yul\":736:813   */\n  0x4e487b7100000000000000000000000000000000000000000000000000000000\n    /* \"#utility.yul\":733:734   */\n  0x00\n    /* \"#utility.yul\":726:814   */\n  mstore\n    /* \"#utility.yul\":833:837   */\n  0x41\n    /* \"#utility.yul\":830:831   */\n  0x04\n    /* \"#utility.yul\":823:838   */\n  mstore\n    /* \"#utility.yul\":857:861   */\n  0x24\n    /* \"#utility.yul\":854:855   */\n  0x00\n    /* \"#utility.yul\":847:862   */\n  revert\n    /* \"#utility.yul\":874:1155   */\ntag_17:\n    /* \"#utility.yul\":957:984   */\n  tag_51\n    /* \"#utility.yul\":979:983   */\n  dup3\n    /* \"#utility.yul\":957:984   */\n  tag_15\n  jump\t// in\ntag_51:\n    /* \"#utility.yul\":949:955   */\n  dup2\n    /* \"#utility.yul\":945:985   */\n  add\n    /* \"#utility.yul\":1087:1093   */\n  dup2\n    /* \"#utility.yul\":1075:1085   */\n  dup2\n    /* \"#utility.yul\":1072:1094   */\n  lt\n    /* \"#utility.yul\":1051:1069   */\n  0xffffffffffffffff\n    /* \"#utility.yul\":1039:1049   */\n  dup3\n    /* \"#utility.yul\":1036:1070   */\n  gt\n    /* \"#utility.yul\":1033:1095   */\n  or\n    /* \"#utility.yul\":1030:1118   */\n  iszero\n  tag_52\n  jumpi\n    /* \"#utility.yul\":1098:1116   */\n  tag_53\n  tag_16\n  jump\t// in\ntag_53:\n    /* \"#utility.yul\":1030:1118   */\ntag_52:\n    /* \"#utility.yul\":1138:1148   */\n  dup1\n    /* \"#utility.yul\":1134:1136   */\n  0x40\n    /* \"#utility.yul\":1127:1149   */\n  mstore\n    /* \"#utility.yul\":917:1155   */\n  pop\n    /* \"#utility.yul\":874:1155   */\n  pop\n  pop\n  jump\t// out\n    /* \"#utility.yul\":1161:1290   */\ntag_18:\n    /* \"#utility.yul\":1195:1201   */\n  0x00\n    /* \"#utility.yul\":1222:1242   */\n  tag_55\n  tag_10\n  jump\t// in\ntag_55:\n    /* \"#utility.yul\":1212:1242   */\n  swap1\n  pop\n    /* \"#utility.yul\":1251:1284   */\n  tag_56\n    /* \"#utility.yul\":1279:1283   */\n  dup3\n    /* \"#utility.yul\":1271:1277   */\n  dup3\n    /* \"#utility.yul\":1251:1284   */\n  tag_17\n  jump\t// in\ntag_56:\n    /* \"#utility.yul\":1161:1290   */\n  swap2\n  swap1\n  pop\n  jump\t// out\n    /* \"#utility.yul\":1296:1604   */\ntag_19:\n    /* \"#utility.yul\":1358:1362   */\n  0x00\n    /* \"#utility.yul\":1448:1466   */\n  0xffffffffffffffff\n    /* \"#utility.yul\":1440:1446   */\n  dup3\n    /* \"#utility.yul\":1437:1467   */\n  gt\n    /* \"#utility.yul\":1434:1490   */\n  iszero\n  tag_58\n  jumpi\n    /* \"#utility.yul\":1470:1488   */\n  tag_59\n  tag_16\n  jump\t// in\ntag_59:\n    /* \"#utility.yul\":1434:1490   */\ntag_58:\n    /* \"#utility.yul\":1508:1537   */\n  tag_60\n    /* \"#utility.yul\":1530:1536   */\n  dup3\n    /* \"#utility.yul\":1508:1537   */\n  tag_15\n  jump\t// in\ntag_60:\n    /* \"#utility.yul\":1500:1537   */\n  swap1\n  pop\n    /* \"#utility.yul\":1592:1596   */\n  0x20\n    /* \"#utility.yul\":1586:1590   */\n  dup2\n    /* \"#utility.yul\":1582:1597   */\n  add\n    /* \"#utility.yul\":1574:1597   */\n  swap1\n  pop\n    /* \"#utility.yul\":1296:1604   */\n  swap2\n  swap1\n  pop\n  jump\t// out\n    /* \"#utility.yul\":1610:1856   */\ntag_20:\n    /* \"#utility.yul\":1691:1692   */\n  0x00\n    /* \"#utility.yul\":1701:1814   */\ntag_62:\n    /* \"#utility.yul\":1715:1721   */\n  dup4\n    /* \"#utility.yul\":1712:1713   */\n  dup2\n    /* \"#utility.yul\":1709:1722   */\n  lt\n    /* \"#utility.yul\":1701:1814   */\n  iszero\n  tag_64\n  jumpi\n    /* \"#utility.yul\":1800:1801   */\n  dup1\n    /* \"#utility.yul\":1795:1798   */\n  dup3\n    /* \"#utility.yul\":1791:1802   */\n  add\n    /* \"#utility.yul\":1785:1803   */\n  mload\n    /* \"#utility.yul\":1781:1782   */\n  dup2\n    /* \"#utility.yul\":1776:1779   */\n  dup5\n    /* \"#utility.yul\":1772:1783   */\n  add\n    /* \"#utility.yul\":1765:1804   */\n  mstore\n    /* \"#utility.yul\":1737:1739   */\n  0x20\n    /* \"#utility.yul\":1734:1735   */\n  dup2\n    /* \"#utility.yul\":1730:1740   */\n  add\n    /* \"#utility.yul\":1725:1740   */\n  swap1\n  pop\n    /* \"#utility.yul\":1701:1814   */\n  jump(tag_62)\ntag_64:\n    /* \"#utility.yul\":1848:1849   */\n  0x00\n    /* \"#utility.yul\":1839:1845   */\n  dup5\n    /* \"#utility.yul\":1834:1837   */\n  dup5\n    /* \"#utility.yul\":1830:1846   */\n  add\n    /* \"#utility.yul\":1823:1850   */\n  mstore\n    /* \"#utility.yul\":1672:1856   */\n  pop\n    /* \"#utility.yul\":1610:1856   */\n  pop\n  pop\n  pop\n  jump\t// out\n    /* \"#utility.yul\":1862:2296   */\ntag_21:\n    /* \"#utility.yul\":1951:1956   */\n  0x00\n    /* \"#utility.yul\":1976:2042   */\n  tag_66\n    /* \"#utility.yul\":1992:2041   */\n  tag_67\n    /* \"#utility.yul\":2034:2040   */\n  dup5\n    /* \"#utility.yul\":1992:2041   */\n  tag_19\n  jump\t// in\ntag_67:\n    /* \"#utility.yul\":1976:2042   */\n  tag_18\n  jump\t// in\ntag_66:\n    /* \"#utility.yul\":1967:2042   */\n  swap1\n  pop\n    /* \"#utility.yul\":2065:2071   */\n  dup3\n    /* \"#utility.yul\":2058:2063   */\n  dup2\n    /* \"#utility.yul\":2051:2072   */\n  mstore\n    /* \"#utility.yul\":2103:2107   */\n  0x20\n    /* \"#utility.yul\":2096:2101   */\n  dup2\n    /* \"#utility.yul\":2092:2108   */\n  add\n    /* \"#utility.yul\":2141:2144   */\n  dup5\n    /* \"#utility.yul\":2132:2138   */\n  dup5\n    /* \"#utility.yul\":2127:2130   */\n  dup5\n    /* \"#utility.yul\":2123:2139   */\n  add\n    /* \"#utility.yul\":2120:2145   */\n  gt\n    /* \"#utility.yul\":2117:2229   */\n  iszero\n  tag_68\n  jumpi\n    /* \"#utility.yul\":2148:2227   */\n  tag_69\n  tag_14\n  jump\t// in\ntag_69:\n    /* \"#utility.yul\":2117:2229   */\ntag_68:\n    /* \"#utility.yul\":2238:2290   */\n  tag_70\n    /* \"#utility.yul\":2283:2289   */\n  dup5\n    /* \"#utility.yul\":2278:2281   */\n  dup3\n    /* \"#utility.yul\":2273:2276   */\n  dup6\n    /* \"#utility.yul\":2238:2290   */\n  tag_20\n  jump\t// in\ntag_70:\n    /* \"#utility.yul\":1957:2296   */\n  pop\n    /* \"#utility.yul\":1862:2296   */\n  swap4\n  swap3\n  pop\n  pop\n  pop\n  jump\t// out\n    /* \"#utility.yul\":2316:2671   */\ntag_22:\n    /* \"#utility.yul\":2383:2388   */\n  0x00\n    /* \"#utility.yul\":2432:2435   */\n  dup3\n    /* \"#utility.yul\":2425:2429   */\n  0x1f\n    /* \"#utility.yul\":2417:2423   */\n  dup4\n    /* \"#utility.yul\":2413:2430   */\n  add\n    /* \"#utility.yul\":2409:2436   */\n  slt\n    /* \"#utility.yul\":2399:2521   */\n  tag_72\n  jumpi\n    /* \"#utility.yul\":2440:2519   */\n  tag_73\n  tag_13\n  jump\t// in\ntag_73:\n    /* \"#utility.yul\":2399:2521   */\ntag_72:\n    /* \"#utility.yul\":2550:2556   */\n  dup2\n    /* \"#utility.yul\":2544:2557   */\n  mload\n    /* \"#utility.yul\":2575:2665   */\n  tag_74\n    /* \"#utility.yul\":2661:2664   */\n  dup5\n    /* \"#utility.yul\":2653:2659   */\n  dup3\n    /* \"#utility.yul\":2646:2650   */\n  0x20\n    /* \"#utility.yul\":2638:2644   */\n  dup7\n    /* \"#utility.yul\":2634:2651   */\n  add\n    /* \"#utility.yul\":2575:2665   */\n  tag_21\n  jump\t// in\ntag_74:\n    /* \"#utility.yul\":2566:2665   */\n  swap2\n  pop\n    /* \"#utility.yul\":2389:2671   */\n  pop\n    /* \"#utility.yul\":2316:2671   */\n  swap3\n  swap2\n  pop\n  pop\n  jump\t// out\n    /* \"#utility.yul\":2677:3530   */\ntag_3:\n    /* \"#utility.yul\":2776:2782   */\n  0x00\n    /* \"#utility.yul\":2784:2790   */\n  dup1\n    /* \"#utility.yul\":2833:2835   */\n  0x40\n    /* \"#utility.yul\":2821:2830   */\n  dup4\n    /* \"#utility.yul\":2812:2819   */\n  dup6\n    /* \"#utility.yul\":2808:2831   */\n  sub\n    /* \"#utility.yul\":2804:2836   */\n  slt\n    /* \"#utility.yul\":2801:2920   */\n  iszero\n  tag_76\n  jumpi\n    /* \"#utility.yul\":2839:2918   */\n  tag_77\n  tag_11\n  jump\t// in\ntag_77:\n    /* \"#utility.yul\":2801:2920   */\ntag_76:\n    /* \"#utility.yul\":2980:2981   */\n  0x00\n    /* \"#utility.yul\":2969:2978   */\n  dup4\n    /* \"#utility.yul\":2965:2982   */\n  add\n    /* \"#utility.yul\":2959:2983   */\n  mload\n    /* \"#utility.yul\":3010:3028   */\n  0xffffffffffffffff\n    /* \"#utility.yul\":3002:3008   */\n  dup2\n    /* \"#utility.yul\":2999:3029   */\n  gt\n    /* \"#utility.yul\":2996:3113   */\n  iszero\n  tag_78\n  jumpi\n    /* \"#utility.yul\":3032:3111   */\n  tag_79\n  tag_12\n  jump\t// in\ntag_79:\n    /* \"#utility.yul\":2996:3113   */\ntag_78:\n    /* \"#utility.yul\":3137:3211   */\n  tag_80\n    /* \"#utility.yul\":3203:3210   */\n  dup6\n    /* \"#utility.yul\":3194:3200   */\n  dup3\n    /* \"#utility.yul\":3183:3192   */\n  dup7\n    /* \"#utility.yul\":3179:3201   */\n  add\n    /* \"#utility.yul\":3137:3211   */\n  tag_22\n  jump\t// in\ntag_80:\n    /* \"#utility.yul\":3127:3211   */\n  swap3\n  pop\n    /* \"#utility.yul\":2930:3221   */\n  pop\n    /* \"#utility.yul\":3281:3283   */\n  0x20\n    /* \"#utility.yul\":3270:3279   */\n  dup4\n    /* \"#utility.yul\":3266:3284   */\n  add\n    /* \"#utility.yul\":3260:3285   */\n  mload\n    /* \"#utility.yul\":3312:3330   */\n  0xffffffffffffffff\n    /* \"#utility.yul\":3304:3310   */\n  dup2\n    /* \"#utility.yul\":3301:3331   */\n  gt\n    /* \"#utility.yul\":3298:3415   */\n  iszero\n  tag_81\n  jumpi\n    /* \"#utility.yul\":3334:3413   */\n  tag_82\n  tag_12\n  jump\t// in\ntag_82:\n    /* \"#utility.yul\":3298:3415   */\ntag_81:\n    /* \"#utility.yul\":3439:3513   */\n  tag_83\n    /* \"#utility.yul\":3505:3512   */\n  dup6\n    /* \"#utility.yul\":3496:3502   */\n  dup3\n    /* \"#utility.yul\":3485:3494   */\n  dup7\n    /* \"#utility.yul\":3481:3503   */\n  add\n    /* \"#utility.yul\":3439:3513   */\n  tag_22\n  jump\t// in\ntag_83:\n    /* \"#utility.yul\":3429:3513   */\n  swap2\n  pop\n    /* \"#utility.yul\":3231:3523   */\n  pop\n    /* \"#utility.yul\":2677:3530   */\n  swap3\n  pop\n  swap3\n  swap1\n  pop\n  jump\t// out\n    /* \"#utility.yul\":3536:3635   */\ntag_23:\n    /* \"#utility.yul\":3588:3594   */\n  0x00\n    /* \"#utility.yul\":3622:3627   */\n  dup2\n    /* \"#utility.yul\":3616:3628   */\n  mload\n    /* \"#utility.yul\":3606:3628   */\n  swap1\n  pop\n    /* \"#utility.yul\":3536:3635   */\n  swap2\n  swap1\n  pop\n  jump\t// out\n    /* \"#utility.yul\":3641:3821   */\ntag_24:\n    /* \"#utility.yul\":3689:3766   */\n  0x4e487b7100000000000000000000000000000000000000000000000000000000\n    /* \"#utility.yul\":3686:3687   */\n  0x00\n    /* \"#utility.yul\":3679:3767   */\n  mstore\n    /* \"#utility.yul\":3786:3790   */\n  0x22\n    /* \"#utility.yul\":3783:3784   */\n  0x04\n    /* \"#utility.yul\":3776:3791   */\n  mstore\n    /* \"#utility.yul\":3810:3814   */\n  0x24\n    /* \"#utility.yul\":3807:3808   */\n  0x00\n    /* \"#utility.yul\":3800:3815   */\n  revert\n    /* \"#utility.yul\":3827:4147   */\ntag_25:\n    /* \"#utility.yul\":3871:3877   */\n  0x00\n    /* \"#utility.yul\":3908:3909   */\n  0x02\n    /* \"#utility.yul\":3902:3906   */\n  dup3\n    /* \"#utility.yul\":3898:3910   */\n  div\n    /* \"#utility.yul\":3888:3910   */\n  swap1\n  pop\n    /* \"#utility.yul\":3955:3956   */\n  0x01\n    /* \"#utility.yul\":3949:3953   */\n  dup3\n    /* \"#utility.yul\":3945:3957   */\n  and\n    /* \"#utility.yul\":3976:3994   */\n  dup1\n    /* \"#utility.yul\":3966:4047   */\n  tag_87\n  jumpi\n    /* \"#utility.yul\":4032:4036   */\n  0x7f\n    /* \"#utility.yul\":4024:4030   */\n  dup3\n    /* \"#utility.yul\":4020:4037   */\n  and\n    /* \"#utility.yul\":4010:4037   */\n  swap2\n  pop\n    /* \"#utility.yul\":3966:4047   */\ntag_87:\n    /* \"#utility.yul\":4094:4096   */\n  0x20\n    /* \"#utility.yul\":4086:4092   */\n  dup3\n    /* \"#utility.yul\":4083:4097   */\n  lt\n    /* \"#utility.yul\":4063:4081   */\n  dup2\n    /* \"#utility.yul\":4060:4098   */\n  sub\n    /* \"#utility.yul\":4057:4141   */\n  tag_88\n  jumpi\n    /* \"#utility.yul\":4113:4131   */\n  tag_89\n  tag_24\n  jump\t// in\ntag_89:\n    /* \"#utility.yul\":4057:4141   */\ntag_88:\n    /* \"#utility.yul\":3878:4147   */\n  pop\n    /* \"#utility.yul\":3827:4147   */\n  swap2\n  swap1\n  pop\n  jump\t// out\n    /* \"#utility.yul\":4153:4294   */\ntag_26:\n    /* \"#utility.yul\":4202:4206   */\n  0x00\n    /* \"#utility.yul\":4225:4228   */\n  dup2\n    /* \"#utility.yul\":4217:4228   */\n  swap1\n  pop\n    /* \"#utility.yul\":4248:4251   */\n  dup2\n    /* \"#utility.yul\":4245:4246   */\n  0x00\n    /* \"#utility.yul\":4238:4252   */\n  mstore\n    /* \"#utility.yul\":4282:4286   */\n  0x20\n    /* \"#utility.yul\":4279:4280   */\n  0x00\n    /* \"#utility.yul\":4269:4287   */\n  keccak256\n    /* \"#utility.yul\":4261:4287   */\n  swap1\n  pop\n    /* \"#utility.yul\":4153:4294   */\n  swap2\n  swap1\n  pop\n  jump\t// out\n    /* \"#utility.yul\":4300:4393   */\ntag_27:\n    /* \"#utility.yul\":4337:4343   */\n  0x00\n    /* \"#utility.yul\":4384:4386   */\n  0x20\n    /* \"#utility.yul\":4379:4381   */\n  0x1f\n    /* \"#utility.yul\":4372:4377   */\n  dup4\n    /* \"#utility.yul\":4368:4382   */\n  add\n    /* \"#utility.yul\":4364:4387   */\n  div\n    /* \"#utility.yul\":4354:4387   */\n  swap1\n  pop\n    /* \"#utility.yul\":4300:4393   */\n  swap2\n  swap1\n  pop\n  jump\t// out\n    /* \"#utility.yul\":4399:4506   */\ntag_28:\n    /* \"#utility.yul\":4443:4451   */\n  0x00\n    /* \"#utility.yul\":4493:4498   */\n  dup3\n    /* \"#utility.yul\":4487:4491   */\n  dup3\n    /* \"#utility.yul\":4483:4499   */\n  shl\n    /* \"#utility.yul\":4462:4499   */\n  swap1\n  pop\n    /* \"#utility.yul\":4399:4506   */\n  swap3\n  swap2\n  pop\n  pop\n  jump\t// out\n    /* \"#utility.yul\":4512:4905   */\ntag_29:\n    /* \"#utility.yul\":4581:4587   */\n  0x00\n    /* \"#utility.yul\":4631:4632   */\n  0x08\n    /* \"#utility.yul\":4619:4629   */\n  dup4\n    /* \"#utility.yul\":4615:4633   */\n  mul\n    /* \"#utility.yul\":4654:4751   */\n  tag_94\n    /* \"#utility.yul\":4684:4750   */\n  0xffffffffffffffffffffffffffffffffffffffffffffffffffffffffffffffff\n    /* \"#utility.yul\":4673:4682   */\n  dup3\n    /* \"#utility.yul\":4654:4751   */\n  tag_28\n  jump\t// in\ntag_94:\n    /* \"#utility.yul\":4772:4811   */\n  tag_95\n    /* \"#utility.yul\":4802:4810   */\n  dup7\n    /* \"#utility.yul\":4791:4800   */\n  dup4\n    /* \"#utility.yul\":4772:4811   */\n  tag_28\n  jump\t// in\ntag_95:\n    /* \"#utility.yul\":4760:4811   */\n  swap6\n  pop\n    /* \"#utility.yul\":4844:4848   */\n  dup1\n    /* \"#utility.yul\":4840:4849   */\n  not\n    /* \"#utility.yul\":4833:4838   */\n  dup5\n    /* \"#utility.yul\":4829:4850   */\n  and\n    /* \"#utility.yul\":4820:4850   */\n  swap4\n  pop\n    /* \"#utility.yul\":4893:4897   */\n  dup1\n    /* \"#utility.yul\":4883:4891   */\n  dup7\n    /* \"#utility.yul\":4879:4898   */\n  and\n    /* \"#utility.yul\":4872:4877   */\n  dup5\n    /* \"#utility.yul\":4869:4899   */\n  or\n    /* \"#utility.yul\":4859:4899   */\n  swap3\n  pop\n    /* \"#utility.yul\":4588:4905   */\n  pop\n  pop\n    /* \"#utility.yul\":4512:4905   */\n  swap4\n  swap3\n  pop\n  pop\n  pop\n  jump\t// out\n    /* \"#utility.yul\":4911:4988   */\ntag_30:\n    /* \"#utility.yul\":4948:4955   */\n  0x00\n    /* \"#utility.yul\":4977:4982   */\n  dup2\n    /* \"#utility.yul\":4966:4982   */\n  swap1\n  pop\n    /* \"#utility.yul\":4911:4988   */\n  swap2\n  swap1\n  pop\n  jump\t// out\n    /* \"#utility.yul\":4994:5054   */\ntag_31:\n    /* \"#utility.yul\":5022:5025   */\n  0x00\n    /* \"#utility.yul\":5043:5048   */\n  dup2\n    /* \"#utility.yul\":5036:5048   */\n  swap1\n  pop\n    /* \"#utility.yul\":4994:5054   */\n  swap2\n  swap1\n  pop\n  jump\t// out\n    /* \"#utility.yul\":5060:5202   */\ntag_32:\n    /* \"#utility.yul\":5110:5119   */\n  0x00\n    /* \"#utility.yul\":5143:5196   */\n  tag_99\n    /* \"#utility.yul\":5161:5195   */\n  tag_100\n    /* \"#utility.yul\":5170:5194   */\n  tag_101\n    /* \"#utility.yul\":5188:5193   */\n  dup5\n    /* \"#utility.yul\":5170:5194   */\n  tag_30\n  jump\t// in\ntag_101:\n    /* \"#utility.yul\":5161:5195   */\n  tag_31\n  jump\t// in\ntag_100:\n    /* \"#utility.yul\":5143:5196   */\n  tag_30\n  jump\t// in\ntag_99:\n    /* \"#utility.yul\":5130:5196   */\n  swap1\n  pop\n    /* \"#utility.yul\":5060:5202   */\n  swap2\n  swap1\n  pop\n  jump\t// out\n    /* \"#utility.yul\":5208:5283   */\ntag_33:\n    /* \"#utility.yul\":5251:5254   */\n  0x00\n    /* \"#utility.yul\":5272:5277   */\n  dup2\n    /* \"#utility.yul\":5265:5277   */\n  swap1\n  pop\n    /* \"#utility.yul\":5208:5283   */\n  swap2\n  swap1\n  pop\n  jump\t// out\n    /* \"#utility.yul\":5289:5558   */\ntag_34:\n    /* \"#utility.yul\":5399:5438   */\n  tag_104\n    /* \"#utility.yul\":5430:5437   */\n  dup4\n    /* \"#utility.yul\":5399:5438   */\n  tag_32\n  jump\t// in\ntag_104:\n    /* \"#utility.yul\":5460:5551   */\n  tag_105\n    /* \"#utility.yul\":5509:5550   */\n  tag_106\n    /* \"#utility.yul\":5533:5549   */\n  dup3\n    /* \"#utility.yul\":5509:5550   */\n  tag_33\n  jump\t// in\ntag_106:\n    /* \"#utility.yul\":5501:5507   */\n  dup5\n    /* \"#utility.yul\":5494:5498   */\n  dup5\n    /* \"#utility.yul\":5488:5499   */\n  sload\n    /* \"#utility.yul\":5460:5551   */\n  tag_29\n  jump\t// in\ntag_105:\n    /* \"#utility.yul\":5454:5458   */\n  dup3\n    /* \"#utility.yul\":5447:5552   */\n  sstore\n    /* \"#utility.yul\":5365:5558   */\n  pop\n    /* \"#utility.yul\":5289:5558   */\n  pop\n  pop\n  pop\n  jump\t// out\n    /* \"#utility.yul\":5564:5637   */\ntag_35:\n    /* \"#utility.yul\":5609:5612   */\n  0x00\n    /* \"#utility.yul\":5564:5637   */\n  swap1\n  jump\t// out\n    /* \"#utility.yul\":5643:5832   */\ntag_36:\n    /* \"#utility.yul\":5720:5752   */\n  tag_109\n  tag_35\n  jump\t// in\ntag_109:\n    /* \"#utility.yul\":5761:5826   */\n  tag_110\n    /* \"#utility.yul\":5819:5825   */\n  dup2\n    /* \"#utility.yul\":5811:5817   */\n  dup5\n    /* \"#utility.yul\":5805:5809   */\n  dup5\n    /* \"#utility.yul\":5761:5826   */\n  tag_34\n  jump\t// in\ntag_110:\n    /* \"#utility.yul\":5696:5832   */\n  pop\n    /* \"#utility.yul\":5643:5832   */\n  pop\n  pop\n  jump\t// out\n    /* \"#utility.yul\":5838:6024   */\ntag_37:\n    /* \"#utility.yul\":5898:6018   */\ntag_112:\n    /* \"#utility.yul\":5915:5918   */\n  dup2\n    /* \"#utility.yul\":5908:5913   */\n  dup2\n    /* \"#utility.yul\":5905:5919   */\n  lt\n    /* \"#utility.yul\":5898:6018   */\n  iszero\n  tag_114\n  jumpi\n    /* \"#utility.yul\":5969:6008   */\n  tag_115\n    /* \"#utility.yul\":6006:6007   */\n  0x00\n    /* \"#utility.yul\":5999:6004   */\n  dup3\n    /* \"#utility.yul\":5969:6008   */\n  tag_36\n  jump\t// in\ntag_115:\n    /* \"#utility.yul\":5942:5943   */\n  0x01\n    /* \"#utility.yul\":5935:5940   */\n  dup2\n    /* \"#utility.yul\":5931:5944   */\n  add\n    /* \"#utility.yul\":5922:5944   */\n  swap1\n  pop\n    /* \"#utility.yul\":5898:6018   */\n  jump(tag_112)\ntag_114:\n    /* \"#utility.yul\":5838:6024   */\n  pop\n  pop\n  jump\t// out\n    /* \"#utility.yul\":6030:6573   */\ntag_38:\n    /* \"#utility.yul\":6131:6133   */\n  0x1f\n    /* \"#utility.yul\":6126:6129   */\n  dup3\n    /* \"#utility.yul\":6123:6134   */\n  gt\n    /* \"#utility.yul\":6120:6566   */\n  iszero\n  tag_117\n  jumpi\n    /* \"#utility.yul\":6165:6203   */\n  tag_118\n    /* \"#utility.yul\":6197:6202   */\n  dup2\n    /* \"#utility.yul\":6165:6203   */\n  tag_26\n  jump\t// in\ntag_118:\n    /* \"#utility.yul\":6249:6278   */\n  tag_119\n    /* \"#utility.yul\":6267:6277   */\n  dup5\n    /* \"#utility.yul\":6249:6278   */\n  tag_27\n  jump\t// in\ntag_119:\n    /* \"#utility.yul\":6239:6247   */\n  dup2\n    /* \"#utility.yul\":6235:6279   */\n  add\n    /* \"#utility.yul\":6432:6434   */\n  0x20\n    /* \"#utility.yul\":6420:6430   */\n  dup6\n    /* \"#utility.yul\":6417:6435   */\n  lt\n    /* \"#utility.yul\":6414:6463   */\n  iszero\n  tag_120\n  jumpi\n    /* \"#utility.yul\":6453:6461   */\n  dup2\n    /* \"#utility.yul\":6438:6461   */\n  swap1\n  pop\n    /* \"#utility.yul\":6414:6463   */\ntag_120:\n    /* \"#utility.yul\":6476:6556   */\n  tag_121\n    /* \"#utility.yul\":6532:6554   */\n  tag_122\n    /* \"#utility.yul\":6550:6553   */\n  dup6\n    /* \"#utility.yul\":6532:6554   */\n  tag_27\n  jump\t// in\ntag_122:\n    /* \"#utility.yul\":6522:6530   */\n  dup4\n    /* \"#utility.yul\":6518:6555   */\n  add\n    /* \"#utility.yul\":6505:6516   */\n  dup3\n    /* \"#utility.yul\":6476:6556   */\n  tag_37\n  jump\t// in\ntag_121:\n    /* \"#utility.yul\":6135:6566   */\n  pop\n  pop\n    /* \"#utility.yul\":6120:6566   */\ntag_117:\n    /* \"#utility.yul\":6030:6573   */\n  pop\n  pop\n  pop\n  jump\t// out\n    /* \"#utility.yul\":6579:6696   */\ntag_39:\n    /* \"#utility.yul\":6633:6641   */\n  0x00\n    /* \"#utility.yul\":6683:6688   */\n  dup3\n    /* \"#utility.yul\":6677:6681   */\n  dup3\n    /* \"#utility.yul\":6673:6689   */\n  shr\n    /* \"#utility.yul\":6652:6689   */\n  swap1\n  pop\n    /* \"#utility.yul\":6579:6696   */\n  swap3\n  swap2\n  pop\n  pop\n  jump\t// out\n    /* \"#utility.yul\":6702:6871   */\ntag_40:\n    /* \"#utility.yul\":6746:6752   */\n  0x00\n    /* \"#utility.yul\":6779:6830   */\n  tag_125\n    /* \"#utility.yul\":6827:6828   */\n  0x00\n    /* \"#utility.yul\":6823:6829   */\n  not\n    /* \"#utility.yul\":6815:6820   */\n  dup5\n    /* \"#utility.yul\":6812:6813   */\n  0x08\n    /* \"#utility.yul\":6808:6821   */\n  mul\n    /* \"#utility.yul\":6779:6830   */\n  tag_39\n  jump\t// in\ntag_125:\n    /* \"#utility.yul\":6775:6831   */\n  not\n    /* \"#utility.yul\":6860:6864   */\n  dup1\n    /* \"#utility.yul\":6854:6858   */\n  dup4\n    /* \"#utility.yul\":6850:6865   */\n  and\n    /* \"#utility.yul\":6840:6865   */\n  swap2\n  pop\n    /* \"#utility.yul\":6753:6871   */\n  pop\n    /* \"#utility.yul\":6702:6871   */\n  swap3\n  swap2\n  pop\n  pop\n  jump\t// out\n    /* \"#utility.yul\":6876:7171   */\ntag_41:\n    /* \"#utility.yul\":6952:6956   */\n  0x00\n    /* \"#utility.yul\":7098:7127   */\n  tag_127\n    /* \"#utility.yul\":7123:7126   */\n  dup4\n    /* \"#utility.yul\":7117:7121   */\n  dup4\n    /* \"#utility.yul\":7098:7127   */\n  tag_40\n  jump\t// in\ntag_127:\n    /* \"#utility.yul\":7090:7127   */\n  swap2\n  pop\n    /* \"#utility.yul\":7160:7163   */\n  dup3\n    /* \"#utility.yul\":7157:7158   */\n  0x02\n    /* \"#utility.yul\":7153:7164   */\n  mul\n    /* \"#utility.yul\":7147:7151   */\n  dup3\n    /* \"#utility.yul\":7144:7165   */\n  or\n    /* \"#utility.yul\":7136:7165   */\n  swap1\n  pop\n    /* \"#utility.yul\":6876:7171   */\n  swap3\n  swap2\n  pop\n  pop\n  jump\t// out\n    /* \"#utility.yul\":7176:8571   */\ntag_7:\n    /* \"#utility.yul\":7293:7330   */\n  tag_129\n    /* \"#utility.yul\":7326:7329   */\n  dup3\n    /* \"#utility.yul\":7293:7330   */\n  tag_23\n  jump\t// in\ntag_129:\n    /* \"#utility.yul\":7395:7413   */\n  0xffffffffffffffff\n    /* \"#utility.yul\":7387:7393   */\n  dup2\n    /* \"#utility.yul\":7384:7414   */\n  gt\n    /* \"#utility.yul\":7381:7437   */\n  iszero\n  tag_130\n  jumpi\n    /* \"#utility.yul\":7417:7435   */\n  tag_131\n  tag_16\n  jump\t// in\ntag_131:\n    /* \"#utility.yul\":7381:7437   */\ntag_130:\n    /* \"#utility.yul\":7461:7499   */\n  tag_132\n    /* \"#utility.yul\":7493:7497   */\n  dup3\n    /* \"#utility.yul\":7487:7498   */\n  sload\n    /* \"#utility.yul\":7461:7499   */\n  tag_25\n  jump\t// in\ntag_132:\n    /* \"#utility.yul\":7546:7613   */\n  tag_133\n    /* \"#utility.yul\":7606:7612   */\n  dup3\n    /* \"#utility.yul\":7598:7604   */\n  dup3\n    /* \"#utility.yul\":7592:7596   */\n  dup6\n    /* \"#utility.yul\":7546:7613   */\n  tag_38\n  jump\t// in\ntag_133:\n    /* \"#utility.yul\":7640:7641   */\n  0x00\n    /* \"#utility.yul\":7664:7668   */\n  0x20\n    /* \"#utility.yul\":7651:7668   */\n  swap1\n  pop\n    /* \"#utility.yul\":7696:7698   */\n  0x1f\n    /* \"#utility.yul\":7688:7694   */\n  dup4\n    /* \"#utility.yul\":7685:7699   */\n  gt\n    /* \"#utility.yul\":7713:7714   */\n  0x01\n    /* \"#utility.yul\":7708:8326   */\n  dup2\n  eq\n  tag_135\n  jumpi\n    /* \"#utility.yul\":8370:8371   */\n  0x00\n    /* \"#utility.yul\":8387:8393   */\n  dup5\n    /* \"#utility.yul\":8384:8461   */\n  iszero\n  tag_136\n  jumpi\n    /* \"#utility.yul\":8436:8445   */\n  dup3\n    /* \"#utility.yul\":8431:8434   */\n  dup8\n    /* \"#utility.yul\":8427:8446   */\n  add\n    /* \"#utility.yul\":8421:8447   */\n  mload\n    /* \"#utility.yul\":8412:8447   */\n  swap1\n  pop\n    /* \"#utility.yul\":8384:8461   */\ntag_136:\n    /* \"#utility.yul\":8487:8554   */\n  tag_137\n    /* \"#utility.yul\":8547:8553   */\n  dup6\n    /* \"#utility.yul\":8540:8545   */\n  dup3\n    /* \"#utility.yul\":8487:8554   */\n  tag_41\n  jump\t// in\ntag_137:\n    /* \"#utility.yul\":8481:8485   */\n  dup7\n    /* \"#utility.yul\":8474:8555   */\n  sstore\n    /* \"#utility.yul\":8343:8565   */\n  pop\n    /* \"#utility.yul\":7678:8565   */\n  jump(tag_134)\n    /* \"#utility.yul\":7708:8326   */\ntag_135:\n    /* \"#utility.yul\":7760:7764   */\n  0x1f\n    /* \"#utility.yul\":7756:7765   */\n  not\n    /* \"#utility.yul\":7748:7754   */\n  dup5\n    /* \"#utility.yul\":7744:7766   */\n  and\n    /* \"#utility.yul\":7794:7831   */\n  tag_138\n    /* \"#utility.yul\":7826:7830   */\n  dup7\n    /* \"#utility.yul\":7794:7831   */\n  tag_26\n  jump\t// in\ntag_138:\n    /* \"#utility.yul\":7853:7854   */\n  0x00\n    /* \"#utility.yul\":7867:8075   */\ntag_139:\n    /* \"#utility.yul\":7881:7888   */\n  dup3\n    /* \"#utility.yul\":7878:7879   */\n  dup2\n    /* \"#utility.yul\":7875:7889   */\n  lt\n    /* \"#utility.yul\":7867:8075   */\n  iszero\n  tag_141\n  jumpi\n    /* \"#utility.yul\":7960:7969   */\n  dup5\n    /* \"#utility.yul\":7955:7958   */\n  dup10\n    /* \"#utility.yul\":7951:7970   */\n  add\n    /* \"#utility.yul\":7945:7971   */\n  mload\n    /* \"#utility.yul\":7937:7943   */\n  dup3\n    /* \"#utility.yul\":7930:7972   */\n  sstore\n    /* \"#utility.yul\":8011:8012   */\n  0x01\n    /* \"#utility.yul\":8003:8009   */\n  dup3\n    /* \"#utility.yul\":7999:8013   */\n  add\n    /* \"#utility.yul\":7989:8013   */\n  swap2\n  pop\n    /* \"#utility.yul\":8058:8060   */\n  0x20\n    /* \"#utility.yul\":8047:8056   */\n  dup6\n    /* \"#utility.yul\":8043:8061   */\n  add\n    /* \"#utility.yul\":8030:8061   */\n  swap5\n  pop\n    /* \"#utility.yul\":7904:7908   */\n  0x20\n    /* \"#utility.yul\":7901:7902   */\n  dup2\n    /* \"#utility.yul\":7897:7909   */\n  add\n    /* \"#utility.yul\":7892:7909   */\n  swap1\n  pop\n    /* \"#utility.yul\":7867:8075   */\n  jump(tag_139)\ntag_141:\n    /* \"#utility.yul\":8103:8109   */\n  dup7\n    /* \"#utility.yul\":8094:8101   */\n  dup4\n    /* \"#utility.yul\":8091:8110   */\n  lt\n    /* \"#utility.yul\":8088:8267   */\n  iszero\n  tag_142\n  jumpi\n    /* \"#utility.yul\":8161:8170   */\n  dup5\n    /* \"#utility.yul\":8156:8159   */\n  dup10\n    /* \"#utility.yul\":8152:8171   */\n  add\n    /* \"#utility.yul\":8146:8172   */\n  mload\n    /* \"#utility.yul\":8204:8252   */\n  tag_143\n    /* \"#utility.yul\":8246:8250   */\n  0x1f\n    /* \"#utility.yul\":8238:8244   */\n  dup10\n    /* \"#utility.yul\":8234:8251   */\n  and\n    /* \"#utility.yul\":8223:8232   */\n  dup3\n    /* \"#utility.yul\":8204:8252   */\n  tag_40\n  jump\t// in\ntag_143:\n    /* \"#utility.yul\":8196:8202   */\n  dup4\n    /* \"#utility.yul\":8189:8253   */\n  sstore\n    /* \"#utility.yul\":8111:8267   */\n  pop\n    /* \"#utility.yul\":8088:8267   */\ntag_142:\n    /* \"#utility.yul\":8313:8314   */\n  0x01\n    /* \"#utility.yul\":8309:8310   */\n  0x02\n    /* \"#utility.yul\":8301:8307   */\n  dup9\n    /* \"#utility.yul\":8297:8311   */\n  mul\n    /* \"#utility.yul\":8293:8315   */\n  add\n    /* \"#utility.yul\":8287:8291   */\n  dup9\n    /* \"#utility.yul\":8280:8316   */\n  sstore\n    /* \"#utility.yul\":7715:8326   */\n  pop\n  pop\n  pop\n    /* \"#utility.yul\":7678:8565   */\ntag_134:\n  pop\n    /* \"#utility.yul\":7268:8571   */\n  pop\n  pop\n  pop\n    /* \"#utility.yul\":7176:8571   */\n  pop\n  pop\n  jump\t// out\n    /* \"@klaytn/contracts/contracts/KIP/token/KIP7/KIP7.sol\":1487:18819  contract KIP7 is Context, IKIP7, IKIP7Metadata {... */\ntag_9:\n  dataSize(sub_0)\n  dup1\n  dataOffset(sub_0)\n  0x00\n  codecopy\n  0x00\n  return\nstop\n\nsub_0: assembly {\n        /* \"@klaytn/contracts/contracts/KIP/token/KIP7/KIP7.sol\":1487:18819  contract KIP7 is Context, IKIP7, IKIP7Metadata {... */\n      mstore(0x40, 0x80)\n      callvalue\n      dup1\n      iszero\n      tag_1\n      jumpi\n      0x00\n      dup1\n      revert\n    tag_1:\n      pop\n      jumpi(tag_2, lt(calldatasize, 0x04))\n      shr(0xe0, calldataload(0x00))\n      dup1\n      0x42842e0e\n      gt\n      tag_18\n      jumpi\n      dup1\n      0xa9059cbb\n      gt\n      tag_19\n      jumpi\n      dup1\n      0xa9059cbb\n      eq\n      tag_14\n      jumpi\n      dup1\n      0xb88d4fde\n      eq\n      tag_15\n      jumpi\n      dup1\n      0xdd62ed3e\n      eq\n      tag_16\n      jumpi\n      dup1\n      0xeb795549\n      eq\n      tag_17\n      jumpi\n      jump(tag_2)\n    tag_19:\n      dup1\n      0x42842e0e\n      eq\n      tag_10\n      jumpi\n      dup1\n      0x70a08231\n      eq\n      tag_11\n      jumpi\n      dup1\n      0x95d89b41\n      eq\n      tag_12\n      jumpi\n      dup1\n      0xa457c2d7\n      eq\n      tag_13\n      jumpi\n      jump(tag_2)\n    tag_18:\n      dup1\n      0x23b872dd\n      gt\n      tag_20\n      jumpi\n      dup1\n      0x23b872dd\n      eq\n      tag_6\n      jumpi\n      dup1\n      0x313ce567\n      eq\n      tag_7\n      jumpi\n      dup1\n      0x39509351\n      eq\n      tag_8\n      jumpi\n      dup1\n      0x423f6cef\n      eq\n      tag_9\n      jumpi\n      jump(tag_2)\n    tag_20:\n      dup1\n      0x06fdde03\n      eq\n      tag_3\n      jumpi\n      dup1\n      0x095ea7b3\n      eq\n      tag_4\n      jumpi\n      dup1\n      0x18160ddd\n      eq\n      tag_5\n      jumpi\n    tag_2:\n      0x00\n      dup1\n      revert\n        /* \"@klaytn/contracts/contracts/KIP/token/KIP7/KIP7.sol\":2269:2367  function name() public view virtual override returns (string memory) {... */\n    tag_3:\n      tag_21\n      tag_22\n      jump\t// in\n    tag_21:\n      mload(0x40)\n      tag_23\n      swap2\n      swap1\n      tag_24\n      jump\t// in\n    tag_23:\n      mload(0x40)\n      dup1\n      swap2\n      sub\n      swap1\n      return\n        /* \"@klaytn/contracts/contracts/KIP/token/KIP7/KIP7.sol\":4538:4735  function approve(address spender, uint256 amount) public virtual override returns (bool) {... */\n    tag_4:\n      tag_25\n      0x04\n      dup1\n      calldatasize\n      sub\n      dup2\n      add\n      swap1\n      tag_26\n      swap2\n      swap1\n      tag_27\n      jump\t// in\n    tag_26:\n      tag_28\n      jump\t// in\n    tag_25:\n      mload(0x40)\n      tag_29\n      swap2\n      swap1\n      tag_30\n      jump\t// in\n    tag_29:\n      mload(0x40)\n      dup1\n      swap2\n      sub\n      swap1\n      return\n        /* \"@klaytn/contracts/contracts/KIP/token/KIP7/KIP7.sol\":3353:3459  function totalSupply() public view virtual override returns (uint256) {... */\n    tag_5:\n      tag_31\n      tag_32\n      jump\t// in\n    tag_31:\n      mload(0x40)\n      tag_33\n      swap2\n      swap1\n      tag_34\n      jump\t// in\n    tag_33:\n      mload(0x40)\n      dup1\n      swap2\n      sub\n      swap1\n      return\n        /* \"@klaytn/contracts/contracts/KIP/token/KIP7/KIP7.sol\":5295:5581  function transferFrom(... */\n    tag_6:\n      tag_35\n      0x04\n      dup1\n      calldatasize\n      sub\n      dup2\n      add\n      swap1\n      tag_36\n      swap2\n      swap1\n      tag_37\n      jump\t// in\n    tag_36:\n      tag_38\n      jump\t// in\n    tag_35:\n      mload(0x40)\n      tag_39\n      swap2\n      swap1\n      tag_30\n      jump\t// in\n    tag_39:\n      mload(0x40)\n      dup1\n      swap2\n      sub\n      swap1\n      return\n        /* \"@klaytn/contracts/contracts/KIP/token/KIP7/KIP7.sol\":3203:3294  function decimals() public view virtual override returns (uint8) {... */\n    tag_7:\n      tag_40\n      tag_41\n      jump\t// in\n    tag_40:\n      mload(0x40)\n      tag_42\n      swap2\n      swap1\n      tag_43\n      jump\t// in\n    tag_42:\n      mload(0x40)\n      dup1\n      swap2\n      sub\n      swap1\n      return\n        /* \"@klaytn/contracts/contracts/KIP/token/KIP7/KIP7.sol\":5975:6209  function increaseAllowance(address spender, uint256 addedValue) public virtual returns (bool) {... */\n    tag_8:\n      tag_44\n      0x04\n      dup1\n      calldatasize\n      sub\n      dup2\n      add\n      swap1\n      tag_45\n      swap2\n      swap1\n      tag_27\n      jump\t// in\n    tag_45:\n      tag_46\n      jump\t// in\n    tag_44:\n      mload(0x40)\n      tag_47\n      swap2\n      swap1\n      tag_30\n      jump\t// in\n    tag_47:\n      mload(0x40)\n      dup1\n      swap2\n      sub\n      swap1\n      return\n        /* \"@klaytn/contracts/contracts/KIP/token/KIP7/KIP7.sol\":7445:7623  function safeTransfer(address recipient, uint256 amount) public virtual override{... */\n    tag_9:\n      tag_48\n      0x04\n      dup1\n      calldatasize\n      sub\n      dup2\n      add\n      swap1\n      tag_49\n      swap2\n      swap1\n      tag_27\n      jump\t// in\n    tag_49:\n      tag_50\n      jump\t// in\n    tag_48:\n      stop\n        /* \"@klaytn/contracts/contracts/KIP/token/KIP7/KIP7.sol\":8803:9086  function safeTransferFrom(... */\n    tag_10:\n      tag_51\n      0x04\n      dup1\n      calldatasize\n      sub\n      dup2\n      add\n      swap1\n      tag_52\n      swap2\n      swap1\n      tag_37\n      jump\t// in\n    tag_52:\n      tag_53\n      jump\t// in\n    tag_51:\n      stop\n        /* \"@klaytn/contracts/contracts/KIP/token/KIP7/KIP7.sol\":3516:3641  function balanceOf(address account) public view virtual override returns (uint256) {... */\n    tag_11:\n      tag_54\n      0x04\n      dup1\n      calldatasize\n      sub\n      dup2\n      add\n      swap1\n      tag_55\n      swap2\n      swap1\n      tag_56\n      jump\t// in\n    tag_55:\n      tag_57\n      jump\t// in\n    tag_54:\n      mload(0x40)\n      tag_58\n      swap2\n      swap1\n      tag_34\n      jump\t// in\n    tag_58:\n      mload(0x40)\n      dup1\n      swap2\n      sub\n      swap1\n      return\n        /* \"@klaytn/contracts/contracts/KIP/token/KIP7/KIP7.sol\":2480:2582  function symbol() public view virtual override returns (string memory) {... */\n    tag_12:\n      tag_59\n      tag_60\n      jump\t// in\n    tag_59:\n      mload(0x40)\n      tag_61\n      swap2\n      swap1\n      tag_24\n      jump\t// in\n    tag_61:\n      mload(0x40)\n      dup1\n      swap2\n      sub\n      swap1\n      return\n        /* \"@klaytn/contracts/contracts/KIP/token/KIP7/KIP7.sol\":6695:7121  function decreaseAllowance(address spender, uint256 subtractedValue) public virtual returns (bool) {... */\n    tag_13:\n      tag_62\n      0x04\n      dup1\n      calldatasize\n      sub\n      dup2\n      add\n      swap1\n      tag_63\n      swap2\n      swap1\n      tag_27\n      jump\t// in\n    tag_63:\n      tag_64\n      jump\t// in\n    tag_62:\n      mload(0x40)\n      tag_65\n      swap2\n      swap1\n      tag_30\n      jump\t// in\n    tag_65:\n      mload(0x40)\n      dup1\n      swap2\n      sub\n      swap1\n      return\n        /* \"@klaytn/contracts/contracts/KIP/token/KIP7/KIP7.sol\":3836:4025  function transfer(address to, uint256 amount) public virtual override returns (bool) {... */\n    tag_14:\n      tag_66\n      0x04\n      dup1\n      calldatasize\n      sub\n      dup2\n      add\n      swap1\n      tag_67\n      swap2\n      swap1\n      tag_27\n      jump\t// in\n    tag_67:\n      tag_68\n      jump\t// in\n    tag_66:\n      mload(0x40)\n      tag_69\n      swap2\n      swap1\n      tag_30\n      jump\t// in\n    tag_69:\n      mload(0x40)\n      dup1\n      swap2\n      sub\n      swap1\n      return\n        /* \"@klaytn/contracts/contracts/KIP/token/KIP7/KIP7.sol\":9429:9741  function safeTransferFrom(... */\n    tag_15:\n      tag_70\n      0x04\n      dup1\n      calldatasize\n      sub\n      dup2\n      add\n      swap1\n      tag_71\n      swap2\n      swap1\n      tag_72\n      jump\t// in\n    tag_71:\n      tag_73\n      jump\t// in\n    tag_70:\n      stop\n        /* \"@klaytn/contracts/contracts/KIP/token/KIP7/KIP7.sol\":4082:4231  function allowance(address owner, address spender) public view virtual override returns (uint256) {... */\n    tag_16:\n      tag_74\n      0x04\n      dup1\n      calldatasize\n      sub\n      dup2\n      add\n      swap1\n      tag_75\n      swap2\n      swap1\n      tag_76\n      jump\t// in\n    tag_75:\n      tag_77\n      jump\t// in\n    tag_74:\n      mload(0x40)\n      tag_78\n      swap2\n      swap1\n      tag_34\n      jump\t// in\n    tag_78:\n      mload(0x40)\n      dup1\n      swap2\n      sub\n      swap1\n      return\n        /* \"@klaytn/contracts/contracts/KIP/token/KIP7/KIP7.sol\":7884:8115  function safeTransfer(... */\n    tag_17:\n      tag_79\n      0x04\n      dup1\n      calldatasize\n      sub\n      dup2\n      add\n      swap1\n      tag_80\n      swap2\n      swap1\n      tag_81\n      jump\t// in\n    tag_80:\n      tag_82\n      jump\t// in\n    tag_79:\n      stop\n        /* \"@klaytn/contracts/contracts/KIP/token/KIP7/KIP7.sol\":2269:2367  function name() public view virtual override returns (string memory) {... */\n    tag_22:\n        /* \"@klaytn/contracts/contracts/KIP/token/KIP7/KIP7.sol\":2323:2336  string memory */\n      0x60\n        /* \"@klaytn/contracts/contracts/KIP/token/KIP7/KIP7.sol\":2355:2360  _name */\n      0x03\n        /* \"@klaytn/contracts/contracts/KIP/token/KIP7/KIP7.sol\":2348:2360  return _name */\n      dup1\n      sload\n      tag_84\n      swap1\n      tag_85\n      jump\t// in\n    tag_84:\n      dup1\n      0x1f\n      add\n      0x20\n      dup1\n      swap2\n      div\n      mul\n      0x20\n      add\n      mload(0x40)\n      swap1\n      dup2\n      add\n      0x40\n      mstore\n      dup1\n      swap3\n      swap2\n      swap1\n      dup2\n      dup2\n      mstore\n      0x20\n      add\n      dup3\n      dup1\n      sload\n      tag_86\n      swap1\n      tag_85\n      jump\t// in\n    tag_86:\n      dup1\n      iszero\n      tag_87\n      jumpi\n      dup1\n      0x1f\n      lt\n      tag_88\n      jumpi\n      0x0100\n      dup1\n      dup4\n      sload\n      div\n      mul\n      dup4\n      mstore\n      swap2\n      0x20\n      add\n      swap2\n      jump(tag_87)\n    tag_88:\n      dup3\n      add\n      swap2\n      swap1\n      0x00\n      mstore\n      keccak256(0x00, 0x20)\n      swap1\n    tag_89:\n      dup2\n      sload\n      dup2\n      mstore\n      swap1\n      0x01\n      add\n      swap1\n      0x20\n      add\n      dup1\n      dup4\n      gt\n      tag_89\n      jumpi\n      dup3\n      swap1\n      sub\n      0x1f\n      and\n      dup3\n      add\n      swap2\n    tag_87:\n      pop\n      pop\n      pop\n      pop\n      pop\n      swap1\n      pop\n        /* \"@klaytn/contracts/contracts/KIP/token/KIP7/KIP7.sol\":2269:2367  function name() public view virtual override returns (string memory) {... */\n      swap1\n      jump\t// out\n        /* \"@klaytn/contracts/contracts/KIP/token/KIP7/KIP7.sol\":4538:4735  function approve(address spender, uint256 amount) public virtual override returns (bool) {... */\n    tag_28:\n        /* \"@klaytn/contracts/contracts/KIP/token/KIP7/KIP7.sol\":4621:4625  bool */\n      0x00\n        /* \"@klaytn/contracts/contracts/KIP/token/KIP7/KIP7.sol\":4637:4650  address owner */\n      dup1\n        /* \"@klaytn/contracts/contracts/KIP/token/KIP7/KIP7.sol\":4653:4665  _msgSender() */\n      tag_91\n        /* \"@klaytn/contracts/contracts/KIP/token/KIP7/KIP7.sol\":4653:4663  _msgSender */\n      tag_92\n        /* \"@klaytn/contracts/contracts/KIP/token/KIP7/KIP7.sol\":4653:4665  _msgSender() */\n      jump\t// in\n    tag_91:\n        /* \"@klaytn/contracts/contracts/KIP/token/KIP7/KIP7.sol\":4637:4665  address owner = _msgSender() */\n      swap1\n      pop\n        /* \"@klaytn/contracts/contracts/KIP/token/KIP7/KIP7.sol\":4675:4707  _approve(owner, spender, amount) */\n      tag_93\n        /* \"@klaytn/contracts/contracts/KIP/token/KIP7/KIP7.sol\":4684:4689  owner */\n      dup2\n        /* \"@klaytn/contracts/contracts/KIP/token/KIP7/KIP7.sol\":4691:4698  spender */\n      dup6\n        /* \"@klaytn/contracts/contracts/KIP/token/KIP7/KIP7.sol\":4700:4706  amount */\n      dup6\n        /* \"@klaytn/contracts/contracts/KIP/token/KIP7/KIP7.sol\":4675:4683  _approve */\n      tag_94\n        /* \"@klaytn/contracts/contracts/KIP/token/KIP7/KIP7.sol\":4675:4707  _approve(owner, spender, amount) */\n      jump\t// in\n    tag_93:\n        /* \"@klaytn/contracts/contracts/KIP/token/KIP7/KIP7.sol\":4724:4728  true */\n      0x01\n        /* \"@klaytn/contracts/contracts/KIP/token/KIP7/KIP7.sol\":4717:4728  return true */\n      swap2\n      pop\n      pop\n        /* \"@klaytn/contracts/contracts/KIP/token/KIP7/KIP7.sol\":4538:4735  function approve(address spender, uint256 amount) public virtual override returns (bool) {... */\n      swap3\n      swap2\n      pop\n      pop\n      jump\t// out\n        /* \"@klaytn/contracts/contracts/KIP/token/KIP7/KIP7.sol\":3353:3459  function totalSupply() public view virtual override returns (uint256) {... */\n    tag_32:\n        /* \"@klaytn/contracts/contracts/KIP/token/KIP7/KIP7.sol\":3414:3421  uint256 */\n      0x00\n        /* \"@klaytn/contracts/contracts/KIP/token/KIP7/KIP7.sol\":3440:3452  _totalSupply */\n      sload(0x02)\n        /* \"@klaytn/contracts/contracts/KIP/token/KIP7/KIP7.sol\":3433:3452  return _totalSupply */\n      swap1\n      pop\n        /* \"@klaytn/contracts/contracts/KIP/token/KIP7/KIP7.sol\":3353:3459  function totalSupply() public view virtual override returns (uint256) {... */\n      swap1\n      jump\t// out\n        /* \"@klaytn/contracts/contracts/KIP/token/KIP7/KIP7.sol\":5295:5581  function transferFrom(... */\n    tag_38:\n        /* \"@klaytn/contracts/contracts/KIP/token/KIP7/KIP7.sol\":5422:5426  bool */\n      0x00\n        /* \"@klaytn/contracts/contracts/KIP/token/KIP7/KIP7.sol\":5438:5453  address spender */\n      dup1\n        /* \"@klaytn/contracts/contracts/KIP/token/KIP7/KIP7.sol\":5456:5468  _msgSender() */\n      tag_97\n        /* \"@klaytn/contracts/contracts/KIP/token/KIP7/KIP7.sol\":5456:5466  _msgSender */\n      tag_92\n        /* \"@klaytn/contracts/contracts/KIP/token/KIP7/KIP7.sol\":5456:5468  _msgSender() */\n      jump\t// in\n    tag_97:\n        /* \"@klaytn/contracts/contracts/KIP/token/KIP7/KIP7.sol\":5438:5468  address spender = _msgSender() */\n      swap1\n      pop\n        /* \"@klaytn/contracts/contracts/KIP/token/KIP7/KIP7.sol\":5478:5516  _spendAllowance(from, spender, amount) */\n      tag_98\n        /* \"@klaytn/contracts/contracts/KIP/token/KIP7/KIP7.sol\":5494:5498  from */\n      dup6\n        /* \"@klaytn/contracts/contracts/KIP/token/KIP7/KIP7.sol\":5500:5507  spender */\n      dup3\n        /* \"@klaytn/contracts/contracts/KIP/token/KIP7/KIP7.sol\":5509:5515  amount */\n      dup6\n        /* \"@klaytn/contracts/contracts/KIP/token/KIP7/KIP7.sol\":5478:5493  _spendAllowance */\n      tag_99\n        /* \"@klaytn/contracts/contracts/KIP/token/KIP7/KIP7.sol\":5478:5516  _spendAllowance(from, spender, amount) */\n      jump\t// in\n    tag_98:\n        /* \"@klaytn/contracts/contracts/KIP/token/KIP7/KIP7.sol\":5526:5553  _transfer(from, to, amount) */\n      tag_100\n        /* \"@klaytn/contracts/contracts/KIP/token/KIP7/KIP7.sol\":5536:5540  from */\n      dup6\n        /* \"@klaytn/contracts/contracts/KIP/token/KIP7/KIP7.sol\":5542:5544  to */\n      dup6\n        /* \"@klaytn/contracts/contracts/KIP/token/KIP7/KIP7.sol\":5546:5552  amount */\n      dup6\n        /* \"@klaytn/contracts/contracts/KIP/token/KIP7/KIP7.sol\":5526:5535  _transfer */\n      tag_101\n        /* \"@klaytn/contracts/contracts/KIP/token/KIP7/KIP7.sol\":5526:5553  _transfer(from, to, amount) */\n      jump\t// in\n    tag_100:\n        /* \"@klaytn/contracts/contracts/KIP/token/KIP7/KIP7.sol\":5570:5574  true */\n      0x01\n        /* \"@klaytn/contracts/contracts/KIP/token/KIP7/KIP7.sol\":5563:5574  return true */\n      swap2\n      pop\n      pop\n        /* \"@klaytn/contracts/contracts/KIP/token/KIP7/KIP7.sol\":5295:5581  function transferFrom(... */\n      swap4\n      swap3\n      pop\n      pop\n      pop\n      jump\t// out\n        /* \"@klaytn/contracts/contracts/KIP/token/KIP7/KIP7.sol\":3203:3294  function decimals() public view virtual override returns (uint8) {... */\n    tag_41:\n        /* \"@klaytn/contracts/contracts/KIP/token/KIP7/KIP7.sol\":3261:3266  uint8 */\n      0x00\n        /* \"@klaytn/contracts/contracts/KIP/token/KIP7/KIP7.sol\":3285:3287  18 */\n      0x12\n        /* \"@klaytn/contracts/contracts/KIP/token/KIP7/KIP7.sol\":3278:3287  return 18 */\n      swap1\n      pop\n        /* \"@klaytn/contracts/contracts/KIP/token/KIP7/KIP7.sol\":3203:3294  function decimals() public view virtual override returns (uint8) {... */\n      swap1\n      jump\t// out\n        /* \"@klaytn/contracts/contracts/KIP/token/KIP7/KIP7.sol\":5975:6209  function increaseAllowance(address spender, uint256 addedValue) public virtual returns (bool) {... */\n    tag_46:\n        /* \"@klaytn/contracts/contracts/KIP/token/KIP7/KIP7.sol\":6063:6067  bool */\n      0x00\n        /* \"@klaytn/contracts/contracts/KIP/token/KIP7/KIP7.sol\":6079:6092  address owner */\n      dup1\n        /* \"@klaytn/contracts/contracts/KIP/token/KIP7/KIP7.sol\":6095:6107  _msgSender() */\n      tag_104\n        /* \"@klaytn/contracts/contracts/KIP/token/KIP7/KIP7.sol\":6095:6105  _msgSender */\n      tag_92\n        /* \"@klaytn/contracts/contracts/KIP/token/KIP7/KIP7.sol\":6095:6107  _msgSender() */\n      jump\t// in\n    tag_104:\n        /* \"@klaytn/contracts/contracts/KIP/token/KIP7/KIP7.sol\":6079:6107  address owner = _msgSender() */\n      swap1\n      pop\n        /* \"@klaytn/contracts/contracts/KIP/token/KIP7/KIP7.sol\":6117:6181  _approve(owner, spender, allowance(owner, spender) + addedValue) */\n      tag_105\n        /* \"@klaytn/contracts/contracts/KIP/token/KIP7/KIP7.sol\":6126:6131  owner */\n      dup2\n        /* \"@klaytn/contracts/contracts/KIP/token/KIP7/KIP7.sol\":6133:6140  spender */\n      dup6\n        /* \"@klaytn/contracts/contracts/KIP/token/KIP7/KIP7.sol\":6170:6180  addedValue */\n      dup6\n        /* \"@klaytn/contracts/contracts/KIP/token/KIP7/KIP7.sol\":6142:6167  allowance(owner, spender) */\n      tag_106\n        /* \"@klaytn/contracts/contracts/KIP/token/KIP7/KIP7.sol\":6152:6157  owner */\n      dup6\n        /* \"@klaytn/contracts/contracts/KIP/token/KIP7/KIP7.sol\":6159:6166  spender */\n      dup10\n        /* \"@klaytn/contracts/contracts/KIP/token/KIP7/KIP7.sol\":6142:6151  allowance */\n      tag_77\n        /* \"@klaytn/contracts/contracts/KIP/token/KIP7/KIP7.sol\":6142:6167  allowance(owner, spender) */\n      jump\t// in\n    tag_106:\n        /* \"@klaytn/contracts/contracts/KIP/token/KIP7/KIP7.sol\":6142:6180  allowance(owner, spender) + addedValue */\n      tag_107\n      swap2\n      swap1\n      tag_108\n      jump\t// in\n    tag_107:\n        /* \"@klaytn/contracts/contracts/KIP/token/KIP7/KIP7.sol\":6117:6125  _approve */\n      tag_94\n        /* \"@klaytn/contracts/contracts/KIP/token/KIP7/KIP7.sol\":6117:6181  _approve(owner, spender, allowance(owner, spender) + addedValue) */\n      jump\t// in\n    tag_105:\n        /* \"@klaytn/contracts/contracts/KIP/token/KIP7/KIP7.sol\":6198:6202  true */\n      0x01\n        /* \"@klaytn/contracts/contracts/KIP/token/KIP7/KIP7.sol\":6191:6202  return true */\n      swap2\n      pop\n      pop\n        /* \"@klaytn/contracts/contracts/KIP/token/KIP7/KIP7.sol\":5975:6209  function increaseAllowance(address spender, uint256 addedValue) public virtual returns (bool) {... */\n      swap3\n      swap2\n      pop\n      pop\n      jump\t// out\n        /* \"@klaytn/contracts/contracts/KIP/token/KIP7/KIP7.sol\":7445:7623  function safeTransfer(address recipient, uint256 amount) public virtual override{... */\n    tag_50:\n        /* \"@klaytn/contracts/contracts/KIP/token/KIP7/KIP7.sol\":7535:7548  address owner */\n      0x00\n        /* \"@klaytn/contracts/contracts/KIP/token/KIP7/KIP7.sol\":7551:7563  _msgSender() */\n      tag_110\n        /* \"@klaytn/contracts/contracts/KIP/token/KIP7/KIP7.sol\":7551:7561  _msgSender */\n      tag_92\n        /* \"@klaytn/contracts/contracts/KIP/token/KIP7/KIP7.sol\":7551:7563  _msgSender() */\n      jump\t// in\n    tag_110:\n        /* \"@klaytn/contracts/contracts/KIP/token/KIP7/KIP7.sol\":7535:7563  address owner = _msgSender() */\n      swap1\n      pop\n        /* \"@klaytn/contracts/contracts/KIP/token/KIP7/KIP7.sol\":7573:7616  _safeTransfer(owner, recipient, amount, \"\") */\n      tag_111\n        /* \"@klaytn/contracts/contracts/KIP/token/KIP7/KIP7.sol\":7587:7592  owner */\n      dup2\n        /* \"@klaytn/contracts/contracts/KIP/token/KIP7/KIP7.sol\":7594:7603  recipient */\n      dup5\n        /* \"@klaytn/contracts/contracts/KIP/token/KIP7/KIP7.sol\":7605:7611  amount */\n      dup5\n        /* \"@klaytn/contracts/contracts/KIP/token/KIP7/KIP7.sol\":7573:7616  _safeTransfer(owner, recipient, amount, \"\") */\n      mload(0x40)\n      dup1\n      0x20\n      add\n      0x40\n      mstore\n      dup1\n      0x00\n      dup2\n      mstore\n      pop\n        /* \"@klaytn/contracts/contracts/KIP/token/KIP7/KIP7.sol\":7573:7586  _safeTransfer */\n      tag_112\n        /* \"@klaytn/contracts/contracts/KIP/token/KIP7/KIP7.sol\":7573:7616  _safeTransfer(owner, recipient, amount, \"\") */\n      jump\t// in\n    tag_111:\n        /* \"@klaytn/contracts/contracts/KIP/token/KIP7/KIP7.sol\":7525:7623  {... */\n      pop\n        /* \"@klaytn/contracts/contracts/KIP/token/KIP7/KIP7.sol\":7445:7623  function safeTransfer(address recipient, uint256 amount) public virtual override{... */\n      pop\n      pop\n      jump\t// out\n        /* \"@klaytn/contracts/contracts/KIP/token/KIP7/KIP7.sol\":8803:9086  function safeTransferFrom(... */\n    tag_53:\n        /* \"@klaytn/contracts/contracts/KIP/token/KIP7/KIP7.sol\":8945:8960  address spender */\n      0x00\n        /* \"@klaytn/contracts/contracts/KIP/token/KIP7/KIP7.sol\":8963:8975  _msgSender() */\n      tag_114\n        /* \"@klaytn/contracts/contracts/KIP/token/KIP7/KIP7.sol\":8963:8973  _msgSender */\n      tag_92\n        /* \"@klaytn/contracts/contracts/KIP/token/KIP7/KIP7.sol\":8963:8975  _msgSender() */\n      jump\t// in\n    tag_114:\n        /* \"@klaytn/contracts/contracts/KIP/token/KIP7/KIP7.sol\":8945:8975  address spender = _msgSender() */\n      swap1\n      pop\n        /* \"@klaytn/contracts/contracts/KIP/token/KIP7/KIP7.sol\":8985:9025  _spendAllowance(sender, spender, amount) */\n      tag_115\n        /* \"@klaytn/contracts/contracts/KIP/token/KIP7/KIP7.sol\":9001:9007  sender */\n      dup5\n        /* \"@klaytn/contracts/contracts/KIP/token/KIP7/KIP7.sol\":9009:9016  spender */\n      dup3\n        /* \"@klaytn/contracts/contracts/KIP/token/KIP7/KIP7.sol\":9018:9024  amount */\n      dup5\n        /* \"@klaytn/contracts/contracts/KIP/token/KIP7/KIP7.sol\":8985:9000  _spendAllowance */\n      tag_99\n        /* \"@klaytn/contracts/contracts/KIP/token/KIP7/KIP7.sol\":8985:9025  _spendAllowance(sender, spender, amount) */\n      jump\t// in\n    tag_115:\n        /* \"@klaytn/contracts/contracts/KIP/token/KIP7/KIP7.sol\":9035:9079  _safeTransfer(sender, recipient, amount, \"\") */\n      tag_116\n        /* \"@klaytn/contracts/contracts/KIP/token/KIP7/KIP7.sol\":9049:9055  sender */\n      dup5\n        /* \"@klaytn/contracts/contracts/KIP/token/KIP7/KIP7.sol\":9057:9066  recipient */\n      dup5\n        /* \"@klaytn/contracts/contracts/KIP/token/KIP7/KIP7.sol\":9068:9074  amount */\n      dup5\n        /* \"@klaytn/contracts/contracts/KIP/token/KIP7/KIP7.sol\":9035:9079  _safeTransfer(sender, recipient, amount, \"\") */\n      mload(0x40)\n      dup1\n      0x20\n      add\n      0x40\n      mstore\n      dup1\n      0x00\n      dup2\n      mstore\n      pop\n        /* \"@klaytn/contracts/contracts/KIP/token/KIP7/KIP7.sol\":9035:9048  _safeTransfer */\n      tag_112\n        /* \"@klaytn/contracts/contracts/KIP/token/KIP7/KIP7.sol\":9035:9079  _safeTransfer(sender, recipient, amount, \"\") */\n      jump\t// in\n    tag_116:\n        /* \"@klaytn/contracts/contracts/KIP/token/KIP7/KIP7.sol\":8935:9086  {... */\n      pop\n        /* \"@klaytn/contracts/contracts/KIP/token/KIP7/KIP7.sol\":8803:9086  function safeTransferFrom(... */\n      pop\n      pop\n      pop\n      jump\t// out\n        /* \"@klaytn/contracts/contracts/KIP/token/KIP7/KIP7.sol\":3516:3641  function balanceOf(address account) public view virtual override returns (uint256) {... */\n    tag_57:\n        /* \"@klaytn/contracts/contracts/KIP/token/KIP7/KIP7.sol\":3590:3597  uint256 */\n      0x00\n        /* \"@klaytn/contracts/contracts/KIP/token/KIP7/KIP7.sol\":3616:3625  _balances */\n      dup1\n        /* \"@klaytn/contracts/contracts/KIP/token/KIP7/KIP7.sol\":3616:3634  _balances[account] */\n      0x00\n        /* \"@klaytn/contracts/contracts/KIP/token/KIP7/KIP7.sol\":3626:3633  account */\n      dup4\n        /* \"@klaytn/contracts/contracts/KIP/token/KIP7/KIP7.sol\":3616:3634  _balances[account] */\n      0xffffffffffffffffffffffffffffffffffffffff\n      and\n      0xffffffffffffffffffffffffffffffffffffffff\n      and\n      dup2\n      mstore\n      0x20\n      add\n      swap1\n      dup2\n      mstore\n      0x20\n      add\n      0x00\n      keccak256\n      sload\n        /* \"@klaytn/contracts/contracts/KIP/token/KIP7/KIP7.sol\":3609:3634  return _balances[account] */\n      swap1\n      pop\n        /* \"@klaytn/contracts/contracts/KIP/token/KIP7/KIP7.sol\":3516:3641  function balanceOf(address account) public view virtual override returns (uint256) {... */\n      swap2\n      swap1\n      pop\n      jump\t// out\n        /* \"@klaytn/contracts/contracts/KIP/token/KIP7/KIP7.sol\":2480:2582  function symbol() public view virtual override returns (string memory) {... */\n    tag_60:\n        /* \"@klaytn/contracts/contracts/KIP/token/KIP7/KIP7.sol\":2536:2549  string memory */\n      0x60\n        /* \"@klaytn/contracts/contracts/KIP/token/KIP7/KIP7.sol\":2568:2575  _symbol */\n      0x04\n        /* \"@klaytn/contracts/contracts/KIP/token/KIP7/KIP7.sol\":2561:2575  return _symbol */\n      dup1\n      sload\n      tag_119\n      swap1\n      tag_85\n      jump\t// in\n    tag_119:\n      dup1\n      0x1f\n      add\n      0x20\n      dup1\n      swap2\n      div\n      mul\n      0x20\n      add\n      mload(0x40)\n      swap1\n      dup2\n      add\n      0x40\n      mstore\n      dup1\n      swap3\n      swap2\n      swap1\n      dup2\n      dup2\n      mstore\n      0x20\n      add\n      dup3\n      dup1\n      sload\n      tag_120\n      swap1\n      tag_85\n      jump\t// in\n    tag_120:\n      dup1\n      iszero\n      tag_121\n      jumpi\n      dup1\n      0x1f\n      lt\n      tag_122\n      jumpi\n      0x0100\n      dup1\n      dup4\n      sload\n      div\n      mul\n      dup4\n      mstore\n      swap2\n      0x20\n      add\n      swap2\n      jump(tag_121)\n    tag_122:\n      dup3\n      add\n      swap2\n      swap1\n      0x00\n      mstore\n      keccak256(0x00, 0x20)\n      swap1\n    tag_123:\n      dup2\n      sload\n      dup2\n      mstore\n      swap1\n      0x01\n      add\n      swap1\n      0x20\n      add\n      dup1\n      dup4\n      gt\n      tag_123\n      jumpi\n      dup3\n      swap1\n      sub\n      0x1f\n      and\n      dup3\n      add\n      swap2\n    tag_121:\n      pop\n      pop\n      pop\n      pop\n      pop\n      swap1\n      pop\n        /* \"@klaytn/contracts/contracts/KIP/token/KIP7/KIP7.sol\":2480:2582  function symbol() public view virtual override returns (string memory) {... */\n      swap1\n      jump\t// out\n        /* \"@klaytn/contracts/contracts/KIP/token/KIP7/KIP7.sol\":6695:7121  function decreaseAllowance(address spender, uint256 subtractedValue) public virtual returns (bool) {... */\n    tag_64:\n        /* \"@klaytn/contracts/contracts/KIP/token/KIP7/KIP7.sol\":6788:6792  bool */\n      0x00\n        /* \"@klaytn/contracts/contracts/KIP/token/KIP7/KIP7.sol\":6804:6817  address owner */\n      dup1\n        /* \"@klaytn/contracts/contracts/KIP/token/KIP7/KIP7.sol\":6820:6832  _msgSender() */\n      tag_125\n        /* \"@klaytn/contracts/contracts/KIP/token/KIP7/KIP7.sol\":6820:6830  _msgSender */\n      tag_92\n        /* \"@klaytn/contracts/contracts/KIP/token/KIP7/KIP7.sol\":6820:6832  _msgSender() */\n      jump\t// in\n    tag_125:\n        /* \"@klaytn/contracts/contracts/KIP/token/KIP7/KIP7.sol\":6804:6832  address owner = _msgSender() */\n      swap1\n      pop\n        /* \"@klaytn/contracts/contracts/KIP/token/KIP7/KIP7.sol\":6842:6866  uint256 currentAllowance */\n      0x00\n        /* \"@klaytn/contracts/contracts/KIP/token/KIP7/KIP7.sol\":6869:6894  allowance(owner, spender) */\n      tag_126\n        /* \"@klaytn/contracts/contracts/KIP/token/KIP7/KIP7.sol\":6879:6884  owner */\n      dup3\n        /* \"@klaytn/contracts/contracts/KIP/token/KIP7/KIP7.sol\":6886:6893  spender */\n      dup7\n        /* \"@klaytn/contracts/contracts/KIP/token/KIP7/KIP7.sol\":6869:6878  allowance */\n      tag_77\n        /* \"@klaytn/contracts/contracts/KIP/token/KIP7/KIP7.sol\":6869:6894  allowance(owner, spender) */\n      jump\t// in\n    tag_126:\n        /* \"@klaytn/contracts/contracts/KIP/token/KIP7/KIP7.sol\":6842:6894  uint256 currentAllowance = allowance(owner, spender) */\n      swap1\n      pop\n        /* \"@klaytn/contracts/contracts/KIP/token/KIP7/KIP7.sol\":6932:6947  subtractedValue */\n      dup4\n        /* \"@klaytn/contracts/contracts/KIP/token/KIP7/KIP7.sol\":6912:6928  currentAllowance */\n      dup2\n        /* \"@klaytn/contracts/contracts/KIP/token/KIP7/KIP7.sol\":6912:6947  currentAllowance >= subtractedValue */\n      lt\n      iszero\n        /* \"@klaytn/contracts/contracts/KIP/token/KIP7/KIP7.sol\":6904:6988  require(currentAllowance >= subtractedValue, \"KIP7: decreased allowance below zero\") */\n      tag_127\n      jumpi\n      mload(0x40)\n      0x08c379a000000000000000000000000000000000000000000000000000000000\n      dup2\n      mstore\n      0x04\n      add\n      tag_128\n      swap1\n      tag_129\n      jump\t// in\n    tag_128:\n      mload(0x40)\n      dup1\n      swap2\n      sub\n      swap1\n      revert\n    tag_127:\n        /* \"@klaytn/contracts/contracts/KIP/token/KIP7/KIP7.sol\":7022:7082  _approve(owner, spender, currentAllowance - subtractedValue) */\n      tag_130\n        /* \"@klaytn/contracts/contracts/KIP/token/KIP7/KIP7.sol\":7031:7036  owner */\n      dup3\n        /* \"@klaytn/contracts/contracts/KIP/token/KIP7/KIP7.sol\":7038:7045  spender */\n      dup7\n        /* \"@klaytn/contracts/contracts/KIP/token/KIP7/KIP7.sol\":7066:7081  subtractedValue */\n      dup7\n        /* \"@klaytn/contracts/contracts/KIP/token/KIP7/KIP7.sol\":7047:7063  currentAllowance */\n      dup5\n        /* \"@klaytn/contracts/contracts/KIP/token/KIP7/KIP7.sol\":7047:7081  currentAllowance - subtractedValue */\n      sub\n        /* \"@klaytn/contracts/contracts/KIP/token/KIP7/KIP7.sol\":7022:7030  _approve */\n      tag_94\n        /* \"@klaytn/contracts/contracts/KIP/token/KIP7/KIP7.sol\":7022:7082  _approve(owner, spender, currentAllowance - subtractedValue) */\n      jump\t// in\n    tag_130:\n        /* \"@klaytn/contracts/contracts/KIP/token/KIP7/KIP7.sol\":7110:7114  true */\n      0x01\n        /* \"@klaytn/contracts/contracts/KIP/token/KIP7/KIP7.sol\":7103:7114  return true */\n      swap3\n      pop\n      pop\n      pop\n        /* \"@klaytn/contracts/contracts/KIP/token/KIP7/KIP7.sol\":6695:7121  function decreaseAllowance(address spender, uint256 subtractedValue) public virtual returns (bool) {... */\n      swap3\n      swap2\n      pop\n      pop\n      jump\t// out\n        /* \"@klaytn/contracts/contracts/KIP/token/KIP7/KIP7.sol\":3836:4025  function transfer(address to, uint256 amount) public virtual override returns (bool) {... */\n    tag_68:\n        /* \"@klaytn/contracts/contracts/KIP/token/KIP7/KIP7.sol\":3915:3919  bool */\n      0x00\n        /* \"@klaytn/contracts/contracts/KIP/token/KIP7/KIP7.sol\":3931:3944  address owner */\n      dup1\n        /* \"@klaytn/contracts/contracts/KIP/token/KIP7/KIP7.sol\":3947:3959  _msgSender() */\n      tag_132\n        /* \"@klaytn/contracts/contracts/KIP/token/KIP7/KIP7.sol\":3947:3957  _msgSender */\n      tag_92\n        /* \"@klaytn/contracts/contracts/KIP/token/KIP7/KIP7.sol\":3947:3959  _msgSender() */\n      jump\t// in\n    tag_132:\n        /* \"@klaytn/contracts/contracts/KIP/token/KIP7/KIP7.sol\":3931:3959  address owner = _msgSender() */\n      swap1\n      pop\n        /* \"@klaytn/contracts/contracts/KIP/token/KIP7/KIP7.sol\":3969:3997  _transfer(owner, to, amount) */\n      tag_133\n        /* \"@klaytn/contracts/contracts/KIP/token/KIP7/KIP7.sol\":3979:3984  owner */\n      dup2\n        /* \"@klaytn/contracts/contracts/KIP/token/KIP7/KIP7.sol\":3986:3988  to */\n      dup6\n        /* \"@klaytn/contracts/contracts/KIP/token/KIP7/KIP7.sol\":3990:3996  amount */\n      dup6\n        /* \"@klaytn/contracts/contracts/KIP/token/KIP7/KIP7.sol\":3969:3978  _transfer */\n      tag_101\n        /* \"@klaytn/contracts/contracts/KIP/token/KIP7/KIP7.sol\":3969:3997  _transfer(owner, to, amount) */\n      jump\t// in\n    tag_133:\n        /* \"@klaytn/contracts/contracts/KIP/token/KIP7/KIP7.sol\":4014:4018  true */\n      0x01\n        /* \"@klaytn/contracts/contracts/KIP/token/KIP7/KIP7.sol\":4007:4018  return true */\n      swap2\n      pop\n      pop\n        /* \"@klaytn/contracts/contracts/KIP/token/KIP7/KIP7.sol\":3836:4025  function transfer(address to, uint256 amount) public virtual override returns (bool) {... */\n      swap3\n      swap2\n      pop\n      pop\n      jump\t// out\n        /* \"@klaytn/contracts/contracts/KIP/token/KIP7/KIP7.sol\":9429:9741  function safeTransferFrom(... */\n    tag_73:\n        /* \"@klaytn/contracts/contracts/KIP/token/KIP7/KIP7.sol\":9597:9612  address spender */\n      0x00\n        /* \"@klaytn/contracts/contracts/KIP/token/KIP7/KIP7.sol\":9615:9627  _msgSender() */\n      tag_135\n        /* \"@klaytn/contracts/contracts/KIP/token/KIP7/KIP7.sol\":9615:9625  _msgSender */\n      tag_92\n        /* \"@klaytn/contracts/contracts/KIP/token/KIP7/KIP7.sol\":9615:9627  _msgSender() */\n      jump\t// in\n    tag_135:\n        /* \"@klaytn/contracts/contracts/KIP/token/KIP7/KIP7.sol\":9597:9627  address spender = _msgSender() */\n      swap1\n      pop\n        /* \"@klaytn/contracts/contracts/KIP/token/KIP7/KIP7.sol\":9637:9677  _spendAllowance(sender, spender, amount) */\n      tag_136\n        /* \"@klaytn/contracts/contracts/KIP/token/KIP7/KIP7.sol\":9653:9659  sender */\n      dup6\n        /* \"@klaytn/contracts/contracts/KIP/token/KIP7/KIP7.sol\":9661:9668  spender */\n      dup3\n        /* \"@klaytn/contracts/contracts/KIP/token/KIP7/KIP7.sol\":9670:9676  amount */\n      dup6\n        /* \"@klaytn/contracts/contracts/KIP/token/KIP7/KIP7.sol\":9637:9652  _spendAllowance */\n      tag_99\n        /* \"@klaytn/contracts/contracts/KIP/token/KIP7/KIP7.sol\":9637:9677  _spendAllowance(sender, spender, amount) */\n      jump\t// in\n    tag_136:\n        /* \"@klaytn/contracts/contracts/KIP/token/KIP7/KIP7.sol\":9687:9734  _safeTransfer(sender, recipient, amount, _data) */\n      tag_137\n        /* \"@klaytn/contracts/contracts/KIP/token/KIP7/KIP7.sol\":9701:9707  sender */\n      dup6\n        /* \"@klaytn/contracts/contracts/KIP/token/KIP7/KIP7.sol\":9709:9718  recipient */\n      dup6\n        /* \"@klaytn/contracts/contracts/KIP/token/KIP7/KIP7.sol\":9720:9726  amount */\n      dup6\n        /* \"@klaytn/contracts/contracts/KIP/token/KIP7/KIP7.sol\":9728:9733  _data */\n      dup6\n        /* \"@klaytn/contracts/contracts/KIP/token/KIP7/KIP7.sol\":9687:9700  _safeTransfer */\n      tag_112\n        /* \"@klaytn/contracts/contracts/KIP/token/KIP7/KIP7.sol\":9687:9734  _safeTransfer(sender, recipient, amount, _data) */\n      jump\t// in\n    tag_137:\n        /* \"@klaytn/contracts/contracts/KIP/token/KIP7/KIP7.sol\":9587:9741  {... */\n      pop\n        /* \"@klaytn/contracts/contracts/KIP/token/KIP7/KIP7.sol\":9429:9741  function safeTransferFrom(... */\n      pop\n      pop\n      pop\n      pop\n      jump\t// out\n        /* \"@klaytn/contracts/contracts/KIP/token/KIP7/KIP7.sol\":4082:4231  function allowance(address owner, address spender) public view virtual override returns (uint256) {... */\n    tag_77:\n        /* \"@klaytn/contracts/contracts/KIP/token/KIP7/KIP7.sol\":4171:4178  uint256 */\n      0x00\n        /* \"@klaytn/contracts/contracts/KIP/token/KIP7/KIP7.sol\":4197:4208  _allowances */\n      0x01\n        /* \"@klaytn/contracts/contracts/KIP/token/KIP7/KIP7.sol\":4197:4215  _allowances[owner] */\n      0x00\n        /* \"@klaytn/contracts/contracts/KIP/token/KIP7/KIP7.sol\":4209:4214  owner */\n      dup5\n        /* \"@klaytn/contracts/contracts/KIP/token/KIP7/KIP7.sol\":4197:4215  _allowances[owner] */\n      0xffffffffffffffffffffffffffffffffffffffff\n      and\n      0xffffffffffffffffffffffffffffffffffffffff\n      and\n      dup2\n      mstore\n      0x20\n      add\n      swap1\n      dup2\n      mstore\n      0x20\n      add\n      0x00\n      keccak256\n        /* \"@klaytn/contracts/contracts/KIP/token/KIP7/KIP7.sol\":4197:4224  _allowances[owner][spender] */\n      0x00\n        /* \"@klaytn/contracts/contracts/KIP/token/KIP7/KIP7.sol\":4216:4223  spender */\n      dup4\n        /* \"@klaytn/contracts/contracts/KIP/token/KIP7/KIP7.sol\":4197:4224  _allowances[owner][spender] */\n      0xffffffffffffffffffffffffffffffffffffffff\n      and\n      0xffffffffffffffffffffffffffffffffffffffff\n      and\n      dup2\n      mstore\n      0x20\n      add\n      swap1\n      dup2\n      mstore\n      0x20\n      add\n      0x00\n      keccak256\n      sload\n        /* \"@klaytn/contracts/contracts/KIP/token/KIP7/KIP7.sol\":4190:4224  return _allowances[owner][spender] */\n      swap1\n      pop\n        /* \"@klaytn/contracts/contracts/KIP/token/KIP7/KIP7.sol\":4082:4231  function allowance(address owner, address spender) public view virtual override returns (uint256) {... */\n      swap3\n      swap2\n      pop\n      pop\n      jump\t// out\n        /* \"@klaytn/contracts/contracts/KIP/token/KIP7/KIP7.sol\":7884:8115  function safeTransfer(... */\n    tag_82:\n        /* \"@klaytn/contracts/contracts/KIP/token/KIP7/KIP7.sol\":8024:8037  address owner */\n      0x00\n        /* \"@klaytn/contracts/contracts/KIP/token/KIP7/KIP7.sol\":8040:8052  _msgSender() */\n      tag_140\n        /* \"@klaytn/contracts/contracts/KIP/token/KIP7/KIP7.sol\":8040:8050  _msgSender */\n      tag_92\n        /* \"@klaytn/contracts/contracts/KIP/token/KIP7/KIP7.sol\":8040:8052  _msgSender() */\n      jump\t// in\n    tag_140:\n        /* \"@klaytn/contracts/contracts/KIP/token/KIP7/KIP7.sol\":8024:8052  address owner = _msgSender() */\n      swap1\n      pop\n        /* \"@klaytn/contracts/contracts/KIP/token/KIP7/KIP7.sol\":8062:8108  _safeTransfer(owner, recipient, amount, _data) */\n      tag_141\n        /* \"@klaytn/contracts/contracts/KIP/token/KIP7/KIP7.sol\":8076:8081  owner */\n      dup2\n        /* \"@klaytn/contracts/contracts/KIP/token/KIP7/KIP7.sol\":8083:8092  recipient */\n      dup6\n        /* \"@klaytn/contracts/contracts/KIP/token/KIP7/KIP7.sol\":8094:8100  amount */\n      dup6\n        /* \"@klaytn/contracts/contracts/KIP/token/KIP7/KIP7.sol\":8102:8107  _data */\n      dup6\n        /* \"@klaytn/contracts/contracts/KIP/token/KIP7/KIP7.sol\":8062:8075  _safeTransfer */\n      tag_112\n        /* \"@klaytn/contracts/contracts/KIP/token/KIP7/KIP7.sol\":8062:8108  _safeTransfer(owner, recipient, amount, _data) */\n      jump\t// in\n    tag_141:\n        /* \"@klaytn/contracts/contracts/KIP/token/KIP7/KIP7.sol\":8014:8115  {... */\n      pop\n        /* \"@klaytn/contracts/contracts/KIP/token/KIP7/KIP7.sol\":7884:8115  function safeTransfer(... */\n      pop\n      pop\n      pop\n      jump\t// out\n        /* \"@klaytn/contracts/contracts/utils/Context.sol\":640:736  function _msgSender() internal view virtual returns (address) {... */\n    tag_92:\n        /* \"@klaytn/contracts/contracts/utils/Context.sol\":693:700  address */\n      0x00\n        /* \"@klaytn/contracts/contracts/utils/Context.sol\":719:729  msg.sender */\n      caller\n        /* \"@klaytn/contracts/contracts/utils/Context.sol\":712:729  return msg.sender */\n      swap1\n      pop\n        /* \"@klaytn/contracts/contracts/utils/Context.sol\":640:736  function _msgSender() internal view virtual returns (address) {... */\n      swap1\n      jump\t// out\n        /* \"@klaytn/contracts/contracts/KIP/token/KIP7/KIP7.sol\":16315:16683  function _approve(... */\n    tag_94:\n        /* \"@klaytn/contracts/contracts/KIP/token/KIP7/KIP7.sol\":16463:16464  0 */\n      0x00\n        /* \"@klaytn/contracts/contracts/KIP/token/KIP7/KIP7.sol\":16446:16465  owner != address(0) */\n      0xffffffffffffffffffffffffffffffffffffffff\n      and\n        /* \"@klaytn/contracts/contracts/KIP/token/KIP7/KIP7.sol\":16446:16451  owner */\n      dup4\n        /* \"@klaytn/contracts/contracts/KIP/token/KIP7/KIP7.sol\":16446:16465  owner != address(0) */\n      0xffffffffffffffffffffffffffffffffffffffff\n      and\n      sub\n        /* \"@klaytn/contracts/contracts/KIP/token/KIP7/KIP7.sol\":16438:16505  require(owner != address(0), \"KIP7: approve from the zero address\") */\n      tag_144\n      jumpi\n      mload(0x40)\n      0x08c379a000000000000000000000000000000000000000000000000000000000\n      dup2\n      mstore\n      0x04\n      add\n      tag_145\n      swap1\n      tag_146\n      jump\t// in\n    tag_145:\n      mload(0x40)\n      dup1\n      swap2\n      sub\n      swap1\n      revert\n    tag_144:\n        /* \"@klaytn/contracts/contracts/KIP/token/KIP7/KIP7.sol\":16542:16543  0 */\n      0x00\n        /* \"@klaytn/contracts/contracts/KIP/token/KIP7/KIP7.sol\":16523:16544  spender != address(0) */\n      0xffffffffffffffffffffffffffffffffffffffff\n      and\n        /* \"@klaytn/contracts/contracts/KIP/token/KIP7/KIP7.sol\":16523:16530  spender */\n      dup3\n        /* \"@klaytn/contracts/contracts/KIP/token/KIP7/KIP7.sol\":16523:16544  spender != address(0) */\n      0xffffffffffffffffffffffffffffffffffffffff\n      and\n      sub\n        /* \"@klaytn/contracts/contracts/KIP/token/KIP7/KIP7.sol\":16515:16582  require(spender != address(0), \"KIP7: approve to the zero address\") */\n      tag_147\n      jumpi\n      mload(0x40)\n      0x08c379a000000000000000000000000000000000000000000000000000000000\n      dup2\n      mstore\n      0x04\n      add\n      tag_148\n      swap1\n      tag_149\n      jump\t// in\n    tag_148:\n      mload(0x40)\n      dup1\n      swap2\n      sub\n      swap1\n      revert\n    tag_147:\n        /* \"@klaytn/contracts/contracts/KIP/token/KIP7/KIP7.sol\":16623:16629  amount */\n      dup1\n        /* \"@klaytn/contracts/contracts/KIP/token/KIP7/KIP7.sol\":16593:16604  _allowances */\n      0x01\n        /* \"@klaytn/contracts/contracts/KIP/token/KIP7/KIP7.sol\":16593:16611  _allowances[owner] */\n      0x00\n        /* \"@klaytn/contracts/contracts/KIP/token/KIP7/KIP7.sol\":16605:16610  owner */\n      dup6\n        /* \"@klaytn/contracts/contracts/KIP/token/KIP7/KIP7.sol\":16593:16611  _allowances[owner] */\n      0xffffffffffffffffffffffffffffffffffffffff\n      and\n      0xffffffffffffffffffffffffffffffffffffffff\n      and\n      dup2\n      mstore\n      0x20\n      add\n      swap1\n      dup2\n      mstore\n      0x20\n      add\n      0x00\n      keccak256\n        /* \"@klaytn/contracts/contracts/KIP/token/KIP7/KIP7.sol\":16593:16620  _allowances[owner][spender] */\n      0x00\n        /* \"@klaytn/contracts/contracts/KIP/token/KIP7/KIP7.sol\":16612:16619  spender */\n      dup5\n        /* \"@klaytn/contracts/contracts/KIP/token/KIP7/KIP7.sol\":16593:16620  _allowances[owner][spender] */\n      0xffffffffffffffffffffffffffffffffffffffff\n      and\n      0xffffffffffffffffffffffffffffffffffffffff\n      and\n      dup2\n      mstore\n      0x20\n      add\n      swap1\n      dup2\n      mstore\n      0x20\n      add\n      0x00\n      keccak256\n        /* \"@klaytn/contracts/contracts/KIP/token/KIP7/KIP7.sol\":16593:16629  _allowances[owner][spender] = amount */\n      dup2\n      swap1\n      sstore\n      pop\n        /* \"@klaytn/contracts/contracts/KIP/token/KIP7/KIP7.sol\":16660:16667  spender */\n      dup2\n        /* \"@klaytn/contracts/contracts/KIP/token/KIP7/KIP7.sol\":16644:16676  Approval(owner, spender, amount) */\n      0xffffffffffffffffffffffffffffffffffffffff\n      and\n        /* \"@klaytn/contracts/contracts/KIP/token/KIP7/KIP7.sol\":16653:16658  owner */\n      dup4\n        /* \"@klaytn/contracts/contracts/KIP/token/KIP7/KIP7.sol\":16644:16676  Approval(owner, spender, amount) */\n      0xffffffffffffffffffffffffffffffffffffffff\n      and\n      0x8c5be1e5ebec7d5bd14f71427d1e84f3dd0314c0f7b2291e5b200ac8c7c3b925\n        /* \"@klaytn/contracts/contracts/KIP/token/KIP7/KIP7.sol\":16669:16675  amount */\n      dup4\n        /* \"@klaytn/contracts/contracts/KIP/token/KIP7/KIP7.sol\":16644:16676  Approval(owner, spender, amount) */\n      mload(0x40)\n      tag_150\n      swap2\n      swap1\n      tag_34\n      jump\t// in\n    tag_150:\n      mload(0x40)\n      dup1\n      swap2\n      sub\n      swap1\n      log3\n        /* \"@klaytn/contracts/contracts/KIP/token/KIP7/KIP7.sol\":16315:16683  function _approve(... */\n      pop\n      pop\n      pop\n      jump\t// out\n        /* \"@klaytn/contracts/contracts/KIP/token/KIP7/KIP7.sol\":16964:17404  function _spendAllowance(... */\n    tag_99:\n        /* \"@klaytn/contracts/contracts/KIP/token/KIP7/KIP7.sol\":17094:17118  uint256 currentAllowance */\n      0x00\n        /* \"@klaytn/contracts/contracts/KIP/token/KIP7/KIP7.sol\":17121:17146  allowance(owner, spender) */\n      tag_152\n        /* \"@klaytn/contracts/contracts/KIP/token/KIP7/KIP7.sol\":17131:17136  owner */\n      dup5\n        /* \"@klaytn/contracts/contracts/KIP/token/KIP7/KIP7.sol\":17138:17145  spender */\n      dup5\n        /* \"@klaytn/contracts/contracts/KIP/token/KIP7/KIP7.sol\":17121:17130  allowance */\n      tag_77\n        /* \"@klaytn/contracts/contracts/KIP/token/KIP7/KIP7.sol\":17121:17146  allowance(owner, spender) */\n      jump\t// in\n    tag_152:\n        /* \"@klaytn/contracts/contracts/KIP/token/KIP7/KIP7.sol\":17094:17146  uint256 currentAllowance = allowance(owner, spender) */\n      swap1\n      pop\n        /* \"@klaytn/contracts/contracts/KIP/token/KIP7/KIP7.sol\":17180:17197  type(uint256).max */\n      0xffffffffffffffffffffffffffffffffffffffffffffffffffffffffffffffff\n        /* \"@klaytn/contracts/contracts/KIP/token/KIP7/KIP7.sol\":17160:17176  currentAllowance */\n      dup2\n        /* \"@klaytn/contracts/contracts/KIP/token/KIP7/KIP7.sol\":17160:17197  currentAllowance != type(uint256).max */\n      eq\n        /* \"@klaytn/contracts/contracts/KIP/token/KIP7/KIP7.sol\":17156:17398  if (currentAllowance != type(uint256).max) {... */\n      tag_153\n      jumpi\n        /* \"@klaytn/contracts/contracts/KIP/token/KIP7/KIP7.sol\":17241:17247  amount */\n      dup2\n        /* \"@klaytn/contracts/contracts/KIP/token/KIP7/KIP7.sol\":17221:17237  currentAllowance */\n      dup2\n        /* \"@klaytn/contracts/contracts/KIP/token/KIP7/KIP7.sol\":17221:17247  currentAllowance >= amount */\n      lt\n      iszero\n        /* \"@klaytn/contracts/contracts/KIP/token/KIP7/KIP7.sol\":17213:17280  require(currentAllowance >= amount, \"KIP7: insufficient allowance\") */\n      tag_154\n      jumpi\n      mload(0x40)\n      0x08c379a000000000000000000000000000000000000000000000000000000000\n      dup2\n      mstore\n      0x04\n      add\n      tag_155\n      swap1\n      tag_156\n      jump\t// in\n    tag_155:\n      mload(0x40)\n      dup1\n      swap2\n      sub\n      swap1\n      revert\n    tag_154:\n        /* \"@klaytn/contracts/contracts/KIP/token/KIP7/KIP7.sol\":17322:17373  _approve(owner, spender, currentAllowance - amount) */\n      tag_157\n        /* \"@klaytn/contracts/contracts/KIP/token/KIP7/KIP7.sol\":17331:17336  owner */\n      dup5\n        /* \"@klaytn/contracts/contracts/KIP/token/KIP7/KIP7.sol\":17338:17345  spender */\n      dup5\n        /* \"@klaytn/contracts/contracts/KIP/token/KIP7/KIP7.sol\":17366:17372  amount */\n      dup5\n        /* \"@klaytn/contracts/contracts/KIP/token/KIP7/KIP7.sol\":17347:17363  currentAllowance */\n      dup5\n        /* \"@klaytn/contracts/contracts/KIP/token/KIP7/KIP7.sol\":17347:17372  currentAllowance - amount */\n      sub\n        /* \"@klaytn/contracts/contracts/KIP/token/KIP7/KIP7.sol\":17322:17330  _approve */\n      tag_94\n        /* \"@klaytn/contracts/contracts/KIP/token/KIP7/KIP7.sol\":17322:17373  _approve(owner, spender, currentAllowance - amount) */\n      jump\t// in\n    tag_157:\n        /* \"@klaytn/contracts/contracts/KIP/token/KIP7/KIP7.sol\":17156:17398  if (currentAllowance != type(uint256).max) {... */\n    tag_153:\n        /* \"@klaytn/contracts/contracts/KIP/token/KIP7/KIP7.sol\":17084:17404  {... */\n      pop\n        /* \"@klaytn/contracts/contracts/KIP/token/KIP7/KIP7.sol\":16964:17404  function _spendAllowance(... */\n      pop\n      pop\n      pop\n      jump\t// out\n        /* \"@klaytn/contracts/contracts/KIP/token/KIP7/KIP7.sol\":11287:11935  function _transfer(... */\n    tag_101:\n        /* \"@klaytn/contracts/contracts/KIP/token/KIP7/KIP7.sol\":11429:11430  0 */\n      0x00\n        /* \"@klaytn/contracts/contracts/KIP/token/KIP7/KIP7.sol\":11413:11431  from != address(0) */\n      0xffffffffffffffffffffffffffffffffffffffff\n      and\n        /* \"@klaytn/contracts/contracts/KIP/token/KIP7/KIP7.sol\":11413:11417  from */\n      dup4\n        /* \"@klaytn/contracts/contracts/KIP/token/KIP7/KIP7.sol\":11413:11431  from != address(0) */\n      0xffffffffffffffffffffffffffffffffffffffff\n      and\n      sub\n        /* \"@klaytn/contracts/contracts/KIP/token/KIP7/KIP7.sol\":11405:11472  require(from != address(0), \"KIP7: transfer from the zero address\") */\n      tag_159\n      jumpi\n      mload(0x40)\n      0x08c379a000000000000000000000000000000000000000000000000000000000\n      dup2\n      mstore\n      0x04\n      add\n      tag_160\n      swap1\n      tag_161\n      jump\t// in\n    tag_160:\n      mload(0x40)\n      dup1\n      swap2\n      sub\n      swap1\n      revert\n    tag_159:\n        /* \"@klaytn/contracts/contracts/KIP/token/KIP7/KIP7.sol\":11504:11505  0 */\n      0x00\n        /* \"@klaytn/contracts/contracts/KIP/token/KIP7/KIP7.sol\":11490:11506  to != address(0) */\n      0xffffffffffffffffffffffffffffffffffffffff\n      and\n        /* \"@klaytn/contracts/contracts/KIP/token/KIP7/KIP7.sol\":11490:11492  to */\n      dup3\n        /* \"@klaytn/contracts/contracts/KIP/token/KIP7/KIP7.sol\":11490:11506  to != address(0) */\n      0xffffffffffffffffffffffffffffffffffffffff\n      and\n      sub\n        /* \"@klaytn/contracts/contracts/KIP/token/KIP7/KIP7.sol\":11482:11545  require(to != address(0), \"KIP7: transfer to the zero address\") */\n      tag_162\n      jumpi\n      mload(0x40)\n      0x08c379a000000000000000000000000000000000000000000000000000000000\n      dup2\n      mstore\n      0x04\n      add\n      tag_163\n      swap1\n      tag_164\n      jump\t// in\n    tag_163:\n      mload(0x40)\n      dup1\n      swap2\n      sub\n      swap1\n      revert\n    tag_162:\n        /* \"@klaytn/contracts/contracts/KIP/token/KIP7/KIP7.sol\":11556:11594  _beforeTokenTransfer(from, to, amount) */\n      tag_165\n        /* \"@klaytn/contracts/contracts/KIP/token/KIP7/KIP7.sol\":11577:11581  from */\n      dup4\n        /* \"@klaytn/contracts/contracts/KIP/token/KIP7/KIP7.sol\":11583:11585  to */\n      dup4\n        /* \"@klaytn/contracts/contracts/KIP/token/KIP7/KIP7.sol\":11587:11593  amount */\n      dup4\n        /* \"@klaytn/contracts/contracts/KIP/token/KIP7/KIP7.sol\":11556:11576  _beforeTokenTransfer */\n      tag_166\n        /* \"@klaytn/contracts/contracts/KIP/token/KIP7/KIP7.sol\":11556:11594  _beforeTokenTransfer(from, to, amount) */\n      jump\t// in\n    tag_165:\n        /* \"@klaytn/contracts/contracts/KIP/token/KIP7/KIP7.sol\":11605:11624  uint256 fromBalance */\n      0x00\n        /* \"@klaytn/contracts/contracts/KIP/token/KIP7/KIP7.sol\":11627:11636  _balances */\n      dup1\n        /* \"@klaytn/contracts/contracts/KIP/token/KIP7/KIP7.sol\":11627:11642  _balances[from] */\n      0x00\n        /* \"@klaytn/contracts/contracts/KIP/token/KIP7/KIP7.sol\":11637:11641  from */\n      dup6\n        /* \"@klaytn/contracts/contracts/KIP/token/KIP7/KIP7.sol\":11627:11642  _balances[from] */\n      0xffffffffffffffffffffffffffffffffffffffff\n      and\n      0xffffffffffffffffffffffffffffffffffffffff\n      and\n      dup2\n      mstore\n      0x20\n      add\n      swap1\n      dup2\n      mstore\n      0x20\n      add\n      0x00\n      keccak256\n      sload\n        /* \"@klaytn/contracts/contracts/KIP/token/KIP7/KIP7.sol\":11605:11642  uint256 fromBalance = _balances[from] */\n      swap1\n      pop\n        /* \"@klaytn/contracts/contracts/KIP/token/KIP7/KIP7.sol\":11675:11681  amount */\n      dup2\n        /* \"@klaytn/contracts/contracts/KIP/token/KIP7/KIP7.sol\":11660:11671  fromBalance */\n      dup2\n        /* \"@klaytn/contracts/contracts/KIP/token/KIP7/KIP7.sol\":11660:11681  fromBalance >= amount */\n      lt\n      iszero\n        /* \"@klaytn/contracts/contracts/KIP/token/KIP7/KIP7.sol\":11652:11723  require(fromBalance >= amount, \"KIP7: transfer amount exceeds balance\") */\n      tag_167\n      jumpi\n      mload(0x40)\n      0x08c379a000000000000000000000000000000000000000000000000000000000\n      dup2\n      mstore\n      0x04\n      add\n      tag_168\n      swap1\n      tag_169\n      jump\t// in\n    tag_168:\n      mload(0x40)\n      dup1\n      swap2\n      sub\n      swap1\n      revert\n    tag_167:\n        /* \"@klaytn/contracts/contracts/KIP/token/KIP7/KIP7.sol\":11789:11795  amount */\n      dup2\n        /* \"@klaytn/contracts/contracts/KIP/token/KIP7/KIP7.sol\":11775:11786  fromBalance */\n      dup2\n        /* \"@klaytn/contracts/contracts/KIP/token/KIP7/KIP7.sol\":11775:11795  fromBalance - amount */\n      sub\n        /* \"@klaytn/contracts/contracts/KIP/token/KIP7/KIP7.sol\":11757:11766  _balances */\n      0x00\n        /* \"@klaytn/contracts/contracts/KIP/token/KIP7/KIP7.sol\":11757:11772  _balances[from] */\n      dup1\n        /* \"@klaytn/contracts/contracts/KIP/token/KIP7/KIP7.sol\":11767:11771  from */\n      dup7\n        /* \"@klaytn/contracts/contracts/KIP/token/KIP7/KIP7.sol\":11757:11772  _balances[from] */\n      0xffffffffffffffffffffffffffffffffffffffff\n      and\n      0xffffffffffffffffffffffffffffffffffffffff\n      and\n      dup2\n      mstore\n      0x20\n      add\n      swap1\n      dup2\n      mstore\n      0x20\n      add\n      0x00\n      keccak256\n        /* \"@klaytn/contracts/contracts/KIP/token/KIP7/KIP7.sol\":11757:11795  _balances[from] = fromBalance - amount */\n      dup2\n      swap1\n      sstore\n      pop\n        /* \"@klaytn/contracts/contracts/KIP/token/KIP7/KIP7.sol\":11832:11838  amount */\n      dup2\n        /* \"@klaytn/contracts/contracts/KIP/token/KIP7/KIP7.sol\":11815:11824  _balances */\n      0x00\n        /* \"@klaytn/contracts/contracts/KIP/token/KIP7/KIP7.sol\":11815:11828  _balances[to] */\n      dup1\n        /* \"@klaytn/contracts/contracts/KIP/token/KIP7/KIP7.sol\":11825:11827  to */\n      dup6\n        /* \"@klaytn/contracts/contracts/KIP/token/KIP7/KIP7.sol\":11815:11828  _balances[to] */\n      0xffffffffffffffffffffffffffffffffffffffff\n      and\n      0xffffffffffffffffffffffffffffffffffffffff\n      and\n      dup2\n      mstore\n      0x20\n      add\n      swap1\n      dup2\n      mstore\n      0x20\n      add\n      0x00\n      keccak256\n      0x00\n        /* \"@klaytn/contracts/contracts/KIP/token/KIP7/KIP7.sol\":11815:11838  _balances[to] += amount */\n      dup3\n      dup3\n      sload\n      tag_170\n      swap2\n      swap1\n      tag_108\n      jump\t// in\n    tag_170:\n      swap3\n      pop\n      pop\n      dup2\n      swap1\n      sstore\n      pop\n        /* \"@klaytn/contracts/contracts/KIP/token/KIP7/KIP7.sol\":11869:11871  to */\n      dup3\n        /* \"@klaytn/contracts/contracts/KIP/token/KIP7/KIP7.sol\":11854:11880  Transfer(from, to, amount) */\n      0xffffffffffffffffffffffffffffffffffffffff\n      and\n        /* \"@klaytn/contracts/contracts/KIP/token/KIP7/KIP7.sol\":11863:11867  from */\n      dup5\n        /* \"@klaytn/contracts/contracts/KIP/token/KIP7/KIP7.sol\":11854:11880  Transfer(from, to, amount) */\n      0xffffffffffffffffffffffffffffffffffffffff\n      and\n      0xddf252ad1be2c89b69c2b068fc378daa952ba7f163c4a11628f55a4df523b3ef\n        /* \"@klaytn/contracts/contracts/KIP/token/KIP7/KIP7.sol\":11873:11879  amount */\n      dup5\n        /* \"@klaytn/contracts/contracts/KIP/token/KIP7/KIP7.sol\":11854:11880  Transfer(from, to, amount) */\n      mload(0x40)\n      tag_171\n      swap2\n      swap1\n      tag_34\n      jump\t// in\n    tag_171:\n      mload(0x40)\n      dup1\n      swap2\n      sub\n      swap1\n      log3\n        /* \"@klaytn/contracts/contracts/KIP/token/KIP7/KIP7.sol\":11891:11928  _afterTokenTransfer(from, to, amount) */\n      tag_172\n        /* \"@klaytn/contracts/contracts/KIP/token/KIP7/KIP7.sol\":11911:11915  from */\n      dup5\n        /* \"@klaytn/contracts/contracts/KIP/token/KIP7/KIP7.sol\":11917:11919  to */\n      dup5\n        /* \"@klaytn/contracts/contracts/KIP/token/KIP7/KIP7.sol\":11921:11927  amount */\n      dup5\n        /* \"@klaytn/contracts/contracts/KIP/token/KIP7/KIP7.sol\":11891:11910  _afterTokenTransfer */\n      tag_173\n        /* \"@klaytn/contracts/contracts/KIP/token/KIP7/KIP7.sol\":11891:11928  _afterTokenTransfer(from, to, amount) */\n      jump\t// in\n    tag_172:\n        /* \"@klaytn/contracts/contracts/KIP/token/KIP7/KIP7.sol\":11395:11935  {... */\n      pop\n        /* \"@klaytn/contracts/contracts/KIP/token/KIP7/KIP7.sol\":11287:11935  function _transfer(... */\n      pop\n      pop\n      pop\n      jump\t// out\n        /* \"@klaytn/contracts/contracts/KIP/token/KIP7/KIP7.sol\":10526:10824  function _safeTransfer(... */\n    tag_112:\n        /* \"@klaytn/contracts/contracts/KIP/token/KIP7/KIP7.sol\":10675:10702  _transfer(from, to, amount) */\n      tag_175\n        /* \"@klaytn/contracts/contracts/KIP/token/KIP7/KIP7.sol\":10685:10689  from */\n      dup5\n        /* \"@klaytn/contracts/contracts/KIP/token/KIP7/KIP7.sol\":10691:10693  to */\n      dup5\n        /* \"@klaytn/contracts/contracts/KIP/token/KIP7/KIP7.sol\":10695:10701  amount */\n      dup5\n        /* \"@klaytn/contracts/contracts/KIP/token/KIP7/KIP7.sol\":10675:10684  _transfer */\n      tag_101\n        /* \"@klaytn/contracts/contracts/KIP/token/KIP7/KIP7.sol\":10675:10702  _transfer(from, to, amount) */\n      jump\t// in\n    tag_175:\n        /* \"@klaytn/contracts/contracts/KIP/token/KIP7/KIP7.sol\":10720:10765  _checkOnKIP7Received(from, to, amount, _data) */\n      tag_176\n        /* \"@klaytn/contracts/contracts/KIP/token/KIP7/KIP7.sol\":10741:10745  from */\n      dup5\n        /* \"@klaytn/contracts/contracts/KIP/token/KIP7/KIP7.sol\":10747:10749  to */\n      dup5\n        /* \"@klaytn/contracts/contracts/KIP/token/KIP7/KIP7.sol\":10751:10757  amount */\n      dup5\n        /* \"@klaytn/contracts/contracts/KIP/token/KIP7/KIP7.sol\":10759:10764  _data */\n      dup5\n        /* \"@klaytn/contracts/contracts/KIP/token/KIP7/KIP7.sol\":10720:10740  _checkOnKIP7Received */\n      tag_177\n        /* \"@klaytn/contracts/contracts/KIP/token/KIP7/KIP7.sol\":10720:10765  _checkOnKIP7Received(from, to, amount, _data) */\n      jump\t// in\n    tag_176:\n        /* \"@klaytn/contracts/contracts/KIP/token/KIP7/KIP7.sol\":10712:10817  require(_checkOnKIP7Received(from, to, amount, _data), \"KIP7: transfer to non IKIP7Receiver implementer\") */\n      tag_178\n      jumpi\n      mload(0x40)\n      0x08c379a000000000000000000000000000000000000000000000000000000000\n      dup2\n      mstore\n      0x04\n      add\n      tag_179\n      swap1\n      tag_180\n      jump\t// in\n    tag_179:\n      mload(0x40)\n      dup1\n      swap2\n      sub\n      swap1\n      revert\n    tag_178:\n        /* \"@klaytn/contracts/contracts/KIP/token/KIP7/KIP7.sol\":10526:10824  function _safeTransfer(... */\n      pop\n      pop\n      pop\n      pop\n      jump\t// out\n        /* \"@klaytn/contracts/contracts/KIP/token/KIP7/KIP7.sol\":17988:18109  function _beforeTokenTransfer(... */\n    tag_166:\n      pop\n      pop\n      pop\n      jump\t// out\n        /* \"@klaytn/contracts/contracts/KIP/token/KIP7/KIP7.sol\":18697:18817  function _afterTokenTransfer(... */\n    tag_173:\n      pop\n      pop\n      pop\n      jump\t// out\n        /* \"@klaytn/contracts/contracts/KIP/token/KIP7/KIP7.sol\":14236:14998  function _checkOnKIP7Received(... */\n    tag_177:\n        /* \"@klaytn/contracts/contracts/KIP/token/KIP7/KIP7.sol\":14383:14387  bool */\n      0x00\n        /* \"@klaytn/contracts/contracts/KIP/token/KIP7/KIP7.sol\":14403:14418  to.isContract() */\n      tag_184\n        /* \"@klaytn/contracts/contracts/KIP/token/KIP7/KIP7.sol\":14403:14405  to */\n      dup5\n        /* \"@klaytn/contracts/contracts/KIP/token/KIP7/KIP7.sol\":14403:14416  to.isContract */\n      0xffffffffffffffffffffffffffffffffffffffff\n      and\n      tag_185\n        /* \"@klaytn/contracts/contracts/KIP/token/KIP7/KIP7.sol\":14403:14418  to.isContract() */\n      jump\t// in\n    tag_184:\n        /* \"@klaytn/contracts/contracts/KIP/token/KIP7/KIP7.sol\":14399:14992  if (to.isContract()) {... */\n      iszero\n      tag_186\n      jumpi\n        /* \"@klaytn/contracts/contracts/KIP/token/KIP7/KIP7.sol\":14452:14454  to */\n      dup4\n        /* \"@klaytn/contracts/contracts/KIP/token/KIP7/KIP7.sol\":14438:14470  IKIP7Receiver(to).onKIP7Received */\n      0xffffffffffffffffffffffffffffffffffffffff\n      and\n      0x9d188c22\n        /* \"@klaytn/contracts/contracts/KIP/token/KIP7/KIP7.sol\":14471:14483  _msgSender() */\n      tag_187\n        /* \"@klaytn/contracts/contracts/KIP/token/KIP7/KIP7.sol\":14471:14481  _msgSender */\n      tag_92\n        /* \"@klaytn/contracts/contracts/KIP/token/KIP7/KIP7.sol\":14471:14483  _msgSender() */\n      jump\t// in\n    tag_187:\n        /* \"@klaytn/contracts/contracts/KIP/token/KIP7/KIP7.sol\":14485:14489  from */\n      dup8\n        /* \"@klaytn/contracts/contracts/KIP/token/KIP7/KIP7.sol\":14491:14497  amount */\n      dup7\n        /* \"@klaytn/contracts/contracts/KIP/token/KIP7/KIP7.sol\":14499:14504  _data */\n      dup7\n        /* \"@klaytn/contracts/contracts/KIP/token/KIP7/KIP7.sol\":14438:14505  IKIP7Receiver(to).onKIP7Received(_msgSender(), from, amount, _data) */\n      mload(0x40)\n      dup6\n      0xffffffff\n      and\n      0xe0\n      shl\n      dup2\n      mstore\n      0x04\n      add\n      tag_188\n      swap5\n      swap4\n      swap3\n      swap2\n      swap1\n      tag_189\n      jump\t// in\n    tag_188:\n      0x20\n      mload(0x40)\n      dup1\n      dup4\n      sub\n      dup2\n      0x00\n      dup8\n      gas\n      call\n      swap3\n      pop\n      pop\n      pop\n      dup1\n      iszero\n      tag_190\n      jumpi\n      pop\n      mload(0x40)\n      returndatasize\n      not(0x1f)\n      0x1f\n      dup3\n      add\n      and\n      dup3\n      add\n      dup1\n      0x40\n      mstore\n      pop\n      dup2\n      add\n      swap1\n      tag_191\n      swap2\n      swap1\n      tag_192\n      jump\t// in\n    tag_191:\n      0x01\n    tag_190:\n        /* \"@klaytn/contracts/contracts/KIP/token/KIP7/KIP7.sol\":14434:14940  try IKIP7Receiver(to).onKIP7Received(_msgSender(), from, amount, _data) returns (bytes4 retval) {... */\n      tag_193\n      jumpi\n      returndatasize\n      dup1\n      0x00\n      dup2\n      eq\n      tag_198\n      jumpi\n      mload(0x40)\n      swap2\n      pop\n      and(add(returndatasize, 0x3f), not(0x1f))\n      dup3\n      add\n      0x40\n      mstore\n      returndatasize\n      dup3\n      mstore\n      returndatasize\n      0x00\n      0x20\n      dup5\n      add\n      returndatacopy\n      jump(tag_197)\n    tag_198:\n      0x60\n      swap2\n      pop\n    tag_197:\n      pop\n        /* \"@klaytn/contracts/contracts/KIP/token/KIP7/KIP7.sol\":14685:14686  0 */\n      0x00\n        /* \"@klaytn/contracts/contracts/KIP/token/KIP7/KIP7.sol\":14668:14674  reason */\n      dup2\n        /* \"@klaytn/contracts/contracts/KIP/token/KIP7/KIP7.sol\":14668:14681  reason.length */\n      mload\n        /* \"@klaytn/contracts/contracts/KIP/token/KIP7/KIP7.sol\":14668:14686  reason.length == 0 */\n      sub\n        /* \"@klaytn/contracts/contracts/KIP/token/KIP7/KIP7.sol\":14664:14926  if (reason.length == 0) {... */\n      tag_199\n      jumpi\n        /* \"@klaytn/contracts/contracts/KIP/token/KIP7/KIP7.sol\":14710:14766  revert(\"KIP7: transfer to non KIP7Receiver implementer\") */\n      mload(0x40)\n      0x08c379a000000000000000000000000000000000000000000000000000000000\n      dup2\n      mstore\n      0x04\n      add\n      tag_200\n      swap1\n      tag_201\n      jump\t// in\n    tag_200:\n      mload(0x40)\n      dup1\n      swap2\n      sub\n      swap1\n      revert\n        /* \"@klaytn/contracts/contracts/KIP/token/KIP7/KIP7.sol\":14664:14926  if (reason.length == 0) {... */\n    tag_199:\n        /* \"@klaytn/contracts/contracts/KIP/token/KIP7/KIP7.sol\":14878:14884  reason */\n      dup1\n        /* \"@klaytn/contracts/contracts/KIP/token/KIP7/KIP7.sol\":14872:14885  mload(reason) */\n      mload\n        /* \"@klaytn/contracts/contracts/KIP/token/KIP7/KIP7.sol\":14863:14869  reason */\n      dup2\n        /* \"@klaytn/contracts/contracts/KIP/token/KIP7/KIP7.sol\":14859:14861  32 */\n      0x20\n        /* \"@klaytn/contracts/contracts/KIP/token/KIP7/KIP7.sol\":14855:14870  add(32, reason) */\n      add\n        /* \"@klaytn/contracts/contracts/KIP/token/KIP7/KIP7.sol\":14848:14886  revert(add(32, reason), mload(reason)) */\n      revert\n        /* \"@klaytn/contracts/contracts/KIP/token/KIP7/KIP7.sol\":14434:14940  try IKIP7Receiver(to).onKIP7Received(_msgSender(), from, amount, _data) returns (bytes4 retval) {... */\n    tag_193:\n        /* \"@klaytn/contracts/contracts/KIP/token/KIP7/KIP7.sol\":14565:14602  IKIP7Receiver.onKIP7Received.selector */\n      shl(0xe0, 0x9d188c22)\n        /* \"@klaytn/contracts/contracts/KIP/token/KIP7/KIP7.sol\":14555:14602  retval == IKIP7Receiver.onKIP7Received.selector */\n      not(0xffffffffffffffffffffffffffffffffffffffffffffffffffffffff)\n      and\n        /* \"@klaytn/contracts/contracts/KIP/token/KIP7/KIP7.sol\":14555:14561  retval */\n      dup2\n        /* \"@klaytn/contracts/contracts/KIP/token/KIP7/KIP7.sol\":14555:14602  retval == IKIP7Receiver.onKIP7Received.selector */\n      not(0xffffffffffffffffffffffffffffffffffffffffffffffffffffffff)\n      and\n      eq\n        /* \"@klaytn/contracts/contracts/KIP/token/KIP7/KIP7.sol\":14548:14602  return retval == IKIP7Receiver.onKIP7Received.selector */\n      swap2\n      pop\n      pop\n      jump(tag_183)\n        /* \"@klaytn/contracts/contracts/KIP/token/KIP7/KIP7.sol\":14399:14992  if (to.isContract()) {... */\n    tag_186:\n        /* \"@klaytn/contracts/contracts/KIP/token/KIP7/KIP7.sol\":14977:14981  true */\n      0x01\n        /* \"@klaytn/contracts/contracts/KIP/token/KIP7/KIP7.sol\":14970:14981  return true */\n      swap1\n      pop\n        /* \"@klaytn/contracts/contracts/KIP/token/KIP7/KIP7.sol\":14236:14998  function _checkOnKIP7Received(... */\n    tag_183:\n      swap5\n      swap4\n      pop\n      pop\n      pop\n      pop\n      jump\t// out\n        /* \"@klaytn/contracts/contracts/utils/Address.sol\":1175:1495  function isContract(address account) internal view returns (bool) {... */\n    tag_185:\n        /* \"@klaytn/contracts/contracts/utils/Address.sol\":1235:1239  bool */\n      0x00\n        /* \"@klaytn/contracts/contracts/utils/Address.sol\":1487:1488  0 */\n      dup1\n        /* \"@klaytn/contracts/contracts/utils/Address.sol\":1465:1472  account */\n      dup3\n        /* \"@klaytn/contracts/contracts/utils/Address.sol\":1465:1484  account.code.length */\n      0xffffffffffffffffffffffffffffffffffffffff\n      and\n      extcodesize\n        /* \"@klaytn/contracts/contracts/utils/Address.sol\":1465:1488  account.code.length > 0 */\n      gt\n        /* \"@klaytn/contracts/contracts/utils/Address.sol\":1458:1488  return account.code.length > 0 */\n      swap1\n      pop\n        /* \"@klaytn/contracts/contracts/utils/Address.sol\":1175:1495  function isContract(address account) internal view returns (bool) {... */\n      swap2\n      swap1\n      pop\n      jump\t// out\n        /* \"#utility.yul\":7:106   */\n    tag_206:\n        /* \"#utility.yul\":59:65   */\n      0x00\n        /* \"#utility.yul\":93:98   */\n      dup2\n        /* \"#utility.yul\":87:99   */\n      mload\n        /* \"#utility.yul\":77:99   */\n      swap1\n      pop\n        /* \"#utility.yul\":7:106   */\n      swap2\n      swap1\n      pop\n      jump\t// out\n        /* \"#utility.yul\":112:281   */\n    tag_207:\n        /* \"#utility.yul\":196:207   */\n      0x00\n        /* \"#utility.yul\":230:236   */\n      dup3\n        /* \"#utility.yul\":225:228   */\n      dup3\n        /* \"#utility.yul\":218:237   */\n      mstore\n        /* \"#utility.yul\":270:274   */\n      0x20\n        /* \"#utility.yul\":265:268   */\n      dup3\n        /* \"#utility.yul\":261:275   */\n      add\n        /* \"#utility.yul\":246:275   */\n      swap1\n      pop\n        /* \"#utility.yul\":112:281   */\n      swap3\n      swap2\n      pop\n      pop\n      jump\t// out\n        /* \"#utility.yul\":287:533   */\n    tag_208:\n        /* \"#utility.yul\":368:369   */\n      0x00\n        /* \"#utility.yul\":378:491   */\n    tag_266:\n        /* \"#utility.yul\":392:398   */\n      dup4\n        /* \"#utility.yul\":389:390   */\n      dup2\n        /* \"#utility.yul\":386:399   */\n      lt\n        /* \"#utility.yul\":378:491   */\n      iszero\n      tag_268\n      jumpi\n        /* \"#utility.yul\":477:478   */\n      dup1\n        /* \"#utility.yul\":472:475   */\n      dup3\n        /* \"#utility.yul\":468:479   */\n      add\n        /* \"#utility.yul\":462:480   */\n      mload\n        /* \"#utility.yul\":458:459   */\n      dup2\n        /* \"#utility.yul\":453:456   */\n      dup5\n        /* \"#utility.yul\":449:460   */\n      add\n        /* \"#utility.yul\":442:481   */\n      mstore\n        /* \"#utility.yul\":414:416   */\n      0x20\n        /* \"#utility.yul\":411:412   */\n      dup2\n        /* \"#utility.yul\":407:417   */\n      add\n        /* \"#utility.yul\":402:417   */\n      swap1\n      pop\n        /* \"#utility.yul\":378:491   */\n      jump(tag_266)\n    tag_268:\n        /* \"#utility.yul\":525:526   */\n      0x00\n        /* \"#utility.yul\":516:522   */\n      dup5\n        /* \"#utility.yul\":511:514   */\n      dup5\n        /* \"#utility.yul\":507:523   */\n      add\n        /* \"#utility.yul\":500:527   */\n      mstore\n        /* \"#utility.yul\":349:533   */\n      pop\n        /* \"#utility.yul\":287:533   */\n      pop\n      pop\n      pop\n      jump\t// out\n        /* \"#utility.yul\":539:641   */\n    tag_209:\n        /* \"#utility.yul\":580:586   */\n      0x00\n        /* \"#utility.yul\":631:633   */\n      0x1f\n        /* \"#utility.yul\":627:634   */\n      not\n        /* \"#utility.yul\":622:624   */\n      0x1f\n        /* \"#utility.yul\":615:620   */\n      dup4\n        /* \"#utility.yul\":611:625   */\n      add\n        /* \"#utility.yul\":607:635   */\n      and\n        /* \"#utility.yul\":597:635   */\n      swap1\n      pop\n        /* \"#utility.yul\":539:641   */\n      swap2\n      swap1\n      pop\n      jump\t// out\n        /* \"#utility.yul\":647:1024   */\n    tag_210:\n        /* \"#utility.yul\":735:738   */\n      0x00\n        /* \"#utility.yul\":763:802   */\n      tag_271\n        /* \"#utility.yul\":796:801   */\n      dup3\n        /* \"#utility.yul\":763:802   */\n      tag_206\n      jump\t// in\n    tag_271:\n        /* \"#utility.yul\":818:889   */\n      tag_272\n        /* \"#utility.yul\":882:888   */\n      dup2\n        /* \"#utility.yul\":877:880   */\n      dup6\n        /* \"#utility.yul\":818:889   */\n      tag_207\n      jump\t// in\n    tag_272:\n        /* \"#utility.yul\":811:889   */\n      swap4\n      pop\n        /* \"#utility.yul\":898:963   */\n      tag_273\n        /* \"#utility.yul\":956:962   */\n      dup2\n        /* \"#utility.yul\":951:954   */\n      dup6\n        /* \"#utility.yul\":944:948   */\n      0x20\n        /* \"#utility.yul\":937:942   */\n      dup7\n        /* \"#utility.yul\":933:949   */\n      add\n        /* \"#utility.yul\":898:963   */\n      tag_208\n      jump\t// in\n    tag_273:\n        /* \"#utility.yul\":988:1017   */\n      tag_274\n        /* \"#utility.yul\":1010:1016   */\n      dup2\n        /* \"#utility.yul\":988:1017   */\n      tag_209\n      jump\t// in\n    tag_274:\n        /* \"#utility.yul\":983:986   */\n      dup5\n        /* \"#utility.yul\":979:1018   */\n      add\n        /* \"#utility.yul\":972:1018   */\n      swap2\n      pop\n        /* \"#utility.yul\":739:1024   */\n      pop\n        /* \"#utility.yul\":647:1024   */\n      swap3\n      swap2\n      pop\n      pop\n      jump\t// out\n        /* \"#utility.yul\":1030:1343   */\n    tag_24:\n        /* \"#utility.yul\":1143:1147   */\n      0x00\n        /* \"#utility.yul\":1181:1183   */\n      0x20\n        /* \"#utility.yul\":1170:1179   */\n      dup3\n        /* \"#utility.yul\":1166:1184   */\n      add\n        /* \"#utility.yul\":1158:1184   */\n      swap1\n      pop\n        /* \"#utility.yul\":1230:1239   */\n      dup2\n        /* \"#utility.yul\":1224:1228   */\n      dup2\n        /* \"#utility.yul\":1220:1240   */\n      sub\n        /* \"#utility.yul\":1216:1217   */\n      0x00\n        /* \"#utility.yul\":1205:1214   */\n      dup4\n        /* \"#utility.yul\":1201:1218   */\n      add\n        /* \"#utility.yul\":1194:1241   */\n      mstore\n        /* \"#utility.yul\":1258:1336   */\n      tag_276\n        /* \"#utility.yul\":1331:1335   */\n      dup2\n        /* \"#utility.yul\":1322:1328   */\n      dup5\n        /* \"#utility.yul\":1258:1336   */\n      tag_210\n      jump\t// in\n    tag_276:\n        /* \"#utility.yul\":1250:1336   */\n      swap1\n      pop\n        /* \"#utility.yul\":1030:1343   */\n      swap3\n      swap2\n      pop\n      pop\n      jump\t// out\n        /* \"#utility.yul\":1349:1424   */\n    tag_211:\n        /* \"#utility.yul\":1382:1388   */\n      0x00\n        /* \"#utility.yul\":1415:1417   */\n      0x40\n        /* \"#utility.yul\":1409:1418   */\n      mload\n        /* \"#utility.yul\":1399:1418   */\n      swap1\n      pop\n        /* \"#utility.yul\":1349:1424   */\n      swap1\n      jump\t// out\n        /* \"#utility.yul\":1430:1547   */\n    tag_212:\n        /* \"#utility.yul\":1539:1540   */\n      0x00\n        /* \"#utility.yul\":1536:1537   */\n      dup1\n        /* \"#utility.yul\":1529:1541   */\n      revert\n        /* \"#utility.yul\":1553:1670   */\n    tag_213:\n        /* \"#utility.yul\":1662:1663   */\n      0x00\n        /* \"#utility.yul\":1659:1660   */\n      dup1\n        /* \"#utility.yul\":1652:1664   */\n      revert\n        /* \"#utility.yul\":1676:1802   */\n    tag_214:\n        /* \"#utility.yul\":1713:1720   */\n      0x00\n        /* \"#utility.yul\":1753:1795   */\n      0xffffffffffffffffffffffffffffffffffffffff\n        /* \"#utility.yul\":1746:1751   */\n      dup3\n        /* \"#utility.yul\":1742:1796   */\n      and\n        /* \"#utility.yul\":1731:1796   */\n      swap1\n      pop\n        /* \"#utility.yul\":1676:1802   */\n      swap2\n      swap1\n      pop\n      jump\t// out\n        /* \"#utility.yul\":1808:1904   */\n    tag_215:\n        /* \"#utility.yul\":1845:1852   */\n      0x00\n        /* \"#utility.yul\":1874:1898   */\n      tag_282\n        /* \"#utility.yul\":1892:1897   */\n      dup3\n        /* \"#utility.yul\":1874:1898   */\n      tag_214\n      jump\t// in\n    tag_282:\n        /* \"#utility.yul\":1863:1898   */\n      swap1\n      pop\n        /* \"#utility.yul\":1808:1904   */\n      swap2\n      swap1\n      pop\n      jump\t// out\n        /* \"#utility.yul\":1910:2032   */\n    tag_216:\n        /* \"#utility.yul\":1983:2007   */\n      tag_284\n        /* \"#utility.yul\":2001:2006   */\n      dup2\n        /* \"#utility.yul\":1983:2007   */\n      tag_215\n      jump\t// in\n    tag_284:\n        /* \"#utility.yul\":1976:1981   */\n      dup2\n        /* \"#utility.yul\":1973:2008   */\n      eq\n        /* \"#utility.yul\":1963:2026   */\n      tag_285\n      jumpi\n        /* \"#utility.yul\":2022:2023   */\n      0x00\n        /* \"#utility.yul\":2019:2020   */\n      dup1\n        /* \"#utility.yul\":2012:2024   */\n      revert\n        /* \"#utility.yul\":1963:2026   */\n    tag_285:\n        /* \"#utility.yul\":1910:2032   */\n      pop\n      jump\t// out\n        /* \"#utility.yul\":2038:2177   */\n    tag_217:\n        /* \"#utility.yul\":2084:2089   */\n      0x00\n        /* \"#utility.yul\":2122:2128   */\n      dup2\n        /* \"#utility.yul\":2109:2129   */\n      calldataload\n        /* \"#utility.yul\":2100:2129   */\n      swap1\n      pop\n        /* \"#utility.yul\":2138:2171   */\n      tag_287\n        /* \"#utility.yul\":2165:2170   */\n      dup2\n        /* \"#utility.yul\":2138:2171   */\n      tag_216\n      jump\t// in\n    tag_287:\n        /* \"#utility.yul\":2038:2177   */\n      swap3\n      swap2\n      pop\n      pop\n      jump\t// out\n        /* \"#utility.yul\":2183:2260   */\n    tag_218:\n        /* \"#utility.yul\":2220:2227   */\n      0x00\n        /* \"#utility.yul\":2249:2254   */\n      dup2\n        /* \"#utility.yul\":2238:2254   */\n      swap1\n      pop\n        /* \"#utility.yul\":2183:2260   */\n      swap2\n      swap1\n      pop\n      jump\t// out\n        /* \"#utility.yul\":2266:2388   */\n    tag_219:\n        /* \"#utility.yul\":2339:2363   */\n      tag_290\n        /* \"#utility.yul\":2357:2362   */\n      dup2\n        /* \"#utility.yul\":2339:2363   */\n      tag_218\n      jump\t// in\n    tag_290:\n        /* \"#utility.yul\":2332:2337   */\n      dup2\n        /* \"#utility.yul\":2329:2364   */\n      eq\n        /* \"#utility.yul\":2319:2382   */\n      tag_291\n      jumpi\n        /* \"#utility.yul\":2378:2379   */\n      0x00\n        /* \"#utility.yul\":2375:2376   */\n      dup1\n        /* \"#utility.yul\":2368:2380   */\n      revert\n        /* \"#utility.yul\":2319:2382   */\n    tag_291:\n        /* \"#utility.yul\":2266:2388   */\n      pop\n      jump\t// out\n        /* \"#utility.yul\":2394:2533   */\n    tag_220:\n        /* \"#utility.yul\":2440:2445   */\n      0x00\n        /* \"#utility.yul\":2478:2484   */\n      dup2\n        /* \"#utility.yul\":2465:2485   */\n      calldataload\n        /* \"#utility.yul\":2456:2485   */\n      swap1\n      pop\n        /* \"#utility.yul\":2494:2527   */\n      tag_293\n        /* \"#utility.yul\":2521:2526   */\n      dup2\n        /* \"#utility.yul\":2494:2527   */\n      tag_219\n      jump\t// in\n    tag_293:\n        /* \"#utility.yul\":2394:2533   */\n      swap3\n      swap2\n      pop\n      pop\n      jump\t// out\n        /* \"#utility.yul\":2539:3013   */\n    tag_27:\n        /* \"#utility.yul\":2607:2613   */\n      0x00\n        /* \"#utility.yul\":2615:2621   */\n      dup1\n        /* \"#utility.yul\":2664:2666   */\n      0x40\n        /* \"#utility.yul\":2652:2661   */\n      dup4\n        /* \"#utility.yul\":2643:2650   */\n      dup6\n        /* \"#utility.yul\":2639:2662   */\n      sub\n        /* \"#utility.yul\":2635:2667   */\n      slt\n        /* \"#utility.yul\":2632:2751   */\n      iszero\n      tag_295\n      jumpi\n        /* \"#utility.yul\":2670:2749   */\n      tag_296\n      tag_212\n      jump\t// in\n    tag_296:\n        /* \"#utility.yul\":2632:2751   */\n    tag_295:\n        /* \"#utility.yul\":2790:2791   */\n      0x00\n        /* \"#utility.yul\":2815:2868   */\n      tag_297\n        /* \"#utility.yul\":2860:2867   */\n      dup6\n        /* \"#utility.yul\":2851:2857   */\n      dup3\n        /* \"#utility.yul\":2840:2849   */\n      dup7\n        /* \"#utility.yul\":2836:2858   */\n      add\n        /* \"#utility.yul\":2815:2868   */\n      tag_217\n      jump\t// in\n    tag_297:\n        /* \"#utility.yul\":2805:2868   */\n      swap3\n      pop\n        /* \"#utility.yul\":2761:2878   */\n      pop\n        /* \"#utility.yul\":2917:2919   */\n      0x20\n        /* \"#utility.yul\":2943:2996   */\n      tag_298\n        /* \"#utility.yul\":2988:2995   */\n      dup6\n        /* \"#utility.yul\":2979:2985   */\n      dup3\n        /* \"#utility.yul\":2968:2977   */\n      dup7\n        /* \"#utility.yul\":2964:2986   */\n      add\n        /* \"#utility.yul\":2943:2996   */\n      tag_220\n      jump\t// in\n    tag_298:\n        /* \"#utility.yul\":2933:2996   */\n      swap2\n      pop\n        /* \"#utility.yul\":2888:3006   */\n      pop\n        /* \"#utility.yul\":2539:3013   */\n      swap3\n      pop\n      swap3\n      swap1\n      pop\n      jump\t// out\n        /* \"#utility.yul\":3019:3109   */\n    tag_221:\n        /* \"#utility.yul\":3053:3060   */\n      0x00\n        /* \"#utility.yul\":3096:3101   */\n      dup2\n        /* \"#utility.yul\":3089:3102   */\n      iszero\n        /* \"#utility.yul\":3082:3103   */\n      iszero\n        /* \"#utility.yul\":3071:3103   */\n      swap1\n      pop\n        /* \"#utility.yul\":3019:3109   */\n      swap2\n      swap1\n      pop\n      jump\t// out\n        /* \"#utility.yul\":3115:3224   */\n    tag_222:\n        /* \"#utility.yul\":3196:3217   */\n      tag_301\n        /* \"#utility.yul\":3211:3216   */\n      dup2\n        /* \"#utility.yul\":3196:3217   */\n      tag_221\n      jump\t// in\n    tag_301:\n        /* \"#utility.yul\":3191:3194   */\n      dup3\n        /* \"#utility.yul\":3184:3218   */\n      mstore\n        /* \"#utility.yul\":3115:3224   */\n      pop\n      pop\n      jump\t// out\n        /* \"#utility.yul\":3230:3440   */\n    tag_30:\n        /* \"#utility.yul\":3317:3321   */\n      0x00\n        /* \"#utility.yul\":3355:3357   */\n      0x20\n        /* \"#utility.yul\":3344:3353   */\n      dup3\n        /* \"#utility.yul\":3340:3358   */\n      add\n        /* \"#utility.yul\":3332:3358   */\n      swap1\n      pop\n        /* \"#utility.yul\":3368:3433   */\n      tag_303\n        /* \"#utility.yul\":3430:3431   */\n      0x00\n        /* \"#utility.yul\":3419:3428   */\n      dup4\n        /* \"#utility.yul\":3415:3432   */\n      add\n        /* \"#utility.yul\":3406:3412   */\n      dup5\n        /* \"#utility.yul\":3368:3433   */\n      tag_222\n      jump\t// in\n    tag_303:\n        /* \"#utility.yul\":3230:3440   */\n      swap3\n      swap2\n      pop\n      pop\n      jump\t// out\n        /* \"#utility.yul\":3446:3564   */\n    tag_223:\n        /* \"#utility.yul\":3533:3557   */\n      tag_305\n        /* \"#utility.yul\":3551:3556   */\n      dup2\n        /* \"#utility.yul\":3533:3557   */\n      tag_218\n      jump\t// in\n    tag_305:\n        /* \"#utility.yul\":3528:3531   */\n      dup3\n        /* \"#utility.yul\":3521:3558   */\n      mstore\n        /* \"#utility.yul\":3446:3564   */\n      pop\n      pop\n      jump\t// out\n        /* \"#utility.yul\":3570:3792   */\n    tag_34:\n        /* \"#utility.yul\":3663:3667   */\n      0x00\n        /* \"#utility.yul\":3701:3703   */\n      0x20\n        /* \"#utility.yul\":3690:3699   */\n      dup3\n        /* \"#utility.yul\":3686:3704   */\n      add\n        /* \"#utility.yul\":3678:3704   */\n      swap1\n      pop\n        /* \"#utility.yul\":3714:3785   */\n      tag_307\n        /* \"#utility.yul\":3782:3783   */\n      0x00\n        /* \"#utility.yul\":3771:3780   */\n      dup4\n        /* \"#utility.yul\":3767:3784   */\n      add\n        /* \"#utility.yul\":3758:3764   */\n      dup5\n        /* \"#utility.yul\":3714:3785   */\n      tag_223\n      jump\t// in\n    tag_307:\n        /* \"#utility.yul\":3570:3792   */\n      swap3\n      swap2\n      pop\n      pop\n      jump\t// out\n        /* \"#utility.yul\":3798:4417   */\n    tag_37:\n        /* \"#utility.yul\":3875:3881   */\n      0x00\n        /* \"#utility.yul\":3883:3889   */\n      dup1\n        /* \"#utility.yul\":3891:3897   */\n      0x00\n        /* \"#utility.yul\":3940:3942   */\n      0x60\n        /* \"#utility.yul\":3928:3937   */\n      dup5\n        /* \"#utility.yul\":3919:3926   */\n      dup7\n        /* \"#utility.yul\":3915:3938   */\n      sub\n        /* \"#utility.yul\":3911:3943   */\n      slt\n        /* \"#utility.yul\":3908:4027   */\n      iszero\n      tag_309\n      jumpi\n        /* \"#utility.yul\":3946:4025   */\n      tag_310\n      tag_212\n      jump\t// in\n    tag_310:\n        /* \"#utility.yul\":3908:4027   */\n    tag_309:\n        /* \"#utility.yul\":4066:4067   */\n      0x00\n        /* \"#utility.yul\":4091:4144   */\n      tag_311\n        /* \"#utility.yul\":4136:4143   */\n      dup7\n        /* \"#utility.yul\":4127:4133   */\n      dup3\n        /* \"#utility.yul\":4116:4125   */\n      dup8\n        /* \"#utility.yul\":4112:4134   */\n      add\n        /* \"#utility.yul\":4091:4144   */\n      tag_217\n      jump\t// in\n    tag_311:\n        /* \"#utility.yul\":4081:4144   */\n      swap4\n      pop\n        /* \"#utility.yul\":4037:4154   */\n      pop\n        /* \"#utility.yul\":4193:4195   */\n      0x20\n        /* \"#utility.yul\":4219:4272   */\n      tag_312\n        /* \"#utility.yul\":4264:4271   */\n      dup7\n        /* \"#utility.yul\":4255:4261   */\n      dup3\n        /* \"#utility.yul\":4244:4253   */\n      dup8\n        /* \"#utility.yul\":4240:4262   */\n      add\n        /* \"#utility.yul\":4219:4272   */\n      tag_217\n      jump\t// in\n    tag_312:\n        /* \"#utility.yul\":4209:4272   */\n      swap3\n      pop\n        /* \"#utility.yul\":4164:4282   */\n      pop\n        /* \"#utility.yul\":4321:4323   */\n      0x40\n        /* \"#utility.yul\":4347:4400   */\n      tag_313\n        /* \"#utility.yul\":4392:4399   */\n      dup7\n        /* \"#utility.yul\":4383:4389   */\n      dup3\n        /* \"#utility.yul\":4372:4381   */\n      dup8\n        /* \"#utility.yul\":4368:4390   */\n      add\n        /* \"#utility.yul\":4347:4400   */\n      tag_220\n      jump\t// in\n    tag_313:\n        /* \"#utility.yul\":4337:4400   */\n      swap2\n      pop\n        /* \"#utility.yul\":4292:4410   */\n      pop\n        /* \"#utility.yul\":3798:4417   */\n      swap3\n      pop\n      swap3\n      pop\n      swap3\n      jump\t// out\n        /* \"#utility.yul\":4423:4509   */\n    tag_224:\n        /* \"#utility.yul\":4458:4465   */\n      0x00\n        /* \"#utility.yul\":4498:4502   */\n      0xff\n        /* \"#utility.yul\":4491:4496   */\n      dup3\n        /* \"#utility.yul\":4487:4503   */\n      and\n        /* \"#utility.yul\":4476:4503   */\n      swap1\n      pop\n        /* \"#utility.yul\":4423:4509   */\n      swap2\n      swap1\n      pop\n      jump\t// out\n        /* \"#utility.yul\":4515:4627   */\n    tag_225:\n        /* \"#utility.yul\":4598:4620   */\n      tag_316\n        /* \"#utility.yul\":4614:4619   */\n      dup2\n        /* \"#utility.yul\":4598:4620   */\n      tag_224\n      jump\t// in\n    tag_316:\n        /* \"#utility.yul\":4593:4596   */\n      dup3\n        /* \"#utility.yul\":4586:4621   */\n      mstore\n        /* \"#utility.yul\":4515:4627   */\n      pop\n      pop\n      jump\t// out\n        /* \"#utility.yul\":4633:4847   */\n    tag_43:\n        /* \"#utility.yul\":4722:4726   */\n      0x00\n        /* \"#utility.yul\":4760:4762   */\n      0x20\n        /* \"#utility.yul\":4749:4758   */\n      dup3\n        /* \"#utility.yul\":4745:4763   */\n      add\n        /* \"#utility.yul\":4737:4763   */\n      swap1\n      pop\n        /* \"#utility.yul\":4773:4840   */\n      tag_318\n        /* \"#utility.yul\":4837:4838   */\n      0x00\n        /* \"#utility.yul\":4826:4835   */\n      dup4\n        /* \"#utility.yul\":4822:4839   */\n      add\n        /* \"#utility.yul\":4813:4819   */\n      dup5\n        /* \"#utility.yul\":4773:4840   */\n      tag_225\n      jump\t// in\n    tag_318:\n        /* \"#utility.yul\":4633:4847   */\n      swap3\n      swap2\n      pop\n      pop\n      jump\t// out\n        /* \"#utility.yul\":4853:5182   */\n    tag_56:\n        /* \"#utility.yul\":4912:4918   */\n      0x00\n        /* \"#utility.yul\":4961:4963   */\n      0x20\n        /* \"#utility.yul\":4949:4958   */\n      dup3\n        /* \"#utility.yul\":4940:4947   */\n      dup5\n        /* \"#utility.yul\":4936:4959   */\n      sub\n        /* \"#utility.yul\":4932:4964   */\n      slt\n        /* \"#utility.yul\":4929:5048   */\n      iszero\n      tag_320\n      jumpi\n        /* \"#utility.yul\":4967:5046   */\n      tag_321\n      tag_212\n      jump\t// in\n    tag_321:\n        /* \"#utility.yul\":4929:5048   */\n    tag_320:\n        /* \"#utility.yul\":5087:5088   */\n      0x00\n        /* \"#utility.yul\":5112:5165   */\n      tag_322\n        /* \"#utility.yul\":5157:5164   */\n      dup5\n        /* \"#utility.yul\":5148:5154   */\n      dup3\n        /* \"#utility.yul\":5137:5146   */\n      dup6\n        /* \"#utility.yul\":5133:5155   */\n      add\n        /* \"#utility.yul\":5112:5165   */\n      tag_217\n      jump\t// in\n    tag_322:\n        /* \"#utility.yul\":5102:5165   */\n      swap2\n      pop\n        /* \"#utility.yul\":5058:5175   */\n      pop\n        /* \"#utility.yul\":4853:5182   */\n      swap3\n      swap2\n      pop\n      pop\n      jump\t// out\n        /* \"#utility.yul\":5188:5305   */\n    tag_226:\n        /* \"#utility.yul\":5297:5298   */\n      0x00\n        /* \"#utility.yul\":5294:5295   */\n      dup1\n        /* \"#utility.yul\":5287:5299   */\n      revert\n        /* \"#utility.yul\":5311:5428   */\n    tag_227:\n        /* \"#utility.yul\":5420:5421   */\n      0x00\n        /* \"#utility.yul\":5417:5418   */\n      dup1\n        /* \"#utility.yul\":5410:5422   */\n      revert\n        /* \"#utility.yul\":5434:5614   */\n    tag_228:\n        /* \"#utility.yul\":5482:5559   */\n      0x4e487b7100000000000000000000000000000000000000000000000000000000\n        /* \"#utility.yul\":5479:5480   */\n      0x00\n        /* \"#utility.yul\":5472:5560   */\n      mstore\n        /* \"#utility.yul\":5579:5583   */\n      0x41\n        /* \"#utility.yul\":5576:5577   */\n      0x04\n        /* \"#utility.yul\":5569:5584   */\n      mstore\n        /* \"#utility.yul\":5603:5607   */\n      0x24\n        /* \"#utility.yul\":5600:5601   */\n      0x00\n        /* \"#utility.yul\":5593:5608   */\n      revert\n        /* \"#utility.yul\":5620:5901   */\n    tag_229:\n        /* \"#utility.yul\":5703:5730   */\n      tag_327\n        /* \"#utility.yul\":5725:5729   */\n      dup3\n        /* \"#utility.yul\":5703:5730   */\n      tag_209\n      jump\t// in\n    tag_327:\n        /* \"#utility.yul\":5695:5701   */\n      dup2\n        /* \"#utility.yul\":5691:5731   */\n      add\n        /* \"#utility.yul\":5833:5839   */\n      dup2\n        /* \"#utility.yul\":5821:5831   */\n      dup2\n        /* \"#utility.yul\":5818:5840   */\n      lt\n        /* \"#utility.yul\":5797:5815   */\n      0xffffffffffffffff\n        /* \"#utility.yul\":5785:5795   */\n      dup3\n        /* \"#utility.yul\":5782:5816   */\n      gt\n        /* \"#utility.yul\":5779:5841   */\n      or\n        /* \"#utility.yul\":5776:5864   */\n      iszero\n      tag_328\n      jumpi\n        /* \"#utility.yul\":5844:5862   */\n      tag_329\n      tag_228\n      jump\t// in\n    tag_329:\n        /* \"#utility.yul\":5776:5864   */\n    tag_328:\n        /* \"#utility.yul\":5884:5894   */\n      dup1\n        /* \"#utility.yul\":5880:5882   */\n      0x40\n        /* \"#utility.yul\":5873:5895   */\n      mstore\n        /* \"#utility.yul\":5663:5901   */\n      pop\n        /* \"#utility.yul\":5620:5901   */\n      pop\n      pop\n      jump\t// out\n        /* \"#utility.yul\":5907:6036   */\n    tag_230:\n        /* \"#utility.yul\":5941:5947   */\n      0x00\n        /* \"#utility.yul\":5968:5988   */\n      tag_331\n      tag_211\n      jump\t// in\n    tag_331:\n        /* \"#utility.yul\":5958:5988   */\n      swap1\n      pop\n        /* \"#utility.yul\":5997:6030   */\n      tag_332\n        /* \"#utility.yul\":6025:6029   */\n      dup3\n        /* \"#utility.yul\":6017:6023   */\n      dup3\n        /* \"#utility.yul\":5997:6030   */\n      tag_229\n      jump\t// in\n    tag_332:\n        /* \"#utility.yul\":5907:6036   */\n      swap2\n      swap1\n      pop\n      jump\t// out\n        /* \"#utility.yul\":6042:6349   */\n    tag_231:\n        /* \"#utility.yul\":6103:6107   */\n      0x00\n        /* \"#utility.yul\":6193:6211   */\n      0xffffffffffffffff\n        /* \"#utility.yul\":6185:6191   */\n      dup3\n        /* \"#utility.yul\":6182:6212   */\n      gt\n        /* \"#utility.yul\":6179:6235   */\n      iszero\n      tag_334\n      jumpi\n        /* \"#utility.yul\":6215:6233   */\n      tag_335\n      tag_228\n      jump\t// in\n    tag_335:\n        /* \"#utility.yul\":6179:6235   */\n    tag_334:\n        /* \"#utility.yul\":6253:6282   */\n      tag_336\n        /* \"#utility.yul\":6275:6281   */\n      dup3\n        /* \"#utility.yul\":6253:6282   */\n      tag_209\n      jump\t// in\n    tag_336:\n        /* \"#utility.yul\":6245:6282   */\n      swap1\n      pop\n        /* \"#utility.yul\":6337:6341   */\n      0x20\n        /* \"#utility.yul\":6331:6335   */\n      dup2\n        /* \"#utility.yul\":6327:6342   */\n      add\n        /* \"#utility.yul\":6319:6342   */\n      swap1\n      pop\n        /* \"#utility.yul\":6042:6349   */\n      swap2\n      swap1\n      pop\n      jump\t// out\n        /* \"#utility.yul\":6355:6501   */\n    tag_232:\n        /* \"#utility.yul\":6452:6458   */\n      dup3\n        /* \"#utility.yul\":6447:6450   */\n      dup2\n        /* \"#utility.yul\":6442:6445   */\n      dup4\n        /* \"#utility.yul\":6429:6459   */\n      calldatacopy\n        /* \"#utility.yul\":6493:6494   */\n      0x00\n        /* \"#utility.yul\":6484:6490   */\n      dup4\n        /* \"#utility.yul\":6479:6482   */\n      dup4\n        /* \"#utility.yul\":6475:6491   */\n      add\n        /* \"#utility.yul\":6468:6495   */\n      mstore\n        /* \"#utility.yul\":6355:6501   */\n      pop\n      pop\n      pop\n      jump\t// out\n        /* \"#utility.yul\":6507:6930   */\n    tag_233:\n        /* \"#utility.yul\":6584:6589   */\n      0x00\n        /* \"#utility.yul\":6609:6674   */\n      tag_339\n        /* \"#utility.yul\":6625:6673   */\n      tag_340\n        /* \"#utility.yul\":6666:6672   */\n      dup5\n        /* \"#utility.yul\":6625:6673   */\n      tag_231\n      jump\t// in\n    tag_340:\n        /* \"#utility.yul\":6609:6674   */\n      tag_230\n      jump\t// in\n    tag_339:\n        /* \"#utility.yul\":6600:6674   */\n      swap1\n      pop\n        /* \"#utility.yul\":6697:6703   */\n      dup3\n        /* \"#utility.yul\":6690:6695   */\n      dup2\n        /* \"#utility.yul\":6683:6704   */\n      mstore\n        /* \"#utility.yul\":6735:6739   */\n      0x20\n        /* \"#utility.yul\":6728:6733   */\n      dup2\n        /* \"#utility.yul\":6724:6740   */\n      add\n        /* \"#utility.yul\":6773:6776   */\n      dup5\n        /* \"#utility.yul\":6764:6770   */\n      dup5\n        /* \"#utility.yul\":6759:6762   */\n      dup5\n        /* \"#utility.yul\":6755:6771   */\n      add\n        /* \"#utility.yul\":6752:6777   */\n      gt\n        /* \"#utility.yul\":6749:6861   */\n      iszero\n      tag_341\n      jumpi\n        /* \"#utility.yul\":6780:6859   */\n      tag_342\n      tag_227\n      jump\t// in\n    tag_342:\n        /* \"#utility.yul\":6749:6861   */\n    tag_341:\n        /* \"#utility.yul\":6870:6924   */\n      tag_343\n        /* \"#utility.yul\":6917:6923   */\n      dup5\n        /* \"#utility.yul\":6912:6915   */\n      dup3\n        /* \"#utility.yul\":6907:6910   */\n      dup6\n        /* \"#utility.yul\":6870:6924   */\n      tag_232\n      jump\t// in\n    tag_343:\n        /* \"#utility.yul\":6590:6930   */\n      pop\n        /* \"#utility.yul\":6507:6930   */\n      swap4\n      swap3\n      pop\n      pop\n      pop\n      jump\t// out\n        /* \"#utility.yul\":6949:7287   */\n    tag_234:\n        /* \"#utility.yul\":7004:7009   */\n      0x00\n        /* \"#utility.yul\":7053:7056   */\n      dup3\n        /* \"#utility.yul\":7046:7050   */\n      0x1f\n        /* \"#utility.yul\":7038:7044   */\n      dup4\n        /* \"#utility.yul\":7034:7051   */\n      add\n        /* \"#utility.yul\":7030:7057   */\n      slt\n        /* \"#utility.yul\":7020:7142   */\n      tag_345\n      jumpi\n        /* \"#utility.yul\":7061:7140   */\n      tag_346\n      tag_226\n      jump\t// in\n    tag_346:\n        /* \"#utility.yul\":7020:7142   */\n    tag_345:\n        /* \"#utility.yul\":7178:7184   */\n      dup2\n        /* \"#utility.yul\":7165:7185   */\n      calldataload\n        /* \"#utility.yul\":7203:7281   */\n      tag_347\n        /* \"#utility.yul\":7277:7280   */\n      dup5\n        /* \"#utility.yul\":7269:7275   */\n      dup3\n        /* \"#utility.yul\":7262:7266   */\n      0x20\n        /* \"#utility.yul\":7254:7260   */\n      dup7\n        /* \"#utility.yul\":7250:7267   */\n      add\n        /* \"#utility.yul\":7203:7281   */\n      tag_233\n      jump\t// in\n    tag_347:\n        /* \"#utility.yul\":7194:7281   */\n      swap2\n      pop\n        /* \"#utility.yul\":7010:7287   */\n      pop\n        /* \"#utility.yul\":6949:7287   */\n      swap3\n      swap2\n      pop\n      pop\n      jump\t// out\n        /* \"#utility.yul\":7293:8236   */\n    tag_72:\n        /* \"#utility.yul\":7388:7394   */\n      0x00\n        /* \"#utility.yul\":7396:7402   */\n      dup1\n        /* \"#utility.yul\":7404:7410   */\n      0x00\n        /* \"#utility.yul\":7412:7418   */\n      dup1\n        /* \"#utility.yul\":7461:7464   */\n      0x80\n        /* \"#utility.yul\":7449:7458   */\n      dup6\n        /* \"#utility.yul\":7440:7447   */\n      dup8\n        /* \"#utility.yul\":7436:7459   */\n      sub\n        /* \"#utility.yul\":7432:7465   */\n      slt\n        /* \"#utility.yul\":7429:7549   */\n      iszero\n      tag_349\n      jumpi\n        /* \"#utility.yul\":7468:7547   */\n      tag_350\n      tag_212\n      jump\t// in\n    tag_350:\n        /* \"#utility.yul\":7429:7549   */\n    tag_349:\n        /* \"#utility.yul\":7588:7589   */\n      0x00\n        /* \"#utility.yul\":7613:7666   */\n      tag_351\n        /* \"#utility.yul\":7658:7665   */\n      dup8\n        /* \"#utility.yul\":7649:7655   */\n      dup3\n        /* \"#utility.yul\":7638:7647   */\n      dup9\n        /* \"#utility.yul\":7634:7656   */\n      add\n        /* \"#utility.yul\":7613:7666   */\n      tag_217\n      jump\t// in\n    tag_351:\n        /* \"#utility.yul\":7603:7666   */\n      swap5\n      pop\n        /* \"#utility.yul\":7559:7676   */\n      pop\n        /* \"#utility.yul\":7715:7717   */\n      0x20\n        /* \"#utility.yul\":7741:7794   */\n      tag_352\n        /* \"#utility.yul\":7786:7793   */\n      dup8\n        /* \"#utility.yul\":7777:7783   */\n      dup3\n        /* \"#utility.yul\":7766:7775   */\n      dup9\n        /* \"#utility.yul\":7762:7784   */\n      add\n        /* \"#utility.yul\":7741:7794   */\n      tag_217\n      jump\t// in\n    tag_352:\n        /* \"#utility.yul\":7731:7794   */\n      swap4\n      pop\n        /* \"#utility.yul\":7686:7804   */\n      pop\n        /* \"#utility.yul\":7843:7845   */\n      0x40\n        /* \"#utility.yul\":7869:7922   */\n      tag_353\n        /* \"#utility.yul\":7914:7921   */\n      dup8\n        /* \"#utility.yul\":7905:7911   */\n      dup3\n        /* \"#utility.yul\":7894:7903   */\n      dup9\n        /* \"#utility.yul\":7890:7912   */\n      add\n        /* \"#utility.yul\":7869:7922   */\n      tag_220\n      jump\t// in\n    tag_353:\n        /* \"#utility.yul\":7859:7922   */\n      swap3\n      pop\n        /* \"#utility.yul\":7814:7932   */\n      pop\n        /* \"#utility.yul\":7999:8001   */\n      0x60\n        /* \"#utility.yul\":7988:7997   */\n      dup6\n        /* \"#utility.yul\":7984:8002   */\n      add\n        /* \"#utility.yul\":7971:8003   */\n      calldataload\n        /* \"#utility.yul\":8030:8048   */\n      0xffffffffffffffff\n        /* \"#utility.yul\":8022:8028   */\n      dup2\n        /* \"#utility.yul\":8019:8049   */\n      gt\n        /* \"#utility.yul\":8016:8133   */\n      iszero\n      tag_354\n      jumpi\n        /* \"#utility.yul\":8052:8131   */\n      tag_355\n      tag_213\n      jump\t// in\n    tag_355:\n        /* \"#utility.yul\":8016:8133   */\n    tag_354:\n        /* \"#utility.yul\":8157:8219   */\n      tag_356\n        /* \"#utility.yul\":8211:8218   */\n      dup8\n        /* \"#utility.yul\":8202:8208   */\n      dup3\n        /* \"#utility.yul\":8191:8200   */\n      dup9\n        /* \"#utility.yul\":8187:8209   */\n      add\n        /* \"#utility.yul\":8157:8219   */\n      tag_234\n      jump\t// in\n    tag_356:\n        /* \"#utility.yul\":8147:8219   */\n      swap2\n      pop\n        /* \"#utility.yul\":7942:8229   */\n      pop\n        /* \"#utility.yul\":7293:8236   */\n      swap3\n      swap6\n      swap2\n      swap5\n      pop\n      swap3\n      pop\n      jump\t// out\n        /* \"#utility.yul\":8242:8716   */\n    tag_76:\n        /* \"#utility.yul\":8310:8316   */\n      0x00\n        /* \"#utility.yul\":8318:8324   */\n      dup1\n        /* \"#utility.yul\":8367:8369   */\n      0x40\n        /* \"#utility.yul\":8355:8364   */\n      dup4\n        /* \"#utility.yul\":8346:8353   */\n      dup6\n        /* \"#utility.yul\":8342:8365   */\n      sub\n        /* \"#utility.yul\":8338:8370   */\n      slt\n        /* \"#utility.yul\":8335:8454   */\n      iszero\n      tag_358\n      jumpi\n        /* \"#utility.yul\":8373:8452   */\n      tag_359\n      tag_212\n      jump\t// in\n    tag_359:\n        /* \"#utility.yul\":8335:8454   */\n    tag_358:\n        /* \"#utility.yul\":8493:8494   */\n      0x00\n        /* \"#utility.yul\":8518:8571   */\n      tag_360\n        /* \"#utility.yul\":8563:8570   */\n      dup6\n        /* \"#utility.yul\":8554:8560   */\n      dup3\n        /* \"#utility.yul\":8543:8552   */\n      dup7\n        /* \"#utility.yul\":8539:8561   */\n      add\n        /* \"#utility.yul\":8518:8571   */\n      tag_217\n      jump\t// in\n    tag_360:\n        /* \"#utility.yul\":8508:8571   */\n      swap3\n      pop\n        /* \"#utility.yul\":8464:8581   */\n      pop\n        /* \"#utility.yul\":8620:8622   */\n      0x20\n        /* \"#utility.yul\":8646:8699   */\n      tag_361\n        /* \"#utility.yul\":8691:8698   */\n      dup6\n        /* \"#utility.yul\":8682:8688   */\n      dup3\n        /* \"#utility.yul\":8671:8680   */\n      dup7\n        /* \"#utility.yul\":8667:8689   */\n      add\n        /* \"#utility.yul\":8646:8699   */\n      tag_217\n      jump\t// in\n    tag_361:\n        /* \"#utility.yul\":8636:8699   */\n      swap2\n      pop\n        /* \"#utility.yul\":8591:8709   */\n      pop\n        /* \"#utility.yul\":8242:8716   */\n      swap3\n      pop\n      swap3\n      swap1\n      pop\n      jump\t// out\n        /* \"#utility.yul\":8722:9519   */\n    tag_81:\n        /* \"#utility.yul\":8808:8814   */\n      0x00\n        /* \"#utility.yul\":8816:8822   */\n      dup1\n        /* \"#utility.yul\":8824:8830   */\n      0x00\n        /* \"#utility.yul\":8873:8875   */\n      0x60\n        /* \"#utility.yul\":8861:8870   */\n      dup5\n        /* \"#utility.yul\":8852:8859   */\n      dup7\n        /* \"#utility.yul\":8848:8871   */\n      sub\n        /* \"#utility.yul\":8844:8876   */\n      slt\n        /* \"#utility.yul\":8841:8960   */\n      iszero\n      tag_363\n      jumpi\n        /* \"#utility.yul\":8879:8958   */\n      tag_364\n      tag_212\n      jump\t// in\n    tag_364:\n        /* \"#utility.yul\":8841:8960   */\n    tag_363:\n        /* \"#utility.yul\":8999:9000   */\n      0x00\n        /* \"#utility.yul\":9024:9077   */\n      tag_365\n        /* \"#utility.yul\":9069:9076   */\n      dup7\n        /* \"#utility.yul\":9060:9066   */\n      dup3\n        /* \"#utility.yul\":9049:9058   */\n      dup8\n        /* \"#utility.yul\":9045:9067   */\n      add\n        /* \"#utility.yul\":9024:9077   */\n      tag_217\n      jump\t// in\n    tag_365:\n        /* \"#utility.yul\":9014:9077   */\n      swap4\n      pop\n        /* \"#utility.yul\":8970:9087   */\n      pop\n        /* \"#utility.yul\":9126:9128   */\n      0x20\n        /* \"#utility.yul\":9152:9205   */\n      tag_366\n        /* \"#utility.yul\":9197:9204   */\n      dup7\n        /* \"#utility.yul\":9188:9194   */\n      dup3\n        /* \"#utility.yul\":9177:9186   */\n      dup8\n        /* \"#utility.yul\":9173:9195   */\n      add\n        /* \"#utility.yul\":9152:9205   */\n      tag_220\n      jump\t// in\n    tag_366:\n        /* \"#utility.yul\":9142:9205   */\n      swap3\n      pop\n        /* \"#utility.yul\":9097:9215   */\n      pop\n        /* \"#utility.yul\":9282:9284   */\n      0x40\n        /* \"#utility.yul\":9271:9280   */\n      dup5\n        /* \"#utility.yul\":9267:9285   */\n      add\n        /* \"#utility.yul\":9254:9286   */\n      calldataload\n        /* \"#utility.yul\":9313:9331   */\n      0xffffffffffffffff\n        /* \"#utility.yul\":9305:9311   */\n      dup2\n        /* \"#utility.yul\":9302:9332   */\n      gt\n        /* \"#utility.yul\":9299:9416   */\n      iszero\n      tag_367\n      jumpi\n        /* \"#utility.yul\":9335:9414   */\n      tag_368\n      tag_213\n      jump\t// in\n    tag_368:\n        /* \"#utility.yul\":9299:9416   */\n    tag_367:\n        /* \"#utility.yul\":9440:9502   */\n      tag_369\n        /* \"#utility.yul\":9494:9501   */\n      dup7\n        /* \"#utility.yul\":9485:9491   */\n      dup3\n        /* \"#utility.yul\":9474:9483   */\n      dup8\n        /* \"#utility.yul\":9470:9492   */\n      add\n        /* \"#utility.yul\":9440:9502   */\n      tag_234\n      jump\t// in\n    tag_369:\n        /* \"#utility.yul\":9430:9502   */\n      swap2\n      pop\n        /* \"#utility.yul\":9225:9512   */\n      pop\n        /* \"#utility.yul\":8722:9519   */\n      swap3\n      pop\n      swap3\n      pop\n      swap3\n      jump\t// out\n        /* \"#utility.yul\":9525:9705   */\n    tag_235:\n        /* \"#utility.yul\":9573:9650   */\n      0x4e487b7100000000000000000000000000000000000000000000000000000000\n        /* \"#utility.yul\":9570:9571   */\n      0x00\n        /* \"#utility.yul\":9563:9651   */\n      mstore\n        /* \"#utility.yul\":9670:9674   */\n      0x22\n        /* \"#utility.yul\":9667:9668   */\n      0x04\n        /* \"#utility.yul\":9660:9675   */\n      mstore\n        /* \"#utility.yul\":9694:9698   */\n      0x24\n        /* \"#utility.yul\":9691:9692   */\n      0x00\n        /* \"#utility.yul\":9684:9699   */\n      revert\n        /* \"#utility.yul\":9711:10031   */\n    tag_85:\n        /* \"#utility.yul\":9755:9761   */\n      0x00\n        /* \"#utility.yul\":9792:9793   */\n      0x02\n        /* \"#utility.yul\":9786:9790   */\n      dup3\n        /* \"#utility.yul\":9782:9794   */\n      div\n        /* \"#utility.yul\":9772:9794   */\n      swap1\n      pop\n        /* \"#utility.yul\":9839:9840   */\n      0x01\n        /* \"#utility.yul\":9833:9837   */\n      dup3\n        /* \"#utility.yul\":9829:9841   */\n      and\n        /* \"#utility.yul\":9860:9878   */\n      dup1\n        /* \"#utility.yul\":9850:9931   */\n      tag_372\n      jumpi\n        /* \"#utility.yul\":9916:9920   */\n      0x7f\n        /* \"#utility.yul\":9908:9914   */\n      dup3\n        /* \"#utility.yul\":9904:9921   */\n      and\n        /* \"#utility.yul\":9894:9921   */\n      swap2\n      pop\n        /* \"#utility.yul\":9850:9931   */\n    tag_372:\n        /* \"#utility.yul\":9978:9980   */\n      0x20\n        /* \"#utility.yul\":9970:9976   */\n      dup3\n        /* \"#utility.yul\":9967:9981   */\n      lt\n        /* \"#utility.yul\":9947:9965   */\n      dup2\n        /* \"#utility.yul\":9944:9982   */\n      sub\n        /* \"#utility.yul\":9941:10025   */\n      tag_373\n      jumpi\n        /* \"#utility.yul\":9997:10015   */\n      tag_374\n      tag_235\n      jump\t// in\n    tag_374:\n        /* \"#utility.yul\":9941:10025   */\n    tag_373:\n        /* \"#utility.yul\":9762:10031   */\n      pop\n        /* \"#utility.yul\":9711:10031   */\n      swap2\n      swap1\n      pop\n      jump\t// out\n        /* \"#utility.yul\":10037:10217   */\n    tag_236:\n        /* \"#utility.yul\":10085:10162   */\n      0x4e487b7100000000000000000000000000000000000000000000000000000000\n        /* \"#utility.yul\":10082:10083   */\n      0x00\n        /* \"#utility.yul\":10075:10163   */\n      mstore\n        /* \"#utility.yul\":10182:10186   */\n      0x11\n        /* \"#utility.yul\":10179:10180   */\n      0x04\n        /* \"#utility.yul\":10172:10187   */\n      mstore\n        /* \"#utility.yul\":10206:10210   */\n      0x24\n        /* \"#utility.yul\":10203:10204   */\n      0x00\n        /* \"#utility.yul\":10196:10211   */\n      revert\n        /* \"#utility.yul\":10223:10414   */\n    tag_108:\n        /* \"#utility.yul\":10263:10266   */\n      0x00\n        /* \"#utility.yul\":10282:10302   */\n      tag_377\n        /* \"#utility.yul\":10300:10301   */\n      dup3\n        /* \"#utility.yul\":10282:10302   */\n      tag_218\n      jump\t// in\n    tag_377:\n        /* \"#utility.yul\":10277:10302   */\n      swap2\n      pop\n        /* \"#utility.yul\":10316:10336   */\n      tag_378\n        /* \"#utility.yul\":10334:10335   */\n      dup4\n        /* \"#utility.yul\":10316:10336   */\n      tag_218\n      jump\t// in\n    tag_378:\n        /* \"#utility.yul\":10311:10336   */\n      swap3\n      pop\n        /* \"#utility.yul\":10359:10360   */\n      dup3\n        /* \"#utility.yul\":10356:10357   */\n      dup3\n        /* \"#utility.yul\":10352:10361   */\n      add\n        /* \"#utility.yul\":10345:10361   */\n      swap1\n      pop\n        /* \"#utility.yul\":10380:10383   */\n      dup1\n        /* \"#utility.yul\":10377:10378   */\n      dup3\n        /* \"#utility.yul\":10374:10384   */\n      gt\n        /* \"#utility.yul\":10371:10407   */\n      iszero\n      tag_379\n      jumpi\n        /* \"#utility.yul\":10387:10405   */\n      tag_380\n      tag_236\n      jump\t// in\n    tag_380:\n        /* \"#utility.yul\":10371:10407   */\n    tag_379:\n        /* \"#utility.yul\":10223:10414   */\n      swap3\n      swap2\n      pop\n      pop\n      jump\t// out\n        /* \"#utility.yul\":10420:10643   */\n    tag_237:\n        /* \"#utility.yul\":10560:10594   */\n      0x4b4950373a2064656372656173656420616c6c6f77616e63652062656c6f7720\n        /* \"#utility.yul\":10556:10557   */\n      0x00\n        /* \"#utility.yul\":10548:10554   */\n      dup3\n        /* \"#utility.yul\":10544:10558   */\n      add\n        /* \"#utility.yul\":10537:10595   */\n      mstore\n        /* \"#utility.yul\":10629:10635   */\n      0x7a65726f00000000000000000000000000000000000000000000000000000000\n        /* \"#utility.yul\":10624:10626   */\n      0x20\n        /* \"#utility.yul\":10616:10622   */\n      dup3\n        /* \"#utility.yul\":10612:10627   */\n      add\n        /* \"#utility.yul\":10605:10636   */\n      mstore\n        /* \"#utility.yul\":10420:10643   */\n      pop\n      jump\t// out\n        /* \"#utility.yul\":10649:11015   */\n    tag_238:\n        /* \"#utility.yul\":10791:10794   */\n      0x00\n        /* \"#utility.yul\":10812:10879   */\n      tag_383\n        /* \"#utility.yul\":10876:10878   */\n      0x24\n        /* \"#utility.yul\":10871:10874   */\n      dup4\n        /* \"#utility.yul\":10812:10879   */\n      tag_207\n      jump\t// in\n    tag_383:\n        /* \"#utility.yul\":10805:10879   */\n      swap2\n      pop\n        /* \"#utility.yul\":10888:10981   */\n      tag_384\n        /* \"#utility.yul\":10977:10980   */\n      dup3\n        /* \"#utility.yul\":10888:10981   */\n      tag_237\n      jump\t// in\n    tag_384:\n        /* \"#utility.yul\":11006:11008   */\n      0x40\n        /* \"#utility.yul\":11001:11004   */\n      dup3\n        /* \"#utility.yul\":10997:11009   */\n      add\n        /* \"#utility.yul\":10990:11009   */\n      swap1\n      pop\n        /* \"#utility.yul\":10649:11015   */\n      swap2\n      swap1\n      pop\n      jump\t// out\n        /* \"#utility.yul\":11021:11440   */\n    tag_129:\n        /* \"#utility.yul\":11187:11191   */\n      0x00\n        /* \"#utility.yul\":11225:11227   */\n      0x20\n        /* \"#utility.yul\":11214:11223   */\n      dup3\n        /* \"#utility.yul\":11210:11228   */\n      add\n        /* \"#utility.yul\":11202:11228   */\n      swap1\n      pop\n        /* \"#utility.yul\":11274:11283   */\n      dup2\n        /* \"#utility.yul\":11268:11272   */\n      dup2\n        /* \"#utility.yul\":11264:11284   */\n      sub\n        /* \"#utility.yul\":11260:11261   */\n      0x00\n        /* \"#utility.yul\":11249:11258   */\n      dup4\n        /* \"#utility.yul\":11245:11262   */\n      add\n        /* \"#utility.yul\":11238:11285   */\n      mstore\n        /* \"#utility.yul\":11302:11433   */\n      tag_386\n        /* \"#utility.yul\":11428:11432   */\n      dup2\n        /* \"#utility.yul\":11302:11433   */\n      tag_238\n      jump\t// in\n    tag_386:\n        /* \"#utility.yul\":11294:11433   */\n      swap1\n      pop\n        /* \"#utility.yul\":11021:11440   */\n      swap2\n      swap1\n      pop\n      jump\t// out\n        /* \"#utility.yul\":11446:11668   */\n    tag_239:\n        /* \"#utility.yul\":11586:11620   */\n      0x4b4950373a20617070726f76652066726f6d20746865207a65726f2061646472\n        /* \"#utility.yul\":11582:11583   */\n      0x00\n        /* \"#utility.yul\":11574:11580   */\n      dup3\n        /* \"#utility.yul\":11570:11584   */\n      add\n        /* \"#utility.yul\":11563:11621   */\n      mstore\n        /* \"#utility.yul\":11655:11660   */\n      0x6573730000000000000000000000000000000000000000000000000000000000\n        /* \"#utility.yul\":11650:11652   */\n      0x20\n        /* \"#utility.yul\":11642:11648   */\n      dup3\n        /* \"#utility.yul\":11638:11653   */\n      add\n        /* \"#utility.yul\":11631:11661   */\n      mstore\n        /* \"#utility.yul\":11446:11668   */\n      pop\n      jump\t// out\n        /* \"#utility.yul\":11674:12040   */\n    tag_240:\n        /* \"#utility.yul\":11816:11819   */\n      0x00\n        /* \"#utility.yul\":11837:11904   */\n      tag_389\n        /* \"#utility.yul\":11901:11903   */\n      0x23\n        /* \"#utility.yul\":11896:11899   */\n      dup4\n        /* \"#utility.yul\":11837:11904   */\n      tag_207\n      jump\t// in\n    tag_389:\n        /* \"#utility.yul\":11830:11904   */\n      swap2\n      pop\n        /* \"#utility.yul\":11913:12006   */\n      tag_390\n        /* \"#utility.yul\":12002:12005   */\n      dup3\n        /* \"#utility.yul\":11913:12006   */\n      tag_239\n      jump\t// in\n    tag_390:\n        /* \"#utility.yul\":12031:12033   */\n      0x40\n        /* \"#utility.yul\":12026:12029   */\n      dup3\n        /* \"#utility.yul\":12022:12034   */\n      add\n        /* \"#utility.yul\":12015:12034   */\n      swap1\n      pop\n        /* \"#utility.yul\":11674:12040   */\n      swap2\n      swap1\n      pop\n      jump\t// out\n        /* \"#utility.yul\":12046:12465   */\n    tag_146:\n        /* \"#utility.yul\":12212:12216   */\n      0x00\n        /* \"#utility.yul\":12250:12252   */\n      0x20\n        /* \"#utility.yul\":12239:12248   */\n      dup3\n        /* \"#utility.yul\":12235:12253   */\n      add\n        /* \"#utility.yul\":12227:12253   */\n      swap1\n      pop\n        /* \"#utility.yul\":12299:12308   */\n      dup2\n        /* \"#utility.yul\":12293:12297   */\n      dup2\n        /* \"#utility.yul\":12289:12309   */\n      sub\n        /* \"#utility.yul\":12285:12286   */\n      0x00\n        /* \"#utility.yul\":12274:12283   */\n      dup4\n        /* \"#utility.yul\":12270:12287   */\n      add\n        /* \"#utility.yul\":12263:12310   */\n      mstore\n        /* \"#utility.yul\":12327:12458   */\n      tag_392\n        /* \"#utility.yul\":12453:12457   */\n      dup2\n        /* \"#utility.yul\":12327:12458   */\n      tag_240\n      jump\t// in\n    tag_392:\n        /* \"#utility.yul\":12319:12458   */\n      swap1\n      pop\n        /* \"#utility.yul\":12046:12465   */\n      swap2\n      swap1\n      pop\n      jump\t// out\n        /* \"#utility.yul\":12471:12691   */\n    tag_241:\n        /* \"#utility.yul\":12611:12645   */\n      0x4b4950373a20617070726f766520746f20746865207a65726f20616464726573\n        /* \"#utility.yul\":12607:12608   */\n      0x00\n        /* \"#utility.yul\":12599:12605   */\n      dup3\n        /* \"#utility.yul\":12595:12609   */\n      add\n        /* \"#utility.yul\":12588:12646   */\n      mstore\n        /* \"#utility.yul\":12680:12683   */\n      0x7300000000000000000000000000000000000000000000000000000000000000\n        /* \"#utility.yul\":12675:12677   */\n      0x20\n        /* \"#utility.yul\":12667:12673   */\n      dup3\n        /* \"#utility.yul\":12663:12678   */\n      add\n        /* \"#utility.yul\":12656:12684   */\n      mstore\n        /* \"#utility.yul\":12471:12691   */\n      pop\n      jump\t// out\n        /* \"#utility.yul\":12697:13063   */\n    tag_242:\n        /* \"#utility.yul\":12839:12842   */\n      0x00\n        /* \"#utility.yul\":12860:12927   */\n      tag_395\n        /* \"#utility.yul\":12924:12926   */\n      0x21\n        /* \"#utility.yul\":12919:12922   */\n      dup4\n        /* \"#utility.yul\":12860:12927   */\n      tag_207\n      jump\t// in\n    tag_395:\n        /* \"#utility.yul\":12853:12927   */\n      swap2\n      pop\n        /* \"#utility.yul\":12936:13029   */\n      tag_396\n        /* \"#utility.yul\":13025:13028   */\n      dup3\n        /* \"#utility.yul\":12936:13029   */\n      tag_241\n      jump\t// in\n    tag_396:\n        /* \"#utility.yul\":13054:13056   */\n      0x40\n        /* \"#utility.yul\":13049:13052   */\n      dup3\n        /* \"#utility.yul\":13045:13057   */\n      add\n        /* \"#utility.yul\":13038:13057   */\n      swap1\n      pop\n        /* \"#utility.yul\":12697:13063   */\n      swap2\n      swap1\n      pop\n      jump\t// out\n        /* \"#utility.yul\":13069:13488   */\n    tag_149:\n        /* \"#utility.yul\":13235:13239   */\n      0x00\n        /* \"#utility.yul\":13273:13275   */\n      0x20\n        /* \"#utility.yul\":13262:13271   */\n      dup3\n        /* \"#utility.yul\":13258:13276   */\n      add\n        /* \"#utility.yul\":13250:13276   */\n      swap1\n      pop\n        /* \"#utility.yul\":13322:13331   */\n      dup2\n        /* \"#utility.yul\":13316:13320   */\n      dup2\n        /* \"#utility.yul\":13312:13332   */\n      sub\n        /* \"#utility.yul\":13308:13309   */\n      0x00\n        /* \"#utility.yul\":13297:13306   */\n      dup4\n        /* \"#utility.yul\":13293:13310   */\n      add\n        /* \"#utility.yul\":13286:13333   */\n      mstore\n        /* \"#utility.yul\":13350:13481   */\n      tag_398\n        /* \"#utility.yul\":13476:13480   */\n      dup2\n        /* \"#utility.yul\":13350:13481   */\n      tag_242\n      jump\t// in\n    tag_398:\n        /* \"#utility.yul\":13342:13481   */\n      swap1\n      pop\n        /* \"#utility.yul\":13069:13488   */\n      swap2\n      swap1\n      pop\n      jump\t// out\n        /* \"#utility.yul\":13494:13672   */\n    tag_243:\n        /* \"#utility.yul\":13634:13664   */\n      0x4b4950373a20696e73756666696369656e7420616c6c6f77616e636500000000\n        /* \"#utility.yul\":13630:13631   */\n      0x00\n        /* \"#utility.yul\":13622:13628   */\n      dup3\n        /* \"#utility.yul\":13618:13632   */\n      add\n        /* \"#utility.yul\":13611:13665   */\n      mstore\n        /* \"#utility.yul\":13494:13672   */\n      pop\n      jump\t// out\n        /* \"#utility.yul\":13678:14044   */\n    tag_244:\n        /* \"#utility.yul\":13820:13823   */\n      0x00\n        /* \"#utility.yul\":13841:13908   */\n      tag_401\n        /* \"#utility.yul\":13905:13907   */\n      0x1c\n        /* \"#utility.yul\":13900:13903   */\n      dup4\n        /* \"#utility.yul\":13841:13908   */\n      tag_207\n      jump\t// in\n    tag_401:\n        /* \"#utility.yul\":13834:13908   */\n      swap2\n      pop\n        /* \"#utility.yul\":13917:14010   */\n      tag_402\n        /* \"#utility.yul\":14006:14009   */\n      dup3\n        /* \"#utility.yul\":13917:14010   */\n      tag_243\n      jump\t// in\n    tag_402:\n        /* \"#utility.yul\":14035:14037   */\n      0x20\n        /* \"#utility.yul\":14030:14033   */\n      dup3\n        /* \"#utility.yul\":14026:14038   */\n      add\n        /* \"#utility.yul\":14019:14038   */\n      swap1\n      pop\n        /* \"#utility.yul\":13678:14044   */\n      swap2\n      swap1\n      pop\n      jump\t// out\n        /* \"#utility.yul\":14050:14469   */\n    tag_156:\n        /* \"#utility.yul\":14216:14220   */\n      0x00\n        /* \"#utility.yul\":14254:14256   */\n      0x20\n        /* \"#utility.yul\":14243:14252   */\n      dup3\n        /* \"#utility.yul\":14239:14257   */\n      add\n        /* \"#utility.yul\":14231:14257   */\n      swap1\n      pop\n        /* \"#utility.yul\":14303:14312   */\n      dup2\n        /* \"#utility.yul\":14297:14301   */\n      dup2\n        /* \"#utility.yul\":14293:14313   */\n      sub\n        /* \"#utility.yul\":14289:14290   */\n      0x00\n        /* \"#utility.yul\":14278:14287   */\n      dup4\n        /* \"#utility.yul\":14274:14291   */\n      add\n        /* \"#utility.yul\":14267:14314   */\n      mstore\n        /* \"#utility.yul\":14331:14462   */\n      tag_404\n        /* \"#utility.yul\":14457:14461   */\n      dup2\n        /* \"#utility.yul\":14331:14462   */\n      tag_244\n      jump\t// in\n    tag_404:\n        /* \"#utility.yul\":14323:14462   */\n      swap1\n      pop\n        /* \"#utility.yul\":14050:14469   */\n      swap2\n      swap1\n      pop\n      jump\t// out\n        /* \"#utility.yul\":14475:14698   */\n    tag_245:\n        /* \"#utility.yul\":14615:14649   */\n      0x4b4950373a207472616e736665722066726f6d20746865207a65726f20616464\n        /* \"#utility.yul\":14611:14612   */\n      0x00\n        /* \"#utility.yul\":14603:14609   */\n      dup3\n        /* \"#utility.yul\":14599:14613   */\n      add\n        /* \"#utility.yul\":14592:14650   */\n      mstore\n        /* \"#utility.yul\":14684:14690   */\n      0x7265737300000000000000000000000000000000000000000000000000000000\n        /* \"#utility.yul\":14679:14681   */\n      0x20\n        /* \"#utility.yul\":14671:14677   */\n      dup3\n        /* \"#utility.yul\":14667:14682   */\n      add\n        /* \"#utility.yul\":14660:14691   */\n      mstore\n        /* \"#utility.yul\":14475:14698   */\n      pop\n      jump\t// out\n        /* \"#utility.yul\":14704:15070   */\n    tag_246:\n        /* \"#utility.yul\":14846:14849   */\n      0x00\n        /* \"#utility.yul\":14867:14934   */\n      tag_407\n        /* \"#utility.yul\":14931:14933   */\n      0x24\n        /* \"#utility.yul\":14926:14929   */\n      dup4\n        /* \"#utility.yul\":14867:14934   */\n      tag_207\n      jump\t// in\n    tag_407:\n        /* \"#utility.yul\":14860:14934   */\n      swap2\n      pop\n        /* \"#utility.yul\":14943:15036   */\n      tag_408\n        /* \"#utility.yul\":15032:15035   */\n      dup3\n        /* \"#utility.yul\":14943:15036   */\n      tag_245\n      jump\t// in\n    tag_408:\n        /* \"#utility.yul\":15061:15063   */\n      0x40\n        /* \"#utility.yul\":15056:15059   */\n      dup3\n        /* \"#utility.yul\":15052:15064   */\n      add\n        /* \"#utility.yul\":15045:15064   */\n      swap1\n      pop\n        /* \"#utility.yul\":14704:15070   */\n      swap2\n      swap1\n      pop\n      jump\t// out\n        /* \"#utility.yul\":15076:15495   */\n    tag_161:\n        /* \"#utility.yul\":15242:15246   */\n      0x00\n        /* \"#utility.yul\":15280:15282   */\n      0x20\n        /* \"#utility.yul\":15269:15278   */\n      dup3\n        /* \"#utility.yul\":15265:15283   */\n      add\n        /* \"#utility.yul\":15257:15283   */\n      swap1\n      pop\n        /* \"#utility.yul\":15329:15338   */\n      dup2\n        /* \"#utility.yul\":15323:15327   */\n      dup2\n        /* \"#utility.yul\":15319:15339   */\n      sub\n        /* \"#utility.yul\":15315:15316   */\n      0x00\n        /* \"#utility.yul\":15304:15313   */\n      dup4\n        /* \"#utility.yul\":15300:15317   */\n      add\n        /* \"#utility.yul\":15293:15340   */\n      mstore\n        /* \"#utility.yul\":15357:15488   */\n      tag_410\n        /* \"#utility.yul\":15483:15487   */\n      dup2\n        /* \"#utility.yul\":15357:15488   */\n      tag_246\n      jump\t// in\n    tag_410:\n        /* \"#utility.yul\":15349:15488   */\n      swap1\n      pop\n        /* \"#utility.yul\":15076:15495   */\n      swap2\n      swap1\n      pop\n      jump\t// out\n        /* \"#utility.yul\":15501:15722   */\n    tag_247:\n        /* \"#utility.yul\":15641:15675   */\n      0x4b4950373a207472616e7366657220746f20746865207a65726f206164647265\n        /* \"#utility.yul\":15637:15638   */\n      0x00\n        /* \"#utility.yul\":15629:15635   */\n      dup3\n        /* \"#utility.yul\":15625:15639   */\n      add\n        /* \"#utility.yul\":15618:15676   */\n      mstore\n        /* \"#utility.yul\":15710:15714   */\n      0x7373000000000000000000000000000000000000000000000000000000000000\n        /* \"#utility.yul\":15705:15707   */\n      0x20\n        /* \"#utility.yul\":15697:15703   */\n      dup3\n        /* \"#utility.yul\":15693:15708   */\n      add\n        /* \"#utility.yul\":15686:15715   */\n      mstore\n        /* \"#utility.yul\":15501:15722   */\n      pop\n      jump\t// out\n        /* \"#utility.yul\":15728:16094   */\n    tag_248:\n        /* \"#utility.yul\":15870:15873   */\n      0x00\n        /* \"#utility.yul\":15891:15958   */\n      tag_413\n        /* \"#utility.yul\":15955:15957   */\n      0x22\n        /* \"#utility.yul\":15950:15953   */\n      dup4\n        /* \"#utility.yul\":15891:15958   */\n      tag_207\n      jump\t// in\n    tag_413:\n        /* \"#utility.yul\":15884:15958   */\n      swap2\n      pop\n        /* \"#utility.yul\":15967:16060   */\n      tag_414\n        /* \"#utility.yul\":16056:16059   */\n      dup3\n        /* \"#utility.yul\":15967:16060   */\n      tag_247\n      jump\t// in\n    tag_414:\n        /* \"#utility.yul\":16085:16087   */\n      0x40\n        /* \"#utility.yul\":16080:16083   */\n      dup3\n        /* \"#utility.yul\":16076:16088   */\n      add\n        /* \"#utility.yul\":16069:16088   */\n      swap1\n      pop\n        /* \"#utility.yul\":15728:16094   */\n      swap2\n      swap1\n      pop\n      jump\t// out\n        /* \"#utility.yul\":16100:16519   */\n    tag_164:\n        /* \"#utility.yul\":16266:16270   */\n      0x00\n        /* \"#utility.yul\":16304:16306   */\n      0x20\n        /* \"#utility.yul\":16293:16302   */\n      dup3\n        /* \"#utility.yul\":16289:16307   */\n      add\n        /* \"#utility.yul\":16281:16307   */\n      swap1\n      pop\n        /* \"#utility.yul\":16353:16362   */\n      dup2\n        /* \"#utility.yul\":16347:16351   */\n      dup2\n        /* \"#utility.yul\":16343:16363   */\n      sub\n        /* \"#utility.yul\":16339:16340   */\n      0x00\n        /* \"#utility.yul\":16328:16337   */\n      dup4\n        /* \"#utility.yul\":16324:16341   */\n      add\n        /* \"#utility.yul\":16317:16364   */\n      mstore\n        /* \"#utility.yul\":16381:16512   */\n      tag_416\n        /* \"#utility.yul\":16507:16511   */\n      dup2\n        /* \"#utility.yul\":16381:16512   */\n      tag_248\n      jump\t// in\n    tag_416:\n        /* \"#utility.yul\":16373:16512   */\n      swap1\n      pop\n        /* \"#utility.yul\":16100:16519   */\n      swap2\n      swap1\n      pop\n      jump\t// out\n        /* \"#utility.yul\":16525:16749   */\n    tag_249:\n        /* \"#utility.yul\":16665:16699   */\n      0x4b4950373a207472616e7366657220616d6f756e742065786365656473206261\n        /* \"#utility.yul\":16661:16662   */\n      0x00\n        /* \"#utility.yul\":16653:16659   */\n      dup3\n        /* \"#utility.yul\":16649:16663   */\n      add\n        /* \"#utility.yul\":16642:16700   */\n      mstore\n        /* \"#utility.yul\":16734:16741   */\n      0x6c616e6365000000000000000000000000000000000000000000000000000000\n        /* \"#utility.yul\":16729:16731   */\n      0x20\n        /* \"#utility.yul\":16721:16727   */\n      dup3\n        /* \"#utility.yul\":16717:16732   */\n      add\n        /* \"#utility.yul\":16710:16742   */\n      mstore\n        /* \"#utility.yul\":16525:16749   */\n      pop\n      jump\t// out\n        /* \"#utility.yul\":16755:17121   */\n    tag_250:\n        /* \"#utility.yul\":16897:16900   */\n      0x00\n        /* \"#utility.yul\":16918:16985   */\n      tag_419\n        /* \"#utility.yul\":16982:16984   */\n      0x25\n        /* \"#utility.yul\":16977:16980   */\n      dup4\n        /* \"#utility.yul\":16918:16985   */\n      tag_207\n      jump\t// in\n    tag_419:\n        /* \"#utility.yul\":16911:16985   */\n      swap2\n      pop\n        /* \"#utility.yul\":16994:17087   */\n      tag_420\n        /* \"#utility.yul\":17083:17086   */\n      dup3\n        /* \"#utility.yul\":16994:17087   */\n      tag_249\n      jump\t// in\n    tag_420:\n        /* \"#utility.yul\":17112:17114   */\n      0x40\n        /* \"#utility.yul\":17107:17110   */\n      dup3\n        /* \"#utility.yul\":17103:17115   */\n      add\n        /* \"#utility.yul\":17096:17115   */\n      swap1\n      pop\n        /* \"#utility.yul\":16755:17121   */\n      swap2\n      swap1\n      pop\n      jump\t// out\n        /* \"#utility.yul\":17127:17546   */\n    tag_169:\n        /* \"#utility.yul\":17293:17297   */\n      0x00\n        /* \"#utility.yul\":17331:17333   */\n      0x20\n        /* \"#utility.yul\":17320:17329   */\n      dup3\n        /* \"#utility.yul\":17316:17334   */\n      add\n        /* \"#utility.yul\":17308:17334   */\n      swap1\n      pop\n        /* \"#utility.yul\":17380:17389   */\n      dup2\n        /* \"#utility.yul\":17374:17378   */\n      dup2\n        /* \"#utility.yul\":17370:17390   */\n      sub\n        /* \"#utility.yul\":17366:17367   */\n      0x00\n        /* \"#utility.yul\":17355:17364   */\n      dup4\n        /* \"#utility.yul\":17351:17368   */\n      add\n        /* \"#utility.yul\":17344:17391   */\n      mstore\n        /* \"#utility.yul\":17408:17539   */\n      tag_422\n        /* \"#utility.yul\":17534:17538   */\n      dup2\n        /* \"#utility.yul\":17408:17539   */\n      tag_250\n      jump\t// in\n    tag_422:\n        /* \"#utility.yul\":17400:17539   */\n      swap1\n      pop\n        /* \"#utility.yul\":17127:17546   */\n      swap2\n      swap1\n      pop\n      jump\t// out\n        /* \"#utility.yul\":17552:17786   */\n    tag_251:\n        /* \"#utility.yul\":17692:17726   */\n      0x4b4950373a207472616e7366657220746f206e6f6e20494b4950375265636569\n        /* \"#utility.yul\":17688:17689   */\n      0x00\n        /* \"#utility.yul\":17680:17686   */\n      dup3\n        /* \"#utility.yul\":17676:17690   */\n      add\n        /* \"#utility.yul\":17669:17727   */\n      mstore\n        /* \"#utility.yul\":17761:17778   */\n      0x76657220696d706c656d656e7465720000000000000000000000000000000000\n        /* \"#utility.yul\":17756:17758   */\n      0x20\n        /* \"#utility.yul\":17748:17754   */\n      dup3\n        /* \"#utility.yul\":17744:17759   */\n      add\n        /* \"#utility.yul\":17737:17779   */\n      mstore\n        /* \"#utility.yul\":17552:17786   */\n      pop\n      jump\t// out\n        /* \"#utility.yul\":17792:18158   */\n    tag_252:\n        /* \"#utility.yul\":17934:17937   */\n      0x00\n        /* \"#utility.yul\":17955:18022   */\n      tag_425\n        /* \"#utility.yul\":18019:18021   */\n      0x2f\n        /* \"#utility.yul\":18014:18017   */\n      dup4\n        /* \"#utility.yul\":17955:18022   */\n      tag_207\n      jump\t// in\n    tag_425:\n        /* \"#utility.yul\":17948:18022   */\n      swap2\n      pop\n        /* \"#utility.yul\":18031:18124   */\n      tag_426\n        /* \"#utility.yul\":18120:18123   */\n      dup3\n        /* \"#utility.yul\":18031:18124   */\n      tag_251\n      jump\t// in\n    tag_426:\n        /* \"#utility.yul\":18149:18151   */\n      0x40\n        /* \"#utility.yul\":18144:18147   */\n      dup3\n        /* \"#utility.yul\":18140:18152   */\n      add\n        /* \"#utility.yul\":18133:18152   */\n      swap1\n      pop\n        /* \"#utility.yul\":17792:18158   */\n      swap2\n      swap1\n      pop\n      jump\t// out\n        /* \"#utility.yul\":18164:18583   */\n    tag_180:\n        /* \"#utility.yul\":18330:18334   */\n      0x00\n        /* \"#utility.yul\":18368:18370   */\n      0x20\n        /* \"#utility.yul\":18357:18366   */\n      dup3\n        /* \"#utility.yul\":18353:18371   */\n      add\n        /* \"#utility.yul\":18345:18371   */\n      swap1\n      pop\n        /* \"#utility.yul\":18417:18426   */\n      dup2\n        /* \"#utility.yul\":18411:18415   */\n      dup2\n        /* \"#utility.yul\":18407:18427   */\n      sub\n        /* \"#utility.yul\":18403:18404   */\n      0x00\n        /* \"#utility.yul\":18392:18401   */\n      dup4\n        /* \"#utility.yul\":18388:18405   */\n      add\n        /* \"#utility.yul\":18381:18428   */\n      mstore\n        /* \"#utility.yul\":18445:18576   */\n      tag_428\n        /* \"#utility.yul\":18571:18575   */\n      dup2\n        /* \"#utility.yul\":18445:18576   */\n      tag_252\n      jump\t// in\n    tag_428:\n        /* \"#utility.yul\":18437:18576   */\n      swap1\n      pop\n        /* \"#utility.yul\":18164:18583   */\n      swap2\n      swap1\n      pop\n      jump\t// out\n        /* \"#utility.yul\":18589:18707   */\n    tag_253:\n        /* \"#utility.yul\":18676:18700   */\n      tag_430\n        /* \"#utility.yul\":18694:18699   */\n      dup2\n        /* \"#utility.yul\":18676:18700   */\n      tag_215\n      jump\t// in\n    tag_430:\n        /* \"#utility.yul\":18671:18674   */\n      dup3\n        /* \"#utility.yul\":18664:18701   */\n      mstore\n        /* \"#utility.yul\":18589:18707   */\n      pop\n      pop\n      jump\t// out\n        /* \"#utility.yul\":18713:18811   */\n    tag_254:\n        /* \"#utility.yul\":18764:18770   */\n      0x00\n        /* \"#utility.yul\":18798:18803   */\n      dup2\n        /* \"#utility.yul\":18792:18804   */\n      mload\n        /* \"#utility.yul\":18782:18804   */\n      swap1\n      pop\n        /* \"#utility.yul\":18713:18811   */\n      swap2\n      swap1\n      pop\n      jump\t// out\n        /* \"#utility.yul\":18817:18985   */\n    tag_255:\n        /* \"#utility.yul\":18900:18911   */\n      0x00\n        /* \"#utility.yul\":18934:18940   */\n      dup3\n        /* \"#utility.yul\":18929:18932   */\n      dup3\n        /* \"#utility.yul\":18922:18941   */\n      mstore\n        /* \"#utility.yul\":18974:18978   */\n      0x20\n        /* \"#utility.yul\":18969:18972   */\n      dup3\n        /* \"#utility.yul\":18965:18979   */\n      add\n        /* \"#utility.yul\":18950:18979   */\n      swap1\n      pop\n        /* \"#utility.yul\":18817:18985   */\n      swap3\n      swap2\n      pop\n      pop\n      jump\t// out\n        /* \"#utility.yul\":18991:19364   */\n    tag_256:\n        /* \"#utility.yul\":19077:19080   */\n      0x00\n        /* \"#utility.yul\":19105:19143   */\n      tag_434\n        /* \"#utility.yul\":19137:19142   */\n      dup3\n        /* \"#utility.yul\":19105:19143   */\n      tag_254\n      jump\t// in\n    tag_434:\n        /* \"#utility.yul\":19159:19229   */\n      tag_435\n        /* \"#utility.yul\":19222:19228   */\n      dup2\n        /* \"#utility.yul\":19217:19220   */\n      dup6\n        /* \"#utility.yul\":19159:19229   */\n      tag_255\n      jump\t// in\n    tag_435:\n        /* \"#utility.yul\":19152:19229   */\n      swap4\n      pop\n        /* \"#utility.yul\":19238:19303   */\n      tag_436\n        /* \"#utility.yul\":19296:19302   */\n      dup2\n        /* \"#utility.yul\":19291:19294   */\n      dup6\n        /* \"#utility.yul\":19284:19288   */\n      0x20\n        /* \"#utility.yul\":19277:19282   */\n      dup7\n        /* \"#utility.yul\":19273:19289   */\n      add\n        /* \"#utility.yul\":19238:19303   */\n      tag_208\n      jump\t// in\n    tag_436:\n        /* \"#utility.yul\":19328:19357   */\n      tag_437\n        /* \"#utility.yul\":19350:19356   */\n      dup2\n        /* \"#utility.yul\":19328:19357   */\n      tag_209\n      jump\t// in\n    tag_437:\n        /* \"#utility.yul\":19323:19326   */\n      dup5\n        /* \"#utility.yul\":19319:19358   */\n      add\n        /* \"#utility.yul\":19312:19358   */\n      swap2\n      pop\n        /* \"#utility.yul\":19081:19364   */\n      pop\n        /* \"#utility.yul\":18991:19364   */\n      swap3\n      swap2\n      pop\n      pop\n      jump\t// out\n        /* \"#utility.yul\":19370:20010   */\n    tag_189:\n        /* \"#utility.yul\":19565:19569   */\n      0x00\n        /* \"#utility.yul\":19603:19606   */\n      0x80\n        /* \"#utility.yul\":19592:19601   */\n      dup3\n        /* \"#utility.yul\":19588:19607   */\n      add\n        /* \"#utility.yul\":19580:19607   */\n      swap1\n      pop\n        /* \"#utility.yul\":19617:19688   */\n      tag_439\n        /* \"#utility.yul\":19685:19686   */\n      0x00\n        /* \"#utility.yul\":19674:19683   */\n      dup4\n        /* \"#utility.yul\":19670:19687   */\n      add\n        /* \"#utility.yul\":19661:19667   */\n      dup8\n        /* \"#utility.yul\":19617:19688   */\n      tag_253\n      jump\t// in\n    tag_439:\n        /* \"#utility.yul\":19698:19770   */\n      tag_440\n        /* \"#utility.yul\":19766:19768   */\n      0x20\n        /* \"#utility.yul\":19755:19764   */\n      dup4\n        /* \"#utility.yul\":19751:19769   */\n      add\n        /* \"#utility.yul\":19742:19748   */\n      dup7\n        /* \"#utility.yul\":19698:19770   */\n      tag_253\n      jump\t// in\n    tag_440:\n        /* \"#utility.yul\":19780:19852   */\n      tag_441\n        /* \"#utility.yul\":19848:19850   */\n      0x40\n        /* \"#utility.yul\":19837:19846   */\n      dup4\n        /* \"#utility.yul\":19833:19851   */\n      add\n        /* \"#utility.yul\":19824:19830   */\n      dup6\n        /* \"#utility.yul\":19780:19852   */\n      tag_223\n      jump\t// in\n    tag_441:\n        /* \"#utility.yul\":19899:19908   */\n      dup2\n        /* \"#utility.yul\":19893:19897   */\n      dup2\n        /* \"#utility.yul\":19889:19909   */\n      sub\n        /* \"#utility.yul\":19884:19886   */\n      0x60\n        /* \"#utility.yul\":19873:19882   */\n      dup4\n        /* \"#utility.yul\":19869:19887   */\n      add\n        /* \"#utility.yul\":19862:19910   */\n      mstore\n        /* \"#utility.yul\":19927:20003   */\n      tag_442\n        /* \"#utility.yul\":19998:20002   */\n      dup2\n        /* \"#utility.yul\":19989:19995   */\n      dup5\n        /* \"#utility.yul\":19927:20003   */\n      tag_256\n      jump\t// in\n    tag_442:\n        /* \"#utility.yul\":19919:20003   */\n      swap1\n      pop\n        /* \"#utility.yul\":19370:20010   */\n      swap6\n      swap5\n      pop\n      pop\n      pop\n      pop\n      pop\n      jump\t// out\n        /* \"#utility.yul\":20016:20165   */\n    tag_257:\n        /* \"#utility.yul\":20052:20059   */\n      0x00\n        /* \"#utility.yul\":20092:20158   */\n      0xffffffff00000000000000000000000000000000000000000000000000000000\n        /* \"#utility.yul\":20085:20090   */\n      dup3\n        /* \"#utility.yul\":20081:20159   */\n      and\n        /* \"#utility.yul\":20070:20159   */\n      swap1\n      pop\n        /* \"#utility.yul\":20016:20165   */\n      swap2\n      swap1\n      pop\n      jump\t// out\n        /* \"#utility.yul\":20171:20291   */\n    tag_258:\n        /* \"#utility.yul\":20243:20266   */\n      tag_445\n        /* \"#utility.yul\":20260:20265   */\n      dup2\n        /* \"#utility.yul\":20243:20266   */\n      tag_257\n      jump\t// in\n    tag_445:\n        /* \"#utility.yul\":20236:20241   */\n      dup2\n        /* \"#utility.yul\":20233:20267   */\n      eq\n        /* \"#utility.yul\":20223:20285   */\n      tag_446\n      jumpi\n        /* \"#utility.yul\":20281:20282   */\n      0x00\n        /* \"#utility.yul\":20278:20279   */\n      dup1\n        /* \"#utility.yul\":20271:20283   */\n      revert\n        /* \"#utility.yul\":20223:20285   */\n    tag_446:\n        /* \"#utility.yul\":20171:20291   */\n      pop\n      jump\t// out\n        /* \"#utility.yul\":20297:20438   */\n    tag_259:\n        /* \"#utility.yul\":20353:20358   */\n      0x00\n        /* \"#utility.yul\":20384:20390   */\n      dup2\n        /* \"#utility.yul\":20378:20391   */\n      mload\n        /* \"#utility.yul\":20369:20391   */\n      swap1\n      pop\n        /* \"#utility.yul\":20400:20432   */\n      tag_448\n        /* \"#utility.yul\":20426:20431   */\n      dup2\n        /* \"#utility.yul\":20400:20432   */\n      tag_258\n      jump\t// in\n    tag_448:\n        /* \"#utility.yul\":20297:20438   */\n      swap3\n      swap2\n      pop\n      pop\n      jump\t// out\n        /* \"#utility.yul\":20444:20793   */\n    tag_192:\n        /* \"#utility.yul\":20513:20519   */\n      0x00\n        /* \"#utility.yul\":20562:20564   */\n      0x20\n        /* \"#utility.yul\":20550:20559   */\n      dup3\n        /* \"#utility.yul\":20541:20548   */\n      dup5\n        /* \"#utility.yul\":20537:20560   */\n      sub\n        /* \"#utility.yul\":20533:20565   */\n      slt\n        /* \"#utility.yul\":20530:20649   */\n      iszero\n      tag_450\n      jumpi\n        /* \"#utility.yul\":20568:20647   */\n      tag_451\n      tag_212\n      jump\t// in\n    tag_451:\n        /* \"#utility.yul\":20530:20649   */\n    tag_450:\n        /* \"#utility.yul\":20688:20689   */\n      0x00\n        /* \"#utility.yul\":20713:20776   */\n      tag_452\n        /* \"#utility.yul\":20768:20775   */\n      dup5\n        /* \"#utility.yul\":20759:20765   */\n      dup3\n        /* \"#utility.yul\":20748:20757   */\n      dup6\n        /* \"#utility.yul\":20744:20766   */\n      add\n        /* \"#utility.yul\":20713:20776   */\n      tag_259\n      jump\t// in\n    tag_452:\n        /* \"#utility.yul\":20703:20776   */\n      swap2\n      pop\n        /* \"#utility.yul\":20659:20786   */\n      pop\n        /* \"#utility.yul\":20444:20793   */\n      swap3\n      swap2\n      pop\n      pop\n      jump\t// out\n        /* \"#utility.yul\":20799:21032   */\n    tag_260:\n        /* \"#utility.yul\":20939:20973   */\n      0x4b4950373a207472616e7366657220746f206e6f6e204b495037526563656976\n        /* \"#utility.yul\":20935:20936   */\n      0x00\n        /* \"#utility.yul\":20927:20933   */\n      dup3\n        /* \"#utility.yul\":20923:20937   */\n      add\n        /* \"#utility.yul\":20916:20974   */\n      mstore\n        /* \"#utility.yul\":21008:21024   */\n      0x657220696d706c656d656e746572000000000000000000000000000000000000\n        /* \"#utility.yul\":21003:21005   */\n      0x20\n        /* \"#utility.yul\":20995:21001   */\n      dup3\n        /* \"#utility.yul\":20991:21006   */\n      add\n        /* \"#utility.yul\":20984:21025   */\n      mstore\n        /* \"#utility.yul\":20799:21032   */\n      pop\n      jump\t// out\n        /* \"#utility.yul\":21038:21404   */\n    tag_261:\n        /* \"#utility.yul\":21180:21183   */\n      0x00\n        /* \"#utility.yul\":21201:21268   */\n      tag_455\n        /* \"#utility.yul\":21265:21267   */\n      0x2e\n        /* \"#utility.yul\":21260:21263   */\n      dup4\n        /* \"#utility.yul\":21201:21268   */\n      tag_207\n      jump\t// in\n    tag_455:\n        /* \"#utility.yul\":21194:21268   */\n      swap2\n      pop\n        /* \"#utility.yul\":21277:21370   */\n      tag_456\n        /* \"#utility.yul\":21366:21369   */\n      dup3\n        /* \"#utility.yul\":21277:21370   */\n      tag_260\n      jump\t// in\n    tag_456:\n        /* \"#utility.yul\":21395:21397   */\n      0x40\n        /* \"#utility.yul\":21390:21393   */\n      dup3\n        /* \"#utility.yul\":21386:21398   */\n      add\n        /* \"#utility.yul\":21379:21398   */\n      swap1\n      pop\n        /* \"#utility.yul\":21038:21404   */\n      swap2\n      swap1\n      pop\n      jump\t// out\n        /* \"#utility.yul\":21410:21829   */\n    tag_201:\n        /* \"#utility.yul\":21576:21580   */\n      0x00\n        /* \"#utility.yul\":21614:21616   */\n      0x20\n        /* \"#utility.yul\":21603:21612   */\n      dup3\n        /* \"#utility.yul\":21599:21617   */\n      add\n        /* \"#utility.yul\":21591:21617   */\n      swap1\n      pop\n        /* \"#utility.yul\":21663:21672   */\n      dup2\n        /* \"#utility.yul\":21657:21661   */\n      dup2\n        /* \"#utility.yul\":21653:21673   */\n      sub\n        /* \"#utility.yul\":21649:21650   */\n      0x00\n        /* \"#utility.yul\":21638:21647   */\n      dup4\n        /* \"#utility.yul\":21634:21651   */\n      add\n        /* \"#utility.yul\":21627:21674   */\n      mstore\n        /* \"#utility.yul\":21691:21822   */\n      tag_458\n        /* \"#utility.yul\":21817:21821   */\n      dup2\n        /* \"#utility.yul\":21691:21822   */\n      tag_261\n      jump\t// in\n    tag_458:\n        /* \"#utility.yul\":21683:21822   */\n      swap1\n      pop\n        /* \"#utility.yul\":21410:21829   */\n      swap2\n      swap1\n      pop\n      jump\t// out\n\n    auxdata: 0xa26469706673582212209058715b1e0e27e6f1a485046474033c1117ed3ecb121a08190afb02b694bcd364736f6c63430008120033\n}\n",
				"bytecode": {
					"linkReferences": {},
					"object": "60806040523480156200001157600080fd5b5060405162001ff238038062001ff28339818101604052810190620000379190620001f6565b8160039081620000489190620004c6565b5080600490816200005a9190620004c6565b505050620005ad565b6000604051905090565b600080fd5b600080fd5b600080fd5b600080fd5b6000601f19601f8301169050919050565b7f4e487b7100000000000000000000000000000000000000000000000000000000600052604160045260246000fd5b620000cc8262000081565b810181811067ffffffffffffffff82111715620000ee57620000ed62000092565b5b80604052505050565b60006200010362000063565b9050620001118282620000c1565b919050565b600067ffffffffffffffff82111562000134576200013362000092565b5b6200013f8262000081565b9050602081019050919050565b60005b838110156200016c5780820151818401526020810190506200014f565b60008484015250505050565b60006200018f620001898462000116565b620000f7565b905082815260208101848484011115620001ae57620001ad6200007c565b5b620001bb8482856200014c565b509392505050565b600082601f830112620001db57620001da62000077565b5b8151620001ed84826020860162000178565b91505092915050565b6000806040838503121562000210576200020f6200006d565b5b600083015167ffffffffffffffff81111562000231576200023062000072565b5b6200023f85828601620001c3565b925050602083015167ffffffffffffffff81111562000263576200026262000072565b5b6200027185828601620001c3565b9150509250929050565b600081519050919050565b7f4e487b7100000000000000000000000000000000000000000000000000000000600052602260045260246000fd5b60006002820490506001821680620002ce57607f821691505b602082108103620002e457620002e362000286565b5b50919050565b60008190508160005260206000209050919050565b60006020601f8301049050919050565b600082821b905092915050565b6000600883026200034e7fffffffffffffffffffffffffffffffffffffffffffffffffffffffffffffffff826200030f565b6200035a86836200030f565b95508019841693508086168417925050509392505050565b6000819050919050565b6000819050919050565b6000620003a7620003a16200039b8462000372565b6200037c565b62000372565b9050919050565b6000819050919050565b620003c38362000386565b620003db620003d282620003ae565b8484546200031c565b825550505050565b600090565b620003f2620003e3565b620003ff818484620003b8565b505050565b5b8181101562000427576200041b600082620003e8565b60018101905062000405565b5050565b601f82111562000476576200044081620002ea565b6200044b84620002ff565b810160208510156200045b578190505b620004736200046a85620002ff565b83018262000404565b50505b505050565b600082821c905092915050565b60006200049b600019846008026200047b565b1980831691505092915050565b6000620004b6838362000488565b9150826002028217905092915050565b620004d1826200027b565b67ffffffffffffffff811115620004ed57620004ec62000092565b5b620004f98254620002b5565b620005068282856200042b565b600060209050601f8311600181146200053e576000841562000529578287015190505b620005358582620004a8565b865550620005a5565b601f1984166200054e86620002ea565b60005b82811015620005785784890151825560018201915060208501945060208101905062000551565b8683101562000598578489015162000594601f89168262000488565b8355505b6001600288020188555050505b505050505050565b611a3580620005bd6000396000f3fe608060405234801561001057600080fd5b50600436106100f55760003560e01c806342842e0e11610097578063a9059cbb11610066578063a9059cbb1461029a578063b88d4fde146102ca578063dd62ed3e146102e6578063eb79554914610316576100f5565b806342842e0e1461020057806370a082311461021c57806395d89b411461024c578063a457c2d71461026a576100f5565b806323b872dd116100d357806323b872dd14610166578063313ce5671461019657806339509351146101b4578063423f6cef146101e4576100f5565b806306fdde03146100fa578063095ea7b31461011857806318160ddd14610148575b600080fd5b610102610332565b60405161010f9190610e83565b60405180910390f35b610132600480360381019061012d9190610f4d565b6103c4565b60405161013f9190610fa8565b60405180910390f35b6101506103e7565b60405161015d9190610fd2565b60405180910390f35b610180600480360381019061017b9190610fed565b6103f1565b60405161018d9190610fa8565b60405180910390f35b61019e610420565b6040516101ab919061105c565b60405180910390f35b6101ce60048036038101906101c99190610f4d565b610429565b6040516101db9190610fa8565b60405180910390f35b6101fe60048036038101906101f99190610f4d565b610460565b005b61021a60048036038101906102159190610fed565b61048c565b005b61023660048036038101906102319190611077565b6104c4565b6040516102439190610fd2565b60405180910390f35b61025461050c565b6040516102619190610e83565b60405180910390f35b610284600480360381019061027f9190610f4d565b61059e565b6040516102919190610fa8565b60405180910390f35b6102b460048036038101906102af9190610f4d565b610615565b6040516102c19190610fa8565b60405180910390f35b6102e460048036038101906102df91906111d9565b610638565b005b61030060048036038101906102fb919061125c565b610662565b60405161030d9190610fd2565b60405180910390f35b610330600480360381019061032b919061129c565b6106e9565b005b6060600380546103419061133a565b80601f016020809104026020016040519081016040528092919081815260200182805461036d9061133a565b80156103ba5780601f1061038f576101008083540402835291602001916103ba565b820191906000526020600020905b81548152906001019060200180831161039d57829003601f168201915b5050505050905090565b6000806103cf610707565b90506103dc81858561070f565b600191505092915050565b6000600254905090565b6000806103fc610707565b90506104098582856108d8565b610414858585610964565b60019150509392505050565b60006012905090565b600080610434610707565b90506104558185856104468589610662565b610450919061139a565b61070f565b600191505092915050565b600061046a610707565b905061048781848460405180602001604052806000815250610be3565b505050565b6000610496610707565b90506104a38482846108d8565b6104be84848460405180602001604052806000815250610be3565b50505050565b60008060008373ffffffffffffffffffffffffffffffffffffffff1673ffffffffffffffffffffffffffffffffffffffff168152602001908152602001600020549050919050565b60606004805461051b9061133a565b80601f01602080910402602001604051908101604052809291908181526020018280546105479061133a565b80156105945780601f1061056957610100808354040283529160200191610594565b820191906000526020600020905b81548152906001019060200180831161057757829003601f168201915b5050505050905090565b6000806105a9610707565b905060006105b78286610662565b9050838110156105fc576040517f08c379a00000000000000000000000000000000000000000000000000000000081526004016105f390611440565b60405180910390fd5b610609828686840361070f565b60019250505092915050565b600080610620610707565b905061062d818585610964565b600191505092915050565b6000610642610707565b905061064f8582856108d8565b61065b85858585610be3565b5050505050565b6000600160008473ffffffffffffffffffffffffffffffffffffffff1673ffffffffffffffffffffffffffffffffffffffff16815260200190815260200160002060008373ffffffffffffffffffffffffffffffffffffffff1673ffffffffffffffffffffffffffffffffffffffff16815260200190815260200160002054905092915050565b60006106f3610707565b905061070181858585610be3565b50505050565b600033905090565b600073ffffffffffffffffffffffffffffffffffffffff168373ffffffffffffffffffffffffffffffffffffffff160361077e576040517f08c379a0000000000000000000000000000000000000000000000000000000008152600401610775906114d2565b60405180910390fd5b600073ffffffffffffffffffffffffffffffffffffffff168273ffffffffffffffffffffffffffffffffffffffff16036107ed576040517f08c379a00000000000000000000000000000000000000000000000000000000081526004016107e490611564565b60405180910390fd5b80600160008573ffffffffffffffffffffffffffffffffffffffff1673ffffffffffffffffffffffffffffffffffffffff16815260200190815260200160002060008473ffffffffffffffffffffffffffffffffffffffff1673ffffffffffffffffffffffffffffffffffffffff168152602001908152602001600020819055508173ffffffffffffffffffffffffffffffffffffffff168373ffffffffffffffffffffffffffffffffffffffff167f8c5be1e5ebec7d5bd14f71427d1e84f3dd0314c0f7b2291e5b200ac8c7c3b925836040516108cb9190610fd2565b60405180910390a3505050565b60006108e48484610662565b90507fffffffffffffffffffffffffffffffffffffffffffffffffffffffffffffffff811461095e5781811015610950576040517f08c379a0000000000000000000000000000000000000000000000000000000008152600401610947906115d0565b60405180910390fd5b61095d848484840361070f565b5b50505050565b600073ffffffffffffffffffffffffffffffffffffffff168373ffffffffffffffffffffffffffffffffffffffff16036109d3576040517f08c379a00000000000000000000000000000000000000000000000000000000081526004016109ca90611662565b60405180910390fd5b600073ffffffffffffffffffffffffffffffffffffffff168273ffffffffffffffffffffffffffffffffffffffff1603610a42576040517f08c379a0000000000000000000000000000000000000000000000000000000008152600401610a39906116f4565b60405180910390fd5b610a4d838383610c3f565b60008060008573ffffffffffffffffffffffffffffffffffffffff1673ffffffffffffffffffffffffffffffffffffffff16815260200190815260200160002054905081811015610ad3576040517f08c379a0000000000000000000000000000000000000000000000000000000008152600401610aca90611786565b60405180910390fd5b8181036000808673ffffffffffffffffffffffffffffffffffffffff1673ffffffffffffffffffffffffffffffffffffffff16815260200190815260200160002081905550816000808573ffffffffffffffffffffffffffffffffffffffff1673ffffffffffffffffffffffffffffffffffffffff1681526020019081526020016000206000828254610b66919061139a565b925050819055508273ffffffffffffffffffffffffffffffffffffffff168473ffffffffffffffffffffffffffffffffffffffff167fddf252ad1be2c89b69c2b068fc378daa952ba7f163c4a11628f55a4df523b3ef84604051610bca9190610fd2565b60405180910390a3610bdd848484610c44565b50505050565b610bee848484610964565b610bfa84848484610c49565b610c39576040517f08c379a0000000000000000000000000000000000000000000000000000000008152600401610c3090611818565b60405180910390fd5b50505050565b505050565b505050565b6000610c6a8473ffffffffffffffffffffffffffffffffffffffff16610dd0565b15610dc3578373ffffffffffffffffffffffffffffffffffffffff16639d188c22610c93610707565b8786866040518563ffffffff1660e01b8152600401610cb5949392919061189c565b6020604051808303816000875af1925050508015610cf157506040513d601f19601f82011682018060405250810190610cee9190611940565b60015b610d73573d8060008114610d21576040519150601f19603f3d011682016040523d82523d6000602084013e610d26565b606091505b506000815103610d6b576040517f08c379a0000000000000000000000000000000000000000000000000000000008152600401610d62906119df565b60405180910390fd5b805181602001fd5b639d188c2260e01b7bffffffffffffffffffffffffffffffffffffffffffffffffffffffff1916817bffffffffffffffffffffffffffffffffffffffffffffffffffffffff191614915050610dc8565b600190505b949350505050565b6000808273ffffffffffffffffffffffffffffffffffffffff163b119050919050565b600081519050919050565b600082825260208201905092915050565b60005b83811015610e2d578082015181840152602081019050610e12565b60008484015250505050565b6000601f19601f8301169050919050565b6000610e5582610df3565b610e5f8185610dfe565b9350610e6f818560208601610e0f565b610e7881610e39565b840191505092915050565b60006020820190508181036000830152610e9d8184610e4a565b905092915050565b6000604051905090565b600080fd5b600080fd5b600073ffffffffffffffffffffffffffffffffffffffff82169050919050565b6000610ee482610eb9565b9050919050565b610ef481610ed9565b8114610eff57600080fd5b50565b600081359050610f1181610eeb565b92915050565b6000819050919050565b610f2a81610f17565b8114610f3557600080fd5b50565b600081359050610f4781610f21565b92915050565b60008060408385031215610f6457610f63610eaf565b5b6000610f7285828601610f02565b9250506020610f8385828601610f38565b9150509250929050565b60008115159050919050565b610fa281610f8d565b82525050565b6000602082019050610fbd6000830184610f99565b92915050565b610fcc81610f17565b82525050565b6000602082019050610fe76000830184610fc3565b92915050565b60008060006060848603121561100657611005610eaf565b5b600061101486828701610f02565b935050602061102586828701610f02565b925050604061103686828701610f38565b9150509250925092565b600060ff82169050919050565b61105681611040565b82525050565b6000602082019050611071600083018461104d565b92915050565b60006020828403121561108d5761108c610eaf565b5b600061109b84828501610f02565b91505092915050565b600080fd5b600080fd5b7f4e487b7100000000000000000000000000000000000000000000000000000000600052604160045260246000fd5b6110e682610e39565b810181811067ffffffffffffffff82111715611105576111046110ae565b5b80604052505050565b6000611118610ea5565b905061112482826110dd565b919050565b600067ffffffffffffffff821115611144576111436110ae565b5b61114d82610e39565b9050602081019050919050565b82818337600083830152505050565b600061117c61117784611129565b61110e565b905082815260208101848484011115611198576111976110a9565b5b6111a384828561115a565b509392505050565b600082601f8301126111c0576111bf6110a4565b5b81356111d0848260208601611169565b91505092915050565b600080600080608085870312156111f3576111f2610eaf565b5b600061120187828801610f02565b945050602061121287828801610f02565b935050604061122387828801610f38565b925050606085013567ffffffffffffffff81111561124457611243610eb4565b5b611250878288016111ab565b91505092959194509250565b6000806040838503121561127357611272610eaf565b5b600061128185828601610f02565b925050602061129285828601610f02565b9150509250929050565b6000806000606084860312156112b5576112b4610eaf565b5b60006112c386828701610f02565b93505060206112d486828701610f38565b925050604084013567ffffffffffffffff8111156112f5576112f4610eb4565b5b611301868287016111ab565b9150509250925092565b7f4e487b7100000000000000000000000000000000000000000000000000000000600052602260045260246000fd5b6000600282049050600182168061135257607f821691505b6020821081036113655761136461130b565b5b50919050565b7f4e487b7100000000000000000000000000000000000000000000000000000000600052601160045260246000fd5b60006113a582610f17565b91506113b083610f17565b92508282019050808211156113c8576113c761136b565b5b92915050565b7f4b4950373a2064656372656173656420616c6c6f77616e63652062656c6f772060008201527f7a65726f00000000000000000000000000000000000000000000000000000000602082015250565b600061142a602483610dfe565b9150611435826113ce565b604082019050919050565b600060208201905081810360008301526114598161141d565b9050919050565b7f4b4950373a20617070726f76652066726f6d20746865207a65726f206164647260008201527f6573730000000000000000000000000000000000000000000000000000000000602082015250565b60006114bc602383610dfe565b91506114c782611460565b604082019050919050565b600060208201905081810360008301526114eb816114af565b9050919050565b7f4b4950373a20617070726f766520746f20746865207a65726f2061646472657360008201527f7300000000000000000000000000000000000000000000000000000000000000602082015250565b600061154e602183610dfe565b9150611559826114f2565b604082019050919050565b6000602082019050818103600083015261157d81611541565b9050919050565b7f4b4950373a20696e73756666696369656e7420616c6c6f77616e636500000000600082015250565b60006115ba601c83610dfe565b91506115c582611584565b602082019050919050565b600060208201905081810360008301526115e9816115ad565b9050919050565b7f4b4950373a207472616e736665722066726f6d20746865207a65726f2061646460008201527f7265737300000000000000000000000000000000000000000000000000000000602082015250565b600061164c602483610dfe565b9150611657826115f0565b604082019050919050565b6000602082019050818103600083015261167b8161163f565b9050919050565b7f4b4950373a207472616e7366657220746f20746865207a65726f20616464726560008201527f7373000000000000000000000000000000000000000000000000000000000000602082015250565b60006116de602283610dfe565b91506116e982611682565b604082019050919050565b6000602082019050818103600083015261170d816116d1565b9050919050565b7f4b4950373a207472616e7366657220616d6f756e74206578636565647320626160008201527f6c616e6365000000000000000000000000000000000000000000000000000000602082015250565b6000611770602583610dfe565b915061177b82611714565b604082019050919050565b6000602082019050818103600083015261179f81611763565b9050919050565b7f4b4950373a207472616e7366657220746f206e6f6e20494b495037526563656960008201527f76657220696d706c656d656e7465720000000000000000000000000000000000602082015250565b6000611802602f83610dfe565b915061180d826117a6565b604082019050919050565b60006020820190508181036000830152611831816117f5565b9050919050565b61184181610ed9565b82525050565b600081519050919050565b600082825260208201905092915050565b600061186e82611847565b6118788185611852565b9350611888818560208601610e0f565b61189181610e39565b840191505092915050565b60006080820190506118b16000830187611838565b6118be6020830186611838565b6118cb6040830185610fc3565b81810360608301526118dd8184611863565b905095945050505050565b60007fffffffff0000000000000000000000000000000000000000000000000000000082169050919050565b61191d816118e8565b811461192857600080fd5b50565b60008151905061193a81611914565b92915050565b60006020828403121561195657611955610eaf565b5b60006119648482850161192b565b91505092915050565b7f4b4950373a207472616e7366657220746f206e6f6e204b49503752656365697660008201527f657220696d706c656d656e746572000000000000000000000000000000000000602082015250565b60006119c9602e83610dfe565b91506119d48261196d565b604082019050919050565b600060208201905081810360008301526119f8816119bc565b905091905056fea26469706673582212209058715b1e0e27e6f1a485046474033c1117ed3ecb121a08190afb02b694bcd364736f6c63430008120033",
					"opcodes": "PUSH1 0x80 PUSH1 0x40 MSTORE CALLVALUE DUP1 ISZERO PUSH3 0x11 JUMPI PUSH1 0x0 DUP1 REVERT JUMPDEST POP PUSH1 0x40 MLOAD PUSH3 0x1FF2 CODESIZE SUB DUP1 PUSH3 0x1FF2 DUP4 CODECOPY DUP2 DUP2 ADD PUSH1 0x40 MSTORE DUP2 ADD SWAP1 PUSH3 0x37 SWAP2 SWAP1 PUSH3 0x1F6 JUMP JUMPDEST DUP2 PUSH1 0x3 SWAP1 DUP2 PUSH3 0x48 SWAP2 SWAP1 PUSH3 0x4C6 JUMP JUMPDEST POP DUP1 PUSH1 0x4 SWAP1 DUP2 PUSH3 0x5A SWAP2 SWAP1 PUSH3 0x4C6 JUMP JUMPDEST POP POP POP PUSH3 0x5AD JUMP JUMPDEST PUSH1 0x0 PUSH1 0x40 MLOAD SWAP1 POP SWAP1 JUMP JUMPDEST PUSH1 0x0 DUP1 REVERT JUMPDEST PUSH1 0x0 DUP1 REVERT JUMPDEST PUSH1 0x0 DUP1 REVERT JUMPDEST PUSH1 0x0 DUP1 REVERT JUMPDEST PUSH1 0x0 PUSH1 0x1F NOT PUSH1 0x1F DUP4 ADD AND SWAP1 POP SWAP2 SWAP1 POP JUMP JUMPDEST PUSH32 0x4E487B7100000000000000000000000000000000000000000000000000000000 PUSH1 0x0 MSTORE PUSH1 0x41 PUSH1 0x4 MSTORE PUSH1 0x24 PUSH1 0x0 REVERT JUMPDEST PUSH3 0xCC DUP3 PUSH3 0x81 JUMP JUMPDEST DUP2 ADD DUP2 DUP2 LT PUSH8 0xFFFFFFFFFFFFFFFF DUP3 GT OR ISZERO PUSH3 0xEE JUMPI PUSH3 0xED PUSH3 0x92 JUMP JUMPDEST JUMPDEST DUP1 PUSH1 0x40 MSTORE POP POP POP JUMP JUMPDEST PUSH1 0x0 PUSH3 0x103 PUSH3 0x63 JUMP JUMPDEST SWAP1 POP PUSH3 0x111 DUP3 DUP3 PUSH3 0xC1 JUMP JUMPDEST SWAP2 SWAP1 POP JUMP JUMPDEST PUSH1 0x0 PUSH8 0xFFFFFFFFFFFFFFFF DUP3 GT ISZERO PUSH3 0x134 JUMPI PUSH3 0x133 PUSH3 0x92 JUMP JUMPDEST JUMPDEST PUSH3 0x13F DUP3 PUSH3 0x81 JUMP JUMPDEST SWAP1 POP PUSH1 0x20 DUP2 ADD SWAP1 POP SWAP2 SWAP1 POP JUMP JUMPDEST PUSH1 0x0 JUMPDEST DUP4 DUP2 LT ISZERO PUSH3 0x16C JUMPI DUP1 DUP3 ADD MLOAD DUP2 DUP5 ADD MSTORE PUSH1 0x20 DUP2 ADD SWAP1 POP PUSH3 0x14F JUMP JUMPDEST PUSH1 0x0 DUP5 DUP5 ADD MSTORE POP POP POP POP JUMP JUMPDEST PUSH1 0x0 PUSH3 0x18F PUSH3 0x189 DUP5 PUSH3 0x116 JUMP JUMPDEST PUSH3 0xF7 JUMP JUMPDEST SWAP1 POP DUP3 DUP2 MSTORE PUSH1 0x20 DUP2 ADD DUP5 DUP5 DUP5 ADD GT ISZERO PUSH3 0x1AE JUMPI PUSH3 0x1AD PUSH3 0x7C JUMP JUMPDEST JUMPDEST PUSH3 0x1BB DUP5 DUP3 DUP6 PUSH3 0x14C JUMP JUMPDEST POP SWAP4 SWAP3 POP POP POP JUMP JUMPDEST PUSH1 0x0 DUP3 PUSH1 0x1F DUP4 ADD SLT PUSH3 0x1DB JUMPI PUSH3 0x1DA PUSH3 0x77 JUMP JUMPDEST JUMPDEST DUP2 MLOAD PUSH3 0x1ED DUP5 DUP3 PUSH1 0x20 DUP7 ADD PUSH3 0x178 JUMP JUMPDEST SWAP2 POP POP SWAP3 SWAP2 POP POP JUMP JUMPDEST PUSH1 0x0 DUP1 PUSH1 0x40 DUP4 DUP6 SUB SLT ISZERO PUSH3 0x210 JUMPI PUSH3 0x20F PUSH3 0x6D JUMP JUMPDEST JUMPDEST PUSH1 0x0 DUP4 ADD MLOAD PUSH8 0xFFFFFFFFFFFFFFFF DUP2 GT ISZERO PUSH3 0x231 JUMPI PUSH3 0x230 PUSH3 0x72 JUMP JUMPDEST JUMPDEST PUSH3 0x23F DUP6 DUP3 DUP7 ADD PUSH3 0x1C3 JUMP JUMPDEST SWAP3 POP POP PUSH1 0x20 DUP4 ADD MLOAD PUSH8 0xFFFFFFFFFFFFFFFF DUP2 GT ISZERO PUSH3 0x263 JUMPI PUSH3 0x262 PUSH3 0x72 JUMP JUMPDEST JUMPDEST PUSH3 0x271 DUP6 DUP3 DUP7 ADD PUSH3 0x1C3 JUMP JUMPDEST SWAP2 POP POP SWAP3 POP SWAP3 SWAP1 POP JUMP JUMPDEST PUSH1 0x0 DUP2 MLOAD SWAP1 POP SWAP2 SWAP1 POP JUMP JUMPDEST PUSH32 0x4E487B7100000000000000000000000000000000000000000000000000000000 PUSH1 0x0 MSTORE PUSH1 0x22 PUSH1 0x4 MSTORE PUSH1 0x24 PUSH1 0x0 REVERT JUMPDEST PUSH1 0x0 PUSH1 0x2 DUP3 DIV SWAP1 POP PUSH1 0x1 DUP3 AND DUP1 PUSH3 0x2CE JUMPI PUSH1 0x7F DUP3 AND SWAP2 POP JUMPDEST PUSH1 0x20 DUP3 LT DUP2 SUB PUSH3 0x2E4 JUMPI PUSH3 0x2E3 PUSH3 0x286 JUMP JUMPDEST JUMPDEST POP SWAP2 SWAP1 POP JUMP JUMPDEST PUSH1 0x0 DUP2 SWAP1 POP DUP2 PUSH1 0x0 MSTORE PUSH1 0x20 PUSH1 0x0 KECCAK256 SWAP1 POP SWAP2 SWAP1 POP JUMP JUMPDEST PUSH1 0x0 PUSH1 0x20 PUSH1 0x1F DUP4 ADD DIV SWAP1 POP SWAP2 SWAP1 POP JUMP JUMPDEST PUSH1 0x0 DUP3 DUP3 SHL SWAP1 POP SWAP3 SWAP2 POP POP JUMP JUMPDEST PUSH1 0x0 PUSH1 0x8 DUP4 MUL PUSH3 0x34E PUSH32 0xFFFFFFFFFFFFFFFFFFFFFFFFFFFFFFFFFFFFFFFFFFFFFFFFFFFFFFFFFFFFFFFF DUP3 PUSH3 0x30F JUMP JUMPDEST PUSH3 0x35A DUP7 DUP4 PUSH3 0x30F JUMP JUMPDEST SWAP6 POP DUP1 NOT DUP5 AND SWAP4 POP DUP1 DUP7 AND DUP5 OR SWAP3 POP POP POP SWAP4 SWAP3 POP POP POP JUMP JUMPDEST PUSH1 0x0 DUP2 SWAP1 POP SWAP2 SWAP1 POP JUMP JUMPDEST PUSH1 0x0 DUP2 SWAP1 POP SWAP2 SWAP1 POP JUMP JUMPDEST PUSH1 0x0 PUSH3 0x3A7 PUSH3 0x3A1 PUSH3 0x39B DUP5 PUSH3 0x372 JUMP JUMPDEST PUSH3 0x37C JUMP JUMPDEST PUSH3 0x372 JUMP JUMPDEST SWAP1 POP SWAP2 SWAP1 POP JUMP JUMPDEST PUSH1 0x0 DUP2 SWAP1 POP SWAP2 SWAP1 POP JUMP JUMPDEST PUSH3 0x3C3 DUP4 PUSH3 0x386 JUMP JUMPDEST PUSH3 0x3DB PUSH3 0x3D2 DUP3 PUSH3 0x3AE JUMP JUMPDEST DUP5 DUP5 SLOAD PUSH3 0x31C JUMP JUMPDEST DUP3 SSTORE POP POP POP POP JUMP JUMPDEST PUSH1 0x0 SWAP1 JUMP JUMPDEST PUSH3 0x3F2 PUSH3 0x3E3 JUMP JUMPDEST PUSH3 0x3FF DUP2 DUP5 DUP5 PUSH3 0x3B8 JUMP JUMPDEST POP POP POP JUMP JUMPDEST JUMPDEST DUP2 DUP2 LT ISZERO PUSH3 0x427 JUMPI PUSH3 0x41B PUSH1 0x0 DUP3 PUSH3 0x3E8 JUMP JUMPDEST PUSH1 0x1 DUP2 ADD SWAP1 POP PUSH3 0x405 JUMP JUMPDEST POP POP JUMP JUMPDEST PUSH1 0x1F DUP3 GT ISZERO PUSH3 0x476 JUMPI PUSH3 0x440 DUP2 PUSH3 0x2EA JUMP JUMPDEST PUSH3 0x44B DUP5 PUSH3 0x2FF JUMP JUMPDEST DUP2 ADD PUSH1 0x20 DUP6 LT ISZERO PUSH3 0x45B JUMPI DUP2 SWAP1 POP JUMPDEST PUSH3 0x473 PUSH3 0x46A DUP6 PUSH3 0x2FF JUMP JUMPDEST DUP4 ADD DUP3 PUSH3 0x404 JUMP JUMPDEST POP POP JUMPDEST POP POP POP JUMP JUMPDEST PUSH1 0x0 DUP3 DUP3 SHR SWAP1 POP SWAP3 SWAP2 POP POP JUMP JUMPDEST PUSH1 0x0 PUSH3 0x49B PUSH1 0x0 NOT DUP5 PUSH1 0x8 MUL PUSH3 0x47B JUMP JUMPDEST NOT DUP1 DUP4 AND SWAP2 POP POP SWAP3 SWAP2 POP POP JUMP JUMPDEST PUSH1 0x0 PUSH3 0x4B6 DUP4 DUP4 PUSH3 0x488 JUMP JUMPDEST SWAP2 POP DUP3 PUSH1 0x2 MUL DUP3 OR SWAP1 POP SWAP3 SWAP2 POP POP JUMP JUMPDEST PUSH3 0x4D1 DUP3 PUSH3 0x27B JUMP JUMPDEST PUSH8 0xFFFFFFFFFFFFFFFF DUP2 GT ISZERO PUSH3 0x4ED JUMPI PUSH3 0x4EC PUSH3 0x92 JUMP JUMPDEST JUMPDEST PUSH3 0x4F9 DUP3 SLOAD PUSH3 0x2B5 JUMP JUMPDEST PUSH3 0x506 DUP3 DUP3 DUP6 PUSH3 0x42B JUMP JUMPDEST PUSH1 0x0 PUSH1 0x20 SWAP1 POP PUSH1 0x1F DUP4 GT PUSH1 0x1 DUP2 EQ PUSH3 0x53E JUMPI PUSH1 0x0 DUP5 ISZERO PUSH3 0x529 JUMPI DUP3 DUP8 ADD MLOAD SWAP1 POP JUMPDEST PUSH3 0x535 DUP6 DUP3 PUSH3 0x4A8 JUMP JUMPDEST DUP7 SSTORE POP PUSH3 0x5A5 JUMP JUMPDEST PUSH1 0x1F NOT DUP5 AND PUSH3 0x54E DUP7 PUSH3 0x2EA JUMP JUMPDEST PUSH1 0x0 JUMPDEST DUP3 DUP2 LT ISZERO PUSH3 0x578 JUMPI DUP5 DUP10 ADD MLOAD DUP3 SSTORE PUSH1 0x1 DUP3 ADD SWAP2 POP PUSH1 0x20 DUP6 ADD SWAP5 POP PUSH1 0x20 DUP2 ADD SWAP1 POP PUSH3 0x551 JUMP JUMPDEST DUP7 DUP4 LT ISZERO PUSH3 0x598 JUMPI DUP5 DUP10 ADD MLOAD PUSH3 0x594 PUSH1 0x1F DUP10 AND DUP3 PUSH3 0x488 JUMP JUMPDEST DUP4 SSTORE POP JUMPDEST PUSH1 0x1 PUSH1 0x2 DUP9 MUL ADD DUP9 SSTORE POP POP POP JUMPDEST POP POP POP POP POP POP JUMP JUMPDEST PUSH2 0x1A35 DUP1 PUSH3 0x5BD PUSH1 0x0 CODECOPY PUSH1 0x0 RETURN INVALID PUSH1 0x80 PUSH1 0x40 MSTORE CALLVALUE DUP1 ISZERO PUSH2 0x10 JUMPI PUSH1 0x0 DUP1 REVERT JUMPDEST POP PUSH1 0x4 CALLDATASIZE LT PUSH2 0xF5 JUMPI PUSH1 0x0 CALLDATALOAD PUSH1 0xE0 SHR DUP1 PUSH4 0x42842E0E GT PUSH2 0x97 JUMPI DUP1 PUSH4 0xA9059CBB GT PUSH2 0x66 JUMPI DUP1 PUSH4 0xA9059CBB EQ PUSH2 0x29A JUMPI DUP1 PUSH4 0xB88D4FDE EQ PUSH2 0x2CA JUMPI DUP1 PUSH4 0xDD62ED3E EQ PUSH2 0x2E6 JUMPI DUP1 PUSH4 0xEB795549 EQ PUSH2 0x316 JUMPI PUSH2 0xF5 JUMP JUMPDEST DUP1 PUSH4 0x42842E0E EQ PUSH2 0x200 JUMPI DUP1 PUSH4 0x70A08231 EQ PUSH2 0x21C JUMPI DUP1 PUSH4 0x95D89B41 EQ PUSH2 0x24C JUMPI DUP1 PUSH4 0xA457C2D7 EQ PUSH2 0x26A JUMPI PUSH2 0xF5 JUMP JUMPDEST DUP1 PUSH4 0x23B872DD GT PUSH2 0xD3 JUMPI DUP1 PUSH4 0x23B872DD EQ PUSH2 0x166 JUMPI DUP1 PUSH4 0x313CE567 EQ PUSH2 0x196 JUMPI DUP1 PUSH4 0x39509351 EQ PUSH2 0x1B4 JUMPI DUP1 PUSH4 0x423F6CEF EQ PUSH2 0x1E4 JUMPI PUSH2 0xF5 JUMP JUMPDEST DUP1 PUSH4 0x6FDDE03 EQ PUSH2 0xFA JUMPI DUP1 PUSH4 0x95EA7B3 EQ PUSH2 0x118 JUMPI DUP1 PUSH4 0x18160DDD EQ PUSH2 0x148 JUMPI JUMPDEST PUSH1 0x0 DUP1 REVERT JUMPDEST PUSH2 0x102 PUSH2 0x332 JUMP JUMPDEST PUSH1 0x40 MLOAD PUSH2 0x10F SWAP2 SWAP1 PUSH2 0xE83 JUMP JUMPDEST PUSH1 0x40 MLOAD DUP1 SWAP2 SUB SWAP1 RETURN JUMPDEST PUSH2 0x132 PUSH1 0x4 DUP1 CALLDATASIZE SUB DUP2 ADD SWAP1 PUSH2 0x12D SWAP2 SWAP1 PUSH2 0xF4D JUMP JUMPDEST PUSH2 0x3C4 JUMP JUMPDEST PUSH1 0x40 MLOAD PUSH2 0x13F SWAP2 SWAP1 PUSH2 0xFA8 JUMP JUMPDEST PUSH1 0x40 MLOAD DUP1 SWAP2 SUB SWAP1 RETURN JUMPDEST PUSH2 0x150 PUSH2 0x3E7 JUMP JUMPDEST PUSH1 0x40 MLOAD PUSH2 0x15D SWAP2 SWAP1 PUSH2 0xFD2 JUMP JUMPDEST PUSH1 0x40 MLOAD DUP1 SWAP2 SUB SWAP1 RETURN JUMPDEST PUSH2 0x180 PUSH1 0x4 DUP1 CALLDATASIZE SUB DUP2 ADD SWAP1 PUSH2 0x17B SWAP2 SWAP1 PUSH2 0xFED JUMP JUMPDEST PUSH2 0x3F1 JUMP JUMPDEST PUSH1 0x40 MLOAD PUSH2 0x18D SWAP2 SWAP1 PUSH2 0xFA8 JUMP JUMPDEST PUSH1 0x40 MLOAD DUP1 SWAP2 SUB SWAP1 RETURN JUMPDEST PUSH2 0x19E PUSH2 0x420 JUMP JUMPDEST PUSH1 0x40 MLOAD PUSH2 0x1AB SWAP2 SWAP1 PUSH2 0x105C JUMP JUMPDEST PUSH1 0x40 MLOAD DUP1 SWAP2 SUB SWAP1 RETURN JUMPDEST PUSH2 0x1CE PUSH1 0x4 DUP1 CALLDATASIZE SUB DUP2 ADD SWAP1 PUSH2 0x1C9 SWAP2 SWAP1 PUSH2 0xF4D JUMP JUMPDEST PUSH2 0x429 JUMP JUMPDEST PUSH1 0x40 MLOAD PUSH2 0x1DB SWAP2 SWAP1 PUSH2 0xFA8 JUMP JUMPDEST PUSH1 0x40 MLOAD DUP1 SWAP2 SUB SWAP1 RETURN JUMPDEST PUSH2 0x1FE PUSH1 0x4 DUP1 CALLDATASIZE SUB DUP2 ADD SWAP1 PUSH2 0x1F9 SWAP2 SWAP1 PUSH2 0xF4D JUMP JUMPDEST PUSH2 0x460 JUMP JUMPDEST STOP JUMPDEST PUSH2 0x21A PUSH1 0x4 DUP1 CALLDATASIZE SUB DUP2 ADD SWAP1 PUSH2 0x215 SWAP2 SWAP1 PUSH2 0xFED JUMP JUMPDEST PUSH2 0x48C JUMP JUMPDEST STOP JUMPDEST PUSH2 0x236 PUSH1 0x4 DUP1 CALLDATASIZE SUB DUP2 ADD SWAP1 PUSH2 0x231 SWAP2 SWAP1 PUSH2 0x1077 JUMP JUMPDEST PUSH2 0x4C4 JUMP JUMPDEST PUSH1 0x40 MLOAD PUSH2 0x243 SWAP2 SWAP1 PUSH2 0xFD2 JUMP JUMPDEST PUSH1 0x40 MLOAD DUP1 SWAP2 SUB SWAP1 RETURN JUMPDEST PUSH2 0x254 PUSH2 0x50C JUMP JUMPDEST PUSH1 0x40 MLOAD PUSH2 0x261 SWAP2 SWAP1 PUSH2 0xE83 JUMP JUMPDEST PUSH1 0x40 MLOAD DUP1 SWAP2 SUB SWAP1 RETURN JUMPDEST PUSH2 0x284 PUSH1 0x4 DUP1 CALLDATASIZE SUB DUP2 ADD SWAP1 PUSH2 0x27F SWAP2 SWAP1 PUSH2 0xF4D JUMP JUMPDEST PUSH2 0x59E JUMP JUMPDEST PUSH1 0x40 MLOAD PUSH2 0x291 SWAP2 SWAP1 PUSH2 0xFA8 JUMP JUMPDEST PUSH1 0x40 MLOAD DUP1 SWAP2 SUB SWAP1 RETURN JUMPDEST PUSH2 0x2B4 PUSH1 0x4 DUP1 CALLDATASIZE SUB DUP2 ADD SWAP1 PUSH2 0x2AF SWAP2 SWAP1 PUSH2 0xF4D JUMP JUMPDEST PUSH2 0x615 JUMP JUMPDEST PUSH1 0x40 MLOAD PUSH2 0x2C1 SWAP2 SWAP1 PUSH2 0xFA8 JUMP JUMPDEST PUSH1 0x40 MLOAD DUP1 SWAP2 SUB SWAP1 RETURN JUMPDEST PUSH2 0x2E4 PUSH1 0x4 DUP1 CALLDATASIZE SUB DUP2 ADD SWAP1 PUSH2 0x2DF SWAP2 SWAP1 PUSH2 0x11D9 JUMP JUMPDEST PUSH2 0x638 JUMP JUMPDEST STOP JUMPDEST PUSH2 0x300 PUSH1 0x4 DUP1 CALLDATASIZE SUB DUP2 ADD SWAP1 PUSH2 0x2FB SWAP2 SWAP1 PUSH2 0x125C JUMP JUMPDEST PUSH2 0x662 JUMP JUMPDEST PUSH1 0x40 MLOAD PUSH2 0x30D SWAP2 SWAP1 PUSH2 0xFD2 JUMP JUMPDEST PUSH1 0x40 MLOAD DUP1 SWAP2 SUB SWAP1 RETURN JUMPDEST PUSH2 0x330 PUSH1 0x4 DUP1 CALLDATASIZE SUB DUP2 ADD SWAP1 PUSH2 0x32B SWAP2 SWAP1 PUSH2 0x129C JUMP JUMPDEST PUSH2 0x6E9 JUMP JUMPDEST STOP JUMPDEST PUSH1 0x60 PUSH1 0x3 DUP1 SLOAD PUSH2 0x341 SWAP1 PUSH2 0x133A JUMP JUMPDEST DUP1 PUSH1 0x1F ADD PUSH1 0x20 DUP1 SWAP2 DIV MUL PUSH1 0x20 ADD PUSH1 0x40 MLOAD SWAP1 DUP2 ADD PUSH1 0x40 MSTORE DUP1 SWAP3 SWAP2 SWAP1 DUP2 DUP2 MSTORE PUSH1 0x20 ADD DUP3 DUP1 SLOAD PUSH2 0x36D SWAP1 PUSH2 0x133A JUMP JUMPDEST DUP1 ISZERO PUSH2 0x3BA JUMPI DUP1 PUSH1 0x1F LT PUSH2 0x38F JUMPI PUSH2 0x100 DUP1 DUP4 SLOAD DIV MUL DUP4 MSTORE SWAP2 PUSH1 0x20 ADD SWAP2 PUSH2 0x3BA JUMP JUMPDEST DUP3 ADD SWAP2 SWAP1 PUSH1 0x0 MSTORE PUSH1 0x20 PUSH1 0x0 KECCAK256 SWAP1 JUMPDEST DUP2 SLOAD DUP2 MSTORE SWAP1 PUSH1 0x1 ADD SWAP1 PUSH1 0x20 ADD DUP1 DUP4 GT PUSH2 0x39D JUMPI DUP3 SWAP1 SUB PUSH1 0x1F AND DUP3 ADD SWAP2 JUMPDEST POP POP POP POP POP SWAP1 POP SWAP1 JUMP JUMPDEST PUSH1 0x0 DUP1 PUSH2 0x3CF PUSH2 0x707 JUMP JUMPDEST SWAP1 POP PUSH2 0x3DC DUP2 DUP6 DUP6 PUSH2 0x70F JUMP JUMPDEST PUSH1 0x1 SWAP2 POP POP SWAP3 SWAP2 POP POP JUMP JUMPDEST PUSH1 0x0 PUSH1 0x2 SLOAD SWAP1 POP SWAP1 JUMP JUMPDEST PUSH1 0x0 DUP1 PUSH2 0x3FC PUSH2 0x707 JUMP JUMPDEST SWAP1 POP PUSH2 0x409 DUP6 DUP3 DUP6 PUSH2 0x8D8 JUMP JUMPDEST PUSH2 0x414 DUP6 DUP6 DUP6 PUSH2 0x964 JUMP JUMPDEST PUSH1 0x1 SWAP2 POP POP SWAP4 SWAP3 POP POP POP JUMP JUMPDEST PUSH1 0x0 PUSH1 0x12 SWAP1 POP SWAP1 JUMP JUMPDEST PUSH1 0x0 DUP1 PUSH2 0x434 PUSH2 0x707 JUMP JUMPDEST SWAP1 POP PUSH2 0x455 DUP2 DUP6 DUP6 PUSH2 0x446 DUP6 DUP10 PUSH2 0x662 JUMP JUMPDEST PUSH2 0x450 SWAP2 SWAP1 PUSH2 0x139A JUMP JUMPDEST PUSH2 0x70F JUMP JUMPDEST PUSH1 0x1 SWAP2 POP POP SWAP3 SWAP2 POP POP JUMP JUMPDEST PUSH1 0x0 PUSH2 0x46A PUSH2 0x707 JUMP JUMPDEST SWAP1 POP PUSH2 0x487 DUP2 DUP5 DUP5 PUSH1 0x40 MLOAD DUP1 PUSH1 0x20 ADD PUSH1 0x40 MSTORE DUP1 PUSH1 0x0 DUP2 MSTORE POP PUSH2 0xBE3 JUMP JUMPDEST POP POP POP JUMP JUMPDEST PUSH1 0x0 PUSH2 0x496 PUSH2 0x707 JUMP JUMPDEST SWAP1 POP PUSH2 0x4A3 DUP5 DUP3 DUP5 PUSH2 0x8D8 JUMP JUMPDEST PUSH2 0x4BE DUP5 DUP5 DUP5 PUSH1 0x40 MLOAD DUP1 PUSH1 0x20 ADD PUSH1 0x40 MSTORE DUP1 PUSH1 0x0 DUP2 MSTORE POP PUSH2 0xBE3 JUMP JUMPDEST POP POP POP POP JUMP JUMPDEST PUSH1 0x0 DUP1 PUSH1 0x0 DUP4 PUSH20 0xFFFFFFFFFFFFFFFFFFFFFFFFFFFFFFFFFFFFFFFF AND PUSH20 0xFFFFFFFFFFFFFFFFFFFFFFFFFFFFFFFFFFFFFFFF AND DUP2 MSTORE PUSH1 0x20 ADD SWAP1 DUP2 MSTORE PUSH1 0x20 ADD PUSH1 0x0 KECCAK256 SLOAD SWAP1 POP SWAP2 SWAP1 POP JUMP JUMPDEST PUSH1 0x60 PUSH1 0x4 DUP1 SLOAD PUSH2 0x51B SWAP1 PUSH2 0x133A JUMP JUMPDEST DUP1 PUSH1 0x1F ADD PUSH1 0x20 DUP1 SWAP2 DIV MUL PUSH1 0x20 ADD PUSH1 0x40 MLOAD SWAP1 DUP2 ADD PUSH1 0x40 MSTORE DUP1 SWAP3 SWAP2 SWAP1 DUP2 DUP2 MSTORE PUSH1 0x20 ADD DUP3 DUP1 SLOAD PUSH2 0x547 SWAP1 PUSH2 0x133A JUMP JUMPDEST DUP1 ISZERO PUSH2 0x594 JUMPI DUP1 PUSH1 0x1F LT PUSH2 0x569 JUMPI PUSH2 0x100 DUP1 DUP4 SLOAD DIV MUL DUP4 MSTORE SWAP2 PUSH1 0x20 ADD SWAP2 PUSH2 0x594 JUMP JUMPDEST DUP3 ADD SWAP2 SWAP1 PUSH1 0x0 MSTORE PUSH1 0x20 PUSH1 0x0 KECCAK256 SWAP1 JUMPDEST DUP2 SLOAD DUP2 MSTORE SWAP1 PUSH1 0x1 ADD SWAP1 PUSH1 0x20 ADD DUP1 DUP4 GT PUSH2 0x577 JUMPI DUP3 SWAP1 SUB PUSH1 0x1F AND DUP3 ADD SWAP2 JUMPDEST POP POP POP POP POP SWAP1 POP SWAP1 JUMP JUMPDEST PUSH1 0x0 DUP1 PUSH2 0x5A9 PUSH2 0x707 JUMP JUMPDEST SWAP1 POP PUSH1 0x0 PUSH2 0x5B7 DUP3 DUP7 PUSH2 0x662 JUMP JUMPDEST SWAP1 POP DUP4 DUP2 LT ISZERO PUSH2 0x5FC JUMPI PUSH1 0x40 MLOAD PUSH32 0x8C379A000000000000000000000000000000000000000000000000000000000 DUP2 MSTORE PUSH1 0x4 ADD PUSH2 0x5F3 SWAP1 PUSH2 0x1440 JUMP JUMPDEST PUSH1 0x40 MLOAD DUP1 SWAP2 SUB SWAP1 REVERT JUMPDEST PUSH2 0x609 DUP3 DUP7 DUP7 DUP5 SUB PUSH2 0x70F JUMP JUMPDEST PUSH1 0x1 SWAP3 POP POP POP SWAP3 SWAP2 POP POP JUMP JUMPDEST PUSH1 0x0 DUP1 PUSH2 0x620 PUSH2 0x707 JUMP JUMPDEST SWAP1 POP PUSH2 0x62D DUP2 DUP6 DUP6 PUSH2 0x964 JUMP JUMPDEST PUSH1 0x1 SWAP2 POP POP SWAP3 SWAP2 POP POP JUMP JUMPDEST PUSH1 0x0 PUSH2 0x642 PUSH2 0x707 JUMP JUMPDEST SWAP1 POP PUSH2 0x64F DUP6 DUP3 DUP6 PUSH2 0x8D8 JUMP JUMPDEST PUSH2 0x65B DUP6 DUP6 DUP6 DUP6 PUSH2 0xBE3 JUMP JUMPDEST POP POP POP POP POP JUMP JUMPDEST PUSH1 0x0 PUSH1 0x1 PUSH1 0x0 DUP5 PUSH20 0xFFFFFFFFFFFFFFFFFFFFFFFFFFFFFFFFFFFFFFFF AND PUSH20 0xFFFFFFFFFFFFFFFFFFFFFFFFFFFFFFFFFFFFFFFF AND DUP2 MSTORE PUSH1 0x20 ADD SWAP1 DUP2 MSTORE PUSH1 0x20 ADD PUSH1 0x0 KECCAK256 PUSH1 0x0 DUP4 PUSH20 0xFFFFFFFFFFFFFFFFFFFFFFFFFFFFFFFFFFFFFFFF AND PUSH20 0xFFFFFFFFFFFFFFFFFFFFFFFFFFFFFFFFFFFFFFFF AND DUP2 MSTORE PUSH1 0x20 ADD SWAP1 DUP2 MSTORE PUSH1 0x20 ADD PUSH1 0x0 KECCAK256 SLOAD SWAP1 POP SWAP3 SWAP2 POP POP JUMP JUMPDEST PUSH1 0x0 PUSH2 0x6F3 PUSH2 0x707 JUMP JUMPDEST SWAP1 POP PUSH2 0x701 DUP2 DUP6 DUP6 DUP6 PUSH2 0xBE3 JUMP JUMPDEST POP POP POP POP JUMP JUMPDEST PUSH1 0x0 CALLER SWAP1 POP SWAP1 JUMP JUMPDEST PUSH1 0x0 PUSH20 0xFFFFFFFFFFFFFFFFFFFFFFFFFFFFFFFFFFFFFFFF AND DUP4 PUSH20 0xFFFFFFFFFFFFFFFFFFFFFFFFFFFFFFFFFFFFFFFF AND SUB PUSH2 0x77E JUMPI PUSH1 0x40 MLOAD PUSH32 0x8C379A000000000000000000000000000000000000000000000000000000000 DUP2 MSTORE PUSH1 0x4 ADD PUSH2 0x775 SWAP1 PUSH2 0x14D2 JUMP JUMPDEST PUSH1 0x40 MLOAD DUP1 SWAP2 SUB SWAP1 REVERT JUMPDEST PUSH1 0x0 PUSH20 0xFFFFFFFFFFFFFFFFFFFFFFFFFFFFFFFFFFFFFFFF AND DUP3 PUSH20 0xFFFFFFFFFFFFFFFFFFFFFFFFFFFFFFFFFFFFFFFF AND SUB PUSH2 0x7ED JUMPI PUSH1 0x40 MLOAD PUSH32 0x8C379A000000000000000000000000000000000000000000000000000000000 DUP2 MSTORE PUSH1 0x4 ADD PUSH2 0x7E4 SWAP1 PUSH2 0x1564 JUMP JUMPDEST PUSH1 0x40 MLOAD DUP1 SWAP2 SUB SWAP1 REVERT JUMPDEST DUP1 PUSH1 0x1 PUSH1 0x0 DUP6 PUSH20 0xFFFFFFFFFFFFFFFFFFFFFFFFFFFFFFFFFFFFFFFF AND PUSH20 0xFFFFFFFFFFFFFFFFFFFFFFFFFFFFFFFFFFFFFFFF AND DUP2 MSTORE PUSH1 0x20 ADD SWAP1 DUP2 MSTORE PUSH1 0x20 ADD PUSH1 0x0 KECCAK256 PUSH1 0x0 DUP5 PUSH20 0xFFFFFFFFFFFFFFFFFFFFFFFFFFFFFFFFFFFFFFFF AND PUSH20 0xFFFFFFFFFFFFFFFFFFFFFFFFFFFFFFFFFFFFFFFF AND DUP2 MSTORE PUSH1 0x20 ADD SWAP1 DUP2 MSTORE PUSH1 0x20 ADD PUSH1 0x0 KECCAK256 DUP2 SWAP1 SSTORE POP DUP2 PUSH20 0xFFFFFFFFFFFFFFFFFFFFFFFFFFFFFFFFFFFFFFFF AND DUP4 PUSH20 0xFFFFFFFFFFFFFFFFFFFFFFFFFFFFFFFFFFFFFFFF AND PUSH32 0x8C5BE1E5EBEC7D5BD14F71427D1E84F3DD0314C0F7B2291E5B200AC8C7C3B925 DUP4 PUSH1 0x40 MLOAD PUSH2 0x8CB SWAP2 SWAP1 PUSH2 0xFD2 JUMP JUMPDEST PUSH1 0x40 MLOAD DUP1 SWAP2 SUB SWAP1 LOG3 POP POP POP JUMP JUMPDEST PUSH1 0x0 PUSH2 0x8E4 DUP5 DUP5 PUSH2 0x662 JUMP JUMPDEST SWAP1 POP PUSH32 0xFFFFFFFFFFFFFFFFFFFFFFFFFFFFFFFFFFFFFFFFFFFFFFFFFFFFFFFFFFFFFFFF DUP2 EQ PUSH2 0x95E JUMPI DUP2 DUP2 LT ISZERO PUSH2 0x950 JUMPI PUSH1 0x40 MLOAD PUSH32 0x8C379A000000000000000000000000000000000000000000000000000000000 DUP2 MSTORE PUSH1 0x4 ADD PUSH2 0x947 SWAP1 PUSH2 0x15D0 JUMP JUMPDEST PUSH1 0x40 MLOAD DUP1 SWAP2 SUB SWAP1 REVERT JUMPDEST PUSH2 0x95D DUP5 DUP5 DUP5 DUP5 SUB PUSH2 0x70F JUMP JUMPDEST JUMPDEST POP POP POP POP JUMP JUMPDEST PUSH1 0x0 PUSH20 0xFFFFFFFFFFFFFFFFFFFFFFFFFFFFFFFFFFFFFFFF AND DUP4 PUSH20 0xFFFFFFFFFFFFFFFFFFFFFFFFFFFFFFFFFFFFFFFF AND SUB PUSH2 0x9D3 JUMPI PUSH1 0x40 MLOAD PUSH32 0x8C379A000000000000000000000000000000000000000000000000000000000 DUP2 MSTORE PUSH1 0x4 ADD PUSH2 0x9CA SWAP1 PUSH2 0x1662 JUMP JUMPDEST PUSH1 0x40 MLOAD DUP1 SWAP2 SUB SWAP1 REVERT JUMPDEST PUSH1 0x0 PUSH20 0xFFFFFFFFFFFFFFFFFFFFFFFFFFFFFFFFFFFFFFFF AND DUP3 PUSH20 0xFFFFFFFFFFFFFFFFFFFFFFFFFFFFFFFFFFFFFFFF AND SUB PUSH2 0xA42 JUMPI PUSH1 0x40 MLOAD PUSH32 0x8C379A000000000000000000000000000000000000000000000000000000000 DUP2 MSTORE PUSH1 0x4 ADD PUSH2 0xA39 SWAP1 PUSH2 0x16F4 JUMP JUMPDEST PUSH1 0x40 MLOAD DUP1 SWAP2 SUB SWAP1 REVERT JUMPDEST PUSH2 0xA4D DUP4 DUP4 DUP4 PUSH2 0xC3F JUMP JUMPDEST PUSH1 0x0 DUP1 PUSH1 0x0 DUP6 PUSH20 0xFFFFFFFFFFFFFFFFFFFFFFFFFFFFFFFFFFFFFFFF AND PUSH20 0xFFFFFFFFFFFFFFFFFFFFFFFFFFFFFFFFFFFFFFFF AND DUP2 MSTORE PUSH1 0x20 ADD SWAP1 DUP2 MSTORE PUSH1 0x20 ADD PUSH1 0x0 KECCAK256 SLOAD SWAP1 POP DUP2 DUP2 LT ISZERO PUSH2 0xAD3 JUMPI PUSH1 0x40 MLOAD PUSH32 0x8C379A000000000000000000000000000000000000000000000000000000000 DUP2 MSTORE PUSH1 0x4 ADD PUSH2 0xACA SWAP1 PUSH2 0x1786 JUMP JUMPDEST PUSH1 0x40 MLOAD DUP1 SWAP2 SUB SWAP1 REVERT JUMPDEST DUP2 DUP2 SUB PUSH1 0x0 DUP1 DUP7 PUSH20 0xFFFFFFFFFFFFFFFFFFFFFFFFFFFFFFFFFFFFFFFF AND PUSH20 0xFFFFFFFFFFFFFFFFFFFFFFFFFFFFFFFFFFFFFFFF AND DUP2 MSTORE PUSH1 0x20 ADD SWAP1 DUP2 MSTORE PUSH1 0x20 ADD PUSH1 0x0 KECCAK256 DUP2 SWAP1 SSTORE POP DUP2 PUSH1 0x0 DUP1 DUP6 PUSH20 0xFFFFFFFFFFFFFFFFFFFFFFFFFFFFFFFFFFFFFFFF AND PUSH20 0xFFFFFFFFFFFFFFFFFFFFFFFFFFFFFFFFFFFFFFFF AND DUP2 MSTORE PUSH1 0x20 ADD SWAP1 DUP2 MSTORE PUSH1 0x20 ADD PUSH1 0x0 KECCAK256 PUSH1 0x0 DUP3 DUP3 SLOAD PUSH2 0xB66 SWAP2 SWAP1 PUSH2 0x139A JUMP JUMPDEST SWAP3 POP POP DUP2 SWAP1 SSTORE POP DUP3 PUSH20 0xFFFFFFFFFFFFFFFFFFFFFFFFFFFFFFFFFFFFFFFF AND DUP5 PUSH20 0xFFFFFFFFFFFFFFFFFFFFFFFFFFFFFFFFFFFFFFFF AND PUSH32 0xDDF252AD1BE2C89B69C2B068FC378DAA952BA7F163C4A11628F55A4DF523B3EF DUP5 PUSH1 0x40 MLOAD PUSH2 0xBCA SWAP2 SWAP1 PUSH2 0xFD2 JUMP JUMPDEST PUSH1 0x40 MLOAD DUP1 SWAP2 SUB SWAP1 LOG3 PUSH2 0xBDD DUP5 DUP5 DUP5 PUSH2 0xC44 JUMP JUMPDEST POP POP POP POP JUMP JUMPDEST PUSH2 0xBEE DUP5 DUP5 DUP5 PUSH2 0x964 JUMP JUMPDEST PUSH2 0xBFA DUP5 DUP5 DUP5 DUP5 PUSH2 0xC49 JUMP JUMPDEST PUSH2 0xC39 JUMPI PUSH1 0x40 MLOAD PUSH32 0x8C379A000000000000000000000000000000000000000000000000000000000 DUP2 MSTORE PUSH1 0x4 ADD PUSH2 0xC30 SWAP1 PUSH2 0x1818 JUMP JUMPDEST PUSH1 0x40 MLOAD DUP1 SWAP2 SUB SWAP1 REVERT JUMPDEST POP POP POP POP JUMP JUMPDEST POP POP POP JUMP JUMPDEST POP POP POP JUMP JUMPDEST PUSH1 0x0 PUSH2 0xC6A DUP5 PUSH20 0xFFFFFFFFFFFFFFFFFFFFFFFFFFFFFFFFFFFFFFFF AND PUSH2 0xDD0 JUMP JUMPDEST ISZERO PUSH2 0xDC3 JUMPI DUP4 PUSH20 0xFFFFFFFFFFFFFFFFFFFFFFFFFFFFFFFFFFFFFFFF AND PUSH4 0x9D188C22 PUSH2 0xC93 PUSH2 0x707 JUMP JUMPDEST DUP8 DUP7 DUP7 PUSH1 0x40 MLOAD DUP6 PUSH4 0xFFFFFFFF AND PUSH1 0xE0 SHL DUP2 MSTORE PUSH1 0x4 ADD PUSH2 0xCB5 SWAP5 SWAP4 SWAP3 SWAP2 SWAP1 PUSH2 0x189C JUMP JUMPDEST PUSH1 0x20 PUSH1 0x40 MLOAD DUP1 DUP4 SUB DUP2 PUSH1 0x0 DUP8 GAS CALL SWAP3 POP POP POP DUP1 ISZERO PUSH2 0xCF1 JUMPI POP PUSH1 0x40 MLOAD RETURNDATASIZE PUSH1 0x1F NOT PUSH1 0x1F DUP3 ADD AND DUP3 ADD DUP1 PUSH1 0x40 MSTORE POP DUP2 ADD SWAP1 PUSH2 0xCEE SWAP2 SWAP1 PUSH2 0x1940 JUMP JUMPDEST PUSH1 0x1 JUMPDEST PUSH2 0xD73 JUMPI RETURNDATASIZE DUP1 PUSH1 0x0 DUP2 EQ PUSH2 0xD21 JUMPI PUSH1 0x40 MLOAD SWAP2 POP PUSH1 0x1F NOT PUSH1 0x3F RETURNDATASIZE ADD AND DUP3 ADD PUSH1 0x40 MSTORE RETURNDATASIZE DUP3 MSTORE RETURNDATASIZE PUSH1 0x0 PUSH1 0x20 DUP5 ADD RETURNDATACOPY PUSH2 0xD26 JUMP JUMPDEST PUSH1 0x60 SWAP2 POP JUMPDEST POP PUSH1 0x0 DUP2 MLOAD SUB PUSH2 0xD6B JUMPI PUSH1 0x40 MLOAD PUSH32 0x8C379A000000000000000000000000000000000000000000000000000000000 DUP2 MSTORE PUSH1 0x4 ADD PUSH2 0xD62 SWAP1 PUSH2 0x19DF JUMP JUMPDEST PUSH1 0x40 MLOAD DUP1 SWAP2 SUB SWAP1 REVERT JUMPDEST DUP1 MLOAD DUP2 PUSH1 0x20 ADD REVERT JUMPDEST PUSH4 0x9D188C22 PUSH1 0xE0 SHL PUSH28 0xFFFFFFFFFFFFFFFFFFFFFFFFFFFFFFFFFFFFFFFFFFFFFFFFFFFFFFFF NOT AND DUP2 PUSH28 0xFFFFFFFFFFFFFFFFFFFFFFFFFFFFFFFFFFFFFFFFFFFFFFFFFFFFFFFF NOT AND EQ SWAP2 POP POP PUSH2 0xDC8 JUMP JUMPDEST PUSH1 0x1 SWAP1 POP JUMPDEST SWAP5 SWAP4 POP POP POP POP JUMP JUMPDEST PUSH1 0x0 DUP1 DUP3 PUSH20 0xFFFFFFFFFFFFFFFFFFFFFFFFFFFFFFFFFFFFFFFF AND EXTCODESIZE GT SWAP1 POP SWAP2 SWAP1 POP JUMP JUMPDEST PUSH1 0x0 DUP2 MLOAD SWAP1 POP SWAP2 SWAP1 POP JUMP JUMPDEST PUSH1 0x0 DUP3 DUP3 MSTORE PUSH1 0x20 DUP3 ADD SWAP1 POP SWAP3 SWAP2 POP POP JUMP JUMPDEST PUSH1 0x0 JUMPDEST DUP4 DUP2 LT ISZERO PUSH2 0xE2D JUMPI DUP1 DUP3 ADD MLOAD DUP2 DUP5 ADD MSTORE PUSH1 0x20 DUP2 ADD SWAP1 POP PUSH2 0xE12 JUMP JUMPDEST PUSH1 0x0 DUP5 DUP5 ADD MSTORE POP POP POP POP JUMP JUMPDEST PUSH1 0x0 PUSH1 0x1F NOT PUSH1 0x1F DUP4 ADD AND SWAP1 POP SWAP2 SWAP1 POP JUMP JUMPDEST PUSH1 0x0 PUSH2 0xE55 DUP3 PUSH2 0xDF3 JUMP JUMPDEST PUSH2 0xE5F DUP2 DUP6 PUSH2 0xDFE JUMP JUMPDEST SWAP4 POP PUSH2 0xE6F DUP2 DUP6 PUSH1 0x20 DUP7 ADD PUSH2 0xE0F JUMP JUMPDEST PUSH2 0xE78 DUP2 PUSH2 0xE39 JUMP JUMPDEST DUP5 ADD SWAP2 POP POP SWAP3 SWAP2 POP POP JUMP JUMPDEST PUSH1 0x0 PUSH1 0x20 DUP3 ADD SWAP1 POP DUP2 DUP2 SUB PUSH1 0x0 DUP4 ADD MSTORE PUSH2 0xE9D DUP2 DUP5 PUSH2 0xE4A JUMP JUMPDEST SWAP1 POP SWAP3 SWAP2 POP POP JUMP JUMPDEST PUSH1 0x0 PUSH1 0x40 MLOAD SWAP1 POP SWAP1 JUMP JUMPDEST PUSH1 0x0 DUP1 REVERT JUMPDEST PUSH1 0x0 DUP1 REVERT JUMPDEST PUSH1 0x0 PUSH20 0xFFFFFFFFFFFFFFFFFFFFFFFFFFFFFFFFFFFFFFFF DUP3 AND SWAP1 POP SWAP2 SWAP1 POP JUMP JUMPDEST PUSH1 0x0 PUSH2 0xEE4 DUP3 PUSH2 0xEB9 JUMP JUMPDEST SWAP1 POP SWAP2 SWAP1 POP JUMP JUMPDEST PUSH2 0xEF4 DUP2 PUSH2 0xED9 JUMP JUMPDEST DUP2 EQ PUSH2 0xEFF JUMPI PUSH1 0x0 DUP1 REVERT JUMPDEST POP JUMP JUMPDEST PUSH1 0x0 DUP2 CALLDATALOAD SWAP1 POP PUSH2 0xF11 DUP2 PUSH2 0xEEB JUMP JUMPDEST SWAP3 SWAP2 POP POP JUMP JUMPDEST PUSH1 0x0 DUP2 SWAP1 POP SWAP2 SWAP1 POP JUMP JUMPDEST PUSH2 0xF2A DUP2 PUSH2 0xF17 JUMP JUMPDEST DUP2 EQ PUSH2 0xF35 JUMPI PUSH1 0x0 DUP1 REVERT JUMPDEST POP JUMP JUMPDEST PUSH1 0x0 DUP2 CALLDATALOAD SWAP1 POP PUSH2 0xF47 DUP2 PUSH2 0xF21 JUMP JUMPDEST SWAP3 SWAP2 POP POP JUMP JUMPDEST PUSH1 0x0 DUP1 PUSH1 0x40 DUP4 DUP6 SUB SLT ISZERO PUSH2 0xF64 JUMPI PUSH2 0xF63 PUSH2 0xEAF JUMP JUMPDEST JUMPDEST PUSH1 0x0 PUSH2 0xF72 DUP6 DUP3 DUP7 ADD PUSH2 0xF02 JUMP JUMPDEST SWAP3 POP POP PUSH1 0x20 PUSH2 0xF83 DUP6 DUP3 DUP7 ADD PUSH2 0xF38 JUMP JUMPDEST SWAP2 POP POP SWAP3 POP SWAP3 SWAP1 POP JUMP JUMPDEST PUSH1 0x0 DUP2 ISZERO ISZERO SWAP1 POP SWAP2 SWAP1 POP JUMP JUMPDEST PUSH2 0xFA2 DUP2 PUSH2 0xF8D JUMP JUMPDEST DUP3 MSTORE POP POP JUMP JUMPDEST PUSH1 0x0 PUSH1 0x20 DUP3 ADD SWAP1 POP PUSH2 0xFBD PUSH1 0x0 DUP4 ADD DUP5 PUSH2 0xF99 JUMP JUMPDEST SWAP3 SWAP2 POP POP JUMP JUMPDEST PUSH2 0xFCC DUP2 PUSH2 0xF17 JUMP JUMPDEST DUP3 MSTORE POP POP JUMP JUMPDEST PUSH1 0x0 PUSH1 0x20 DUP3 ADD SWAP1 POP PUSH2 0xFE7 PUSH1 0x0 DUP4 ADD DUP5 PUSH2 0xFC3 JUMP JUMPDEST SWAP3 SWAP2 POP POP JUMP JUMPDEST PUSH1 0x0 DUP1 PUSH1 0x0 PUSH1 0x60 DUP5 DUP7 SUB SLT ISZERO PUSH2 0x1006 JUMPI PUSH2 0x1005 PUSH2 0xEAF JUMP JUMPDEST JUMPDEST PUSH1 0x0 PUSH2 0x1014 DUP7 DUP3 DUP8 ADD PUSH2 0xF02 JUMP JUMPDEST SWAP4 POP POP PUSH1 0x20 PUSH2 0x1025 DUP7 DUP3 DUP8 ADD PUSH2 0xF02 JUMP JUMPDEST SWAP3 POP POP PUSH1 0x40 PUSH2 0x1036 DUP7 DUP3 DUP8 ADD PUSH2 0xF38 JUMP JUMPDEST SWAP2 POP POP SWAP3 POP SWAP3 POP SWAP3 JUMP JUMPDEST PUSH1 0x0 PUSH1 0xFF DUP3 AND SWAP1 POP SWAP2 SWAP1 POP JUMP JUMPDEST PUSH2 0x1056 DUP2 PUSH2 0x1040 JUMP JUMPDEST DUP3 MSTORE POP POP JUMP JUMPDEST PUSH1 0x0 PUSH1 0x20 DUP3 ADD SWAP1 POP PUSH2 0x1071 PUSH1 0x0 DUP4 ADD DUP5 PUSH2 0x104D JUMP JUMPDEST SWAP3 SWAP2 POP POP JUMP JUMPDEST PUSH1 0x0 PUSH1 0x20 DUP3 DUP5 SUB SLT ISZERO PUSH2 0x108D JUMPI PUSH2 0x108C PUSH2 0xEAF JUMP JUMPDEST JUMPDEST PUSH1 0x0 PUSH2 0x109B DUP5 DUP3 DUP6 ADD PUSH2 0xF02 JUMP JUMPDEST SWAP2 POP POP SWAP3 SWAP2 POP POP JUMP JUMPDEST PUSH1 0x0 DUP1 REVERT JUMPDEST PUSH1 0x0 DUP1 REVERT JUMPDEST PUSH32 0x4E487B7100000000000000000000000000000000000000000000000000000000 PUSH1 0x0 MSTORE PUSH1 0x41 PUSH1 0x4 MSTORE PUSH1 0x24 PUSH1 0x0 REVERT JUMPDEST PUSH2 0x10E6 DUP3 PUSH2 0xE39 JUMP JUMPDEST DUP2 ADD DUP2 DUP2 LT PUSH8 0xFFFFFFFFFFFFFFFF DUP3 GT OR ISZERO PUSH2 0x1105 JUMPI PUSH2 0x1104 PUSH2 0x10AE JUMP JUMPDEST JUMPDEST DUP1 PUSH1 0x40 MSTORE POP POP POP JUMP JUMPDEST PUSH1 0x0 PUSH2 0x1118 PUSH2 0xEA5 JUMP JUMPDEST SWAP1 POP PUSH2 0x1124 DUP3 DUP3 PUSH2 0x10DD JUMP JUMPDEST SWAP2 SWAP1 POP JUMP JUMPDEST PUSH1 0x0 PUSH8 0xFFFFFFFFFFFFFFFF DUP3 GT ISZERO PUSH2 0x1144 JUMPI PUSH2 0x1143 PUSH2 0x10AE JUMP JUMPDEST JUMPDEST PUSH2 0x114D DUP3 PUSH2 0xE39 JUMP JUMPDEST SWAP1 POP PUSH1 0x20 DUP2 ADD SWAP1 POP SWAP2 SWAP1 POP JUMP JUMPDEST DUP3 DUP2 DUP4 CALLDATACOPY PUSH1 0x0 DUP4 DUP4 ADD MSTORE POP POP POP JUMP JUMPDEST PUSH1 0x0 PUSH2 0x117C PUSH2 0x1177 DUP5 PUSH2 0x1129 JUMP JUMPDEST PUSH2 0x110E JUMP JUMPDEST SWAP1 POP DUP3 DUP2 MSTORE PUSH1 0x20 DUP2 ADD DUP5 DUP5 DUP5 ADD GT ISZERO PUSH2 0x1198 JUMPI PUSH2 0x1197 PUSH2 0x10A9 JUMP JUMPDEST JUMPDEST PUSH2 0x11A3 DUP5 DUP3 DUP6 PUSH2 0x115A JUMP JUMPDEST POP SWAP4 SWAP3 POP POP POP JUMP JUMPDEST PUSH1 0x0 DUP3 PUSH1 0x1F DUP4 ADD SLT PUSH2 0x11C0 JUMPI PUSH2 0x11BF PUSH2 0x10A4 JUMP JUMPDEST JUMPDEST DUP2 CALLDATALOAD PUSH2 0x11D0 DUP5 DUP3 PUSH1 0x20 DUP7 ADD PUSH2 0x1169 JUMP JUMPDEST SWAP2 POP POP SWAP3 SWAP2 POP POP JUMP JUMPDEST PUSH1 0x0 DUP1 PUSH1 0x0 DUP1 PUSH1 0x80 DUP6 DUP8 SUB SLT ISZERO PUSH2 0x11F3 JUMPI PUSH2 0x11F2 PUSH2 0xEAF JUMP JUMPDEST JUMPDEST PUSH1 0x0 PUSH2 0x1201 DUP8 DUP3 DUP9 ADD PUSH2 0xF02 JUMP JUMPDEST SWAP5 POP POP PUSH1 0x20 PUSH2 0x1212 DUP8 DUP3 DUP9 ADD PUSH2 0xF02 JUMP JUMPDEST SWAP4 POP POP PUSH1 0x40 PUSH2 0x1223 DUP8 DUP3 DUP9 ADD PUSH2 0xF38 JUMP JUMPDEST SWAP3 POP POP PUSH1 0x60 DUP6 ADD CALLDATALOAD PUSH8 0xFFFFFFFFFFFFFFFF DUP2 GT ISZERO PUSH2 0x1244 JUMPI PUSH2 0x1243 PUSH2 0xEB4 JUMP JUMPDEST JUMPDEST PUSH2 0x1250 DUP8 DUP3 DUP9 ADD PUSH2 0x11AB JUMP JUMPDEST SWAP2 POP POP SWAP3 SWAP6 SWAP2 SWAP5 POP SWAP3 POP JUMP JUMPDEST PUSH1 0x0 DUP1 PUSH1 0x40 DUP4 DUP6 SUB SLT ISZERO PUSH2 0x1273 JUMPI PUSH2 0x1272 PUSH2 0xEAF JUMP JUMPDEST JUMPDEST PUSH1 0x0 PUSH2 0x1281 DUP6 DUP3 DUP7 ADD PUSH2 0xF02 JUMP JUMPDEST SWAP3 POP POP PUSH1 0x20 PUSH2 0x1292 DUP6 DUP3 DUP7 ADD PUSH2 0xF02 JUMP JUMPDEST SWAP2 POP POP SWAP3 POP SWAP3 SWAP1 POP JUMP JUMPDEST PUSH1 0x0 DUP1 PUSH1 0x0 PUSH1 0x60 DUP5 DUP7 SUB SLT ISZERO PUSH2 0x12B5 JUMPI PUSH2 0x12B4 PUSH2 0xEAF JUMP JUMPDEST JUMPDEST PUSH1 0x0 PUSH2 0x12C3 DUP7 DUP3 DUP8 ADD PUSH2 0xF02 JUMP JUMPDEST SWAP4 POP POP PUSH1 0x20 PUSH2 0x12D4 DUP7 DUP3 DUP8 ADD PUSH2 0xF38 JUMP JUMPDEST SWAP3 POP POP PUSH1 0x40 DUP5 ADD CALLDATALOAD PUSH8 0xFFFFFFFFFFFFFFFF DUP2 GT ISZERO PUSH2 0x12F5 JUMPI PUSH2 0x12F4 PUSH2 0xEB4 JUMP JUMPDEST JUMPDEST PUSH2 0x1301 DUP7 DUP3 DUP8 ADD PUSH2 0x11AB JUMP JUMPDEST SWAP2 POP POP SWAP3 POP SWAP3 POP SWAP3 JUMP JUMPDEST PUSH32 0x4E487B7100000000000000000000000000000000000000000000000000000000 PUSH1 0x0 MSTORE PUSH1 0x22 PUSH1 0x4 MSTORE PUSH1 0x24 PUSH1 0x0 REVERT JUMPDEST PUSH1 0x0 PUSH1 0x2 DUP3 DIV SWAP1 POP PUSH1 0x1 DUP3 AND DUP1 PUSH2 0x1352 JUMPI PUSH1 0x7F DUP3 AND SWAP2 POP JUMPDEST PUSH1 0x20 DUP3 LT DUP2 SUB PUSH2 0x1365 JUMPI PUSH2 0x1364 PUSH2 0x130B JUMP JUMPDEST JUMPDEST POP SWAP2 SWAP1 POP JUMP JUMPDEST PUSH32 0x4E487B7100000000000000000000000000000000000000000000000000000000 PUSH1 0x0 MSTORE PUSH1 0x11 PUSH1 0x4 MSTORE PUSH1 0x24 PUSH1 0x0 REVERT JUMPDEST PUSH1 0x0 PUSH2 0x13A5 DUP3 PUSH2 0xF17 JUMP JUMPDEST SWAP2 POP PUSH2 0x13B0 DUP4 PUSH2 0xF17 JUMP JUMPDEST SWAP3 POP DUP3 DUP3 ADD SWAP1 POP DUP1 DUP3 GT ISZERO PUSH2 0x13C8 JUMPI PUSH2 0x13C7 PUSH2 0x136B JUMP JUMPDEST JUMPDEST SWAP3 SWAP2 POP POP JUMP JUMPDEST PUSH32 0x4B4950373A2064656372656173656420616C6C6F77616E63652062656C6F7720 PUSH1 0x0 DUP3 ADD MSTORE PUSH32 0x7A65726F00000000000000000000000000000000000000000000000000000000 PUSH1 0x20 DUP3 ADD MSTORE POP JUMP JUMPDEST PUSH1 0x0 PUSH2 0x142A PUSH1 0x24 DUP4 PUSH2 0xDFE JUMP JUMPDEST SWAP2 POP PUSH2 0x1435 DUP3 PUSH2 0x13CE JUMP JUMPDEST PUSH1 0x40 DUP3 ADD SWAP1 POP SWAP2 SWAP1 POP JUMP JUMPDEST PUSH1 0x0 PUSH1 0x20 DUP3 ADD SWAP1 POP DUP2 DUP2 SUB PUSH1 0x0 DUP4 ADD MSTORE PUSH2 0x1459 DUP2 PUSH2 0x141D JUMP JUMPDEST SWAP1 POP SWAP2 SWAP1 POP JUMP JUMPDEST PUSH32 0x4B4950373A20617070726F76652066726F6D20746865207A65726F2061646472 PUSH1 0x0 DUP3 ADD MSTORE PUSH32 0x6573730000000000000000000000000000000000000000000000000000000000 PUSH1 0x20 DUP3 ADD MSTORE POP JUMP JUMPDEST PUSH1 0x0 PUSH2 0x14BC PUSH1 0x23 DUP4 PUSH2 0xDFE JUMP JUMPDEST SWAP2 POP PUSH2 0x14C7 DUP3 PUSH2 0x1460 JUMP JUMPDEST PUSH1 0x40 DUP3 ADD SWAP1 POP SWAP2 SWAP1 POP JUMP JUMPDEST PUSH1 0x0 PUSH1 0x20 DUP3 ADD SWAP1 POP DUP2 DUP2 SUB PUSH1 0x0 DUP4 ADD MSTORE PUSH2 0x14EB DUP2 PUSH2 0x14AF JUMP JUMPDEST SWAP1 POP SWAP2 SWAP1 POP JUMP JUMPDEST PUSH32 0x4B4950373A20617070726F766520746F20746865207A65726F20616464726573 PUSH1 0x0 DUP3 ADD MSTORE PUSH32 0x7300000000000000000000000000000000000000000000000000000000000000 PUSH1 0x20 DUP3 ADD MSTORE POP JUMP JUMPDEST PUSH1 0x0 PUSH2 0x154E PUSH1 0x21 DUP4 PUSH2 0xDFE JUMP JUMPDEST SWAP2 POP PUSH2 0x1559 DUP3 PUSH2 0x14F2 JUMP JUMPDEST PUSH1 0x40 DUP3 ADD SWAP1 POP SWAP2 SWAP1 POP JUMP JUMPDEST PUSH1 0x0 PUSH1 0x20 DUP3 ADD SWAP1 POP DUP2 DUP2 SUB PUSH1 0x0 DUP4 ADD MSTORE PUSH2 0x157D DUP2 PUSH2 0x1541 JUMP JUMPDEST SWAP1 POP SWAP2 SWAP1 POP JUMP JUMPDEST PUSH32 0x4B4950373A20696E73756666696369656E7420616C6C6F77616E636500000000 PUSH1 0x0 DUP3 ADD MSTORE POP JUMP JUMPDEST PUSH1 0x0 PUSH2 0x15BA PUSH1 0x1C DUP4 PUSH2 0xDFE JUMP JUMPDEST SWAP2 POP PUSH2 0x15C5 DUP3 PUSH2 0x1584 JUMP JUMPDEST PUSH1 0x20 DUP3 ADD SWAP1 POP SWAP2 SWAP1 POP JUMP JUMPDEST PUSH1 0x0 PUSH1 0x20 DUP3 ADD SWAP1 POP DUP2 DUP2 SUB PUSH1 0x0 DUP4 ADD MSTORE PUSH2 0x15E9 DUP2 PUSH2 0x15AD JUMP JUMPDEST SWAP1 POP SWAP2 SWAP1 POP JUMP JUMPDEST PUSH32 0x4B4950373A207472616E736665722066726F6D20746865207A65726F20616464 PUSH1 0x0 DUP3 ADD MSTORE PUSH32 0x7265737300000000000000000000000000000000000000000000000000000000 PUSH1 0x20 DUP3 ADD MSTORE POP JUMP JUMPDEST PUSH1 0x0 PUSH2 0x164C PUSH1 0x24 DUP4 PUSH2 0xDFE JUMP JUMPDEST SWAP2 POP PUSH2 0x1657 DUP3 PUSH2 0x15F0 JUMP JUMPDEST PUSH1 0x40 DUP3 ADD SWAP1 POP SWAP2 SWAP1 POP JUMP JUMPDEST PUSH1 0x0 PUSH1 0x20 DUP3 ADD SWAP1 POP DUP2 DUP2 SUB PUSH1 0x0 DUP4 ADD MSTORE PUSH2 0x167B DUP2 PUSH2 0x163F JUMP JUMPDEST SWAP1 POP SWAP2 SWAP1 POP JUMP JUMPDEST PUSH32 0x4B4950373A207472616E7366657220746F20746865207A65726F206164647265 PUSH1 0x0 DUP3 ADD MSTORE PUSH32 0x7373000000000000000000000000000000000000000000000000000000000000 PUSH1 0x20 DUP3 ADD MSTORE POP JUMP JUMPDEST PUSH1 0x0 PUSH2 0x16DE PUSH1 0x22 DUP4 PUSH2 0xDFE JUMP JUMPDEST SWAP2 POP PUSH2 0x16E9 DUP3 PUSH2 0x1682 JUMP JUMPDEST PUSH1 0x40 DUP3 ADD SWAP1 POP SWAP2 SWAP1 POP JUMP JUMPDEST PUSH1 0x0 PUSH1 0x20 DUP3 ADD SWAP1 POP DUP2 DUP2 SUB PUSH1 0x0 DUP4 ADD MSTORE PUSH2 0x170D DUP2 PUSH2 0x16D1 JUMP JUMPDEST SWAP1 POP SWAP2 SWAP1 POP JUMP JUMPDEST PUSH32 0x4B4950373A207472616E7366657220616D6F756E742065786365656473206261 PUSH1 0x0 DUP3 ADD MSTORE PUSH32 0x6C616E6365000000000000000000000000000000000000000000000000000000 PUSH1 0x20 DUP3 ADD MSTORE POP JUMP JUMPDEST PUSH1 0x0 PUSH2 0x1770 PUSH1 0x25 DUP4 PUSH2 0xDFE JUMP JUMPDEST SWAP2 POP PUSH2 0x177B DUP3 PUSH2 0x1714 JUMP JUMPDEST PUSH1 0x40 DUP3 ADD SWAP1 POP SWAP2 SWAP1 POP JUMP JUMPDEST PUSH1 0x0 PUSH1 0x20 DUP3 ADD SWAP1 POP DUP2 DUP2 SUB PUSH1 0x0 DUP4 ADD MSTORE PUSH2 0x179F DUP2 PUSH2 0x1763 JUMP JUMPDEST SWAP1 POP SWAP2 SWAP1 POP JUMP JUMPDEST PUSH32 0x4B4950373A207472616E7366657220746F206E6F6E20494B4950375265636569 PUSH1 0x0 DUP3 ADD MSTORE PUSH32 0x76657220696D706C656D656E7465720000000000000000000000000000000000 PUSH1 0x20 DUP3 ADD MSTORE POP JUMP JUMPDEST PUSH1 0x0 PUSH2 0x1802 PUSH1 0x2F DUP4 PUSH2 0xDFE JUMP JUMPDEST SWAP2 POP PUSH2 0x180D DUP3 PUSH2 0x17A6 JUMP JUMPDEST PUSH1 0x40 DUP3 ADD SWAP1 POP SWAP2 SWAP1 POP JUMP JUMPDEST PUSH1 0x0 PUSH1 0x20 DUP3 ADD SWAP1 POP DUP2 DUP2 SUB PUSH1 0x0 DUP4 ADD MSTORE PUSH2 0x1831 DUP2 PUSH2 0x17F5 JUMP JUMPDEST SWAP1 POP SWAP2 SWAP1 POP JUMP JUMPDEST PUSH2 0x1841 DUP2 PUSH2 0xED9 JUMP JUMPDEST DUP3 MSTORE POP POP JUMP JUMPDEST PUSH1 0x0 DUP2 MLOAD SWAP1 POP SWAP2 SWAP1 POP JUMP JUMPDEST PUSH1 0x0 DUP3 DUP3 MSTORE PUSH1 0x20 DUP3 ADD SWAP1 POP SWAP3 SWAP2 POP POP JUMP JUMPDEST PUSH1 0x0 PUSH2 0x186E DUP3 PUSH2 0x1847 JUMP JUMPDEST PUSH2 0x1878 DUP2 DUP6 PUSH2 0x1852 JUMP JUMPDEST SWAP4 POP PUSH2 0x1888 DUP2 DUP6 PUSH1 0x20 DUP7 ADD PUSH2 0xE0F JUMP JUMPDEST PUSH2 0x1891 DUP2 PUSH2 0xE39 JUMP JUMPDEST DUP5 ADD SWAP2 POP POP SWAP3 SWAP2 POP POP JUMP JUMPDEST PUSH1 0x0 PUSH1 0x80 DUP3 ADD SWAP1 POP PUSH2 0x18B1 PUSH1 0x0 DUP4 ADD DUP8 PUSH2 0x1838 JUMP JUMPDEST PUSH2 0x18BE PUSH1 0x20 DUP4 ADD DUP7 PUSH2 0x1838 JUMP JUMPDEST PUSH2 0x18CB PUSH1 0x40 DUP4 ADD DUP6 PUSH2 0xFC3 JUMP JUMPDEST DUP2 DUP2 SUB PUSH1 0x60 DUP4 ADD MSTORE PUSH2 0x18DD DUP2 DUP5 PUSH2 0x1863 JUMP JUMPDEST SWAP1 POP SWAP6 SWAP5 POP POP POP POP POP JUMP JUMPDEST PUSH1 0x0 PUSH32 0xFFFFFFFF00000000000000000000000000000000000000000000000000000000 DUP3 AND SWAP1 POP SWAP2 SWAP1 POP JUMP JUMPDEST PUSH2 0x191D DUP2 PUSH2 0x18E8 JUMP JUMPDEST DUP2 EQ PUSH2 0x1928 JUMPI PUSH1 0x0 DUP1 REVERT JUMPDEST POP JUMP JUMPDEST PUSH1 0x0 DUP2 MLOAD SWAP1 POP PUSH2 0x193A DUP2 PUSH2 0x1914 JUMP JUMPDEST SWAP3 SWAP2 POP POP JUMP JUMPDEST PUSH1 0x0 PUSH1 0x20 DUP3 DUP5 SUB SLT ISZERO PUSH2 0x1956 JUMPI PUSH2 0x1955 PUSH2 0xEAF JUMP JUMPDEST JUMPDEST PUSH1 0x0 PUSH2 0x1964 DUP5 DUP3 DUP6 ADD PUSH2 0x192B JUMP JUMPDEST SWAP2 POP POP SWAP3 SWAP2 POP POP JUMP JUMPDEST PUSH32 0x4B4950373A207472616E7366657220746F206E6F6E204B495037526563656976 PUSH1 0x0 DUP3 ADD MSTORE PUSH32 0x657220696D706C656D656E746572000000000000000000000000000000000000 PUSH1 0x20 DUP3 ADD MSTORE POP JUMP JUMPDEST PUSH1 0x0 PUSH2 0x19C9 PUSH1 0x2E DUP4 PUSH2 0xDFE JUMP JUMPDEST SWAP2 POP PUSH2 0x19D4 DUP3 PUSH2 0x196D JUMP JUMPDEST PUSH1 0x40 DUP3 ADD SWAP1 POP SWAP2 SWAP1 POP JUMP JUMPDEST PUSH1 0x0 PUSH1 0x20 DUP3 ADD SWAP1 POP DUP2 DUP2 SUB PUSH1 0x0 DUP4 ADD MSTORE PUSH2 0x19F8 DUP2 PUSH2 0x19BC JUMP JUMPDEST SWAP1 POP SWAP2 SWAP1 POP JUMP INVALID LOG2 PUSH5 0x6970667358 0x22 SLT KECCAK256 SWAP1 PC PUSH18 0x5B1E0E27E6F1A485046474033C1117ED3ECB SLT BYTE ADDMOD NOT EXP 0xFB MUL 0xB6 SWAP5 0xBC 0xD3 PUSH5 0x736F6C6343 STOP ADDMOD SLT STOP CALLER "
				},
				"gasEstimates": {
					"creation": {
						"codeDepositCost": "1341800",
						"executionCost": "infinite",
						"totalCost": "infinite"
					},
					"external": {
						"allowance(address,address)": "infinite",
						"approve(address,uint256)": "infinite",
						"balanceOf(address)": "2886",
						"decimals()": "388",
						"decreaseAllowance(address,uint256)": "infinite",
						"increaseAllowance(address,uint256)": "infinite",
						"name()": "infinite",
						"safeTransfer(address,uint256)": "infinite",
						"safeTransfer(address,uint256,bytes)": "infinite",
						"safeTransferFrom(address,address,uint256)": "infinite",
						"safeTransferFrom(address,address,uint256,bytes)": "infinite",
						"symbol()": "infinite",
						"totalSupply()": "2505",
						"transfer(address,uint256)": "infinite",
						"transferFrom(address,address,uint256)": "infinite"
					},
					"internal": {
						"_afterTokenTransfer(address,address,uint256)": "15",
						"_approve(address,address,uint256)": "infinite",
						"_beforeTokenTransfer(address,address,uint256)": "15",
						"_burn(address,uint256)": "infinite",
						"_checkOnKIP7Received(address,address,uint256,bytes memory)": "infinite",
						"_mint(address,uint256)": "infinite",
						"_safeMint(address,uint256)": "infinite",
						"_safeMint(address,uint256,bytes memory)": "infinite",
						"_safeTransfer(address,address,uint256,bytes memory)": "infinite",
						"_spendAllowance(address,address,uint256)": "infinite",
						"_transfer(address,address,uint256)": "infinite"
					}
				},
				"methodIdentifiers": {
					"allowance(address,address)": "dd62ed3e",
					"approve(address,uint256)": "095ea7b3",
					"balanceOf(address)": "70a08231",
					"decimals()": "313ce567",
					"decreaseAllowance(address,uint256)": "a457c2d7",
					"increaseAllowance(address,uint256)": "39509351",
					"name()": "06fdde03",
					"safeTransfer(address,uint256)": "423f6cef",
					"safeTransfer(address,uint256,bytes)": "eb795549",
					"safeTransferFrom(address,address,uint256)": "42842e0e",
					"safeTransferFrom(address,address,uint256,bytes)": "b88d4fde",
					"symbol()": "95d89b41",
					"totalSupply()": "18160ddd",
					"transfer(address,uint256)": "a9059cbb",
					"transferFrom(address,address,uint256)": "23b872dd"
				}
			},
			"storageLayout": {
				"storage": [
					{
						"astId": 155,
						"contract": "@klaytn/contracts/contracts/KIP/token/KIP7/KIP7.sol:KIP7",
						"label": "_balances",
						"offset": 0,
						"slot": "0",
						"type": "t_mapping(t_address,t_uint256)"
					},
					{
						"astId": 161,
						"contract": "@klaytn/contracts/contracts/KIP/token/KIP7/KIP7.sol:KIP7",
						"label": "_allowances",
						"offset": 0,
						"slot": "1",
						"type": "t_mapping(t_address,t_mapping(t_address,t_uint256))"
					},
					{
						"astId": 163,
						"contract": "@klaytn/contracts/contracts/KIP/token/KIP7/KIP7.sol:KIP7",
						"label": "_totalSupply",
						"offset": 0,
						"slot": "2",
						"type": "t_uint256"
					},
					{
						"astId": 165,
						"contract": "@klaytn/contracts/contracts/KIP/token/KIP7/KIP7.sol:KIP7",
						"label": "_name",
						"offset": 0,
						"slot": "3",
						"type": "t_string_storage"
					},
					{
						"astId": 167,
						"contract": "@klaytn/contracts/contracts/KIP/token/KIP7/KIP7.sol:KIP7",
						"label": "_symbol",
						"offset": 0,
						"slot": "4",
						"type": "t_string_storage"
					}
				],
				"types": {
					"t_address": {
						"encoding": "inplace",
						"label": "address",
						"numberOfBytes": "20"
					},
					"t_mapping(t_address,t_mapping(t_address,t_uint256))": {
						"encoding": "mapping",
						"key": "t_address",
						"label": "mapping(address => mapping(address => uint256))",
						"numberOfBytes": "32",
						"value": "t_mapping(t_address,t_uint256)"
					},
					"t_mapping(t_address,t_uint256)": {
						"encoding": "mapping",
						"key": "t_address",
						"label": "mapping(address => uint256)",
						"numberOfBytes": "32",
						"value": "t_uint256"
					},
					"t_string_storage": {
						"encoding": "bytes",
						"label": "string",
						"numberOfBytes": "32"
					},
					"t_uint256": {
						"encoding": "inplace",
						"label": "uint256",
						"numberOfBytes": "32"
					}
				}
			},
			"userdoc": {
				"kind": "user",
				"methods": {},
				"version": 1
			}
		}
	}
}