{
	"contracts/Lotto.sol": {
		"Lottery": {
			"abi": [
				{
					"inputs": [
						{
							"internalType": "address",
							"name": "_token",
							"type": "address"
						},
						{
							"internalType": "uint256",
							"name": "_round_interval",
							"type": "uint256"
						},
						{
							"internalType": "uint256",
							"name": "_ticket_price",
							"type": "uint256"
						},
						{
							"internalType": "uint256",
							"name": "_ticket_token_price",
							"type": "uint256"
						}
					],
					"stateMutability": "nonpayable",
					"type": "constructor"
				},
				{
					"anonymous": false,
					"inputs": [
						{
							"indexed": true,
							"internalType": "address",
							"name": "previousOwner",
							"type": "address"
						},
						{
							"indexed": true,
							"internalType": "address",
							"name": "newOwner",
							"type": "address"
						}
					],
					"name": "OwnershipTransferred",
					"type": "event"
				},
				{
					"inputs": [],
					"name": "MAX_NUMBER",
					"outputs": [
						{
							"internalType": "uint256",
							"name": "",
							"type": "uint256"
						}
					],
					"stateMutability": "view",
					"type": "function"
				},
				{
					"inputs": [],
					"name": "MIN_NUMBER",
					"outputs": [
						{
							"internalType": "uint256",
							"name": "",
							"type": "uint256"
						}
					],
					"stateMutability": "view",
					"type": "function"
				},
				{
					"inputs": [],
					"name": "Stop",
					"outputs": [],
					"stateMutability": "nonpayable",
					"type": "function"
				},
				{
					"inputs": [],
					"name": "TICKET_PRICE",
					"outputs": [
						{
							"internalType": "uint256",
							"name": "",
							"type": "uint256"
						}
					],
					"stateMutability": "view",
					"type": "function"
				},
				{
					"inputs": [],
					"name": "TICKET_TOKEN_PRICE",
					"outputs": [
						{
							"internalType": "uint256",
							"name": "",
							"type": "uint256"
						}
					],
					"stateMutability": "view",
					"type": "function"
				},
				{
					"inputs": [
						{
							"internalType": "uint256[6]",
							"name": "numbers",
							"type": "uint256[6]"
						}
					],
					"name": "buy",
					"outputs": [],
					"stateMutability": "payable",
					"type": "function"
				},
				{
					"inputs": [
						{
							"internalType": "uint256",
							"name": "_interval",
							"type": "uint256"
						}
					],
					"name": "changeInterval",
					"outputs": [],
					"stateMutability": "nonpayable",
					"type": "function"
				},
				{
					"inputs": [
						{
							"internalType": "uint256",
							"name": "_price",
							"type": "uint256"
						}
					],
					"name": "changePrice",
					"outputs": [],
					"stateMutability": "nonpayable",
					"type": "function"
				},
				{
					"inputs": [
						{
							"internalType": "uint256",
							"name": "number",
							"type": "uint256"
						}
					],
					"name": "claim",
					"outputs": [],
					"stateMutability": "nonpayable",
					"type": "function"
				},
				{
					"inputs": [],
					"name": "currentBlock",
					"outputs": [
						{
							"internalType": "uint256",
							"name": "",
							"type": "uint256"
						}
					],
					"stateMutability": "view",
					"type": "function"
				},
				{
					"inputs": [],
					"name": "getContractBalance",
					"outputs": [
						{
							"internalType": "uint256",
							"name": "",
							"type": "uint256"
						}
					],
					"stateMutability": "view",
					"type": "function"
				},
				{
					"inputs": [
						{
							"internalType": "uint256",
							"name": "_round",
							"type": "uint256"
						}
					],
					"name": "getMyTicket",
					"outputs": [
						{
							"internalType": "uint256[6][]",
							"name": "",
							"type": "uint256[6][]"
						}
					],
					"stateMutability": "view",
					"type": "function"
				},
				{
					"inputs": [
						{
							"internalType": "uint256",
							"name": "_round",
							"type": "uint256"
						}
					],
					"name": "getWinNumbers",
					"outputs": [
						{
							"internalType": "uint256[7]",
							"name": "",
							"type": "uint256[7]"
						}
					],
					"stateMutability": "view",
					"type": "function"
				},
				{
					"inputs": [],
					"name": "nextRound",
					"outputs": [],
					"stateMutability": "nonpayable",
					"type": "function"
				},
				{
					"inputs": [],
					"name": "owner",
					"outputs": [
						{
							"internalType": "address",
							"name": "",
							"type": "address"
						}
					],
					"stateMutability": "view",
					"type": "function"
				},
				{
					"inputs": [],
					"name": "renounceOwnership",
					"outputs": [],
					"stateMutability": "nonpayable",
					"type": "function"
				},
				{
					"inputs": [],
					"name": "round_interval",
					"outputs": [
						{
							"internalType": "uint256",
							"name": "",
							"type": "uint256"
						}
					],
					"stateMutability": "view",
					"type": "function"
				},
				{
					"inputs": [
						{
							"internalType": "uint256",
							"name": "",
							"type": "uint256"
						}
					],
					"name": "rounds",
					"outputs": [
						{
							"internalType": "uint256",
							"name": "startTime",
							"type": "uint256"
						},
						{
							"internalType": "uint256",
							"name": "endTime",
							"type": "uint256"
						},
						{
							"internalType": "enum Lottery.RoundStatus",
							"name": "status",
							"type": "uint8"
						},
						{
							"internalType": "uint256",
							"name": "totalQuantity",
							"type": "uint256"
						}
					],
					"stateMutability": "view",
					"type": "function"
				},
				{
					"inputs": [
						{
							"internalType": "uint256",
							"name": "",
							"type": "uint256"
						}
					],
					"name": "tickets",
					"outputs": [
						{
							"internalType": "address",
							"name": "owner",
							"type": "address"
						},
						{
							"internalType": "uint256",
							"name": "round",
							"type": "uint256"
						}
					],
					"stateMutability": "view",
					"type": "function"
				},
				{
					"inputs": [],
					"name": "token",
					"outputs": [
						{
							"internalType": "contract IKIP7",
							"name": "",
							"type": "address"
						}
					],
					"stateMutability": "view",
					"type": "function"
				},
				{
					"inputs": [
						{
							"internalType": "uint256[6]",
							"name": "numbers",
							"type": "uint256[6]"
						}
					],
					"name": "tokenBuy",
					"outputs": [],
					"stateMutability": "nonpayable",
					"type": "function"
				},
				{
					"inputs": [
						{
							"internalType": "address payable",
							"name": "toAdress",
							"type": "address"
						}
					],
					"name": "tokenWithdraw",
					"outputs": [],
					"stateMutability": "nonpayable",
					"type": "function"
				},
				{
					"inputs": [
						{
							"internalType": "address",
							"name": "newOwner",
							"type": "address"
						}
					],
					"name": "transferOwnership",
					"outputs": [],
					"stateMutability": "nonpayable",
					"type": "function"
				}
			],
			"devdoc": {
				"kind": "dev",
				"methods": {
					"owner()": {
						"details": "Returns the address of the current owner."
					},
					"renounceOwnership()": {
						"details": "Leaves the contract without owner. It will not be possible to call `onlyOwner` functions anymore. Can only be called by the current owner. NOTE: Renouncing ownership will leave the contract without an owner, thereby removing any functionality that is only available to the owner."
					},
					"transferOwnership(address)": {
						"details": "Transfers ownership of the contract to a new account (`newOwner`). Can only be called by the current owner."
					}
				},
				"version": 1
			},
			"evm": {
				"assembly": "    /* \"contracts/Lotto.sol\":184:8177  contract Lottery is Ownable {\r... */\n  mstore(0x40, 0x80)\n    /* \"contracts/Lotto.sol\":998:1278  constructor(address _token, uint256 _round_interval, uint256 _ticket_price, uint256 _ticket_token_price) {\r... */\n  callvalue\n  dup1\n  iszero\n  tag_1\n  jumpi\n  0x00\n  dup1\n  revert\ntag_1:\n  pop\n  mload(0x40)\n  sub(codesize, bytecodeSize)\n  dup1\n  bytecodeSize\n  dup4\n  codecopy\n  dup2\n  dup2\n  add\n  0x40\n  mstore\n  dup2\n  add\n  swap1\n  tag_2\n  swap2\n  swap1\n  tag_3\n  jump\t// in\ntag_2:\n    /* \"@klaytn/contracts/contracts/access/Ownable.sol\":921:953  _transferOwnership(_msgSender()) */\n  tag_7\n    /* \"@klaytn/contracts/contracts/access/Ownable.sol\":940:952  _msgSender() */\n  tag_8\n    /* \"@klaytn/contracts/contracts/access/Ownable.sol\":940:950  _msgSender */\n  shl(0x20, tag_9)\n    /* \"@klaytn/contracts/contracts/access/Ownable.sol\":940:952  _msgSender() */\n  0x20\n  shr\n  jump\t// in\ntag_8:\n    /* \"@klaytn/contracts/contracts/access/Ownable.sol\":921:939  _transferOwnership */\n  shl(0x20, tag_10)\n    /* \"@klaytn/contracts/contracts/access/Ownable.sol\":921:953  _transferOwnership(_msgSender()) */\n  0x20\n  shr\n  jump\t// in\ntag_7:\n    /* \"contracts/Lotto.sol\":1124:1130  _token */\n  dup4\n    /* \"contracts/Lotto.sol\":1110:1115  token */\n  0x01\n  0x00\n    /* \"contracts/Lotto.sol\":1110:1131  token = IKIP7(_token) */\n  0x0100\n  exp\n  dup2\n  sload\n  dup2\n  0xffffffffffffffffffffffffffffffffffffffff\n  mul\n  not\n  and\n  swap1\n  dup4\n  0xffffffffffffffffffffffffffffffffffffffff\n  and\n  mul\n  or\n  swap1\n  sstore\n  pop\n    /* \"contracts/Lotto.sol\":1155:1170  _round_interval */\n  dup3\n    /* \"contracts/Lotto.sol\":1138:1152  round_interval */\n  0x06\n    /* \"contracts/Lotto.sol\":1138:1170  round_interval = _round_interval */\n  dup2\n  swap1\n  sstore\n  pop\n    /* \"contracts/Lotto.sol\":1192:1205  _ticket_price */\n  dup2\n    /* \"contracts/Lotto.sol\":1177:1189  TICKET_PRICE */\n  0x02\n    /* \"contracts/Lotto.sol\":1177:1205  TICKET_PRICE = _ticket_price */\n  dup2\n  swap1\n  sstore\n  pop\n    /* \"contracts/Lotto.sol\":1233:1252  _ticket_token_price */\n  dup1\n    /* \"contracts/Lotto.sol\":1212:1230  TICKET_TOKEN_PRICE */\n  0x03\n    /* \"contracts/Lotto.sol\":1212:1252  TICKET_TOKEN_PRICE = _ticket_token_price */\n  dup2\n  swap1\n  sstore\n  pop\n    /* \"contracts/Lotto.sol\":1259:1272  createRound() */\n  tag_12\n    /* \"contracts/Lotto.sol\":1259:1270  createRound */\n  shl(0x20, tag_13)\n    /* \"contracts/Lotto.sol\":1259:1272  createRound() */\n  0x20\n  shr\n  jump\t// in\ntag_12:\n    /* \"contracts/Lotto.sol\":998:1278  constructor(address _token, uint256 _round_interval, uint256 _ticket_price, uint256 _ticket_token_price) {\r... */\n  pop\n  pop\n  pop\n  pop\n    /* \"contracts/Lotto.sol\":184:8177  contract Lottery is Ownable {\r... */\n  jump(tag_14)\n    /* \"@klaytn/contracts/contracts/utils/Context.sol\":640:736  function _msgSender() internal view virtual returns (address) {... */\ntag_9:\n    /* \"@klaytn/contracts/contracts/utils/Context.sol\":693:700  address */\n  0x00\n    /* \"@klaytn/contracts/contracts/utils/Context.sol\":719:729  msg.sender */\n  caller\n    /* \"@klaytn/contracts/contracts/utils/Context.sol\":712:729  return msg.sender */\n  swap1\n  pop\n    /* \"@klaytn/contracts/contracts/utils/Context.sol\":640:736  function _msgSender() internal view virtual returns (address) {... */\n  swap1\n  jump\t// out\n    /* \"@klaytn/contracts/contracts/access/Ownable.sol\":2270:2457  function _transferOwnership(address newOwner) internal virtual {... */\ntag_10:\n    /* \"@klaytn/contracts/contracts/access/Ownable.sol\":2343:2359  address oldOwner */\n  0x00\n    /* \"@klaytn/contracts/contracts/access/Ownable.sol\":2362:2368  _owner */\n  dup1\n  0x00\n  swap1\n  sload\n  swap1\n  0x0100\n  exp\n  swap1\n  div\n  0xffffffffffffffffffffffffffffffffffffffff\n  and\n    /* \"@klaytn/contracts/contracts/access/Ownable.sol\":2343:2368  address oldOwner = _owner */\n  swap1\n  pop\n    /* \"@klaytn/contracts/contracts/access/Ownable.sol\":2387:2395  newOwner */\n  dup2\n    /* \"@klaytn/contracts/contracts/access/Ownable.sol\":2378:2384  _owner */\n  0x00\n  dup1\n    /* \"@klaytn/contracts/contracts/access/Ownable.sol\":2378:2395  _owner = newOwner */\n  0x0100\n  exp\n  dup2\n  sload\n  dup2\n  0xffffffffffffffffffffffffffffffffffffffff\n  mul\n  not\n  and\n  swap1\n  dup4\n  0xffffffffffffffffffffffffffffffffffffffff\n  and\n  mul\n  or\n  swap1\n  sstore\n  pop\n    /* \"@klaytn/contracts/contracts/access/Ownable.sol\":2441:2449  newOwner */\n  dup2\n    /* \"@klaytn/contracts/contracts/access/Ownable.sol\":2410:2450  OwnershipTransferred(oldOwner, newOwner) */\n  0xffffffffffffffffffffffffffffffffffffffff\n  and\n    /* \"@klaytn/contracts/contracts/access/Ownable.sol\":2431:2439  oldOwner */\n  dup2\n    /* \"@klaytn/contracts/contracts/access/Ownable.sol\":2410:2450  OwnershipTransferred(oldOwner, newOwner) */\n  0xffffffffffffffffffffffffffffffffffffffff\n  and\n  0x8be0079c531659141344cd1fd0a4f28419497f9722a3daafe3b4186f6b6457e0\n  mload(0x40)\n  mload(0x40)\n  dup1\n  swap2\n  sub\n  swap1\n  log3\n    /* \"@klaytn/contracts/contracts/access/Ownable.sol\":2333:2457  {... */\n  pop\n    /* \"@klaytn/contracts/contracts/access/Ownable.sol\":2270:2457  function _transferOwnership(address newOwner) internal virtual {... */\n  pop\n  jump\t// out\n    /* \"contracts/Lotto.sol\":1533:1920  function createRound() internal {\r... */\ntag_13:\n    /* \"contracts/Lotto.sol\":1591:1592  0 */\n  0x00\n    /* \"contracts/Lotto.sol\":1575:1581  rounds */\n  0x04\n    /* \"contracts/Lotto.sol\":1575:1588  rounds.length */\n  dup1\n  sload\n  swap1\n  pop\n    /* \"contracts/Lotto.sol\":1575:1592  rounds.length > 0 */\n  gt\n    /* \"contracts/Lotto.sol\":1575:1647  rounds.length > 0 && rounds[rounds.length - 1].status != RoundStatus.End */\n  dup1\n  iszero\n  tag_18\n  jumpi\n  pop\n    /* \"contracts/Lotto.sol\":1632:1647  RoundStatus.End */\n  0x01\n    /* \"contracts/Lotto.sol\":1596:1647  rounds[rounds.length - 1].status != RoundStatus.End */\n  dup1\n  dup2\n  gt\n  iszero\n  tag_19\n  jumpi\n  tag_20\n  tag_21\n  jump\t// in\ntag_20:\ntag_19:\n    /* \"contracts/Lotto.sol\":1596:1602  rounds */\n  0x04\n    /* \"contracts/Lotto.sol\":1619:1620  1 */\n  0x01\n    /* \"contracts/Lotto.sol\":1603:1609  rounds */\n  0x04\n    /* \"contracts/Lotto.sol\":1603:1616  rounds.length */\n  dup1\n  sload\n  swap1\n  pop\n    /* \"contracts/Lotto.sol\":1603:1620  rounds.length - 1 */\n  tag_22\n  swap2\n  swap1\n  tag_23\n  jump\t// in\ntag_22:\n    /* \"contracts/Lotto.sol\":1596:1621  rounds[rounds.length - 1] */\n  dup2\n  sload\n  dup2\n  lt\n  tag_24\n  jumpi\n  tag_25\n  tag_26\n  jump\t// in\ntag_25:\ntag_24:\n  swap1\n  0x00\n  mstore\n  keccak256(0x00, 0x20)\n  swap1\n  0x0b\n  mul\n  add\n    /* \"contracts/Lotto.sol\":1596:1628  rounds[rounds.length - 1].status */\n  0x02\n  add\n  0x00\n  swap1\n  sload\n  swap1\n  0x0100\n  exp\n  swap1\n  div\n  0xff\n  and\n    /* \"contracts/Lotto.sol\":1596:1647  rounds[rounds.length - 1].status != RoundStatus.End */\n  0x01\n  dup2\n  gt\n  iszero\n  tag_28\n  jumpi\n  tag_29\n  tag_21\n  jump\t// in\ntag_29:\ntag_28:\n  eq\n  iszero\n    /* \"contracts/Lotto.sol\":1575:1647  rounds.length > 0 && rounds[rounds.length - 1].status != RoundStatus.End */\ntag_18:\n    /* \"contracts/Lotto.sol\":1572:1693  if(rounds.length > 0 && rounds[rounds.length - 1].status != RoundStatus.End) {\r... */\n  iszero\n  tag_30\n  jumpi\n    /* \"contracts/Lotto.sol\":1658:1685  revert(\"Round in progress\") */\n  mload(0x40)\n  0x08c379a000000000000000000000000000000000000000000000000000000000\n  dup2\n  mstore\n  0x04\n  add\n  tag_31\n  swap1\n  tag_32\n  jump\t// in\ntag_31:\n  mload(0x40)\n  dup1\n  swap2\n  sub\n  swap1\n  revert\n    /* \"contracts/Lotto.sol\":1572:1693  if(rounds.length > 0 && rounds[rounds.length - 1].status != RoundStatus.End) {\r... */\ntag_30:\n    /* \"contracts/Lotto.sol\":1701:1725  uint256[7] memory winNum */\n  tag_33\n  tag_34\n  jump\t// in\ntag_33:\n    /* \"contracts/Lotto.sol\":1738:1756  Round memory round */\n  0x00\n    /* \"contracts/Lotto.sol\":1759:1887  Round(\r... */\n  mload(0x40)\n  dup1\n  0xa0\n  add\n  0x40\n  mstore\n  dup1\n    /* \"contracts/Lotto.sol\":1773:1788  block.timestamp */\n  timestamp\n    /* \"contracts/Lotto.sol\":1759:1887  Round(\r... */\n  dup2\n  mstore\n  0x20\n  add\n    /* \"contracts/Lotto.sol\":1815:1829  round_interval */\n  sload(0x06)\n    /* \"contracts/Lotto.sol\":1797:1812  block.timestamp */\n  timestamp\n    /* \"contracts/Lotto.sol\":1797:1829  block.timestamp + round_interval */\n  tag_35\n  swap2\n  swap1\n  tag_36\n  jump\t// in\ntag_35:\n    /* \"contracts/Lotto.sol\":1759:1887  Round(\r... */\n  dup2\n  mstore\n  0x20\n  add\n    /* \"contracts/Lotto.sol\":1838:1855  RoundStatus.Start */\n  0x00\n    /* \"contracts/Lotto.sol\":1759:1887  Round(\r... */\n  0x01\n  dup2\n  gt\n  iszero\n  tag_37\n  jumpi\n  tag_38\n  tag_21\n  jump\t// in\ntag_38:\ntag_37:\n  dup2\n  mstore\n  0x20\n  add\n    /* \"contracts/Lotto.sol\":1864:1870  winNum */\n  dup4\n    /* \"contracts/Lotto.sol\":1759:1887  Round(\r... */\n  dup2\n  mstore\n  0x20\n  add\n    /* \"contracts/Lotto.sol\":1879:1880  0 */\n  0x00\n    /* \"contracts/Lotto.sol\":1759:1887  Round(\r... */\n  dup2\n  mstore\n  pop\n    /* \"contracts/Lotto.sol\":1738:1887  Round memory round = Round(\r... */\n  swap1\n  pop\n    /* \"contracts/Lotto.sol\":1896:1902  rounds */\n  0x04\n    /* \"contracts/Lotto.sol\":1908:1913  round */\n  dup2\n    /* \"contracts/Lotto.sol\":1896:1914  rounds.push(round) */\n  swap1\n  dup1\n  0x01\n  dup2\n  sload\n  add\n  dup1\n  dup3\n  sstore\n  dup1\n  swap2\n  pop\n  pop\n  0x01\n  swap1\n  sub\n  swap1\n  0x00\n  mstore\n  keccak256(0x00, 0x20)\n  swap1\n  0x0b\n  mul\n  add\n  0x00\n  swap1\n  swap2\n  swap1\n  swap2\n  swap1\n  swap2\n  pop\n  0x00\n  dup3\n  add\n  mload\n  dup2\n  0x00\n  add\n  sstore\n  0x20\n  dup3\n  add\n  mload\n  dup2\n  0x01\n  add\n  sstore\n  0x40\n  dup3\n  add\n  mload\n  dup2\n  0x02\n  add\n  exp(0x0100, 0x00)\n  dup2\n  sload\n  dup2\n  0xff\n  mul\n  not\n  and\n  swap1\n  dup4\n  0x01\n  dup2\n  gt\n  iszero\n  tag_40\n  jumpi\n  tag_41\n  tag_21\n  jump\t// in\ntag_41:\ntag_40:\n  mul\n  or\n  swap1\n  sstore\n  pop\n  0x60\n  dup3\n  add\n  mload\n  dup2\n  0x03\n  add\n  swap1\n  0x07\n  tag_42\n  swap3\n  swap2\n  swap1\n  tag_43\n  jump\t// in\ntag_42:\n  pop\n  0x80\n  dup3\n  add\n  mload\n  dup2\n  0x0a\n  add\n  sstore\n  pop\n  pop\n    /* \"contracts/Lotto.sol\":1565:1920  {\r... */\n  pop\n  pop\n    /* \"contracts/Lotto.sol\":1533:1920  function createRound() internal {\r... */\n  jump\t// out\n    /* \"contracts/Lotto.sol\":184:8177  contract Lottery is Ownable {\r... */\ntag_34:\n  mload(0x40)\n  dup1\n  0xe0\n  add\n  0x40\n  mstore\n  dup1\n  0x07\n  swap1\n  0x20\n  dup3\n  mul\n  dup1\n  calldatasize\n  dup4\n  calldatacopy\n  dup1\n  dup3\n  add\n  swap2\n  pop\n  pop\n  swap1\n  pop\n  pop\n  swap1\n  jump\t// out\ntag_43:\n  dup3\n  0x07\n  dup2\n  add\n  swap3\n  dup3\n  iszero\n  tag_44\n  jumpi\n  swap2\n  0x20\n  mul\n  dup3\n  add\ntag_45:\n  dup3\n  dup2\n  gt\n  iszero\n  tag_46\n  jumpi\n  dup3\n  mload\n  dup3\n  sstore\n  swap2\n  0x20\n  add\n  swap2\n  swap1\n  0x01\n  add\n  swap1\n  jump(tag_45)\ntag_46:\ntag_44:\n  pop\n  swap1\n  pop\n  tag_47\n  swap2\n  swap1\n  tag_48\n  jump\t// in\ntag_47:\n  pop\n  swap1\n  jump\t// out\ntag_48:\ntag_49:\n  dup1\n  dup3\n  gt\n  iszero\n  tag_50\n  jumpi\n  0x00\n  dup2\n  0x00\n  swap1\n  sstore\n  pop\n  0x01\n  add\n  jump(tag_49)\ntag_50:\n  pop\n  swap1\n  jump\t// out\n    /* \"#utility.yul\":7:150   */\ntag_52:\n    /* \"#utility.yul\":64:69   */\n  0x00\n    /* \"#utility.yul\":95:101   */\n  dup2\n    /* \"#utility.yul\":89:102   */\n  mload\n    /* \"#utility.yul\":80:102   */\n  swap1\n  pop\n    /* \"#utility.yul\":111:144   */\n  tag_54\n    /* \"#utility.yul\":138:143   */\n  dup2\n    /* \"#utility.yul\":111:144   */\n  tag_55\n  jump\t// in\ntag_54:\n    /* \"#utility.yul\":7:150   */\n  swap3\n  swap2\n  pop\n  pop\n  jump\t// out\n    /* \"#utility.yul\":156:299   */\ntag_56:\n    /* \"#utility.yul\":213:218   */\n  0x00\n    /* \"#utility.yul\":244:250   */\n  dup2\n    /* \"#utility.yul\":238:251   */\n  mload\n    /* \"#utility.yul\":229:251   */\n  swap1\n  pop\n    /* \"#utility.yul\":260:293   */\n  tag_58\n    /* \"#utility.yul\":287:292   */\n  dup2\n    /* \"#utility.yul\":260:293   */\n  tag_59\n  jump\t// in\ntag_58:\n    /* \"#utility.yul\":156:299   */\n  swap3\n  swap2\n  pop\n  pop\n  jump\t// out\n    /* \"#utility.yul\":305:1125   */\ntag_3:\n    /* \"#utility.yul\":402:408   */\n  0x00\n    /* \"#utility.yul\":410:416   */\n  dup1\n    /* \"#utility.yul\":418:424   */\n  0x00\n    /* \"#utility.yul\":426:432   */\n  dup1\n    /* \"#utility.yul\":475:478   */\n  0x80\n    /* \"#utility.yul\":463:472   */\n  dup6\n    /* \"#utility.yul\":454:461   */\n  dup8\n    /* \"#utility.yul\":450:473   */\n  sub\n    /* \"#utility.yul\":446:479   */\n  slt\n    /* \"#utility.yul\":443:563   */\n  iszero\n  tag_61\n  jumpi\n    /* \"#utility.yul\":482:561   */\n  tag_62\n  tag_63\n  jump\t// in\ntag_62:\n    /* \"#utility.yul\":443:563   */\ntag_61:\n    /* \"#utility.yul\":602:603   */\n  0x00\n    /* \"#utility.yul\":627:691   */\n  tag_64\n    /* \"#utility.yul\":683:690   */\n  dup8\n    /* \"#utility.yul\":674:680   */\n  dup3\n    /* \"#utility.yul\":663:672   */\n  dup9\n    /* \"#utility.yul\":659:681   */\n  add\n    /* \"#utility.yul\":627:691   */\n  tag_52\n  jump\t// in\ntag_64:\n    /* \"#utility.yul\":617:691   */\n  swap5\n  pop\n    /* \"#utility.yul\":573:701   */\n  pop\n    /* \"#utility.yul\":740:742   */\n  0x20\n    /* \"#utility.yul\":766:830   */\n  tag_65\n    /* \"#utility.yul\":822:829   */\n  dup8\n    /* \"#utility.yul\":813:819   */\n  dup3\n    /* \"#utility.yul\":802:811   */\n  dup9\n    /* \"#utility.yul\":798:820   */\n  add\n    /* \"#utility.yul\":766:830   */\n  tag_56\n  jump\t// in\ntag_65:\n    /* \"#utility.yul\":756:830   */\n  swap4\n  pop\n    /* \"#utility.yul\":711:840   */\n  pop\n    /* \"#utility.yul\":879:881   */\n  0x40\n    /* \"#utility.yul\":905:969   */\n  tag_66\n    /* \"#utility.yul\":961:968   */\n  dup8\n    /* \"#utility.yul\":952:958   */\n  dup3\n    /* \"#utility.yul\":941:950   */\n  dup9\n    /* \"#utility.yul\":937:959   */\n  add\n    /* \"#utility.yul\":905:969   */\n  tag_56\n  jump\t// in\ntag_66:\n    /* \"#utility.yul\":895:969   */\n  swap3\n  pop\n    /* \"#utility.yul\":850:979   */\n  pop\n    /* \"#utility.yul\":1018:1020   */\n  0x60\n    /* \"#utility.yul\":1044:1108   */\n  tag_67\n    /* \"#utility.yul\":1100:1107   */\n  dup8\n    /* \"#utility.yul\":1091:1097   */\n  dup3\n    /* \"#utility.yul\":1080:1089   */\n  dup9\n    /* \"#utility.yul\":1076:1098   */\n  add\n    /* \"#utility.yul\":1044:1108   */\n  tag_56\n  jump\t// in\ntag_67:\n    /* \"#utility.yul\":1034:1108   */\n  swap2\n  pop\n    /* \"#utility.yul\":989:1118   */\n  pop\n    /* \"#utility.yul\":305:1125   */\n  swap3\n  swap6\n  swap2\n  swap5\n  pop\n  swap3\n  pop\n  jump\t// out\n    /* \"#utility.yul\":1131:1497   */\ntag_68:\n    /* \"#utility.yul\":1273:1276   */\n  0x00\n    /* \"#utility.yul\":1294:1361   */\n  tag_70\n    /* \"#utility.yul\":1358:1360   */\n  0x11\n    /* \"#utility.yul\":1353:1356   */\n  dup4\n    /* \"#utility.yul\":1294:1361   */\n  tag_71\n  jump\t// in\ntag_70:\n    /* \"#utility.yul\":1287:1361   */\n  swap2\n  pop\n    /* \"#utility.yul\":1370:1463   */\n  tag_72\n    /* \"#utility.yul\":1459:1462   */\n  dup3\n    /* \"#utility.yul\":1370:1463   */\n  tag_73\n  jump\t// in\ntag_72:\n    /* \"#utility.yul\":1488:1490   */\n  0x20\n    /* \"#utility.yul\":1483:1486   */\n  dup3\n    /* \"#utility.yul\":1479:1491   */\n  add\n    /* \"#utility.yul\":1472:1491   */\n  swap1\n  pop\n    /* \"#utility.yul\":1131:1497   */\n  swap2\n  swap1\n  pop\n  jump\t// out\n    /* \"#utility.yul\":1503:1922   */\ntag_32:\n    /* \"#utility.yul\":1669:1673   */\n  0x00\n    /* \"#utility.yul\":1707:1709   */\n  0x20\n    /* \"#utility.yul\":1696:1705   */\n  dup3\n    /* \"#utility.yul\":1692:1710   */\n  add\n    /* \"#utility.yul\":1684:1710   */\n  swap1\n  pop\n    /* \"#utility.yul\":1756:1765   */\n  dup2\n    /* \"#utility.yul\":1750:1754   */\n  dup2\n    /* \"#utility.yul\":1746:1766   */\n  sub\n    /* \"#utility.yul\":1742:1743   */\n  0x00\n    /* \"#utility.yul\":1731:1740   */\n  dup4\n    /* \"#utility.yul\":1727:1744   */\n  add\n    /* \"#utility.yul\":1720:1767   */\n  mstore\n    /* \"#utility.yul\":1784:1915   */\n  tag_75\n    /* \"#utility.yul\":1910:1914   */\n  dup2\n    /* \"#utility.yul\":1784:1915   */\n  tag_68\n  jump\t// in\ntag_75:\n    /* \"#utility.yul\":1776:1915   */\n  swap1\n  pop\n    /* \"#utility.yul\":1503:1922   */\n  swap2\n  swap1\n  pop\n  jump\t// out\n    /* \"#utility.yul\":2009:2178   */\ntag_71:\n    /* \"#utility.yul\":2093:2104   */\n  0x00\n    /* \"#utility.yul\":2127:2133   */\n  dup3\n    /* \"#utility.yul\":2122:2125   */\n  dup3\n    /* \"#utility.yul\":2115:2134   */\n  mstore\n    /* \"#utility.yul\":2167:2171   */\n  0x20\n    /* \"#utility.yul\":2162:2165   */\n  dup3\n    /* \"#utility.yul\":2158:2172   */\n  add\n    /* \"#utility.yul\":2143:2172   */\n  swap1\n  pop\n    /* \"#utility.yul\":2009:2178   */\n  swap3\n  swap2\n  pop\n  pop\n  jump\t// out\n    /* \"#utility.yul\":2184:2489   */\ntag_36:\n    /* \"#utility.yul\":2224:2227   */\n  0x00\n    /* \"#utility.yul\":2243:2263   */\n  tag_80\n    /* \"#utility.yul\":2261:2262   */\n  dup3\n    /* \"#utility.yul\":2243:2263   */\n  tag_81\n  jump\t// in\ntag_80:\n    /* \"#utility.yul\":2238:2263   */\n  swap2\n  pop\n    /* \"#utility.yul\":2277:2297   */\n  tag_82\n    /* \"#utility.yul\":2295:2296   */\n  dup4\n    /* \"#utility.yul\":2277:2297   */\n  tag_81\n  jump\t// in\ntag_82:\n    /* \"#utility.yul\":2272:2297   */\n  swap3\n  pop\n    /* \"#utility.yul\":2431:2432   */\n  dup3\n    /* \"#utility.yul\":2363:2429   */\n  0xffffffffffffffffffffffffffffffffffffffffffffffffffffffffffffffff\n    /* \"#utility.yul\":2359:2433   */\n  sub\n    /* \"#utility.yul\":2356:2357   */\n  dup3\n    /* \"#utility.yul\":2353:2434   */\n  gt\n    /* \"#utility.yul\":2350:2457   */\n  iszero\n  tag_83\n  jumpi\n    /* \"#utility.yul\":2437:2455   */\n  tag_84\n  tag_85\n  jump\t// in\ntag_84:\n    /* \"#utility.yul\":2350:2457   */\ntag_83:\n    /* \"#utility.yul\":2481:2482   */\n  dup3\n    /* \"#utility.yul\":2478:2479   */\n  dup3\n    /* \"#utility.yul\":2474:2483   */\n  add\n    /* \"#utility.yul\":2467:2483   */\n  swap1\n  pop\n    /* \"#utility.yul\":2184:2489   */\n  swap3\n  swap2\n  pop\n  pop\n  jump\t// out\n    /* \"#utility.yul\":2495:2686   */\ntag_23:\n    /* \"#utility.yul\":2535:2539   */\n  0x00\n    /* \"#utility.yul\":2555:2575   */\n  tag_87\n    /* \"#utility.yul\":2573:2574   */\n  dup3\n    /* \"#utility.yul\":2555:2575   */\n  tag_81\n  jump\t// in\ntag_87:\n    /* \"#utility.yul\":2550:2575   */\n  swap2\n  pop\n    /* \"#utility.yul\":2589:2609   */\n  tag_88\n    /* \"#utility.yul\":2607:2608   */\n  dup4\n    /* \"#utility.yul\":2589:2609   */\n  tag_81\n  jump\t// in\ntag_88:\n    /* \"#utility.yul\":2584:2609   */\n  swap3\n  pop\n    /* \"#utility.yul\":2628:2629   */\n  dup3\n    /* \"#utility.yul\":2625:2626   */\n  dup3\n    /* \"#utility.yul\":2622:2630   */\n  lt\n    /* \"#utility.yul\":2619:2653   */\n  iszero\n  tag_89\n  jumpi\n    /* \"#utility.yul\":2633:2651   */\n  tag_90\n  tag_85\n  jump\t// in\ntag_90:\n    /* \"#utility.yul\":2619:2653   */\ntag_89:\n    /* \"#utility.yul\":2678:2679   */\n  dup3\n    /* \"#utility.yul\":2675:2676   */\n  dup3\n    /* \"#utility.yul\":2671:2680   */\n  sub\n    /* \"#utility.yul\":2663:2680   */\n  swap1\n  pop\n    /* \"#utility.yul\":2495:2686   */\n  swap3\n  swap2\n  pop\n  pop\n  jump\t// out\n    /* \"#utility.yul\":2692:2788   */\ntag_91:\n    /* \"#utility.yul\":2729:2736   */\n  0x00\n    /* \"#utility.yul\":2758:2782   */\n  tag_93\n    /* \"#utility.yul\":2776:2781   */\n  dup3\n    /* \"#utility.yul\":2758:2782   */\n  tag_94\n  jump\t// in\ntag_93:\n    /* \"#utility.yul\":2747:2782   */\n  swap1\n  pop\n    /* \"#utility.yul\":2692:2788   */\n  swap2\n  swap1\n  pop\n  jump\t// out\n    /* \"#utility.yul\":2794:2920   */\ntag_94:\n    /* \"#utility.yul\":2831:2838   */\n  0x00\n    /* \"#utility.yul\":2871:2913   */\n  0xffffffffffffffffffffffffffffffffffffffff\n    /* \"#utility.yul\":2864:2869   */\n  dup3\n    /* \"#utility.yul\":2860:2914   */\n  and\n    /* \"#utility.yul\":2849:2914   */\n  swap1\n  pop\n    /* \"#utility.yul\":2794:2920   */\n  swap2\n  swap1\n  pop\n  jump\t// out\n    /* \"#utility.yul\":2926:3003   */\ntag_81:\n    /* \"#utility.yul\":2963:2970   */\n  0x00\n    /* \"#utility.yul\":2992:2997   */\n  dup2\n    /* \"#utility.yul\":2981:2997   */\n  swap1\n  pop\n    /* \"#utility.yul\":2926:3003   */\n  swap2\n  swap1\n  pop\n  jump\t// out\n    /* \"#utility.yul\":3009:3189   */\ntag_85:\n    /* \"#utility.yul\":3057:3134   */\n  0x4e487b7100000000000000000000000000000000000000000000000000000000\n    /* \"#utility.yul\":3054:3055   */\n  0x00\n    /* \"#utility.yul\":3047:3135   */\n  mstore\n    /* \"#utility.yul\":3154:3158   */\n  0x11\n    /* \"#utility.yul\":3151:3152   */\n  0x04\n    /* \"#utility.yul\":3144:3159   */\n  mstore\n    /* \"#utility.yul\":3178:3182   */\n  0x24\n    /* \"#utility.yul\":3175:3176   */\n  0x00\n    /* \"#utility.yul\":3168:3183   */\n  revert\n    /* \"#utility.yul\":3195:3375   */\ntag_21:\n    /* \"#utility.yul\":3243:3320   */\n  0x4e487b7100000000000000000000000000000000000000000000000000000000\n    /* \"#utility.yul\":3240:3241   */\n  0x00\n    /* \"#utility.yul\":3233:3321   */\n  mstore\n    /* \"#utility.yul\":3340:3344   */\n  0x21\n    /* \"#utility.yul\":3337:3338   */\n  0x04\n    /* \"#utility.yul\":3330:3345   */\n  mstore\n    /* \"#utility.yul\":3364:3368   */\n  0x24\n    /* \"#utility.yul\":3361:3362   */\n  0x00\n    /* \"#utility.yul\":3354:3369   */\n  revert\n    /* \"#utility.yul\":3381:3561   */\ntag_26:\n    /* \"#utility.yul\":3429:3506   */\n  0x4e487b7100000000000000000000000000000000000000000000000000000000\n    /* \"#utility.yul\":3426:3427   */\n  0x00\n    /* \"#utility.yul\":3419:3507   */\n  mstore\n    /* \"#utility.yul\":3526:3530   */\n  0x32\n    /* \"#utility.yul\":3523:3524   */\n  0x04\n    /* \"#utility.yul\":3516:3531   */\n  mstore\n    /* \"#utility.yul\":3550:3554   */\n  0x24\n    /* \"#utility.yul\":3547:3548   */\n  0x00\n    /* \"#utility.yul\":3540:3555   */\n  revert\n    /* \"#utility.yul\":3690:3807   */\ntag_63:\n    /* \"#utility.yul\":3799:3800   */\n  0x00\n    /* \"#utility.yul\":3796:3797   */\n  dup1\n    /* \"#utility.yul\":3789:3801   */\n  revert\n    /* \"#utility.yul\":3813:3980   */\ntag_73:\n    /* \"#utility.yul\":3953:3972   */\n  0x526f756e6420696e2070726f6772657373000000000000000000000000000000\n    /* \"#utility.yul\":3949:3950   */\n  0x00\n    /* \"#utility.yul\":3941:3947   */\n  dup3\n    /* \"#utility.yul\":3937:3951   */\n  add\n    /* \"#utility.yul\":3930:3973   */\n  mstore\n    /* \"#utility.yul\":3813:3980   */\n  pop\n  jump\t// out\n    /* \"#utility.yul\":3986:4108   */\ntag_55:\n    /* \"#utility.yul\":4059:4083   */\n  tag_105\n    /* \"#utility.yul\":4077:4082   */\n  dup2\n    /* \"#utility.yul\":4059:4083   */\n  tag_91\n  jump\t// in\ntag_105:\n    /* \"#utility.yul\":4052:4057   */\n  dup2\n    /* \"#utility.yul\":4049:4084   */\n  eq\n    /* \"#utility.yul\":4039:4102   */\n  tag_106\n  jumpi\n    /* \"#utility.yul\":4098:4099   */\n  0x00\n    /* \"#utility.yul\":4095:4096   */\n  dup1\n    /* \"#utility.yul\":4088:4100   */\n  revert\n    /* \"#utility.yul\":4039:4102   */\ntag_106:\n    /* \"#utility.yul\":3986:4108   */\n  pop\n  jump\t// out\n    /* \"#utility.yul\":4114:4236   */\ntag_59:\n    /* \"#utility.yul\":4187:4211   */\n  tag_108\n    /* \"#utility.yul\":4205:4210   */\n  dup2\n    /* \"#utility.yul\":4187:4211   */\n  tag_81\n  jump\t// in\ntag_108:\n    /* \"#utility.yul\":4180:4185   */\n  dup2\n    /* \"#utility.yul\":4177:4212   */\n  eq\n    /* \"#utility.yul\":4167:4230   */\n  tag_109\n  jumpi\n    /* \"#utility.yul\":4226:4227   */\n  0x00\n    /* \"#utility.yul\":4223:4224   */\n  dup1\n    /* \"#utility.yul\":4216:4228   */\n  revert\n    /* \"#utility.yul\":4167:4230   */\ntag_109:\n    /* \"#utility.yul\":4114:4236   */\n  pop\n  jump\t// out\n    /* \"contracts/Lotto.sol\":184:8177  contract Lottery is Ownable {\r... */\ntag_14:\n  dataSize(sub_0)\n  dup1\n  dataOffset(sub_0)\n  0x00\n  codecopy\n  0x00\n  return\nstop\n\nsub_0: assembly {\n        /* \"contracts/Lotto.sol\":184:8177  contract Lottery is Ownable {\r... */\n      mstore(0x40, 0x80)\n      jumpi(tag_1, lt(calldatasize, 0x04))\n      shr(0xe0, calldataload(0x00))\n      dup1\n      0x8c65c81f\n      gt\n      tag_25\n      jumpi\n      dup1\n      0xbedf0f4a\n      gt\n      tag_26\n      jumpi\n      dup1\n      0xbedf0f4a\n      eq\n      tag_19\n      jumpi\n      dup1\n      0xdd8ab8f9\n      eq\n      tag_20\n      jumpi\n      dup1\n      0xe12ed13c\n      eq\n      tag_21\n      jumpi\n      dup1\n      0xf2fde38b\n      eq\n      tag_22\n      jumpi\n      dup1\n      0xfc0c546a\n      eq\n      tag_23\n      jumpi\n      dup1\n      0xfea9b572\n      eq\n      tag_24\n      jumpi\n      jump(tag_1)\n    tag_26:\n      dup1\n      0x8c65c81f\n      eq\n      tag_13\n      jumpi\n      dup1\n      0x8cd85dc2\n      eq\n      tag_14\n      jumpi\n      dup1\n      0x8da5cb5b\n      eq\n      tag_15\n      jumpi\n      dup1\n      0xa2b40d19\n      eq\n      tag_16\n      jumpi\n      dup1\n      0xa8bd5634\n      eq\n      tag_17\n      jumpi\n      dup1\n      0xb5558562\n      eq\n      tag_18\n      jumpi\n      jump(tag_1)\n    tag_25:\n      dup1\n      0x49c4e5b8\n      gt\n      tag_27\n      jumpi\n      dup1\n      0x49c4e5b8\n      eq\n      tag_7\n      jumpi\n      dup1\n      0x50b44712\n      eq\n      tag_8\n      jumpi\n      dup1\n      0x63c75607\n      eq\n      tag_9\n      jumpi\n      dup1\n      0x6f9fb98a\n      eq\n      tag_10\n      jumpi\n      dup1\n      0x715018a6\n      eq\n      tag_11\n      jumpi\n      dup1\n      0x7157c113\n      eq\n      tag_12\n      jumpi\n      jump(tag_1)\n    tag_27:\n      dup1\n      0x1a95f15f\n      eq\n      tag_2\n      jumpi\n      dup1\n      0x379607f5\n      eq\n      tag_3\n      jumpi\n      dup1\n      0x44352d0a\n      eq\n      tag_4\n      jumpi\n      dup1\n      0x46583a26\n      eq\n      tag_5\n      jumpi\n      dup1\n      0x47e40553\n      eq\n      tag_6\n      jumpi\n    tag_1:\n      0x00\n      dup1\n      revert\n        /* \"contracts/Lotto.sol\":694:721  uint256 public TICKET_PRICE */\n    tag_2:\n      callvalue\n      dup1\n      iszero\n      tag_28\n      jumpi\n      0x00\n      dup1\n      revert\n    tag_28:\n      pop\n      tag_29\n      tag_30\n      jump\t// in\n    tag_29:\n      mload(0x40)\n      tag_31\n      swap2\n      swap1\n      tag_32\n      jump\t// in\n    tag_31:\n      mload(0x40)\n      dup1\n      swap2\n      sub\n      swap1\n      return\n        /* \"contracts/Lotto.sol\":4774:6150  function claim(uint256 number) public {\r... */\n    tag_3:\n      callvalue\n      dup1\n      iszero\n      tag_33\n      jumpi\n      0x00\n      dup1\n      revert\n    tag_33:\n      pop\n      tag_34\n      0x04\n      dup1\n      calldatasize\n      sub\n      dup2\n      add\n      swap1\n      tag_35\n      swap2\n      swap1\n      tag_36\n      jump\t// in\n    tag_35:\n      tag_37\n      jump\t// in\n    tag_34:\n      stop\n        /* \"contracts/Lotto.sol\":6825:7426  function getMyTicket(uint256 _round) public view returns(uint[6][] memory){\r... */\n    tag_4:\n      callvalue\n      dup1\n      iszero\n      tag_38\n      jumpi\n      0x00\n      dup1\n      revert\n    tag_38:\n      pop\n      tag_39\n      0x04\n      dup1\n      calldatasize\n      sub\n      dup2\n      add\n      swap1\n      tag_40\n      swap2\n      swap1\n      tag_36\n      jump\t// in\n    tag_40:\n      tag_41\n      jump\t// in\n    tag_39:\n      mload(0x40)\n      tag_42\n      swap2\n      swap1\n      tag_43\n      jump\t// in\n    tag_42:\n      mload(0x40)\n      dup1\n      swap2\n      sub\n      swap1\n      return\n        /* \"contracts/Lotto.sol\":1952:2828  function tokenBuy(uint256[6] memory numbers) public roundEnd() {\r... */\n    tag_5:\n      callvalue\n      dup1\n      iszero\n      tag_44\n      jumpi\n      0x00\n      dup1\n      revert\n    tag_44:\n      pop\n      tag_45\n      0x04\n      dup1\n      calldatasize\n      sub\n      dup2\n      add\n      swap1\n      tag_46\n      swap2\n      swap1\n      tag_47\n      jump\t// in\n    tag_46:\n      tag_48\n      jump\t// in\n    tag_45:\n      stop\n        /* \"contracts/Lotto.sol\":6665:6789  function nextRound() external onlyOwner{\r... */\n    tag_6:\n      callvalue\n      dup1\n      iszero\n      tag_49\n      jumpi\n      0x00\n      dup1\n      revert\n    tag_49:\n      pop\n      tag_50\n      tag_51\n      jump\t// in\n    tag_50:\n      stop\n        /* \"contracts/Lotto.sol\":726:759  uint256 public TICKET_TOKEN_PRICE */\n    tag_7:\n      callvalue\n      dup1\n      iszero\n      tag_52\n      jumpi\n      0x00\n      dup1\n      revert\n    tag_52:\n      pop\n      tag_53\n      tag_54\n      jump\t// in\n    tag_53:\n      mload(0x40)\n      tag_55\n      swap2\n      swap1\n      tag_32\n      jump\t// in\n    tag_55:\n      mload(0x40)\n      dup1\n      swap2\n      sub\n      swap1\n      return\n        /* \"contracts/Lotto.sol\":877:900  Ticket[] public tickets */\n    tag_8:\n      callvalue\n      dup1\n      iszero\n      tag_56\n      jumpi\n      0x00\n      dup1\n      revert\n    tag_56:\n      pop\n      tag_57\n      0x04\n      dup1\n      calldatasize\n      sub\n      dup2\n      add\n      swap1\n      tag_58\n      swap2\n      swap1\n      tag_36\n      jump\t// in\n    tag_58:\n      tag_59\n      jump\t// in\n    tag_57:\n      mload(0x40)\n      tag_60\n      swap3\n      swap2\n      swap1\n      tag_61\n      jump\t// in\n    tag_60:\n      mload(0x40)\n      dup1\n      swap2\n      sub\n      swap1\n      return\n        /* \"contracts/Lotto.sol\":7833:7933  function changeInterval(uint256 _interval) external onlyOwner{\r... */\n    tag_9:\n      callvalue\n      dup1\n      iszero\n      tag_62\n      jumpi\n      0x00\n      dup1\n      revert\n    tag_62:\n      pop\n      tag_63\n      0x04\n      dup1\n      calldatasize\n      sub\n      dup2\n      add\n      swap1\n      tag_64\n      swap2\n      swap1\n      tag_36\n      jump\t// in\n    tag_64:\n      tag_65\n      jump\t// in\n    tag_63:\n      stop\n        /* \"contracts/Lotto.sol\":7589:7686  function getContractBalance() public view returns(uint) {\r... */\n    tag_10:\n      callvalue\n      dup1\n      iszero\n      tag_66\n      jumpi\n      0x00\n      dup1\n      revert\n    tag_66:\n      pop\n      tag_67\n      tag_68\n      jump\t// in\n    tag_67:\n      mload(0x40)\n      tag_69\n      swap2\n      swap1\n      tag_32\n      jump\t// in\n    tag_69:\n      mload(0x40)\n      dup1\n      swap2\n      sub\n      swap1\n      return\n        /* \"@klaytn/contracts/contracts/access/Ownable.sol\":1668:1769  function renounceOwnership() public virtual onlyOwner {... */\n    tag_11:\n      callvalue\n      dup1\n      iszero\n      tag_70\n      jumpi\n      0x00\n      dup1\n      revert\n    tag_70:\n      pop\n      tag_71\n      tag_72\n      jump\t// in\n    tag_71:\n      stop\n        /* \"contracts/Lotto.sol\":907:936  uint256 public round_interval */\n    tag_12:\n      callvalue\n      dup1\n      iszero\n      tag_73\n      jumpi\n      0x00\n      dup1\n      revert\n    tag_73:\n      pop\n      tag_74\n      tag_75\n      jump\t// in\n    tag_74:\n      mload(0x40)\n      tag_76\n      swap2\n      swap1\n      tag_32\n      jump\t// in\n    tag_76:\n      mload(0x40)\n      dup1\n      swap2\n      sub\n      swap1\n      return\n        /* \"contracts/Lotto.sol\":851:872  Round[] public rounds */\n    tag_13:\n      callvalue\n      dup1\n      iszero\n      tag_77\n      jumpi\n      0x00\n      dup1\n      revert\n    tag_77:\n      pop\n      tag_78\n      0x04\n      dup1\n      calldatasize\n      sub\n      dup2\n      add\n      swap1\n      tag_79\n      swap2\n      swap1\n      tag_36\n      jump\t// in\n    tag_79:\n      tag_80\n      jump\t// in\n    tag_78:\n      mload(0x40)\n      tag_81\n      swap5\n      swap4\n      swap3\n      swap2\n      swap1\n      tag_82\n      jump\t// in\n    tag_81:\n      mload(0x40)\n      dup1\n      swap2\n      sub\n      swap1\n      return\n        /* \"contracts/Lotto.sol\":7460:7583  function getWinNumbers(uint256 _round) public view returns(uint256[7] memory) {\r... */\n    tag_14:\n      callvalue\n      dup1\n      iszero\n      tag_83\n      jumpi\n      0x00\n      dup1\n      revert\n    tag_83:\n      pop\n      tag_84\n      0x04\n      dup1\n      calldatasize\n      sub\n      dup2\n      add\n      swap1\n      tag_85\n      swap2\n      swap1\n      tag_36\n      jump\t// in\n    tag_85:\n      tag_86\n      jump\t// in\n    tag_84:\n      mload(0x40)\n      tag_87\n      swap2\n      swap1\n      tag_88\n      jump\t// in\n    tag_87:\n      mload(0x40)\n      dup1\n      swap2\n      sub\n      swap1\n      return\n        /* \"@klaytn/contracts/contracts/access/Ownable.sol\":1036:1121  function owner() public view virtual returns (address) {... */\n    tag_15:\n      callvalue\n      dup1\n      iszero\n      tag_89\n      jumpi\n      0x00\n      dup1\n      revert\n    tag_89:\n      pop\n      tag_90\n      tag_91\n      jump\t// in\n    tag_90:\n      mload(0x40)\n      tag_92\n      swap2\n      swap1\n      tag_93\n      jump\t// in\n    tag_92:\n      mload(0x40)\n      dup1\n      swap2\n      sub\n      swap1\n      return\n        /* \"contracts/Lotto.sol\":7939:8029  function changePrice(uint256 _price) external onlyOwner {\r... */\n    tag_16:\n      callvalue\n      dup1\n      iszero\n      tag_94\n      jumpi\n      0x00\n      dup1\n      revert\n    tag_94:\n      pop\n      tag_95\n      0x04\n      dup1\n      calldatasize\n      sub\n      dup2\n      add\n      swap1\n      tag_96\n      swap2\n      swap1\n      tag_36\n      jump\t// in\n    tag_96:\n      tag_97\n      jump\t// in\n    tag_95:\n      stop\n        /* \"contracts/Lotto.sol\":2834:3548  function buy(uint256[6] memory numbers) public  roundEnd() payable {\r... */\n    tag_17:\n      tag_98\n      0x04\n      dup1\n      calldatasize\n      sub\n      dup2\n      add\n      swap1\n      tag_99\n      swap2\n      swap1\n      tag_47\n      jump\t// in\n    tag_99:\n      tag_100\n      jump\t// in\n    tag_98:\n      stop\n        /* \"contracts/Lotto.sol\":8035:8172  function tokenWithdraw(address payable toAdress) external onlyOwner {\r... */\n    tag_18:\n      callvalue\n      dup1\n      iszero\n      tag_101\n      jumpi\n      0x00\n      dup1\n      revert\n    tag_101:\n      pop\n      tag_102\n      0x04\n      dup1\n      calldatasize\n      sub\n      dup2\n      add\n      swap1\n      tag_103\n      swap2\n      swap1\n      tag_104\n      jump\t// in\n    tag_103:\n      tag_105\n      jump\t// in\n    tag_102:\n      stop\n        /* \"contracts/Lotto.sol\":7692:7827  function Stop() public onlyOwner{\r... */\n    tag_19:\n      callvalue\n      dup1\n      iszero\n      tag_106\n      jumpi\n      0x00\n      dup1\n      revert\n    tag_106:\n      pop\n      tag_107\n      tag_108\n      jump\t// in\n    tag_107:\n      stop\n        /* \"contracts/Lotto.sol\":764:802  uint256 constant public MIN_NUMBER = 1 */\n    tag_20:\n      callvalue\n      dup1\n      iszero\n      tag_109\n      jumpi\n      0x00\n      dup1\n      revert\n    tag_109:\n      pop\n      tag_110\n      tag_111\n      jump\t// in\n    tag_110:\n      mload(0x40)\n      tag_112\n      swap2\n      swap1\n      tag_32\n      jump\t// in\n    tag_112:\n      mload(0x40)\n      dup1\n      swap2\n      sub\n      swap1\n      return\n        /* \"contracts/Lotto.sol\":964:991  uint256 public currentBlock */\n    tag_21:\n      callvalue\n      dup1\n      iszero\n      tag_113\n      jumpi\n      0x00\n      dup1\n      revert\n    tag_113:\n      pop\n      tag_114\n      tag_115\n      jump\t// in\n    tag_114:\n      mload(0x40)\n      tag_116\n      swap2\n      swap1\n      tag_32\n      jump\t// in\n    tag_116:\n      mload(0x40)\n      dup1\n      swap2\n      sub\n      swap1\n      return\n        /* \"@klaytn/contracts/contracts/access/Ownable.sol\":1918:2116  function transferOwnership(address newOwner) public virtual onlyOwner {... */\n    tag_22:\n      callvalue\n      dup1\n      iszero\n      tag_117\n      jumpi\n      0x00\n      dup1\n      revert\n    tag_117:\n      pop\n      tag_118\n      0x04\n      dup1\n      calldatasize\n      sub\n      dup2\n      add\n      swap1\n      tag_119\n      swap2\n      swap1\n      tag_120\n      jump\t// in\n    tag_119:\n      tag_121\n      jump\t// in\n    tag_118:\n      stop\n        /* \"contracts/Lotto.sol\":219:237  IKIP7 public token */\n    tag_23:\n      callvalue\n      dup1\n      iszero\n      tag_122\n      jumpi\n      0x00\n      dup1\n      revert\n    tag_122:\n      pop\n      tag_123\n      tag_124\n      jump\t// in\n    tag_123:\n      mload(0x40)\n      tag_125\n      swap2\n      swap1\n      tag_126\n      jump\t// in\n    tag_125:\n      mload(0x40)\n      dup1\n      swap2\n      sub\n      swap1\n      return\n        /* \"contracts/Lotto.sol\":807:846  uint256 constant public MAX_NUMBER = 45 */\n    tag_24:\n      callvalue\n      dup1\n      iszero\n      tag_127\n      jumpi\n      0x00\n      dup1\n      revert\n    tag_127:\n      pop\n      tag_128\n      tag_129\n      jump\t// in\n    tag_128:\n      mload(0x40)\n      tag_130\n      swap2\n      swap1\n      tag_32\n      jump\t// in\n    tag_130:\n      mload(0x40)\n      dup1\n      swap2\n      sub\n      swap1\n      return\n        /* \"contracts/Lotto.sol\":694:721  uint256 public TICKET_PRICE */\n    tag_30:\n      sload(0x02)\n      dup2\n      jump\t// out\n        /* \"contracts/Lotto.sol\":4774:6150  function claim(uint256 number) public {\r... */\n    tag_37:\n        /* \"contracts/Lotto.sol\":4852:4862  msg.sender */\n      caller\n        /* \"contracts/Lotto.sol\":4827:4862  tickets[number].owner == msg.sender */\n      0xffffffffffffffffffffffffffffffffffffffff\n      and\n        /* \"contracts/Lotto.sol\":4827:4834  tickets */\n      0x05\n        /* \"contracts/Lotto.sol\":4835:4841  number */\n      dup3\n        /* \"contracts/Lotto.sol\":4827:4842  tickets[number] */\n      dup2\n      sload\n      dup2\n      lt\n      tag_132\n      jumpi\n      tag_133\n      tag_134\n      jump\t// in\n    tag_133:\n    tag_132:\n      swap1\n      0x00\n      mstore\n      keccak256(0x00, 0x20)\n      swap1\n      0x08\n      mul\n      add\n        /* \"contracts/Lotto.sol\":4827:4848  tickets[number].owner */\n      0x00\n      add\n      0x00\n      swap1\n      sload\n      swap1\n      0x0100\n      exp\n      swap1\n      div\n      0xffffffffffffffffffffffffffffffffffffffff\n      and\n        /* \"contracts/Lotto.sol\":4827:4862  tickets[number].owner == msg.sender */\n      0xffffffffffffffffffffffffffffffffffffffff\n      and\n      eq\n        /* \"contracts/Lotto.sol\":4819:4863  require(tickets[number].owner == msg.sender) */\n      tag_136\n      jumpi\n      0x00\n      dup1\n      revert\n    tag_136:\n        /* \"contracts/Lotto.sol\":4918:4933  RoundStatus.End */\n      0x01\n        /* \"contracts/Lotto.sol\":4878:4933  rounds[tickets[number].round].status == RoundStatus.End */\n      dup1\n      dup2\n      gt\n      iszero\n      tag_137\n      jumpi\n      tag_138\n      tag_139\n      jump\t// in\n    tag_138:\n    tag_137:\n        /* \"contracts/Lotto.sol\":4878:4884  rounds */\n      0x04\n        /* \"contracts/Lotto.sol\":4885:4892  tickets */\n      0x05\n        /* \"contracts/Lotto.sol\":4893:4899  number */\n      dup4\n        /* \"contracts/Lotto.sol\":4885:4900  tickets[number] */\n      dup2\n      sload\n      dup2\n      lt\n      tag_140\n      jumpi\n      tag_141\n      tag_134\n      jump\t// in\n    tag_141:\n    tag_140:\n      swap1\n      0x00\n      mstore\n      keccak256(0x00, 0x20)\n      swap1\n      0x08\n      mul\n      add\n        /* \"contracts/Lotto.sol\":4885:4906  tickets[number].round */\n      0x01\n      add\n      sload\n        /* \"contracts/Lotto.sol\":4878:4907  rounds[tickets[number].round] */\n      dup2\n      sload\n      dup2\n      lt\n      tag_143\n      jumpi\n      tag_144\n      tag_134\n      jump\t// in\n    tag_144:\n    tag_143:\n      swap1\n      0x00\n      mstore\n      keccak256(0x00, 0x20)\n      swap1\n      0x0b\n      mul\n      add\n        /* \"contracts/Lotto.sol\":4878:4914  rounds[tickets[number].round].status */\n      0x02\n      add\n      0x00\n      swap1\n      sload\n      swap1\n      0x0100\n      exp\n      swap1\n      div\n      0xff\n      and\n        /* \"contracts/Lotto.sol\":4878:4933  rounds[tickets[number].round].status == RoundStatus.End */\n      0x01\n      dup2\n      gt\n      iszero\n      tag_146\n      jumpi\n      tag_147\n      tag_139\n      jump\t// in\n    tag_147:\n    tag_146:\n      eq\n        /* \"contracts/Lotto.sol\":4870:4934  require(rounds[tickets[number].round].status == RoundStatus.End) */\n      tag_148\n      jumpi\n      0x00\n      dup1\n      revert\n    tag_148:\n        /* \"contracts/Lotto.sol\":4947:4975  uint256[6] storage myNumbers */\n      0x00\n        /* \"contracts/Lotto.sol\":4978:4985  tickets */\n      0x05\n        /* \"contracts/Lotto.sol\":4986:4992  number */\n      dup3\n        /* \"contracts/Lotto.sol\":4978:4993  tickets[number] */\n      dup2\n      sload\n      dup2\n      lt\n      tag_149\n      jumpi\n      tag_150\n      tag_134\n      jump\t// in\n    tag_150:\n    tag_149:\n      swap1\n      0x00\n      mstore\n      keccak256(0x00, 0x20)\n      swap1\n      0x08\n      mul\n      add\n        /* \"contracts/Lotto.sol\":4978:5000  tickets[number].number */\n      0x02\n      add\n        /* \"contracts/Lotto.sol\":4947:5000  uint256[6] storage myNumbers = tickets[number].number */\n      swap1\n      pop\n        /* \"contracts/Lotto.sol\":5007:5036  uint256[7] storage winNumbers */\n      0x00\n        /* \"contracts/Lotto.sol\":5039:5045  rounds */\n      0x04\n        /* \"contracts/Lotto.sol\":5062:5063  1 */\n      0x01\n        /* \"contracts/Lotto.sol\":5046:5052  rounds */\n      0x04\n        /* \"contracts/Lotto.sol\":5046:5059  rounds.length */\n      dup1\n      sload\n      swap1\n      pop\n        /* \"contracts/Lotto.sol\":5046:5063  rounds.length - 1 */\n      tag_152\n      swap2\n      swap1\n      tag_153\n      jump\t// in\n    tag_152:\n        /* \"contracts/Lotto.sol\":5039:5064  rounds[rounds.length - 1] */\n      dup2\n      sload\n      dup2\n      lt\n      tag_154\n      jumpi\n      tag_155\n      tag_134\n      jump\t// in\n    tag_155:\n    tag_154:\n      swap1\n      0x00\n      mstore\n      keccak256(0x00, 0x20)\n      swap1\n      0x0b\n      mul\n      add\n        /* \"contracts/Lotto.sol\":5039:5075  rounds[rounds.length - 1].winNumbers */\n      0x03\n      add\n        /* \"contracts/Lotto.sol\":5007:5075  uint256[7] storage winNumbers = rounds[rounds.length - 1].winNumbers */\n      swap1\n      pop\n        /* \"contracts/Lotto.sol\":5084:5098  uint256 reward */\n      0x00\n        /* \"contracts/Lotto.sol\":5109:5130  uint256 numberMatches */\n      dup1\n        /* \"contracts/Lotto.sol\":5141:5161  bool bonusNumMatches */\n      0x00\n        /* \"contracts/Lotto.sol\":5174:5183  uint256 i */\n      dup1\n        /* \"contracts/Lotto.sol\":5186:5187  0 */\n      0x00\n        /* \"contracts/Lotto.sol\":5174:5187  uint256 i = 0 */\n      swap1\n      pop\n        /* \"contracts/Lotto.sol\":5170:5442  for(uint256 i = 0; i < myNumbers.length; i++) {\r... */\n    tag_157:\n        /* \"contracts/Lotto.sol\":5193:5209  myNumbers.length */\n      0x06\n        /* \"contracts/Lotto.sol\":5189:5190  i */\n      dup2\n        /* \"contracts/Lotto.sol\":5189:5209  i < myNumbers.length */\n      lt\n        /* \"contracts/Lotto.sol\":5170:5442  for(uint256 i = 0; i < myNumbers.length; i++) {\r... */\n      iszero\n      tag_158\n      jumpi\n        /* \"contracts/Lotto.sol\":5229:5238  uint256 j */\n      0x00\n        /* \"contracts/Lotto.sol\":5225:5435  for(uint256 j = 0; j < winNumbers.length - 1; j++) {\r... */\n    tag_160:\n        /* \"contracts/Lotto.sol\":5268:5269  1 */\n      0x01\n        /* \"contracts/Lotto.sol\":5248:5265  winNumbers.length */\n      0x07\n        /* \"contracts/Lotto.sol\":5248:5269  winNumbers.length - 1 */\n      tag_163\n      swap2\n      swap1\n      tag_153\n      jump\t// in\n    tag_163:\n        /* \"contracts/Lotto.sol\":5244:5245  j */\n      dup2\n        /* \"contracts/Lotto.sol\":5244:5269  j < winNumbers.length - 1 */\n      lt\n        /* \"contracts/Lotto.sol\":5225:5435  for(uint256 j = 0; j < winNumbers.length - 1; j++) {\r... */\n      iszero\n      tag_161\n      jumpi\n        /* \"contracts/Lotto.sol\":5306:5316  winNumbers */\n      dup6\n        /* \"contracts/Lotto.sol\":5317:5318  j */\n      dup2\n        /* \"contracts/Lotto.sol\":5306:5319  winNumbers[j] */\n      0x07\n      dup2\n      lt\n      tag_164\n      jumpi\n      tag_165\n      tag_134\n      jump\t// in\n    tag_165:\n    tag_164:\n      add\n      sload\n        /* \"contracts/Lotto.sol\":5290:5299  myNumbers */\n      dup8\n        /* \"contracts/Lotto.sol\":5300:5301  i */\n      dup4\n        /* \"contracts/Lotto.sol\":5290:5302  myNumbers[i] */\n      0x06\n      dup2\n      lt\n      tag_167\n      jumpi\n      tag_168\n      tag_134\n      jump\t// in\n    tag_168:\n    tag_167:\n      add\n      sload\n        /* \"contracts/Lotto.sol\":5290:5319  myNumbers[i] == winNumbers[j] */\n      eq\n        /* \"contracts/Lotto.sol\":5287:5347  if(myNumbers[i] == winNumbers[j])\r... */\n      iszero\n      tag_170\n      jumpi\n        /* \"contracts/Lotto.sol\":5332:5347  numberMatches++ */\n      dup4\n      dup1\n      tag_171\n      swap1\n      tag_172\n      jump\t// in\n    tag_171:\n      swap5\n      pop\n      pop\n        /* \"contracts/Lotto.sol\":5287:5347  if(myNumbers[i] == winNumbers[j])\r... */\n    tag_170:\n        /* \"contracts/Lotto.sol\":5377:5387  winNumbers */\n      dup6\n        /* \"contracts/Lotto.sol\":5388:5389  6 */\n      0x06\n        /* \"contracts/Lotto.sol\":5377:5390  winNumbers[6] */\n      0x07\n      dup2\n      lt\n      tag_173\n      jumpi\n      tag_174\n      tag_134\n      jump\t// in\n    tag_174:\n    tag_173:\n      add\n      sload\n        /* \"contracts/Lotto.sol\":5361:5370  myNumbers */\n      dup8\n        /* \"contracts/Lotto.sol\":5371:5372  i */\n      dup4\n        /* \"contracts/Lotto.sol\":5361:5373  myNumbers[i] */\n      0x06\n      dup2\n      lt\n      tag_176\n      jumpi\n      tag_177\n      tag_134\n      jump\t// in\n    tag_177:\n    tag_176:\n      add\n      sload\n        /* \"contracts/Lotto.sol\":5361:5390  myNumbers[i] == winNumbers[6] */\n      eq\n        /* \"contracts/Lotto.sol\":5358:5425  if(myNumbers[i] == winNumbers[6])\r... */\n      iszero\n      tag_179\n      jumpi\n        /* \"contracts/Lotto.sol\":5421:5425  true */\n      0x01\n        /* \"contracts/Lotto.sol\":5403:5425  bonusNumMatches = true */\n      swap3\n      pop\n        /* \"contracts/Lotto.sol\":5358:5425  if(myNumbers[i] == winNumbers[6])\r... */\n    tag_179:\n        /* \"contracts/Lotto.sol\":5271:5274  j++ */\n      dup1\n      dup1\n      tag_180\n      swap1\n      tag_172\n      jump\t// in\n    tag_180:\n      swap2\n      pop\n      pop\n        /* \"contracts/Lotto.sol\":5225:5435  for(uint256 j = 0; j < winNumbers.length - 1; j++) {\r... */\n      jump(tag_160)\n    tag_161:\n      pop\n        /* \"contracts/Lotto.sol\":5211:5214  i++ */\n      dup1\n      dup1\n      tag_181\n      swap1\n      tag_172\n      jump\t// in\n    tag_181:\n      swap2\n      pop\n      pop\n        /* \"contracts/Lotto.sol\":5170:5442  for(uint256 i = 0; i < myNumbers.length; i++) {\r... */\n      jump(tag_157)\n    tag_158:\n      pop\n        /* \"contracts/Lotto.sol\":5524:5525  6 */\n      0x06\n        /* \"contracts/Lotto.sol\":5507:5520  numberMatches */\n      dup3\n        /* \"contracts/Lotto.sol\":5507:5525  numberMatches == 6 */\n      eq\n        /* \"contracts/Lotto.sol\":5504:6029  if(numberMatches == 6) {\r... */\n      iszero\n      tag_182\n      jumpi\n        /* \"contracts/Lotto.sol\":5601:5622  address(this).balance */\n      selfbalance\n        /* \"contracts/Lotto.sol\":5592:5622  reward = address(this).balance */\n      swap3\n      pop\n        /* \"contracts/Lotto.sol\":5504:6029  if(numberMatches == 6) {\r... */\n      jump(tag_183)\n    tag_182:\n        /* \"contracts/Lotto.sol\":5658:5659  5 */\n      0x05\n        /* \"contracts/Lotto.sol\":5641:5654  numberMatches */\n      dup3\n        /* \"contracts/Lotto.sol\":5641:5659  numberMatches == 5 */\n      eq\n        /* \"contracts/Lotto.sol\":5641:5678  numberMatches == 5 && bonusNumMatches */\n      dup1\n      iszero\n      tag_184\n      jumpi\n      pop\n        /* \"contracts/Lotto.sol\":5663:5678  bonusNumMatches */\n      dup1\n        /* \"contracts/Lotto.sol\":5641:5678  numberMatches == 5 && bonusNumMatches */\n    tag_184:\n        /* \"contracts/Lotto.sol\":5638:6029  if(numberMatches == 5 && bonusNumMatches) {   \r... */\n      iszero\n      tag_185\n      jumpi\n      jump(tag_186)\n    tag_185:\n        /* \"contracts/Lotto.sol\":5794:5795  5 */\n      0x05\n        /* \"contracts/Lotto.sol\":5777:5790  numberMatches */\n      dup3\n        /* \"contracts/Lotto.sol\":5777:5795  numberMatches == 5 */\n      eq\n        /* \"contracts/Lotto.sol\":5774:6029  if(numberMatches == 5) {\r... */\n      iszero\n      tag_187\n      jumpi\n      jump(tag_188)\n    tag_187:\n        /* \"contracts/Lotto.sol\":5907:5908  4 */\n      0x04\n        /* \"contracts/Lotto.sol\":5890:5903  numberMatches */\n      dup3\n        /* \"contracts/Lotto.sol\":5890:5908  numberMatches == 4 */\n      eq\n        /* \"contracts/Lotto.sol\":5887:6029  if(numberMatches == 4) {\r... */\n      iszero\n      tag_189\n      jumpi\n      jump(tag_190)\n    tag_189:\n        /* \"contracts/Lotto.sol\":5965:5966  3 */\n      0x03\n        /* \"contracts/Lotto.sol\":5948:5961  numberMatches */\n      dup3\n        /* \"contracts/Lotto.sol\":5948:5966  numberMatches == 3 */\n      eq\n        /* \"contracts/Lotto.sol\":5945:6029  if(numberMatches == 3) {\r... */\n      iszero\n      tag_191\n      jumpi\n      jump(tag_192)\n    tag_191:\n    tag_192:\n        /* \"contracts/Lotto.sol\":5887:6029  if(numberMatches == 4) {\r... */\n    tag_190:\n        /* \"contracts/Lotto.sol\":5774:6029  if(numberMatches == 5) {\r... */\n    tag_188:\n        /* \"contracts/Lotto.sol\":5638:6029  if(numberMatches == 5 && bonusNumMatches) {   \r... */\n    tag_186:\n        /* \"contracts/Lotto.sol\":5504:6029  if(numberMatches == 6) {\r... */\n    tag_183:\n        /* \"contracts/Lotto.sol\":6044:6051  tickets */\n      0x05\n        /* \"contracts/Lotto.sol\":6052:6058  number */\n      dup7\n        /* \"contracts/Lotto.sol\":6044:6059  tickets[number] */\n      dup2\n      sload\n      dup2\n      lt\n      tag_193\n      jumpi\n      tag_194\n      tag_134\n      jump\t// in\n    tag_194:\n    tag_193:\n      swap1\n      0x00\n      mstore\n      keccak256(0x00, 0x20)\n      swap1\n      0x08\n      mul\n      add\n      0x00\n        /* \"contracts/Lotto.sol\":6037:6059  delete tickets[number] */\n      dup1\n      dup3\n      add\n      exp(0x0100, 0x00)\n      dup2\n      sload\n      swap1\n      0xffffffffffffffffffffffffffffffffffffffff\n      mul\n      not\n      and\n      swap1\n      sstore\n      0x01\n      dup3\n      add\n      0x00\n      swap1\n      sstore\n      0x02\n      dup3\n      add\n      0x00\n      tag_196\n      swap2\n      swap1\n      tag_197\n      jump\t// in\n    tag_196:\n      pop\n      pop\n        /* \"contracts/Lotto.sol\":6099:6109  msg.sender */\n      caller\n        /* \"contracts/Lotto.sol\":6091:6119  payable(msg.sender).transfer */\n      0xffffffffffffffffffffffffffffffffffffffff\n      and\n        /* \"contracts/Lotto.sol\":6091:6127  payable(msg.sender).transfer(reward) */\n      0x08fc\n        /* \"contracts/Lotto.sol\":6120:6126  reward */\n      dup5\n        /* \"contracts/Lotto.sol\":6091:6127  payable(msg.sender).transfer(reward) */\n      swap1\n      dup2\n      iszero\n      mul\n      swap1\n      mload(0x40)\n      0x00\n      mload(0x40)\n      dup1\n      dup4\n      sub\n      dup2\n      dup6\n      dup9\n      dup9\n      call\n      swap4\n      pop\n      pop\n      pop\n      pop\n      iszero\n      dup1\n      iszero\n      tag_199\n      jumpi\n      returndatasize\n      0x00\n      dup1\n      returndatacopy\n      revert(0x00, returndatasize)\n    tag_199:\n      pop\n        /* \"contracts/Lotto.sol\":4812:6150  {\r... */\n      pop\n      pop\n      pop\n      pop\n      pop\n        /* \"contracts/Lotto.sol\":4774:6150  function claim(uint256 number) public {\r... */\n      pop\n      jump\t// out\n        /* \"contracts/Lotto.sol\":6825:7426  function getMyTicket(uint256 _round) public view returns(uint[6][] memory){\r... */\n    tag_41:\n        /* \"contracts/Lotto.sol\":6882:6898  uint[6][] memory */\n      0x60\n        /* \"contracts/Lotto.sol\":6908:6927  uint256 myTicketLen */\n      0x00\n        /* \"contracts/Lotto.sol\":6938:6954  uint256 arrayCnt */\n      dup1\n        /* \"contracts/Lotto.sol\":6970:6976  uint i */\n      0x00\n        /* \"contracts/Lotto.sol\":6966:7124  for(uint i = 0; i < tickets.length; i++){\r... */\n    tag_201:\n        /* \"contracts/Lotto.sol\":6986:6993  tickets */\n      0x05\n        /* \"contracts/Lotto.sol\":6986:7000  tickets.length */\n      dup1\n      sload\n      swap1\n      pop\n        /* \"contracts/Lotto.sol\":6982:6983  i */\n      dup2\n        /* \"contracts/Lotto.sol\":6982:7000  i < tickets.length */\n      lt\n        /* \"contracts/Lotto.sol\":6966:7124  for(uint i = 0; i < tickets.length; i++){\r... */\n      iszero\n      tag_202\n      jumpi\n        /* \"contracts/Lotto.sol\":7039:7049  msg.sender */\n      caller\n        /* \"contracts/Lotto.sol\":7019:7049  tickets[i].owner == msg.sender */\n      0xffffffffffffffffffffffffffffffffffffffff\n      and\n        /* \"contracts/Lotto.sol\":7019:7026  tickets */\n      0x05\n        /* \"contracts/Lotto.sol\":7027:7028  i */\n      dup3\n        /* \"contracts/Lotto.sol\":7019:7029  tickets[i] */\n      dup2\n      sload\n      dup2\n      lt\n      tag_204\n      jumpi\n      tag_205\n      tag_134\n      jump\t// in\n    tag_205:\n    tag_204:\n      swap1\n      0x00\n      mstore\n      keccak256(0x00, 0x20)\n      swap1\n      0x08\n      mul\n      add\n        /* \"contracts/Lotto.sol\":7019:7035  tickets[i].owner */\n      0x00\n      add\n      0x00\n      swap1\n      sload\n      swap1\n      0x0100\n      exp\n      swap1\n      div\n      0xffffffffffffffffffffffffffffffffffffffff\n      and\n        /* \"contracts/Lotto.sol\":7019:7049  tickets[i].owner == msg.sender */\n      0xffffffffffffffffffffffffffffffffffffffff\n      and\n      eq\n        /* \"contracts/Lotto.sol\":7019:7079  tickets[i].owner == msg.sender && tickets[i].round == _round */\n      dup1\n      iszero\n      tag_207\n      jumpi\n      pop\n        /* \"contracts/Lotto.sol\":7073:7079  _round */\n      dup5\n        /* \"contracts/Lotto.sol\":7053:7060  tickets */\n      0x05\n        /* \"contracts/Lotto.sol\":7061:7062  i */\n      dup3\n        /* \"contracts/Lotto.sol\":7053:7063  tickets[i] */\n      dup2\n      sload\n      dup2\n      lt\n      tag_208\n      jumpi\n      tag_209\n      tag_134\n      jump\t// in\n    tag_209:\n    tag_208:\n      swap1\n      0x00\n      mstore\n      keccak256(0x00, 0x20)\n      swap1\n      0x08\n      mul\n      add\n        /* \"contracts/Lotto.sol\":7053:7069  tickets[i].round */\n      0x01\n      add\n      sload\n        /* \"contracts/Lotto.sol\":7053:7079  tickets[i].round == _round */\n      eq\n        /* \"contracts/Lotto.sol\":7019:7079  tickets[i].owner == msg.sender && tickets[i].round == _round */\n    tag_207:\n        /* \"contracts/Lotto.sol\":7016:7118  if(tickets[i].owner == msg.sender && tickets[i].round == _round){\r... */\n      iszero\n      tag_211\n      jumpi\n        /* \"contracts/Lotto.sol\":7094:7107  myTicketLen++ */\n      dup3\n      dup1\n      tag_212\n      swap1\n      tag_172\n      jump\t// in\n    tag_212:\n      swap4\n      pop\n      pop\n        /* \"contracts/Lotto.sol\":7016:7118  if(tickets[i].owner == msg.sender && tickets[i].round == _round){\r... */\n    tag_211:\n        /* \"contracts/Lotto.sol\":7002:7005  i++ */\n      dup1\n      dup1\n      tag_213\n      swap1\n      tag_172\n      jump\t// in\n    tag_213:\n      swap2\n      pop\n      pop\n        /* \"contracts/Lotto.sol\":6966:7124  for(uint i = 0; i < tickets.length; i++){\r... */\n      jump(tag_201)\n    tag_202:\n      pop\n        /* \"contracts/Lotto.sol\":7131:7155  uint[6][] memory numbers */\n      0x00\n        /* \"contracts/Lotto.sol\":7172:7183  myTicketLen */\n      dup3\n        /* \"contracts/Lotto.sol\":7158:7184  new uint[6][](myTicketLen) */\n      0xffffffffffffffff\n      dup2\n      gt\n      iszero\n      tag_214\n      jumpi\n      tag_215\n      tag_216\n      jump\t// in\n    tag_215:\n    tag_214:\n      mload(0x40)\n      swap1\n      dup1\n      dup3\n      mstore\n      dup1\n      0x20\n      mul\n      0x20\n      add\n      dup3\n      add\n      0x40\n      mstore\n      dup1\n      iszero\n      tag_217\n      jumpi\n      dup2\n      0x20\n      add\n    tag_218:\n      tag_219\n      tag_220\n      jump\t// in\n    tag_219:\n      dup2\n      mstore\n      0x20\n      add\n      swap1\n      0x01\n      swap1\n      sub\n      swap1\n      dup2\n      tag_218\n      jumpi\n      swap1\n      pop\n    tag_217:\n      pop\n        /* \"contracts/Lotto.sol\":7131:7184  uint[6][] memory numbers = new uint[6][](myTicketLen) */\n      swap1\n      pop\n        /* \"contracts/Lotto.sol\":7197:7203  uint i */\n      0x00\n        /* \"contracts/Lotto.sol\":7193:7399  for(uint i = 0; i < tickets.length; i++){\r... */\n    tag_221:\n        /* \"contracts/Lotto.sol\":7213:7220  tickets */\n      0x05\n        /* \"contracts/Lotto.sol\":7213:7227  tickets.length */\n      dup1\n      sload\n      swap1\n      pop\n        /* \"contracts/Lotto.sol\":7209:7210  i */\n      dup2\n        /* \"contracts/Lotto.sol\":7209:7227  i < tickets.length */\n      lt\n        /* \"contracts/Lotto.sol\":7193:7399  for(uint i = 0; i < tickets.length; i++){\r... */\n      iszero\n      tag_222\n      jumpi\n        /* \"contracts/Lotto.sol\":7266:7276  msg.sender */\n      caller\n        /* \"contracts/Lotto.sol\":7246:7276  tickets[i].owner == msg.sender */\n      0xffffffffffffffffffffffffffffffffffffffff\n      and\n        /* \"contracts/Lotto.sol\":7246:7253  tickets */\n      0x05\n        /* \"contracts/Lotto.sol\":7254:7255  i */\n      dup3\n        /* \"contracts/Lotto.sol\":7246:7256  tickets[i] */\n      dup2\n      sload\n      dup2\n      lt\n      tag_224\n      jumpi\n      tag_225\n      tag_134\n      jump\t// in\n    tag_225:\n    tag_224:\n      swap1\n      0x00\n      mstore\n      keccak256(0x00, 0x20)\n      swap1\n      0x08\n      mul\n      add\n        /* \"contracts/Lotto.sol\":7246:7262  tickets[i].owner */\n      0x00\n      add\n      0x00\n      swap1\n      sload\n      swap1\n      0x0100\n      exp\n      swap1\n      div\n      0xffffffffffffffffffffffffffffffffffffffff\n      and\n        /* \"contracts/Lotto.sol\":7246:7276  tickets[i].owner == msg.sender */\n      0xffffffffffffffffffffffffffffffffffffffff\n      and\n      eq\n        /* \"contracts/Lotto.sol\":7246:7306  tickets[i].owner == msg.sender && tickets[i].round == _round */\n      dup1\n      iszero\n      tag_227\n      jumpi\n      pop\n        /* \"contracts/Lotto.sol\":7300:7306  _round */\n      dup6\n        /* \"contracts/Lotto.sol\":7280:7287  tickets */\n      0x05\n        /* \"contracts/Lotto.sol\":7288:7289  i */\n      dup3\n        /* \"contracts/Lotto.sol\":7280:7290  tickets[i] */\n      dup2\n      sload\n      dup2\n      lt\n      tag_228\n      jumpi\n      tag_229\n      tag_134\n      jump\t// in\n    tag_229:\n    tag_228:\n      swap1\n      0x00\n      mstore\n      keccak256(0x00, 0x20)\n      swap1\n      0x08\n      mul\n      add\n        /* \"contracts/Lotto.sol\":7280:7296  tickets[i].round */\n      0x01\n      add\n      sload\n        /* \"contracts/Lotto.sol\":7280:7306  tickets[i].round == _round */\n      eq\n        /* \"contracts/Lotto.sol\":7246:7306  tickets[i].owner == msg.sender && tickets[i].round == _round */\n    tag_227:\n        /* \"contracts/Lotto.sol\":7243:7393  if(tickets[i].owner == msg.sender && tickets[i].round == _round){\r... */\n      iszero\n      tag_231\n      jumpi\n        /* \"contracts/Lotto.sol\":7341:7348  tickets */\n      0x05\n        /* \"contracts/Lotto.sol\":7349:7350  i */\n      dup2\n        /* \"contracts/Lotto.sol\":7341:7351  tickets[i] */\n      dup2\n      sload\n      dup2\n      lt\n      tag_232\n      jumpi\n      tag_233\n      tag_134\n      jump\t// in\n    tag_233:\n    tag_232:\n      swap1\n      0x00\n      mstore\n      keccak256(0x00, 0x20)\n      swap1\n      0x08\n      mul\n      add\n        /* \"contracts/Lotto.sol\":7341:7358  tickets[i].number */\n      0x02\n      add\n        /* \"contracts/Lotto.sol\":7321:7358  numbers[arrayCnt] = tickets[i].number */\n      0x06\n      dup1\n      0x20\n      mul\n      mload(0x40)\n      swap1\n      dup2\n      add\n      0x40\n      mstore\n      dup1\n      swap3\n      swap2\n      swap1\n      dup3\n      0x06\n      dup1\n      iszero\n      tag_235\n      jumpi\n      0x20\n      mul\n      dup3\n      add\n      swap2\n    tag_236:\n      dup2\n      sload\n      dup2\n      mstore\n      0x20\n      add\n      swap1\n      0x01\n      add\n      swap1\n      dup1\n      dup4\n      gt\n      tag_236\n      jumpi\n    tag_235:\n      pop\n      pop\n      pop\n      pop\n      pop\n        /* \"contracts/Lotto.sol\":7321:7328  numbers */\n      dup3\n        /* \"contracts/Lotto.sol\":7329:7337  arrayCnt */\n      dup5\n        /* \"contracts/Lotto.sol\":7321:7338  numbers[arrayCnt] */\n      dup2\n      mload\n      dup2\n      lt\n      tag_237\n      jumpi\n      tag_238\n      tag_134\n      jump\t// in\n    tag_238:\n    tag_237:\n      0x20\n      mul\n      0x20\n      add\n      add\n        /* \"contracts/Lotto.sol\":7321:7358  numbers[arrayCnt] = tickets[i].number */\n      dup2\n      swap1\n      mstore\n      pop\n        /* \"contracts/Lotto.sol\":7372:7382  arrayCnt++ */\n      dup3\n      dup1\n      tag_239\n      swap1\n      tag_172\n      jump\t// in\n    tag_239:\n      swap4\n      pop\n      pop\n        /* \"contracts/Lotto.sol\":7243:7393  if(tickets[i].owner == msg.sender && tickets[i].round == _round){\r... */\n    tag_231:\n        /* \"contracts/Lotto.sol\":7229:7232  i++ */\n      dup1\n      dup1\n      tag_240\n      swap1\n      tag_172\n      jump\t// in\n    tag_240:\n      swap2\n      pop\n      pop\n        /* \"contracts/Lotto.sol\":7193:7399  for(uint i = 0; i < tickets.length; i++){\r... */\n      jump(tag_221)\n    tag_222:\n      pop\n        /* \"contracts/Lotto.sol\":7413:7420  numbers */\n      dup1\n        /* \"contracts/Lotto.sol\":7406:7420  return numbers */\n      swap4\n      pop\n      pop\n      pop\n      pop\n        /* \"contracts/Lotto.sol\":6825:7426  function getMyTicket(uint256 _round) public view returns(uint[6][] memory){\r... */\n      swap2\n      swap1\n      pop\n      jump\t// out\n        /* \"contracts/Lotto.sol\":1952:2828  function tokenBuy(uint256[6] memory numbers) public roundEnd() {\r... */\n    tag_48:\n        /* \"contracts/Lotto.sol\":1356:1371  block.timestamp */\n      timestamp\n        /* \"contracts/Lotto.sol\":1319:1325  rounds */\n      0x04\n        /* \"contracts/Lotto.sol\":1342:1343  1 */\n      0x01\n        /* \"contracts/Lotto.sol\":1326:1332  rounds */\n      0x04\n        /* \"contracts/Lotto.sol\":1326:1339  rounds.length */\n      dup1\n      sload\n      swap1\n      pop\n        /* \"contracts/Lotto.sol\":1326:1343  rounds.length - 1 */\n      tag_242\n      swap2\n      swap1\n      tag_153\n      jump\t// in\n    tag_242:\n        /* \"contracts/Lotto.sol\":1319:1344  rounds[rounds.length - 1] */\n      dup2\n      sload\n      dup2\n      lt\n      tag_243\n      jumpi\n      tag_244\n      tag_134\n      jump\t// in\n    tag_244:\n    tag_243:\n      swap1\n      0x00\n      mstore\n      keccak256(0x00, 0x20)\n      swap1\n      0x0b\n      mul\n      add\n        /* \"contracts/Lotto.sol\":1319:1352  rounds[rounds.length - 1].endTime */\n      0x01\n      add\n      sload\n        /* \"contracts/Lotto.sol\":1319:1371  rounds[rounds.length - 1].endTime >= block.timestamp */\n      lt\n      iszero\n        /* \"contracts/Lotto.sol\":1311:1385  require(rounds[rounds.length - 1].endTime >= block.timestamp, \"Round End\") */\n      tag_246\n      jumpi\n      mload(0x40)\n      0x08c379a000000000000000000000000000000000000000000000000000000000\n      dup2\n      mstore\n      0x04\n      add\n      tag_247\n      swap1\n      tag_248\n      jump\t// in\n    tag_247:\n      mload(0x40)\n      dup1\n      swap2\n      sub\n      swap1\n      revert\n    tag_246:\n        /* \"contracts/Lotto.sol\":1436:1451  RoundStatus.End */\n      0x01\n        /* \"contracts/Lotto.sol\":1400:1451  rounds[rounds.length - 1].status != RoundStatus.End */\n      dup1\n      dup2\n      gt\n      iszero\n      tag_249\n      jumpi\n      tag_250\n      tag_139\n      jump\t// in\n    tag_250:\n    tag_249:\n        /* \"contracts/Lotto.sol\":1400:1406  rounds */\n      0x04\n        /* \"contracts/Lotto.sol\":1423:1424  1 */\n      0x01\n        /* \"contracts/Lotto.sol\":1407:1413  rounds */\n      0x04\n        /* \"contracts/Lotto.sol\":1407:1420  rounds.length */\n      dup1\n      sload\n      swap1\n      pop\n        /* \"contracts/Lotto.sol\":1407:1424  rounds.length - 1 */\n      tag_251\n      swap2\n      swap1\n      tag_153\n      jump\t// in\n    tag_251:\n        /* \"contracts/Lotto.sol\":1400:1425  rounds[rounds.length - 1] */\n      dup2\n      sload\n      dup2\n      lt\n      tag_252\n      jumpi\n      tag_253\n      tag_134\n      jump\t// in\n    tag_253:\n    tag_252:\n      swap1\n      0x00\n      mstore\n      keccak256(0x00, 0x20)\n      swap1\n      0x0b\n      mul\n      add\n        /* \"contracts/Lotto.sol\":1400:1432  rounds[rounds.length - 1].status */\n      0x02\n      add\n      0x00\n      swap1\n      sload\n      swap1\n      0x0100\n      exp\n      swap1\n      div\n      0xff\n      and\n        /* \"contracts/Lotto.sol\":1400:1451  rounds[rounds.length - 1].status != RoundStatus.End */\n      0x01\n      dup2\n      gt\n      iszero\n      tag_255\n      jumpi\n      tag_256\n      tag_139\n      jump\t// in\n    tag_256:\n    tag_255:\n      eq\n      iszero\n        /* \"contracts/Lotto.sol\":1392:1465  require(rounds[rounds.length - 1].status != RoundStatus.End, \"Round End\") */\n      tag_257\n      jumpi\n      mload(0x40)\n      0x08c379a000000000000000000000000000000000000000000000000000000000\n      dup2\n      mstore\n      0x04\n      add\n      tag_258\n      swap1\n      tag_248\n      jump\t// in\n    tag_258:\n      mload(0x40)\n      dup1\n      swap2\n      sub\n      swap1\n      revert\n    tag_257:\n        /* \"contracts/Lotto.sol\":2061:2079  TICKET_TOKEN_PRICE */\n      sload(0x03)\n        /* \"contracts/Lotto.sol\":2030:2035  token */\n      0x01\n      0x00\n      swap1\n      sload\n      swap1\n      0x0100\n      exp\n      swap1\n      div\n      0xffffffffffffffffffffffffffffffffffffffff\n      and\n        /* \"contracts/Lotto.sol\":2030:2045  token.balanceOf */\n      0xffffffffffffffffffffffffffffffffffffffff\n      and\n      0x70a08231\n        /* \"contracts/Lotto.sol\":2046:2056  msg.sender */\n      caller\n        /* \"contracts/Lotto.sol\":2030:2057  token.balanceOf(msg.sender) */\n      mload(0x40)\n      dup3\n      0xffffffff\n      and\n      0xe0\n      shl\n      dup2\n      mstore\n      0x04\n      add\n      tag_260\n      swap2\n      swap1\n      tag_93\n      jump\t// in\n    tag_260:\n      0x20\n      mload(0x40)\n      dup1\n      dup4\n      sub\n      dup2\n      dup7\n      dup1\n      extcodesize\n      iszero\n      dup1\n      iszero\n      tag_261\n      jumpi\n      0x00\n      dup1\n      revert\n    tag_261:\n      pop\n      gas\n      staticcall\n      iszero\n      dup1\n      iszero\n      tag_263\n      jumpi\n      returndatasize\n      0x00\n      dup1\n      returndatacopy\n      revert(0x00, returndatasize)\n    tag_263:\n      pop\n      pop\n      pop\n      pop\n      mload(0x40)\n      returndatasize\n      not(0x1f)\n      0x1f\n      dup3\n      add\n      and\n      dup3\n      add\n      dup1\n      0x40\n      mstore\n      pop\n      dup2\n      add\n      swap1\n      tag_264\n      swap2\n      swap1\n      tag_265\n      jump\t// in\n    tag_264:\n        /* \"contracts/Lotto.sol\":2030:2079  token.balanceOf(msg.sender) >= TICKET_TOKEN_PRICE */\n      lt\n      iszero\n        /* \"contracts/Lotto.sol\":2022:2099  require(token.balanceOf(msg.sender) >= TICKET_TOKEN_PRICE, \"Not valid value\") */\n      tag_266\n      jumpi\n      mload(0x40)\n      0x08c379a000000000000000000000000000000000000000000000000000000000\n      dup2\n      mstore\n      0x04\n      add\n      tag_267\n      swap1\n      tag_268\n      jump\t// in\n    tag_267:\n      mload(0x40)\n      dup1\n      swap2\n      sub\n      swap1\n      revert\n    tag_266:\n        /* \"contracts/Lotto.sol\":2149:2158  uint256 i */\n      0x00\n        /* \"contracts/Lotto.sol\":2145:2309  for(uint256 i = 0; i < numbers.length - 1; i++) {\r... */\n    tag_269:\n        /* \"contracts/Lotto.sol\":2185:2186  1 */\n      0x01\n        /* \"contracts/Lotto.sol\":2168:2182  numbers.length */\n      0x06\n        /* \"contracts/Lotto.sol\":2168:2186  numbers.length - 1 */\n      tag_272\n      swap2\n      swap1\n      tag_153\n      jump\t// in\n    tag_272:\n        /* \"contracts/Lotto.sol\":2164:2165  i */\n      dup2\n        /* \"contracts/Lotto.sol\":2164:2186  i < numbers.length - 1 */\n      lt\n        /* \"contracts/Lotto.sol\":2145:2309  for(uint256 i = 0; i < numbers.length - 1; i++) {\r... */\n      iszero\n      tag_270\n      jumpi\n        /* \"contracts/Lotto.sol\":2206:2215  uint256 j */\n      0x00\n        /* \"contracts/Lotto.sol\":2220:2221  1 */\n      0x01\n        /* \"contracts/Lotto.sol\":2218:2219  i */\n      dup3\n        /* \"contracts/Lotto.sol\":2218:2221  i+1 */\n      tag_276\n      swap2\n      swap1\n      tag_277\n      jump\t// in\n    tag_276:\n        /* \"contracts/Lotto.sol\":2206:2221  uint256 j = i+1 */\n      swap1\n      pop\n        /* \"contracts/Lotto.sol\":2202:2302  for(uint256 j = i+1; j < numbers.length; j++) {\r... */\n    tag_273:\n        /* \"contracts/Lotto.sol\":2227:2241  numbers.length */\n      0x06\n        /* \"contracts/Lotto.sol\":2223:2224  j */\n      dup2\n        /* \"contracts/Lotto.sol\":2223:2241  j < numbers.length */\n      lt\n        /* \"contracts/Lotto.sol\":2202:2302  for(uint256 j = i+1; j < numbers.length; j++) {\r... */\n      iszero\n      tag_274\n      jumpi\n        /* \"contracts/Lotto.sol\":2281:2288  numbers */\n      dup3\n        /* \"contracts/Lotto.sol\":2289:2290  j */\n      dup2\n        /* \"contracts/Lotto.sol\":2281:2291  numbers[j] */\n      0x06\n      dup2\n      lt\n      tag_278\n      jumpi\n      tag_279\n      tag_134\n      jump\t// in\n    tag_279:\n    tag_278:\n      0x20\n      mul\n      add\n      mload\n        /* \"contracts/Lotto.sol\":2267:2274  numbers */\n      dup4\n        /* \"contracts/Lotto.sol\":2275:2276  i */\n      dup4\n        /* \"contracts/Lotto.sol\":2267:2277  numbers[i] */\n      0x06\n      dup2\n      lt\n      tag_280\n      jumpi\n      tag_281\n      tag_134\n      jump\t// in\n    tag_281:\n    tag_280:\n      0x20\n      mul\n      add\n      mload\n        /* \"contracts/Lotto.sol\":2267:2291  numbers[i] != numbers[j] */\n      eq\n      iszero\n        /* \"contracts/Lotto.sol\":2259:2292  require(numbers[i] != numbers[j]) */\n      tag_282\n      jumpi\n      0x00\n      dup1\n      revert\n    tag_282:\n        /* \"contracts/Lotto.sol\":2243:2246  j++ */\n      dup1\n      dup1\n      tag_283\n      swap1\n      tag_172\n      jump\t// in\n    tag_283:\n      swap2\n      pop\n      pop\n        /* \"contracts/Lotto.sol\":2202:2302  for(uint256 j = i+1; j < numbers.length; j++) {\r... */\n      jump(tag_273)\n    tag_274:\n      pop\n        /* \"contracts/Lotto.sol\":2188:2191  i++ */\n      dup1\n      dup1\n      tag_284\n      swap1\n      tag_172\n      jump\t// in\n    tag_284:\n      swap2\n      pop\n      pop\n        /* \"contracts/Lotto.sol\":2145:2309  for(uint256 i = 0; i < numbers.length - 1; i++) {\r... */\n      jump(tag_269)\n    tag_270:\n      pop\n        /* \"contracts/Lotto.sol\":2347:2356  uint256 i */\n      0x00\n        /* \"contracts/Lotto.sol\":2343:2503  for(uint256 i = 0; i < numbers.length; i++) {\r... */\n    tag_285:\n        /* \"contracts/Lotto.sol\":2366:2380  numbers.length */\n      0x06\n        /* \"contracts/Lotto.sol\":2362:2363  i */\n      dup2\n        /* \"contracts/Lotto.sol\":2362:2380  i < numbers.length */\n      lt\n        /* \"contracts/Lotto.sol\":2343:2503  for(uint256 i = 0; i < numbers.length; i++) {\r... */\n      iszero\n      tag_286\n      jumpi\n        /* \"contracts/Lotto.sol\":801:802  1 */\n      0x01\n        /* \"contracts/Lotto.sol\":2404:2411  numbers */\n      dup3\n        /* \"contracts/Lotto.sol\":2412:2413  i */\n      dup3\n        /* \"contracts/Lotto.sol\":2404:2414  numbers[i] */\n      0x06\n      dup2\n      lt\n      tag_288\n      jumpi\n      tag_289\n      tag_134\n      jump\t// in\n    tag_289:\n    tag_288:\n      0x20\n      mul\n      add\n      mload\n        /* \"contracts/Lotto.sol\":2404:2428  numbers[i] >= MIN_NUMBER */\n      lt\n      iszero\n        /* \"contracts/Lotto.sol\":2404:2456  numbers[i] >= MIN_NUMBER && numbers[i] <= MAX_NUMBER */\n      dup1\n      iszero\n      tag_290\n      jumpi\n      pop\n        /* \"contracts/Lotto.sol\":844:846  45 */\n      0x2d\n        /* \"contracts/Lotto.sol\":2432:2439  numbers */\n      dup3\n        /* \"contracts/Lotto.sol\":2440:2441  i */\n      dup3\n        /* \"contracts/Lotto.sol\":2432:2442  numbers[i] */\n      0x06\n      dup2\n      lt\n      tag_291\n      jumpi\n      tag_292\n      tag_134\n      jump\t// in\n    tag_292:\n    tag_291:\n      0x20\n      mul\n      add\n      mload\n        /* \"contracts/Lotto.sol\":2432:2456  numbers[i] <= MAX_NUMBER */\n      gt\n      iszero\n        /* \"contracts/Lotto.sol\":2404:2456  numbers[i] >= MIN_NUMBER && numbers[i] <= MAX_NUMBER */\n    tag_290:\n        /* \"contracts/Lotto.sol\":2396:2495  require(numbers[i] >= MIN_NUMBER && numbers[i] <= MAX_NUMBER, \"Only numbers 0 ~ 45 can be entered\") */\n      tag_293\n      jumpi\n      mload(0x40)\n      0x08c379a000000000000000000000000000000000000000000000000000000000\n      dup2\n      mstore\n      0x04\n      add\n      tag_294\n      swap1\n      tag_295\n      jump\t// in\n    tag_294:\n      mload(0x40)\n      dup1\n      swap2\n      sub\n      swap1\n      revert\n    tag_293:\n        /* \"contracts/Lotto.sol\":2382:2385  i++ */\n      dup1\n      dup1\n      tag_296\n      swap1\n      tag_172\n      jump\t// in\n    tag_296:\n      swap2\n      pop\n      pop\n        /* \"contracts/Lotto.sol\":2343:2503  for(uint256 i = 0; i < numbers.length; i++) {\r... */\n      jump(tag_285)\n    tag_286:\n      pop\n        /* \"contracts/Lotto.sol\":2571:2576  token */\n      0x01\n      0x00\n      swap1\n      sload\n      swap1\n      0x0100\n      exp\n      swap1\n      div\n      0xffffffffffffffffffffffffffffffffffffffff\n      and\n        /* \"contracts/Lotto.sol\":2571:2589  token.transferFrom */\n      0xffffffffffffffffffffffffffffffffffffffff\n      and\n      0x23b872dd\n        /* \"contracts/Lotto.sol\":2590:2600  msg.sender */\n      caller\n        /* \"contracts/Lotto.sol\":2610:2614  this */\n      address\n        /* \"contracts/Lotto.sol\":2617:2635  TICKET_TOKEN_PRICE */\n      sload(0x03)\n        /* \"contracts/Lotto.sol\":2571:2636  token.transferFrom(msg.sender, address(this), TICKET_TOKEN_PRICE) */\n      mload(0x40)\n      dup5\n      0xffffffff\n      and\n      0xe0\n      shl\n      dup2\n      mstore\n      0x04\n      add\n      tag_297\n      swap4\n      swap3\n      swap2\n      swap1\n      tag_298\n      jump\t// in\n    tag_297:\n      0x20\n      mload(0x40)\n      dup1\n      dup4\n      sub\n      dup2\n      0x00\n      dup8\n      dup1\n      extcodesize\n      iszero\n      dup1\n      iszero\n      tag_299\n      jumpi\n      0x00\n      dup1\n      revert\n    tag_299:\n      pop\n      gas\n      call\n      iszero\n      dup1\n      iszero\n      tag_301\n      jumpi\n      returndatasize\n      0x00\n      dup1\n      returndatacopy\n      revert(0x00, returndatasize)\n    tag_301:\n      pop\n      pop\n      pop\n      pop\n      mload(0x40)\n      returndatasize\n      not(0x1f)\n      0x1f\n      dup3\n      add\n      and\n      dup3\n      add\n      dup1\n      0x40\n      mstore\n      pop\n      dup2\n      add\n      swap1\n      tag_302\n      swap2\n      swap1\n      tag_303\n      jump\t// in\n    tag_302:\n      pop\n        /* \"contracts/Lotto.sol\":2645:2665  Ticket memory ticket */\n      0x00\n        /* \"contracts/Lotto.sol\":2668:2740  Ticket(\r... */\n      mload(0x40)\n      dup1\n      0x60\n      add\n      0x40\n      mstore\n      dup1\n        /* \"contracts/Lotto.sol\":2683:2693  msg.sender */\n      caller\n        /* \"contracts/Lotto.sol\":2668:2740  Ticket(\r... */\n      0xffffffffffffffffffffffffffffffffffffffff\n      and\n      dup2\n      mstore\n      0x20\n      add\n        /* \"contracts/Lotto.sol\":2716:2717  1 */\n      0x01\n        /* \"contracts/Lotto.sol\":2702:2708  rounds */\n      0x04\n        /* \"contracts/Lotto.sol\":2702:2715  rounds.length */\n      dup1\n      sload\n      swap1\n      pop\n        /* \"contracts/Lotto.sol\":2702:2717  rounds.length-1 */\n      tag_304\n      swap2\n      swap1\n      tag_153\n      jump\t// in\n    tag_304:\n        /* \"contracts/Lotto.sol\":2668:2740  Ticket(\r... */\n      dup2\n      mstore\n      0x20\n      add\n        /* \"contracts/Lotto.sol\":2726:2733  numbers */\n      dup4\n        /* \"contracts/Lotto.sol\":2668:2740  Ticket(\r... */\n      dup2\n      mstore\n      pop\n        /* \"contracts/Lotto.sol\":2645:2740  Ticket memory ticket = Ticket(\r... */\n      swap1\n      pop\n        /* \"contracts/Lotto.sol\":2749:2756  tickets */\n      0x05\n        /* \"contracts/Lotto.sol\":2762:2768  ticket */\n      dup2\n        /* \"contracts/Lotto.sol\":2749:2769  tickets.push(ticket) */\n      swap1\n      dup1\n      0x01\n      dup2\n      sload\n      add\n      dup1\n      dup3\n      sstore\n      dup1\n      swap2\n      pop\n      pop\n      0x01\n      swap1\n      sub\n      swap1\n      0x00\n      mstore\n      keccak256(0x00, 0x20)\n      swap1\n      0x08\n      mul\n      add\n      0x00\n      swap1\n      swap2\n      swap1\n      swap2\n      swap1\n      swap2\n      pop\n      0x00\n      dup3\n      add\n      mload\n      dup2\n      0x00\n      add\n      exp(0x0100, 0x00)\n      dup2\n      sload\n      dup2\n      0xffffffffffffffffffffffffffffffffffffffff\n      mul\n      not\n      and\n      swap1\n      dup4\n      0xffffffffffffffffffffffffffffffffffffffff\n      and\n      mul\n      or\n      swap1\n      sstore\n      pop\n      0x20\n      dup3\n      add\n      mload\n      dup2\n      0x01\n      add\n      sstore\n      0x40\n      dup3\n      add\n      mload\n      dup2\n      0x02\n      add\n      swap1\n      0x06\n      tag_306\n      swap3\n      swap2\n      swap1\n      tag_307\n      jump\t// in\n    tag_306:\n      pop\n      pop\n      pop\n        /* \"contracts/Lotto.sol\":2821:2822  1 */\n      0x01\n        /* \"contracts/Lotto.sol\":2778:2784  rounds */\n      0x04\n        /* \"contracts/Lotto.sol\":2801:2802  1 */\n      0x01\n        /* \"contracts/Lotto.sol\":2785:2791  rounds */\n      0x04\n        /* \"contracts/Lotto.sol\":2785:2798  rounds.length */\n      dup1\n      sload\n      swap1\n      pop\n        /* \"contracts/Lotto.sol\":2785:2802  rounds.length - 1 */\n      tag_308\n      swap2\n      swap1\n      tag_153\n      jump\t// in\n    tag_308:\n        /* \"contracts/Lotto.sol\":2778:2803  rounds[rounds.length - 1] */\n      dup2\n      sload\n      dup2\n      lt\n      tag_309\n      jumpi\n      tag_310\n      tag_134\n      jump\t// in\n    tag_310:\n    tag_309:\n      swap1\n      0x00\n      mstore\n      keccak256(0x00, 0x20)\n      swap1\n      0x0b\n      mul\n      add\n        /* \"contracts/Lotto.sol\":2778:2817  rounds[rounds.length - 1].totalQuantity */\n      0x0a\n      add\n      0x00\n        /* \"contracts/Lotto.sol\":2778:2822  rounds[rounds.length - 1].totalQuantity += 1 */\n      dup3\n      dup3\n      sload\n      tag_312\n      swap2\n      swap1\n      tag_277\n      jump\t// in\n    tag_312:\n      swap3\n      pop\n      pop\n      dup2\n      swap1\n      sstore\n      pop\n        /* \"contracts/Lotto.sol\":2015:2828  {\r... */\n      pop\n        /* \"contracts/Lotto.sol\":1952:2828  function tokenBuy(uint256[6] memory numbers) public roundEnd() {\r... */\n      pop\n      jump\t// out\n        /* \"contracts/Lotto.sol\":6665:6789  function nextRound() external onlyOwner{\r... */\n    tag_51:\n        /* \"@klaytn/contracts/contracts/access/Ownable.sol\":1259:1271  _msgSender() */\n      tag_314\n        /* \"@klaytn/contracts/contracts/access/Ownable.sol\":1259:1269  _msgSender */\n      tag_315\n        /* \"@klaytn/contracts/contracts/access/Ownable.sol\":1259:1271  _msgSender() */\n      jump\t// in\n    tag_314:\n        /* \"@klaytn/contracts/contracts/access/Ownable.sol\":1248:1271  owner() == _msgSender() */\n      0xffffffffffffffffffffffffffffffffffffffff\n      and\n        /* \"@klaytn/contracts/contracts/access/Ownable.sol\":1248:1255  owner() */\n      tag_316\n        /* \"@klaytn/contracts/contracts/access/Ownable.sol\":1248:1253  owner */\n      tag_91\n        /* \"@klaytn/contracts/contracts/access/Ownable.sol\":1248:1255  owner() */\n      jump\t// in\n    tag_316:\n        /* \"@klaytn/contracts/contracts/access/Ownable.sol\":1248:1271  owner() == _msgSender() */\n      0xffffffffffffffffffffffffffffffffffffffff\n      and\n      eq\n        /* \"@klaytn/contracts/contracts/access/Ownable.sol\":1240:1308  require(owner() == _msgSender(), \"Ownable: caller is not the owner\") */\n      tag_317\n      jumpi\n      mload(0x40)\n      0x08c379a000000000000000000000000000000000000000000000000000000000\n      dup2\n      mstore\n      0x04\n      add\n      tag_318\n      swap1\n      tag_319\n      jump\t// in\n    tag_318:\n      mload(0x40)\n      dup1\n      swap2\n      sub\n      swap1\n      revert\n    tag_317:\n        /* \"contracts/Lotto.sol\":6730:6731  0 */\n      0x00\n        /* \"contracts/Lotto.sol\":6714:6720  rounds */\n      0x04\n        /* \"contracts/Lotto.sol\":6714:6727  rounds.length */\n      dup1\n      sload\n      swap1\n      pop\n        /* \"contracts/Lotto.sol\":6714:6731  rounds.length > 0 */\n      gt\n        /* \"contracts/Lotto.sol\":6711:6762  if(rounds.length > 0) {\r... */\n      iszero\n      tag_321\n      jumpi\n        /* \"contracts/Lotto.sol\":6742:6754  closeRound() */\n      tag_322\n        /* \"contracts/Lotto.sol\":6742:6752  closeRound */\n      tag_323\n        /* \"contracts/Lotto.sol\":6742:6754  closeRound() */\n      jump\t// in\n    tag_322:\n        /* \"contracts/Lotto.sol\":6711:6762  if(rounds.length > 0) {\r... */\n    tag_321:\n        /* \"contracts/Lotto.sol\":6770:6783  createRound() */\n      tag_324\n        /* \"contracts/Lotto.sol\":6770:6781  createRound */\n      tag_325\n        /* \"contracts/Lotto.sol\":6770:6783  createRound() */\n      jump\t// in\n    tag_324:\n        /* \"contracts/Lotto.sol\":6665:6789  function nextRound() external onlyOwner{\r... */\n      jump\t// out\n        /* \"contracts/Lotto.sol\":726:759  uint256 public TICKET_TOKEN_PRICE */\n    tag_54:\n      sload(0x03)\n      dup2\n      jump\t// out\n        /* \"contracts/Lotto.sol\":877:900  Ticket[] public tickets */\n    tag_59:\n      0x05\n      dup2\n      dup2\n      sload\n      dup2\n      lt\n      tag_326\n      jumpi\n      0x00\n      dup1\n      revert\n    tag_326:\n      swap1\n      0x00\n      mstore\n      keccak256(0x00, 0x20)\n      swap1\n      0x08\n      mul\n      add\n      0x00\n      swap2\n      pop\n      swap1\n      pop\n      dup1\n      0x00\n      add\n      0x00\n      swap1\n      sload\n      swap1\n      0x0100\n      exp\n      swap1\n      div\n      0xffffffffffffffffffffffffffffffffffffffff\n      and\n      swap1\n      dup1\n      0x01\n      add\n      sload\n      swap1\n      pop\n      dup3\n      jump\t// out\n        /* \"contracts/Lotto.sol\":7833:7933  function changeInterval(uint256 _interval) external onlyOwner{\r... */\n    tag_65:\n        /* \"@klaytn/contracts/contracts/access/Ownable.sol\":1259:1271  _msgSender() */\n      tag_329\n        /* \"@klaytn/contracts/contracts/access/Ownable.sol\":1259:1269  _msgSender */\n      tag_315\n        /* \"@klaytn/contracts/contracts/access/Ownable.sol\":1259:1271  _msgSender() */\n      jump\t// in\n    tag_329:\n        /* \"@klaytn/contracts/contracts/access/Ownable.sol\":1248:1271  owner() == _msgSender() */\n      0xffffffffffffffffffffffffffffffffffffffff\n      and\n        /* \"@klaytn/contracts/contracts/access/Ownable.sol\":1248:1255  owner() */\n      tag_330\n        /* \"@klaytn/contracts/contracts/access/Ownable.sol\":1248:1253  owner */\n      tag_91\n        /* \"@klaytn/contracts/contracts/access/Ownable.sol\":1248:1255  owner() */\n      jump\t// in\n    tag_330:\n        /* \"@klaytn/contracts/contracts/access/Ownable.sol\":1248:1271  owner() == _msgSender() */\n      0xffffffffffffffffffffffffffffffffffffffff\n      and\n      eq\n        /* \"@klaytn/contracts/contracts/access/Ownable.sol\":1240:1308  require(owner() == _msgSender(), \"Ownable: caller is not the owner\") */\n      tag_331\n      jumpi\n      mload(0x40)\n      0x08c379a000000000000000000000000000000000000000000000000000000000\n      dup2\n      mstore\n      0x04\n      add\n      tag_332\n      swap1\n      tag_319\n      jump\t// in\n    tag_332:\n      mload(0x40)\n      dup1\n      swap2\n      sub\n      swap1\n      revert\n    tag_331:\n        /* \"contracts/Lotto.sol\":7918:7927  _interval */\n      dup1\n        /* \"contracts/Lotto.sol\":7901:7915  round_interval */\n      0x06\n        /* \"contracts/Lotto.sol\":7901:7927  round_interval = _interval */\n      dup2\n      swap1\n      sstore\n      pop\n        /* \"contracts/Lotto.sol\":7833:7933  function changeInterval(uint256 _interval) external onlyOwner{\r... */\n      pop\n      jump\t// out\n        /* \"contracts/Lotto.sol\":7589:7686  function getContractBalance() public view returns(uint) {\r... */\n    tag_68:\n        /* \"contracts/Lotto.sol\":7639:7643  uint */\n      0x00\n        /* \"contracts/Lotto.sol\":7659:7680  address(this).balance */\n      selfbalance\n        /* \"contracts/Lotto.sol\":7652:7680  return address(this).balance */\n      swap1\n      pop\n        /* \"contracts/Lotto.sol\":7589:7686  function getContractBalance() public view returns(uint) {\r... */\n      swap1\n      jump\t// out\n        /* \"@klaytn/contracts/contracts/access/Ownable.sol\":1668:1769  function renounceOwnership() public virtual onlyOwner {... */\n    tag_72:\n        /* \"@klaytn/contracts/contracts/access/Ownable.sol\":1259:1271  _msgSender() */\n      tag_336\n        /* \"@klaytn/contracts/contracts/access/Ownable.sol\":1259:1269  _msgSender */\n      tag_315\n        /* \"@klaytn/contracts/contracts/access/Ownable.sol\":1259:1271  _msgSender() */\n      jump\t// in\n    tag_336:\n        /* \"@klaytn/contracts/contracts/access/Ownable.sol\":1248:1271  owner() == _msgSender() */\n      0xffffffffffffffffffffffffffffffffffffffff\n      and\n        /* \"@klaytn/contracts/contracts/access/Ownable.sol\":1248:1255  owner() */\n      tag_337\n        /* \"@klaytn/contracts/contracts/access/Ownable.sol\":1248:1253  owner */\n      tag_91\n        /* \"@klaytn/contracts/contracts/access/Ownable.sol\":1248:1255  owner() */\n      jump\t// in\n    tag_337:\n        /* \"@klaytn/contracts/contracts/access/Ownable.sol\":1248:1271  owner() == _msgSender() */\n      0xffffffffffffffffffffffffffffffffffffffff\n      and\n      eq\n        /* \"@klaytn/contracts/contracts/access/Ownable.sol\":1240:1308  require(owner() == _msgSender(), \"Ownable: caller is not the owner\") */\n      tag_338\n      jumpi\n      mload(0x40)\n      0x08c379a000000000000000000000000000000000000000000000000000000000\n      dup2\n      mstore\n      0x04\n      add\n      tag_339\n      swap1\n      tag_319\n      jump\t// in\n    tag_339:\n      mload(0x40)\n      dup1\n      swap2\n      sub\n      swap1\n      revert\n    tag_338:\n        /* \"@klaytn/contracts/contracts/access/Ownable.sol\":1732:1762  _transferOwnership(address(0)) */\n      tag_341\n        /* \"@klaytn/contracts/contracts/access/Ownable.sol\":1759:1760  0 */\n      0x00\n        /* \"@klaytn/contracts/contracts/access/Ownable.sol\":1732:1750  _transferOwnership */\n      tag_342\n        /* \"@klaytn/contracts/contracts/access/Ownable.sol\":1732:1762  _transferOwnership(address(0)) */\n      jump\t// in\n    tag_341:\n        /* \"@klaytn/contracts/contracts/access/Ownable.sol\":1668:1769  function renounceOwnership() public virtual onlyOwner {... */\n      jump\t// out\n        /* \"contracts/Lotto.sol\":907:936  uint256 public round_interval */\n    tag_75:\n      sload(0x06)\n      dup2\n      jump\t// out\n        /* \"contracts/Lotto.sol\":851:872  Round[] public rounds */\n    tag_80:\n      0x04\n      dup2\n      dup2\n      sload\n      dup2\n      lt\n      tag_343\n      jumpi\n      0x00\n      dup1\n      revert\n    tag_343:\n      swap1\n      0x00\n      mstore\n      keccak256(0x00, 0x20)\n      swap1\n      0x0b\n      mul\n      add\n      0x00\n      swap2\n      pop\n      swap1\n      pop\n      dup1\n      0x00\n      add\n      sload\n      swap1\n      dup1\n      0x01\n      add\n      sload\n      swap1\n      dup1\n      0x02\n      add\n      0x00\n      swap1\n      sload\n      swap1\n      0x0100\n      exp\n      swap1\n      div\n      0xff\n      and\n      swap1\n      dup1\n      0x0a\n      add\n      sload\n      swap1\n      pop\n      dup5\n      jump\t// out\n        /* \"contracts/Lotto.sol\":7460:7583  function getWinNumbers(uint256 _round) public view returns(uint256[7] memory) {\r... */\n    tag_86:\n        /* \"contracts/Lotto.sol\":7519:7536  uint256[7] memory */\n      tag_345\n      tag_346\n      jump\t// in\n    tag_345:\n        /* \"contracts/Lotto.sol\":7552:7558  rounds */\n      0x04\n        /* \"contracts/Lotto.sol\":7559:7565  _round */\n      dup3\n        /* \"contracts/Lotto.sol\":7552:7566  rounds[_round] */\n      dup2\n      sload\n      dup2\n      lt\n      tag_348\n      jumpi\n      tag_349\n      tag_134\n      jump\t// in\n    tag_349:\n    tag_348:\n      swap1\n      0x00\n      mstore\n      keccak256(0x00, 0x20)\n      swap1\n      0x0b\n      mul\n      add\n        /* \"contracts/Lotto.sol\":7552:7577  rounds[_round].winNumbers */\n      0x03\n      add\n        /* \"contracts/Lotto.sol\":7545:7577  return rounds[_round].winNumbers */\n      0x07\n      dup1\n      0x20\n      mul\n      mload(0x40)\n      swap1\n      dup2\n      add\n      0x40\n      mstore\n      dup1\n      swap3\n      swap2\n      swap1\n      dup3\n      0x07\n      dup1\n      iszero\n      tag_351\n      jumpi\n      0x20\n      mul\n      dup3\n      add\n      swap2\n    tag_352:\n      dup2\n      sload\n      dup2\n      mstore\n      0x20\n      add\n      swap1\n      0x01\n      add\n      swap1\n      dup1\n      dup4\n      gt\n      tag_352\n      jumpi\n    tag_351:\n      pop\n      pop\n      pop\n      pop\n      pop\n      swap1\n      pop\n        /* \"contracts/Lotto.sol\":7460:7583  function getWinNumbers(uint256 _round) public view returns(uint256[7] memory) {\r... */\n      swap2\n      swap1\n      pop\n      jump\t// out\n        /* \"@klaytn/contracts/contracts/access/Ownable.sol\":1036:1121  function owner() public view virtual returns (address) {... */\n    tag_91:\n        /* \"@klaytn/contracts/contracts/access/Ownable.sol\":1082:1089  address */\n      0x00\n        /* \"@klaytn/contracts/contracts/access/Ownable.sol\":1108:1114  _owner */\n      dup1\n      0x00\n      swap1\n      sload\n      swap1\n      0x0100\n      exp\n      swap1\n      div\n      0xffffffffffffffffffffffffffffffffffffffff\n      and\n        /* \"@klaytn/contracts/contracts/access/Ownable.sol\":1101:1114  return _owner */\n      swap1\n      pop\n        /* \"@klaytn/contracts/contracts/access/Ownable.sol\":1036:1121  function owner() public view virtual returns (address) {... */\n      swap1\n      jump\t// out\n        /* \"contracts/Lotto.sol\":7939:8029  function changePrice(uint256 _price) external onlyOwner {\r... */\n    tag_97:\n        /* \"@klaytn/contracts/contracts/access/Ownable.sol\":1259:1271  _msgSender() */\n      tag_355\n        /* \"@klaytn/contracts/contracts/access/Ownable.sol\":1259:1269  _msgSender */\n      tag_315\n        /* \"@klaytn/contracts/contracts/access/Ownable.sol\":1259:1271  _msgSender() */\n      jump\t// in\n    tag_355:\n        /* \"@klaytn/contracts/contracts/access/Ownable.sol\":1248:1271  owner() == _msgSender() */\n      0xffffffffffffffffffffffffffffffffffffffff\n      and\n        /* \"@klaytn/contracts/contracts/access/Ownable.sol\":1248:1255  owner() */\n      tag_356\n        /* \"@klaytn/contracts/contracts/access/Ownable.sol\":1248:1253  owner */\n      tag_91\n        /* \"@klaytn/contracts/contracts/access/Ownable.sol\":1248:1255  owner() */\n      jump\t// in\n    tag_356:\n        /* \"@klaytn/contracts/contracts/access/Ownable.sol\":1248:1271  owner() == _msgSender() */\n      0xffffffffffffffffffffffffffffffffffffffff\n      and\n      eq\n        /* \"@klaytn/contracts/contracts/access/Ownable.sol\":1240:1308  require(owner() == _msgSender(), \"Ownable: caller is not the owner\") */\n      tag_357\n      jumpi\n      mload(0x40)\n      0x08c379a000000000000000000000000000000000000000000000000000000000\n      dup2\n      mstore\n      0x04\n      add\n      tag_358\n      swap1\n      tag_319\n      jump\t// in\n    tag_358:\n      mload(0x40)\n      dup1\n      swap2\n      sub\n      swap1\n      revert\n    tag_357:\n        /* \"contracts/Lotto.sol\":8017:8023  _price */\n      dup1\n        /* \"contracts/Lotto.sol\":8002:8014  TICKET_PRICE */\n      0x02\n        /* \"contracts/Lotto.sol\":8002:8023  TICKET_PRICE = _price */\n      dup2\n      swap1\n      sstore\n      pop\n        /* \"contracts/Lotto.sol\":7939:8029  function changePrice(uint256 _price) external onlyOwner {\r... */\n      pop\n      jump\t// out\n        /* \"contracts/Lotto.sol\":2834:3548  function buy(uint256[6] memory numbers) public  roundEnd() payable {\r... */\n    tag_100:\n        /* \"contracts/Lotto.sol\":1356:1371  block.timestamp */\n      timestamp\n        /* \"contracts/Lotto.sol\":1319:1325  rounds */\n      0x04\n        /* \"contracts/Lotto.sol\":1342:1343  1 */\n      0x01\n        /* \"contracts/Lotto.sol\":1326:1332  rounds */\n      0x04\n        /* \"contracts/Lotto.sol\":1326:1339  rounds.length */\n      dup1\n      sload\n      swap1\n      pop\n        /* \"contracts/Lotto.sol\":1326:1343  rounds.length - 1 */\n      tag_361\n      swap2\n      swap1\n      tag_153\n      jump\t// in\n    tag_361:\n        /* \"contracts/Lotto.sol\":1319:1344  rounds[rounds.length - 1] */\n      dup2\n      sload\n      dup2\n      lt\n      tag_362\n      jumpi\n      tag_363\n      tag_134\n      jump\t// in\n    tag_363:\n    tag_362:\n      swap1\n      0x00\n      mstore\n      keccak256(0x00, 0x20)\n      swap1\n      0x0b\n      mul\n      add\n        /* \"contracts/Lotto.sol\":1319:1352  rounds[rounds.length - 1].endTime */\n      0x01\n      add\n      sload\n        /* \"contracts/Lotto.sol\":1319:1371  rounds[rounds.length - 1].endTime >= block.timestamp */\n      lt\n      iszero\n        /* \"contracts/Lotto.sol\":1311:1385  require(rounds[rounds.length - 1].endTime >= block.timestamp, \"Round End\") */\n      tag_365\n      jumpi\n      mload(0x40)\n      0x08c379a000000000000000000000000000000000000000000000000000000000\n      dup2\n      mstore\n      0x04\n      add\n      tag_366\n      swap1\n      tag_248\n      jump\t// in\n    tag_366:\n      mload(0x40)\n      dup1\n      swap2\n      sub\n      swap1\n      revert\n    tag_365:\n        /* \"contracts/Lotto.sol\":1436:1451  RoundStatus.End */\n      0x01\n        /* \"contracts/Lotto.sol\":1400:1451  rounds[rounds.length - 1].status != RoundStatus.End */\n      dup1\n      dup2\n      gt\n      iszero\n      tag_367\n      jumpi\n      tag_368\n      tag_139\n      jump\t// in\n    tag_368:\n    tag_367:\n        /* \"contracts/Lotto.sol\":1400:1406  rounds */\n      0x04\n        /* \"contracts/Lotto.sol\":1423:1424  1 */\n      0x01\n        /* \"contracts/Lotto.sol\":1407:1413  rounds */\n      0x04\n        /* \"contracts/Lotto.sol\":1407:1420  rounds.length */\n      dup1\n      sload\n      swap1\n      pop\n        /* \"contracts/Lotto.sol\":1407:1424  rounds.length - 1 */\n      tag_369\n      swap2\n      swap1\n      tag_153\n      jump\t// in\n    tag_369:\n        /* \"contracts/Lotto.sol\":1400:1425  rounds[rounds.length - 1] */\n      dup2\n      sload\n      dup2\n      lt\n      tag_370\n      jumpi\n      tag_371\n      tag_134\n      jump\t// in\n    tag_371:\n    tag_370:\n      swap1\n      0x00\n      mstore\n      keccak256(0x00, 0x20)\n      swap1\n      0x0b\n      mul\n      add\n        /* \"contracts/Lotto.sol\":1400:1432  rounds[rounds.length - 1].status */\n      0x02\n      add\n      0x00\n      swap1\n      sload\n      swap1\n      0x0100\n      exp\n      swap1\n      div\n      0xff\n      and\n        /* \"contracts/Lotto.sol\":1400:1451  rounds[rounds.length - 1].status != RoundStatus.End */\n      0x01\n      dup2\n      gt\n      iszero\n      tag_373\n      jumpi\n      tag_374\n      tag_139\n      jump\t// in\n    tag_374:\n    tag_373:\n      eq\n      iszero\n        /* \"contracts/Lotto.sol\":1392:1465  require(rounds[rounds.length - 1].status != RoundStatus.End, \"Round End\") */\n      tag_375\n      jumpi\n      mload(0x40)\n      0x08c379a000000000000000000000000000000000000000000000000000000000\n      dup2\n      mstore\n      0x04\n      add\n      tag_376\n      swap1\n      tag_248\n      jump\t// in\n    tag_376:\n      mload(0x40)\n      dup1\n      swap2\n      sub\n      swap1\n      revert\n    tag_375:\n        /* \"contracts/Lotto.sol\":2929:2941  TICKET_PRICE */\n      sload(0x02)\n        /* \"contracts/Lotto.sol\":2916:2925  msg.value */\n      callvalue\n        /* \"contracts/Lotto.sol\":2916:2941  msg.value == TICKET_PRICE */\n      eq\n        /* \"contracts/Lotto.sol\":2908:2961  require(msg.value == TICKET_PRICE, \"Not valid value\") */\n      tag_378\n      jumpi\n      mload(0x40)\n      0x08c379a000000000000000000000000000000000000000000000000000000000\n      dup2\n      mstore\n      0x04\n      add\n      tag_379\n      swap1\n      tag_268\n      jump\t// in\n    tag_379:\n      mload(0x40)\n      dup1\n      swap2\n      sub\n      swap1\n      revert\n    tag_378:\n        /* \"contracts/Lotto.sol\":3003:3012  uint256 i */\n      0x00\n        /* \"contracts/Lotto.sol\":2999:3163  for(uint256 i = 0; i < numbers.length - 1; i++) {\r... */\n    tag_380:\n        /* \"contracts/Lotto.sol\":3039:3040  1 */\n      0x01\n        /* \"contracts/Lotto.sol\":3022:3036  numbers.length */\n      0x06\n        /* \"contracts/Lotto.sol\":3022:3040  numbers.length - 1 */\n      tag_383\n      swap2\n      swap1\n      tag_153\n      jump\t// in\n    tag_383:\n        /* \"contracts/Lotto.sol\":3018:3019  i */\n      dup2\n        /* \"contracts/Lotto.sol\":3018:3040  i < numbers.length - 1 */\n      lt\n        /* \"contracts/Lotto.sol\":2999:3163  for(uint256 i = 0; i < numbers.length - 1; i++) {\r... */\n      iszero\n      tag_381\n      jumpi\n        /* \"contracts/Lotto.sol\":3060:3069  uint256 j */\n      0x00\n        /* \"contracts/Lotto.sol\":3074:3075  1 */\n      0x01\n        /* \"contracts/Lotto.sol\":3072:3073  i */\n      dup3\n        /* \"contracts/Lotto.sol\":3072:3075  i+1 */\n      tag_387\n      swap2\n      swap1\n      tag_277\n      jump\t// in\n    tag_387:\n        /* \"contracts/Lotto.sol\":3060:3075  uint256 j = i+1 */\n      swap1\n      pop\n        /* \"contracts/Lotto.sol\":3056:3156  for(uint256 j = i+1; j < numbers.length; j++) {\r... */\n    tag_384:\n        /* \"contracts/Lotto.sol\":3081:3095  numbers.length */\n      0x06\n        /* \"contracts/Lotto.sol\":3077:3078  j */\n      dup2\n        /* \"contracts/Lotto.sol\":3077:3095  j < numbers.length */\n      lt\n        /* \"contracts/Lotto.sol\":3056:3156  for(uint256 j = i+1; j < numbers.length; j++) {\r... */\n      iszero\n      tag_385\n      jumpi\n        /* \"contracts/Lotto.sol\":3135:3142  numbers */\n      dup3\n        /* \"contracts/Lotto.sol\":3143:3144  j */\n      dup2\n        /* \"contracts/Lotto.sol\":3135:3145  numbers[j] */\n      0x06\n      dup2\n      lt\n      tag_388\n      jumpi\n      tag_389\n      tag_134\n      jump\t// in\n    tag_389:\n    tag_388:\n      0x20\n      mul\n      add\n      mload\n        /* \"contracts/Lotto.sol\":3121:3128  numbers */\n      dup4\n        /* \"contracts/Lotto.sol\":3129:3130  i */\n      dup4\n        /* \"contracts/Lotto.sol\":3121:3131  numbers[i] */\n      0x06\n      dup2\n      lt\n      tag_390\n      jumpi\n      tag_391\n      tag_134\n      jump\t// in\n    tag_391:\n    tag_390:\n      0x20\n      mul\n      add\n      mload\n        /* \"contracts/Lotto.sol\":3121:3145  numbers[i] != numbers[j] */\n      eq\n      iszero\n        /* \"contracts/Lotto.sol\":3113:3146  require(numbers[i] != numbers[j]) */\n      tag_392\n      jumpi\n      0x00\n      dup1\n      revert\n    tag_392:\n        /* \"contracts/Lotto.sol\":3097:3100  j++ */\n      dup1\n      dup1\n      tag_393\n      swap1\n      tag_172\n      jump\t// in\n    tag_393:\n      swap2\n      pop\n      pop\n        /* \"contracts/Lotto.sol\":3056:3156  for(uint256 j = i+1; j < numbers.length; j++) {\r... */\n      jump(tag_384)\n    tag_385:\n      pop\n        /* \"contracts/Lotto.sol\":3042:3045  i++ */\n      dup1\n      dup1\n      tag_394\n      swap1\n      tag_172\n      jump\t// in\n    tag_394:\n      swap2\n      pop\n      pop\n        /* \"contracts/Lotto.sol\":2999:3163  for(uint256 i = 0; i < numbers.length - 1; i++) {\r... */\n      jump(tag_380)\n    tag_381:\n      pop\n        /* \"contracts/Lotto.sol\":3201:3210  uint256 i */\n      0x00\n        /* \"contracts/Lotto.sol\":3197:3357  for(uint256 i = 0; i < numbers.length; i++) {\r... */\n    tag_395:\n        /* \"contracts/Lotto.sol\":3220:3234  numbers.length */\n      0x06\n        /* \"contracts/Lotto.sol\":3216:3217  i */\n      dup2\n        /* \"contracts/Lotto.sol\":3216:3234  i < numbers.length */\n      lt\n        /* \"contracts/Lotto.sol\":3197:3357  for(uint256 i = 0; i < numbers.length; i++) {\r... */\n      iszero\n      tag_396\n      jumpi\n        /* \"contracts/Lotto.sol\":801:802  1 */\n      0x01\n        /* \"contracts/Lotto.sol\":3258:3265  numbers */\n      dup3\n        /* \"contracts/Lotto.sol\":3266:3267  i */\n      dup3\n        /* \"contracts/Lotto.sol\":3258:3268  numbers[i] */\n      0x06\n      dup2\n      lt\n      tag_398\n      jumpi\n      tag_399\n      tag_134\n      jump\t// in\n    tag_399:\n    tag_398:\n      0x20\n      mul\n      add\n      mload\n        /* \"contracts/Lotto.sol\":3258:3282  numbers[i] >= MIN_NUMBER */\n      lt\n      iszero\n        /* \"contracts/Lotto.sol\":3258:3310  numbers[i] >= MIN_NUMBER && numbers[i] <= MAX_NUMBER */\n      dup1\n      iszero\n      tag_400\n      jumpi\n      pop\n        /* \"contracts/Lotto.sol\":844:846  45 */\n      0x2d\n        /* \"contracts/Lotto.sol\":3286:3293  numbers */\n      dup3\n        /* \"contracts/Lotto.sol\":3294:3295  i */\n      dup3\n        /* \"contracts/Lotto.sol\":3286:3296  numbers[i] */\n      0x06\n      dup2\n      lt\n      tag_401\n      jumpi\n      tag_402\n      tag_134\n      jump\t// in\n    tag_402:\n    tag_401:\n      0x20\n      mul\n      add\n      mload\n        /* \"contracts/Lotto.sol\":3286:3310  numbers[i] <= MAX_NUMBER */\n      gt\n      iszero\n        /* \"contracts/Lotto.sol\":3258:3310  numbers[i] >= MIN_NUMBER && numbers[i] <= MAX_NUMBER */\n    tag_400:\n        /* \"contracts/Lotto.sol\":3250:3349  require(numbers[i] >= MIN_NUMBER && numbers[i] <= MAX_NUMBER, \"Only numbers 0 ~ 45 can be entered\") */\n      tag_403\n      jumpi\n      mload(0x40)\n      0x08c379a000000000000000000000000000000000000000000000000000000000\n      dup2\n      mstore\n      0x04\n      add\n      tag_404\n      swap1\n      tag_295\n      jump\t// in\n    tag_404:\n      mload(0x40)\n      dup1\n      swap2\n      sub\n      swap1\n      revert\n    tag_403:\n        /* \"contracts/Lotto.sol\":3236:3239  i++ */\n      dup1\n      dup1\n      tag_405\n      swap1\n      tag_172\n      jump\t// in\n    tag_405:\n      swap2\n      pop\n      pop\n        /* \"contracts/Lotto.sol\":3197:3357  for(uint256 i = 0; i < numbers.length; i++) {\r... */\n      jump(tag_395)\n    tag_396:\n      pop\n        /* \"contracts/Lotto.sol\":3365:3385  Ticket memory ticket */\n      0x00\n        /* \"contracts/Lotto.sol\":3388:3460  Ticket(\r... */\n      mload(0x40)\n      dup1\n      0x60\n      add\n      0x40\n      mstore\n      dup1\n        /* \"contracts/Lotto.sol\":3403:3413  msg.sender */\n      caller\n        /* \"contracts/Lotto.sol\":3388:3460  Ticket(\r... */\n      0xffffffffffffffffffffffffffffffffffffffff\n      and\n      dup2\n      mstore\n      0x20\n      add\n        /* \"contracts/Lotto.sol\":3436:3437  1 */\n      0x01\n        /* \"contracts/Lotto.sol\":3422:3428  rounds */\n      0x04\n        /* \"contracts/Lotto.sol\":3422:3435  rounds.length */\n      dup1\n      sload\n      swap1\n      pop\n        /* \"contracts/Lotto.sol\":3422:3437  rounds.length-1 */\n      tag_406\n      swap2\n      swap1\n      tag_153\n      jump\t// in\n    tag_406:\n        /* \"contracts/Lotto.sol\":3388:3460  Ticket(\r... */\n      dup2\n      mstore\n      0x20\n      add\n        /* \"contracts/Lotto.sol\":3446:3453  numbers */\n      dup4\n        /* \"contracts/Lotto.sol\":3388:3460  Ticket(\r... */\n      dup2\n      mstore\n      pop\n        /* \"contracts/Lotto.sol\":3365:3460  Ticket memory ticket = Ticket(\r... */\n      swap1\n      pop\n        /* \"contracts/Lotto.sol\":3469:3476  tickets */\n      0x05\n        /* \"contracts/Lotto.sol\":3482:3488  ticket */\n      dup2\n        /* \"contracts/Lotto.sol\":3469:3489  tickets.push(ticket) */\n      swap1\n      dup1\n      0x01\n      dup2\n      sload\n      add\n      dup1\n      dup3\n      sstore\n      dup1\n      swap2\n      pop\n      pop\n      0x01\n      swap1\n      sub\n      swap1\n      0x00\n      mstore\n      keccak256(0x00, 0x20)\n      swap1\n      0x08\n      mul\n      add\n      0x00\n      swap1\n      swap2\n      swap1\n      swap2\n      swap1\n      swap2\n      pop\n      0x00\n      dup3\n      add\n      mload\n      dup2\n      0x00\n      add\n      exp(0x0100, 0x00)\n      dup2\n      sload\n      dup2\n      0xffffffffffffffffffffffffffffffffffffffff\n      mul\n      not\n      and\n      swap1\n      dup4\n      0xffffffffffffffffffffffffffffffffffffffff\n      and\n      mul\n      or\n      swap1\n      sstore\n      pop\n      0x20\n      dup3\n      add\n      mload\n      dup2\n      0x01\n      add\n      sstore\n      0x40\n      dup3\n      add\n      mload\n      dup2\n      0x02\n      add\n      swap1\n      0x06\n      tag_408\n      swap3\n      swap2\n      swap1\n      tag_307\n      jump\t// in\n    tag_408:\n      pop\n      pop\n      pop\n        /* \"contracts/Lotto.sol\":3541:3542  1 */\n      0x01\n        /* \"contracts/Lotto.sol\":3498:3504  rounds */\n      0x04\n        /* \"contracts/Lotto.sol\":3521:3522  1 */\n      0x01\n        /* \"contracts/Lotto.sol\":3505:3511  rounds */\n      0x04\n        /* \"contracts/Lotto.sol\":3505:3518  rounds.length */\n      dup1\n      sload\n      swap1\n      pop\n        /* \"contracts/Lotto.sol\":3505:3522  rounds.length - 1 */\n      tag_409\n      swap2\n      swap1\n      tag_153\n      jump\t// in\n    tag_409:\n        /* \"contracts/Lotto.sol\":3498:3523  rounds[rounds.length - 1] */\n      dup2\n      sload\n      dup2\n      lt\n      tag_410\n      jumpi\n      tag_411\n      tag_134\n      jump\t// in\n    tag_411:\n    tag_410:\n      swap1\n      0x00\n      mstore\n      keccak256(0x00, 0x20)\n      swap1\n      0x0b\n      mul\n      add\n        /* \"contracts/Lotto.sol\":3498:3537  rounds[rounds.length - 1].totalQuantity */\n      0x0a\n      add\n      0x00\n        /* \"contracts/Lotto.sol\":3498:3542  rounds[rounds.length - 1].totalQuantity += 1 */\n      dup3\n      dup3\n      sload\n      tag_413\n      swap2\n      swap1\n      tag_277\n      jump\t// in\n    tag_413:\n      swap3\n      pop\n      pop\n      dup2\n      swap1\n      sstore\n      pop\n        /* \"contracts/Lotto.sol\":2901:3548  {\r... */\n      pop\n        /* \"contracts/Lotto.sol\":2834:3548  function buy(uint256[6] memory numbers) public  roundEnd() payable {\r... */\n      pop\n      jump\t// out\n        /* \"contracts/Lotto.sol\":8035:8172  function tokenWithdraw(address payable toAdress) external onlyOwner {\r... */\n    tag_105:\n        /* \"@klaytn/contracts/contracts/access/Ownable.sol\":1259:1271  _msgSender() */\n      tag_415\n        /* \"@klaytn/contracts/contracts/access/Ownable.sol\":1259:1269  _msgSender */\n      tag_315\n        /* \"@klaytn/contracts/contracts/access/Ownable.sol\":1259:1271  _msgSender() */\n      jump\t// in\n    tag_415:\n        /* \"@klaytn/contracts/contracts/access/Ownable.sol\":1248:1271  owner() == _msgSender() */\n      0xffffffffffffffffffffffffffffffffffffffff\n      and\n        /* \"@klaytn/contracts/contracts/access/Ownable.sol\":1248:1255  owner() */\n      tag_416\n        /* \"@klaytn/contracts/contracts/access/Ownable.sol\":1248:1253  owner */\n      tag_91\n        /* \"@klaytn/contracts/contracts/access/Ownable.sol\":1248:1255  owner() */\n      jump\t// in\n    tag_416:\n        /* \"@klaytn/contracts/contracts/access/Ownable.sol\":1248:1271  owner() == _msgSender() */\n      0xffffffffffffffffffffffffffffffffffffffff\n      and\n      eq\n        /* \"@klaytn/contracts/contracts/access/Ownable.sol\":1240:1308  require(owner() == _msgSender(), \"Ownable: caller is not the owner\") */\n      tag_417\n      jumpi\n      mload(0x40)\n      0x08c379a000000000000000000000000000000000000000000000000000000000\n      dup2\n      mstore\n      0x04\n      add\n      tag_418\n      swap1\n      tag_319\n      jump\t// in\n    tag_418:\n      mload(0x40)\n      dup1\n      swap2\n      sub\n      swap1\n      revert\n    tag_417:\n        /* \"contracts/Lotto.sol\":8110:8115  token */\n      0x01\n      0x00\n      swap1\n      sload\n      swap1\n      0x0100\n      exp\n      swap1\n      div\n      0xffffffffffffffffffffffffffffffffffffffff\n      and\n        /* \"contracts/Lotto.sol\":8110:8124  token.transfer */\n      0xffffffffffffffffffffffffffffffffffffffff\n      and\n      0xa9059cbb\n        /* \"contracts/Lotto.sol\":8125:8133  toAdress */\n      dup3\n        /* \"contracts/Lotto.sol\":8135:8140  token */\n      0x01\n      0x00\n      swap1\n      sload\n      swap1\n      0x0100\n      exp\n      swap1\n      div\n      0xffffffffffffffffffffffffffffffffffffffff\n      and\n        /* \"contracts/Lotto.sol\":8135:8150  token.balanceOf */\n      0xffffffffffffffffffffffffffffffffffffffff\n      and\n      0x70a08231\n        /* \"contracts/Lotto.sol\":8159:8163  this */\n      address\n        /* \"contracts/Lotto.sol\":8135:8165  token.balanceOf(address(this)) */\n      mload(0x40)\n      dup3\n      0xffffffff\n      and\n      0xe0\n      shl\n      dup2\n      mstore\n      0x04\n      add\n      tag_420\n      swap2\n      swap1\n      tag_93\n      jump\t// in\n    tag_420:\n      0x20\n      mload(0x40)\n      dup1\n      dup4\n      sub\n      dup2\n      dup7\n      dup1\n      extcodesize\n      iszero\n      dup1\n      iszero\n      tag_421\n      jumpi\n      0x00\n      dup1\n      revert\n    tag_421:\n      pop\n      gas\n      staticcall\n      iszero\n      dup1\n      iszero\n      tag_423\n      jumpi\n      returndatasize\n      0x00\n      dup1\n      returndatacopy\n      revert(0x00, returndatasize)\n    tag_423:\n      pop\n      pop\n      pop\n      pop\n      mload(0x40)\n      returndatasize\n      not(0x1f)\n      0x1f\n      dup3\n      add\n      and\n      dup3\n      add\n      dup1\n      0x40\n      mstore\n      pop\n      dup2\n      add\n      swap1\n      tag_424\n      swap2\n      swap1\n      tag_265\n      jump\t// in\n    tag_424:\n        /* \"contracts/Lotto.sol\":8110:8166  token.transfer(toAdress, token.balanceOf(address(this))) */\n      mload(0x40)\n      dup4\n      0xffffffff\n      and\n      0xe0\n      shl\n      dup2\n      mstore\n      0x04\n      add\n      tag_425\n      swap3\n      swap2\n      swap1\n      tag_426\n      jump\t// in\n    tag_425:\n      0x20\n      mload(0x40)\n      dup1\n      dup4\n      sub\n      dup2\n      0x00\n      dup8\n      dup1\n      extcodesize\n      iszero\n      dup1\n      iszero\n      tag_427\n      jumpi\n      0x00\n      dup1\n      revert\n    tag_427:\n      pop\n      gas\n      call\n      iszero\n      dup1\n      iszero\n      tag_429\n      jumpi\n      returndatasize\n      0x00\n      dup1\n      returndatacopy\n      revert(0x00, returndatasize)\n    tag_429:\n      pop\n      pop\n      pop\n      pop\n      mload(0x40)\n      returndatasize\n      not(0x1f)\n      0x1f\n      dup3\n      add\n      and\n      dup3\n      add\n      dup1\n      0x40\n      mstore\n      pop\n      dup2\n      add\n      swap1\n      tag_430\n      swap2\n      swap1\n      tag_303\n      jump\t// in\n    tag_430:\n      pop\n        /* \"contracts/Lotto.sol\":8035:8172  function tokenWithdraw(address payable toAdress) external onlyOwner {\r... */\n      pop\n      jump\t// out\n        /* \"contracts/Lotto.sol\":7692:7827  function Stop() public onlyOwner{\r... */\n    tag_108:\n        /* \"@klaytn/contracts/contracts/access/Ownable.sol\":1259:1271  _msgSender() */\n      tag_432\n        /* \"@klaytn/contracts/contracts/access/Ownable.sol\":1259:1269  _msgSender */\n      tag_315\n        /* \"@klaytn/contracts/contracts/access/Ownable.sol\":1259:1271  _msgSender() */\n      jump\t// in\n    tag_432:\n        /* \"@klaytn/contracts/contracts/access/Ownable.sol\":1248:1271  owner() == _msgSender() */\n      0xffffffffffffffffffffffffffffffffffffffff\n      and\n        /* \"@klaytn/contracts/contracts/access/Ownable.sol\":1248:1255  owner() */\n      tag_433\n        /* \"@klaytn/contracts/contracts/access/Ownable.sol\":1248:1253  owner */\n      tag_91\n        /* \"@klaytn/contracts/contracts/access/Ownable.sol\":1248:1255  owner() */\n      jump\t// in\n    tag_433:\n        /* \"@klaytn/contracts/contracts/access/Ownable.sol\":1248:1271  owner() == _msgSender() */\n      0xffffffffffffffffffffffffffffffffffffffff\n      and\n      eq\n        /* \"@klaytn/contracts/contracts/access/Ownable.sol\":1240:1308  require(owner() == _msgSender(), \"Ownable: caller is not the owner\") */\n      tag_434\n      jumpi\n      mload(0x40)\n      0x08c379a000000000000000000000000000000000000000000000000000000000\n      dup2\n      mstore\n      0x04\n      add\n      tag_435\n      swap1\n      tag_319\n      jump\t// in\n    tag_435:\n      mload(0x40)\n      dup1\n      swap2\n      sub\n      swap1\n      revert\n    tag_434:\n        /* \"contracts/Lotto.sol\":7766:7781  RoundStatus.End */\n      0x01\n        /* \"contracts/Lotto.sol\":7731:7737  rounds */\n      0x04\n        /* \"contracts/Lotto.sol\":7754:7755  1 */\n      0x01\n        /* \"contracts/Lotto.sol\":7738:7744  rounds */\n      0x04\n        /* \"contracts/Lotto.sol\":7738:7751  rounds.length */\n      dup1\n      sload\n      swap1\n      pop\n        /* \"contracts/Lotto.sol\":7738:7755  rounds.length - 1 */\n      tag_437\n      swap2\n      swap1\n      tag_153\n      jump\t// in\n    tag_437:\n        /* \"contracts/Lotto.sol\":7731:7756  rounds[rounds.length - 1] */\n      dup2\n      sload\n      dup2\n      lt\n      tag_438\n      jumpi\n      tag_439\n      tag_134\n      jump\t// in\n    tag_439:\n    tag_438:\n      swap1\n      0x00\n      mstore\n      keccak256(0x00, 0x20)\n      swap1\n      0x0b\n      mul\n      add\n        /* \"contracts/Lotto.sol\":7731:7763  rounds[rounds.length - 1].status */\n      0x02\n      add\n      0x00\n        /* \"contracts/Lotto.sol\":7731:7781  rounds[rounds.length - 1].status = RoundStatus.End */\n      0x0100\n      exp\n      dup2\n      sload\n      dup2\n      0xff\n      mul\n      not\n      and\n      swap1\n      dup4\n      0x01\n      dup2\n      gt\n      iszero\n      tag_441\n      jumpi\n      tag_442\n      tag_139\n      jump\t// in\n    tag_442:\n    tag_441:\n      mul\n      or\n      swap1\n      sstore\n      pop\n        /* \"contracts/Lotto.sol\":7788:7801  drawNumbers() */\n      tag_443\n        /* \"contracts/Lotto.sol\":7788:7799  drawNumbers */\n      tag_444\n        /* \"contracts/Lotto.sol\":7788:7801  drawNumbers() */\n      jump\t// in\n    tag_443:\n        /* \"contracts/Lotto.sol\":7808:7821  createRound() */\n      tag_445\n        /* \"contracts/Lotto.sol\":7808:7819  createRound */\n      tag_325\n        /* \"contracts/Lotto.sol\":7808:7821  createRound() */\n      jump\t// in\n    tag_445:\n        /* \"contracts/Lotto.sol\":7692:7827  function Stop() public onlyOwner{\r... */\n      jump\t// out\n        /* \"contracts/Lotto.sol\":764:802  uint256 constant public MIN_NUMBER = 1 */\n    tag_111:\n        /* \"contracts/Lotto.sol\":801:802  1 */\n      0x01\n        /* \"contracts/Lotto.sol\":764:802  uint256 constant public MIN_NUMBER = 1 */\n      dup2\n      jump\t// out\n        /* \"contracts/Lotto.sol\":964:991  uint256 public currentBlock */\n    tag_115:\n      sload(0x07)\n      dup2\n      jump\t// out\n        /* \"@klaytn/contracts/contracts/access/Ownable.sol\":1918:2116  function transferOwnership(address newOwner) public virtual onlyOwner {... */\n    tag_121:\n        /* \"@klaytn/contracts/contracts/access/Ownable.sol\":1259:1271  _msgSender() */\n      tag_447\n        /* \"@klaytn/contracts/contracts/access/Ownable.sol\":1259:1269  _msgSender */\n      tag_315\n        /* \"@klaytn/contracts/contracts/access/Ownable.sol\":1259:1271  _msgSender() */\n      jump\t// in\n    tag_447:\n        /* \"@klaytn/contracts/contracts/access/Ownable.sol\":1248:1271  owner() == _msgSender() */\n      0xffffffffffffffffffffffffffffffffffffffff\n      and\n        /* \"@klaytn/contracts/contracts/access/Ownable.sol\":1248:1255  owner() */\n      tag_448\n        /* \"@klaytn/contracts/contracts/access/Ownable.sol\":1248:1253  owner */\n      tag_91\n        /* \"@klaytn/contracts/contracts/access/Ownable.sol\":1248:1255  owner() */\n      jump\t// in\n    tag_448:\n        /* \"@klaytn/contracts/contracts/access/Ownable.sol\":1248:1271  owner() == _msgSender() */\n      0xffffffffffffffffffffffffffffffffffffffff\n      and\n      eq\n        /* \"@klaytn/contracts/contracts/access/Ownable.sol\":1240:1308  require(owner() == _msgSender(), \"Ownable: caller is not the owner\") */\n      tag_449\n      jumpi\n      mload(0x40)\n      0x08c379a000000000000000000000000000000000000000000000000000000000\n      dup2\n      mstore\n      0x04\n      add\n      tag_450\n      swap1\n      tag_319\n      jump\t// in\n    tag_450:\n      mload(0x40)\n      dup1\n      swap2\n      sub\n      swap1\n      revert\n    tag_449:\n        /* \"@klaytn/contracts/contracts/access/Ownable.sol\":2026:2027  0 */\n      0x00\n        /* \"@klaytn/contracts/contracts/access/Ownable.sol\":2006:2028  newOwner != address(0) */\n      0xffffffffffffffffffffffffffffffffffffffff\n      and\n        /* \"@klaytn/contracts/contracts/access/Ownable.sol\":2006:2014  newOwner */\n      dup2\n        /* \"@klaytn/contracts/contracts/access/Ownable.sol\":2006:2028  newOwner != address(0) */\n      0xffffffffffffffffffffffffffffffffffffffff\n      and\n      eq\n      iszero\n        /* \"@klaytn/contracts/contracts/access/Ownable.sol\":1998:2071  require(newOwner != address(0), \"Ownable: new owner is the zero address\") */\n      tag_452\n      jumpi\n      mload(0x40)\n      0x08c379a000000000000000000000000000000000000000000000000000000000\n      dup2\n      mstore\n      0x04\n      add\n      tag_453\n      swap1\n      tag_454\n      jump\t// in\n    tag_453:\n      mload(0x40)\n      dup1\n      swap2\n      sub\n      swap1\n      revert\n    tag_452:\n        /* \"@klaytn/contracts/contracts/access/Ownable.sol\":2081:2109  _transferOwnership(newOwner) */\n      tag_455\n        /* \"@klaytn/contracts/contracts/access/Ownable.sol\":2100:2108  newOwner */\n      dup2\n        /* \"@klaytn/contracts/contracts/access/Ownable.sol\":2081:2099  _transferOwnership */\n      tag_342\n        /* \"@klaytn/contracts/contracts/access/Ownable.sol\":2081:2109  _transferOwnership(newOwner) */\n      jump\t// in\n    tag_455:\n        /* \"@klaytn/contracts/contracts/access/Ownable.sol\":1918:2116  function transferOwnership(address newOwner) public virtual onlyOwner {... */\n      pop\n      jump\t// out\n        /* \"contracts/Lotto.sol\":219:237  IKIP7 public token */\n    tag_124:\n      0x01\n      0x00\n      swap1\n      sload\n      swap1\n      0x0100\n      exp\n      swap1\n      div\n      0xffffffffffffffffffffffffffffffffffffffff\n      and\n      dup2\n      jump\t// out\n        /* \"contracts/Lotto.sol\":807:846  uint256 constant public MAX_NUMBER = 45 */\n    tag_129:\n        /* \"contracts/Lotto.sol\":844:846  45 */\n      0x2d\n        /* \"contracts/Lotto.sol\":807:846  uint256 constant public MAX_NUMBER = 45 */\n      dup2\n      jump\t// out\n        /* \"@klaytn/contracts/contracts/utils/Context.sol\":640:736  function _msgSender() internal view virtual returns (address) {... */\n    tag_315:\n        /* \"@klaytn/contracts/contracts/utils/Context.sol\":693:700  address */\n      0x00\n        /* \"@klaytn/contracts/contracts/utils/Context.sol\":719:729  msg.sender */\n      caller\n        /* \"@klaytn/contracts/contracts/utils/Context.sol\":712:729  return msg.sender */\n      swap1\n      pop\n        /* \"@klaytn/contracts/contracts/utils/Context.sol\":640:736  function _msgSender() internal view virtual returns (address) {... */\n      swap1\n      jump\t// out\n        /* \"contracts/Lotto.sol\":6179:6629  function closeRound() internal {\r... */\n    tag_323:\n        /* \"contracts/Lotto.sol\":6291:6306  RoundStatus.End */\n      0x01\n        /* \"contracts/Lotto.sol\":6255:6306  rounds[rounds.length - 1].status == RoundStatus.End */\n      dup1\n      dup2\n      gt\n      iszero\n      tag_458\n      jumpi\n      tag_459\n      tag_139\n      jump\t// in\n    tag_459:\n    tag_458:\n        /* \"contracts/Lotto.sol\":6255:6261  rounds */\n      0x04\n        /* \"contracts/Lotto.sol\":6278:6279  1 */\n      0x01\n        /* \"contracts/Lotto.sol\":6262:6268  rounds */\n      0x04\n        /* \"contracts/Lotto.sol\":6262:6275  rounds.length */\n      dup1\n      sload\n      swap1\n      pop\n        /* \"contracts/Lotto.sol\":6262:6279  rounds.length - 1 */\n      tag_460\n      swap2\n      swap1\n      tag_153\n      jump\t// in\n    tag_460:\n        /* \"contracts/Lotto.sol\":6255:6280  rounds[rounds.length - 1] */\n      dup2\n      sload\n      dup2\n      lt\n      tag_461\n      jumpi\n      tag_462\n      tag_134\n      jump\t// in\n    tag_462:\n    tag_461:\n      swap1\n      0x00\n      mstore\n      keccak256(0x00, 0x20)\n      swap1\n      0x0b\n      mul\n      add\n        /* \"contracts/Lotto.sol\":6255:6287  rounds[rounds.length - 1].status */\n      0x02\n      add\n      0x00\n      swap1\n      sload\n      swap1\n      0x0100\n      exp\n      swap1\n      div\n      0xff\n      and\n        /* \"contracts/Lotto.sol\":6255:6306  rounds[rounds.length - 1].status == RoundStatus.End */\n      0x01\n      dup2\n      gt\n      iszero\n      tag_464\n      jumpi\n      tag_465\n      tag_139\n      jump\t// in\n    tag_465:\n    tag_464:\n      eq\n        /* \"contracts/Lotto.sol\":6252:6344  if(rounds[rounds.length - 1].status == RoundStatus.End)\r... */\n      iszero\n      tag_466\n      jumpi\n        /* \"contracts/Lotto.sol\":6315:6344  revert(\"Round already ended\") */\n      mload(0x40)\n      0x08c379a000000000000000000000000000000000000000000000000000000000\n      dup2\n      mstore\n      0x04\n      add\n      tag_467\n      swap1\n      tag_468\n      jump\t// in\n    tag_467:\n      mload(0x40)\n      dup1\n      swap2\n      sub\n      swap1\n      revert\n        /* \"contracts/Lotto.sol\":6252:6344  if(rounds[rounds.length - 1].status == RoundStatus.End)\r... */\n    tag_466:\n        /* \"contracts/Lotto.sol\":6416:6422  rounds */\n      0x04\n        /* \"contracts/Lotto.sol\":6439:6440  1 */\n      0x01\n        /* \"contracts/Lotto.sol\":6423:6429  rounds */\n      0x04\n        /* \"contracts/Lotto.sol\":6423:6436  rounds.length */\n      dup1\n      sload\n      swap1\n      pop\n        /* \"contracts/Lotto.sol\":6423:6440  rounds.length - 1 */\n      tag_469\n      swap2\n      swap1\n      tag_153\n      jump\t// in\n    tag_469:\n        /* \"contracts/Lotto.sol\":6416:6441  rounds[rounds.length - 1] */\n      dup2\n      sload\n      dup2\n      lt\n      tag_470\n      jumpi\n      tag_471\n      tag_134\n      jump\t// in\n    tag_471:\n    tag_470:\n      swap1\n      0x00\n      mstore\n      keccak256(0x00, 0x20)\n      swap1\n      0x0b\n      mul\n      add\n        /* \"contracts/Lotto.sol\":6416:6449  rounds[rounds.length - 1].endTime */\n      0x01\n      add\n      sload\n        /* \"contracts/Lotto.sol\":6398:6413  block.timestamp */\n      timestamp\n        /* \"contracts/Lotto.sol\":6398:6449  block.timestamp < rounds[rounds.length - 1].endTime */\n      lt\n        /* \"contracts/Lotto.sol\":6395:6489  if(block.timestamp < rounds[rounds.length - 1].endTime)\r... */\n      iszero\n      tag_473\n      jumpi\n        /* \"contracts/Lotto.sol\":6458:6489  revert(\"The round not endtime\") */\n      mload(0x40)\n      0x08c379a000000000000000000000000000000000000000000000000000000000\n      dup2\n      mstore\n      0x04\n      add\n      tag_474\n      swap1\n      tag_475\n      jump\t// in\n    tag_474:\n      mload(0x40)\n      dup1\n      swap2\n      sub\n      swap1\n      revert\n        /* \"contracts/Lotto.sol\":6395:6489  if(block.timestamp < rounds[rounds.length - 1].endTime)\r... */\n    tag_473:\n        /* \"contracts/Lotto.sol\":6533:6548  RoundStatus.End */\n      0x01\n        /* \"contracts/Lotto.sol\":6498:6504  rounds */\n      0x04\n        /* \"contracts/Lotto.sol\":6521:6522  1 */\n      0x01\n        /* \"contracts/Lotto.sol\":6505:6511  rounds */\n      0x04\n        /* \"contracts/Lotto.sol\":6505:6518  rounds.length */\n      dup1\n      sload\n      swap1\n      pop\n        /* \"contracts/Lotto.sol\":6505:6522  rounds.length - 1 */\n      tag_476\n      swap2\n      swap1\n      tag_153\n      jump\t// in\n    tag_476:\n        /* \"contracts/Lotto.sol\":6498:6523  rounds[rounds.length - 1] */\n      dup2\n      sload\n      dup2\n      lt\n      tag_477\n      jumpi\n      tag_478\n      tag_134\n      jump\t// in\n    tag_478:\n    tag_477:\n      swap1\n      0x00\n      mstore\n      keccak256(0x00, 0x20)\n      swap1\n      0x0b\n      mul\n      add\n        /* \"contracts/Lotto.sol\":6498:6530  rounds[rounds.length - 1].status */\n      0x02\n      add\n      0x00\n        /* \"contracts/Lotto.sol\":6498:6548  rounds[rounds.length - 1].status = RoundStatus.End */\n      0x0100\n      exp\n      dup2\n      sload\n      dup2\n      0xff\n      mul\n      not\n      and\n      swap1\n      dup4\n      0x01\n      dup2\n      gt\n      iszero\n      tag_480\n      jumpi\n      tag_481\n      tag_139\n      jump\t// in\n    tag_481:\n    tag_480:\n      mul\n      or\n      swap1\n      sstore\n      pop\n        /* \"contracts/Lotto.sol\":6592:6605  drawNumbers() */\n      tag_482\n        /* \"contracts/Lotto.sol\":6592:6603  drawNumbers */\n      tag_444\n        /* \"contracts/Lotto.sol\":6592:6605  drawNumbers() */\n      jump\t// in\n    tag_482:\n        /* \"contracts/Lotto.sol\":6179:6629  function closeRound() internal {\r... */\n      jump\t// out\n        /* \"contracts/Lotto.sol\":1533:1920  function createRound() internal {\r... */\n    tag_325:\n        /* \"contracts/Lotto.sol\":1591:1592  0 */\n      0x00\n        /* \"contracts/Lotto.sol\":1575:1581  rounds */\n      0x04\n        /* \"contracts/Lotto.sol\":1575:1588  rounds.length */\n      dup1\n      sload\n      swap1\n      pop\n        /* \"contracts/Lotto.sol\":1575:1592  rounds.length > 0 */\n      gt\n        /* \"contracts/Lotto.sol\":1575:1647  rounds.length > 0 && rounds[rounds.length - 1].status != RoundStatus.End */\n      dup1\n      iszero\n      tag_484\n      jumpi\n      pop\n        /* \"contracts/Lotto.sol\":1632:1647  RoundStatus.End */\n      0x01\n        /* \"contracts/Lotto.sol\":1596:1647  rounds[rounds.length - 1].status != RoundStatus.End */\n      dup1\n      dup2\n      gt\n      iszero\n      tag_485\n      jumpi\n      tag_486\n      tag_139\n      jump\t// in\n    tag_486:\n    tag_485:\n        /* \"contracts/Lotto.sol\":1596:1602  rounds */\n      0x04\n        /* \"contracts/Lotto.sol\":1619:1620  1 */\n      0x01\n        /* \"contracts/Lotto.sol\":1603:1609  rounds */\n      0x04\n        /* \"contracts/Lotto.sol\":1603:1616  rounds.length */\n      dup1\n      sload\n      swap1\n      pop\n        /* \"contracts/Lotto.sol\":1603:1620  rounds.length - 1 */\n      tag_487\n      swap2\n      swap1\n      tag_153\n      jump\t// in\n    tag_487:\n        /* \"contracts/Lotto.sol\":1596:1621  rounds[rounds.length - 1] */\n      dup2\n      sload\n      dup2\n      lt\n      tag_488\n      jumpi\n      tag_489\n      tag_134\n      jump\t// in\n    tag_489:\n    tag_488:\n      swap1\n      0x00\n      mstore\n      keccak256(0x00, 0x20)\n      swap1\n      0x0b\n      mul\n      add\n        /* \"contracts/Lotto.sol\":1596:1628  rounds[rounds.length - 1].status */\n      0x02\n      add\n      0x00\n      swap1\n      sload\n      swap1\n      0x0100\n      exp\n      swap1\n      div\n      0xff\n      and\n        /* \"contracts/Lotto.sol\":1596:1647  rounds[rounds.length - 1].status != RoundStatus.End */\n      0x01\n      dup2\n      gt\n      iszero\n      tag_491\n      jumpi\n      tag_492\n      tag_139\n      jump\t// in\n    tag_492:\n    tag_491:\n      eq\n      iszero\n        /* \"contracts/Lotto.sol\":1575:1647  rounds.length > 0 && rounds[rounds.length - 1].status != RoundStatus.End */\n    tag_484:\n        /* \"contracts/Lotto.sol\":1572:1693  if(rounds.length > 0 && rounds[rounds.length - 1].status != RoundStatus.End) {\r... */\n      iszero\n      tag_493\n      jumpi\n        /* \"contracts/Lotto.sol\":1658:1685  revert(\"Round in progress\") */\n      mload(0x40)\n      0x08c379a000000000000000000000000000000000000000000000000000000000\n      dup2\n      mstore\n      0x04\n      add\n      tag_494\n      swap1\n      tag_495\n      jump\t// in\n    tag_494:\n      mload(0x40)\n      dup1\n      swap2\n      sub\n      swap1\n      revert\n        /* \"contracts/Lotto.sol\":1572:1693  if(rounds.length > 0 && rounds[rounds.length - 1].status != RoundStatus.End) {\r... */\n    tag_493:\n        /* \"contracts/Lotto.sol\":1701:1725  uint256[7] memory winNum */\n      tag_496\n      tag_346\n      jump\t// in\n    tag_496:\n        /* \"contracts/Lotto.sol\":1738:1756  Round memory round */\n      0x00\n        /* \"contracts/Lotto.sol\":1759:1887  Round(\r... */\n      mload(0x40)\n      dup1\n      0xa0\n      add\n      0x40\n      mstore\n      dup1\n        /* \"contracts/Lotto.sol\":1773:1788  block.timestamp */\n      timestamp\n        /* \"contracts/Lotto.sol\":1759:1887  Round(\r... */\n      dup2\n      mstore\n      0x20\n      add\n        /* \"contracts/Lotto.sol\":1815:1829  round_interval */\n      sload(0x06)\n        /* \"contracts/Lotto.sol\":1797:1812  block.timestamp */\n      timestamp\n        /* \"contracts/Lotto.sol\":1797:1829  block.timestamp + round_interval */\n      tag_497\n      swap2\n      swap1\n      tag_277\n      jump\t// in\n    tag_497:\n        /* \"contracts/Lotto.sol\":1759:1887  Round(\r... */\n      dup2\n      mstore\n      0x20\n      add\n        /* \"contracts/Lotto.sol\":1838:1855  RoundStatus.Start */\n      0x00\n        /* \"contracts/Lotto.sol\":1759:1887  Round(\r... */\n      0x01\n      dup2\n      gt\n      iszero\n      tag_498\n      jumpi\n      tag_499\n      tag_139\n      jump\t// in\n    tag_499:\n    tag_498:\n      dup2\n      mstore\n      0x20\n      add\n        /* \"contracts/Lotto.sol\":1864:1870  winNum */\n      dup4\n        /* \"contracts/Lotto.sol\":1759:1887  Round(\r... */\n      dup2\n      mstore\n      0x20\n      add\n        /* \"contracts/Lotto.sol\":1879:1880  0 */\n      0x00\n        /* \"contracts/Lotto.sol\":1759:1887  Round(\r... */\n      dup2\n      mstore\n      pop\n        /* \"contracts/Lotto.sol\":1738:1887  Round memory round = Round(\r... */\n      swap1\n      pop\n        /* \"contracts/Lotto.sol\":1896:1902  rounds */\n      0x04\n        /* \"contracts/Lotto.sol\":1908:1913  round */\n      dup2\n        /* \"contracts/Lotto.sol\":1896:1914  rounds.push(round) */\n      swap1\n      dup1\n      0x01\n      dup2\n      sload\n      add\n      dup1\n      dup3\n      sstore\n      dup1\n      swap2\n      pop\n      pop\n      0x01\n      swap1\n      sub\n      swap1\n      0x00\n      mstore\n      keccak256(0x00, 0x20)\n      swap1\n      0x0b\n      mul\n      add\n      0x00\n      swap1\n      swap2\n      swap1\n      swap2\n      swap1\n      swap2\n      pop\n      0x00\n      dup3\n      add\n      mload\n      dup2\n      0x00\n      add\n      sstore\n      0x20\n      dup3\n      add\n      mload\n      dup2\n      0x01\n      add\n      sstore\n      0x40\n      dup3\n      add\n      mload\n      dup2\n      0x02\n      add\n      exp(0x0100, 0x00)\n      dup2\n      sload\n      dup2\n      0xff\n      mul\n      not\n      and\n      swap1\n      dup4\n      0x01\n      dup2\n      gt\n      iszero\n      tag_501\n      jumpi\n      tag_502\n      tag_139\n      jump\t// in\n    tag_502:\n    tag_501:\n      mul\n      or\n      swap1\n      sstore\n      pop\n      0x60\n      dup3\n      add\n      mload\n      dup2\n      0x03\n      add\n      swap1\n      0x07\n      tag_503\n      swap3\n      swap2\n      swap1\n      tag_504\n      jump\t// in\n    tag_503:\n      pop\n      0x80\n      dup3\n      add\n      mload\n      dup2\n      0x0a\n      add\n      sstore\n      pop\n      pop\n        /* \"contracts/Lotto.sol\":1565:1920  {\r... */\n      pop\n      pop\n        /* \"contracts/Lotto.sol\":1533:1920  function createRound() internal {\r... */\n      jump\t// out\n        /* \"@klaytn/contracts/contracts/access/Ownable.sol\":2270:2457  function _transferOwnership(address newOwner) internal virtual {... */\n    tag_342:\n        /* \"@klaytn/contracts/contracts/access/Ownable.sol\":2343:2359  address oldOwner */\n      0x00\n        /* \"@klaytn/contracts/contracts/access/Ownable.sol\":2362:2368  _owner */\n      dup1\n      0x00\n      swap1\n      sload\n      swap1\n      0x0100\n      exp\n      swap1\n      div\n      0xffffffffffffffffffffffffffffffffffffffff\n      and\n        /* \"@klaytn/contracts/contracts/access/Ownable.sol\":2343:2368  address oldOwner = _owner */\n      swap1\n      pop\n        /* \"@klaytn/contracts/contracts/access/Ownable.sol\":2387:2395  newOwner */\n      dup2\n        /* \"@klaytn/contracts/contracts/access/Ownable.sol\":2378:2384  _owner */\n      0x00\n      dup1\n        /* \"@klaytn/contracts/contracts/access/Ownable.sol\":2378:2395  _owner = newOwner */\n      0x0100\n      exp\n      dup2\n      sload\n      dup2\n      0xffffffffffffffffffffffffffffffffffffffff\n      mul\n      not\n      and\n      swap1\n      dup4\n      0xffffffffffffffffffffffffffffffffffffffff\n      and\n      mul\n      or\n      swap1\n      sstore\n      pop\n        /* \"@klaytn/contracts/contracts/access/Ownable.sol\":2441:2449  newOwner */\n      dup2\n        /* \"@klaytn/contracts/contracts/access/Ownable.sol\":2410:2450  OwnershipTransferred(oldOwner, newOwner) */\n      0xffffffffffffffffffffffffffffffffffffffff\n      and\n        /* \"@klaytn/contracts/contracts/access/Ownable.sol\":2431:2439  oldOwner */\n      dup2\n        /* \"@klaytn/contracts/contracts/access/Ownable.sol\":2410:2450  OwnershipTransferred(oldOwner, newOwner) */\n      0xffffffffffffffffffffffffffffffffffffffff\n      and\n      0x8be0079c531659141344cd1fd0a4f28419497f9722a3daafe3b4186f6b6457e0\n      mload(0x40)\n      mload(0x40)\n      dup1\n      swap2\n      sub\n      swap1\n      log3\n        /* \"@klaytn/contracts/contracts/access/Ownable.sol\":2333:2457  {... */\n      pop\n        /* \"@klaytn/contracts/contracts/access/Ownable.sol\":2270:2457  function _transferOwnership(address newOwner) internal virtual {... */\n      pop\n      jump\t// out\n        /* \"contracts/Lotto.sol\":3602:4748  function drawNumbers() internal {\r... */\n    tag_444:\n        /* \"contracts/Lotto.sol\":3641:3658  uint256 drawBlock */\n      0x00\n        /* \"contracts/Lotto.sol\":3661:3667  rounds */\n      0x04\n        /* \"contracts/Lotto.sol\":3684:3685  1 */\n      0x01\n        /* \"contracts/Lotto.sol\":3668:3674  rounds */\n      0x04\n        /* \"contracts/Lotto.sol\":3668:3681  rounds.length */\n      dup1\n      sload\n      swap1\n      pop\n        /* \"contracts/Lotto.sol\":3668:3685  rounds.length - 1 */\n      tag_507\n      swap2\n      swap1\n      tag_153\n      jump\t// in\n    tag_507:\n        /* \"contracts/Lotto.sol\":3661:3686  rounds[rounds.length - 1] */\n      dup2\n      sload\n      dup2\n      lt\n      tag_508\n      jumpi\n      tag_509\n      tag_134\n      jump\t// in\n    tag_509:\n    tag_508:\n      swap1\n      0x00\n      mstore\n      keccak256(0x00, 0x20)\n      swap1\n      0x0b\n      mul\n      add\n        /* \"contracts/Lotto.sol\":3661:3694  rounds[rounds.length - 1].endTime */\n      0x01\n      add\n      sload\n        /* \"contracts/Lotto.sol\":3641:3694  uint256 drawBlock = rounds[rounds.length - 1].endTime */\n      swap1\n      pop\n        /* \"contracts/Lotto.sol\":3729:3735  rounds */\n      0x04\n        /* \"contracts/Lotto.sol\":3752:3753  1 */\n      0x01\n        /* \"contracts/Lotto.sol\":3736:3742  rounds */\n      0x04\n        /* \"contracts/Lotto.sol\":3736:3749  rounds.length */\n      dup1\n      sload\n      swap1\n      pop\n        /* \"contracts/Lotto.sol\":3736:3753  rounds.length - 1 */\n      tag_511\n      swap2\n      swap1\n      tag_153\n      jump\t// in\n    tag_511:\n        /* \"contracts/Lotto.sol\":3729:3754  rounds[rounds.length - 1] */\n      dup2\n      sload\n      dup2\n      lt\n      tag_512\n      jumpi\n      tag_513\n      tag_134\n      jump\t// in\n    tag_513:\n    tag_512:\n      swap1\n      0x00\n      mstore\n      keccak256(0x00, 0x20)\n      swap1\n      0x0b\n      mul\n      add\n        /* \"contracts/Lotto.sol\":3729:3762  rounds[rounds.length - 1].endTime */\n      0x01\n      add\n      sload\n        /* \"contracts/Lotto.sol\":3711:3726  block.timestamp */\n      timestamp\n        /* \"contracts/Lotto.sol\":3711:3762  block.timestamp > rounds[rounds.length - 1].endTime */\n      gt\n        /* \"contracts/Lotto.sol\":3703:3763  require(block.timestamp > rounds[rounds.length - 1].endTime) */\n      tag_515\n      jumpi\n      0x00\n      dup1\n      revert\n    tag_515:\n        /* \"contracts/Lotto.sol\":3821:3822  0 */\n      0x00\n        /* \"contracts/Lotto.sol\":3778:3784  rounds */\n      0x04\n        /* \"contracts/Lotto.sol\":3801:3802  1 */\n      0x01\n        /* \"contracts/Lotto.sol\":3785:3791  rounds */\n      0x04\n        /* \"contracts/Lotto.sol\":3785:3798  rounds.length */\n      dup1\n      sload\n      swap1\n      pop\n        /* \"contracts/Lotto.sol\":3785:3802  rounds.length - 1 */\n      tag_516\n      swap2\n      swap1\n      tag_153\n      jump\t// in\n    tag_516:\n        /* \"contracts/Lotto.sol\":3778:3803  rounds[rounds.length - 1] */\n      dup2\n      sload\n      dup2\n      lt\n      tag_517\n      jumpi\n      tag_518\n      tag_134\n      jump\t// in\n    tag_518:\n    tag_517:\n      swap1\n      0x00\n      mstore\n      keccak256(0x00, 0x20)\n      swap1\n      0x0b\n      mul\n      add\n        /* \"contracts/Lotto.sol\":3778:3814  rounds[rounds.length - 1].winNumbers */\n      0x03\n      add\n        /* \"contracts/Lotto.sol\":3815:3816  0 */\n      0x00\n        /* \"contracts/Lotto.sol\":3778:3817  rounds[rounds.length - 1].winNumbers[0] */\n      0x07\n      dup2\n      lt\n      tag_520\n      jumpi\n      tag_521\n      tag_134\n      jump\t// in\n    tag_521:\n    tag_520:\n      add\n      sload\n        /* \"contracts/Lotto.sol\":3778:3822  rounds[rounds.length - 1].winNumbers[0] == 0 */\n      eq\n        /* \"contracts/Lotto.sol\":3770:3823  require(rounds[rounds.length - 1].winNumbers[0] == 0) */\n      tag_523\n      jumpi\n      0x00\n      dup1\n      revert\n    tag_523:\n        /* \"contracts/Lotto.sol\":3832:3841  uint256 i */\n      0x00\n        /* \"contracts/Lotto.sol\":3852:3864  uint256 seed */\n      dup1\n        /* \"contracts/Lotto.sol\":3877:4468  while(i < 7) {\r... */\n    tag_524:\n        /* \"contracts/Lotto.sol\":3887:3888  7 */\n      0x07\n        /* \"contracts/Lotto.sol\":3883:3884  i */\n      dup3\n        /* \"contracts/Lotto.sol\":3883:3888  i < 7 */\n      lt\n        /* \"contracts/Lotto.sol\":3877:4468  while(i < 7) {\r... */\n      iszero\n      tag_525\n      jumpi\n        /* \"contracts/Lotto.sol\":3899:3913  bytes32 source */\n      0x00\n        /* \"contracts/Lotto.sol\":3926:3935  drawBlock */\n      dup4\n        /* \"contracts/Lotto.sol\":3916:3936  blockhash(drawBlock) */\n      blockhash\n        /* \"contracts/Lotto.sol\":3899:3936  bytes32 source = blockhash(drawBlock) */\n      swap1\n      pop\n        /* \"contracts/Lotto.sol\":3947:3973  bytes memory encodedSource */\n      0x00\n        /* \"contracts/Lotto.sol\":3987:3993  source */\n      dup2\n        /* \"contracts/Lotto.sol\":3994:3998  seed */\n      dup4\n        /* \"contracts/Lotto.sol\":3976:3999  abi.encode(source,seed) */\n      add(0x20, mload(0x40))\n      tag_526\n      swap3\n      swap2\n      swap1\n      tag_527\n      jump\t// in\n    tag_526:\n      mload(0x40)\n      0x20\n      dup2\n      dup4\n      sub\n      sub\n      dup2\n      mstore\n      swap1\n      0x40\n      mstore\n        /* \"contracts/Lotto.sol\":3947:3999  bytes memory encodedSource = abi.encode(source,seed) */\n      swap1\n      pop\n        /* \"contracts/Lotto.sol\":4008:4021  bytes32 _rand */\n      0x00\n        /* \"contracts/Lotto.sol\":4034:4047  encodedSource */\n      dup2\n        /* \"contracts/Lotto.sol\":4024:4048  keccak256(encodedSource) */\n      dup1\n      mload\n      swap1\n      0x20\n      add\n      keccak256\n        /* \"contracts/Lotto.sol\":4008:4048  bytes32 _rand = keccak256(encodedSource) */\n      swap1\n      pop\n        /* \"contracts/Lotto.sol\":4057:4075  uint256 numberDraw */\n      0x00\n        /* \"contracts/Lotto.sol\":4110:4111  1 */\n      0x01\n        /* \"contracts/Lotto.sol\":844:846  45 */\n      0x2d\n        /* \"contracts/Lotto.sol\":4087:4092  _rand */\n      dup4\n        /* \"contracts/Lotto.sol\":4079:4093  uint256(_rand) */\n      0x00\n      shr\n        /* \"contracts/Lotto.sol\":4079:4106  uint256(_rand) % MAX_NUMBER */\n      tag_528\n      swap2\n      swap1\n      tag_529\n      jump\t// in\n    tag_528:\n        /* \"contracts/Lotto.sol\":4078:4111  (uint256(_rand) % MAX_NUMBER) + 1 */\n      tag_530\n      swap2\n      swap1\n      tag_277\n      jump\t// in\n    tag_530:\n        /* \"contracts/Lotto.sol\":4057:4111  uint256 numberDraw = (uint256(_rand) % MAX_NUMBER) + 1 */\n      swap1\n      pop\n        /* \"contracts/Lotto.sol\":4122:4136  bool duplicate */\n      0x00\n        /* \"contracts/Lotto.sol\":4157:4166  uint256 j */\n      dup1\n        /* \"contracts/Lotto.sol\":4153:4340  for(uint256 j = 0; j < i; j++) {\r... */\n    tag_531:\n        /* \"contracts/Lotto.sol\":4176:4177  i */\n      dup8\n        /* \"contracts/Lotto.sol\":4172:4173  j */\n      dup2\n        /* \"contracts/Lotto.sol\":4172:4177  j < i */\n      lt\n        /* \"contracts/Lotto.sol\":4153:4340  for(uint256 j = 0; j < i; j++) {\r... */\n      iszero\n      tag_532\n      jumpi\n        /* \"contracts/Lotto.sol\":4212:4218  rounds */\n      0x04\n        /* \"contracts/Lotto.sol\":4235:4236  1 */\n      0x01\n        /* \"contracts/Lotto.sol\":4219:4225  rounds */\n      0x04\n        /* \"contracts/Lotto.sol\":4219:4232  rounds.length */\n      dup1\n      sload\n      swap1\n      pop\n        /* \"contracts/Lotto.sol\":4219:4236  rounds.length - 1 */\n      tag_534\n      swap2\n      swap1\n      tag_153\n      jump\t// in\n    tag_534:\n        /* \"contracts/Lotto.sol\":4212:4237  rounds[rounds.length - 1] */\n      dup2\n      sload\n      dup2\n      lt\n      tag_535\n      jumpi\n      tag_536\n      tag_134\n      jump\t// in\n    tag_536:\n    tag_535:\n      swap1\n      0x00\n      mstore\n      keccak256(0x00, 0x20)\n      swap1\n      0x0b\n      mul\n      add\n        /* \"contracts/Lotto.sol\":4212:4248  rounds[rounds.length - 1].winNumbers */\n      0x03\n      add\n        /* \"contracts/Lotto.sol\":4249:4250  j */\n      dup2\n        /* \"contracts/Lotto.sol\":4212:4251  rounds[rounds.length - 1].winNumbers[j] */\n      0x07\n      dup2\n      lt\n      tag_538\n      jumpi\n      tag_539\n      tag_134\n      jump\t// in\n    tag_539:\n    tag_538:\n      add\n      sload\n        /* \"contracts/Lotto.sol\":4198:4208  numberDraw */\n      dup4\n        /* \"contracts/Lotto.sol\":4198:4251  numberDraw == rounds[rounds.length - 1].winNumbers[j] */\n      eq\n        /* \"contracts/Lotto.sol\":4195:4331  if(numberDraw == rounds[rounds.length - 1].winNumbers[j]) {\r... */\n      iszero\n      tag_541\n      jumpi\n        /* \"contracts/Lotto.sol\":4278:4282  true */\n      0x01\n        /* \"contracts/Lotto.sol\":4266:4282  duplicate = true */\n      swap2\n      pop\n        /* \"contracts/Lotto.sol\":4295:4301  seed++ */\n      dup7\n      dup1\n      tag_542\n      swap1\n      tag_172\n      jump\t// in\n    tag_542:\n      swap8\n      pop\n      pop\n        /* \"contracts/Lotto.sol\":4314:4319  break */\n      jump(tag_532)\n        /* \"contracts/Lotto.sol\":4195:4331  if(numberDraw == rounds[rounds.length - 1].winNumbers[j]) {\r... */\n    tag_541:\n        /* \"contracts/Lotto.sol\":4179:4182  j++ */\n      dup1\n      dup1\n      tag_543\n      swap1\n      tag_172\n      jump\t// in\n    tag_543:\n      swap2\n      pop\n      pop\n        /* \"contracts/Lotto.sol\":4153:4340  for(uint256 j = 0; j < i; j++) {\r... */\n      jump(tag_531)\n    tag_532:\n      pop\n        /* \"contracts/Lotto.sol\":4351:4360  duplicate */\n      dup1\n        /* \"contracts/Lotto.sol\":4348:4370  if(duplicate) continue */\n      iszero\n      tag_544\n      jumpi\n        /* \"contracts/Lotto.sol\":4362:4370  continue */\n      pop\n      pop\n      pop\n      pop\n      pop\n      jump(tag_524)\n        /* \"contracts/Lotto.sol\":4348:4370  if(duplicate) continue */\n    tag_544:\n        /* \"contracts/Lotto.sol\":4423:4433  numberDraw */\n      dup2\n        /* \"contracts/Lotto.sol\":4381:4387  rounds */\n      0x04\n        /* \"contracts/Lotto.sol\":4404:4405  1 */\n      0x01\n        /* \"contracts/Lotto.sol\":4388:4394  rounds */\n      0x04\n        /* \"contracts/Lotto.sol\":4388:4401  rounds.length */\n      dup1\n      sload\n      swap1\n      pop\n        /* \"contracts/Lotto.sol\":4388:4405  rounds.length - 1 */\n      tag_545\n      swap2\n      swap1\n      tag_153\n      jump\t// in\n    tag_545:\n        /* \"contracts/Lotto.sol\":4381:4406  rounds[rounds.length - 1] */\n      dup2\n      sload\n      dup2\n      lt\n      tag_546\n      jumpi\n      tag_547\n      tag_134\n      jump\t// in\n    tag_547:\n    tag_546:\n      swap1\n      0x00\n      mstore\n      keccak256(0x00, 0x20)\n      swap1\n      0x0b\n      mul\n      add\n        /* \"contracts/Lotto.sol\":4381:4417  rounds[rounds.length - 1].winNumbers */\n      0x03\n      add\n        /* \"contracts/Lotto.sol\":4418:4419  i */\n      dup9\n        /* \"contracts/Lotto.sol\":4381:4420  rounds[rounds.length - 1].winNumbers[i] */\n      0x07\n      dup2\n      lt\n      tag_549\n      jumpi\n      tag_550\n      tag_134\n      jump\t// in\n    tag_550:\n    tag_549:\n      add\n        /* \"contracts/Lotto.sol\":4381:4433  rounds[rounds.length - 1].winNumbers[i] = numberDraw */\n      dup2\n      swap1\n      sstore\n      pop\n        /* \"contracts/Lotto.sol\":4442:4445  i++ */\n      dup7\n      dup1\n      tag_552\n      swap1\n      tag_172\n      jump\t// in\n    tag_552:\n      swap8\n      pop\n      pop\n        /* \"contracts/Lotto.sol\":4454:4460  seed++ */\n      dup6\n      dup1\n      tag_553\n      swap1\n      tag_172\n      jump\t// in\n    tag_553:\n      swap7\n      pop\n      pop\n        /* \"contracts/Lotto.sol\":3890:4468  {\r... */\n      pop\n      pop\n      pop\n      pop\n      pop\n        /* \"contracts/Lotto.sol\":3877:4468  while(i < 7) {\r... */\n      jump(tag_524)\n    tag_525:\n        /* \"contracts/Lotto.sol\":4474:4488  bytes32 source */\n      0x00\n        /* \"contracts/Lotto.sol\":4502:4511  drawBlock */\n      dup4\n        /* \"contracts/Lotto.sol\":4491:4513  blockhash((drawBlock)) */\n      blockhash\n        /* \"contracts/Lotto.sol\":4474:4513  bytes32 source = blockhash((drawBlock)) */\n      swap1\n      pop\n        /* \"contracts/Lotto.sol\":4520:4546  bytes memory encodedSource */\n      0x00\n        /* \"contracts/Lotto.sol\":4560:4566  source */\n      dup2\n        /* \"contracts/Lotto.sol\":4568:4572  seed */\n      dup4\n        /* \"contracts/Lotto.sol\":4549:4573  abi.encode(source, seed) */\n      add(0x20, mload(0x40))\n      tag_554\n      swap3\n      swap2\n      swap1\n      tag_527\n      jump\t// in\n    tag_554:\n      mload(0x40)\n      0x20\n      dup2\n      dup4\n      sub\n      sub\n      dup2\n      mstore\n      swap1\n      0x40\n      mstore\n        /* \"contracts/Lotto.sol\":4520:4573  bytes memory encodedSource = abi.encode(source, seed) */\n      swap1\n      pop\n        /* \"contracts/Lotto.sol\":4580:4593  bytes32 _rand */\n      0x00\n        /* \"contracts/Lotto.sol\":4606:4619  encodedSource */\n      dup2\n        /* \"contracts/Lotto.sol\":4596:4620  keccak256(encodedSource) */\n      dup1\n      mload\n      swap1\n      0x20\n      add\n      keccak256\n        /* \"contracts/Lotto.sol\":4580:4620  bytes32 _rand = keccak256(encodedSource) */\n      swap1\n      pop\n        /* \"contracts/Lotto.sol\":4627:4646  uint256 bonusNumber */\n      0x00\n        /* \"contracts/Lotto.sol\":4681:4682  1 */\n      0x01\n        /* \"contracts/Lotto.sol\":844:846  45 */\n      0x2d\n        /* \"contracts/Lotto.sol\":4658:4663  _rand */\n      dup4\n        /* \"contracts/Lotto.sol\":4650:4664  uint256(_rand) */\n      0x00\n      shr\n        /* \"contracts/Lotto.sol\":4650:4677  uint256(_rand) % MAX_NUMBER */\n      tag_555\n      swap2\n      swap1\n      tag_529\n      jump\t// in\n    tag_555:\n        /* \"contracts/Lotto.sol\":4649:4682  (uint256(_rand) % MAX_NUMBER) + 1 */\n      tag_556\n      swap2\n      swap1\n      tag_277\n      jump\t// in\n    tag_556:\n        /* \"contracts/Lotto.sol\":4627:4682  uint256 bonusNumber = (uint256(_rand) % MAX_NUMBER) + 1 */\n      swap1\n      pop\n        /* \"contracts/Lotto.sol\":4731:4742  bonusNumber */\n      dup1\n        /* \"contracts/Lotto.sol\":4689:4695  rounds */\n      0x04\n        /* \"contracts/Lotto.sol\":4712:4713  1 */\n      0x01\n        /* \"contracts/Lotto.sol\":4696:4702  rounds */\n      0x04\n        /* \"contracts/Lotto.sol\":4696:4709  rounds.length */\n      dup1\n      sload\n      swap1\n      pop\n        /* \"contracts/Lotto.sol\":4696:4713  rounds.length - 1 */\n      tag_557\n      swap2\n      swap1\n      tag_153\n      jump\t// in\n    tag_557:\n        /* \"contracts/Lotto.sol\":4689:4714  rounds[rounds.length - 1] */\n      dup2\n      sload\n      dup2\n      lt\n      tag_558\n      jumpi\n      tag_559\n      tag_134\n      jump\t// in\n    tag_559:\n    tag_558:\n      swap1\n      0x00\n      mstore\n      keccak256(0x00, 0x20)\n      swap1\n      0x0b\n      mul\n      add\n        /* \"contracts/Lotto.sol\":4689:4725  rounds[rounds.length - 1].winNumbers */\n      0x03\n      add\n        /* \"contracts/Lotto.sol\":4726:4727  6 */\n      0x06\n        /* \"contracts/Lotto.sol\":4689:4728  rounds[rounds.length - 1].winNumbers[6] */\n      0x07\n      dup2\n      lt\n      tag_561\n      jumpi\n      tag_562\n      tag_134\n      jump\t// in\n    tag_562:\n    tag_561:\n      add\n        /* \"contracts/Lotto.sol\":4689:4742  rounds[rounds.length - 1].winNumbers[6] = bonusNumber */\n      dup2\n      swap1\n      sstore\n      pop\n        /* \"contracts/Lotto.sol\":3634:4748  {\r... */\n      pop\n      pop\n      pop\n      pop\n      pop\n      pop\n      pop\n        /* \"contracts/Lotto.sol\":3602:4748  function drawNumbers() internal {\r... */\n      jump\t// out\n    tag_197:\n      pop\n      dup1\n      0x06\n      add\n      swap1\n      tag_564\n      swap2\n      swap1\n      tag_565\n      jump\t// in\n    tag_564:\n      pop\n      jump\t// out\n    tag_220:\n      mload(0x40)\n      dup1\n      0xc0\n      add\n      0x40\n      mstore\n      dup1\n      0x06\n      swap1\n      0x20\n      dup3\n      mul\n      dup1\n      calldatasize\n      dup4\n      calldatacopy\n      dup1\n      dup3\n      add\n      swap2\n      pop\n      pop\n      swap1\n      pop\n      pop\n      swap1\n      jump\t// out\n    tag_307:\n      dup3\n      0x06\n      dup2\n      add\n      swap3\n      dup3\n      iszero\n      tag_566\n      jumpi\n      swap2\n      0x20\n      mul\n      dup3\n      add\n    tag_567:\n      dup3\n      dup2\n      gt\n      iszero\n      tag_568\n      jumpi\n      dup3\n      mload\n      dup3\n      sstore\n      swap2\n      0x20\n      add\n      swap2\n      swap1\n      0x01\n      add\n      swap1\n      jump(tag_567)\n    tag_568:\n    tag_566:\n      pop\n      swap1\n      pop\n      tag_569\n      swap2\n      swap1\n      tag_565\n      jump\t// in\n    tag_569:\n      pop\n      swap1\n      jump\t// out\n    tag_346:\n      mload(0x40)\n      dup1\n      0xe0\n      add\n      0x40\n      mstore\n      dup1\n      0x07\n      swap1\n      0x20\n      dup3\n      mul\n      dup1\n      calldatasize\n      dup4\n      calldatacopy\n      dup1\n      dup3\n      add\n      swap2\n      pop\n      pop\n      swap1\n      pop\n      pop\n      swap1\n      jump\t// out\n    tag_504:\n      dup3\n      0x07\n      dup2\n      add\n      swap3\n      dup3\n      iszero\n      tag_570\n      jumpi\n      swap2\n      0x20\n      mul\n      dup3\n      add\n    tag_571:\n      dup3\n      dup2\n      gt\n      iszero\n      tag_572\n      jumpi\n      dup3\n      mload\n      dup3\n      sstore\n      swap2\n      0x20\n      add\n      swap2\n      swap1\n      0x01\n      add\n      swap1\n      jump(tag_571)\n    tag_572:\n    tag_570:\n      pop\n      swap1\n      pop\n      tag_573\n      swap2\n      swap1\n      tag_565\n      jump\t// in\n    tag_573:\n      pop\n      swap1\n      jump\t// out\n    tag_565:\n    tag_574:\n      dup1\n      dup3\n      gt\n      iszero\n      tag_575\n      jumpi\n      0x00\n      dup2\n      0x00\n      swap1\n      sstore\n      pop\n      0x01\n      add\n      jump(tag_574)\n    tag_575:\n      pop\n      swap1\n      jump\t// out\n        /* \"#utility.yul\":25:680   */\n    tag_577:\n        /* \"#utility.yul\":119:124   */\n      0x00\n        /* \"#utility.yul\":144:223   */\n      tag_579\n        /* \"#utility.yul\":160:222   */\n      tag_580\n        /* \"#utility.yul\":215:221   */\n      dup5\n        /* \"#utility.yul\":160:222   */\n      tag_581\n      jump\t// in\n    tag_580:\n        /* \"#utility.yul\":144:223   */\n      tag_582\n      jump\t// in\n    tag_579:\n        /* \"#utility.yul\":135:223   */\n      swap1\n      pop\n        /* \"#utility.yul\":243:248   */\n      dup1\n        /* \"#utility.yul\":269:275   */\n      dup3\n        /* \"#utility.yul\":319:322   */\n      dup6\n        /* \"#utility.yul\":311:315   */\n      0x20\n        /* \"#utility.yul\":303:309   */\n      dup7\n        /* \"#utility.yul\":299:316   */\n      mul\n        /* \"#utility.yul\":294:297   */\n      dup3\n        /* \"#utility.yul\":290:317   */\n      add\n        /* \"#utility.yul\":287:323   */\n      gt\n        /* \"#utility.yul\":284:427   */\n      iszero\n      tag_583\n      jumpi\n        /* \"#utility.yul\":338:417   */\n      tag_584\n      tag_585\n      jump\t// in\n    tag_584:\n        /* \"#utility.yul\":284:427   */\n    tag_583:\n        /* \"#utility.yul\":451:452   */\n      0x00\n        /* \"#utility.yul\":436:674   */\n    tag_586:\n        /* \"#utility.yul\":461:467   */\n      dup6\n        /* \"#utility.yul\":458:459   */\n      dup2\n        /* \"#utility.yul\":455:468   */\n      lt\n        /* \"#utility.yul\":436:674   */\n      iszero\n      tag_588\n      jumpi\n        /* \"#utility.yul\":529:532   */\n      dup2\n        /* \"#utility.yul\":558:595   */\n      tag_589\n        /* \"#utility.yul\":591:594   */\n      dup9\n        /* \"#utility.yul\":579:589   */\n      dup3\n        /* \"#utility.yul\":558:595   */\n      tag_590\n      jump\t// in\n    tag_589:\n        /* \"#utility.yul\":553:556   */\n      dup5\n        /* \"#utility.yul\":546:596   */\n      mstore\n        /* \"#utility.yul\":625:629   */\n      0x20\n        /* \"#utility.yul\":620:623   */\n      dup5\n        /* \"#utility.yul\":616:630   */\n      add\n        /* \"#utility.yul\":609:630   */\n      swap4\n      pop\n        /* \"#utility.yul\":659:663   */\n      0x20\n        /* \"#utility.yul\":654:657   */\n      dup4\n        /* \"#utility.yul\":650:664   */\n      add\n        /* \"#utility.yul\":643:664   */\n      swap3\n      pop\n        /* \"#utility.yul\":496:674   */\n      pop\n        /* \"#utility.yul\":483:484   */\n      0x01\n        /* \"#utility.yul\":480:481   */\n      dup2\n        /* \"#utility.yul\":476:485   */\n      add\n        /* \"#utility.yul\":471:485   */\n      swap1\n      pop\n        /* \"#utility.yul\":436:674   */\n      jump(tag_586)\n    tag_588:\n        /* \"#utility.yul\":440:454   */\n      pop\n        /* \"#utility.yul\":125:680   */\n      pop\n      pop\n        /* \"#utility.yul\":25:680   */\n      swap4\n      swap3\n      pop\n      pop\n      pop\n      jump\t// out\n        /* \"#utility.yul\":686:825   */\n    tag_591:\n        /* \"#utility.yul\":732:737   */\n      0x00\n        /* \"#utility.yul\":770:776   */\n      dup2\n        /* \"#utility.yul\":757:777   */\n      calldataload\n        /* \"#utility.yul\":748:777   */\n      swap1\n      pop\n        /* \"#utility.yul\":786:819   */\n      tag_593\n        /* \"#utility.yul\":813:818   */\n      dup2\n        /* \"#utility.yul\":786:819   */\n      tag_594\n      jump\t// in\n    tag_593:\n        /* \"#utility.yul\":686:825   */\n      swap3\n      swap2\n      pop\n      pop\n      jump\t// out\n        /* \"#utility.yul\":831:986   */\n    tag_595:\n        /* \"#utility.yul\":885:890   */\n      0x00\n        /* \"#utility.yul\":923:929   */\n      dup2\n        /* \"#utility.yul\":910:930   */\n      calldataload\n        /* \"#utility.yul\":901:930   */\n      swap1\n      pop\n        /* \"#utility.yul\":939:980   */\n      tag_597\n        /* \"#utility.yul\":974:979   */\n      dup2\n        /* \"#utility.yul\":939:980   */\n      tag_598\n      jump\t// in\n    tag_597:\n        /* \"#utility.yul\":831:986   */\n      swap3\n      swap2\n      pop\n      pop\n      jump\t// out\n        /* \"#utility.yul\":1010:1349   */\n    tag_599:\n        /* \"#utility.yul\":1079:1084   */\n      0x00\n        /* \"#utility.yul\":1128:1131   */\n      dup3\n        /* \"#utility.yul\":1121:1125   */\n      0x1f\n        /* \"#utility.yul\":1113:1119   */\n      dup4\n        /* \"#utility.yul\":1109:1126   */\n      add\n        /* \"#utility.yul\":1105:1132   */\n      slt\n        /* \"#utility.yul\":1095:1217   */\n      tag_601\n      jumpi\n        /* \"#utility.yul\":1136:1215   */\n      tag_602\n      tag_603\n      jump\t// in\n    tag_602:\n        /* \"#utility.yul\":1095:1217   */\n    tag_601:\n        /* \"#utility.yul\":1240:1244   */\n      0x06\n        /* \"#utility.yul\":1262:1343   */\n      tag_604\n        /* \"#utility.yul\":1339:1342   */\n      dup5\n        /* \"#utility.yul\":1331:1337   */\n      dup3\n        /* \"#utility.yul\":1323:1329   */\n      dup6\n        /* \"#utility.yul\":1262:1343   */\n      tag_577\n      jump\t// in\n    tag_604:\n        /* \"#utility.yul\":1253:1343   */\n      swap2\n      pop\n        /* \"#utility.yul\":1085:1349   */\n      pop\n        /* \"#utility.yul\":1010:1349   */\n      swap3\n      swap2\n      pop\n      pop\n      jump\t// out\n        /* \"#utility.yul\":1355:1492   */\n    tag_605:\n        /* \"#utility.yul\":1409:1414   */\n      0x00\n        /* \"#utility.yul\":1440:1446   */\n      dup2\n        /* \"#utility.yul\":1434:1447   */\n      mload\n        /* \"#utility.yul\":1425:1447   */\n      swap1\n      pop\n        /* \"#utility.yul\":1456:1486   */\n      tag_607\n        /* \"#utility.yul\":1480:1485   */\n      dup2\n        /* \"#utility.yul\":1456:1486   */\n      tag_608\n      jump\t// in\n    tag_607:\n        /* \"#utility.yul\":1355:1492   */\n      swap3\n      swap2\n      pop\n      pop\n      jump\t// out\n        /* \"#utility.yul\":1498:1637   */\n    tag_590:\n        /* \"#utility.yul\":1544:1549   */\n      0x00\n        /* \"#utility.yul\":1582:1588   */\n      dup2\n        /* \"#utility.yul\":1569:1589   */\n      calldataload\n        /* \"#utility.yul\":1560:1589   */\n      swap1\n      pop\n        /* \"#utility.yul\":1598:1631   */\n      tag_610\n        /* \"#utility.yul\":1625:1630   */\n      dup2\n        /* \"#utility.yul\":1598:1631   */\n      tag_611\n      jump\t// in\n    tag_610:\n        /* \"#utility.yul\":1498:1637   */\n      swap3\n      swap2\n      pop\n      pop\n      jump\t// out\n        /* \"#utility.yul\":1643:1786   */\n    tag_612:\n        /* \"#utility.yul\":1700:1705   */\n      0x00\n        /* \"#utility.yul\":1731:1737   */\n      dup2\n        /* \"#utility.yul\":1725:1738   */\n      mload\n        /* \"#utility.yul\":1716:1738   */\n      swap1\n      pop\n        /* \"#utility.yul\":1747:1780   */\n      tag_614\n        /* \"#utility.yul\":1774:1779   */\n      dup2\n        /* \"#utility.yul\":1747:1780   */\n      tag_611\n      jump\t// in\n    tag_614:\n        /* \"#utility.yul\":1643:1786   */\n      swap3\n      swap2\n      pop\n      pop\n      jump\t// out\n        /* \"#utility.yul\":1792:2121   */\n    tag_120:\n        /* \"#utility.yul\":1851:1857   */\n      0x00\n        /* \"#utility.yul\":1900:1902   */\n      0x20\n        /* \"#utility.yul\":1888:1897   */\n      dup3\n        /* \"#utility.yul\":1879:1886   */\n      dup5\n        /* \"#utility.yul\":1875:1898   */\n      sub\n        /* \"#utility.yul\":1871:1903   */\n      slt\n        /* \"#utility.yul\":1868:1987   */\n      iszero\n      tag_616\n      jumpi\n        /* \"#utility.yul\":1906:1985   */\n      tag_617\n      tag_618\n      jump\t// in\n    tag_617:\n        /* \"#utility.yul\":1868:1987   */\n    tag_616:\n        /* \"#utility.yul\":2026:2027   */\n      0x00\n        /* \"#utility.yul\":2051:2104   */\n      tag_619\n        /* \"#utility.yul\":2096:2103   */\n      dup5\n        /* \"#utility.yul\":2087:2093   */\n      dup3\n        /* \"#utility.yul\":2076:2085   */\n      dup6\n        /* \"#utility.yul\":2072:2094   */\n      add\n        /* \"#utility.yul\":2051:2104   */\n      tag_591\n      jump\t// in\n    tag_619:\n        /* \"#utility.yul\":2041:2104   */\n      swap2\n      pop\n        /* \"#utility.yul\":1997:2114   */\n      pop\n        /* \"#utility.yul\":1792:2121   */\n      swap3\n      swap2\n      pop\n      pop\n      jump\t// out\n        /* \"#utility.yul\":2127:2472   */\n    tag_104:\n        /* \"#utility.yul\":2194:2200   */\n      0x00\n        /* \"#utility.yul\":2243:2245   */\n      0x20\n        /* \"#utility.yul\":2231:2240   */\n      dup3\n        /* \"#utility.yul\":2222:2229   */\n      dup5\n        /* \"#utility.yul\":2218:2241   */\n      sub\n        /* \"#utility.yul\":2214:2246   */\n      slt\n        /* \"#utility.yul\":2211:2330   */\n      iszero\n      tag_621\n      jumpi\n        /* \"#utility.yul\":2249:2328   */\n      tag_622\n      tag_618\n      jump\t// in\n    tag_622:\n        /* \"#utility.yul\":2211:2330   */\n    tag_621:\n        /* \"#utility.yul\":2369:2370   */\n      0x00\n        /* \"#utility.yul\":2394:2455   */\n      tag_623\n        /* \"#utility.yul\":2447:2454   */\n      dup5\n        /* \"#utility.yul\":2438:2444   */\n      dup3\n        /* \"#utility.yul\":2427:2436   */\n      dup6\n        /* \"#utility.yul\":2423:2445   */\n      add\n        /* \"#utility.yul\":2394:2455   */\n      tag_595\n      jump\t// in\n    tag_623:\n        /* \"#utility.yul\":2384:2455   */\n      swap2\n      pop\n        /* \"#utility.yul\":2340:2465   */\n      pop\n        /* \"#utility.yul\":2127:2472   */\n      swap3\n      swap2\n      pop\n      pop\n      jump\t// out\n        /* \"#utility.yul\":2478:2854   */\n    tag_47:\n        /* \"#utility.yul\":2560:2566   */\n      0x00\n        /* \"#utility.yul\":2609:2612   */\n      0xc0\n        /* \"#utility.yul\":2597:2606   */\n      dup3\n        /* \"#utility.yul\":2588:2595   */\n      dup5\n        /* \"#utility.yul\":2584:2607   */\n      sub\n        /* \"#utility.yul\":2580:2613   */\n      slt\n        /* \"#utility.yul\":2577:2697   */\n      iszero\n      tag_625\n      jumpi\n        /* \"#utility.yul\":2616:2695   */\n      tag_626\n      tag_618\n      jump\t// in\n    tag_626:\n        /* \"#utility.yul\":2577:2697   */\n    tag_625:\n        /* \"#utility.yul\":2736:2737   */\n      0x00\n        /* \"#utility.yul\":2761:2837   */\n      tag_627\n        /* \"#utility.yul\":2829:2836   */\n      dup5\n        /* \"#utility.yul\":2820:2826   */\n      dup3\n        /* \"#utility.yul\":2809:2818   */\n      dup6\n        /* \"#utility.yul\":2805:2827   */\n      add\n        /* \"#utility.yul\":2761:2837   */\n      tag_599\n      jump\t// in\n    tag_627:\n        /* \"#utility.yul\":2751:2837   */\n      swap2\n      pop\n        /* \"#utility.yul\":2707:2847   */\n      pop\n        /* \"#utility.yul\":2478:2854   */\n      swap3\n      swap2\n      pop\n      pop\n      jump\t// out\n        /* \"#utility.yul\":2860:3205   */\n    tag_303:\n        /* \"#utility.yul\":2927:2933   */\n      0x00\n        /* \"#utility.yul\":2976:2978   */\n      0x20\n        /* \"#utility.yul\":2964:2973   */\n      dup3\n        /* \"#utility.yul\":2955:2962   */\n      dup5\n        /* \"#utility.yul\":2951:2974   */\n      sub\n        /* \"#utility.yul\":2947:2979   */\n      slt\n        /* \"#utility.yul\":2944:3063   */\n      iszero\n      tag_629\n      jumpi\n        /* \"#utility.yul\":2982:3061   */\n      tag_630\n      tag_618\n      jump\t// in\n    tag_630:\n        /* \"#utility.yul\":2944:3063   */\n    tag_629:\n        /* \"#utility.yul\":3102:3103   */\n      0x00\n        /* \"#utility.yul\":3127:3188   */\n      tag_631\n        /* \"#utility.yul\":3180:3187   */\n      dup5\n        /* \"#utility.yul\":3171:3177   */\n      dup3\n        /* \"#utility.yul\":3160:3169   */\n      dup6\n        /* \"#utility.yul\":3156:3178   */\n      add\n        /* \"#utility.yul\":3127:3188   */\n      tag_605\n      jump\t// in\n    tag_631:\n        /* \"#utility.yul\":3117:3188   */\n      swap2\n      pop\n        /* \"#utility.yul\":3073:3198   */\n      pop\n        /* \"#utility.yul\":2860:3205   */\n      swap3\n      swap2\n      pop\n      pop\n      jump\t// out\n        /* \"#utility.yul\":3211:3540   */\n    tag_36:\n        /* \"#utility.yul\":3270:3276   */\n      0x00\n        /* \"#utility.yul\":3319:3321   */\n      0x20\n        /* \"#utility.yul\":3307:3316   */\n      dup3\n        /* \"#utility.yul\":3298:3305   */\n      dup5\n        /* \"#utility.yul\":3294:3317   */\n      sub\n        /* \"#utility.yul\":3290:3322   */\n      slt\n        /* \"#utility.yul\":3287:3406   */\n      iszero\n      tag_633\n      jumpi\n        /* \"#utility.yul\":3325:3404   */\n      tag_634\n      tag_618\n      jump\t// in\n    tag_634:\n        /* \"#utility.yul\":3287:3406   */\n    tag_633:\n        /* \"#utility.yul\":3445:3446   */\n      0x00\n        /* \"#utility.yul\":3470:3523   */\n      tag_635\n        /* \"#utility.yul\":3515:3522   */\n      dup5\n        /* \"#utility.yul\":3506:3512   */\n      dup3\n        /* \"#utility.yul\":3495:3504   */\n      dup6\n        /* \"#utility.yul\":3491:3513   */\n      add\n        /* \"#utility.yul\":3470:3523   */\n      tag_590\n      jump\t// in\n    tag_635:\n        /* \"#utility.yul\":3460:3523   */\n      swap2\n      pop\n        /* \"#utility.yul\":3416:3533   */\n      pop\n        /* \"#utility.yul\":3211:3540   */\n      swap3\n      swap2\n      pop\n      pop\n      jump\t// out\n        /* \"#utility.yul\":3546:3897   */\n    tag_265:\n        /* \"#utility.yul\":3616:3622   */\n      0x00\n        /* \"#utility.yul\":3665:3667   */\n      0x20\n        /* \"#utility.yul\":3653:3662   */\n      dup3\n        /* \"#utility.yul\":3644:3651   */\n      dup5\n        /* \"#utility.yul\":3640:3663   */\n      sub\n        /* \"#utility.yul\":3636:3668   */\n      slt\n        /* \"#utility.yul\":3633:3752   */\n      iszero\n      tag_637\n      jumpi\n        /* \"#utility.yul\":3671:3750   */\n      tag_638\n      tag_618\n      jump\t// in\n    tag_638:\n        /* \"#utility.yul\":3633:3752   */\n    tag_637:\n        /* \"#utility.yul\":3791:3792   */\n      0x00\n        /* \"#utility.yul\":3816:3880   */\n      tag_639\n        /* \"#utility.yul\":3872:3879   */\n      dup5\n        /* \"#utility.yul\":3863:3869   */\n      dup3\n        /* \"#utility.yul\":3852:3861   */\n      dup6\n        /* \"#utility.yul\":3848:3870   */\n      add\n        /* \"#utility.yul\":3816:3880   */\n      tag_612\n      jump\t// in\n    tag_639:\n        /* \"#utility.yul\":3806:3880   */\n      swap2\n      pop\n        /* \"#utility.yul\":3762:3890   */\n      pop\n        /* \"#utility.yul\":3546:3897   */\n      swap3\n      swap2\n      pop\n      pop\n      jump\t// out\n        /* \"#utility.yul\":3903:4174   */\n    tag_640:\n        /* \"#utility.yul\":4018:4028   */\n      0x00\n        /* \"#utility.yul\":4039:4131   */\n      tag_642\n        /* \"#utility.yul\":4127:4130   */\n      dup4\n        /* \"#utility.yul\":4119:4125   */\n      dup4\n        /* \"#utility.yul\":4039:4131   */\n      tag_643\n      jump\t// in\n    tag_642:\n        /* \"#utility.yul\":4163:4167   */\n      0xc0\n        /* \"#utility.yul\":4158:4161   */\n      dup4\n        /* \"#utility.yul\":4154:4168   */\n      add\n        /* \"#utility.yul\":4140:4168   */\n      swap1\n      pop\n        /* \"#utility.yul\":3903:4174   */\n      swap3\n      swap2\n      pop\n      pop\n      jump\t// out\n        /* \"#utility.yul\":4180:4359   */\n    tag_644:\n        /* \"#utility.yul\":4249:4259   */\n      0x00\n        /* \"#utility.yul\":4270:4316   */\n      tag_646\n        /* \"#utility.yul\":4312:4315   */\n      dup4\n        /* \"#utility.yul\":4304:4310   */\n      dup4\n        /* \"#utility.yul\":4270:4316   */\n      tag_647\n      jump\t// in\n    tag_646:\n        /* \"#utility.yul\":4348:4352   */\n      0x20\n        /* \"#utility.yul\":4343:4346   */\n      dup4\n        /* \"#utility.yul\":4339:4353   */\n      add\n        /* \"#utility.yul\":4325:4353   */\n      swap1\n      pop\n        /* \"#utility.yul\":4180:4359   */\n      swap3\n      swap2\n      pop\n      pop\n      jump\t// out\n        /* \"#utility.yul\":4365:4512   */\n    tag_648:\n        /* \"#utility.yul\":4460:4505   */\n      tag_650\n        /* \"#utility.yul\":4499:4504   */\n      dup2\n        /* \"#utility.yul\":4460:4505   */\n      tag_651\n      jump\t// in\n    tag_650:\n        /* \"#utility.yul\":4455:4458   */\n      dup3\n        /* \"#utility.yul\":4448:4506   */\n      mstore\n        /* \"#utility.yul\":4365:4512   */\n      pop\n      pop\n      jump\t// out\n        /* \"#utility.yul\":4518:4636   */\n    tag_652:\n        /* \"#utility.yul\":4605:4629   */\n      tag_654\n        /* \"#utility.yul\":4623:4628   */\n      dup2\n        /* \"#utility.yul\":4605:4629   */\n      tag_655\n      jump\t// in\n    tag_654:\n        /* \"#utility.yul\":4600:4603   */\n      dup3\n        /* \"#utility.yul\":4593:4630   */\n      mstore\n        /* \"#utility.yul\":4518:4636   */\n      pop\n      pop\n      jump\t// out\n        /* \"#utility.yul\":4678:5594   */\n    tag_656:\n        /* \"#utility.yul\":4843:4846   */\n      0x00\n        /* \"#utility.yul\":4872:4949   */\n      tag_658\n        /* \"#utility.yul\":4943:4948   */\n      dup3\n        /* \"#utility.yul\":4872:4949   */\n      tag_659\n      jump\t// in\n    tag_658:\n        /* \"#utility.yul\":4965:5074   */\n      tag_660\n        /* \"#utility.yul\":5067:5073   */\n      dup2\n        /* \"#utility.yul\":5062:5065   */\n      dup6\n        /* \"#utility.yul\":4965:5074   */\n      tag_661\n      jump\t// in\n    tag_660:\n        /* \"#utility.yul\":4958:5074   */\n      swap4\n      pop\n        /* \"#utility.yul\":5098:5177   */\n      tag_662\n        /* \"#utility.yul\":5171:5176   */\n      dup4\n        /* \"#utility.yul\":5098:5177   */\n      tag_663\n      jump\t// in\n    tag_662:\n        /* \"#utility.yul\":5200:5207   */\n      dup1\n        /* \"#utility.yul\":5231:5232   */\n      0x00\n        /* \"#utility.yul\":5216:5569   */\n    tag_664:\n        /* \"#utility.yul\":5241:5247   */\n      dup4\n        /* \"#utility.yul\":5238:5239   */\n      dup2\n        /* \"#utility.yul\":5235:5248   */\n      lt\n        /* \"#utility.yul\":5216:5569   */\n      iszero\n      tag_666\n      jumpi\n        /* \"#utility.yul\":5317:5323   */\n      dup2\n        /* \"#utility.yul\":5311:5324   */\n      mload\n        /* \"#utility.yul\":5344:5453   */\n      tag_667\n        /* \"#utility.yul\":5449:5452   */\n      dup9\n        /* \"#utility.yul\":5434:5447   */\n      dup3\n        /* \"#utility.yul\":5344:5453   */\n      tag_640\n      jump\t// in\n    tag_667:\n        /* \"#utility.yul\":5337:5453   */\n      swap8\n      pop\n        /* \"#utility.yul\":5476:5559   */\n      tag_668\n        /* \"#utility.yul\":5552:5558   */\n      dup4\n        /* \"#utility.yul\":5476:5559   */\n      tag_669\n      jump\t// in\n    tag_668:\n        /* \"#utility.yul\":5466:5559   */\n      swap3\n      pop\n        /* \"#utility.yul\":5276:5569   */\n      pop\n        /* \"#utility.yul\":5263:5264   */\n      0x01\n        /* \"#utility.yul\":5260:5261   */\n      dup2\n        /* \"#utility.yul\":5256:5265   */\n      add\n        /* \"#utility.yul\":5251:5265   */\n      swap1\n      pop\n        /* \"#utility.yul\":5216:5569   */\n      jump(tag_664)\n    tag_666:\n        /* \"#utility.yul\":5220:5234   */\n      pop\n        /* \"#utility.yul\":5585:5588   */\n      dup6\n        /* \"#utility.yul\":5578:5588   */\n      swap4\n      pop\n        /* \"#utility.yul\":4848:5594   */\n      pop\n      pop\n      pop\n        /* \"#utility.yul\":4678:5594   */\n      swap3\n      swap2\n      pop\n      pop\n      jump\t// out\n        /* \"#utility.yul\":5632:6306   */\n    tag_643:\n        /* \"#utility.yul\":5758:5810   */\n      tag_671\n        /* \"#utility.yul\":5804:5809   */\n      dup2\n        /* \"#utility.yul\":5758:5810   */\n      tag_672\n      jump\t// in\n    tag_671:\n        /* \"#utility.yul\":5826:5900   */\n      tag_673\n        /* \"#utility.yul\":5893:5899   */\n      dup2\n        /* \"#utility.yul\":5888:5891   */\n      dup5\n        /* \"#utility.yul\":5826:5900   */\n      tag_674\n      jump\t// in\n    tag_673:\n        /* \"#utility.yul\":5819:5900   */\n      swap3\n      pop\n        /* \"#utility.yul\":5924:5978   */\n      tag_675\n        /* \"#utility.yul\":5972:5977   */\n      dup3\n        /* \"#utility.yul\":5924:5978   */\n      tag_676\n      jump\t// in\n    tag_675:\n        /* \"#utility.yul\":6001:6008   */\n      dup1\n        /* \"#utility.yul\":6032:6033   */\n      0x00\n        /* \"#utility.yul\":6017:6299   */\n    tag_677:\n        /* \"#utility.yul\":6042:6048   */\n      dup4\n        /* \"#utility.yul\":6039:6040   */\n      dup2\n        /* \"#utility.yul\":6036:6049   */\n      lt\n        /* \"#utility.yul\":6017:6299   */\n      iszero\n      tag_679\n      jumpi\n        /* \"#utility.yul\":6118:6124   */\n      dup2\n        /* \"#utility.yul\":6112:6125   */\n      mload\n        /* \"#utility.yul\":6145:6208   */\n      tag_680\n        /* \"#utility.yul\":6204:6207   */\n      dup8\n        /* \"#utility.yul\":6189:6202   */\n      dup3\n        /* \"#utility.yul\":6145:6208   */\n      tag_644\n      jump\t// in\n    tag_680:\n        /* \"#utility.yul\":6138:6208   */\n      swap7\n      pop\n        /* \"#utility.yul\":6231:6289   */\n      tag_681\n        /* \"#utility.yul\":6282:6288   */\n      dup4\n        /* \"#utility.yul\":6231:6289   */\n      tag_682\n      jump\t// in\n    tag_681:\n        /* \"#utility.yul\":6221:6289   */\n      swap3\n      pop\n        /* \"#utility.yul\":6077:6299   */\n      pop\n        /* \"#utility.yul\":6064:6065   */\n      0x01\n        /* \"#utility.yul\":6061:6062   */\n      dup2\n        /* \"#utility.yul\":6057:6066   */\n      add\n        /* \"#utility.yul\":6052:6066   */\n      swap1\n      pop\n        /* \"#utility.yul\":6017:6299   */\n      jump(tag_677)\n    tag_679:\n        /* \"#utility.yul\":6021:6035   */\n      pop\n        /* \"#utility.yul\":5734:6306   */\n      pop\n      pop\n      pop\n        /* \"#utility.yul\":5632:6306   */\n      pop\n      pop\n      jump\t// out\n        /* \"#utility.yul\":6344:7038   */\n    tag_683:\n        /* \"#utility.yul\":6480:6532   */\n      tag_685\n        /* \"#utility.yul\":6526:6531   */\n      dup2\n        /* \"#utility.yul\":6480:6532   */\n      tag_686\n      jump\t// in\n    tag_685:\n        /* \"#utility.yul\":6548:6632   */\n      tag_687\n        /* \"#utility.yul\":6625:6631   */\n      dup2\n        /* \"#utility.yul\":6620:6623   */\n      dup5\n        /* \"#utility.yul\":6548:6632   */\n      tag_688\n      jump\t// in\n    tag_687:\n        /* \"#utility.yul\":6541:6632   */\n      swap3\n      pop\n        /* \"#utility.yul\":6656:6710   */\n      tag_689\n        /* \"#utility.yul\":6704:6709   */\n      dup3\n        /* \"#utility.yul\":6656:6710   */\n      tag_690\n      jump\t// in\n    tag_689:\n        /* \"#utility.yul\":6733:6740   */\n      dup1\n        /* \"#utility.yul\":6764:6765   */\n      0x00\n        /* \"#utility.yul\":6749:7031   */\n    tag_691:\n        /* \"#utility.yul\":6774:6780   */\n      dup4\n        /* \"#utility.yul\":6771:6772   */\n      dup2\n        /* \"#utility.yul\":6768:6781   */\n      lt\n        /* \"#utility.yul\":6749:7031   */\n      iszero\n      tag_693\n      jumpi\n        /* \"#utility.yul\":6850:6856   */\n      dup2\n        /* \"#utility.yul\":6844:6857   */\n      mload\n        /* \"#utility.yul\":6877:6940   */\n      tag_694\n        /* \"#utility.yul\":6936:6939   */\n      dup8\n        /* \"#utility.yul\":6921:6934   */\n      dup3\n        /* \"#utility.yul\":6877:6940   */\n      tag_644\n      jump\t// in\n    tag_694:\n        /* \"#utility.yul\":6870:6940   */\n      swap7\n      pop\n        /* \"#utility.yul\":6963:7021   */\n      tag_695\n        /* \"#utility.yul\":7014:7020   */\n      dup4\n        /* \"#utility.yul\":6963:7021   */\n      tag_696\n      jump\t// in\n    tag_695:\n        /* \"#utility.yul\":6953:7021   */\n      swap3\n      pop\n        /* \"#utility.yul\":6809:7031   */\n      pop\n        /* \"#utility.yul\":6796:6797   */\n      0x01\n        /* \"#utility.yul\":6793:6794   */\n      dup2\n        /* \"#utility.yul\":6789:6798   */\n      add\n        /* \"#utility.yul\":6784:6798   */\n      swap1\n      pop\n        /* \"#utility.yul\":6749:7031   */\n      jump(tag_691)\n    tag_693:\n        /* \"#utility.yul\":6753:6767   */\n      pop\n        /* \"#utility.yul\":6456:7038   */\n      pop\n      pop\n      pop\n        /* \"#utility.yul\":6344:7038   */\n      pop\n      pop\n      jump\t// out\n        /* \"#utility.yul\":7044:7162   */\n    tag_697:\n        /* \"#utility.yul\":7131:7155   */\n      tag_699\n        /* \"#utility.yul\":7149:7154   */\n      dup2\n        /* \"#utility.yul\":7131:7155   */\n      tag_700\n      jump\t// in\n    tag_699:\n        /* \"#utility.yul\":7126:7129   */\n      dup3\n        /* \"#utility.yul\":7119:7156   */\n      mstore\n        /* \"#utility.yul\":7044:7162   */\n      pop\n      pop\n      jump\t// out\n        /* \"#utility.yul\":7168:7325   */\n    tag_701:\n        /* \"#utility.yul\":7268:7318   */\n      tag_703\n        /* \"#utility.yul\":7312:7317   */\n      dup2\n        /* \"#utility.yul\":7268:7318   */\n      tag_704\n      jump\t// in\n    tag_703:\n        /* \"#utility.yul\":7263:7266   */\n      dup3\n        /* \"#utility.yul\":7256:7319   */\n      mstore\n        /* \"#utility.yul\":7168:7325   */\n      pop\n      pop\n      jump\t// out\n        /* \"#utility.yul\":7331:7488   */\n    tag_705:\n        /* \"#utility.yul\":7431:7481   */\n      tag_707\n        /* \"#utility.yul\":7475:7480   */\n      dup2\n        /* \"#utility.yul\":7431:7481   */\n      tag_708\n      jump\t// in\n    tag_707:\n        /* \"#utility.yul\":7426:7429   */\n      dup3\n        /* \"#utility.yul\":7419:7482   */\n      mstore\n        /* \"#utility.yul\":7331:7488   */\n      pop\n      pop\n      jump\t// out\n        /* \"#utility.yul\":7494:7860   */\n    tag_709:\n        /* \"#utility.yul\":7636:7639   */\n      0x00\n        /* \"#utility.yul\":7657:7724   */\n      tag_711\n        /* \"#utility.yul\":7721:7723   */\n      0x0f\n        /* \"#utility.yul\":7716:7719   */\n      dup4\n        /* \"#utility.yul\":7657:7724   */\n      tag_712\n      jump\t// in\n    tag_711:\n        /* \"#utility.yul\":7650:7724   */\n      swap2\n      pop\n        /* \"#utility.yul\":7733:7826   */\n      tag_713\n        /* \"#utility.yul\":7822:7825   */\n      dup3\n        /* \"#utility.yul\":7733:7826   */\n      tag_714\n      jump\t// in\n    tag_713:\n        /* \"#utility.yul\":7851:7853   */\n      0x20\n        /* \"#utility.yul\":7846:7849   */\n      dup3\n        /* \"#utility.yul\":7842:7854   */\n      add\n        /* \"#utility.yul\":7835:7854   */\n      swap1\n      pop\n        /* \"#utility.yul\":7494:7860   */\n      swap2\n      swap1\n      pop\n      jump\t// out\n        /* \"#utility.yul\":7866:8232   */\n    tag_715:\n        /* \"#utility.yul\":8008:8011   */\n      0x00\n        /* \"#utility.yul\":8029:8096   */\n      tag_717\n        /* \"#utility.yul\":8093:8095   */\n      0x26\n        /* \"#utility.yul\":8088:8091   */\n      dup4\n        /* \"#utility.yul\":8029:8096   */\n      tag_712\n      jump\t// in\n    tag_717:\n        /* \"#utility.yul\":8022:8096   */\n      swap2\n      pop\n        /* \"#utility.yul\":8105:8198   */\n      tag_718\n        /* \"#utility.yul\":8194:8197   */\n      dup3\n        /* \"#utility.yul\":8105:8198   */\n      tag_719\n      jump\t// in\n    tag_718:\n        /* \"#utility.yul\":8223:8225   */\n      0x40\n        /* \"#utility.yul\":8218:8221   */\n      dup3\n        /* \"#utility.yul\":8214:8226   */\n      add\n        /* \"#utility.yul\":8207:8226   */\n      swap1\n      pop\n        /* \"#utility.yul\":7866:8232   */\n      swap2\n      swap1\n      pop\n      jump\t// out\n        /* \"#utility.yul\":8238:8603   */\n    tag_720:\n        /* \"#utility.yul\":8380:8383   */\n      0x00\n        /* \"#utility.yul\":8401:8467   */\n      tag_722\n        /* \"#utility.yul\":8465:8466   */\n      0x09\n        /* \"#utility.yul\":8460:8463   */\n      dup4\n        /* \"#utility.yul\":8401:8467   */\n      tag_712\n      jump\t// in\n    tag_722:\n        /* \"#utility.yul\":8394:8467   */\n      swap2\n      pop\n        /* \"#utility.yul\":8476:8569   */\n      tag_723\n        /* \"#utility.yul\":8565:8568   */\n      dup3\n        /* \"#utility.yul\":8476:8569   */\n      tag_724\n      jump\t// in\n    tag_723:\n        /* \"#utility.yul\":8594:8596   */\n      0x20\n        /* \"#utility.yul\":8589:8592   */\n      dup3\n        /* \"#utility.yul\":8585:8597   */\n      add\n        /* \"#utility.yul\":8578:8597   */\n      swap1\n      pop\n        /* \"#utility.yul\":8238:8603   */\n      swap2\n      swap1\n      pop\n      jump\t// out\n        /* \"#utility.yul\":8609:8975   */\n    tag_725:\n        /* \"#utility.yul\":8751:8754   */\n      0x00\n        /* \"#utility.yul\":8772:8839   */\n      tag_727\n        /* \"#utility.yul\":8836:8838   */\n      0x22\n        /* \"#utility.yul\":8831:8834   */\n      dup4\n        /* \"#utility.yul\":8772:8839   */\n      tag_712\n      jump\t// in\n    tag_727:\n        /* \"#utility.yul\":8765:8839   */\n      swap2\n      pop\n        /* \"#utility.yul\":8848:8941   */\n      tag_728\n        /* \"#utility.yul\":8937:8940   */\n      dup3\n        /* \"#utility.yul\":8848:8941   */\n      tag_729\n      jump\t// in\n    tag_728:\n        /* \"#utility.yul\":8966:8968   */\n      0x40\n        /* \"#utility.yul\":8961:8964   */\n      dup3\n        /* \"#utility.yul\":8957:8969   */\n      add\n        /* \"#utility.yul\":8950:8969   */\n      swap1\n      pop\n        /* \"#utility.yul\":8609:8975   */\n      swap2\n      swap1\n      pop\n      jump\t// out\n        /* \"#utility.yul\":8981:9347   */\n    tag_730:\n        /* \"#utility.yul\":9123:9126   */\n      0x00\n        /* \"#utility.yul\":9144:9211   */\n      tag_732\n        /* \"#utility.yul\":9208:9210   */\n      0x15\n        /* \"#utility.yul\":9203:9206   */\n      dup4\n        /* \"#utility.yul\":9144:9211   */\n      tag_712\n      jump\t// in\n    tag_732:\n        /* \"#utility.yul\":9137:9211   */\n      swap2\n      pop\n        /* \"#utility.yul\":9220:9313   */\n      tag_733\n        /* \"#utility.yul\":9309:9312   */\n      dup3\n        /* \"#utility.yul\":9220:9313   */\n      tag_734\n      jump\t// in\n    tag_733:\n        /* \"#utility.yul\":9338:9340   */\n      0x20\n        /* \"#utility.yul\":9333:9336   */\n      dup3\n        /* \"#utility.yul\":9329:9341   */\n      add\n        /* \"#utility.yul\":9322:9341   */\n      swap1\n      pop\n        /* \"#utility.yul\":8981:9347   */\n      swap2\n      swap1\n      pop\n      jump\t// out\n        /* \"#utility.yul\":9353:9719   */\n    tag_735:\n        /* \"#utility.yul\":9495:9498   */\n      0x00\n        /* \"#utility.yul\":9516:9583   */\n      tag_737\n        /* \"#utility.yul\":9580:9582   */\n      0x13\n        /* \"#utility.yul\":9575:9578   */\n      dup4\n        /* \"#utility.yul\":9516:9583   */\n      tag_712\n      jump\t// in\n    tag_737:\n        /* \"#utility.yul\":9509:9583   */\n      swap2\n      pop\n        /* \"#utility.yul\":9592:9685   */\n      tag_738\n        /* \"#utility.yul\":9681:9684   */\n      dup3\n        /* \"#utility.yul\":9592:9685   */\n      tag_739\n      jump\t// in\n    tag_738:\n        /* \"#utility.yul\":9710:9712   */\n      0x20\n        /* \"#utility.yul\":9705:9708   */\n      dup3\n        /* \"#utility.yul\":9701:9713   */\n      add\n        /* \"#utility.yul\":9694:9713   */\n      swap1\n      pop\n        /* \"#utility.yul\":9353:9719   */\n      swap2\n      swap1\n      pop\n      jump\t// out\n        /* \"#utility.yul\":9725:10091   */\n    tag_740:\n        /* \"#utility.yul\":9867:9870   */\n      0x00\n        /* \"#utility.yul\":9888:9955   */\n      tag_742\n        /* \"#utility.yul\":9952:9954   */\n      0x20\n        /* \"#utility.yul\":9947:9950   */\n      dup4\n        /* \"#utility.yul\":9888:9955   */\n      tag_712\n      jump\t// in\n    tag_742:\n        /* \"#utility.yul\":9881:9955   */\n      swap2\n      pop\n        /* \"#utility.yul\":9964:10057   */\n      tag_743\n        /* \"#utility.yul\":10053:10056   */\n      dup3\n        /* \"#utility.yul\":9964:10057   */\n      tag_744\n      jump\t// in\n    tag_743:\n        /* \"#utility.yul\":10082:10084   */\n      0x20\n        /* \"#utility.yul\":10077:10080   */\n      dup3\n        /* \"#utility.yul\":10073:10085   */\n      add\n        /* \"#utility.yul\":10066:10085   */\n      swap1\n      pop\n        /* \"#utility.yul\":9725:10091   */\n      swap2\n      swap1\n      pop\n      jump\t// out\n        /* \"#utility.yul\":10097:10463   */\n    tag_745:\n        /* \"#utility.yul\":10239:10242   */\n      0x00\n        /* \"#utility.yul\":10260:10327   */\n      tag_747\n        /* \"#utility.yul\":10324:10326   */\n      0x11\n        /* \"#utility.yul\":10319:10322   */\n      dup4\n        /* \"#utility.yul\":10260:10327   */\n      tag_712\n      jump\t// in\n    tag_747:\n        /* \"#utility.yul\":10253:10327   */\n      swap2\n      pop\n        /* \"#utility.yul\":10336:10429   */\n      tag_748\n        /* \"#utility.yul\":10425:10428   */\n      dup3\n        /* \"#utility.yul\":10336:10429   */\n      tag_749\n      jump\t// in\n    tag_748:\n        /* \"#utility.yul\":10454:10456   */\n      0x20\n        /* \"#utility.yul\":10449:10452   */\n      dup3\n        /* \"#utility.yul\":10445:10457   */\n      add\n        /* \"#utility.yul\":10438:10457   */\n      swap1\n      pop\n        /* \"#utility.yul\":10097:10463   */\n      swap2\n      swap1\n      pop\n      jump\t// out\n        /* \"#utility.yul\":10469:10577   */\n    tag_647:\n        /* \"#utility.yul\":10546:10570   */\n      tag_751\n        /* \"#utility.yul\":10564:10569   */\n      dup2\n        /* \"#utility.yul\":10546:10570   */\n      tag_752\n      jump\t// in\n    tag_751:\n        /* \"#utility.yul\":10541:10544   */\n      dup3\n        /* \"#utility.yul\":10534:10571   */\n      mstore\n        /* \"#utility.yul\":10469:10577   */\n      pop\n      pop\n      jump\t// out\n        /* \"#utility.yul\":10583:10701   */\n    tag_753:\n        /* \"#utility.yul\":10670:10694   */\n      tag_755\n        /* \"#utility.yul\":10688:10693   */\n      dup2\n        /* \"#utility.yul\":10670:10694   */\n      tag_752\n      jump\t// in\n    tag_755:\n        /* \"#utility.yul\":10665:10668   */\n      dup3\n        /* \"#utility.yul\":10658:10695   */\n      mstore\n        /* \"#utility.yul\":10583:10701   */\n      pop\n      pop\n      jump\t// out\n        /* \"#utility.yul\":10707:10929   */\n    tag_93:\n        /* \"#utility.yul\":10800:10804   */\n      0x00\n        /* \"#utility.yul\":10838:10840   */\n      0x20\n        /* \"#utility.yul\":10827:10836   */\n      dup3\n        /* \"#utility.yul\":10823:10841   */\n      add\n        /* \"#utility.yul\":10815:10841   */\n      swap1\n      pop\n        /* \"#utility.yul\":10851:10922   */\n      tag_757\n        /* \"#utility.yul\":10919:10920   */\n      0x00\n        /* \"#utility.yul\":10908:10917   */\n      dup4\n        /* \"#utility.yul\":10904:10921   */\n      add\n        /* \"#utility.yul\":10895:10901   */\n      dup5\n        /* \"#utility.yul\":10851:10922   */\n      tag_652\n      jump\t// in\n    tag_757:\n        /* \"#utility.yul\":10707:10929   */\n      swap3\n      swap2\n      pop\n      pop\n      jump\t// out\n        /* \"#utility.yul\":10935:11283   */\n    tag_426:\n        /* \"#utility.yul\":11064:11068   */\n      0x00\n        /* \"#utility.yul\":11102:11104   */\n      0x40\n        /* \"#utility.yul\":11091:11100   */\n      dup3\n        /* \"#utility.yul\":11087:11105   */\n      add\n        /* \"#utility.yul\":11079:11105   */\n      swap1\n      pop\n        /* \"#utility.yul\":11115:11194   */\n      tag_759\n        /* \"#utility.yul\":11191:11192   */\n      0x00\n        /* \"#utility.yul\":11180:11189   */\n      dup4\n        /* \"#utility.yul\":11176:11193   */\n      add\n        /* \"#utility.yul\":11167:11173   */\n      dup6\n        /* \"#utility.yul\":11115:11194   */\n      tag_648\n      jump\t// in\n    tag_759:\n        /* \"#utility.yul\":11204:11276   */\n      tag_760\n        /* \"#utility.yul\":11272:11274   */\n      0x20\n        /* \"#utility.yul\":11261:11270   */\n      dup4\n        /* \"#utility.yul\":11257:11275   */\n      add\n        /* \"#utility.yul\":11248:11254   */\n      dup5\n        /* \"#utility.yul\":11204:11276   */\n      tag_753\n      jump\t// in\n    tag_760:\n        /* \"#utility.yul\":10935:11283   */\n      swap4\n      swap3\n      pop\n      pop\n      pop\n      jump\t// out\n        /* \"#utility.yul\":11289:11731   */\n    tag_298:\n        /* \"#utility.yul\":11438:11442   */\n      0x00\n        /* \"#utility.yul\":11476:11478   */\n      0x60\n        /* \"#utility.yul\":11465:11474   */\n      dup3\n        /* \"#utility.yul\":11461:11479   */\n      add\n        /* \"#utility.yul\":11453:11479   */\n      swap1\n      pop\n        /* \"#utility.yul\":11489:11560   */\n      tag_762\n        /* \"#utility.yul\":11557:11558   */\n      0x00\n        /* \"#utility.yul\":11546:11555   */\n      dup4\n        /* \"#utility.yul\":11542:11559   */\n      add\n        /* \"#utility.yul\":11533:11539   */\n      dup7\n        /* \"#utility.yul\":11489:11560   */\n      tag_652\n      jump\t// in\n    tag_762:\n        /* \"#utility.yul\":11570:11642   */\n      tag_763\n        /* \"#utility.yul\":11638:11640   */\n      0x20\n        /* \"#utility.yul\":11627:11636   */\n      dup4\n        /* \"#utility.yul\":11623:11641   */\n      add\n        /* \"#utility.yul\":11614:11620   */\n      dup6\n        /* \"#utility.yul\":11570:11642   */\n      tag_652\n      jump\t// in\n    tag_763:\n        /* \"#utility.yul\":11652:11724   */\n      tag_764\n        /* \"#utility.yul\":11720:11722   */\n      0x40\n        /* \"#utility.yul\":11709:11718   */\n      dup4\n        /* \"#utility.yul\":11705:11723   */\n      add\n        /* \"#utility.yul\":11696:11702   */\n      dup5\n        /* \"#utility.yul\":11652:11724   */\n      tag_753\n      jump\t// in\n    tag_764:\n        /* \"#utility.yul\":11289:11731   */\n      swap5\n      swap4\n      pop\n      pop\n      pop\n      pop\n      jump\t// out\n        /* \"#utility.yul\":11737:12069   */\n    tag_61:\n        /* \"#utility.yul\":11858:11862   */\n      0x00\n        /* \"#utility.yul\":11896:11898   */\n      0x40\n        /* \"#utility.yul\":11885:11894   */\n      dup3\n        /* \"#utility.yul\":11881:11899   */\n      add\n        /* \"#utility.yul\":11873:11899   */\n      swap1\n      pop\n        /* \"#utility.yul\":11909:11980   */\n      tag_766\n        /* \"#utility.yul\":11977:11978   */\n      0x00\n        /* \"#utility.yul\":11966:11975   */\n      dup4\n        /* \"#utility.yul\":11962:11979   */\n      add\n        /* \"#utility.yul\":11953:11959   */\n      dup6\n        /* \"#utility.yul\":11909:11980   */\n      tag_652\n      jump\t// in\n    tag_766:\n        /* \"#utility.yul\":11990:12062   */\n      tag_767\n        /* \"#utility.yul\":12058:12060   */\n      0x20\n        /* \"#utility.yul\":12047:12056   */\n      dup4\n        /* \"#utility.yul\":12043:12061   */\n      add\n        /* \"#utility.yul\":12034:12040   */\n      dup5\n        /* \"#utility.yul\":11990:12062   */\n      tag_753\n      jump\t// in\n    tag_767:\n        /* \"#utility.yul\":11737:12069   */\n      swap4\n      swap3\n      pop\n      pop\n      pop\n      jump\t// out\n        /* \"#utility.yul\":12075:12540   */\n    tag_43:\n        /* \"#utility.yul\":12264:12268   */\n      0x00\n        /* \"#utility.yul\":12302:12304   */\n      0x20\n        /* \"#utility.yul\":12291:12300   */\n      dup3\n        /* \"#utility.yul\":12287:12305   */\n      add\n        /* \"#utility.yul\":12279:12305   */\n      swap1\n      pop\n        /* \"#utility.yul\":12351:12360   */\n      dup2\n        /* \"#utility.yul\":12345:12349   */\n      dup2\n        /* \"#utility.yul\":12341:12361   */\n      sub\n        /* \"#utility.yul\":12337:12338   */\n      0x00\n        /* \"#utility.yul\":12326:12335   */\n      dup4\n        /* \"#utility.yul\":12322:12339   */\n      add\n        /* \"#utility.yul\":12315:12362   */\n      mstore\n        /* \"#utility.yul\":12379:12533   */\n      tag_769\n        /* \"#utility.yul\":12528:12532   */\n      dup2\n        /* \"#utility.yul\":12519:12525   */\n      dup5\n        /* \"#utility.yul\":12379:12533   */\n      tag_656\n      jump\t// in\n    tag_769:\n        /* \"#utility.yul\":12371:12533   */\n      swap1\n      pop\n        /* \"#utility.yul\":12075:12540   */\n      swap3\n      swap2\n      pop\n      pop\n      jump\t// out\n        /* \"#utility.yul\":12546:12861   */\n    tag_88:\n        /* \"#utility.yul\":12685:12689   */\n      0x00\n        /* \"#utility.yul\":12723:12726   */\n      0xe0\n        /* \"#utility.yul\":12712:12721   */\n      dup3\n        /* \"#utility.yul\":12708:12727   */\n      add\n        /* \"#utility.yul\":12700:12727   */\n      swap1\n      pop\n        /* \"#utility.yul\":12737:12854   */\n      tag_771\n        /* \"#utility.yul\":12851:12852   */\n      0x00\n        /* \"#utility.yul\":12840:12849   */\n      dup4\n        /* \"#utility.yul\":12836:12853   */\n      add\n        /* \"#utility.yul\":12827:12833   */\n      dup5\n        /* \"#utility.yul\":12737:12854   */\n      tag_683\n      jump\t// in\n    tag_771:\n        /* \"#utility.yul\":12546:12861   */\n      swap3\n      swap2\n      pop\n      pop\n      jump\t// out\n        /* \"#utility.yul\":12867:13199   */\n    tag_527:\n        /* \"#utility.yul\":12988:12992   */\n      0x00\n        /* \"#utility.yul\":13026:13028   */\n      0x40\n        /* \"#utility.yul\":13015:13024   */\n      dup3\n        /* \"#utility.yul\":13011:13029   */\n      add\n        /* \"#utility.yul\":13003:13029   */\n      swap1\n      pop\n        /* \"#utility.yul\":13039:13110   */\n      tag_773\n        /* \"#utility.yul\":13107:13108   */\n      0x00\n        /* \"#utility.yul\":13096:13105   */\n      dup4\n        /* \"#utility.yul\":13092:13109   */\n      add\n        /* \"#utility.yul\":13083:13089   */\n      dup6\n        /* \"#utility.yul\":13039:13110   */\n      tag_697\n      jump\t// in\n    tag_773:\n        /* \"#utility.yul\":13120:13192   */\n      tag_774\n        /* \"#utility.yul\":13188:13190   */\n      0x20\n        /* \"#utility.yul\":13177:13186   */\n      dup4\n        /* \"#utility.yul\":13173:13191   */\n      add\n        /* \"#utility.yul\":13164:13170   */\n      dup5\n        /* \"#utility.yul\":13120:13192   */\n      tag_753\n      jump\t// in\n    tag_774:\n        /* \"#utility.yul\":12867:13199   */\n      swap4\n      swap3\n      pop\n      pop\n      pop\n      jump\t// out\n        /* \"#utility.yul\":13205:13453   */\n    tag_126:\n        /* \"#utility.yul\":13311:13315   */\n      0x00\n        /* \"#utility.yul\":13349:13351   */\n      0x20\n        /* \"#utility.yul\":13338:13347   */\n      dup3\n        /* \"#utility.yul\":13334:13352   */\n      add\n        /* \"#utility.yul\":13326:13352   */\n      swap1\n      pop\n        /* \"#utility.yul\":13362:13446   */\n      tag_776\n        /* \"#utility.yul\":13443:13444   */\n      0x00\n        /* \"#utility.yul\":13432:13441   */\n      dup4\n        /* \"#utility.yul\":13428:13445   */\n      add\n        /* \"#utility.yul\":13419:13425   */\n      dup5\n        /* \"#utility.yul\":13362:13446   */\n      tag_701\n      jump\t// in\n    tag_776:\n        /* \"#utility.yul\":13205:13453   */\n      swap3\n      swap2\n      pop\n      pop\n      jump\t// out\n        /* \"#utility.yul\":13459:13878   */\n    tag_268:\n        /* \"#utility.yul\":13625:13629   */\n      0x00\n        /* \"#utility.yul\":13663:13665   */\n      0x20\n        /* \"#utility.yul\":13652:13661   */\n      dup3\n        /* \"#utility.yul\":13648:13666   */\n      add\n        /* \"#utility.yul\":13640:13666   */\n      swap1\n      pop\n        /* \"#utility.yul\":13712:13721   */\n      dup2\n        /* \"#utility.yul\":13706:13710   */\n      dup2\n        /* \"#utility.yul\":13702:13722   */\n      sub\n        /* \"#utility.yul\":13698:13699   */\n      0x00\n        /* \"#utility.yul\":13687:13696   */\n      dup4\n        /* \"#utility.yul\":13683:13700   */\n      add\n        /* \"#utility.yul\":13676:13723   */\n      mstore\n        /* \"#utility.yul\":13740:13871   */\n      tag_778\n        /* \"#utility.yul\":13866:13870   */\n      dup2\n        /* \"#utility.yul\":13740:13871   */\n      tag_709\n      jump\t// in\n    tag_778:\n        /* \"#utility.yul\":13732:13871   */\n      swap1\n      pop\n        /* \"#utility.yul\":13459:13878   */\n      swap2\n      swap1\n      pop\n      jump\t// out\n        /* \"#utility.yul\":13884:14303   */\n    tag_454:\n        /* \"#utility.yul\":14050:14054   */\n      0x00\n        /* \"#utility.yul\":14088:14090   */\n      0x20\n        /* \"#utility.yul\":14077:14086   */\n      dup3\n        /* \"#utility.yul\":14073:14091   */\n      add\n        /* \"#utility.yul\":14065:14091   */\n      swap1\n      pop\n        /* \"#utility.yul\":14137:14146   */\n      dup2\n        /* \"#utility.yul\":14131:14135   */\n      dup2\n        /* \"#utility.yul\":14127:14147   */\n      sub\n        /* \"#utility.yul\":14123:14124   */\n      0x00\n        /* \"#utility.yul\":14112:14121   */\n      dup4\n        /* \"#utility.yul\":14108:14125   */\n      add\n        /* \"#utility.yul\":14101:14148   */\n      mstore\n        /* \"#utility.yul\":14165:14296   */\n      tag_780\n        /* \"#utility.yul\":14291:14295   */\n      dup2\n        /* \"#utility.yul\":14165:14296   */\n      tag_715\n      jump\t// in\n    tag_780:\n        /* \"#utility.yul\":14157:14296   */\n      swap1\n      pop\n        /* \"#utility.yul\":13884:14303   */\n      swap2\n      swap1\n      pop\n      jump\t// out\n        /* \"#utility.yul\":14309:14728   */\n    tag_248:\n        /* \"#utility.yul\":14475:14479   */\n      0x00\n        /* \"#utility.yul\":14513:14515   */\n      0x20\n        /* \"#utility.yul\":14502:14511   */\n      dup3\n        /* \"#utility.yul\":14498:14516   */\n      add\n        /* \"#utility.yul\":14490:14516   */\n      swap1\n      pop\n        /* \"#utility.yul\":14562:14571   */\n      dup2\n        /* \"#utility.yul\":14556:14560   */\n      dup2\n        /* \"#utility.yul\":14552:14572   */\n      sub\n        /* \"#utility.yul\":14548:14549   */\n      0x00\n        /* \"#utility.yul\":14537:14546   */\n      dup4\n        /* \"#utility.yul\":14533:14550   */\n      add\n        /* \"#utility.yul\":14526:14573   */\n      mstore\n        /* \"#utility.yul\":14590:14721   */\n      tag_782\n        /* \"#utility.yul\":14716:14720   */\n      dup2\n        /* \"#utility.yul\":14590:14721   */\n      tag_720\n      jump\t// in\n    tag_782:\n        /* \"#utility.yul\":14582:14721   */\n      swap1\n      pop\n        /* \"#utility.yul\":14309:14728   */\n      swap2\n      swap1\n      pop\n      jump\t// out\n        /* \"#utility.yul\":14734:15153   */\n    tag_295:\n        /* \"#utility.yul\":14900:14904   */\n      0x00\n        /* \"#utility.yul\":14938:14940   */\n      0x20\n        /* \"#utility.yul\":14927:14936   */\n      dup3\n        /* \"#utility.yul\":14923:14941   */\n      add\n        /* \"#utility.yul\":14915:14941   */\n      swap1\n      pop\n        /* \"#utility.yul\":14987:14996   */\n      dup2\n        /* \"#utility.yul\":14981:14985   */\n      dup2\n        /* \"#utility.yul\":14977:14997   */\n      sub\n        /* \"#utility.yul\":14973:14974   */\n      0x00\n        /* \"#utility.yul\":14962:14971   */\n      dup4\n        /* \"#utility.yul\":14958:14975   */\n      add\n        /* \"#utility.yul\":14951:14998   */\n      mstore\n        /* \"#utility.yul\":15015:15146   */\n      tag_784\n        /* \"#utility.yul\":15141:15145   */\n      dup2\n        /* \"#utility.yul\":15015:15146   */\n      tag_725\n      jump\t// in\n    tag_784:\n        /* \"#utility.yul\":15007:15146   */\n      swap1\n      pop\n        /* \"#utility.yul\":14734:15153   */\n      swap2\n      swap1\n      pop\n      jump\t// out\n        /* \"#utility.yul\":15159:15578   */\n    tag_475:\n        /* \"#utility.yul\":15325:15329   */\n      0x00\n        /* \"#utility.yul\":15363:15365   */\n      0x20\n        /* \"#utility.yul\":15352:15361   */\n      dup3\n        /* \"#utility.yul\":15348:15366   */\n      add\n        /* \"#utility.yul\":15340:15366   */\n      swap1\n      pop\n        /* \"#utility.yul\":15412:15421   */\n      dup2\n        /* \"#utility.yul\":15406:15410   */\n      dup2\n        /* \"#utility.yul\":15402:15422   */\n      sub\n        /* \"#utility.yul\":15398:15399   */\n      0x00\n        /* \"#utility.yul\":15387:15396   */\n      dup4\n        /* \"#utility.yul\":15383:15400   */\n      add\n        /* \"#utility.yul\":15376:15423   */\n      mstore\n        /* \"#utility.yul\":15440:15571   */\n      tag_786\n        /* \"#utility.yul\":15566:15570   */\n      dup2\n        /* \"#utility.yul\":15440:15571   */\n      tag_730\n      jump\t// in\n    tag_786:\n        /* \"#utility.yul\":15432:15571   */\n      swap1\n      pop\n        /* \"#utility.yul\":15159:15578   */\n      swap2\n      swap1\n      pop\n      jump\t// out\n        /* \"#utility.yul\":15584:16003   */\n    tag_468:\n        /* \"#utility.yul\":15750:15754   */\n      0x00\n        /* \"#utility.yul\":15788:15790   */\n      0x20\n        /* \"#utility.yul\":15777:15786   */\n      dup3\n        /* \"#utility.yul\":15773:15791   */\n      add\n        /* \"#utility.yul\":15765:15791   */\n      swap1\n      pop\n        /* \"#utility.yul\":15837:15846   */\n      dup2\n        /* \"#utility.yul\":15831:15835   */\n      dup2\n        /* \"#utility.yul\":15827:15847   */\n      sub\n        /* \"#utility.yul\":15823:15824   */\n      0x00\n        /* \"#utility.yul\":15812:15821   */\n      dup4\n        /* \"#utility.yul\":15808:15825   */\n      add\n        /* \"#utility.yul\":15801:15848   */\n      mstore\n        /* \"#utility.yul\":15865:15996   */\n      tag_788\n        /* \"#utility.yul\":15991:15995   */\n      dup2\n        /* \"#utility.yul\":15865:15996   */\n      tag_735\n      jump\t// in\n    tag_788:\n        /* \"#utility.yul\":15857:15996   */\n      swap1\n      pop\n        /* \"#utility.yul\":15584:16003   */\n      swap2\n      swap1\n      pop\n      jump\t// out\n        /* \"#utility.yul\":16009:16428   */\n    tag_319:\n        /* \"#utility.yul\":16175:16179   */\n      0x00\n        /* \"#utility.yul\":16213:16215   */\n      0x20\n        /* \"#utility.yul\":16202:16211   */\n      dup3\n        /* \"#utility.yul\":16198:16216   */\n      add\n        /* \"#utility.yul\":16190:16216   */\n      swap1\n      pop\n        /* \"#utility.yul\":16262:16271   */\n      dup2\n        /* \"#utility.yul\":16256:16260   */\n      dup2\n        /* \"#utility.yul\":16252:16272   */\n      sub\n        /* \"#utility.yul\":16248:16249   */\n      0x00\n        /* \"#utility.yul\":16237:16246   */\n      dup4\n        /* \"#utility.yul\":16233:16250   */\n      add\n        /* \"#utility.yul\":16226:16273   */\n      mstore\n        /* \"#utility.yul\":16290:16421   */\n      tag_790\n        /* \"#utility.yul\":16416:16420   */\n      dup2\n        /* \"#utility.yul\":16290:16421   */\n      tag_740\n      jump\t// in\n    tag_790:\n        /* \"#utility.yul\":16282:16421   */\n      swap1\n      pop\n        /* \"#utility.yul\":16009:16428   */\n      swap2\n      swap1\n      pop\n      jump\t// out\n        /* \"#utility.yul\":16434:16853   */\n    tag_495:\n        /* \"#utility.yul\":16600:16604   */\n      0x00\n        /* \"#utility.yul\":16638:16640   */\n      0x20\n        /* \"#utility.yul\":16627:16636   */\n      dup3\n        /* \"#utility.yul\":16623:16641   */\n      add\n        /* \"#utility.yul\":16615:16641   */\n      swap1\n      pop\n        /* \"#utility.yul\":16687:16696   */\n      dup2\n        /* \"#utility.yul\":16681:16685   */\n      dup2\n        /* \"#utility.yul\":16677:16697   */\n      sub\n        /* \"#utility.yul\":16673:16674   */\n      0x00\n        /* \"#utility.yul\":16662:16671   */\n      dup4\n        /* \"#utility.yul\":16658:16675   */\n      add\n        /* \"#utility.yul\":16651:16698   */\n      mstore\n        /* \"#utility.yul\":16715:16846   */\n      tag_792\n        /* \"#utility.yul\":16841:16845   */\n      dup2\n        /* \"#utility.yul\":16715:16846   */\n      tag_745\n      jump\t// in\n    tag_792:\n        /* \"#utility.yul\":16707:16846   */\n      swap1\n      pop\n        /* \"#utility.yul\":16434:16853   */\n      swap2\n      swap1\n      pop\n      jump\t// out\n        /* \"#utility.yul\":16859:17081   */\n    tag_32:\n        /* \"#utility.yul\":16952:16956   */\n      0x00\n        /* \"#utility.yul\":16990:16992   */\n      0x20\n        /* \"#utility.yul\":16979:16988   */\n      dup3\n        /* \"#utility.yul\":16975:16993   */\n      add\n        /* \"#utility.yul\":16967:16993   */\n      swap1\n      pop\n        /* \"#utility.yul\":17003:17074   */\n      tag_794\n        /* \"#utility.yul\":17071:17072   */\n      0x00\n        /* \"#utility.yul\":17060:17069   */\n      dup4\n        /* \"#utility.yul\":17056:17073   */\n      add\n        /* \"#utility.yul\":17047:17053   */\n      dup5\n        /* \"#utility.yul\":17003:17074   */\n      tag_753\n      jump\t// in\n    tag_794:\n        /* \"#utility.yul\":16859:17081   */\n      swap3\n      swap2\n      pop\n      pop\n      jump\t// out\n        /* \"#utility.yul\":17087:17666   */\n    tag_82:\n        /* \"#utility.yul\":17277:17281   */\n      0x00\n        /* \"#utility.yul\":17315:17318   */\n      0x80\n        /* \"#utility.yul\":17304:17313   */\n      dup3\n        /* \"#utility.yul\":17300:17319   */\n      add\n        /* \"#utility.yul\":17292:17319   */\n      swap1\n      pop\n        /* \"#utility.yul\":17329:17400   */\n      tag_796\n        /* \"#utility.yul\":17397:17398   */\n      0x00\n        /* \"#utility.yul\":17386:17395   */\n      dup4\n        /* \"#utility.yul\":17382:17399   */\n      add\n        /* \"#utility.yul\":17373:17379   */\n      dup8\n        /* \"#utility.yul\":17329:17400   */\n      tag_753\n      jump\t// in\n    tag_796:\n        /* \"#utility.yul\":17410:17482   */\n      tag_797\n        /* \"#utility.yul\":17478:17480   */\n      0x20\n        /* \"#utility.yul\":17467:17476   */\n      dup4\n        /* \"#utility.yul\":17463:17481   */\n      add\n        /* \"#utility.yul\":17454:17460   */\n      dup7\n        /* \"#utility.yul\":17410:17482   */\n      tag_753\n      jump\t// in\n    tag_797:\n        /* \"#utility.yul\":17492:17577   */\n      tag_798\n        /* \"#utility.yul\":17573:17575   */\n      0x40\n        /* \"#utility.yul\":17562:17571   */\n      dup4\n        /* \"#utility.yul\":17558:17576   */\n      add\n        /* \"#utility.yul\":17549:17555   */\n      dup6\n        /* \"#utility.yul\":17492:17577   */\n      tag_705\n      jump\t// in\n    tag_798:\n        /* \"#utility.yul\":17587:17659   */\n      tag_799\n        /* \"#utility.yul\":17655:17657   */\n      0x60\n        /* \"#utility.yul\":17644:17653   */\n      dup4\n        /* \"#utility.yul\":17640:17658   */\n      add\n        /* \"#utility.yul\":17631:17637   */\n      dup5\n        /* \"#utility.yul\":17587:17659   */\n      tag_753\n      jump\t// in\n    tag_799:\n        /* \"#utility.yul\":17087:17666   */\n      swap6\n      swap5\n      pop\n      pop\n      pop\n      pop\n      pop\n      jump\t// out\n        /* \"#utility.yul\":17672:17801   */\n    tag_582:\n        /* \"#utility.yul\":17706:17712   */\n      0x00\n        /* \"#utility.yul\":17733:17753   */\n      tag_801\n      tag_802\n      jump\t// in\n    tag_801:\n        /* \"#utility.yul\":17723:17753   */\n      swap1\n      pop\n        /* \"#utility.yul\":17762:17795   */\n      tag_803\n        /* \"#utility.yul\":17790:17794   */\n      dup3\n        /* \"#utility.yul\":17782:17788   */\n      dup3\n        /* \"#utility.yul\":17762:17795   */\n      tag_804\n      jump\t// in\n    tag_803:\n        /* \"#utility.yul\":17672:17801   */\n      swap2\n      swap1\n      pop\n      jump\t// out\n        /* \"#utility.yul\":17807:17882   */\n    tag_802:\n        /* \"#utility.yul\":17840:17846   */\n      0x00\n        /* \"#utility.yul\":17873:17875   */\n      0x40\n        /* \"#utility.yul\":17867:17876   */\n      mload\n        /* \"#utility.yul\":17857:17876   */\n      swap1\n      pop\n        /* \"#utility.yul\":17807:17882   */\n      swap1\n      jump\t// out\n        /* \"#utility.yul\":17888:18137   */\n    tag_581:\n        /* \"#utility.yul\":17963:17967   */\n      0x00\n        /* \"#utility.yul\":18053:18071   */\n      0xffffffffffffffff\n        /* \"#utility.yul\":18045:18051   */\n      dup3\n        /* \"#utility.yul\":18042:18072   */\n      gt\n        /* \"#utility.yul\":18039:18095   */\n      iszero\n      tag_807\n      jumpi\n        /* \"#utility.yul\":18075:18093   */\n      tag_808\n      tag_216\n      jump\t// in\n    tag_808:\n        /* \"#utility.yul\":18039:18095   */\n    tag_807:\n        /* \"#utility.yul\":18125:18129   */\n      0x20\n        /* \"#utility.yul\":18117:18123   */\n      dup3\n        /* \"#utility.yul\":18113:18130   */\n      mul\n        /* \"#utility.yul\":18105:18130   */\n      swap1\n      pop\n        /* \"#utility.yul\":17888:18137   */\n      swap2\n      swap1\n      pop\n      jump\t// out\n        /* \"#utility.yul\":18143:18298   */\n    tag_663:\n        /* \"#utility.yul\":18233:18237   */\n      0x00\n        /* \"#utility.yul\":18256:18259   */\n      dup2\n        /* \"#utility.yul\":18248:18259   */\n      swap1\n      pop\n        /* \"#utility.yul\":18286:18290   */\n      0x20\n        /* \"#utility.yul\":18281:18284   */\n      dup3\n        /* \"#utility.yul\":18277:18291   */\n      add\n        /* \"#utility.yul\":18269:18291   */\n      swap1\n      pop\n        /* \"#utility.yul\":18143:18298   */\n      swap2\n      swap1\n      pop\n      jump\t// out\n        /* \"#utility.yul\":18304:18402   */\n    tag_676:\n        /* \"#utility.yul\":18369:18373   */\n      0x00\n        /* \"#utility.yul\":18392:18395   */\n      dup2\n        /* \"#utility.yul\":18384:18395   */\n      swap1\n      pop\n        /* \"#utility.yul\":18304:18402   */\n      swap2\n      swap1\n      pop\n      jump\t// out\n        /* \"#utility.yul\":18408:18506   */\n    tag_690:\n        /* \"#utility.yul\":18473:18477   */\n      0x00\n        /* \"#utility.yul\":18496:18499   */\n      dup2\n        /* \"#utility.yul\":18488:18499   */\n      swap1\n      pop\n        /* \"#utility.yul\":18408:18506   */\n      swap2\n      swap1\n      pop\n      jump\t// out\n        /* \"#utility.yul\":18512:18649   */\n    tag_659:\n        /* \"#utility.yul\":18602:18608   */\n      0x00\n        /* \"#utility.yul\":18636:18641   */\n      dup2\n        /* \"#utility.yul\":18630:18642   */\n      mload\n        /* \"#utility.yul\":18620:18642   */\n      swap1\n      pop\n        /* \"#utility.yul\":18512:18649   */\n      swap2\n      swap1\n      pop\n      jump\t// out\n        /* \"#utility.yul\":18655:18759   */\n    tag_672:\n        /* \"#utility.yul\":18720:18726   */\n      0x00\n        /* \"#utility.yul\":18748:18752   */\n      0x06\n        /* \"#utility.yul\":18738:18752   */\n      swap1\n      pop\n        /* \"#utility.yul\":18655:18759   */\n      swap2\n      swap1\n      pop\n      jump\t// out\n        /* \"#utility.yul\":18765:18869   */\n    tag_686:\n        /* \"#utility.yul\":18830:18836   */\n      0x00\n        /* \"#utility.yul\":18858:18862   */\n      0x07\n        /* \"#utility.yul\":18848:18862   */\n      swap1\n      pop\n        /* \"#utility.yul\":18765:18869   */\n      swap2\n      swap1\n      pop\n      jump\t// out\n        /* \"#utility.yul\":18875:19011   */\n    tag_669:\n        /* \"#utility.yul\":18968:18972   */\n      0x00\n        /* \"#utility.yul\":19000:19004   */\n      0x20\n        /* \"#utility.yul\":18995:18998   */\n      dup3\n        /* \"#utility.yul\":18991:19005   */\n      add\n        /* \"#utility.yul\":18983:19005   */\n      swap1\n      pop\n        /* \"#utility.yul\":18875:19011   */\n      swap2\n      swap1\n      pop\n      jump\t// out\n        /* \"#utility.yul\":19017:19128   */\n    tag_682:\n        /* \"#utility.yul\":19085:19089   */\n      0x00\n        /* \"#utility.yul\":19117:19121   */\n      0x20\n        /* \"#utility.yul\":19112:19115   */\n      dup3\n        /* \"#utility.yul\":19108:19122   */\n      add\n        /* \"#utility.yul\":19100:19122   */\n      swap1\n      pop\n        /* \"#utility.yul\":19017:19128   */\n      swap2\n      swap1\n      pop\n      jump\t// out\n        /* \"#utility.yul\":19134:19245   */\n    tag_696:\n        /* \"#utility.yul\":19202:19206   */\n      0x00\n        /* \"#utility.yul\":19234:19238   */\n      0x20\n        /* \"#utility.yul\":19229:19232   */\n      dup3\n        /* \"#utility.yul\":19225:19239   */\n      add\n        /* \"#utility.yul\":19217:19239   */\n      swap1\n      pop\n        /* \"#utility.yul\":19134:19245   */\n      swap2\n      swap1\n      pop\n      jump\t// out\n        /* \"#utility.yul\":19251:19458   */\n    tag_661:\n        /* \"#utility.yul\":19373:19384   */\n      0x00\n        /* \"#utility.yul\":19407:19413   */\n      dup3\n        /* \"#utility.yul\":19402:19405   */\n      dup3\n        /* \"#utility.yul\":19395:19414   */\n      mstore\n        /* \"#utility.yul\":19447:19451   */\n      0x20\n        /* \"#utility.yul\":19442:19445   */\n      dup3\n        /* \"#utility.yul\":19438:19452   */\n      add\n        /* \"#utility.yul\":19423:19452   */\n      swap1\n      pop\n        /* \"#utility.yul\":19251:19458   */\n      swap3\n      swap2\n      pop\n      pop\n      jump\t// out\n        /* \"#utility.yul\":19464:19597   */\n    tag_674:\n        /* \"#utility.yul\":19551:19562   */\n      0x00\n        /* \"#utility.yul\":19588:19591   */\n      dup2\n        /* \"#utility.yul\":19573:19591   */\n      swap1\n      pop\n        /* \"#utility.yul\":19464:19597   */\n      swap3\n      swap2\n      pop\n      pop\n      jump\t// out\n        /* \"#utility.yul\":19603:19746   */\n    tag_688:\n        /* \"#utility.yul\":19700:19711   */\n      0x00\n        /* \"#utility.yul\":19737:19740   */\n      dup2\n        /* \"#utility.yul\":19722:19740   */\n      swap1\n      pop\n        /* \"#utility.yul\":19603:19746   */\n      swap3\n      swap2\n      pop\n      pop\n      jump\t// out\n        /* \"#utility.yul\":19752:19921   */\n    tag_712:\n        /* \"#utility.yul\":19836:19847   */\n      0x00\n        /* \"#utility.yul\":19870:19876   */\n      dup3\n        /* \"#utility.yul\":19865:19868   */\n      dup3\n        /* \"#utility.yul\":19858:19877   */\n      mstore\n        /* \"#utility.yul\":19910:19914   */\n      0x20\n        /* \"#utility.yul\":19905:19908   */\n      dup3\n        /* \"#utility.yul\":19901:19915   */\n      add\n        /* \"#utility.yul\":19886:19915   */\n      swap1\n      pop\n        /* \"#utility.yul\":19752:19921   */\n      swap3\n      swap2\n      pop\n      pop\n      jump\t// out\n        /* \"#utility.yul\":19927:20232   */\n    tag_277:\n        /* \"#utility.yul\":19967:19970   */\n      0x00\n        /* \"#utility.yul\":19986:20006   */\n      tag_823\n        /* \"#utility.yul\":20004:20005   */\n      dup3\n        /* \"#utility.yul\":19986:20006   */\n      tag_752\n      jump\t// in\n    tag_823:\n        /* \"#utility.yul\":19981:20006   */\n      swap2\n      pop\n        /* \"#utility.yul\":20020:20040   */\n      tag_824\n        /* \"#utility.yul\":20038:20039   */\n      dup4\n        /* \"#utility.yul\":20020:20040   */\n      tag_752\n      jump\t// in\n    tag_824:\n        /* \"#utility.yul\":20015:20040   */\n      swap3\n      pop\n        /* \"#utility.yul\":20174:20175   */\n      dup3\n        /* \"#utility.yul\":20106:20172   */\n      0xffffffffffffffffffffffffffffffffffffffffffffffffffffffffffffffff\n        /* \"#utility.yul\":20102:20176   */\n      sub\n        /* \"#utility.yul\":20099:20100   */\n      dup3\n        /* \"#utility.yul\":20096:20177   */\n      gt\n        /* \"#utility.yul\":20093:20200   */\n      iszero\n      tag_825\n      jumpi\n        /* \"#utility.yul\":20180:20198   */\n      tag_826\n      tag_827\n      jump\t// in\n    tag_826:\n        /* \"#utility.yul\":20093:20200   */\n    tag_825:\n        /* \"#utility.yul\":20224:20225   */\n      dup3\n        /* \"#utility.yul\":20221:20222   */\n      dup3\n        /* \"#utility.yul\":20217:20226   */\n      add\n        /* \"#utility.yul\":20210:20226   */\n      swap1\n      pop\n        /* \"#utility.yul\":19927:20232   */\n      swap3\n      swap2\n      pop\n      pop\n      jump\t// out\n        /* \"#utility.yul\":20238:20429   */\n    tag_153:\n        /* \"#utility.yul\":20278:20282   */\n      0x00\n        /* \"#utility.yul\":20298:20318   */\n      tag_829\n        /* \"#utility.yul\":20316:20317   */\n      dup3\n        /* \"#utility.yul\":20298:20318   */\n      tag_752\n      jump\t// in\n    tag_829:\n        /* \"#utility.yul\":20293:20318   */\n      swap2\n      pop\n        /* \"#utility.yul\":20332:20352   */\n      tag_830\n        /* \"#utility.yul\":20350:20351   */\n      dup4\n        /* \"#utility.yul\":20332:20352   */\n      tag_752\n      jump\t// in\n    tag_830:\n        /* \"#utility.yul\":20327:20352   */\n      swap3\n      pop\n        /* \"#utility.yul\":20371:20372   */\n      dup3\n        /* \"#utility.yul\":20368:20369   */\n      dup3\n        /* \"#utility.yul\":20365:20373   */\n      lt\n        /* \"#utility.yul\":20362:20396   */\n      iszero\n      tag_831\n      jumpi\n        /* \"#utility.yul\":20376:20394   */\n      tag_832\n      tag_827\n      jump\t// in\n    tag_832:\n        /* \"#utility.yul\":20362:20396   */\n    tag_831:\n        /* \"#utility.yul\":20421:20422   */\n      dup3\n        /* \"#utility.yul\":20418:20419   */\n      dup3\n        /* \"#utility.yul\":20414:20423   */\n      sub\n        /* \"#utility.yul\":20406:20423   */\n      swap1\n      pop\n        /* \"#utility.yul\":20238:20429   */\n      swap3\n      swap2\n      pop\n      pop\n      jump\t// out\n        /* \"#utility.yul\":20435:20531   */\n    tag_655:\n        /* \"#utility.yul\":20472:20479   */\n      0x00\n        /* \"#utility.yul\":20501:20525   */\n      tag_834\n        /* \"#utility.yul\":20519:20524   */\n      dup3\n        /* \"#utility.yul\":20501:20525   */\n      tag_835\n      jump\t// in\n    tag_834:\n        /* \"#utility.yul\":20490:20525   */\n      swap1\n      pop\n        /* \"#utility.yul\":20435:20531   */\n      swap2\n      swap1\n      pop\n      jump\t// out\n        /* \"#utility.yul\":20537:20641   */\n    tag_836:\n        /* \"#utility.yul\":20582:20589   */\n      0x00\n        /* \"#utility.yul\":20611:20635   */\n      tag_838\n        /* \"#utility.yul\":20629:20634   */\n      dup3\n        /* \"#utility.yul\":20611:20635   */\n      tag_835\n      jump\t// in\n    tag_838:\n        /* \"#utility.yul\":20600:20635   */\n      swap1\n      pop\n        /* \"#utility.yul\":20537:20641   */\n      swap2\n      swap1\n      pop\n      jump\t// out\n        /* \"#utility.yul\":20647:20737   */\n    tag_839:\n        /* \"#utility.yul\":20681:20688   */\n      0x00\n        /* \"#utility.yul\":20724:20729   */\n      dup2\n        /* \"#utility.yul\":20717:20730   */\n      iszero\n        /* \"#utility.yul\":20710:20731   */\n      iszero\n        /* \"#utility.yul\":20699:20731   */\n      swap1\n      pop\n        /* \"#utility.yul\":20647:20737   */\n      swap2\n      swap1\n      pop\n      jump\t// out\n        /* \"#utility.yul\":20743:20820   */\n    tag_700:\n        /* \"#utility.yul\":20780:20787   */\n      0x00\n        /* \"#utility.yul\":20809:20814   */\n      dup2\n        /* \"#utility.yul\":20798:20814   */\n      swap1\n      pop\n        /* \"#utility.yul\":20743:20820   */\n      swap2\n      swap1\n      pop\n      jump\t// out\n        /* \"#utility.yul\":20826:20967   */\n    tag_842:\n        /* \"#utility.yul\":20878:20885   */\n      0x00\n        /* \"#utility.yul\":20907:20912   */\n      dup2\n        /* \"#utility.yul\":20896:20912   */\n      swap1\n      pop\n        /* \"#utility.yul\":20913:20961   */\n      tag_844\n        /* \"#utility.yul\":20955:20960   */\n      dup3\n        /* \"#utility.yul\":20913:20961   */\n      tag_845\n      jump\t// in\n    tag_844:\n        /* \"#utility.yul\":20826:20967   */\n      swap2\n      swap1\n      pop\n      jump\t// out\n        /* \"#utility.yul\":20973:21099   */\n    tag_835:\n        /* \"#utility.yul\":21010:21017   */\n      0x00\n        /* \"#utility.yul\":21050:21092   */\n      0xffffffffffffffffffffffffffffffffffffffff\n        /* \"#utility.yul\":21043:21048   */\n      dup3\n        /* \"#utility.yul\":21039:21093   */\n      and\n        /* \"#utility.yul\":21028:21093   */\n      swap1\n      pop\n        /* \"#utility.yul\":20973:21099   */\n      swap2\n      swap1\n      pop\n      jump\t// out\n        /* \"#utility.yul\":21105:21182   */\n    tag_752:\n        /* \"#utility.yul\":21142:21149   */\n      0x00\n        /* \"#utility.yul\":21171:21176   */\n      dup2\n        /* \"#utility.yul\":21160:21176   */\n      swap1\n      pop\n        /* \"#utility.yul\":21105:21182   */\n      swap2\n      swap1\n      pop\n      jump\t// out\n        /* \"#utility.yul\":21188:21322   */\n    tag_651:\n        /* \"#utility.yul\":21246:21255   */\n      0x00\n        /* \"#utility.yul\":21279:21316   */\n      tag_849\n        /* \"#utility.yul\":21310:21315   */\n      dup3\n        /* \"#utility.yul\":21279:21316   */\n      tag_850\n      jump\t// in\n    tag_849:\n        /* \"#utility.yul\":21266:21316   */\n      swap1\n      pop\n        /* \"#utility.yul\":21188:21322   */\n      swap2\n      swap1\n      pop\n      jump\t// out\n        /* \"#utility.yul\":21328:21467   */\n    tag_704:\n        /* \"#utility.yul\":21391:21400   */\n      0x00\n        /* \"#utility.yul\":21424:21461   */\n      tag_852\n        /* \"#utility.yul\":21455:21460   */\n      dup3\n        /* \"#utility.yul\":21424:21461   */\n      tag_850\n      jump\t// in\n    tag_852:\n        /* \"#utility.yul\":21411:21461   */\n      swap1\n      pop\n        /* \"#utility.yul\":21328:21467   */\n      swap2\n      swap1\n      pop\n      jump\t// out\n        /* \"#utility.yul\":21473:21614   */\n    tag_708:\n        /* \"#utility.yul\":21536:21545   */\n      0x00\n        /* \"#utility.yul\":21569:21608   */\n      tag_854\n        /* \"#utility.yul\":21602:21607   */\n      dup3\n        /* \"#utility.yul\":21569:21608   */\n      tag_842\n      jump\t// in\n    tag_854:\n        /* \"#utility.yul\":21556:21608   */\n      swap1\n      pop\n        /* \"#utility.yul\":21473:21614   */\n      swap2\n      swap1\n      pop\n      jump\t// out\n        /* \"#utility.yul\":21620:21746   */\n    tag_850:\n        /* \"#utility.yul\":21670:21679   */\n      0x00\n        /* \"#utility.yul\":21703:21740   */\n      tag_856\n        /* \"#utility.yul\":21734:21739   */\n      dup3\n        /* \"#utility.yul\":21703:21740   */\n      tag_857\n      jump\t// in\n    tag_856:\n        /* \"#utility.yul\":21690:21740   */\n      swap1\n      pop\n        /* \"#utility.yul\":21620:21746   */\n      swap2\n      swap1\n      pop\n      jump\t// out\n        /* \"#utility.yul\":21752:21865   */\n    tag_857:\n        /* \"#utility.yul\":21802:21811   */\n      0x00\n        /* \"#utility.yul\":21835:21859   */\n      tag_859\n        /* \"#utility.yul\":21853:21858   */\n      dup3\n        /* \"#utility.yul\":21835:21859   */\n      tag_835\n      jump\t// in\n    tag_859:\n        /* \"#utility.yul\":21822:21859   */\n      swap1\n      pop\n        /* \"#utility.yul\":21752:21865   */\n      swap2\n      swap1\n      pop\n      jump\t// out\n        /* \"#utility.yul\":21871:22152   */\n    tag_804:\n        /* \"#utility.yul\":21954:21981   */\n      tag_861\n        /* \"#utility.yul\":21976:21980   */\n      dup3\n        /* \"#utility.yul\":21954:21981   */\n      tag_862\n      jump\t// in\n    tag_861:\n        /* \"#utility.yul\":21946:21952   */\n      dup2\n        /* \"#utility.yul\":21942:21982   */\n      add\n        /* \"#utility.yul\":22084:22090   */\n      dup2\n        /* \"#utility.yul\":22072:22082   */\n      dup2\n        /* \"#utility.yul\":22069:22091   */\n      lt\n        /* \"#utility.yul\":22048:22066   */\n      0xffffffffffffffff\n        /* \"#utility.yul\":22036:22046   */\n      dup3\n        /* \"#utility.yul\":22033:22067   */\n      gt\n        /* \"#utility.yul\":22030:22092   */\n      or\n        /* \"#utility.yul\":22027:22115   */\n      iszero\n      tag_863\n      jumpi\n        /* \"#utility.yul\":22095:22113   */\n      tag_864\n      tag_216\n      jump\t// in\n    tag_864:\n        /* \"#utility.yul\":22027:22115   */\n    tag_863:\n        /* \"#utility.yul\":22135:22145   */\n      dup1\n        /* \"#utility.yul\":22131:22133   */\n      0x40\n        /* \"#utility.yul\":22124:22146   */\n      mstore\n        /* \"#utility.yul\":21914:22152   */\n      pop\n        /* \"#utility.yul\":21871:22152   */\n      pop\n      pop\n      jump\t// out\n        /* \"#utility.yul\":22158:22391   */\n    tag_172:\n        /* \"#utility.yul\":22197:22200   */\n      0x00\n        /* \"#utility.yul\":22220:22244   */\n      tag_866\n        /* \"#utility.yul\":22238:22243   */\n      dup3\n        /* \"#utility.yul\":22220:22244   */\n      tag_752\n      jump\t// in\n    tag_866:\n        /* \"#utility.yul\":22211:22244   */\n      swap2\n      pop\n        /* \"#utility.yul\":22266:22332   */\n      0xffffffffffffffffffffffffffffffffffffffffffffffffffffffffffffffff\n        /* \"#utility.yul\":22259:22264   */\n      dup3\n        /* \"#utility.yul\":22256:22333   */\n      eq\n        /* \"#utility.yul\":22253:22356   */\n      iszero\n      tag_867\n      jumpi\n        /* \"#utility.yul\":22336:22354   */\n      tag_868\n      tag_827\n      jump\t// in\n    tag_868:\n        /* \"#utility.yul\":22253:22356   */\n    tag_867:\n        /* \"#utility.yul\":22383:22384   */\n      0x01\n        /* \"#utility.yul\":22376:22381   */\n      dup3\n        /* \"#utility.yul\":22372:22385   */\n      add\n        /* \"#utility.yul\":22365:22385   */\n      swap1\n      pop\n        /* \"#utility.yul\":22158:22391   */\n      swap2\n      swap1\n      pop\n      jump\t// out\n        /* \"#utility.yul\":22397:22573   */\n    tag_529:\n        /* \"#utility.yul\":22429:22430   */\n      0x00\n        /* \"#utility.yul\":22446:22466   */\n      tag_870\n        /* \"#utility.yul\":22464:22465   */\n      dup3\n        /* \"#utility.yul\":22446:22466   */\n      tag_752\n      jump\t// in\n    tag_870:\n        /* \"#utility.yul\":22441:22466   */\n      swap2\n      pop\n        /* \"#utility.yul\":22480:22500   */\n      tag_871\n        /* \"#utility.yul\":22498:22499   */\n      dup4\n        /* \"#utility.yul\":22480:22500   */\n      tag_752\n      jump\t// in\n    tag_871:\n        /* \"#utility.yul\":22475:22500   */\n      swap3\n      pop\n        /* \"#utility.yul\":22519:22520   */\n      dup3\n        /* \"#utility.yul\":22509:22544   */\n      tag_872\n      jumpi\n        /* \"#utility.yul\":22524:22542   */\n      tag_873\n      tag_874\n      jump\t// in\n    tag_873:\n        /* \"#utility.yul\":22509:22544   */\n    tag_872:\n        /* \"#utility.yul\":22565:22566   */\n      dup3\n        /* \"#utility.yul\":22562:22563   */\n      dup3\n        /* \"#utility.yul\":22558:22567   */\n      mod\n        /* \"#utility.yul\":22553:22567   */\n      swap1\n      pop\n        /* \"#utility.yul\":22397:22573   */\n      swap3\n      swap2\n      pop\n      pop\n      jump\t// out\n        /* \"#utility.yul\":22579:22759   */\n    tag_827:\n        /* \"#utility.yul\":22627:22704   */\n      0x4e487b7100000000000000000000000000000000000000000000000000000000\n        /* \"#utility.yul\":22624:22625   */\n      0x00\n        /* \"#utility.yul\":22617:22705   */\n      mstore\n        /* \"#utility.yul\":22724:22728   */\n      0x11\n        /* \"#utility.yul\":22721:22722   */\n      0x04\n        /* \"#utility.yul\":22714:22729   */\n      mstore\n        /* \"#utility.yul\":22748:22752   */\n      0x24\n        /* \"#utility.yul\":22745:22746   */\n      0x00\n        /* \"#utility.yul\":22738:22753   */\n      revert\n        /* \"#utility.yul\":22765:22945   */\n    tag_874:\n        /* \"#utility.yul\":22813:22890   */\n      0x4e487b7100000000000000000000000000000000000000000000000000000000\n        /* \"#utility.yul\":22810:22811   */\n      0x00\n        /* \"#utility.yul\":22803:22891   */\n      mstore\n        /* \"#utility.yul\":22910:22914   */\n      0x12\n        /* \"#utility.yul\":22907:22908   */\n      0x04\n        /* \"#utility.yul\":22900:22915   */\n      mstore\n        /* \"#utility.yul\":22934:22938   */\n      0x24\n        /* \"#utility.yul\":22931:22932   */\n      0x00\n        /* \"#utility.yul\":22924:22939   */\n      revert\n        /* \"#utility.yul\":22951:23131   */\n    tag_139:\n        /* \"#utility.yul\":22999:23076   */\n      0x4e487b7100000000000000000000000000000000000000000000000000000000\n        /* \"#utility.yul\":22996:22997   */\n      0x00\n        /* \"#utility.yul\":22989:23077   */\n      mstore\n        /* \"#utility.yul\":23096:23100   */\n      0x21\n        /* \"#utility.yul\":23093:23094   */\n      0x04\n        /* \"#utility.yul\":23086:23101   */\n      mstore\n        /* \"#utility.yul\":23120:23124   */\n      0x24\n        /* \"#utility.yul\":23117:23118   */\n      0x00\n        /* \"#utility.yul\":23110:23125   */\n      revert\n        /* \"#utility.yul\":23137:23317   */\n    tag_134:\n        /* \"#utility.yul\":23185:23262   */\n      0x4e487b7100000000000000000000000000000000000000000000000000000000\n        /* \"#utility.yul\":23182:23183   */\n      0x00\n        /* \"#utility.yul\":23175:23263   */\n      mstore\n        /* \"#utility.yul\":23282:23286   */\n      0x32\n        /* \"#utility.yul\":23279:23280   */\n      0x04\n        /* \"#utility.yul\":23272:23287   */\n      mstore\n        /* \"#utility.yul\":23306:23310   */\n      0x24\n        /* \"#utility.yul\":23303:23304   */\n      0x00\n        /* \"#utility.yul\":23296:23311   */\n      revert\n        /* \"#utility.yul\":23323:23503   */\n    tag_216:\n        /* \"#utility.yul\":23371:23448   */\n      0x4e487b7100000000000000000000000000000000000000000000000000000000\n        /* \"#utility.yul\":23368:23369   */\n      0x00\n        /* \"#utility.yul\":23361:23449   */\n      mstore\n        /* \"#utility.yul\":23468:23472   */\n      0x41\n        /* \"#utility.yul\":23465:23466   */\n      0x04\n        /* \"#utility.yul\":23458:23473   */\n      mstore\n        /* \"#utility.yul\":23492:23496   */\n      0x24\n        /* \"#utility.yul\":23489:23490   */\n      0x00\n        /* \"#utility.yul\":23482:23497   */\n      revert\n        /* \"#utility.yul\":23509:23626   */\n    tag_603:\n        /* \"#utility.yul\":23618:23619   */\n      0x00\n        /* \"#utility.yul\":23615:23616   */\n      dup1\n        /* \"#utility.yul\":23608:23620   */\n      revert\n        /* \"#utility.yul\":23632:23749   */\n    tag_585:\n        /* \"#utility.yul\":23741:23742   */\n      0x00\n        /* \"#utility.yul\":23738:23739   */\n      dup1\n        /* \"#utility.yul\":23731:23743   */\n      revert\n        /* \"#utility.yul\":23878:23995   */\n    tag_618:\n        /* \"#utility.yul\":23987:23988   */\n      0x00\n        /* \"#utility.yul\":23984:23985   */\n      dup1\n        /* \"#utility.yul\":23977:23989   */\n      revert\n        /* \"#utility.yul\":24001:24103   */\n    tag_862:\n        /* \"#utility.yul\":24042:24048   */\n      0x00\n        /* \"#utility.yul\":24093:24095   */\n      0x1f\n        /* \"#utility.yul\":24089:24096   */\n      not\n        /* \"#utility.yul\":24084:24086   */\n      0x1f\n        /* \"#utility.yul\":24077:24082   */\n      dup4\n        /* \"#utility.yul\":24073:24087   */\n      add\n        /* \"#utility.yul\":24069:24097   */\n      and\n        /* \"#utility.yul\":24059:24097   */\n      swap1\n      pop\n        /* \"#utility.yul\":24001:24103   */\n      swap2\n      swap1\n      pop\n      jump\t// out\n        /* \"#utility.yul\":24109:24274   */\n    tag_714:\n        /* \"#utility.yul\":24249:24266   */\n      0x4e6f742076616c69642076616c75650000000000000000000000000000000000\n        /* \"#utility.yul\":24245:24246   */\n      0x00\n        /* \"#utility.yul\":24237:24243   */\n      dup3\n        /* \"#utility.yul\":24233:24247   */\n      add\n        /* \"#utility.yul\":24226:24267   */\n      mstore\n        /* \"#utility.yul\":24109:24274   */\n      pop\n      jump\t// out\n        /* \"#utility.yul\":24280:24505   */\n    tag_719:\n        /* \"#utility.yul\":24420:24454   */\n      0x4f776e61626c653a206e6577206f776e657220697320746865207a65726f2061\n        /* \"#utility.yul\":24416:24417   */\n      0x00\n        /* \"#utility.yul\":24408:24414   */\n      dup3\n        /* \"#utility.yul\":24404:24418   */\n      add\n        /* \"#utility.yul\":24397:24455   */\n      mstore\n        /* \"#utility.yul\":24489:24497   */\n      0x6464726573730000000000000000000000000000000000000000000000000000\n        /* \"#utility.yul\":24484:24486   */\n      0x20\n        /* \"#utility.yul\":24476:24482   */\n      dup3\n        /* \"#utility.yul\":24472:24487   */\n      add\n        /* \"#utility.yul\":24465:24498   */\n      mstore\n        /* \"#utility.yul\":24280:24505   */\n      pop\n      jump\t// out\n        /* \"#utility.yul\":24511:24670   */\n    tag_724:\n        /* \"#utility.yul\":24651:24662   */\n      0x526f756e6420456e640000000000000000000000000000000000000000000000\n        /* \"#utility.yul\":24647:24648   */\n      0x00\n        /* \"#utility.yul\":24639:24645   */\n      dup3\n        /* \"#utility.yul\":24635:24649   */\n      add\n        /* \"#utility.yul\":24628:24663   */\n      mstore\n        /* \"#utility.yul\":24511:24670   */\n      pop\n      jump\t// out\n        /* \"#utility.yul\":24676:24897   */\n    tag_729:\n        /* \"#utility.yul\":24816:24850   */\n      0x4f6e6c79206e756d626572732030207e2034352063616e20626520656e746572\n        /* \"#utility.yul\":24812:24813   */\n      0x00\n        /* \"#utility.yul\":24804:24810   */\n      dup3\n        /* \"#utility.yul\":24800:24814   */\n      add\n        /* \"#utility.yul\":24793:24851   */\n      mstore\n        /* \"#utility.yul\":24885:24889   */\n      0x6564000000000000000000000000000000000000000000000000000000000000\n        /* \"#utility.yul\":24880:24882   */\n      0x20\n        /* \"#utility.yul\":24872:24878   */\n      dup3\n        /* \"#utility.yul\":24868:24883   */\n      add\n        /* \"#utility.yul\":24861:24890   */\n      mstore\n        /* \"#utility.yul\":24676:24897   */\n      pop\n      jump\t// out\n        /* \"#utility.yul\":24903:25074   */\n    tag_734:\n        /* \"#utility.yul\":25043:25066   */\n      0x54686520726f756e64206e6f7420656e6474696d650000000000000000000000\n        /* \"#utility.yul\":25039:25040   */\n      0x00\n        /* \"#utility.yul\":25031:25037   */\n      dup3\n        /* \"#utility.yul\":25027:25041   */\n      add\n        /* \"#utility.yul\":25020:25067   */\n      mstore\n        /* \"#utility.yul\":24903:25074   */\n      pop\n      jump\t// out\n        /* \"#utility.yul\":25080:25249   */\n    tag_739:\n        /* \"#utility.yul\":25220:25241   */\n      0x526f756e6420616c726561647920656e64656400000000000000000000000000\n        /* \"#utility.yul\":25216:25217   */\n      0x00\n        /* \"#utility.yul\":25208:25214   */\n      dup3\n        /* \"#utility.yul\":25204:25218   */\n      add\n        /* \"#utility.yul\":25197:25242   */\n      mstore\n        /* \"#utility.yul\":25080:25249   */\n      pop\n      jump\t// out\n        /* \"#utility.yul\":25255:25437   */\n    tag_744:\n        /* \"#utility.yul\":25395:25429   */\n      0x4f776e61626c653a2063616c6c6572206973206e6f7420746865206f776e6572\n        /* \"#utility.yul\":25391:25392   */\n      0x00\n        /* \"#utility.yul\":25383:25389   */\n      dup3\n        /* \"#utility.yul\":25379:25393   */\n      add\n        /* \"#utility.yul\":25372:25430   */\n      mstore\n        /* \"#utility.yul\":25255:25437   */\n      pop\n      jump\t// out\n        /* \"#utility.yul\":25443:25610   */\n    tag_749:\n        /* \"#utility.yul\":25583:25602   */\n      0x526f756e6420696e2070726f6772657373000000000000000000000000000000\n        /* \"#utility.yul\":25579:25580   */\n      0x00\n        /* \"#utility.yul\":25571:25577   */\n      dup3\n        /* \"#utility.yul\":25567:25581   */\n      add\n        /* \"#utility.yul\":25560:25603   */\n      mstore\n        /* \"#utility.yul\":25443:25610   */\n      pop\n      jump\t// out\n        /* \"#utility.yul\":25616:25736   */\n    tag_845:\n        /* \"#utility.yul\":25704:25705   */\n      0x02\n        /* \"#utility.yul\":25697:25702   */\n      dup2\n        /* \"#utility.yul\":25694:25706   */\n      lt\n        /* \"#utility.yul\":25684:25730   */\n      tag_895\n      jumpi\n        /* \"#utility.yul\":25710:25728   */\n      tag_896\n      tag_139\n      jump\t// in\n    tag_896:\n        /* \"#utility.yul\":25684:25730   */\n    tag_895:\n        /* \"#utility.yul\":25616:25736   */\n      pop\n      jump\t// out\n        /* \"#utility.yul\":25742:25864   */\n    tag_594:\n        /* \"#utility.yul\":25815:25839   */\n      tag_898\n        /* \"#utility.yul\":25833:25838   */\n      dup2\n        /* \"#utility.yul\":25815:25839   */\n      tag_655\n      jump\t// in\n    tag_898:\n        /* \"#utility.yul\":25808:25813   */\n      dup2\n        /* \"#utility.yul\":25805:25840   */\n      eq\n        /* \"#utility.yul\":25795:25858   */\n      tag_899\n      jumpi\n        /* \"#utility.yul\":25854:25855   */\n      0x00\n        /* \"#utility.yul\":25851:25852   */\n      dup1\n        /* \"#utility.yul\":25844:25856   */\n      revert\n        /* \"#utility.yul\":25795:25858   */\n    tag_899:\n        /* \"#utility.yul\":25742:25864   */\n      pop\n      jump\t// out\n        /* \"#utility.yul\":25870:26008   */\n    tag_598:\n        /* \"#utility.yul\":25951:25983   */\n      tag_901\n        /* \"#utility.yul\":25977:25982   */\n      dup2\n        /* \"#utility.yul\":25951:25983   */\n      tag_836\n      jump\t// in\n    tag_901:\n        /* \"#utility.yul\":25944:25949   */\n      dup2\n        /* \"#utility.yul\":25941:25984   */\n      eq\n        /* \"#utility.yul\":25931:26002   */\n      tag_902\n      jumpi\n        /* \"#utility.yul\":25998:25999   */\n      0x00\n        /* \"#utility.yul\":25995:25996   */\n      dup1\n        /* \"#utility.yul\":25988:26000   */\n      revert\n        /* \"#utility.yul\":25931:26002   */\n    tag_902:\n        /* \"#utility.yul\":25870:26008   */\n      pop\n      jump\t// out\n        /* \"#utility.yul\":26014:26130   */\n    tag_608:\n        /* \"#utility.yul\":26084:26105   */\n      tag_904\n        /* \"#utility.yul\":26099:26104   */\n      dup2\n        /* \"#utility.yul\":26084:26105   */\n      tag_839\n      jump\t// in\n    tag_904:\n        /* \"#utility.yul\":26077:26082   */\n      dup2\n        /* \"#utility.yul\":26074:26106   */\n      eq\n        /* \"#utility.yul\":26064:26124   */\n      tag_905\n      jumpi\n        /* \"#utility.yul\":26120:26121   */\n      0x00\n        /* \"#utility.yul\":26117:26118   */\n      dup1\n        /* \"#utility.yul\":26110:26122   */\n      revert\n        /* \"#utility.yul\":26064:26124   */\n    tag_905:\n        /* \"#utility.yul\":26014:26130   */\n      pop\n      jump\t// out\n        /* \"#utility.yul\":26136:26258   */\n    tag_611:\n        /* \"#utility.yul\":26209:26233   */\n      tag_907\n        /* \"#utility.yul\":26227:26232   */\n      dup2\n        /* \"#utility.yul\":26209:26233   */\n      tag_752\n      jump\t// in\n    tag_907:\n        /* \"#utility.yul\":26202:26207   */\n      dup2\n        /* \"#utility.yul\":26199:26234   */\n      eq\n        /* \"#utility.yul\":26189:26252   */\n      tag_908\n      jumpi\n        /* \"#utility.yul\":26248:26249   */\n      0x00\n        /* \"#utility.yul\":26245:26246   */\n      dup1\n        /* \"#utility.yul\":26238:26250   */\n      revert\n        /* \"#utility.yul\":26189:26252   */\n    tag_908:\n        /* \"#utility.yul\":26136:26258   */\n      pop\n      jump\t// out\n\n    auxdata: 0xa2646970667358221220df02b908156eb54892ed226698bfc67d4ad08299393fcbb8579d471325953c7564736f6c63430008070033\n}\n",
				"bytecode": {
					"linkReferences": {},
					"object": "60806040523480156200001157600080fd5b50604051620037773803806200377783398181016040528101906200003791906200040a565b620000576200004b620000c760201b60201c565b620000cf60201b60201c565b83600160006101000a81548173ffffffffffffffffffffffffffffffffffffffff021916908373ffffffffffffffffffffffffffffffffffffffff160217905550826006819055508160028190555080600381905550620000bd6200019360201b60201c565b505050506200069b565b600033905090565b60008060009054906101000a900473ffffffffffffffffffffffffffffffffffffffff169050816000806101000a81548173ffffffffffffffffffffffffffffffffffffffff021916908373ffffffffffffffffffffffffffffffffffffffff1602179055508173ffffffffffffffffffffffffffffffffffffffff168173ffffffffffffffffffffffffffffffffffffffff167f8be0079c531659141344cd1fd0a4f28419497f9722a3daafe3b4186f6b6457e060405160405180910390a35050565b60006004805490501180156200021b5750600180811115620001ba57620001b9620005db565b5b60046001600480549050620001d0919062000533565b81548110620001e457620001e36200060a565b5b90600052602060002090600b020160020160009054906101000a900460ff166001811115620002185762000217620005db565b5b14155b156200025e576040517f08c379a00000000000000000000000000000000000000000000000000000000081526004016200025590620004a3565b60405180910390fd5b6200026862000356565b60006040518060a00160405280428152602001600654426200028b9190620004d6565b815260200160006001811115620002a757620002a6620005db565b5b81526020018381526020016000815250905060048190806001815401808255809150506001900390600052602060002090600b0201600090919091909150600082015181600001556020820151816001015560408201518160020160006101000a81548160ff02191690836001811115620003275762000326620005db565b5b02179055506060820151816003019060076200034592919062000378565b50608082015181600a015550505050565b6040518060e00160405280600790602082028036833780820191505090505090565b8260078101928215620003aa579160200282015b82811115620003a95782518255916020019190600101906200038c565b5b509050620003b99190620003bd565b5090565b5b80821115620003d8576000816000905550600101620003be565b5090565b600081519050620003ed8162000667565b92915050565b600081519050620004048162000681565b92915050565b6000806000806080858703121562000427576200042662000639565b5b60006200043787828801620003dc565b94505060206200044a87828801620003f3565b93505060406200045d87828801620003f3565b92505060606200047087828801620003f3565b91505092959194509250565b60006200048b601183620004c5565b915062000498826200063e565b602082019050919050565b60006020820190508181036000830152620004be816200047c565b9050919050565b600082825260208201905092915050565b6000620004e382620005a2565b9150620004f083620005a2565b9250827fffffffffffffffffffffffffffffffffffffffffffffffffffffffffffffffff03821115620005285762000527620005ac565b5b828201905092915050565b60006200054082620005a2565b91506200054d83620005a2565b925082821015620005635762000562620005ac565b5b828203905092915050565b60006200057b8262000582565b9050919050565b600073ffffffffffffffffffffffffffffffffffffffff82169050919050565b6000819050919050565b7f4e487b7100000000000000000000000000000000000000000000000000000000600052601160045260246000fd5b7f4e487b7100000000000000000000000000000000000000000000000000000000600052602160045260246000fd5b7f4e487b7100000000000000000000000000000000000000000000000000000000600052603260045260246000fd5b600080fd5b7f526f756e6420696e2070726f6772657373000000000000000000000000000000600082015250565b62000672816200056e565b81146200067e57600080fd5b50565b6200068c81620005a2565b81146200069857600080fd5b50565b6130cc80620006ab6000396000f3fe6080604052600436106101405760003560e01c80638c65c81f116100b6578063bedf0f4a1161006f578063bedf0f4a1461042b578063dd8ab8f914610442578063e12ed13c1461046d578063f2fde38b14610498578063fc0c546a146104c1578063fea9b572146104ec57610140565b80638c65c81f146103155780638cd85dc2146103555780638da5cb5b14610392578063a2b40d19146103bd578063a8bd5634146103e6578063b55585621461040257610140565b806349c4e5b81161010857806349c4e5b81461021657806350b447121461024157806363c756071461027f5780636f9fb98a146102a8578063715018a6146102d35780637157c113146102ea57610140565b80631a95f15f14610145578063379607f51461017057806344352d0a1461019957806346583a26146101d657806347e40553146101ff575b600080fd5b34801561015157600080fd5b5061015a610517565b6040516101679190612a32565b60405180910390f35b34801561017c57600080fd5b50610197600480360381019061019291906124f6565b61051d565b005b3480156101a557600080fd5b506101c060048036038101906101bb91906124f6565b610857565b6040516101cd91906128b1565b60405180910390f35b3480156101e257600080fd5b506101fd60048036038101906101f8919061249c565b610af6565b005b34801561020b57600080fd5b50610214611020565b005b34801561022257600080fd5b5061022b6110bd565b6040516102389190612a32565b60405180910390f35b34801561024d57600080fd5b50610268600480360381019061026391906124f6565b6110c3565b604051610276929190612888565b60405180910390f35b34801561028b57600080fd5b506102a660048036038101906102a191906124f6565b611117565b005b3480156102b457600080fd5b506102bd61119d565b6040516102ca9190612a32565b60405180910390f35b3480156102df57600080fd5b506102e86111a5565b005b3480156102f657600080fd5b506102ff61122d565b60405161030c9190612a32565b60405180910390f35b34801561032157600080fd5b5061033c600480360381019061033791906124f6565b611233565b60405161034c9493929190612a4d565b60405180910390f35b34801561036157600080fd5b5061037c600480360381019061037791906124f6565b611280565b60405161038991906128d3565b60405180910390f35b34801561039e57600080fd5b506103a76112f0565b6040516103b4919061280d565b60405180910390f35b3480156103c957600080fd5b506103e460048036038101906103df91906124f6565b611319565b005b61040060048036038101906103fb919061249c565b61139f565b005b34801561040e57600080fd5b506104296004803603810190610424919061246f565b61176a565b005b34801561043757600080fd5b50610440611943565b005b34801561044e57600080fd5b50610457611a30565b6040516104649190612a32565b60405180910390f35b34801561047957600080fd5b50610482611a35565b60405161048f9190612a32565b60405180910390f35b3480156104a457600080fd5b506104bf60048036038101906104ba9190612442565b611a3b565b005b3480156104cd57600080fd5b506104d6611b33565b6040516104e39190612917565b60405180910390f35b3480156104f857600080fd5b50610501611b59565b60405161050e9190612a32565b60405180910390f35b60025481565b3373ffffffffffffffffffffffffffffffffffffffff166005828154811061054857610547612e14565b5b906000526020600020906008020160000160009054906101000a900473ffffffffffffffffffffffffffffffffffffffff1673ffffffffffffffffffffffffffffffffffffffff161461059a57600080fd5b6001808111156105ad576105ac612de5565b5b6004600583815481106105c3576105c2612e14565b5b906000526020600020906008020160010154815481106105e6576105e5612e14565b5b90600052602060002090600b020160020160009054906101000a900460ff16600181111561061757610616612de5565b5b1461062157600080fd5b60006005828154811061063757610636612e14565b5b906000526020600020906008020160020190506000600460016004805490506106609190612bd7565b8154811061067157610670612e14565b5b90600052602060002090600b02016003019050600080600080600090505b600681101561074c5760005b600160076106a99190612bd7565b811015610738578581600781106106c3576106c2612e14565b5b01548783600681106106d8576106d7612e14565b5b015414156106ef5783806106eb90612d0d565b9450505b8560066007811061070357610702612e14565b5b015487836006811061071857610717612e14565b5b0154141561072557600192505b808061073090612d0d565b91505061069b565b50808061074490612d0d565b91505061068f565b50600682141561075e574792506107a4565b60058214801561076b5750805b15610775576107a3565b6005821415610783576107a2565b6004821415610791576107a1565b600382141561079f576107a0565b5b5b5b5b5b600586815481106107b8576107b7612e14565b5b9060005260206000209060080201600080820160006101000a81549073ffffffffffffffffffffffffffffffffffffffff021916905560018201600090556002820160006108069190612253565b50503373ffffffffffffffffffffffffffffffffffffffff166108fc849081150290604051600060405180830381858888f1935050505015801561084e573d6000803e3d6000fd5b50505050505050565b606060008060005b600580549050811015610937573373ffffffffffffffffffffffffffffffffffffffff166005828154811061089757610896612e14565b5b906000526020600020906008020160000160009054906101000a900473ffffffffffffffffffffffffffffffffffffffff1673ffffffffffffffffffffffffffffffffffffffff16148015610910575084600582815481106108fc576108fb612e14565b5b906000526020600020906008020160010154145b1561092457828061092090612d0d565b9350505b808061092f90612d0d565b91505061085f565b5060008267ffffffffffffffff81111561095457610953612e43565b5b60405190808252806020026020018201604052801561098d57816020015b61097a612266565b8152602001906001900390816109725790505b50905060005b600580549050811015610aea573373ffffffffffffffffffffffffffffffffffffffff16600582815481106109cb576109ca612e14565b5b906000526020600020906008020160000160009054906101000a900473ffffffffffffffffffffffffffffffffffffffff1673ffffffffffffffffffffffffffffffffffffffff16148015610a4457508560058281548110610a3057610a2f612e14565b5b906000526020600020906008020160010154145b15610ad75760058181548110610a5d57610a5c612e14565b5b9060005260206000209060080201600201600680602002604051908101604052809291908260068015610aa5576020028201915b815481526020019060010190808311610a91575b5050505050828481518110610abd57610abc612e14565b5b60200260200101819052508280610ad390612d0d565b9350505b8080610ae290612d0d565b915050610993565b50809350505050919050565b4260046001600480549050610b0b9190612bd7565b81548110610b1c57610b1b612e14565b5b90600052602060002090600b0201600101541015610b6f576040517f08c379a0000000000000000000000000000000000000000000000000000000008152600401610b6690612972565b60405180910390fd5b600180811115610b8257610b81612de5565b5b60046001600480549050610b969190612bd7565b81548110610ba757610ba6612e14565b5b90600052602060002090600b020160020160009054906101000a900460ff166001811115610bd857610bd7612de5565b5b1415610c19576040517f08c379a0000000000000000000000000000000000000000000000000000000008152600401610c1090612972565b60405180910390fd5b600354600160009054906101000a900473ffffffffffffffffffffffffffffffffffffffff1673ffffffffffffffffffffffffffffffffffffffff166370a08231336040518263ffffffff1660e01b8152600401610c77919061280d565b60206040518083038186803b158015610c8f57600080fd5b505afa158015610ca3573d6000803e3d6000fd5b505050506040513d601f19601f82011682018060405250810190610cc79190612523565b1015610d08576040517f08c379a0000000000000000000000000000000000000000000000000000000008152600401610cff90612932565b60405180910390fd5b60005b60016006610d199190612bd7565b811015610d9d576000600182610d2f9190612b81565b90505b6006811015610d8957828160068110610d4e57610d4d612e14565b5b6020020151838360068110610d6657610d65612e14565b5b60200201511415610d7657600080fd5b8080610d8190612d0d565b915050610d32565b508080610d9590612d0d565b915050610d0b565b5060005b6006811015610e3c576001828260068110610dbf57610dbe612e14565b5b602002015110158015610dea5750602d828260068110610de257610de1612e14565b5b602002015111155b610e29576040517f08c379a0000000000000000000000000000000000000000000000000000000008152600401610e2090612992565b60405180910390fd5b8080610e3490612d0d565b915050610da1565b50600160009054906101000a900473ffffffffffffffffffffffffffffffffffffffff1673ffffffffffffffffffffffffffffffffffffffff166323b872dd33306003546040518463ffffffff1660e01b8152600401610e9e93929190612851565b602060405180830381600087803b158015610eb857600080fd5b505af1158015610ecc573d6000803e3d6000fd5b505050506040513d601f19601f82011682018060405250810190610ef091906124c9565b50600060405180606001604052803373ffffffffffffffffffffffffffffffffffffffff1681526020016001600480549050610f2c9190612bd7565b8152602001838152509050600581908060018154018082558091505060019003906000526020600020906008020160009091909190915060008201518160000160006101000a81548173ffffffffffffffffffffffffffffffffffffffff021916908373ffffffffffffffffffffffffffffffffffffffff16021790555060208201518160010155604082015181600201906006610fcb929190612288565b505050600160046001600480549050610fe49190612bd7565b81548110610ff557610ff4612e14565b5b90600052602060002090600b0201600a0160008282546110159190612b81565b925050819055505050565b611028611b5e565b73ffffffffffffffffffffffffffffffffffffffff166110466112f0565b73ffffffffffffffffffffffffffffffffffffffff161461109c576040517f08c379a0000000000000000000000000000000000000000000000000000000008152600401611093906129f2565b60405180910390fd5b600060048054905011156110b3576110b2611b66565b5b6110bb611cf2565b565b60035481565b600581815481106110d357600080fd5b90600052602060002090600802016000915090508060000160009054906101000a900473ffffffffffffffffffffffffffffffffffffffff16908060010154905082565b61111f611b5e565b73ffffffffffffffffffffffffffffffffffffffff1661113d6112f0565b73ffffffffffffffffffffffffffffffffffffffff1614611193576040517f08c379a000000000000000000000000000000000000000000000000000000000815260040161118a906129f2565b60405180910390fd5b8060068190555050565b600047905090565b6111ad611b5e565b73ffffffffffffffffffffffffffffffffffffffff166111cb6112f0565b73ffffffffffffffffffffffffffffffffffffffff1614611221576040517f08c379a0000000000000000000000000000000000000000000000000000000008152600401611218906129f2565b60405180910390fd5b61122b6000611e9a565b565b60065481565b6004818154811061124357600080fd5b90600052602060002090600b02016000915090508060000154908060010154908060020160009054906101000a900460ff169080600a0154905084565b6112886122c8565b6004828154811061129c5761129b612e14565b5b90600052602060002090600b02016003016007806020026040519081016040528092919082600780156112e4576020028201915b8154815260200190600101908083116112d0575b50505050509050919050565b60008060009054906101000a900473ffffffffffffffffffffffffffffffffffffffff16905090565b611321611b5e565b73ffffffffffffffffffffffffffffffffffffffff1661133f6112f0565b73ffffffffffffffffffffffffffffffffffffffff1614611395576040517f08c379a000000000000000000000000000000000000000000000000000000000815260040161138c906129f2565b60405180910390fd5b8060028190555050565b42600460016004805490506113b49190612bd7565b815481106113c5576113c4612e14565b5b90600052602060002090600b0201600101541015611418576040517f08c379a000000000000000000000000000000000000000000000000000000000815260040161140f90612972565b60405180910390fd5b60018081111561142b5761142a612de5565b5b6004600160048054905061143f9190612bd7565b815481106114505761144f612e14565b5b90600052602060002090600b020160020160009054906101000a900460ff16600181111561148157611480612de5565b5b14156114c2576040517f08c379a00000000000000000000000000000000000000000000000000000000081526004016114b990612972565b60405180910390fd5b6002543414611506576040517f08c379a00000000000000000000000000000000000000000000000000000000081526004016114fd90612932565b60405180910390fd5b60005b600160066115179190612bd7565b81101561159b57600060018261152d9190612b81565b90505b60068110156115875782816006811061154c5761154b612e14565b5b602002015183836006811061156457611563612e14565b5b6020020151141561157457600080fd5b808061157f90612d0d565b915050611530565b50808061159390612d0d565b915050611509565b5060005b600681101561163a5760018282600681106115bd576115bc612e14565b5b6020020151101580156115e85750602d8282600681106115e0576115df612e14565b5b602002015111155b611627576040517f08c379a000000000000000000000000000000000000000000000000000000000815260040161161e90612992565b60405180910390fd5b808061163290612d0d565b91505061159f565b50600060405180606001604052803373ffffffffffffffffffffffffffffffffffffffff16815260200160016004805490506116769190612bd7565b8152602001838152509050600581908060018154018082558091505060019003906000526020600020906008020160009091909190915060008201518160000160006101000a81548173ffffffffffffffffffffffffffffffffffffffff021916908373ffffffffffffffffffffffffffffffffffffffff16021790555060208201518160010155604082015181600201906006611715929190612288565b50505060016004600160048054905061172e9190612bd7565b8154811061173f5761173e612e14565b5b90600052602060002090600b0201600a01600082825461175f9190612b81565b925050819055505050565b611772611b5e565b73ffffffffffffffffffffffffffffffffffffffff166117906112f0565b73ffffffffffffffffffffffffffffffffffffffff16146117e6576040517f08c379a00000000000000000000000000000000000000000000000000000000081526004016117dd906129f2565b60405180910390fd5b600160009054906101000a900473ffffffffffffffffffffffffffffffffffffffff1673ffffffffffffffffffffffffffffffffffffffff1663a9059cbb82600160009054906101000a900473ffffffffffffffffffffffffffffffffffffffff1673ffffffffffffffffffffffffffffffffffffffff166370a08231306040518263ffffffff1660e01b8152600401611880919061280d565b60206040518083038186803b15801561189857600080fd5b505afa1580156118ac573d6000803e3d6000fd5b505050506040513d601f19601f820116820180604052508101906118d09190612523565b6040518363ffffffff1660e01b81526004016118ed929190612828565b602060405180830381600087803b15801561190757600080fd5b505af115801561191b573d6000803e3d6000fd5b505050506040513d601f19601f8201168201806040525081019061193f91906124c9565b5050565b61194b611b5e565b73ffffffffffffffffffffffffffffffffffffffff166119696112f0565b73ffffffffffffffffffffffffffffffffffffffff16146119bf576040517f08c379a00000000000000000000000000000000000000000000000000000000081526004016119b6906129f2565b60405180910390fd5b6001600460016004805490506119d59190612bd7565b815481106119e6576119e5612e14565b5b90600052602060002090600b020160020160006101000a81548160ff02191690836001811115611a1957611a18612de5565b5b0217905550611a26611f5e565b611a2e611cf2565b565b600181565b60075481565b611a43611b5e565b73ffffffffffffffffffffffffffffffffffffffff16611a616112f0565b73ffffffffffffffffffffffffffffffffffffffff1614611ab7576040517f08c379a0000000000000000000000000000000000000000000000000000000008152600401611aae906129f2565b60405180910390fd5b600073ffffffffffffffffffffffffffffffffffffffff168173ffffffffffffffffffffffffffffffffffffffff161415611b27576040517f08c379a0000000000000000000000000000000000000000000000000000000008152600401611b1e90612952565b60405180910390fd5b611b3081611e9a565b50565b600160009054906101000a900473ffffffffffffffffffffffffffffffffffffffff1681565b602d81565b600033905090565b600180811115611b7957611b78612de5565b5b60046001600480549050611b8d9190612bd7565b81548110611b9e57611b9d612e14565b5b90600052602060002090600b020160020160009054906101000a900460ff166001811115611bcf57611bce612de5565b5b1415611c10576040517f08c379a0000000000000000000000000000000000000000000000000000000008152600401611c07906129d2565b60405180910390fd5b60046001600480549050611c249190612bd7565b81548110611c3557611c34612e14565b5b90600052602060002090600b020160010154421015611c89576040517f08c379a0000000000000000000000000000000000000000000000000000000008152600401611c80906129b2565b60405180910390fd5b600160046001600480549050611c9f9190612bd7565b81548110611cb057611caf612e14565b5b90600052602060002090600b020160020160006101000a81548160ff02191690836001811115611ce357611ce2612de5565b5b0217905550611cf0611f5e565b565b6000600480549050118015611d6e5750600180811115611d1557611d14612de5565b5b60046001600480549050611d299190612bd7565b81548110611d3a57611d39612e14565b5b90600052602060002090600b020160020160009054906101000a900460ff166001811115611d6b57611d6a612de5565b5b14155b15611dae576040517f08c379a0000000000000000000000000000000000000000000000000000000008152600401611da590612a12565b60405180910390fd5b611db66122c8565b60006040518060a0016040528042815260200160065442611dd79190612b81565b815260200160006001811115611df057611def612de5565b5b81526020018381526020016000815250905060048190806001815401808255809150506001900390600052602060002090600b0201600090919091909150600082015181600001556020820151816001015560408201518160020160006101000a81548160ff02191690836001811115611e6d57611e6c612de5565b5b0217905550606082015181600301906007611e899291906122ea565b50608082015181600a015550505050565b60008060009054906101000a900473ffffffffffffffffffffffffffffffffffffffff169050816000806101000a81548173ffffffffffffffffffffffffffffffffffffffff021916908373ffffffffffffffffffffffffffffffffffffffff1602179055508173ffffffffffffffffffffffffffffffffffffffff168173ffffffffffffffffffffffffffffffffffffffff167f8be0079c531659141344cd1fd0a4f28419497f9722a3daafe3b4186f6b6457e060405160405180910390a35050565b600060046001600480549050611f749190612bd7565b81548110611f8557611f84612e14565b5b90600052602060002090600b020160010154905060046001600480549050611fad9190612bd7565b81548110611fbe57611fbd612e14565b5b90600052602060002090600b0201600101544211611fdb57600080fd5b600060046001600480549050611ff19190612bd7565b8154811061200257612001612e14565b5b90600052602060002090600b020160030160006007811061202657612025612e14565b5b01541461203257600080fd5b6000805b60078210156121a3576000834090506000818360405160200161205a9291906128ee565b604051602081830303815290604052905060008180519060200120905060006001602d8360001c61208b9190612d56565b6120959190612b81565b90506000805b8781101561211e57600460016004805490506120b79190612bd7565b815481106120c8576120c7612e14565b5b90600052602060002090600b020160030181600781106120eb576120ea612e14565b5b015483141561210b5760019150868061210390612d0d565b97505061211e565b808061211690612d0d565b91505061209b565b50801561212f575050505050612036565b81600460016004805490506121449190612bd7565b8154811061215557612154612e14565b5b90600052602060002090600b0201600301886007811061217857612177612e14565b5b0181905550868061218890612d0d565b975050858061219690612d0d565b9650505050505050612036565b600083409050600081836040516020016121be9291906128ee565b604051602081830303815290604052905060008180519060200120905060006001602d8360001c6121ef9190612d56565b6121f99190612b81565b905080600460016004805490506122109190612bd7565b8154811061222157612220612e14565b5b90600052602060002090600b020160030160066007811061224557612244612e14565b5b018190555050505050505050565b508060060190612263919061232a565b50565b6040518060c00160405280600690602082028036833780820191505090505090565b82600681019282156122b7579160200282015b828111156122b657825182559160200191906001019061229b565b5b5090506122c4919061232a565b5090565b6040518060e00160405280600790602082028036833780820191505090505090565b8260078101928215612319579160200282015b828111156123185782518255916020019190600101906122fd565b5b509050612326919061232a565b5090565b5b8082111561234357600081600090555060010161232b565b5090565b600061235a61235584612ab7565b612a92565b9050808285602086028201111561237457612373612e77565b5b60005b858110156123a4578161238a8882612418565b845260208401935060208301925050600181019050612377565b5050509392505050565b6000813590506123bd8161303a565b92915050565b6000813590506123d281613051565b92915050565b600082601f8301126123ed576123ec612e72565b5b60066123fa848285612347565b91505092915050565b60008151905061241281613068565b92915050565b6000813590506124278161307f565b92915050565b60008151905061243c8161307f565b92915050565b60006020828403121561245857612457612e7c565b5b6000612466848285016123ae565b91505092915050565b60006020828403121561248557612484612e7c565b5b6000612493848285016123c3565b91505092915050565b600060c082840312156124b2576124b1612e7c565b5b60006124c0848285016123d8565b91505092915050565b6000602082840312156124df576124de612e7c565b5b60006124ed84828501612403565b91505092915050565b60006020828403121561250c5761250b612e7c565b5b600061251a84828501612418565b91505092915050565b60006020828403121561253957612538612e7c565b5b60006125478482850161242d565b91505092915050565b600061255c83836125fc565b60c08301905092915050565b600061257483836127ef565b60208301905092915050565b61258981612c82565b82525050565b61259881612c0b565b82525050565b60006125a982612b01565b6125b38185612b49565b93506125be83612add565b8060005b838110156125ef5781516125d68882612550565b97506125e183612b22565b9250506001810190506125c2565b5085935050505092915050565b61260581612b0c565b61260f8184612b5a565b925061261a82612aed565b8060005b8381101561264b5781516126328782612568565b965061263d83612b2f565b92505060018101905061261e565b505050505050565b61265c81612b17565b6126668184612b65565b925061267182612af7565b8060005b838110156126a25781516126898782612568565b965061269483612b3c565b925050600181019050612675565b505050505050565b6126b381612c3b565b82525050565b6126c281612c94565b82525050565b6126d181612ca6565b82525050565b60006126e4600f83612b70565b91506126ef82612e92565b602082019050919050565b6000612707602683612b70565b915061271282612ebb565b604082019050919050565b600061272a600983612b70565b915061273582612f0a565b602082019050919050565b600061274d602283612b70565b915061275882612f33565b604082019050919050565b6000612770601583612b70565b915061277b82612f82565b602082019050919050565b6000612793601383612b70565b915061279e82612fab565b602082019050919050565b60006127b6602083612b70565b91506127c182612fd4565b602082019050919050565b60006127d9601183612b70565b91506127e482612ffd565b602082019050919050565b6127f881612c78565b82525050565b61280781612c78565b82525050565b6000602082019050612822600083018461258f565b92915050565b600060408201905061283d6000830185612580565b61284a60208301846127fe565b9392505050565b6000606082019050612866600083018661258f565b612873602083018561258f565b61288060408301846127fe565b949350505050565b600060408201905061289d600083018561258f565b6128aa60208301846127fe565b9392505050565b600060208201905081810360008301526128cb818461259e565b905092915050565b600060e0820190506128e86000830184612653565b92915050565b600060408201905061290360008301856126aa565b61291060208301846127fe565b9392505050565b600060208201905061292c60008301846126b9565b92915050565b6000602082019050818103600083015261294b816126d7565b9050919050565b6000602082019050818103600083015261296b816126fa565b9050919050565b6000602082019050818103600083015261298b8161271d565b9050919050565b600060208201905081810360008301526129ab81612740565b9050919050565b600060208201905081810360008301526129cb81612763565b9050919050565b600060208201905081810360008301526129eb81612786565b9050919050565b60006020820190508181036000830152612a0b816127a9565b9050919050565b60006020820190508181036000830152612a2b816127cc565b9050919050565b6000602082019050612a4760008301846127fe565b92915050565b6000608082019050612a6260008301876127fe565b612a6f60208301866127fe565b612a7c60408301856126c8565b612a8960608301846127fe565b95945050505050565b6000612a9c612aad565b9050612aa88282612cdc565b919050565b6000604051905090565b600067ffffffffffffffff821115612ad257612ad1612e43565b5b602082029050919050565b6000819050602082019050919050565b6000819050919050565b6000819050919050565b600081519050919050565b600060069050919050565b600060079050919050565b6000602082019050919050565b6000602082019050919050565b6000602082019050919050565b600082825260208201905092915050565b600081905092915050565b600081905092915050565b600082825260208201905092915050565b6000612b8c82612c78565b9150612b9783612c78565b9250827fffffffffffffffffffffffffffffffffffffffffffffffffffffffffffffffff03821115612bcc57612bcb612d87565b5b828201905092915050565b6000612be282612c78565b9150612bed83612c78565b925082821015612c0057612bff612d87565b5b828203905092915050565b6000612c1682612c58565b9050919050565b6000612c2882612c58565b9050919050565b60008115159050919050565b6000819050919050565b6000819050612c5382613026565b919050565b600073ffffffffffffffffffffffffffffffffffffffff82169050919050565b6000819050919050565b6000612c8d82612cb8565b9050919050565b6000612c9f82612cb8565b9050919050565b6000612cb182612c45565b9050919050565b6000612cc382612cca565b9050919050565b6000612cd582612c58565b9050919050565b612ce582612e81565b810181811067ffffffffffffffff82111715612d0457612d03612e43565b5b80604052505050565b6000612d1882612c78565b91507fffffffffffffffffffffffffffffffffffffffffffffffffffffffffffffffff821415612d4b57612d4a612d87565b5b600182019050919050565b6000612d6182612c78565b9150612d6c83612c78565b925082612d7c57612d7b612db6565b5b828206905092915050565b7f4e487b7100000000000000000000000000000000000000000000000000000000600052601160045260246000fd5b7f4e487b7100000000000000000000000000000000000000000000000000000000600052601260045260246000fd5b7f4e487b7100000000000000000000000000000000000000000000000000000000600052602160045260246000fd5b7f4e487b7100000000000000000000000000000000000000000000000000000000600052603260045260246000fd5b7f4e487b7100000000000000000000000000000000000000000000000000000000600052604160045260246000fd5b600080fd5b600080fd5b600080fd5b6000601f19601f8301169050919050565b7f4e6f742076616c69642076616c75650000000000000000000000000000000000600082015250565b7f4f776e61626c653a206e6577206f776e657220697320746865207a65726f206160008201527f6464726573730000000000000000000000000000000000000000000000000000602082015250565b7f526f756e6420456e640000000000000000000000000000000000000000000000600082015250565b7f4f6e6c79206e756d626572732030207e2034352063616e20626520656e74657260008201527f6564000000000000000000000000000000000000000000000000000000000000602082015250565b7f54686520726f756e64206e6f7420656e6474696d650000000000000000000000600082015250565b7f526f756e6420616c726561647920656e64656400000000000000000000000000600082015250565b7f4f776e61626c653a2063616c6c6572206973206e6f7420746865206f776e6572600082015250565b7f526f756e6420696e2070726f6772657373000000000000000000000000000000600082015250565b6002811061303757613036612de5565b5b50565b61304381612c0b565b811461304e57600080fd5b50565b61305a81612c1d565b811461306557600080fd5b50565b61307181612c2f565b811461307c57600080fd5b50565b61308881612c78565b811461309357600080fd5b5056fea2646970667358221220df02b908156eb54892ed226698bfc67d4ad08299393fcbb8579d471325953c7564736f6c63430008070033",
					"opcodes": "PUSH1 0x80 PUSH1 0x40 MSTORE CALLVALUE DUP1 ISZERO PUSH3 0x11 JUMPI PUSH1 0x0 DUP1 REVERT JUMPDEST POP PUSH1 0x40 MLOAD PUSH3 0x3777 CODESIZE SUB DUP1 PUSH3 0x3777 DUP4 CODECOPY DUP2 DUP2 ADD PUSH1 0x40 MSTORE DUP2 ADD SWAP1 PUSH3 0x37 SWAP2 SWAP1 PUSH3 0x40A JUMP JUMPDEST PUSH3 0x57 PUSH3 0x4B PUSH3 0xC7 PUSH1 0x20 SHL PUSH1 0x20 SHR JUMP JUMPDEST PUSH3 0xCF PUSH1 0x20 SHL PUSH1 0x20 SHR JUMP JUMPDEST DUP4 PUSH1 0x1 PUSH1 0x0 PUSH2 0x100 EXP DUP2 SLOAD DUP2 PUSH20 0xFFFFFFFFFFFFFFFFFFFFFFFFFFFFFFFFFFFFFFFF MUL NOT AND SWAP1 DUP4 PUSH20 0xFFFFFFFFFFFFFFFFFFFFFFFFFFFFFFFFFFFFFFFF AND MUL OR SWAP1 SSTORE POP DUP3 PUSH1 0x6 DUP2 SWAP1 SSTORE POP DUP2 PUSH1 0x2 DUP2 SWAP1 SSTORE POP DUP1 PUSH1 0x3 DUP2 SWAP1 SSTORE POP PUSH3 0xBD PUSH3 0x193 PUSH1 0x20 SHL PUSH1 0x20 SHR JUMP JUMPDEST POP POP POP POP PUSH3 0x69B JUMP JUMPDEST PUSH1 0x0 CALLER SWAP1 POP SWAP1 JUMP JUMPDEST PUSH1 0x0 DUP1 PUSH1 0x0 SWAP1 SLOAD SWAP1 PUSH2 0x100 EXP SWAP1 DIV PUSH20 0xFFFFFFFFFFFFFFFFFFFFFFFFFFFFFFFFFFFFFFFF AND SWAP1 POP DUP2 PUSH1 0x0 DUP1 PUSH2 0x100 EXP DUP2 SLOAD DUP2 PUSH20 0xFFFFFFFFFFFFFFFFFFFFFFFFFFFFFFFFFFFFFFFF MUL NOT AND SWAP1 DUP4 PUSH20 0xFFFFFFFFFFFFFFFFFFFFFFFFFFFFFFFFFFFFFFFF AND MUL OR SWAP1 SSTORE POP DUP2 PUSH20 0xFFFFFFFFFFFFFFFFFFFFFFFFFFFFFFFFFFFFFFFF AND DUP2 PUSH20 0xFFFFFFFFFFFFFFFFFFFFFFFFFFFFFFFFFFFFFFFF AND PUSH32 0x8BE0079C531659141344CD1FD0A4F28419497F9722A3DAAFE3B4186F6B6457E0 PUSH1 0x40 MLOAD PUSH1 0x40 MLOAD DUP1 SWAP2 SUB SWAP1 LOG3 POP POP JUMP JUMPDEST PUSH1 0x0 PUSH1 0x4 DUP1 SLOAD SWAP1 POP GT DUP1 ISZERO PUSH3 0x21B JUMPI POP PUSH1 0x1 DUP1 DUP2 GT ISZERO PUSH3 0x1BA JUMPI PUSH3 0x1B9 PUSH3 0x5DB JUMP JUMPDEST JUMPDEST PUSH1 0x4 PUSH1 0x1 PUSH1 0x4 DUP1 SLOAD SWAP1 POP PUSH3 0x1D0 SWAP2 SWAP1 PUSH3 0x533 JUMP JUMPDEST DUP2 SLOAD DUP2 LT PUSH3 0x1E4 JUMPI PUSH3 0x1E3 PUSH3 0x60A JUMP JUMPDEST JUMPDEST SWAP1 PUSH1 0x0 MSTORE PUSH1 0x20 PUSH1 0x0 KECCAK256 SWAP1 PUSH1 0xB MUL ADD PUSH1 0x2 ADD PUSH1 0x0 SWAP1 SLOAD SWAP1 PUSH2 0x100 EXP SWAP1 DIV PUSH1 0xFF AND PUSH1 0x1 DUP2 GT ISZERO PUSH3 0x218 JUMPI PUSH3 0x217 PUSH3 0x5DB JUMP JUMPDEST JUMPDEST EQ ISZERO JUMPDEST ISZERO PUSH3 0x25E JUMPI PUSH1 0x40 MLOAD PUSH32 0x8C379A000000000000000000000000000000000000000000000000000000000 DUP2 MSTORE PUSH1 0x4 ADD PUSH3 0x255 SWAP1 PUSH3 0x4A3 JUMP JUMPDEST PUSH1 0x40 MLOAD DUP1 SWAP2 SUB SWAP1 REVERT JUMPDEST PUSH3 0x268 PUSH3 0x356 JUMP JUMPDEST PUSH1 0x0 PUSH1 0x40 MLOAD DUP1 PUSH1 0xA0 ADD PUSH1 0x40 MSTORE DUP1 TIMESTAMP DUP2 MSTORE PUSH1 0x20 ADD PUSH1 0x6 SLOAD TIMESTAMP PUSH3 0x28B SWAP2 SWAP1 PUSH3 0x4D6 JUMP JUMPDEST DUP2 MSTORE PUSH1 0x20 ADD PUSH1 0x0 PUSH1 0x1 DUP2 GT ISZERO PUSH3 0x2A7 JUMPI PUSH3 0x2A6 PUSH3 0x5DB JUMP JUMPDEST JUMPDEST DUP2 MSTORE PUSH1 0x20 ADD DUP4 DUP2 MSTORE PUSH1 0x20 ADD PUSH1 0x0 DUP2 MSTORE POP SWAP1 POP PUSH1 0x4 DUP2 SWAP1 DUP1 PUSH1 0x1 DUP2 SLOAD ADD DUP1 DUP3 SSTORE DUP1 SWAP2 POP POP PUSH1 0x1 SWAP1 SUB SWAP1 PUSH1 0x0 MSTORE PUSH1 0x20 PUSH1 0x0 KECCAK256 SWAP1 PUSH1 0xB MUL ADD PUSH1 0x0 SWAP1 SWAP2 SWAP1 SWAP2 SWAP1 SWAP2 POP PUSH1 0x0 DUP3 ADD MLOAD DUP2 PUSH1 0x0 ADD SSTORE PUSH1 0x20 DUP3 ADD MLOAD DUP2 PUSH1 0x1 ADD SSTORE PUSH1 0x40 DUP3 ADD MLOAD DUP2 PUSH1 0x2 ADD PUSH1 0x0 PUSH2 0x100 EXP DUP2 SLOAD DUP2 PUSH1 0xFF MUL NOT AND SWAP1 DUP4 PUSH1 0x1 DUP2 GT ISZERO PUSH3 0x327 JUMPI PUSH3 0x326 PUSH3 0x5DB JUMP JUMPDEST JUMPDEST MUL OR SWAP1 SSTORE POP PUSH1 0x60 DUP3 ADD MLOAD DUP2 PUSH1 0x3 ADD SWAP1 PUSH1 0x7 PUSH3 0x345 SWAP3 SWAP2 SWAP1 PUSH3 0x378 JUMP JUMPDEST POP PUSH1 0x80 DUP3 ADD MLOAD DUP2 PUSH1 0xA ADD SSTORE POP POP POP POP JUMP JUMPDEST PUSH1 0x40 MLOAD DUP1 PUSH1 0xE0 ADD PUSH1 0x40 MSTORE DUP1 PUSH1 0x7 SWAP1 PUSH1 0x20 DUP3 MUL DUP1 CALLDATASIZE DUP4 CALLDATACOPY DUP1 DUP3 ADD SWAP2 POP POP SWAP1 POP POP SWAP1 JUMP JUMPDEST DUP3 PUSH1 0x7 DUP2 ADD SWAP3 DUP3 ISZERO PUSH3 0x3AA JUMPI SWAP2 PUSH1 0x20 MUL DUP3 ADD JUMPDEST DUP3 DUP2 GT ISZERO PUSH3 0x3A9 JUMPI DUP3 MLOAD DUP3 SSTORE SWAP2 PUSH1 0x20 ADD SWAP2 SWAP1 PUSH1 0x1 ADD SWAP1 PUSH3 0x38C JUMP JUMPDEST JUMPDEST POP SWAP1 POP PUSH3 0x3B9 SWAP2 SWAP1 PUSH3 0x3BD JUMP JUMPDEST POP SWAP1 JUMP JUMPDEST JUMPDEST DUP1 DUP3 GT ISZERO PUSH3 0x3D8 JUMPI PUSH1 0x0 DUP2 PUSH1 0x0 SWAP1 SSTORE POP PUSH1 0x1 ADD PUSH3 0x3BE JUMP JUMPDEST POP SWAP1 JUMP JUMPDEST PUSH1 0x0 DUP2 MLOAD SWAP1 POP PUSH3 0x3ED DUP2 PUSH3 0x667 JUMP JUMPDEST SWAP3 SWAP2 POP POP JUMP JUMPDEST PUSH1 0x0 DUP2 MLOAD SWAP1 POP PUSH3 0x404 DUP2 PUSH3 0x681 JUMP JUMPDEST SWAP3 SWAP2 POP POP JUMP JUMPDEST PUSH1 0x0 DUP1 PUSH1 0x0 DUP1 PUSH1 0x80 DUP6 DUP8 SUB SLT ISZERO PUSH3 0x427 JUMPI PUSH3 0x426 PUSH3 0x639 JUMP JUMPDEST JUMPDEST PUSH1 0x0 PUSH3 0x437 DUP8 DUP3 DUP9 ADD PUSH3 0x3DC JUMP JUMPDEST SWAP5 POP POP PUSH1 0x20 PUSH3 0x44A DUP8 DUP3 DUP9 ADD PUSH3 0x3F3 JUMP JUMPDEST SWAP4 POP POP PUSH1 0x40 PUSH3 0x45D DUP8 DUP3 DUP9 ADD PUSH3 0x3F3 JUMP JUMPDEST SWAP3 POP POP PUSH1 0x60 PUSH3 0x470 DUP8 DUP3 DUP9 ADD PUSH3 0x3F3 JUMP JUMPDEST SWAP2 POP POP SWAP3 SWAP6 SWAP2 SWAP5 POP SWAP3 POP JUMP JUMPDEST PUSH1 0x0 PUSH3 0x48B PUSH1 0x11 DUP4 PUSH3 0x4C5 JUMP JUMPDEST SWAP2 POP PUSH3 0x498 DUP3 PUSH3 0x63E JUMP JUMPDEST PUSH1 0x20 DUP3 ADD SWAP1 POP SWAP2 SWAP1 POP JUMP JUMPDEST PUSH1 0x0 PUSH1 0x20 DUP3 ADD SWAP1 POP DUP2 DUP2 SUB PUSH1 0x0 DUP4 ADD MSTORE PUSH3 0x4BE DUP2 PUSH3 0x47C JUMP JUMPDEST SWAP1 POP SWAP2 SWAP1 POP JUMP JUMPDEST PUSH1 0x0 DUP3 DUP3 MSTORE PUSH1 0x20 DUP3 ADD SWAP1 POP SWAP3 SWAP2 POP POP JUMP JUMPDEST PUSH1 0x0 PUSH3 0x4E3 DUP3 PUSH3 0x5A2 JUMP JUMPDEST SWAP2 POP PUSH3 0x4F0 DUP4 PUSH3 0x5A2 JUMP JUMPDEST SWAP3 POP DUP3 PUSH32 0xFFFFFFFFFFFFFFFFFFFFFFFFFFFFFFFFFFFFFFFFFFFFFFFFFFFFFFFFFFFFFFFF SUB DUP3 GT ISZERO PUSH3 0x528 JUMPI PUSH3 0x527 PUSH3 0x5AC JUMP JUMPDEST JUMPDEST DUP3 DUP3 ADD SWAP1 POP SWAP3 SWAP2 POP POP JUMP JUMPDEST PUSH1 0x0 PUSH3 0x540 DUP3 PUSH3 0x5A2 JUMP JUMPDEST SWAP2 POP PUSH3 0x54D DUP4 PUSH3 0x5A2 JUMP JUMPDEST SWAP3 POP DUP3 DUP3 LT ISZERO PUSH3 0x563 JUMPI PUSH3 0x562 PUSH3 0x5AC JUMP JUMPDEST JUMPDEST DUP3 DUP3 SUB SWAP1 POP SWAP3 SWAP2 POP POP JUMP JUMPDEST PUSH1 0x0 PUSH3 0x57B DUP3 PUSH3 0x582 JUMP JUMPDEST SWAP1 POP SWAP2 SWAP1 POP JUMP JUMPDEST PUSH1 0x0 PUSH20 0xFFFFFFFFFFFFFFFFFFFFFFFFFFFFFFFFFFFFFFFF DUP3 AND SWAP1 POP SWAP2 SWAP1 POP JUMP JUMPDEST PUSH1 0x0 DUP2 SWAP1 POP SWAP2 SWAP1 POP JUMP JUMPDEST PUSH32 0x4E487B7100000000000000000000000000000000000000000000000000000000 PUSH1 0x0 MSTORE PUSH1 0x11 PUSH1 0x4 MSTORE PUSH1 0x24 PUSH1 0x0 REVERT JUMPDEST PUSH32 0x4E487B7100000000000000000000000000000000000000000000000000000000 PUSH1 0x0 MSTORE PUSH1 0x21 PUSH1 0x4 MSTORE PUSH1 0x24 PUSH1 0x0 REVERT JUMPDEST PUSH32 0x4E487B7100000000000000000000000000000000000000000000000000000000 PUSH1 0x0 MSTORE PUSH1 0x32 PUSH1 0x4 MSTORE PUSH1 0x24 PUSH1 0x0 REVERT JUMPDEST PUSH1 0x0 DUP1 REVERT JUMPDEST PUSH32 0x526F756E6420696E2070726F6772657373000000000000000000000000000000 PUSH1 0x0 DUP3 ADD MSTORE POP JUMP JUMPDEST PUSH3 0x672 DUP2 PUSH3 0x56E JUMP JUMPDEST DUP2 EQ PUSH3 0x67E JUMPI PUSH1 0x0 DUP1 REVERT JUMPDEST POP JUMP JUMPDEST PUSH3 0x68C DUP2 PUSH3 0x5A2 JUMP JUMPDEST DUP2 EQ PUSH3 0x698 JUMPI PUSH1 0x0 DUP1 REVERT JUMPDEST POP JUMP JUMPDEST PUSH2 0x30CC DUP1 PUSH3 0x6AB PUSH1 0x0 CODECOPY PUSH1 0x0 RETURN INVALID PUSH1 0x80 PUSH1 0x40 MSTORE PUSH1 0x4 CALLDATASIZE LT PUSH2 0x140 JUMPI PUSH1 0x0 CALLDATALOAD PUSH1 0xE0 SHR DUP1 PUSH4 0x8C65C81F GT PUSH2 0xB6 JUMPI DUP1 PUSH4 0xBEDF0F4A GT PUSH2 0x6F JUMPI DUP1 PUSH4 0xBEDF0F4A EQ PUSH2 0x42B JUMPI DUP1 PUSH4 0xDD8AB8F9 EQ PUSH2 0x442 JUMPI DUP1 PUSH4 0xE12ED13C EQ PUSH2 0x46D JUMPI DUP1 PUSH4 0xF2FDE38B EQ PUSH2 0x498 JUMPI DUP1 PUSH4 0xFC0C546A EQ PUSH2 0x4C1 JUMPI DUP1 PUSH4 0xFEA9B572 EQ PUSH2 0x4EC JUMPI PUSH2 0x140 JUMP JUMPDEST DUP1 PUSH4 0x8C65C81F EQ PUSH2 0x315 JUMPI DUP1 PUSH4 0x8CD85DC2 EQ PUSH2 0x355 JUMPI DUP1 PUSH4 0x8DA5CB5B EQ PUSH2 0x392 JUMPI DUP1 PUSH4 0xA2B40D19 EQ PUSH2 0x3BD JUMPI DUP1 PUSH4 0xA8BD5634 EQ PUSH2 0x3E6 JUMPI DUP1 PUSH4 0xB5558562 EQ PUSH2 0x402 JUMPI PUSH2 0x140 JUMP JUMPDEST DUP1 PUSH4 0x49C4E5B8 GT PUSH2 0x108 JUMPI DUP1 PUSH4 0x49C4E5B8 EQ PUSH2 0x216 JUMPI DUP1 PUSH4 0x50B44712 EQ PUSH2 0x241 JUMPI DUP1 PUSH4 0x63C75607 EQ PUSH2 0x27F JUMPI DUP1 PUSH4 0x6F9FB98A EQ PUSH2 0x2A8 JUMPI DUP1 PUSH4 0x715018A6 EQ PUSH2 0x2D3 JUMPI DUP1 PUSH4 0x7157C113 EQ PUSH2 0x2EA JUMPI PUSH2 0x140 JUMP JUMPDEST DUP1 PUSH4 0x1A95F15F EQ PUSH2 0x145 JUMPI DUP1 PUSH4 0x379607F5 EQ PUSH2 0x170 JUMPI DUP1 PUSH4 0x44352D0A EQ PUSH2 0x199 JUMPI DUP1 PUSH4 0x46583A26 EQ PUSH2 0x1D6 JUMPI DUP1 PUSH4 0x47E40553 EQ PUSH2 0x1FF JUMPI JUMPDEST PUSH1 0x0 DUP1 REVERT JUMPDEST CALLVALUE DUP1 ISZERO PUSH2 0x151 JUMPI PUSH1 0x0 DUP1 REVERT JUMPDEST POP PUSH2 0x15A PUSH2 0x517 JUMP JUMPDEST PUSH1 0x40 MLOAD PUSH2 0x167 SWAP2 SWAP1 PUSH2 0x2A32 JUMP JUMPDEST PUSH1 0x40 MLOAD DUP1 SWAP2 SUB SWAP1 RETURN JUMPDEST CALLVALUE DUP1 ISZERO PUSH2 0x17C JUMPI PUSH1 0x0 DUP1 REVERT JUMPDEST POP PUSH2 0x197 PUSH1 0x4 DUP1 CALLDATASIZE SUB DUP2 ADD SWAP1 PUSH2 0x192 SWAP2 SWAP1 PUSH2 0x24F6 JUMP JUMPDEST PUSH2 0x51D JUMP JUMPDEST STOP JUMPDEST CALLVALUE DUP1 ISZERO PUSH2 0x1A5 JUMPI PUSH1 0x0 DUP1 REVERT JUMPDEST POP PUSH2 0x1C0 PUSH1 0x4 DUP1 CALLDATASIZE SUB DUP2 ADD SWAP1 PUSH2 0x1BB SWAP2 SWAP1 PUSH2 0x24F6 JUMP JUMPDEST PUSH2 0x857 JUMP JUMPDEST PUSH1 0x40 MLOAD PUSH2 0x1CD SWAP2 SWAP1 PUSH2 0x28B1 JUMP JUMPDEST PUSH1 0x40 MLOAD DUP1 SWAP2 SUB SWAP1 RETURN JUMPDEST CALLVALUE DUP1 ISZERO PUSH2 0x1E2 JUMPI PUSH1 0x0 DUP1 REVERT JUMPDEST POP PUSH2 0x1FD PUSH1 0x4 DUP1 CALLDATASIZE SUB DUP2 ADD SWAP1 PUSH2 0x1F8 SWAP2 SWAP1 PUSH2 0x249C JUMP JUMPDEST PUSH2 0xAF6 JUMP JUMPDEST STOP JUMPDEST CALLVALUE DUP1 ISZERO PUSH2 0x20B JUMPI PUSH1 0x0 DUP1 REVERT JUMPDEST POP PUSH2 0x214 PUSH2 0x1020 JUMP JUMPDEST STOP JUMPDEST CALLVALUE DUP1 ISZERO PUSH2 0x222 JUMPI PUSH1 0x0 DUP1 REVERT JUMPDEST POP PUSH2 0x22B PUSH2 0x10BD JUMP JUMPDEST PUSH1 0x40 MLOAD PUSH2 0x238 SWAP2 SWAP1 PUSH2 0x2A32 JUMP JUMPDEST PUSH1 0x40 MLOAD DUP1 SWAP2 SUB SWAP1 RETURN JUMPDEST CALLVALUE DUP1 ISZERO PUSH2 0x24D JUMPI PUSH1 0x0 DUP1 REVERT JUMPDEST POP PUSH2 0x268 PUSH1 0x4 DUP1 CALLDATASIZE SUB DUP2 ADD SWAP1 PUSH2 0x263 SWAP2 SWAP1 PUSH2 0x24F6 JUMP JUMPDEST PUSH2 0x10C3 JUMP JUMPDEST PUSH1 0x40 MLOAD PUSH2 0x276 SWAP3 SWAP2 SWAP1 PUSH2 0x2888 JUMP JUMPDEST PUSH1 0x40 MLOAD DUP1 SWAP2 SUB SWAP1 RETURN JUMPDEST CALLVALUE DUP1 ISZERO PUSH2 0x28B JUMPI PUSH1 0x0 DUP1 REVERT JUMPDEST POP PUSH2 0x2A6 PUSH1 0x4 DUP1 CALLDATASIZE SUB DUP2 ADD SWAP1 PUSH2 0x2A1 SWAP2 SWAP1 PUSH2 0x24F6 JUMP JUMPDEST PUSH2 0x1117 JUMP JUMPDEST STOP JUMPDEST CALLVALUE DUP1 ISZERO PUSH2 0x2B4 JUMPI PUSH1 0x0 DUP1 REVERT JUMPDEST POP PUSH2 0x2BD PUSH2 0x119D JUMP JUMPDEST PUSH1 0x40 MLOAD PUSH2 0x2CA SWAP2 SWAP1 PUSH2 0x2A32 JUMP JUMPDEST PUSH1 0x40 MLOAD DUP1 SWAP2 SUB SWAP1 RETURN JUMPDEST CALLVALUE DUP1 ISZERO PUSH2 0x2DF JUMPI PUSH1 0x0 DUP1 REVERT JUMPDEST POP PUSH2 0x2E8 PUSH2 0x11A5 JUMP JUMPDEST STOP JUMPDEST CALLVALUE DUP1 ISZERO PUSH2 0x2F6 JUMPI PUSH1 0x0 DUP1 REVERT JUMPDEST POP PUSH2 0x2FF PUSH2 0x122D JUMP JUMPDEST PUSH1 0x40 MLOAD PUSH2 0x30C SWAP2 SWAP1 PUSH2 0x2A32 JUMP JUMPDEST PUSH1 0x40 MLOAD DUP1 SWAP2 SUB SWAP1 RETURN JUMPDEST CALLVALUE DUP1 ISZERO PUSH2 0x321 JUMPI PUSH1 0x0 DUP1 REVERT JUMPDEST POP PUSH2 0x33C PUSH1 0x4 DUP1 CALLDATASIZE SUB DUP2 ADD SWAP1 PUSH2 0x337 SWAP2 SWAP1 PUSH2 0x24F6 JUMP JUMPDEST PUSH2 0x1233 JUMP JUMPDEST PUSH1 0x40 MLOAD PUSH2 0x34C SWAP5 SWAP4 SWAP3 SWAP2 SWAP1 PUSH2 0x2A4D JUMP JUMPDEST PUSH1 0x40 MLOAD DUP1 SWAP2 SUB SWAP1 RETURN JUMPDEST CALLVALUE DUP1 ISZERO PUSH2 0x361 JUMPI PUSH1 0x0 DUP1 REVERT JUMPDEST POP PUSH2 0x37C PUSH1 0x4 DUP1 CALLDATASIZE SUB DUP2 ADD SWAP1 PUSH2 0x377 SWAP2 SWAP1 PUSH2 0x24F6 JUMP JUMPDEST PUSH2 0x1280 JUMP JUMPDEST PUSH1 0x40 MLOAD PUSH2 0x389 SWAP2 SWAP1 PUSH2 0x28D3 JUMP JUMPDEST PUSH1 0x40 MLOAD DUP1 SWAP2 SUB SWAP1 RETURN JUMPDEST CALLVALUE DUP1 ISZERO PUSH2 0x39E JUMPI PUSH1 0x0 DUP1 REVERT JUMPDEST POP PUSH2 0x3A7 PUSH2 0x12F0 JUMP JUMPDEST PUSH1 0x40 MLOAD PUSH2 0x3B4 SWAP2 SWAP1 PUSH2 0x280D JUMP JUMPDEST PUSH1 0x40 MLOAD DUP1 SWAP2 SUB SWAP1 RETURN JUMPDEST CALLVALUE DUP1 ISZERO PUSH2 0x3C9 JUMPI PUSH1 0x0 DUP1 REVERT JUMPDEST POP PUSH2 0x3E4 PUSH1 0x4 DUP1 CALLDATASIZE SUB DUP2 ADD SWAP1 PUSH2 0x3DF SWAP2 SWAP1 PUSH2 0x24F6 JUMP JUMPDEST PUSH2 0x1319 JUMP JUMPDEST STOP JUMPDEST PUSH2 0x400 PUSH1 0x4 DUP1 CALLDATASIZE SUB DUP2 ADD SWAP1 PUSH2 0x3FB SWAP2 SWAP1 PUSH2 0x249C JUMP JUMPDEST PUSH2 0x139F JUMP JUMPDEST STOP JUMPDEST CALLVALUE DUP1 ISZERO PUSH2 0x40E JUMPI PUSH1 0x0 DUP1 REVERT JUMPDEST POP PUSH2 0x429 PUSH1 0x4 DUP1 CALLDATASIZE SUB DUP2 ADD SWAP1 PUSH2 0x424 SWAP2 SWAP1 PUSH2 0x246F JUMP JUMPDEST PUSH2 0x176A JUMP JUMPDEST STOP JUMPDEST CALLVALUE DUP1 ISZERO PUSH2 0x437 JUMPI PUSH1 0x0 DUP1 REVERT JUMPDEST POP PUSH2 0x440 PUSH2 0x1943 JUMP JUMPDEST STOP JUMPDEST CALLVALUE DUP1 ISZERO PUSH2 0x44E JUMPI PUSH1 0x0 DUP1 REVERT JUMPDEST POP PUSH2 0x457 PUSH2 0x1A30 JUMP JUMPDEST PUSH1 0x40 MLOAD PUSH2 0x464 SWAP2 SWAP1 PUSH2 0x2A32 JUMP JUMPDEST PUSH1 0x40 MLOAD DUP1 SWAP2 SUB SWAP1 RETURN JUMPDEST CALLVALUE DUP1 ISZERO PUSH2 0x479 JUMPI PUSH1 0x0 DUP1 REVERT JUMPDEST POP PUSH2 0x482 PUSH2 0x1A35 JUMP JUMPDEST PUSH1 0x40 MLOAD PUSH2 0x48F SWAP2 SWAP1 PUSH2 0x2A32 JUMP JUMPDEST PUSH1 0x40 MLOAD DUP1 SWAP2 SUB SWAP1 RETURN JUMPDEST CALLVALUE DUP1 ISZERO PUSH2 0x4A4 JUMPI PUSH1 0x0 DUP1 REVERT JUMPDEST POP PUSH2 0x4BF PUSH1 0x4 DUP1 CALLDATASIZE SUB DUP2 ADD SWAP1 PUSH2 0x4BA SWAP2 SWAP1 PUSH2 0x2442 JUMP JUMPDEST PUSH2 0x1A3B JUMP JUMPDEST STOP JUMPDEST CALLVALUE DUP1 ISZERO PUSH2 0x4CD JUMPI PUSH1 0x0 DUP1 REVERT JUMPDEST POP PUSH2 0x4D6 PUSH2 0x1B33 JUMP JUMPDEST PUSH1 0x40 MLOAD PUSH2 0x4E3 SWAP2 SWAP1 PUSH2 0x2917 JUMP JUMPDEST PUSH1 0x40 MLOAD DUP1 SWAP2 SUB SWAP1 RETURN JUMPDEST CALLVALUE DUP1 ISZERO PUSH2 0x4F8 JUMPI PUSH1 0x0 DUP1 REVERT JUMPDEST POP PUSH2 0x501 PUSH2 0x1B59 JUMP JUMPDEST PUSH1 0x40 MLOAD PUSH2 0x50E SWAP2 SWAP1 PUSH2 0x2A32 JUMP JUMPDEST PUSH1 0x40 MLOAD DUP1 SWAP2 SUB SWAP1 RETURN JUMPDEST PUSH1 0x2 SLOAD DUP2 JUMP JUMPDEST CALLER PUSH20 0xFFFFFFFFFFFFFFFFFFFFFFFFFFFFFFFFFFFFFFFF AND PUSH1 0x5 DUP3 DUP2 SLOAD DUP2 LT PUSH2 0x548 JUMPI PUSH2 0x547 PUSH2 0x2E14 JUMP JUMPDEST JUMPDEST SWAP1 PUSH1 0x0 MSTORE PUSH1 0x20 PUSH1 0x0 KECCAK256 SWAP1 PUSH1 0x8 MUL ADD PUSH1 0x0 ADD PUSH1 0x0 SWAP1 SLOAD SWAP1 PUSH2 0x100 EXP SWAP1 DIV PUSH20 0xFFFFFFFFFFFFFFFFFFFFFFFFFFFFFFFFFFFFFFFF AND PUSH20 0xFFFFFFFFFFFFFFFFFFFFFFFFFFFFFFFFFFFFFFFF AND EQ PUSH2 0x59A JUMPI PUSH1 0x0 DUP1 REVERT JUMPDEST PUSH1 0x1 DUP1 DUP2 GT ISZERO PUSH2 0x5AD JUMPI PUSH2 0x5AC PUSH2 0x2DE5 JUMP JUMPDEST JUMPDEST PUSH1 0x4 PUSH1 0x5 DUP4 DUP2 SLOAD DUP2 LT PUSH2 0x5C3 JUMPI PUSH2 0x5C2 PUSH2 0x2E14 JUMP JUMPDEST JUMPDEST SWAP1 PUSH1 0x0 MSTORE PUSH1 0x20 PUSH1 0x0 KECCAK256 SWAP1 PUSH1 0x8 MUL ADD PUSH1 0x1 ADD SLOAD DUP2 SLOAD DUP2 LT PUSH2 0x5E6 JUMPI PUSH2 0x5E5 PUSH2 0x2E14 JUMP JUMPDEST JUMPDEST SWAP1 PUSH1 0x0 MSTORE PUSH1 0x20 PUSH1 0x0 KECCAK256 SWAP1 PUSH1 0xB MUL ADD PUSH1 0x2 ADD PUSH1 0x0 SWAP1 SLOAD SWAP1 PUSH2 0x100 EXP SWAP1 DIV PUSH1 0xFF AND PUSH1 0x1 DUP2 GT ISZERO PUSH2 0x617 JUMPI PUSH2 0x616 PUSH2 0x2DE5 JUMP JUMPDEST JUMPDEST EQ PUSH2 0x621 JUMPI PUSH1 0x0 DUP1 REVERT JUMPDEST PUSH1 0x0 PUSH1 0x5 DUP3 DUP2 SLOAD DUP2 LT PUSH2 0x637 JUMPI PUSH2 0x636 PUSH2 0x2E14 JUMP JUMPDEST JUMPDEST SWAP1 PUSH1 0x0 MSTORE PUSH1 0x20 PUSH1 0x0 KECCAK256 SWAP1 PUSH1 0x8 MUL ADD PUSH1 0x2 ADD SWAP1 POP PUSH1 0x0 PUSH1 0x4 PUSH1 0x1 PUSH1 0x4 DUP1 SLOAD SWAP1 POP PUSH2 0x660 SWAP2 SWAP1 PUSH2 0x2BD7 JUMP JUMPDEST DUP2 SLOAD DUP2 LT PUSH2 0x671 JUMPI PUSH2 0x670 PUSH2 0x2E14 JUMP JUMPDEST JUMPDEST SWAP1 PUSH1 0x0 MSTORE PUSH1 0x20 PUSH1 0x0 KECCAK256 SWAP1 PUSH1 0xB MUL ADD PUSH1 0x3 ADD SWAP1 POP PUSH1 0x0 DUP1 PUSH1 0x0 DUP1 PUSH1 0x0 SWAP1 POP JUMPDEST PUSH1 0x6 DUP2 LT ISZERO PUSH2 0x74C JUMPI PUSH1 0x0 JUMPDEST PUSH1 0x1 PUSH1 0x7 PUSH2 0x6A9 SWAP2 SWAP1 PUSH2 0x2BD7 JUMP JUMPDEST DUP2 LT ISZERO PUSH2 0x738 JUMPI DUP6 DUP2 PUSH1 0x7 DUP2 LT PUSH2 0x6C3 JUMPI PUSH2 0x6C2 PUSH2 0x2E14 JUMP JUMPDEST JUMPDEST ADD SLOAD DUP8 DUP4 PUSH1 0x6 DUP2 LT PUSH2 0x6D8 JUMPI PUSH2 0x6D7 PUSH2 0x2E14 JUMP JUMPDEST JUMPDEST ADD SLOAD EQ ISZERO PUSH2 0x6EF JUMPI DUP4 DUP1 PUSH2 0x6EB SWAP1 PUSH2 0x2D0D JUMP JUMPDEST SWAP5 POP POP JUMPDEST DUP6 PUSH1 0x6 PUSH1 0x7 DUP2 LT PUSH2 0x703 JUMPI PUSH2 0x702 PUSH2 0x2E14 JUMP JUMPDEST JUMPDEST ADD SLOAD DUP8 DUP4 PUSH1 0x6 DUP2 LT PUSH2 0x718 JUMPI PUSH2 0x717 PUSH2 0x2E14 JUMP JUMPDEST JUMPDEST ADD SLOAD EQ ISZERO PUSH2 0x725 JUMPI PUSH1 0x1 SWAP3 POP JUMPDEST DUP1 DUP1 PUSH2 0x730 SWAP1 PUSH2 0x2D0D JUMP JUMPDEST SWAP2 POP POP PUSH2 0x69B JUMP JUMPDEST POP DUP1 DUP1 PUSH2 0x744 SWAP1 PUSH2 0x2D0D JUMP JUMPDEST SWAP2 POP POP PUSH2 0x68F JUMP JUMPDEST POP PUSH1 0x6 DUP3 EQ ISZERO PUSH2 0x75E JUMPI SELFBALANCE SWAP3 POP PUSH2 0x7A4 JUMP JUMPDEST PUSH1 0x5 DUP3 EQ DUP1 ISZERO PUSH2 0x76B JUMPI POP DUP1 JUMPDEST ISZERO PUSH2 0x775 JUMPI PUSH2 0x7A3 JUMP JUMPDEST PUSH1 0x5 DUP3 EQ ISZERO PUSH2 0x783 JUMPI PUSH2 0x7A2 JUMP JUMPDEST PUSH1 0x4 DUP3 EQ ISZERO PUSH2 0x791 JUMPI PUSH2 0x7A1 JUMP JUMPDEST PUSH1 0x3 DUP3 EQ ISZERO PUSH2 0x79F JUMPI PUSH2 0x7A0 JUMP JUMPDEST JUMPDEST JUMPDEST JUMPDEST JUMPDEST JUMPDEST PUSH1 0x5 DUP7 DUP2 SLOAD DUP2 LT PUSH2 0x7B8 JUMPI PUSH2 0x7B7 PUSH2 0x2E14 JUMP JUMPDEST JUMPDEST SWAP1 PUSH1 0x0 MSTORE PUSH1 0x20 PUSH1 0x0 KECCAK256 SWAP1 PUSH1 0x8 MUL ADD PUSH1 0x0 DUP1 DUP3 ADD PUSH1 0x0 PUSH2 0x100 EXP DUP2 SLOAD SWAP1 PUSH20 0xFFFFFFFFFFFFFFFFFFFFFFFFFFFFFFFFFFFFFFFF MUL NOT AND SWAP1 SSTORE PUSH1 0x1 DUP3 ADD PUSH1 0x0 SWAP1 SSTORE PUSH1 0x2 DUP3 ADD PUSH1 0x0 PUSH2 0x806 SWAP2 SWAP1 PUSH2 0x2253 JUMP JUMPDEST POP POP CALLER PUSH20 0xFFFFFFFFFFFFFFFFFFFFFFFFFFFFFFFFFFFFFFFF AND PUSH2 0x8FC DUP5 SWAP1 DUP2 ISZERO MUL SWAP1 PUSH1 0x40 MLOAD PUSH1 0x0 PUSH1 0x40 MLOAD DUP1 DUP4 SUB DUP2 DUP6 DUP9 DUP9 CALL SWAP4 POP POP POP POP ISZERO DUP1 ISZERO PUSH2 0x84E JUMPI RETURNDATASIZE PUSH1 0x0 DUP1 RETURNDATACOPY RETURNDATASIZE PUSH1 0x0 REVERT JUMPDEST POP POP POP POP POP POP POP JUMP JUMPDEST PUSH1 0x60 PUSH1 0x0 DUP1 PUSH1 0x0 JUMPDEST PUSH1 0x5 DUP1 SLOAD SWAP1 POP DUP2 LT ISZERO PUSH2 0x937 JUMPI CALLER PUSH20 0xFFFFFFFFFFFFFFFFFFFFFFFFFFFFFFFFFFFFFFFF AND PUSH1 0x5 DUP3 DUP2 SLOAD DUP2 LT PUSH2 0x897 JUMPI PUSH2 0x896 PUSH2 0x2E14 JUMP JUMPDEST JUMPDEST SWAP1 PUSH1 0x0 MSTORE PUSH1 0x20 PUSH1 0x0 KECCAK256 SWAP1 PUSH1 0x8 MUL ADD PUSH1 0x0 ADD PUSH1 0x0 SWAP1 SLOAD SWAP1 PUSH2 0x100 EXP SWAP1 DIV PUSH20 0xFFFFFFFFFFFFFFFFFFFFFFFFFFFFFFFFFFFFFFFF AND PUSH20 0xFFFFFFFFFFFFFFFFFFFFFFFFFFFFFFFFFFFFFFFF AND EQ DUP1 ISZERO PUSH2 0x910 JUMPI POP DUP5 PUSH1 0x5 DUP3 DUP2 SLOAD DUP2 LT PUSH2 0x8FC JUMPI PUSH2 0x8FB PUSH2 0x2E14 JUMP JUMPDEST JUMPDEST SWAP1 PUSH1 0x0 MSTORE PUSH1 0x20 PUSH1 0x0 KECCAK256 SWAP1 PUSH1 0x8 MUL ADD PUSH1 0x1 ADD SLOAD EQ JUMPDEST ISZERO PUSH2 0x924 JUMPI DUP3 DUP1 PUSH2 0x920 SWAP1 PUSH2 0x2D0D JUMP JUMPDEST SWAP4 POP POP JUMPDEST DUP1 DUP1 PUSH2 0x92F SWAP1 PUSH2 0x2D0D JUMP JUMPDEST SWAP2 POP POP PUSH2 0x85F JUMP JUMPDEST POP PUSH1 0x0 DUP3 PUSH8 0xFFFFFFFFFFFFFFFF DUP2 GT ISZERO PUSH2 0x954 JUMPI PUSH2 0x953 PUSH2 0x2E43 JUMP JUMPDEST JUMPDEST PUSH1 0x40 MLOAD SWAP1 DUP1 DUP3 MSTORE DUP1 PUSH1 0x20 MUL PUSH1 0x20 ADD DUP3 ADD PUSH1 0x40 MSTORE DUP1 ISZERO PUSH2 0x98D JUMPI DUP2 PUSH1 0x20 ADD JUMPDEST PUSH2 0x97A PUSH2 0x2266 JUMP JUMPDEST DUP2 MSTORE PUSH1 0x20 ADD SWAP1 PUSH1 0x1 SWAP1 SUB SWAP1 DUP2 PUSH2 0x972 JUMPI SWAP1 POP JUMPDEST POP SWAP1 POP PUSH1 0x0 JUMPDEST PUSH1 0x5 DUP1 SLOAD SWAP1 POP DUP2 LT ISZERO PUSH2 0xAEA JUMPI CALLER PUSH20 0xFFFFFFFFFFFFFFFFFFFFFFFFFFFFFFFFFFFFFFFF AND PUSH1 0x5 DUP3 DUP2 SLOAD DUP2 LT PUSH2 0x9CB JUMPI PUSH2 0x9CA PUSH2 0x2E14 JUMP JUMPDEST JUMPDEST SWAP1 PUSH1 0x0 MSTORE PUSH1 0x20 PUSH1 0x0 KECCAK256 SWAP1 PUSH1 0x8 MUL ADD PUSH1 0x0 ADD PUSH1 0x0 SWAP1 SLOAD SWAP1 PUSH2 0x100 EXP SWAP1 DIV PUSH20 0xFFFFFFFFFFFFFFFFFFFFFFFFFFFFFFFFFFFFFFFF AND PUSH20 0xFFFFFFFFFFFFFFFFFFFFFFFFFFFFFFFFFFFFFFFF AND EQ DUP1 ISZERO PUSH2 0xA44 JUMPI POP DUP6 PUSH1 0x5 DUP3 DUP2 SLOAD DUP2 LT PUSH2 0xA30 JUMPI PUSH2 0xA2F PUSH2 0x2E14 JUMP JUMPDEST JUMPDEST SWAP1 PUSH1 0x0 MSTORE PUSH1 0x20 PUSH1 0x0 KECCAK256 SWAP1 PUSH1 0x8 MUL ADD PUSH1 0x1 ADD SLOAD EQ JUMPDEST ISZERO PUSH2 0xAD7 JUMPI PUSH1 0x5 DUP2 DUP2 SLOAD DUP2 LT PUSH2 0xA5D JUMPI PUSH2 0xA5C PUSH2 0x2E14 JUMP JUMPDEST JUMPDEST SWAP1 PUSH1 0x0 MSTORE PUSH1 0x20 PUSH1 0x0 KECCAK256 SWAP1 PUSH1 0x8 MUL ADD PUSH1 0x2 ADD PUSH1 0x6 DUP1 PUSH1 0x20 MUL PUSH1 0x40 MLOAD SWAP1 DUP2 ADD PUSH1 0x40 MSTORE DUP1 SWAP3 SWAP2 SWAP1 DUP3 PUSH1 0x6 DUP1 ISZERO PUSH2 0xAA5 JUMPI PUSH1 0x20 MUL DUP3 ADD SWAP2 JUMPDEST DUP2 SLOAD DUP2 MSTORE PUSH1 0x20 ADD SWAP1 PUSH1 0x1 ADD SWAP1 DUP1 DUP4 GT PUSH2 0xA91 JUMPI JUMPDEST POP POP POP POP POP DUP3 DUP5 DUP2 MLOAD DUP2 LT PUSH2 0xABD JUMPI PUSH2 0xABC PUSH2 0x2E14 JUMP JUMPDEST JUMPDEST PUSH1 0x20 MUL PUSH1 0x20 ADD ADD DUP2 SWAP1 MSTORE POP DUP3 DUP1 PUSH2 0xAD3 SWAP1 PUSH2 0x2D0D JUMP JUMPDEST SWAP4 POP POP JUMPDEST DUP1 DUP1 PUSH2 0xAE2 SWAP1 PUSH2 0x2D0D JUMP JUMPDEST SWAP2 POP POP PUSH2 0x993 JUMP JUMPDEST POP DUP1 SWAP4 POP POP POP POP SWAP2 SWAP1 POP JUMP JUMPDEST TIMESTAMP PUSH1 0x4 PUSH1 0x1 PUSH1 0x4 DUP1 SLOAD SWAP1 POP PUSH2 0xB0B SWAP2 SWAP1 PUSH2 0x2BD7 JUMP JUMPDEST DUP2 SLOAD DUP2 LT PUSH2 0xB1C JUMPI PUSH2 0xB1B PUSH2 0x2E14 JUMP JUMPDEST JUMPDEST SWAP1 PUSH1 0x0 MSTORE PUSH1 0x20 PUSH1 0x0 KECCAK256 SWAP1 PUSH1 0xB MUL ADD PUSH1 0x1 ADD SLOAD LT ISZERO PUSH2 0xB6F JUMPI PUSH1 0x40 MLOAD PUSH32 0x8C379A000000000000000000000000000000000000000000000000000000000 DUP2 MSTORE PUSH1 0x4 ADD PUSH2 0xB66 SWAP1 PUSH2 0x2972 JUMP JUMPDEST PUSH1 0x40 MLOAD DUP1 SWAP2 SUB SWAP1 REVERT JUMPDEST PUSH1 0x1 DUP1 DUP2 GT ISZERO PUSH2 0xB82 JUMPI PUSH2 0xB81 PUSH2 0x2DE5 JUMP JUMPDEST JUMPDEST PUSH1 0x4 PUSH1 0x1 PUSH1 0x4 DUP1 SLOAD SWAP1 POP PUSH2 0xB96 SWAP2 SWAP1 PUSH2 0x2BD7 JUMP JUMPDEST DUP2 SLOAD DUP2 LT PUSH2 0xBA7 JUMPI PUSH2 0xBA6 PUSH2 0x2E14 JUMP JUMPDEST JUMPDEST SWAP1 PUSH1 0x0 MSTORE PUSH1 0x20 PUSH1 0x0 KECCAK256 SWAP1 PUSH1 0xB MUL ADD PUSH1 0x2 ADD PUSH1 0x0 SWAP1 SLOAD SWAP1 PUSH2 0x100 EXP SWAP1 DIV PUSH1 0xFF AND PUSH1 0x1 DUP2 GT ISZERO PUSH2 0xBD8 JUMPI PUSH2 0xBD7 PUSH2 0x2DE5 JUMP JUMPDEST JUMPDEST EQ ISZERO PUSH2 0xC19 JUMPI PUSH1 0x40 MLOAD PUSH32 0x8C379A000000000000000000000000000000000000000000000000000000000 DUP2 MSTORE PUSH1 0x4 ADD PUSH2 0xC10 SWAP1 PUSH2 0x2972 JUMP JUMPDEST PUSH1 0x40 MLOAD DUP1 SWAP2 SUB SWAP1 REVERT JUMPDEST PUSH1 0x3 SLOAD PUSH1 0x1 PUSH1 0x0 SWAP1 SLOAD SWAP1 PUSH2 0x100 EXP SWAP1 DIV PUSH20 0xFFFFFFFFFFFFFFFFFFFFFFFFFFFFFFFFFFFFFFFF AND PUSH20 0xFFFFFFFFFFFFFFFFFFFFFFFFFFFFFFFFFFFFFFFF AND PUSH4 0x70A08231 CALLER PUSH1 0x40 MLOAD DUP3 PUSH4 0xFFFFFFFF AND PUSH1 0xE0 SHL DUP2 MSTORE PUSH1 0x4 ADD PUSH2 0xC77 SWAP2 SWAP1 PUSH2 0x280D JUMP JUMPDEST PUSH1 0x20 PUSH1 0x40 MLOAD DUP1 DUP4 SUB DUP2 DUP7 DUP1 EXTCODESIZE ISZERO DUP1 ISZERO PUSH2 0xC8F JUMPI PUSH1 0x0 DUP1 REVERT JUMPDEST POP GAS STATICCALL ISZERO DUP1 ISZERO PUSH2 0xCA3 JUMPI RETURNDATASIZE PUSH1 0x0 DUP1 RETURNDATACOPY RETURNDATASIZE PUSH1 0x0 REVERT JUMPDEST POP POP POP POP PUSH1 0x40 MLOAD RETURNDATASIZE PUSH1 0x1F NOT PUSH1 0x1F DUP3 ADD AND DUP3 ADD DUP1 PUSH1 0x40 MSTORE POP DUP2 ADD SWAP1 PUSH2 0xCC7 SWAP2 SWAP1 PUSH2 0x2523 JUMP JUMPDEST LT ISZERO PUSH2 0xD08 JUMPI PUSH1 0x40 MLOAD PUSH32 0x8C379A000000000000000000000000000000000000000000000000000000000 DUP2 MSTORE PUSH1 0x4 ADD PUSH2 0xCFF SWAP1 PUSH2 0x2932 JUMP JUMPDEST PUSH1 0x40 MLOAD DUP1 SWAP2 SUB SWAP1 REVERT JUMPDEST PUSH1 0x0 JUMPDEST PUSH1 0x1 PUSH1 0x6 PUSH2 0xD19 SWAP2 SWAP1 PUSH2 0x2BD7 JUMP JUMPDEST DUP2 LT ISZERO PUSH2 0xD9D JUMPI PUSH1 0x0 PUSH1 0x1 DUP3 PUSH2 0xD2F SWAP2 SWAP1 PUSH2 0x2B81 JUMP JUMPDEST SWAP1 POP JUMPDEST PUSH1 0x6 DUP2 LT ISZERO PUSH2 0xD89 JUMPI DUP3 DUP2 PUSH1 0x6 DUP2 LT PUSH2 0xD4E JUMPI PUSH2 0xD4D PUSH2 0x2E14 JUMP JUMPDEST JUMPDEST PUSH1 0x20 MUL ADD MLOAD DUP4 DUP4 PUSH1 0x6 DUP2 LT PUSH2 0xD66 JUMPI PUSH2 0xD65 PUSH2 0x2E14 JUMP JUMPDEST JUMPDEST PUSH1 0x20 MUL ADD MLOAD EQ ISZERO PUSH2 0xD76 JUMPI PUSH1 0x0 DUP1 REVERT JUMPDEST DUP1 DUP1 PUSH2 0xD81 SWAP1 PUSH2 0x2D0D JUMP JUMPDEST SWAP2 POP POP PUSH2 0xD32 JUMP JUMPDEST POP DUP1 DUP1 PUSH2 0xD95 SWAP1 PUSH2 0x2D0D JUMP JUMPDEST SWAP2 POP POP PUSH2 0xD0B JUMP JUMPDEST POP PUSH1 0x0 JUMPDEST PUSH1 0x6 DUP2 LT ISZERO PUSH2 0xE3C JUMPI PUSH1 0x1 DUP3 DUP3 PUSH1 0x6 DUP2 LT PUSH2 0xDBF JUMPI PUSH2 0xDBE PUSH2 0x2E14 JUMP JUMPDEST JUMPDEST PUSH1 0x20 MUL ADD MLOAD LT ISZERO DUP1 ISZERO PUSH2 0xDEA JUMPI POP PUSH1 0x2D DUP3 DUP3 PUSH1 0x6 DUP2 LT PUSH2 0xDE2 JUMPI PUSH2 0xDE1 PUSH2 0x2E14 JUMP JUMPDEST JUMPDEST PUSH1 0x20 MUL ADD MLOAD GT ISZERO JUMPDEST PUSH2 0xE29 JUMPI PUSH1 0x40 MLOAD PUSH32 0x8C379A000000000000000000000000000000000000000000000000000000000 DUP2 MSTORE PUSH1 0x4 ADD PUSH2 0xE20 SWAP1 PUSH2 0x2992 JUMP JUMPDEST PUSH1 0x40 MLOAD DUP1 SWAP2 SUB SWAP1 REVERT JUMPDEST DUP1 DUP1 PUSH2 0xE34 SWAP1 PUSH2 0x2D0D JUMP JUMPDEST SWAP2 POP POP PUSH2 0xDA1 JUMP JUMPDEST POP PUSH1 0x1 PUSH1 0x0 SWAP1 SLOAD SWAP1 PUSH2 0x100 EXP SWAP1 DIV PUSH20 0xFFFFFFFFFFFFFFFFFFFFFFFFFFFFFFFFFFFFFFFF AND PUSH20 0xFFFFFFFFFFFFFFFFFFFFFFFFFFFFFFFFFFFFFFFF AND PUSH4 0x23B872DD CALLER ADDRESS PUSH1 0x3 SLOAD PUSH1 0x40 MLOAD DUP5 PUSH4 0xFFFFFFFF AND PUSH1 0xE0 SHL DUP2 MSTORE PUSH1 0x4 ADD PUSH2 0xE9E SWAP4 SWAP3 SWAP2 SWAP1 PUSH2 0x2851 JUMP JUMPDEST PUSH1 0x20 PUSH1 0x40 MLOAD DUP1 DUP4 SUB DUP2 PUSH1 0x0 DUP8 DUP1 EXTCODESIZE ISZERO DUP1 ISZERO PUSH2 0xEB8 JUMPI PUSH1 0x0 DUP1 REVERT JUMPDEST POP GAS CALL ISZERO DUP1 ISZERO PUSH2 0xECC JUMPI RETURNDATASIZE PUSH1 0x0 DUP1 RETURNDATACOPY RETURNDATASIZE PUSH1 0x0 REVERT JUMPDEST POP POP POP POP PUSH1 0x40 MLOAD RETURNDATASIZE PUSH1 0x1F NOT PUSH1 0x1F DUP3 ADD AND DUP3 ADD DUP1 PUSH1 0x40 MSTORE POP DUP2 ADD SWAP1 PUSH2 0xEF0 SWAP2 SWAP1 PUSH2 0x24C9 JUMP JUMPDEST POP PUSH1 0x0 PUSH1 0x40 MLOAD DUP1 PUSH1 0x60 ADD PUSH1 0x40 MSTORE DUP1 CALLER PUSH20 0xFFFFFFFFFFFFFFFFFFFFFFFFFFFFFFFFFFFFFFFF AND DUP2 MSTORE PUSH1 0x20 ADD PUSH1 0x1 PUSH1 0x4 DUP1 SLOAD SWAP1 POP PUSH2 0xF2C SWAP2 SWAP1 PUSH2 0x2BD7 JUMP JUMPDEST DUP2 MSTORE PUSH1 0x20 ADD DUP4 DUP2 MSTORE POP SWAP1 POP PUSH1 0x5 DUP2 SWAP1 DUP1 PUSH1 0x1 DUP2 SLOAD ADD DUP1 DUP3 SSTORE DUP1 SWAP2 POP POP PUSH1 0x1 SWAP1 SUB SWAP1 PUSH1 0x0 MSTORE PUSH1 0x20 PUSH1 0x0 KECCAK256 SWAP1 PUSH1 0x8 MUL ADD PUSH1 0x0 SWAP1 SWAP2 SWAP1 SWAP2 SWAP1 SWAP2 POP PUSH1 0x0 DUP3 ADD MLOAD DUP2 PUSH1 0x0 ADD PUSH1 0x0 PUSH2 0x100 EXP DUP2 SLOAD DUP2 PUSH20 0xFFFFFFFFFFFFFFFFFFFFFFFFFFFFFFFFFFFFFFFF MUL NOT AND SWAP1 DUP4 PUSH20 0xFFFFFFFFFFFFFFFFFFFFFFFFFFFFFFFFFFFFFFFF AND MUL OR SWAP1 SSTORE POP PUSH1 0x20 DUP3 ADD MLOAD DUP2 PUSH1 0x1 ADD SSTORE PUSH1 0x40 DUP3 ADD MLOAD DUP2 PUSH1 0x2 ADD SWAP1 PUSH1 0x6 PUSH2 0xFCB SWAP3 SWAP2 SWAP1 PUSH2 0x2288 JUMP JUMPDEST POP POP POP PUSH1 0x1 PUSH1 0x4 PUSH1 0x1 PUSH1 0x4 DUP1 SLOAD SWAP1 POP PUSH2 0xFE4 SWAP2 SWAP1 PUSH2 0x2BD7 JUMP JUMPDEST DUP2 SLOAD DUP2 LT PUSH2 0xFF5 JUMPI PUSH2 0xFF4 PUSH2 0x2E14 JUMP JUMPDEST JUMPDEST SWAP1 PUSH1 0x0 MSTORE PUSH1 0x20 PUSH1 0x0 KECCAK256 SWAP1 PUSH1 0xB MUL ADD PUSH1 0xA ADD PUSH1 0x0 DUP3 DUP3 SLOAD PUSH2 0x1015 SWAP2 SWAP1 PUSH2 0x2B81 JUMP JUMPDEST SWAP3 POP POP DUP2 SWAP1 SSTORE POP POP POP JUMP JUMPDEST PUSH2 0x1028 PUSH2 0x1B5E JUMP JUMPDEST PUSH20 0xFFFFFFFFFFFFFFFFFFFFFFFFFFFFFFFFFFFFFFFF AND PUSH2 0x1046 PUSH2 0x12F0 JUMP JUMPDEST PUSH20 0xFFFFFFFFFFFFFFFFFFFFFFFFFFFFFFFFFFFFFFFF AND EQ PUSH2 0x109C JUMPI PUSH1 0x40 MLOAD PUSH32 0x8C379A000000000000000000000000000000000000000000000000000000000 DUP2 MSTORE PUSH1 0x4 ADD PUSH2 0x1093 SWAP1 PUSH2 0x29F2 JUMP JUMPDEST PUSH1 0x40 MLOAD DUP1 SWAP2 SUB SWAP1 REVERT JUMPDEST PUSH1 0x0 PUSH1 0x4 DUP1 SLOAD SWAP1 POP GT ISZERO PUSH2 0x10B3 JUMPI PUSH2 0x10B2 PUSH2 0x1B66 JUMP JUMPDEST JUMPDEST PUSH2 0x10BB PUSH2 0x1CF2 JUMP JUMPDEST JUMP JUMPDEST PUSH1 0x3 SLOAD DUP2 JUMP JUMPDEST PUSH1 0x5 DUP2 DUP2 SLOAD DUP2 LT PUSH2 0x10D3 JUMPI PUSH1 0x0 DUP1 REVERT JUMPDEST SWAP1 PUSH1 0x0 MSTORE PUSH1 0x20 PUSH1 0x0 KECCAK256 SWAP1 PUSH1 0x8 MUL ADD PUSH1 0x0 SWAP2 POP SWAP1 POP DUP1 PUSH1 0x0 ADD PUSH1 0x0 SWAP1 SLOAD SWAP1 PUSH2 0x100 EXP SWAP1 DIV PUSH20 0xFFFFFFFFFFFFFFFFFFFFFFFFFFFFFFFFFFFFFFFF AND SWAP1 DUP1 PUSH1 0x1 ADD SLOAD SWAP1 POP DUP3 JUMP JUMPDEST PUSH2 0x111F PUSH2 0x1B5E JUMP JUMPDEST PUSH20 0xFFFFFFFFFFFFFFFFFFFFFFFFFFFFFFFFFFFFFFFF AND PUSH2 0x113D PUSH2 0x12F0 JUMP JUMPDEST PUSH20 0xFFFFFFFFFFFFFFFFFFFFFFFFFFFFFFFFFFFFFFFF AND EQ PUSH2 0x1193 JUMPI PUSH1 0x40 MLOAD PUSH32 0x8C379A000000000000000000000000000000000000000000000000000000000 DUP2 MSTORE PUSH1 0x4 ADD PUSH2 0x118A SWAP1 PUSH2 0x29F2 JUMP JUMPDEST PUSH1 0x40 MLOAD DUP1 SWAP2 SUB SWAP1 REVERT JUMPDEST DUP1 PUSH1 0x6 DUP2 SWAP1 SSTORE POP POP JUMP JUMPDEST PUSH1 0x0 SELFBALANCE SWAP1 POP SWAP1 JUMP JUMPDEST PUSH2 0x11AD PUSH2 0x1B5E JUMP JUMPDEST PUSH20 0xFFFFFFFFFFFFFFFFFFFFFFFFFFFFFFFFFFFFFFFF AND PUSH2 0x11CB PUSH2 0x12F0 JUMP JUMPDEST PUSH20 0xFFFFFFFFFFFFFFFFFFFFFFFFFFFFFFFFFFFFFFFF AND EQ PUSH2 0x1221 JUMPI PUSH1 0x40 MLOAD PUSH32 0x8C379A000000000000000000000000000000000000000000000000000000000 DUP2 MSTORE PUSH1 0x4 ADD PUSH2 0x1218 SWAP1 PUSH2 0x29F2 JUMP JUMPDEST PUSH1 0x40 MLOAD DUP1 SWAP2 SUB SWAP1 REVERT JUMPDEST PUSH2 0x122B PUSH1 0x0 PUSH2 0x1E9A JUMP JUMPDEST JUMP JUMPDEST PUSH1 0x6 SLOAD DUP2 JUMP JUMPDEST PUSH1 0x4 DUP2 DUP2 SLOAD DUP2 LT PUSH2 0x1243 JUMPI PUSH1 0x0 DUP1 REVERT JUMPDEST SWAP1 PUSH1 0x0 MSTORE PUSH1 0x20 PUSH1 0x0 KECCAK256 SWAP1 PUSH1 0xB MUL ADD PUSH1 0x0 SWAP2 POP SWAP1 POP DUP1 PUSH1 0x0 ADD SLOAD SWAP1 DUP1 PUSH1 0x1 ADD SLOAD SWAP1 DUP1 PUSH1 0x2 ADD PUSH1 0x0 SWAP1 SLOAD SWAP1 PUSH2 0x100 EXP SWAP1 DIV PUSH1 0xFF AND SWAP1 DUP1 PUSH1 0xA ADD SLOAD SWAP1 POP DUP5 JUMP JUMPDEST PUSH2 0x1288 PUSH2 0x22C8 JUMP JUMPDEST PUSH1 0x4 DUP3 DUP2 SLOAD DUP2 LT PUSH2 0x129C JUMPI PUSH2 0x129B PUSH2 0x2E14 JUMP JUMPDEST JUMPDEST SWAP1 PUSH1 0x0 MSTORE PUSH1 0x20 PUSH1 0x0 KECCAK256 SWAP1 PUSH1 0xB MUL ADD PUSH1 0x3 ADD PUSH1 0x7 DUP1 PUSH1 0x20 MUL PUSH1 0x40 MLOAD SWAP1 DUP2 ADD PUSH1 0x40 MSTORE DUP1 SWAP3 SWAP2 SWAP1 DUP3 PUSH1 0x7 DUP1 ISZERO PUSH2 0x12E4 JUMPI PUSH1 0x20 MUL DUP3 ADD SWAP2 JUMPDEST DUP2 SLOAD DUP2 MSTORE PUSH1 0x20 ADD SWAP1 PUSH1 0x1 ADD SWAP1 DUP1 DUP4 GT PUSH2 0x12D0 JUMPI JUMPDEST POP POP POP POP POP SWAP1 POP SWAP2 SWAP1 POP JUMP JUMPDEST PUSH1 0x0 DUP1 PUSH1 0x0 SWAP1 SLOAD SWAP1 PUSH2 0x100 EXP SWAP1 DIV PUSH20 0xFFFFFFFFFFFFFFFFFFFFFFFFFFFFFFFFFFFFFFFF AND SWAP1 POP SWAP1 JUMP JUMPDEST PUSH2 0x1321 PUSH2 0x1B5E JUMP JUMPDEST PUSH20 0xFFFFFFFFFFFFFFFFFFFFFFFFFFFFFFFFFFFFFFFF AND PUSH2 0x133F PUSH2 0x12F0 JUMP JUMPDEST PUSH20 0xFFFFFFFFFFFFFFFFFFFFFFFFFFFFFFFFFFFFFFFF AND EQ PUSH2 0x1395 JUMPI PUSH1 0x40 MLOAD PUSH32 0x8C379A000000000000000000000000000000000000000000000000000000000 DUP2 MSTORE PUSH1 0x4 ADD PUSH2 0x138C SWAP1 PUSH2 0x29F2 JUMP JUMPDEST PUSH1 0x40 MLOAD DUP1 SWAP2 SUB SWAP1 REVERT JUMPDEST DUP1 PUSH1 0x2 DUP2 SWAP1 SSTORE POP POP JUMP JUMPDEST TIMESTAMP PUSH1 0x4 PUSH1 0x1 PUSH1 0x4 DUP1 SLOAD SWAP1 POP PUSH2 0x13B4 SWAP2 SWAP1 PUSH2 0x2BD7 JUMP JUMPDEST DUP2 SLOAD DUP2 LT PUSH2 0x13C5 JUMPI PUSH2 0x13C4 PUSH2 0x2E14 JUMP JUMPDEST JUMPDEST SWAP1 PUSH1 0x0 MSTORE PUSH1 0x20 PUSH1 0x0 KECCAK256 SWAP1 PUSH1 0xB MUL ADD PUSH1 0x1 ADD SLOAD LT ISZERO PUSH2 0x1418 JUMPI PUSH1 0x40 MLOAD PUSH32 0x8C379A000000000000000000000000000000000000000000000000000000000 DUP2 MSTORE PUSH1 0x4 ADD PUSH2 0x140F SWAP1 PUSH2 0x2972 JUMP JUMPDEST PUSH1 0x40 MLOAD DUP1 SWAP2 SUB SWAP1 REVERT JUMPDEST PUSH1 0x1 DUP1 DUP2 GT ISZERO PUSH2 0x142B JUMPI PUSH2 0x142A PUSH2 0x2DE5 JUMP JUMPDEST JUMPDEST PUSH1 0x4 PUSH1 0x1 PUSH1 0x4 DUP1 SLOAD SWAP1 POP PUSH2 0x143F SWAP2 SWAP1 PUSH2 0x2BD7 JUMP JUMPDEST DUP2 SLOAD DUP2 LT PUSH2 0x1450 JUMPI PUSH2 0x144F PUSH2 0x2E14 JUMP JUMPDEST JUMPDEST SWAP1 PUSH1 0x0 MSTORE PUSH1 0x20 PUSH1 0x0 KECCAK256 SWAP1 PUSH1 0xB MUL ADD PUSH1 0x2 ADD PUSH1 0x0 SWAP1 SLOAD SWAP1 PUSH2 0x100 EXP SWAP1 DIV PUSH1 0xFF AND PUSH1 0x1 DUP2 GT ISZERO PUSH2 0x1481 JUMPI PUSH2 0x1480 PUSH2 0x2DE5 JUMP JUMPDEST JUMPDEST EQ ISZERO PUSH2 0x14C2 JUMPI PUSH1 0x40 MLOAD PUSH32 0x8C379A000000000000000000000000000000000000000000000000000000000 DUP2 MSTORE PUSH1 0x4 ADD PUSH2 0x14B9 SWAP1 PUSH2 0x2972 JUMP JUMPDEST PUSH1 0x40 MLOAD DUP1 SWAP2 SUB SWAP1 REVERT JUMPDEST PUSH1 0x2 SLOAD CALLVALUE EQ PUSH2 0x1506 JUMPI PUSH1 0x40 MLOAD PUSH32 0x8C379A000000000000000000000000000000000000000000000000000000000 DUP2 MSTORE PUSH1 0x4 ADD PUSH2 0x14FD SWAP1 PUSH2 0x2932 JUMP JUMPDEST PUSH1 0x40 MLOAD DUP1 SWAP2 SUB SWAP1 REVERT JUMPDEST PUSH1 0x0 JUMPDEST PUSH1 0x1 PUSH1 0x6 PUSH2 0x1517 SWAP2 SWAP1 PUSH2 0x2BD7 JUMP JUMPDEST DUP2 LT ISZERO PUSH2 0x159B JUMPI PUSH1 0x0 PUSH1 0x1 DUP3 PUSH2 0x152D SWAP2 SWAP1 PUSH2 0x2B81 JUMP JUMPDEST SWAP1 POP JUMPDEST PUSH1 0x6 DUP2 LT ISZERO PUSH2 0x1587 JUMPI DUP3 DUP2 PUSH1 0x6 DUP2 LT PUSH2 0x154C JUMPI PUSH2 0x154B PUSH2 0x2E14 JUMP JUMPDEST JUMPDEST PUSH1 0x20 MUL ADD MLOAD DUP4 DUP4 PUSH1 0x6 DUP2 LT PUSH2 0x1564 JUMPI PUSH2 0x1563 PUSH2 0x2E14 JUMP JUMPDEST JUMPDEST PUSH1 0x20 MUL ADD MLOAD EQ ISZERO PUSH2 0x1574 JUMPI PUSH1 0x0 DUP1 REVERT JUMPDEST DUP1 DUP1 PUSH2 0x157F SWAP1 PUSH2 0x2D0D JUMP JUMPDEST SWAP2 POP POP PUSH2 0x1530 JUMP JUMPDEST POP DUP1 DUP1 PUSH2 0x1593 SWAP1 PUSH2 0x2D0D JUMP JUMPDEST SWAP2 POP POP PUSH2 0x1509 JUMP JUMPDEST POP PUSH1 0x0 JUMPDEST PUSH1 0x6 DUP2 LT ISZERO PUSH2 0x163A JUMPI PUSH1 0x1 DUP3 DUP3 PUSH1 0x6 DUP2 LT PUSH2 0x15BD JUMPI PUSH2 0x15BC PUSH2 0x2E14 JUMP JUMPDEST JUMPDEST PUSH1 0x20 MUL ADD MLOAD LT ISZERO DUP1 ISZERO PUSH2 0x15E8 JUMPI POP PUSH1 0x2D DUP3 DUP3 PUSH1 0x6 DUP2 LT PUSH2 0x15E0 JUMPI PUSH2 0x15DF PUSH2 0x2E14 JUMP JUMPDEST JUMPDEST PUSH1 0x20 MUL ADD MLOAD GT ISZERO JUMPDEST PUSH2 0x1627 JUMPI PUSH1 0x40 MLOAD PUSH32 0x8C379A000000000000000000000000000000000000000000000000000000000 DUP2 MSTORE PUSH1 0x4 ADD PUSH2 0x161E SWAP1 PUSH2 0x2992 JUMP JUMPDEST PUSH1 0x40 MLOAD DUP1 SWAP2 SUB SWAP1 REVERT JUMPDEST DUP1 DUP1 PUSH2 0x1632 SWAP1 PUSH2 0x2D0D JUMP JUMPDEST SWAP2 POP POP PUSH2 0x159F JUMP JUMPDEST POP PUSH1 0x0 PUSH1 0x40 MLOAD DUP1 PUSH1 0x60 ADD PUSH1 0x40 MSTORE DUP1 CALLER PUSH20 0xFFFFFFFFFFFFFFFFFFFFFFFFFFFFFFFFFFFFFFFF AND DUP2 MSTORE PUSH1 0x20 ADD PUSH1 0x1 PUSH1 0x4 DUP1 SLOAD SWAP1 POP PUSH2 0x1676 SWAP2 SWAP1 PUSH2 0x2BD7 JUMP JUMPDEST DUP2 MSTORE PUSH1 0x20 ADD DUP4 DUP2 MSTORE POP SWAP1 POP PUSH1 0x5 DUP2 SWAP1 DUP1 PUSH1 0x1 DUP2 SLOAD ADD DUP1 DUP3 SSTORE DUP1 SWAP2 POP POP PUSH1 0x1 SWAP1 SUB SWAP1 PUSH1 0x0 MSTORE PUSH1 0x20 PUSH1 0x0 KECCAK256 SWAP1 PUSH1 0x8 MUL ADD PUSH1 0x0 SWAP1 SWAP2 SWAP1 SWAP2 SWAP1 SWAP2 POP PUSH1 0x0 DUP3 ADD MLOAD DUP2 PUSH1 0x0 ADD PUSH1 0x0 PUSH2 0x100 EXP DUP2 SLOAD DUP2 PUSH20 0xFFFFFFFFFFFFFFFFFFFFFFFFFFFFFFFFFFFFFFFF MUL NOT AND SWAP1 DUP4 PUSH20 0xFFFFFFFFFFFFFFFFFFFFFFFFFFFFFFFFFFFFFFFF AND MUL OR SWAP1 SSTORE POP PUSH1 0x20 DUP3 ADD MLOAD DUP2 PUSH1 0x1 ADD SSTORE PUSH1 0x40 DUP3 ADD MLOAD DUP2 PUSH1 0x2 ADD SWAP1 PUSH1 0x6 PUSH2 0x1715 SWAP3 SWAP2 SWAP1 PUSH2 0x2288 JUMP JUMPDEST POP POP POP PUSH1 0x1 PUSH1 0x4 PUSH1 0x1 PUSH1 0x4 DUP1 SLOAD SWAP1 POP PUSH2 0x172E SWAP2 SWAP1 PUSH2 0x2BD7 JUMP JUMPDEST DUP2 SLOAD DUP2 LT PUSH2 0x173F JUMPI PUSH2 0x173E PUSH2 0x2E14 JUMP JUMPDEST JUMPDEST SWAP1 PUSH1 0x0 MSTORE PUSH1 0x20 PUSH1 0x0 KECCAK256 SWAP1 PUSH1 0xB MUL ADD PUSH1 0xA ADD PUSH1 0x0 DUP3 DUP3 SLOAD PUSH2 0x175F SWAP2 SWAP1 PUSH2 0x2B81 JUMP JUMPDEST SWAP3 POP POP DUP2 SWAP1 SSTORE POP POP POP JUMP JUMPDEST PUSH2 0x1772 PUSH2 0x1B5E JUMP JUMPDEST PUSH20 0xFFFFFFFFFFFFFFFFFFFFFFFFFFFFFFFFFFFFFFFF AND PUSH2 0x1790 PUSH2 0x12F0 JUMP JUMPDEST PUSH20 0xFFFFFFFFFFFFFFFFFFFFFFFFFFFFFFFFFFFFFFFF AND EQ PUSH2 0x17E6 JUMPI PUSH1 0x40 MLOAD PUSH32 0x8C379A000000000000000000000000000000000000000000000000000000000 DUP2 MSTORE PUSH1 0x4 ADD PUSH2 0x17DD SWAP1 PUSH2 0x29F2 JUMP JUMPDEST PUSH1 0x40 MLOAD DUP1 SWAP2 SUB SWAP1 REVERT JUMPDEST PUSH1 0x1 PUSH1 0x0 SWAP1 SLOAD SWAP1 PUSH2 0x100 EXP SWAP1 DIV PUSH20 0xFFFFFFFFFFFFFFFFFFFFFFFFFFFFFFFFFFFFFFFF AND PUSH20 0xFFFFFFFFFFFFFFFFFFFFFFFFFFFFFFFFFFFFFFFF AND PUSH4 0xA9059CBB DUP3 PUSH1 0x1 PUSH1 0x0 SWAP1 SLOAD SWAP1 PUSH2 0x100 EXP SWAP1 DIV PUSH20 0xFFFFFFFFFFFFFFFFFFFFFFFFFFFFFFFFFFFFFFFF AND PUSH20 0xFFFFFFFFFFFFFFFFFFFFFFFFFFFFFFFFFFFFFFFF AND PUSH4 0x70A08231 ADDRESS PUSH1 0x40 MLOAD DUP3 PUSH4 0xFFFFFFFF AND PUSH1 0xE0 SHL DUP2 MSTORE PUSH1 0x4 ADD PUSH2 0x1880 SWAP2 SWAP1 PUSH2 0x280D JUMP JUMPDEST PUSH1 0x20 PUSH1 0x40 MLOAD DUP1 DUP4 SUB DUP2 DUP7 DUP1 EXTCODESIZE ISZERO DUP1 ISZERO PUSH2 0x1898 JUMPI PUSH1 0x0 DUP1 REVERT JUMPDEST POP GAS STATICCALL ISZERO DUP1 ISZERO PUSH2 0x18AC JUMPI RETURNDATASIZE PUSH1 0x0 DUP1 RETURNDATACOPY RETURNDATASIZE PUSH1 0x0 REVERT JUMPDEST POP POP POP POP PUSH1 0x40 MLOAD RETURNDATASIZE PUSH1 0x1F NOT PUSH1 0x1F DUP3 ADD AND DUP3 ADD DUP1 PUSH1 0x40 MSTORE POP DUP2 ADD SWAP1 PUSH2 0x18D0 SWAP2 SWAP1 PUSH2 0x2523 JUMP JUMPDEST PUSH1 0x40 MLOAD DUP4 PUSH4 0xFFFFFFFF AND PUSH1 0xE0 SHL DUP2 MSTORE PUSH1 0x4 ADD PUSH2 0x18ED SWAP3 SWAP2 SWAP1 PUSH2 0x2828 JUMP JUMPDEST PUSH1 0x20 PUSH1 0x40 MLOAD DUP1 DUP4 SUB DUP2 PUSH1 0x0 DUP8 DUP1 EXTCODESIZE ISZERO DUP1 ISZERO PUSH2 0x1907 JUMPI PUSH1 0x0 DUP1 REVERT JUMPDEST POP GAS CALL ISZERO DUP1 ISZERO PUSH2 0x191B JUMPI RETURNDATASIZE PUSH1 0x0 DUP1 RETURNDATACOPY RETURNDATASIZE PUSH1 0x0 REVERT JUMPDEST POP POP POP POP PUSH1 0x40 MLOAD RETURNDATASIZE PUSH1 0x1F NOT PUSH1 0x1F DUP3 ADD AND DUP3 ADD DUP1 PUSH1 0x40 MSTORE POP DUP2 ADD SWAP1 PUSH2 0x193F SWAP2 SWAP1 PUSH2 0x24C9 JUMP JUMPDEST POP POP JUMP JUMPDEST PUSH2 0x194B PUSH2 0x1B5E JUMP JUMPDEST PUSH20 0xFFFFFFFFFFFFFFFFFFFFFFFFFFFFFFFFFFFFFFFF AND PUSH2 0x1969 PUSH2 0x12F0 JUMP JUMPDEST PUSH20 0xFFFFFFFFFFFFFFFFFFFFFFFFFFFFFFFFFFFFFFFF AND EQ PUSH2 0x19BF JUMPI PUSH1 0x40 MLOAD PUSH32 0x8C379A000000000000000000000000000000000000000000000000000000000 DUP2 MSTORE PUSH1 0x4 ADD PUSH2 0x19B6 SWAP1 PUSH2 0x29F2 JUMP JUMPDEST PUSH1 0x40 MLOAD DUP1 SWAP2 SUB SWAP1 REVERT JUMPDEST PUSH1 0x1 PUSH1 0x4 PUSH1 0x1 PUSH1 0x4 DUP1 SLOAD SWAP1 POP PUSH2 0x19D5 SWAP2 SWAP1 PUSH2 0x2BD7 JUMP JUMPDEST DUP2 SLOAD DUP2 LT PUSH2 0x19E6 JUMPI PUSH2 0x19E5 PUSH2 0x2E14 JUMP JUMPDEST JUMPDEST SWAP1 PUSH1 0x0 MSTORE PUSH1 0x20 PUSH1 0x0 KECCAK256 SWAP1 PUSH1 0xB MUL ADD PUSH1 0x2 ADD PUSH1 0x0 PUSH2 0x100 EXP DUP2 SLOAD DUP2 PUSH1 0xFF MUL NOT AND SWAP1 DUP4 PUSH1 0x1 DUP2 GT ISZERO PUSH2 0x1A19 JUMPI PUSH2 0x1A18 PUSH2 0x2DE5 JUMP JUMPDEST JUMPDEST MUL OR SWAP1 SSTORE POP PUSH2 0x1A26 PUSH2 0x1F5E JUMP JUMPDEST PUSH2 0x1A2E PUSH2 0x1CF2 JUMP JUMPDEST JUMP JUMPDEST PUSH1 0x1 DUP2 JUMP JUMPDEST PUSH1 0x7 SLOAD DUP2 JUMP JUMPDEST PUSH2 0x1A43 PUSH2 0x1B5E JUMP JUMPDEST PUSH20 0xFFFFFFFFFFFFFFFFFFFFFFFFFFFFFFFFFFFFFFFF AND PUSH2 0x1A61 PUSH2 0x12F0 JUMP JUMPDEST PUSH20 0xFFFFFFFFFFFFFFFFFFFFFFFFFFFFFFFFFFFFFFFF AND EQ PUSH2 0x1AB7 JUMPI PUSH1 0x40 MLOAD PUSH32 0x8C379A000000000000000000000000000000000000000000000000000000000 DUP2 MSTORE PUSH1 0x4 ADD PUSH2 0x1AAE SWAP1 PUSH2 0x29F2 JUMP JUMPDEST PUSH1 0x40 MLOAD DUP1 SWAP2 SUB SWAP1 REVERT JUMPDEST PUSH1 0x0 PUSH20 0xFFFFFFFFFFFFFFFFFFFFFFFFFFFFFFFFFFFFFFFF AND DUP2 PUSH20 0xFFFFFFFFFFFFFFFFFFFFFFFFFFFFFFFFFFFFFFFF AND EQ ISZERO PUSH2 0x1B27 JUMPI PUSH1 0x40 MLOAD PUSH32 0x8C379A000000000000000000000000000000000000000000000000000000000 DUP2 MSTORE PUSH1 0x4 ADD PUSH2 0x1B1E SWAP1 PUSH2 0x2952 JUMP JUMPDEST PUSH1 0x40 MLOAD DUP1 SWAP2 SUB SWAP1 REVERT JUMPDEST PUSH2 0x1B30 DUP2 PUSH2 0x1E9A JUMP JUMPDEST POP JUMP JUMPDEST PUSH1 0x1 PUSH1 0x0 SWAP1 SLOAD SWAP1 PUSH2 0x100 EXP SWAP1 DIV PUSH20 0xFFFFFFFFFFFFFFFFFFFFFFFFFFFFFFFFFFFFFFFF AND DUP2 JUMP JUMPDEST PUSH1 0x2D DUP2 JUMP JUMPDEST PUSH1 0x0 CALLER SWAP1 POP SWAP1 JUMP JUMPDEST PUSH1 0x1 DUP1 DUP2 GT ISZERO PUSH2 0x1B79 JUMPI PUSH2 0x1B78 PUSH2 0x2DE5 JUMP JUMPDEST JUMPDEST PUSH1 0x4 PUSH1 0x1 PUSH1 0x4 DUP1 SLOAD SWAP1 POP PUSH2 0x1B8D SWAP2 SWAP1 PUSH2 0x2BD7 JUMP JUMPDEST DUP2 SLOAD DUP2 LT PUSH2 0x1B9E JUMPI PUSH2 0x1B9D PUSH2 0x2E14 JUMP JUMPDEST JUMPDEST SWAP1 PUSH1 0x0 MSTORE PUSH1 0x20 PUSH1 0x0 KECCAK256 SWAP1 PUSH1 0xB MUL ADD PUSH1 0x2 ADD PUSH1 0x0 SWAP1 SLOAD SWAP1 PUSH2 0x100 EXP SWAP1 DIV PUSH1 0xFF AND PUSH1 0x1 DUP2 GT ISZERO PUSH2 0x1BCF JUMPI PUSH2 0x1BCE PUSH2 0x2DE5 JUMP JUMPDEST JUMPDEST EQ ISZERO PUSH2 0x1C10 JUMPI PUSH1 0x40 MLOAD PUSH32 0x8C379A000000000000000000000000000000000000000000000000000000000 DUP2 MSTORE PUSH1 0x4 ADD PUSH2 0x1C07 SWAP1 PUSH2 0x29D2 JUMP JUMPDEST PUSH1 0x40 MLOAD DUP1 SWAP2 SUB SWAP1 REVERT JUMPDEST PUSH1 0x4 PUSH1 0x1 PUSH1 0x4 DUP1 SLOAD SWAP1 POP PUSH2 0x1C24 SWAP2 SWAP1 PUSH2 0x2BD7 JUMP JUMPDEST DUP2 SLOAD DUP2 LT PUSH2 0x1C35 JUMPI PUSH2 0x1C34 PUSH2 0x2E14 JUMP JUMPDEST JUMPDEST SWAP1 PUSH1 0x0 MSTORE PUSH1 0x20 PUSH1 0x0 KECCAK256 SWAP1 PUSH1 0xB MUL ADD PUSH1 0x1 ADD SLOAD TIMESTAMP LT ISZERO PUSH2 0x1C89 JUMPI PUSH1 0x40 MLOAD PUSH32 0x8C379A000000000000000000000000000000000000000000000000000000000 DUP2 MSTORE PUSH1 0x4 ADD PUSH2 0x1C80 SWAP1 PUSH2 0x29B2 JUMP JUMPDEST PUSH1 0x40 MLOAD DUP1 SWAP2 SUB SWAP1 REVERT JUMPDEST PUSH1 0x1 PUSH1 0x4 PUSH1 0x1 PUSH1 0x4 DUP1 SLOAD SWAP1 POP PUSH2 0x1C9F SWAP2 SWAP1 PUSH2 0x2BD7 JUMP JUMPDEST DUP2 SLOAD DUP2 LT PUSH2 0x1CB0 JUMPI PUSH2 0x1CAF PUSH2 0x2E14 JUMP JUMPDEST JUMPDEST SWAP1 PUSH1 0x0 MSTORE PUSH1 0x20 PUSH1 0x0 KECCAK256 SWAP1 PUSH1 0xB MUL ADD PUSH1 0x2 ADD PUSH1 0x0 PUSH2 0x100 EXP DUP2 SLOAD DUP2 PUSH1 0xFF MUL NOT AND SWAP1 DUP4 PUSH1 0x1 DUP2 GT ISZERO PUSH2 0x1CE3 JUMPI PUSH2 0x1CE2 PUSH2 0x2DE5 JUMP JUMPDEST JUMPDEST MUL OR SWAP1 SSTORE POP PUSH2 0x1CF0 PUSH2 0x1F5E JUMP JUMPDEST JUMP JUMPDEST PUSH1 0x0 PUSH1 0x4 DUP1 SLOAD SWAP1 POP GT DUP1 ISZERO PUSH2 0x1D6E JUMPI POP PUSH1 0x1 DUP1 DUP2 GT ISZERO PUSH2 0x1D15 JUMPI PUSH2 0x1D14 PUSH2 0x2DE5 JUMP JUMPDEST JUMPDEST PUSH1 0x4 PUSH1 0x1 PUSH1 0x4 DUP1 SLOAD SWAP1 POP PUSH2 0x1D29 SWAP2 SWAP1 PUSH2 0x2BD7 JUMP JUMPDEST DUP2 SLOAD DUP2 LT PUSH2 0x1D3A JUMPI PUSH2 0x1D39 PUSH2 0x2E14 JUMP JUMPDEST JUMPDEST SWAP1 PUSH1 0x0 MSTORE PUSH1 0x20 PUSH1 0x0 KECCAK256 SWAP1 PUSH1 0xB MUL ADD PUSH1 0x2 ADD PUSH1 0x0 SWAP1 SLOAD SWAP1 PUSH2 0x100 EXP SWAP1 DIV PUSH1 0xFF AND PUSH1 0x1 DUP2 GT ISZERO PUSH2 0x1D6B JUMPI PUSH2 0x1D6A PUSH2 0x2DE5 JUMP JUMPDEST JUMPDEST EQ ISZERO JUMPDEST ISZERO PUSH2 0x1DAE JUMPI PUSH1 0x40 MLOAD PUSH32 0x8C379A000000000000000000000000000000000000000000000000000000000 DUP2 MSTORE PUSH1 0x4 ADD PUSH2 0x1DA5 SWAP1 PUSH2 0x2A12 JUMP JUMPDEST PUSH1 0x40 MLOAD DUP1 SWAP2 SUB SWAP1 REVERT JUMPDEST PUSH2 0x1DB6 PUSH2 0x22C8 JUMP JUMPDEST PUSH1 0x0 PUSH1 0x40 MLOAD DUP1 PUSH1 0xA0 ADD PUSH1 0x40 MSTORE DUP1 TIMESTAMP DUP2 MSTORE PUSH1 0x20 ADD PUSH1 0x6 SLOAD TIMESTAMP PUSH2 0x1DD7 SWAP2 SWAP1 PUSH2 0x2B81 JUMP JUMPDEST DUP2 MSTORE PUSH1 0x20 ADD PUSH1 0x0 PUSH1 0x1 DUP2 GT ISZERO PUSH2 0x1DF0 JUMPI PUSH2 0x1DEF PUSH2 0x2DE5 JUMP JUMPDEST JUMPDEST DUP2 MSTORE PUSH1 0x20 ADD DUP4 DUP2 MSTORE PUSH1 0x20 ADD PUSH1 0x0 DUP2 MSTORE POP SWAP1 POP PUSH1 0x4 DUP2 SWAP1 DUP1 PUSH1 0x1 DUP2 SLOAD ADD DUP1 DUP3 SSTORE DUP1 SWAP2 POP POP PUSH1 0x1 SWAP1 SUB SWAP1 PUSH1 0x0 MSTORE PUSH1 0x20 PUSH1 0x0 KECCAK256 SWAP1 PUSH1 0xB MUL ADD PUSH1 0x0 SWAP1 SWAP2 SWAP1 SWAP2 SWAP1 SWAP2 POP PUSH1 0x0 DUP3 ADD MLOAD DUP2 PUSH1 0x0 ADD SSTORE PUSH1 0x20 DUP3 ADD MLOAD DUP2 PUSH1 0x1 ADD SSTORE PUSH1 0x40 DUP3 ADD MLOAD DUP2 PUSH1 0x2 ADD PUSH1 0x0 PUSH2 0x100 EXP DUP2 SLOAD DUP2 PUSH1 0xFF MUL NOT AND SWAP1 DUP4 PUSH1 0x1 DUP2 GT ISZERO PUSH2 0x1E6D JUMPI PUSH2 0x1E6C PUSH2 0x2DE5 JUMP JUMPDEST JUMPDEST MUL OR SWAP1 SSTORE POP PUSH1 0x60 DUP3 ADD MLOAD DUP2 PUSH1 0x3 ADD SWAP1 PUSH1 0x7 PUSH2 0x1E89 SWAP3 SWAP2 SWAP1 PUSH2 0x22EA JUMP JUMPDEST POP PUSH1 0x80 DUP3 ADD MLOAD DUP2 PUSH1 0xA ADD SSTORE POP POP POP POP JUMP JUMPDEST PUSH1 0x0 DUP1 PUSH1 0x0 SWAP1 SLOAD SWAP1 PUSH2 0x100 EXP SWAP1 DIV PUSH20 0xFFFFFFFFFFFFFFFFFFFFFFFFFFFFFFFFFFFFFFFF AND SWAP1 POP DUP2 PUSH1 0x0 DUP1 PUSH2 0x100 EXP DUP2 SLOAD DUP2 PUSH20 0xFFFFFFFFFFFFFFFFFFFFFFFFFFFFFFFFFFFFFFFF MUL NOT AND SWAP1 DUP4 PUSH20 0xFFFFFFFFFFFFFFFFFFFFFFFFFFFFFFFFFFFFFFFF AND MUL OR SWAP1 SSTORE POP DUP2 PUSH20 0xFFFFFFFFFFFFFFFFFFFFFFFFFFFFFFFFFFFFFFFF AND DUP2 PUSH20 0xFFFFFFFFFFFFFFFFFFFFFFFFFFFFFFFFFFFFFFFF AND PUSH32 0x8BE0079C531659141344CD1FD0A4F28419497F9722A3DAAFE3B4186F6B6457E0 PUSH1 0x40 MLOAD PUSH1 0x40 MLOAD DUP1 SWAP2 SUB SWAP1 LOG3 POP POP JUMP JUMPDEST PUSH1 0x0 PUSH1 0x4 PUSH1 0x1 PUSH1 0x4 DUP1 SLOAD SWAP1 POP PUSH2 0x1F74 SWAP2 SWAP1 PUSH2 0x2BD7 JUMP JUMPDEST DUP2 SLOAD DUP2 LT PUSH2 0x1F85 JUMPI PUSH2 0x1F84 PUSH2 0x2E14 JUMP JUMPDEST JUMPDEST SWAP1 PUSH1 0x0 MSTORE PUSH1 0x20 PUSH1 0x0 KECCAK256 SWAP1 PUSH1 0xB MUL ADD PUSH1 0x1 ADD SLOAD SWAP1 POP PUSH1 0x4 PUSH1 0x1 PUSH1 0x4 DUP1 SLOAD SWAP1 POP PUSH2 0x1FAD SWAP2 SWAP1 PUSH2 0x2BD7 JUMP JUMPDEST DUP2 SLOAD DUP2 LT PUSH2 0x1FBE JUMPI PUSH2 0x1FBD PUSH2 0x2E14 JUMP JUMPDEST JUMPDEST SWAP1 PUSH1 0x0 MSTORE PUSH1 0x20 PUSH1 0x0 KECCAK256 SWAP1 PUSH1 0xB MUL ADD PUSH1 0x1 ADD SLOAD TIMESTAMP GT PUSH2 0x1FDB JUMPI PUSH1 0x0 DUP1 REVERT JUMPDEST PUSH1 0x0 PUSH1 0x4 PUSH1 0x1 PUSH1 0x4 DUP1 SLOAD SWAP1 POP PUSH2 0x1FF1 SWAP2 SWAP1 PUSH2 0x2BD7 JUMP JUMPDEST DUP2 SLOAD DUP2 LT PUSH2 0x2002 JUMPI PUSH2 0x2001 PUSH2 0x2E14 JUMP JUMPDEST JUMPDEST SWAP1 PUSH1 0x0 MSTORE PUSH1 0x20 PUSH1 0x0 KECCAK256 SWAP1 PUSH1 0xB MUL ADD PUSH1 0x3 ADD PUSH1 0x0 PUSH1 0x7 DUP2 LT PUSH2 0x2026 JUMPI PUSH2 0x2025 PUSH2 0x2E14 JUMP JUMPDEST JUMPDEST ADD SLOAD EQ PUSH2 0x2032 JUMPI PUSH1 0x0 DUP1 REVERT JUMPDEST PUSH1 0x0 DUP1 JUMPDEST PUSH1 0x7 DUP3 LT ISZERO PUSH2 0x21A3 JUMPI PUSH1 0x0 DUP4 BLOCKHASH SWAP1 POP PUSH1 0x0 DUP2 DUP4 PUSH1 0x40 MLOAD PUSH1 0x20 ADD PUSH2 0x205A SWAP3 SWAP2 SWAP1 PUSH2 0x28EE JUMP JUMPDEST PUSH1 0x40 MLOAD PUSH1 0x20 DUP2 DUP4 SUB SUB DUP2 MSTORE SWAP1 PUSH1 0x40 MSTORE SWAP1 POP PUSH1 0x0 DUP2 DUP1 MLOAD SWAP1 PUSH1 0x20 ADD KECCAK256 SWAP1 POP PUSH1 0x0 PUSH1 0x1 PUSH1 0x2D DUP4 PUSH1 0x0 SHR PUSH2 0x208B SWAP2 SWAP1 PUSH2 0x2D56 JUMP JUMPDEST PUSH2 0x2095 SWAP2 SWAP1 PUSH2 0x2B81 JUMP JUMPDEST SWAP1 POP PUSH1 0x0 DUP1 JUMPDEST DUP8 DUP2 LT ISZERO PUSH2 0x211E JUMPI PUSH1 0x4 PUSH1 0x1 PUSH1 0x4 DUP1 SLOAD SWAP1 POP PUSH2 0x20B7 SWAP2 SWAP1 PUSH2 0x2BD7 JUMP JUMPDEST DUP2 SLOAD DUP2 LT PUSH2 0x20C8 JUMPI PUSH2 0x20C7 PUSH2 0x2E14 JUMP JUMPDEST JUMPDEST SWAP1 PUSH1 0x0 MSTORE PUSH1 0x20 PUSH1 0x0 KECCAK256 SWAP1 PUSH1 0xB MUL ADD PUSH1 0x3 ADD DUP2 PUSH1 0x7 DUP2 LT PUSH2 0x20EB JUMPI PUSH2 0x20EA PUSH2 0x2E14 JUMP JUMPDEST JUMPDEST ADD SLOAD DUP4 EQ ISZERO PUSH2 0x210B JUMPI PUSH1 0x1 SWAP2 POP DUP7 DUP1 PUSH2 0x2103 SWAP1 PUSH2 0x2D0D JUMP JUMPDEST SWAP8 POP POP PUSH2 0x211E JUMP JUMPDEST DUP1 DUP1 PUSH2 0x2116 SWAP1 PUSH2 0x2D0D JUMP JUMPDEST SWAP2 POP POP PUSH2 0x209B JUMP JUMPDEST POP DUP1 ISZERO PUSH2 0x212F JUMPI POP POP POP POP POP PUSH2 0x2036 JUMP JUMPDEST DUP2 PUSH1 0x4 PUSH1 0x1 PUSH1 0x4 DUP1 SLOAD SWAP1 POP PUSH2 0x2144 SWAP2 SWAP1 PUSH2 0x2BD7 JUMP JUMPDEST DUP2 SLOAD DUP2 LT PUSH2 0x2155 JUMPI PUSH2 0x2154 PUSH2 0x2E14 JUMP JUMPDEST JUMPDEST SWAP1 PUSH1 0x0 MSTORE PUSH1 0x20 PUSH1 0x0 KECCAK256 SWAP1 PUSH1 0xB MUL ADD PUSH1 0x3 ADD DUP9 PUSH1 0x7 DUP2 LT PUSH2 0x2178 JUMPI PUSH2 0x2177 PUSH2 0x2E14 JUMP JUMPDEST JUMPDEST ADD DUP2 SWAP1 SSTORE POP DUP7 DUP1 PUSH2 0x2188 SWAP1 PUSH2 0x2D0D JUMP JUMPDEST SWAP8 POP POP DUP6 DUP1 PUSH2 0x2196 SWAP1 PUSH2 0x2D0D JUMP JUMPDEST SWAP7 POP POP POP POP POP POP POP PUSH2 0x2036 JUMP JUMPDEST PUSH1 0x0 DUP4 BLOCKHASH SWAP1 POP PUSH1 0x0 DUP2 DUP4 PUSH1 0x40 MLOAD PUSH1 0x20 ADD PUSH2 0x21BE SWAP3 SWAP2 SWAP1 PUSH2 0x28EE JUMP JUMPDEST PUSH1 0x40 MLOAD PUSH1 0x20 DUP2 DUP4 SUB SUB DUP2 MSTORE SWAP1 PUSH1 0x40 MSTORE SWAP1 POP PUSH1 0x0 DUP2 DUP1 MLOAD SWAP1 PUSH1 0x20 ADD KECCAK256 SWAP1 POP PUSH1 0x0 PUSH1 0x1 PUSH1 0x2D DUP4 PUSH1 0x0 SHR PUSH2 0x21EF SWAP2 SWAP1 PUSH2 0x2D56 JUMP JUMPDEST PUSH2 0x21F9 SWAP2 SWAP1 PUSH2 0x2B81 JUMP JUMPDEST SWAP1 POP DUP1 PUSH1 0x4 PUSH1 0x1 PUSH1 0x4 DUP1 SLOAD SWAP1 POP PUSH2 0x2210 SWAP2 SWAP1 PUSH2 0x2BD7 JUMP JUMPDEST DUP2 SLOAD DUP2 LT PUSH2 0x2221 JUMPI PUSH2 0x2220 PUSH2 0x2E14 JUMP JUMPDEST JUMPDEST SWAP1 PUSH1 0x0 MSTORE PUSH1 0x20 PUSH1 0x0 KECCAK256 SWAP1 PUSH1 0xB MUL ADD PUSH1 0x3 ADD PUSH1 0x6 PUSH1 0x7 DUP2 LT PUSH2 0x2245 JUMPI PUSH2 0x2244 PUSH2 0x2E14 JUMP JUMPDEST JUMPDEST ADD DUP2 SWAP1 SSTORE POP POP POP POP POP POP POP POP JUMP JUMPDEST POP DUP1 PUSH1 0x6 ADD SWAP1 PUSH2 0x2263 SWAP2 SWAP1 PUSH2 0x232A JUMP JUMPDEST POP JUMP JUMPDEST PUSH1 0x40 MLOAD DUP1 PUSH1 0xC0 ADD PUSH1 0x40 MSTORE DUP1 PUSH1 0x6 SWAP1 PUSH1 0x20 DUP3 MUL DUP1 CALLDATASIZE DUP4 CALLDATACOPY DUP1 DUP3 ADD SWAP2 POP POP SWAP1 POP POP SWAP1 JUMP JUMPDEST DUP3 PUSH1 0x6 DUP2 ADD SWAP3 DUP3 ISZERO PUSH2 0x22B7 JUMPI SWAP2 PUSH1 0x20 MUL DUP3 ADD JUMPDEST DUP3 DUP2 GT ISZERO PUSH2 0x22B6 JUMPI DUP3 MLOAD DUP3 SSTORE SWAP2 PUSH1 0x20 ADD SWAP2 SWAP1 PUSH1 0x1 ADD SWAP1 PUSH2 0x229B JUMP JUMPDEST JUMPDEST POP SWAP1 POP PUSH2 0x22C4 SWAP2 SWAP1 PUSH2 0x232A JUMP JUMPDEST POP SWAP1 JUMP JUMPDEST PUSH1 0x40 MLOAD DUP1 PUSH1 0xE0 ADD PUSH1 0x40 MSTORE DUP1 PUSH1 0x7 SWAP1 PUSH1 0x20 DUP3 MUL DUP1 CALLDATASIZE DUP4 CALLDATACOPY DUP1 DUP3 ADD SWAP2 POP POP SWAP1 POP POP SWAP1 JUMP JUMPDEST DUP3 PUSH1 0x7 DUP2 ADD SWAP3 DUP3 ISZERO PUSH2 0x2319 JUMPI SWAP2 PUSH1 0x20 MUL DUP3 ADD JUMPDEST DUP3 DUP2 GT ISZERO PUSH2 0x2318 JUMPI DUP3 MLOAD DUP3 SSTORE SWAP2 PUSH1 0x20 ADD SWAP2 SWAP1 PUSH1 0x1 ADD SWAP1 PUSH2 0x22FD JUMP JUMPDEST JUMPDEST POP SWAP1 POP PUSH2 0x2326 SWAP2 SWAP1 PUSH2 0x232A JUMP JUMPDEST POP SWAP1 JUMP JUMPDEST JUMPDEST DUP1 DUP3 GT ISZERO PUSH2 0x2343 JUMPI PUSH1 0x0 DUP2 PUSH1 0x0 SWAP1 SSTORE POP PUSH1 0x1 ADD PUSH2 0x232B JUMP JUMPDEST POP SWAP1 JUMP JUMPDEST PUSH1 0x0 PUSH2 0x235A PUSH2 0x2355 DUP5 PUSH2 0x2AB7 JUMP JUMPDEST PUSH2 0x2A92 JUMP JUMPDEST SWAP1 POP DUP1 DUP3 DUP6 PUSH1 0x20 DUP7 MUL DUP3 ADD GT ISZERO PUSH2 0x2374 JUMPI PUSH2 0x2373 PUSH2 0x2E77 JUMP JUMPDEST JUMPDEST PUSH1 0x0 JUMPDEST DUP6 DUP2 LT ISZERO PUSH2 0x23A4 JUMPI DUP2 PUSH2 0x238A DUP9 DUP3 PUSH2 0x2418 JUMP JUMPDEST DUP5 MSTORE PUSH1 0x20 DUP5 ADD SWAP4 POP PUSH1 0x20 DUP4 ADD SWAP3 POP POP PUSH1 0x1 DUP2 ADD SWAP1 POP PUSH2 0x2377 JUMP JUMPDEST POP POP POP SWAP4 SWAP3 POP POP POP JUMP JUMPDEST PUSH1 0x0 DUP2 CALLDATALOAD SWAP1 POP PUSH2 0x23BD DUP2 PUSH2 0x303A JUMP JUMPDEST SWAP3 SWAP2 POP POP JUMP JUMPDEST PUSH1 0x0 DUP2 CALLDATALOAD SWAP1 POP PUSH2 0x23D2 DUP2 PUSH2 0x3051 JUMP JUMPDEST SWAP3 SWAP2 POP POP JUMP JUMPDEST PUSH1 0x0 DUP3 PUSH1 0x1F DUP4 ADD SLT PUSH2 0x23ED JUMPI PUSH2 0x23EC PUSH2 0x2E72 JUMP JUMPDEST JUMPDEST PUSH1 0x6 PUSH2 0x23FA DUP5 DUP3 DUP6 PUSH2 0x2347 JUMP JUMPDEST SWAP2 POP POP SWAP3 SWAP2 POP POP JUMP JUMPDEST PUSH1 0x0 DUP2 MLOAD SWAP1 POP PUSH2 0x2412 DUP2 PUSH2 0x3068 JUMP JUMPDEST SWAP3 SWAP2 POP POP JUMP JUMPDEST PUSH1 0x0 DUP2 CALLDATALOAD SWAP1 POP PUSH2 0x2427 DUP2 PUSH2 0x307F JUMP JUMPDEST SWAP3 SWAP2 POP POP JUMP JUMPDEST PUSH1 0x0 DUP2 MLOAD SWAP1 POP PUSH2 0x243C DUP2 PUSH2 0x307F JUMP JUMPDEST SWAP3 SWAP2 POP POP JUMP JUMPDEST PUSH1 0x0 PUSH1 0x20 DUP3 DUP5 SUB SLT ISZERO PUSH2 0x2458 JUMPI PUSH2 0x2457 PUSH2 0x2E7C JUMP JUMPDEST JUMPDEST PUSH1 0x0 PUSH2 0x2466 DUP5 DUP3 DUP6 ADD PUSH2 0x23AE JUMP JUMPDEST SWAP2 POP POP SWAP3 SWAP2 POP POP JUMP JUMPDEST PUSH1 0x0 PUSH1 0x20 DUP3 DUP5 SUB SLT ISZERO PUSH2 0x2485 JUMPI PUSH2 0x2484 PUSH2 0x2E7C JUMP JUMPDEST JUMPDEST PUSH1 0x0 PUSH2 0x2493 DUP5 DUP3 DUP6 ADD PUSH2 0x23C3 JUMP JUMPDEST SWAP2 POP POP SWAP3 SWAP2 POP POP JUMP JUMPDEST PUSH1 0x0 PUSH1 0xC0 DUP3 DUP5 SUB SLT ISZERO PUSH2 0x24B2 JUMPI PUSH2 0x24B1 PUSH2 0x2E7C JUMP JUMPDEST JUMPDEST PUSH1 0x0 PUSH2 0x24C0 DUP5 DUP3 DUP6 ADD PUSH2 0x23D8 JUMP JUMPDEST SWAP2 POP POP SWAP3 SWAP2 POP POP JUMP JUMPDEST PUSH1 0x0 PUSH1 0x20 DUP3 DUP5 SUB SLT ISZERO PUSH2 0x24DF JUMPI PUSH2 0x24DE PUSH2 0x2E7C JUMP JUMPDEST JUMPDEST PUSH1 0x0 PUSH2 0x24ED DUP5 DUP3 DUP6 ADD PUSH2 0x2403 JUMP JUMPDEST SWAP2 POP POP SWAP3 SWAP2 POP POP JUMP JUMPDEST PUSH1 0x0 PUSH1 0x20 DUP3 DUP5 SUB SLT ISZERO PUSH2 0x250C JUMPI PUSH2 0x250B PUSH2 0x2E7C JUMP JUMPDEST JUMPDEST PUSH1 0x0 PUSH2 0x251A DUP5 DUP3 DUP6 ADD PUSH2 0x2418 JUMP JUMPDEST SWAP2 POP POP SWAP3 SWAP2 POP POP JUMP JUMPDEST PUSH1 0x0 PUSH1 0x20 DUP3 DUP5 SUB SLT ISZERO PUSH2 0x2539 JUMPI PUSH2 0x2538 PUSH2 0x2E7C JUMP JUMPDEST JUMPDEST PUSH1 0x0 PUSH2 0x2547 DUP5 DUP3 DUP6 ADD PUSH2 0x242D JUMP JUMPDEST SWAP2 POP POP SWAP3 SWAP2 POP POP JUMP JUMPDEST PUSH1 0x0 PUSH2 0x255C DUP4 DUP4 PUSH2 0x25FC JUMP JUMPDEST PUSH1 0xC0 DUP4 ADD SWAP1 POP SWAP3 SWAP2 POP POP JUMP JUMPDEST PUSH1 0x0 PUSH2 0x2574 DUP4 DUP4 PUSH2 0x27EF JUMP JUMPDEST PUSH1 0x20 DUP4 ADD SWAP1 POP SWAP3 SWAP2 POP POP JUMP JUMPDEST PUSH2 0x2589 DUP2 PUSH2 0x2C82 JUMP JUMPDEST DUP3 MSTORE POP POP JUMP JUMPDEST PUSH2 0x2598 DUP2 PUSH2 0x2C0B JUMP JUMPDEST DUP3 MSTORE POP POP JUMP JUMPDEST PUSH1 0x0 PUSH2 0x25A9 DUP3 PUSH2 0x2B01 JUMP JUMPDEST PUSH2 0x25B3 DUP2 DUP6 PUSH2 0x2B49 JUMP JUMPDEST SWAP4 POP PUSH2 0x25BE DUP4 PUSH2 0x2ADD JUMP JUMPDEST DUP1 PUSH1 0x0 JUMPDEST DUP4 DUP2 LT ISZERO PUSH2 0x25EF JUMPI DUP2 MLOAD PUSH2 0x25D6 DUP9 DUP3 PUSH2 0x2550 JUMP JUMPDEST SWAP8 POP PUSH2 0x25E1 DUP4 PUSH2 0x2B22 JUMP JUMPDEST SWAP3 POP POP PUSH1 0x1 DUP2 ADD SWAP1 POP PUSH2 0x25C2 JUMP JUMPDEST POP DUP6 SWAP4 POP POP POP POP SWAP3 SWAP2 POP POP JUMP JUMPDEST PUSH2 0x2605 DUP2 PUSH2 0x2B0C JUMP JUMPDEST PUSH2 0x260F DUP2 DUP5 PUSH2 0x2B5A JUMP JUMPDEST SWAP3 POP PUSH2 0x261A DUP3 PUSH2 0x2AED JUMP JUMPDEST DUP1 PUSH1 0x0 JUMPDEST DUP4 DUP2 LT ISZERO PUSH2 0x264B JUMPI DUP2 MLOAD PUSH2 0x2632 DUP8 DUP3 PUSH2 0x2568 JUMP JUMPDEST SWAP7 POP PUSH2 0x263D DUP4 PUSH2 0x2B2F JUMP JUMPDEST SWAP3 POP POP PUSH1 0x1 DUP2 ADD SWAP1 POP PUSH2 0x261E JUMP JUMPDEST POP POP POP POP POP POP JUMP JUMPDEST PUSH2 0x265C DUP2 PUSH2 0x2B17 JUMP JUMPDEST PUSH2 0x2666 DUP2 DUP5 PUSH2 0x2B65 JUMP JUMPDEST SWAP3 POP PUSH2 0x2671 DUP3 PUSH2 0x2AF7 JUMP JUMPDEST DUP1 PUSH1 0x0 JUMPDEST DUP4 DUP2 LT ISZERO PUSH2 0x26A2 JUMPI DUP2 MLOAD PUSH2 0x2689 DUP8 DUP3 PUSH2 0x2568 JUMP JUMPDEST SWAP7 POP PUSH2 0x2694 DUP4 PUSH2 0x2B3C JUMP JUMPDEST SWAP3 POP POP PUSH1 0x1 DUP2 ADD SWAP1 POP PUSH2 0x2675 JUMP JUMPDEST POP POP POP POP POP POP JUMP JUMPDEST PUSH2 0x26B3 DUP2 PUSH2 0x2C3B JUMP JUMPDEST DUP3 MSTORE POP POP JUMP JUMPDEST PUSH2 0x26C2 DUP2 PUSH2 0x2C94 JUMP JUMPDEST DUP3 MSTORE POP POP JUMP JUMPDEST PUSH2 0x26D1 DUP2 PUSH2 0x2CA6 JUMP JUMPDEST DUP3 MSTORE POP POP JUMP JUMPDEST PUSH1 0x0 PUSH2 0x26E4 PUSH1 0xF DUP4 PUSH2 0x2B70 JUMP JUMPDEST SWAP2 POP PUSH2 0x26EF DUP3 PUSH2 0x2E92 JUMP JUMPDEST PUSH1 0x20 DUP3 ADD SWAP1 POP SWAP2 SWAP1 POP JUMP JUMPDEST PUSH1 0x0 PUSH2 0x2707 PUSH1 0x26 DUP4 PUSH2 0x2B70 JUMP JUMPDEST SWAP2 POP PUSH2 0x2712 DUP3 PUSH2 0x2EBB JUMP JUMPDEST PUSH1 0x40 DUP3 ADD SWAP1 POP SWAP2 SWAP1 POP JUMP JUMPDEST PUSH1 0x0 PUSH2 0x272A PUSH1 0x9 DUP4 PUSH2 0x2B70 JUMP JUMPDEST SWAP2 POP PUSH2 0x2735 DUP3 PUSH2 0x2F0A JUMP JUMPDEST PUSH1 0x20 DUP3 ADD SWAP1 POP SWAP2 SWAP1 POP JUMP JUMPDEST PUSH1 0x0 PUSH2 0x274D PUSH1 0x22 DUP4 PUSH2 0x2B70 JUMP JUMPDEST SWAP2 POP PUSH2 0x2758 DUP3 PUSH2 0x2F33 JUMP JUMPDEST PUSH1 0x40 DUP3 ADD SWAP1 POP SWAP2 SWAP1 POP JUMP JUMPDEST PUSH1 0x0 PUSH2 0x2770 PUSH1 0x15 DUP4 PUSH2 0x2B70 JUMP JUMPDEST SWAP2 POP PUSH2 0x277B DUP3 PUSH2 0x2F82 JUMP JUMPDEST PUSH1 0x20 DUP3 ADD SWAP1 POP SWAP2 SWAP1 POP JUMP JUMPDEST PUSH1 0x0 PUSH2 0x2793 PUSH1 0x13 DUP4 PUSH2 0x2B70 JUMP JUMPDEST SWAP2 POP PUSH2 0x279E DUP3 PUSH2 0x2FAB JUMP JUMPDEST PUSH1 0x20 DUP3 ADD SWAP1 POP SWAP2 SWAP1 POP JUMP JUMPDEST PUSH1 0x0 PUSH2 0x27B6 PUSH1 0x20 DUP4 PUSH2 0x2B70 JUMP JUMPDEST SWAP2 POP PUSH2 0x27C1 DUP3 PUSH2 0x2FD4 JUMP JUMPDEST PUSH1 0x20 DUP3 ADD SWAP1 POP SWAP2 SWAP1 POP JUMP JUMPDEST PUSH1 0x0 PUSH2 0x27D9 PUSH1 0x11 DUP4 PUSH2 0x2B70 JUMP JUMPDEST SWAP2 POP PUSH2 0x27E4 DUP3 PUSH2 0x2FFD JUMP JUMPDEST PUSH1 0x20 DUP3 ADD SWAP1 POP SWAP2 SWAP1 POP JUMP JUMPDEST PUSH2 0x27F8 DUP2 PUSH2 0x2C78 JUMP JUMPDEST DUP3 MSTORE POP POP JUMP JUMPDEST PUSH2 0x2807 DUP2 PUSH2 0x2C78 JUMP JUMPDEST DUP3 MSTORE POP POP JUMP JUMPDEST PUSH1 0x0 PUSH1 0x20 DUP3 ADD SWAP1 POP PUSH2 0x2822 PUSH1 0x0 DUP4 ADD DUP5 PUSH2 0x258F JUMP JUMPDEST SWAP3 SWAP2 POP POP JUMP JUMPDEST PUSH1 0x0 PUSH1 0x40 DUP3 ADD SWAP1 POP PUSH2 0x283D PUSH1 0x0 DUP4 ADD DUP6 PUSH2 0x2580 JUMP JUMPDEST PUSH2 0x284A PUSH1 0x20 DUP4 ADD DUP5 PUSH2 0x27FE JUMP JUMPDEST SWAP4 SWAP3 POP POP POP JUMP JUMPDEST PUSH1 0x0 PUSH1 0x60 DUP3 ADD SWAP1 POP PUSH2 0x2866 PUSH1 0x0 DUP4 ADD DUP7 PUSH2 0x258F JUMP JUMPDEST PUSH2 0x2873 PUSH1 0x20 DUP4 ADD DUP6 PUSH2 0x258F JUMP JUMPDEST PUSH2 0x2880 PUSH1 0x40 DUP4 ADD DUP5 PUSH2 0x27FE JUMP JUMPDEST SWAP5 SWAP4 POP POP POP POP JUMP JUMPDEST PUSH1 0x0 PUSH1 0x40 DUP3 ADD SWAP1 POP PUSH2 0x289D PUSH1 0x0 DUP4 ADD DUP6 PUSH2 0x258F JUMP JUMPDEST PUSH2 0x28AA PUSH1 0x20 DUP4 ADD DUP5 PUSH2 0x27FE JUMP JUMPDEST SWAP4 SWAP3 POP POP POP JUMP JUMPDEST PUSH1 0x0 PUSH1 0x20 DUP3 ADD SWAP1 POP DUP2 DUP2 SUB PUSH1 0x0 DUP4 ADD MSTORE PUSH2 0x28CB DUP2 DUP5 PUSH2 0x259E JUMP JUMPDEST SWAP1 POP SWAP3 SWAP2 POP POP JUMP JUMPDEST PUSH1 0x0 PUSH1 0xE0 DUP3 ADD SWAP1 POP PUSH2 0x28E8 PUSH1 0x0 DUP4 ADD DUP5 PUSH2 0x2653 JUMP JUMPDEST SWAP3 SWAP2 POP POP JUMP JUMPDEST PUSH1 0x0 PUSH1 0x40 DUP3 ADD SWAP1 POP PUSH2 0x2903 PUSH1 0x0 DUP4 ADD DUP6 PUSH2 0x26AA JUMP JUMPDEST PUSH2 0x2910 PUSH1 0x20 DUP4 ADD DUP5 PUSH2 0x27FE JUMP JUMPDEST SWAP4 SWAP3 POP POP POP JUMP JUMPDEST PUSH1 0x0 PUSH1 0x20 DUP3 ADD SWAP1 POP PUSH2 0x292C PUSH1 0x0 DUP4 ADD DUP5 PUSH2 0x26B9 JUMP JUMPDEST SWAP3 SWAP2 POP POP JUMP JUMPDEST PUSH1 0x0 PUSH1 0x20 DUP3 ADD SWAP1 POP DUP2 DUP2 SUB PUSH1 0x0 DUP4 ADD MSTORE PUSH2 0x294B DUP2 PUSH2 0x26D7 JUMP JUMPDEST SWAP1 POP SWAP2 SWAP1 POP JUMP JUMPDEST PUSH1 0x0 PUSH1 0x20 DUP3 ADD SWAP1 POP DUP2 DUP2 SUB PUSH1 0x0 DUP4 ADD MSTORE PUSH2 0x296B DUP2 PUSH2 0x26FA JUMP JUMPDEST SWAP1 POP SWAP2 SWAP1 POP JUMP JUMPDEST PUSH1 0x0 PUSH1 0x20 DUP3 ADD SWAP1 POP DUP2 DUP2 SUB PUSH1 0x0 DUP4 ADD MSTORE PUSH2 0x298B DUP2 PUSH2 0x271D JUMP JUMPDEST SWAP1 POP SWAP2 SWAP1 POP JUMP JUMPDEST PUSH1 0x0 PUSH1 0x20 DUP3 ADD SWAP1 POP DUP2 DUP2 SUB PUSH1 0x0 DUP4 ADD MSTORE PUSH2 0x29AB DUP2 PUSH2 0x2740 JUMP JUMPDEST SWAP1 POP SWAP2 SWAP1 POP JUMP JUMPDEST PUSH1 0x0 PUSH1 0x20 DUP3 ADD SWAP1 POP DUP2 DUP2 SUB PUSH1 0x0 DUP4 ADD MSTORE PUSH2 0x29CB DUP2 PUSH2 0x2763 JUMP JUMPDEST SWAP1 POP SWAP2 SWAP1 POP JUMP JUMPDEST PUSH1 0x0 PUSH1 0x20 DUP3 ADD SWAP1 POP DUP2 DUP2 SUB PUSH1 0x0 DUP4 ADD MSTORE PUSH2 0x29EB DUP2 PUSH2 0x2786 JUMP JUMPDEST SWAP1 POP SWAP2 SWAP1 POP JUMP JUMPDEST PUSH1 0x0 PUSH1 0x20 DUP3 ADD SWAP1 POP DUP2 DUP2 SUB PUSH1 0x0 DUP4 ADD MSTORE PUSH2 0x2A0B DUP2 PUSH2 0x27A9 JUMP JUMPDEST SWAP1 POP SWAP2 SWAP1 POP JUMP JUMPDEST PUSH1 0x0 PUSH1 0x20 DUP3 ADD SWAP1 POP DUP2 DUP2 SUB PUSH1 0x0 DUP4 ADD MSTORE PUSH2 0x2A2B DUP2 PUSH2 0x27CC JUMP JUMPDEST SWAP1 POP SWAP2 SWAP1 POP JUMP JUMPDEST PUSH1 0x0 PUSH1 0x20 DUP3 ADD SWAP1 POP PUSH2 0x2A47 PUSH1 0x0 DUP4 ADD DUP5 PUSH2 0x27FE JUMP JUMPDEST SWAP3 SWAP2 POP POP JUMP JUMPDEST PUSH1 0x0 PUSH1 0x80 DUP3 ADD SWAP1 POP PUSH2 0x2A62 PUSH1 0x0 DUP4 ADD DUP8 PUSH2 0x27FE JUMP JUMPDEST PUSH2 0x2A6F PUSH1 0x20 DUP4 ADD DUP7 PUSH2 0x27FE JUMP JUMPDEST PUSH2 0x2A7C PUSH1 0x40 DUP4 ADD DUP6 PUSH2 0x26C8 JUMP JUMPDEST PUSH2 0x2A89 PUSH1 0x60 DUP4 ADD DUP5 PUSH2 0x27FE JUMP JUMPDEST SWAP6 SWAP5 POP POP POP POP POP JUMP JUMPDEST PUSH1 0x0 PUSH2 0x2A9C PUSH2 0x2AAD JUMP JUMPDEST SWAP1 POP PUSH2 0x2AA8 DUP3 DUP3 PUSH2 0x2CDC JUMP JUMPDEST SWAP2 SWAP1 POP JUMP JUMPDEST PUSH1 0x0 PUSH1 0x40 MLOAD SWAP1 POP SWAP1 JUMP JUMPDEST PUSH1 0x0 PUSH8 0xFFFFFFFFFFFFFFFF DUP3 GT ISZERO PUSH2 0x2AD2 JUMPI PUSH2 0x2AD1 PUSH2 0x2E43 JUMP JUMPDEST JUMPDEST PUSH1 0x20 DUP3 MUL SWAP1 POP SWAP2 SWAP1 POP JUMP JUMPDEST PUSH1 0x0 DUP2 SWAP1 POP PUSH1 0x20 DUP3 ADD SWAP1 POP SWAP2 SWAP1 POP JUMP JUMPDEST PUSH1 0x0 DUP2 SWAP1 POP SWAP2 SWAP1 POP JUMP JUMPDEST PUSH1 0x0 DUP2 SWAP1 POP SWAP2 SWAP1 POP JUMP JUMPDEST PUSH1 0x0 DUP2 MLOAD SWAP1 POP SWAP2 SWAP1 POP JUMP JUMPDEST PUSH1 0x0 PUSH1 0x6 SWAP1 POP SWAP2 SWAP1 POP JUMP JUMPDEST PUSH1 0x0 PUSH1 0x7 SWAP1 POP SWAP2 SWAP1 POP JUMP JUMPDEST PUSH1 0x0 PUSH1 0x20 DUP3 ADD SWAP1 POP SWAP2 SWAP1 POP JUMP JUMPDEST PUSH1 0x0 PUSH1 0x20 DUP3 ADD SWAP1 POP SWAP2 SWAP1 POP JUMP JUMPDEST PUSH1 0x0 PUSH1 0x20 DUP3 ADD SWAP1 POP SWAP2 SWAP1 POP JUMP JUMPDEST PUSH1 0x0 DUP3 DUP3 MSTORE PUSH1 0x20 DUP3 ADD SWAP1 POP SWAP3 SWAP2 POP POP JUMP JUMPDEST PUSH1 0x0 DUP2 SWAP1 POP SWAP3 SWAP2 POP POP JUMP JUMPDEST PUSH1 0x0 DUP2 SWAP1 POP SWAP3 SWAP2 POP POP JUMP JUMPDEST PUSH1 0x0 DUP3 DUP3 MSTORE PUSH1 0x20 DUP3 ADD SWAP1 POP SWAP3 SWAP2 POP POP JUMP JUMPDEST PUSH1 0x0 PUSH2 0x2B8C DUP3 PUSH2 0x2C78 JUMP JUMPDEST SWAP2 POP PUSH2 0x2B97 DUP4 PUSH2 0x2C78 JUMP JUMPDEST SWAP3 POP DUP3 PUSH32 0xFFFFFFFFFFFFFFFFFFFFFFFFFFFFFFFFFFFFFFFFFFFFFFFFFFFFFFFFFFFFFFFF SUB DUP3 GT ISZERO PUSH2 0x2BCC JUMPI PUSH2 0x2BCB PUSH2 0x2D87 JUMP JUMPDEST JUMPDEST DUP3 DUP3 ADD SWAP1 POP SWAP3 SWAP2 POP POP JUMP JUMPDEST PUSH1 0x0 PUSH2 0x2BE2 DUP3 PUSH2 0x2C78 JUMP JUMPDEST SWAP2 POP PUSH2 0x2BED DUP4 PUSH2 0x2C78 JUMP JUMPDEST SWAP3 POP DUP3 DUP3 LT ISZERO PUSH2 0x2C00 JUMPI PUSH2 0x2BFF PUSH2 0x2D87 JUMP JUMPDEST JUMPDEST DUP3 DUP3 SUB SWAP1 POP SWAP3 SWAP2 POP POP JUMP JUMPDEST PUSH1 0x0 PUSH2 0x2C16 DUP3 PUSH2 0x2C58 JUMP JUMPDEST SWAP1 POP SWAP2 SWAP1 POP JUMP JUMPDEST PUSH1 0x0 PUSH2 0x2C28 DUP3 PUSH2 0x2C58 JUMP JUMPDEST SWAP1 POP SWAP2 SWAP1 POP JUMP JUMPDEST PUSH1 0x0 DUP2 ISZERO ISZERO SWAP1 POP SWAP2 SWAP1 POP JUMP JUMPDEST PUSH1 0x0 DUP2 SWAP1 POP SWAP2 SWAP1 POP JUMP JUMPDEST PUSH1 0x0 DUP2 SWAP1 POP PUSH2 0x2C53 DUP3 PUSH2 0x3026 JUMP JUMPDEST SWAP2 SWAP1 POP JUMP JUMPDEST PUSH1 0x0 PUSH20 0xFFFFFFFFFFFFFFFFFFFFFFFFFFFFFFFFFFFFFFFF DUP3 AND SWAP1 POP SWAP2 SWAP1 POP JUMP JUMPDEST PUSH1 0x0 DUP2 SWAP1 POP SWAP2 SWAP1 POP JUMP JUMPDEST PUSH1 0x0 PUSH2 0x2C8D DUP3 PUSH2 0x2CB8 JUMP JUMPDEST SWAP1 POP SWAP2 SWAP1 POP JUMP JUMPDEST PUSH1 0x0 PUSH2 0x2C9F DUP3 PUSH2 0x2CB8 JUMP JUMPDEST SWAP1 POP SWAP2 SWAP1 POP JUMP JUMPDEST PUSH1 0x0 PUSH2 0x2CB1 DUP3 PUSH2 0x2C45 JUMP JUMPDEST SWAP1 POP SWAP2 SWAP1 POP JUMP JUMPDEST PUSH1 0x0 PUSH2 0x2CC3 DUP3 PUSH2 0x2CCA JUMP JUMPDEST SWAP1 POP SWAP2 SWAP1 POP JUMP JUMPDEST PUSH1 0x0 PUSH2 0x2CD5 DUP3 PUSH2 0x2C58 JUMP JUMPDEST SWAP1 POP SWAP2 SWAP1 POP JUMP JUMPDEST PUSH2 0x2CE5 DUP3 PUSH2 0x2E81 JUMP JUMPDEST DUP2 ADD DUP2 DUP2 LT PUSH8 0xFFFFFFFFFFFFFFFF DUP3 GT OR ISZERO PUSH2 0x2D04 JUMPI PUSH2 0x2D03 PUSH2 0x2E43 JUMP JUMPDEST JUMPDEST DUP1 PUSH1 0x40 MSTORE POP POP POP JUMP JUMPDEST PUSH1 0x0 PUSH2 0x2D18 DUP3 PUSH2 0x2C78 JUMP JUMPDEST SWAP2 POP PUSH32 0xFFFFFFFFFFFFFFFFFFFFFFFFFFFFFFFFFFFFFFFFFFFFFFFFFFFFFFFFFFFFFFFF DUP3 EQ ISZERO PUSH2 0x2D4B JUMPI PUSH2 0x2D4A PUSH2 0x2D87 JUMP JUMPDEST JUMPDEST PUSH1 0x1 DUP3 ADD SWAP1 POP SWAP2 SWAP1 POP JUMP JUMPDEST PUSH1 0x0 PUSH2 0x2D61 DUP3 PUSH2 0x2C78 JUMP JUMPDEST SWAP2 POP PUSH2 0x2D6C DUP4 PUSH2 0x2C78 JUMP JUMPDEST SWAP3 POP DUP3 PUSH2 0x2D7C JUMPI PUSH2 0x2D7B PUSH2 0x2DB6 JUMP JUMPDEST JUMPDEST DUP3 DUP3 MOD SWAP1 POP SWAP3 SWAP2 POP POP JUMP JUMPDEST PUSH32 0x4E487B7100000000000000000000000000000000000000000000000000000000 PUSH1 0x0 MSTORE PUSH1 0x11 PUSH1 0x4 MSTORE PUSH1 0x24 PUSH1 0x0 REVERT JUMPDEST PUSH32 0x4E487B7100000000000000000000000000000000000000000000000000000000 PUSH1 0x0 MSTORE PUSH1 0x12 PUSH1 0x4 MSTORE PUSH1 0x24 PUSH1 0x0 REVERT JUMPDEST PUSH32 0x4E487B7100000000000000000000000000000000000000000000000000000000 PUSH1 0x0 MSTORE PUSH1 0x21 PUSH1 0x4 MSTORE PUSH1 0x24 PUSH1 0x0 REVERT JUMPDEST PUSH32 0x4E487B7100000000000000000000000000000000000000000000000000000000 PUSH1 0x0 MSTORE PUSH1 0x32 PUSH1 0x4 MSTORE PUSH1 0x24 PUSH1 0x0 REVERT JUMPDEST PUSH32 0x4E487B7100000000000000000000000000000000000000000000000000000000 PUSH1 0x0 MSTORE PUSH1 0x41 PUSH1 0x4 MSTORE PUSH1 0x24 PUSH1 0x0 REVERT JUMPDEST PUSH1 0x0 DUP1 REVERT JUMPDEST PUSH1 0x0 DUP1 REVERT JUMPDEST PUSH1 0x0 DUP1 REVERT JUMPDEST PUSH1 0x0 PUSH1 0x1F NOT PUSH1 0x1F DUP4 ADD AND SWAP1 POP SWAP2 SWAP1 POP JUMP JUMPDEST PUSH32 0x4E6F742076616C69642076616C75650000000000000000000000000000000000 PUSH1 0x0 DUP3 ADD MSTORE POP JUMP JUMPDEST PUSH32 0x4F776E61626C653A206E6577206F776E657220697320746865207A65726F2061 PUSH1 0x0 DUP3 ADD MSTORE PUSH32 0x6464726573730000000000000000000000000000000000000000000000000000 PUSH1 0x20 DUP3 ADD MSTORE POP JUMP JUMPDEST PUSH32 0x526F756E6420456E640000000000000000000000000000000000000000000000 PUSH1 0x0 DUP3 ADD MSTORE POP JUMP JUMPDEST PUSH32 0x4F6E6C79206E756D626572732030207E2034352063616E20626520656E746572 PUSH1 0x0 DUP3 ADD MSTORE PUSH32 0x6564000000000000000000000000000000000000000000000000000000000000 PUSH1 0x20 DUP3 ADD MSTORE POP JUMP JUMPDEST PUSH32 0x54686520726F756E64206E6F7420656E6474696D650000000000000000000000 PUSH1 0x0 DUP3 ADD MSTORE POP JUMP JUMPDEST PUSH32 0x526F756E6420616C726561647920656E64656400000000000000000000000000 PUSH1 0x0 DUP3 ADD MSTORE POP JUMP JUMPDEST PUSH32 0x4F776E61626C653A2063616C6C6572206973206E6F7420746865206F776E6572 PUSH1 0x0 DUP3 ADD MSTORE POP JUMP JUMPDEST PUSH32 0x526F756E6420696E2070726F6772657373000000000000000000000000000000 PUSH1 0x0 DUP3 ADD MSTORE POP JUMP JUMPDEST PUSH1 0x2 DUP2 LT PUSH2 0x3037 JUMPI PUSH2 0x3036 PUSH2 0x2DE5 JUMP JUMPDEST JUMPDEST POP JUMP JUMPDEST PUSH2 0x3043 DUP2 PUSH2 0x2C0B JUMP JUMPDEST DUP2 EQ PUSH2 0x304E JUMPI PUSH1 0x0 DUP1 REVERT JUMPDEST POP JUMP JUMPDEST PUSH2 0x305A DUP2 PUSH2 0x2C1D JUMP JUMPDEST DUP2 EQ PUSH2 0x3065 JUMPI PUSH1 0x0 DUP1 REVERT JUMPDEST POP JUMP JUMPDEST PUSH2 0x3071 DUP2 PUSH2 0x2C2F JUMP JUMPDEST DUP2 EQ PUSH2 0x307C JUMPI PUSH1 0x0 DUP1 REVERT JUMPDEST POP JUMP JUMPDEST PUSH2 0x3088 DUP2 PUSH2 0x2C78 JUMP JUMPDEST DUP2 EQ PUSH2 0x3093 JUMPI PUSH1 0x0 DUP1 REVERT JUMPDEST POP JUMP INVALID LOG2 PUSH5 0x6970667358 0x22 SLT KECCAK256 0xDF MUL 0xB9 ADDMOD ISZERO PUSH15 0xB54892ED226698BFC67D4AD0829939 EXTCODEHASH 0xCB 0xB8 JUMPI SWAP14 SELFBALANCE SGT 0x25 SWAP6 EXTCODECOPY PUSH22 0x64736F6C634300080700330000000000000000000000 "
				},
				"gasEstimates": {
					"creation": {
						"codeDepositCost": "2498400",
						"executionCost": "infinite",
						"totalCost": "infinite"
					},
					"external": {
						"MAX_NUMBER()": "461",
						"MIN_NUMBER()": "373",
						"Stop()": "infinite",
						"TICKET_PRICE()": "2453",
						"TICKET_TOKEN_PRICE()": "2452",
						"buy(uint256[6])": "infinite",
						"changeInterval(uint256)": "24827",
						"changePrice(uint256)": "24849",
						"claim(uint256)": "infinite",
						"currentBlock()": "2495",
						"getContractBalance()": "428",
						"getMyTicket(uint256)": "infinite",
						"getWinNumbers(uint256)": "infinite",
						"nextRound()": "infinite",
						"owner()": "2589",
						"renounceOwnership()": "30485",
						"round_interval()": "2562",
						"rounds(uint256)": "infinite",
						"tickets(uint256)": "infinite",
						"token()": "2710",
						"tokenBuy(uint256[6])": "infinite",
						"tokenWithdraw(address)": "infinite",
						"transferOwnership(address)": "30811"
					},
					"internal": {
						"closeRound()": "infinite",
						"createRound()": "infinite",
						"drawNumbers()": "infinite"
					}
				},
				"methodIdentifiers": {
					"MAX_NUMBER()": "fea9b572",
					"MIN_NUMBER()": "dd8ab8f9",
					"Stop()": "bedf0f4a",
					"TICKET_PRICE()": "1a95f15f",
					"TICKET_TOKEN_PRICE()": "49c4e5b8",
					"buy(uint256[6])": "a8bd5634",
					"changeInterval(uint256)": "63c75607",
					"changePrice(uint256)": "a2b40d19",
					"claim(uint256)": "379607f5",
					"currentBlock()": "e12ed13c",
					"getContractBalance()": "6f9fb98a",
					"getMyTicket(uint256)": "44352d0a",
					"getWinNumbers(uint256)": "8cd85dc2",
					"nextRound()": "47e40553",
					"owner()": "8da5cb5b",
					"renounceOwnership()": "715018a6",
					"round_interval()": "7157c113",
					"rounds(uint256)": "8c65c81f",
					"tickets(uint256)": "50b44712",
					"token()": "fc0c546a",
					"tokenBuy(uint256[6])": "46583a26",
					"tokenWithdraw(address)": "b5558562",
					"transferOwnership(address)": "f2fde38b"
				}
			},
			"storageLayout": {
				"storage": [
					{
						"astId": 125,
						"contract": "contracts/Lotto.sol:Lottery",
						"label": "_owner",
						"offset": 0,
						"slot": "0",
						"type": "t_address"
					},
					{
						"astId": 253,
						"contract": "contracts/Lotto.sol:Lottery",
						"label": "token",
						"offset": 0,
						"slot": "1",
						"type": "t_contract(IKIP7)117"
					},
					{
						"astId": 281,
						"contract": "contracts/Lotto.sol:Lottery",
						"label": "TICKET_PRICE",
						"offset": 0,
						"slot": "2",
						"type": "t_uint256"
					},
					{
						"astId": 283,
						"contract": "contracts/Lotto.sol:Lottery",
						"label": "TICKET_TOKEN_PRICE",
						"offset": 0,
						"slot": "3",
						"type": "t_uint256"
					},
					{
						"astId": 293,
						"contract": "contracts/Lotto.sol:Lottery",
						"label": "rounds",
						"offset": 0,
						"slot": "4",
						"type": "t_array(t_struct(Round)267_storage)dyn_storage"
					},
					{
						"astId": 297,
						"contract": "contracts/Lotto.sol:Lottery",
						"label": "tickets",
						"offset": 0,
						"slot": "5",
						"type": "t_array(t_struct(Ticket)279_storage)dyn_storage"
					},
					{
						"astId": 299,
						"contract": "contracts/Lotto.sol:Lottery",
						"label": "round_interval",
						"offset": 0,
						"slot": "6",
						"type": "t_uint256"
					},
					{
						"astId": 301,
						"contract": "contracts/Lotto.sol:Lottery",
						"label": "currentBlock",
						"offset": 0,
						"slot": "7",
						"type": "t_uint256"
					}
				],
				"types": {
					"t_address": {
						"encoding": "inplace",
						"label": "address",
						"numberOfBytes": "20"
					},
					"t_array(t_struct(Round)267_storage)dyn_storage": {
						"base": "t_struct(Round)267_storage",
						"encoding": "dynamic_array",
						"label": "struct Lottery.Round[]",
						"numberOfBytes": "32"
					},
					"t_array(t_struct(Ticket)279_storage)dyn_storage": {
						"base": "t_struct(Ticket)279_storage",
						"encoding": "dynamic_array",
						"label": "struct Lottery.Ticket[]",
						"numberOfBytes": "32"
					},
					"t_array(t_uint256)6_storage": {
						"base": "t_uint256",
						"encoding": "inplace",
						"label": "uint256[6]",
						"numberOfBytes": "192"
					},
					"t_array(t_uint256)7_storage": {
						"base": "t_uint256",
						"encoding": "inplace",
						"label": "uint256[7]",
						"numberOfBytes": "224"
					},
					"t_contract(IKIP7)117": {
						"encoding": "inplace",
						"label": "contract IKIP7",
						"numberOfBytes": "20"
					},
					"t_enum(RoundStatus)270": {
						"encoding": "inplace",
						"label": "enum Lottery.RoundStatus",
						"numberOfBytes": "1"
					},
					"t_struct(Round)267_storage": {
						"encoding": "inplace",
						"label": "struct Lottery.Round",
						"members": [
							{
								"astId": 255,
								"contract": "contracts/Lotto.sol:Lottery",
								"label": "startTime",
								"offset": 0,
								"slot": "0",
								"type": "t_uint256"
							},
							{
								"astId": 257,
								"contract": "contracts/Lotto.sol:Lottery",
								"label": "endTime",
								"offset": 0,
								"slot": "1",
								"type": "t_uint256"
							},
							{
								"astId": 260,
								"contract": "contracts/Lotto.sol:Lottery",
								"label": "status",
								"offset": 0,
								"slot": "2",
								"type": "t_enum(RoundStatus)270"
							},
							{
								"astId": 264,
								"contract": "contracts/Lotto.sol:Lottery",
								"label": "winNumbers",
								"offset": 0,
								"slot": "3",
								"type": "t_array(t_uint256)7_storage"
							},
							{
								"astId": 266,
								"contract": "contracts/Lotto.sol:Lottery",
								"label": "totalQuantity",
								"offset": 0,
								"slot": "10",
								"type": "t_uint256"
							}
						],
						"numberOfBytes": "352"
					},
					"t_struct(Ticket)279_storage": {
						"encoding": "inplace",
						"label": "struct Lottery.Ticket",
						"members": [
							{
								"astId": 272,
								"contract": "contracts/Lotto.sol:Lottery",
								"label": "owner",
								"offset": 0,
								"slot": "0",
								"type": "t_address"
							},
							{
								"astId": 274,
								"contract": "contracts/Lotto.sol:Lottery",
								"label": "round",
								"offset": 0,
								"slot": "1",
								"type": "t_uint256"
							},
							{
								"astId": 278,
								"contract": "contracts/Lotto.sol:Lottery",
								"label": "number",
								"offset": 0,
								"slot": "2",
								"type": "t_array(t_uint256)6_storage"
							}
						],
						"numberOfBytes": "256"
					},
					"t_uint256": {
						"encoding": "inplace",
						"label": "uint256",
						"numberOfBytes": "32"
					}
				}
			},
			"userdoc": {
				"kind": "user",
				"methods": {},
				"version": 1
			}
		}
	}
}