{
	"data": {
		"bytecode": {
			"linkReferences": {},
			"object": "60806040523480156200001157600080fd5b50620000366000801b6200002a6200003c60201b60201c565b6200004460201b60201c565b620001b5565b600033905090565b6200005682826200005a60201b60201c565b5050565b6200006c82826200014b60201b60201c565b6200014757600160008084815260200190815260200160002060000160008373ffffffffffffffffffffffffffffffffffffffff1673ffffffffffffffffffffffffffffffffffffffff16815260200190815260200160002060006101000a81548160ff021916908315150217905550620000ec6200003c60201b60201c565b73ffffffffffffffffffffffffffffffffffffffff168173ffffffffffffffffffffffffffffffffffffffff16837f2f8788117e7eff1d82e926ec794901d17c78024a50270940304540a733656f0d60405160405180910390a45b5050565b600080600084815260200190815260200160002060000160008373ffffffffffffffffffffffffffffffffffffffff1673ffffffffffffffffffffffffffffffffffffffff16815260200190815260200160002060009054906101000a900460ff16905092915050565b6113bd80620001c56000396000f3fe608060405234801561001057600080fd5b50600436106101425760003560e01c80637a997ab7116100b8578063adbf37761161007c578063adbf377614610385578063c395fcb3146103a1578063d5391393146103d1578063d547741f146103ef578063dccfe3101461040b578063f80f5dd51461042757610142565b80637a997ab7146102df578063857d2608146102fd5780638a845fc01461031b57806391d1485414610337578063a217fddf1461036757610142565b80632f2ff15d1161010a5780632f2ff15d1461023757806336568abe146102535780633f16431a1461026f57806354f1e1261461028b5780636595171c146102a757806378c8cda7146102c357610142565b806301ffc9a714610147578063099db01714610177578063113b0ab2146101a7578063248a9ca3146101d75780632da7952f14610207575b600080fd5b610161600480360381019061015c9190610dd8565b610443565b60405161016e9190610e20565b60405180910390f35b610191600480360381019061018c9190610e99565b6104bd565b60405161019e9190610e20565b60405180910390f35b6101c160048036038101906101bc9190610e99565b6104f0565b6040516101ce9190610e20565b60405180910390f35b6101f160048036038101906101ec9190610efc565b610523565b6040516101fe9190610f38565b60405180910390f35b610221600480360381019061021c9190610e99565b610542565b60405161022e9190610e20565b60405180910390f35b610251600480360381019061024c9190610f53565b610575565b005b61026d60048036038101906102689190610f53565b610596565b005b61028960048036038101906102849190610e99565b610619565b005b6102a560048036038101906102a09190610e99565b610646565b005b6102c160048036038101906102bc9190610e99565b610673565b005b6102dd60048036038101906102d89190610e99565b610683565b005b6102e76106b0565b6040516102f49190610f38565b60405180910390f35b6103056106d4565b6040516103129190610f38565b60405180910390f35b61033560048036038101906103309190610e99565b6106f8565b005b610351600480360381019061034c9190610f53565b610725565b60405161035e9190610e20565b60405180910390f35b61036f61078f565b60405161037c9190610f38565b60405180910390f35b61039f600480360381019061039a9190610e99565b610796565b005b6103bb60048036038101906103b69190610e99565b6107c3565b6040516103c89190610e20565b60405180910390f35b6103d96107d9565b6040516103e69190610f38565b60405180910390f35b61040960048036038101906104049190610f53565b6107fd565b005b61042560048036038101906104209190610e99565b61081e565b005b610441600480360381019061043c9190610e99565b61082e565b005b60007f7965db0b000000000000000000000000000000000000000000000000000000007bffffffffffffffffffffffffffffffffffffffffffffffffffffffff1916827bffffffffffffffffffffffffffffffffffffffffffffffffffffffff191614806104b657506104b58261085b565b5b9050919050565b60006104e97f9f2df0fed2c77648de5860a4cc508cd0818c85b8b8a1ab4ceeef8d981c8956a683610725565b9050919050565b600061051c7f9d49f397ae9ef1a834b569acb967799a367061e305932181a44f5773da873bfd83610725565b9050919050565b6000806000838152602001908152602001600020600101549050919050565b600061056e7fdc72ed553f2544c34465af23b847953efeb813428162d767f9ba5f4013be676083610725565b9050919050565b61057e82610523565b610587816108c5565b61059183836108d9565b505050565b61059e6109b9565b73ffffffffffffffffffffffffffffffffffffffff168173ffffffffffffffffffffffffffffffffffffffff161461060b576040517f08c379a000000000000000000000000000000000000000000000000000000000815260040161060290611016565b60405180910390fd5b61061582826109c1565b5050565b6106437f9d49f397ae9ef1a834b569acb967799a367061e305932181a44f5773da873bfd82610575565b50565b6106707f9f2df0fed2c77648de5860a4cc508cd0818c85b8b8a1ab4ceeef8d981c8956a682610575565b50565b6106806000801b82610575565b50565b6106ad7fdc72ed553f2544c34465af23b847953efeb813428162d767f9ba5f4013be676082610575565b50565b7fdc72ed553f2544c34465af23b847953efeb813428162d767f9ba5f4013be676081565b7f9d49f397ae9ef1a834b569acb967799a367061e305932181a44f5773da873bfd81565b6107227f9d49f397ae9ef1a834b569acb967799a367061e305932181a44f5773da873bfd82610575565b50565b600080600084815260200190815260200160002060000160008373ffffffffffffffffffffffffffffffffffffffff1673ffffffffffffffffffffffffffffffffffffffff16815260200190815260200160002060009054906101000a900460ff16905092915050565b6000801b81565b6107c07f9f2df0fed2c77648de5860a4cc508cd0818c85b8b8a1ab4ceeef8d981c8956a682610575565b50565b60006107d26000801b83610725565b9050919050565b7f9f2df0fed2c77648de5860a4cc508cd0818c85b8b8a1ab4ceeef8d981c8956a681565b61080682610523565b61080f816108c5565b61081983836109c1565b505050565b61082b6000801b82610575565b50565b6108587fdc72ed553f2544c34465af23b847953efeb813428162d767f9ba5f4013be676082610575565b50565b60007f01ffc9a7000000000000000000000000000000000000000000000000000000007bffffffffffffffffffffffffffffffffffffffffffffffffffffffff1916827bffffffffffffffffffffffffffffffffffffffffffffffffffffffff1916149050919050565b6108d6816108d16109b9565b610aa2565b50565b6108e38282610725565b6109b557600160008084815260200190815260200160002060000160008373ffffffffffffffffffffffffffffffffffffffff1673ffffffffffffffffffffffffffffffffffffffff16815260200190815260200160002060006101000a81548160ff02191690831515021790555061095a6109b9565b73ffffffffffffffffffffffffffffffffffffffff168173ffffffffffffffffffffffffffffffffffffffff16837f2f8788117e7eff1d82e926ec794901d17c78024a50270940304540a733656f0d60405160405180910390a45b5050565b600033905090565b6109cb8282610725565b15610a9e57600080600084815260200190815260200160002060000160008373ffffffffffffffffffffffffffffffffffffffff1673ffffffffffffffffffffffffffffffffffffffff16815260200190815260200160002060006101000a81548160ff021916908315150217905550610a436109b9565b73ffffffffffffffffffffffffffffffffffffffff168173ffffffffffffffffffffffffffffffffffffffff16837ff6391f5c32d9c69d2a47ea670b442974b53935d1edc7fd64eb21e047a839171b60405160405180910390a45b5050565b610aac8282610725565b610b3b57610ad18173ffffffffffffffffffffffffffffffffffffffff166014610b3f565b610adf8360001c6020610b3f565b604051602001610af092919061113f565b6040516020818303038152906040526040517f08c379a0000000000000000000000000000000000000000000000000000000008152600401610b3291906111c3565b60405180910390fd5b5050565b606060006002836002610b52919061121e565b610b5c9190611260565b67ffffffffffffffff811115610b7557610b74611294565b5b6040519080825280601f01601f191660200182016040528015610ba75781602001600182028036833780820191505090505b5090507f300000000000000000000000000000000000000000000000000000000000000081600081518110610bdf57610bde6112c3565b5b60200101907effffffffffffffffffffffffffffffffffffffffffffffffffffffffffffff1916908160001a9053507f780000000000000000000000000000000000000000000000000000000000000081600181518110610c4357610c426112c3565b5b60200101907effffffffffffffffffffffffffffffffffffffffffffffffffffffffffffff1916908160001a90535060006001846002610c83919061121e565b610c8d9190611260565b90505b6001811115610d2d577f3031323334353637383961626364656600000000000000000000000000000000600f861660108110610ccf57610cce6112c3565b5b1a60f81b828281518110610ce657610ce56112c3565b5b60200101907effffffffffffffffffffffffffffffffffffffffffffffffffffffffffffff1916908160001a905350600485901c945080610d26906112f2565b9050610c90565b5060008414610d71576040517f08c379a0000000000000000000000000000000000000000000000000000000008152600401610d6890611367565b60405180910390fd5b8091505092915050565b600080fd5b60007fffffffff0000000000000000000000000000000000000000000000000000000082169050919050565b610db581610d80565b8114610dc057600080fd5b50565b600081359050610dd281610dac565b92915050565b600060208284031215610dee57610ded610d7b565b5b6000610dfc84828501610dc3565b91505092915050565b60008115159050919050565b610e1a81610e05565b82525050565b6000602082019050610e356000830184610e11565b92915050565b600073ffffffffffffffffffffffffffffffffffffffff82169050919050565b6000610e6682610e3b565b9050919050565b610e7681610e5b565b8114610e8157600080fd5b50565b600081359050610e9381610e6d565b92915050565b600060208284031215610eaf57610eae610d7b565b5b6000610ebd84828501610e84565b91505092915050565b6000819050919050565b610ed981610ec6565b8114610ee457600080fd5b50565b600081359050610ef681610ed0565b92915050565b600060208284031215610f1257610f11610d7b565b5b6000610f2084828501610ee7565b91505092915050565b610f3281610ec6565b82525050565b6000602082019050610f4d6000830184610f29565b92915050565b60008060408385031215610f6a57610f69610d7b565b5b6000610f7885828601610ee7565b9250506020610f8985828601610e84565b9150509250929050565b600082825260208201905092915050565b7f416363657373436f6e74726f6c3a2063616e206f6e6c792072656e6f756e636560008201527f20726f6c657320666f722073656c660000000000000000000000000000000000602082015250565b6000611000602f83610f93565b915061100b82610fa4565b604082019050919050565b6000602082019050818103600083015261102f81610ff3565b9050919050565b600081905092915050565b7f416363657373436f6e74726f6c3a206163636f756e7420000000000000000000600082015250565b6000611077601783611036565b915061108282611041565b601782019050919050565b600081519050919050565b60005b838110156110b657808201518184015260208101905061109b565b60008484015250505050565b60006110cd8261108d565b6110d78185611036565b93506110e7818560208601611098565b80840191505092915050565b7f206973206d697373696e6720726f6c6520000000000000000000000000000000600082015250565b6000611129601183611036565b9150611134826110f3565b601182019050919050565b600061114a8261106a565b915061115682856110c2565b91506111618261111c565b915061116d82846110c2565b91508190509392505050565b6000601f19601f8301169050919050565b60006111958261108d565b61119f8185610f93565b93506111af818560208601611098565b6111b881611179565b840191505092915050565b600060208201905081810360008301526111dd818461118a565b905092915050565b6000819050919050565b7f4e487b7100000000000000000000000000000000000000000000000000000000600052601160045260246000fd5b6000611229826111e5565b9150611234836111e5565b9250828202611242816111e5565b91508282048414831517611259576112586111ef565b5b5092915050565b600061126b826111e5565b9150611276836111e5565b925082820190508082111561128e5761128d6111ef565b5b92915050565b7f4e487b7100000000000000000000000000000000000000000000000000000000600052604160045260246000fd5b7f4e487b7100000000000000000000000000000000000000000000000000000000600052603260045260246000fd5b60006112fd826111e5565b9150600082036113105761130f6111ef565b5b600182039050919050565b7f537472696e67733a20686578206c656e67746820696e73756666696369656e74600082015250565b6000611351602083610f93565b915061135c8261131b565b602082019050919050565b6000602082019050818103600083015261138081611344565b905091905056fea2646970667358221220b2861596d7fbb241c6e98a7ed6adfe8e0b1ce1c3234b27039a03f6fb4fc1662064736f6c63430008120033",
			"opcodes": "PUSH1 0x80 PUSH1 0x40 MSTORE CALLVALUE DUP1 ISZERO PUSH3 0x11 JUMPI PUSH1 0x0 DUP1 REVERT JUMPDEST POP PUSH3 0x36 PUSH1 0x0 DUP1 SHL PUSH3 0x2A PUSH3 0x3C PUSH1 0x20 SHL PUSH1 0x20 SHR JUMP JUMPDEST PUSH3 0x44 PUSH1 0x20 SHL PUSH1 0x20 SHR JUMP JUMPDEST PUSH3 0x1B5 JUMP JUMPDEST PUSH1 0x0 CALLER SWAP1 POP SWAP1 JUMP JUMPDEST PUSH3 0x56 DUP3 DUP3 PUSH3 0x5A PUSH1 0x20 SHL PUSH1 0x20 SHR JUMP JUMPDEST POP POP JUMP JUMPDEST PUSH3 0x6C DUP3 DUP3 PUSH3 0x14B PUSH1 0x20 SHL PUSH1 0x20 SHR JUMP JUMPDEST PUSH3 0x147 JUMPI PUSH1 0x1 PUSH1 0x0 DUP1 DUP5 DUP2 MSTORE PUSH1 0x20 ADD SWAP1 DUP2 MSTORE PUSH1 0x20 ADD PUSH1 0x0 KECCAK256 PUSH1 0x0 ADD PUSH1 0x0 DUP4 PUSH20 0xFFFFFFFFFFFFFFFFFFFFFFFFFFFFFFFFFFFFFFFF AND PUSH20 0xFFFFFFFFFFFFFFFFFFFFFFFFFFFFFFFFFFFFFFFF AND DUP2 MSTORE PUSH1 0x20 ADD SWAP1 DUP2 MSTORE PUSH1 0x20 ADD PUSH1 0x0 KECCAK256 PUSH1 0x0 PUSH2 0x100 EXP DUP2 SLOAD DUP2 PUSH1 0xFF MUL NOT AND SWAP1 DUP4 ISZERO ISZERO MUL OR SWAP1 SSTORE POP PUSH3 0xEC PUSH3 0x3C PUSH1 0x20 SHL PUSH1 0x20 SHR JUMP JUMPDEST PUSH20 0xFFFFFFFFFFFFFFFFFFFFFFFFFFFFFFFFFFFFFFFF AND DUP2 PUSH20 0xFFFFFFFFFFFFFFFFFFFFFFFFFFFFFFFFFFFFFFFF AND DUP4 PUSH32 0x2F8788117E7EFF1D82E926EC794901D17C78024A50270940304540A733656F0D PUSH1 0x40 MLOAD PUSH1 0x40 MLOAD DUP1 SWAP2 SUB SWAP1 LOG4 JUMPDEST POP POP JUMP JUMPDEST PUSH1 0x0 DUP1 PUSH1 0x0 DUP5 DUP2 MSTORE PUSH1 0x20 ADD SWAP1 DUP2 MSTORE PUSH1 0x20 ADD PUSH1 0x0 KECCAK256 PUSH1 0x0 ADD PUSH1 0x0 DUP4 PUSH20 0xFFFFFFFFFFFFFFFFFFFFFFFFFFFFFFFFFFFFFFFF AND PUSH20 0xFFFFFFFFFFFFFFFFFFFFFFFFFFFFFFFFFFFFFFFF AND DUP2 MSTORE PUSH1 0x20 ADD SWAP1 DUP2 MSTORE PUSH1 0x20 ADD PUSH1 0x0 KECCAK256 PUSH1 0x0 SWAP1 SLOAD SWAP1 PUSH2 0x100 EXP SWAP1 DIV PUSH1 0xFF AND SWAP1 POP SWAP3 SWAP2 POP POP JUMP JUMPDEST PUSH2 0x13BD DUP1 PUSH3 0x1C5 PUSH1 0x0 CODECOPY PUSH1 0x0 RETURN INVALID PUSH1 0x80 PUSH1 0x40 MSTORE CALLVALUE DUP1 ISZERO PUSH2 0x10 JUMPI PUSH1 0x0 DUP1 REVERT JUMPDEST POP PUSH1 0x4 CALLDATASIZE LT PUSH2 0x142 JUMPI PUSH1 0x0 CALLDATALOAD PUSH1 0xE0 SHR DUP1 PUSH4 0x7A997AB7 GT PUSH2 0xB8 JUMPI DUP1 PUSH4 0xADBF3776 GT PUSH2 0x7C JUMPI DUP1 PUSH4 0xADBF3776 EQ PUSH2 0x385 JUMPI DUP1 PUSH4 0xC395FCB3 EQ PUSH2 0x3A1 JUMPI DUP1 PUSH4 0xD5391393 EQ PUSH2 0x3D1 JUMPI DUP1 PUSH4 0xD547741F EQ PUSH2 0x3EF JUMPI DUP1 PUSH4 0xDCCFE310 EQ PUSH2 0x40B JUMPI DUP1 PUSH4 0xF80F5DD5 EQ PUSH2 0x427 JUMPI PUSH2 0x142 JUMP JUMPDEST DUP1 PUSH4 0x7A997AB7 EQ PUSH2 0x2DF JUMPI DUP1 PUSH4 0x857D2608 EQ PUSH2 0x2FD JUMPI DUP1 PUSH4 0x8A845FC0 EQ PUSH2 0x31B JUMPI DUP1 PUSH4 0x91D14854 EQ PUSH2 0x337 JUMPI DUP1 PUSH4 0xA217FDDF EQ PUSH2 0x367 JUMPI PUSH2 0x142 JUMP JUMPDEST DUP1 PUSH4 0x2F2FF15D GT PUSH2 0x10A JUMPI DUP1 PUSH4 0x2F2FF15D EQ PUSH2 0x237 JUMPI DUP1 PUSH4 0x36568ABE EQ PUSH2 0x253 JUMPI DUP1 PUSH4 0x3F16431A EQ PUSH2 0x26F JUMPI DUP1 PUSH4 0x54F1E126 EQ PUSH2 0x28B JUMPI DUP1 PUSH4 0x6595171C EQ PUSH2 0x2A7 JUMPI DUP1 PUSH4 0x78C8CDA7 EQ PUSH2 0x2C3 JUMPI PUSH2 0x142 JUMP JUMPDEST DUP1 PUSH4 0x1FFC9A7 EQ PUSH2 0x147 JUMPI DUP1 PUSH4 0x99DB017 EQ PUSH2 0x177 JUMPI DUP1 PUSH4 0x113B0AB2 EQ PUSH2 0x1A7 JUMPI DUP1 PUSH4 0x248A9CA3 EQ PUSH2 0x1D7 JUMPI DUP1 PUSH4 0x2DA7952F EQ PUSH2 0x207 JUMPI JUMPDEST PUSH1 0x0 DUP1 REVERT JUMPDEST PUSH2 0x161 PUSH1 0x4 DUP1 CALLDATASIZE SUB DUP2 ADD SWAP1 PUSH2 0x15C SWAP2 SWAP1 PUSH2 0xDD8 JUMP JUMPDEST PUSH2 0x443 JUMP JUMPDEST PUSH1 0x40 MLOAD PUSH2 0x16E SWAP2 SWAP1 PUSH2 0xE20 JUMP JUMPDEST PUSH1 0x40 MLOAD DUP1 SWAP2 SUB SWAP1 RETURN JUMPDEST PUSH2 0x191 PUSH1 0x4 DUP1 CALLDATASIZE SUB DUP2 ADD SWAP1 PUSH2 0x18C SWAP2 SWAP1 PUSH2 0xE99 JUMP JUMPDEST PUSH2 0x4BD JUMP JUMPDEST PUSH1 0x40 MLOAD PUSH2 0x19E SWAP2 SWAP1 PUSH2 0xE20 JUMP JUMPDEST PUSH1 0x40 MLOAD DUP1 SWAP2 SUB SWAP1 RETURN JUMPDEST PUSH2 0x1C1 PUSH1 0x4 DUP1 CALLDATASIZE SUB DUP2 ADD SWAP1 PUSH2 0x1BC SWAP2 SWAP1 PUSH2 0xE99 JUMP JUMPDEST PUSH2 0x4F0 JUMP JUMPDEST PUSH1 0x40 MLOAD PUSH2 0x1CE SWAP2 SWAP1 PUSH2 0xE20 JUMP JUMPDEST PUSH1 0x40 MLOAD DUP1 SWAP2 SUB SWAP1 RETURN JUMPDEST PUSH2 0x1F1 PUSH1 0x4 DUP1 CALLDATASIZE SUB DUP2 ADD SWAP1 PUSH2 0x1EC SWAP2 SWAP1 PUSH2 0xEFC JUMP JUMPDEST PUSH2 0x523 JUMP JUMPDEST PUSH1 0x40 MLOAD PUSH2 0x1FE SWAP2 SWAP1 PUSH2 0xF38 JUMP JUMPDEST PUSH1 0x40 MLOAD DUP1 SWAP2 SUB SWAP1 RETURN JUMPDEST PUSH2 0x221 PUSH1 0x4 DUP1 CALLDATASIZE SUB DUP2 ADD SWAP1 PUSH2 0x21C SWAP2 SWAP1 PUSH2 0xE99 JUMP JUMPDEST PUSH2 0x542 JUMP JUMPDEST PUSH1 0x40 MLOAD PUSH2 0x22E SWAP2 SWAP1 PUSH2 0xE20 JUMP JUMPDEST PUSH1 0x40 MLOAD DUP1 SWAP2 SUB SWAP1 RETURN JUMPDEST PUSH2 0x251 PUSH1 0x4 DUP1 CALLDATASIZE SUB DUP2 ADD SWAP1 PUSH2 0x24C SWAP2 SWAP1 PUSH2 0xF53 JUMP JUMPDEST PUSH2 0x575 JUMP JUMPDEST STOP JUMPDEST PUSH2 0x26D PUSH1 0x4 DUP1 CALLDATASIZE SUB DUP2 ADD SWAP1 PUSH2 0x268 SWAP2 SWAP1 PUSH2 0xF53 JUMP JUMPDEST PUSH2 0x596 JUMP JUMPDEST STOP JUMPDEST PUSH2 0x289 PUSH1 0x4 DUP1 CALLDATASIZE SUB DUP2 ADD SWAP1 PUSH2 0x284 SWAP2 SWAP1 PUSH2 0xE99 JUMP JUMPDEST PUSH2 0x619 JUMP JUMPDEST STOP JUMPDEST PUSH2 0x2A5 PUSH1 0x4 DUP1 CALLDATASIZE SUB DUP2 ADD SWAP1 PUSH2 0x2A0 SWAP2 SWAP1 PUSH2 0xE99 JUMP JUMPDEST PUSH2 0x646 JUMP JUMPDEST STOP JUMPDEST PUSH2 0x2C1 PUSH1 0x4 DUP1 CALLDATASIZE SUB DUP2 ADD SWAP1 PUSH2 0x2BC SWAP2 SWAP1 PUSH2 0xE99 JUMP JUMPDEST PUSH2 0x673 JUMP JUMPDEST STOP JUMPDEST PUSH2 0x2DD PUSH1 0x4 DUP1 CALLDATASIZE SUB DUP2 ADD SWAP1 PUSH2 0x2D8 SWAP2 SWAP1 PUSH2 0xE99 JUMP JUMPDEST PUSH2 0x683 JUMP JUMPDEST STOP JUMPDEST PUSH2 0x2E7 PUSH2 0x6B0 JUMP JUMPDEST PUSH1 0x40 MLOAD PUSH2 0x2F4 SWAP2 SWAP1 PUSH2 0xF38 JUMP JUMPDEST PUSH1 0x40 MLOAD DUP1 SWAP2 SUB SWAP1 RETURN JUMPDEST PUSH2 0x305 PUSH2 0x6D4 JUMP JUMPDEST PUSH1 0x40 MLOAD PUSH2 0x312 SWAP2 SWAP1 PUSH2 0xF38 JUMP JUMPDEST PUSH1 0x40 MLOAD DUP1 SWAP2 SUB SWAP1 RETURN JUMPDEST PUSH2 0x335 PUSH1 0x4 DUP1 CALLDATASIZE SUB DUP2 ADD SWAP1 PUSH2 0x330 SWAP2 SWAP1 PUSH2 0xE99 JUMP JUMPDEST PUSH2 0x6F8 JUMP JUMPDEST STOP JUMPDEST PUSH2 0x351 PUSH1 0x4 DUP1 CALLDATASIZE SUB DUP2 ADD SWAP1 PUSH2 0x34C SWAP2 SWAP1 PUSH2 0xF53 JUMP JUMPDEST PUSH2 0x725 JUMP JUMPDEST PUSH1 0x40 MLOAD PUSH2 0x35E SWAP2 SWAP1 PUSH2 0xE20 JUMP JUMPDEST PUSH1 0x40 MLOAD DUP1 SWAP2 SUB SWAP1 RETURN JUMPDEST PUSH2 0x36F PUSH2 0x78F JUMP JUMPDEST PUSH1 0x40 MLOAD PUSH2 0x37C SWAP2 SWAP1 PUSH2 0xF38 JUMP JUMPDEST PUSH1 0x40 MLOAD DUP1 SWAP2 SUB SWAP1 RETURN JUMPDEST PUSH2 0x39F PUSH1 0x4 DUP1 CALLDATASIZE SUB DUP2 ADD SWAP1 PUSH2 0x39A SWAP2 SWAP1 PUSH2 0xE99 JUMP JUMPDEST PUSH2 0x796 JUMP JUMPDEST STOP JUMPDEST PUSH2 0x3BB PUSH1 0x4 DUP1 CALLDATASIZE SUB DUP2 ADD SWAP1 PUSH2 0x3B6 SWAP2 SWAP1 PUSH2 0xE99 JUMP JUMPDEST PUSH2 0x7C3 JUMP JUMPDEST PUSH1 0x40 MLOAD PUSH2 0x3C8 SWAP2 SWAP1 PUSH2 0xE20 JUMP JUMPDEST PUSH1 0x40 MLOAD DUP1 SWAP2 SUB SWAP1 RETURN JUMPDEST PUSH2 0x3D9 PUSH2 0x7D9 JUMP JUMPDEST PUSH1 0x40 MLOAD PUSH2 0x3E6 SWAP2 SWAP1 PUSH2 0xF38 JUMP JUMPDEST PUSH1 0x40 MLOAD DUP1 SWAP2 SUB SWAP1 RETURN JUMPDEST PUSH2 0x409 PUSH1 0x4 DUP1 CALLDATASIZE SUB DUP2 ADD SWAP1 PUSH2 0x404 SWAP2 SWAP1 PUSH2 0xF53 JUMP JUMPDEST PUSH2 0x7FD JUMP JUMPDEST STOP JUMPDEST PUSH2 0x425 PUSH1 0x4 DUP1 CALLDATASIZE SUB DUP2 ADD SWAP1 PUSH2 0x420 SWAP2 SWAP1 PUSH2 0xE99 JUMP JUMPDEST PUSH2 0x81E JUMP JUMPDEST STOP JUMPDEST PUSH2 0x441 PUSH1 0x4 DUP1 CALLDATASIZE SUB DUP2 ADD SWAP1 PUSH2 0x43C SWAP2 SWAP1 PUSH2 0xE99 JUMP JUMPDEST PUSH2 0x82E JUMP JUMPDEST STOP JUMPDEST PUSH1 0x0 PUSH32 0x7965DB0B00000000000000000000000000000000000000000000000000000000 PUSH28 0xFFFFFFFFFFFFFFFFFFFFFFFFFFFFFFFFFFFFFFFFFFFFFFFFFFFFFFFF NOT AND DUP3 PUSH28 0xFFFFFFFFFFFFFFFFFFFFFFFFFFFFFFFFFFFFFFFFFFFFFFFFFFFFFFFF NOT AND EQ DUP1 PUSH2 0x4B6 JUMPI POP PUSH2 0x4B5 DUP3 PUSH2 0x85B JUMP JUMPDEST JUMPDEST SWAP1 POP SWAP2 SWAP1 POP JUMP JUMPDEST PUSH1 0x0 PUSH2 0x4E9 PUSH32 0x9F2DF0FED2C77648DE5860A4CC508CD0818C85B8B8A1AB4CEEEF8D981C8956A6 DUP4 PUSH2 0x725 JUMP JUMPDEST SWAP1 POP SWAP2 SWAP1 POP JUMP JUMPDEST PUSH1 0x0 PUSH2 0x51C PUSH32 0x9D49F397AE9EF1A834B569ACB967799A367061E305932181A44F5773DA873BFD DUP4 PUSH2 0x725 JUMP JUMPDEST SWAP1 POP SWAP2 SWAP1 POP JUMP JUMPDEST PUSH1 0x0 DUP1 PUSH1 0x0 DUP4 DUP2 MSTORE PUSH1 0x20 ADD SWAP1 DUP2 MSTORE PUSH1 0x20 ADD PUSH1 0x0 KECCAK256 PUSH1 0x1 ADD SLOAD SWAP1 POP SWAP2 SWAP1 POP JUMP JUMPDEST PUSH1 0x0 PUSH2 0x56E PUSH32 0xDC72ED553F2544C34465AF23B847953EFEB813428162D767F9BA5F4013BE6760 DUP4 PUSH2 0x725 JUMP JUMPDEST SWAP1 POP SWAP2 SWAP1 POP JUMP JUMPDEST PUSH2 0x57E DUP3 PUSH2 0x523 JUMP JUMPDEST PUSH2 0x587 DUP2 PUSH2 0x8C5 JUMP JUMPDEST PUSH2 0x591 DUP4 DUP4 PUSH2 0x8D9 JUMP JUMPDEST POP POP POP JUMP JUMPDEST PUSH2 0x59E PUSH2 0x9B9 JUMP JUMPDEST PUSH20 0xFFFFFFFFFFFFFFFFFFFFFFFFFFFFFFFFFFFFFFFF AND DUP2 PUSH20 0xFFFFFFFFFFFFFFFFFFFFFFFFFFFFFFFFFFFFFFFF AND EQ PUSH2 0x60B JUMPI PUSH1 0x40 MLOAD PUSH32 0x8C379A000000000000000000000000000000000000000000000000000000000 DUP2 MSTORE PUSH1 0x4 ADD PUSH2 0x602 SWAP1 PUSH2 0x1016 JUMP JUMPDEST PUSH1 0x40 MLOAD DUP1 SWAP2 SUB SWAP1 REVERT JUMPDEST PUSH2 0x615 DUP3 DUP3 PUSH2 0x9C1 JUMP JUMPDEST POP POP JUMP JUMPDEST PUSH2 0x643 PUSH32 0x9D49F397AE9EF1A834B569ACB967799A367061E305932181A44F5773DA873BFD DUP3 PUSH2 0x575 JUMP JUMPDEST POP JUMP JUMPDEST PUSH2 0x670 PUSH32 0x9F2DF0FED2C77648DE5860A4CC508CD0818C85B8B8A1AB4CEEEF8D981C8956A6 DUP3 PUSH2 0x575 JUMP JUMPDEST POP JUMP JUMPDEST PUSH2 0x680 PUSH1 0x0 DUP1 SHL DUP3 PUSH2 0x575 JUMP JUMPDEST POP JUMP JUMPDEST PUSH2 0x6AD PUSH32 0xDC72ED553F2544C34465AF23B847953EFEB813428162D767F9BA5F4013BE6760 DUP3 PUSH2 0x575 JUMP JUMPDEST POP JUMP JUMPDEST PUSH32 0xDC72ED553F2544C34465AF23B847953EFEB813428162D767F9BA5F4013BE6760 DUP2 JUMP JUMPDEST PUSH32 0x9D49F397AE9EF1A834B569ACB967799A367061E305932181A44F5773DA873BFD DUP2 JUMP JUMPDEST PUSH2 0x722 PUSH32 0x9D49F397AE9EF1A834B569ACB967799A367061E305932181A44F5773DA873BFD DUP3 PUSH2 0x575 JUMP JUMPDEST POP JUMP JUMPDEST PUSH1 0x0 DUP1 PUSH1 0x0 DUP5 DUP2 MSTORE PUSH1 0x20 ADD SWAP1 DUP2 MSTORE PUSH1 0x20 ADD PUSH1 0x0 KECCAK256 PUSH1 0x0 ADD PUSH1 0x0 DUP4 PUSH20 0xFFFFFFFFFFFFFFFFFFFFFFFFFFFFFFFFFFFFFFFF AND PUSH20 0xFFFFFFFFFFFFFFFFFFFFFFFFFFFFFFFFFFFFFFFF AND DUP2 MSTORE PUSH1 0x20 ADD SWAP1 DUP2 MSTORE PUSH1 0x20 ADD PUSH1 0x0 KECCAK256 PUSH1 0x0 SWAP1 SLOAD SWAP1 PUSH2 0x100 EXP SWAP1 DIV PUSH1 0xFF AND SWAP1 POP SWAP3 SWAP2 POP POP JUMP JUMPDEST PUSH1 0x0 DUP1 SHL DUP2 JUMP JUMPDEST PUSH2 0x7C0 PUSH32 0x9F2DF0FED2C77648DE5860A4CC508CD0818C85B8B8A1AB4CEEEF8D981C8956A6 DUP3 PUSH2 0x575 JUMP JUMPDEST POP JUMP JUMPDEST PUSH1 0x0 PUSH2 0x7D2 PUSH1 0x0 DUP1 SHL DUP4 PUSH2 0x725 JUMP JUMPDEST SWAP1 POP SWAP2 SWAP1 POP JUMP JUMPDEST PUSH32 0x9F2DF0FED2C77648DE5860A4CC508CD0818C85B8B8A1AB4CEEEF8D981C8956A6 DUP2 JUMP JUMPDEST PUSH2 0x806 DUP3 PUSH2 0x523 JUMP JUMPDEST PUSH2 0x80F DUP2 PUSH2 0x8C5 JUMP JUMPDEST PUSH2 0x819 DUP4 DUP4 PUSH2 0x9C1 JUMP JUMPDEST POP POP POP JUMP JUMPDEST PUSH2 0x82B PUSH1 0x0 DUP1 SHL DUP3 PUSH2 0x575 JUMP JUMPDEST POP JUMP JUMPDEST PUSH2 0x858 PUSH32 0xDC72ED553F2544C34465AF23B847953EFEB813428162D767F9BA5F4013BE6760 DUP3 PUSH2 0x575 JUMP JUMPDEST POP JUMP JUMPDEST PUSH1 0x0 PUSH32 0x1FFC9A700000000000000000000000000000000000000000000000000000000 PUSH28 0xFFFFFFFFFFFFFFFFFFFFFFFFFFFFFFFFFFFFFFFFFFFFFFFFFFFFFFFF NOT AND DUP3 PUSH28 0xFFFFFFFFFFFFFFFFFFFFFFFFFFFFFFFFFFFFFFFFFFFFFFFFFFFFFFFF NOT AND EQ SWAP1 POP SWAP2 SWAP1 POP JUMP JUMPDEST PUSH2 0x8D6 DUP2 PUSH2 0x8D1 PUSH2 0x9B9 JUMP JUMPDEST PUSH2 0xAA2 JUMP JUMPDEST POP JUMP JUMPDEST PUSH2 0x8E3 DUP3 DUP3 PUSH2 0x725 JUMP JUMPDEST PUSH2 0x9B5 JUMPI PUSH1 0x1 PUSH1 0x0 DUP1 DUP5 DUP2 MSTORE PUSH1 0x20 ADD SWAP1 DUP2 MSTORE PUSH1 0x20 ADD PUSH1 0x0 KECCAK256 PUSH1 0x0 ADD PUSH1 0x0 DUP4 PUSH20 0xFFFFFFFFFFFFFFFFFFFFFFFFFFFFFFFFFFFFFFFF AND PUSH20 0xFFFFFFFFFFFFFFFFFFFFFFFFFFFFFFFFFFFFFFFF AND DUP2 MSTORE PUSH1 0x20 ADD SWAP1 DUP2 MSTORE PUSH1 0x20 ADD PUSH1 0x0 KECCAK256 PUSH1 0x0 PUSH2 0x100 EXP DUP2 SLOAD DUP2 PUSH1 0xFF MUL NOT AND SWAP1 DUP4 ISZERO ISZERO MUL OR SWAP1 SSTORE POP PUSH2 0x95A PUSH2 0x9B9 JUMP JUMPDEST PUSH20 0xFFFFFFFFFFFFFFFFFFFFFFFFFFFFFFFFFFFFFFFF AND DUP2 PUSH20 0xFFFFFFFFFFFFFFFFFFFFFFFFFFFFFFFFFFFFFFFF AND DUP4 PUSH32 0x2F8788117E7EFF1D82E926EC794901D17C78024A50270940304540A733656F0D PUSH1 0x40 MLOAD PUSH1 0x40 MLOAD DUP1 SWAP2 SUB SWAP1 LOG4 JUMPDEST POP POP JUMP JUMPDEST PUSH1 0x0 CALLER SWAP1 POP SWAP1 JUMP JUMPDEST PUSH2 0x9CB DUP3 DUP3 PUSH2 0x725 JUMP JUMPDEST ISZERO PUSH2 0xA9E JUMPI PUSH1 0x0 DUP1 PUSH1 0x0 DUP5 DUP2 MSTORE PUSH1 0x20 ADD SWAP1 DUP2 MSTORE PUSH1 0x20 ADD PUSH1 0x0 KECCAK256 PUSH1 0x0 ADD PUSH1 0x0 DUP4 PUSH20 0xFFFFFFFFFFFFFFFFFFFFFFFFFFFFFFFFFFFFFFFF AND PUSH20 0xFFFFFFFFFFFFFFFFFFFFFFFFFFFFFFFFFFFFFFFF AND DUP2 MSTORE PUSH1 0x20 ADD SWAP1 DUP2 MSTORE PUSH1 0x20 ADD PUSH1 0x0 KECCAK256 PUSH1 0x0 PUSH2 0x100 EXP DUP2 SLOAD DUP2 PUSH1 0xFF MUL NOT AND SWAP1 DUP4 ISZERO ISZERO MUL OR SWAP1 SSTORE POP PUSH2 0xA43 PUSH2 0x9B9 JUMP JUMPDEST PUSH20 0xFFFFFFFFFFFFFFFFFFFFFFFFFFFFFFFFFFFFFFFF AND DUP2 PUSH20 0xFFFFFFFFFFFFFFFFFFFFFFFFFFFFFFFFFFFFFFFF AND DUP4 PUSH32 0xF6391F5C32D9C69D2A47EA670B442974B53935D1EDC7FD64EB21E047A839171B PUSH1 0x40 MLOAD PUSH1 0x40 MLOAD DUP1 SWAP2 SUB SWAP1 LOG4 JUMPDEST POP POP JUMP JUMPDEST PUSH2 0xAAC DUP3 DUP3 PUSH2 0x725 JUMP JUMPDEST PUSH2 0xB3B JUMPI PUSH2 0xAD1 DUP2 PUSH20 0xFFFFFFFFFFFFFFFFFFFFFFFFFFFFFFFFFFFFFFFF AND PUSH1 0x14 PUSH2 0xB3F JUMP JUMPDEST PUSH2 0xADF DUP4 PUSH1 0x0 SHR PUSH1 0x20 PUSH2 0xB3F JUMP JUMPDEST PUSH1 0x40 MLOAD PUSH1 0x20 ADD PUSH2 0xAF0 SWAP3 SWAP2 SWAP1 PUSH2 0x113F JUMP JUMPDEST PUSH1 0x40 MLOAD PUSH1 0x20 DUP2 DUP4 SUB SUB DUP2 MSTORE SWAP1 PUSH1 0x40 MSTORE PUSH1 0x40 MLOAD PUSH32 0x8C379A000000000000000000000000000000000000000000000000000000000 DUP2 MSTORE PUSH1 0x4 ADD PUSH2 0xB32 SWAP2 SWAP1 PUSH2 0x11C3 JUMP JUMPDEST PUSH1 0x40 MLOAD DUP1 SWAP2 SUB SWAP1 REVERT JUMPDEST POP POP JUMP JUMPDEST PUSH1 0x60 PUSH1 0x0 PUSH1 0x2 DUP4 PUSH1 0x2 PUSH2 0xB52 SWAP2 SWAP1 PUSH2 0x121E JUMP JUMPDEST PUSH2 0xB5C SWAP2 SWAP1 PUSH2 0x1260 JUMP JUMPDEST PUSH8 0xFFFFFFFFFFFFFFFF DUP2 GT ISZERO PUSH2 0xB75 JUMPI PUSH2 0xB74 PUSH2 0x1294 JUMP JUMPDEST JUMPDEST PUSH1 0x40 MLOAD SWAP1 DUP1 DUP3 MSTORE DUP1 PUSH1 0x1F ADD PUSH1 0x1F NOT AND PUSH1 0x20 ADD DUP3 ADD PUSH1 0x40 MSTORE DUP1 ISZERO PUSH2 0xBA7 JUMPI DUP2 PUSH1 0x20 ADD PUSH1 0x1 DUP3 MUL DUP1 CALLDATASIZE DUP4 CALLDATACOPY DUP1 DUP3 ADD SWAP2 POP POP SWAP1 POP JUMPDEST POP SWAP1 POP PUSH32 0x3000000000000000000000000000000000000000000000000000000000000000 DUP2 PUSH1 0x0 DUP2 MLOAD DUP2 LT PUSH2 0xBDF JUMPI PUSH2 0xBDE PUSH2 0x12C3 JUMP JUMPDEST JUMPDEST PUSH1 0x20 ADD ADD SWAP1 PUSH31 0xFFFFFFFFFFFFFFFFFFFFFFFFFFFFFFFFFFFFFFFFFFFFFFFFFFFFFFFFFFFFFF NOT AND SWAP1 DUP2 PUSH1 0x0 BYTE SWAP1 MSTORE8 POP PUSH32 0x7800000000000000000000000000000000000000000000000000000000000000 DUP2 PUSH1 0x1 DUP2 MLOAD DUP2 LT PUSH2 0xC43 JUMPI PUSH2 0xC42 PUSH2 0x12C3 JUMP JUMPDEST JUMPDEST PUSH1 0x20 ADD ADD SWAP1 PUSH31 0xFFFFFFFFFFFFFFFFFFFFFFFFFFFFFFFFFFFFFFFFFFFFFFFFFFFFFFFFFFFFFF NOT AND SWAP1 DUP2 PUSH1 0x0 BYTE SWAP1 MSTORE8 POP PUSH1 0x0 PUSH1 0x1 DUP5 PUSH1 0x2 PUSH2 0xC83 SWAP2 SWAP1 PUSH2 0x121E JUMP JUMPDEST PUSH2 0xC8D SWAP2 SWAP1 PUSH2 0x1260 JUMP JUMPDEST SWAP1 POP JUMPDEST PUSH1 0x1 DUP2 GT ISZERO PUSH2 0xD2D JUMPI PUSH32 0x3031323334353637383961626364656600000000000000000000000000000000 PUSH1 0xF DUP7 AND PUSH1 0x10 DUP2 LT PUSH2 0xCCF JUMPI PUSH2 0xCCE PUSH2 0x12C3 JUMP JUMPDEST JUMPDEST BYTE PUSH1 0xF8 SHL DUP3 DUP3 DUP2 MLOAD DUP2 LT PUSH2 0xCE6 JUMPI PUSH2 0xCE5 PUSH2 0x12C3 JUMP JUMPDEST JUMPDEST PUSH1 0x20 ADD ADD SWAP1 PUSH31 0xFFFFFFFFFFFFFFFFFFFFFFFFFFFFFFFFFFFFFFFFFFFFFFFFFFFFFFFFFFFFFF NOT AND SWAP1 DUP2 PUSH1 0x0 BYTE SWAP1 MSTORE8 POP PUSH1 0x4 DUP6 SWAP1 SHR SWAP5 POP DUP1 PUSH2 0xD26 SWAP1 PUSH2 0x12F2 JUMP JUMPDEST SWAP1 POP PUSH2 0xC90 JUMP JUMPDEST POP PUSH1 0x0 DUP5 EQ PUSH2 0xD71 JUMPI PUSH1 0x40 MLOAD PUSH32 0x8C379A000000000000000000000000000000000000000000000000000000000 DUP2 MSTORE PUSH1 0x4 ADD PUSH2 0xD68 SWAP1 PUSH2 0x1367 JUMP JUMPDEST PUSH1 0x40 MLOAD DUP1 SWAP2 SUB SWAP1 REVERT JUMPDEST DUP1 SWAP2 POP POP SWAP3 SWAP2 POP POP JUMP JUMPDEST PUSH1 0x0 DUP1 REVERT JUMPDEST PUSH1 0x0 PUSH32 0xFFFFFFFF00000000000000000000000000000000000000000000000000000000 DUP3 AND SWAP1 POP SWAP2 SWAP1 POP JUMP JUMPDEST PUSH2 0xDB5 DUP2 PUSH2 0xD80 JUMP JUMPDEST DUP2 EQ PUSH2 0xDC0 JUMPI PUSH1 0x0 DUP1 REVERT JUMPDEST POP JUMP JUMPDEST PUSH1 0x0 DUP2 CALLDATALOAD SWAP1 POP PUSH2 0xDD2 DUP2 PUSH2 0xDAC JUMP JUMPDEST SWAP3 SWAP2 POP POP JUMP JUMPDEST PUSH1 0x0 PUSH1 0x20 DUP3 DUP5 SUB SLT ISZERO PUSH2 0xDEE JUMPI PUSH2 0xDED PUSH2 0xD7B JUMP JUMPDEST JUMPDEST PUSH1 0x0 PUSH2 0xDFC DUP5 DUP3 DUP6 ADD PUSH2 0xDC3 JUMP JUMPDEST SWAP2 POP POP SWAP3 SWAP2 POP POP JUMP JUMPDEST PUSH1 0x0 DUP2 ISZERO ISZERO SWAP1 POP SWAP2 SWAP1 POP JUMP JUMPDEST PUSH2 0xE1A DUP2 PUSH2 0xE05 JUMP JUMPDEST DUP3 MSTORE POP POP JUMP JUMPDEST PUSH1 0x0 PUSH1 0x20 DUP3 ADD SWAP1 POP PUSH2 0xE35 PUSH1 0x0 DUP4 ADD DUP5 PUSH2 0xE11 JUMP JUMPDEST SWAP3 SWAP2 POP POP JUMP JUMPDEST PUSH1 0x0 PUSH20 0xFFFFFFFFFFFFFFFFFFFFFFFFFFFFFFFFFFFFFFFF DUP3 AND SWAP1 POP SWAP2 SWAP1 POP JUMP JUMPDEST PUSH1 0x0 PUSH2 0xE66 DUP3 PUSH2 0xE3B JUMP JUMPDEST SWAP1 POP SWAP2 SWAP1 POP JUMP JUMPDEST PUSH2 0xE76 DUP2 PUSH2 0xE5B JUMP JUMPDEST DUP2 EQ PUSH2 0xE81 JUMPI PUSH1 0x0 DUP1 REVERT JUMPDEST POP JUMP JUMPDEST PUSH1 0x0 DUP2 CALLDATALOAD SWAP1 POP PUSH2 0xE93 DUP2 PUSH2 0xE6D JUMP JUMPDEST SWAP3 SWAP2 POP POP JUMP JUMPDEST PUSH1 0x0 PUSH1 0x20 DUP3 DUP5 SUB SLT ISZERO PUSH2 0xEAF JUMPI PUSH2 0xEAE PUSH2 0xD7B JUMP JUMPDEST JUMPDEST PUSH1 0x0 PUSH2 0xEBD DUP5 DUP3 DUP6 ADD PUSH2 0xE84 JUMP JUMPDEST SWAP2 POP POP SWAP3 SWAP2 POP POP JUMP JUMPDEST PUSH1 0x0 DUP2 SWAP1 POP SWAP2 SWAP1 POP JUMP JUMPDEST PUSH2 0xED9 DUP2 PUSH2 0xEC6 JUMP JUMPDEST DUP2 EQ PUSH2 0xEE4 JUMPI PUSH1 0x0 DUP1 REVERT JUMPDEST POP JUMP JUMPDEST PUSH1 0x0 DUP2 CALLDATALOAD SWAP1 POP PUSH2 0xEF6 DUP2 PUSH2 0xED0 JUMP JUMPDEST SWAP3 SWAP2 POP POP JUMP JUMPDEST PUSH1 0x0 PUSH1 0x20 DUP3 DUP5 SUB SLT ISZERO PUSH2 0xF12 JUMPI PUSH2 0xF11 PUSH2 0xD7B JUMP JUMPDEST JUMPDEST PUSH1 0x0 PUSH2 0xF20 DUP5 DUP3 DUP6 ADD PUSH2 0xEE7 JUMP JUMPDEST SWAP2 POP POP SWAP3 SWAP2 POP POP JUMP JUMPDEST PUSH2 0xF32 DUP2 PUSH2 0xEC6 JUMP JUMPDEST DUP3 MSTORE POP POP JUMP JUMPDEST PUSH1 0x0 PUSH1 0x20 DUP3 ADD SWAP1 POP PUSH2 0xF4D PUSH1 0x0 DUP4 ADD DUP5 PUSH2 0xF29 JUMP JUMPDEST SWAP3 SWAP2 POP POP JUMP JUMPDEST PUSH1 0x0 DUP1 PUSH1 0x40 DUP4 DUP6 SUB SLT ISZERO PUSH2 0xF6A JUMPI PUSH2 0xF69 PUSH2 0xD7B JUMP JUMPDEST JUMPDEST PUSH1 0x0 PUSH2 0xF78 DUP6 DUP3 DUP7 ADD PUSH2 0xEE7 JUMP JUMPDEST SWAP3 POP POP PUSH1 0x20 PUSH2 0xF89 DUP6 DUP3 DUP7 ADD PUSH2 0xE84 JUMP JUMPDEST SWAP2 POP POP SWAP3 POP SWAP3 SWAP1 POP JUMP JUMPDEST PUSH1 0x0 DUP3 DUP3 MSTORE PUSH1 0x20 DUP3 ADD SWAP1 POP SWAP3 SWAP2 POP POP JUMP JUMPDEST PUSH32 0x416363657373436F6E74726F6C3A2063616E206F6E6C792072656E6F756E6365 PUSH1 0x0 DUP3 ADD MSTORE PUSH32 0x20726F6C657320666F722073656C660000000000000000000000000000000000 PUSH1 0x20 DUP3 ADD MSTORE POP JUMP JUMPDEST PUSH1 0x0 PUSH2 0x1000 PUSH1 0x2F DUP4 PUSH2 0xF93 JUMP JUMPDEST SWAP2 POP PUSH2 0x100B DUP3 PUSH2 0xFA4 JUMP JUMPDEST PUSH1 0x40 DUP3 ADD SWAP1 POP SWAP2 SWAP1 POP JUMP JUMPDEST PUSH1 0x0 PUSH1 0x20 DUP3 ADD SWAP1 POP DUP2 DUP2 SUB PUSH1 0x0 DUP4 ADD MSTORE PUSH2 0x102F DUP2 PUSH2 0xFF3 JUMP JUMPDEST SWAP1 POP SWAP2 SWAP1 POP JUMP JUMPDEST PUSH1 0x0 DUP2 SWAP1 POP SWAP3 SWAP2 POP POP JUMP JUMPDEST PUSH32 0x416363657373436F6E74726F6C3A206163636F756E7420000000000000000000 PUSH1 0x0 DUP3 ADD MSTORE POP JUMP JUMPDEST PUSH1 0x0 PUSH2 0x1077 PUSH1 0x17 DUP4 PUSH2 0x1036 JUMP JUMPDEST SWAP2 POP PUSH2 0x1082 DUP3 PUSH2 0x1041 JUMP JUMPDEST PUSH1 0x17 DUP3 ADD SWAP1 POP SWAP2 SWAP1 POP JUMP JUMPDEST PUSH1 0x0 DUP2 MLOAD SWAP1 POP SWAP2 SWAP1 POP JUMP JUMPDEST PUSH1 0x0 JUMPDEST DUP4 DUP2 LT ISZERO PUSH2 0x10B6 JUMPI DUP1 DUP3 ADD MLOAD DUP2 DUP5 ADD MSTORE PUSH1 0x20 DUP2 ADD SWAP1 POP PUSH2 0x109B JUMP JUMPDEST PUSH1 0x0 DUP5 DUP5 ADD MSTORE POP POP POP POP JUMP JUMPDEST PUSH1 0x0 PUSH2 0x10CD DUP3 PUSH2 0x108D JUMP JUMPDEST PUSH2 0x10D7 DUP2 DUP6 PUSH2 0x1036 JUMP JUMPDEST SWAP4 POP PUSH2 0x10E7 DUP2 DUP6 PUSH1 0x20 DUP7 ADD PUSH2 0x1098 JUMP JUMPDEST DUP1 DUP5 ADD SWAP2 POP POP SWAP3 SWAP2 POP POP JUMP JUMPDEST PUSH32 0x206973206D697373696E6720726F6C6520000000000000000000000000000000 PUSH1 0x0 DUP3 ADD MSTORE POP JUMP JUMPDEST PUSH1 0x0 PUSH2 0x1129 PUSH1 0x11 DUP4 PUSH2 0x1036 JUMP JUMPDEST SWAP2 POP PUSH2 0x1134 DUP3 PUSH2 0x10F3 JUMP JUMPDEST PUSH1 0x11 DUP3 ADD SWAP1 POP SWAP2 SWAP1 POP JUMP JUMPDEST PUSH1 0x0 PUSH2 0x114A DUP3 PUSH2 0x106A JUMP JUMPDEST SWAP2 POP PUSH2 0x1156 DUP3 DUP6 PUSH2 0x10C2 JUMP JUMPDEST SWAP2 POP PUSH2 0x1161 DUP3 PUSH2 0x111C JUMP JUMPDEST SWAP2 POP PUSH2 0x116D DUP3 DUP5 PUSH2 0x10C2 JUMP JUMPDEST SWAP2 POP DUP2 SWAP1 POP SWAP4 SWAP3 POP POP POP JUMP JUMPDEST PUSH1 0x0 PUSH1 0x1F NOT PUSH1 0x1F DUP4 ADD AND SWAP1 POP SWAP2 SWAP1 POP JUMP JUMPDEST PUSH1 0x0 PUSH2 0x1195 DUP3 PUSH2 0x108D JUMP JUMPDEST PUSH2 0x119F DUP2 DUP6 PUSH2 0xF93 JUMP JUMPDEST SWAP4 POP PUSH2 0x11AF DUP2 DUP6 PUSH1 0x20 DUP7 ADD PUSH2 0x1098 JUMP JUMPDEST PUSH2 0x11B8 DUP2 PUSH2 0x1179 JUMP JUMPDEST DUP5 ADD SWAP2 POP POP SWAP3 SWAP2 POP POP JUMP JUMPDEST PUSH1 0x0 PUSH1 0x20 DUP3 ADD SWAP1 POP DUP2 DUP2 SUB PUSH1 0x0 DUP4 ADD MSTORE PUSH2 0x11DD DUP2 DUP5 PUSH2 0x118A JUMP JUMPDEST SWAP1 POP SWAP3 SWAP2 POP POP JUMP JUMPDEST PUSH1 0x0 DUP2 SWAP1 POP SWAP2 SWAP1 POP JUMP JUMPDEST PUSH32 0x4E487B7100000000000000000000000000000000000000000000000000000000 PUSH1 0x0 MSTORE PUSH1 0x11 PUSH1 0x4 MSTORE PUSH1 0x24 PUSH1 0x0 REVERT JUMPDEST PUSH1 0x0 PUSH2 0x1229 DUP3 PUSH2 0x11E5 JUMP JUMPDEST SWAP2 POP PUSH2 0x1234 DUP4 PUSH2 0x11E5 JUMP JUMPDEST SWAP3 POP DUP3 DUP3 MUL PUSH2 0x1242 DUP2 PUSH2 0x11E5 JUMP JUMPDEST SWAP2 POP DUP3 DUP3 DIV DUP5 EQ DUP4 ISZERO OR PUSH2 0x1259 JUMPI PUSH2 0x1258 PUSH2 0x11EF JUMP JUMPDEST JUMPDEST POP SWAP3 SWAP2 POP POP JUMP JUMPDEST PUSH1 0x0 PUSH2 0x126B DUP3 PUSH2 0x11E5 JUMP JUMPDEST SWAP2 POP PUSH2 0x1276 DUP4 PUSH2 0x11E5 JUMP JUMPDEST SWAP3 POP DUP3 DUP3 ADD SWAP1 POP DUP1 DUP3 GT ISZERO PUSH2 0x128E JUMPI PUSH2 0x128D PUSH2 0x11EF JUMP JUMPDEST JUMPDEST SWAP3 SWAP2 POP POP JUMP JUMPDEST PUSH32 0x4E487B7100000000000000000000000000000000000000000000000000000000 PUSH1 0x0 MSTORE PUSH1 0x41 PUSH1 0x4 MSTORE PUSH1 0x24 PUSH1 0x0 REVERT JUMPDEST PUSH32 0x4E487B7100000000000000000000000000000000000000000000000000000000 PUSH1 0x0 MSTORE PUSH1 0x32 PUSH1 0x4 MSTORE PUSH1 0x24 PUSH1 0x0 REVERT JUMPDEST PUSH1 0x0 PUSH2 0x12FD DUP3 PUSH2 0x11E5 JUMP JUMPDEST SWAP2 POP PUSH1 0x0 DUP3 SUB PUSH2 0x1310 JUMPI PUSH2 0x130F PUSH2 0x11EF JUMP JUMPDEST JUMPDEST PUSH1 0x1 DUP3 SUB SWAP1 POP SWAP2 SWAP1 POP JUMP JUMPDEST PUSH32 0x537472696E67733A20686578206C656E67746820696E73756666696369656E74 PUSH1 0x0 DUP3 ADD MSTORE POP JUMP JUMPDEST PUSH1 0x0 PUSH2 0x1351 PUSH1 0x20 DUP4 PUSH2 0xF93 JUMP JUMPDEST SWAP2 POP PUSH2 0x135C DUP3 PUSH2 0x131B JUMP JUMPDEST PUSH1 0x20 DUP3 ADD SWAP1 POP SWAP2 SWAP1 POP JUMP JUMPDEST PUSH1 0x0 PUSH1 0x20 DUP3 ADD SWAP1 POP DUP2 DUP2 SUB PUSH1 0x0 DUP4 ADD MSTORE PUSH2 0x1380 DUP2 PUSH2 0x1344 JUMP JUMPDEST SWAP1 POP SWAP2 SWAP1 POP JUMP INVALID LOG2 PUSH5 0x6970667358 0x22 SLT KECCAK256 0xB2 DUP7 ISZERO SWAP7 0xD7 0xFB 0xB2 COINBASE 0xC6 0xE9 DUP11 PUSH31 0xD6ADFE8E0B1CE1C3234B27039A03F6FB4FC1662064736F6C63430008120033 "
		},
		"gasEstimates": {
			"creation": {
				"codeDepositCost": "1010600",
				"executionCost": "infinite",
				"totalCost": "infinite"
			},
			"external": {
				"DEFAULT_ADMIN_ROLE()": "446",
				"MINTER_ROLE()": "395",
				"SMART_CONTRACT_ROLE()": "374",
				"WHITELIST_ROLE()": "352",
				"addAdminRole(address)": "infinite",
				"addMinterRole(address)": "infinite",
				"addSmartContractRole(address)": "infinite",
				"addWhitelist(address)": "infinite",
				"getRoleAdmin(bytes32)": "infinite",
				"grantRole(bytes32,address)": "infinite",
				"hasAdminRole(address)": "3065",
				"hasMinterRole(address)": "3061",
				"hasRole(bytes32,address)": "3229",
				"hasSmartContractRole(address)": "3083",
				"hasWhitelistRole(address)": "3127",
				"removeAdminRole(address)": "infinite",
				"removeMinterRole(address)": "infinite",
				"removeSmartContractRole(address)": "infinite",
				"removeWhitelist(address)": "infinite",
				"renounceRole(bytes32,address)": "infinite",
				"revokeRole(bytes32,address)": "infinite",
				"supportsInterface(bytes4)": "751"
			}
		},
		"methodIdentifiers": {
			"DEFAULT_ADMIN_ROLE()": "a217fddf",
			"MINTER_ROLE()": "d5391393",
			"SMART_CONTRACT_ROLE()": "857d2608",
			"WHITELIST_ROLE()": "7a997ab7",
			"addAdminRole(address)": "6595171c",
			"addMinterRole(address)": "adbf3776",
			"addSmartContractRole(address)": "3f16431a",
			"addWhitelist(address)": "f80f5dd5",
			"getRoleAdmin(bytes32)": "248a9ca3",
			"grantRole(bytes32,address)": "2f2ff15d",
			"hasAdminRole(address)": "c395fcb3",
			"hasMinterRole(address)": "099db017",
			"hasRole(bytes32,address)": "91d14854",
			"hasSmartContractRole(address)": "113b0ab2",
			"hasWhitelistRole(address)": "2da7952f",
			"removeAdminRole(address)": "dccfe310",
			"removeMinterRole(address)": "54f1e126",
			"removeSmartContractRole(address)": "8a845fc0",
			"removeWhitelist(address)": "78c8cda7",
			"renounceRole(bytes32,address)": "36568abe",
			"revokeRole(bytes32,address)": "d547741f",
			"supportsInterface(bytes4)": "01ffc9a7"
		}
	},
	"abi": [
		{
			"inputs": [],
			"stateMutability": "nonpayable",
			"type": "constructor"
		},
		{
			"anonymous": false,
			"inputs": [
				{
					"indexed": true,
					"internalType": "address",
					"name": "beneficiary",
					"type": "address"
				},
				{
					"indexed": true,
					"internalType": "address",
					"name": "caller",
					"type": "address"
				}
			],
			"name": "AdminRoleGranted",
			"type": "event"
		},
		{
			"anonymous": false,
			"inputs": [
				{
					"indexed": true,
					"internalType": "address",
					"name": "beneficiary",
					"type": "address"
				},
				{
					"indexed": true,
					"internalType": "address",
					"name": "caller",
					"type": "address"
				}
			],
			"name": "AdminRoleRemoved",
			"type": "event"
		},
		{
			"anonymous": false,
			"inputs": [
				{
					"indexed": true,
					"internalType": "address",
					"name": "beneficiary",
					"type": "address"
				},
				{
					"indexed": true,
					"internalType": "address",
					"name": "caller",
					"type": "address"
				}
			],
			"name": "MinterRoleGranted",
			"type": "event"
		},
		{
			"anonymous": false,
			"inputs": [
				{
					"indexed": true,
					"internalType": "address",
					"name": "beneficiary",
					"type": "address"
				},
				{
					"indexed": true,
					"internalType": "address",
					"name": "caller",
					"type": "address"
				}
			],
			"name": "MinterRoleRemove",
			"type": "event"
		},
		{
			"anonymous": false,
			"inputs": [
				{
					"indexed": true,
					"internalType": "bytes32",
					"name": "role",
					"type": "bytes32"
				},
				{
					"indexed": true,
					"internalType": "bytes32",
					"name": "previousAdminRole",
					"type": "bytes32"
				},
				{
					"indexed": true,
					"internalType": "bytes32",
					"name": "newAdminRole",
					"type": "bytes32"
				}
			],
			"name": "RoleAdminChanged",
			"type": "event"
		},
		{
			"anonymous": false,
			"inputs": [
				{
					"indexed": true,
					"internalType": "bytes32",
					"name": "role",
					"type": "bytes32"
				},
				{
					"indexed": true,
					"internalType": "address",
					"name": "account",
					"type": "address"
				},
				{
					"indexed": true,
					"internalType": "address",
					"name": "sender",
					"type": "address"
				}
			],
			"name": "RoleGranted",
			"type": "event"
		},
		{
			"anonymous": false,
			"inputs": [
				{
					"indexed": true,
					"internalType": "bytes32",
					"name": "role",
					"type": "bytes32"
				},
				{
					"indexed": true,
					"internalType": "address",
					"name": "account",
					"type": "address"
				},
				{
					"indexed": true,
					"internalType": "address",
					"name": "sender",
					"type": "address"
				}
			],
			"name": "RoleRevoked",
			"type": "event"
		},
		{
			"anonymous": false,
			"inputs": [
				{
					"indexed": true,
					"internalType": "address",
					"name": "beneficiary",
					"type": "address"
				},
				{
					"indexed": true,
					"internalType": "address",
					"name": "caller",
					"type": "address"
				}
			],
			"name": "SmartContractRoleGranted",
			"type": "event"
		},
		{
			"anonymous": false,
			"inputs": [
				{
					"indexed": true,
					"internalType": "address",
					"name": "beneficiary",
					"type": "address"
				},
				{
					"indexed": true,
					"internalType": "address",
					"name": "caller",
					"type": "address"
				}
			],
			"name": "SmartContractRoleRemove",
			"type": "event"
		},
		{
			"anonymous": false,
			"inputs": [
				{
					"indexed": true,
					"internalType": "address",
					"name": "beneficiary",
					"type": "address"
				},
				{
					"indexed": true,
					"internalType": "address",
					"name": "caller",
					"type": "address"
				}
			],
			"name": "WhitelistRoleGranted",
			"type": "event"
		},
		{
			"anonymous": false,
			"inputs": [
				{
					"indexed": true,
					"internalType": "address",
					"name": "beneficiary",
					"type": "address"
				},
				{
					"indexed": true,
					"internalType": "address",
					"name": "caller",
					"type": "address"
				}
			],
			"name": "WhitelistRoleRemove",
			"type": "event"
		},
		{
			"inputs": [],
			"name": "DEFAULT_ADMIN_ROLE",
			"outputs": [
				{
					"internalType": "bytes32",
					"name": "",
					"type": "bytes32"
				}
			],
			"stateMutability": "view",
			"type": "function"
		},
		{
			"inputs": [],
			"name": "MINTER_ROLE",
			"outputs": [
				{
					"internalType": "bytes32",
					"name": "",
					"type": "bytes32"
				}
			],
			"stateMutability": "view",
			"type": "function"
		},
		{
			"inputs": [],
			"name": "SMART_CONTRACT_ROLE",
			"outputs": [
				{
					"internalType": "bytes32",
					"name": "",
					"type": "bytes32"
				}
			],
			"stateMutability": "view",
			"type": "function"
		},
		{
			"inputs": [],
			"name": "WHITELIST_ROLE",
			"outputs": [
				{
					"internalType": "bytes32",
					"name": "",
					"type": "bytes32"
				}
			],
			"stateMutability": "view",
			"type": "function"
		},
		{
			"inputs": [
				{
					"internalType": "address",
					"name": "_address",
					"type": "address"
				}
			],
			"name": "addAdminRole",
			"outputs": [],
			"stateMutability": "nonpayable",
			"type": "function"
		},
		{
			"inputs": [
				{
					"internalType": "address",
					"name": "_address",
					"type": "address"
				}
			],
			"name": "addMinterRole",
			"outputs": [],
			"stateMutability": "nonpayable",
			"type": "function"
		},
		{
			"inputs": [
				{
					"internalType": "address",
					"name": "_address",
					"type": "address"
				}
			],
			"name": "addSmartContractRole",
			"outputs": [],
			"stateMutability": "nonpayable",
			"type": "function"
		},
		{
			"inputs": [
				{
					"internalType": "address",
					"name": "_address",
					"type": "address"
				}
			],
			"name": "addWhitelist",
			"outputs": [],
			"stateMutability": "nonpayable",
			"type": "function"
		},
		{
			"inputs": [
				{
					"internalType": "bytes32",
					"name": "role",
					"type": "bytes32"
				}
			],
			"name": "getRoleAdmin",
			"outputs": [
				{
					"internalType": "bytes32",
					"name": "",
					"type": "bytes32"
				}
			],
			"stateMutability": "view",
			"type": "function"
		},
		{
			"inputs": [
				{
					"internalType": "bytes32",
					"name": "role",
					"type": "bytes32"
				},
				{
					"internalType": "address",
					"name": "account",
					"type": "address"
				}
			],
			"name": "grantRole",
			"outputs": [],
			"stateMutability": "nonpayable",
			"type": "function"
		},
		{
			"inputs": [
				{
					"internalType": "address",
					"name": "_address",
					"type": "address"
				}
			],
			"name": "hasAdminRole",
			"outputs": [
				{
					"internalType": "bool",
					"name": "",
					"type": "bool"
				}
			],
			"stateMutability": "view",
			"type": "function"
		},
		{
			"inputs": [
				{
					"internalType": "address",
					"name": "_address",
					"type": "address"
				}
			],
			"name": "hasMinterRole",
			"outputs": [
				{
					"internalType": "bool",
					"name": "",
					"type": "bool"
				}
			],
			"stateMutability": "view",
			"type": "function"
		},
		{
			"inputs": [
				{
					"internalType": "bytes32",
					"name": "role",
					"type": "bytes32"
				},
				{
					"internalType": "address",
					"name": "account",
					"type": "address"
				}
			],
			"name": "hasRole",
			"outputs": [
				{
					"internalType": "bool",
					"name": "",
					"type": "bool"
				}
			],
			"stateMutability": "view",
			"type": "function"
		},
		{
			"inputs": [
				{
					"internalType": "address",
					"name": "_address",
					"type": "address"
				}
			],
			"name": "hasSmartContractRole",
			"outputs": [
				{
					"internalType": "bool",
					"name": "",
					"type": "bool"
				}
			],
			"stateMutability": "view",
			"type": "function"
		},
		{
			"inputs": [
				{
					"internalType": "address",
					"name": "_address",
					"type": "address"
				}
			],
			"name": "hasWhitelistRole",
			"outputs": [
				{
					"internalType": "bool",
					"name": "",
					"type": "bool"
				}
			],
			"stateMutability": "view",
			"type": "function"
		},
		{
			"inputs": [
				{
					"internalType": "address",
					"name": "_address",
					"type": "address"
				}
			],
			"name": "removeAdminRole",
			"outputs": [],
			"stateMutability": "nonpayable",
			"type": "function"
		},
		{
			"inputs": [
				{
					"internalType": "address",
					"name": "_address",
					"type": "address"
				}
			],
			"name": "removeMinterRole",
			"outputs": [],
			"stateMutability": "nonpayable",
			"type": "function"
		},
		{
			"inputs": [
				{
					"internalType": "address",
					"name": "_address",
					"type": "address"
				}
			],
			"name": "removeSmartContractRole",
			"outputs": [],
			"stateMutability": "nonpayable",
			"type": "function"
		},
		{
			"inputs": [
				{
					"internalType": "address",
					"name": "_address",
					"type": "address"
				}
			],
			"name": "removeWhitelist",
			"outputs": [],
			"stateMutability": "nonpayable",
			"type": "function"
		},
		{
			"inputs": [
				{
					"internalType": "bytes32",
					"name": "role",
					"type": "bytes32"
				},
				{
					"internalType": "address",
					"name": "account",
					"type": "address"
				}
			],
			"name": "renounceRole",
			"outputs": [],
			"stateMutability": "nonpayable",
			"type": "function"
		},
		{
			"inputs": [
				{
					"internalType": "bytes32",
					"name": "role",
					"type": "bytes32"
				},
				{
					"internalType": "address",
					"name": "account",
					"type": "address"
				}
			],
			"name": "revokeRole",
			"outputs": [],
			"stateMutability": "nonpayable",
			"type": "function"
		},
		{
			"inputs": [
				{
					"internalType": "bytes4",
					"name": "interfaceId",
					"type": "bytes4"
				}
			],
			"name": "supportsInterface",
			"outputs": [
				{
					"internalType": "bool",
					"name": "",
					"type": "bool"
				}
			],
			"stateMutability": "view",
			"type": "function"
		}
	]
}