{
	"data": {
		"bytecode": {
			"linkReferences": {},
			"object": "60806040523480156200001157600080fd5b50604051620036c8380380620036c8833981810160405281019062000037919062000481565b620000576200004b620000c760201b60201c565b620000cf60201b60201c565b83600160006101000a81548173ffffffffffffffffffffffffffffffffffffffff021916908373ffffffffffffffffffffffffffffffffffffffff160217905550826006819055508160028190555080600381905550620000bd6200019360201b60201c565b5050505062000679565b600033905090565b60008060009054906101000a900473ffffffffffffffffffffffffffffffffffffffff169050816000806101000a81548173ffffffffffffffffffffffffffffffffffffffff021916908373ffffffffffffffffffffffffffffffffffffffff1602179055508173ffffffffffffffffffffffffffffffffffffffff168173ffffffffffffffffffffffffffffffffffffffff167f8be0079c531659141344cd1fd0a4f28419497f9722a3daafe3b4186f6b6457e060405160405180910390a35050565b60006004805490501180156200021b5750600180811115620001ba57620001b9620004f3565b5b60046001600480549050620001d0919062000551565b81548110620001e457620001e36200058c565b5b90600052602060002090600b020160020160009054906101000a900460ff166001811115620002185762000217620004f3565b5b14155b156200025e576040517f08c379a000000000000000000000000000000000000000000000000000000000815260040162000255906200061c565b60405180910390fd5b6200026862000356565b60006040518060a00160405280428152602001600654426200028b91906200063e565b815260200160006001811115620002a757620002a6620004f3565b5b81526020018381526020016000815250905060048190806001815401808255809150506001900390600052602060002090600b0201600090919091909150600082015181600001556020820151816001015560408201518160020160006101000a81548160ff02191690836001811115620003275762000326620004f3565b5b02179055506060820151816003019060076200034592919062000378565b50608082015181600a015550505050565b6040518060e00160405280600790602082028036833780820191505090505090565b8260078101928215620003aa579160200282015b82811115620003a95782518255916020019190600101906200038c565b5b509050620003b99190620003bd565b5090565b5b80821115620003d8576000816000905550600101620003be565b5090565b600080fd5b600073ffffffffffffffffffffffffffffffffffffffff82169050919050565b60006200040e82620003e1565b9050919050565b620004208162000401565b81146200042c57600080fd5b50565b600081519050620004408162000415565b92915050565b6000819050919050565b6200045b8162000446565b81146200046757600080fd5b50565b6000815190506200047b8162000450565b92915050565b600080600080608085870312156200049e576200049d620003dc565b5b6000620004ae878288016200042f565b9450506020620004c1878288016200046a565b9350506040620004d4878288016200046a565b9250506060620004e7878288016200046a565b91505092959194509250565b7f4e487b7100000000000000000000000000000000000000000000000000000000600052602160045260246000fd5b7f4e487b7100000000000000000000000000000000000000000000000000000000600052601160045260246000fd5b60006200055e8262000446565b91506200056b8362000446565b925082820390508181111562000586576200058562000522565b5b92915050565b7f4e487b7100000000000000000000000000000000000000000000000000000000600052603260045260246000fd5b600082825260208201905092915050565b7f526f756e6420696e2070726f6772657373000000000000000000000000000000600082015250565b600062000604601183620005bb565b91506200061182620005cc565b602082019050919050565b600060208201905081810360008301526200063781620005f5565b9050919050565b60006200064b8262000446565b9150620006588362000446565b925082820190508082111562000673576200067262000522565b5b92915050565b61303f80620006896000396000f3fe6080604052600436106101405760003560e01c80638c65c81f116100b6578063bedf0f4a1161006f578063bedf0f4a1461042b578063dd8ab8f914610442578063e12ed13c1461046d578063f2fde38b14610498578063fc0c546a146104c1578063fea9b572146104ec57610140565b80638c65c81f146103155780638cd85dc2146103555780638da5cb5b14610392578063a2b40d19146103bd578063a8bd5634146103e6578063b55585621461040257610140565b806349c4e5b81161010857806349c4e5b81461021657806350b447121461024157806363c756071461027f5780636f9fb98a146102a8578063715018a6146102d35780637157c113146102ea57610140565b80631a95f15f14610145578063379607f51461017057806344352d0a1461019957806346583a26146101d657806347e40553146101ff575b600080fd5b34801561015157600080fd5b5061015a610517565b60405161016791906122e3565b60405180910390f35b34801561017c57600080fd5b5061019760048036038101906101929190612339565b61051d565b005b3480156101a557600080fd5b506101c060048036038101906101bb9190612339565b61081d565b6040516101cd91906124c0565b60405180910390f35b3480156101e257600080fd5b506101fd60048036038101906101f89190612629565b610abc565b005b34801561020b57600080fd5b50610214610fc6565b005b34801561022257600080fd5b5061022b611063565b60405161023891906122e3565b60405180910390f35b34801561024d57600080fd5b5061026860048036038101906102639190612339565b611069565b604051610276929190612697565b60405180910390f35b34801561028b57600080fd5b506102a660048036038101906102a19190612339565b6110bd565b005b3480156102b457600080fd5b506102bd611143565b6040516102ca91906122e3565b60405180910390f35b3480156102df57600080fd5b506102e861114b565b005b3480156102f657600080fd5b506102ff6111d3565b60405161030c91906122e3565b60405180910390f35b34801561032157600080fd5b5061033c60048036038101906103379190612339565b6111d9565b60405161034c9493929190612737565b60405180910390f35b34801561036157600080fd5b5061037c60048036038101906103779190612339565b611226565b6040516103899190612800565b60405180910390f35b34801561039e57600080fd5b506103a7611296565b6040516103b4919061281b565b60405180910390f35b3480156103c957600080fd5b506103e460048036038101906103df9190612339565b6112bf565b005b61040060048036038101906103fb9190612629565b611345565b005b34801561040e57600080fd5b5061042960048036038101906104249190612874565b61170e565b005b34801561043757600080fd5b506104406118c9565b005b34801561044e57600080fd5b506104576119b6565b60405161046491906122e3565b60405180910390f35b34801561047957600080fd5b506104826119bb565b60405161048f91906122e3565b60405180910390f35b3480156104a457600080fd5b506104bf60048036038101906104ba91906128cd565b6119c1565b005b3480156104cd57600080fd5b506104d6611ab8565b6040516104e39190612959565b60405180910390f35b3480156104f857600080fd5b50610501611ade565b60405161050e91906122e3565b60405180910390f35b60025481565b3373ffffffffffffffffffffffffffffffffffffffff166005828154811061054857610547612974565b5b906000526020600020906008020160000160009054906101000a900473ffffffffffffffffffffffffffffffffffffffff1673ffffffffffffffffffffffffffffffffffffffff161461059a57600080fd5b6001808111156105ad576105ac6126c0565b5b6004600583815481106105c3576105c2612974565b5b906000526020600020906008020160010154815481106105e6576105e5612974565b5b90600052602060002090600b020160020160009054906101000a900460ff166001811115610617576106166126c0565b5b1461062157600080fd5b60006005828154811061063757610636612974565b5b9060005260206000209060080201600201905060006004600160048054905061066091906129d2565b8154811061067157610670612974565b5b90600052602060002090600b02016003019050600080600080600090505b600681101561074a5760005b600160076106a991906129d2565b811015610736578581600781106106c3576106c2612974565b5b01548783600681106106d8576106d7612974565b5b0154036106ee5783806106ea90612a06565b9450505b8560066007811061070257610701612974565b5b015487836006811061071757610716612974565b5b01540361072357600192505b808061072e90612a06565b91505061069b565b50808061074290612a06565b91505061068f565b506006820361075b5747925061076a565b6005821480156107685750805b505b6005868154811061077e5761077d612974565b5b9060005260206000209060080201600080820160006101000a81549073ffffffffffffffffffffffffffffffffffffffff021916905560018201600090556002820160006107cc91906121d6565b50503373ffffffffffffffffffffffffffffffffffffffff166108fc849081150290604051600060405180830381858888f19350505050158015610814573d6000803e3d6000fd5b50505050505050565b606060008060005b6005805490508110156108fd573373ffffffffffffffffffffffffffffffffffffffff166005828154811061085d5761085c612974565b5b906000526020600020906008020160000160009054906101000a900473ffffffffffffffffffffffffffffffffffffffff1673ffffffffffffffffffffffffffffffffffffffff161480156108d6575084600582815481106108c2576108c1612974565b5b906000526020600020906008020160010154145b156108ea5782806108e690612a06565b9350505b80806108f590612a06565b915050610825565b5060008267ffffffffffffffff81111561091a576109196124f8565b5b60405190808252806020026020018201604052801561095357816020015b6109406121e9565b8152602001906001900390816109385790505b50905060005b600580549050811015610ab0573373ffffffffffffffffffffffffffffffffffffffff166005828154811061099157610990612974565b5b906000526020600020906008020160000160009054906101000a900473ffffffffffffffffffffffffffffffffffffffff1673ffffffffffffffffffffffffffffffffffffffff16148015610a0a575085600582815481106109f6576109f5612974565b5b906000526020600020906008020160010154145b15610a9d5760058181548110610a2357610a22612974565b5b9060005260206000209060080201600201600680602002604051908101604052809291908260068015610a6b576020028201915b815481526020019060010190808311610a57575b5050505050828481518110610a8357610a82612974565b5b60200260200101819052508280610a9990612a06565b9350505b8080610aa890612a06565b915050610959565b50809350505050919050565b4260046001600480549050610ad191906129d2565b81548110610ae257610ae1612974565b5b90600052602060002090600b0201600101541015610b35576040517f08c379a0000000000000000000000000000000000000000000000000000000008152600401610b2c90612aab565b60405180910390fd5b600180811115610b4857610b476126c0565b5b60046001600480549050610b5c91906129d2565b81548110610b6d57610b6c612974565b5b90600052602060002090600b020160020160009054906101000a900460ff166001811115610b9e57610b9d6126c0565b5b03610bde576040517f08c379a0000000000000000000000000000000000000000000000000000000008152600401610bd590612aab565b60405180910390fd5b600354600160009054906101000a900473ffffffffffffffffffffffffffffffffffffffff1673ffffffffffffffffffffffffffffffffffffffff166370a08231336040518263ffffffff1660e01b8152600401610c3c919061281b565b602060405180830381865afa158015610c59573d6000803e3d6000fd5b505050506040513d601f19601f82011682018060405250810190610c7d9190612ae0565b1015610cbe576040517f08c379a0000000000000000000000000000000000000000000000000000000008152600401610cb590612b59565b60405180910390fd5b60005b60016006610ccf91906129d2565b811015610d52576000600182610ce59190612b79565b90505b6006811015610d3e57828160068110610d0457610d03612974565b5b6020020151838360068110610d1c57610d1b612974565b5b602002015103610d2b57600080fd5b8080610d3690612a06565b915050610ce8565b508080610d4a90612a06565b915050610cc1565b5060005b6006811015610df1576001828260068110610d7457610d73612974565b5b602002015110158015610d9f5750602d828260068110610d9757610d96612974565b5b602002015111155b610dde576040517f08c379a0000000000000000000000000000000000000000000000000000000008152600401610dd590612c1f565b60405180910390fd5b8080610de990612a06565b915050610d56565b50600160009054906101000a900473ffffffffffffffffffffffffffffffffffffffff1673ffffffffffffffffffffffffffffffffffffffff166323b872dd33306003546040518463ffffffff1660e01b8152600401610e5393929190612c3f565b6020604051808303816000875af1158015610e72573d6000803e3d6000fd5b505050506040513d601f19601f82011682018060405250810190610e969190612cae565b50600060405180606001604052803373ffffffffffffffffffffffffffffffffffffffff1681526020016001600480549050610ed291906129d2565b8152602001838152509050600581908060018154018082558091505060019003906000526020600020906008020160009091909190915060008201518160000160006101000a81548173ffffffffffffffffffffffffffffffffffffffff021916908373ffffffffffffffffffffffffffffffffffffffff16021790555060208201518160010155604082015181600201906006610f7192919061220b565b505050600160046001600480549050610f8a91906129d2565b81548110610f9b57610f9a612974565b5b90600052602060002090600b0201600a016000828254610fbb9190612b79565b925050819055505050565b610fce611ae3565b73ffffffffffffffffffffffffffffffffffffffff16610fec611296565b73ffffffffffffffffffffffffffffffffffffffff1614611042576040517f08c379a000000000000000000000000000000000000000000000000000000000815260040161103990612d27565b60405180910390fd5b6000600480549050111561105957611058611aeb565b5b611061611c76565b565b60035481565b6005818154811061107957600080fd5b90600052602060002090600802016000915090508060000160009054906101000a900473ffffffffffffffffffffffffffffffffffffffff16908060010154905082565b6110c5611ae3565b73ffffffffffffffffffffffffffffffffffffffff166110e3611296565b73ffffffffffffffffffffffffffffffffffffffff1614611139576040517f08c379a000000000000000000000000000000000000000000000000000000000815260040161113090612d27565b60405180910390fd5b8060068190555050565b600047905090565b611153611ae3565b73ffffffffffffffffffffffffffffffffffffffff16611171611296565b73ffffffffffffffffffffffffffffffffffffffff16146111c7576040517f08c379a00000000000000000000000000000000000000000000000000000000081526004016111be90612d27565b60405180910390fd5b6111d16000611e1e565b565b60065481565b600481815481106111e957600080fd5b90600052602060002090600b02016000915090508060000154908060010154908060020160009054906101000a900460ff169080600a0154905084565b61122e61224b565b6004828154811061124257611241612974565b5b90600052602060002090600b020160030160078060200260405190810160405280929190826007801561128a576020028201915b815481526020019060010190808311611276575b50505050509050919050565b60008060009054906101000a900473ffffffffffffffffffffffffffffffffffffffff16905090565b6112c7611ae3565b73ffffffffffffffffffffffffffffffffffffffff166112e5611296565b73ffffffffffffffffffffffffffffffffffffffff161461133b576040517f08c379a000000000000000000000000000000000000000000000000000000000815260040161133290612d27565b60405180910390fd5b8060028190555050565b426004600160048054905061135a91906129d2565b8154811061136b5761136a612974565b5b90600052602060002090600b02016001015410156113be576040517f08c379a00000000000000000000000000000000000000000000000000000000081526004016113b590612aab565b60405180910390fd5b6001808111156113d1576113d06126c0565b5b600460016004805490506113e591906129d2565b815481106113f6576113f5612974565b5b90600052602060002090600b020160020160009054906101000a900460ff166001811115611427576114266126c0565b5b03611467576040517f08c379a000000000000000000000000000000000000000000000000000000000815260040161145e90612aab565b60405180910390fd5b60025434146114ab576040517f08c379a00000000000000000000000000000000000000000000000000000000081526004016114a290612b59565b60405180910390fd5b60005b600160066114bc91906129d2565b81101561153f5760006001826114d29190612b79565b90505b600681101561152b578281600681106114f1576114f0612974565b5b602002015183836006811061150957611508612974565b5b60200201510361151857600080fd5b808061152390612a06565b9150506114d5565b50808061153790612a06565b9150506114ae565b5060005b60068110156115de57600182826006811061156157611560612974565b5b60200201511015801561158c5750602d82826006811061158457611583612974565b5b602002015111155b6115cb576040517f08c379a00000000000000000000000000000000000000000000000000000000081526004016115c290612c1f565b60405180910390fd5b80806115d690612a06565b915050611543565b50600060405180606001604052803373ffffffffffffffffffffffffffffffffffffffff168152602001600160048054905061161a91906129d2565b8152602001838152509050600581908060018154018082558091505060019003906000526020600020906008020160009091909190915060008201518160000160006101000a81548173ffffffffffffffffffffffffffffffffffffffff021916908373ffffffffffffffffffffffffffffffffffffffff160217905550602082015181600101556040820151816002019060066116b992919061220b565b5050506001600460016004805490506116d291906129d2565b815481106116e3576116e2612974565b5b90600052602060002090600b0201600a0160008282546117039190612b79565b925050819055505050565b611716611ae3565b73ffffffffffffffffffffffffffffffffffffffff16611734611296565b73ffffffffffffffffffffffffffffffffffffffff161461178a576040517f08c379a000000000000000000000000000000000000000000000000000000000815260040161178190612d27565b60405180910390fd5b600160009054906101000a900473ffffffffffffffffffffffffffffffffffffffff1673ffffffffffffffffffffffffffffffffffffffff1663a9059cbb82600160009054906101000a900473ffffffffffffffffffffffffffffffffffffffff1673ffffffffffffffffffffffffffffffffffffffff166370a08231306040518263ffffffff1660e01b8152600401611824919061281b565b602060405180830381865afa158015611841573d6000803e3d6000fd5b505050506040513d601f19601f820116820180604052508101906118659190612ae0565b6040518363ffffffff1660e01b8152600401611882929190612d68565b6020604051808303816000875af11580156118a1573d6000803e3d6000fd5b505050506040513d601f19601f820116820180604052508101906118c59190612cae565b5050565b6118d1611ae3565b73ffffffffffffffffffffffffffffffffffffffff166118ef611296565b73ffffffffffffffffffffffffffffffffffffffff1614611945576040517f08c379a000000000000000000000000000000000000000000000000000000000815260040161193c90612d27565b60405180910390fd5b60016004600160048054905061195b91906129d2565b8154811061196c5761196b612974565b5b90600052602060002090600b020160020160006101000a81548160ff0219169083600181111561199f5761199e6126c0565b5b02179055506119ac611ee2565b6119b4611c76565b565b600181565b60075481565b6119c9611ae3565b73ffffffffffffffffffffffffffffffffffffffff166119e7611296565b73ffffffffffffffffffffffffffffffffffffffff1614611a3d576040517f08c379a0000000000000000000000000000000000000000000000000000000008152600401611a3490612d27565b60405180910390fd5b600073ffffffffffffffffffffffffffffffffffffffff168173ffffffffffffffffffffffffffffffffffffffff1603611aac576040517f08c379a0000000000000000000000000000000000000000000000000000000008152600401611aa390612e03565b60405180910390fd5b611ab581611e1e565b50565b600160009054906101000a900473ffffffffffffffffffffffffffffffffffffffff1681565b602d81565b600033905090565b600180811115611afe57611afd6126c0565b5b60046001600480549050611b1291906129d2565b81548110611b2357611b22612974565b5b90600052602060002090600b020160020160009054906101000a900460ff166001811115611b5457611b536126c0565b5b03611b94576040517f08c379a0000000000000000000000000000000000000000000000000000000008152600401611b8b90612e6f565b60405180910390fd5b60046001600480549050611ba891906129d2565b81548110611bb957611bb8612974565b5b90600052602060002090600b020160010154421015611c0d576040517f08c379a0000000000000000000000000000000000000000000000000000000008152600401611c0490612edb565b60405180910390fd5b600160046001600480549050611c2391906129d2565b81548110611c3457611c33612974565b5b90600052602060002090600b020160020160006101000a81548160ff02191690836001811115611c6757611c666126c0565b5b0217905550611c74611ee2565b565b6000600480549050118015611cf25750600180811115611c9957611c986126c0565b5b60046001600480549050611cad91906129d2565b81548110611cbe57611cbd612974565b5b90600052602060002090600b020160020160009054906101000a900460ff166001811115611cef57611cee6126c0565b5b14155b15611d32576040517f08c379a0000000000000000000000000000000000000000000000000000000008152600401611d2990612f47565b60405180910390fd5b611d3a61224b565b60006040518060a0016040528042815260200160065442611d5b9190612b79565b815260200160006001811115611d7457611d736126c0565b5b81526020018381526020016000815250905060048190806001815401808255809150506001900390600052602060002090600b0201600090919091909150600082015181600001556020820151816001015560408201518160020160006101000a81548160ff02191690836001811115611df157611df06126c0565b5b0217905550606082015181600301906007611e0d92919061226d565b50608082015181600a015550505050565b60008060009054906101000a900473ffffffffffffffffffffffffffffffffffffffff169050816000806101000a81548173ffffffffffffffffffffffffffffffffffffffff021916908373ffffffffffffffffffffffffffffffffffffffff1602179055508173ffffffffffffffffffffffffffffffffffffffff168173ffffffffffffffffffffffffffffffffffffffff167f8be0079c531659141344cd1fd0a4f28419497f9722a3daafe3b4186f6b6457e060405160405180910390a35050565b600060046001600480549050611ef891906129d2565b81548110611f0957611f08612974565b5b90600052602060002090600b020160010154905060046001600480549050611f3191906129d2565b81548110611f4257611f41612974565b5b90600052602060002090600b0201600101544211611f5f57600080fd5b600060046001600480549050611f7591906129d2565b81548110611f8657611f85612974565b5b90600052602060002090600b0201600301600060078110611faa57611fa9612974565b5b015414611fb657600080fd5b6000805b60078210156121265760008340905060008183604051602001611fde929190612f80565b604051602081830303815290604052905060008180519060200120905060006001602d8360001c61200f9190612fd8565b6120199190612b79565b90506000805b878110156120a1576004600160048054905061203b91906129d2565b8154811061204c5761204b612974565b5b90600052602060002090600b0201600301816007811061206f5761206e612974565b5b0154830361208e5760019150868061208690612a06565b9750506120a1565b808061209990612a06565b91505061201f565b5080156120b2575050505050611fba565b81600460016004805490506120c791906129d2565b815481106120d8576120d7612974565b5b90600052602060002090600b020160030188600781106120fb576120fa612974565b5b0181905550868061210b90612a06565b975050858061211990612a06565b9650505050505050611fba565b60008340905060008183604051602001612141929190612f80565b604051602081830303815290604052905060008180519060200120905060006001602d8360001c6121729190612fd8565b61217c9190612b79565b9050806004600160048054905061219391906129d2565b815481106121a4576121a3612974565b5b90600052602060002090600b02016003016006600781106121c8576121c7612974565b5b018190555050505050505050565b5080600601906121e691906122ad565b50565b6040518060c00160405280600690602082028036833780820191505090505090565b826006810192821561223a579160200282015b8281111561223957825182559160200191906001019061221e565b5b50905061224791906122ad565b5090565b6040518060e00160405280600790602082028036833780820191505090505090565b826007810192821561229c579160200282015b8281111561229b578251825591602001919060010190612280565b5b5090506122a991906122ad565b5090565b5b808211156122c65760008160009055506001016122ae565b5090565b6000819050919050565b6122dd816122ca565b82525050565b60006020820190506122f860008301846122d4565b92915050565b6000604051905090565b600080fd5b612316816122ca565b811461232157600080fd5b50565b6000813590506123338161230d565b92915050565b60006020828403121561234f5761234e612308565b5b600061235d84828501612324565b91505092915050565b600081519050919050565b600082825260208201905092915050565b6000819050602082019050919050565b600060069050919050565b600081905092915050565b6000819050919050565b6123bb816122ca565b82525050565b60006123cd83836123b2565b60208301905092915050565b6000602082019050919050565b6123ef81612392565b6123f9818461239d565b9250612404826123a8565b8060005b8381101561243557815161241c87826123c1565b9650612427836123d9565b925050600181019050612408565b505050505050565b600061244983836123e6565b60c08301905092915050565b6000602082019050919050565b600061246d82612366565b6124778185612371565b935061248283612382565b8060005b838110156124b357815161249a888261243d565b97506124a583612455565b925050600181019050612486565b5085935050505092915050565b600060208201905081810360008301526124da8184612462565b905092915050565b600080fd5b6000601f19601f8301169050919050565b7f4e487b7100000000000000000000000000000000000000000000000000000000600052604160045260246000fd5b612530826124e7565b810181811067ffffffffffffffff8211171561254f5761254e6124f8565b5b80604052505050565b60006125626122fe565b905061256e8282612527565b919050565b600067ffffffffffffffff82111561258e5761258d6124f8565b5b602082029050919050565b600080fd5b60006125b16125ac84612573565b612558565b905080602084028301858111156125cb576125ca612599565b5b835b818110156125f457806125e08882612324565b8452602084019350506020810190506125cd565b5050509392505050565b600082601f830112612613576126126124e2565b5b600661262084828561259e565b91505092915050565b600060c0828403121561263f5761263e612308565b5b600061264d848285016125fe565b91505092915050565b600073ffffffffffffffffffffffffffffffffffffffff82169050919050565b600061268182612656565b9050919050565b61269181612676565b82525050565b60006040820190506126ac6000830185612688565b6126b960208301846122d4565b9392505050565b7f4e487b7100000000000000000000000000000000000000000000000000000000600052602160045260246000fd5b60028110612700576126ff6126c0565b5b50565b6000819050612711826126ef565b919050565b600061272182612703565b9050919050565b61273181612716565b82525050565b600060808201905061274c60008301876122d4565b61275960208301866122d4565b6127666040830185612728565b61277360608301846122d4565b95945050505050565b600060079050919050565b600081905092915050565b6000819050919050565b6000602082019050919050565b6127b28161277c565b6127bc8184612787565b92506127c782612792565b8060005b838110156127f85781516127df87826123c1565b96506127ea8361279c565b9250506001810190506127cb565b505050505050565b600060e08201905061281560008301846127a9565b92915050565b60006020820190506128306000830184612688565b92915050565b600061284182612656565b9050919050565b61285181612836565b811461285c57600080fd5b50565b60008135905061286e81612848565b92915050565b60006020828403121561288a57612889612308565b5b60006128988482850161285f565b91505092915050565b6128aa81612676565b81146128b557600080fd5b50565b6000813590506128c7816128a1565b92915050565b6000602082840312156128e3576128e2612308565b5b60006128f1848285016128b8565b91505092915050565b6000819050919050565b600061291f61291a61291584612656565b6128fa565b612656565b9050919050565b600061293182612904565b9050919050565b600061294382612926565b9050919050565b61295381612938565b82525050565b600060208201905061296e600083018461294a565b92915050565b7f4e487b7100000000000000000000000000000000000000000000000000000000600052603260045260246000fd5b7f4e487b7100000000000000000000000000000000000000000000000000000000600052601160045260246000fd5b60006129dd826122ca565b91506129e8836122ca565b9250828203905081811115612a00576129ff6129a3565b5b92915050565b6000612a11826122ca565b91507fffffffffffffffffffffffffffffffffffffffffffffffffffffffffffffffff8203612a4357612a426129a3565b5b600182019050919050565b600082825260208201905092915050565b7f526f756e6420456e640000000000000000000000000000000000000000000000600082015250565b6000612a95600983612a4e565b9150612aa082612a5f565b602082019050919050565b60006020820190508181036000830152612ac481612a88565b9050919050565b600081519050612ada8161230d565b92915050565b600060208284031215612af657612af5612308565b5b6000612b0484828501612acb565b91505092915050565b7f4e6f742076616c69642076616c75650000000000000000000000000000000000600082015250565b6000612b43600f83612a4e565b9150612b4e82612b0d565b602082019050919050565b60006020820190508181036000830152612b7281612b36565b9050919050565b6000612b84826122ca565b9150612b8f836122ca565b9250828201905080821115612ba757612ba66129a3565b5b92915050565b7f4f6e6c79206e756d626572732030207e2034352063616e20626520656e74657260008201527f6564000000000000000000000000000000000000000000000000000000000000602082015250565b6000612c09602283612a4e565b9150612c1482612bad565b604082019050919050565b60006020820190508181036000830152612c3881612bfc565b9050919050565b6000606082019050612c546000830186612688565b612c616020830185612688565b612c6e60408301846122d4565b949350505050565b60008115159050919050565b612c8b81612c76565b8114612c9657600080fd5b50565b600081519050612ca881612c82565b92915050565b600060208284031215612cc457612cc3612308565b5b6000612cd284828501612c99565b91505092915050565b7f4f776e61626c653a2063616c6c6572206973206e6f7420746865206f776e6572600082015250565b6000612d11602083612a4e565b9150612d1c82612cdb565b602082019050919050565b60006020820190508181036000830152612d4081612d04565b9050919050565b6000612d5282612926565b9050919050565b612d6281612d47565b82525050565b6000604082019050612d7d6000830185612d59565b612d8a60208301846122d4565b9392505050565b7f4f776e61626c653a206e6577206f776e657220697320746865207a65726f206160008201527f6464726573730000000000000000000000000000000000000000000000000000602082015250565b6000612ded602683612a4e565b9150612df882612d91565b604082019050919050565b60006020820190508181036000830152612e1c81612de0565b9050919050565b7f526f756e6420616c726561647920656e64656400000000000000000000000000600082015250565b6000612e59601383612a4e565b9150612e6482612e23565b602082019050919050565b60006020820190508181036000830152612e8881612e4c565b9050919050565b7f54686520726f756e64206e6f7420656e6474696d650000000000000000000000600082015250565b6000612ec5601583612a4e565b9150612ed082612e8f565b602082019050919050565b60006020820190508181036000830152612ef481612eb8565b9050919050565b7f526f756e6420696e2070726f6772657373000000000000000000000000000000600082015250565b6000612f31601183612a4e565b9150612f3c82612efb565b602082019050919050565b60006020820190508181036000830152612f6081612f24565b9050919050565b6000819050919050565b612f7a81612f67565b82525050565b6000604082019050612f956000830185612f71565b612fa260208301846122d4565b9392505050565b7f4e487b7100000000000000000000000000000000000000000000000000000000600052601260045260246000fd5b6000612fe3826122ca565b9150612fee836122ca565b925082612ffe57612ffd612fa9565b5b82820690509291505056fea26469706673582212201f4408b264060b51cb5a4a36cfd506219f43e09ba981b5a65a9b43aa413a3bb764736f6c63430008110033",
			"opcodes": "PUSH1 0x80 PUSH1 0x40 MSTORE CALLVALUE DUP1 ISZERO PUSH3 0x11 JUMPI PUSH1 0x0 DUP1 REVERT JUMPDEST POP PUSH1 0x40 MLOAD PUSH3 0x36C8 CODESIZE SUB DUP1 PUSH3 0x36C8 DUP4 CODECOPY DUP2 DUP2 ADD PUSH1 0x40 MSTORE DUP2 ADD SWAP1 PUSH3 0x37 SWAP2 SWAP1 PUSH3 0x481 JUMP JUMPDEST PUSH3 0x57 PUSH3 0x4B PUSH3 0xC7 PUSH1 0x20 SHL PUSH1 0x20 SHR JUMP JUMPDEST PUSH3 0xCF PUSH1 0x20 SHL PUSH1 0x20 SHR JUMP JUMPDEST DUP4 PUSH1 0x1 PUSH1 0x0 PUSH2 0x100 EXP DUP2 SLOAD DUP2 PUSH20 0xFFFFFFFFFFFFFFFFFFFFFFFFFFFFFFFFFFFFFFFF MUL NOT AND SWAP1 DUP4 PUSH20 0xFFFFFFFFFFFFFFFFFFFFFFFFFFFFFFFFFFFFFFFF AND MUL OR SWAP1 SSTORE POP DUP3 PUSH1 0x6 DUP2 SWAP1 SSTORE POP DUP2 PUSH1 0x2 DUP2 SWAP1 SSTORE POP DUP1 PUSH1 0x3 DUP2 SWAP1 SSTORE POP PUSH3 0xBD PUSH3 0x193 PUSH1 0x20 SHL PUSH1 0x20 SHR JUMP JUMPDEST POP POP POP POP PUSH3 0x679 JUMP JUMPDEST PUSH1 0x0 CALLER SWAP1 POP SWAP1 JUMP JUMPDEST PUSH1 0x0 DUP1 PUSH1 0x0 SWAP1 SLOAD SWAP1 PUSH2 0x100 EXP SWAP1 DIV PUSH20 0xFFFFFFFFFFFFFFFFFFFFFFFFFFFFFFFFFFFFFFFF AND SWAP1 POP DUP2 PUSH1 0x0 DUP1 PUSH2 0x100 EXP DUP2 SLOAD DUP2 PUSH20 0xFFFFFFFFFFFFFFFFFFFFFFFFFFFFFFFFFFFFFFFF MUL NOT AND SWAP1 DUP4 PUSH20 0xFFFFFFFFFFFFFFFFFFFFFFFFFFFFFFFFFFFFFFFF AND MUL OR SWAP1 SSTORE POP DUP2 PUSH20 0xFFFFFFFFFFFFFFFFFFFFFFFFFFFFFFFFFFFFFFFF AND DUP2 PUSH20 0xFFFFFFFFFFFFFFFFFFFFFFFFFFFFFFFFFFFFFFFF AND PUSH32 0x8BE0079C531659141344CD1FD0A4F28419497F9722A3DAAFE3B4186F6B6457E0 PUSH1 0x40 MLOAD PUSH1 0x40 MLOAD DUP1 SWAP2 SUB SWAP1 LOG3 POP POP JUMP JUMPDEST PUSH1 0x0 PUSH1 0x4 DUP1 SLOAD SWAP1 POP GT DUP1 ISZERO PUSH3 0x21B JUMPI POP PUSH1 0x1 DUP1 DUP2 GT ISZERO PUSH3 0x1BA JUMPI PUSH3 0x1B9 PUSH3 0x4F3 JUMP JUMPDEST JUMPDEST PUSH1 0x4 PUSH1 0x1 PUSH1 0x4 DUP1 SLOAD SWAP1 POP PUSH3 0x1D0 SWAP2 SWAP1 PUSH3 0x551 JUMP JUMPDEST DUP2 SLOAD DUP2 LT PUSH3 0x1E4 JUMPI PUSH3 0x1E3 PUSH3 0x58C JUMP JUMPDEST JUMPDEST SWAP1 PUSH1 0x0 MSTORE PUSH1 0x20 PUSH1 0x0 KECCAK256 SWAP1 PUSH1 0xB MUL ADD PUSH1 0x2 ADD PUSH1 0x0 SWAP1 SLOAD SWAP1 PUSH2 0x100 EXP SWAP1 DIV PUSH1 0xFF AND PUSH1 0x1 DUP2 GT ISZERO PUSH3 0x218 JUMPI PUSH3 0x217 PUSH3 0x4F3 JUMP JUMPDEST JUMPDEST EQ ISZERO JUMPDEST ISZERO PUSH3 0x25E JUMPI PUSH1 0x40 MLOAD PUSH32 0x8C379A000000000000000000000000000000000000000000000000000000000 DUP2 MSTORE PUSH1 0x4 ADD PUSH3 0x255 SWAP1 PUSH3 0x61C JUMP JUMPDEST PUSH1 0x40 MLOAD DUP1 SWAP2 SUB SWAP1 REVERT JUMPDEST PUSH3 0x268 PUSH3 0x356 JUMP JUMPDEST PUSH1 0x0 PUSH1 0x40 MLOAD DUP1 PUSH1 0xA0 ADD PUSH1 0x40 MSTORE DUP1 TIMESTAMP DUP2 MSTORE PUSH1 0x20 ADD PUSH1 0x6 SLOAD TIMESTAMP PUSH3 0x28B SWAP2 SWAP1 PUSH3 0x63E JUMP JUMPDEST DUP2 MSTORE PUSH1 0x20 ADD PUSH1 0x0 PUSH1 0x1 DUP2 GT ISZERO PUSH3 0x2A7 JUMPI PUSH3 0x2A6 PUSH3 0x4F3 JUMP JUMPDEST JUMPDEST DUP2 MSTORE PUSH1 0x20 ADD DUP4 DUP2 MSTORE PUSH1 0x20 ADD PUSH1 0x0 DUP2 MSTORE POP SWAP1 POP PUSH1 0x4 DUP2 SWAP1 DUP1 PUSH1 0x1 DUP2 SLOAD ADD DUP1 DUP3 SSTORE DUP1 SWAP2 POP POP PUSH1 0x1 SWAP1 SUB SWAP1 PUSH1 0x0 MSTORE PUSH1 0x20 PUSH1 0x0 KECCAK256 SWAP1 PUSH1 0xB MUL ADD PUSH1 0x0 SWAP1 SWAP2 SWAP1 SWAP2 SWAP1 SWAP2 POP PUSH1 0x0 DUP3 ADD MLOAD DUP2 PUSH1 0x0 ADD SSTORE PUSH1 0x20 DUP3 ADD MLOAD DUP2 PUSH1 0x1 ADD SSTORE PUSH1 0x40 DUP3 ADD MLOAD DUP2 PUSH1 0x2 ADD PUSH1 0x0 PUSH2 0x100 EXP DUP2 SLOAD DUP2 PUSH1 0xFF MUL NOT AND SWAP1 DUP4 PUSH1 0x1 DUP2 GT ISZERO PUSH3 0x327 JUMPI PUSH3 0x326 PUSH3 0x4F3 JUMP JUMPDEST JUMPDEST MUL OR SWAP1 SSTORE POP PUSH1 0x60 DUP3 ADD MLOAD DUP2 PUSH1 0x3 ADD SWAP1 PUSH1 0x7 PUSH3 0x345 SWAP3 SWAP2 SWAP1 PUSH3 0x378 JUMP JUMPDEST POP PUSH1 0x80 DUP3 ADD MLOAD DUP2 PUSH1 0xA ADD SSTORE POP POP POP POP JUMP JUMPDEST PUSH1 0x40 MLOAD DUP1 PUSH1 0xE0 ADD PUSH1 0x40 MSTORE DUP1 PUSH1 0x7 SWAP1 PUSH1 0x20 DUP3 MUL DUP1 CALLDATASIZE DUP4 CALLDATACOPY DUP1 DUP3 ADD SWAP2 POP POP SWAP1 POP POP SWAP1 JUMP JUMPDEST DUP3 PUSH1 0x7 DUP2 ADD SWAP3 DUP3 ISZERO PUSH3 0x3AA JUMPI SWAP2 PUSH1 0x20 MUL DUP3 ADD JUMPDEST DUP3 DUP2 GT ISZERO PUSH3 0x3A9 JUMPI DUP3 MLOAD DUP3 SSTORE SWAP2 PUSH1 0x20 ADD SWAP2 SWAP1 PUSH1 0x1 ADD SWAP1 PUSH3 0x38C JUMP JUMPDEST JUMPDEST POP SWAP1 POP PUSH3 0x3B9 SWAP2 SWAP1 PUSH3 0x3BD JUMP JUMPDEST POP SWAP1 JUMP JUMPDEST JUMPDEST DUP1 DUP3 GT ISZERO PUSH3 0x3D8 JUMPI PUSH1 0x0 DUP2 PUSH1 0x0 SWAP1 SSTORE POP PUSH1 0x1 ADD PUSH3 0x3BE JUMP JUMPDEST POP SWAP1 JUMP JUMPDEST PUSH1 0x0 DUP1 REVERT JUMPDEST PUSH1 0x0 PUSH20 0xFFFFFFFFFFFFFFFFFFFFFFFFFFFFFFFFFFFFFFFF DUP3 AND SWAP1 POP SWAP2 SWAP1 POP JUMP JUMPDEST PUSH1 0x0 PUSH3 0x40E DUP3 PUSH3 0x3E1 JUMP JUMPDEST SWAP1 POP SWAP2 SWAP1 POP JUMP JUMPDEST PUSH3 0x420 DUP2 PUSH3 0x401 JUMP JUMPDEST DUP2 EQ PUSH3 0x42C JUMPI PUSH1 0x0 DUP1 REVERT JUMPDEST POP JUMP JUMPDEST PUSH1 0x0 DUP2 MLOAD SWAP1 POP PUSH3 0x440 DUP2 PUSH3 0x415 JUMP JUMPDEST SWAP3 SWAP2 POP POP JUMP JUMPDEST PUSH1 0x0 DUP2 SWAP1 POP SWAP2 SWAP1 POP JUMP JUMPDEST PUSH3 0x45B DUP2 PUSH3 0x446 JUMP JUMPDEST DUP2 EQ PUSH3 0x467 JUMPI PUSH1 0x0 DUP1 REVERT JUMPDEST POP JUMP JUMPDEST PUSH1 0x0 DUP2 MLOAD SWAP1 POP PUSH3 0x47B DUP2 PUSH3 0x450 JUMP JUMPDEST SWAP3 SWAP2 POP POP JUMP JUMPDEST PUSH1 0x0 DUP1 PUSH1 0x0 DUP1 PUSH1 0x80 DUP6 DUP8 SUB SLT ISZERO PUSH3 0x49E JUMPI PUSH3 0x49D PUSH3 0x3DC JUMP JUMPDEST JUMPDEST PUSH1 0x0 PUSH3 0x4AE DUP8 DUP3 DUP9 ADD PUSH3 0x42F JUMP JUMPDEST SWAP5 POP POP PUSH1 0x20 PUSH3 0x4C1 DUP8 DUP3 DUP9 ADD PUSH3 0x46A JUMP JUMPDEST SWAP4 POP POP PUSH1 0x40 PUSH3 0x4D4 DUP8 DUP3 DUP9 ADD PUSH3 0x46A JUMP JUMPDEST SWAP3 POP POP PUSH1 0x60 PUSH3 0x4E7 DUP8 DUP3 DUP9 ADD PUSH3 0x46A JUMP JUMPDEST SWAP2 POP POP SWAP3 SWAP6 SWAP2 SWAP5 POP SWAP3 POP JUMP JUMPDEST PUSH32 0x4E487B7100000000000000000000000000000000000000000000000000000000 PUSH1 0x0 MSTORE PUSH1 0x21 PUSH1 0x4 MSTORE PUSH1 0x24 PUSH1 0x0 REVERT JUMPDEST PUSH32 0x4E487B7100000000000000000000000000000000000000000000000000000000 PUSH1 0x0 MSTORE PUSH1 0x11 PUSH1 0x4 MSTORE PUSH1 0x24 PUSH1 0x0 REVERT JUMPDEST PUSH1 0x0 PUSH3 0x55E DUP3 PUSH3 0x446 JUMP JUMPDEST SWAP2 POP PUSH3 0x56B DUP4 PUSH3 0x446 JUMP JUMPDEST SWAP3 POP DUP3 DUP3 SUB SWAP1 POP DUP2 DUP2 GT ISZERO PUSH3 0x586 JUMPI PUSH3 0x585 PUSH3 0x522 JUMP JUMPDEST JUMPDEST SWAP3 SWAP2 POP POP JUMP JUMPDEST PUSH32 0x4E487B7100000000000000000000000000000000000000000000000000000000 PUSH1 0x0 MSTORE PUSH1 0x32 PUSH1 0x4 MSTORE PUSH1 0x24 PUSH1 0x0 REVERT JUMPDEST PUSH1 0x0 DUP3 DUP3 MSTORE PUSH1 0x20 DUP3 ADD SWAP1 POP SWAP3 SWAP2 POP POP JUMP JUMPDEST PUSH32 0x526F756E6420696E2070726F6772657373000000000000000000000000000000 PUSH1 0x0 DUP3 ADD MSTORE POP JUMP JUMPDEST PUSH1 0x0 PUSH3 0x604 PUSH1 0x11 DUP4 PUSH3 0x5BB JUMP JUMPDEST SWAP2 POP PUSH3 0x611 DUP3 PUSH3 0x5CC JUMP JUMPDEST PUSH1 0x20 DUP3 ADD SWAP1 POP SWAP2 SWAP1 POP JUMP JUMPDEST PUSH1 0x0 PUSH1 0x20 DUP3 ADD SWAP1 POP DUP2 DUP2 SUB PUSH1 0x0 DUP4 ADD MSTORE PUSH3 0x637 DUP2 PUSH3 0x5F5 JUMP JUMPDEST SWAP1 POP SWAP2 SWAP1 POP JUMP JUMPDEST PUSH1 0x0 PUSH3 0x64B DUP3 PUSH3 0x446 JUMP JUMPDEST SWAP2 POP PUSH3 0x658 DUP4 PUSH3 0x446 JUMP JUMPDEST SWAP3 POP DUP3 DUP3 ADD SWAP1 POP DUP1 DUP3 GT ISZERO PUSH3 0x673 JUMPI PUSH3 0x672 PUSH3 0x522 JUMP JUMPDEST JUMPDEST SWAP3 SWAP2 POP POP JUMP JUMPDEST PUSH2 0x303F DUP1 PUSH3 0x689 PUSH1 0x0 CODECOPY PUSH1 0x0 RETURN INVALID PUSH1 0x80 PUSH1 0x40 MSTORE PUSH1 0x4 CALLDATASIZE LT PUSH2 0x140 JUMPI PUSH1 0x0 CALLDATALOAD PUSH1 0xE0 SHR DUP1 PUSH4 0x8C65C81F GT PUSH2 0xB6 JUMPI DUP1 PUSH4 0xBEDF0F4A GT PUSH2 0x6F JUMPI DUP1 PUSH4 0xBEDF0F4A EQ PUSH2 0x42B JUMPI DUP1 PUSH4 0xDD8AB8F9 EQ PUSH2 0x442 JUMPI DUP1 PUSH4 0xE12ED13C EQ PUSH2 0x46D JUMPI DUP1 PUSH4 0xF2FDE38B EQ PUSH2 0x498 JUMPI DUP1 PUSH4 0xFC0C546A EQ PUSH2 0x4C1 JUMPI DUP1 PUSH4 0xFEA9B572 EQ PUSH2 0x4EC JUMPI PUSH2 0x140 JUMP JUMPDEST DUP1 PUSH4 0x8C65C81F EQ PUSH2 0x315 JUMPI DUP1 PUSH4 0x8CD85DC2 EQ PUSH2 0x355 JUMPI DUP1 PUSH4 0x8DA5CB5B EQ PUSH2 0x392 JUMPI DUP1 PUSH4 0xA2B40D19 EQ PUSH2 0x3BD JUMPI DUP1 PUSH4 0xA8BD5634 EQ PUSH2 0x3E6 JUMPI DUP1 PUSH4 0xB5558562 EQ PUSH2 0x402 JUMPI PUSH2 0x140 JUMP JUMPDEST DUP1 PUSH4 0x49C4E5B8 GT PUSH2 0x108 JUMPI DUP1 PUSH4 0x49C4E5B8 EQ PUSH2 0x216 JUMPI DUP1 PUSH4 0x50B44712 EQ PUSH2 0x241 JUMPI DUP1 PUSH4 0x63C75607 EQ PUSH2 0x27F JUMPI DUP1 PUSH4 0x6F9FB98A EQ PUSH2 0x2A8 JUMPI DUP1 PUSH4 0x715018A6 EQ PUSH2 0x2D3 JUMPI DUP1 PUSH4 0x7157C113 EQ PUSH2 0x2EA JUMPI PUSH2 0x140 JUMP JUMPDEST DUP1 PUSH4 0x1A95F15F EQ PUSH2 0x145 JUMPI DUP1 PUSH4 0x379607F5 EQ PUSH2 0x170 JUMPI DUP1 PUSH4 0x44352D0A EQ PUSH2 0x199 JUMPI DUP1 PUSH4 0x46583A26 EQ PUSH2 0x1D6 JUMPI DUP1 PUSH4 0x47E40553 EQ PUSH2 0x1FF JUMPI JUMPDEST PUSH1 0x0 DUP1 REVERT JUMPDEST CALLVALUE DUP1 ISZERO PUSH2 0x151 JUMPI PUSH1 0x0 DUP1 REVERT JUMPDEST POP PUSH2 0x15A PUSH2 0x517 JUMP JUMPDEST PUSH1 0x40 MLOAD PUSH2 0x167 SWAP2 SWAP1 PUSH2 0x22E3 JUMP JUMPDEST PUSH1 0x40 MLOAD DUP1 SWAP2 SUB SWAP1 RETURN JUMPDEST CALLVALUE DUP1 ISZERO PUSH2 0x17C JUMPI PUSH1 0x0 DUP1 REVERT JUMPDEST POP PUSH2 0x197 PUSH1 0x4 DUP1 CALLDATASIZE SUB DUP2 ADD SWAP1 PUSH2 0x192 SWAP2 SWAP1 PUSH2 0x2339 JUMP JUMPDEST PUSH2 0x51D JUMP JUMPDEST STOP JUMPDEST CALLVALUE DUP1 ISZERO PUSH2 0x1A5 JUMPI PUSH1 0x0 DUP1 REVERT JUMPDEST POP PUSH2 0x1C0 PUSH1 0x4 DUP1 CALLDATASIZE SUB DUP2 ADD SWAP1 PUSH2 0x1BB SWAP2 SWAP1 PUSH2 0x2339 JUMP JUMPDEST PUSH2 0x81D JUMP JUMPDEST PUSH1 0x40 MLOAD PUSH2 0x1CD SWAP2 SWAP1 PUSH2 0x24C0 JUMP JUMPDEST PUSH1 0x40 MLOAD DUP1 SWAP2 SUB SWAP1 RETURN JUMPDEST CALLVALUE DUP1 ISZERO PUSH2 0x1E2 JUMPI PUSH1 0x0 DUP1 REVERT JUMPDEST POP PUSH2 0x1FD PUSH1 0x4 DUP1 CALLDATASIZE SUB DUP2 ADD SWAP1 PUSH2 0x1F8 SWAP2 SWAP1 PUSH2 0x2629 JUMP JUMPDEST PUSH2 0xABC JUMP JUMPDEST STOP JUMPDEST CALLVALUE DUP1 ISZERO PUSH2 0x20B JUMPI PUSH1 0x0 DUP1 REVERT JUMPDEST POP PUSH2 0x214 PUSH2 0xFC6 JUMP JUMPDEST STOP JUMPDEST CALLVALUE DUP1 ISZERO PUSH2 0x222 JUMPI PUSH1 0x0 DUP1 REVERT JUMPDEST POP PUSH2 0x22B PUSH2 0x1063 JUMP JUMPDEST PUSH1 0x40 MLOAD PUSH2 0x238 SWAP2 SWAP1 PUSH2 0x22E3 JUMP JUMPDEST PUSH1 0x40 MLOAD DUP1 SWAP2 SUB SWAP1 RETURN JUMPDEST CALLVALUE DUP1 ISZERO PUSH2 0x24D JUMPI PUSH1 0x0 DUP1 REVERT JUMPDEST POP PUSH2 0x268 PUSH1 0x4 DUP1 CALLDATASIZE SUB DUP2 ADD SWAP1 PUSH2 0x263 SWAP2 SWAP1 PUSH2 0x2339 JUMP JUMPDEST PUSH2 0x1069 JUMP JUMPDEST PUSH1 0x40 MLOAD PUSH2 0x276 SWAP3 SWAP2 SWAP1 PUSH2 0x2697 JUMP JUMPDEST PUSH1 0x40 MLOAD DUP1 SWAP2 SUB SWAP1 RETURN JUMPDEST CALLVALUE DUP1 ISZERO PUSH2 0x28B JUMPI PUSH1 0x0 DUP1 REVERT JUMPDEST POP PUSH2 0x2A6 PUSH1 0x4 DUP1 CALLDATASIZE SUB DUP2 ADD SWAP1 PUSH2 0x2A1 SWAP2 SWAP1 PUSH2 0x2339 JUMP JUMPDEST PUSH2 0x10BD JUMP JUMPDEST STOP JUMPDEST CALLVALUE DUP1 ISZERO PUSH2 0x2B4 JUMPI PUSH1 0x0 DUP1 REVERT JUMPDEST POP PUSH2 0x2BD PUSH2 0x1143 JUMP JUMPDEST PUSH1 0x40 MLOAD PUSH2 0x2CA SWAP2 SWAP1 PUSH2 0x22E3 JUMP JUMPDEST PUSH1 0x40 MLOAD DUP1 SWAP2 SUB SWAP1 RETURN JUMPDEST CALLVALUE DUP1 ISZERO PUSH2 0x2DF JUMPI PUSH1 0x0 DUP1 REVERT JUMPDEST POP PUSH2 0x2E8 PUSH2 0x114B JUMP JUMPDEST STOP JUMPDEST CALLVALUE DUP1 ISZERO PUSH2 0x2F6 JUMPI PUSH1 0x0 DUP1 REVERT JUMPDEST POP PUSH2 0x2FF PUSH2 0x11D3 JUMP JUMPDEST PUSH1 0x40 MLOAD PUSH2 0x30C SWAP2 SWAP1 PUSH2 0x22E3 JUMP JUMPDEST PUSH1 0x40 MLOAD DUP1 SWAP2 SUB SWAP1 RETURN JUMPDEST CALLVALUE DUP1 ISZERO PUSH2 0x321 JUMPI PUSH1 0x0 DUP1 REVERT JUMPDEST POP PUSH2 0x33C PUSH1 0x4 DUP1 CALLDATASIZE SUB DUP2 ADD SWAP1 PUSH2 0x337 SWAP2 SWAP1 PUSH2 0x2339 JUMP JUMPDEST PUSH2 0x11D9 JUMP JUMPDEST PUSH1 0x40 MLOAD PUSH2 0x34C SWAP5 SWAP4 SWAP3 SWAP2 SWAP1 PUSH2 0x2737 JUMP JUMPDEST PUSH1 0x40 MLOAD DUP1 SWAP2 SUB SWAP1 RETURN JUMPDEST CALLVALUE DUP1 ISZERO PUSH2 0x361 JUMPI PUSH1 0x0 DUP1 REVERT JUMPDEST POP PUSH2 0x37C PUSH1 0x4 DUP1 CALLDATASIZE SUB DUP2 ADD SWAP1 PUSH2 0x377 SWAP2 SWAP1 PUSH2 0x2339 JUMP JUMPDEST PUSH2 0x1226 JUMP JUMPDEST PUSH1 0x40 MLOAD PUSH2 0x389 SWAP2 SWAP1 PUSH2 0x2800 JUMP JUMPDEST PUSH1 0x40 MLOAD DUP1 SWAP2 SUB SWAP1 RETURN JUMPDEST CALLVALUE DUP1 ISZERO PUSH2 0x39E JUMPI PUSH1 0x0 DUP1 REVERT JUMPDEST POP PUSH2 0x3A7 PUSH2 0x1296 JUMP JUMPDEST PUSH1 0x40 MLOAD PUSH2 0x3B4 SWAP2 SWAP1 PUSH2 0x281B JUMP JUMPDEST PUSH1 0x40 MLOAD DUP1 SWAP2 SUB SWAP1 RETURN JUMPDEST CALLVALUE DUP1 ISZERO PUSH2 0x3C9 JUMPI PUSH1 0x0 DUP1 REVERT JUMPDEST POP PUSH2 0x3E4 PUSH1 0x4 DUP1 CALLDATASIZE SUB DUP2 ADD SWAP1 PUSH2 0x3DF SWAP2 SWAP1 PUSH2 0x2339 JUMP JUMPDEST PUSH2 0x12BF JUMP JUMPDEST STOP JUMPDEST PUSH2 0x400 PUSH1 0x4 DUP1 CALLDATASIZE SUB DUP2 ADD SWAP1 PUSH2 0x3FB SWAP2 SWAP1 PUSH2 0x2629 JUMP JUMPDEST PUSH2 0x1345 JUMP JUMPDEST STOP JUMPDEST CALLVALUE DUP1 ISZERO PUSH2 0x40E JUMPI PUSH1 0x0 DUP1 REVERT JUMPDEST POP PUSH2 0x429 PUSH1 0x4 DUP1 CALLDATASIZE SUB DUP2 ADD SWAP1 PUSH2 0x424 SWAP2 SWAP1 PUSH2 0x2874 JUMP JUMPDEST PUSH2 0x170E JUMP JUMPDEST STOP JUMPDEST CALLVALUE DUP1 ISZERO PUSH2 0x437 JUMPI PUSH1 0x0 DUP1 REVERT JUMPDEST POP PUSH2 0x440 PUSH2 0x18C9 JUMP JUMPDEST STOP JUMPDEST CALLVALUE DUP1 ISZERO PUSH2 0x44E JUMPI PUSH1 0x0 DUP1 REVERT JUMPDEST POP PUSH2 0x457 PUSH2 0x19B6 JUMP JUMPDEST PUSH1 0x40 MLOAD PUSH2 0x464 SWAP2 SWAP1 PUSH2 0x22E3 JUMP JUMPDEST PUSH1 0x40 MLOAD DUP1 SWAP2 SUB SWAP1 RETURN JUMPDEST CALLVALUE DUP1 ISZERO PUSH2 0x479 JUMPI PUSH1 0x0 DUP1 REVERT JUMPDEST POP PUSH2 0x482 PUSH2 0x19BB JUMP JUMPDEST PUSH1 0x40 MLOAD PUSH2 0x48F SWAP2 SWAP1 PUSH2 0x22E3 JUMP JUMPDEST PUSH1 0x40 MLOAD DUP1 SWAP2 SUB SWAP1 RETURN JUMPDEST CALLVALUE DUP1 ISZERO PUSH2 0x4A4 JUMPI PUSH1 0x0 DUP1 REVERT JUMPDEST POP PUSH2 0x4BF PUSH1 0x4 DUP1 CALLDATASIZE SUB DUP2 ADD SWAP1 PUSH2 0x4BA SWAP2 SWAP1 PUSH2 0x28CD JUMP JUMPDEST PUSH2 0x19C1 JUMP JUMPDEST STOP JUMPDEST CALLVALUE DUP1 ISZERO PUSH2 0x4CD JUMPI PUSH1 0x0 DUP1 REVERT JUMPDEST POP PUSH2 0x4D6 PUSH2 0x1AB8 JUMP JUMPDEST PUSH1 0x40 MLOAD PUSH2 0x4E3 SWAP2 SWAP1 PUSH2 0x2959 JUMP JUMPDEST PUSH1 0x40 MLOAD DUP1 SWAP2 SUB SWAP1 RETURN JUMPDEST CALLVALUE DUP1 ISZERO PUSH2 0x4F8 JUMPI PUSH1 0x0 DUP1 REVERT JUMPDEST POP PUSH2 0x501 PUSH2 0x1ADE JUMP JUMPDEST PUSH1 0x40 MLOAD PUSH2 0x50E SWAP2 SWAP1 PUSH2 0x22E3 JUMP JUMPDEST PUSH1 0x40 MLOAD DUP1 SWAP2 SUB SWAP1 RETURN JUMPDEST PUSH1 0x2 SLOAD DUP2 JUMP JUMPDEST CALLER PUSH20 0xFFFFFFFFFFFFFFFFFFFFFFFFFFFFFFFFFFFFFFFF AND PUSH1 0x5 DUP3 DUP2 SLOAD DUP2 LT PUSH2 0x548 JUMPI PUSH2 0x547 PUSH2 0x2974 JUMP JUMPDEST JUMPDEST SWAP1 PUSH1 0x0 MSTORE PUSH1 0x20 PUSH1 0x0 KECCAK256 SWAP1 PUSH1 0x8 MUL ADD PUSH1 0x0 ADD PUSH1 0x0 SWAP1 SLOAD SWAP1 PUSH2 0x100 EXP SWAP1 DIV PUSH20 0xFFFFFFFFFFFFFFFFFFFFFFFFFFFFFFFFFFFFFFFF AND PUSH20 0xFFFFFFFFFFFFFFFFFFFFFFFFFFFFFFFFFFFFFFFF AND EQ PUSH2 0x59A JUMPI PUSH1 0x0 DUP1 REVERT JUMPDEST PUSH1 0x1 DUP1 DUP2 GT ISZERO PUSH2 0x5AD JUMPI PUSH2 0x5AC PUSH2 0x26C0 JUMP JUMPDEST JUMPDEST PUSH1 0x4 PUSH1 0x5 DUP4 DUP2 SLOAD DUP2 LT PUSH2 0x5C3 JUMPI PUSH2 0x5C2 PUSH2 0x2974 JUMP JUMPDEST JUMPDEST SWAP1 PUSH1 0x0 MSTORE PUSH1 0x20 PUSH1 0x0 KECCAK256 SWAP1 PUSH1 0x8 MUL ADD PUSH1 0x1 ADD SLOAD DUP2 SLOAD DUP2 LT PUSH2 0x5E6 JUMPI PUSH2 0x5E5 PUSH2 0x2974 JUMP JUMPDEST JUMPDEST SWAP1 PUSH1 0x0 MSTORE PUSH1 0x20 PUSH1 0x0 KECCAK256 SWAP1 PUSH1 0xB MUL ADD PUSH1 0x2 ADD PUSH1 0x0 SWAP1 SLOAD SWAP1 PUSH2 0x100 EXP SWAP1 DIV PUSH1 0xFF AND PUSH1 0x1 DUP2 GT ISZERO PUSH2 0x617 JUMPI PUSH2 0x616 PUSH2 0x26C0 JUMP JUMPDEST JUMPDEST EQ PUSH2 0x621 JUMPI PUSH1 0x0 DUP1 REVERT JUMPDEST PUSH1 0x0 PUSH1 0x5 DUP3 DUP2 SLOAD DUP2 LT PUSH2 0x637 JUMPI PUSH2 0x636 PUSH2 0x2974 JUMP JUMPDEST JUMPDEST SWAP1 PUSH1 0x0 MSTORE PUSH1 0x20 PUSH1 0x0 KECCAK256 SWAP1 PUSH1 0x8 MUL ADD PUSH1 0x2 ADD SWAP1 POP PUSH1 0x0 PUSH1 0x4 PUSH1 0x1 PUSH1 0x4 DUP1 SLOAD SWAP1 POP PUSH2 0x660 SWAP2 SWAP1 PUSH2 0x29D2 JUMP JUMPDEST DUP2 SLOAD DUP2 LT PUSH2 0x671 JUMPI PUSH2 0x670 PUSH2 0x2974 JUMP JUMPDEST JUMPDEST SWAP1 PUSH1 0x0 MSTORE PUSH1 0x20 PUSH1 0x0 KECCAK256 SWAP1 PUSH1 0xB MUL ADD PUSH1 0x3 ADD SWAP1 POP PUSH1 0x0 DUP1 PUSH1 0x0 DUP1 PUSH1 0x0 SWAP1 POP JUMPDEST PUSH1 0x6 DUP2 LT ISZERO PUSH2 0x74A JUMPI PUSH1 0x0 JUMPDEST PUSH1 0x1 PUSH1 0x7 PUSH2 0x6A9 SWAP2 SWAP1 PUSH2 0x29D2 JUMP JUMPDEST DUP2 LT ISZERO PUSH2 0x736 JUMPI DUP6 DUP2 PUSH1 0x7 DUP2 LT PUSH2 0x6C3 JUMPI PUSH2 0x6C2 PUSH2 0x2974 JUMP JUMPDEST JUMPDEST ADD SLOAD DUP8 DUP4 PUSH1 0x6 DUP2 LT PUSH2 0x6D8 JUMPI PUSH2 0x6D7 PUSH2 0x2974 JUMP JUMPDEST JUMPDEST ADD SLOAD SUB PUSH2 0x6EE JUMPI DUP4 DUP1 PUSH2 0x6EA SWAP1 PUSH2 0x2A06 JUMP JUMPDEST SWAP5 POP POP JUMPDEST DUP6 PUSH1 0x6 PUSH1 0x7 DUP2 LT PUSH2 0x702 JUMPI PUSH2 0x701 PUSH2 0x2974 JUMP JUMPDEST JUMPDEST ADD SLOAD DUP8 DUP4 PUSH1 0x6 DUP2 LT PUSH2 0x717 JUMPI PUSH2 0x716 PUSH2 0x2974 JUMP JUMPDEST JUMPDEST ADD SLOAD SUB PUSH2 0x723 JUMPI PUSH1 0x1 SWAP3 POP JUMPDEST DUP1 DUP1 PUSH2 0x72E SWAP1 PUSH2 0x2A06 JUMP JUMPDEST SWAP2 POP POP PUSH2 0x69B JUMP JUMPDEST POP DUP1 DUP1 PUSH2 0x742 SWAP1 PUSH2 0x2A06 JUMP JUMPDEST SWAP2 POP POP PUSH2 0x68F JUMP JUMPDEST POP PUSH1 0x6 DUP3 SUB PUSH2 0x75B JUMPI SELFBALANCE SWAP3 POP PUSH2 0x76A JUMP JUMPDEST PUSH1 0x5 DUP3 EQ DUP1 ISZERO PUSH2 0x768 JUMPI POP DUP1 JUMPDEST POP JUMPDEST PUSH1 0x5 DUP7 DUP2 SLOAD DUP2 LT PUSH2 0x77E JUMPI PUSH2 0x77D PUSH2 0x2974 JUMP JUMPDEST JUMPDEST SWAP1 PUSH1 0x0 MSTORE PUSH1 0x20 PUSH1 0x0 KECCAK256 SWAP1 PUSH1 0x8 MUL ADD PUSH1 0x0 DUP1 DUP3 ADD PUSH1 0x0 PUSH2 0x100 EXP DUP2 SLOAD SWAP1 PUSH20 0xFFFFFFFFFFFFFFFFFFFFFFFFFFFFFFFFFFFFFFFF MUL NOT AND SWAP1 SSTORE PUSH1 0x1 DUP3 ADD PUSH1 0x0 SWAP1 SSTORE PUSH1 0x2 DUP3 ADD PUSH1 0x0 PUSH2 0x7CC SWAP2 SWAP1 PUSH2 0x21D6 JUMP JUMPDEST POP POP CALLER PUSH20 0xFFFFFFFFFFFFFFFFFFFFFFFFFFFFFFFFFFFFFFFF AND PUSH2 0x8FC DUP5 SWAP1 DUP2 ISZERO MUL SWAP1 PUSH1 0x40 MLOAD PUSH1 0x0 PUSH1 0x40 MLOAD DUP1 DUP4 SUB DUP2 DUP6 DUP9 DUP9 CALL SWAP4 POP POP POP POP ISZERO DUP1 ISZERO PUSH2 0x814 JUMPI RETURNDATASIZE PUSH1 0x0 DUP1 RETURNDATACOPY RETURNDATASIZE PUSH1 0x0 REVERT JUMPDEST POP POP POP POP POP POP POP JUMP JUMPDEST PUSH1 0x60 PUSH1 0x0 DUP1 PUSH1 0x0 JUMPDEST PUSH1 0x5 DUP1 SLOAD SWAP1 POP DUP2 LT ISZERO PUSH2 0x8FD JUMPI CALLER PUSH20 0xFFFFFFFFFFFFFFFFFFFFFFFFFFFFFFFFFFFFFFFF AND PUSH1 0x5 DUP3 DUP2 SLOAD DUP2 LT PUSH2 0x85D JUMPI PUSH2 0x85C PUSH2 0x2974 JUMP JUMPDEST JUMPDEST SWAP1 PUSH1 0x0 MSTORE PUSH1 0x20 PUSH1 0x0 KECCAK256 SWAP1 PUSH1 0x8 MUL ADD PUSH1 0x0 ADD PUSH1 0x0 SWAP1 SLOAD SWAP1 PUSH2 0x100 EXP SWAP1 DIV PUSH20 0xFFFFFFFFFFFFFFFFFFFFFFFFFFFFFFFFFFFFFFFF AND PUSH20 0xFFFFFFFFFFFFFFFFFFFFFFFFFFFFFFFFFFFFFFFF AND EQ DUP1 ISZERO PUSH2 0x8D6 JUMPI POP DUP5 PUSH1 0x5 DUP3 DUP2 SLOAD DUP2 LT PUSH2 0x8C2 JUMPI PUSH2 0x8C1 PUSH2 0x2974 JUMP JUMPDEST JUMPDEST SWAP1 PUSH1 0x0 MSTORE PUSH1 0x20 PUSH1 0x0 KECCAK256 SWAP1 PUSH1 0x8 MUL ADD PUSH1 0x1 ADD SLOAD EQ JUMPDEST ISZERO PUSH2 0x8EA JUMPI DUP3 DUP1 PUSH2 0x8E6 SWAP1 PUSH2 0x2A06 JUMP JUMPDEST SWAP4 POP POP JUMPDEST DUP1 DUP1 PUSH2 0x8F5 SWAP1 PUSH2 0x2A06 JUMP JUMPDEST SWAP2 POP POP PUSH2 0x825 JUMP JUMPDEST POP PUSH1 0x0 DUP3 PUSH8 0xFFFFFFFFFFFFFFFF DUP2 GT ISZERO PUSH2 0x91A JUMPI PUSH2 0x919 PUSH2 0x24F8 JUMP JUMPDEST JUMPDEST PUSH1 0x40 MLOAD SWAP1 DUP1 DUP3 MSTORE DUP1 PUSH1 0x20 MUL PUSH1 0x20 ADD DUP3 ADD PUSH1 0x40 MSTORE DUP1 ISZERO PUSH2 0x953 JUMPI DUP2 PUSH1 0x20 ADD JUMPDEST PUSH2 0x940 PUSH2 0x21E9 JUMP JUMPDEST DUP2 MSTORE PUSH1 0x20 ADD SWAP1 PUSH1 0x1 SWAP1 SUB SWAP1 DUP2 PUSH2 0x938 JUMPI SWAP1 POP JUMPDEST POP SWAP1 POP PUSH1 0x0 JUMPDEST PUSH1 0x5 DUP1 SLOAD SWAP1 POP DUP2 LT ISZERO PUSH2 0xAB0 JUMPI CALLER PUSH20 0xFFFFFFFFFFFFFFFFFFFFFFFFFFFFFFFFFFFFFFFF AND PUSH1 0x5 DUP3 DUP2 SLOAD DUP2 LT PUSH2 0x991 JUMPI PUSH2 0x990 PUSH2 0x2974 JUMP JUMPDEST JUMPDEST SWAP1 PUSH1 0x0 MSTORE PUSH1 0x20 PUSH1 0x0 KECCAK256 SWAP1 PUSH1 0x8 MUL ADD PUSH1 0x0 ADD PUSH1 0x0 SWAP1 SLOAD SWAP1 PUSH2 0x100 EXP SWAP1 DIV PUSH20 0xFFFFFFFFFFFFFFFFFFFFFFFFFFFFFFFFFFFFFFFF AND PUSH20 0xFFFFFFFFFFFFFFFFFFFFFFFFFFFFFFFFFFFFFFFF AND EQ DUP1 ISZERO PUSH2 0xA0A JUMPI POP DUP6 PUSH1 0x5 DUP3 DUP2 SLOAD DUP2 LT PUSH2 0x9F6 JUMPI PUSH2 0x9F5 PUSH2 0x2974 JUMP JUMPDEST JUMPDEST SWAP1 PUSH1 0x0 MSTORE PUSH1 0x20 PUSH1 0x0 KECCAK256 SWAP1 PUSH1 0x8 MUL ADD PUSH1 0x1 ADD SLOAD EQ JUMPDEST ISZERO PUSH2 0xA9D JUMPI PUSH1 0x5 DUP2 DUP2 SLOAD DUP2 LT PUSH2 0xA23 JUMPI PUSH2 0xA22 PUSH2 0x2974 JUMP JUMPDEST JUMPDEST SWAP1 PUSH1 0x0 MSTORE PUSH1 0x20 PUSH1 0x0 KECCAK256 SWAP1 PUSH1 0x8 MUL ADD PUSH1 0x2 ADD PUSH1 0x6 DUP1 PUSH1 0x20 MUL PUSH1 0x40 MLOAD SWAP1 DUP2 ADD PUSH1 0x40 MSTORE DUP1 SWAP3 SWAP2 SWAP1 DUP3 PUSH1 0x6 DUP1 ISZERO PUSH2 0xA6B JUMPI PUSH1 0x20 MUL DUP3 ADD SWAP2 JUMPDEST DUP2 SLOAD DUP2 MSTORE PUSH1 0x20 ADD SWAP1 PUSH1 0x1 ADD SWAP1 DUP1 DUP4 GT PUSH2 0xA57 JUMPI JUMPDEST POP POP POP POP POP DUP3 DUP5 DUP2 MLOAD DUP2 LT PUSH2 0xA83 JUMPI PUSH2 0xA82 PUSH2 0x2974 JUMP JUMPDEST JUMPDEST PUSH1 0x20 MUL PUSH1 0x20 ADD ADD DUP2 SWAP1 MSTORE POP DUP3 DUP1 PUSH2 0xA99 SWAP1 PUSH2 0x2A06 JUMP JUMPDEST SWAP4 POP POP JUMPDEST DUP1 DUP1 PUSH2 0xAA8 SWAP1 PUSH2 0x2A06 JUMP JUMPDEST SWAP2 POP POP PUSH2 0x959 JUMP JUMPDEST POP DUP1 SWAP4 POP POP POP POP SWAP2 SWAP1 POP JUMP JUMPDEST TIMESTAMP PUSH1 0x4 PUSH1 0x1 PUSH1 0x4 DUP1 SLOAD SWAP1 POP PUSH2 0xAD1 SWAP2 SWAP1 PUSH2 0x29D2 JUMP JUMPDEST DUP2 SLOAD DUP2 LT PUSH2 0xAE2 JUMPI PUSH2 0xAE1 PUSH2 0x2974 JUMP JUMPDEST JUMPDEST SWAP1 PUSH1 0x0 MSTORE PUSH1 0x20 PUSH1 0x0 KECCAK256 SWAP1 PUSH1 0xB MUL ADD PUSH1 0x1 ADD SLOAD LT ISZERO PUSH2 0xB35 JUMPI PUSH1 0x40 MLOAD PUSH32 0x8C379A000000000000000000000000000000000000000000000000000000000 DUP2 MSTORE PUSH1 0x4 ADD PUSH2 0xB2C SWAP1 PUSH2 0x2AAB JUMP JUMPDEST PUSH1 0x40 MLOAD DUP1 SWAP2 SUB SWAP1 REVERT JUMPDEST PUSH1 0x1 DUP1 DUP2 GT ISZERO PUSH2 0xB48 JUMPI PUSH2 0xB47 PUSH2 0x26C0 JUMP JUMPDEST JUMPDEST PUSH1 0x4 PUSH1 0x1 PUSH1 0x4 DUP1 SLOAD SWAP1 POP PUSH2 0xB5C SWAP2 SWAP1 PUSH2 0x29D2 JUMP JUMPDEST DUP2 SLOAD DUP2 LT PUSH2 0xB6D JUMPI PUSH2 0xB6C PUSH2 0x2974 JUMP JUMPDEST JUMPDEST SWAP1 PUSH1 0x0 MSTORE PUSH1 0x20 PUSH1 0x0 KECCAK256 SWAP1 PUSH1 0xB MUL ADD PUSH1 0x2 ADD PUSH1 0x0 SWAP1 SLOAD SWAP1 PUSH2 0x100 EXP SWAP1 DIV PUSH1 0xFF AND PUSH1 0x1 DUP2 GT ISZERO PUSH2 0xB9E JUMPI PUSH2 0xB9D PUSH2 0x26C0 JUMP JUMPDEST JUMPDEST SUB PUSH2 0xBDE JUMPI PUSH1 0x40 MLOAD PUSH32 0x8C379A000000000000000000000000000000000000000000000000000000000 DUP2 MSTORE PUSH1 0x4 ADD PUSH2 0xBD5 SWAP1 PUSH2 0x2AAB JUMP JUMPDEST PUSH1 0x40 MLOAD DUP1 SWAP2 SUB SWAP1 REVERT JUMPDEST PUSH1 0x3 SLOAD PUSH1 0x1 PUSH1 0x0 SWAP1 SLOAD SWAP1 PUSH2 0x100 EXP SWAP1 DIV PUSH20 0xFFFFFFFFFFFFFFFFFFFFFFFFFFFFFFFFFFFFFFFF AND PUSH20 0xFFFFFFFFFFFFFFFFFFFFFFFFFFFFFFFFFFFFFFFF AND PUSH4 0x70A08231 CALLER PUSH1 0x40 MLOAD DUP3 PUSH4 0xFFFFFFFF AND PUSH1 0xE0 SHL DUP2 MSTORE PUSH1 0x4 ADD PUSH2 0xC3C SWAP2 SWAP1 PUSH2 0x281B JUMP JUMPDEST PUSH1 0x20 PUSH1 0x40 MLOAD DUP1 DUP4 SUB DUP2 DUP7 GAS STATICCALL ISZERO DUP1 ISZERO PUSH2 0xC59 JUMPI RETURNDATASIZE PUSH1 0x0 DUP1 RETURNDATACOPY RETURNDATASIZE PUSH1 0x0 REVERT JUMPDEST POP POP POP POP PUSH1 0x40 MLOAD RETURNDATASIZE PUSH1 0x1F NOT PUSH1 0x1F DUP3 ADD AND DUP3 ADD DUP1 PUSH1 0x40 MSTORE POP DUP2 ADD SWAP1 PUSH2 0xC7D SWAP2 SWAP1 PUSH2 0x2AE0 JUMP JUMPDEST LT ISZERO PUSH2 0xCBE JUMPI PUSH1 0x40 MLOAD PUSH32 0x8C379A000000000000000000000000000000000000000000000000000000000 DUP2 MSTORE PUSH1 0x4 ADD PUSH2 0xCB5 SWAP1 PUSH2 0x2B59 JUMP JUMPDEST PUSH1 0x40 MLOAD DUP1 SWAP2 SUB SWAP1 REVERT JUMPDEST PUSH1 0x0 JUMPDEST PUSH1 0x1 PUSH1 0x6 PUSH2 0xCCF SWAP2 SWAP1 PUSH2 0x29D2 JUMP JUMPDEST DUP2 LT ISZERO PUSH2 0xD52 JUMPI PUSH1 0x0 PUSH1 0x1 DUP3 PUSH2 0xCE5 SWAP2 SWAP1 PUSH2 0x2B79 JUMP JUMPDEST SWAP1 POP JUMPDEST PUSH1 0x6 DUP2 LT ISZERO PUSH2 0xD3E JUMPI DUP3 DUP2 PUSH1 0x6 DUP2 LT PUSH2 0xD04 JUMPI PUSH2 0xD03 PUSH2 0x2974 JUMP JUMPDEST JUMPDEST PUSH1 0x20 MUL ADD MLOAD DUP4 DUP4 PUSH1 0x6 DUP2 LT PUSH2 0xD1C JUMPI PUSH2 0xD1B PUSH2 0x2974 JUMP JUMPDEST JUMPDEST PUSH1 0x20 MUL ADD MLOAD SUB PUSH2 0xD2B JUMPI PUSH1 0x0 DUP1 REVERT JUMPDEST DUP1 DUP1 PUSH2 0xD36 SWAP1 PUSH2 0x2A06 JUMP JUMPDEST SWAP2 POP POP PUSH2 0xCE8 JUMP JUMPDEST POP DUP1 DUP1 PUSH2 0xD4A SWAP1 PUSH2 0x2A06 JUMP JUMPDEST SWAP2 POP POP PUSH2 0xCC1 JUMP JUMPDEST POP PUSH1 0x0 JUMPDEST PUSH1 0x6 DUP2 LT ISZERO PUSH2 0xDF1 JUMPI PUSH1 0x1 DUP3 DUP3 PUSH1 0x6 DUP2 LT PUSH2 0xD74 JUMPI PUSH2 0xD73 PUSH2 0x2974 JUMP JUMPDEST JUMPDEST PUSH1 0x20 MUL ADD MLOAD LT ISZERO DUP1 ISZERO PUSH2 0xD9F JUMPI POP PUSH1 0x2D DUP3 DUP3 PUSH1 0x6 DUP2 LT PUSH2 0xD97 JUMPI PUSH2 0xD96 PUSH2 0x2974 JUMP JUMPDEST JUMPDEST PUSH1 0x20 MUL ADD MLOAD GT ISZERO JUMPDEST PUSH2 0xDDE JUMPI PUSH1 0x40 MLOAD PUSH32 0x8C379A000000000000000000000000000000000000000000000000000000000 DUP2 MSTORE PUSH1 0x4 ADD PUSH2 0xDD5 SWAP1 PUSH2 0x2C1F JUMP JUMPDEST PUSH1 0x40 MLOAD DUP1 SWAP2 SUB SWAP1 REVERT JUMPDEST DUP1 DUP1 PUSH2 0xDE9 SWAP1 PUSH2 0x2A06 JUMP JUMPDEST SWAP2 POP POP PUSH2 0xD56 JUMP JUMPDEST POP PUSH1 0x1 PUSH1 0x0 SWAP1 SLOAD SWAP1 PUSH2 0x100 EXP SWAP1 DIV PUSH20 0xFFFFFFFFFFFFFFFFFFFFFFFFFFFFFFFFFFFFFFFF AND PUSH20 0xFFFFFFFFFFFFFFFFFFFFFFFFFFFFFFFFFFFFFFFF AND PUSH4 0x23B872DD CALLER ADDRESS PUSH1 0x3 SLOAD PUSH1 0x40 MLOAD DUP5 PUSH4 0xFFFFFFFF AND PUSH1 0xE0 SHL DUP2 MSTORE PUSH1 0x4 ADD PUSH2 0xE53 SWAP4 SWAP3 SWAP2 SWAP1 PUSH2 0x2C3F JUMP JUMPDEST PUSH1 0x20 PUSH1 0x40 MLOAD DUP1 DUP4 SUB DUP2 PUSH1 0x0 DUP8 GAS CALL ISZERO DUP1 ISZERO PUSH2 0xE72 JUMPI RETURNDATASIZE PUSH1 0x0 DUP1 RETURNDATACOPY RETURNDATASIZE PUSH1 0x0 REVERT JUMPDEST POP POP POP POP PUSH1 0x40 MLOAD RETURNDATASIZE PUSH1 0x1F NOT PUSH1 0x1F DUP3 ADD AND DUP3 ADD DUP1 PUSH1 0x40 MSTORE POP DUP2 ADD SWAP1 PUSH2 0xE96 SWAP2 SWAP1 PUSH2 0x2CAE JUMP JUMPDEST POP PUSH1 0x0 PUSH1 0x40 MLOAD DUP1 PUSH1 0x60 ADD PUSH1 0x40 MSTORE DUP1 CALLER PUSH20 0xFFFFFFFFFFFFFFFFFFFFFFFFFFFFFFFFFFFFFFFF AND DUP2 MSTORE PUSH1 0x20 ADD PUSH1 0x1 PUSH1 0x4 DUP1 SLOAD SWAP1 POP PUSH2 0xED2 SWAP2 SWAP1 PUSH2 0x29D2 JUMP JUMPDEST DUP2 MSTORE PUSH1 0x20 ADD DUP4 DUP2 MSTORE POP SWAP1 POP PUSH1 0x5 DUP2 SWAP1 DUP1 PUSH1 0x1 DUP2 SLOAD ADD DUP1 DUP3 SSTORE DUP1 SWAP2 POP POP PUSH1 0x1 SWAP1 SUB SWAP1 PUSH1 0x0 MSTORE PUSH1 0x20 PUSH1 0x0 KECCAK256 SWAP1 PUSH1 0x8 MUL ADD PUSH1 0x0 SWAP1 SWAP2 SWAP1 SWAP2 SWAP1 SWAP2 POP PUSH1 0x0 DUP3 ADD MLOAD DUP2 PUSH1 0x0 ADD PUSH1 0x0 PUSH2 0x100 EXP DUP2 SLOAD DUP2 PUSH20 0xFFFFFFFFFFFFFFFFFFFFFFFFFFFFFFFFFFFFFFFF MUL NOT AND SWAP1 DUP4 PUSH20 0xFFFFFFFFFFFFFFFFFFFFFFFFFFFFFFFFFFFFFFFF AND MUL OR SWAP1 SSTORE POP PUSH1 0x20 DUP3 ADD MLOAD DUP2 PUSH1 0x1 ADD SSTORE PUSH1 0x40 DUP3 ADD MLOAD DUP2 PUSH1 0x2 ADD SWAP1 PUSH1 0x6 PUSH2 0xF71 SWAP3 SWAP2 SWAP1 PUSH2 0x220B JUMP JUMPDEST POP POP POP PUSH1 0x1 PUSH1 0x4 PUSH1 0x1 PUSH1 0x4 DUP1 SLOAD SWAP1 POP PUSH2 0xF8A SWAP2 SWAP1 PUSH2 0x29D2 JUMP JUMPDEST DUP2 SLOAD DUP2 LT PUSH2 0xF9B JUMPI PUSH2 0xF9A PUSH2 0x2974 JUMP JUMPDEST JUMPDEST SWAP1 PUSH1 0x0 MSTORE PUSH1 0x20 PUSH1 0x0 KECCAK256 SWAP1 PUSH1 0xB MUL ADD PUSH1 0xA ADD PUSH1 0x0 DUP3 DUP3 SLOAD PUSH2 0xFBB SWAP2 SWAP1 PUSH2 0x2B79 JUMP JUMPDEST SWAP3 POP POP DUP2 SWAP1 SSTORE POP POP POP JUMP JUMPDEST PUSH2 0xFCE PUSH2 0x1AE3 JUMP JUMPDEST PUSH20 0xFFFFFFFFFFFFFFFFFFFFFFFFFFFFFFFFFFFFFFFF AND PUSH2 0xFEC PUSH2 0x1296 JUMP JUMPDEST PUSH20 0xFFFFFFFFFFFFFFFFFFFFFFFFFFFFFFFFFFFFFFFF AND EQ PUSH2 0x1042 JUMPI PUSH1 0x40 MLOAD PUSH32 0x8C379A000000000000000000000000000000000000000000000000000000000 DUP2 MSTORE PUSH1 0x4 ADD PUSH2 0x1039 SWAP1 PUSH2 0x2D27 JUMP JUMPDEST PUSH1 0x40 MLOAD DUP1 SWAP2 SUB SWAP1 REVERT JUMPDEST PUSH1 0x0 PUSH1 0x4 DUP1 SLOAD SWAP1 POP GT ISZERO PUSH2 0x1059 JUMPI PUSH2 0x1058 PUSH2 0x1AEB JUMP JUMPDEST JUMPDEST PUSH2 0x1061 PUSH2 0x1C76 JUMP JUMPDEST JUMP JUMPDEST PUSH1 0x3 SLOAD DUP2 JUMP JUMPDEST PUSH1 0x5 DUP2 DUP2 SLOAD DUP2 LT PUSH2 0x1079 JUMPI PUSH1 0x0 DUP1 REVERT JUMPDEST SWAP1 PUSH1 0x0 MSTORE PUSH1 0x20 PUSH1 0x0 KECCAK256 SWAP1 PUSH1 0x8 MUL ADD PUSH1 0x0 SWAP2 POP SWAP1 POP DUP1 PUSH1 0x0 ADD PUSH1 0x0 SWAP1 SLOAD SWAP1 PUSH2 0x100 EXP SWAP1 DIV PUSH20 0xFFFFFFFFFFFFFFFFFFFFFFFFFFFFFFFFFFFFFFFF AND SWAP1 DUP1 PUSH1 0x1 ADD SLOAD SWAP1 POP DUP3 JUMP JUMPDEST PUSH2 0x10C5 PUSH2 0x1AE3 JUMP JUMPDEST PUSH20 0xFFFFFFFFFFFFFFFFFFFFFFFFFFFFFFFFFFFFFFFF AND PUSH2 0x10E3 PUSH2 0x1296 JUMP JUMPDEST PUSH20 0xFFFFFFFFFFFFFFFFFFFFFFFFFFFFFFFFFFFFFFFF AND EQ PUSH2 0x1139 JUMPI PUSH1 0x40 MLOAD PUSH32 0x8C379A000000000000000000000000000000000000000000000000000000000 DUP2 MSTORE PUSH1 0x4 ADD PUSH2 0x1130 SWAP1 PUSH2 0x2D27 JUMP JUMPDEST PUSH1 0x40 MLOAD DUP1 SWAP2 SUB SWAP1 REVERT JUMPDEST DUP1 PUSH1 0x6 DUP2 SWAP1 SSTORE POP POP JUMP JUMPDEST PUSH1 0x0 SELFBALANCE SWAP1 POP SWAP1 JUMP JUMPDEST PUSH2 0x1153 PUSH2 0x1AE3 JUMP JUMPDEST PUSH20 0xFFFFFFFFFFFFFFFFFFFFFFFFFFFFFFFFFFFFFFFF AND PUSH2 0x1171 PUSH2 0x1296 JUMP JUMPDEST PUSH20 0xFFFFFFFFFFFFFFFFFFFFFFFFFFFFFFFFFFFFFFFF AND EQ PUSH2 0x11C7 JUMPI PUSH1 0x40 MLOAD PUSH32 0x8C379A000000000000000000000000000000000000000000000000000000000 DUP2 MSTORE PUSH1 0x4 ADD PUSH2 0x11BE SWAP1 PUSH2 0x2D27 JUMP JUMPDEST PUSH1 0x40 MLOAD DUP1 SWAP2 SUB SWAP1 REVERT JUMPDEST PUSH2 0x11D1 PUSH1 0x0 PUSH2 0x1E1E JUMP JUMPDEST JUMP JUMPDEST PUSH1 0x6 SLOAD DUP2 JUMP JUMPDEST PUSH1 0x4 DUP2 DUP2 SLOAD DUP2 LT PUSH2 0x11E9 JUMPI PUSH1 0x0 DUP1 REVERT JUMPDEST SWAP1 PUSH1 0x0 MSTORE PUSH1 0x20 PUSH1 0x0 KECCAK256 SWAP1 PUSH1 0xB MUL ADD PUSH1 0x0 SWAP2 POP SWAP1 POP DUP1 PUSH1 0x0 ADD SLOAD SWAP1 DUP1 PUSH1 0x1 ADD SLOAD SWAP1 DUP1 PUSH1 0x2 ADD PUSH1 0x0 SWAP1 SLOAD SWAP1 PUSH2 0x100 EXP SWAP1 DIV PUSH1 0xFF AND SWAP1 DUP1 PUSH1 0xA ADD SLOAD SWAP1 POP DUP5 JUMP JUMPDEST PUSH2 0x122E PUSH2 0x224B JUMP JUMPDEST PUSH1 0x4 DUP3 DUP2 SLOAD DUP2 LT PUSH2 0x1242 JUMPI PUSH2 0x1241 PUSH2 0x2974 JUMP JUMPDEST JUMPDEST SWAP1 PUSH1 0x0 MSTORE PUSH1 0x20 PUSH1 0x0 KECCAK256 SWAP1 PUSH1 0xB MUL ADD PUSH1 0x3 ADD PUSH1 0x7 DUP1 PUSH1 0x20 MUL PUSH1 0x40 MLOAD SWAP1 DUP2 ADD PUSH1 0x40 MSTORE DUP1 SWAP3 SWAP2 SWAP1 DUP3 PUSH1 0x7 DUP1 ISZERO PUSH2 0x128A JUMPI PUSH1 0x20 MUL DUP3 ADD SWAP2 JUMPDEST DUP2 SLOAD DUP2 MSTORE PUSH1 0x20 ADD SWAP1 PUSH1 0x1 ADD SWAP1 DUP1 DUP4 GT PUSH2 0x1276 JUMPI JUMPDEST POP POP POP POP POP SWAP1 POP SWAP2 SWAP1 POP JUMP JUMPDEST PUSH1 0x0 DUP1 PUSH1 0x0 SWAP1 SLOAD SWAP1 PUSH2 0x100 EXP SWAP1 DIV PUSH20 0xFFFFFFFFFFFFFFFFFFFFFFFFFFFFFFFFFFFFFFFF AND SWAP1 POP SWAP1 JUMP JUMPDEST PUSH2 0x12C7 PUSH2 0x1AE3 JUMP JUMPDEST PUSH20 0xFFFFFFFFFFFFFFFFFFFFFFFFFFFFFFFFFFFFFFFF AND PUSH2 0x12E5 PUSH2 0x1296 JUMP JUMPDEST PUSH20 0xFFFFFFFFFFFFFFFFFFFFFFFFFFFFFFFFFFFFFFFF AND EQ PUSH2 0x133B JUMPI PUSH1 0x40 MLOAD PUSH32 0x8C379A000000000000000000000000000000000000000000000000000000000 DUP2 MSTORE PUSH1 0x4 ADD PUSH2 0x1332 SWAP1 PUSH2 0x2D27 JUMP JUMPDEST PUSH1 0x40 MLOAD DUP1 SWAP2 SUB SWAP1 REVERT JUMPDEST DUP1 PUSH1 0x2 DUP2 SWAP1 SSTORE POP POP JUMP JUMPDEST TIMESTAMP PUSH1 0x4 PUSH1 0x1 PUSH1 0x4 DUP1 SLOAD SWAP1 POP PUSH2 0x135A SWAP2 SWAP1 PUSH2 0x29D2 JUMP JUMPDEST DUP2 SLOAD DUP2 LT PUSH2 0x136B JUMPI PUSH2 0x136A PUSH2 0x2974 JUMP JUMPDEST JUMPDEST SWAP1 PUSH1 0x0 MSTORE PUSH1 0x20 PUSH1 0x0 KECCAK256 SWAP1 PUSH1 0xB MUL ADD PUSH1 0x1 ADD SLOAD LT ISZERO PUSH2 0x13BE JUMPI PUSH1 0x40 MLOAD PUSH32 0x8C379A000000000000000000000000000000000000000000000000000000000 DUP2 MSTORE PUSH1 0x4 ADD PUSH2 0x13B5 SWAP1 PUSH2 0x2AAB JUMP JUMPDEST PUSH1 0x40 MLOAD DUP1 SWAP2 SUB SWAP1 REVERT JUMPDEST PUSH1 0x1 DUP1 DUP2 GT ISZERO PUSH2 0x13D1 JUMPI PUSH2 0x13D0 PUSH2 0x26C0 JUMP JUMPDEST JUMPDEST PUSH1 0x4 PUSH1 0x1 PUSH1 0x4 DUP1 SLOAD SWAP1 POP PUSH2 0x13E5 SWAP2 SWAP1 PUSH2 0x29D2 JUMP JUMPDEST DUP2 SLOAD DUP2 LT PUSH2 0x13F6 JUMPI PUSH2 0x13F5 PUSH2 0x2974 JUMP JUMPDEST JUMPDEST SWAP1 PUSH1 0x0 MSTORE PUSH1 0x20 PUSH1 0x0 KECCAK256 SWAP1 PUSH1 0xB MUL ADD PUSH1 0x2 ADD PUSH1 0x0 SWAP1 SLOAD SWAP1 PUSH2 0x100 EXP SWAP1 DIV PUSH1 0xFF AND PUSH1 0x1 DUP2 GT ISZERO PUSH2 0x1427 JUMPI PUSH2 0x1426 PUSH2 0x26C0 JUMP JUMPDEST JUMPDEST SUB PUSH2 0x1467 JUMPI PUSH1 0x40 MLOAD PUSH32 0x8C379A000000000000000000000000000000000000000000000000000000000 DUP2 MSTORE PUSH1 0x4 ADD PUSH2 0x145E SWAP1 PUSH2 0x2AAB JUMP JUMPDEST PUSH1 0x40 MLOAD DUP1 SWAP2 SUB SWAP1 REVERT JUMPDEST PUSH1 0x2 SLOAD CALLVALUE EQ PUSH2 0x14AB JUMPI PUSH1 0x40 MLOAD PUSH32 0x8C379A000000000000000000000000000000000000000000000000000000000 DUP2 MSTORE PUSH1 0x4 ADD PUSH2 0x14A2 SWAP1 PUSH2 0x2B59 JUMP JUMPDEST PUSH1 0x40 MLOAD DUP1 SWAP2 SUB SWAP1 REVERT JUMPDEST PUSH1 0x0 JUMPDEST PUSH1 0x1 PUSH1 0x6 PUSH2 0x14BC SWAP2 SWAP1 PUSH2 0x29D2 JUMP JUMPDEST DUP2 LT ISZERO PUSH2 0x153F JUMPI PUSH1 0x0 PUSH1 0x1 DUP3 PUSH2 0x14D2 SWAP2 SWAP1 PUSH2 0x2B79 JUMP JUMPDEST SWAP1 POP JUMPDEST PUSH1 0x6 DUP2 LT ISZERO PUSH2 0x152B JUMPI DUP3 DUP2 PUSH1 0x6 DUP2 LT PUSH2 0x14F1 JUMPI PUSH2 0x14F0 PUSH2 0x2974 JUMP JUMPDEST JUMPDEST PUSH1 0x20 MUL ADD MLOAD DUP4 DUP4 PUSH1 0x6 DUP2 LT PUSH2 0x1509 JUMPI PUSH2 0x1508 PUSH2 0x2974 JUMP JUMPDEST JUMPDEST PUSH1 0x20 MUL ADD MLOAD SUB PUSH2 0x1518 JUMPI PUSH1 0x0 DUP1 REVERT JUMPDEST DUP1 DUP1 PUSH2 0x1523 SWAP1 PUSH2 0x2A06 JUMP JUMPDEST SWAP2 POP POP PUSH2 0x14D5 JUMP JUMPDEST POP DUP1 DUP1 PUSH2 0x1537 SWAP1 PUSH2 0x2A06 JUMP JUMPDEST SWAP2 POP POP PUSH2 0x14AE JUMP JUMPDEST POP PUSH1 0x0 JUMPDEST PUSH1 0x6 DUP2 LT ISZERO PUSH2 0x15DE JUMPI PUSH1 0x1 DUP3 DUP3 PUSH1 0x6 DUP2 LT PUSH2 0x1561 JUMPI PUSH2 0x1560 PUSH2 0x2974 JUMP JUMPDEST JUMPDEST PUSH1 0x20 MUL ADD MLOAD LT ISZERO DUP1 ISZERO PUSH2 0x158C JUMPI POP PUSH1 0x2D DUP3 DUP3 PUSH1 0x6 DUP2 LT PUSH2 0x1584 JUMPI PUSH2 0x1583 PUSH2 0x2974 JUMP JUMPDEST JUMPDEST PUSH1 0x20 MUL ADD MLOAD GT ISZERO JUMPDEST PUSH2 0x15CB JUMPI PUSH1 0x40 MLOAD PUSH32 0x8C379A000000000000000000000000000000000000000000000000000000000 DUP2 MSTORE PUSH1 0x4 ADD PUSH2 0x15C2 SWAP1 PUSH2 0x2C1F JUMP JUMPDEST PUSH1 0x40 MLOAD DUP1 SWAP2 SUB SWAP1 REVERT JUMPDEST DUP1 DUP1 PUSH2 0x15D6 SWAP1 PUSH2 0x2A06 JUMP JUMPDEST SWAP2 POP POP PUSH2 0x1543 JUMP JUMPDEST POP PUSH1 0x0 PUSH1 0x40 MLOAD DUP1 PUSH1 0x60 ADD PUSH1 0x40 MSTORE DUP1 CALLER PUSH20 0xFFFFFFFFFFFFFFFFFFFFFFFFFFFFFFFFFFFFFFFF AND DUP2 MSTORE PUSH1 0x20 ADD PUSH1 0x1 PUSH1 0x4 DUP1 SLOAD SWAP1 POP PUSH2 0x161A SWAP2 SWAP1 PUSH2 0x29D2 JUMP JUMPDEST DUP2 MSTORE PUSH1 0x20 ADD DUP4 DUP2 MSTORE POP SWAP1 POP PUSH1 0x5 DUP2 SWAP1 DUP1 PUSH1 0x1 DUP2 SLOAD ADD DUP1 DUP3 SSTORE DUP1 SWAP2 POP POP PUSH1 0x1 SWAP1 SUB SWAP1 PUSH1 0x0 MSTORE PUSH1 0x20 PUSH1 0x0 KECCAK256 SWAP1 PUSH1 0x8 MUL ADD PUSH1 0x0 SWAP1 SWAP2 SWAP1 SWAP2 SWAP1 SWAP2 POP PUSH1 0x0 DUP3 ADD MLOAD DUP2 PUSH1 0x0 ADD PUSH1 0x0 PUSH2 0x100 EXP DUP2 SLOAD DUP2 PUSH20 0xFFFFFFFFFFFFFFFFFFFFFFFFFFFFFFFFFFFFFFFF MUL NOT AND SWAP1 DUP4 PUSH20 0xFFFFFFFFFFFFFFFFFFFFFFFFFFFFFFFFFFFFFFFF AND MUL OR SWAP1 SSTORE POP PUSH1 0x20 DUP3 ADD MLOAD DUP2 PUSH1 0x1 ADD SSTORE PUSH1 0x40 DUP3 ADD MLOAD DUP2 PUSH1 0x2 ADD SWAP1 PUSH1 0x6 PUSH2 0x16B9 SWAP3 SWAP2 SWAP1 PUSH2 0x220B JUMP JUMPDEST POP POP POP PUSH1 0x1 PUSH1 0x4 PUSH1 0x1 PUSH1 0x4 DUP1 SLOAD SWAP1 POP PUSH2 0x16D2 SWAP2 SWAP1 PUSH2 0x29D2 JUMP JUMPDEST DUP2 SLOAD DUP2 LT PUSH2 0x16E3 JUMPI PUSH2 0x16E2 PUSH2 0x2974 JUMP JUMPDEST JUMPDEST SWAP1 PUSH1 0x0 MSTORE PUSH1 0x20 PUSH1 0x0 KECCAK256 SWAP1 PUSH1 0xB MUL ADD PUSH1 0xA ADD PUSH1 0x0 DUP3 DUP3 SLOAD PUSH2 0x1703 SWAP2 SWAP1 PUSH2 0x2B79 JUMP JUMPDEST SWAP3 POP POP DUP2 SWAP1 SSTORE POP POP POP JUMP JUMPDEST PUSH2 0x1716 PUSH2 0x1AE3 JUMP JUMPDEST PUSH20 0xFFFFFFFFFFFFFFFFFFFFFFFFFFFFFFFFFFFFFFFF AND PUSH2 0x1734 PUSH2 0x1296 JUMP JUMPDEST PUSH20 0xFFFFFFFFFFFFFFFFFFFFFFFFFFFFFFFFFFFFFFFF AND EQ PUSH2 0x178A JUMPI PUSH1 0x40 MLOAD PUSH32 0x8C379A000000000000000000000000000000000000000000000000000000000 DUP2 MSTORE PUSH1 0x4 ADD PUSH2 0x1781 SWAP1 PUSH2 0x2D27 JUMP JUMPDEST PUSH1 0x40 MLOAD DUP1 SWAP2 SUB SWAP1 REVERT JUMPDEST PUSH1 0x1 PUSH1 0x0 SWAP1 SLOAD SWAP1 PUSH2 0x100 EXP SWAP1 DIV PUSH20 0xFFFFFFFFFFFFFFFFFFFFFFFFFFFFFFFFFFFFFFFF AND PUSH20 0xFFFFFFFFFFFFFFFFFFFFFFFFFFFFFFFFFFFFFFFF AND PUSH4 0xA9059CBB DUP3 PUSH1 0x1 PUSH1 0x0 SWAP1 SLOAD SWAP1 PUSH2 0x100 EXP SWAP1 DIV PUSH20 0xFFFFFFFFFFFFFFFFFFFFFFFFFFFFFFFFFFFFFFFF AND PUSH20 0xFFFFFFFFFFFFFFFFFFFFFFFFFFFFFFFFFFFFFFFF AND PUSH4 0x70A08231 ADDRESS PUSH1 0x40 MLOAD DUP3 PUSH4 0xFFFFFFFF AND PUSH1 0xE0 SHL DUP2 MSTORE PUSH1 0x4 ADD PUSH2 0x1824 SWAP2 SWAP1 PUSH2 0x281B JUMP JUMPDEST PUSH1 0x20 PUSH1 0x40 MLOAD DUP1 DUP4 SUB DUP2 DUP7 GAS STATICCALL ISZERO DUP1 ISZERO PUSH2 0x1841 JUMPI RETURNDATASIZE PUSH1 0x0 DUP1 RETURNDATACOPY RETURNDATASIZE PUSH1 0x0 REVERT JUMPDEST POP POP POP POP PUSH1 0x40 MLOAD RETURNDATASIZE PUSH1 0x1F NOT PUSH1 0x1F DUP3 ADD AND DUP3 ADD DUP1 PUSH1 0x40 MSTORE POP DUP2 ADD SWAP1 PUSH2 0x1865 SWAP2 SWAP1 PUSH2 0x2AE0 JUMP JUMPDEST PUSH1 0x40 MLOAD DUP4 PUSH4 0xFFFFFFFF AND PUSH1 0xE0 SHL DUP2 MSTORE PUSH1 0x4 ADD PUSH2 0x1882 SWAP3 SWAP2 SWAP1 PUSH2 0x2D68 JUMP JUMPDEST PUSH1 0x20 PUSH1 0x40 MLOAD DUP1 DUP4 SUB DUP2 PUSH1 0x0 DUP8 GAS CALL ISZERO DUP1 ISZERO PUSH2 0x18A1 JUMPI RETURNDATASIZE PUSH1 0x0 DUP1 RETURNDATACOPY RETURNDATASIZE PUSH1 0x0 REVERT JUMPDEST POP POP POP POP PUSH1 0x40 MLOAD RETURNDATASIZE PUSH1 0x1F NOT PUSH1 0x1F DUP3 ADD AND DUP3 ADD DUP1 PUSH1 0x40 MSTORE POP DUP2 ADD SWAP1 PUSH2 0x18C5 SWAP2 SWAP1 PUSH2 0x2CAE JUMP JUMPDEST POP POP JUMP JUMPDEST PUSH2 0x18D1 PUSH2 0x1AE3 JUMP JUMPDEST PUSH20 0xFFFFFFFFFFFFFFFFFFFFFFFFFFFFFFFFFFFFFFFF AND PUSH2 0x18EF PUSH2 0x1296 JUMP JUMPDEST PUSH20 0xFFFFFFFFFFFFFFFFFFFFFFFFFFFFFFFFFFFFFFFF AND EQ PUSH2 0x1945 JUMPI PUSH1 0x40 MLOAD PUSH32 0x8C379A000000000000000000000000000000000000000000000000000000000 DUP2 MSTORE PUSH1 0x4 ADD PUSH2 0x193C SWAP1 PUSH2 0x2D27 JUMP JUMPDEST PUSH1 0x40 MLOAD DUP1 SWAP2 SUB SWAP1 REVERT JUMPDEST PUSH1 0x1 PUSH1 0x4 PUSH1 0x1 PUSH1 0x4 DUP1 SLOAD SWAP1 POP PUSH2 0x195B SWAP2 SWAP1 PUSH2 0x29D2 JUMP JUMPDEST DUP2 SLOAD DUP2 LT PUSH2 0x196C JUMPI PUSH2 0x196B PUSH2 0x2974 JUMP JUMPDEST JUMPDEST SWAP1 PUSH1 0x0 MSTORE PUSH1 0x20 PUSH1 0x0 KECCAK256 SWAP1 PUSH1 0xB MUL ADD PUSH1 0x2 ADD PUSH1 0x0 PUSH2 0x100 EXP DUP2 SLOAD DUP2 PUSH1 0xFF MUL NOT AND SWAP1 DUP4 PUSH1 0x1 DUP2 GT ISZERO PUSH2 0x199F JUMPI PUSH2 0x199E PUSH2 0x26C0 JUMP JUMPDEST JUMPDEST MUL OR SWAP1 SSTORE POP PUSH2 0x19AC PUSH2 0x1EE2 JUMP JUMPDEST PUSH2 0x19B4 PUSH2 0x1C76 JUMP JUMPDEST JUMP JUMPDEST PUSH1 0x1 DUP2 JUMP JUMPDEST PUSH1 0x7 SLOAD DUP2 JUMP JUMPDEST PUSH2 0x19C9 PUSH2 0x1AE3 JUMP JUMPDEST PUSH20 0xFFFFFFFFFFFFFFFFFFFFFFFFFFFFFFFFFFFFFFFF AND PUSH2 0x19E7 PUSH2 0x1296 JUMP JUMPDEST PUSH20 0xFFFFFFFFFFFFFFFFFFFFFFFFFFFFFFFFFFFFFFFF AND EQ PUSH2 0x1A3D JUMPI PUSH1 0x40 MLOAD PUSH32 0x8C379A000000000000000000000000000000000000000000000000000000000 DUP2 MSTORE PUSH1 0x4 ADD PUSH2 0x1A34 SWAP1 PUSH2 0x2D27 JUMP JUMPDEST PUSH1 0x40 MLOAD DUP1 SWAP2 SUB SWAP1 REVERT JUMPDEST PUSH1 0x0 PUSH20 0xFFFFFFFFFFFFFFFFFFFFFFFFFFFFFFFFFFFFFFFF AND DUP2 PUSH20 0xFFFFFFFFFFFFFFFFFFFFFFFFFFFFFFFFFFFFFFFF AND SUB PUSH2 0x1AAC JUMPI PUSH1 0x40 MLOAD PUSH32 0x8C379A000000000000000000000000000000000000000000000000000000000 DUP2 MSTORE PUSH1 0x4 ADD PUSH2 0x1AA3 SWAP1 PUSH2 0x2E03 JUMP JUMPDEST PUSH1 0x40 MLOAD DUP1 SWAP2 SUB SWAP1 REVERT JUMPDEST PUSH2 0x1AB5 DUP2 PUSH2 0x1E1E JUMP JUMPDEST POP JUMP JUMPDEST PUSH1 0x1 PUSH1 0x0 SWAP1 SLOAD SWAP1 PUSH2 0x100 EXP SWAP1 DIV PUSH20 0xFFFFFFFFFFFFFFFFFFFFFFFFFFFFFFFFFFFFFFFF AND DUP2 JUMP JUMPDEST PUSH1 0x2D DUP2 JUMP JUMPDEST PUSH1 0x0 CALLER SWAP1 POP SWAP1 JUMP JUMPDEST PUSH1 0x1 DUP1 DUP2 GT ISZERO PUSH2 0x1AFE JUMPI PUSH2 0x1AFD PUSH2 0x26C0 JUMP JUMPDEST JUMPDEST PUSH1 0x4 PUSH1 0x1 PUSH1 0x4 DUP1 SLOAD SWAP1 POP PUSH2 0x1B12 SWAP2 SWAP1 PUSH2 0x29D2 JUMP JUMPDEST DUP2 SLOAD DUP2 LT PUSH2 0x1B23 JUMPI PUSH2 0x1B22 PUSH2 0x2974 JUMP JUMPDEST JUMPDEST SWAP1 PUSH1 0x0 MSTORE PUSH1 0x20 PUSH1 0x0 KECCAK256 SWAP1 PUSH1 0xB MUL ADD PUSH1 0x2 ADD PUSH1 0x0 SWAP1 SLOAD SWAP1 PUSH2 0x100 EXP SWAP1 DIV PUSH1 0xFF AND PUSH1 0x1 DUP2 GT ISZERO PUSH2 0x1B54 JUMPI PUSH2 0x1B53 PUSH2 0x26C0 JUMP JUMPDEST JUMPDEST SUB PUSH2 0x1B94 JUMPI PUSH1 0x40 MLOAD PUSH32 0x8C379A000000000000000000000000000000000000000000000000000000000 DUP2 MSTORE PUSH1 0x4 ADD PUSH2 0x1B8B SWAP1 PUSH2 0x2E6F JUMP JUMPDEST PUSH1 0x40 MLOAD DUP1 SWAP2 SUB SWAP1 REVERT JUMPDEST PUSH1 0x4 PUSH1 0x1 PUSH1 0x4 DUP1 SLOAD SWAP1 POP PUSH2 0x1BA8 SWAP2 SWAP1 PUSH2 0x29D2 JUMP JUMPDEST DUP2 SLOAD DUP2 LT PUSH2 0x1BB9 JUMPI PUSH2 0x1BB8 PUSH2 0x2974 JUMP JUMPDEST JUMPDEST SWAP1 PUSH1 0x0 MSTORE PUSH1 0x20 PUSH1 0x0 KECCAK256 SWAP1 PUSH1 0xB MUL ADD PUSH1 0x1 ADD SLOAD TIMESTAMP LT ISZERO PUSH2 0x1C0D JUMPI PUSH1 0x40 MLOAD PUSH32 0x8C379A000000000000000000000000000000000000000000000000000000000 DUP2 MSTORE PUSH1 0x4 ADD PUSH2 0x1C04 SWAP1 PUSH2 0x2EDB JUMP JUMPDEST PUSH1 0x40 MLOAD DUP1 SWAP2 SUB SWAP1 REVERT JUMPDEST PUSH1 0x1 PUSH1 0x4 PUSH1 0x1 PUSH1 0x4 DUP1 SLOAD SWAP1 POP PUSH2 0x1C23 SWAP2 SWAP1 PUSH2 0x29D2 JUMP JUMPDEST DUP2 SLOAD DUP2 LT PUSH2 0x1C34 JUMPI PUSH2 0x1C33 PUSH2 0x2974 JUMP JUMPDEST JUMPDEST SWAP1 PUSH1 0x0 MSTORE PUSH1 0x20 PUSH1 0x0 KECCAK256 SWAP1 PUSH1 0xB MUL ADD PUSH1 0x2 ADD PUSH1 0x0 PUSH2 0x100 EXP DUP2 SLOAD DUP2 PUSH1 0xFF MUL NOT AND SWAP1 DUP4 PUSH1 0x1 DUP2 GT ISZERO PUSH2 0x1C67 JUMPI PUSH2 0x1C66 PUSH2 0x26C0 JUMP JUMPDEST JUMPDEST MUL OR SWAP1 SSTORE POP PUSH2 0x1C74 PUSH2 0x1EE2 JUMP JUMPDEST JUMP JUMPDEST PUSH1 0x0 PUSH1 0x4 DUP1 SLOAD SWAP1 POP GT DUP1 ISZERO PUSH2 0x1CF2 JUMPI POP PUSH1 0x1 DUP1 DUP2 GT ISZERO PUSH2 0x1C99 JUMPI PUSH2 0x1C98 PUSH2 0x26C0 JUMP JUMPDEST JUMPDEST PUSH1 0x4 PUSH1 0x1 PUSH1 0x4 DUP1 SLOAD SWAP1 POP PUSH2 0x1CAD SWAP2 SWAP1 PUSH2 0x29D2 JUMP JUMPDEST DUP2 SLOAD DUP2 LT PUSH2 0x1CBE JUMPI PUSH2 0x1CBD PUSH2 0x2974 JUMP JUMPDEST JUMPDEST SWAP1 PUSH1 0x0 MSTORE PUSH1 0x20 PUSH1 0x0 KECCAK256 SWAP1 PUSH1 0xB MUL ADD PUSH1 0x2 ADD PUSH1 0x0 SWAP1 SLOAD SWAP1 PUSH2 0x100 EXP SWAP1 DIV PUSH1 0xFF AND PUSH1 0x1 DUP2 GT ISZERO PUSH2 0x1CEF JUMPI PUSH2 0x1CEE PUSH2 0x26C0 JUMP JUMPDEST JUMPDEST EQ ISZERO JUMPDEST ISZERO PUSH2 0x1D32 JUMPI PUSH1 0x40 MLOAD PUSH32 0x8C379A000000000000000000000000000000000000000000000000000000000 DUP2 MSTORE PUSH1 0x4 ADD PUSH2 0x1D29 SWAP1 PUSH2 0x2F47 JUMP JUMPDEST PUSH1 0x40 MLOAD DUP1 SWAP2 SUB SWAP1 REVERT JUMPDEST PUSH2 0x1D3A PUSH2 0x224B JUMP JUMPDEST PUSH1 0x0 PUSH1 0x40 MLOAD DUP1 PUSH1 0xA0 ADD PUSH1 0x40 MSTORE DUP1 TIMESTAMP DUP2 MSTORE PUSH1 0x20 ADD PUSH1 0x6 SLOAD TIMESTAMP PUSH2 0x1D5B SWAP2 SWAP1 PUSH2 0x2B79 JUMP JUMPDEST DUP2 MSTORE PUSH1 0x20 ADD PUSH1 0x0 PUSH1 0x1 DUP2 GT ISZERO PUSH2 0x1D74 JUMPI PUSH2 0x1D73 PUSH2 0x26C0 JUMP JUMPDEST JUMPDEST DUP2 MSTORE PUSH1 0x20 ADD DUP4 DUP2 MSTORE PUSH1 0x20 ADD PUSH1 0x0 DUP2 MSTORE POP SWAP1 POP PUSH1 0x4 DUP2 SWAP1 DUP1 PUSH1 0x1 DUP2 SLOAD ADD DUP1 DUP3 SSTORE DUP1 SWAP2 POP POP PUSH1 0x1 SWAP1 SUB SWAP1 PUSH1 0x0 MSTORE PUSH1 0x20 PUSH1 0x0 KECCAK256 SWAP1 PUSH1 0xB MUL ADD PUSH1 0x0 SWAP1 SWAP2 SWAP1 SWAP2 SWAP1 SWAP2 POP PUSH1 0x0 DUP3 ADD MLOAD DUP2 PUSH1 0x0 ADD SSTORE PUSH1 0x20 DUP3 ADD MLOAD DUP2 PUSH1 0x1 ADD SSTORE PUSH1 0x40 DUP3 ADD MLOAD DUP2 PUSH1 0x2 ADD PUSH1 0x0 PUSH2 0x100 EXP DUP2 SLOAD DUP2 PUSH1 0xFF MUL NOT AND SWAP1 DUP4 PUSH1 0x1 DUP2 GT ISZERO PUSH2 0x1DF1 JUMPI PUSH2 0x1DF0 PUSH2 0x26C0 JUMP JUMPDEST JUMPDEST MUL OR SWAP1 SSTORE POP PUSH1 0x60 DUP3 ADD MLOAD DUP2 PUSH1 0x3 ADD SWAP1 PUSH1 0x7 PUSH2 0x1E0D SWAP3 SWAP2 SWAP1 PUSH2 0x226D JUMP JUMPDEST POP PUSH1 0x80 DUP3 ADD MLOAD DUP2 PUSH1 0xA ADD SSTORE POP POP POP POP JUMP JUMPDEST PUSH1 0x0 DUP1 PUSH1 0x0 SWAP1 SLOAD SWAP1 PUSH2 0x100 EXP SWAP1 DIV PUSH20 0xFFFFFFFFFFFFFFFFFFFFFFFFFFFFFFFFFFFFFFFF AND SWAP1 POP DUP2 PUSH1 0x0 DUP1 PUSH2 0x100 EXP DUP2 SLOAD DUP2 PUSH20 0xFFFFFFFFFFFFFFFFFFFFFFFFFFFFFFFFFFFFFFFF MUL NOT AND SWAP1 DUP4 PUSH20 0xFFFFFFFFFFFFFFFFFFFFFFFFFFFFFFFFFFFFFFFF AND MUL OR SWAP1 SSTORE POP DUP2 PUSH20 0xFFFFFFFFFFFFFFFFFFFFFFFFFFFFFFFFFFFFFFFF AND DUP2 PUSH20 0xFFFFFFFFFFFFFFFFFFFFFFFFFFFFFFFFFFFFFFFF AND PUSH32 0x8BE0079C531659141344CD1FD0A4F28419497F9722A3DAAFE3B4186F6B6457E0 PUSH1 0x40 MLOAD PUSH1 0x40 MLOAD DUP1 SWAP2 SUB SWAP1 LOG3 POP POP JUMP JUMPDEST PUSH1 0x0 PUSH1 0x4 PUSH1 0x1 PUSH1 0x4 DUP1 SLOAD SWAP1 POP PUSH2 0x1EF8 SWAP2 SWAP1 PUSH2 0x29D2 JUMP JUMPDEST DUP2 SLOAD DUP2 LT PUSH2 0x1F09 JUMPI PUSH2 0x1F08 PUSH2 0x2974 JUMP JUMPDEST JUMPDEST SWAP1 PUSH1 0x0 MSTORE PUSH1 0x20 PUSH1 0x0 KECCAK256 SWAP1 PUSH1 0xB MUL ADD PUSH1 0x1 ADD SLOAD SWAP1 POP PUSH1 0x4 PUSH1 0x1 PUSH1 0x4 DUP1 SLOAD SWAP1 POP PUSH2 0x1F31 SWAP2 SWAP1 PUSH2 0x29D2 JUMP JUMPDEST DUP2 SLOAD DUP2 LT PUSH2 0x1F42 JUMPI PUSH2 0x1F41 PUSH2 0x2974 JUMP JUMPDEST JUMPDEST SWAP1 PUSH1 0x0 MSTORE PUSH1 0x20 PUSH1 0x0 KECCAK256 SWAP1 PUSH1 0xB MUL ADD PUSH1 0x1 ADD SLOAD TIMESTAMP GT PUSH2 0x1F5F JUMPI PUSH1 0x0 DUP1 REVERT JUMPDEST PUSH1 0x0 PUSH1 0x4 PUSH1 0x1 PUSH1 0x4 DUP1 SLOAD SWAP1 POP PUSH2 0x1F75 SWAP2 SWAP1 PUSH2 0x29D2 JUMP JUMPDEST DUP2 SLOAD DUP2 LT PUSH2 0x1F86 JUMPI PUSH2 0x1F85 PUSH2 0x2974 JUMP JUMPDEST JUMPDEST SWAP1 PUSH1 0x0 MSTORE PUSH1 0x20 PUSH1 0x0 KECCAK256 SWAP1 PUSH1 0xB MUL ADD PUSH1 0x3 ADD PUSH1 0x0 PUSH1 0x7 DUP2 LT PUSH2 0x1FAA JUMPI PUSH2 0x1FA9 PUSH2 0x2974 JUMP JUMPDEST JUMPDEST ADD SLOAD EQ PUSH2 0x1FB6 JUMPI PUSH1 0x0 DUP1 REVERT JUMPDEST PUSH1 0x0 DUP1 JUMPDEST PUSH1 0x7 DUP3 LT ISZERO PUSH2 0x2126 JUMPI PUSH1 0x0 DUP4 BLOCKHASH SWAP1 POP PUSH1 0x0 DUP2 DUP4 PUSH1 0x40 MLOAD PUSH1 0x20 ADD PUSH2 0x1FDE SWAP3 SWAP2 SWAP1 PUSH2 0x2F80 JUMP JUMPDEST PUSH1 0x40 MLOAD PUSH1 0x20 DUP2 DUP4 SUB SUB DUP2 MSTORE SWAP1 PUSH1 0x40 MSTORE SWAP1 POP PUSH1 0x0 DUP2 DUP1 MLOAD SWAP1 PUSH1 0x20 ADD KECCAK256 SWAP1 POP PUSH1 0x0 PUSH1 0x1 PUSH1 0x2D DUP4 PUSH1 0x0 SHR PUSH2 0x200F SWAP2 SWAP1 PUSH2 0x2FD8 JUMP JUMPDEST PUSH2 0x2019 SWAP2 SWAP1 PUSH2 0x2B79 JUMP JUMPDEST SWAP1 POP PUSH1 0x0 DUP1 JUMPDEST DUP8 DUP2 LT ISZERO PUSH2 0x20A1 JUMPI PUSH1 0x4 PUSH1 0x1 PUSH1 0x4 DUP1 SLOAD SWAP1 POP PUSH2 0x203B SWAP2 SWAP1 PUSH2 0x29D2 JUMP JUMPDEST DUP2 SLOAD DUP2 LT PUSH2 0x204C JUMPI PUSH2 0x204B PUSH2 0x2974 JUMP JUMPDEST JUMPDEST SWAP1 PUSH1 0x0 MSTORE PUSH1 0x20 PUSH1 0x0 KECCAK256 SWAP1 PUSH1 0xB MUL ADD PUSH1 0x3 ADD DUP2 PUSH1 0x7 DUP2 LT PUSH2 0x206F JUMPI PUSH2 0x206E PUSH2 0x2974 JUMP JUMPDEST JUMPDEST ADD SLOAD DUP4 SUB PUSH2 0x208E JUMPI PUSH1 0x1 SWAP2 POP DUP7 DUP1 PUSH2 0x2086 SWAP1 PUSH2 0x2A06 JUMP JUMPDEST SWAP8 POP POP PUSH2 0x20A1 JUMP JUMPDEST DUP1 DUP1 PUSH2 0x2099 SWAP1 PUSH2 0x2A06 JUMP JUMPDEST SWAP2 POP POP PUSH2 0x201F JUMP JUMPDEST POP DUP1 ISZERO PUSH2 0x20B2 JUMPI POP POP POP POP POP PUSH2 0x1FBA JUMP JUMPDEST DUP2 PUSH1 0x4 PUSH1 0x1 PUSH1 0x4 DUP1 SLOAD SWAP1 POP PUSH2 0x20C7 SWAP2 SWAP1 PUSH2 0x29D2 JUMP JUMPDEST DUP2 SLOAD DUP2 LT PUSH2 0x20D8 JUMPI PUSH2 0x20D7 PUSH2 0x2974 JUMP JUMPDEST JUMPDEST SWAP1 PUSH1 0x0 MSTORE PUSH1 0x20 PUSH1 0x0 KECCAK256 SWAP1 PUSH1 0xB MUL ADD PUSH1 0x3 ADD DUP9 PUSH1 0x7 DUP2 LT PUSH2 0x20FB JUMPI PUSH2 0x20FA PUSH2 0x2974 JUMP JUMPDEST JUMPDEST ADD DUP2 SWAP1 SSTORE POP DUP7 DUP1 PUSH2 0x210B SWAP1 PUSH2 0x2A06 JUMP JUMPDEST SWAP8 POP POP DUP6 DUP1 PUSH2 0x2119 SWAP1 PUSH2 0x2A06 JUMP JUMPDEST SWAP7 POP POP POP POP POP POP POP PUSH2 0x1FBA JUMP JUMPDEST PUSH1 0x0 DUP4 BLOCKHASH SWAP1 POP PUSH1 0x0 DUP2 DUP4 PUSH1 0x40 MLOAD PUSH1 0x20 ADD PUSH2 0x2141 SWAP3 SWAP2 SWAP1 PUSH2 0x2F80 JUMP JUMPDEST PUSH1 0x40 MLOAD PUSH1 0x20 DUP2 DUP4 SUB SUB DUP2 MSTORE SWAP1 PUSH1 0x40 MSTORE SWAP1 POP PUSH1 0x0 DUP2 DUP1 MLOAD SWAP1 PUSH1 0x20 ADD KECCAK256 SWAP1 POP PUSH1 0x0 PUSH1 0x1 PUSH1 0x2D DUP4 PUSH1 0x0 SHR PUSH2 0x2172 SWAP2 SWAP1 PUSH2 0x2FD8 JUMP JUMPDEST PUSH2 0x217C SWAP2 SWAP1 PUSH2 0x2B79 JUMP JUMPDEST SWAP1 POP DUP1 PUSH1 0x4 PUSH1 0x1 PUSH1 0x4 DUP1 SLOAD SWAP1 POP PUSH2 0x2193 SWAP2 SWAP1 PUSH2 0x29D2 JUMP JUMPDEST DUP2 SLOAD DUP2 LT PUSH2 0x21A4 JUMPI PUSH2 0x21A3 PUSH2 0x2974 JUMP JUMPDEST JUMPDEST SWAP1 PUSH1 0x0 MSTORE PUSH1 0x20 PUSH1 0x0 KECCAK256 SWAP1 PUSH1 0xB MUL ADD PUSH1 0x3 ADD PUSH1 0x6 PUSH1 0x7 DUP2 LT PUSH2 0x21C8 JUMPI PUSH2 0x21C7 PUSH2 0x2974 JUMP JUMPDEST JUMPDEST ADD DUP2 SWAP1 SSTORE POP POP POP POP POP POP POP POP JUMP JUMPDEST POP DUP1 PUSH1 0x6 ADD SWAP1 PUSH2 0x21E6 SWAP2 SWAP1 PUSH2 0x22AD JUMP JUMPDEST POP JUMP JUMPDEST PUSH1 0x40 MLOAD DUP1 PUSH1 0xC0 ADD PUSH1 0x40 MSTORE DUP1 PUSH1 0x6 SWAP1 PUSH1 0x20 DUP3 MUL DUP1 CALLDATASIZE DUP4 CALLDATACOPY DUP1 DUP3 ADD SWAP2 POP POP SWAP1 POP POP SWAP1 JUMP JUMPDEST DUP3 PUSH1 0x6 DUP2 ADD SWAP3 DUP3 ISZERO PUSH2 0x223A JUMPI SWAP2 PUSH1 0x20 MUL DUP3 ADD JUMPDEST DUP3 DUP2 GT ISZERO PUSH2 0x2239 JUMPI DUP3 MLOAD DUP3 SSTORE SWAP2 PUSH1 0x20 ADD SWAP2 SWAP1 PUSH1 0x1 ADD SWAP1 PUSH2 0x221E JUMP JUMPDEST JUMPDEST POP SWAP1 POP PUSH2 0x2247 SWAP2 SWAP1 PUSH2 0x22AD JUMP JUMPDEST POP SWAP1 JUMP JUMPDEST PUSH1 0x40 MLOAD DUP1 PUSH1 0xE0 ADD PUSH1 0x40 MSTORE DUP1 PUSH1 0x7 SWAP1 PUSH1 0x20 DUP3 MUL DUP1 CALLDATASIZE DUP4 CALLDATACOPY DUP1 DUP3 ADD SWAP2 POP POP SWAP1 POP POP SWAP1 JUMP JUMPDEST DUP3 PUSH1 0x7 DUP2 ADD SWAP3 DUP3 ISZERO PUSH2 0x229C JUMPI SWAP2 PUSH1 0x20 MUL DUP3 ADD JUMPDEST DUP3 DUP2 GT ISZERO PUSH2 0x229B JUMPI DUP3 MLOAD DUP3 SSTORE SWAP2 PUSH1 0x20 ADD SWAP2 SWAP1 PUSH1 0x1 ADD SWAP1 PUSH2 0x2280 JUMP JUMPDEST JUMPDEST POP SWAP1 POP PUSH2 0x22A9 SWAP2 SWAP1 PUSH2 0x22AD JUMP JUMPDEST POP SWAP1 JUMP JUMPDEST JUMPDEST DUP1 DUP3 GT ISZERO PUSH2 0x22C6 JUMPI PUSH1 0x0 DUP2 PUSH1 0x0 SWAP1 SSTORE POP PUSH1 0x1 ADD PUSH2 0x22AE JUMP JUMPDEST POP SWAP1 JUMP JUMPDEST PUSH1 0x0 DUP2 SWAP1 POP SWAP2 SWAP1 POP JUMP JUMPDEST PUSH2 0x22DD DUP2 PUSH2 0x22CA JUMP JUMPDEST DUP3 MSTORE POP POP JUMP JUMPDEST PUSH1 0x0 PUSH1 0x20 DUP3 ADD SWAP1 POP PUSH2 0x22F8 PUSH1 0x0 DUP4 ADD DUP5 PUSH2 0x22D4 JUMP JUMPDEST SWAP3 SWAP2 POP POP JUMP JUMPDEST PUSH1 0x0 PUSH1 0x40 MLOAD SWAP1 POP SWAP1 JUMP JUMPDEST PUSH1 0x0 DUP1 REVERT JUMPDEST PUSH2 0x2316 DUP2 PUSH2 0x22CA JUMP JUMPDEST DUP2 EQ PUSH2 0x2321 JUMPI PUSH1 0x0 DUP1 REVERT JUMPDEST POP JUMP JUMPDEST PUSH1 0x0 DUP2 CALLDATALOAD SWAP1 POP PUSH2 0x2333 DUP2 PUSH2 0x230D JUMP JUMPDEST SWAP3 SWAP2 POP POP JUMP JUMPDEST PUSH1 0x0 PUSH1 0x20 DUP3 DUP5 SUB SLT ISZERO PUSH2 0x234F JUMPI PUSH2 0x234E PUSH2 0x2308 JUMP JUMPDEST JUMPDEST PUSH1 0x0 PUSH2 0x235D DUP5 DUP3 DUP6 ADD PUSH2 0x2324 JUMP JUMPDEST SWAP2 POP POP SWAP3 SWAP2 POP POP JUMP JUMPDEST PUSH1 0x0 DUP2 MLOAD SWAP1 POP SWAP2 SWAP1 POP JUMP JUMPDEST PUSH1 0x0 DUP3 DUP3 MSTORE PUSH1 0x20 DUP3 ADD SWAP1 POP SWAP3 SWAP2 POP POP JUMP JUMPDEST PUSH1 0x0 DUP2 SWAP1 POP PUSH1 0x20 DUP3 ADD SWAP1 POP SWAP2 SWAP1 POP JUMP JUMPDEST PUSH1 0x0 PUSH1 0x6 SWAP1 POP SWAP2 SWAP1 POP JUMP JUMPDEST PUSH1 0x0 DUP2 SWAP1 POP SWAP3 SWAP2 POP POP JUMP JUMPDEST PUSH1 0x0 DUP2 SWAP1 POP SWAP2 SWAP1 POP JUMP JUMPDEST PUSH2 0x23BB DUP2 PUSH2 0x22CA JUMP JUMPDEST DUP3 MSTORE POP POP JUMP JUMPDEST PUSH1 0x0 PUSH2 0x23CD DUP4 DUP4 PUSH2 0x23B2 JUMP JUMPDEST PUSH1 0x20 DUP4 ADD SWAP1 POP SWAP3 SWAP2 POP POP JUMP JUMPDEST PUSH1 0x0 PUSH1 0x20 DUP3 ADD SWAP1 POP SWAP2 SWAP1 POP JUMP JUMPDEST PUSH2 0x23EF DUP2 PUSH2 0x2392 JUMP JUMPDEST PUSH2 0x23F9 DUP2 DUP5 PUSH2 0x239D JUMP JUMPDEST SWAP3 POP PUSH2 0x2404 DUP3 PUSH2 0x23A8 JUMP JUMPDEST DUP1 PUSH1 0x0 JUMPDEST DUP4 DUP2 LT ISZERO PUSH2 0x2435 JUMPI DUP2 MLOAD PUSH2 0x241C DUP8 DUP3 PUSH2 0x23C1 JUMP JUMPDEST SWAP7 POP PUSH2 0x2427 DUP4 PUSH2 0x23D9 JUMP JUMPDEST SWAP3 POP POP PUSH1 0x1 DUP2 ADD SWAP1 POP PUSH2 0x2408 JUMP JUMPDEST POP POP POP POP POP POP JUMP JUMPDEST PUSH1 0x0 PUSH2 0x2449 DUP4 DUP4 PUSH2 0x23E6 JUMP JUMPDEST PUSH1 0xC0 DUP4 ADD SWAP1 POP SWAP3 SWAP2 POP POP JUMP JUMPDEST PUSH1 0x0 PUSH1 0x20 DUP3 ADD SWAP1 POP SWAP2 SWAP1 POP JUMP JUMPDEST PUSH1 0x0 PUSH2 0x246D DUP3 PUSH2 0x2366 JUMP JUMPDEST PUSH2 0x2477 DUP2 DUP6 PUSH2 0x2371 JUMP JUMPDEST SWAP4 POP PUSH2 0x2482 DUP4 PUSH2 0x2382 JUMP JUMPDEST DUP1 PUSH1 0x0 JUMPDEST DUP4 DUP2 LT ISZERO PUSH2 0x24B3 JUMPI DUP2 MLOAD PUSH2 0x249A DUP9 DUP3 PUSH2 0x243D JUMP JUMPDEST SWAP8 POP PUSH2 0x24A5 DUP4 PUSH2 0x2455 JUMP JUMPDEST SWAP3 POP POP PUSH1 0x1 DUP2 ADD SWAP1 POP PUSH2 0x2486 JUMP JUMPDEST POP DUP6 SWAP4 POP POP POP POP SWAP3 SWAP2 POP POP JUMP JUMPDEST PUSH1 0x0 PUSH1 0x20 DUP3 ADD SWAP1 POP DUP2 DUP2 SUB PUSH1 0x0 DUP4 ADD MSTORE PUSH2 0x24DA DUP2 DUP5 PUSH2 0x2462 JUMP JUMPDEST SWAP1 POP SWAP3 SWAP2 POP POP JUMP JUMPDEST PUSH1 0x0 DUP1 REVERT JUMPDEST PUSH1 0x0 PUSH1 0x1F NOT PUSH1 0x1F DUP4 ADD AND SWAP1 POP SWAP2 SWAP1 POP JUMP JUMPDEST PUSH32 0x4E487B7100000000000000000000000000000000000000000000000000000000 PUSH1 0x0 MSTORE PUSH1 0x41 PUSH1 0x4 MSTORE PUSH1 0x24 PUSH1 0x0 REVERT JUMPDEST PUSH2 0x2530 DUP3 PUSH2 0x24E7 JUMP JUMPDEST DUP2 ADD DUP2 DUP2 LT PUSH8 0xFFFFFFFFFFFFFFFF DUP3 GT OR ISZERO PUSH2 0x254F JUMPI PUSH2 0x254E PUSH2 0x24F8 JUMP JUMPDEST JUMPDEST DUP1 PUSH1 0x40 MSTORE POP POP POP JUMP JUMPDEST PUSH1 0x0 PUSH2 0x2562 PUSH2 0x22FE JUMP JUMPDEST SWAP1 POP PUSH2 0x256E DUP3 DUP3 PUSH2 0x2527 JUMP JUMPDEST SWAP2 SWAP1 POP JUMP JUMPDEST PUSH1 0x0 PUSH8 0xFFFFFFFFFFFFFFFF DUP3 GT ISZERO PUSH2 0x258E JUMPI PUSH2 0x258D PUSH2 0x24F8 JUMP JUMPDEST JUMPDEST PUSH1 0x20 DUP3 MUL SWAP1 POP SWAP2 SWAP1 POP JUMP JUMPDEST PUSH1 0x0 DUP1 REVERT JUMPDEST PUSH1 0x0 PUSH2 0x25B1 PUSH2 0x25AC DUP5 PUSH2 0x2573 JUMP JUMPDEST PUSH2 0x2558 JUMP JUMPDEST SWAP1 POP DUP1 PUSH1 0x20 DUP5 MUL DUP4 ADD DUP6 DUP2 GT ISZERO PUSH2 0x25CB JUMPI PUSH2 0x25CA PUSH2 0x2599 JUMP JUMPDEST JUMPDEST DUP4 JUMPDEST DUP2 DUP2 LT ISZERO PUSH2 0x25F4 JUMPI DUP1 PUSH2 0x25E0 DUP9 DUP3 PUSH2 0x2324 JUMP JUMPDEST DUP5 MSTORE PUSH1 0x20 DUP5 ADD SWAP4 POP POP PUSH1 0x20 DUP2 ADD SWAP1 POP PUSH2 0x25CD JUMP JUMPDEST POP POP POP SWAP4 SWAP3 POP POP POP JUMP JUMPDEST PUSH1 0x0 DUP3 PUSH1 0x1F DUP4 ADD SLT PUSH2 0x2613 JUMPI PUSH2 0x2612 PUSH2 0x24E2 JUMP JUMPDEST JUMPDEST PUSH1 0x6 PUSH2 0x2620 DUP5 DUP3 DUP6 PUSH2 0x259E JUMP JUMPDEST SWAP2 POP POP SWAP3 SWAP2 POP POP JUMP JUMPDEST PUSH1 0x0 PUSH1 0xC0 DUP3 DUP5 SUB SLT ISZERO PUSH2 0x263F JUMPI PUSH2 0x263E PUSH2 0x2308 JUMP JUMPDEST JUMPDEST PUSH1 0x0 PUSH2 0x264D DUP5 DUP3 DUP6 ADD PUSH2 0x25FE JUMP JUMPDEST SWAP2 POP POP SWAP3 SWAP2 POP POP JUMP JUMPDEST PUSH1 0x0 PUSH20 0xFFFFFFFFFFFFFFFFFFFFFFFFFFFFFFFFFFFFFFFF DUP3 AND SWAP1 POP SWAP2 SWAP1 POP JUMP JUMPDEST PUSH1 0x0 PUSH2 0x2681 DUP3 PUSH2 0x2656 JUMP JUMPDEST SWAP1 POP SWAP2 SWAP1 POP JUMP JUMPDEST PUSH2 0x2691 DUP2 PUSH2 0x2676 JUMP JUMPDEST DUP3 MSTORE POP POP JUMP JUMPDEST PUSH1 0x0 PUSH1 0x40 DUP3 ADD SWAP1 POP PUSH2 0x26AC PUSH1 0x0 DUP4 ADD DUP6 PUSH2 0x2688 JUMP JUMPDEST PUSH2 0x26B9 PUSH1 0x20 DUP4 ADD DUP5 PUSH2 0x22D4 JUMP JUMPDEST SWAP4 SWAP3 POP POP POP JUMP JUMPDEST PUSH32 0x4E487B7100000000000000000000000000000000000000000000000000000000 PUSH1 0x0 MSTORE PUSH1 0x21 PUSH1 0x4 MSTORE PUSH1 0x24 PUSH1 0x0 REVERT JUMPDEST PUSH1 0x2 DUP2 LT PUSH2 0x2700 JUMPI PUSH2 0x26FF PUSH2 0x26C0 JUMP JUMPDEST JUMPDEST POP JUMP JUMPDEST PUSH1 0x0 DUP2 SWAP1 POP PUSH2 0x2711 DUP3 PUSH2 0x26EF JUMP JUMPDEST SWAP2 SWAP1 POP JUMP JUMPDEST PUSH1 0x0 PUSH2 0x2721 DUP3 PUSH2 0x2703 JUMP JUMPDEST SWAP1 POP SWAP2 SWAP1 POP JUMP JUMPDEST PUSH2 0x2731 DUP2 PUSH2 0x2716 JUMP JUMPDEST DUP3 MSTORE POP POP JUMP JUMPDEST PUSH1 0x0 PUSH1 0x80 DUP3 ADD SWAP1 POP PUSH2 0x274C PUSH1 0x0 DUP4 ADD DUP8 PUSH2 0x22D4 JUMP JUMPDEST PUSH2 0x2759 PUSH1 0x20 DUP4 ADD DUP7 PUSH2 0x22D4 JUMP JUMPDEST PUSH2 0x2766 PUSH1 0x40 DUP4 ADD DUP6 PUSH2 0x2728 JUMP JUMPDEST PUSH2 0x2773 PUSH1 0x60 DUP4 ADD DUP5 PUSH2 0x22D4 JUMP JUMPDEST SWAP6 SWAP5 POP POP POP POP POP JUMP JUMPDEST PUSH1 0x0 PUSH1 0x7 SWAP1 POP SWAP2 SWAP1 POP JUMP JUMPDEST PUSH1 0x0 DUP2 SWAP1 POP SWAP3 SWAP2 POP POP JUMP JUMPDEST PUSH1 0x0 DUP2 SWAP1 POP SWAP2 SWAP1 POP JUMP JUMPDEST PUSH1 0x0 PUSH1 0x20 DUP3 ADD SWAP1 POP SWAP2 SWAP1 POP JUMP JUMPDEST PUSH2 0x27B2 DUP2 PUSH2 0x277C JUMP JUMPDEST PUSH2 0x27BC DUP2 DUP5 PUSH2 0x2787 JUMP JUMPDEST SWAP3 POP PUSH2 0x27C7 DUP3 PUSH2 0x2792 JUMP JUMPDEST DUP1 PUSH1 0x0 JUMPDEST DUP4 DUP2 LT ISZERO PUSH2 0x27F8 JUMPI DUP2 MLOAD PUSH2 0x27DF DUP8 DUP3 PUSH2 0x23C1 JUMP JUMPDEST SWAP7 POP PUSH2 0x27EA DUP4 PUSH2 0x279C JUMP JUMPDEST SWAP3 POP POP PUSH1 0x1 DUP2 ADD SWAP1 POP PUSH2 0x27CB JUMP JUMPDEST POP POP POP POP POP POP JUMP JUMPDEST PUSH1 0x0 PUSH1 0xE0 DUP3 ADD SWAP1 POP PUSH2 0x2815 PUSH1 0x0 DUP4 ADD DUP5 PUSH2 0x27A9 JUMP JUMPDEST SWAP3 SWAP2 POP POP JUMP JUMPDEST PUSH1 0x0 PUSH1 0x20 DUP3 ADD SWAP1 POP PUSH2 0x2830 PUSH1 0x0 DUP4 ADD DUP5 PUSH2 0x2688 JUMP JUMPDEST SWAP3 SWAP2 POP POP JUMP JUMPDEST PUSH1 0x0 PUSH2 0x2841 DUP3 PUSH2 0x2656 JUMP JUMPDEST SWAP1 POP SWAP2 SWAP1 POP JUMP JUMPDEST PUSH2 0x2851 DUP2 PUSH2 0x2836 JUMP JUMPDEST DUP2 EQ PUSH2 0x285C JUMPI PUSH1 0x0 DUP1 REVERT JUMPDEST POP JUMP JUMPDEST PUSH1 0x0 DUP2 CALLDATALOAD SWAP1 POP PUSH2 0x286E DUP2 PUSH2 0x2848 JUMP JUMPDEST SWAP3 SWAP2 POP POP JUMP JUMPDEST PUSH1 0x0 PUSH1 0x20 DUP3 DUP5 SUB SLT ISZERO PUSH2 0x288A JUMPI PUSH2 0x2889 PUSH2 0x2308 JUMP JUMPDEST JUMPDEST PUSH1 0x0 PUSH2 0x2898 DUP5 DUP3 DUP6 ADD PUSH2 0x285F JUMP JUMPDEST SWAP2 POP POP SWAP3 SWAP2 POP POP JUMP JUMPDEST PUSH2 0x28AA DUP2 PUSH2 0x2676 JUMP JUMPDEST DUP2 EQ PUSH2 0x28B5 JUMPI PUSH1 0x0 DUP1 REVERT JUMPDEST POP JUMP JUMPDEST PUSH1 0x0 DUP2 CALLDATALOAD SWAP1 POP PUSH2 0x28C7 DUP2 PUSH2 0x28A1 JUMP JUMPDEST SWAP3 SWAP2 POP POP JUMP JUMPDEST PUSH1 0x0 PUSH1 0x20 DUP3 DUP5 SUB SLT ISZERO PUSH2 0x28E3 JUMPI PUSH2 0x28E2 PUSH2 0x2308 JUMP JUMPDEST JUMPDEST PUSH1 0x0 PUSH2 0x28F1 DUP5 DUP3 DUP6 ADD PUSH2 0x28B8 JUMP JUMPDEST SWAP2 POP POP SWAP3 SWAP2 POP POP JUMP JUMPDEST PUSH1 0x0 DUP2 SWAP1 POP SWAP2 SWAP1 POP JUMP JUMPDEST PUSH1 0x0 PUSH2 0x291F PUSH2 0x291A PUSH2 0x2915 DUP5 PUSH2 0x2656 JUMP JUMPDEST PUSH2 0x28FA JUMP JUMPDEST PUSH2 0x2656 JUMP JUMPDEST SWAP1 POP SWAP2 SWAP1 POP JUMP JUMPDEST PUSH1 0x0 PUSH2 0x2931 DUP3 PUSH2 0x2904 JUMP JUMPDEST SWAP1 POP SWAP2 SWAP1 POP JUMP JUMPDEST PUSH1 0x0 PUSH2 0x2943 DUP3 PUSH2 0x2926 JUMP JUMPDEST SWAP1 POP SWAP2 SWAP1 POP JUMP JUMPDEST PUSH2 0x2953 DUP2 PUSH2 0x2938 JUMP JUMPDEST DUP3 MSTORE POP POP JUMP JUMPDEST PUSH1 0x0 PUSH1 0x20 DUP3 ADD SWAP1 POP PUSH2 0x296E PUSH1 0x0 DUP4 ADD DUP5 PUSH2 0x294A JUMP JUMPDEST SWAP3 SWAP2 POP POP JUMP JUMPDEST PUSH32 0x4E487B7100000000000000000000000000000000000000000000000000000000 PUSH1 0x0 MSTORE PUSH1 0x32 PUSH1 0x4 MSTORE PUSH1 0x24 PUSH1 0x0 REVERT JUMPDEST PUSH32 0x4E487B7100000000000000000000000000000000000000000000000000000000 PUSH1 0x0 MSTORE PUSH1 0x11 PUSH1 0x4 MSTORE PUSH1 0x24 PUSH1 0x0 REVERT JUMPDEST PUSH1 0x0 PUSH2 0x29DD DUP3 PUSH2 0x22CA JUMP JUMPDEST SWAP2 POP PUSH2 0x29E8 DUP4 PUSH2 0x22CA JUMP JUMPDEST SWAP3 POP DUP3 DUP3 SUB SWAP1 POP DUP2 DUP2 GT ISZERO PUSH2 0x2A00 JUMPI PUSH2 0x29FF PUSH2 0x29A3 JUMP JUMPDEST JUMPDEST SWAP3 SWAP2 POP POP JUMP JUMPDEST PUSH1 0x0 PUSH2 0x2A11 DUP3 PUSH2 0x22CA JUMP JUMPDEST SWAP2 POP PUSH32 0xFFFFFFFFFFFFFFFFFFFFFFFFFFFFFFFFFFFFFFFFFFFFFFFFFFFFFFFFFFFFFFFF DUP3 SUB PUSH2 0x2A43 JUMPI PUSH2 0x2A42 PUSH2 0x29A3 JUMP JUMPDEST JUMPDEST PUSH1 0x1 DUP3 ADD SWAP1 POP SWAP2 SWAP1 POP JUMP JUMPDEST PUSH1 0x0 DUP3 DUP3 MSTORE PUSH1 0x20 DUP3 ADD SWAP1 POP SWAP3 SWAP2 POP POP JUMP JUMPDEST PUSH32 0x526F756E6420456E640000000000000000000000000000000000000000000000 PUSH1 0x0 DUP3 ADD MSTORE POP JUMP JUMPDEST PUSH1 0x0 PUSH2 0x2A95 PUSH1 0x9 DUP4 PUSH2 0x2A4E JUMP JUMPDEST SWAP2 POP PUSH2 0x2AA0 DUP3 PUSH2 0x2A5F JUMP JUMPDEST PUSH1 0x20 DUP3 ADD SWAP1 POP SWAP2 SWAP1 POP JUMP JUMPDEST PUSH1 0x0 PUSH1 0x20 DUP3 ADD SWAP1 POP DUP2 DUP2 SUB PUSH1 0x0 DUP4 ADD MSTORE PUSH2 0x2AC4 DUP2 PUSH2 0x2A88 JUMP JUMPDEST SWAP1 POP SWAP2 SWAP1 POP JUMP JUMPDEST PUSH1 0x0 DUP2 MLOAD SWAP1 POP PUSH2 0x2ADA DUP2 PUSH2 0x230D JUMP JUMPDEST SWAP3 SWAP2 POP POP JUMP JUMPDEST PUSH1 0x0 PUSH1 0x20 DUP3 DUP5 SUB SLT ISZERO PUSH2 0x2AF6 JUMPI PUSH2 0x2AF5 PUSH2 0x2308 JUMP JUMPDEST JUMPDEST PUSH1 0x0 PUSH2 0x2B04 DUP5 DUP3 DUP6 ADD PUSH2 0x2ACB JUMP JUMPDEST SWAP2 POP POP SWAP3 SWAP2 POP POP JUMP JUMPDEST PUSH32 0x4E6F742076616C69642076616C75650000000000000000000000000000000000 PUSH1 0x0 DUP3 ADD MSTORE POP JUMP JUMPDEST PUSH1 0x0 PUSH2 0x2B43 PUSH1 0xF DUP4 PUSH2 0x2A4E JUMP JUMPDEST SWAP2 POP PUSH2 0x2B4E DUP3 PUSH2 0x2B0D JUMP JUMPDEST PUSH1 0x20 DUP3 ADD SWAP1 POP SWAP2 SWAP1 POP JUMP JUMPDEST PUSH1 0x0 PUSH1 0x20 DUP3 ADD SWAP1 POP DUP2 DUP2 SUB PUSH1 0x0 DUP4 ADD MSTORE PUSH2 0x2B72 DUP2 PUSH2 0x2B36 JUMP JUMPDEST SWAP1 POP SWAP2 SWAP1 POP JUMP JUMPDEST PUSH1 0x0 PUSH2 0x2B84 DUP3 PUSH2 0x22CA JUMP JUMPDEST SWAP2 POP PUSH2 0x2B8F DUP4 PUSH2 0x22CA JUMP JUMPDEST SWAP3 POP DUP3 DUP3 ADD SWAP1 POP DUP1 DUP3 GT ISZERO PUSH2 0x2BA7 JUMPI PUSH2 0x2BA6 PUSH2 0x29A3 JUMP JUMPDEST JUMPDEST SWAP3 SWAP2 POP POP JUMP JUMPDEST PUSH32 0x4F6E6C79206E756D626572732030207E2034352063616E20626520656E746572 PUSH1 0x0 DUP3 ADD MSTORE PUSH32 0x6564000000000000000000000000000000000000000000000000000000000000 PUSH1 0x20 DUP3 ADD MSTORE POP JUMP JUMPDEST PUSH1 0x0 PUSH2 0x2C09 PUSH1 0x22 DUP4 PUSH2 0x2A4E JUMP JUMPDEST SWAP2 POP PUSH2 0x2C14 DUP3 PUSH2 0x2BAD JUMP JUMPDEST PUSH1 0x40 DUP3 ADD SWAP1 POP SWAP2 SWAP1 POP JUMP JUMPDEST PUSH1 0x0 PUSH1 0x20 DUP3 ADD SWAP1 POP DUP2 DUP2 SUB PUSH1 0x0 DUP4 ADD MSTORE PUSH2 0x2C38 DUP2 PUSH2 0x2BFC JUMP JUMPDEST SWAP1 POP SWAP2 SWAP1 POP JUMP JUMPDEST PUSH1 0x0 PUSH1 0x60 DUP3 ADD SWAP1 POP PUSH2 0x2C54 PUSH1 0x0 DUP4 ADD DUP7 PUSH2 0x2688 JUMP JUMPDEST PUSH2 0x2C61 PUSH1 0x20 DUP4 ADD DUP6 PUSH2 0x2688 JUMP JUMPDEST PUSH2 0x2C6E PUSH1 0x40 DUP4 ADD DUP5 PUSH2 0x22D4 JUMP JUMPDEST SWAP5 SWAP4 POP POP POP POP JUMP JUMPDEST PUSH1 0x0 DUP2 ISZERO ISZERO SWAP1 POP SWAP2 SWAP1 POP JUMP JUMPDEST PUSH2 0x2C8B DUP2 PUSH2 0x2C76 JUMP JUMPDEST DUP2 EQ PUSH2 0x2C96 JUMPI PUSH1 0x0 DUP1 REVERT JUMPDEST POP JUMP JUMPDEST PUSH1 0x0 DUP2 MLOAD SWAP1 POP PUSH2 0x2CA8 DUP2 PUSH2 0x2C82 JUMP JUMPDEST SWAP3 SWAP2 POP POP JUMP JUMPDEST PUSH1 0x0 PUSH1 0x20 DUP3 DUP5 SUB SLT ISZERO PUSH2 0x2CC4 JUMPI PUSH2 0x2CC3 PUSH2 0x2308 JUMP JUMPDEST JUMPDEST PUSH1 0x0 PUSH2 0x2CD2 DUP5 DUP3 DUP6 ADD PUSH2 0x2C99 JUMP JUMPDEST SWAP2 POP POP SWAP3 SWAP2 POP POP JUMP JUMPDEST PUSH32 0x4F776E61626C653A2063616C6C6572206973206E6F7420746865206F776E6572 PUSH1 0x0 DUP3 ADD MSTORE POP JUMP JUMPDEST PUSH1 0x0 PUSH2 0x2D11 PUSH1 0x20 DUP4 PUSH2 0x2A4E JUMP JUMPDEST SWAP2 POP PUSH2 0x2D1C DUP3 PUSH2 0x2CDB JUMP JUMPDEST PUSH1 0x20 DUP3 ADD SWAP1 POP SWAP2 SWAP1 POP JUMP JUMPDEST PUSH1 0x0 PUSH1 0x20 DUP3 ADD SWAP1 POP DUP2 DUP2 SUB PUSH1 0x0 DUP4 ADD MSTORE PUSH2 0x2D40 DUP2 PUSH2 0x2D04 JUMP JUMPDEST SWAP1 POP SWAP2 SWAP1 POP JUMP JUMPDEST PUSH1 0x0 PUSH2 0x2D52 DUP3 PUSH2 0x2926 JUMP JUMPDEST SWAP1 POP SWAP2 SWAP1 POP JUMP JUMPDEST PUSH2 0x2D62 DUP2 PUSH2 0x2D47 JUMP JUMPDEST DUP3 MSTORE POP POP JUMP JUMPDEST PUSH1 0x0 PUSH1 0x40 DUP3 ADD SWAP1 POP PUSH2 0x2D7D PUSH1 0x0 DUP4 ADD DUP6 PUSH2 0x2D59 JUMP JUMPDEST PUSH2 0x2D8A PUSH1 0x20 DUP4 ADD DUP5 PUSH2 0x22D4 JUMP JUMPDEST SWAP4 SWAP3 POP POP POP JUMP JUMPDEST PUSH32 0x4F776E61626C653A206E6577206F776E657220697320746865207A65726F2061 PUSH1 0x0 DUP3 ADD MSTORE PUSH32 0x6464726573730000000000000000000000000000000000000000000000000000 PUSH1 0x20 DUP3 ADD MSTORE POP JUMP JUMPDEST PUSH1 0x0 PUSH2 0x2DED PUSH1 0x26 DUP4 PUSH2 0x2A4E JUMP JUMPDEST SWAP2 POP PUSH2 0x2DF8 DUP3 PUSH2 0x2D91 JUMP JUMPDEST PUSH1 0x40 DUP3 ADD SWAP1 POP SWAP2 SWAP1 POP JUMP JUMPDEST PUSH1 0x0 PUSH1 0x20 DUP3 ADD SWAP1 POP DUP2 DUP2 SUB PUSH1 0x0 DUP4 ADD MSTORE PUSH2 0x2E1C DUP2 PUSH2 0x2DE0 JUMP JUMPDEST SWAP1 POP SWAP2 SWAP1 POP JUMP JUMPDEST PUSH32 0x526F756E6420616C726561647920656E64656400000000000000000000000000 PUSH1 0x0 DUP3 ADD MSTORE POP JUMP JUMPDEST PUSH1 0x0 PUSH2 0x2E59 PUSH1 0x13 DUP4 PUSH2 0x2A4E JUMP JUMPDEST SWAP2 POP PUSH2 0x2E64 DUP3 PUSH2 0x2E23 JUMP JUMPDEST PUSH1 0x20 DUP3 ADD SWAP1 POP SWAP2 SWAP1 POP JUMP JUMPDEST PUSH1 0x0 PUSH1 0x20 DUP3 ADD SWAP1 POP DUP2 DUP2 SUB PUSH1 0x0 DUP4 ADD MSTORE PUSH2 0x2E88 DUP2 PUSH2 0x2E4C JUMP JUMPDEST SWAP1 POP SWAP2 SWAP1 POP JUMP JUMPDEST PUSH32 0x54686520726F756E64206E6F7420656E6474696D650000000000000000000000 PUSH1 0x0 DUP3 ADD MSTORE POP JUMP JUMPDEST PUSH1 0x0 PUSH2 0x2EC5 PUSH1 0x15 DUP4 PUSH2 0x2A4E JUMP JUMPDEST SWAP2 POP PUSH2 0x2ED0 DUP3 PUSH2 0x2E8F JUMP JUMPDEST PUSH1 0x20 DUP3 ADD SWAP1 POP SWAP2 SWAP1 POP JUMP JUMPDEST PUSH1 0x0 PUSH1 0x20 DUP3 ADD SWAP1 POP DUP2 DUP2 SUB PUSH1 0x0 DUP4 ADD MSTORE PUSH2 0x2EF4 DUP2 PUSH2 0x2EB8 JUMP JUMPDEST SWAP1 POP SWAP2 SWAP1 POP JUMP JUMPDEST PUSH32 0x526F756E6420696E2070726F6772657373000000000000000000000000000000 PUSH1 0x0 DUP3 ADD MSTORE POP JUMP JUMPDEST PUSH1 0x0 PUSH2 0x2F31 PUSH1 0x11 DUP4 PUSH2 0x2A4E JUMP JUMPDEST SWAP2 POP PUSH2 0x2F3C DUP3 PUSH2 0x2EFB JUMP JUMPDEST PUSH1 0x20 DUP3 ADD SWAP1 POP SWAP2 SWAP1 POP JUMP JUMPDEST PUSH1 0x0 PUSH1 0x20 DUP3 ADD SWAP1 POP DUP2 DUP2 SUB PUSH1 0x0 DUP4 ADD MSTORE PUSH2 0x2F60 DUP2 PUSH2 0x2F24 JUMP JUMPDEST SWAP1 POP SWAP2 SWAP1 POP JUMP JUMPDEST PUSH1 0x0 DUP2 SWAP1 POP SWAP2 SWAP1 POP JUMP JUMPDEST PUSH2 0x2F7A DUP2 PUSH2 0x2F67 JUMP JUMPDEST DUP3 MSTORE POP POP JUMP JUMPDEST PUSH1 0x0 PUSH1 0x40 DUP3 ADD SWAP1 POP PUSH2 0x2F95 PUSH1 0x0 DUP4 ADD DUP6 PUSH2 0x2F71 JUMP JUMPDEST PUSH2 0x2FA2 PUSH1 0x20 DUP4 ADD DUP5 PUSH2 0x22D4 JUMP JUMPDEST SWAP4 SWAP3 POP POP POP JUMP JUMPDEST PUSH32 0x4E487B7100000000000000000000000000000000000000000000000000000000 PUSH1 0x0 MSTORE PUSH1 0x12 PUSH1 0x4 MSTORE PUSH1 0x24 PUSH1 0x0 REVERT JUMPDEST PUSH1 0x0 PUSH2 0x2FE3 DUP3 PUSH2 0x22CA JUMP JUMPDEST SWAP2 POP PUSH2 0x2FEE DUP4 PUSH2 0x22CA JUMP JUMPDEST SWAP3 POP DUP3 PUSH2 0x2FFE JUMPI PUSH2 0x2FFD PUSH2 0x2FA9 JUMP JUMPDEST JUMPDEST DUP3 DUP3 MOD SWAP1 POP SWAP3 SWAP2 POP POP JUMP INVALID LOG2 PUSH5 0x6970667358 0x22 SLT KECCAK256 0x1F DIFFICULTY ADDMOD 0xB2 PUSH5 0x60B51CB5A 0x4A CALLDATASIZE 0xCF 0xD5 MOD 0x21 SWAP16 NUMBER 0xE0 SWAP12 0xA9 DUP2 0xB5 0xA6 GAS SWAP12 NUMBER 0xAA COINBASE GASPRICE EXTCODESIZE 0xB7 PUSH5 0x736F6C6343 STOP ADDMOD GT STOP CALLER "
		},
		"gasEstimates": {
			"creation": {
				"codeDepositCost": "2470200",
				"executionCost": "infinite",
				"totalCost": "infinite"
			},
			"external": {
				"MAX_NUMBER()": "461",
				"MIN_NUMBER()": "373",
				"Stop()": "infinite",
				"TICKET_PRICE()": "2453",
				"TICKET_TOKEN_PRICE()": "2452",
				"buy(uint256[6])": "infinite",
				"changeInterval(uint256)": "24827",
				"changePrice(uint256)": "24849",
				"claim(uint256)": "infinite",
				"currentBlock()": "2495",
				"getContractBalance()": "428",
				"getMyTicket(uint256)": "infinite",
				"getWinNumbers(uint256)": "infinite",
				"nextRound()": "infinite",
				"owner()": "2589",
				"renounceOwnership()": "30485",
				"round_interval()": "2562",
				"rounds(uint256)": "infinite",
				"tickets(uint256)": "infinite",
				"token()": "infinite",
				"tokenBuy(uint256[6])": "infinite",
				"tokenWithdraw(address)": "infinite",
				"transferOwnership(address)": "30808"
			},
			"internal": {
				"closeRound()": "infinite",
				"createRound()": "infinite",
				"drawNumbers()": "infinite"
			}
		},
		"methodIdentifiers": {
			"MAX_NUMBER()": "fea9b572",
			"MIN_NUMBER()": "dd8ab8f9",
			"Stop()": "bedf0f4a",
			"TICKET_PRICE()": "1a95f15f",
			"TICKET_TOKEN_PRICE()": "49c4e5b8",
			"buy(uint256[6])": "a8bd5634",
			"changeInterval(uint256)": "63c75607",
			"changePrice(uint256)": "a2b40d19",
			"claim(uint256)": "379607f5",
			"currentBlock()": "e12ed13c",
			"getContractBalance()": "6f9fb98a",
			"getMyTicket(uint256)": "44352d0a",
			"getWinNumbers(uint256)": "8cd85dc2",
			"nextRound()": "47e40553",
			"owner()": "8da5cb5b",
			"renounceOwnership()": "715018a6",
			"round_interval()": "7157c113",
			"rounds(uint256)": "8c65c81f",
			"tickets(uint256)": "50b44712",
			"token()": "fc0c546a",
			"tokenBuy(uint256[6])": "46583a26",
			"tokenWithdraw(address)": "b5558562",
			"transferOwnership(address)": "f2fde38b"
		}
	},
	"abi": [
		{
			"inputs": [
				{
					"internalType": "address",
					"name": "_token",
					"type": "address"
				},
				{
					"internalType": "uint256",
					"name": "_round_interval",
					"type": "uint256"
				},
				{
					"internalType": "uint256",
					"name": "_ticket_price",
					"type": "uint256"
				},
				{
					"internalType": "uint256",
					"name": "_ticket_token_price",
					"type": "uint256"
				}
			],
			"stateMutability": "nonpayable",
			"type": "constructor"
		},
		{
			"anonymous": false,
			"inputs": [
				{
					"indexed": true,
					"internalType": "address",
					"name": "previousOwner",
					"type": "address"
				},
				{
					"indexed": true,
					"internalType": "address",
					"name": "newOwner",
					"type": "address"
				}
			],
			"name": "OwnershipTransferred",
			"type": "event"
		},
		{
			"inputs": [],
			"name": "MAX_NUMBER",
			"outputs": [
				{
					"internalType": "uint256",
					"name": "",
					"type": "uint256"
				}
			],
			"stateMutability": "view",
			"type": "function"
		},
		{
			"inputs": [],
			"name": "MIN_NUMBER",
			"outputs": [
				{
					"internalType": "uint256",
					"name": "",
					"type": "uint256"
				}
			],
			"stateMutability": "view",
			"type": "function"
		},
		{
			"inputs": [],
			"name": "Stop",
			"outputs": [],
			"stateMutability": "nonpayable",
			"type": "function"
		},
		{
			"inputs": [],
			"name": "TICKET_PRICE",
			"outputs": [
				{
					"internalType": "uint256",
					"name": "",
					"type": "uint256"
				}
			],
			"stateMutability": "view",
			"type": "function"
		},
		{
			"inputs": [],
			"name": "TICKET_TOKEN_PRICE",
			"outputs": [
				{
					"internalType": "uint256",
					"name": "",
					"type": "uint256"
				}
			],
			"stateMutability": "view",
			"type": "function"
		},
		{
			"inputs": [
				{
					"internalType": "uint256[6]",
					"name": "numbers",
					"type": "uint256[6]"
				}
			],
			"name": "buy",
			"outputs": [],
			"stateMutability": "payable",
			"type": "function"
		},
		{
			"inputs": [
				{
					"internalType": "uint256",
					"name": "_interval",
					"type": "uint256"
				}
			],
			"name": "changeInterval",
			"outputs": [],
			"stateMutability": "nonpayable",
			"type": "function"
		},
		{
			"inputs": [
				{
					"internalType": "uint256",
					"name": "_price",
					"type": "uint256"
				}
			],
			"name": "changePrice",
			"outputs": [],
			"stateMutability": "nonpayable",
			"type": "function"
		},
		{
			"inputs": [
				{
					"internalType": "uint256",
					"name": "number",
					"type": "uint256"
				}
			],
			"name": "claim",
			"outputs": [],
			"stateMutability": "nonpayable",
			"type": "function"
		},
		{
			"inputs": [],
			"name": "currentBlock",
			"outputs": [
				{
					"internalType": "uint256",
					"name": "",
					"type": "uint256"
				}
			],
			"stateMutability": "view",
			"type": "function"
		},
		{
			"inputs": [],
			"name": "getContractBalance",
			"outputs": [
				{
					"internalType": "uint256",
					"name": "",
					"type": "uint256"
				}
			],
			"stateMutability": "view",
			"type": "function"
		},
		{
			"inputs": [
				{
					"internalType": "uint256",
					"name": "_round",
					"type": "uint256"
				}
			],
			"name": "getMyTicket",
			"outputs": [
				{
					"internalType": "uint256[6][]",
					"name": "",
					"type": "uint256[6][]"
				}
			],
			"stateMutability": "view",
			"type": "function"
		},
		{
			"inputs": [
				{
					"internalType": "uint256",
					"name": "_round",
					"type": "uint256"
				}
			],
			"name": "getWinNumbers",
			"outputs": [
				{
					"internalType": "uint256[7]",
					"name": "",
					"type": "uint256[7]"
				}
			],
			"stateMutability": "view",
			"type": "function"
		},
		{
			"inputs": [],
			"name": "nextRound",
			"outputs": [],
			"stateMutability": "nonpayable",
			"type": "function"
		},
		{
			"inputs": [],
			"name": "owner",
			"outputs": [
				{
					"internalType": "address",
					"name": "",
					"type": "address"
				}
			],
			"stateMutability": "view",
			"type": "function"
		},
		{
			"inputs": [],
			"name": "renounceOwnership",
			"outputs": [],
			"stateMutability": "nonpayable",
			"type": "function"
		},
		{
			"inputs": [],
			"name": "round_interval",
			"outputs": [
				{
					"internalType": "uint256",
					"name": "",
					"type": "uint256"
				}
			],
			"stateMutability": "view",
			"type": "function"
		},
		{
			"inputs": [
				{
					"internalType": "uint256",
					"name": "",
					"type": "uint256"
				}
			],
			"name": "rounds",
			"outputs": [
				{
					"internalType": "uint256",
					"name": "startTime",
					"type": "uint256"
				},
				{
					"internalType": "uint256",
					"name": "endTime",
					"type": "uint256"
				},
				{
					"internalType": "enum Lottery.RoundStatus",
					"name": "status",
					"type": "uint8"
				},
				{
					"internalType": "uint256",
					"name": "totalQuantity",
					"type": "uint256"
				}
			],
			"stateMutability": "view",
			"type": "function"
		},
		{
			"inputs": [
				{
					"internalType": "uint256",
					"name": "",
					"type": "uint256"
				}
			],
			"name": "tickets",
			"outputs": [
				{
					"internalType": "address",
					"name": "owner",
					"type": "address"
				},
				{
					"internalType": "uint256",
					"name": "round",
					"type": "uint256"
				}
			],
			"stateMutability": "view",
			"type": "function"
		},
		{
			"inputs": [],
			"name": "token",
			"outputs": [
				{
					"internalType": "contract IKIP7",
					"name": "",
					"type": "address"
				}
			],
			"stateMutability": "view",
			"type": "function"
		},
		{
			"inputs": [
				{
					"internalType": "uint256[6]",
					"name": "numbers",
					"type": "uint256[6]"
				}
			],
			"name": "tokenBuy",
			"outputs": [],
			"stateMutability": "nonpayable",
			"type": "function"
		},
		{
			"inputs": [
				{
					"internalType": "address payable",
					"name": "toAdress",
					"type": "address"
				}
			],
			"name": "tokenWithdraw",
			"outputs": [],
			"stateMutability": "nonpayable",
			"type": "function"
		},
		{
			"inputs": [
				{
					"internalType": "address",
					"name": "newOwner",
					"type": "address"
				}
			],
			"name": "transferOwnership",
			"outputs": [],
			"stateMutability": "nonpayable",
			"type": "function"
		}
	]
}