{
	"data": {
		"bytecode": {
			"linkReferences": {},
			"object": "6080604052662386f26fc1000060075562015180620000236200011460201b60201c565b600a62000031919062000385565b6121c0620000409190620003d6565b6200004c919062000450565b6008553480156200005c57600080fd5b5060405162003f6438038062003f64833981810160405281019062000082919062000680565b818181600390816200009591906200095b565b508060049081620000a791906200095b565b505050620000ca620000be6200011d60201b60201c565b6200012560201b60201c565b82600660006101000a81548173ffffffffffffffffffffffffffffffffffffffff021916908373ffffffffffffffffffffffffffffffffffffffff16021790555050505062000a42565b60006012905090565b600033905090565b6000600560009054906101000a900473ffffffffffffffffffffffffffffffffffffffff16905081600560006101000a81548173ffffffffffffffffffffffffffffffffffffffff021916908373ffffffffffffffffffffffffffffffffffffffff1602179055508173ffffffffffffffffffffffffffffffffffffffff168173ffffffffffffffffffffffffffffffffffffffff167f8be0079c531659141344cd1fd0a4f28419497f9722a3daafe3b4186f6b6457e060405160405180910390a35050565b7f4e487b7100000000000000000000000000000000000000000000000000000000600052601160045260246000fd5b60008160011c9050919050565b6000808291508390505b60018511156200027957808604811115620002515762000250620001eb565b5b6001851615620002615780820291505b808102905062000271856200021a565b945062000231565b94509492505050565b60008262000294576001905062000367565b81620002a4576000905062000367565b8160018114620002bd5760028114620002c857620002fe565b600191505062000367565b60ff841115620002dd57620002dc620001eb565b5b8360020a915084821115620002f757620002f6620001eb565b5b5062000367565b5060208310610133831016604e8410600b8410161715620003385782820a905083811115620003325762000331620001eb565b5b62000367565b62000347848484600162000227565b92509050818404811115620003615762000360620001eb565b5b81810290505b9392505050565b6000819050919050565b600060ff82169050919050565b600062000392826200036e565b91506200039f8362000378565b9250620003ce7fffffffffffffffffffffffffffffffffffffffffffffffffffffffffffffffff848462000282565b905092915050565b6000620003e3826200036e565b9150620003f0836200036e565b925082820262000400816200036e565b915082820484148315176200041a5762000419620001eb565b5b5092915050565b7f4e487b7100000000000000000000000000000000000000000000000000000000600052601260045260246000fd5b60006200045d826200036e565b91506200046a836200036e565b9250826200047d576200047c62000421565b5b828204905092915050565b6000604051905090565b600080fd5b600080fd5b600073ffffffffffffffffffffffffffffffffffffffff82169050919050565b6000620004c9826200049c565b9050919050565b620004db81620004bc565b8114620004e757600080fd5b50565b600081519050620004fb81620004d0565b92915050565b600080fd5b600080fd5b6000601f19601f8301169050919050565b7f4e487b7100000000000000000000000000000000000000000000000000000000600052604160045260246000fd5b62000556826200050b565b810181811067ffffffffffffffff821117156200057857620005776200051c565b5b80604052505050565b60006200058d62000488565b90506200059b82826200054b565b919050565b600067ffffffffffffffff821115620005be57620005bd6200051c565b5b620005c9826200050b565b9050602081019050919050565b60005b83811015620005f6578082015181840152602081019050620005d9565b60008484015250505050565b6000620006196200061384620005a0565b62000581565b90508281526020810184848401111562000638576200063762000506565b5b62000645848285620005d6565b509392505050565b600082601f83011262000665576200066462000501565b5b81516200067784826020860162000602565b91505092915050565b6000806000606084860312156200069c576200069b62000492565b5b6000620006ac86828701620004ea565b935050602084015167ffffffffffffffff811115620006d057620006cf62000497565b5b620006de868287016200064d565b925050604084015167ffffffffffffffff81111562000702576200070162000497565b5b62000710868287016200064d565b9150509250925092565b600081519050919050565b7f4e487b7100000000000000000000000000000000000000000000000000000000600052602260045260246000fd5b600060028204905060018216806200076d57607f821691505b60208210810362000783576200078262000725565b5b50919050565b60008190508160005260206000209050919050565b60006020601f8301049050919050565b600082821b905092915050565b600060088302620007ed7fffffffffffffffffffffffffffffffffffffffffffffffffffffffffffffffff82620007ae565b620007f98683620007ae565b95508019841693508086168417925050509392505050565b6000819050919050565b60006200083c6200083662000830846200036e565b62000811565b6200036e565b9050919050565b6000819050919050565b62000858836200081b565b62000870620008678262000843565b848454620007bb565b825550505050565b600090565b6200088762000878565b620008948184846200084d565b505050565b5b81811015620008bc57620008b06000826200087d565b6001810190506200089a565b5050565b601f8211156200090b57620008d58162000789565b620008e0846200079e565b81016020851015620008f0578190505b62000908620008ff856200079e565b83018262000899565b50505b505050565b600082821c905092915050565b6000620009306000198460080262000910565b1980831691505092915050565b60006200094b83836200091d565b9150826002028217905092915050565b62000966826200071a565b67ffffffffffffffff8111156200098257620009816200051c565b5b6200098e825462000754565b6200099b828285620008c0565b600060209050601f831160018114620009d35760008415620009be578287015190505b620009ca85826200093d565b86555062000a3a565b601f198416620009e38662000789565b60005b8281101562000a0d57848901518255600182019150602085019450602081019050620009e6565b8683101562000a2d578489015162000a29601f8916826200091d565b8355505b6001600288020188555050505b505050505050565b6135128062000a526000396000f3fe608060405234801561001057600080fd5b50600436106101cf5760003560e01c80636745782b11610104578063a457c2d7116100a2578063d5abeb0111610071578063d5abeb0114610557578063dd62ed3e14610575578063eb795549146105a5578063f2fde38b146105c1576101cf565b8063a457c2d7146104bf578063a694fc3a146104ef578063a9059cbb1461050b578063b88d4fde1461053b576101cf565b8063715018a6116100de578063715018a6146104485780638da5cb5b146104525780639168ae721461047057806395d89b41146104a1576101cf565b80636745782b146103b85780636b325555146103e857806370a0823114610418576101cf565b8063313ce5671161017157806342842e0e1161014b57806342842e0e1461034457806347ccca02146103605780634e71d92d1461037e57806363c28db114610388576101cf565b8063313ce567146102da57806339509351146102f8578063423f6cef14610328576101cf565b80631caaa487116101ad5780631caaa4871461024057806323b872dd146102705780632c4e722e146102a05780632e17de78146102be576101cf565b806306fdde03146101d4578063095ea7b3146101f257806318160ddd14610222575b600080fd5b6101dc6105dd565b6040516101e99190612284565b60405180910390f35b61020c6004803603810190610207919061234e565b61066f565b60405161021991906123a9565b60405180910390f35b61022a610692565b60405161023791906123d3565b60405180910390f35b61025a600480360381019061025591906123ee565b61069c565b604051610267919061242a565b60405180910390f35b61028a60048036038101906102859190612445565b6106cf565b60405161029791906123a9565b60405180910390f35b6102a86106fe565b6040516102b591906123d3565b60405180910390f35b6102d860048036038101906102d391906123ee565b610704565b005b6102e2610b24565b6040516102ef91906124b4565b60405180910390f35b610312600480360381019061030d919061234e565b610b2d565b60405161031f91906123a9565b60405180910390f35b610342600480360381019061033d919061234e565b610b64565b005b61035e60048036038101906103599190612445565b610b90565b005b610368610bc8565b604051610375919061252e565b60405180910390f35b610386610bee565b005b6103a2600480360381019061039d9190612549565b610c92565b6040516103af9190612672565b60405180910390f35b6103d260048036038101906103cd91906127c9565b610ff8565b6040516103df9190612887565b60405180910390f35b61040260048036038101906103fd9190612549565b61100c565b60405161040f91906123d3565b60405180910390f35b610432600480360381019061042d9190612549565b6110c2565b60405161043f91906123d3565b60405180910390f35b61045061110a565b005b61045a611192565b604051610467919061242a565b60405180910390f35b61048a60048036038101906104859190612549565b6111bc565b6040516104989291906128a2565b60405180910390f35b6104a96111e0565b6040516104b69190612284565b60405180910390f35b6104d960048036038101906104d4919061234e565b611272565b6040516104e691906123a9565b60405180910390f35b610509600480360381019061050491906123ee565b6112e9565b005b6105256004803603810190610520919061234e565b6116c4565b60405161053291906123a9565b60405180910390f35b610555600480360381019061055091906127c9565b6116e7565b005b61055f611711565b60405161056c91906123d3565b60405180910390f35b61058f600480360381019061058a91906128cb565b611717565b60405161059c91906123d3565b60405180910390f35b6105bf60048036038101906105ba919061290b565b61179e565b005b6105db60048036038101906105d69190612549565b6117bc565b005b6060600380546105ec906129a9565b80601f0160208091040260200160405190810160405280929190818152602001828054610618906129a9565b80156106655780601f1061063a57610100808354040283529160200191610665565b820191906000526020600020905b81548152906001019060200180831161064857829003601f168201915b5050505050905090565b60008061067a6118b3565b90506106878185856118bb565b600191505092915050565b6000600254905090565b60096020528060005260406000206000915054906101000a900473ffffffffffffffffffffffffffffffffffffffff1681565b6000806106da6118b3565b90506106e7858285611a84565b6106f2858585611b10565b60019150509392505050565b60085481565b6000600a60003373ffffffffffffffffffffffffffffffffffffffff1673ffffffffffffffffffffffffffffffffffffffff1681526020019081526020016000206000015411610789576040517f08c379a000000000000000000000000000000000000000000000000000000000815260040161078090612a26565b60405180910390fd5b3373ffffffffffffffffffffffffffffffffffffffff166009600083815260200190815260200160002060009054906101000a900473ffffffffffffffffffffffffffffffffffffffff1673ffffffffffffffffffffffffffffffffffffffff161461082a576040517f08c379a000000000000000000000000000000000000000000000000000000000815260040161082190612a92565b60405180910390fd5b61083c336108373361100c565b611d8f565b6000805b600a60003373ffffffffffffffffffffffffffffffffffffffff1673ffffffffffffffffffffffffffffffffffffffff168152602001908152602001600020600101805490508110156109145782600a60003373ffffffffffffffffffffffffffffffffffffffff1673ffffffffffffffffffffffffffffffffffffffff16815260200190815260200160002060010182815481106108e2576108e1612ab2565b5b9060005260206000209060020201600101540361090157809150610914565b808061090c90612b10565b915050610840565b506000600a60003373ffffffffffffffffffffffffffffffffffffffff1673ffffffffffffffffffffffffffffffffffffffff168152602001908152602001600020600101828154811061096b5761096a612ab2565b5b906000526020600020906002020160000160006101000a81548173ffffffffffffffffffffffffffffffffffffffff021916908373ffffffffffffffffffffffffffffffffffffffff160217905550600a60003373ffffffffffffffffffffffffffffffffffffffff1673ffffffffffffffffffffffffffffffffffffffff1681526020019081526020016000206000016000815480929190610a0d90612b58565b91905055506009600083815260200190815260200160002060006101000a81549073ffffffffffffffffffffffffffffffffffffffff0219169055600660009054906101000a900473ffffffffffffffffffffffffffffffffffffffff1673ffffffffffffffffffffffffffffffffffffffff166323b872dd3033856040518463ffffffff1660e01b8152600401610aa793929190612b81565b600060405180830381600087803b158015610ac157600080fd5b505af1158015610ad5573d6000803e3d6000fd5b5050505042600a60003373ffffffffffffffffffffffffffffffffffffffff1673ffffffffffffffffffffffffffffffffffffffff168152602001908152602001600020600201819055505050565b60006012905090565b600080610b386118b3565b9050610b59818585610b4a8589611717565b610b549190612bb8565b6118bb565b600191505092915050565b6000610b6e6118b3565b9050610b8b81848460405180602001604052806000815250611eee565b505050565b6000610b9a6118b3565b9050610ba7848284611a84565b610bc284848460405180602001604052806000815250611eee565b50505050565b600660009054906101000a900473ffffffffffffffffffffffffffffffffffffffff1681565b6000610bf93361100c565b905060008111610c3e576040517f08c379a0000000000000000000000000000000000000000000000000000000008152600401610c3590612c38565b60405180910390fd5b42600a60003373ffffffffffffffffffffffffffffffffffffffff1673ffffffffffffffffffffffffffffffffffffffff16815260200190815260200160002060020181905550610c8f3382611d8f565b50565b60606000600a60008473ffffffffffffffffffffffffffffffffffffffff1673ffffffffffffffffffffffffffffffffffffffff168152602001908152602001600020600001541115610f9b576000600a60008473ffffffffffffffffffffffffffffffffffffffff1673ffffffffffffffffffffffffffffffffffffffff1681526020019081526020016000206000015467ffffffffffffffff811115610d3d57610d3c61269e565b5b604051908082528060200260200182016040528015610d7657816020015b610d636121c4565b815260200190600190039081610d5b5790505b5090506000805b600a60008673ffffffffffffffffffffffffffffffffffffffff1673ffffffffffffffffffffffffffffffffffffffff16815260200190815260200160002060010180549050811015610f9057600073ffffffffffffffffffffffffffffffffffffffff16600a60008773ffffffffffffffffffffffffffffffffffffffff1673ffffffffffffffffffffffffffffffffffffffff1681526020019081526020016000206001018281548110610e3657610e35612ab2565b5b906000526020600020906002020160000160009054906101000a900473ffffffffffffffffffffffffffffffffffffffff1673ffffffffffffffffffffffffffffffffffffffff1614610f7d57600a60008673ffffffffffffffffffffffffffffffffffffffff1673ffffffffffffffffffffffffffffffffffffffff1681526020019081526020016000206001018181548110610ed757610ed6612ab2565b5b90600052602060002090600202016040518060400160405290816000820160009054906101000a900473ffffffffffffffffffffffffffffffffffffffff1673ffffffffffffffffffffffffffffffffffffffff1673ffffffffffffffffffffffffffffffffffffffff168152602001600182015481525050838381518110610f6357610f62612ab2565b5b60200260200101819052508180610f7990612b10565b9250505b8080610f8890612b10565b915050610d7d565b508192505050610ff3565b600067ffffffffffffffff811115610fb657610fb561269e565b5b604051908082528060200260200182016040528015610fef57816020015b610fdc6121c4565b815260200190600190039081610fd45790505b5090505b919050565b6000636745782b60e01b9050949350505050565b600080600a60008473ffffffffffffffffffffffffffffffffffffffff1673ffffffffffffffffffffffffffffffffffffffff16815260200190815260200160002060000154600a60008573ffffffffffffffffffffffffffffffffffffffff1673ffffffffffffffffffffffffffffffffffffffff16815260200190815260200160002060020154426110a09190612c58565b6110aa9190612c8c565b9050600854816110ba9190612c8c565b915050919050565b60008060008373ffffffffffffffffffffffffffffffffffffffff1673ffffffffffffffffffffffffffffffffffffffff168152602001908152602001600020549050919050565b6111126118b3565b73ffffffffffffffffffffffffffffffffffffffff16611130611192565b73ffffffffffffffffffffffffffffffffffffffff1614611186576040517f08c379a000000000000000000000000000000000000000000000000000000000815260040161117d90612d1a565b60405180910390fd5b6111906000611f4a565b565b6000600560009054906101000a900473ffffffffffffffffffffffffffffffffffffffff16905090565b600a6020528060005260406000206000915090508060000154908060020154905082565b6060600480546111ef906129a9565b80601f016020809104026020016040519081016040528092919081815260200182805461121b906129a9565b80156112685780601f1061123d57610100808354040283529160200191611268565b820191906000526020600020905b81548152906001019060200180831161124b57829003601f168201915b5050505050905090565b60008061127d6118b3565b9050600061128b8286611717565b9050838110156112d0576040517f08c379a00000000000000000000000000000000000000000000000000000000081526004016112c790612dac565b60405180910390fd5b6112dd82868684036118bb565b60019250505092915050565b3373ffffffffffffffffffffffffffffffffffffffff16600660009054906101000a900473ffffffffffffffffffffffffffffffffffffffff1673ffffffffffffffffffffffffffffffffffffffff16636352211e836040518263ffffffff1660e01b815260040161135b91906123d3565b602060405180830381865afa158015611378573d6000803e3d6000fd5b505050506040513d601f19601f8201168201806040525081019061139c9190612de1565b73ffffffffffffffffffffffffffffffffffffffff16146113f2576040517f08c379a00000000000000000000000000000000000000000000000000000000081526004016113e990612e5a565b60405180910390fd5b6000600a60003373ffffffffffffffffffffffffffffffffffffffff1673ffffffffffffffffffffffffffffffffffffffff1681526020019081526020016000206000015411156114505761144f3361144a3361100c565b611d8f565b5b600660009054906101000a900473ffffffffffffffffffffffffffffffffffffffff1673ffffffffffffffffffffffffffffffffffffffff166342842e0e3330846040518463ffffffff1660e01b81526004016114af93929190612b81565b600060405180830381600087803b1580156114c957600080fd5b505af11580156114dd573d6000803e3d6000fd5b50505050600060405180604001604052803373ffffffffffffffffffffffffffffffffffffffff168152602001838152509050600a60003373ffffffffffffffffffffffffffffffffffffffff1673ffffffffffffffffffffffffffffffffffffffff16815260200190815260200160002060010181908060018154018082558091505060019003906000526020600020906002020160009091909190915060008201518160000160006101000a81548173ffffffffffffffffffffffffffffffffffffffff021916908373ffffffffffffffffffffffffffffffffffffffff160217905550602082015181600101555050600a60003373ffffffffffffffffffffffffffffffffffffffff1673ffffffffffffffffffffffffffffffffffffffff168152602001908152602001600020600001600081548092919061162290612b10565b919050555042600a60003373ffffffffffffffffffffffffffffffffffffffff1673ffffffffffffffffffffffffffffffffffffffff16815260200190815260200160002060020181905550336009600084815260200190815260200160002060006101000a81548173ffffffffffffffffffffffffffffffffffffffff021916908373ffffffffffffffffffffffffffffffffffffffff1602179055505050565b6000806116cf6118b3565b90506116dc818585611b10565b600191505092915050565b60006116f16118b3565b90506116fe858285611a84565b61170a85858585611eee565b5050505050565b60075481565b6000600160008473ffffffffffffffffffffffffffffffffffffffff1673ffffffffffffffffffffffffffffffffffffffff16815260200190815260200160002060008373ffffffffffffffffffffffffffffffffffffffff1673ffffffffffffffffffffffffffffffffffffffff16815260200190815260200160002054905092915050565b60006117a86118b3565b90506117b681858585611eee565b50505050565b6117c46118b3565b73ffffffffffffffffffffffffffffffffffffffff166117e2611192565b73ffffffffffffffffffffffffffffffffffffffff1614611838576040517f08c379a000000000000000000000000000000000000000000000000000000000815260040161182f90612d1a565b60405180910390fd5b600073ffffffffffffffffffffffffffffffffffffffff168173ffffffffffffffffffffffffffffffffffffffff16036118a7576040517f08c379a000000000000000000000000000000000000000000000000000000000815260040161189e90612eec565b60405180910390fd5b6118b081611f4a565b50565b600033905090565b600073ffffffffffffffffffffffffffffffffffffffff168373ffffffffffffffffffffffffffffffffffffffff160361192a576040517f08c379a000000000000000000000000000000000000000000000000000000000815260040161192190612f7e565b60405180910390fd5b600073ffffffffffffffffffffffffffffffffffffffff168273ffffffffffffffffffffffffffffffffffffffff1603611999576040517f08c379a000000000000000000000000000000000000000000000000000000000815260040161199090613010565b60405180910390fd5b80600160008573ffffffffffffffffffffffffffffffffffffffff1673ffffffffffffffffffffffffffffffffffffffff16815260200190815260200160002060008473ffffffffffffffffffffffffffffffffffffffff1673ffffffffffffffffffffffffffffffffffffffff168152602001908152602001600020819055508173ffffffffffffffffffffffffffffffffffffffff168373ffffffffffffffffffffffffffffffffffffffff167f8c5be1e5ebec7d5bd14f71427d1e84f3dd0314c0f7b2291e5b200ac8c7c3b92583604051611a7791906123d3565b60405180910390a3505050565b6000611a908484611717565b90507fffffffffffffffffffffffffffffffffffffffffffffffffffffffffffffffff8114611b0a5781811015611afc576040517f08c379a0000000000000000000000000000000000000000000000000000000008152600401611af39061307c565b60405180910390fd5b611b0984848484036118bb565b5b50505050565b600073ffffffffffffffffffffffffffffffffffffffff168373ffffffffffffffffffffffffffffffffffffffff1603611b7f576040517f08c379a0000000000000000000000000000000000000000000000000000000008152600401611b769061310e565b60405180910390fd5b600073ffffffffffffffffffffffffffffffffffffffff168273ffffffffffffffffffffffffffffffffffffffff1603611bee576040517f08c379a0000000000000000000000000000000000000000000000000000000008152600401611be5906131a0565b60405180910390fd5b611bf9838383612010565b60008060008573ffffffffffffffffffffffffffffffffffffffff1673ffffffffffffffffffffffffffffffffffffffff16815260200190815260200160002054905081811015611c7f576040517f08c379a0000000000000000000000000000000000000000000000000000000008152600401611c7690613232565b60405180910390fd5b8181036000808673ffffffffffffffffffffffffffffffffffffffff1673ffffffffffffffffffffffffffffffffffffffff16815260200190815260200160002081905550816000808573ffffffffffffffffffffffffffffffffffffffff1673ffffffffffffffffffffffffffffffffffffffff1681526020019081526020016000206000828254611d129190612bb8565b925050819055508273ffffffffffffffffffffffffffffffffffffffff168473ffffffffffffffffffffffffffffffffffffffff167fddf252ad1be2c89b69c2b068fc378daa952ba7f163c4a11628f55a4df523b3ef84604051611d7691906123d3565b60405180910390a3611d89848484612015565b50505050565b600073ffffffffffffffffffffffffffffffffffffffff168273ffffffffffffffffffffffffffffffffffffffff1603611dfe576040517f08c379a0000000000000000000000000000000000000000000000000000000008152600401611df59061329e565b60405180910390fd5b611e0a60008383612010565b8060026000828254611e1c9190612bb8565b92505081905550806000808473ffffffffffffffffffffffffffffffffffffffff1673ffffffffffffffffffffffffffffffffffffffff1681526020019081526020016000206000828254611e719190612bb8565b925050819055508173ffffffffffffffffffffffffffffffffffffffff16600073ffffffffffffffffffffffffffffffffffffffff167fddf252ad1be2c89b69c2b068fc378daa952ba7f163c4a11628f55a4df523b3ef83604051611ed691906123d3565b60405180910390a3611eea60008383612015565b5050565b611ef9848484611b10565b611f058484848461201a565b611f44576040517f08c379a0000000000000000000000000000000000000000000000000000000008152600401611f3b90613330565b60405180910390fd5b50505050565b6000600560009054906101000a900473ffffffffffffffffffffffffffffffffffffffff16905081600560006101000a81548173ffffffffffffffffffffffffffffffffffffffff021916908373ffffffffffffffffffffffffffffffffffffffff1602179055508173ffffffffffffffffffffffffffffffffffffffff168173ffffffffffffffffffffffffffffffffffffffff167f8be0079c531659141344cd1fd0a4f28419497f9722a3daafe3b4186f6b6457e060405160405180910390a35050565b505050565b505050565b600061203b8473ffffffffffffffffffffffffffffffffffffffff166121a1565b15612194578373ffffffffffffffffffffffffffffffffffffffff16639d188c226120646118b3565b8786866040518563ffffffff1660e01b815260040161208694939291906133a5565b6020604051808303816000875af19250505080156120c257506040513d601f19601f820116820180604052508101906120bf919061341d565b60015b612144573d80600081146120f2576040519150601f19603f3d011682016040523d82523d6000602084013e6120f7565b606091505b50600081510361213c576040517f08c379a0000000000000000000000000000000000000000000000000000000008152600401612133906134bc565b60405180910390fd5b805181602001fd5b639d188c2260e01b7bffffffffffffffffffffffffffffffffffffffffffffffffffffffff1916817bffffffffffffffffffffffffffffffffffffffffffffffffffffffff191614915050612199565b600190505b949350505050565b6000808273ffffffffffffffffffffffffffffffffffffffff163b119050919050565b6040518060400160405280600073ffffffffffffffffffffffffffffffffffffffff168152602001600081525090565b600081519050919050565b600082825260208201905092915050565b60005b8381101561222e578082015181840152602081019050612213565b60008484015250505050565b6000601f19601f8301169050919050565b6000612256826121f4565b61226081856121ff565b9350612270818560208601612210565b6122798161223a565b840191505092915050565b6000602082019050818103600083015261229e818461224b565b905092915050565b6000604051905090565b600080fd5b600080fd5b600073ffffffffffffffffffffffffffffffffffffffff82169050919050565b60006122e5826122ba565b9050919050565b6122f5816122da565b811461230057600080fd5b50565b600081359050612312816122ec565b92915050565b6000819050919050565b61232b81612318565b811461233657600080fd5b50565b60008135905061234881612322565b92915050565b60008060408385031215612365576123646122b0565b5b600061237385828601612303565b925050602061238485828601612339565b9150509250929050565b60008115159050919050565b6123a38161238e565b82525050565b60006020820190506123be600083018461239a565b92915050565b6123cd81612318565b82525050565b60006020820190506123e860008301846123c4565b92915050565b600060208284031215612404576124036122b0565b5b600061241284828501612339565b91505092915050565b612424816122da565b82525050565b600060208201905061243f600083018461241b565b92915050565b60008060006060848603121561245e5761245d6122b0565b5b600061246c86828701612303565b935050602061247d86828701612303565b925050604061248e86828701612339565b9150509250925092565b600060ff82169050919050565b6124ae81612498565b82525050565b60006020820190506124c960008301846124a5565b92915050565b6000819050919050565b60006124f46124ef6124ea846122ba565b6124cf565b6122ba565b9050919050565b6000612506826124d9565b9050919050565b6000612518826124fb565b9050919050565b6125288161250d565b82525050565b6000602082019050612543600083018461251f565b92915050565b60006020828403121561255f5761255e6122b0565b5b600061256d84828501612303565b91505092915050565b600081519050919050565b600082825260208201905092915050565b6000819050602082019050919050565b6125ab816122da565b82525050565b6125ba81612318565b82525050565b6040820160008201516125d660008501826125a2565b5060208201516125e960208501826125b1565b50505050565b60006125fb83836125c0565b60408301905092915050565b6000602082019050919050565b600061261f82612576565b6126298185612581565b935061263483612592565b8060005b8381101561266557815161264c88826125ef565b975061265783612607565b925050600181019050612638565b5085935050505092915050565b6000602082019050818103600083015261268c8184612614565b905092915050565b600080fd5b600080fd5b7f4e487b7100000000000000000000000000000000000000000000000000000000600052604160045260246000fd5b6126d68261223a565b810181811067ffffffffffffffff821117156126f5576126f461269e565b5b80604052505050565b60006127086122a6565b905061271482826126cd565b919050565b600067ffffffffffffffff8211156127345761273361269e565b5b61273d8261223a565b9050602081019050919050565b82818337600083830152505050565b600061276c61276784612719565b6126fe565b90508281526020810184848401111561278857612787612699565b5b61279384828561274a565b509392505050565b600082601f8301126127b0576127af612694565b5b81356127c0848260208601612759565b91505092915050565b600080600080608085870312156127e3576127e26122b0565b5b60006127f187828801612303565b945050602061280287828801612303565b935050604061281387828801612339565b925050606085013567ffffffffffffffff811115612834576128336122b5565b5b6128408782880161279b565b91505092959194509250565b60007fffffffff0000000000000000000000000000000000000000000000000000000082169050919050565b6128818161284c565b82525050565b600060208201905061289c6000830184612878565b92915050565b60006040820190506128b760008301856123c4565b6128c460208301846123c4565b9392505050565b600080604083850312156128e2576128e16122b0565b5b60006128f085828601612303565b925050602061290185828601612303565b9150509250929050565b600080600060608486031215612924576129236122b0565b5b600061293286828701612303565b935050602061294386828701612339565b925050604084013567ffffffffffffffff811115612964576129636122b5565b5b6129708682870161279b565b9150509250925092565b7f4e487b7100000000000000000000000000000000000000000000000000000000600052602260045260246000fd5b600060028204905060018216806129c157607f821691505b6020821081036129d4576129d361297a565b5b50919050565b7f596f752068617665206e6f20746f6b656e73207374616b656400000000000000600082015250565b6000612a106019836121ff565b9150612a1b826129da565b602082019050919050565b60006020820190508181036000830152612a3f81612a03565b9050919050565b7f596f752063616e277420756e7374616b65207468697320746f6b656e00000000600082015250565b6000612a7c601c836121ff565b9150612a8782612a46565b602082019050919050565b60006020820190508181036000830152612aab81612a6f565b9050919050565b7f4e487b7100000000000000000000000000000000000000000000000000000000600052603260045260246000fd5b7f4e487b7100000000000000000000000000000000000000000000000000000000600052601160045260246000fd5b6000612b1b82612318565b91507fffffffffffffffffffffffffffffffffffffffffffffffffffffffffffffffff8203612b4d57612b4c612ae1565b5b600182019050919050565b6000612b6382612318565b915060008203612b7657612b75612ae1565b5b600182039050919050565b6000606082019050612b96600083018661241b565b612ba3602083018561241b565b612bb060408301846123c4565b949350505050565b6000612bc382612318565b9150612bce83612318565b9250828201905080821115612be657612be5612ae1565b5b92915050565b7f596f752068617665206e6f207265776172647320746f20636c61696d00000000600082015250565b6000612c22601c836121ff565b9150612c2d82612bec565b602082019050919050565b60006020820190508181036000830152612c5181612c15565b9050919050565b6000612c6382612318565b9150612c6e83612318565b9250828203905081811115612c8657612c85612ae1565b5b92915050565b6000612c9782612318565b9150612ca283612318565b9250828202612cb081612318565b91508282048414831517612cc757612cc6612ae1565b5b5092915050565b7f4f776e61626c653a2063616c6c6572206973206e6f7420746865206f776e6572600082015250565b6000612d046020836121ff565b9150612d0f82612cce565b602082019050919050565b60006020820190508181036000830152612d3381612cf7565b9050919050565b7f4b4950373a2064656372656173656420616c6c6f77616e63652062656c6f772060008201527f7a65726f00000000000000000000000000000000000000000000000000000000602082015250565b6000612d966024836121ff565b9150612da182612d3a565b604082019050919050565b60006020820190508181036000830152612dc581612d89565b9050919050565b600081519050612ddb816122ec565b92915050565b600060208284031215612df757612df66122b0565b5b6000612e0584828501612dcc565b91505092915050565b7f596f7520646f6e2774206f776e207468697320746f6b656e2100000000000000600082015250565b6000612e446019836121ff565b9150612e4f82612e0e565b602082019050919050565b60006020820190508181036000830152612e7381612e37565b9050919050565b7f4f776e61626c653a206e6577206f776e657220697320746865207a65726f206160008201527f6464726573730000000000000000000000000000000000000000000000000000602082015250565b6000612ed66026836121ff565b9150612ee182612e7a565b604082019050919050565b60006020820190508181036000830152612f0581612ec9565b9050919050565b7f4b4950373a20617070726f76652066726f6d20746865207a65726f206164647260008201527f6573730000000000000000000000000000000000000000000000000000000000602082015250565b6000612f686023836121ff565b9150612f7382612f0c565b604082019050919050565b60006020820190508181036000830152612f9781612f5b565b9050919050565b7f4b4950373a20617070726f766520746f20746865207a65726f2061646472657360008201527f7300000000000000000000000000000000000000000000000000000000000000602082015250565b6000612ffa6021836121ff565b915061300582612f9e565b604082019050919050565b6000602082019050818103600083015261302981612fed565b9050919050565b7f4b4950373a20696e73756666696369656e7420616c6c6f77616e636500000000600082015250565b6000613066601c836121ff565b915061307182613030565b602082019050919050565b6000602082019050818103600083015261309581613059565b9050919050565b7f4b4950373a207472616e736665722066726f6d20746865207a65726f2061646460008201527f7265737300000000000000000000000000000000000000000000000000000000602082015250565b60006130f86024836121ff565b91506131038261309c565b604082019050919050565b60006020820190508181036000830152613127816130eb565b9050919050565b7f4b4950373a207472616e7366657220746f20746865207a65726f20616464726560008201527f7373000000000000000000000000000000000000000000000000000000000000602082015250565b600061318a6022836121ff565b91506131958261312e565b604082019050919050565b600060208201905081810360008301526131b98161317d565b9050919050565b7f4b4950373a207472616e7366657220616d6f756e74206578636565647320626160008201527f6c616e6365000000000000000000000000000000000000000000000000000000602082015250565b600061321c6025836121ff565b9150613227826131c0565b604082019050919050565b6000602082019050818103600083015261324b8161320f565b9050919050565b7f4b4950373a206d696e7420746f20746865207a65726f20616464726573730000600082015250565b6000613288601e836121ff565b915061329382613252565b602082019050919050565b600060208201905081810360008301526132b78161327b565b9050919050565b7f4b4950373a207472616e7366657220746f206e6f6e20494b495037526563656960008201527f76657220696d706c656d656e7465720000000000000000000000000000000000602082015250565b600061331a602f836121ff565b9150613325826132be565b604082019050919050565b600060208201905081810360008301526133498161330d565b9050919050565b600081519050919050565b600082825260208201905092915050565b600061337782613350565b613381818561335b565b9350613391818560208601612210565b61339a8161223a565b840191505092915050565b60006080820190506133ba600083018761241b565b6133c7602083018661241b565b6133d460408301856123c4565b81810360608301526133e6818461336c565b905095945050505050565b6133fa8161284c565b811461340557600080fd5b50565b600081519050613417816133f1565b92915050565b600060208284031215613433576134326122b0565b5b600061344184828501613408565b91505092915050565b7f4b4950373a207472616e7366657220746f206e6f6e204b49503752656365697660008201527f657220696d706c656d656e746572000000000000000000000000000000000000602082015250565b60006134a6602e836121ff565b91506134b18261344a565b604082019050919050565b600060208201905081810360008301526134d581613499565b905091905056fea2646970667358221220e0007d8ff2d086116f6c78547da65ce52b2319309e74c0c9a4029caadb8d87cf64736f6c63430008120033",
			"opcodes": "PUSH1 0x80 PUSH1 0x40 MSTORE PUSH7 0x2386F26FC10000 PUSH1 0x7 SSTORE PUSH3 0x15180 PUSH3 0x23 PUSH3 0x114 PUSH1 0x20 SHL PUSH1 0x20 SHR JUMP JUMPDEST PUSH1 0xA PUSH3 0x31 SWAP2 SWAP1 PUSH3 0x385 JUMP JUMPDEST PUSH2 0x21C0 PUSH3 0x40 SWAP2 SWAP1 PUSH3 0x3D6 JUMP JUMPDEST PUSH3 0x4C SWAP2 SWAP1 PUSH3 0x450 JUMP JUMPDEST PUSH1 0x8 SSTORE CALLVALUE DUP1 ISZERO PUSH3 0x5C JUMPI PUSH1 0x0 DUP1 REVERT JUMPDEST POP PUSH1 0x40 MLOAD PUSH3 0x3F64 CODESIZE SUB DUP1 PUSH3 0x3F64 DUP4 CODECOPY DUP2 DUP2 ADD PUSH1 0x40 MSTORE DUP2 ADD SWAP1 PUSH3 0x82 SWAP2 SWAP1 PUSH3 0x680 JUMP JUMPDEST DUP2 DUP2 DUP2 PUSH1 0x3 SWAP1 DUP2 PUSH3 0x95 SWAP2 SWAP1 PUSH3 0x95B JUMP JUMPDEST POP DUP1 PUSH1 0x4 SWAP1 DUP2 PUSH3 0xA7 SWAP2 SWAP1 PUSH3 0x95B JUMP JUMPDEST POP POP POP PUSH3 0xCA PUSH3 0xBE PUSH3 0x11D PUSH1 0x20 SHL PUSH1 0x20 SHR JUMP JUMPDEST PUSH3 0x125 PUSH1 0x20 SHL PUSH1 0x20 SHR JUMP JUMPDEST DUP3 PUSH1 0x6 PUSH1 0x0 PUSH2 0x100 EXP DUP2 SLOAD DUP2 PUSH20 0xFFFFFFFFFFFFFFFFFFFFFFFFFFFFFFFFFFFFFFFF MUL NOT AND SWAP1 DUP4 PUSH20 0xFFFFFFFFFFFFFFFFFFFFFFFFFFFFFFFFFFFFFFFF AND MUL OR SWAP1 SSTORE POP POP POP POP PUSH3 0xA42 JUMP JUMPDEST PUSH1 0x0 PUSH1 0x12 SWAP1 POP SWAP1 JUMP JUMPDEST PUSH1 0x0 CALLER SWAP1 POP SWAP1 JUMP JUMPDEST PUSH1 0x0 PUSH1 0x5 PUSH1 0x0 SWAP1 SLOAD SWAP1 PUSH2 0x100 EXP SWAP1 DIV PUSH20 0xFFFFFFFFFFFFFFFFFFFFFFFFFFFFFFFFFFFFFFFF AND SWAP1 POP DUP2 PUSH1 0x5 PUSH1 0x0 PUSH2 0x100 EXP DUP2 SLOAD DUP2 PUSH20 0xFFFFFFFFFFFFFFFFFFFFFFFFFFFFFFFFFFFFFFFF MUL NOT AND SWAP1 DUP4 PUSH20 0xFFFFFFFFFFFFFFFFFFFFFFFFFFFFFFFFFFFFFFFF AND MUL OR SWAP1 SSTORE POP DUP2 PUSH20 0xFFFFFFFFFFFFFFFFFFFFFFFFFFFFFFFFFFFFFFFF AND DUP2 PUSH20 0xFFFFFFFFFFFFFFFFFFFFFFFFFFFFFFFFFFFFFFFF AND PUSH32 0x8BE0079C531659141344CD1FD0A4F28419497F9722A3DAAFE3B4186F6B6457E0 PUSH1 0x40 MLOAD PUSH1 0x40 MLOAD DUP1 SWAP2 SUB SWAP1 LOG3 POP POP JUMP JUMPDEST PUSH32 0x4E487B7100000000000000000000000000000000000000000000000000000000 PUSH1 0x0 MSTORE PUSH1 0x11 PUSH1 0x4 MSTORE PUSH1 0x24 PUSH1 0x0 REVERT JUMPDEST PUSH1 0x0 DUP2 PUSH1 0x1 SHR SWAP1 POP SWAP2 SWAP1 POP JUMP JUMPDEST PUSH1 0x0 DUP1 DUP3 SWAP2 POP DUP4 SWAP1 POP JUMPDEST PUSH1 0x1 DUP6 GT ISZERO PUSH3 0x279 JUMPI DUP1 DUP7 DIV DUP2 GT ISZERO PUSH3 0x251 JUMPI PUSH3 0x250 PUSH3 0x1EB JUMP JUMPDEST JUMPDEST PUSH1 0x1 DUP6 AND ISZERO PUSH3 0x261 JUMPI DUP1 DUP3 MUL SWAP2 POP JUMPDEST DUP1 DUP2 MUL SWAP1 POP PUSH3 0x271 DUP6 PUSH3 0x21A JUMP JUMPDEST SWAP5 POP PUSH3 0x231 JUMP JUMPDEST SWAP5 POP SWAP5 SWAP3 POP POP POP JUMP JUMPDEST PUSH1 0x0 DUP3 PUSH3 0x294 JUMPI PUSH1 0x1 SWAP1 POP PUSH3 0x367 JUMP JUMPDEST DUP2 PUSH3 0x2A4 JUMPI PUSH1 0x0 SWAP1 POP PUSH3 0x367 JUMP JUMPDEST DUP2 PUSH1 0x1 DUP2 EQ PUSH3 0x2BD JUMPI PUSH1 0x2 DUP2 EQ PUSH3 0x2C8 JUMPI PUSH3 0x2FE JUMP JUMPDEST PUSH1 0x1 SWAP2 POP POP PUSH3 0x367 JUMP JUMPDEST PUSH1 0xFF DUP5 GT ISZERO PUSH3 0x2DD JUMPI PUSH3 0x2DC PUSH3 0x1EB JUMP JUMPDEST JUMPDEST DUP4 PUSH1 0x2 EXP SWAP2 POP DUP5 DUP3 GT ISZERO PUSH3 0x2F7 JUMPI PUSH3 0x2F6 PUSH3 0x1EB JUMP JUMPDEST JUMPDEST POP PUSH3 0x367 JUMP JUMPDEST POP PUSH1 0x20 DUP4 LT PUSH2 0x133 DUP4 LT AND PUSH1 0x4E DUP5 LT PUSH1 0xB DUP5 LT AND OR ISZERO PUSH3 0x338 JUMPI DUP3 DUP3 EXP SWAP1 POP DUP4 DUP2 GT ISZERO PUSH3 0x332 JUMPI PUSH3 0x331 PUSH3 0x1EB JUMP JUMPDEST JUMPDEST PUSH3 0x367 JUMP JUMPDEST PUSH3 0x347 DUP5 DUP5 DUP5 PUSH1 0x1 PUSH3 0x227 JUMP JUMPDEST SWAP3 POP SWAP1 POP DUP2 DUP5 DIV DUP2 GT ISZERO PUSH3 0x361 JUMPI PUSH3 0x360 PUSH3 0x1EB JUMP JUMPDEST JUMPDEST DUP2 DUP2 MUL SWAP1 POP JUMPDEST SWAP4 SWAP3 POP POP POP JUMP JUMPDEST PUSH1 0x0 DUP2 SWAP1 POP SWAP2 SWAP1 POP JUMP JUMPDEST PUSH1 0x0 PUSH1 0xFF DUP3 AND SWAP1 POP SWAP2 SWAP1 POP JUMP JUMPDEST PUSH1 0x0 PUSH3 0x392 DUP3 PUSH3 0x36E JUMP JUMPDEST SWAP2 POP PUSH3 0x39F DUP4 PUSH3 0x378 JUMP JUMPDEST SWAP3 POP PUSH3 0x3CE PUSH32 0xFFFFFFFFFFFFFFFFFFFFFFFFFFFFFFFFFFFFFFFFFFFFFFFFFFFFFFFFFFFFFFFF DUP5 DUP5 PUSH3 0x282 JUMP JUMPDEST SWAP1 POP SWAP3 SWAP2 POP POP JUMP JUMPDEST PUSH1 0x0 PUSH3 0x3E3 DUP3 PUSH3 0x36E JUMP JUMPDEST SWAP2 POP PUSH3 0x3F0 DUP4 PUSH3 0x36E JUMP JUMPDEST SWAP3 POP DUP3 DUP3 MUL PUSH3 0x400 DUP2 PUSH3 0x36E JUMP JUMPDEST SWAP2 POP DUP3 DUP3 DIV DUP5 EQ DUP4 ISZERO OR PUSH3 0x41A JUMPI PUSH3 0x419 PUSH3 0x1EB JUMP JUMPDEST JUMPDEST POP SWAP3 SWAP2 POP POP JUMP JUMPDEST PUSH32 0x4E487B7100000000000000000000000000000000000000000000000000000000 PUSH1 0x0 MSTORE PUSH1 0x12 PUSH1 0x4 MSTORE PUSH1 0x24 PUSH1 0x0 REVERT JUMPDEST PUSH1 0x0 PUSH3 0x45D DUP3 PUSH3 0x36E JUMP JUMPDEST SWAP2 POP PUSH3 0x46A DUP4 PUSH3 0x36E JUMP JUMPDEST SWAP3 POP DUP3 PUSH3 0x47D JUMPI PUSH3 0x47C PUSH3 0x421 JUMP JUMPDEST JUMPDEST DUP3 DUP3 DIV SWAP1 POP SWAP3 SWAP2 POP POP JUMP JUMPDEST PUSH1 0x0 PUSH1 0x40 MLOAD SWAP1 POP SWAP1 JUMP JUMPDEST PUSH1 0x0 DUP1 REVERT JUMPDEST PUSH1 0x0 DUP1 REVERT JUMPDEST PUSH1 0x0 PUSH20 0xFFFFFFFFFFFFFFFFFFFFFFFFFFFFFFFFFFFFFFFF DUP3 AND SWAP1 POP SWAP2 SWAP1 POP JUMP JUMPDEST PUSH1 0x0 PUSH3 0x4C9 DUP3 PUSH3 0x49C JUMP JUMPDEST SWAP1 POP SWAP2 SWAP1 POP JUMP JUMPDEST PUSH3 0x4DB DUP2 PUSH3 0x4BC JUMP JUMPDEST DUP2 EQ PUSH3 0x4E7 JUMPI PUSH1 0x0 DUP1 REVERT JUMPDEST POP JUMP JUMPDEST PUSH1 0x0 DUP2 MLOAD SWAP1 POP PUSH3 0x4FB DUP2 PUSH3 0x4D0 JUMP JUMPDEST SWAP3 SWAP2 POP POP JUMP JUMPDEST PUSH1 0x0 DUP1 REVERT JUMPDEST PUSH1 0x0 DUP1 REVERT JUMPDEST PUSH1 0x0 PUSH1 0x1F NOT PUSH1 0x1F DUP4 ADD AND SWAP1 POP SWAP2 SWAP1 POP JUMP JUMPDEST PUSH32 0x4E487B7100000000000000000000000000000000000000000000000000000000 PUSH1 0x0 MSTORE PUSH1 0x41 PUSH1 0x4 MSTORE PUSH1 0x24 PUSH1 0x0 REVERT JUMPDEST PUSH3 0x556 DUP3 PUSH3 0x50B JUMP JUMPDEST DUP2 ADD DUP2 DUP2 LT PUSH8 0xFFFFFFFFFFFFFFFF DUP3 GT OR ISZERO PUSH3 0x578 JUMPI PUSH3 0x577 PUSH3 0x51C JUMP JUMPDEST JUMPDEST DUP1 PUSH1 0x40 MSTORE POP POP POP JUMP JUMPDEST PUSH1 0x0 PUSH3 0x58D PUSH3 0x488 JUMP JUMPDEST SWAP1 POP PUSH3 0x59B DUP3 DUP3 PUSH3 0x54B JUMP JUMPDEST SWAP2 SWAP1 POP JUMP JUMPDEST PUSH1 0x0 PUSH8 0xFFFFFFFFFFFFFFFF DUP3 GT ISZERO PUSH3 0x5BE JUMPI PUSH3 0x5BD PUSH3 0x51C JUMP JUMPDEST JUMPDEST PUSH3 0x5C9 DUP3 PUSH3 0x50B JUMP JUMPDEST SWAP1 POP PUSH1 0x20 DUP2 ADD SWAP1 POP SWAP2 SWAP1 POP JUMP JUMPDEST PUSH1 0x0 JUMPDEST DUP4 DUP2 LT ISZERO PUSH3 0x5F6 JUMPI DUP1 DUP3 ADD MLOAD DUP2 DUP5 ADD MSTORE PUSH1 0x20 DUP2 ADD SWAP1 POP PUSH3 0x5D9 JUMP JUMPDEST PUSH1 0x0 DUP5 DUP5 ADD MSTORE POP POP POP POP JUMP JUMPDEST PUSH1 0x0 PUSH3 0x619 PUSH3 0x613 DUP5 PUSH3 0x5A0 JUMP JUMPDEST PUSH3 0x581 JUMP JUMPDEST SWAP1 POP DUP3 DUP2 MSTORE PUSH1 0x20 DUP2 ADD DUP5 DUP5 DUP5 ADD GT ISZERO PUSH3 0x638 JUMPI PUSH3 0x637 PUSH3 0x506 JUMP JUMPDEST JUMPDEST PUSH3 0x645 DUP5 DUP3 DUP6 PUSH3 0x5D6 JUMP JUMPDEST POP SWAP4 SWAP3 POP POP POP JUMP JUMPDEST PUSH1 0x0 DUP3 PUSH1 0x1F DUP4 ADD SLT PUSH3 0x665 JUMPI PUSH3 0x664 PUSH3 0x501 JUMP JUMPDEST JUMPDEST DUP2 MLOAD PUSH3 0x677 DUP5 DUP3 PUSH1 0x20 DUP7 ADD PUSH3 0x602 JUMP JUMPDEST SWAP2 POP POP SWAP3 SWAP2 POP POP JUMP JUMPDEST PUSH1 0x0 DUP1 PUSH1 0x0 PUSH1 0x60 DUP5 DUP7 SUB SLT ISZERO PUSH3 0x69C JUMPI PUSH3 0x69B PUSH3 0x492 JUMP JUMPDEST JUMPDEST PUSH1 0x0 PUSH3 0x6AC DUP7 DUP3 DUP8 ADD PUSH3 0x4EA JUMP JUMPDEST SWAP4 POP POP PUSH1 0x20 DUP5 ADD MLOAD PUSH8 0xFFFFFFFFFFFFFFFF DUP2 GT ISZERO PUSH3 0x6D0 JUMPI PUSH3 0x6CF PUSH3 0x497 JUMP JUMPDEST JUMPDEST PUSH3 0x6DE DUP7 DUP3 DUP8 ADD PUSH3 0x64D JUMP JUMPDEST SWAP3 POP POP PUSH1 0x40 DUP5 ADD MLOAD PUSH8 0xFFFFFFFFFFFFFFFF DUP2 GT ISZERO PUSH3 0x702 JUMPI PUSH3 0x701 PUSH3 0x497 JUMP JUMPDEST JUMPDEST PUSH3 0x710 DUP7 DUP3 DUP8 ADD PUSH3 0x64D JUMP JUMPDEST SWAP2 POP POP SWAP3 POP SWAP3 POP SWAP3 JUMP JUMPDEST PUSH1 0x0 DUP2 MLOAD SWAP1 POP SWAP2 SWAP1 POP JUMP JUMPDEST PUSH32 0x4E487B7100000000000000000000000000000000000000000000000000000000 PUSH1 0x0 MSTORE PUSH1 0x22 PUSH1 0x4 MSTORE PUSH1 0x24 PUSH1 0x0 REVERT JUMPDEST PUSH1 0x0 PUSH1 0x2 DUP3 DIV SWAP1 POP PUSH1 0x1 DUP3 AND DUP1 PUSH3 0x76D JUMPI PUSH1 0x7F DUP3 AND SWAP2 POP JUMPDEST PUSH1 0x20 DUP3 LT DUP2 SUB PUSH3 0x783 JUMPI PUSH3 0x782 PUSH3 0x725 JUMP JUMPDEST JUMPDEST POP SWAP2 SWAP1 POP JUMP JUMPDEST PUSH1 0x0 DUP2 SWAP1 POP DUP2 PUSH1 0x0 MSTORE PUSH1 0x20 PUSH1 0x0 KECCAK256 SWAP1 POP SWAP2 SWAP1 POP JUMP JUMPDEST PUSH1 0x0 PUSH1 0x20 PUSH1 0x1F DUP4 ADD DIV SWAP1 POP SWAP2 SWAP1 POP JUMP JUMPDEST PUSH1 0x0 DUP3 DUP3 SHL SWAP1 POP SWAP3 SWAP2 POP POP JUMP JUMPDEST PUSH1 0x0 PUSH1 0x8 DUP4 MUL PUSH3 0x7ED PUSH32 0xFFFFFFFFFFFFFFFFFFFFFFFFFFFFFFFFFFFFFFFFFFFFFFFFFFFFFFFFFFFFFFFF DUP3 PUSH3 0x7AE JUMP JUMPDEST PUSH3 0x7F9 DUP7 DUP4 PUSH3 0x7AE JUMP JUMPDEST SWAP6 POP DUP1 NOT DUP5 AND SWAP4 POP DUP1 DUP7 AND DUP5 OR SWAP3 POP POP POP SWAP4 SWAP3 POP POP POP JUMP JUMPDEST PUSH1 0x0 DUP2 SWAP1 POP SWAP2 SWAP1 POP JUMP JUMPDEST PUSH1 0x0 PUSH3 0x83C PUSH3 0x836 PUSH3 0x830 DUP5 PUSH3 0x36E JUMP JUMPDEST PUSH3 0x811 JUMP JUMPDEST PUSH3 0x36E JUMP JUMPDEST SWAP1 POP SWAP2 SWAP1 POP JUMP JUMPDEST PUSH1 0x0 DUP2 SWAP1 POP SWAP2 SWAP1 POP JUMP JUMPDEST PUSH3 0x858 DUP4 PUSH3 0x81B JUMP JUMPDEST PUSH3 0x870 PUSH3 0x867 DUP3 PUSH3 0x843 JUMP JUMPDEST DUP5 DUP5 SLOAD PUSH3 0x7BB JUMP JUMPDEST DUP3 SSTORE POP POP POP POP JUMP JUMPDEST PUSH1 0x0 SWAP1 JUMP JUMPDEST PUSH3 0x887 PUSH3 0x878 JUMP JUMPDEST PUSH3 0x894 DUP2 DUP5 DUP5 PUSH3 0x84D JUMP JUMPDEST POP POP POP JUMP JUMPDEST JUMPDEST DUP2 DUP2 LT ISZERO PUSH3 0x8BC JUMPI PUSH3 0x8B0 PUSH1 0x0 DUP3 PUSH3 0x87D JUMP JUMPDEST PUSH1 0x1 DUP2 ADD SWAP1 POP PUSH3 0x89A JUMP JUMPDEST POP POP JUMP JUMPDEST PUSH1 0x1F DUP3 GT ISZERO PUSH3 0x90B JUMPI PUSH3 0x8D5 DUP2 PUSH3 0x789 JUMP JUMPDEST PUSH3 0x8E0 DUP5 PUSH3 0x79E JUMP JUMPDEST DUP2 ADD PUSH1 0x20 DUP6 LT ISZERO PUSH3 0x8F0 JUMPI DUP2 SWAP1 POP JUMPDEST PUSH3 0x908 PUSH3 0x8FF DUP6 PUSH3 0x79E JUMP JUMPDEST DUP4 ADD DUP3 PUSH3 0x899 JUMP JUMPDEST POP POP JUMPDEST POP POP POP JUMP JUMPDEST PUSH1 0x0 DUP3 DUP3 SHR SWAP1 POP SWAP3 SWAP2 POP POP JUMP JUMPDEST PUSH1 0x0 PUSH3 0x930 PUSH1 0x0 NOT DUP5 PUSH1 0x8 MUL PUSH3 0x910 JUMP JUMPDEST NOT DUP1 DUP4 AND SWAP2 POP POP SWAP3 SWAP2 POP POP JUMP JUMPDEST PUSH1 0x0 PUSH3 0x94B DUP4 DUP4 PUSH3 0x91D JUMP JUMPDEST SWAP2 POP DUP3 PUSH1 0x2 MUL DUP3 OR SWAP1 POP SWAP3 SWAP2 POP POP JUMP JUMPDEST PUSH3 0x966 DUP3 PUSH3 0x71A JUMP JUMPDEST PUSH8 0xFFFFFFFFFFFFFFFF DUP2 GT ISZERO PUSH3 0x982 JUMPI PUSH3 0x981 PUSH3 0x51C JUMP JUMPDEST JUMPDEST PUSH3 0x98E DUP3 SLOAD PUSH3 0x754 JUMP JUMPDEST PUSH3 0x99B DUP3 DUP3 DUP6 PUSH3 0x8C0 JUMP JUMPDEST PUSH1 0x0 PUSH1 0x20 SWAP1 POP PUSH1 0x1F DUP4 GT PUSH1 0x1 DUP2 EQ PUSH3 0x9D3 JUMPI PUSH1 0x0 DUP5 ISZERO PUSH3 0x9BE JUMPI DUP3 DUP8 ADD MLOAD SWAP1 POP JUMPDEST PUSH3 0x9CA DUP6 DUP3 PUSH3 0x93D JUMP JUMPDEST DUP7 SSTORE POP PUSH3 0xA3A JUMP JUMPDEST PUSH1 0x1F NOT DUP5 AND PUSH3 0x9E3 DUP7 PUSH3 0x789 JUMP JUMPDEST PUSH1 0x0 JUMPDEST DUP3 DUP2 LT ISZERO PUSH3 0xA0D JUMPI DUP5 DUP10 ADD MLOAD DUP3 SSTORE PUSH1 0x1 DUP3 ADD SWAP2 POP PUSH1 0x20 DUP6 ADD SWAP5 POP PUSH1 0x20 DUP2 ADD SWAP1 POP PUSH3 0x9E6 JUMP JUMPDEST DUP7 DUP4 LT ISZERO PUSH3 0xA2D JUMPI DUP5 DUP10 ADD MLOAD PUSH3 0xA29 PUSH1 0x1F DUP10 AND DUP3 PUSH3 0x91D JUMP JUMPDEST DUP4 SSTORE POP JUMPDEST PUSH1 0x1 PUSH1 0x2 DUP9 MUL ADD DUP9 SSTORE POP POP POP JUMPDEST POP POP POP POP POP POP JUMP JUMPDEST PUSH2 0x3512 DUP1 PUSH3 0xA52 PUSH1 0x0 CODECOPY PUSH1 0x0 RETURN INVALID PUSH1 0x80 PUSH1 0x40 MSTORE CALLVALUE DUP1 ISZERO PUSH2 0x10 JUMPI PUSH1 0x0 DUP1 REVERT JUMPDEST POP PUSH1 0x4 CALLDATASIZE LT PUSH2 0x1CF JUMPI PUSH1 0x0 CALLDATALOAD PUSH1 0xE0 SHR DUP1 PUSH4 0x6745782B GT PUSH2 0x104 JUMPI DUP1 PUSH4 0xA457C2D7 GT PUSH2 0xA2 JUMPI DUP1 PUSH4 0xD5ABEB01 GT PUSH2 0x71 JUMPI DUP1 PUSH4 0xD5ABEB01 EQ PUSH2 0x557 JUMPI DUP1 PUSH4 0xDD62ED3E EQ PUSH2 0x575 JUMPI DUP1 PUSH4 0xEB795549 EQ PUSH2 0x5A5 JUMPI DUP1 PUSH4 0xF2FDE38B EQ PUSH2 0x5C1 JUMPI PUSH2 0x1CF JUMP JUMPDEST DUP1 PUSH4 0xA457C2D7 EQ PUSH2 0x4BF JUMPI DUP1 PUSH4 0xA694FC3A EQ PUSH2 0x4EF JUMPI DUP1 PUSH4 0xA9059CBB EQ PUSH2 0x50B JUMPI DUP1 PUSH4 0xB88D4FDE EQ PUSH2 0x53B JUMPI PUSH2 0x1CF JUMP JUMPDEST DUP1 PUSH4 0x715018A6 GT PUSH2 0xDE JUMPI DUP1 PUSH4 0x715018A6 EQ PUSH2 0x448 JUMPI DUP1 PUSH4 0x8DA5CB5B EQ PUSH2 0x452 JUMPI DUP1 PUSH4 0x9168AE72 EQ PUSH2 0x470 JUMPI DUP1 PUSH4 0x95D89B41 EQ PUSH2 0x4A1 JUMPI PUSH2 0x1CF JUMP JUMPDEST DUP1 PUSH4 0x6745782B EQ PUSH2 0x3B8 JUMPI DUP1 PUSH4 0x6B325555 EQ PUSH2 0x3E8 JUMPI DUP1 PUSH4 0x70A08231 EQ PUSH2 0x418 JUMPI PUSH2 0x1CF JUMP JUMPDEST DUP1 PUSH4 0x313CE567 GT PUSH2 0x171 JUMPI DUP1 PUSH4 0x42842E0E GT PUSH2 0x14B JUMPI DUP1 PUSH4 0x42842E0E EQ PUSH2 0x344 JUMPI DUP1 PUSH4 0x47CCCA02 EQ PUSH2 0x360 JUMPI DUP1 PUSH4 0x4E71D92D EQ PUSH2 0x37E JUMPI DUP1 PUSH4 0x63C28DB1 EQ PUSH2 0x388 JUMPI PUSH2 0x1CF JUMP JUMPDEST DUP1 PUSH4 0x313CE567 EQ PUSH2 0x2DA JUMPI DUP1 PUSH4 0x39509351 EQ PUSH2 0x2F8 JUMPI DUP1 PUSH4 0x423F6CEF EQ PUSH2 0x328 JUMPI PUSH2 0x1CF JUMP JUMPDEST DUP1 PUSH4 0x1CAAA487 GT PUSH2 0x1AD JUMPI DUP1 PUSH4 0x1CAAA487 EQ PUSH2 0x240 JUMPI DUP1 PUSH4 0x23B872DD EQ PUSH2 0x270 JUMPI DUP1 PUSH4 0x2C4E722E EQ PUSH2 0x2A0 JUMPI DUP1 PUSH4 0x2E17DE78 EQ PUSH2 0x2BE JUMPI PUSH2 0x1CF JUMP JUMPDEST DUP1 PUSH4 0x6FDDE03 EQ PUSH2 0x1D4 JUMPI DUP1 PUSH4 0x95EA7B3 EQ PUSH2 0x1F2 JUMPI DUP1 PUSH4 0x18160DDD EQ PUSH2 0x222 JUMPI JUMPDEST PUSH1 0x0 DUP1 REVERT JUMPDEST PUSH2 0x1DC PUSH2 0x5DD JUMP JUMPDEST PUSH1 0x40 MLOAD PUSH2 0x1E9 SWAP2 SWAP1 PUSH2 0x2284 JUMP JUMPDEST PUSH1 0x40 MLOAD DUP1 SWAP2 SUB SWAP1 RETURN JUMPDEST PUSH2 0x20C PUSH1 0x4 DUP1 CALLDATASIZE SUB DUP2 ADD SWAP1 PUSH2 0x207 SWAP2 SWAP1 PUSH2 0x234E JUMP JUMPDEST PUSH2 0x66F JUMP JUMPDEST PUSH1 0x40 MLOAD PUSH2 0x219 SWAP2 SWAP1 PUSH2 0x23A9 JUMP JUMPDEST PUSH1 0x40 MLOAD DUP1 SWAP2 SUB SWAP1 RETURN JUMPDEST PUSH2 0x22A PUSH2 0x692 JUMP JUMPDEST PUSH1 0x40 MLOAD PUSH2 0x237 SWAP2 SWAP1 PUSH2 0x23D3 JUMP JUMPDEST PUSH1 0x40 MLOAD DUP1 SWAP2 SUB SWAP1 RETURN JUMPDEST PUSH2 0x25A PUSH1 0x4 DUP1 CALLDATASIZE SUB DUP2 ADD SWAP1 PUSH2 0x255 SWAP2 SWAP1 PUSH2 0x23EE JUMP JUMPDEST PUSH2 0x69C JUMP JUMPDEST PUSH1 0x40 MLOAD PUSH2 0x267 SWAP2 SWAP1 PUSH2 0x242A JUMP JUMPDEST PUSH1 0x40 MLOAD DUP1 SWAP2 SUB SWAP1 RETURN JUMPDEST PUSH2 0x28A PUSH1 0x4 DUP1 CALLDATASIZE SUB DUP2 ADD SWAP1 PUSH2 0x285 SWAP2 SWAP1 PUSH2 0x2445 JUMP JUMPDEST PUSH2 0x6CF JUMP JUMPDEST PUSH1 0x40 MLOAD PUSH2 0x297 SWAP2 SWAP1 PUSH2 0x23A9 JUMP JUMPDEST PUSH1 0x40 MLOAD DUP1 SWAP2 SUB SWAP1 RETURN JUMPDEST PUSH2 0x2A8 PUSH2 0x6FE JUMP JUMPDEST PUSH1 0x40 MLOAD PUSH2 0x2B5 SWAP2 SWAP1 PUSH2 0x23D3 JUMP JUMPDEST PUSH1 0x40 MLOAD DUP1 SWAP2 SUB SWAP1 RETURN JUMPDEST PUSH2 0x2D8 PUSH1 0x4 DUP1 CALLDATASIZE SUB DUP2 ADD SWAP1 PUSH2 0x2D3 SWAP2 SWAP1 PUSH2 0x23EE JUMP JUMPDEST PUSH2 0x704 JUMP JUMPDEST STOP JUMPDEST PUSH2 0x2E2 PUSH2 0xB24 JUMP JUMPDEST PUSH1 0x40 MLOAD PUSH2 0x2EF SWAP2 SWAP1 PUSH2 0x24B4 JUMP JUMPDEST PUSH1 0x40 MLOAD DUP1 SWAP2 SUB SWAP1 RETURN JUMPDEST PUSH2 0x312 PUSH1 0x4 DUP1 CALLDATASIZE SUB DUP2 ADD SWAP1 PUSH2 0x30D SWAP2 SWAP1 PUSH2 0x234E JUMP JUMPDEST PUSH2 0xB2D JUMP JUMPDEST PUSH1 0x40 MLOAD PUSH2 0x31F SWAP2 SWAP1 PUSH2 0x23A9 JUMP JUMPDEST PUSH1 0x40 MLOAD DUP1 SWAP2 SUB SWAP1 RETURN JUMPDEST PUSH2 0x342 PUSH1 0x4 DUP1 CALLDATASIZE SUB DUP2 ADD SWAP1 PUSH2 0x33D SWAP2 SWAP1 PUSH2 0x234E JUMP JUMPDEST PUSH2 0xB64 JUMP JUMPDEST STOP JUMPDEST PUSH2 0x35E PUSH1 0x4 DUP1 CALLDATASIZE SUB DUP2 ADD SWAP1 PUSH2 0x359 SWAP2 SWAP1 PUSH2 0x2445 JUMP JUMPDEST PUSH2 0xB90 JUMP JUMPDEST STOP JUMPDEST PUSH2 0x368 PUSH2 0xBC8 JUMP JUMPDEST PUSH1 0x40 MLOAD PUSH2 0x375 SWAP2 SWAP1 PUSH2 0x252E JUMP JUMPDEST PUSH1 0x40 MLOAD DUP1 SWAP2 SUB SWAP1 RETURN JUMPDEST PUSH2 0x386 PUSH2 0xBEE JUMP JUMPDEST STOP JUMPDEST PUSH2 0x3A2 PUSH1 0x4 DUP1 CALLDATASIZE SUB DUP2 ADD SWAP1 PUSH2 0x39D SWAP2 SWAP1 PUSH2 0x2549 JUMP JUMPDEST PUSH2 0xC92 JUMP JUMPDEST PUSH1 0x40 MLOAD PUSH2 0x3AF SWAP2 SWAP1 PUSH2 0x2672 JUMP JUMPDEST PUSH1 0x40 MLOAD DUP1 SWAP2 SUB SWAP1 RETURN JUMPDEST PUSH2 0x3D2 PUSH1 0x4 DUP1 CALLDATASIZE SUB DUP2 ADD SWAP1 PUSH2 0x3CD SWAP2 SWAP1 PUSH2 0x27C9 JUMP JUMPDEST PUSH2 0xFF8 JUMP JUMPDEST PUSH1 0x40 MLOAD PUSH2 0x3DF SWAP2 SWAP1 PUSH2 0x2887 JUMP JUMPDEST PUSH1 0x40 MLOAD DUP1 SWAP2 SUB SWAP1 RETURN JUMPDEST PUSH2 0x402 PUSH1 0x4 DUP1 CALLDATASIZE SUB DUP2 ADD SWAP1 PUSH2 0x3FD SWAP2 SWAP1 PUSH2 0x2549 JUMP JUMPDEST PUSH2 0x100C JUMP JUMPDEST PUSH1 0x40 MLOAD PUSH2 0x40F SWAP2 SWAP1 PUSH2 0x23D3 JUMP JUMPDEST PUSH1 0x40 MLOAD DUP1 SWAP2 SUB SWAP1 RETURN JUMPDEST PUSH2 0x432 PUSH1 0x4 DUP1 CALLDATASIZE SUB DUP2 ADD SWAP1 PUSH2 0x42D SWAP2 SWAP1 PUSH2 0x2549 JUMP JUMPDEST PUSH2 0x10C2 JUMP JUMPDEST PUSH1 0x40 MLOAD PUSH2 0x43F SWAP2 SWAP1 PUSH2 0x23D3 JUMP JUMPDEST PUSH1 0x40 MLOAD DUP1 SWAP2 SUB SWAP1 RETURN JUMPDEST PUSH2 0x450 PUSH2 0x110A JUMP JUMPDEST STOP JUMPDEST PUSH2 0x45A PUSH2 0x1192 JUMP JUMPDEST PUSH1 0x40 MLOAD PUSH2 0x467 SWAP2 SWAP1 PUSH2 0x242A JUMP JUMPDEST PUSH1 0x40 MLOAD DUP1 SWAP2 SUB SWAP1 RETURN JUMPDEST PUSH2 0x48A PUSH1 0x4 DUP1 CALLDATASIZE SUB DUP2 ADD SWAP1 PUSH2 0x485 SWAP2 SWAP1 PUSH2 0x2549 JUMP JUMPDEST PUSH2 0x11BC JUMP JUMPDEST PUSH1 0x40 MLOAD PUSH2 0x498 SWAP3 SWAP2 SWAP1 PUSH2 0x28A2 JUMP JUMPDEST PUSH1 0x40 MLOAD DUP1 SWAP2 SUB SWAP1 RETURN JUMPDEST PUSH2 0x4A9 PUSH2 0x11E0 JUMP JUMPDEST PUSH1 0x40 MLOAD PUSH2 0x4B6 SWAP2 SWAP1 PUSH2 0x2284 JUMP JUMPDEST PUSH1 0x40 MLOAD DUP1 SWAP2 SUB SWAP1 RETURN JUMPDEST PUSH2 0x4D9 PUSH1 0x4 DUP1 CALLDATASIZE SUB DUP2 ADD SWAP1 PUSH2 0x4D4 SWAP2 SWAP1 PUSH2 0x234E JUMP JUMPDEST PUSH2 0x1272 JUMP JUMPDEST PUSH1 0x40 MLOAD PUSH2 0x4E6 SWAP2 SWAP1 PUSH2 0x23A9 JUMP JUMPDEST PUSH1 0x40 MLOAD DUP1 SWAP2 SUB SWAP1 RETURN JUMPDEST PUSH2 0x509 PUSH1 0x4 DUP1 CALLDATASIZE SUB DUP2 ADD SWAP1 PUSH2 0x504 SWAP2 SWAP1 PUSH2 0x23EE JUMP JUMPDEST PUSH2 0x12E9 JUMP JUMPDEST STOP JUMPDEST PUSH2 0x525 PUSH1 0x4 DUP1 CALLDATASIZE SUB DUP2 ADD SWAP1 PUSH2 0x520 SWAP2 SWAP1 PUSH2 0x234E JUMP JUMPDEST PUSH2 0x16C4 JUMP JUMPDEST PUSH1 0x40 MLOAD PUSH2 0x532 SWAP2 SWAP1 PUSH2 0x23A9 JUMP JUMPDEST PUSH1 0x40 MLOAD DUP1 SWAP2 SUB SWAP1 RETURN JUMPDEST PUSH2 0x555 PUSH1 0x4 DUP1 CALLDATASIZE SUB DUP2 ADD SWAP1 PUSH2 0x550 SWAP2 SWAP1 PUSH2 0x27C9 JUMP JUMPDEST PUSH2 0x16E7 JUMP JUMPDEST STOP JUMPDEST PUSH2 0x55F PUSH2 0x1711 JUMP JUMPDEST PUSH1 0x40 MLOAD PUSH2 0x56C SWAP2 SWAP1 PUSH2 0x23D3 JUMP JUMPDEST PUSH1 0x40 MLOAD DUP1 SWAP2 SUB SWAP1 RETURN JUMPDEST PUSH2 0x58F PUSH1 0x4 DUP1 CALLDATASIZE SUB DUP2 ADD SWAP1 PUSH2 0x58A SWAP2 SWAP1 PUSH2 0x28CB JUMP JUMPDEST PUSH2 0x1717 JUMP JUMPDEST PUSH1 0x40 MLOAD PUSH2 0x59C SWAP2 SWAP1 PUSH2 0x23D3 JUMP JUMPDEST PUSH1 0x40 MLOAD DUP1 SWAP2 SUB SWAP1 RETURN JUMPDEST PUSH2 0x5BF PUSH1 0x4 DUP1 CALLDATASIZE SUB DUP2 ADD SWAP1 PUSH2 0x5BA SWAP2 SWAP1 PUSH2 0x290B JUMP JUMPDEST PUSH2 0x179E JUMP JUMPDEST STOP JUMPDEST PUSH2 0x5DB PUSH1 0x4 DUP1 CALLDATASIZE SUB DUP2 ADD SWAP1 PUSH2 0x5D6 SWAP2 SWAP1 PUSH2 0x2549 JUMP JUMPDEST PUSH2 0x17BC JUMP JUMPDEST STOP JUMPDEST PUSH1 0x60 PUSH1 0x3 DUP1 SLOAD PUSH2 0x5EC SWAP1 PUSH2 0x29A9 JUMP JUMPDEST DUP1 PUSH1 0x1F ADD PUSH1 0x20 DUP1 SWAP2 DIV MUL PUSH1 0x20 ADD PUSH1 0x40 MLOAD SWAP1 DUP2 ADD PUSH1 0x40 MSTORE DUP1 SWAP3 SWAP2 SWAP1 DUP2 DUP2 MSTORE PUSH1 0x20 ADD DUP3 DUP1 SLOAD PUSH2 0x618 SWAP1 PUSH2 0x29A9 JUMP JUMPDEST DUP1 ISZERO PUSH2 0x665 JUMPI DUP1 PUSH1 0x1F LT PUSH2 0x63A JUMPI PUSH2 0x100 DUP1 DUP4 SLOAD DIV MUL DUP4 MSTORE SWAP2 PUSH1 0x20 ADD SWAP2 PUSH2 0x665 JUMP JUMPDEST DUP3 ADD SWAP2 SWAP1 PUSH1 0x0 MSTORE PUSH1 0x20 PUSH1 0x0 KECCAK256 SWAP1 JUMPDEST DUP2 SLOAD DUP2 MSTORE SWAP1 PUSH1 0x1 ADD SWAP1 PUSH1 0x20 ADD DUP1 DUP4 GT PUSH2 0x648 JUMPI DUP3 SWAP1 SUB PUSH1 0x1F AND DUP3 ADD SWAP2 JUMPDEST POP POP POP POP POP SWAP1 POP SWAP1 JUMP JUMPDEST PUSH1 0x0 DUP1 PUSH2 0x67A PUSH2 0x18B3 JUMP JUMPDEST SWAP1 POP PUSH2 0x687 DUP2 DUP6 DUP6 PUSH2 0x18BB JUMP JUMPDEST PUSH1 0x1 SWAP2 POP POP SWAP3 SWAP2 POP POP JUMP JUMPDEST PUSH1 0x0 PUSH1 0x2 SLOAD SWAP1 POP SWAP1 JUMP JUMPDEST PUSH1 0x9 PUSH1 0x20 MSTORE DUP1 PUSH1 0x0 MSTORE PUSH1 0x40 PUSH1 0x0 KECCAK256 PUSH1 0x0 SWAP2 POP SLOAD SWAP1 PUSH2 0x100 EXP SWAP1 DIV PUSH20 0xFFFFFFFFFFFFFFFFFFFFFFFFFFFFFFFFFFFFFFFF AND DUP2 JUMP JUMPDEST PUSH1 0x0 DUP1 PUSH2 0x6DA PUSH2 0x18B3 JUMP JUMPDEST SWAP1 POP PUSH2 0x6E7 DUP6 DUP3 DUP6 PUSH2 0x1A84 JUMP JUMPDEST PUSH2 0x6F2 DUP6 DUP6 DUP6 PUSH2 0x1B10 JUMP JUMPDEST PUSH1 0x1 SWAP2 POP POP SWAP4 SWAP3 POP POP POP JUMP JUMPDEST PUSH1 0x8 SLOAD DUP2 JUMP JUMPDEST PUSH1 0x0 PUSH1 0xA PUSH1 0x0 CALLER PUSH20 0xFFFFFFFFFFFFFFFFFFFFFFFFFFFFFFFFFFFFFFFF AND PUSH20 0xFFFFFFFFFFFFFFFFFFFFFFFFFFFFFFFFFFFFFFFF AND DUP2 MSTORE PUSH1 0x20 ADD SWAP1 DUP2 MSTORE PUSH1 0x20 ADD PUSH1 0x0 KECCAK256 PUSH1 0x0 ADD SLOAD GT PUSH2 0x789 JUMPI PUSH1 0x40 MLOAD PUSH32 0x8C379A000000000000000000000000000000000000000000000000000000000 DUP2 MSTORE PUSH1 0x4 ADD PUSH2 0x780 SWAP1 PUSH2 0x2A26 JUMP JUMPDEST PUSH1 0x40 MLOAD DUP1 SWAP2 SUB SWAP1 REVERT JUMPDEST CALLER PUSH20 0xFFFFFFFFFFFFFFFFFFFFFFFFFFFFFFFFFFFFFFFF AND PUSH1 0x9 PUSH1 0x0 DUP4 DUP2 MSTORE PUSH1 0x20 ADD SWAP1 DUP2 MSTORE PUSH1 0x20 ADD PUSH1 0x0 KECCAK256 PUSH1 0x0 SWAP1 SLOAD SWAP1 PUSH2 0x100 EXP SWAP1 DIV PUSH20 0xFFFFFFFFFFFFFFFFFFFFFFFFFFFFFFFFFFFFFFFF AND PUSH20 0xFFFFFFFFFFFFFFFFFFFFFFFFFFFFFFFFFFFFFFFF AND EQ PUSH2 0x82A JUMPI PUSH1 0x40 MLOAD PUSH32 0x8C379A000000000000000000000000000000000000000000000000000000000 DUP2 MSTORE PUSH1 0x4 ADD PUSH2 0x821 SWAP1 PUSH2 0x2A92 JUMP JUMPDEST PUSH1 0x40 MLOAD DUP1 SWAP2 SUB SWAP1 REVERT JUMPDEST PUSH2 0x83C CALLER PUSH2 0x837 CALLER PUSH2 0x100C JUMP JUMPDEST PUSH2 0x1D8F JUMP JUMPDEST PUSH1 0x0 DUP1 JUMPDEST PUSH1 0xA PUSH1 0x0 CALLER PUSH20 0xFFFFFFFFFFFFFFFFFFFFFFFFFFFFFFFFFFFFFFFF AND PUSH20 0xFFFFFFFFFFFFFFFFFFFFFFFFFFFFFFFFFFFFFFFF AND DUP2 MSTORE PUSH1 0x20 ADD SWAP1 DUP2 MSTORE PUSH1 0x20 ADD PUSH1 0x0 KECCAK256 PUSH1 0x1 ADD DUP1 SLOAD SWAP1 POP DUP2 LT ISZERO PUSH2 0x914 JUMPI DUP3 PUSH1 0xA PUSH1 0x0 CALLER PUSH20 0xFFFFFFFFFFFFFFFFFFFFFFFFFFFFFFFFFFFFFFFF AND PUSH20 0xFFFFFFFFFFFFFFFFFFFFFFFFFFFFFFFFFFFFFFFF AND DUP2 MSTORE PUSH1 0x20 ADD SWAP1 DUP2 MSTORE PUSH1 0x20 ADD PUSH1 0x0 KECCAK256 PUSH1 0x1 ADD DUP3 DUP2 SLOAD DUP2 LT PUSH2 0x8E2 JUMPI PUSH2 0x8E1 PUSH2 0x2AB2 JUMP JUMPDEST JUMPDEST SWAP1 PUSH1 0x0 MSTORE PUSH1 0x20 PUSH1 0x0 KECCAK256 SWAP1 PUSH1 0x2 MUL ADD PUSH1 0x1 ADD SLOAD SUB PUSH2 0x901 JUMPI DUP1 SWAP2 POP PUSH2 0x914 JUMP JUMPDEST DUP1 DUP1 PUSH2 0x90C SWAP1 PUSH2 0x2B10 JUMP JUMPDEST SWAP2 POP POP PUSH2 0x840 JUMP JUMPDEST POP PUSH1 0x0 PUSH1 0xA PUSH1 0x0 CALLER PUSH20 0xFFFFFFFFFFFFFFFFFFFFFFFFFFFFFFFFFFFFFFFF AND PUSH20 0xFFFFFFFFFFFFFFFFFFFFFFFFFFFFFFFFFFFFFFFF AND DUP2 MSTORE PUSH1 0x20 ADD SWAP1 DUP2 MSTORE PUSH1 0x20 ADD PUSH1 0x0 KECCAK256 PUSH1 0x1 ADD DUP3 DUP2 SLOAD DUP2 LT PUSH2 0x96B JUMPI PUSH2 0x96A PUSH2 0x2AB2 JUMP JUMPDEST JUMPDEST SWAP1 PUSH1 0x0 MSTORE PUSH1 0x20 PUSH1 0x0 KECCAK256 SWAP1 PUSH1 0x2 MUL ADD PUSH1 0x0 ADD PUSH1 0x0 PUSH2 0x100 EXP DUP2 SLOAD DUP2 PUSH20 0xFFFFFFFFFFFFFFFFFFFFFFFFFFFFFFFFFFFFFFFF MUL NOT AND SWAP1 DUP4 PUSH20 0xFFFFFFFFFFFFFFFFFFFFFFFFFFFFFFFFFFFFFFFF AND MUL OR SWAP1 SSTORE POP PUSH1 0xA PUSH1 0x0 CALLER PUSH20 0xFFFFFFFFFFFFFFFFFFFFFFFFFFFFFFFFFFFFFFFF AND PUSH20 0xFFFFFFFFFFFFFFFFFFFFFFFFFFFFFFFFFFFFFFFF AND DUP2 MSTORE PUSH1 0x20 ADD SWAP1 DUP2 MSTORE PUSH1 0x20 ADD PUSH1 0x0 KECCAK256 PUSH1 0x0 ADD PUSH1 0x0 DUP2 SLOAD DUP1 SWAP3 SWAP2 SWAP1 PUSH2 0xA0D SWAP1 PUSH2 0x2B58 JUMP JUMPDEST SWAP2 SWAP1 POP SSTORE POP PUSH1 0x9 PUSH1 0x0 DUP4 DUP2 MSTORE PUSH1 0x20 ADD SWAP1 DUP2 MSTORE PUSH1 0x20 ADD PUSH1 0x0 KECCAK256 PUSH1 0x0 PUSH2 0x100 EXP DUP2 SLOAD SWAP1 PUSH20 0xFFFFFFFFFFFFFFFFFFFFFFFFFFFFFFFFFFFFFFFF MUL NOT AND SWAP1 SSTORE PUSH1 0x6 PUSH1 0x0 SWAP1 SLOAD SWAP1 PUSH2 0x100 EXP SWAP1 DIV PUSH20 0xFFFFFFFFFFFFFFFFFFFFFFFFFFFFFFFFFFFFFFFF AND PUSH20 0xFFFFFFFFFFFFFFFFFFFFFFFFFFFFFFFFFFFFFFFF AND PUSH4 0x23B872DD ADDRESS CALLER DUP6 PUSH1 0x40 MLOAD DUP5 PUSH4 0xFFFFFFFF AND PUSH1 0xE0 SHL DUP2 MSTORE PUSH1 0x4 ADD PUSH2 0xAA7 SWAP4 SWAP3 SWAP2 SWAP1 PUSH2 0x2B81 JUMP JUMPDEST PUSH1 0x0 PUSH1 0x40 MLOAD DUP1 DUP4 SUB DUP2 PUSH1 0x0 DUP8 DUP1 EXTCODESIZE ISZERO DUP1 ISZERO PUSH2 0xAC1 JUMPI PUSH1 0x0 DUP1 REVERT JUMPDEST POP GAS CALL ISZERO DUP1 ISZERO PUSH2 0xAD5 JUMPI RETURNDATASIZE PUSH1 0x0 DUP1 RETURNDATACOPY RETURNDATASIZE PUSH1 0x0 REVERT JUMPDEST POP POP POP POP TIMESTAMP PUSH1 0xA PUSH1 0x0 CALLER PUSH20 0xFFFFFFFFFFFFFFFFFFFFFFFFFFFFFFFFFFFFFFFF AND PUSH20 0xFFFFFFFFFFFFFFFFFFFFFFFFFFFFFFFFFFFFFFFF AND DUP2 MSTORE PUSH1 0x20 ADD SWAP1 DUP2 MSTORE PUSH1 0x20 ADD PUSH1 0x0 KECCAK256 PUSH1 0x2 ADD DUP2 SWAP1 SSTORE POP POP POP JUMP JUMPDEST PUSH1 0x0 PUSH1 0x12 SWAP1 POP SWAP1 JUMP JUMPDEST PUSH1 0x0 DUP1 PUSH2 0xB38 PUSH2 0x18B3 JUMP JUMPDEST SWAP1 POP PUSH2 0xB59 DUP2 DUP6 DUP6 PUSH2 0xB4A DUP6 DUP10 PUSH2 0x1717 JUMP JUMPDEST PUSH2 0xB54 SWAP2 SWAP1 PUSH2 0x2BB8 JUMP JUMPDEST PUSH2 0x18BB JUMP JUMPDEST PUSH1 0x1 SWAP2 POP POP SWAP3 SWAP2 POP POP JUMP JUMPDEST PUSH1 0x0 PUSH2 0xB6E PUSH2 0x18B3 JUMP JUMPDEST SWAP1 POP PUSH2 0xB8B DUP2 DUP5 DUP5 PUSH1 0x40 MLOAD DUP1 PUSH1 0x20 ADD PUSH1 0x40 MSTORE DUP1 PUSH1 0x0 DUP2 MSTORE POP PUSH2 0x1EEE JUMP JUMPDEST POP POP POP JUMP JUMPDEST PUSH1 0x0 PUSH2 0xB9A PUSH2 0x18B3 JUMP JUMPDEST SWAP1 POP PUSH2 0xBA7 DUP5 DUP3 DUP5 PUSH2 0x1A84 JUMP JUMPDEST PUSH2 0xBC2 DUP5 DUP5 DUP5 PUSH1 0x40 MLOAD DUP1 PUSH1 0x20 ADD PUSH1 0x40 MSTORE DUP1 PUSH1 0x0 DUP2 MSTORE POP PUSH2 0x1EEE JUMP JUMPDEST POP POP POP POP JUMP JUMPDEST PUSH1 0x6 PUSH1 0x0 SWAP1 SLOAD SWAP1 PUSH2 0x100 EXP SWAP1 DIV PUSH20 0xFFFFFFFFFFFFFFFFFFFFFFFFFFFFFFFFFFFFFFFF AND DUP2 JUMP JUMPDEST PUSH1 0x0 PUSH2 0xBF9 CALLER PUSH2 0x100C JUMP JUMPDEST SWAP1 POP PUSH1 0x0 DUP2 GT PUSH2 0xC3E JUMPI PUSH1 0x40 MLOAD PUSH32 0x8C379A000000000000000000000000000000000000000000000000000000000 DUP2 MSTORE PUSH1 0x4 ADD PUSH2 0xC35 SWAP1 PUSH2 0x2C38 JUMP JUMPDEST PUSH1 0x40 MLOAD DUP1 SWAP2 SUB SWAP1 REVERT JUMPDEST TIMESTAMP PUSH1 0xA PUSH1 0x0 CALLER PUSH20 0xFFFFFFFFFFFFFFFFFFFFFFFFFFFFFFFFFFFFFFFF AND PUSH20 0xFFFFFFFFFFFFFFFFFFFFFFFFFFFFFFFFFFFFFFFF AND DUP2 MSTORE PUSH1 0x20 ADD SWAP1 DUP2 MSTORE PUSH1 0x20 ADD PUSH1 0x0 KECCAK256 PUSH1 0x2 ADD DUP2 SWAP1 SSTORE POP PUSH2 0xC8F CALLER DUP3 PUSH2 0x1D8F JUMP JUMPDEST POP JUMP JUMPDEST PUSH1 0x60 PUSH1 0x0 PUSH1 0xA PUSH1 0x0 DUP5 PUSH20 0xFFFFFFFFFFFFFFFFFFFFFFFFFFFFFFFFFFFFFFFF AND PUSH20 0xFFFFFFFFFFFFFFFFFFFFFFFFFFFFFFFFFFFFFFFF AND DUP2 MSTORE PUSH1 0x20 ADD SWAP1 DUP2 MSTORE PUSH1 0x20 ADD PUSH1 0x0 KECCAK256 PUSH1 0x0 ADD SLOAD GT ISZERO PUSH2 0xF9B JUMPI PUSH1 0x0 PUSH1 0xA PUSH1 0x0 DUP5 PUSH20 0xFFFFFFFFFFFFFFFFFFFFFFFFFFFFFFFFFFFFFFFF AND PUSH20 0xFFFFFFFFFFFFFFFFFFFFFFFFFFFFFFFFFFFFFFFF AND DUP2 MSTORE PUSH1 0x20 ADD SWAP1 DUP2 MSTORE PUSH1 0x20 ADD PUSH1 0x0 KECCAK256 PUSH1 0x0 ADD SLOAD PUSH8 0xFFFFFFFFFFFFFFFF DUP2 GT ISZERO PUSH2 0xD3D JUMPI PUSH2 0xD3C PUSH2 0x269E JUMP JUMPDEST JUMPDEST PUSH1 0x40 MLOAD SWAP1 DUP1 DUP3 MSTORE DUP1 PUSH1 0x20 MUL PUSH1 0x20 ADD DUP3 ADD PUSH1 0x40 MSTORE DUP1 ISZERO PUSH2 0xD76 JUMPI DUP2 PUSH1 0x20 ADD JUMPDEST PUSH2 0xD63 PUSH2 0x21C4 JUMP JUMPDEST DUP2 MSTORE PUSH1 0x20 ADD SWAP1 PUSH1 0x1 SWAP1 SUB SWAP1 DUP2 PUSH2 0xD5B JUMPI SWAP1 POP JUMPDEST POP SWAP1 POP PUSH1 0x0 DUP1 JUMPDEST PUSH1 0xA PUSH1 0x0 DUP7 PUSH20 0xFFFFFFFFFFFFFFFFFFFFFFFFFFFFFFFFFFFFFFFF AND PUSH20 0xFFFFFFFFFFFFFFFFFFFFFFFFFFFFFFFFFFFFFFFF AND DUP2 MSTORE PUSH1 0x20 ADD SWAP1 DUP2 MSTORE PUSH1 0x20 ADD PUSH1 0x0 KECCAK256 PUSH1 0x1 ADD DUP1 SLOAD SWAP1 POP DUP2 LT ISZERO PUSH2 0xF90 JUMPI PUSH1 0x0 PUSH20 0xFFFFFFFFFFFFFFFFFFFFFFFFFFFFFFFFFFFFFFFF AND PUSH1 0xA PUSH1 0x0 DUP8 PUSH20 0xFFFFFFFFFFFFFFFFFFFFFFFFFFFFFFFFFFFFFFFF AND PUSH20 0xFFFFFFFFFFFFFFFFFFFFFFFFFFFFFFFFFFFFFFFF AND DUP2 MSTORE PUSH1 0x20 ADD SWAP1 DUP2 MSTORE PUSH1 0x20 ADD PUSH1 0x0 KECCAK256 PUSH1 0x1 ADD DUP3 DUP2 SLOAD DUP2 LT PUSH2 0xE36 JUMPI PUSH2 0xE35 PUSH2 0x2AB2 JUMP JUMPDEST JUMPDEST SWAP1 PUSH1 0x0 MSTORE PUSH1 0x20 PUSH1 0x0 KECCAK256 SWAP1 PUSH1 0x2 MUL ADD PUSH1 0x0 ADD PUSH1 0x0 SWAP1 SLOAD SWAP1 PUSH2 0x100 EXP SWAP1 DIV PUSH20 0xFFFFFFFFFFFFFFFFFFFFFFFFFFFFFFFFFFFFFFFF AND PUSH20 0xFFFFFFFFFFFFFFFFFFFFFFFFFFFFFFFFFFFFFFFF AND EQ PUSH2 0xF7D JUMPI PUSH1 0xA PUSH1 0x0 DUP7 PUSH20 0xFFFFFFFFFFFFFFFFFFFFFFFFFFFFFFFFFFFFFFFF AND PUSH20 0xFFFFFFFFFFFFFFFFFFFFFFFFFFFFFFFFFFFFFFFF AND DUP2 MSTORE PUSH1 0x20 ADD SWAP1 DUP2 MSTORE PUSH1 0x20 ADD PUSH1 0x0 KECCAK256 PUSH1 0x1 ADD DUP2 DUP2 SLOAD DUP2 LT PUSH2 0xED7 JUMPI PUSH2 0xED6 PUSH2 0x2AB2 JUMP JUMPDEST JUMPDEST SWAP1 PUSH1 0x0 MSTORE PUSH1 0x20 PUSH1 0x0 KECCAK256 SWAP1 PUSH1 0x2 MUL ADD PUSH1 0x40 MLOAD DUP1 PUSH1 0x40 ADD PUSH1 0x40 MSTORE SWAP1 DUP2 PUSH1 0x0 DUP3 ADD PUSH1 0x0 SWAP1 SLOAD SWAP1 PUSH2 0x100 EXP SWAP1 DIV PUSH20 0xFFFFFFFFFFFFFFFFFFFFFFFFFFFFFFFFFFFFFFFF AND PUSH20 0xFFFFFFFFFFFFFFFFFFFFFFFFFFFFFFFFFFFFFFFF AND PUSH20 0xFFFFFFFFFFFFFFFFFFFFFFFFFFFFFFFFFFFFFFFF AND DUP2 MSTORE PUSH1 0x20 ADD PUSH1 0x1 DUP3 ADD SLOAD DUP2 MSTORE POP POP DUP4 DUP4 DUP2 MLOAD DUP2 LT PUSH2 0xF63 JUMPI PUSH2 0xF62 PUSH2 0x2AB2 JUMP JUMPDEST JUMPDEST PUSH1 0x20 MUL PUSH1 0x20 ADD ADD DUP2 SWAP1 MSTORE POP DUP2 DUP1 PUSH2 0xF79 SWAP1 PUSH2 0x2B10 JUMP JUMPDEST SWAP3 POP POP JUMPDEST DUP1 DUP1 PUSH2 0xF88 SWAP1 PUSH2 0x2B10 JUMP JUMPDEST SWAP2 POP POP PUSH2 0xD7D JUMP JUMPDEST POP DUP2 SWAP3 POP POP POP PUSH2 0xFF3 JUMP JUMPDEST PUSH1 0x0 PUSH8 0xFFFFFFFFFFFFFFFF DUP2 GT ISZERO PUSH2 0xFB6 JUMPI PUSH2 0xFB5 PUSH2 0x269E JUMP JUMPDEST JUMPDEST PUSH1 0x40 MLOAD SWAP1 DUP1 DUP3 MSTORE DUP1 PUSH1 0x20 MUL PUSH1 0x20 ADD DUP3 ADD PUSH1 0x40 MSTORE DUP1 ISZERO PUSH2 0xFEF JUMPI DUP2 PUSH1 0x20 ADD JUMPDEST PUSH2 0xFDC PUSH2 0x21C4 JUMP JUMPDEST DUP2 MSTORE PUSH1 0x20 ADD SWAP1 PUSH1 0x1 SWAP1 SUB SWAP1 DUP2 PUSH2 0xFD4 JUMPI SWAP1 POP JUMPDEST POP SWAP1 POP JUMPDEST SWAP2 SWAP1 POP JUMP JUMPDEST PUSH1 0x0 PUSH4 0x6745782B PUSH1 0xE0 SHL SWAP1 POP SWAP5 SWAP4 POP POP POP POP JUMP JUMPDEST PUSH1 0x0 DUP1 PUSH1 0xA PUSH1 0x0 DUP5 PUSH20 0xFFFFFFFFFFFFFFFFFFFFFFFFFFFFFFFFFFFFFFFF AND PUSH20 0xFFFFFFFFFFFFFFFFFFFFFFFFFFFFFFFFFFFFFFFF AND DUP2 MSTORE PUSH1 0x20 ADD SWAP1 DUP2 MSTORE PUSH1 0x20 ADD PUSH1 0x0 KECCAK256 PUSH1 0x0 ADD SLOAD PUSH1 0xA PUSH1 0x0 DUP6 PUSH20 0xFFFFFFFFFFFFFFFFFFFFFFFFFFFFFFFFFFFFFFFF AND PUSH20 0xFFFFFFFFFFFFFFFFFFFFFFFFFFFFFFFFFFFFFFFF AND DUP2 MSTORE PUSH1 0x20 ADD SWAP1 DUP2 MSTORE PUSH1 0x20 ADD PUSH1 0x0 KECCAK256 PUSH1 0x2 ADD SLOAD TIMESTAMP PUSH2 0x10A0 SWAP2 SWAP1 PUSH2 0x2C58 JUMP JUMPDEST PUSH2 0x10AA SWAP2 SWAP1 PUSH2 0x2C8C JUMP JUMPDEST SWAP1 POP PUSH1 0x8 SLOAD DUP2 PUSH2 0x10BA SWAP2 SWAP1 PUSH2 0x2C8C JUMP JUMPDEST SWAP2 POP POP SWAP2 SWAP1 POP JUMP JUMPDEST PUSH1 0x0 DUP1 PUSH1 0x0 DUP4 PUSH20 0xFFFFFFFFFFFFFFFFFFFFFFFFFFFFFFFFFFFFFFFF AND PUSH20 0xFFFFFFFFFFFFFFFFFFFFFFFFFFFFFFFFFFFFFFFF AND DUP2 MSTORE PUSH1 0x20 ADD SWAP1 DUP2 MSTORE PUSH1 0x20 ADD PUSH1 0x0 KECCAK256 SLOAD SWAP1 POP SWAP2 SWAP1 POP JUMP JUMPDEST PUSH2 0x1112 PUSH2 0x18B3 JUMP JUMPDEST PUSH20 0xFFFFFFFFFFFFFFFFFFFFFFFFFFFFFFFFFFFFFFFF AND PUSH2 0x1130 PUSH2 0x1192 JUMP JUMPDEST PUSH20 0xFFFFFFFFFFFFFFFFFFFFFFFFFFFFFFFFFFFFFFFF AND EQ PUSH2 0x1186 JUMPI PUSH1 0x40 MLOAD PUSH32 0x8C379A000000000000000000000000000000000000000000000000000000000 DUP2 MSTORE PUSH1 0x4 ADD PUSH2 0x117D SWAP1 PUSH2 0x2D1A JUMP JUMPDEST PUSH1 0x40 MLOAD DUP1 SWAP2 SUB SWAP1 REVERT JUMPDEST PUSH2 0x1190 PUSH1 0x0 PUSH2 0x1F4A JUMP JUMPDEST JUMP JUMPDEST PUSH1 0x0 PUSH1 0x5 PUSH1 0x0 SWAP1 SLOAD SWAP1 PUSH2 0x100 EXP SWAP1 DIV PUSH20 0xFFFFFFFFFFFFFFFFFFFFFFFFFFFFFFFFFFFFFFFF AND SWAP1 POP SWAP1 JUMP JUMPDEST PUSH1 0xA PUSH1 0x20 MSTORE DUP1 PUSH1 0x0 MSTORE PUSH1 0x40 PUSH1 0x0 KECCAK256 PUSH1 0x0 SWAP2 POP SWAP1 POP DUP1 PUSH1 0x0 ADD SLOAD SWAP1 DUP1 PUSH1 0x2 ADD SLOAD SWAP1 POP DUP3 JUMP JUMPDEST PUSH1 0x60 PUSH1 0x4 DUP1 SLOAD PUSH2 0x11EF SWAP1 PUSH2 0x29A9 JUMP JUMPDEST DUP1 PUSH1 0x1F ADD PUSH1 0x20 DUP1 SWAP2 DIV MUL PUSH1 0x20 ADD PUSH1 0x40 MLOAD SWAP1 DUP2 ADD PUSH1 0x40 MSTORE DUP1 SWAP3 SWAP2 SWAP1 DUP2 DUP2 MSTORE PUSH1 0x20 ADD DUP3 DUP1 SLOAD PUSH2 0x121B SWAP1 PUSH2 0x29A9 JUMP JUMPDEST DUP1 ISZERO PUSH2 0x1268 JUMPI DUP1 PUSH1 0x1F LT PUSH2 0x123D JUMPI PUSH2 0x100 DUP1 DUP4 SLOAD DIV MUL DUP4 MSTORE SWAP2 PUSH1 0x20 ADD SWAP2 PUSH2 0x1268 JUMP JUMPDEST DUP3 ADD SWAP2 SWAP1 PUSH1 0x0 MSTORE PUSH1 0x20 PUSH1 0x0 KECCAK256 SWAP1 JUMPDEST DUP2 SLOAD DUP2 MSTORE SWAP1 PUSH1 0x1 ADD SWAP1 PUSH1 0x20 ADD DUP1 DUP4 GT PUSH2 0x124B JUMPI DUP3 SWAP1 SUB PUSH1 0x1F AND DUP3 ADD SWAP2 JUMPDEST POP POP POP POP POP SWAP1 POP SWAP1 JUMP JUMPDEST PUSH1 0x0 DUP1 PUSH2 0x127D PUSH2 0x18B3 JUMP JUMPDEST SWAP1 POP PUSH1 0x0 PUSH2 0x128B DUP3 DUP7 PUSH2 0x1717 JUMP JUMPDEST SWAP1 POP DUP4 DUP2 LT ISZERO PUSH2 0x12D0 JUMPI PUSH1 0x40 MLOAD PUSH32 0x8C379A000000000000000000000000000000000000000000000000000000000 DUP2 MSTORE PUSH1 0x4 ADD PUSH2 0x12C7 SWAP1 PUSH2 0x2DAC JUMP JUMPDEST PUSH1 0x40 MLOAD DUP1 SWAP2 SUB SWAP1 REVERT JUMPDEST PUSH2 0x12DD DUP3 DUP7 DUP7 DUP5 SUB PUSH2 0x18BB JUMP JUMPDEST PUSH1 0x1 SWAP3 POP POP POP SWAP3 SWAP2 POP POP JUMP JUMPDEST CALLER PUSH20 0xFFFFFFFFFFFFFFFFFFFFFFFFFFFFFFFFFFFFFFFF AND PUSH1 0x6 PUSH1 0x0 SWAP1 SLOAD SWAP1 PUSH2 0x100 EXP SWAP1 DIV PUSH20 0xFFFFFFFFFFFFFFFFFFFFFFFFFFFFFFFFFFFFFFFF AND PUSH20 0xFFFFFFFFFFFFFFFFFFFFFFFFFFFFFFFFFFFFFFFF AND PUSH4 0x6352211E DUP4 PUSH1 0x40 MLOAD DUP3 PUSH4 0xFFFFFFFF AND PUSH1 0xE0 SHL DUP2 MSTORE PUSH1 0x4 ADD PUSH2 0x135B SWAP2 SWAP1 PUSH2 0x23D3 JUMP JUMPDEST PUSH1 0x20 PUSH1 0x40 MLOAD DUP1 DUP4 SUB DUP2 DUP7 GAS STATICCALL ISZERO DUP1 ISZERO PUSH2 0x1378 JUMPI RETURNDATASIZE PUSH1 0x0 DUP1 RETURNDATACOPY RETURNDATASIZE PUSH1 0x0 REVERT JUMPDEST POP POP POP POP PUSH1 0x40 MLOAD RETURNDATASIZE PUSH1 0x1F NOT PUSH1 0x1F DUP3 ADD AND DUP3 ADD DUP1 PUSH1 0x40 MSTORE POP DUP2 ADD SWAP1 PUSH2 0x139C SWAP2 SWAP1 PUSH2 0x2DE1 JUMP JUMPDEST PUSH20 0xFFFFFFFFFFFFFFFFFFFFFFFFFFFFFFFFFFFFFFFF AND EQ PUSH2 0x13F2 JUMPI PUSH1 0x40 MLOAD PUSH32 0x8C379A000000000000000000000000000000000000000000000000000000000 DUP2 MSTORE PUSH1 0x4 ADD PUSH2 0x13E9 SWAP1 PUSH2 0x2E5A JUMP JUMPDEST PUSH1 0x40 MLOAD DUP1 SWAP2 SUB SWAP1 REVERT JUMPDEST PUSH1 0x0 PUSH1 0xA PUSH1 0x0 CALLER PUSH20 0xFFFFFFFFFFFFFFFFFFFFFFFFFFFFFFFFFFFFFFFF AND PUSH20 0xFFFFFFFFFFFFFFFFFFFFFFFFFFFFFFFFFFFFFFFF AND DUP2 MSTORE PUSH1 0x20 ADD SWAP1 DUP2 MSTORE PUSH1 0x20 ADD PUSH1 0x0 KECCAK256 PUSH1 0x0 ADD SLOAD GT ISZERO PUSH2 0x1450 JUMPI PUSH2 0x144F CALLER PUSH2 0x144A CALLER PUSH2 0x100C JUMP JUMPDEST PUSH2 0x1D8F JUMP JUMPDEST JUMPDEST PUSH1 0x6 PUSH1 0x0 SWAP1 SLOAD SWAP1 PUSH2 0x100 EXP SWAP1 DIV PUSH20 0xFFFFFFFFFFFFFFFFFFFFFFFFFFFFFFFFFFFFFFFF AND PUSH20 0xFFFFFFFFFFFFFFFFFFFFFFFFFFFFFFFFFFFFFFFF AND PUSH4 0x42842E0E CALLER ADDRESS DUP5 PUSH1 0x40 MLOAD DUP5 PUSH4 0xFFFFFFFF AND PUSH1 0xE0 SHL DUP2 MSTORE PUSH1 0x4 ADD PUSH2 0x14AF SWAP4 SWAP3 SWAP2 SWAP1 PUSH2 0x2B81 JUMP JUMPDEST PUSH1 0x0 PUSH1 0x40 MLOAD DUP1 DUP4 SUB DUP2 PUSH1 0x0 DUP8 DUP1 EXTCODESIZE ISZERO DUP1 ISZERO PUSH2 0x14C9 JUMPI PUSH1 0x0 DUP1 REVERT JUMPDEST POP GAS CALL ISZERO DUP1 ISZERO PUSH2 0x14DD JUMPI RETURNDATASIZE PUSH1 0x0 DUP1 RETURNDATACOPY RETURNDATASIZE PUSH1 0x0 REVERT JUMPDEST POP POP POP POP PUSH1 0x0 PUSH1 0x40 MLOAD DUP1 PUSH1 0x40 ADD PUSH1 0x40 MSTORE DUP1 CALLER PUSH20 0xFFFFFFFFFFFFFFFFFFFFFFFFFFFFFFFFFFFFFFFF AND DUP2 MSTORE PUSH1 0x20 ADD DUP4 DUP2 MSTORE POP SWAP1 POP PUSH1 0xA PUSH1 0x0 CALLER PUSH20 0xFFFFFFFFFFFFFFFFFFFFFFFFFFFFFFFFFFFFFFFF AND PUSH20 0xFFFFFFFFFFFFFFFFFFFFFFFFFFFFFFFFFFFFFFFF AND DUP2 MSTORE PUSH1 0x20 ADD SWAP1 DUP2 MSTORE PUSH1 0x20 ADD PUSH1 0x0 KECCAK256 PUSH1 0x1 ADD DUP2 SWAP1 DUP1 PUSH1 0x1 DUP2 SLOAD ADD DUP1 DUP3 SSTORE DUP1 SWAP2 POP POP PUSH1 0x1 SWAP1 SUB SWAP1 PUSH1 0x0 MSTORE PUSH1 0x20 PUSH1 0x0 KECCAK256 SWAP1 PUSH1 0x2 MUL ADD PUSH1 0x0 SWAP1 SWAP2 SWAP1 SWAP2 SWAP1 SWAP2 POP PUSH1 0x0 DUP3 ADD MLOAD DUP2 PUSH1 0x0 ADD PUSH1 0x0 PUSH2 0x100 EXP DUP2 SLOAD DUP2 PUSH20 0xFFFFFFFFFFFFFFFFFFFFFFFFFFFFFFFFFFFFFFFF MUL NOT AND SWAP1 DUP4 PUSH20 0xFFFFFFFFFFFFFFFFFFFFFFFFFFFFFFFFFFFFFFFF AND MUL OR SWAP1 SSTORE POP PUSH1 0x20 DUP3 ADD MLOAD DUP2 PUSH1 0x1 ADD SSTORE POP POP PUSH1 0xA PUSH1 0x0 CALLER PUSH20 0xFFFFFFFFFFFFFFFFFFFFFFFFFFFFFFFFFFFFFFFF AND PUSH20 0xFFFFFFFFFFFFFFFFFFFFFFFFFFFFFFFFFFFFFFFF AND DUP2 MSTORE PUSH1 0x20 ADD SWAP1 DUP2 MSTORE PUSH1 0x20 ADD PUSH1 0x0 KECCAK256 PUSH1 0x0 ADD PUSH1 0x0 DUP2 SLOAD DUP1 SWAP3 SWAP2 SWAP1 PUSH2 0x1622 SWAP1 PUSH2 0x2B10 JUMP JUMPDEST SWAP2 SWAP1 POP SSTORE POP TIMESTAMP PUSH1 0xA PUSH1 0x0 CALLER PUSH20 0xFFFFFFFFFFFFFFFFFFFFFFFFFFFFFFFFFFFFFFFF AND PUSH20 0xFFFFFFFFFFFFFFFFFFFFFFFFFFFFFFFFFFFFFFFF AND DUP2 MSTORE PUSH1 0x20 ADD SWAP1 DUP2 MSTORE PUSH1 0x20 ADD PUSH1 0x0 KECCAK256 PUSH1 0x2 ADD DUP2 SWAP1 SSTORE POP CALLER PUSH1 0x9 PUSH1 0x0 DUP5 DUP2 MSTORE PUSH1 0x20 ADD SWAP1 DUP2 MSTORE PUSH1 0x20 ADD PUSH1 0x0 KECCAK256 PUSH1 0x0 PUSH2 0x100 EXP DUP2 SLOAD DUP2 PUSH20 0xFFFFFFFFFFFFFFFFFFFFFFFFFFFFFFFFFFFFFFFF MUL NOT AND SWAP1 DUP4 PUSH20 0xFFFFFFFFFFFFFFFFFFFFFFFFFFFFFFFFFFFFFFFF AND MUL OR SWAP1 SSTORE POP POP POP JUMP JUMPDEST PUSH1 0x0 DUP1 PUSH2 0x16CF PUSH2 0x18B3 JUMP JUMPDEST SWAP1 POP PUSH2 0x16DC DUP2 DUP6 DUP6 PUSH2 0x1B10 JUMP JUMPDEST PUSH1 0x1 SWAP2 POP POP SWAP3 SWAP2 POP POP JUMP JUMPDEST PUSH1 0x0 PUSH2 0x16F1 PUSH2 0x18B3 JUMP JUMPDEST SWAP1 POP PUSH2 0x16FE DUP6 DUP3 DUP6 PUSH2 0x1A84 JUMP JUMPDEST PUSH2 0x170A DUP6 DUP6 DUP6 DUP6 PUSH2 0x1EEE JUMP JUMPDEST POP POP POP POP POP JUMP JUMPDEST PUSH1 0x7 SLOAD DUP2 JUMP JUMPDEST PUSH1 0x0 PUSH1 0x1 PUSH1 0x0 DUP5 PUSH20 0xFFFFFFFFFFFFFFFFFFFFFFFFFFFFFFFFFFFFFFFF AND PUSH20 0xFFFFFFFFFFFFFFFFFFFFFFFFFFFFFFFFFFFFFFFF AND DUP2 MSTORE PUSH1 0x20 ADD SWAP1 DUP2 MSTORE PUSH1 0x20 ADD PUSH1 0x0 KECCAK256 PUSH1 0x0 DUP4 PUSH20 0xFFFFFFFFFFFFFFFFFFFFFFFFFFFFFFFFFFFFFFFF AND PUSH20 0xFFFFFFFFFFFFFFFFFFFFFFFFFFFFFFFFFFFFFFFF AND DUP2 MSTORE PUSH1 0x20 ADD SWAP1 DUP2 MSTORE PUSH1 0x20 ADD PUSH1 0x0 KECCAK256 SLOAD SWAP1 POP SWAP3 SWAP2 POP POP JUMP JUMPDEST PUSH1 0x0 PUSH2 0x17A8 PUSH2 0x18B3 JUMP JUMPDEST SWAP1 POP PUSH2 0x17B6 DUP2 DUP6 DUP6 DUP6 PUSH2 0x1EEE JUMP JUMPDEST POP POP POP POP JUMP JUMPDEST PUSH2 0x17C4 PUSH2 0x18B3 JUMP JUMPDEST PUSH20 0xFFFFFFFFFFFFFFFFFFFFFFFFFFFFFFFFFFFFFFFF AND PUSH2 0x17E2 PUSH2 0x1192 JUMP JUMPDEST PUSH20 0xFFFFFFFFFFFFFFFFFFFFFFFFFFFFFFFFFFFFFFFF AND EQ PUSH2 0x1838 JUMPI PUSH1 0x40 MLOAD PUSH32 0x8C379A000000000000000000000000000000000000000000000000000000000 DUP2 MSTORE PUSH1 0x4 ADD PUSH2 0x182F SWAP1 PUSH2 0x2D1A JUMP JUMPDEST PUSH1 0x40 MLOAD DUP1 SWAP2 SUB SWAP1 REVERT JUMPDEST PUSH1 0x0 PUSH20 0xFFFFFFFFFFFFFFFFFFFFFFFFFFFFFFFFFFFFFFFF AND DUP2 PUSH20 0xFFFFFFFFFFFFFFFFFFFFFFFFFFFFFFFFFFFFFFFF AND SUB PUSH2 0x18A7 JUMPI PUSH1 0x40 MLOAD PUSH32 0x8C379A000000000000000000000000000000000000000000000000000000000 DUP2 MSTORE PUSH1 0x4 ADD PUSH2 0x189E SWAP1 PUSH2 0x2EEC JUMP JUMPDEST PUSH1 0x40 MLOAD DUP1 SWAP2 SUB SWAP1 REVERT JUMPDEST PUSH2 0x18B0 DUP2 PUSH2 0x1F4A JUMP JUMPDEST POP JUMP JUMPDEST PUSH1 0x0 CALLER SWAP1 POP SWAP1 JUMP JUMPDEST PUSH1 0x0 PUSH20 0xFFFFFFFFFFFFFFFFFFFFFFFFFFFFFFFFFFFFFFFF AND DUP4 PUSH20 0xFFFFFFFFFFFFFFFFFFFFFFFFFFFFFFFFFFFFFFFF AND SUB PUSH2 0x192A JUMPI PUSH1 0x40 MLOAD PUSH32 0x8C379A000000000000000000000000000000000000000000000000000000000 DUP2 MSTORE PUSH1 0x4 ADD PUSH2 0x1921 SWAP1 PUSH2 0x2F7E JUMP JUMPDEST PUSH1 0x40 MLOAD DUP1 SWAP2 SUB SWAP1 REVERT JUMPDEST PUSH1 0x0 PUSH20 0xFFFFFFFFFFFFFFFFFFFFFFFFFFFFFFFFFFFFFFFF AND DUP3 PUSH20 0xFFFFFFFFFFFFFFFFFFFFFFFFFFFFFFFFFFFFFFFF AND SUB PUSH2 0x1999 JUMPI PUSH1 0x40 MLOAD PUSH32 0x8C379A000000000000000000000000000000000000000000000000000000000 DUP2 MSTORE PUSH1 0x4 ADD PUSH2 0x1990 SWAP1 PUSH2 0x3010 JUMP JUMPDEST PUSH1 0x40 MLOAD DUP1 SWAP2 SUB SWAP1 REVERT JUMPDEST DUP1 PUSH1 0x1 PUSH1 0x0 DUP6 PUSH20 0xFFFFFFFFFFFFFFFFFFFFFFFFFFFFFFFFFFFFFFFF AND PUSH20 0xFFFFFFFFFFFFFFFFFFFFFFFFFFFFFFFFFFFFFFFF AND DUP2 MSTORE PUSH1 0x20 ADD SWAP1 DUP2 MSTORE PUSH1 0x20 ADD PUSH1 0x0 KECCAK256 PUSH1 0x0 DUP5 PUSH20 0xFFFFFFFFFFFFFFFFFFFFFFFFFFFFFFFFFFFFFFFF AND PUSH20 0xFFFFFFFFFFFFFFFFFFFFFFFFFFFFFFFFFFFFFFFF AND DUP2 MSTORE PUSH1 0x20 ADD SWAP1 DUP2 MSTORE PUSH1 0x20 ADD PUSH1 0x0 KECCAK256 DUP2 SWAP1 SSTORE POP DUP2 PUSH20 0xFFFFFFFFFFFFFFFFFFFFFFFFFFFFFFFFFFFFFFFF AND DUP4 PUSH20 0xFFFFFFFFFFFFFFFFFFFFFFFFFFFFFFFFFFFFFFFF AND PUSH32 0x8C5BE1E5EBEC7D5BD14F71427D1E84F3DD0314C0F7B2291E5B200AC8C7C3B925 DUP4 PUSH1 0x40 MLOAD PUSH2 0x1A77 SWAP2 SWAP1 PUSH2 0x23D3 JUMP JUMPDEST PUSH1 0x40 MLOAD DUP1 SWAP2 SUB SWAP1 LOG3 POP POP POP JUMP JUMPDEST PUSH1 0x0 PUSH2 0x1A90 DUP5 DUP5 PUSH2 0x1717 JUMP JUMPDEST SWAP1 POP PUSH32 0xFFFFFFFFFFFFFFFFFFFFFFFFFFFFFFFFFFFFFFFFFFFFFFFFFFFFFFFFFFFFFFFF DUP2 EQ PUSH2 0x1B0A JUMPI DUP2 DUP2 LT ISZERO PUSH2 0x1AFC JUMPI PUSH1 0x40 MLOAD PUSH32 0x8C379A000000000000000000000000000000000000000000000000000000000 DUP2 MSTORE PUSH1 0x4 ADD PUSH2 0x1AF3 SWAP1 PUSH2 0x307C JUMP JUMPDEST PUSH1 0x40 MLOAD DUP1 SWAP2 SUB SWAP1 REVERT JUMPDEST PUSH2 0x1B09 DUP5 DUP5 DUP5 DUP5 SUB PUSH2 0x18BB JUMP JUMPDEST JUMPDEST POP POP POP POP JUMP JUMPDEST PUSH1 0x0 PUSH20 0xFFFFFFFFFFFFFFFFFFFFFFFFFFFFFFFFFFFFFFFF AND DUP4 PUSH20 0xFFFFFFFFFFFFFFFFFFFFFFFFFFFFFFFFFFFFFFFF AND SUB PUSH2 0x1B7F JUMPI PUSH1 0x40 MLOAD PUSH32 0x8C379A000000000000000000000000000000000000000000000000000000000 DUP2 MSTORE PUSH1 0x4 ADD PUSH2 0x1B76 SWAP1 PUSH2 0x310E JUMP JUMPDEST PUSH1 0x40 MLOAD DUP1 SWAP2 SUB SWAP1 REVERT JUMPDEST PUSH1 0x0 PUSH20 0xFFFFFFFFFFFFFFFFFFFFFFFFFFFFFFFFFFFFFFFF AND DUP3 PUSH20 0xFFFFFFFFFFFFFFFFFFFFFFFFFFFFFFFFFFFFFFFF AND SUB PUSH2 0x1BEE JUMPI PUSH1 0x40 MLOAD PUSH32 0x8C379A000000000000000000000000000000000000000000000000000000000 DUP2 MSTORE PUSH1 0x4 ADD PUSH2 0x1BE5 SWAP1 PUSH2 0x31A0 JUMP JUMPDEST PUSH1 0x40 MLOAD DUP1 SWAP2 SUB SWAP1 REVERT JUMPDEST PUSH2 0x1BF9 DUP4 DUP4 DUP4 PUSH2 0x2010 JUMP JUMPDEST PUSH1 0x0 DUP1 PUSH1 0x0 DUP6 PUSH20 0xFFFFFFFFFFFFFFFFFFFFFFFFFFFFFFFFFFFFFFFF AND PUSH20 0xFFFFFFFFFFFFFFFFFFFFFFFFFFFFFFFFFFFFFFFF AND DUP2 MSTORE PUSH1 0x20 ADD SWAP1 DUP2 MSTORE PUSH1 0x20 ADD PUSH1 0x0 KECCAK256 SLOAD SWAP1 POP DUP2 DUP2 LT ISZERO PUSH2 0x1C7F JUMPI PUSH1 0x40 MLOAD PUSH32 0x8C379A000000000000000000000000000000000000000000000000000000000 DUP2 MSTORE PUSH1 0x4 ADD PUSH2 0x1C76 SWAP1 PUSH2 0x3232 JUMP JUMPDEST PUSH1 0x40 MLOAD DUP1 SWAP2 SUB SWAP1 REVERT JUMPDEST DUP2 DUP2 SUB PUSH1 0x0 DUP1 DUP7 PUSH20 0xFFFFFFFFFFFFFFFFFFFFFFFFFFFFFFFFFFFFFFFF AND PUSH20 0xFFFFFFFFFFFFFFFFFFFFFFFFFFFFFFFFFFFFFFFF AND DUP2 MSTORE PUSH1 0x20 ADD SWAP1 DUP2 MSTORE PUSH1 0x20 ADD PUSH1 0x0 KECCAK256 DUP2 SWAP1 SSTORE POP DUP2 PUSH1 0x0 DUP1 DUP6 PUSH20 0xFFFFFFFFFFFFFFFFFFFFFFFFFFFFFFFFFFFFFFFF AND PUSH20 0xFFFFFFFFFFFFFFFFFFFFFFFFFFFFFFFFFFFFFFFF AND DUP2 MSTORE PUSH1 0x20 ADD SWAP1 DUP2 MSTORE PUSH1 0x20 ADD PUSH1 0x0 KECCAK256 PUSH1 0x0 DUP3 DUP3 SLOAD PUSH2 0x1D12 SWAP2 SWAP1 PUSH2 0x2BB8 JUMP JUMPDEST SWAP3 POP POP DUP2 SWAP1 SSTORE POP DUP3 PUSH20 0xFFFFFFFFFFFFFFFFFFFFFFFFFFFFFFFFFFFFFFFF AND DUP5 PUSH20 0xFFFFFFFFFFFFFFFFFFFFFFFFFFFFFFFFFFFFFFFF AND PUSH32 0xDDF252AD1BE2C89B69C2B068FC378DAA952BA7F163C4A11628F55A4DF523B3EF DUP5 PUSH1 0x40 MLOAD PUSH2 0x1D76 SWAP2 SWAP1 PUSH2 0x23D3 JUMP JUMPDEST PUSH1 0x40 MLOAD DUP1 SWAP2 SUB SWAP1 LOG3 PUSH2 0x1D89 DUP5 DUP5 DUP5 PUSH2 0x2015 JUMP JUMPDEST POP POP POP POP JUMP JUMPDEST PUSH1 0x0 PUSH20 0xFFFFFFFFFFFFFFFFFFFFFFFFFFFFFFFFFFFFFFFF AND DUP3 PUSH20 0xFFFFFFFFFFFFFFFFFFFFFFFFFFFFFFFFFFFFFFFF AND SUB PUSH2 0x1DFE JUMPI PUSH1 0x40 MLOAD PUSH32 0x8C379A000000000000000000000000000000000000000000000000000000000 DUP2 MSTORE PUSH1 0x4 ADD PUSH2 0x1DF5 SWAP1 PUSH2 0x329E JUMP JUMPDEST PUSH1 0x40 MLOAD DUP1 SWAP2 SUB SWAP1 REVERT JUMPDEST PUSH2 0x1E0A PUSH1 0x0 DUP4 DUP4 PUSH2 0x2010 JUMP JUMPDEST DUP1 PUSH1 0x2 PUSH1 0x0 DUP3 DUP3 SLOAD PUSH2 0x1E1C SWAP2 SWAP1 PUSH2 0x2BB8 JUMP JUMPDEST SWAP3 POP POP DUP2 SWAP1 SSTORE POP DUP1 PUSH1 0x0 DUP1 DUP5 PUSH20 0xFFFFFFFFFFFFFFFFFFFFFFFFFFFFFFFFFFFFFFFF AND PUSH20 0xFFFFFFFFFFFFFFFFFFFFFFFFFFFFFFFFFFFFFFFF AND DUP2 MSTORE PUSH1 0x20 ADD SWAP1 DUP2 MSTORE PUSH1 0x20 ADD PUSH1 0x0 KECCAK256 PUSH1 0x0 DUP3 DUP3 SLOAD PUSH2 0x1E71 SWAP2 SWAP1 PUSH2 0x2BB8 JUMP JUMPDEST SWAP3 POP POP DUP2 SWAP1 SSTORE POP DUP2 PUSH20 0xFFFFFFFFFFFFFFFFFFFFFFFFFFFFFFFFFFFFFFFF AND PUSH1 0x0 PUSH20 0xFFFFFFFFFFFFFFFFFFFFFFFFFFFFFFFFFFFFFFFF AND PUSH32 0xDDF252AD1BE2C89B69C2B068FC378DAA952BA7F163C4A11628F55A4DF523B3EF DUP4 PUSH1 0x40 MLOAD PUSH2 0x1ED6 SWAP2 SWAP1 PUSH2 0x23D3 JUMP JUMPDEST PUSH1 0x40 MLOAD DUP1 SWAP2 SUB SWAP1 LOG3 PUSH2 0x1EEA PUSH1 0x0 DUP4 DUP4 PUSH2 0x2015 JUMP JUMPDEST POP POP JUMP JUMPDEST PUSH2 0x1EF9 DUP5 DUP5 DUP5 PUSH2 0x1B10 JUMP JUMPDEST PUSH2 0x1F05 DUP5 DUP5 DUP5 DUP5 PUSH2 0x201A JUMP JUMPDEST PUSH2 0x1F44 JUMPI PUSH1 0x40 MLOAD PUSH32 0x8C379A000000000000000000000000000000000000000000000000000000000 DUP2 MSTORE PUSH1 0x4 ADD PUSH2 0x1F3B SWAP1 PUSH2 0x3330 JUMP JUMPDEST PUSH1 0x40 MLOAD DUP1 SWAP2 SUB SWAP1 REVERT JUMPDEST POP POP POP POP JUMP JUMPDEST PUSH1 0x0 PUSH1 0x5 PUSH1 0x0 SWAP1 SLOAD SWAP1 PUSH2 0x100 EXP SWAP1 DIV PUSH20 0xFFFFFFFFFFFFFFFFFFFFFFFFFFFFFFFFFFFFFFFF AND SWAP1 POP DUP2 PUSH1 0x5 PUSH1 0x0 PUSH2 0x100 EXP DUP2 SLOAD DUP2 PUSH20 0xFFFFFFFFFFFFFFFFFFFFFFFFFFFFFFFFFFFFFFFF MUL NOT AND SWAP1 DUP4 PUSH20 0xFFFFFFFFFFFFFFFFFFFFFFFFFFFFFFFFFFFFFFFF AND MUL OR SWAP1 SSTORE POP DUP2 PUSH20 0xFFFFFFFFFFFFFFFFFFFFFFFFFFFFFFFFFFFFFFFF AND DUP2 PUSH20 0xFFFFFFFFFFFFFFFFFFFFFFFFFFFFFFFFFFFFFFFF AND PUSH32 0x8BE0079C531659141344CD1FD0A4F28419497F9722A3DAAFE3B4186F6B6457E0 PUSH1 0x40 MLOAD PUSH1 0x40 MLOAD DUP1 SWAP2 SUB SWAP1 LOG3 POP POP JUMP JUMPDEST POP POP POP JUMP JUMPDEST POP POP POP JUMP JUMPDEST PUSH1 0x0 PUSH2 0x203B DUP5 PUSH20 0xFFFFFFFFFFFFFFFFFFFFFFFFFFFFFFFFFFFFFFFF AND PUSH2 0x21A1 JUMP JUMPDEST ISZERO PUSH2 0x2194 JUMPI DUP4 PUSH20 0xFFFFFFFFFFFFFFFFFFFFFFFFFFFFFFFFFFFFFFFF AND PUSH4 0x9D188C22 PUSH2 0x2064 PUSH2 0x18B3 JUMP JUMPDEST DUP8 DUP7 DUP7 PUSH1 0x40 MLOAD DUP6 PUSH4 0xFFFFFFFF AND PUSH1 0xE0 SHL DUP2 MSTORE PUSH1 0x4 ADD PUSH2 0x2086 SWAP5 SWAP4 SWAP3 SWAP2 SWAP1 PUSH2 0x33A5 JUMP JUMPDEST PUSH1 0x20 PUSH1 0x40 MLOAD DUP1 DUP4 SUB DUP2 PUSH1 0x0 DUP8 GAS CALL SWAP3 POP POP POP DUP1 ISZERO PUSH2 0x20C2 JUMPI POP PUSH1 0x40 MLOAD RETURNDATASIZE PUSH1 0x1F NOT PUSH1 0x1F DUP3 ADD AND DUP3 ADD DUP1 PUSH1 0x40 MSTORE POP DUP2 ADD SWAP1 PUSH2 0x20BF SWAP2 SWAP1 PUSH2 0x341D JUMP JUMPDEST PUSH1 0x1 JUMPDEST PUSH2 0x2144 JUMPI RETURNDATASIZE DUP1 PUSH1 0x0 DUP2 EQ PUSH2 0x20F2 JUMPI PUSH1 0x40 MLOAD SWAP2 POP PUSH1 0x1F NOT PUSH1 0x3F RETURNDATASIZE ADD AND DUP3 ADD PUSH1 0x40 MSTORE RETURNDATASIZE DUP3 MSTORE RETURNDATASIZE PUSH1 0x0 PUSH1 0x20 DUP5 ADD RETURNDATACOPY PUSH2 0x20F7 JUMP JUMPDEST PUSH1 0x60 SWAP2 POP JUMPDEST POP PUSH1 0x0 DUP2 MLOAD SUB PUSH2 0x213C JUMPI PUSH1 0x40 MLOAD PUSH32 0x8C379A000000000000000000000000000000000000000000000000000000000 DUP2 MSTORE PUSH1 0x4 ADD PUSH2 0x2133 SWAP1 PUSH2 0x34BC JUMP JUMPDEST PUSH1 0x40 MLOAD DUP1 SWAP2 SUB SWAP1 REVERT JUMPDEST DUP1 MLOAD DUP2 PUSH1 0x20 ADD REVERT JUMPDEST PUSH4 0x9D188C22 PUSH1 0xE0 SHL PUSH28 0xFFFFFFFFFFFFFFFFFFFFFFFFFFFFFFFFFFFFFFFFFFFFFFFFFFFFFFFF NOT AND DUP2 PUSH28 0xFFFFFFFFFFFFFFFFFFFFFFFFFFFFFFFFFFFFFFFFFFFFFFFFFFFFFFFF NOT AND EQ SWAP2 POP POP PUSH2 0x2199 JUMP JUMPDEST PUSH1 0x1 SWAP1 POP JUMPDEST SWAP5 SWAP4 POP POP POP POP JUMP JUMPDEST PUSH1 0x0 DUP1 DUP3 PUSH20 0xFFFFFFFFFFFFFFFFFFFFFFFFFFFFFFFFFFFFFFFF AND EXTCODESIZE GT SWAP1 POP SWAP2 SWAP1 POP JUMP JUMPDEST PUSH1 0x40 MLOAD DUP1 PUSH1 0x40 ADD PUSH1 0x40 MSTORE DUP1 PUSH1 0x0 PUSH20 0xFFFFFFFFFFFFFFFFFFFFFFFFFFFFFFFFFFFFFFFF AND DUP2 MSTORE PUSH1 0x20 ADD PUSH1 0x0 DUP2 MSTORE POP SWAP1 JUMP JUMPDEST PUSH1 0x0 DUP2 MLOAD SWAP1 POP SWAP2 SWAP1 POP JUMP JUMPDEST PUSH1 0x0 DUP3 DUP3 MSTORE PUSH1 0x20 DUP3 ADD SWAP1 POP SWAP3 SWAP2 POP POP JUMP JUMPDEST PUSH1 0x0 JUMPDEST DUP4 DUP2 LT ISZERO PUSH2 0x222E JUMPI DUP1 DUP3 ADD MLOAD DUP2 DUP5 ADD MSTORE PUSH1 0x20 DUP2 ADD SWAP1 POP PUSH2 0x2213 JUMP JUMPDEST PUSH1 0x0 DUP5 DUP5 ADD MSTORE POP POP POP POP JUMP JUMPDEST PUSH1 0x0 PUSH1 0x1F NOT PUSH1 0x1F DUP4 ADD AND SWAP1 POP SWAP2 SWAP1 POP JUMP JUMPDEST PUSH1 0x0 PUSH2 0x2256 DUP3 PUSH2 0x21F4 JUMP JUMPDEST PUSH2 0x2260 DUP2 DUP6 PUSH2 0x21FF JUMP JUMPDEST SWAP4 POP PUSH2 0x2270 DUP2 DUP6 PUSH1 0x20 DUP7 ADD PUSH2 0x2210 JUMP JUMPDEST PUSH2 0x2279 DUP2 PUSH2 0x223A JUMP JUMPDEST DUP5 ADD SWAP2 POP POP SWAP3 SWAP2 POP POP JUMP JUMPDEST PUSH1 0x0 PUSH1 0x20 DUP3 ADD SWAP1 POP DUP2 DUP2 SUB PUSH1 0x0 DUP4 ADD MSTORE PUSH2 0x229E DUP2 DUP5 PUSH2 0x224B JUMP JUMPDEST SWAP1 POP SWAP3 SWAP2 POP POP JUMP JUMPDEST PUSH1 0x0 PUSH1 0x40 MLOAD SWAP1 POP SWAP1 JUMP JUMPDEST PUSH1 0x0 DUP1 REVERT JUMPDEST PUSH1 0x0 DUP1 REVERT JUMPDEST PUSH1 0x0 PUSH20 0xFFFFFFFFFFFFFFFFFFFFFFFFFFFFFFFFFFFFFFFF DUP3 AND SWAP1 POP SWAP2 SWAP1 POP JUMP JUMPDEST PUSH1 0x0 PUSH2 0x22E5 DUP3 PUSH2 0x22BA JUMP JUMPDEST SWAP1 POP SWAP2 SWAP1 POP JUMP JUMPDEST PUSH2 0x22F5 DUP2 PUSH2 0x22DA JUMP JUMPDEST DUP2 EQ PUSH2 0x2300 JUMPI PUSH1 0x0 DUP1 REVERT JUMPDEST POP JUMP JUMPDEST PUSH1 0x0 DUP2 CALLDATALOAD SWAP1 POP PUSH2 0x2312 DUP2 PUSH2 0x22EC JUMP JUMPDEST SWAP3 SWAP2 POP POP JUMP JUMPDEST PUSH1 0x0 DUP2 SWAP1 POP SWAP2 SWAP1 POP JUMP JUMPDEST PUSH2 0x232B DUP2 PUSH2 0x2318 JUMP JUMPDEST DUP2 EQ PUSH2 0x2336 JUMPI PUSH1 0x0 DUP1 REVERT JUMPDEST POP JUMP JUMPDEST PUSH1 0x0 DUP2 CALLDATALOAD SWAP1 POP PUSH2 0x2348 DUP2 PUSH2 0x2322 JUMP JUMPDEST SWAP3 SWAP2 POP POP JUMP JUMPDEST PUSH1 0x0 DUP1 PUSH1 0x40 DUP4 DUP6 SUB SLT ISZERO PUSH2 0x2365 JUMPI PUSH2 0x2364 PUSH2 0x22B0 JUMP JUMPDEST JUMPDEST PUSH1 0x0 PUSH2 0x2373 DUP6 DUP3 DUP7 ADD PUSH2 0x2303 JUMP JUMPDEST SWAP3 POP POP PUSH1 0x20 PUSH2 0x2384 DUP6 DUP3 DUP7 ADD PUSH2 0x2339 JUMP JUMPDEST SWAP2 POP POP SWAP3 POP SWAP3 SWAP1 POP JUMP JUMPDEST PUSH1 0x0 DUP2 ISZERO ISZERO SWAP1 POP SWAP2 SWAP1 POP JUMP JUMPDEST PUSH2 0x23A3 DUP2 PUSH2 0x238E JUMP JUMPDEST DUP3 MSTORE POP POP JUMP JUMPDEST PUSH1 0x0 PUSH1 0x20 DUP3 ADD SWAP1 POP PUSH2 0x23BE PUSH1 0x0 DUP4 ADD DUP5 PUSH2 0x239A JUMP JUMPDEST SWAP3 SWAP2 POP POP JUMP JUMPDEST PUSH2 0x23CD DUP2 PUSH2 0x2318 JUMP JUMPDEST DUP3 MSTORE POP POP JUMP JUMPDEST PUSH1 0x0 PUSH1 0x20 DUP3 ADD SWAP1 POP PUSH2 0x23E8 PUSH1 0x0 DUP4 ADD DUP5 PUSH2 0x23C4 JUMP JUMPDEST SWAP3 SWAP2 POP POP JUMP JUMPDEST PUSH1 0x0 PUSH1 0x20 DUP3 DUP5 SUB SLT ISZERO PUSH2 0x2404 JUMPI PUSH2 0x2403 PUSH2 0x22B0 JUMP JUMPDEST JUMPDEST PUSH1 0x0 PUSH2 0x2412 DUP5 DUP3 DUP6 ADD PUSH2 0x2339 JUMP JUMPDEST SWAP2 POP POP SWAP3 SWAP2 POP POP JUMP JUMPDEST PUSH2 0x2424 DUP2 PUSH2 0x22DA JUMP JUMPDEST DUP3 MSTORE POP POP JUMP JUMPDEST PUSH1 0x0 PUSH1 0x20 DUP3 ADD SWAP1 POP PUSH2 0x243F PUSH1 0x0 DUP4 ADD DUP5 PUSH2 0x241B JUMP JUMPDEST SWAP3 SWAP2 POP POP JUMP JUMPDEST PUSH1 0x0 DUP1 PUSH1 0x0 PUSH1 0x60 DUP5 DUP7 SUB SLT ISZERO PUSH2 0x245E JUMPI PUSH2 0x245D PUSH2 0x22B0 JUMP JUMPDEST JUMPDEST PUSH1 0x0 PUSH2 0x246C DUP7 DUP3 DUP8 ADD PUSH2 0x2303 JUMP JUMPDEST SWAP4 POP POP PUSH1 0x20 PUSH2 0x247D DUP7 DUP3 DUP8 ADD PUSH2 0x2303 JUMP JUMPDEST SWAP3 POP POP PUSH1 0x40 PUSH2 0x248E DUP7 DUP3 DUP8 ADD PUSH2 0x2339 JUMP JUMPDEST SWAP2 POP POP SWAP3 POP SWAP3 POP SWAP3 JUMP JUMPDEST PUSH1 0x0 PUSH1 0xFF DUP3 AND SWAP1 POP SWAP2 SWAP1 POP JUMP JUMPDEST PUSH2 0x24AE DUP2 PUSH2 0x2498 JUMP JUMPDEST DUP3 MSTORE POP POP JUMP JUMPDEST PUSH1 0x0 PUSH1 0x20 DUP3 ADD SWAP1 POP PUSH2 0x24C9 PUSH1 0x0 DUP4 ADD DUP5 PUSH2 0x24A5 JUMP JUMPDEST SWAP3 SWAP2 POP POP JUMP JUMPDEST PUSH1 0x0 DUP2 SWAP1 POP SWAP2 SWAP1 POP JUMP JUMPDEST PUSH1 0x0 PUSH2 0x24F4 PUSH2 0x24EF PUSH2 0x24EA DUP5 PUSH2 0x22BA JUMP JUMPDEST PUSH2 0x24CF JUMP JUMPDEST PUSH2 0x22BA JUMP JUMPDEST SWAP1 POP SWAP2 SWAP1 POP JUMP JUMPDEST PUSH1 0x0 PUSH2 0x2506 DUP3 PUSH2 0x24D9 JUMP JUMPDEST SWAP1 POP SWAP2 SWAP1 POP JUMP JUMPDEST PUSH1 0x0 PUSH2 0x2518 DUP3 PUSH2 0x24FB JUMP JUMPDEST SWAP1 POP SWAP2 SWAP1 POP JUMP JUMPDEST PUSH2 0x2528 DUP2 PUSH2 0x250D JUMP JUMPDEST DUP3 MSTORE POP POP JUMP JUMPDEST PUSH1 0x0 PUSH1 0x20 DUP3 ADD SWAP1 POP PUSH2 0x2543 PUSH1 0x0 DUP4 ADD DUP5 PUSH2 0x251F JUMP JUMPDEST SWAP3 SWAP2 POP POP JUMP JUMPDEST PUSH1 0x0 PUSH1 0x20 DUP3 DUP5 SUB SLT ISZERO PUSH2 0x255F JUMPI PUSH2 0x255E PUSH2 0x22B0 JUMP JUMPDEST JUMPDEST PUSH1 0x0 PUSH2 0x256D DUP5 DUP3 DUP6 ADD PUSH2 0x2303 JUMP JUMPDEST SWAP2 POP POP SWAP3 SWAP2 POP POP JUMP JUMPDEST PUSH1 0x0 DUP2 MLOAD SWAP1 POP SWAP2 SWAP1 POP JUMP JUMPDEST PUSH1 0x0 DUP3 DUP3 MSTORE PUSH1 0x20 DUP3 ADD SWAP1 POP SWAP3 SWAP2 POP POP JUMP JUMPDEST PUSH1 0x0 DUP2 SWAP1 POP PUSH1 0x20 DUP3 ADD SWAP1 POP SWAP2 SWAP1 POP JUMP JUMPDEST PUSH2 0x25AB DUP2 PUSH2 0x22DA JUMP JUMPDEST DUP3 MSTORE POP POP JUMP JUMPDEST PUSH2 0x25BA DUP2 PUSH2 0x2318 JUMP JUMPDEST DUP3 MSTORE POP POP JUMP JUMPDEST PUSH1 0x40 DUP3 ADD PUSH1 0x0 DUP3 ADD MLOAD PUSH2 0x25D6 PUSH1 0x0 DUP6 ADD DUP3 PUSH2 0x25A2 JUMP JUMPDEST POP PUSH1 0x20 DUP3 ADD MLOAD PUSH2 0x25E9 PUSH1 0x20 DUP6 ADD DUP3 PUSH2 0x25B1 JUMP JUMPDEST POP POP POP POP JUMP JUMPDEST PUSH1 0x0 PUSH2 0x25FB DUP4 DUP4 PUSH2 0x25C0 JUMP JUMPDEST PUSH1 0x40 DUP4 ADD SWAP1 POP SWAP3 SWAP2 POP POP JUMP JUMPDEST PUSH1 0x0 PUSH1 0x20 DUP3 ADD SWAP1 POP SWAP2 SWAP1 POP JUMP JUMPDEST PUSH1 0x0 PUSH2 0x261F DUP3 PUSH2 0x2576 JUMP JUMPDEST PUSH2 0x2629 DUP2 DUP6 PUSH2 0x2581 JUMP JUMPDEST SWAP4 POP PUSH2 0x2634 DUP4 PUSH2 0x2592 JUMP JUMPDEST DUP1 PUSH1 0x0 JUMPDEST DUP4 DUP2 LT ISZERO PUSH2 0x2665 JUMPI DUP2 MLOAD PUSH2 0x264C DUP9 DUP3 PUSH2 0x25EF JUMP JUMPDEST SWAP8 POP PUSH2 0x2657 DUP4 PUSH2 0x2607 JUMP JUMPDEST SWAP3 POP POP PUSH1 0x1 DUP2 ADD SWAP1 POP PUSH2 0x2638 JUMP JUMPDEST POP DUP6 SWAP4 POP POP POP POP SWAP3 SWAP2 POP POP JUMP JUMPDEST PUSH1 0x0 PUSH1 0x20 DUP3 ADD SWAP1 POP DUP2 DUP2 SUB PUSH1 0x0 DUP4 ADD MSTORE PUSH2 0x268C DUP2 DUP5 PUSH2 0x2614 JUMP JUMPDEST SWAP1 POP SWAP3 SWAP2 POP POP JUMP JUMPDEST PUSH1 0x0 DUP1 REVERT JUMPDEST PUSH1 0x0 DUP1 REVERT JUMPDEST PUSH32 0x4E487B7100000000000000000000000000000000000000000000000000000000 PUSH1 0x0 MSTORE PUSH1 0x41 PUSH1 0x4 MSTORE PUSH1 0x24 PUSH1 0x0 REVERT JUMPDEST PUSH2 0x26D6 DUP3 PUSH2 0x223A JUMP JUMPDEST DUP2 ADD DUP2 DUP2 LT PUSH8 0xFFFFFFFFFFFFFFFF DUP3 GT OR ISZERO PUSH2 0x26F5 JUMPI PUSH2 0x26F4 PUSH2 0x269E JUMP JUMPDEST JUMPDEST DUP1 PUSH1 0x40 MSTORE POP POP POP JUMP JUMPDEST PUSH1 0x0 PUSH2 0x2708 PUSH2 0x22A6 JUMP JUMPDEST SWAP1 POP PUSH2 0x2714 DUP3 DUP3 PUSH2 0x26CD JUMP JUMPDEST SWAP2 SWAP1 POP JUMP JUMPDEST PUSH1 0x0 PUSH8 0xFFFFFFFFFFFFFFFF DUP3 GT ISZERO PUSH2 0x2734 JUMPI PUSH2 0x2733 PUSH2 0x269E JUMP JUMPDEST JUMPDEST PUSH2 0x273D DUP3 PUSH2 0x223A JUMP JUMPDEST SWAP1 POP PUSH1 0x20 DUP2 ADD SWAP1 POP SWAP2 SWAP1 POP JUMP JUMPDEST DUP3 DUP2 DUP4 CALLDATACOPY PUSH1 0x0 DUP4 DUP4 ADD MSTORE POP POP POP JUMP JUMPDEST PUSH1 0x0 PUSH2 0x276C PUSH2 0x2767 DUP5 PUSH2 0x2719 JUMP JUMPDEST PUSH2 0x26FE JUMP JUMPDEST SWAP1 POP DUP3 DUP2 MSTORE PUSH1 0x20 DUP2 ADD DUP5 DUP5 DUP5 ADD GT ISZERO PUSH2 0x2788 JUMPI PUSH2 0x2787 PUSH2 0x2699 JUMP JUMPDEST JUMPDEST PUSH2 0x2793 DUP5 DUP3 DUP6 PUSH2 0x274A JUMP JUMPDEST POP SWAP4 SWAP3 POP POP POP JUMP JUMPDEST PUSH1 0x0 DUP3 PUSH1 0x1F DUP4 ADD SLT PUSH2 0x27B0 JUMPI PUSH2 0x27AF PUSH2 0x2694 JUMP JUMPDEST JUMPDEST DUP2 CALLDATALOAD PUSH2 0x27C0 DUP5 DUP3 PUSH1 0x20 DUP7 ADD PUSH2 0x2759 JUMP JUMPDEST SWAP2 POP POP SWAP3 SWAP2 POP POP JUMP JUMPDEST PUSH1 0x0 DUP1 PUSH1 0x0 DUP1 PUSH1 0x80 DUP6 DUP8 SUB SLT ISZERO PUSH2 0x27E3 JUMPI PUSH2 0x27E2 PUSH2 0x22B0 JUMP JUMPDEST JUMPDEST PUSH1 0x0 PUSH2 0x27F1 DUP8 DUP3 DUP9 ADD PUSH2 0x2303 JUMP JUMPDEST SWAP5 POP POP PUSH1 0x20 PUSH2 0x2802 DUP8 DUP3 DUP9 ADD PUSH2 0x2303 JUMP JUMPDEST SWAP4 POP POP PUSH1 0x40 PUSH2 0x2813 DUP8 DUP3 DUP9 ADD PUSH2 0x2339 JUMP JUMPDEST SWAP3 POP POP PUSH1 0x60 DUP6 ADD CALLDATALOAD PUSH8 0xFFFFFFFFFFFFFFFF DUP2 GT ISZERO PUSH2 0x2834 JUMPI PUSH2 0x2833 PUSH2 0x22B5 JUMP JUMPDEST JUMPDEST PUSH2 0x2840 DUP8 DUP3 DUP9 ADD PUSH2 0x279B JUMP JUMPDEST SWAP2 POP POP SWAP3 SWAP6 SWAP2 SWAP5 POP SWAP3 POP JUMP JUMPDEST PUSH1 0x0 PUSH32 0xFFFFFFFF00000000000000000000000000000000000000000000000000000000 DUP3 AND SWAP1 POP SWAP2 SWAP1 POP JUMP JUMPDEST PUSH2 0x2881 DUP2 PUSH2 0x284C JUMP JUMPDEST DUP3 MSTORE POP POP JUMP JUMPDEST PUSH1 0x0 PUSH1 0x20 DUP3 ADD SWAP1 POP PUSH2 0x289C PUSH1 0x0 DUP4 ADD DUP5 PUSH2 0x2878 JUMP JUMPDEST SWAP3 SWAP2 POP POP JUMP JUMPDEST PUSH1 0x0 PUSH1 0x40 DUP3 ADD SWAP1 POP PUSH2 0x28B7 PUSH1 0x0 DUP4 ADD DUP6 PUSH2 0x23C4 JUMP JUMPDEST PUSH2 0x28C4 PUSH1 0x20 DUP4 ADD DUP5 PUSH2 0x23C4 JUMP JUMPDEST SWAP4 SWAP3 POP POP POP JUMP JUMPDEST PUSH1 0x0 DUP1 PUSH1 0x40 DUP4 DUP6 SUB SLT ISZERO PUSH2 0x28E2 JUMPI PUSH2 0x28E1 PUSH2 0x22B0 JUMP JUMPDEST JUMPDEST PUSH1 0x0 PUSH2 0x28F0 DUP6 DUP3 DUP7 ADD PUSH2 0x2303 JUMP JUMPDEST SWAP3 POP POP PUSH1 0x20 PUSH2 0x2901 DUP6 DUP3 DUP7 ADD PUSH2 0x2303 JUMP JUMPDEST SWAP2 POP POP SWAP3 POP SWAP3 SWAP1 POP JUMP JUMPDEST PUSH1 0x0 DUP1 PUSH1 0x0 PUSH1 0x60 DUP5 DUP7 SUB SLT ISZERO PUSH2 0x2924 JUMPI PUSH2 0x2923 PUSH2 0x22B0 JUMP JUMPDEST JUMPDEST PUSH1 0x0 PUSH2 0x2932 DUP7 DUP3 DUP8 ADD PUSH2 0x2303 JUMP JUMPDEST SWAP4 POP POP PUSH1 0x20 PUSH2 0x2943 DUP7 DUP3 DUP8 ADD PUSH2 0x2339 JUMP JUMPDEST SWAP3 POP POP PUSH1 0x40 DUP5 ADD CALLDATALOAD PUSH8 0xFFFFFFFFFFFFFFFF DUP2 GT ISZERO PUSH2 0x2964 JUMPI PUSH2 0x2963 PUSH2 0x22B5 JUMP JUMPDEST JUMPDEST PUSH2 0x2970 DUP7 DUP3 DUP8 ADD PUSH2 0x279B JUMP JUMPDEST SWAP2 POP POP SWAP3 POP SWAP3 POP SWAP3 JUMP JUMPDEST PUSH32 0x4E487B7100000000000000000000000000000000000000000000000000000000 PUSH1 0x0 MSTORE PUSH1 0x22 PUSH1 0x4 MSTORE PUSH1 0x24 PUSH1 0x0 REVERT JUMPDEST PUSH1 0x0 PUSH1 0x2 DUP3 DIV SWAP1 POP PUSH1 0x1 DUP3 AND DUP1 PUSH2 0x29C1 JUMPI PUSH1 0x7F DUP3 AND SWAP2 POP JUMPDEST PUSH1 0x20 DUP3 LT DUP2 SUB PUSH2 0x29D4 JUMPI PUSH2 0x29D3 PUSH2 0x297A JUMP JUMPDEST JUMPDEST POP SWAP2 SWAP1 POP JUMP JUMPDEST PUSH32 0x596F752068617665206E6F20746F6B656E73207374616B656400000000000000 PUSH1 0x0 DUP3 ADD MSTORE POP JUMP JUMPDEST PUSH1 0x0 PUSH2 0x2A10 PUSH1 0x19 DUP4 PUSH2 0x21FF JUMP JUMPDEST SWAP2 POP PUSH2 0x2A1B DUP3 PUSH2 0x29DA JUMP JUMPDEST PUSH1 0x20 DUP3 ADD SWAP1 POP SWAP2 SWAP1 POP JUMP JUMPDEST PUSH1 0x0 PUSH1 0x20 DUP3 ADD SWAP1 POP DUP2 DUP2 SUB PUSH1 0x0 DUP4 ADD MSTORE PUSH2 0x2A3F DUP2 PUSH2 0x2A03 JUMP JUMPDEST SWAP1 POP SWAP2 SWAP1 POP JUMP JUMPDEST PUSH32 0x596F752063616E277420756E7374616B65207468697320746F6B656E00000000 PUSH1 0x0 DUP3 ADD MSTORE POP JUMP JUMPDEST PUSH1 0x0 PUSH2 0x2A7C PUSH1 0x1C DUP4 PUSH2 0x21FF JUMP JUMPDEST SWAP2 POP PUSH2 0x2A87 DUP3 PUSH2 0x2A46 JUMP JUMPDEST PUSH1 0x20 DUP3 ADD SWAP1 POP SWAP2 SWAP1 POP JUMP JUMPDEST PUSH1 0x0 PUSH1 0x20 DUP3 ADD SWAP1 POP DUP2 DUP2 SUB PUSH1 0x0 DUP4 ADD MSTORE PUSH2 0x2AAB DUP2 PUSH2 0x2A6F JUMP JUMPDEST SWAP1 POP SWAP2 SWAP1 POP JUMP JUMPDEST PUSH32 0x4E487B7100000000000000000000000000000000000000000000000000000000 PUSH1 0x0 MSTORE PUSH1 0x32 PUSH1 0x4 MSTORE PUSH1 0x24 PUSH1 0x0 REVERT JUMPDEST PUSH32 0x4E487B7100000000000000000000000000000000000000000000000000000000 PUSH1 0x0 MSTORE PUSH1 0x11 PUSH1 0x4 MSTORE PUSH1 0x24 PUSH1 0x0 REVERT JUMPDEST PUSH1 0x0 PUSH2 0x2B1B DUP3 PUSH2 0x2318 JUMP JUMPDEST SWAP2 POP PUSH32 0xFFFFFFFFFFFFFFFFFFFFFFFFFFFFFFFFFFFFFFFFFFFFFFFFFFFFFFFFFFFFFFFF DUP3 SUB PUSH2 0x2B4D JUMPI PUSH2 0x2B4C PUSH2 0x2AE1 JUMP JUMPDEST JUMPDEST PUSH1 0x1 DUP3 ADD SWAP1 POP SWAP2 SWAP1 POP JUMP JUMPDEST PUSH1 0x0 PUSH2 0x2B63 DUP3 PUSH2 0x2318 JUMP JUMPDEST SWAP2 POP PUSH1 0x0 DUP3 SUB PUSH2 0x2B76 JUMPI PUSH2 0x2B75 PUSH2 0x2AE1 JUMP JUMPDEST JUMPDEST PUSH1 0x1 DUP3 SUB SWAP1 POP SWAP2 SWAP1 POP JUMP JUMPDEST PUSH1 0x0 PUSH1 0x60 DUP3 ADD SWAP1 POP PUSH2 0x2B96 PUSH1 0x0 DUP4 ADD DUP7 PUSH2 0x241B JUMP JUMPDEST PUSH2 0x2BA3 PUSH1 0x20 DUP4 ADD DUP6 PUSH2 0x241B JUMP JUMPDEST PUSH2 0x2BB0 PUSH1 0x40 DUP4 ADD DUP5 PUSH2 0x23C4 JUMP JUMPDEST SWAP5 SWAP4 POP POP POP POP JUMP JUMPDEST PUSH1 0x0 PUSH2 0x2BC3 DUP3 PUSH2 0x2318 JUMP JUMPDEST SWAP2 POP PUSH2 0x2BCE DUP4 PUSH2 0x2318 JUMP JUMPDEST SWAP3 POP DUP3 DUP3 ADD SWAP1 POP DUP1 DUP3 GT ISZERO PUSH2 0x2BE6 JUMPI PUSH2 0x2BE5 PUSH2 0x2AE1 JUMP JUMPDEST JUMPDEST SWAP3 SWAP2 POP POP JUMP JUMPDEST PUSH32 0x596F752068617665206E6F207265776172647320746F20636C61696D00000000 PUSH1 0x0 DUP3 ADD MSTORE POP JUMP JUMPDEST PUSH1 0x0 PUSH2 0x2C22 PUSH1 0x1C DUP4 PUSH2 0x21FF JUMP JUMPDEST SWAP2 POP PUSH2 0x2C2D DUP3 PUSH2 0x2BEC JUMP JUMPDEST PUSH1 0x20 DUP3 ADD SWAP1 POP SWAP2 SWAP1 POP JUMP JUMPDEST PUSH1 0x0 PUSH1 0x20 DUP3 ADD SWAP1 POP DUP2 DUP2 SUB PUSH1 0x0 DUP4 ADD MSTORE PUSH2 0x2C51 DUP2 PUSH2 0x2C15 JUMP JUMPDEST SWAP1 POP SWAP2 SWAP1 POP JUMP JUMPDEST PUSH1 0x0 PUSH2 0x2C63 DUP3 PUSH2 0x2318 JUMP JUMPDEST SWAP2 POP PUSH2 0x2C6E DUP4 PUSH2 0x2318 JUMP JUMPDEST SWAP3 POP DUP3 DUP3 SUB SWAP1 POP DUP2 DUP2 GT ISZERO PUSH2 0x2C86 JUMPI PUSH2 0x2C85 PUSH2 0x2AE1 JUMP JUMPDEST JUMPDEST SWAP3 SWAP2 POP POP JUMP JUMPDEST PUSH1 0x0 PUSH2 0x2C97 DUP3 PUSH2 0x2318 JUMP JUMPDEST SWAP2 POP PUSH2 0x2CA2 DUP4 PUSH2 0x2318 JUMP JUMPDEST SWAP3 POP DUP3 DUP3 MUL PUSH2 0x2CB0 DUP2 PUSH2 0x2318 JUMP JUMPDEST SWAP2 POP DUP3 DUP3 DIV DUP5 EQ DUP4 ISZERO OR PUSH2 0x2CC7 JUMPI PUSH2 0x2CC6 PUSH2 0x2AE1 JUMP JUMPDEST JUMPDEST POP SWAP3 SWAP2 POP POP JUMP JUMPDEST PUSH32 0x4F776E61626C653A2063616C6C6572206973206E6F7420746865206F776E6572 PUSH1 0x0 DUP3 ADD MSTORE POP JUMP JUMPDEST PUSH1 0x0 PUSH2 0x2D04 PUSH1 0x20 DUP4 PUSH2 0x21FF JUMP JUMPDEST SWAP2 POP PUSH2 0x2D0F DUP3 PUSH2 0x2CCE JUMP JUMPDEST PUSH1 0x20 DUP3 ADD SWAP1 POP SWAP2 SWAP1 POP JUMP JUMPDEST PUSH1 0x0 PUSH1 0x20 DUP3 ADD SWAP1 POP DUP2 DUP2 SUB PUSH1 0x0 DUP4 ADD MSTORE PUSH2 0x2D33 DUP2 PUSH2 0x2CF7 JUMP JUMPDEST SWAP1 POP SWAP2 SWAP1 POP JUMP JUMPDEST PUSH32 0x4B4950373A2064656372656173656420616C6C6F77616E63652062656C6F7720 PUSH1 0x0 DUP3 ADD MSTORE PUSH32 0x7A65726F00000000000000000000000000000000000000000000000000000000 PUSH1 0x20 DUP3 ADD MSTORE POP JUMP JUMPDEST PUSH1 0x0 PUSH2 0x2D96 PUSH1 0x24 DUP4 PUSH2 0x21FF JUMP JUMPDEST SWAP2 POP PUSH2 0x2DA1 DUP3 PUSH2 0x2D3A JUMP JUMPDEST PUSH1 0x40 DUP3 ADD SWAP1 POP SWAP2 SWAP1 POP JUMP JUMPDEST PUSH1 0x0 PUSH1 0x20 DUP3 ADD SWAP1 POP DUP2 DUP2 SUB PUSH1 0x0 DUP4 ADD MSTORE PUSH2 0x2DC5 DUP2 PUSH2 0x2D89 JUMP JUMPDEST SWAP1 POP SWAP2 SWAP1 POP JUMP JUMPDEST PUSH1 0x0 DUP2 MLOAD SWAP1 POP PUSH2 0x2DDB DUP2 PUSH2 0x22EC JUMP JUMPDEST SWAP3 SWAP2 POP POP JUMP JUMPDEST PUSH1 0x0 PUSH1 0x20 DUP3 DUP5 SUB SLT ISZERO PUSH2 0x2DF7 JUMPI PUSH2 0x2DF6 PUSH2 0x22B0 JUMP JUMPDEST JUMPDEST PUSH1 0x0 PUSH2 0x2E05 DUP5 DUP3 DUP6 ADD PUSH2 0x2DCC JUMP JUMPDEST SWAP2 POP POP SWAP3 SWAP2 POP POP JUMP JUMPDEST PUSH32 0x596F7520646F6E2774206F776E207468697320746F6B656E2100000000000000 PUSH1 0x0 DUP3 ADD MSTORE POP JUMP JUMPDEST PUSH1 0x0 PUSH2 0x2E44 PUSH1 0x19 DUP4 PUSH2 0x21FF JUMP JUMPDEST SWAP2 POP PUSH2 0x2E4F DUP3 PUSH2 0x2E0E JUMP JUMPDEST PUSH1 0x20 DUP3 ADD SWAP1 POP SWAP2 SWAP1 POP JUMP JUMPDEST PUSH1 0x0 PUSH1 0x20 DUP3 ADD SWAP1 POP DUP2 DUP2 SUB PUSH1 0x0 DUP4 ADD MSTORE PUSH2 0x2E73 DUP2 PUSH2 0x2E37 JUMP JUMPDEST SWAP1 POP SWAP2 SWAP1 POP JUMP JUMPDEST PUSH32 0x4F776E61626C653A206E6577206F776E657220697320746865207A65726F2061 PUSH1 0x0 DUP3 ADD MSTORE PUSH32 0x6464726573730000000000000000000000000000000000000000000000000000 PUSH1 0x20 DUP3 ADD MSTORE POP JUMP JUMPDEST PUSH1 0x0 PUSH2 0x2ED6 PUSH1 0x26 DUP4 PUSH2 0x21FF JUMP JUMPDEST SWAP2 POP PUSH2 0x2EE1 DUP3 PUSH2 0x2E7A JUMP JUMPDEST PUSH1 0x40 DUP3 ADD SWAP1 POP SWAP2 SWAP1 POP JUMP JUMPDEST PUSH1 0x0 PUSH1 0x20 DUP3 ADD SWAP1 POP DUP2 DUP2 SUB PUSH1 0x0 DUP4 ADD MSTORE PUSH2 0x2F05 DUP2 PUSH2 0x2EC9 JUMP JUMPDEST SWAP1 POP SWAP2 SWAP1 POP JUMP JUMPDEST PUSH32 0x4B4950373A20617070726F76652066726F6D20746865207A65726F2061646472 PUSH1 0x0 DUP3 ADD MSTORE PUSH32 0x6573730000000000000000000000000000000000000000000000000000000000 PUSH1 0x20 DUP3 ADD MSTORE POP JUMP JUMPDEST PUSH1 0x0 PUSH2 0x2F68 PUSH1 0x23 DUP4 PUSH2 0x21FF JUMP JUMPDEST SWAP2 POP PUSH2 0x2F73 DUP3 PUSH2 0x2F0C JUMP JUMPDEST PUSH1 0x40 DUP3 ADD SWAP1 POP SWAP2 SWAP1 POP JUMP JUMPDEST PUSH1 0x0 PUSH1 0x20 DUP3 ADD SWAP1 POP DUP2 DUP2 SUB PUSH1 0x0 DUP4 ADD MSTORE PUSH2 0x2F97 DUP2 PUSH2 0x2F5B JUMP JUMPDEST SWAP1 POP SWAP2 SWAP1 POP JUMP JUMPDEST PUSH32 0x4B4950373A20617070726F766520746F20746865207A65726F20616464726573 PUSH1 0x0 DUP3 ADD MSTORE PUSH32 0x7300000000000000000000000000000000000000000000000000000000000000 PUSH1 0x20 DUP3 ADD MSTORE POP JUMP JUMPDEST PUSH1 0x0 PUSH2 0x2FFA PUSH1 0x21 DUP4 PUSH2 0x21FF JUMP JUMPDEST SWAP2 POP PUSH2 0x3005 DUP3 PUSH2 0x2F9E JUMP JUMPDEST PUSH1 0x40 DUP3 ADD SWAP1 POP SWAP2 SWAP1 POP JUMP JUMPDEST PUSH1 0x0 PUSH1 0x20 DUP3 ADD SWAP1 POP DUP2 DUP2 SUB PUSH1 0x0 DUP4 ADD MSTORE PUSH2 0x3029 DUP2 PUSH2 0x2FED JUMP JUMPDEST SWAP1 POP SWAP2 SWAP1 POP JUMP JUMPDEST PUSH32 0x4B4950373A20696E73756666696369656E7420616C6C6F77616E636500000000 PUSH1 0x0 DUP3 ADD MSTORE POP JUMP JUMPDEST PUSH1 0x0 PUSH2 0x3066 PUSH1 0x1C DUP4 PUSH2 0x21FF JUMP JUMPDEST SWAP2 POP PUSH2 0x3071 DUP3 PUSH2 0x3030 JUMP JUMPDEST PUSH1 0x20 DUP3 ADD SWAP1 POP SWAP2 SWAP1 POP JUMP JUMPDEST PUSH1 0x0 PUSH1 0x20 DUP3 ADD SWAP1 POP DUP2 DUP2 SUB PUSH1 0x0 DUP4 ADD MSTORE PUSH2 0x3095 DUP2 PUSH2 0x3059 JUMP JUMPDEST SWAP1 POP SWAP2 SWAP1 POP JUMP JUMPDEST PUSH32 0x4B4950373A207472616E736665722066726F6D20746865207A65726F20616464 PUSH1 0x0 DUP3 ADD MSTORE PUSH32 0x7265737300000000000000000000000000000000000000000000000000000000 PUSH1 0x20 DUP3 ADD MSTORE POP JUMP JUMPDEST PUSH1 0x0 PUSH2 0x30F8 PUSH1 0x24 DUP4 PUSH2 0x21FF JUMP JUMPDEST SWAP2 POP PUSH2 0x3103 DUP3 PUSH2 0x309C JUMP JUMPDEST PUSH1 0x40 DUP3 ADD SWAP1 POP SWAP2 SWAP1 POP JUMP JUMPDEST PUSH1 0x0 PUSH1 0x20 DUP3 ADD SWAP1 POP DUP2 DUP2 SUB PUSH1 0x0 DUP4 ADD MSTORE PUSH2 0x3127 DUP2 PUSH2 0x30EB JUMP JUMPDEST SWAP1 POP SWAP2 SWAP1 POP JUMP JUMPDEST PUSH32 0x4B4950373A207472616E7366657220746F20746865207A65726F206164647265 PUSH1 0x0 DUP3 ADD MSTORE PUSH32 0x7373000000000000000000000000000000000000000000000000000000000000 PUSH1 0x20 DUP3 ADD MSTORE POP JUMP JUMPDEST PUSH1 0x0 PUSH2 0x318A PUSH1 0x22 DUP4 PUSH2 0x21FF JUMP JUMPDEST SWAP2 POP PUSH2 0x3195 DUP3 PUSH2 0x312E JUMP JUMPDEST PUSH1 0x40 DUP3 ADD SWAP1 POP SWAP2 SWAP1 POP JUMP JUMPDEST PUSH1 0x0 PUSH1 0x20 DUP3 ADD SWAP1 POP DUP2 DUP2 SUB PUSH1 0x0 DUP4 ADD MSTORE PUSH2 0x31B9 DUP2 PUSH2 0x317D JUMP JUMPDEST SWAP1 POP SWAP2 SWAP1 POP JUMP JUMPDEST PUSH32 0x4B4950373A207472616E7366657220616D6F756E742065786365656473206261 PUSH1 0x0 DUP3 ADD MSTORE PUSH32 0x6C616E6365000000000000000000000000000000000000000000000000000000 PUSH1 0x20 DUP3 ADD MSTORE POP JUMP JUMPDEST PUSH1 0x0 PUSH2 0x321C PUSH1 0x25 DUP4 PUSH2 0x21FF JUMP JUMPDEST SWAP2 POP PUSH2 0x3227 DUP3 PUSH2 0x31C0 JUMP JUMPDEST PUSH1 0x40 DUP3 ADD SWAP1 POP SWAP2 SWAP1 POP JUMP JUMPDEST PUSH1 0x0 PUSH1 0x20 DUP3 ADD SWAP1 POP DUP2 DUP2 SUB PUSH1 0x0 DUP4 ADD MSTORE PUSH2 0x324B DUP2 PUSH2 0x320F JUMP JUMPDEST SWAP1 POP SWAP2 SWAP1 POP JUMP JUMPDEST PUSH32 0x4B4950373A206D696E7420746F20746865207A65726F20616464726573730000 PUSH1 0x0 DUP3 ADD MSTORE POP JUMP JUMPDEST PUSH1 0x0 PUSH2 0x3288 PUSH1 0x1E DUP4 PUSH2 0x21FF JUMP JUMPDEST SWAP2 POP PUSH2 0x3293 DUP3 PUSH2 0x3252 JUMP JUMPDEST PUSH1 0x20 DUP3 ADD SWAP1 POP SWAP2 SWAP1 POP JUMP JUMPDEST PUSH1 0x0 PUSH1 0x20 DUP3 ADD SWAP1 POP DUP2 DUP2 SUB PUSH1 0x0 DUP4 ADD MSTORE PUSH2 0x32B7 DUP2 PUSH2 0x327B JUMP JUMPDEST SWAP1 POP SWAP2 SWAP1 POP JUMP JUMPDEST PUSH32 0x4B4950373A207472616E7366657220746F206E6F6E20494B4950375265636569 PUSH1 0x0 DUP3 ADD MSTORE PUSH32 0x76657220696D706C656D656E7465720000000000000000000000000000000000 PUSH1 0x20 DUP3 ADD MSTORE POP JUMP JUMPDEST PUSH1 0x0 PUSH2 0x331A PUSH1 0x2F DUP4 PUSH2 0x21FF JUMP JUMPDEST SWAP2 POP PUSH2 0x3325 DUP3 PUSH2 0x32BE JUMP JUMPDEST PUSH1 0x40 DUP3 ADD SWAP1 POP SWAP2 SWAP1 POP JUMP JUMPDEST PUSH1 0x0 PUSH1 0x20 DUP3 ADD SWAP1 POP DUP2 DUP2 SUB PUSH1 0x0 DUP4 ADD MSTORE PUSH2 0x3349 DUP2 PUSH2 0x330D JUMP JUMPDEST SWAP1 POP SWAP2 SWAP1 POP JUMP JUMPDEST PUSH1 0x0 DUP2 MLOAD SWAP1 POP SWAP2 SWAP1 POP JUMP JUMPDEST PUSH1 0x0 DUP3 DUP3 MSTORE PUSH1 0x20 DUP3 ADD SWAP1 POP SWAP3 SWAP2 POP POP JUMP JUMPDEST PUSH1 0x0 PUSH2 0x3377 DUP3 PUSH2 0x3350 JUMP JUMPDEST PUSH2 0x3381 DUP2 DUP6 PUSH2 0x335B JUMP JUMPDEST SWAP4 POP PUSH2 0x3391 DUP2 DUP6 PUSH1 0x20 DUP7 ADD PUSH2 0x2210 JUMP JUMPDEST PUSH2 0x339A DUP2 PUSH2 0x223A JUMP JUMPDEST DUP5 ADD SWAP2 POP POP SWAP3 SWAP2 POP POP JUMP JUMPDEST PUSH1 0x0 PUSH1 0x80 DUP3 ADD SWAP1 POP PUSH2 0x33BA PUSH1 0x0 DUP4 ADD DUP8 PUSH2 0x241B JUMP JUMPDEST PUSH2 0x33C7 PUSH1 0x20 DUP4 ADD DUP7 PUSH2 0x241B JUMP JUMPDEST PUSH2 0x33D4 PUSH1 0x40 DUP4 ADD DUP6 PUSH2 0x23C4 JUMP JUMPDEST DUP2 DUP2 SUB PUSH1 0x60 DUP4 ADD MSTORE PUSH2 0x33E6 DUP2 DUP5 PUSH2 0x336C JUMP JUMPDEST SWAP1 POP SWAP6 SWAP5 POP POP POP POP POP JUMP JUMPDEST PUSH2 0x33FA DUP2 PUSH2 0x284C JUMP JUMPDEST DUP2 EQ PUSH2 0x3405 JUMPI PUSH1 0x0 DUP1 REVERT JUMPDEST POP JUMP JUMPDEST PUSH1 0x0 DUP2 MLOAD SWAP1 POP PUSH2 0x3417 DUP2 PUSH2 0x33F1 JUMP JUMPDEST SWAP3 SWAP2 POP POP JUMP JUMPDEST PUSH1 0x0 PUSH1 0x20 DUP3 DUP5 SUB SLT ISZERO PUSH2 0x3433 JUMPI PUSH2 0x3432 PUSH2 0x22B0 JUMP JUMPDEST JUMPDEST PUSH1 0x0 PUSH2 0x3441 DUP5 DUP3 DUP6 ADD PUSH2 0x3408 JUMP JUMPDEST SWAP2 POP POP SWAP3 SWAP2 POP POP JUMP JUMPDEST PUSH32 0x4B4950373A207472616E7366657220746F206E6F6E204B495037526563656976 PUSH1 0x0 DUP3 ADD MSTORE PUSH32 0x657220696D706C656D656E746572000000000000000000000000000000000000 PUSH1 0x20 DUP3 ADD MSTORE POP JUMP JUMPDEST PUSH1 0x0 PUSH2 0x34A6 PUSH1 0x2E DUP4 PUSH2 0x21FF JUMP JUMPDEST SWAP2 POP PUSH2 0x34B1 DUP3 PUSH2 0x344A JUMP JUMPDEST PUSH1 0x40 DUP3 ADD SWAP1 POP SWAP2 SWAP1 POP JUMP JUMPDEST PUSH1 0x0 PUSH1 0x20 DUP3 ADD SWAP1 POP DUP2 DUP2 SUB PUSH1 0x0 DUP4 ADD MSTORE PUSH2 0x34D5 DUP2 PUSH2 0x3499 JUMP JUMPDEST SWAP1 POP SWAP2 SWAP1 POP JUMP INVALID LOG2 PUSH5 0x6970667358 0x22 SLT KECCAK256 0xE0 STOP PUSH30 0x8FF2D086116F6C78547DA65CE52B2319309E74C0C9A4029CAADB8D87CF64 PUSH20 0x6F6C634300081200330000000000000000000000 "
		},
		"gasEstimates": {
			"creation": {
				"codeDepositCost": "2717200",
				"executionCost": "infinite",
				"totalCost": "infinite"
			},
			"external": {
				"allowance(address,address)": "infinite",
				"approve(address,uint256)": "infinite",
				"balanceOf(address)": "2931",
				"calcTokens(address)": "infinite",
				"claim()": "infinite",
				"decimals()": "389",
				"decreaseAllowance(address,uint256)": "infinite",
				"getStakedTokens(address)": "infinite",
				"increaseAllowance(address,uint256)": "infinite",
				"maxSupply()": "2473",
				"name()": "infinite",
				"nft()": "infinite",
				"onKIP17Received(address,address,uint256,bytes)": "infinite",
				"owner()": "2589",
				"rate()": "2519",
				"renounceOwnership()": "30419",
				"safeTransfer(address,uint256)": "infinite",
				"safeTransfer(address,uint256,bytes)": "infinite",
				"safeTransferFrom(address,address,uint256)": "infinite",
				"safeTransferFrom(address,address,uint256,bytes)": "infinite",
				"stake(uint256)": "infinite",
				"stakers(address)": "infinite",
				"symbol()": "infinite",
				"tokenOwner(uint256)": "2885",
				"totalSupply()": "2528",
				"transfer(address,uint256)": "infinite",
				"transferFrom(address,address,uint256)": "infinite",
				"transferOwnership(address)": "30830",
				"unstake(uint256)": "infinite"
			}
		},
		"methodIdentifiers": {
			"allowance(address,address)": "dd62ed3e",
			"approve(address,uint256)": "095ea7b3",
			"balanceOf(address)": "70a08231",
			"calcTokens(address)": "6b325555",
			"claim()": "4e71d92d",
			"decimals()": "313ce567",
			"decreaseAllowance(address,uint256)": "a457c2d7",
			"getStakedTokens(address)": "63c28db1",
			"increaseAllowance(address,uint256)": "39509351",
			"maxSupply()": "d5abeb01",
			"name()": "06fdde03",
			"nft()": "47ccca02",
			"onKIP17Received(address,address,uint256,bytes)": "6745782b",
			"owner()": "8da5cb5b",
			"rate()": "2c4e722e",
			"renounceOwnership()": "715018a6",
			"safeTransfer(address,uint256)": "423f6cef",
			"safeTransfer(address,uint256,bytes)": "eb795549",
			"safeTransferFrom(address,address,uint256)": "42842e0e",
			"safeTransferFrom(address,address,uint256,bytes)": "b88d4fde",
			"stake(uint256)": "a694fc3a",
			"stakers(address)": "9168ae72",
			"symbol()": "95d89b41",
			"tokenOwner(uint256)": "1caaa487",
			"totalSupply()": "18160ddd",
			"transfer(address,uint256)": "a9059cbb",
			"transferFrom(address,address,uint256)": "23b872dd",
			"transferOwnership(address)": "f2fde38b",
			"unstake(uint256)": "2e17de78"
		}
	},
	"abi": [
		{
			"inputs": [
				{
					"internalType": "address",
					"name": "_nft",
					"type": "address"
				},
				{
					"internalType": "string",
					"name": "_name",
					"type": "string"
				},
				{
					"internalType": "string",
					"name": "_symbol",
					"type": "string"
				}
			],
			"stateMutability": "nonpayable",
			"type": "constructor"
		},
		{
			"anonymous": false,
			"inputs": [
				{
					"indexed": true,
					"internalType": "address",
					"name": "owner",
					"type": "address"
				},
				{
					"indexed": true,
					"internalType": "address",
					"name": "spender",
					"type": "address"
				},
				{
					"indexed": false,
					"internalType": "uint256",
					"name": "value",
					"type": "uint256"
				}
			],
			"name": "Approval",
			"type": "event"
		},
		{
			"anonymous": false,
			"inputs": [
				{
					"indexed": true,
					"internalType": "address",
					"name": "previousOwner",
					"type": "address"
				},
				{
					"indexed": true,
					"internalType": "address",
					"name": "newOwner",
					"type": "address"
				}
			],
			"name": "OwnershipTransferred",
			"type": "event"
		},
		{
			"anonymous": false,
			"inputs": [
				{
					"indexed": true,
					"internalType": "address",
					"name": "from",
					"type": "address"
				},
				{
					"indexed": true,
					"internalType": "address",
					"name": "to",
					"type": "address"
				},
				{
					"indexed": false,
					"internalType": "uint256",
					"name": "value",
					"type": "uint256"
				}
			],
			"name": "Transfer",
			"type": "event"
		},
		{
			"inputs": [
				{
					"internalType": "address",
					"name": "owner",
					"type": "address"
				},
				{
					"internalType": "address",
					"name": "spender",
					"type": "address"
				}
			],
			"name": "allowance",
			"outputs": [
				{
					"internalType": "uint256",
					"name": "",
					"type": "uint256"
				}
			],
			"stateMutability": "view",
			"type": "function"
		},
		{
			"inputs": [
				{
					"internalType": "address",
					"name": "spender",
					"type": "address"
				},
				{
					"internalType": "uint256",
					"name": "amount",
					"type": "uint256"
				}
			],
			"name": "approve",
			"outputs": [
				{
					"internalType": "bool",
					"name": "",
					"type": "bool"
				}
			],
			"stateMutability": "nonpayable",
			"type": "function"
		},
		{
			"inputs": [
				{
					"internalType": "address",
					"name": "account",
					"type": "address"
				}
			],
			"name": "balanceOf",
			"outputs": [
				{
					"internalType": "uint256",
					"name": "",
					"type": "uint256"
				}
			],
			"stateMutability": "view",
			"type": "function"
		},
		{
			"inputs": [
				{
					"internalType": "address",
					"name": "_staker",
					"type": "address"
				}
			],
			"name": "calcTokens",
			"outputs": [
				{
					"internalType": "uint256",
					"name": "_rewards",
					"type": "uint256"
				}
			],
			"stateMutability": "view",
			"type": "function"
		},
		{
			"inputs": [],
			"name": "claim",
			"outputs": [],
			"stateMutability": "nonpayable",
			"type": "function"
		},
		{
			"inputs": [],
			"name": "decimals",
			"outputs": [
				{
					"internalType": "uint8",
					"name": "",
					"type": "uint8"
				}
			],
			"stateMutability": "view",
			"type": "function"
		},
		{
			"inputs": [
				{
					"internalType": "address",
					"name": "spender",
					"type": "address"
				},
				{
					"internalType": "uint256",
					"name": "subtractedValue",
					"type": "uint256"
				}
			],
			"name": "decreaseAllowance",
			"outputs": [
				{
					"internalType": "bool",
					"name": "",
					"type": "bool"
				}
			],
			"stateMutability": "nonpayable",
			"type": "function"
		},
		{
			"inputs": [
				{
					"internalType": "address",
					"name": "_user",
					"type": "address"
				}
			],
			"name": "getStakedTokens",
			"outputs": [
				{
					"components": [
						{
							"internalType": "address",
							"name": "staker",
							"type": "address"
						},
						{
							"internalType": "uint256",
							"name": "tokenId",
							"type": "uint256"
						}
					],
					"internalType": "struct RewardToken.StakedToken[]",
					"name": "",
					"type": "tuple[]"
				}
			],
			"stateMutability": "view",
			"type": "function"
		},
		{
			"inputs": [
				{
					"internalType": "address",
					"name": "spender",
					"type": "address"
				},
				{
					"internalType": "uint256",
					"name": "addedValue",
					"type": "uint256"
				}
			],
			"name": "increaseAllowance",
			"outputs": [
				{
					"internalType": "bool",
					"name": "",
					"type": "bool"
				}
			],
			"stateMutability": "nonpayable",
			"type": "function"
		},
		{
			"inputs": [],
			"name": "maxSupply",
			"outputs": [
				{
					"internalType": "uint256",
					"name": "",
					"type": "uint256"
				}
			],
			"stateMutability": "view",
			"type": "function"
		},
		{
			"inputs": [],
			"name": "name",
			"outputs": [
				{
					"internalType": "string",
					"name": "",
					"type": "string"
				}
			],
			"stateMutability": "view",
			"type": "function"
		},
		{
			"inputs": [],
			"name": "nft",
			"outputs": [
				{
					"internalType": "contract IKIP17",
					"name": "",
					"type": "address"
				}
			],
			"stateMutability": "view",
			"type": "function"
		},
		{
			"inputs": [
				{
					"internalType": "address",
					"name": "",
					"type": "address"
				},
				{
					"internalType": "address",
					"name": "",
					"type": "address"
				},
				{
					"internalType": "uint256",
					"name": "",
					"type": "uint256"
				},
				{
					"internalType": "bytes",
					"name": "",
					"type": "bytes"
				}
			],
			"name": "onKIP17Received",
			"outputs": [
				{
					"internalType": "bytes4",
					"name": "",
					"type": "bytes4"
				}
			],
			"stateMutability": "nonpayable",
			"type": "function"
		},
		{
			"inputs": [],
			"name": "owner",
			"outputs": [
				{
					"internalType": "address",
					"name": "",
					"type": "address"
				}
			],
			"stateMutability": "view",
			"type": "function"
		},
		{
			"inputs": [],
			"name": "rate",
			"outputs": [
				{
					"internalType": "uint256",
					"name": "",
					"type": "uint256"
				}
			],
			"stateMutability": "view",
			"type": "function"
		},
		{
			"inputs": [],
			"name": "renounceOwnership",
			"outputs": [],
			"stateMutability": "nonpayable",
			"type": "function"
		},
		{
			"inputs": [
				{
					"internalType": "address",
					"name": "recipient",
					"type": "address"
				},
				{
					"internalType": "uint256",
					"name": "amount",
					"type": "uint256"
				}
			],
			"name": "safeTransfer",
			"outputs": [],
			"stateMutability": "nonpayable",
			"type": "function"
		},
		{
			"inputs": [
				{
					"internalType": "address",
					"name": "recipient",
					"type": "address"
				},
				{
					"internalType": "uint256",
					"name": "amount",
					"type": "uint256"
				},
				{
					"internalType": "bytes",
					"name": "_data",
					"type": "bytes"
				}
			],
			"name": "safeTransfer",
			"outputs": [],
			"stateMutability": "nonpayable",
			"type": "function"
		},
		{
			"inputs": [
				{
					"internalType": "address",
					"name": "sender",
					"type": "address"
				},
				{
					"internalType": "address",
					"name": "recipient",
					"type": "address"
				},
				{
					"internalType": "uint256",
					"name": "amount",
					"type": "uint256"
				}
			],
			"name": "safeTransferFrom",
			"outputs": [],
			"stateMutability": "nonpayable",
			"type": "function"
		},
		{
			"inputs": [
				{
					"internalType": "address",
					"name": "sender",
					"type": "address"
				},
				{
					"internalType": "address",
					"name": "recipient",
					"type": "address"
				},
				{
					"internalType": "uint256",
					"name": "amount",
					"type": "uint256"
				},
				{
					"internalType": "bytes",
					"name": "_data",
					"type": "bytes"
				}
			],
			"name": "safeTransferFrom",
			"outputs": [],
			"stateMutability": "nonpayable",
			"type": "function"
		},
		{
			"inputs": [
				{
					"internalType": "uint256",
					"name": "tokenId",
					"type": "uint256"
				}
			],
			"name": "stake",
			"outputs": [],
			"stateMutability": "nonpayable",
			"type": "function"
		},
		{
			"inputs": [
				{
					"internalType": "address",
					"name": "",
					"type": "address"
				}
			],
			"name": "stakers",
			"outputs": [
				{
					"internalType": "uint256",
					"name": "amountStaked",
					"type": "uint256"
				},
				{
					"internalType": "uint256",
					"name": "tokenStakeAt",
					"type": "uint256"
				}
			],
			"stateMutability": "view",
			"type": "function"
		},
		{
			"inputs": [],
			"name": "symbol",
			"outputs": [
				{
					"internalType": "string",
					"name": "",
					"type": "string"
				}
			],
			"stateMutability": "view",
			"type": "function"
		},
		{
			"inputs": [
				{
					"internalType": "uint256",
					"name": "",
					"type": "uint256"
				}
			],
			"name": "tokenOwner",
			"outputs": [
				{
					"internalType": "address",
					"name": "",
					"type": "address"
				}
			],
			"stateMutability": "view",
			"type": "function"
		},
		{
			"inputs": [],
			"name": "totalSupply",
			"outputs": [
				{
					"internalType": "uint256",
					"name": "",
					"type": "uint256"
				}
			],
			"stateMutability": "view",
			"type": "function"
		},
		{
			"inputs": [
				{
					"internalType": "address",
					"name": "to",
					"type": "address"
				},
				{
					"internalType": "uint256",
					"name": "amount",
					"type": "uint256"
				}
			],
			"name": "transfer",
			"outputs": [
				{
					"internalType": "bool",
					"name": "",
					"type": "bool"
				}
			],
			"stateMutability": "nonpayable",
			"type": "function"
		},
		{
			"inputs": [
				{
					"internalType": "address",
					"name": "from",
					"type": "address"
				},
				{
					"internalType": "address",
					"name": "to",
					"type": "address"
				},
				{
					"internalType": "uint256",
					"name": "amount",
					"type": "uint256"
				}
			],
			"name": "transferFrom",
			"outputs": [
				{
					"internalType": "bool",
					"name": "",
					"type": "bool"
				}
			],
			"stateMutability": "nonpayable",
			"type": "function"
		},
		{
			"inputs": [
				{
					"internalType": "address",
					"name": "newOwner",
					"type": "address"
				}
			],
			"name": "transferOwnership",
			"outputs": [],
			"stateMutability": "nonpayable",
			"type": "function"
		},
		{
			"inputs": [
				{
					"internalType": "uint256",
					"name": "tokenId",
					"type": "uint256"
				}
			],
			"name": "unstake",
			"outputs": [],
			"stateMutability": "nonpayable",
			"type": "function"
		}
	]
}