{
	"data": {
		"bytecode": {
			"linkReferences": {},
			"object": "60806040526040518060400160405280600581526020017f2e6a736f6e000000000000000000000000000000000000000000000000000000815250600c90816200004a919062000611565b506028600d556003600e556000600f5560016010556000601160006101000a81548160ff0219169083151502179055506001601160016101000a81548160ff0219169083151502179055506000601360006101000a81548160ff021916908315150217905550348015620000bd57600080fd5b5060405162005cc738038062005cc78339818101604052810190620000e391906200085c565b83838160009081620000f6919062000611565b50806001908162000108919062000611565b5050506200012b6200011f6200015760201b60201c565b6200015f60201b60201c565b6200013c826200022560201b60201c565b6200014d81620002c960201b60201c565b50505050620009cd565b600033905090565b6000600a60009054906101000a900473ffffffffffffffffffffffffffffffffffffffff16905081600a60006101000a81548173ffffffffffffffffffffffffffffffffffffffff021916908373ffffffffffffffffffffffffffffffffffffffff1602179055508173ffffffffffffffffffffffffffffffffffffffff168173ffffffffffffffffffffffffffffffffffffffff167f8be0079c531659141344cd1fd0a4f28419497f9722a3daafe3b4186f6b6457e060405160405180910390a35050565b620002356200015760201b60201c565b73ffffffffffffffffffffffffffffffffffffffff166200025b6200036d60201b60201c565b73ffffffffffffffffffffffffffffffffffffffff1614620002b4576040517f08c379a0000000000000000000000000000000000000000000000000000000008152600401620002ab90620009ab565b60405180910390fd5b80600b9081620002c5919062000611565b5050565b620002d96200015760201b60201c565b73ffffffffffffffffffffffffffffffffffffffff16620002ff6200036d60201b60201c565b73ffffffffffffffffffffffffffffffffffffffff161462000358576040517f08c379a00000000000000000000000000000000000000000000000000000000081526004016200034f90620009ab565b60405180910390fd5b806012908162000369919062000611565b5050565b6000600a60009054906101000a900473ffffffffffffffffffffffffffffffffffffffff16905090565b600081519050919050565b7f4e487b7100000000000000000000000000000000000000000000000000000000600052604160045260246000fd5b7f4e487b7100000000000000000000000000000000000000000000000000000000600052602260045260246000fd5b600060028204905060018216806200041957607f821691505b6020821081036200042f576200042e620003d1565b5b50919050565b60008190508160005260206000209050919050565b60006020601f8301049050919050565b600082821b905092915050565b600060088302620004997fffffffffffffffffffffffffffffffffffffffffffffffffffffffffffffffff826200045a565b620004a586836200045a565b95508019841693508086168417925050509392505050565b6000819050919050565b6000819050919050565b6000620004f2620004ec620004e684620004bd565b620004c7565b620004bd565b9050919050565b6000819050919050565b6200050e83620004d1565b620005266200051d82620004f9565b84845462000467565b825550505050565b600090565b6200053d6200052e565b6200054a81848462000503565b505050565b5b8181101562000572576200056660008262000533565b60018101905062000550565b5050565b601f821115620005c1576200058b8162000435565b62000596846200044a565b81016020851015620005a6578190505b620005be620005b5856200044a565b8301826200054f565b50505b505050565b600082821c905092915050565b6000620005e660001984600802620005c6565b1980831691505092915050565b6000620006018383620005d3565b9150826002028217905092915050565b6200061c8262000397565b67ffffffffffffffff811115620006385762000637620003a2565b5b62000644825462000400565b6200065182828562000576565b600060209050601f83116001811462000689576000841562000674578287015190505b620006808582620005f3565b865550620006f0565b601f198416620006998662000435565b60005b82811015620006c3578489015182556001820191506020850194506020810190506200069c565b86831015620006e35784890151620006df601f891682620005d3565b8355505b6001600288020188555050505b505050505050565b6000604051905090565b600080fd5b600080fd5b600080fd5b600080fd5b6000601f19601f8301169050919050565b620007328262000716565b810181811067ffffffffffffffff82111715620007545762000753620003a2565b5b80604052505050565b600062000769620006f8565b905062000777828262000727565b919050565b600067ffffffffffffffff8211156200079a5762000799620003a2565b5b620007a58262000716565b9050602081019050919050565b60005b83811015620007d2578082015181840152602081019050620007b5565b60008484015250505050565b6000620007f5620007ef846200077c565b6200075d565b90508281526020810184848401111562000814576200081362000711565b5b62000821848285620007b2565b509392505050565b600082601f8301126200084157620008406200070c565b5b815162000853848260208601620007de565b91505092915050565b6000806000806080858703121562000879576200087862000702565b5b600085015167ffffffffffffffff8111156200089a576200089962000707565b5b620008a88782880162000829565b945050602085015167ffffffffffffffff811115620008cc57620008cb62000707565b5b620008da8782880162000829565b935050604085015167ffffffffffffffff811115620008fe57620008fd62000707565b5b6200090c8782880162000829565b925050606085015167ffffffffffffffff81111562000930576200092f62000707565b5b6200093e8782880162000829565b91505092959194509250565b600082825260208201905092915050565b7f4f776e61626c653a2063616c6c6572206973206e6f7420746865206f776e6572600082015250565b6000620009936020836200094a565b9150620009a0826200095b565b602082019050919050565b60006020820190508181036000830152620009c68162000984565b9050919050565b6152ea80620009dd6000396000f3fe6080604052600436106102675760003560e01c80636352211e11610144578063b88d4fde116100b6578063d5abeb011161007a578063d5abeb0114610933578063da3ef23f1461095e578063e985e9c514610987578063f2c4ce1e146109c4578063f2fde38b146109ed578063f80f5dd514610a1657610267565b8063b88d4fde1461084e578063ba7d2c7614610877578063c6682862146108a2578063c87b56dd146108cd578063d2521ae81461090a57610267565b80637f00c7a6116101085780637f00c7a6146107645780638da5cb5b1461078d57806395d89b41146107b85780639c70b512146107e3578063a22cb4651461080e578063a475b5dd1461083757610267565b80636352211e1461067d5780636817c76c146106ba5780636c0360eb146106e557806370a0823114610710578063715018a61461074d57610267565b80633c952764116101dd57806347fc73fd116101a157806347fc73fd1461055b5780634f6ccce71461059857806351830227146105d557806351cff8d91461060057806355f804b3146106295780635c975abb1461065257610267565b80633c9527641461048757806340c10f19146104b057806342842e0e146104cc578063438b6300146104f557806344a0d68a1461053257610267565b8063095ea7b31161022f578063095ea7b31461036557806318160ddd1461038e57806318cae269146103b9578063239c70ae146103f657806323b872dd146104215780632f745c591461044a57610267565b806301ffc9a71461026c57806302329a29146102a957806306fdde03146102d2578063081812fc146102fd578063081c8c441461033a575b600080fd5b34801561027857600080fd5b50610293600480360381019061028e9190613711565b610a3f565b6040516102a09190613759565b60405180910390f35b3480156102b557600080fd5b506102d060048036038101906102cb91906137a0565b610ab9565b005b3480156102de57600080fd5b506102e7610b52565b6040516102f4919061385d565b60405180910390f35b34801561030957600080fd5b50610324600480360381019061031f91906138b5565b610be4565b6040516103319190613923565b60405180910390f35b34801561034657600080fd5b5061034f610c69565b60405161035c919061385d565b60405180910390f35b34801561037157600080fd5b5061038c6004803603810190610387919061396a565b610cf7565b005b34801561039a57600080fd5b506103a3610e0e565b6040516103b091906139b9565b60405180910390f35b3480156103c557600080fd5b506103e060048036038101906103db91906139d4565b610e1b565b6040516103ed91906139b9565b60405180910390f35b34801561040257600080fd5b5061040b610e33565b60405161041891906139b9565b60405180910390f35b34801561042d57600080fd5b5061044860048036038101906104439190613a01565b610e39565b005b34801561045657600080fd5b50610471600480360381019061046c919061396a565b610e99565b60405161047e91906139b9565b60405180910390f35b34801561049357600080fd5b506104ae60048036038101906104a991906137a0565b610f3e565b005b6104ca60048036038101906104c5919061396a565b610fd7565b005b3480156104d857600080fd5b506104f360048036038101906104ee9190613a01565b6114c7565b005b34801561050157600080fd5b5061051c600480360381019061051791906139d4565b6114e7565b6040516105299190613b12565b60405180910390f35b34801561053e57600080fd5b50610559600480360381019061055491906138b5565b611595565b005b34801561056757600080fd5b50610582600480360381019061057d91906139d4565b61161b565b60405161058f91906139b9565b60405180910390f35b3480156105a457600080fd5b506105bf60048036038101906105ba91906138b5565b611633565b6040516105cc91906139b9565b60405180910390f35b3480156105e157600080fd5b506105ea6116a4565b6040516105f79190613759565b60405180910390f35b34801561060c57600080fd5b5061062760048036038101906106229190613b72565b6116b7565b005b34801561063557600080fd5b50610650600480360381019061064b9190613cd4565b61177d565b005b34801561065e57600080fd5b5061066761180c565b6040516106749190613759565b60405180910390f35b34801561068957600080fd5b506106a4600480360381019061069f91906138b5565b61181f565b6040516106b19190613923565b60405180910390f35b3480156106c657600080fd5b506106cf6118d0565b6040516106dc91906139b9565b60405180910390f35b3480156106f157600080fd5b506106fa6118d6565b604051610707919061385d565b60405180910390f35b34801561071c57600080fd5b50610737600480360381019061073291906139d4565b611964565b60405161074491906139b9565b60405180910390f35b34801561075957600080fd5b50610762611a1b565b005b34801561077057600080fd5b5061078b600480360381019061078691906138b5565b611aa3565b005b34801561079957600080fd5b506107a2611b29565b6040516107af9190613923565b60405180910390f35b3480156107c457600080fd5b506107cd611b53565b6040516107da919061385d565b60405180910390f35b3480156107ef57600080fd5b506107f8611be5565b6040516108059190613759565b60405180910390f35b34801561081a57600080fd5b5061083560048036038101906108309190613d1d565b611bf8565b005b34801561084357600080fd5b5061084c611c0e565b005b34801561085a57600080fd5b5061087560048036038101906108709190613dfe565b611ca7565b005b34801561088357600080fd5b5061088c611d09565b60405161089991906139b9565b60405180910390f35b3480156108ae57600080fd5b506108b7611d0f565b6040516108c4919061385d565b60405180910390f35b3480156108d957600080fd5b506108f460048036038101906108ef91906138b5565b611d9d565b604051610901919061385d565b60405180910390f35b34801561091657600080fd5b50610931600480360381019061092c91906138b5565b611f84565b005b34801561093f57600080fd5b5061094861200a565b60405161095591906139b9565b60405180910390f35b34801561096a57600080fd5b5061098560048036038101906109809190613cd4565b612010565b005b34801561099357600080fd5b506109ae60048036038101906109a99190613e81565b61209f565b6040516109bb9190613759565b60405180910390f35b3480156109d057600080fd5b506109eb60048036038101906109e69190613cd4565b612133565b005b3480156109f957600080fd5b50610a146004803603810190610a0f91906139d4565b6121c2565b005b348015610a2257600080fd5b50610a3d6004803603810190610a3891906139d4565b6122b9565b005b60007f780e9d63000000000000000000000000000000000000000000000000000000007bffffffffffffffffffffffffffffffffffffffffffffffffffffffff1916827bffffffffffffffffffffffffffffffffffffffffffffffffffffffff19161480610ab25750610ab182612390565b5b9050919050565b610ac1612472565b73ffffffffffffffffffffffffffffffffffffffff16610adf611b29565b73ffffffffffffffffffffffffffffffffffffffff1614610b35576040517f08c379a0000000000000000000000000000000000000000000000000000000008152600401610b2c90613f0d565b60405180910390fd5b80601160006101000a81548160ff02191690831515021790555050565b606060008054610b6190613f5c565b80601f0160208091040260200160405190810160405280929190818152602001828054610b8d90613f5c565b8015610bda5780601f10610baf57610100808354040283529160200191610bda565b820191906000526020600020905b815481529060010190602001808311610bbd57829003601f168201915b5050505050905090565b6000610bef8261247a565b610c2e576040517f08c379a0000000000000000000000000000000000000000000000000000000008152600401610c2590613fff565b60405180910390fd5b6004600083815260200190815260200160002060009054906101000a900473ffffffffffffffffffffffffffffffffffffffff169050919050565b60128054610c7690613f5c565b80601f0160208091040260200160405190810160405280929190818152602001828054610ca290613f5c565b8015610cef5780601f10610cc457610100808354040283529160200191610cef565b820191906000526020600020905b815481529060010190602001808311610cd257829003601f168201915b505050505081565b6000610d028261181f565b90508073ffffffffffffffffffffffffffffffffffffffff168373ffffffffffffffffffffffffffffffffffffffff1603610d72576040517f08c379a0000000000000000000000000000000000000000000000000000000008152600401610d699061406b565b60405180910390fd5b8073ffffffffffffffffffffffffffffffffffffffff16610d91612472565b73ffffffffffffffffffffffffffffffffffffffff161480610dc05750610dbf81610dba612472565b61209f565b5b610dff576040517f08c379a0000000000000000000000000000000000000000000000000000000008152600401610df6906140fd565b60405180910390fd5b610e0983836124e6565b505050565b6000600880549050905090565b60156020528060005260406000206000915090505481565b600e5481565b610e4a610e44612472565b8261259f565b610e89576040517f08c379a0000000000000000000000000000000000000000000000000000000008152600401610e809061418f565b60405180910390fd5b610e9483838361267d565b505050565b6000610ea483611964565b8210610ee5576040517f08c379a0000000000000000000000000000000000000000000000000000000008152600401610edc90614221565b60405180910390fd5b600660008473ffffffffffffffffffffffffffffffffffffffff1673ffffffffffffffffffffffffffffffffffffffff168152602001908152602001600020600083815260200190815260200160002054905092915050565b610f46612472565b73ffffffffffffffffffffffffffffffffffffffff16610f64611b29565b73ffffffffffffffffffffffffffffffffffffffff1614610fba576040517f08c379a0000000000000000000000000000000000000000000000000000000008152600401610fb190613f0d565b60405180910390fd5b80601360006101000a81548160ff02191690831515021790555050565b601160009054906101000a900460ff1615611027576040517f08c379a000000000000000000000000000000000000000000000000000000000815260040161101e9061428d565b60405180910390fd5b6000611031610e0e565b905060008211611076576040517f08c379a000000000000000000000000000000000000000000000000000000000815260040161106d906142f9565b60405180910390fd5b600e548211156110bb576040517f08c379a00000000000000000000000000000000000000000000000000000000081526004016110b29061438b565b60405180910390fd5b600d5482826110ca91906143da565b111561110b576040517f08c379a00000000000000000000000000000000000000000000000000000000081526004016111029061445a565b60405180910390fd5b611113611b29565b73ffffffffffffffffffffffffffffffffffffffff163373ffffffffffffffffffffffffffffffffffffffff16146114365760011515601360009054906101000a900460ff1615150361128257601460003373ffffffffffffffffffffffffffffffffffffffff1673ffffffffffffffffffffffffffffffffffffffff16815260200190815260200160002060009054906101000a900460ff166111ec576040517f08c379a00000000000000000000000000000000000000000000000000000000081526004016111e3906144c6565b60405180910390fd5b6000601560003373ffffffffffffffffffffffffffffffffffffffff1673ffffffffffffffffffffffffffffffffffffffff168152602001908152602001600020549050601054838261123f91906143da565b1115611280576040517f08c379a000000000000000000000000000000000000000000000000000000000815260040161127790614532565b60405180910390fd5b505b81600f546112909190614552565b3410156112d2576040517f08c379a00000000000000000000000000000000000000000000000000000000081526004016112c9906145e0565b60405180910390fd5b6000601660003373ffffffffffffffffffffffffffffffffffffffff1673ffffffffffffffffffffffffffffffffffffffff16815260200190815260200160002054036113625742601660003373ffffffffffffffffffffffffffffffffffffffff1673ffffffffffffffffffffffffffffffffffffffff16815260200190815260200160002081905550611435565b6005601660003373ffffffffffffffffffffffffffffffffffffffff1673ffffffffffffffffffffffffffffffffffffffff168152602001908152602001600020546113ae91906143da565b4210156113f0576040517f08c379a00000000000000000000000000000000000000000000000000000000081526004016113e79061464c565b60405180910390fd5b42601660003373ffffffffffffffffffffffffffffffffffffffff1673ffffffffffffffffffffffffffffffffffffffff168152602001908152602001600020819055505b5b6000600190505b8281116114c157601560003373ffffffffffffffffffffffffffffffffffffffff1673ffffffffffffffffffffffffffffffffffffffff16815260200190815260200160002060008154809291906114949061466c565b91905055506114ae8482846114a991906143da565b6128e3565b80806114b99061466c565b91505061143d565b50505050565b6114e283838360405180602001604052806000815250611ca7565b505050565b606060006114f483611964565b905060008167ffffffffffffffff81111561151257611511613ba9565b5b6040519080825280602002602001820160405280156115405781602001602082028036833780820191505090505b50905060005b8281101561158a576115588582610e99565b82828151811061156b5761156a6146b4565b5b60200260200101818152505080806115829061466c565b915050611546565b508092505050919050565b61159d612472565b73ffffffffffffffffffffffffffffffffffffffff166115bb611b29565b73ffffffffffffffffffffffffffffffffffffffff1614611611576040517f08c379a000000000000000000000000000000000000000000000000000000000815260040161160890613f0d565b60405180910390fd5b80600f8190555050565b60166020528060005260406000206000915090505481565b600061163d610e0e565b821061167e576040517f08c379a000000000000000000000000000000000000000000000000000000000815260040161167590614755565b60405180910390fd5b60088281548110611692576116916146b4565b5b90600052602060002001549050919050565b601160019054906101000a900460ff1681565b6116bf612472565b73ffffffffffffffffffffffffffffffffffffffff166116dd611b29565b73ffffffffffffffffffffffffffffffffffffffff1614611733576040517f08c379a000000000000000000000000000000000000000000000000000000000815260040161172a90613f0d565b60405180910390fd5b8073ffffffffffffffffffffffffffffffffffffffff166108fc479081150290604051600060405180830381858888f19350505050158015611779573d6000803e3d6000fd5b5050565b611785612472565b73ffffffffffffffffffffffffffffffffffffffff166117a3611b29565b73ffffffffffffffffffffffffffffffffffffffff16146117f9576040517f08c379a00000000000000000000000000000000000000000000000000000000081526004016117f090613f0d565b60405180910390fd5b80600b90816118089190614921565b5050565b601160009054906101000a900460ff1681565b6000806002600084815260200190815260200160002060009054906101000a900473ffffffffffffffffffffffffffffffffffffffff169050600073ffffffffffffffffffffffffffffffffffffffff168173ffffffffffffffffffffffffffffffffffffffff16036118c7576040517f08c379a00000000000000000000000000000000000000000000000000000000081526004016118be90614a65565b60405180910390fd5b80915050919050565b600f5481565b600b80546118e390613f5c565b80601f016020809104026020016040519081016040528092919081815260200182805461190f90613f5c565b801561195c5780601f106119315761010080835404028352916020019161195c565b820191906000526020600020905b81548152906001019060200180831161193f57829003601f168201915b505050505081565b60008073ffffffffffffffffffffffffffffffffffffffff168273ffffffffffffffffffffffffffffffffffffffff16036119d4576040517f08c379a00000000000000000000000000000000000000000000000000000000081526004016119cb90614af7565b60405180910390fd5b600360008373ffffffffffffffffffffffffffffffffffffffff1673ffffffffffffffffffffffffffffffffffffffff168152602001908152602001600020549050919050565b611a23612472565b73ffffffffffffffffffffffffffffffffffffffff16611a41611b29565b73ffffffffffffffffffffffffffffffffffffffff1614611a97576040517f08c379a0000000000000000000000000000000000000000000000000000000008152600401611a8e90613f0d565b60405180910390fd5b611aa16000612901565b565b611aab612472565b73ffffffffffffffffffffffffffffffffffffffff16611ac9611b29565b73ffffffffffffffffffffffffffffffffffffffff1614611b1f576040517f08c379a0000000000000000000000000000000000000000000000000000000008152600401611b1690613f0d565b60405180910390fd5b80600e8190555050565b6000600a60009054906101000a900473ffffffffffffffffffffffffffffffffffffffff16905090565b606060018054611b6290613f5c565b80601f0160208091040260200160405190810160405280929190818152602001828054611b8e90613f5c565b8015611bdb5780601f10611bb057610100808354040283529160200191611bdb565b820191906000526020600020905b815481529060010190602001808311611bbe57829003601f168201915b5050505050905090565b601360009054906101000a900460ff1681565b611c0a611c03612472565b83836129c7565b5050565b611c16612472565b73ffffffffffffffffffffffffffffffffffffffff16611c34611b29565b73ffffffffffffffffffffffffffffffffffffffff1614611c8a576040517f08c379a0000000000000000000000000000000000000000000000000000000008152600401611c8190613f0d565b60405180910390fd5b6001601160016101000a81548160ff021916908315150217905550565b611cb8611cb2612472565b8361259f565b611cf7576040517f08c379a0000000000000000000000000000000000000000000000000000000008152600401611cee9061418f565b60405180910390fd5b611d0384848484612b33565b50505050565b60105481565b600c8054611d1c90613f5c565b80601f0160208091040260200160405190810160405280929190818152602001828054611d4890613f5c565b8015611d955780601f10611d6a57610100808354040283529160200191611d95565b820191906000526020600020905b815481529060010190602001808311611d7857829003601f168201915b505050505081565b6060611da88261247a565b611de7576040517f08c379a0000000000000000000000000000000000000000000000000000000008152600401611dde90614b89565b60405180910390fd5b60001515601160019054906101000a900460ff16151503611e945760128054611e0f90613f5c565b80601f0160208091040260200160405190810160405280929190818152602001828054611e3b90613f5c565b8015611e885780601f10611e5d57610100808354040283529160200191611e88565b820191906000526020600020905b815481529060010190602001808311611e6b57829003601f168201915b50505050509050611f7f565b6000600b8054611ea390613f5c565b80601f0160208091040260200160405190810160405280929190818152602001828054611ecf90613f5c565b8015611f1c5780601f10611ef157610100808354040283529160200191611f1c565b820191906000526020600020905b815481529060010190602001808311611eff57829003601f168201915b5050505050905060606000849050611f3381612ba2565b91506000835111611f535760405180602001604052806000815250611f79565b8282600c604051602001611f6993929190614c68565b6040516020818303038152906040525b93505050505b919050565b611f8c612472565b73ffffffffffffffffffffffffffffffffffffffff16611faa611b29565b73ffffffffffffffffffffffffffffffffffffffff1614612000576040517f08c379a0000000000000000000000000000000000000000000000000000000008152600401611ff790613f0d565b60405180910390fd5b8060108190555050565b600d5481565b612018612472565b73ffffffffffffffffffffffffffffffffffffffff16612036611b29565b73ffffffffffffffffffffffffffffffffffffffff161461208c576040517f08c379a000000000000000000000000000000000000000000000000000000000815260040161208390613f0d565b60405180910390fd5b80600c908161209b9190614921565b5050565b6000600560008473ffffffffffffffffffffffffffffffffffffffff1673ffffffffffffffffffffffffffffffffffffffff16815260200190815260200160002060008373ffffffffffffffffffffffffffffffffffffffff1673ffffffffffffffffffffffffffffffffffffffff16815260200190815260200160002060009054906101000a900460ff16905092915050565b61213b612472565b73ffffffffffffffffffffffffffffffffffffffff16612159611b29565b73ffffffffffffffffffffffffffffffffffffffff16146121af576040517f08c379a00000000000000000000000000000000000000000000000000000000081526004016121a690613f0d565b60405180910390fd5b80601290816121be9190614921565b5050565b6121ca612472565b73ffffffffffffffffffffffffffffffffffffffff166121e8611b29565b73ffffffffffffffffffffffffffffffffffffffff161461223e576040517f08c379a000000000000000000000000000000000000000000000000000000000815260040161223590613f0d565b60405180910390fd5b600073ffffffffffffffffffffffffffffffffffffffff168173ffffffffffffffffffffffffffffffffffffffff16036122ad576040517f08c379a00000000000000000000000000000000000000000000000000000000081526004016122a490614d0b565b60405180910390fd5b6122b681612901565b50565b6122c1612472565b73ffffffffffffffffffffffffffffffffffffffff166122df611b29565b73ffffffffffffffffffffffffffffffffffffffff1614612335576040517f08c379a000000000000000000000000000000000000000000000000000000000815260040161232c90613f0d565b60405180910390fd5b6001601460008373ffffffffffffffffffffffffffffffffffffffff1673ffffffffffffffffffffffffffffffffffffffff16815260200190815260200160002060006101000a81548160ff02191690831515021790555050565b60007f80ac58cd000000000000000000000000000000000000000000000000000000007bffffffffffffffffffffffffffffffffffffffffffffffffffffffff1916827bffffffffffffffffffffffffffffffffffffffffffffffffffffffff1916148061245b57507f5b5e139f000000000000000000000000000000000000000000000000000000007bffffffffffffffffffffffffffffffffffffffffffffffffffffffff1916827bffffffffffffffffffffffffffffffffffffffffffffffffffffffff1916145b8061246b575061246a82612d02565b5b9050919050565b600033905090565b60008073ffffffffffffffffffffffffffffffffffffffff166002600084815260200190815260200160002060009054906101000a900473ffffffffffffffffffffffffffffffffffffffff1673ffffffffffffffffffffffffffffffffffffffff1614159050919050565b816004600083815260200190815260200160002060006101000a81548173ffffffffffffffffffffffffffffffffffffffff021916908373ffffffffffffffffffffffffffffffffffffffff160217905550808273ffffffffffffffffffffffffffffffffffffffff166125598361181f565b73ffffffffffffffffffffffffffffffffffffffff167f8c5be1e5ebec7d5bd14f71427d1e84f3dd0314c0f7b2291e5b200ac8c7c3b92560405160405180910390a45050565b60006125aa8261247a565b6125e9576040517f08c379a00000000000000000000000000000000000000000000000000000000081526004016125e090614d9d565b60405180910390fd5b60006125f48361181f565b90508073ffffffffffffffffffffffffffffffffffffffff168473ffffffffffffffffffffffffffffffffffffffff1614806126365750612635818561209f565b5b8061267457508373ffffffffffffffffffffffffffffffffffffffff1661265c84610be4565b73ffffffffffffffffffffffffffffffffffffffff16145b91505092915050565b8273ffffffffffffffffffffffffffffffffffffffff1661269d8261181f565b73ffffffffffffffffffffffffffffffffffffffff16146126f3576040517f08c379a00000000000000000000000000000000000000000000000000000000081526004016126ea90614e2f565b60405180910390fd5b600073ffffffffffffffffffffffffffffffffffffffff168273ffffffffffffffffffffffffffffffffffffffff1603612762576040517f08c379a000000000000000000000000000000000000000000000000000000000815260040161275990614ec1565b60405180910390fd5b61276d838383612d6c565b6127786000826124e6565b6001600360008573ffffffffffffffffffffffffffffffffffffffff1673ffffffffffffffffffffffffffffffffffffffff16815260200190815260200160002060008282546127c89190614ee1565b925050819055506001600360008473ffffffffffffffffffffffffffffffffffffffff1673ffffffffffffffffffffffffffffffffffffffff168152602001908152602001600020600082825461281f91906143da565b92505081905550816002600083815260200190815260200160002060006101000a81548173ffffffffffffffffffffffffffffffffffffffff021916908373ffffffffffffffffffffffffffffffffffffffff160217905550808273ffffffffffffffffffffffffffffffffffffffff168473ffffffffffffffffffffffffffffffffffffffff167fddf252ad1be2c89b69c2b068fc378daa952ba7f163c4a11628f55a4df523b3ef60405160405180910390a46128de838383612e7e565b505050565b6128fd828260405180602001604052806000815250612e83565b5050565b6000600a60009054906101000a900473ffffffffffffffffffffffffffffffffffffffff16905081600a60006101000a81548173ffffffffffffffffffffffffffffffffffffffff021916908373ffffffffffffffffffffffffffffffffffffffff1602179055508173ffffffffffffffffffffffffffffffffffffffff168173ffffffffffffffffffffffffffffffffffffffff167f8be0079c531659141344cd1fd0a4f28419497f9722a3daafe3b4186f6b6457e060405160405180910390a35050565b8173ffffffffffffffffffffffffffffffffffffffff168373ffffffffffffffffffffffffffffffffffffffff1603612a35576040517f08c379a0000000000000000000000000000000000000000000000000000000008152600401612a2c90614f61565b60405180910390fd5b80600560008573ffffffffffffffffffffffffffffffffffffffff1673ffffffffffffffffffffffffffffffffffffffff16815260200190815260200160002060008473ffffffffffffffffffffffffffffffffffffffff1673ffffffffffffffffffffffffffffffffffffffff16815260200190815260200160002060006101000a81548160ff0219169083151502179055508173ffffffffffffffffffffffffffffffffffffffff168373ffffffffffffffffffffffffffffffffffffffff167f17307eab39ab6107e8899845ad3d59bd9653f200f220920489ca2b5937696c3183604051612b269190613759565b60405180910390a3505050565b612b3e84848461267d565b612b4a84848484612ef2565b80612b5d5750612b5c84848484613048565b5b612b9c576040517f08c379a0000000000000000000000000000000000000000000000000000000008152600401612b9390615019565b60405180910390fd5b50505050565b606060008203612be9576040518060400160405280600181526020017f30000000000000000000000000000000000000000000000000000000000000008152509050612cfd565b600082905060005b60008214612c1b578080612c049061466c565b915050600a82612c149190615068565b9150612bf1565b60008167ffffffffffffffff811115612c3757612c36613ba9565b5b6040519080825280601f01601f191660200182016040528015612c695781602001600182028036833780820191505090505b5090505b60008514612cf657600182612c829190614ee1565b9150600a85612c919190615099565b6030612c9d91906143da565b60f81b818381518110612cb357612cb26146b4565b5b60200101907effffffffffffffffffffffffffffffffffffffffffffffffffffffffffffff1916908160001a905350600a85612cef9190615068565b9450612c6d565b8093505050505b919050565b60007f01ffc9a7000000000000000000000000000000000000000000000000000000007bffffffffffffffffffffffffffffffffffffffffffffffffffffffff1916827bffffffffffffffffffffffffffffffffffffffffffffffffffffffff1916149050919050565b612d7783838361319e565b600073ffffffffffffffffffffffffffffffffffffffff168373ffffffffffffffffffffffffffffffffffffffff1603612db957612db4816131a3565b612df8565b8173ffffffffffffffffffffffffffffffffffffffff168373ffffffffffffffffffffffffffffffffffffffff1614612df757612df683826131ec565b5b5b600073ffffffffffffffffffffffffffffffffffffffff168273ffffffffffffffffffffffffffffffffffffffff1603612e3a57612e3581613359565b612e79565b8273ffffffffffffffffffffffffffffffffffffffff168273ffffffffffffffffffffffffffffffffffffffff1614612e7857612e77828261342a565b5b5b505050565b505050565b612e8d83836134a9565b612e9a6000848484612ef2565b80612eae5750612ead6000848484613048565b5b612eed576040517f08c379a0000000000000000000000000000000000000000000000000000000008152600401612ee490615019565b60405180910390fd5b505050565b6000612f138473ffffffffffffffffffffffffffffffffffffffff16613682565b1561303b578373ffffffffffffffffffffffffffffffffffffffff16636745782b612f3c612472565b8786866040518563ffffffff1660e01b8152600401612f5e949392919061511f565b6020604051808303816000875af1925050508015612f9a57506040513d601f19601f82011682018060405250810190612f979190615180565b60015b612feb573d8060008114612fca576040519150601f19603f3d011682016040523d82523d6000602084013e612fcf565b606091505b506000815103612fe3576000915050613040565b805181602001fd5b636745782b60e01b7bffffffffffffffffffffffffffffffffffffffffffffffffffffffff1916817bffffffffffffffffffffffffffffffffffffffffffffffffffffffff191614915050613040565b600190505b949350505050565b60006130698473ffffffffffffffffffffffffffffffffffffffff16613682565b15613191578373ffffffffffffffffffffffffffffffffffffffff1663150b7a02613092612472565b8786866040518563ffffffff1660e01b81526004016130b4949392919061511f565b6020604051808303816000875af19250505080156130f057506040513d601f19601f820116820180604052508101906130ed9190615180565b60015b613141573d8060008114613120576040519150601f19603f3d011682016040523d82523d6000602084013e613125565b606091505b506000815103613139576000915050613196565b805181602001fd5b63150b7a0260e01b7bffffffffffffffffffffffffffffffffffffffffffffffffffffffff1916817bffffffffffffffffffffffffffffffffffffffffffffffffffffffff191614915050613196565b600190505b949350505050565b505050565b6008805490506009600083815260200190815260200160002081905550600881908060018154018082558091505060019003906000526020600020016000909190919091505550565b600060016131f984611964565b6132039190614ee1565b90506000600760008481526020019081526020016000205490508181146132e8576000600660008673ffffffffffffffffffffffffffffffffffffffff1673ffffffffffffffffffffffffffffffffffffffff168152602001908152602001600020600084815260200190815260200160002054905080600660008773ffffffffffffffffffffffffffffffffffffffff1673ffffffffffffffffffffffffffffffffffffffff168152602001908152602001600020600084815260200190815260200160002081905550816007600083815260200190815260200160002081905550505b6007600084815260200190815260200160002060009055600660008573ffffffffffffffffffffffffffffffffffffffff1673ffffffffffffffffffffffffffffffffffffffff16815260200190815260200160002060008381526020019081526020016000206000905550505050565b6000600160088054905061336d9190614ee1565b905060006009600084815260200190815260200160002054905060006008838154811061339d5761339c6146b4565b5b9060005260206000200154905080600883815481106133bf576133be6146b4565b5b90600052602060002001819055508160096000838152602001908152602001600020819055506009600085815260200190815260200160002060009055600880548061340e5761340d6151ad565b5b6001900381819060005260206000200160009055905550505050565b600061343583611964565b905081600660008573ffffffffffffffffffffffffffffffffffffffff1673ffffffffffffffffffffffffffffffffffffffff168152602001908152602001600020600083815260200190815260200160002081905550806007600084815260200190815260200160002081905550505050565b600073ffffffffffffffffffffffffffffffffffffffff168273ffffffffffffffffffffffffffffffffffffffff1603613518576040517f08c379a000000000000000000000000000000000000000000000000000000000815260040161350f90615228565b60405180910390fd5b6135218161247a565b15613561576040517f08c379a000000000000000000000000000000000000000000000000000000000815260040161355890615294565b60405180910390fd5b61356d60008383612d6c565b6001600360008473ffffffffffffffffffffffffffffffffffffffff1673ffffffffffffffffffffffffffffffffffffffff16815260200190815260200160002060008282546135bd91906143da565b92505081905550816002600083815260200190815260200160002060006101000a81548173ffffffffffffffffffffffffffffffffffffffff021916908373ffffffffffffffffffffffffffffffffffffffff160217905550808273ffffffffffffffffffffffffffffffffffffffff16600073ffffffffffffffffffffffffffffffffffffffff167fddf252ad1be2c89b69c2b068fc378daa952ba7f163c4a11628f55a4df523b3ef60405160405180910390a461367e60008383612e7e565b5050565b6000808273ffffffffffffffffffffffffffffffffffffffff163b119050919050565b6000604051905090565b600080fd5b600080fd5b60007fffffffff0000000000000000000000000000000000000000000000000000000082169050919050565b6136ee816136b9565b81146136f957600080fd5b50565b60008135905061370b816136e5565b92915050565b600060208284031215613727576137266136af565b5b6000613735848285016136fc565b91505092915050565b60008115159050919050565b6137538161373e565b82525050565b600060208201905061376e600083018461374a565b92915050565b61377d8161373e565b811461378857600080fd5b50565b60008135905061379a81613774565b92915050565b6000602082840312156137b6576137b56136af565b5b60006137c48482850161378b565b91505092915050565b600081519050919050565b600082825260208201905092915050565b60005b838110156138075780820151818401526020810190506137ec565b60008484015250505050565b6000601f19601f8301169050919050565b600061382f826137cd565b61383981856137d8565b93506138498185602086016137e9565b61385281613813565b840191505092915050565b600060208201905081810360008301526138778184613824565b905092915050565b6000819050919050565b6138928161387f565b811461389d57600080fd5b50565b6000813590506138af81613889565b92915050565b6000602082840312156138cb576138ca6136af565b5b60006138d9848285016138a0565b91505092915050565b600073ffffffffffffffffffffffffffffffffffffffff82169050919050565b600061390d826138e2565b9050919050565b61391d81613902565b82525050565b60006020820190506139386000830184613914565b92915050565b61394781613902565b811461395257600080fd5b50565b6000813590506139648161393e565b92915050565b60008060408385031215613981576139806136af565b5b600061398f85828601613955565b92505060206139a0858286016138a0565b9150509250929050565b6139b38161387f565b82525050565b60006020820190506139ce60008301846139aa565b92915050565b6000602082840312156139ea576139e96136af565b5b60006139f884828501613955565b91505092915050565b600080600060608486031215613a1a57613a196136af565b5b6000613a2886828701613955565b9350506020613a3986828701613955565b9250506040613a4a868287016138a0565b9150509250925092565b600081519050919050565b600082825260208201905092915050565b6000819050602082019050919050565b613a898161387f565b82525050565b6000613a9b8383613a80565b60208301905092915050565b6000602082019050919050565b6000613abf82613a54565b613ac98185613a5f565b9350613ad483613a70565b8060005b83811015613b05578151613aec8882613a8f565b9750613af783613aa7565b925050600181019050613ad8565b5085935050505092915050565b60006020820190508181036000830152613b2c8184613ab4565b905092915050565b6000613b3f826138e2565b9050919050565b613b4f81613b34565b8114613b5a57600080fd5b50565b600081359050613b6c81613b46565b92915050565b600060208284031215613b8857613b876136af565b5b6000613b9684828501613b5d565b91505092915050565b600080fd5b600080fd5b7f4e487b7100000000000000000000000000000000000000000000000000000000600052604160045260246000fd5b613be182613813565b810181811067ffffffffffffffff82111715613c0057613bff613ba9565b5b80604052505050565b6000613c136136a5565b9050613c1f8282613bd8565b919050565b600067ffffffffffffffff821115613c3f57613c3e613ba9565b5b613c4882613813565b9050602081019050919050565b82818337600083830152505050565b6000613c77613c7284613c24565b613c09565b905082815260208101848484011115613c9357613c92613ba4565b5b613c9e848285613c55565b509392505050565b600082601f830112613cbb57613cba613b9f565b5b8135613ccb848260208601613c64565b91505092915050565b600060208284031215613cea57613ce96136af565b5b600082013567ffffffffffffffff811115613d0857613d076136b4565b5b613d1484828501613ca6565b91505092915050565b60008060408385031215613d3457613d336136af565b5b6000613d4285828601613955565b9250506020613d538582860161378b565b9150509250929050565b600067ffffffffffffffff821115613d7857613d77613ba9565b5b613d8182613813565b9050602081019050919050565b6000613da1613d9c84613d5d565b613c09565b905082815260208101848484011115613dbd57613dbc613ba4565b5b613dc8848285613c55565b509392505050565b600082601f830112613de557613de4613b9f565b5b8135613df5848260208601613d8e565b91505092915050565b60008060008060808587031215613e1857613e176136af565b5b6000613e2687828801613955565b9450506020613e3787828801613955565b9350506040613e48878288016138a0565b925050606085013567ffffffffffffffff811115613e6957613e686136b4565b5b613e7587828801613dd0565b91505092959194509250565b60008060408385031215613e9857613e976136af565b5b6000613ea685828601613955565b9250506020613eb785828601613955565b9150509250929050565b7f4f776e61626c653a2063616c6c6572206973206e6f7420746865206f776e6572600082015250565b6000613ef76020836137d8565b9150613f0282613ec1565b602082019050919050565b60006020820190508181036000830152613f2681613eea565b9050919050565b7f4e487b7100000000000000000000000000000000000000000000000000000000600052602260045260246000fd5b60006002820490506001821680613f7457607f821691505b602082108103613f8757613f86613f2d565b5b50919050565b7f4b495031373a20617070726f76656420717565727920666f72206e6f6e65786960008201527f7374656e7420746f6b656e000000000000000000000000000000000000000000602082015250565b6000613fe9602b836137d8565b9150613ff482613f8d565b604082019050919050565b6000602082019050818103600083015261401881613fdc565b9050919050565b7f4b495031373a20617070726f76616c20746f2063757272656e74206f776e6572600082015250565b60006140556020836137d8565b91506140608261401f565b602082019050919050565b6000602082019050818103600083015261408481614048565b9050919050565b7f4b495031373a20617070726f76652063616c6c6572206973206e6f74206f776e60008201527f6572206e6f7220617070726f76656420666f7220616c6c000000000000000000602082015250565b60006140e76037836137d8565b91506140f28261408b565b604082019050919050565b60006020820190508181036000830152614116816140da565b9050919050565b7f4b495031373a207472616e736665722063616c6c6572206973206e6f74206f7760008201527f6e6572206e6f7220617070726f76656400000000000000000000000000000000602082015250565b60006141796030836137d8565b91506141848261411d565b604082019050919050565b600060208201905081810360008301526141a88161416c565b9050919050565b7f4b49503137456e756d657261626c653a206f776e657220696e646578206f757460008201527f206f6620626f756e647300000000000000000000000000000000000000000000602082015250565b600061420b602a836137d8565b9150614216826141af565b604082019050919050565b6000602082019050818103600083015261423a816141fe565b9050919050565b7f74686520636f6e74726163742069732070617573656400000000000000000000600082015250565b60006142776016836137d8565b915061428282614241565b602082019050919050565b600060208201905081810360008301526142a68161426a565b9050919050565b7f6e65656420746f206d696e74206174206c656173742031000000000000000000600082015250565b60006142e36017836137d8565b91506142ee826142ad565b602082019050919050565b60006020820190508181036000830152614312816142d6565b9050919050565b7f6d6178206d696e7420616d6f756e74207065722073657373696f6e206578636560008201527f6564656400000000000000000000000000000000000000000000000000000000602082015250565b60006143756024836137d8565b915061438082614319565b604082019050919050565b600060208201905081810360008301526143a481614368565b9050919050565b7f4e487b7100000000000000000000000000000000000000000000000000000000600052601160045260246000fd5b60006143e58261387f565b91506143f08361387f565b9250828201905080821115614408576144076143ab565b5b92915050565b7f6d6178204e4654206c696d697420657863656564656400000000000000000000600082015250565b60006144446016836137d8565b915061444f8261440e565b602082019050919050565b6000602082019050818103600083015261447381614437565b9050919050565b7f75736572206973206e6f742057686974656c6973740000000000000000000000600082015250565b60006144b06015836137d8565b91506144bb8261447a565b602082019050919050565b600060208201905081810360008301526144df816144a3565b9050919050565b7f6d6178204e465420706572206164647265737320657863656564656400000000600082015250565b600061451c601c836137d8565b9150614527826144e6565b602082019050919050565b6000602082019050818103600083015261454b8161450f565b9050919050565b600061455d8261387f565b91506145688361387f565b92508282026145768161387f565b9150828204841483151761458d5761458c6143ab565b5b5092915050565b7f696e73756666696369656e742066756e64730000000000000000000000000000600082015250565b60006145ca6012836137d8565b91506145d582614594565b602082019050919050565b600060208201905081810360008301526145f9816145bd565b9050919050565b7f66616c7365000000000000000000000000000000000000000000000000000000600082015250565b60006146366005836137d8565b915061464182614600565b602082019050919050565b6000602082019050818103600083015261466581614629565b9050919050565b60006146778261387f565b91507fffffffffffffffffffffffffffffffffffffffffffffffffffffffffffffffff82036146a9576146a86143ab565b5b600182019050919050565b7f4e487b7100000000000000000000000000000000000000000000000000000000600052603260045260246000fd5b7f4b49503137456e756d657261626c653a20676c6f62616c20696e646578206f7560008201527f74206f6620626f756e6473000000000000000000000000000000000000000000602082015250565b600061473f602b836137d8565b915061474a826146e3565b604082019050919050565b6000602082019050818103600083015261476e81614732565b9050919050565b60008190508160005260206000209050919050565b60006020601f8301049050919050565b600082821b905092915050565b6000600883026147d77fffffffffffffffffffffffffffffffffffffffffffffffffffffffffffffffff8261479a565b6147e1868361479a565b95508019841693508086168417925050509392505050565b6000819050919050565b600061481e6148196148148461387f565b6147f9565b61387f565b9050919050565b6000819050919050565b61483883614803565b61484c61484482614825565b8484546147a7565b825550505050565b600090565b614861614854565b61486c81848461482f565b505050565b5b8181101561489057614885600082614859565b600181019050614872565b5050565b601f8211156148d5576148a681614775565b6148af8461478a565b810160208510156148be578190505b6148d26148ca8561478a565b830182614871565b50505b505050565b600082821c905092915050565b60006148f8600019846008026148da565b1980831691505092915050565b600061491183836148e7565b9150826002028217905092915050565b61492a826137cd565b67ffffffffffffffff81111561494357614942613ba9565b5b61494d8254613f5c565b614958828285614894565b600060209050601f83116001811461498b5760008415614979578287015190505b6149838582614905565b8655506149eb565b601f19841661499986614775565b60005b828110156149c15784890151825560018201915060208501945060208101905061499c565b868310156149de57848901516149da601f8916826148e7565b8355505b6001600288020188555050505b505050505050565b7f4b495031373a206f776e657220717565727920666f72206e6f6e65786973746560008201527f6e7420746f6b656e000000000000000000000000000000000000000000000000602082015250565b6000614a4f6028836137d8565b9150614a5a826149f3565b604082019050919050565b60006020820190508181036000830152614a7e81614a42565b9050919050565b7f4b495031373a2061646472657373207a65726f206973206e6f7420612076616c60008201527f6964206f776e6572000000000000000000000000000000000000000000000000602082015250565b6000614ae16028836137d8565b9150614aec82614a85565b604082019050919050565b60006020820190508181036000830152614b1081614ad4565b9050919050565b7f4b49503137206d657461646174613a2055524920717565727920666f72206e6f60008201527f6e6578697374656e7420746f6b656e0000000000000000000000000000000000602082015250565b6000614b73602f836137d8565b9150614b7e82614b17565b604082019050919050565b60006020820190508181036000830152614ba281614b66565b9050919050565b600081905092915050565b6000614bbf826137cd565b614bc98185614ba9565b9350614bd98185602086016137e9565b80840191505092915050565b60008154614bf281613f5c565b614bfc8186614ba9565b94506001821660008114614c175760018114614c2c57614c5f565b60ff1983168652811515820286019350614c5f565b614c3585614775565b60005b83811015614c5757815481890152600182019150602081019050614c38565b838801955050505b50505092915050565b6000614c748286614bb4565b9150614c808285614bb4565b9150614c8c8284614be5565b9150819050949350505050565b7f4f776e61626c653a206e6577206f776e657220697320746865207a65726f206160008201527f6464726573730000000000000000000000000000000000000000000000000000602082015250565b6000614cf56026836137d8565b9150614d0082614c99565b604082019050919050565b60006020820190508181036000830152614d2481614ce8565b9050919050565b7f4b495031373a206f70657261746f7220717565727920666f72206e6f6e65786960008201527f7374656e7420746f6b656e000000000000000000000000000000000000000000602082015250565b6000614d87602b836137d8565b9150614d9282614d2b565b604082019050919050565b60006020820190508181036000830152614db681614d7a565b9050919050565b7f4b495031373a207472616e736665722066726f6d20696e636f7272656374206f60008201527f776e657200000000000000000000000000000000000000000000000000000000602082015250565b6000614e196024836137d8565b9150614e2482614dbd565b604082019050919050565b60006020820190508181036000830152614e4881614e0c565b9050919050565b7f4b495031373a207472616e7366657220746f20746865207a65726f206164647260008201527f6573730000000000000000000000000000000000000000000000000000000000602082015250565b6000614eab6023836137d8565b9150614eb682614e4f565b604082019050919050565b60006020820190508181036000830152614eda81614e9e565b9050919050565b6000614eec8261387f565b9150614ef78361387f565b9250828203905081811115614f0f57614f0e6143ab565b5b92915050565b7f4b495031373a20617070726f766520746f2063616c6c65720000000000000000600082015250565b6000614f4b6018836137d8565b9150614f5682614f15565b602082019050919050565b60006020820190508181036000830152614f7a81614f3e565b9050919050565b7f4b495031373a207472616e7366657220746f206e6f6e20494b4950313752656360008201527f65697665722f49455243373231526563656976657220696d706c656d656e746560208201527f7200000000000000000000000000000000000000000000000000000000000000604082015250565b60006150036041836137d8565b915061500e82614f81565b606082019050919050565b6000602082019050818103600083015261503281614ff6565b9050919050565b7f4e487b7100000000000000000000000000000000000000000000000000000000600052601260045260246000fd5b60006150738261387f565b915061507e8361387f565b92508261508e5761508d615039565b5b828204905092915050565b60006150a48261387f565b91506150af8361387f565b9250826150bf576150be615039565b5b828206905092915050565b600081519050919050565b600082825260208201905092915050565b60006150f1826150ca565b6150fb81856150d5565b935061510b8185602086016137e9565b61511481613813565b840191505092915050565b60006080820190506151346000830187613914565b6151416020830186613914565b61514e60408301856139aa565b818103606083015261516081846150e6565b905095945050505050565b60008151905061517a816136e5565b92915050565b600060208284031215615196576151956136af565b5b60006151a48482850161516b565b91505092915050565b7f4e487b7100000000000000000000000000000000000000000000000000000000600052603160045260246000fd5b7f4b495031373a206d696e7420746f20746865207a65726f206164647265737300600082015250565b6000615212601f836137d8565b915061521d826151dc565b602082019050919050565b6000602082019050818103600083015261524181615205565b9050919050565b7f4b495031373a20746f6b656e20616c7265616479206d696e7465640000000000600082015250565b600061527e601b836137d8565b915061528982615248565b602082019050919050565b600060208201905081810360008301526152ad81615271565b905091905056fea2646970667358221220a153c874d057905c26e10391e48fd4341740256ce93171e6fadb2179fbc0c4a364736f6c63430008110033",
			"opcodes": "PUSH1 0x80 PUSH1 0x40 MSTORE PUSH1 0x40 MLOAD DUP1 PUSH1 0x40 ADD PUSH1 0x40 MSTORE DUP1 PUSH1 0x5 DUP2 MSTORE PUSH1 0x20 ADD PUSH32 0x2E6A736F6E000000000000000000000000000000000000000000000000000000 DUP2 MSTORE POP PUSH1 0xC SWAP1 DUP2 PUSH3 0x4A SWAP2 SWAP1 PUSH3 0x611 JUMP JUMPDEST POP PUSH1 0x28 PUSH1 0xD SSTORE PUSH1 0x3 PUSH1 0xE SSTORE PUSH1 0x0 PUSH1 0xF SSTORE PUSH1 0x1 PUSH1 0x10 SSTORE PUSH1 0x0 PUSH1 0x11 PUSH1 0x0 PUSH2 0x100 EXP DUP2 SLOAD DUP2 PUSH1 0xFF MUL NOT AND SWAP1 DUP4 ISZERO ISZERO MUL OR SWAP1 SSTORE POP PUSH1 0x1 PUSH1 0x11 PUSH1 0x1 PUSH2 0x100 EXP DUP2 SLOAD DUP2 PUSH1 0xFF MUL NOT AND SWAP1 DUP4 ISZERO ISZERO MUL OR SWAP1 SSTORE POP PUSH1 0x0 PUSH1 0x13 PUSH1 0x0 PUSH2 0x100 EXP DUP2 SLOAD DUP2 PUSH1 0xFF MUL NOT AND SWAP1 DUP4 ISZERO ISZERO MUL OR SWAP1 SSTORE POP CALLVALUE DUP1 ISZERO PUSH3 0xBD JUMPI PUSH1 0x0 DUP1 REVERT JUMPDEST POP PUSH1 0x40 MLOAD PUSH3 0x5CC7 CODESIZE SUB DUP1 PUSH3 0x5CC7 DUP4 CODECOPY DUP2 DUP2 ADD PUSH1 0x40 MSTORE DUP2 ADD SWAP1 PUSH3 0xE3 SWAP2 SWAP1 PUSH3 0x85C JUMP JUMPDEST DUP4 DUP4 DUP2 PUSH1 0x0 SWAP1 DUP2 PUSH3 0xF6 SWAP2 SWAP1 PUSH3 0x611 JUMP JUMPDEST POP DUP1 PUSH1 0x1 SWAP1 DUP2 PUSH3 0x108 SWAP2 SWAP1 PUSH3 0x611 JUMP JUMPDEST POP POP POP PUSH3 0x12B PUSH3 0x11F PUSH3 0x157 PUSH1 0x20 SHL PUSH1 0x20 SHR JUMP JUMPDEST PUSH3 0x15F PUSH1 0x20 SHL PUSH1 0x20 SHR JUMP JUMPDEST PUSH3 0x13C DUP3 PUSH3 0x225 PUSH1 0x20 SHL PUSH1 0x20 SHR JUMP JUMPDEST PUSH3 0x14D DUP2 PUSH3 0x2C9 PUSH1 0x20 SHL PUSH1 0x20 SHR JUMP JUMPDEST POP POP POP POP PUSH3 0x9CD JUMP JUMPDEST PUSH1 0x0 CALLER SWAP1 POP SWAP1 JUMP JUMPDEST PUSH1 0x0 PUSH1 0xA PUSH1 0x0 SWAP1 SLOAD SWAP1 PUSH2 0x100 EXP SWAP1 DIV PUSH20 0xFFFFFFFFFFFFFFFFFFFFFFFFFFFFFFFFFFFFFFFF AND SWAP1 POP DUP2 PUSH1 0xA PUSH1 0x0 PUSH2 0x100 EXP DUP2 SLOAD DUP2 PUSH20 0xFFFFFFFFFFFFFFFFFFFFFFFFFFFFFFFFFFFFFFFF MUL NOT AND SWAP1 DUP4 PUSH20 0xFFFFFFFFFFFFFFFFFFFFFFFFFFFFFFFFFFFFFFFF AND MUL OR SWAP1 SSTORE POP DUP2 PUSH20 0xFFFFFFFFFFFFFFFFFFFFFFFFFFFFFFFFFFFFFFFF AND DUP2 PUSH20 0xFFFFFFFFFFFFFFFFFFFFFFFFFFFFFFFFFFFFFFFF AND PUSH32 0x8BE0079C531659141344CD1FD0A4F28419497F9722A3DAAFE3B4186F6B6457E0 PUSH1 0x40 MLOAD PUSH1 0x40 MLOAD DUP1 SWAP2 SUB SWAP1 LOG3 POP POP JUMP JUMPDEST PUSH3 0x235 PUSH3 0x157 PUSH1 0x20 SHL PUSH1 0x20 SHR JUMP JUMPDEST PUSH20 0xFFFFFFFFFFFFFFFFFFFFFFFFFFFFFFFFFFFFFFFF AND PUSH3 0x25B PUSH3 0x36D PUSH1 0x20 SHL PUSH1 0x20 SHR JUMP JUMPDEST PUSH20 0xFFFFFFFFFFFFFFFFFFFFFFFFFFFFFFFFFFFFFFFF AND EQ PUSH3 0x2B4 JUMPI PUSH1 0x40 MLOAD PUSH32 0x8C379A000000000000000000000000000000000000000000000000000000000 DUP2 MSTORE PUSH1 0x4 ADD PUSH3 0x2AB SWAP1 PUSH3 0x9AB JUMP JUMPDEST PUSH1 0x40 MLOAD DUP1 SWAP2 SUB SWAP1 REVERT JUMPDEST DUP1 PUSH1 0xB SWAP1 DUP2 PUSH3 0x2C5 SWAP2 SWAP1 PUSH3 0x611 JUMP JUMPDEST POP POP JUMP JUMPDEST PUSH3 0x2D9 PUSH3 0x157 PUSH1 0x20 SHL PUSH1 0x20 SHR JUMP JUMPDEST PUSH20 0xFFFFFFFFFFFFFFFFFFFFFFFFFFFFFFFFFFFFFFFF AND PUSH3 0x2FF PUSH3 0x36D PUSH1 0x20 SHL PUSH1 0x20 SHR JUMP JUMPDEST PUSH20 0xFFFFFFFFFFFFFFFFFFFFFFFFFFFFFFFFFFFFFFFF AND EQ PUSH3 0x358 JUMPI PUSH1 0x40 MLOAD PUSH32 0x8C379A000000000000000000000000000000000000000000000000000000000 DUP2 MSTORE PUSH1 0x4 ADD PUSH3 0x34F SWAP1 PUSH3 0x9AB JUMP JUMPDEST PUSH1 0x40 MLOAD DUP1 SWAP2 SUB SWAP1 REVERT JUMPDEST DUP1 PUSH1 0x12 SWAP1 DUP2 PUSH3 0x369 SWAP2 SWAP1 PUSH3 0x611 JUMP JUMPDEST POP POP JUMP JUMPDEST PUSH1 0x0 PUSH1 0xA PUSH1 0x0 SWAP1 SLOAD SWAP1 PUSH2 0x100 EXP SWAP1 DIV PUSH20 0xFFFFFFFFFFFFFFFFFFFFFFFFFFFFFFFFFFFFFFFF AND SWAP1 POP SWAP1 JUMP JUMPDEST PUSH1 0x0 DUP2 MLOAD SWAP1 POP SWAP2 SWAP1 POP JUMP JUMPDEST PUSH32 0x4E487B7100000000000000000000000000000000000000000000000000000000 PUSH1 0x0 MSTORE PUSH1 0x41 PUSH1 0x4 MSTORE PUSH1 0x24 PUSH1 0x0 REVERT JUMPDEST PUSH32 0x4E487B7100000000000000000000000000000000000000000000000000000000 PUSH1 0x0 MSTORE PUSH1 0x22 PUSH1 0x4 MSTORE PUSH1 0x24 PUSH1 0x0 REVERT JUMPDEST PUSH1 0x0 PUSH1 0x2 DUP3 DIV SWAP1 POP PUSH1 0x1 DUP3 AND DUP1 PUSH3 0x419 JUMPI PUSH1 0x7F DUP3 AND SWAP2 POP JUMPDEST PUSH1 0x20 DUP3 LT DUP2 SUB PUSH3 0x42F JUMPI PUSH3 0x42E PUSH3 0x3D1 JUMP JUMPDEST JUMPDEST POP SWAP2 SWAP1 POP JUMP JUMPDEST PUSH1 0x0 DUP2 SWAP1 POP DUP2 PUSH1 0x0 MSTORE PUSH1 0x20 PUSH1 0x0 KECCAK256 SWAP1 POP SWAP2 SWAP1 POP JUMP JUMPDEST PUSH1 0x0 PUSH1 0x20 PUSH1 0x1F DUP4 ADD DIV SWAP1 POP SWAP2 SWAP1 POP JUMP JUMPDEST PUSH1 0x0 DUP3 DUP3 SHL SWAP1 POP SWAP3 SWAP2 POP POP JUMP JUMPDEST PUSH1 0x0 PUSH1 0x8 DUP4 MUL PUSH3 0x499 PUSH32 0xFFFFFFFFFFFFFFFFFFFFFFFFFFFFFFFFFFFFFFFFFFFFFFFFFFFFFFFFFFFFFFFF DUP3 PUSH3 0x45A JUMP JUMPDEST PUSH3 0x4A5 DUP7 DUP4 PUSH3 0x45A JUMP JUMPDEST SWAP6 POP DUP1 NOT DUP5 AND SWAP4 POP DUP1 DUP7 AND DUP5 OR SWAP3 POP POP POP SWAP4 SWAP3 POP POP POP JUMP JUMPDEST PUSH1 0x0 DUP2 SWAP1 POP SWAP2 SWAP1 POP JUMP JUMPDEST PUSH1 0x0 DUP2 SWAP1 POP SWAP2 SWAP1 POP JUMP JUMPDEST PUSH1 0x0 PUSH3 0x4F2 PUSH3 0x4EC PUSH3 0x4E6 DUP5 PUSH3 0x4BD JUMP JUMPDEST PUSH3 0x4C7 JUMP JUMPDEST PUSH3 0x4BD JUMP JUMPDEST SWAP1 POP SWAP2 SWAP1 POP JUMP JUMPDEST PUSH1 0x0 DUP2 SWAP1 POP SWAP2 SWAP1 POP JUMP JUMPDEST PUSH3 0x50E DUP4 PUSH3 0x4D1 JUMP JUMPDEST PUSH3 0x526 PUSH3 0x51D DUP3 PUSH3 0x4F9 JUMP JUMPDEST DUP5 DUP5 SLOAD PUSH3 0x467 JUMP JUMPDEST DUP3 SSTORE POP POP POP POP JUMP JUMPDEST PUSH1 0x0 SWAP1 JUMP JUMPDEST PUSH3 0x53D PUSH3 0x52E JUMP JUMPDEST PUSH3 0x54A DUP2 DUP5 DUP5 PUSH3 0x503 JUMP JUMPDEST POP POP POP JUMP JUMPDEST JUMPDEST DUP2 DUP2 LT ISZERO PUSH3 0x572 JUMPI PUSH3 0x566 PUSH1 0x0 DUP3 PUSH3 0x533 JUMP JUMPDEST PUSH1 0x1 DUP2 ADD SWAP1 POP PUSH3 0x550 JUMP JUMPDEST POP POP JUMP JUMPDEST PUSH1 0x1F DUP3 GT ISZERO PUSH3 0x5C1 JUMPI PUSH3 0x58B DUP2 PUSH3 0x435 JUMP JUMPDEST PUSH3 0x596 DUP5 PUSH3 0x44A JUMP JUMPDEST DUP2 ADD PUSH1 0x20 DUP6 LT ISZERO PUSH3 0x5A6 JUMPI DUP2 SWAP1 POP JUMPDEST PUSH3 0x5BE PUSH3 0x5B5 DUP6 PUSH3 0x44A JUMP JUMPDEST DUP4 ADD DUP3 PUSH3 0x54F JUMP JUMPDEST POP POP JUMPDEST POP POP POP JUMP JUMPDEST PUSH1 0x0 DUP3 DUP3 SHR SWAP1 POP SWAP3 SWAP2 POP POP JUMP JUMPDEST PUSH1 0x0 PUSH3 0x5E6 PUSH1 0x0 NOT DUP5 PUSH1 0x8 MUL PUSH3 0x5C6 JUMP JUMPDEST NOT DUP1 DUP4 AND SWAP2 POP POP SWAP3 SWAP2 POP POP JUMP JUMPDEST PUSH1 0x0 PUSH3 0x601 DUP4 DUP4 PUSH3 0x5D3 JUMP JUMPDEST SWAP2 POP DUP3 PUSH1 0x2 MUL DUP3 OR SWAP1 POP SWAP3 SWAP2 POP POP JUMP JUMPDEST PUSH3 0x61C DUP3 PUSH3 0x397 JUMP JUMPDEST PUSH8 0xFFFFFFFFFFFFFFFF DUP2 GT ISZERO PUSH3 0x638 JUMPI PUSH3 0x637 PUSH3 0x3A2 JUMP JUMPDEST JUMPDEST PUSH3 0x644 DUP3 SLOAD PUSH3 0x400 JUMP JUMPDEST PUSH3 0x651 DUP3 DUP3 DUP6 PUSH3 0x576 JUMP JUMPDEST PUSH1 0x0 PUSH1 0x20 SWAP1 POP PUSH1 0x1F DUP4 GT PUSH1 0x1 DUP2 EQ PUSH3 0x689 JUMPI PUSH1 0x0 DUP5 ISZERO PUSH3 0x674 JUMPI DUP3 DUP8 ADD MLOAD SWAP1 POP JUMPDEST PUSH3 0x680 DUP6 DUP3 PUSH3 0x5F3 JUMP JUMPDEST DUP7 SSTORE POP PUSH3 0x6F0 JUMP JUMPDEST PUSH1 0x1F NOT DUP5 AND PUSH3 0x699 DUP7 PUSH3 0x435 JUMP JUMPDEST PUSH1 0x0 JUMPDEST DUP3 DUP2 LT ISZERO PUSH3 0x6C3 JUMPI DUP5 DUP10 ADD MLOAD DUP3 SSTORE PUSH1 0x1 DUP3 ADD SWAP2 POP PUSH1 0x20 DUP6 ADD SWAP5 POP PUSH1 0x20 DUP2 ADD SWAP1 POP PUSH3 0x69C JUMP JUMPDEST DUP7 DUP4 LT ISZERO PUSH3 0x6E3 JUMPI DUP5 DUP10 ADD MLOAD PUSH3 0x6DF PUSH1 0x1F DUP10 AND DUP3 PUSH3 0x5D3 JUMP JUMPDEST DUP4 SSTORE POP JUMPDEST PUSH1 0x1 PUSH1 0x2 DUP9 MUL ADD DUP9 SSTORE POP POP POP JUMPDEST POP POP POP POP POP POP JUMP JUMPDEST PUSH1 0x0 PUSH1 0x40 MLOAD SWAP1 POP SWAP1 JUMP JUMPDEST PUSH1 0x0 DUP1 REVERT JUMPDEST PUSH1 0x0 DUP1 REVERT JUMPDEST PUSH1 0x0 DUP1 REVERT JUMPDEST PUSH1 0x0 DUP1 REVERT JUMPDEST PUSH1 0x0 PUSH1 0x1F NOT PUSH1 0x1F DUP4 ADD AND SWAP1 POP SWAP2 SWAP1 POP JUMP JUMPDEST PUSH3 0x732 DUP3 PUSH3 0x716 JUMP JUMPDEST DUP2 ADD DUP2 DUP2 LT PUSH8 0xFFFFFFFFFFFFFFFF DUP3 GT OR ISZERO PUSH3 0x754 JUMPI PUSH3 0x753 PUSH3 0x3A2 JUMP JUMPDEST JUMPDEST DUP1 PUSH1 0x40 MSTORE POP POP POP JUMP JUMPDEST PUSH1 0x0 PUSH3 0x769 PUSH3 0x6F8 JUMP JUMPDEST SWAP1 POP PUSH3 0x777 DUP3 DUP3 PUSH3 0x727 JUMP JUMPDEST SWAP2 SWAP1 POP JUMP JUMPDEST PUSH1 0x0 PUSH8 0xFFFFFFFFFFFFFFFF DUP3 GT ISZERO PUSH3 0x79A JUMPI PUSH3 0x799 PUSH3 0x3A2 JUMP JUMPDEST JUMPDEST PUSH3 0x7A5 DUP3 PUSH3 0x716 JUMP JUMPDEST SWAP1 POP PUSH1 0x20 DUP2 ADD SWAP1 POP SWAP2 SWAP1 POP JUMP JUMPDEST PUSH1 0x0 JUMPDEST DUP4 DUP2 LT ISZERO PUSH3 0x7D2 JUMPI DUP1 DUP3 ADD MLOAD DUP2 DUP5 ADD MSTORE PUSH1 0x20 DUP2 ADD SWAP1 POP PUSH3 0x7B5 JUMP JUMPDEST PUSH1 0x0 DUP5 DUP5 ADD MSTORE POP POP POP POP JUMP JUMPDEST PUSH1 0x0 PUSH3 0x7F5 PUSH3 0x7EF DUP5 PUSH3 0x77C JUMP JUMPDEST PUSH3 0x75D JUMP JUMPDEST SWAP1 POP DUP3 DUP2 MSTORE PUSH1 0x20 DUP2 ADD DUP5 DUP5 DUP5 ADD GT ISZERO PUSH3 0x814 JUMPI PUSH3 0x813 PUSH3 0x711 JUMP JUMPDEST JUMPDEST PUSH3 0x821 DUP5 DUP3 DUP6 PUSH3 0x7B2 JUMP JUMPDEST POP SWAP4 SWAP3 POP POP POP JUMP JUMPDEST PUSH1 0x0 DUP3 PUSH1 0x1F DUP4 ADD SLT PUSH3 0x841 JUMPI PUSH3 0x840 PUSH3 0x70C JUMP JUMPDEST JUMPDEST DUP2 MLOAD PUSH3 0x853 DUP5 DUP3 PUSH1 0x20 DUP7 ADD PUSH3 0x7DE JUMP JUMPDEST SWAP2 POP POP SWAP3 SWAP2 POP POP JUMP JUMPDEST PUSH1 0x0 DUP1 PUSH1 0x0 DUP1 PUSH1 0x80 DUP6 DUP8 SUB SLT ISZERO PUSH3 0x879 JUMPI PUSH3 0x878 PUSH3 0x702 JUMP JUMPDEST JUMPDEST PUSH1 0x0 DUP6 ADD MLOAD PUSH8 0xFFFFFFFFFFFFFFFF DUP2 GT ISZERO PUSH3 0x89A JUMPI PUSH3 0x899 PUSH3 0x707 JUMP JUMPDEST JUMPDEST PUSH3 0x8A8 DUP8 DUP3 DUP9 ADD PUSH3 0x829 JUMP JUMPDEST SWAP5 POP POP PUSH1 0x20 DUP6 ADD MLOAD PUSH8 0xFFFFFFFFFFFFFFFF DUP2 GT ISZERO PUSH3 0x8CC JUMPI PUSH3 0x8CB PUSH3 0x707 JUMP JUMPDEST JUMPDEST PUSH3 0x8DA DUP8 DUP3 DUP9 ADD PUSH3 0x829 JUMP JUMPDEST SWAP4 POP POP PUSH1 0x40 DUP6 ADD MLOAD PUSH8 0xFFFFFFFFFFFFFFFF DUP2 GT ISZERO PUSH3 0x8FE JUMPI PUSH3 0x8FD PUSH3 0x707 JUMP JUMPDEST JUMPDEST PUSH3 0x90C DUP8 DUP3 DUP9 ADD PUSH3 0x829 JUMP JUMPDEST SWAP3 POP POP PUSH1 0x60 DUP6 ADD MLOAD PUSH8 0xFFFFFFFFFFFFFFFF DUP2 GT ISZERO PUSH3 0x930 JUMPI PUSH3 0x92F PUSH3 0x707 JUMP JUMPDEST JUMPDEST PUSH3 0x93E DUP8 DUP3 DUP9 ADD PUSH3 0x829 JUMP JUMPDEST SWAP2 POP POP SWAP3 SWAP6 SWAP2 SWAP5 POP SWAP3 POP JUMP JUMPDEST PUSH1 0x0 DUP3 DUP3 MSTORE PUSH1 0x20 DUP3 ADD SWAP1 POP SWAP3 SWAP2 POP POP JUMP JUMPDEST PUSH32 0x4F776E61626C653A2063616C6C6572206973206E6F7420746865206F776E6572 PUSH1 0x0 DUP3 ADD MSTORE POP JUMP JUMPDEST PUSH1 0x0 PUSH3 0x993 PUSH1 0x20 DUP4 PUSH3 0x94A JUMP JUMPDEST SWAP2 POP PUSH3 0x9A0 DUP3 PUSH3 0x95B JUMP JUMPDEST PUSH1 0x20 DUP3 ADD SWAP1 POP SWAP2 SWAP1 POP JUMP JUMPDEST PUSH1 0x0 PUSH1 0x20 DUP3 ADD SWAP1 POP DUP2 DUP2 SUB PUSH1 0x0 DUP4 ADD MSTORE PUSH3 0x9C6 DUP2 PUSH3 0x984 JUMP JUMPDEST SWAP1 POP SWAP2 SWAP1 POP JUMP JUMPDEST PUSH2 0x52EA DUP1 PUSH3 0x9DD PUSH1 0x0 CODECOPY PUSH1 0x0 RETURN INVALID PUSH1 0x80 PUSH1 0x40 MSTORE PUSH1 0x4 CALLDATASIZE LT PUSH2 0x267 JUMPI PUSH1 0x0 CALLDATALOAD PUSH1 0xE0 SHR DUP1 PUSH4 0x6352211E GT PUSH2 0x144 JUMPI DUP1 PUSH4 0xB88D4FDE GT PUSH2 0xB6 JUMPI DUP1 PUSH4 0xD5ABEB01 GT PUSH2 0x7A JUMPI DUP1 PUSH4 0xD5ABEB01 EQ PUSH2 0x933 JUMPI DUP1 PUSH4 0xDA3EF23F EQ PUSH2 0x95E JUMPI DUP1 PUSH4 0xE985E9C5 EQ PUSH2 0x987 JUMPI DUP1 PUSH4 0xF2C4CE1E EQ PUSH2 0x9C4 JUMPI DUP1 PUSH4 0xF2FDE38B EQ PUSH2 0x9ED JUMPI DUP1 PUSH4 0xF80F5DD5 EQ PUSH2 0xA16 JUMPI PUSH2 0x267 JUMP JUMPDEST DUP1 PUSH4 0xB88D4FDE EQ PUSH2 0x84E JUMPI DUP1 PUSH4 0xBA7D2C76 EQ PUSH2 0x877 JUMPI DUP1 PUSH4 0xC6682862 EQ PUSH2 0x8A2 JUMPI DUP1 PUSH4 0xC87B56DD EQ PUSH2 0x8CD JUMPI DUP1 PUSH4 0xD2521AE8 EQ PUSH2 0x90A JUMPI PUSH2 0x267 JUMP JUMPDEST DUP1 PUSH4 0x7F00C7A6 GT PUSH2 0x108 JUMPI DUP1 PUSH4 0x7F00C7A6 EQ PUSH2 0x764 JUMPI DUP1 PUSH4 0x8DA5CB5B EQ PUSH2 0x78D JUMPI DUP1 PUSH4 0x95D89B41 EQ PUSH2 0x7B8 JUMPI DUP1 PUSH4 0x9C70B512 EQ PUSH2 0x7E3 JUMPI DUP1 PUSH4 0xA22CB465 EQ PUSH2 0x80E JUMPI DUP1 PUSH4 0xA475B5DD EQ PUSH2 0x837 JUMPI PUSH2 0x267 JUMP JUMPDEST DUP1 PUSH4 0x6352211E EQ PUSH2 0x67D JUMPI DUP1 PUSH4 0x6817C76C EQ PUSH2 0x6BA JUMPI DUP1 PUSH4 0x6C0360EB EQ PUSH2 0x6E5 JUMPI DUP1 PUSH4 0x70A08231 EQ PUSH2 0x710 JUMPI DUP1 PUSH4 0x715018A6 EQ PUSH2 0x74D JUMPI PUSH2 0x267 JUMP JUMPDEST DUP1 PUSH4 0x3C952764 GT PUSH2 0x1DD JUMPI DUP1 PUSH4 0x47FC73FD GT PUSH2 0x1A1 JUMPI DUP1 PUSH4 0x47FC73FD EQ PUSH2 0x55B JUMPI DUP1 PUSH4 0x4F6CCCE7 EQ PUSH2 0x598 JUMPI DUP1 PUSH4 0x51830227 EQ PUSH2 0x5D5 JUMPI DUP1 PUSH4 0x51CFF8D9 EQ PUSH2 0x600 JUMPI DUP1 PUSH4 0x55F804B3 EQ PUSH2 0x629 JUMPI DUP1 PUSH4 0x5C975ABB EQ PUSH2 0x652 JUMPI PUSH2 0x267 JUMP JUMPDEST DUP1 PUSH4 0x3C952764 EQ PUSH2 0x487 JUMPI DUP1 PUSH4 0x40C10F19 EQ PUSH2 0x4B0 JUMPI DUP1 PUSH4 0x42842E0E EQ PUSH2 0x4CC JUMPI DUP1 PUSH4 0x438B6300 EQ PUSH2 0x4F5 JUMPI DUP1 PUSH4 0x44A0D68A EQ PUSH2 0x532 JUMPI PUSH2 0x267 JUMP JUMPDEST DUP1 PUSH4 0x95EA7B3 GT PUSH2 0x22F JUMPI DUP1 PUSH4 0x95EA7B3 EQ PUSH2 0x365 JUMPI DUP1 PUSH4 0x18160DDD EQ PUSH2 0x38E JUMPI DUP1 PUSH4 0x18CAE269 EQ PUSH2 0x3B9 JUMPI DUP1 PUSH4 0x239C70AE EQ PUSH2 0x3F6 JUMPI DUP1 PUSH4 0x23B872DD EQ PUSH2 0x421 JUMPI DUP1 PUSH4 0x2F745C59 EQ PUSH2 0x44A JUMPI PUSH2 0x267 JUMP JUMPDEST DUP1 PUSH4 0x1FFC9A7 EQ PUSH2 0x26C JUMPI DUP1 PUSH4 0x2329A29 EQ PUSH2 0x2A9 JUMPI DUP1 PUSH4 0x6FDDE03 EQ PUSH2 0x2D2 JUMPI DUP1 PUSH4 0x81812FC EQ PUSH2 0x2FD JUMPI DUP1 PUSH4 0x81C8C44 EQ PUSH2 0x33A JUMPI JUMPDEST PUSH1 0x0 DUP1 REVERT JUMPDEST CALLVALUE DUP1 ISZERO PUSH2 0x278 JUMPI PUSH1 0x0 DUP1 REVERT JUMPDEST POP PUSH2 0x293 PUSH1 0x4 DUP1 CALLDATASIZE SUB DUP2 ADD SWAP1 PUSH2 0x28E SWAP2 SWAP1 PUSH2 0x3711 JUMP JUMPDEST PUSH2 0xA3F JUMP JUMPDEST PUSH1 0x40 MLOAD PUSH2 0x2A0 SWAP2 SWAP1 PUSH2 0x3759 JUMP JUMPDEST PUSH1 0x40 MLOAD DUP1 SWAP2 SUB SWAP1 RETURN JUMPDEST CALLVALUE DUP1 ISZERO PUSH2 0x2B5 JUMPI PUSH1 0x0 DUP1 REVERT JUMPDEST POP PUSH2 0x2D0 PUSH1 0x4 DUP1 CALLDATASIZE SUB DUP2 ADD SWAP1 PUSH2 0x2CB SWAP2 SWAP1 PUSH2 0x37A0 JUMP JUMPDEST PUSH2 0xAB9 JUMP JUMPDEST STOP JUMPDEST CALLVALUE DUP1 ISZERO PUSH2 0x2DE JUMPI PUSH1 0x0 DUP1 REVERT JUMPDEST POP PUSH2 0x2E7 PUSH2 0xB52 JUMP JUMPDEST PUSH1 0x40 MLOAD PUSH2 0x2F4 SWAP2 SWAP1 PUSH2 0x385D JUMP JUMPDEST PUSH1 0x40 MLOAD DUP1 SWAP2 SUB SWAP1 RETURN JUMPDEST CALLVALUE DUP1 ISZERO PUSH2 0x309 JUMPI PUSH1 0x0 DUP1 REVERT JUMPDEST POP PUSH2 0x324 PUSH1 0x4 DUP1 CALLDATASIZE SUB DUP2 ADD SWAP1 PUSH2 0x31F SWAP2 SWAP1 PUSH2 0x38B5 JUMP JUMPDEST PUSH2 0xBE4 JUMP JUMPDEST PUSH1 0x40 MLOAD PUSH2 0x331 SWAP2 SWAP1 PUSH2 0x3923 JUMP JUMPDEST PUSH1 0x40 MLOAD DUP1 SWAP2 SUB SWAP1 RETURN JUMPDEST CALLVALUE DUP1 ISZERO PUSH2 0x346 JUMPI PUSH1 0x0 DUP1 REVERT JUMPDEST POP PUSH2 0x34F PUSH2 0xC69 JUMP JUMPDEST PUSH1 0x40 MLOAD PUSH2 0x35C SWAP2 SWAP1 PUSH2 0x385D JUMP JUMPDEST PUSH1 0x40 MLOAD DUP1 SWAP2 SUB SWAP1 RETURN JUMPDEST CALLVALUE DUP1 ISZERO PUSH2 0x371 JUMPI PUSH1 0x0 DUP1 REVERT JUMPDEST POP PUSH2 0x38C PUSH1 0x4 DUP1 CALLDATASIZE SUB DUP2 ADD SWAP1 PUSH2 0x387 SWAP2 SWAP1 PUSH2 0x396A JUMP JUMPDEST PUSH2 0xCF7 JUMP JUMPDEST STOP JUMPDEST CALLVALUE DUP1 ISZERO PUSH2 0x39A JUMPI PUSH1 0x0 DUP1 REVERT JUMPDEST POP PUSH2 0x3A3 PUSH2 0xE0E JUMP JUMPDEST PUSH1 0x40 MLOAD PUSH2 0x3B0 SWAP2 SWAP1 PUSH2 0x39B9 JUMP JUMPDEST PUSH1 0x40 MLOAD DUP1 SWAP2 SUB SWAP1 RETURN JUMPDEST CALLVALUE DUP1 ISZERO PUSH2 0x3C5 JUMPI PUSH1 0x0 DUP1 REVERT JUMPDEST POP PUSH2 0x3E0 PUSH1 0x4 DUP1 CALLDATASIZE SUB DUP2 ADD SWAP1 PUSH2 0x3DB SWAP2 SWAP1 PUSH2 0x39D4 JUMP JUMPDEST PUSH2 0xE1B JUMP JUMPDEST PUSH1 0x40 MLOAD PUSH2 0x3ED SWAP2 SWAP1 PUSH2 0x39B9 JUMP JUMPDEST PUSH1 0x40 MLOAD DUP1 SWAP2 SUB SWAP1 RETURN JUMPDEST CALLVALUE DUP1 ISZERO PUSH2 0x402 JUMPI PUSH1 0x0 DUP1 REVERT JUMPDEST POP PUSH2 0x40B PUSH2 0xE33 JUMP JUMPDEST PUSH1 0x40 MLOAD PUSH2 0x418 SWAP2 SWAP1 PUSH2 0x39B9 JUMP JUMPDEST PUSH1 0x40 MLOAD DUP1 SWAP2 SUB SWAP1 RETURN JUMPDEST CALLVALUE DUP1 ISZERO PUSH2 0x42D JUMPI PUSH1 0x0 DUP1 REVERT JUMPDEST POP PUSH2 0x448 PUSH1 0x4 DUP1 CALLDATASIZE SUB DUP2 ADD SWAP1 PUSH2 0x443 SWAP2 SWAP1 PUSH2 0x3A01 JUMP JUMPDEST PUSH2 0xE39 JUMP JUMPDEST STOP JUMPDEST CALLVALUE DUP1 ISZERO PUSH2 0x456 JUMPI PUSH1 0x0 DUP1 REVERT JUMPDEST POP PUSH2 0x471 PUSH1 0x4 DUP1 CALLDATASIZE SUB DUP2 ADD SWAP1 PUSH2 0x46C SWAP2 SWAP1 PUSH2 0x396A JUMP JUMPDEST PUSH2 0xE99 JUMP JUMPDEST PUSH1 0x40 MLOAD PUSH2 0x47E SWAP2 SWAP1 PUSH2 0x39B9 JUMP JUMPDEST PUSH1 0x40 MLOAD DUP1 SWAP2 SUB SWAP1 RETURN JUMPDEST CALLVALUE DUP1 ISZERO PUSH2 0x493 JUMPI PUSH1 0x0 DUP1 REVERT JUMPDEST POP PUSH2 0x4AE PUSH1 0x4 DUP1 CALLDATASIZE SUB DUP2 ADD SWAP1 PUSH2 0x4A9 SWAP2 SWAP1 PUSH2 0x37A0 JUMP JUMPDEST PUSH2 0xF3E JUMP JUMPDEST STOP JUMPDEST PUSH2 0x4CA PUSH1 0x4 DUP1 CALLDATASIZE SUB DUP2 ADD SWAP1 PUSH2 0x4C5 SWAP2 SWAP1 PUSH2 0x396A JUMP JUMPDEST PUSH2 0xFD7 JUMP JUMPDEST STOP JUMPDEST CALLVALUE DUP1 ISZERO PUSH2 0x4D8 JUMPI PUSH1 0x0 DUP1 REVERT JUMPDEST POP PUSH2 0x4F3 PUSH1 0x4 DUP1 CALLDATASIZE SUB DUP2 ADD SWAP1 PUSH2 0x4EE SWAP2 SWAP1 PUSH2 0x3A01 JUMP JUMPDEST PUSH2 0x14C7 JUMP JUMPDEST STOP JUMPDEST CALLVALUE DUP1 ISZERO PUSH2 0x501 JUMPI PUSH1 0x0 DUP1 REVERT JUMPDEST POP PUSH2 0x51C PUSH1 0x4 DUP1 CALLDATASIZE SUB DUP2 ADD SWAP1 PUSH2 0x517 SWAP2 SWAP1 PUSH2 0x39D4 JUMP JUMPDEST PUSH2 0x14E7 JUMP JUMPDEST PUSH1 0x40 MLOAD PUSH2 0x529 SWAP2 SWAP1 PUSH2 0x3B12 JUMP JUMPDEST PUSH1 0x40 MLOAD DUP1 SWAP2 SUB SWAP1 RETURN JUMPDEST CALLVALUE DUP1 ISZERO PUSH2 0x53E JUMPI PUSH1 0x0 DUP1 REVERT JUMPDEST POP PUSH2 0x559 PUSH1 0x4 DUP1 CALLDATASIZE SUB DUP2 ADD SWAP1 PUSH2 0x554 SWAP2 SWAP1 PUSH2 0x38B5 JUMP JUMPDEST PUSH2 0x1595 JUMP JUMPDEST STOP JUMPDEST CALLVALUE DUP1 ISZERO PUSH2 0x567 JUMPI PUSH1 0x0 DUP1 REVERT JUMPDEST POP PUSH2 0x582 PUSH1 0x4 DUP1 CALLDATASIZE SUB DUP2 ADD SWAP1 PUSH2 0x57D SWAP2 SWAP1 PUSH2 0x39D4 JUMP JUMPDEST PUSH2 0x161B JUMP JUMPDEST PUSH1 0x40 MLOAD PUSH2 0x58F SWAP2 SWAP1 PUSH2 0x39B9 JUMP JUMPDEST PUSH1 0x40 MLOAD DUP1 SWAP2 SUB SWAP1 RETURN JUMPDEST CALLVALUE DUP1 ISZERO PUSH2 0x5A4 JUMPI PUSH1 0x0 DUP1 REVERT JUMPDEST POP PUSH2 0x5BF PUSH1 0x4 DUP1 CALLDATASIZE SUB DUP2 ADD SWAP1 PUSH2 0x5BA SWAP2 SWAP1 PUSH2 0x38B5 JUMP JUMPDEST PUSH2 0x1633 JUMP JUMPDEST PUSH1 0x40 MLOAD PUSH2 0x5CC SWAP2 SWAP1 PUSH2 0x39B9 JUMP JUMPDEST PUSH1 0x40 MLOAD DUP1 SWAP2 SUB SWAP1 RETURN JUMPDEST CALLVALUE DUP1 ISZERO PUSH2 0x5E1 JUMPI PUSH1 0x0 DUP1 REVERT JUMPDEST POP PUSH2 0x5EA PUSH2 0x16A4 JUMP JUMPDEST PUSH1 0x40 MLOAD PUSH2 0x5F7 SWAP2 SWAP1 PUSH2 0x3759 JUMP JUMPDEST PUSH1 0x40 MLOAD DUP1 SWAP2 SUB SWAP1 RETURN JUMPDEST CALLVALUE DUP1 ISZERO PUSH2 0x60C JUMPI PUSH1 0x0 DUP1 REVERT JUMPDEST POP PUSH2 0x627 PUSH1 0x4 DUP1 CALLDATASIZE SUB DUP2 ADD SWAP1 PUSH2 0x622 SWAP2 SWAP1 PUSH2 0x3B72 JUMP JUMPDEST PUSH2 0x16B7 JUMP JUMPDEST STOP JUMPDEST CALLVALUE DUP1 ISZERO PUSH2 0x635 JUMPI PUSH1 0x0 DUP1 REVERT JUMPDEST POP PUSH2 0x650 PUSH1 0x4 DUP1 CALLDATASIZE SUB DUP2 ADD SWAP1 PUSH2 0x64B SWAP2 SWAP1 PUSH2 0x3CD4 JUMP JUMPDEST PUSH2 0x177D JUMP JUMPDEST STOP JUMPDEST CALLVALUE DUP1 ISZERO PUSH2 0x65E JUMPI PUSH1 0x0 DUP1 REVERT JUMPDEST POP PUSH2 0x667 PUSH2 0x180C JUMP JUMPDEST PUSH1 0x40 MLOAD PUSH2 0x674 SWAP2 SWAP1 PUSH2 0x3759 JUMP JUMPDEST PUSH1 0x40 MLOAD DUP1 SWAP2 SUB SWAP1 RETURN JUMPDEST CALLVALUE DUP1 ISZERO PUSH2 0x689 JUMPI PUSH1 0x0 DUP1 REVERT JUMPDEST POP PUSH2 0x6A4 PUSH1 0x4 DUP1 CALLDATASIZE SUB DUP2 ADD SWAP1 PUSH2 0x69F SWAP2 SWAP1 PUSH2 0x38B5 JUMP JUMPDEST PUSH2 0x181F JUMP JUMPDEST PUSH1 0x40 MLOAD PUSH2 0x6B1 SWAP2 SWAP1 PUSH2 0x3923 JUMP JUMPDEST PUSH1 0x40 MLOAD DUP1 SWAP2 SUB SWAP1 RETURN JUMPDEST CALLVALUE DUP1 ISZERO PUSH2 0x6C6 JUMPI PUSH1 0x0 DUP1 REVERT JUMPDEST POP PUSH2 0x6CF PUSH2 0x18D0 JUMP JUMPDEST PUSH1 0x40 MLOAD PUSH2 0x6DC SWAP2 SWAP1 PUSH2 0x39B9 JUMP JUMPDEST PUSH1 0x40 MLOAD DUP1 SWAP2 SUB SWAP1 RETURN JUMPDEST CALLVALUE DUP1 ISZERO PUSH2 0x6F1 JUMPI PUSH1 0x0 DUP1 REVERT JUMPDEST POP PUSH2 0x6FA PUSH2 0x18D6 JUMP JUMPDEST PUSH1 0x40 MLOAD PUSH2 0x707 SWAP2 SWAP1 PUSH2 0x385D JUMP JUMPDEST PUSH1 0x40 MLOAD DUP1 SWAP2 SUB SWAP1 RETURN JUMPDEST CALLVALUE DUP1 ISZERO PUSH2 0x71C JUMPI PUSH1 0x0 DUP1 REVERT JUMPDEST POP PUSH2 0x737 PUSH1 0x4 DUP1 CALLDATASIZE SUB DUP2 ADD SWAP1 PUSH2 0x732 SWAP2 SWAP1 PUSH2 0x39D4 JUMP JUMPDEST PUSH2 0x1964 JUMP JUMPDEST PUSH1 0x40 MLOAD PUSH2 0x744 SWAP2 SWAP1 PUSH2 0x39B9 JUMP JUMPDEST PUSH1 0x40 MLOAD DUP1 SWAP2 SUB SWAP1 RETURN JUMPDEST CALLVALUE DUP1 ISZERO PUSH2 0x759 JUMPI PUSH1 0x0 DUP1 REVERT JUMPDEST POP PUSH2 0x762 PUSH2 0x1A1B JUMP JUMPDEST STOP JUMPDEST CALLVALUE DUP1 ISZERO PUSH2 0x770 JUMPI PUSH1 0x0 DUP1 REVERT JUMPDEST POP PUSH2 0x78B PUSH1 0x4 DUP1 CALLDATASIZE SUB DUP2 ADD SWAP1 PUSH2 0x786 SWAP2 SWAP1 PUSH2 0x38B5 JUMP JUMPDEST PUSH2 0x1AA3 JUMP JUMPDEST STOP JUMPDEST CALLVALUE DUP1 ISZERO PUSH2 0x799 JUMPI PUSH1 0x0 DUP1 REVERT JUMPDEST POP PUSH2 0x7A2 PUSH2 0x1B29 JUMP JUMPDEST PUSH1 0x40 MLOAD PUSH2 0x7AF SWAP2 SWAP1 PUSH2 0x3923 JUMP JUMPDEST PUSH1 0x40 MLOAD DUP1 SWAP2 SUB SWAP1 RETURN JUMPDEST CALLVALUE DUP1 ISZERO PUSH2 0x7C4 JUMPI PUSH1 0x0 DUP1 REVERT JUMPDEST POP PUSH2 0x7CD PUSH2 0x1B53 JUMP JUMPDEST PUSH1 0x40 MLOAD PUSH2 0x7DA SWAP2 SWAP1 PUSH2 0x385D JUMP JUMPDEST PUSH1 0x40 MLOAD DUP1 SWAP2 SUB SWAP1 RETURN JUMPDEST CALLVALUE DUP1 ISZERO PUSH2 0x7EF JUMPI PUSH1 0x0 DUP1 REVERT JUMPDEST POP PUSH2 0x7F8 PUSH2 0x1BE5 JUMP JUMPDEST PUSH1 0x40 MLOAD PUSH2 0x805 SWAP2 SWAP1 PUSH2 0x3759 JUMP JUMPDEST PUSH1 0x40 MLOAD DUP1 SWAP2 SUB SWAP1 RETURN JUMPDEST CALLVALUE DUP1 ISZERO PUSH2 0x81A JUMPI PUSH1 0x0 DUP1 REVERT JUMPDEST POP PUSH2 0x835 PUSH1 0x4 DUP1 CALLDATASIZE SUB DUP2 ADD SWAP1 PUSH2 0x830 SWAP2 SWAP1 PUSH2 0x3D1D JUMP JUMPDEST PUSH2 0x1BF8 JUMP JUMPDEST STOP JUMPDEST CALLVALUE DUP1 ISZERO PUSH2 0x843 JUMPI PUSH1 0x0 DUP1 REVERT JUMPDEST POP PUSH2 0x84C PUSH2 0x1C0E JUMP JUMPDEST STOP JUMPDEST CALLVALUE DUP1 ISZERO PUSH2 0x85A JUMPI PUSH1 0x0 DUP1 REVERT JUMPDEST POP PUSH2 0x875 PUSH1 0x4 DUP1 CALLDATASIZE SUB DUP2 ADD SWAP1 PUSH2 0x870 SWAP2 SWAP1 PUSH2 0x3DFE JUMP JUMPDEST PUSH2 0x1CA7 JUMP JUMPDEST STOP JUMPDEST CALLVALUE DUP1 ISZERO PUSH2 0x883 JUMPI PUSH1 0x0 DUP1 REVERT JUMPDEST POP PUSH2 0x88C PUSH2 0x1D09 JUMP JUMPDEST PUSH1 0x40 MLOAD PUSH2 0x899 SWAP2 SWAP1 PUSH2 0x39B9 JUMP JUMPDEST PUSH1 0x40 MLOAD DUP1 SWAP2 SUB SWAP1 RETURN JUMPDEST CALLVALUE DUP1 ISZERO PUSH2 0x8AE JUMPI PUSH1 0x0 DUP1 REVERT JUMPDEST POP PUSH2 0x8B7 PUSH2 0x1D0F JUMP JUMPDEST PUSH1 0x40 MLOAD PUSH2 0x8C4 SWAP2 SWAP1 PUSH2 0x385D JUMP JUMPDEST PUSH1 0x40 MLOAD DUP1 SWAP2 SUB SWAP1 RETURN JUMPDEST CALLVALUE DUP1 ISZERO PUSH2 0x8D9 JUMPI PUSH1 0x0 DUP1 REVERT JUMPDEST POP PUSH2 0x8F4 PUSH1 0x4 DUP1 CALLDATASIZE SUB DUP2 ADD SWAP1 PUSH2 0x8EF SWAP2 SWAP1 PUSH2 0x38B5 JUMP JUMPDEST PUSH2 0x1D9D JUMP JUMPDEST PUSH1 0x40 MLOAD PUSH2 0x901 SWAP2 SWAP1 PUSH2 0x385D JUMP JUMPDEST PUSH1 0x40 MLOAD DUP1 SWAP2 SUB SWAP1 RETURN JUMPDEST CALLVALUE DUP1 ISZERO PUSH2 0x916 JUMPI PUSH1 0x0 DUP1 REVERT JUMPDEST POP PUSH2 0x931 PUSH1 0x4 DUP1 CALLDATASIZE SUB DUP2 ADD SWAP1 PUSH2 0x92C SWAP2 SWAP1 PUSH2 0x38B5 JUMP JUMPDEST PUSH2 0x1F84 JUMP JUMPDEST STOP JUMPDEST CALLVALUE DUP1 ISZERO PUSH2 0x93F JUMPI PUSH1 0x0 DUP1 REVERT JUMPDEST POP PUSH2 0x948 PUSH2 0x200A JUMP JUMPDEST PUSH1 0x40 MLOAD PUSH2 0x955 SWAP2 SWAP1 PUSH2 0x39B9 JUMP JUMPDEST PUSH1 0x40 MLOAD DUP1 SWAP2 SUB SWAP1 RETURN JUMPDEST CALLVALUE DUP1 ISZERO PUSH2 0x96A JUMPI PUSH1 0x0 DUP1 REVERT JUMPDEST POP PUSH2 0x985 PUSH1 0x4 DUP1 CALLDATASIZE SUB DUP2 ADD SWAP1 PUSH2 0x980 SWAP2 SWAP1 PUSH2 0x3CD4 JUMP JUMPDEST PUSH2 0x2010 JUMP JUMPDEST STOP JUMPDEST CALLVALUE DUP1 ISZERO PUSH2 0x993 JUMPI PUSH1 0x0 DUP1 REVERT JUMPDEST POP PUSH2 0x9AE PUSH1 0x4 DUP1 CALLDATASIZE SUB DUP2 ADD SWAP1 PUSH2 0x9A9 SWAP2 SWAP1 PUSH2 0x3E81 JUMP JUMPDEST PUSH2 0x209F JUMP JUMPDEST PUSH1 0x40 MLOAD PUSH2 0x9BB SWAP2 SWAP1 PUSH2 0x3759 JUMP JUMPDEST PUSH1 0x40 MLOAD DUP1 SWAP2 SUB SWAP1 RETURN JUMPDEST CALLVALUE DUP1 ISZERO PUSH2 0x9D0 JUMPI PUSH1 0x0 DUP1 REVERT JUMPDEST POP PUSH2 0x9EB PUSH1 0x4 DUP1 CALLDATASIZE SUB DUP2 ADD SWAP1 PUSH2 0x9E6 SWAP2 SWAP1 PUSH2 0x3CD4 JUMP JUMPDEST PUSH2 0x2133 JUMP JUMPDEST STOP JUMPDEST CALLVALUE DUP1 ISZERO PUSH2 0x9F9 JUMPI PUSH1 0x0 DUP1 REVERT JUMPDEST POP PUSH2 0xA14 PUSH1 0x4 DUP1 CALLDATASIZE SUB DUP2 ADD SWAP1 PUSH2 0xA0F SWAP2 SWAP1 PUSH2 0x39D4 JUMP JUMPDEST PUSH2 0x21C2 JUMP JUMPDEST STOP JUMPDEST CALLVALUE DUP1 ISZERO PUSH2 0xA22 JUMPI PUSH1 0x0 DUP1 REVERT JUMPDEST POP PUSH2 0xA3D PUSH1 0x4 DUP1 CALLDATASIZE SUB DUP2 ADD SWAP1 PUSH2 0xA38 SWAP2 SWAP1 PUSH2 0x39D4 JUMP JUMPDEST PUSH2 0x22B9 JUMP JUMPDEST STOP JUMPDEST PUSH1 0x0 PUSH32 0x780E9D6300000000000000000000000000000000000000000000000000000000 PUSH28 0xFFFFFFFFFFFFFFFFFFFFFFFFFFFFFFFFFFFFFFFFFFFFFFFFFFFFFFFF NOT AND DUP3 PUSH28 0xFFFFFFFFFFFFFFFFFFFFFFFFFFFFFFFFFFFFFFFFFFFFFFFFFFFFFFFF NOT AND EQ DUP1 PUSH2 0xAB2 JUMPI POP PUSH2 0xAB1 DUP3 PUSH2 0x2390 JUMP JUMPDEST JUMPDEST SWAP1 POP SWAP2 SWAP1 POP JUMP JUMPDEST PUSH2 0xAC1 PUSH2 0x2472 JUMP JUMPDEST PUSH20 0xFFFFFFFFFFFFFFFFFFFFFFFFFFFFFFFFFFFFFFFF AND PUSH2 0xADF PUSH2 0x1B29 JUMP JUMPDEST PUSH20 0xFFFFFFFFFFFFFFFFFFFFFFFFFFFFFFFFFFFFFFFF AND EQ PUSH2 0xB35 JUMPI PUSH1 0x40 MLOAD PUSH32 0x8C379A000000000000000000000000000000000000000000000000000000000 DUP2 MSTORE PUSH1 0x4 ADD PUSH2 0xB2C SWAP1 PUSH2 0x3F0D JUMP JUMPDEST PUSH1 0x40 MLOAD DUP1 SWAP2 SUB SWAP1 REVERT JUMPDEST DUP1 PUSH1 0x11 PUSH1 0x0 PUSH2 0x100 EXP DUP2 SLOAD DUP2 PUSH1 0xFF MUL NOT AND SWAP1 DUP4 ISZERO ISZERO MUL OR SWAP1 SSTORE POP POP JUMP JUMPDEST PUSH1 0x60 PUSH1 0x0 DUP1 SLOAD PUSH2 0xB61 SWAP1 PUSH2 0x3F5C JUMP JUMPDEST DUP1 PUSH1 0x1F ADD PUSH1 0x20 DUP1 SWAP2 DIV MUL PUSH1 0x20 ADD PUSH1 0x40 MLOAD SWAP1 DUP2 ADD PUSH1 0x40 MSTORE DUP1 SWAP3 SWAP2 SWAP1 DUP2 DUP2 MSTORE PUSH1 0x20 ADD DUP3 DUP1 SLOAD PUSH2 0xB8D SWAP1 PUSH2 0x3F5C JUMP JUMPDEST DUP1 ISZERO PUSH2 0xBDA JUMPI DUP1 PUSH1 0x1F LT PUSH2 0xBAF JUMPI PUSH2 0x100 DUP1 DUP4 SLOAD DIV MUL DUP4 MSTORE SWAP2 PUSH1 0x20 ADD SWAP2 PUSH2 0xBDA JUMP JUMPDEST DUP3 ADD SWAP2 SWAP1 PUSH1 0x0 MSTORE PUSH1 0x20 PUSH1 0x0 KECCAK256 SWAP1 JUMPDEST DUP2 SLOAD DUP2 MSTORE SWAP1 PUSH1 0x1 ADD SWAP1 PUSH1 0x20 ADD DUP1 DUP4 GT PUSH2 0xBBD JUMPI DUP3 SWAP1 SUB PUSH1 0x1F AND DUP3 ADD SWAP2 JUMPDEST POP POP POP POP POP SWAP1 POP SWAP1 JUMP JUMPDEST PUSH1 0x0 PUSH2 0xBEF DUP3 PUSH2 0x247A JUMP JUMPDEST PUSH2 0xC2E JUMPI PUSH1 0x40 MLOAD PUSH32 0x8C379A000000000000000000000000000000000000000000000000000000000 DUP2 MSTORE PUSH1 0x4 ADD PUSH2 0xC25 SWAP1 PUSH2 0x3FFF JUMP JUMPDEST PUSH1 0x40 MLOAD DUP1 SWAP2 SUB SWAP1 REVERT JUMPDEST PUSH1 0x4 PUSH1 0x0 DUP4 DUP2 MSTORE PUSH1 0x20 ADD SWAP1 DUP2 MSTORE PUSH1 0x20 ADD PUSH1 0x0 KECCAK256 PUSH1 0x0 SWAP1 SLOAD SWAP1 PUSH2 0x100 EXP SWAP1 DIV PUSH20 0xFFFFFFFFFFFFFFFFFFFFFFFFFFFFFFFFFFFFFFFF AND SWAP1 POP SWAP2 SWAP1 POP JUMP JUMPDEST PUSH1 0x12 DUP1 SLOAD PUSH2 0xC76 SWAP1 PUSH2 0x3F5C JUMP JUMPDEST DUP1 PUSH1 0x1F ADD PUSH1 0x20 DUP1 SWAP2 DIV MUL PUSH1 0x20 ADD PUSH1 0x40 MLOAD SWAP1 DUP2 ADD PUSH1 0x40 MSTORE DUP1 SWAP3 SWAP2 SWAP1 DUP2 DUP2 MSTORE PUSH1 0x20 ADD DUP3 DUP1 SLOAD PUSH2 0xCA2 SWAP1 PUSH2 0x3F5C JUMP JUMPDEST DUP1 ISZERO PUSH2 0xCEF JUMPI DUP1 PUSH1 0x1F LT PUSH2 0xCC4 JUMPI PUSH2 0x100 DUP1 DUP4 SLOAD DIV MUL DUP4 MSTORE SWAP2 PUSH1 0x20 ADD SWAP2 PUSH2 0xCEF JUMP JUMPDEST DUP3 ADD SWAP2 SWAP1 PUSH1 0x0 MSTORE PUSH1 0x20 PUSH1 0x0 KECCAK256 SWAP1 JUMPDEST DUP2 SLOAD DUP2 MSTORE SWAP1 PUSH1 0x1 ADD SWAP1 PUSH1 0x20 ADD DUP1 DUP4 GT PUSH2 0xCD2 JUMPI DUP3 SWAP1 SUB PUSH1 0x1F AND DUP3 ADD SWAP2 JUMPDEST POP POP POP POP POP DUP2 JUMP JUMPDEST PUSH1 0x0 PUSH2 0xD02 DUP3 PUSH2 0x181F JUMP JUMPDEST SWAP1 POP DUP1 PUSH20 0xFFFFFFFFFFFFFFFFFFFFFFFFFFFFFFFFFFFFFFFF AND DUP4 PUSH20 0xFFFFFFFFFFFFFFFFFFFFFFFFFFFFFFFFFFFFFFFF AND SUB PUSH2 0xD72 JUMPI PUSH1 0x40 MLOAD PUSH32 0x8C379A000000000000000000000000000000000000000000000000000000000 DUP2 MSTORE PUSH1 0x4 ADD PUSH2 0xD69 SWAP1 PUSH2 0x406B JUMP JUMPDEST PUSH1 0x40 MLOAD DUP1 SWAP2 SUB SWAP1 REVERT JUMPDEST DUP1 PUSH20 0xFFFFFFFFFFFFFFFFFFFFFFFFFFFFFFFFFFFFFFFF AND PUSH2 0xD91 PUSH2 0x2472 JUMP JUMPDEST PUSH20 0xFFFFFFFFFFFFFFFFFFFFFFFFFFFFFFFFFFFFFFFF AND EQ DUP1 PUSH2 0xDC0 JUMPI POP PUSH2 0xDBF DUP2 PUSH2 0xDBA PUSH2 0x2472 JUMP JUMPDEST PUSH2 0x209F JUMP JUMPDEST JUMPDEST PUSH2 0xDFF JUMPI PUSH1 0x40 MLOAD PUSH32 0x8C379A000000000000000000000000000000000000000000000000000000000 DUP2 MSTORE PUSH1 0x4 ADD PUSH2 0xDF6 SWAP1 PUSH2 0x40FD JUMP JUMPDEST PUSH1 0x40 MLOAD DUP1 SWAP2 SUB SWAP1 REVERT JUMPDEST PUSH2 0xE09 DUP4 DUP4 PUSH2 0x24E6 JUMP JUMPDEST POP POP POP JUMP JUMPDEST PUSH1 0x0 PUSH1 0x8 DUP1 SLOAD SWAP1 POP SWAP1 POP SWAP1 JUMP JUMPDEST PUSH1 0x15 PUSH1 0x20 MSTORE DUP1 PUSH1 0x0 MSTORE PUSH1 0x40 PUSH1 0x0 KECCAK256 PUSH1 0x0 SWAP2 POP SWAP1 POP SLOAD DUP2 JUMP JUMPDEST PUSH1 0xE SLOAD DUP2 JUMP JUMPDEST PUSH2 0xE4A PUSH2 0xE44 PUSH2 0x2472 JUMP JUMPDEST DUP3 PUSH2 0x259F JUMP JUMPDEST PUSH2 0xE89 JUMPI PUSH1 0x40 MLOAD PUSH32 0x8C379A000000000000000000000000000000000000000000000000000000000 DUP2 MSTORE PUSH1 0x4 ADD PUSH2 0xE80 SWAP1 PUSH2 0x418F JUMP JUMPDEST PUSH1 0x40 MLOAD DUP1 SWAP2 SUB SWAP1 REVERT JUMPDEST PUSH2 0xE94 DUP4 DUP4 DUP4 PUSH2 0x267D JUMP JUMPDEST POP POP POP JUMP JUMPDEST PUSH1 0x0 PUSH2 0xEA4 DUP4 PUSH2 0x1964 JUMP JUMPDEST DUP3 LT PUSH2 0xEE5 JUMPI PUSH1 0x40 MLOAD PUSH32 0x8C379A000000000000000000000000000000000000000000000000000000000 DUP2 MSTORE PUSH1 0x4 ADD PUSH2 0xEDC SWAP1 PUSH2 0x4221 JUMP JUMPDEST PUSH1 0x40 MLOAD DUP1 SWAP2 SUB SWAP1 REVERT JUMPDEST PUSH1 0x6 PUSH1 0x0 DUP5 PUSH20 0xFFFFFFFFFFFFFFFFFFFFFFFFFFFFFFFFFFFFFFFF AND PUSH20 0xFFFFFFFFFFFFFFFFFFFFFFFFFFFFFFFFFFFFFFFF AND DUP2 MSTORE PUSH1 0x20 ADD SWAP1 DUP2 MSTORE PUSH1 0x20 ADD PUSH1 0x0 KECCAK256 PUSH1 0x0 DUP4 DUP2 MSTORE PUSH1 0x20 ADD SWAP1 DUP2 MSTORE PUSH1 0x20 ADD PUSH1 0x0 KECCAK256 SLOAD SWAP1 POP SWAP3 SWAP2 POP POP JUMP JUMPDEST PUSH2 0xF46 PUSH2 0x2472 JUMP JUMPDEST PUSH20 0xFFFFFFFFFFFFFFFFFFFFFFFFFFFFFFFFFFFFFFFF AND PUSH2 0xF64 PUSH2 0x1B29 JUMP JUMPDEST PUSH20 0xFFFFFFFFFFFFFFFFFFFFFFFFFFFFFFFFFFFFFFFF AND EQ PUSH2 0xFBA JUMPI PUSH1 0x40 MLOAD PUSH32 0x8C379A000000000000000000000000000000000000000000000000000000000 DUP2 MSTORE PUSH1 0x4 ADD PUSH2 0xFB1 SWAP1 PUSH2 0x3F0D JUMP JUMPDEST PUSH1 0x40 MLOAD DUP1 SWAP2 SUB SWAP1 REVERT JUMPDEST DUP1 PUSH1 0x13 PUSH1 0x0 PUSH2 0x100 EXP DUP2 SLOAD DUP2 PUSH1 0xFF MUL NOT AND SWAP1 DUP4 ISZERO ISZERO MUL OR SWAP1 SSTORE POP POP JUMP JUMPDEST PUSH1 0x11 PUSH1 0x0 SWAP1 SLOAD SWAP1 PUSH2 0x100 EXP SWAP1 DIV PUSH1 0xFF AND ISZERO PUSH2 0x1027 JUMPI PUSH1 0x40 MLOAD PUSH32 0x8C379A000000000000000000000000000000000000000000000000000000000 DUP2 MSTORE PUSH1 0x4 ADD PUSH2 0x101E SWAP1 PUSH2 0x428D JUMP JUMPDEST PUSH1 0x40 MLOAD DUP1 SWAP2 SUB SWAP1 REVERT JUMPDEST PUSH1 0x0 PUSH2 0x1031 PUSH2 0xE0E JUMP JUMPDEST SWAP1 POP PUSH1 0x0 DUP3 GT PUSH2 0x1076 JUMPI PUSH1 0x40 MLOAD PUSH32 0x8C379A000000000000000000000000000000000000000000000000000000000 DUP2 MSTORE PUSH1 0x4 ADD PUSH2 0x106D SWAP1 PUSH2 0x42F9 JUMP JUMPDEST PUSH1 0x40 MLOAD DUP1 SWAP2 SUB SWAP1 REVERT JUMPDEST PUSH1 0xE SLOAD DUP3 GT ISZERO PUSH2 0x10BB JUMPI PUSH1 0x40 MLOAD PUSH32 0x8C379A000000000000000000000000000000000000000000000000000000000 DUP2 MSTORE PUSH1 0x4 ADD PUSH2 0x10B2 SWAP1 PUSH2 0x438B JUMP JUMPDEST PUSH1 0x40 MLOAD DUP1 SWAP2 SUB SWAP1 REVERT JUMPDEST PUSH1 0xD SLOAD DUP3 DUP3 PUSH2 0x10CA SWAP2 SWAP1 PUSH2 0x43DA JUMP JUMPDEST GT ISZERO PUSH2 0x110B JUMPI PUSH1 0x40 MLOAD PUSH32 0x8C379A000000000000000000000000000000000000000000000000000000000 DUP2 MSTORE PUSH1 0x4 ADD PUSH2 0x1102 SWAP1 PUSH2 0x445A JUMP JUMPDEST PUSH1 0x40 MLOAD DUP1 SWAP2 SUB SWAP1 REVERT JUMPDEST PUSH2 0x1113 PUSH2 0x1B29 JUMP JUMPDEST PUSH20 0xFFFFFFFFFFFFFFFFFFFFFFFFFFFFFFFFFFFFFFFF AND CALLER PUSH20 0xFFFFFFFFFFFFFFFFFFFFFFFFFFFFFFFFFFFFFFFF AND EQ PUSH2 0x1436 JUMPI PUSH1 0x1 ISZERO ISZERO PUSH1 0x13 PUSH1 0x0 SWAP1 SLOAD SWAP1 PUSH2 0x100 EXP SWAP1 DIV PUSH1 0xFF AND ISZERO ISZERO SUB PUSH2 0x1282 JUMPI PUSH1 0x14 PUSH1 0x0 CALLER PUSH20 0xFFFFFFFFFFFFFFFFFFFFFFFFFFFFFFFFFFFFFFFF AND PUSH20 0xFFFFFFFFFFFFFFFFFFFFFFFFFFFFFFFFFFFFFFFF AND DUP2 MSTORE PUSH1 0x20 ADD SWAP1 DUP2 MSTORE PUSH1 0x20 ADD PUSH1 0x0 KECCAK256 PUSH1 0x0 SWAP1 SLOAD SWAP1 PUSH2 0x100 EXP SWAP1 DIV PUSH1 0xFF AND PUSH2 0x11EC JUMPI PUSH1 0x40 MLOAD PUSH32 0x8C379A000000000000000000000000000000000000000000000000000000000 DUP2 MSTORE PUSH1 0x4 ADD PUSH2 0x11E3 SWAP1 PUSH2 0x44C6 JUMP JUMPDEST PUSH1 0x40 MLOAD DUP1 SWAP2 SUB SWAP1 REVERT JUMPDEST PUSH1 0x0 PUSH1 0x15 PUSH1 0x0 CALLER PUSH20 0xFFFFFFFFFFFFFFFFFFFFFFFFFFFFFFFFFFFFFFFF AND PUSH20 0xFFFFFFFFFFFFFFFFFFFFFFFFFFFFFFFFFFFFFFFF AND DUP2 MSTORE PUSH1 0x20 ADD SWAP1 DUP2 MSTORE PUSH1 0x20 ADD PUSH1 0x0 KECCAK256 SLOAD SWAP1 POP PUSH1 0x10 SLOAD DUP4 DUP3 PUSH2 0x123F SWAP2 SWAP1 PUSH2 0x43DA JUMP JUMPDEST GT ISZERO PUSH2 0x1280 JUMPI PUSH1 0x40 MLOAD PUSH32 0x8C379A000000000000000000000000000000000000000000000000000000000 DUP2 MSTORE PUSH1 0x4 ADD PUSH2 0x1277 SWAP1 PUSH2 0x4532 JUMP JUMPDEST PUSH1 0x40 MLOAD DUP1 SWAP2 SUB SWAP1 REVERT JUMPDEST POP JUMPDEST DUP2 PUSH1 0xF SLOAD PUSH2 0x1290 SWAP2 SWAP1 PUSH2 0x4552 JUMP JUMPDEST CALLVALUE LT ISZERO PUSH2 0x12D2 JUMPI PUSH1 0x40 MLOAD PUSH32 0x8C379A000000000000000000000000000000000000000000000000000000000 DUP2 MSTORE PUSH1 0x4 ADD PUSH2 0x12C9 SWAP1 PUSH2 0x45E0 JUMP JUMPDEST PUSH1 0x40 MLOAD DUP1 SWAP2 SUB SWAP1 REVERT JUMPDEST PUSH1 0x0 PUSH1 0x16 PUSH1 0x0 CALLER PUSH20 0xFFFFFFFFFFFFFFFFFFFFFFFFFFFFFFFFFFFFFFFF AND PUSH20 0xFFFFFFFFFFFFFFFFFFFFFFFFFFFFFFFFFFFFFFFF AND DUP2 MSTORE PUSH1 0x20 ADD SWAP1 DUP2 MSTORE PUSH1 0x20 ADD PUSH1 0x0 KECCAK256 SLOAD SUB PUSH2 0x1362 JUMPI TIMESTAMP PUSH1 0x16 PUSH1 0x0 CALLER PUSH20 0xFFFFFFFFFFFFFFFFFFFFFFFFFFFFFFFFFFFFFFFF AND PUSH20 0xFFFFFFFFFFFFFFFFFFFFFFFFFFFFFFFFFFFFFFFF AND DUP2 MSTORE PUSH1 0x20 ADD SWAP1 DUP2 MSTORE PUSH1 0x20 ADD PUSH1 0x0 KECCAK256 DUP2 SWAP1 SSTORE POP PUSH2 0x1435 JUMP JUMPDEST PUSH1 0x5 PUSH1 0x16 PUSH1 0x0 CALLER PUSH20 0xFFFFFFFFFFFFFFFFFFFFFFFFFFFFFFFFFFFFFFFF AND PUSH20 0xFFFFFFFFFFFFFFFFFFFFFFFFFFFFFFFFFFFFFFFF AND DUP2 MSTORE PUSH1 0x20 ADD SWAP1 DUP2 MSTORE PUSH1 0x20 ADD PUSH1 0x0 KECCAK256 SLOAD PUSH2 0x13AE SWAP2 SWAP1 PUSH2 0x43DA JUMP JUMPDEST TIMESTAMP LT ISZERO PUSH2 0x13F0 JUMPI PUSH1 0x40 MLOAD PUSH32 0x8C379A000000000000000000000000000000000000000000000000000000000 DUP2 MSTORE PUSH1 0x4 ADD PUSH2 0x13E7 SWAP1 PUSH2 0x464C JUMP JUMPDEST PUSH1 0x40 MLOAD DUP1 SWAP2 SUB SWAP1 REVERT JUMPDEST TIMESTAMP PUSH1 0x16 PUSH1 0x0 CALLER PUSH20 0xFFFFFFFFFFFFFFFFFFFFFFFFFFFFFFFFFFFFFFFF AND PUSH20 0xFFFFFFFFFFFFFFFFFFFFFFFFFFFFFFFFFFFFFFFF AND DUP2 MSTORE PUSH1 0x20 ADD SWAP1 DUP2 MSTORE PUSH1 0x20 ADD PUSH1 0x0 KECCAK256 DUP2 SWAP1 SSTORE POP JUMPDEST JUMPDEST PUSH1 0x0 PUSH1 0x1 SWAP1 POP JUMPDEST DUP3 DUP2 GT PUSH2 0x14C1 JUMPI PUSH1 0x15 PUSH1 0x0 CALLER PUSH20 0xFFFFFFFFFFFFFFFFFFFFFFFFFFFFFFFFFFFFFFFF AND PUSH20 0xFFFFFFFFFFFFFFFFFFFFFFFFFFFFFFFFFFFFFFFF AND DUP2 MSTORE PUSH1 0x20 ADD SWAP1 DUP2 MSTORE PUSH1 0x20 ADD PUSH1 0x0 KECCAK256 PUSH1 0x0 DUP2 SLOAD DUP1 SWAP3 SWAP2 SWAP1 PUSH2 0x1494 SWAP1 PUSH2 0x466C JUMP JUMPDEST SWAP2 SWAP1 POP SSTORE POP PUSH2 0x14AE DUP5 DUP3 DUP5 PUSH2 0x14A9 SWAP2 SWAP1 PUSH2 0x43DA JUMP JUMPDEST PUSH2 0x28E3 JUMP JUMPDEST DUP1 DUP1 PUSH2 0x14B9 SWAP1 PUSH2 0x466C JUMP JUMPDEST SWAP2 POP POP PUSH2 0x143D JUMP JUMPDEST POP POP POP POP JUMP JUMPDEST PUSH2 0x14E2 DUP4 DUP4 DUP4 PUSH1 0x40 MLOAD DUP1 PUSH1 0x20 ADD PUSH1 0x40 MSTORE DUP1 PUSH1 0x0 DUP2 MSTORE POP PUSH2 0x1CA7 JUMP JUMPDEST POP POP POP JUMP JUMPDEST PUSH1 0x60 PUSH1 0x0 PUSH2 0x14F4 DUP4 PUSH2 0x1964 JUMP JUMPDEST SWAP1 POP PUSH1 0x0 DUP2 PUSH8 0xFFFFFFFFFFFFFFFF DUP2 GT ISZERO PUSH2 0x1512 JUMPI PUSH2 0x1511 PUSH2 0x3BA9 JUMP JUMPDEST JUMPDEST PUSH1 0x40 MLOAD SWAP1 DUP1 DUP3 MSTORE DUP1 PUSH1 0x20 MUL PUSH1 0x20 ADD DUP3 ADD PUSH1 0x40 MSTORE DUP1 ISZERO PUSH2 0x1540 JUMPI DUP2 PUSH1 0x20 ADD PUSH1 0x20 DUP3 MUL DUP1 CALLDATASIZE DUP4 CALLDATACOPY DUP1 DUP3 ADD SWAP2 POP POP SWAP1 POP JUMPDEST POP SWAP1 POP PUSH1 0x0 JUMPDEST DUP3 DUP2 LT ISZERO PUSH2 0x158A JUMPI PUSH2 0x1558 DUP6 DUP3 PUSH2 0xE99 JUMP JUMPDEST DUP3 DUP3 DUP2 MLOAD DUP2 LT PUSH2 0x156B JUMPI PUSH2 0x156A PUSH2 0x46B4 JUMP JUMPDEST JUMPDEST PUSH1 0x20 MUL PUSH1 0x20 ADD ADD DUP2 DUP2 MSTORE POP POP DUP1 DUP1 PUSH2 0x1582 SWAP1 PUSH2 0x466C JUMP JUMPDEST SWAP2 POP POP PUSH2 0x1546 JUMP JUMPDEST POP DUP1 SWAP3 POP POP POP SWAP2 SWAP1 POP JUMP JUMPDEST PUSH2 0x159D PUSH2 0x2472 JUMP JUMPDEST PUSH20 0xFFFFFFFFFFFFFFFFFFFFFFFFFFFFFFFFFFFFFFFF AND PUSH2 0x15BB PUSH2 0x1B29 JUMP JUMPDEST PUSH20 0xFFFFFFFFFFFFFFFFFFFFFFFFFFFFFFFFFFFFFFFF AND EQ PUSH2 0x1611 JUMPI PUSH1 0x40 MLOAD PUSH32 0x8C379A000000000000000000000000000000000000000000000000000000000 DUP2 MSTORE PUSH1 0x4 ADD PUSH2 0x1608 SWAP1 PUSH2 0x3F0D JUMP JUMPDEST PUSH1 0x40 MLOAD DUP1 SWAP2 SUB SWAP1 REVERT JUMPDEST DUP1 PUSH1 0xF DUP2 SWAP1 SSTORE POP POP JUMP JUMPDEST PUSH1 0x16 PUSH1 0x20 MSTORE DUP1 PUSH1 0x0 MSTORE PUSH1 0x40 PUSH1 0x0 KECCAK256 PUSH1 0x0 SWAP2 POP SWAP1 POP SLOAD DUP2 JUMP JUMPDEST PUSH1 0x0 PUSH2 0x163D PUSH2 0xE0E JUMP JUMPDEST DUP3 LT PUSH2 0x167E JUMPI PUSH1 0x40 MLOAD PUSH32 0x8C379A000000000000000000000000000000000000000000000000000000000 DUP2 MSTORE PUSH1 0x4 ADD PUSH2 0x1675 SWAP1 PUSH2 0x4755 JUMP JUMPDEST PUSH1 0x40 MLOAD DUP1 SWAP2 SUB SWAP1 REVERT JUMPDEST PUSH1 0x8 DUP3 DUP2 SLOAD DUP2 LT PUSH2 0x1692 JUMPI PUSH2 0x1691 PUSH2 0x46B4 JUMP JUMPDEST JUMPDEST SWAP1 PUSH1 0x0 MSTORE PUSH1 0x20 PUSH1 0x0 KECCAK256 ADD SLOAD SWAP1 POP SWAP2 SWAP1 POP JUMP JUMPDEST PUSH1 0x11 PUSH1 0x1 SWAP1 SLOAD SWAP1 PUSH2 0x100 EXP SWAP1 DIV PUSH1 0xFF AND DUP2 JUMP JUMPDEST PUSH2 0x16BF PUSH2 0x2472 JUMP JUMPDEST PUSH20 0xFFFFFFFFFFFFFFFFFFFFFFFFFFFFFFFFFFFFFFFF AND PUSH2 0x16DD PUSH2 0x1B29 JUMP JUMPDEST PUSH20 0xFFFFFFFFFFFFFFFFFFFFFFFFFFFFFFFFFFFFFFFF AND EQ PUSH2 0x1733 JUMPI PUSH1 0x40 MLOAD PUSH32 0x8C379A000000000000000000000000000000000000000000000000000000000 DUP2 MSTORE PUSH1 0x4 ADD PUSH2 0x172A SWAP1 PUSH2 0x3F0D JUMP JUMPDEST PUSH1 0x40 MLOAD DUP1 SWAP2 SUB SWAP1 REVERT JUMPDEST DUP1 PUSH20 0xFFFFFFFFFFFFFFFFFFFFFFFFFFFFFFFFFFFFFFFF AND PUSH2 0x8FC SELFBALANCE SWAP1 DUP2 ISZERO MUL SWAP1 PUSH1 0x40 MLOAD PUSH1 0x0 PUSH1 0x40 MLOAD DUP1 DUP4 SUB DUP2 DUP6 DUP9 DUP9 CALL SWAP4 POP POP POP POP ISZERO DUP1 ISZERO PUSH2 0x1779 JUMPI RETURNDATASIZE PUSH1 0x0 DUP1 RETURNDATACOPY RETURNDATASIZE PUSH1 0x0 REVERT JUMPDEST POP POP JUMP JUMPDEST PUSH2 0x1785 PUSH2 0x2472 JUMP JUMPDEST PUSH20 0xFFFFFFFFFFFFFFFFFFFFFFFFFFFFFFFFFFFFFFFF AND PUSH2 0x17A3 PUSH2 0x1B29 JUMP JUMPDEST PUSH20 0xFFFFFFFFFFFFFFFFFFFFFFFFFFFFFFFFFFFFFFFF AND EQ PUSH2 0x17F9 JUMPI PUSH1 0x40 MLOAD PUSH32 0x8C379A000000000000000000000000000000000000000000000000000000000 DUP2 MSTORE PUSH1 0x4 ADD PUSH2 0x17F0 SWAP1 PUSH2 0x3F0D JUMP JUMPDEST PUSH1 0x40 MLOAD DUP1 SWAP2 SUB SWAP1 REVERT JUMPDEST DUP1 PUSH1 0xB SWAP1 DUP2 PUSH2 0x1808 SWAP2 SWAP1 PUSH2 0x4921 JUMP JUMPDEST POP POP JUMP JUMPDEST PUSH1 0x11 PUSH1 0x0 SWAP1 SLOAD SWAP1 PUSH2 0x100 EXP SWAP1 DIV PUSH1 0xFF AND DUP2 JUMP JUMPDEST PUSH1 0x0 DUP1 PUSH1 0x2 PUSH1 0x0 DUP5 DUP2 MSTORE PUSH1 0x20 ADD SWAP1 DUP2 MSTORE PUSH1 0x20 ADD PUSH1 0x0 KECCAK256 PUSH1 0x0 SWAP1 SLOAD SWAP1 PUSH2 0x100 EXP SWAP1 DIV PUSH20 0xFFFFFFFFFFFFFFFFFFFFFFFFFFFFFFFFFFFFFFFF AND SWAP1 POP PUSH1 0x0 PUSH20 0xFFFFFFFFFFFFFFFFFFFFFFFFFFFFFFFFFFFFFFFF AND DUP2 PUSH20 0xFFFFFFFFFFFFFFFFFFFFFFFFFFFFFFFFFFFFFFFF AND SUB PUSH2 0x18C7 JUMPI PUSH1 0x40 MLOAD PUSH32 0x8C379A000000000000000000000000000000000000000000000000000000000 DUP2 MSTORE PUSH1 0x4 ADD PUSH2 0x18BE SWAP1 PUSH2 0x4A65 JUMP JUMPDEST PUSH1 0x40 MLOAD DUP1 SWAP2 SUB SWAP1 REVERT JUMPDEST DUP1 SWAP2 POP POP SWAP2 SWAP1 POP JUMP JUMPDEST PUSH1 0xF SLOAD DUP2 JUMP JUMPDEST PUSH1 0xB DUP1 SLOAD PUSH2 0x18E3 SWAP1 PUSH2 0x3F5C JUMP JUMPDEST DUP1 PUSH1 0x1F ADD PUSH1 0x20 DUP1 SWAP2 DIV MUL PUSH1 0x20 ADD PUSH1 0x40 MLOAD SWAP1 DUP2 ADD PUSH1 0x40 MSTORE DUP1 SWAP3 SWAP2 SWAP1 DUP2 DUP2 MSTORE PUSH1 0x20 ADD DUP3 DUP1 SLOAD PUSH2 0x190F SWAP1 PUSH2 0x3F5C JUMP JUMPDEST DUP1 ISZERO PUSH2 0x195C JUMPI DUP1 PUSH1 0x1F LT PUSH2 0x1931 JUMPI PUSH2 0x100 DUP1 DUP4 SLOAD DIV MUL DUP4 MSTORE SWAP2 PUSH1 0x20 ADD SWAP2 PUSH2 0x195C JUMP JUMPDEST DUP3 ADD SWAP2 SWAP1 PUSH1 0x0 MSTORE PUSH1 0x20 PUSH1 0x0 KECCAK256 SWAP1 JUMPDEST DUP2 SLOAD DUP2 MSTORE SWAP1 PUSH1 0x1 ADD SWAP1 PUSH1 0x20 ADD DUP1 DUP4 GT PUSH2 0x193F JUMPI DUP3 SWAP1 SUB PUSH1 0x1F AND DUP3 ADD SWAP2 JUMPDEST POP POP POP POP POP DUP2 JUMP JUMPDEST PUSH1 0x0 DUP1 PUSH20 0xFFFFFFFFFFFFFFFFFFFFFFFFFFFFFFFFFFFFFFFF AND DUP3 PUSH20 0xFFFFFFFFFFFFFFFFFFFFFFFFFFFFFFFFFFFFFFFF AND SUB PUSH2 0x19D4 JUMPI PUSH1 0x40 MLOAD PUSH32 0x8C379A000000000000000000000000000000000000000000000000000000000 DUP2 MSTORE PUSH1 0x4 ADD PUSH2 0x19CB SWAP1 PUSH2 0x4AF7 JUMP JUMPDEST PUSH1 0x40 MLOAD DUP1 SWAP2 SUB SWAP1 REVERT JUMPDEST PUSH1 0x3 PUSH1 0x0 DUP4 PUSH20 0xFFFFFFFFFFFFFFFFFFFFFFFFFFFFFFFFFFFFFFFF AND PUSH20 0xFFFFFFFFFFFFFFFFFFFFFFFFFFFFFFFFFFFFFFFF AND DUP2 MSTORE PUSH1 0x20 ADD SWAP1 DUP2 MSTORE PUSH1 0x20 ADD PUSH1 0x0 KECCAK256 SLOAD SWAP1 POP SWAP2 SWAP1 POP JUMP JUMPDEST PUSH2 0x1A23 PUSH2 0x2472 JUMP JUMPDEST PUSH20 0xFFFFFFFFFFFFFFFFFFFFFFFFFFFFFFFFFFFFFFFF AND PUSH2 0x1A41 PUSH2 0x1B29 JUMP JUMPDEST PUSH20 0xFFFFFFFFFFFFFFFFFFFFFFFFFFFFFFFFFFFFFFFF AND EQ PUSH2 0x1A97 JUMPI PUSH1 0x40 MLOAD PUSH32 0x8C379A000000000000000000000000000000000000000000000000000000000 DUP2 MSTORE PUSH1 0x4 ADD PUSH2 0x1A8E SWAP1 PUSH2 0x3F0D JUMP JUMPDEST PUSH1 0x40 MLOAD DUP1 SWAP2 SUB SWAP1 REVERT JUMPDEST PUSH2 0x1AA1 PUSH1 0x0 PUSH2 0x2901 JUMP JUMPDEST JUMP JUMPDEST PUSH2 0x1AAB PUSH2 0x2472 JUMP JUMPDEST PUSH20 0xFFFFFFFFFFFFFFFFFFFFFFFFFFFFFFFFFFFFFFFF AND PUSH2 0x1AC9 PUSH2 0x1B29 JUMP JUMPDEST PUSH20 0xFFFFFFFFFFFFFFFFFFFFFFFFFFFFFFFFFFFFFFFF AND EQ PUSH2 0x1B1F JUMPI PUSH1 0x40 MLOAD PUSH32 0x8C379A000000000000000000000000000000000000000000000000000000000 DUP2 MSTORE PUSH1 0x4 ADD PUSH2 0x1B16 SWAP1 PUSH2 0x3F0D JUMP JUMPDEST PUSH1 0x40 MLOAD DUP1 SWAP2 SUB SWAP1 REVERT JUMPDEST DUP1 PUSH1 0xE DUP2 SWAP1 SSTORE POP POP JUMP JUMPDEST PUSH1 0x0 PUSH1 0xA PUSH1 0x0 SWAP1 SLOAD SWAP1 PUSH2 0x100 EXP SWAP1 DIV PUSH20 0xFFFFFFFFFFFFFFFFFFFFFFFFFFFFFFFFFFFFFFFF AND SWAP1 POP SWAP1 JUMP JUMPDEST PUSH1 0x60 PUSH1 0x1 DUP1 SLOAD PUSH2 0x1B62 SWAP1 PUSH2 0x3F5C JUMP JUMPDEST DUP1 PUSH1 0x1F ADD PUSH1 0x20 DUP1 SWAP2 DIV MUL PUSH1 0x20 ADD PUSH1 0x40 MLOAD SWAP1 DUP2 ADD PUSH1 0x40 MSTORE DUP1 SWAP3 SWAP2 SWAP1 DUP2 DUP2 MSTORE PUSH1 0x20 ADD DUP3 DUP1 SLOAD PUSH2 0x1B8E SWAP1 PUSH2 0x3F5C JUMP JUMPDEST DUP1 ISZERO PUSH2 0x1BDB JUMPI DUP1 PUSH1 0x1F LT PUSH2 0x1BB0 JUMPI PUSH2 0x100 DUP1 DUP4 SLOAD DIV MUL DUP4 MSTORE SWAP2 PUSH1 0x20 ADD SWAP2 PUSH2 0x1BDB JUMP JUMPDEST DUP3 ADD SWAP2 SWAP1 PUSH1 0x0 MSTORE PUSH1 0x20 PUSH1 0x0 KECCAK256 SWAP1 JUMPDEST DUP2 SLOAD DUP2 MSTORE SWAP1 PUSH1 0x1 ADD SWAP1 PUSH1 0x20 ADD DUP1 DUP4 GT PUSH2 0x1BBE JUMPI DUP3 SWAP1 SUB PUSH1 0x1F AND DUP3 ADD SWAP2 JUMPDEST POP POP POP POP POP SWAP1 POP SWAP1 JUMP JUMPDEST PUSH1 0x13 PUSH1 0x0 SWAP1 SLOAD SWAP1 PUSH2 0x100 EXP SWAP1 DIV PUSH1 0xFF AND DUP2 JUMP JUMPDEST PUSH2 0x1C0A PUSH2 0x1C03 PUSH2 0x2472 JUMP JUMPDEST DUP4 DUP4 PUSH2 0x29C7 JUMP JUMPDEST POP POP JUMP JUMPDEST PUSH2 0x1C16 PUSH2 0x2472 JUMP JUMPDEST PUSH20 0xFFFFFFFFFFFFFFFFFFFFFFFFFFFFFFFFFFFFFFFF AND PUSH2 0x1C34 PUSH2 0x1B29 JUMP JUMPDEST PUSH20 0xFFFFFFFFFFFFFFFFFFFFFFFFFFFFFFFFFFFFFFFF AND EQ PUSH2 0x1C8A JUMPI PUSH1 0x40 MLOAD PUSH32 0x8C379A000000000000000000000000000000000000000000000000000000000 DUP2 MSTORE PUSH1 0x4 ADD PUSH2 0x1C81 SWAP1 PUSH2 0x3F0D JUMP JUMPDEST PUSH1 0x40 MLOAD DUP1 SWAP2 SUB SWAP1 REVERT JUMPDEST PUSH1 0x1 PUSH1 0x11 PUSH1 0x1 PUSH2 0x100 EXP DUP2 SLOAD DUP2 PUSH1 0xFF MUL NOT AND SWAP1 DUP4 ISZERO ISZERO MUL OR SWAP1 SSTORE POP JUMP JUMPDEST PUSH2 0x1CB8 PUSH2 0x1CB2 PUSH2 0x2472 JUMP JUMPDEST DUP4 PUSH2 0x259F JUMP JUMPDEST PUSH2 0x1CF7 JUMPI PUSH1 0x40 MLOAD PUSH32 0x8C379A000000000000000000000000000000000000000000000000000000000 DUP2 MSTORE PUSH1 0x4 ADD PUSH2 0x1CEE SWAP1 PUSH2 0x418F JUMP JUMPDEST PUSH1 0x40 MLOAD DUP1 SWAP2 SUB SWAP1 REVERT JUMPDEST PUSH2 0x1D03 DUP5 DUP5 DUP5 DUP5 PUSH2 0x2B33 JUMP JUMPDEST POP POP POP POP JUMP JUMPDEST PUSH1 0x10 SLOAD DUP2 JUMP JUMPDEST PUSH1 0xC DUP1 SLOAD PUSH2 0x1D1C SWAP1 PUSH2 0x3F5C JUMP JUMPDEST DUP1 PUSH1 0x1F ADD PUSH1 0x20 DUP1 SWAP2 DIV MUL PUSH1 0x20 ADD PUSH1 0x40 MLOAD SWAP1 DUP2 ADD PUSH1 0x40 MSTORE DUP1 SWAP3 SWAP2 SWAP1 DUP2 DUP2 MSTORE PUSH1 0x20 ADD DUP3 DUP1 SLOAD PUSH2 0x1D48 SWAP1 PUSH2 0x3F5C JUMP JUMPDEST DUP1 ISZERO PUSH2 0x1D95 JUMPI DUP1 PUSH1 0x1F LT PUSH2 0x1D6A JUMPI PUSH2 0x100 DUP1 DUP4 SLOAD DIV MUL DUP4 MSTORE SWAP2 PUSH1 0x20 ADD SWAP2 PUSH2 0x1D95 JUMP JUMPDEST DUP3 ADD SWAP2 SWAP1 PUSH1 0x0 MSTORE PUSH1 0x20 PUSH1 0x0 KECCAK256 SWAP1 JUMPDEST DUP2 SLOAD DUP2 MSTORE SWAP1 PUSH1 0x1 ADD SWAP1 PUSH1 0x20 ADD DUP1 DUP4 GT PUSH2 0x1D78 JUMPI DUP3 SWAP1 SUB PUSH1 0x1F AND DUP3 ADD SWAP2 JUMPDEST POP POP POP POP POP DUP2 JUMP JUMPDEST PUSH1 0x60 PUSH2 0x1DA8 DUP3 PUSH2 0x247A JUMP JUMPDEST PUSH2 0x1DE7 JUMPI PUSH1 0x40 MLOAD PUSH32 0x8C379A000000000000000000000000000000000000000000000000000000000 DUP2 MSTORE PUSH1 0x4 ADD PUSH2 0x1DDE SWAP1 PUSH2 0x4B89 JUMP JUMPDEST PUSH1 0x40 MLOAD DUP1 SWAP2 SUB SWAP1 REVERT JUMPDEST PUSH1 0x0 ISZERO ISZERO PUSH1 0x11 PUSH1 0x1 SWAP1 SLOAD SWAP1 PUSH2 0x100 EXP SWAP1 DIV PUSH1 0xFF AND ISZERO ISZERO SUB PUSH2 0x1E94 JUMPI PUSH1 0x12 DUP1 SLOAD PUSH2 0x1E0F SWAP1 PUSH2 0x3F5C JUMP JUMPDEST DUP1 PUSH1 0x1F ADD PUSH1 0x20 DUP1 SWAP2 DIV MUL PUSH1 0x20 ADD PUSH1 0x40 MLOAD SWAP1 DUP2 ADD PUSH1 0x40 MSTORE DUP1 SWAP3 SWAP2 SWAP1 DUP2 DUP2 MSTORE PUSH1 0x20 ADD DUP3 DUP1 SLOAD PUSH2 0x1E3B SWAP1 PUSH2 0x3F5C JUMP JUMPDEST DUP1 ISZERO PUSH2 0x1E88 JUMPI DUP1 PUSH1 0x1F LT PUSH2 0x1E5D JUMPI PUSH2 0x100 DUP1 DUP4 SLOAD DIV MUL DUP4 MSTORE SWAP2 PUSH1 0x20 ADD SWAP2 PUSH2 0x1E88 JUMP JUMPDEST DUP3 ADD SWAP2 SWAP1 PUSH1 0x0 MSTORE PUSH1 0x20 PUSH1 0x0 KECCAK256 SWAP1 JUMPDEST DUP2 SLOAD DUP2 MSTORE SWAP1 PUSH1 0x1 ADD SWAP1 PUSH1 0x20 ADD DUP1 DUP4 GT PUSH2 0x1E6B JUMPI DUP3 SWAP1 SUB PUSH1 0x1F AND DUP3 ADD SWAP2 JUMPDEST POP POP POP POP POP SWAP1 POP PUSH2 0x1F7F JUMP JUMPDEST PUSH1 0x0 PUSH1 0xB DUP1 SLOAD PUSH2 0x1EA3 SWAP1 PUSH2 0x3F5C JUMP JUMPDEST DUP1 PUSH1 0x1F ADD PUSH1 0x20 DUP1 SWAP2 DIV MUL PUSH1 0x20 ADD PUSH1 0x40 MLOAD SWAP1 DUP2 ADD PUSH1 0x40 MSTORE DUP1 SWAP3 SWAP2 SWAP1 DUP2 DUP2 MSTORE PUSH1 0x20 ADD DUP3 DUP1 SLOAD PUSH2 0x1ECF SWAP1 PUSH2 0x3F5C JUMP JUMPDEST DUP1 ISZERO PUSH2 0x1F1C JUMPI DUP1 PUSH1 0x1F LT PUSH2 0x1EF1 JUMPI PUSH2 0x100 DUP1 DUP4 SLOAD DIV MUL DUP4 MSTORE SWAP2 PUSH1 0x20 ADD SWAP2 PUSH2 0x1F1C JUMP JUMPDEST DUP3 ADD SWAP2 SWAP1 PUSH1 0x0 MSTORE PUSH1 0x20 PUSH1 0x0 KECCAK256 SWAP1 JUMPDEST DUP2 SLOAD DUP2 MSTORE SWAP1 PUSH1 0x1 ADD SWAP1 PUSH1 0x20 ADD DUP1 DUP4 GT PUSH2 0x1EFF JUMPI DUP3 SWAP1 SUB PUSH1 0x1F AND DUP3 ADD SWAP2 JUMPDEST POP POP POP POP POP SWAP1 POP PUSH1 0x60 PUSH1 0x0 DUP5 SWAP1 POP PUSH2 0x1F33 DUP2 PUSH2 0x2BA2 JUMP JUMPDEST SWAP2 POP PUSH1 0x0 DUP4 MLOAD GT PUSH2 0x1F53 JUMPI PUSH1 0x40 MLOAD DUP1 PUSH1 0x20 ADD PUSH1 0x40 MSTORE DUP1 PUSH1 0x0 DUP2 MSTORE POP PUSH2 0x1F79 JUMP JUMPDEST DUP3 DUP3 PUSH1 0xC PUSH1 0x40 MLOAD PUSH1 0x20 ADD PUSH2 0x1F69 SWAP4 SWAP3 SWAP2 SWAP1 PUSH2 0x4C68 JUMP JUMPDEST PUSH1 0x40 MLOAD PUSH1 0x20 DUP2 DUP4 SUB SUB DUP2 MSTORE SWAP1 PUSH1 0x40 MSTORE JUMPDEST SWAP4 POP POP POP POP JUMPDEST SWAP2 SWAP1 POP JUMP JUMPDEST PUSH2 0x1F8C PUSH2 0x2472 JUMP JUMPDEST PUSH20 0xFFFFFFFFFFFFFFFFFFFFFFFFFFFFFFFFFFFFFFFF AND PUSH2 0x1FAA PUSH2 0x1B29 JUMP JUMPDEST PUSH20 0xFFFFFFFFFFFFFFFFFFFFFFFFFFFFFFFFFFFFFFFF AND EQ PUSH2 0x2000 JUMPI PUSH1 0x40 MLOAD PUSH32 0x8C379A000000000000000000000000000000000000000000000000000000000 DUP2 MSTORE PUSH1 0x4 ADD PUSH2 0x1FF7 SWAP1 PUSH2 0x3F0D JUMP JUMPDEST PUSH1 0x40 MLOAD DUP1 SWAP2 SUB SWAP1 REVERT JUMPDEST DUP1 PUSH1 0x10 DUP2 SWAP1 SSTORE POP POP JUMP JUMPDEST PUSH1 0xD SLOAD DUP2 JUMP JUMPDEST PUSH2 0x2018 PUSH2 0x2472 JUMP JUMPDEST PUSH20 0xFFFFFFFFFFFFFFFFFFFFFFFFFFFFFFFFFFFFFFFF AND PUSH2 0x2036 PUSH2 0x1B29 JUMP JUMPDEST PUSH20 0xFFFFFFFFFFFFFFFFFFFFFFFFFFFFFFFFFFFFFFFF AND EQ PUSH2 0x208C JUMPI PUSH1 0x40 MLOAD PUSH32 0x8C379A000000000000000000000000000000000000000000000000000000000 DUP2 MSTORE PUSH1 0x4 ADD PUSH2 0x2083 SWAP1 PUSH2 0x3F0D JUMP JUMPDEST PUSH1 0x40 MLOAD DUP1 SWAP2 SUB SWAP1 REVERT JUMPDEST DUP1 PUSH1 0xC SWAP1 DUP2 PUSH2 0x209B SWAP2 SWAP1 PUSH2 0x4921 JUMP JUMPDEST POP POP JUMP JUMPDEST PUSH1 0x0 PUSH1 0x5 PUSH1 0x0 DUP5 PUSH20 0xFFFFFFFFFFFFFFFFFFFFFFFFFFFFFFFFFFFFFFFF AND PUSH20 0xFFFFFFFFFFFFFFFFFFFFFFFFFFFFFFFFFFFFFFFF AND DUP2 MSTORE PUSH1 0x20 ADD SWAP1 DUP2 MSTORE PUSH1 0x20 ADD PUSH1 0x0 KECCAK256 PUSH1 0x0 DUP4 PUSH20 0xFFFFFFFFFFFFFFFFFFFFFFFFFFFFFFFFFFFFFFFF AND PUSH20 0xFFFFFFFFFFFFFFFFFFFFFFFFFFFFFFFFFFFFFFFF AND DUP2 MSTORE PUSH1 0x20 ADD SWAP1 DUP2 MSTORE PUSH1 0x20 ADD PUSH1 0x0 KECCAK256 PUSH1 0x0 SWAP1 SLOAD SWAP1 PUSH2 0x100 EXP SWAP1 DIV PUSH1 0xFF AND SWAP1 POP SWAP3 SWAP2 POP POP JUMP JUMPDEST PUSH2 0x213B PUSH2 0x2472 JUMP JUMPDEST PUSH20 0xFFFFFFFFFFFFFFFFFFFFFFFFFFFFFFFFFFFFFFFF AND PUSH2 0x2159 PUSH2 0x1B29 JUMP JUMPDEST PUSH20 0xFFFFFFFFFFFFFFFFFFFFFFFFFFFFFFFFFFFFFFFF AND EQ PUSH2 0x21AF JUMPI PUSH1 0x40 MLOAD PUSH32 0x8C379A000000000000000000000000000000000000000000000000000000000 DUP2 MSTORE PUSH1 0x4 ADD PUSH2 0x21A6 SWAP1 PUSH2 0x3F0D JUMP JUMPDEST PUSH1 0x40 MLOAD DUP1 SWAP2 SUB SWAP1 REVERT JUMPDEST DUP1 PUSH1 0x12 SWAP1 DUP2 PUSH2 0x21BE SWAP2 SWAP1 PUSH2 0x4921 JUMP JUMPDEST POP POP JUMP JUMPDEST PUSH2 0x21CA PUSH2 0x2472 JUMP JUMPDEST PUSH20 0xFFFFFFFFFFFFFFFFFFFFFFFFFFFFFFFFFFFFFFFF AND PUSH2 0x21E8 PUSH2 0x1B29 JUMP JUMPDEST PUSH20 0xFFFFFFFFFFFFFFFFFFFFFFFFFFFFFFFFFFFFFFFF AND EQ PUSH2 0x223E JUMPI PUSH1 0x40 MLOAD PUSH32 0x8C379A000000000000000000000000000000000000000000000000000000000 DUP2 MSTORE PUSH1 0x4 ADD PUSH2 0x2235 SWAP1 PUSH2 0x3F0D JUMP JUMPDEST PUSH1 0x40 MLOAD DUP1 SWAP2 SUB SWAP1 REVERT JUMPDEST PUSH1 0x0 PUSH20 0xFFFFFFFFFFFFFFFFFFFFFFFFFFFFFFFFFFFFFFFF AND DUP2 PUSH20 0xFFFFFFFFFFFFFFFFFFFFFFFFFFFFFFFFFFFFFFFF AND SUB PUSH2 0x22AD JUMPI PUSH1 0x40 MLOAD PUSH32 0x8C379A000000000000000000000000000000000000000000000000000000000 DUP2 MSTORE PUSH1 0x4 ADD PUSH2 0x22A4 SWAP1 PUSH2 0x4D0B JUMP JUMPDEST PUSH1 0x40 MLOAD DUP1 SWAP2 SUB SWAP1 REVERT JUMPDEST PUSH2 0x22B6 DUP2 PUSH2 0x2901 JUMP JUMPDEST POP JUMP JUMPDEST PUSH2 0x22C1 PUSH2 0x2472 JUMP JUMPDEST PUSH20 0xFFFFFFFFFFFFFFFFFFFFFFFFFFFFFFFFFFFFFFFF AND PUSH2 0x22DF PUSH2 0x1B29 JUMP JUMPDEST PUSH20 0xFFFFFFFFFFFFFFFFFFFFFFFFFFFFFFFFFFFFFFFF AND EQ PUSH2 0x2335 JUMPI PUSH1 0x40 MLOAD PUSH32 0x8C379A000000000000000000000000000000000000000000000000000000000 DUP2 MSTORE PUSH1 0x4 ADD PUSH2 0x232C SWAP1 PUSH2 0x3F0D JUMP JUMPDEST PUSH1 0x40 MLOAD DUP1 SWAP2 SUB SWAP1 REVERT JUMPDEST PUSH1 0x1 PUSH1 0x14 PUSH1 0x0 DUP4 PUSH20 0xFFFFFFFFFFFFFFFFFFFFFFFFFFFFFFFFFFFFFFFF AND PUSH20 0xFFFFFFFFFFFFFFFFFFFFFFFFFFFFFFFFFFFFFFFF AND DUP2 MSTORE PUSH1 0x20 ADD SWAP1 DUP2 MSTORE PUSH1 0x20 ADD PUSH1 0x0 KECCAK256 PUSH1 0x0 PUSH2 0x100 EXP DUP2 SLOAD DUP2 PUSH1 0xFF MUL NOT AND SWAP1 DUP4 ISZERO ISZERO MUL OR SWAP1 SSTORE POP POP JUMP JUMPDEST PUSH1 0x0 PUSH32 0x80AC58CD00000000000000000000000000000000000000000000000000000000 PUSH28 0xFFFFFFFFFFFFFFFFFFFFFFFFFFFFFFFFFFFFFFFFFFFFFFFFFFFFFFFF NOT AND DUP3 PUSH28 0xFFFFFFFFFFFFFFFFFFFFFFFFFFFFFFFFFFFFFFFFFFFFFFFFFFFFFFFF NOT AND EQ DUP1 PUSH2 0x245B JUMPI POP PUSH32 0x5B5E139F00000000000000000000000000000000000000000000000000000000 PUSH28 0xFFFFFFFFFFFFFFFFFFFFFFFFFFFFFFFFFFFFFFFFFFFFFFFFFFFFFFFF NOT AND DUP3 PUSH28 0xFFFFFFFFFFFFFFFFFFFFFFFFFFFFFFFFFFFFFFFFFFFFFFFFFFFFFFFF NOT AND EQ JUMPDEST DUP1 PUSH2 0x246B JUMPI POP PUSH2 0x246A DUP3 PUSH2 0x2D02 JUMP JUMPDEST JUMPDEST SWAP1 POP SWAP2 SWAP1 POP JUMP JUMPDEST PUSH1 0x0 CALLER SWAP1 POP SWAP1 JUMP JUMPDEST PUSH1 0x0 DUP1 PUSH20 0xFFFFFFFFFFFFFFFFFFFFFFFFFFFFFFFFFFFFFFFF AND PUSH1 0x2 PUSH1 0x0 DUP5 DUP2 MSTORE PUSH1 0x20 ADD SWAP1 DUP2 MSTORE PUSH1 0x20 ADD PUSH1 0x0 KECCAK256 PUSH1 0x0 SWAP1 SLOAD SWAP1 PUSH2 0x100 EXP SWAP1 DIV PUSH20 0xFFFFFFFFFFFFFFFFFFFFFFFFFFFFFFFFFFFFFFFF AND PUSH20 0xFFFFFFFFFFFFFFFFFFFFFFFFFFFFFFFFFFFFFFFF AND EQ ISZERO SWAP1 POP SWAP2 SWAP1 POP JUMP JUMPDEST DUP2 PUSH1 0x4 PUSH1 0x0 DUP4 DUP2 MSTORE PUSH1 0x20 ADD SWAP1 DUP2 MSTORE PUSH1 0x20 ADD PUSH1 0x0 KECCAK256 PUSH1 0x0 PUSH2 0x100 EXP DUP2 SLOAD DUP2 PUSH20 0xFFFFFFFFFFFFFFFFFFFFFFFFFFFFFFFFFFFFFFFF MUL NOT AND SWAP1 DUP4 PUSH20 0xFFFFFFFFFFFFFFFFFFFFFFFFFFFFFFFFFFFFFFFF AND MUL OR SWAP1 SSTORE POP DUP1 DUP3 PUSH20 0xFFFFFFFFFFFFFFFFFFFFFFFFFFFFFFFFFFFFFFFF AND PUSH2 0x2559 DUP4 PUSH2 0x181F JUMP JUMPDEST PUSH20 0xFFFFFFFFFFFFFFFFFFFFFFFFFFFFFFFFFFFFFFFF AND PUSH32 0x8C5BE1E5EBEC7D5BD14F71427D1E84F3DD0314C0F7B2291E5B200AC8C7C3B925 PUSH1 0x40 MLOAD PUSH1 0x40 MLOAD DUP1 SWAP2 SUB SWAP1 LOG4 POP POP JUMP JUMPDEST PUSH1 0x0 PUSH2 0x25AA DUP3 PUSH2 0x247A JUMP JUMPDEST PUSH2 0x25E9 JUMPI PUSH1 0x40 MLOAD PUSH32 0x8C379A000000000000000000000000000000000000000000000000000000000 DUP2 MSTORE PUSH1 0x4 ADD PUSH2 0x25E0 SWAP1 PUSH2 0x4D9D JUMP JUMPDEST PUSH1 0x40 MLOAD DUP1 SWAP2 SUB SWAP1 REVERT JUMPDEST PUSH1 0x0 PUSH2 0x25F4 DUP4 PUSH2 0x181F JUMP JUMPDEST SWAP1 POP DUP1 PUSH20 0xFFFFFFFFFFFFFFFFFFFFFFFFFFFFFFFFFFFFFFFF AND DUP5 PUSH20 0xFFFFFFFFFFFFFFFFFFFFFFFFFFFFFFFFFFFFFFFF AND EQ DUP1 PUSH2 0x2636 JUMPI POP PUSH2 0x2635 DUP2 DUP6 PUSH2 0x209F JUMP JUMPDEST JUMPDEST DUP1 PUSH2 0x2674 JUMPI POP DUP4 PUSH20 0xFFFFFFFFFFFFFFFFFFFFFFFFFFFFFFFFFFFFFFFF AND PUSH2 0x265C DUP5 PUSH2 0xBE4 JUMP JUMPDEST PUSH20 0xFFFFFFFFFFFFFFFFFFFFFFFFFFFFFFFFFFFFFFFF AND EQ JUMPDEST SWAP2 POP POP SWAP3 SWAP2 POP POP JUMP JUMPDEST DUP3 PUSH20 0xFFFFFFFFFFFFFFFFFFFFFFFFFFFFFFFFFFFFFFFF AND PUSH2 0x269D DUP3 PUSH2 0x181F JUMP JUMPDEST PUSH20 0xFFFFFFFFFFFFFFFFFFFFFFFFFFFFFFFFFFFFFFFF AND EQ PUSH2 0x26F3 JUMPI PUSH1 0x40 MLOAD PUSH32 0x8C379A000000000000000000000000000000000000000000000000000000000 DUP2 MSTORE PUSH1 0x4 ADD PUSH2 0x26EA SWAP1 PUSH2 0x4E2F JUMP JUMPDEST PUSH1 0x40 MLOAD DUP1 SWAP2 SUB SWAP1 REVERT JUMPDEST PUSH1 0x0 PUSH20 0xFFFFFFFFFFFFFFFFFFFFFFFFFFFFFFFFFFFFFFFF AND DUP3 PUSH20 0xFFFFFFFFFFFFFFFFFFFFFFFFFFFFFFFFFFFFFFFF AND SUB PUSH2 0x2762 JUMPI PUSH1 0x40 MLOAD PUSH32 0x8C379A000000000000000000000000000000000000000000000000000000000 DUP2 MSTORE PUSH1 0x4 ADD PUSH2 0x2759 SWAP1 PUSH2 0x4EC1 JUMP JUMPDEST PUSH1 0x40 MLOAD DUP1 SWAP2 SUB SWAP1 REVERT JUMPDEST PUSH2 0x276D DUP4 DUP4 DUP4 PUSH2 0x2D6C JUMP JUMPDEST PUSH2 0x2778 PUSH1 0x0 DUP3 PUSH2 0x24E6 JUMP JUMPDEST PUSH1 0x1 PUSH1 0x3 PUSH1 0x0 DUP6 PUSH20 0xFFFFFFFFFFFFFFFFFFFFFFFFFFFFFFFFFFFFFFFF AND PUSH20 0xFFFFFFFFFFFFFFFFFFFFFFFFFFFFFFFFFFFFFFFF AND DUP2 MSTORE PUSH1 0x20 ADD SWAP1 DUP2 MSTORE PUSH1 0x20 ADD PUSH1 0x0 KECCAK256 PUSH1 0x0 DUP3 DUP3 SLOAD PUSH2 0x27C8 SWAP2 SWAP1 PUSH2 0x4EE1 JUMP JUMPDEST SWAP3 POP POP DUP2 SWAP1 SSTORE POP PUSH1 0x1 PUSH1 0x3 PUSH1 0x0 DUP5 PUSH20 0xFFFFFFFFFFFFFFFFFFFFFFFFFFFFFFFFFFFFFFFF AND PUSH20 0xFFFFFFFFFFFFFFFFFFFFFFFFFFFFFFFFFFFFFFFF AND DUP2 MSTORE PUSH1 0x20 ADD SWAP1 DUP2 MSTORE PUSH1 0x20 ADD PUSH1 0x0 KECCAK256 PUSH1 0x0 DUP3 DUP3 SLOAD PUSH2 0x281F SWAP2 SWAP1 PUSH2 0x43DA JUMP JUMPDEST SWAP3 POP POP DUP2 SWAP1 SSTORE POP DUP2 PUSH1 0x2 PUSH1 0x0 DUP4 DUP2 MSTORE PUSH1 0x20 ADD SWAP1 DUP2 MSTORE PUSH1 0x20 ADD PUSH1 0x0 KECCAK256 PUSH1 0x0 PUSH2 0x100 EXP DUP2 SLOAD DUP2 PUSH20 0xFFFFFFFFFFFFFFFFFFFFFFFFFFFFFFFFFFFFFFFF MUL NOT AND SWAP1 DUP4 PUSH20 0xFFFFFFFFFFFFFFFFFFFFFFFFFFFFFFFFFFFFFFFF AND MUL OR SWAP1 SSTORE POP DUP1 DUP3 PUSH20 0xFFFFFFFFFFFFFFFFFFFFFFFFFFFFFFFFFFFFFFFF AND DUP5 PUSH20 0xFFFFFFFFFFFFFFFFFFFFFFFFFFFFFFFFFFFFFFFF AND PUSH32 0xDDF252AD1BE2C89B69C2B068FC378DAA952BA7F163C4A11628F55A4DF523B3EF PUSH1 0x40 MLOAD PUSH1 0x40 MLOAD DUP1 SWAP2 SUB SWAP1 LOG4 PUSH2 0x28DE DUP4 DUP4 DUP4 PUSH2 0x2E7E JUMP JUMPDEST POP POP POP JUMP JUMPDEST PUSH2 0x28FD DUP3 DUP3 PUSH1 0x40 MLOAD DUP1 PUSH1 0x20 ADD PUSH1 0x40 MSTORE DUP1 PUSH1 0x0 DUP2 MSTORE POP PUSH2 0x2E83 JUMP JUMPDEST POP POP JUMP JUMPDEST PUSH1 0x0 PUSH1 0xA PUSH1 0x0 SWAP1 SLOAD SWAP1 PUSH2 0x100 EXP SWAP1 DIV PUSH20 0xFFFFFFFFFFFFFFFFFFFFFFFFFFFFFFFFFFFFFFFF AND SWAP1 POP DUP2 PUSH1 0xA PUSH1 0x0 PUSH2 0x100 EXP DUP2 SLOAD DUP2 PUSH20 0xFFFFFFFFFFFFFFFFFFFFFFFFFFFFFFFFFFFFFFFF MUL NOT AND SWAP1 DUP4 PUSH20 0xFFFFFFFFFFFFFFFFFFFFFFFFFFFFFFFFFFFFFFFF AND MUL OR SWAP1 SSTORE POP DUP2 PUSH20 0xFFFFFFFFFFFFFFFFFFFFFFFFFFFFFFFFFFFFFFFF AND DUP2 PUSH20 0xFFFFFFFFFFFFFFFFFFFFFFFFFFFFFFFFFFFFFFFF AND PUSH32 0x8BE0079C531659141344CD1FD0A4F28419497F9722A3DAAFE3B4186F6B6457E0 PUSH1 0x40 MLOAD PUSH1 0x40 MLOAD DUP1 SWAP2 SUB SWAP1 LOG3 POP POP JUMP JUMPDEST DUP2 PUSH20 0xFFFFFFFFFFFFFFFFFFFFFFFFFFFFFFFFFFFFFFFF AND DUP4 PUSH20 0xFFFFFFFFFFFFFFFFFFFFFFFFFFFFFFFFFFFFFFFF AND SUB PUSH2 0x2A35 JUMPI PUSH1 0x40 MLOAD PUSH32 0x8C379A000000000000000000000000000000000000000000000000000000000 DUP2 MSTORE PUSH1 0x4 ADD PUSH2 0x2A2C SWAP1 PUSH2 0x4F61 JUMP JUMPDEST PUSH1 0x40 MLOAD DUP1 SWAP2 SUB SWAP1 REVERT JUMPDEST DUP1 PUSH1 0x5 PUSH1 0x0 DUP6 PUSH20 0xFFFFFFFFFFFFFFFFFFFFFFFFFFFFFFFFFFFFFFFF AND PUSH20 0xFFFFFFFFFFFFFFFFFFFFFFFFFFFFFFFFFFFFFFFF AND DUP2 MSTORE PUSH1 0x20 ADD SWAP1 DUP2 MSTORE PUSH1 0x20 ADD PUSH1 0x0 KECCAK256 PUSH1 0x0 DUP5 PUSH20 0xFFFFFFFFFFFFFFFFFFFFFFFFFFFFFFFFFFFFFFFF AND PUSH20 0xFFFFFFFFFFFFFFFFFFFFFFFFFFFFFFFFFFFFFFFF AND DUP2 MSTORE PUSH1 0x20 ADD SWAP1 DUP2 MSTORE PUSH1 0x20 ADD PUSH1 0x0 KECCAK256 PUSH1 0x0 PUSH2 0x100 EXP DUP2 SLOAD DUP2 PUSH1 0xFF MUL NOT AND SWAP1 DUP4 ISZERO ISZERO MUL OR SWAP1 SSTORE POP DUP2 PUSH20 0xFFFFFFFFFFFFFFFFFFFFFFFFFFFFFFFFFFFFFFFF AND DUP4 PUSH20 0xFFFFFFFFFFFFFFFFFFFFFFFFFFFFFFFFFFFFFFFF AND PUSH32 0x17307EAB39AB6107E8899845AD3D59BD9653F200F220920489CA2B5937696C31 DUP4 PUSH1 0x40 MLOAD PUSH2 0x2B26 SWAP2 SWAP1 PUSH2 0x3759 JUMP JUMPDEST PUSH1 0x40 MLOAD DUP1 SWAP2 SUB SWAP1 LOG3 POP POP POP JUMP JUMPDEST PUSH2 0x2B3E DUP5 DUP5 DUP5 PUSH2 0x267D JUMP JUMPDEST PUSH2 0x2B4A DUP5 DUP5 DUP5 DUP5 PUSH2 0x2EF2 JUMP JUMPDEST DUP1 PUSH2 0x2B5D JUMPI POP PUSH2 0x2B5C DUP5 DUP5 DUP5 DUP5 PUSH2 0x3048 JUMP JUMPDEST JUMPDEST PUSH2 0x2B9C JUMPI PUSH1 0x40 MLOAD PUSH32 0x8C379A000000000000000000000000000000000000000000000000000000000 DUP2 MSTORE PUSH1 0x4 ADD PUSH2 0x2B93 SWAP1 PUSH2 0x5019 JUMP JUMPDEST PUSH1 0x40 MLOAD DUP1 SWAP2 SUB SWAP1 REVERT JUMPDEST POP POP POP POP JUMP JUMPDEST PUSH1 0x60 PUSH1 0x0 DUP3 SUB PUSH2 0x2BE9 JUMPI PUSH1 0x40 MLOAD DUP1 PUSH1 0x40 ADD PUSH1 0x40 MSTORE DUP1 PUSH1 0x1 DUP2 MSTORE PUSH1 0x20 ADD PUSH32 0x3000000000000000000000000000000000000000000000000000000000000000 DUP2 MSTORE POP SWAP1 POP PUSH2 0x2CFD JUMP JUMPDEST PUSH1 0x0 DUP3 SWAP1 POP PUSH1 0x0 JUMPDEST PUSH1 0x0 DUP3 EQ PUSH2 0x2C1B JUMPI DUP1 DUP1 PUSH2 0x2C04 SWAP1 PUSH2 0x466C JUMP JUMPDEST SWAP2 POP POP PUSH1 0xA DUP3 PUSH2 0x2C14 SWAP2 SWAP1 PUSH2 0x5068 JUMP JUMPDEST SWAP2 POP PUSH2 0x2BF1 JUMP JUMPDEST PUSH1 0x0 DUP2 PUSH8 0xFFFFFFFFFFFFFFFF DUP2 GT ISZERO PUSH2 0x2C37 JUMPI PUSH2 0x2C36 PUSH2 0x3BA9 JUMP JUMPDEST JUMPDEST PUSH1 0x40 MLOAD SWAP1 DUP1 DUP3 MSTORE DUP1 PUSH1 0x1F ADD PUSH1 0x1F NOT AND PUSH1 0x20 ADD DUP3 ADD PUSH1 0x40 MSTORE DUP1 ISZERO PUSH2 0x2C69 JUMPI DUP2 PUSH1 0x20 ADD PUSH1 0x1 DUP3 MUL DUP1 CALLDATASIZE DUP4 CALLDATACOPY DUP1 DUP3 ADD SWAP2 POP POP SWAP1 POP JUMPDEST POP SWAP1 POP JUMPDEST PUSH1 0x0 DUP6 EQ PUSH2 0x2CF6 JUMPI PUSH1 0x1 DUP3 PUSH2 0x2C82 SWAP2 SWAP1 PUSH2 0x4EE1 JUMP JUMPDEST SWAP2 POP PUSH1 0xA DUP6 PUSH2 0x2C91 SWAP2 SWAP1 PUSH2 0x5099 JUMP JUMPDEST PUSH1 0x30 PUSH2 0x2C9D SWAP2 SWAP1 PUSH2 0x43DA JUMP JUMPDEST PUSH1 0xF8 SHL DUP2 DUP4 DUP2 MLOAD DUP2 LT PUSH2 0x2CB3 JUMPI PUSH2 0x2CB2 PUSH2 0x46B4 JUMP JUMPDEST JUMPDEST PUSH1 0x20 ADD ADD SWAP1 PUSH31 0xFFFFFFFFFFFFFFFFFFFFFFFFFFFFFFFFFFFFFFFFFFFFFFFFFFFFFFFFFFFFFF NOT AND SWAP1 DUP2 PUSH1 0x0 BYTE SWAP1 MSTORE8 POP PUSH1 0xA DUP6 PUSH2 0x2CEF SWAP2 SWAP1 PUSH2 0x5068 JUMP JUMPDEST SWAP5 POP PUSH2 0x2C6D JUMP JUMPDEST DUP1 SWAP4 POP POP POP POP JUMPDEST SWAP2 SWAP1 POP JUMP JUMPDEST PUSH1 0x0 PUSH32 0x1FFC9A700000000000000000000000000000000000000000000000000000000 PUSH28 0xFFFFFFFFFFFFFFFFFFFFFFFFFFFFFFFFFFFFFFFFFFFFFFFFFFFFFFFF NOT AND DUP3 PUSH28 0xFFFFFFFFFFFFFFFFFFFFFFFFFFFFFFFFFFFFFFFFFFFFFFFFFFFFFFFF NOT AND EQ SWAP1 POP SWAP2 SWAP1 POP JUMP JUMPDEST PUSH2 0x2D77 DUP4 DUP4 DUP4 PUSH2 0x319E JUMP JUMPDEST PUSH1 0x0 PUSH20 0xFFFFFFFFFFFFFFFFFFFFFFFFFFFFFFFFFFFFFFFF AND DUP4 PUSH20 0xFFFFFFFFFFFFFFFFFFFFFFFFFFFFFFFFFFFFFFFF AND SUB PUSH2 0x2DB9 JUMPI PUSH2 0x2DB4 DUP2 PUSH2 0x31A3 JUMP JUMPDEST PUSH2 0x2DF8 JUMP JUMPDEST DUP2 PUSH20 0xFFFFFFFFFFFFFFFFFFFFFFFFFFFFFFFFFFFFFFFF AND DUP4 PUSH20 0xFFFFFFFFFFFFFFFFFFFFFFFFFFFFFFFFFFFFFFFF AND EQ PUSH2 0x2DF7 JUMPI PUSH2 0x2DF6 DUP4 DUP3 PUSH2 0x31EC JUMP JUMPDEST JUMPDEST JUMPDEST PUSH1 0x0 PUSH20 0xFFFFFFFFFFFFFFFFFFFFFFFFFFFFFFFFFFFFFFFF AND DUP3 PUSH20 0xFFFFFFFFFFFFFFFFFFFFFFFFFFFFFFFFFFFFFFFF AND SUB PUSH2 0x2E3A JUMPI PUSH2 0x2E35 DUP2 PUSH2 0x3359 JUMP JUMPDEST PUSH2 0x2E79 JUMP JUMPDEST DUP3 PUSH20 0xFFFFFFFFFFFFFFFFFFFFFFFFFFFFFFFFFFFFFFFF AND DUP3 PUSH20 0xFFFFFFFFFFFFFFFFFFFFFFFFFFFFFFFFFFFFFFFF AND EQ PUSH2 0x2E78 JUMPI PUSH2 0x2E77 DUP3 DUP3 PUSH2 0x342A JUMP JUMPDEST JUMPDEST JUMPDEST POP POP POP JUMP JUMPDEST POP POP POP JUMP JUMPDEST PUSH2 0x2E8D DUP4 DUP4 PUSH2 0x34A9 JUMP JUMPDEST PUSH2 0x2E9A PUSH1 0x0 DUP5 DUP5 DUP5 PUSH2 0x2EF2 JUMP JUMPDEST DUP1 PUSH2 0x2EAE JUMPI POP PUSH2 0x2EAD PUSH1 0x0 DUP5 DUP5 DUP5 PUSH2 0x3048 JUMP JUMPDEST JUMPDEST PUSH2 0x2EED JUMPI PUSH1 0x40 MLOAD PUSH32 0x8C379A000000000000000000000000000000000000000000000000000000000 DUP2 MSTORE PUSH1 0x4 ADD PUSH2 0x2EE4 SWAP1 PUSH2 0x5019 JUMP JUMPDEST PUSH1 0x40 MLOAD DUP1 SWAP2 SUB SWAP1 REVERT JUMPDEST POP POP POP JUMP JUMPDEST PUSH1 0x0 PUSH2 0x2F13 DUP5 PUSH20 0xFFFFFFFFFFFFFFFFFFFFFFFFFFFFFFFFFFFFFFFF AND PUSH2 0x3682 JUMP JUMPDEST ISZERO PUSH2 0x303B JUMPI DUP4 PUSH20 0xFFFFFFFFFFFFFFFFFFFFFFFFFFFFFFFFFFFFFFFF AND PUSH4 0x6745782B PUSH2 0x2F3C PUSH2 0x2472 JUMP JUMPDEST DUP8 DUP7 DUP7 PUSH1 0x40 MLOAD DUP6 PUSH4 0xFFFFFFFF AND PUSH1 0xE0 SHL DUP2 MSTORE PUSH1 0x4 ADD PUSH2 0x2F5E SWAP5 SWAP4 SWAP3 SWAP2 SWAP1 PUSH2 0x511F JUMP JUMPDEST PUSH1 0x20 PUSH1 0x40 MLOAD DUP1 DUP4 SUB DUP2 PUSH1 0x0 DUP8 GAS CALL SWAP3 POP POP POP DUP1 ISZERO PUSH2 0x2F9A JUMPI POP PUSH1 0x40 MLOAD RETURNDATASIZE PUSH1 0x1F NOT PUSH1 0x1F DUP3 ADD AND DUP3 ADD DUP1 PUSH1 0x40 MSTORE POP DUP2 ADD SWAP1 PUSH2 0x2F97 SWAP2 SWAP1 PUSH2 0x5180 JUMP JUMPDEST PUSH1 0x1 JUMPDEST PUSH2 0x2FEB JUMPI RETURNDATASIZE DUP1 PUSH1 0x0 DUP2 EQ PUSH2 0x2FCA JUMPI PUSH1 0x40 MLOAD SWAP2 POP PUSH1 0x1F NOT PUSH1 0x3F RETURNDATASIZE ADD AND DUP3 ADD PUSH1 0x40 MSTORE RETURNDATASIZE DUP3 MSTORE RETURNDATASIZE PUSH1 0x0 PUSH1 0x20 DUP5 ADD RETURNDATACOPY PUSH2 0x2FCF JUMP JUMPDEST PUSH1 0x60 SWAP2 POP JUMPDEST POP PUSH1 0x0 DUP2 MLOAD SUB PUSH2 0x2FE3 JUMPI PUSH1 0x0 SWAP2 POP POP PUSH2 0x3040 JUMP JUMPDEST DUP1 MLOAD DUP2 PUSH1 0x20 ADD REVERT JUMPDEST PUSH4 0x6745782B PUSH1 0xE0 SHL PUSH28 0xFFFFFFFFFFFFFFFFFFFFFFFFFFFFFFFFFFFFFFFFFFFFFFFFFFFFFFFF NOT AND DUP2 PUSH28 0xFFFFFFFFFFFFFFFFFFFFFFFFFFFFFFFFFFFFFFFFFFFFFFFFFFFFFFFF NOT AND EQ SWAP2 POP POP PUSH2 0x3040 JUMP JUMPDEST PUSH1 0x1 SWAP1 POP JUMPDEST SWAP5 SWAP4 POP POP POP POP JUMP JUMPDEST PUSH1 0x0 PUSH2 0x3069 DUP5 PUSH20 0xFFFFFFFFFFFFFFFFFFFFFFFFFFFFFFFFFFFFFFFF AND PUSH2 0x3682 JUMP JUMPDEST ISZERO PUSH2 0x3191 JUMPI DUP4 PUSH20 0xFFFFFFFFFFFFFFFFFFFFFFFFFFFFFFFFFFFFFFFF AND PUSH4 0x150B7A02 PUSH2 0x3092 PUSH2 0x2472 JUMP JUMPDEST DUP8 DUP7 DUP7 PUSH1 0x40 MLOAD DUP6 PUSH4 0xFFFFFFFF AND PUSH1 0xE0 SHL DUP2 MSTORE PUSH1 0x4 ADD PUSH2 0x30B4 SWAP5 SWAP4 SWAP3 SWAP2 SWAP1 PUSH2 0x511F JUMP JUMPDEST PUSH1 0x20 PUSH1 0x40 MLOAD DUP1 DUP4 SUB DUP2 PUSH1 0x0 DUP8 GAS CALL SWAP3 POP POP POP DUP1 ISZERO PUSH2 0x30F0 JUMPI POP PUSH1 0x40 MLOAD RETURNDATASIZE PUSH1 0x1F NOT PUSH1 0x1F DUP3 ADD AND DUP3 ADD DUP1 PUSH1 0x40 MSTORE POP DUP2 ADD SWAP1 PUSH2 0x30ED SWAP2 SWAP1 PUSH2 0x5180 JUMP JUMPDEST PUSH1 0x1 JUMPDEST PUSH2 0x3141 JUMPI RETURNDATASIZE DUP1 PUSH1 0x0 DUP2 EQ PUSH2 0x3120 JUMPI PUSH1 0x40 MLOAD SWAP2 POP PUSH1 0x1F NOT PUSH1 0x3F RETURNDATASIZE ADD AND DUP3 ADD PUSH1 0x40 MSTORE RETURNDATASIZE DUP3 MSTORE RETURNDATASIZE PUSH1 0x0 PUSH1 0x20 DUP5 ADD RETURNDATACOPY PUSH2 0x3125 JUMP JUMPDEST PUSH1 0x60 SWAP2 POP JUMPDEST POP PUSH1 0x0 DUP2 MLOAD SUB PUSH2 0x3139 JUMPI PUSH1 0x0 SWAP2 POP POP PUSH2 0x3196 JUMP JUMPDEST DUP1 MLOAD DUP2 PUSH1 0x20 ADD REVERT JUMPDEST PUSH4 0x150B7A02 PUSH1 0xE0 SHL PUSH28 0xFFFFFFFFFFFFFFFFFFFFFFFFFFFFFFFFFFFFFFFFFFFFFFFFFFFFFFFF NOT AND DUP2 PUSH28 0xFFFFFFFFFFFFFFFFFFFFFFFFFFFFFFFFFFFFFFFFFFFFFFFFFFFFFFFF NOT AND EQ SWAP2 POP POP PUSH2 0x3196 JUMP JUMPDEST PUSH1 0x1 SWAP1 POP JUMPDEST SWAP5 SWAP4 POP POP POP POP JUMP JUMPDEST POP POP POP JUMP JUMPDEST PUSH1 0x8 DUP1 SLOAD SWAP1 POP PUSH1 0x9 PUSH1 0x0 DUP4 DUP2 MSTORE PUSH1 0x20 ADD SWAP1 DUP2 MSTORE PUSH1 0x20 ADD PUSH1 0x0 KECCAK256 DUP2 SWAP1 SSTORE POP PUSH1 0x8 DUP2 SWAP1 DUP1 PUSH1 0x1 DUP2 SLOAD ADD DUP1 DUP3 SSTORE DUP1 SWAP2 POP POP PUSH1 0x1 SWAP1 SUB SWAP1 PUSH1 0x0 MSTORE PUSH1 0x20 PUSH1 0x0 KECCAK256 ADD PUSH1 0x0 SWAP1 SWAP2 SWAP1 SWAP2 SWAP1 SWAP2 POP SSTORE POP JUMP JUMPDEST PUSH1 0x0 PUSH1 0x1 PUSH2 0x31F9 DUP5 PUSH2 0x1964 JUMP JUMPDEST PUSH2 0x3203 SWAP2 SWAP1 PUSH2 0x4EE1 JUMP JUMPDEST SWAP1 POP PUSH1 0x0 PUSH1 0x7 PUSH1 0x0 DUP5 DUP2 MSTORE PUSH1 0x20 ADD SWAP1 DUP2 MSTORE PUSH1 0x20 ADD PUSH1 0x0 KECCAK256 SLOAD SWAP1 POP DUP2 DUP2 EQ PUSH2 0x32E8 JUMPI PUSH1 0x0 PUSH1 0x6 PUSH1 0x0 DUP7 PUSH20 0xFFFFFFFFFFFFFFFFFFFFFFFFFFFFFFFFFFFFFFFF AND PUSH20 0xFFFFFFFFFFFFFFFFFFFFFFFFFFFFFFFFFFFFFFFF AND DUP2 MSTORE PUSH1 0x20 ADD SWAP1 DUP2 MSTORE PUSH1 0x20 ADD PUSH1 0x0 KECCAK256 PUSH1 0x0 DUP5 DUP2 MSTORE PUSH1 0x20 ADD SWAP1 DUP2 MSTORE PUSH1 0x20 ADD PUSH1 0x0 KECCAK256 SLOAD SWAP1 POP DUP1 PUSH1 0x6 PUSH1 0x0 DUP8 PUSH20 0xFFFFFFFFFFFFFFFFFFFFFFFFFFFFFFFFFFFFFFFF AND PUSH20 0xFFFFFFFFFFFFFFFFFFFFFFFFFFFFFFFFFFFFFFFF AND DUP2 MSTORE PUSH1 0x20 ADD SWAP1 DUP2 MSTORE PUSH1 0x20 ADD PUSH1 0x0 KECCAK256 PUSH1 0x0 DUP5 DUP2 MSTORE PUSH1 0x20 ADD SWAP1 DUP2 MSTORE PUSH1 0x20 ADD PUSH1 0x0 KECCAK256 DUP2 SWAP1 SSTORE POP DUP2 PUSH1 0x7 PUSH1 0x0 DUP4 DUP2 MSTORE PUSH1 0x20 ADD SWAP1 DUP2 MSTORE PUSH1 0x20 ADD PUSH1 0x0 KECCAK256 DUP2 SWAP1 SSTORE POP POP JUMPDEST PUSH1 0x7 PUSH1 0x0 DUP5 DUP2 MSTORE PUSH1 0x20 ADD SWAP1 DUP2 MSTORE PUSH1 0x20 ADD PUSH1 0x0 KECCAK256 PUSH1 0x0 SWAP1 SSTORE PUSH1 0x6 PUSH1 0x0 DUP6 PUSH20 0xFFFFFFFFFFFFFFFFFFFFFFFFFFFFFFFFFFFFFFFF AND PUSH20 0xFFFFFFFFFFFFFFFFFFFFFFFFFFFFFFFFFFFFFFFF AND DUP2 MSTORE PUSH1 0x20 ADD SWAP1 DUP2 MSTORE PUSH1 0x20 ADD PUSH1 0x0 KECCAK256 PUSH1 0x0 DUP4 DUP2 MSTORE PUSH1 0x20 ADD SWAP1 DUP2 MSTORE PUSH1 0x20 ADD PUSH1 0x0 KECCAK256 PUSH1 0x0 SWAP1 SSTORE POP POP POP POP JUMP JUMPDEST PUSH1 0x0 PUSH1 0x1 PUSH1 0x8 DUP1 SLOAD SWAP1 POP PUSH2 0x336D SWAP2 SWAP1 PUSH2 0x4EE1 JUMP JUMPDEST SWAP1 POP PUSH1 0x0 PUSH1 0x9 PUSH1 0x0 DUP5 DUP2 MSTORE PUSH1 0x20 ADD SWAP1 DUP2 MSTORE PUSH1 0x20 ADD PUSH1 0x0 KECCAK256 SLOAD SWAP1 POP PUSH1 0x0 PUSH1 0x8 DUP4 DUP2 SLOAD DUP2 LT PUSH2 0x339D JUMPI PUSH2 0x339C PUSH2 0x46B4 JUMP JUMPDEST JUMPDEST SWAP1 PUSH1 0x0 MSTORE PUSH1 0x20 PUSH1 0x0 KECCAK256 ADD SLOAD SWAP1 POP DUP1 PUSH1 0x8 DUP4 DUP2 SLOAD DUP2 LT PUSH2 0x33BF JUMPI PUSH2 0x33BE PUSH2 0x46B4 JUMP JUMPDEST JUMPDEST SWAP1 PUSH1 0x0 MSTORE PUSH1 0x20 PUSH1 0x0 KECCAK256 ADD DUP2 SWAP1 SSTORE POP DUP2 PUSH1 0x9 PUSH1 0x0 DUP4 DUP2 MSTORE PUSH1 0x20 ADD SWAP1 DUP2 MSTORE PUSH1 0x20 ADD PUSH1 0x0 KECCAK256 DUP2 SWAP1 SSTORE POP PUSH1 0x9 PUSH1 0x0 DUP6 DUP2 MSTORE PUSH1 0x20 ADD SWAP1 DUP2 MSTORE PUSH1 0x20 ADD PUSH1 0x0 KECCAK256 PUSH1 0x0 SWAP1 SSTORE PUSH1 0x8 DUP1 SLOAD DUP1 PUSH2 0x340E JUMPI PUSH2 0x340D PUSH2 0x51AD JUMP JUMPDEST JUMPDEST PUSH1 0x1 SWAP1 SUB DUP2 DUP2 SWAP1 PUSH1 0x0 MSTORE PUSH1 0x20 PUSH1 0x0 KECCAK256 ADD PUSH1 0x0 SWAP1 SSTORE SWAP1 SSTORE POP POP POP POP JUMP JUMPDEST PUSH1 0x0 PUSH2 0x3435 DUP4 PUSH2 0x1964 JUMP JUMPDEST SWAP1 POP DUP2 PUSH1 0x6 PUSH1 0x0 DUP6 PUSH20 0xFFFFFFFFFFFFFFFFFFFFFFFFFFFFFFFFFFFFFFFF AND PUSH20 0xFFFFFFFFFFFFFFFFFFFFFFFFFFFFFFFFFFFFFFFF AND DUP2 MSTORE PUSH1 0x20 ADD SWAP1 DUP2 MSTORE PUSH1 0x20 ADD PUSH1 0x0 KECCAK256 PUSH1 0x0 DUP4 DUP2 MSTORE PUSH1 0x20 ADD SWAP1 DUP2 MSTORE PUSH1 0x20 ADD PUSH1 0x0 KECCAK256 DUP2 SWAP1 SSTORE POP DUP1 PUSH1 0x7 PUSH1 0x0 DUP5 DUP2 MSTORE PUSH1 0x20 ADD SWAP1 DUP2 MSTORE PUSH1 0x20 ADD PUSH1 0x0 KECCAK256 DUP2 SWAP1 SSTORE POP POP POP POP JUMP JUMPDEST PUSH1 0x0 PUSH20 0xFFFFFFFFFFFFFFFFFFFFFFFFFFFFFFFFFFFFFFFF AND DUP3 PUSH20 0xFFFFFFFFFFFFFFFFFFFFFFFFFFFFFFFFFFFFFFFF AND SUB PUSH2 0x3518 JUMPI PUSH1 0x40 MLOAD PUSH32 0x8C379A000000000000000000000000000000000000000000000000000000000 DUP2 MSTORE PUSH1 0x4 ADD PUSH2 0x350F SWAP1 PUSH2 0x5228 JUMP JUMPDEST PUSH1 0x40 MLOAD DUP1 SWAP2 SUB SWAP1 REVERT JUMPDEST PUSH2 0x3521 DUP2 PUSH2 0x247A JUMP JUMPDEST ISZERO PUSH2 0x3561 JUMPI PUSH1 0x40 MLOAD PUSH32 0x8C379A000000000000000000000000000000000000000000000000000000000 DUP2 MSTORE PUSH1 0x4 ADD PUSH2 0x3558 SWAP1 PUSH2 0x5294 JUMP JUMPDEST PUSH1 0x40 MLOAD DUP1 SWAP2 SUB SWAP1 REVERT JUMPDEST PUSH2 0x356D PUSH1 0x0 DUP4 DUP4 PUSH2 0x2D6C JUMP JUMPDEST PUSH1 0x1 PUSH1 0x3 PUSH1 0x0 DUP5 PUSH20 0xFFFFFFFFFFFFFFFFFFFFFFFFFFFFFFFFFFFFFFFF AND PUSH20 0xFFFFFFFFFFFFFFFFFFFFFFFFFFFFFFFFFFFFFFFF AND DUP2 MSTORE PUSH1 0x20 ADD SWAP1 DUP2 MSTORE PUSH1 0x20 ADD PUSH1 0x0 KECCAK256 PUSH1 0x0 DUP3 DUP3 SLOAD PUSH2 0x35BD SWAP2 SWAP1 PUSH2 0x43DA JUMP JUMPDEST SWAP3 POP POP DUP2 SWAP1 SSTORE POP DUP2 PUSH1 0x2 PUSH1 0x0 DUP4 DUP2 MSTORE PUSH1 0x20 ADD SWAP1 DUP2 MSTORE PUSH1 0x20 ADD PUSH1 0x0 KECCAK256 PUSH1 0x0 PUSH2 0x100 EXP DUP2 SLOAD DUP2 PUSH20 0xFFFFFFFFFFFFFFFFFFFFFFFFFFFFFFFFFFFFFFFF MUL NOT AND SWAP1 DUP4 PUSH20 0xFFFFFFFFFFFFFFFFFFFFFFFFFFFFFFFFFFFFFFFF AND MUL OR SWAP1 SSTORE POP DUP1 DUP3 PUSH20 0xFFFFFFFFFFFFFFFFFFFFFFFFFFFFFFFFFFFFFFFF AND PUSH1 0x0 PUSH20 0xFFFFFFFFFFFFFFFFFFFFFFFFFFFFFFFFFFFFFFFF AND PUSH32 0xDDF252AD1BE2C89B69C2B068FC378DAA952BA7F163C4A11628F55A4DF523B3EF PUSH1 0x40 MLOAD PUSH1 0x40 MLOAD DUP1 SWAP2 SUB SWAP1 LOG4 PUSH2 0x367E PUSH1 0x0 DUP4 DUP4 PUSH2 0x2E7E JUMP JUMPDEST POP POP JUMP JUMPDEST PUSH1 0x0 DUP1 DUP3 PUSH20 0xFFFFFFFFFFFFFFFFFFFFFFFFFFFFFFFFFFFFFFFF AND EXTCODESIZE GT SWAP1 POP SWAP2 SWAP1 POP JUMP JUMPDEST PUSH1 0x0 PUSH1 0x40 MLOAD SWAP1 POP SWAP1 JUMP JUMPDEST PUSH1 0x0 DUP1 REVERT JUMPDEST PUSH1 0x0 DUP1 REVERT JUMPDEST PUSH1 0x0 PUSH32 0xFFFFFFFF00000000000000000000000000000000000000000000000000000000 DUP3 AND SWAP1 POP SWAP2 SWAP1 POP JUMP JUMPDEST PUSH2 0x36EE DUP2 PUSH2 0x36B9 JUMP JUMPDEST DUP2 EQ PUSH2 0x36F9 JUMPI PUSH1 0x0 DUP1 REVERT JUMPDEST POP JUMP JUMPDEST PUSH1 0x0 DUP2 CALLDATALOAD SWAP1 POP PUSH2 0x370B DUP2 PUSH2 0x36E5 JUMP JUMPDEST SWAP3 SWAP2 POP POP JUMP JUMPDEST PUSH1 0x0 PUSH1 0x20 DUP3 DUP5 SUB SLT ISZERO PUSH2 0x3727 JUMPI PUSH2 0x3726 PUSH2 0x36AF JUMP JUMPDEST JUMPDEST PUSH1 0x0 PUSH2 0x3735 DUP5 DUP3 DUP6 ADD PUSH2 0x36FC JUMP JUMPDEST SWAP2 POP POP SWAP3 SWAP2 POP POP JUMP JUMPDEST PUSH1 0x0 DUP2 ISZERO ISZERO SWAP1 POP SWAP2 SWAP1 POP JUMP JUMPDEST PUSH2 0x3753 DUP2 PUSH2 0x373E JUMP JUMPDEST DUP3 MSTORE POP POP JUMP JUMPDEST PUSH1 0x0 PUSH1 0x20 DUP3 ADD SWAP1 POP PUSH2 0x376E PUSH1 0x0 DUP4 ADD DUP5 PUSH2 0x374A JUMP JUMPDEST SWAP3 SWAP2 POP POP JUMP JUMPDEST PUSH2 0x377D DUP2 PUSH2 0x373E JUMP JUMPDEST DUP2 EQ PUSH2 0x3788 JUMPI PUSH1 0x0 DUP1 REVERT JUMPDEST POP JUMP JUMPDEST PUSH1 0x0 DUP2 CALLDATALOAD SWAP1 POP PUSH2 0x379A DUP2 PUSH2 0x3774 JUMP JUMPDEST SWAP3 SWAP2 POP POP JUMP JUMPDEST PUSH1 0x0 PUSH1 0x20 DUP3 DUP5 SUB SLT ISZERO PUSH2 0x37B6 JUMPI PUSH2 0x37B5 PUSH2 0x36AF JUMP JUMPDEST JUMPDEST PUSH1 0x0 PUSH2 0x37C4 DUP5 DUP3 DUP6 ADD PUSH2 0x378B JUMP JUMPDEST SWAP2 POP POP SWAP3 SWAP2 POP POP JUMP JUMPDEST PUSH1 0x0 DUP2 MLOAD SWAP1 POP SWAP2 SWAP1 POP JUMP JUMPDEST PUSH1 0x0 DUP3 DUP3 MSTORE PUSH1 0x20 DUP3 ADD SWAP1 POP SWAP3 SWAP2 POP POP JUMP JUMPDEST PUSH1 0x0 JUMPDEST DUP4 DUP2 LT ISZERO PUSH2 0x3807 JUMPI DUP1 DUP3 ADD MLOAD DUP2 DUP5 ADD MSTORE PUSH1 0x20 DUP2 ADD SWAP1 POP PUSH2 0x37EC JUMP JUMPDEST PUSH1 0x0 DUP5 DUP5 ADD MSTORE POP POP POP POP JUMP JUMPDEST PUSH1 0x0 PUSH1 0x1F NOT PUSH1 0x1F DUP4 ADD AND SWAP1 POP SWAP2 SWAP1 POP JUMP JUMPDEST PUSH1 0x0 PUSH2 0x382F DUP3 PUSH2 0x37CD JUMP JUMPDEST PUSH2 0x3839 DUP2 DUP6 PUSH2 0x37D8 JUMP JUMPDEST SWAP4 POP PUSH2 0x3849 DUP2 DUP6 PUSH1 0x20 DUP7 ADD PUSH2 0x37E9 JUMP JUMPDEST PUSH2 0x3852 DUP2 PUSH2 0x3813 JUMP JUMPDEST DUP5 ADD SWAP2 POP POP SWAP3 SWAP2 POP POP JUMP JUMPDEST PUSH1 0x0 PUSH1 0x20 DUP3 ADD SWAP1 POP DUP2 DUP2 SUB PUSH1 0x0 DUP4 ADD MSTORE PUSH2 0x3877 DUP2 DUP5 PUSH2 0x3824 JUMP JUMPDEST SWAP1 POP SWAP3 SWAP2 POP POP JUMP JUMPDEST PUSH1 0x0 DUP2 SWAP1 POP SWAP2 SWAP1 POP JUMP JUMPDEST PUSH2 0x3892 DUP2 PUSH2 0x387F JUMP JUMPDEST DUP2 EQ PUSH2 0x389D JUMPI PUSH1 0x0 DUP1 REVERT JUMPDEST POP JUMP JUMPDEST PUSH1 0x0 DUP2 CALLDATALOAD SWAP1 POP PUSH2 0x38AF DUP2 PUSH2 0x3889 JUMP JUMPDEST SWAP3 SWAP2 POP POP JUMP JUMPDEST PUSH1 0x0 PUSH1 0x20 DUP3 DUP5 SUB SLT ISZERO PUSH2 0x38CB JUMPI PUSH2 0x38CA PUSH2 0x36AF JUMP JUMPDEST JUMPDEST PUSH1 0x0 PUSH2 0x38D9 DUP5 DUP3 DUP6 ADD PUSH2 0x38A0 JUMP JUMPDEST SWAP2 POP POP SWAP3 SWAP2 POP POP JUMP JUMPDEST PUSH1 0x0 PUSH20 0xFFFFFFFFFFFFFFFFFFFFFFFFFFFFFFFFFFFFFFFF DUP3 AND SWAP1 POP SWAP2 SWAP1 POP JUMP JUMPDEST PUSH1 0x0 PUSH2 0x390D DUP3 PUSH2 0x38E2 JUMP JUMPDEST SWAP1 POP SWAP2 SWAP1 POP JUMP JUMPDEST PUSH2 0x391D DUP2 PUSH2 0x3902 JUMP JUMPDEST DUP3 MSTORE POP POP JUMP JUMPDEST PUSH1 0x0 PUSH1 0x20 DUP3 ADD SWAP1 POP PUSH2 0x3938 PUSH1 0x0 DUP4 ADD DUP5 PUSH2 0x3914 JUMP JUMPDEST SWAP3 SWAP2 POP POP JUMP JUMPDEST PUSH2 0x3947 DUP2 PUSH2 0x3902 JUMP JUMPDEST DUP2 EQ PUSH2 0x3952 JUMPI PUSH1 0x0 DUP1 REVERT JUMPDEST POP JUMP JUMPDEST PUSH1 0x0 DUP2 CALLDATALOAD SWAP1 POP PUSH2 0x3964 DUP2 PUSH2 0x393E JUMP JUMPDEST SWAP3 SWAP2 POP POP JUMP JUMPDEST PUSH1 0x0 DUP1 PUSH1 0x40 DUP4 DUP6 SUB SLT ISZERO PUSH2 0x3981 JUMPI PUSH2 0x3980 PUSH2 0x36AF JUMP JUMPDEST JUMPDEST PUSH1 0x0 PUSH2 0x398F DUP6 DUP3 DUP7 ADD PUSH2 0x3955 JUMP JUMPDEST SWAP3 POP POP PUSH1 0x20 PUSH2 0x39A0 DUP6 DUP3 DUP7 ADD PUSH2 0x38A0 JUMP JUMPDEST SWAP2 POP POP SWAP3 POP SWAP3 SWAP1 POP JUMP JUMPDEST PUSH2 0x39B3 DUP2 PUSH2 0x387F JUMP JUMPDEST DUP3 MSTORE POP POP JUMP JUMPDEST PUSH1 0x0 PUSH1 0x20 DUP3 ADD SWAP1 POP PUSH2 0x39CE PUSH1 0x0 DUP4 ADD DUP5 PUSH2 0x39AA JUMP JUMPDEST SWAP3 SWAP2 POP POP JUMP JUMPDEST PUSH1 0x0 PUSH1 0x20 DUP3 DUP5 SUB SLT ISZERO PUSH2 0x39EA JUMPI PUSH2 0x39E9 PUSH2 0x36AF JUMP JUMPDEST JUMPDEST PUSH1 0x0 PUSH2 0x39F8 DUP5 DUP3 DUP6 ADD PUSH2 0x3955 JUMP JUMPDEST SWAP2 POP POP SWAP3 SWAP2 POP POP JUMP JUMPDEST PUSH1 0x0 DUP1 PUSH1 0x0 PUSH1 0x60 DUP5 DUP7 SUB SLT ISZERO PUSH2 0x3A1A JUMPI PUSH2 0x3A19 PUSH2 0x36AF JUMP JUMPDEST JUMPDEST PUSH1 0x0 PUSH2 0x3A28 DUP7 DUP3 DUP8 ADD PUSH2 0x3955 JUMP JUMPDEST SWAP4 POP POP PUSH1 0x20 PUSH2 0x3A39 DUP7 DUP3 DUP8 ADD PUSH2 0x3955 JUMP JUMPDEST SWAP3 POP POP PUSH1 0x40 PUSH2 0x3A4A DUP7 DUP3 DUP8 ADD PUSH2 0x38A0 JUMP JUMPDEST SWAP2 POP POP SWAP3 POP SWAP3 POP SWAP3 JUMP JUMPDEST PUSH1 0x0 DUP2 MLOAD SWAP1 POP SWAP2 SWAP1 POP JUMP JUMPDEST PUSH1 0x0 DUP3 DUP3 MSTORE PUSH1 0x20 DUP3 ADD SWAP1 POP SWAP3 SWAP2 POP POP JUMP JUMPDEST PUSH1 0x0 DUP2 SWAP1 POP PUSH1 0x20 DUP3 ADD SWAP1 POP SWAP2 SWAP1 POP JUMP JUMPDEST PUSH2 0x3A89 DUP2 PUSH2 0x387F JUMP JUMPDEST DUP3 MSTORE POP POP JUMP JUMPDEST PUSH1 0x0 PUSH2 0x3A9B DUP4 DUP4 PUSH2 0x3A80 JUMP JUMPDEST PUSH1 0x20 DUP4 ADD SWAP1 POP SWAP3 SWAP2 POP POP JUMP JUMPDEST PUSH1 0x0 PUSH1 0x20 DUP3 ADD SWAP1 POP SWAP2 SWAP1 POP JUMP JUMPDEST PUSH1 0x0 PUSH2 0x3ABF DUP3 PUSH2 0x3A54 JUMP JUMPDEST PUSH2 0x3AC9 DUP2 DUP6 PUSH2 0x3A5F JUMP JUMPDEST SWAP4 POP PUSH2 0x3AD4 DUP4 PUSH2 0x3A70 JUMP JUMPDEST DUP1 PUSH1 0x0 JUMPDEST DUP4 DUP2 LT ISZERO PUSH2 0x3B05 JUMPI DUP2 MLOAD PUSH2 0x3AEC DUP9 DUP3 PUSH2 0x3A8F JUMP JUMPDEST SWAP8 POP PUSH2 0x3AF7 DUP4 PUSH2 0x3AA7 JUMP JUMPDEST SWAP3 POP POP PUSH1 0x1 DUP2 ADD SWAP1 POP PUSH2 0x3AD8 JUMP JUMPDEST POP DUP6 SWAP4 POP POP POP POP SWAP3 SWAP2 POP POP JUMP JUMPDEST PUSH1 0x0 PUSH1 0x20 DUP3 ADD SWAP1 POP DUP2 DUP2 SUB PUSH1 0x0 DUP4 ADD MSTORE PUSH2 0x3B2C DUP2 DUP5 PUSH2 0x3AB4 JUMP JUMPDEST SWAP1 POP SWAP3 SWAP2 POP POP JUMP JUMPDEST PUSH1 0x0 PUSH2 0x3B3F DUP3 PUSH2 0x38E2 JUMP JUMPDEST SWAP1 POP SWAP2 SWAP1 POP JUMP JUMPDEST PUSH2 0x3B4F DUP2 PUSH2 0x3B34 JUMP JUMPDEST DUP2 EQ PUSH2 0x3B5A JUMPI PUSH1 0x0 DUP1 REVERT JUMPDEST POP JUMP JUMPDEST PUSH1 0x0 DUP2 CALLDATALOAD SWAP1 POP PUSH2 0x3B6C DUP2 PUSH2 0x3B46 JUMP JUMPDEST SWAP3 SWAP2 POP POP JUMP JUMPDEST PUSH1 0x0 PUSH1 0x20 DUP3 DUP5 SUB SLT ISZERO PUSH2 0x3B88 JUMPI PUSH2 0x3B87 PUSH2 0x36AF JUMP JUMPDEST JUMPDEST PUSH1 0x0 PUSH2 0x3B96 DUP5 DUP3 DUP6 ADD PUSH2 0x3B5D JUMP JUMPDEST SWAP2 POP POP SWAP3 SWAP2 POP POP JUMP JUMPDEST PUSH1 0x0 DUP1 REVERT JUMPDEST PUSH1 0x0 DUP1 REVERT JUMPDEST PUSH32 0x4E487B7100000000000000000000000000000000000000000000000000000000 PUSH1 0x0 MSTORE PUSH1 0x41 PUSH1 0x4 MSTORE PUSH1 0x24 PUSH1 0x0 REVERT JUMPDEST PUSH2 0x3BE1 DUP3 PUSH2 0x3813 JUMP JUMPDEST DUP2 ADD DUP2 DUP2 LT PUSH8 0xFFFFFFFFFFFFFFFF DUP3 GT OR ISZERO PUSH2 0x3C00 JUMPI PUSH2 0x3BFF PUSH2 0x3BA9 JUMP JUMPDEST JUMPDEST DUP1 PUSH1 0x40 MSTORE POP POP POP JUMP JUMPDEST PUSH1 0x0 PUSH2 0x3C13 PUSH2 0x36A5 JUMP JUMPDEST SWAP1 POP PUSH2 0x3C1F DUP3 DUP3 PUSH2 0x3BD8 JUMP JUMPDEST SWAP2 SWAP1 POP JUMP JUMPDEST PUSH1 0x0 PUSH8 0xFFFFFFFFFFFFFFFF DUP3 GT ISZERO PUSH2 0x3C3F JUMPI PUSH2 0x3C3E PUSH2 0x3BA9 JUMP JUMPDEST JUMPDEST PUSH2 0x3C48 DUP3 PUSH2 0x3813 JUMP JUMPDEST SWAP1 POP PUSH1 0x20 DUP2 ADD SWAP1 POP SWAP2 SWAP1 POP JUMP JUMPDEST DUP3 DUP2 DUP4 CALLDATACOPY PUSH1 0x0 DUP4 DUP4 ADD MSTORE POP POP POP JUMP JUMPDEST PUSH1 0x0 PUSH2 0x3C77 PUSH2 0x3C72 DUP5 PUSH2 0x3C24 JUMP JUMPDEST PUSH2 0x3C09 JUMP JUMPDEST SWAP1 POP DUP3 DUP2 MSTORE PUSH1 0x20 DUP2 ADD DUP5 DUP5 DUP5 ADD GT ISZERO PUSH2 0x3C93 JUMPI PUSH2 0x3C92 PUSH2 0x3BA4 JUMP JUMPDEST JUMPDEST PUSH2 0x3C9E DUP5 DUP3 DUP6 PUSH2 0x3C55 JUMP JUMPDEST POP SWAP4 SWAP3 POP POP POP JUMP JUMPDEST PUSH1 0x0 DUP3 PUSH1 0x1F DUP4 ADD SLT PUSH2 0x3CBB JUMPI PUSH2 0x3CBA PUSH2 0x3B9F JUMP JUMPDEST JUMPDEST DUP2 CALLDATALOAD PUSH2 0x3CCB DUP5 DUP3 PUSH1 0x20 DUP7 ADD PUSH2 0x3C64 JUMP JUMPDEST SWAP2 POP POP SWAP3 SWAP2 POP POP JUMP JUMPDEST PUSH1 0x0 PUSH1 0x20 DUP3 DUP5 SUB SLT ISZERO PUSH2 0x3CEA JUMPI PUSH2 0x3CE9 PUSH2 0x36AF JUMP JUMPDEST JUMPDEST PUSH1 0x0 DUP3 ADD CALLDATALOAD PUSH8 0xFFFFFFFFFFFFFFFF DUP2 GT ISZERO PUSH2 0x3D08 JUMPI PUSH2 0x3D07 PUSH2 0x36B4 JUMP JUMPDEST JUMPDEST PUSH2 0x3D14 DUP5 DUP3 DUP6 ADD PUSH2 0x3CA6 JUMP JUMPDEST SWAP2 POP POP SWAP3 SWAP2 POP POP JUMP JUMPDEST PUSH1 0x0 DUP1 PUSH1 0x40 DUP4 DUP6 SUB SLT ISZERO PUSH2 0x3D34 JUMPI PUSH2 0x3D33 PUSH2 0x36AF JUMP JUMPDEST JUMPDEST PUSH1 0x0 PUSH2 0x3D42 DUP6 DUP3 DUP7 ADD PUSH2 0x3955 JUMP JUMPDEST SWAP3 POP POP PUSH1 0x20 PUSH2 0x3D53 DUP6 DUP3 DUP7 ADD PUSH2 0x378B JUMP JUMPDEST SWAP2 POP POP SWAP3 POP SWAP3 SWAP1 POP JUMP JUMPDEST PUSH1 0x0 PUSH8 0xFFFFFFFFFFFFFFFF DUP3 GT ISZERO PUSH2 0x3D78 JUMPI PUSH2 0x3D77 PUSH2 0x3BA9 JUMP JUMPDEST JUMPDEST PUSH2 0x3D81 DUP3 PUSH2 0x3813 JUMP JUMPDEST SWAP1 POP PUSH1 0x20 DUP2 ADD SWAP1 POP SWAP2 SWAP1 POP JUMP JUMPDEST PUSH1 0x0 PUSH2 0x3DA1 PUSH2 0x3D9C DUP5 PUSH2 0x3D5D JUMP JUMPDEST PUSH2 0x3C09 JUMP JUMPDEST SWAP1 POP DUP3 DUP2 MSTORE PUSH1 0x20 DUP2 ADD DUP5 DUP5 DUP5 ADD GT ISZERO PUSH2 0x3DBD JUMPI PUSH2 0x3DBC PUSH2 0x3BA4 JUMP JUMPDEST JUMPDEST PUSH2 0x3DC8 DUP5 DUP3 DUP6 PUSH2 0x3C55 JUMP JUMPDEST POP SWAP4 SWAP3 POP POP POP JUMP JUMPDEST PUSH1 0x0 DUP3 PUSH1 0x1F DUP4 ADD SLT PUSH2 0x3DE5 JUMPI PUSH2 0x3DE4 PUSH2 0x3B9F JUMP JUMPDEST JUMPDEST DUP2 CALLDATALOAD PUSH2 0x3DF5 DUP5 DUP3 PUSH1 0x20 DUP7 ADD PUSH2 0x3D8E JUMP JUMPDEST SWAP2 POP POP SWAP3 SWAP2 POP POP JUMP JUMPDEST PUSH1 0x0 DUP1 PUSH1 0x0 DUP1 PUSH1 0x80 DUP6 DUP8 SUB SLT ISZERO PUSH2 0x3E18 JUMPI PUSH2 0x3E17 PUSH2 0x36AF JUMP JUMPDEST JUMPDEST PUSH1 0x0 PUSH2 0x3E26 DUP8 DUP3 DUP9 ADD PUSH2 0x3955 JUMP JUMPDEST SWAP5 POP POP PUSH1 0x20 PUSH2 0x3E37 DUP8 DUP3 DUP9 ADD PUSH2 0x3955 JUMP JUMPDEST SWAP4 POP POP PUSH1 0x40 PUSH2 0x3E48 DUP8 DUP3 DUP9 ADD PUSH2 0x38A0 JUMP JUMPDEST SWAP3 POP POP PUSH1 0x60 DUP6 ADD CALLDATALOAD PUSH8 0xFFFFFFFFFFFFFFFF DUP2 GT ISZERO PUSH2 0x3E69 JUMPI PUSH2 0x3E68 PUSH2 0x36B4 JUMP JUMPDEST JUMPDEST PUSH2 0x3E75 DUP8 DUP3 DUP9 ADD PUSH2 0x3DD0 JUMP JUMPDEST SWAP2 POP POP SWAP3 SWAP6 SWAP2 SWAP5 POP SWAP3 POP JUMP JUMPDEST PUSH1 0x0 DUP1 PUSH1 0x40 DUP4 DUP6 SUB SLT ISZERO PUSH2 0x3E98 JUMPI PUSH2 0x3E97 PUSH2 0x36AF JUMP JUMPDEST JUMPDEST PUSH1 0x0 PUSH2 0x3EA6 DUP6 DUP3 DUP7 ADD PUSH2 0x3955 JUMP JUMPDEST SWAP3 POP POP PUSH1 0x20 PUSH2 0x3EB7 DUP6 DUP3 DUP7 ADD PUSH2 0x3955 JUMP JUMPDEST SWAP2 POP POP SWAP3 POP SWAP3 SWAP1 POP JUMP JUMPDEST PUSH32 0x4F776E61626C653A2063616C6C6572206973206E6F7420746865206F776E6572 PUSH1 0x0 DUP3 ADD MSTORE POP JUMP JUMPDEST PUSH1 0x0 PUSH2 0x3EF7 PUSH1 0x20 DUP4 PUSH2 0x37D8 JUMP JUMPDEST SWAP2 POP PUSH2 0x3F02 DUP3 PUSH2 0x3EC1 JUMP JUMPDEST PUSH1 0x20 DUP3 ADD SWAP1 POP SWAP2 SWAP1 POP JUMP JUMPDEST PUSH1 0x0 PUSH1 0x20 DUP3 ADD SWAP1 POP DUP2 DUP2 SUB PUSH1 0x0 DUP4 ADD MSTORE PUSH2 0x3F26 DUP2 PUSH2 0x3EEA JUMP JUMPDEST SWAP1 POP SWAP2 SWAP1 POP JUMP JUMPDEST PUSH32 0x4E487B7100000000000000000000000000000000000000000000000000000000 PUSH1 0x0 MSTORE PUSH1 0x22 PUSH1 0x4 MSTORE PUSH1 0x24 PUSH1 0x0 REVERT JUMPDEST PUSH1 0x0 PUSH1 0x2 DUP3 DIV SWAP1 POP PUSH1 0x1 DUP3 AND DUP1 PUSH2 0x3F74 JUMPI PUSH1 0x7F DUP3 AND SWAP2 POP JUMPDEST PUSH1 0x20 DUP3 LT DUP2 SUB PUSH2 0x3F87 JUMPI PUSH2 0x3F86 PUSH2 0x3F2D JUMP JUMPDEST JUMPDEST POP SWAP2 SWAP1 POP JUMP JUMPDEST PUSH32 0x4B495031373A20617070726F76656420717565727920666F72206E6F6E657869 PUSH1 0x0 DUP3 ADD MSTORE PUSH32 0x7374656E7420746F6B656E000000000000000000000000000000000000000000 PUSH1 0x20 DUP3 ADD MSTORE POP JUMP JUMPDEST PUSH1 0x0 PUSH2 0x3FE9 PUSH1 0x2B DUP4 PUSH2 0x37D8 JUMP JUMPDEST SWAP2 POP PUSH2 0x3FF4 DUP3 PUSH2 0x3F8D JUMP JUMPDEST PUSH1 0x40 DUP3 ADD SWAP1 POP SWAP2 SWAP1 POP JUMP JUMPDEST PUSH1 0x0 PUSH1 0x20 DUP3 ADD SWAP1 POP DUP2 DUP2 SUB PUSH1 0x0 DUP4 ADD MSTORE PUSH2 0x4018 DUP2 PUSH2 0x3FDC JUMP JUMPDEST SWAP1 POP SWAP2 SWAP1 POP JUMP JUMPDEST PUSH32 0x4B495031373A20617070726F76616C20746F2063757272656E74206F776E6572 PUSH1 0x0 DUP3 ADD MSTORE POP JUMP JUMPDEST PUSH1 0x0 PUSH2 0x4055 PUSH1 0x20 DUP4 PUSH2 0x37D8 JUMP JUMPDEST SWAP2 POP PUSH2 0x4060 DUP3 PUSH2 0x401F JUMP JUMPDEST PUSH1 0x20 DUP3 ADD SWAP1 POP SWAP2 SWAP1 POP JUMP JUMPDEST PUSH1 0x0 PUSH1 0x20 DUP3 ADD SWAP1 POP DUP2 DUP2 SUB PUSH1 0x0 DUP4 ADD MSTORE PUSH2 0x4084 DUP2 PUSH2 0x4048 JUMP JUMPDEST SWAP1 POP SWAP2 SWAP1 POP JUMP JUMPDEST PUSH32 0x4B495031373A20617070726F76652063616C6C6572206973206E6F74206F776E PUSH1 0x0 DUP3 ADD MSTORE PUSH32 0x6572206E6F7220617070726F76656420666F7220616C6C000000000000000000 PUSH1 0x20 DUP3 ADD MSTORE POP JUMP JUMPDEST PUSH1 0x0 PUSH2 0x40E7 PUSH1 0x37 DUP4 PUSH2 0x37D8 JUMP JUMPDEST SWAP2 POP PUSH2 0x40F2 DUP3 PUSH2 0x408B JUMP JUMPDEST PUSH1 0x40 DUP3 ADD SWAP1 POP SWAP2 SWAP1 POP JUMP JUMPDEST PUSH1 0x0 PUSH1 0x20 DUP3 ADD SWAP1 POP DUP2 DUP2 SUB PUSH1 0x0 DUP4 ADD MSTORE PUSH2 0x4116 DUP2 PUSH2 0x40DA JUMP JUMPDEST SWAP1 POP SWAP2 SWAP1 POP JUMP JUMPDEST PUSH32 0x4B495031373A207472616E736665722063616C6C6572206973206E6F74206F77 PUSH1 0x0 DUP3 ADD MSTORE PUSH32 0x6E6572206E6F7220617070726F76656400000000000000000000000000000000 PUSH1 0x20 DUP3 ADD MSTORE POP JUMP JUMPDEST PUSH1 0x0 PUSH2 0x4179 PUSH1 0x30 DUP4 PUSH2 0x37D8 JUMP JUMPDEST SWAP2 POP PUSH2 0x4184 DUP3 PUSH2 0x411D JUMP JUMPDEST PUSH1 0x40 DUP3 ADD SWAP1 POP SWAP2 SWAP1 POP JUMP JUMPDEST PUSH1 0x0 PUSH1 0x20 DUP3 ADD SWAP1 POP DUP2 DUP2 SUB PUSH1 0x0 DUP4 ADD MSTORE PUSH2 0x41A8 DUP2 PUSH2 0x416C JUMP JUMPDEST SWAP1 POP SWAP2 SWAP1 POP JUMP JUMPDEST PUSH32 0x4B49503137456E756D657261626C653A206F776E657220696E646578206F7574 PUSH1 0x0 DUP3 ADD MSTORE PUSH32 0x206F6620626F756E647300000000000000000000000000000000000000000000 PUSH1 0x20 DUP3 ADD MSTORE POP JUMP JUMPDEST PUSH1 0x0 PUSH2 0x420B PUSH1 0x2A DUP4 PUSH2 0x37D8 JUMP JUMPDEST SWAP2 POP PUSH2 0x4216 DUP3 PUSH2 0x41AF JUMP JUMPDEST PUSH1 0x40 DUP3 ADD SWAP1 POP SWAP2 SWAP1 POP JUMP JUMPDEST PUSH1 0x0 PUSH1 0x20 DUP3 ADD SWAP1 POP DUP2 DUP2 SUB PUSH1 0x0 DUP4 ADD MSTORE PUSH2 0x423A DUP2 PUSH2 0x41FE JUMP JUMPDEST SWAP1 POP SWAP2 SWAP1 POP JUMP JUMPDEST PUSH32 0x74686520636F6E74726163742069732070617573656400000000000000000000 PUSH1 0x0 DUP3 ADD MSTORE POP JUMP JUMPDEST PUSH1 0x0 PUSH2 0x4277 PUSH1 0x16 DUP4 PUSH2 0x37D8 JUMP JUMPDEST SWAP2 POP PUSH2 0x4282 DUP3 PUSH2 0x4241 JUMP JUMPDEST PUSH1 0x20 DUP3 ADD SWAP1 POP SWAP2 SWAP1 POP JUMP JUMPDEST PUSH1 0x0 PUSH1 0x20 DUP3 ADD SWAP1 POP DUP2 DUP2 SUB PUSH1 0x0 DUP4 ADD MSTORE PUSH2 0x42A6 DUP2 PUSH2 0x426A JUMP JUMPDEST SWAP1 POP SWAP2 SWAP1 POP JUMP JUMPDEST PUSH32 0x6E65656420746F206D696E74206174206C656173742031000000000000000000 PUSH1 0x0 DUP3 ADD MSTORE POP JUMP JUMPDEST PUSH1 0x0 PUSH2 0x42E3 PUSH1 0x17 DUP4 PUSH2 0x37D8 JUMP JUMPDEST SWAP2 POP PUSH2 0x42EE DUP3 PUSH2 0x42AD JUMP JUMPDEST PUSH1 0x20 DUP3 ADD SWAP1 POP SWAP2 SWAP1 POP JUMP JUMPDEST PUSH1 0x0 PUSH1 0x20 DUP3 ADD SWAP1 POP DUP2 DUP2 SUB PUSH1 0x0 DUP4 ADD MSTORE PUSH2 0x4312 DUP2 PUSH2 0x42D6 JUMP JUMPDEST SWAP1 POP SWAP2 SWAP1 POP JUMP JUMPDEST PUSH32 0x6D6178206D696E7420616D6F756E74207065722073657373696F6E2065786365 PUSH1 0x0 DUP3 ADD MSTORE PUSH32 0x6564656400000000000000000000000000000000000000000000000000000000 PUSH1 0x20 DUP3 ADD MSTORE POP JUMP JUMPDEST PUSH1 0x0 PUSH2 0x4375 PUSH1 0x24 DUP4 PUSH2 0x37D8 JUMP JUMPDEST SWAP2 POP PUSH2 0x4380 DUP3 PUSH2 0x4319 JUMP JUMPDEST PUSH1 0x40 DUP3 ADD SWAP1 POP SWAP2 SWAP1 POP JUMP JUMPDEST PUSH1 0x0 PUSH1 0x20 DUP3 ADD SWAP1 POP DUP2 DUP2 SUB PUSH1 0x0 DUP4 ADD MSTORE PUSH2 0x43A4 DUP2 PUSH2 0x4368 JUMP JUMPDEST SWAP1 POP SWAP2 SWAP1 POP JUMP JUMPDEST PUSH32 0x4E487B7100000000000000000000000000000000000000000000000000000000 PUSH1 0x0 MSTORE PUSH1 0x11 PUSH1 0x4 MSTORE PUSH1 0x24 PUSH1 0x0 REVERT JUMPDEST PUSH1 0x0 PUSH2 0x43E5 DUP3 PUSH2 0x387F JUMP JUMPDEST SWAP2 POP PUSH2 0x43F0 DUP4 PUSH2 0x387F JUMP JUMPDEST SWAP3 POP DUP3 DUP3 ADD SWAP1 POP DUP1 DUP3 GT ISZERO PUSH2 0x4408 JUMPI PUSH2 0x4407 PUSH2 0x43AB JUMP JUMPDEST JUMPDEST SWAP3 SWAP2 POP POP JUMP JUMPDEST PUSH32 0x6D6178204E4654206C696D697420657863656564656400000000000000000000 PUSH1 0x0 DUP3 ADD MSTORE POP JUMP JUMPDEST PUSH1 0x0 PUSH2 0x4444 PUSH1 0x16 DUP4 PUSH2 0x37D8 JUMP JUMPDEST SWAP2 POP PUSH2 0x444F DUP3 PUSH2 0x440E JUMP JUMPDEST PUSH1 0x20 DUP3 ADD SWAP1 POP SWAP2 SWAP1 POP JUMP JUMPDEST PUSH1 0x0 PUSH1 0x20 DUP3 ADD SWAP1 POP DUP2 DUP2 SUB PUSH1 0x0 DUP4 ADD MSTORE PUSH2 0x4473 DUP2 PUSH2 0x4437 JUMP JUMPDEST SWAP1 POP SWAP2 SWAP1 POP JUMP JUMPDEST PUSH32 0x75736572206973206E6F742057686974656C6973740000000000000000000000 PUSH1 0x0 DUP3 ADD MSTORE POP JUMP JUMPDEST PUSH1 0x0 PUSH2 0x44B0 PUSH1 0x15 DUP4 PUSH2 0x37D8 JUMP JUMPDEST SWAP2 POP PUSH2 0x44BB DUP3 PUSH2 0x447A JUMP JUMPDEST PUSH1 0x20 DUP3 ADD SWAP1 POP SWAP2 SWAP1 POP JUMP JUMPDEST PUSH1 0x0 PUSH1 0x20 DUP3 ADD SWAP1 POP DUP2 DUP2 SUB PUSH1 0x0 DUP4 ADD MSTORE PUSH2 0x44DF DUP2 PUSH2 0x44A3 JUMP JUMPDEST SWAP1 POP SWAP2 SWAP1 POP JUMP JUMPDEST PUSH32 0x6D6178204E465420706572206164647265737320657863656564656400000000 PUSH1 0x0 DUP3 ADD MSTORE POP JUMP JUMPDEST PUSH1 0x0 PUSH2 0x451C PUSH1 0x1C DUP4 PUSH2 0x37D8 JUMP JUMPDEST SWAP2 POP PUSH2 0x4527 DUP3 PUSH2 0x44E6 JUMP JUMPDEST PUSH1 0x20 DUP3 ADD SWAP1 POP SWAP2 SWAP1 POP JUMP JUMPDEST PUSH1 0x0 PUSH1 0x20 DUP3 ADD SWAP1 POP DUP2 DUP2 SUB PUSH1 0x0 DUP4 ADD MSTORE PUSH2 0x454B DUP2 PUSH2 0x450F JUMP JUMPDEST SWAP1 POP SWAP2 SWAP1 POP JUMP JUMPDEST PUSH1 0x0 PUSH2 0x455D DUP3 PUSH2 0x387F JUMP JUMPDEST SWAP2 POP PUSH2 0x4568 DUP4 PUSH2 0x387F JUMP JUMPDEST SWAP3 POP DUP3 DUP3 MUL PUSH2 0x4576 DUP2 PUSH2 0x387F JUMP JUMPDEST SWAP2 POP DUP3 DUP3 DIV DUP5 EQ DUP4 ISZERO OR PUSH2 0x458D JUMPI PUSH2 0x458C PUSH2 0x43AB JUMP JUMPDEST JUMPDEST POP SWAP3 SWAP2 POP POP JUMP JUMPDEST PUSH32 0x696E73756666696369656E742066756E64730000000000000000000000000000 PUSH1 0x0 DUP3 ADD MSTORE POP JUMP JUMPDEST PUSH1 0x0 PUSH2 0x45CA PUSH1 0x12 DUP4 PUSH2 0x37D8 JUMP JUMPDEST SWAP2 POP PUSH2 0x45D5 DUP3 PUSH2 0x4594 JUMP JUMPDEST PUSH1 0x20 DUP3 ADD SWAP1 POP SWAP2 SWAP1 POP JUMP JUMPDEST PUSH1 0x0 PUSH1 0x20 DUP3 ADD SWAP1 POP DUP2 DUP2 SUB PUSH1 0x0 DUP4 ADD MSTORE PUSH2 0x45F9 DUP2 PUSH2 0x45BD JUMP JUMPDEST SWAP1 POP SWAP2 SWAP1 POP JUMP JUMPDEST PUSH32 0x66616C7365000000000000000000000000000000000000000000000000000000 PUSH1 0x0 DUP3 ADD MSTORE POP JUMP JUMPDEST PUSH1 0x0 PUSH2 0x4636 PUSH1 0x5 DUP4 PUSH2 0x37D8 JUMP JUMPDEST SWAP2 POP PUSH2 0x4641 DUP3 PUSH2 0x4600 JUMP JUMPDEST PUSH1 0x20 DUP3 ADD SWAP1 POP SWAP2 SWAP1 POP JUMP JUMPDEST PUSH1 0x0 PUSH1 0x20 DUP3 ADD SWAP1 POP DUP2 DUP2 SUB PUSH1 0x0 DUP4 ADD MSTORE PUSH2 0x4665 DUP2 PUSH2 0x4629 JUMP JUMPDEST SWAP1 POP SWAP2 SWAP1 POP JUMP JUMPDEST PUSH1 0x0 PUSH2 0x4677 DUP3 PUSH2 0x387F JUMP JUMPDEST SWAP2 POP PUSH32 0xFFFFFFFFFFFFFFFFFFFFFFFFFFFFFFFFFFFFFFFFFFFFFFFFFFFFFFFFFFFFFFFF DUP3 SUB PUSH2 0x46A9 JUMPI PUSH2 0x46A8 PUSH2 0x43AB JUMP JUMPDEST JUMPDEST PUSH1 0x1 DUP3 ADD SWAP1 POP SWAP2 SWAP1 POP JUMP JUMPDEST PUSH32 0x4E487B7100000000000000000000000000000000000000000000000000000000 PUSH1 0x0 MSTORE PUSH1 0x32 PUSH1 0x4 MSTORE PUSH1 0x24 PUSH1 0x0 REVERT JUMPDEST PUSH32 0x4B49503137456E756D657261626C653A20676C6F62616C20696E646578206F75 PUSH1 0x0 DUP3 ADD MSTORE PUSH32 0x74206F6620626F756E6473000000000000000000000000000000000000000000 PUSH1 0x20 DUP3 ADD MSTORE POP JUMP JUMPDEST PUSH1 0x0 PUSH2 0x473F PUSH1 0x2B DUP4 PUSH2 0x37D8 JUMP JUMPDEST SWAP2 POP PUSH2 0x474A DUP3 PUSH2 0x46E3 JUMP JUMPDEST PUSH1 0x40 DUP3 ADD SWAP1 POP SWAP2 SWAP1 POP JUMP JUMPDEST PUSH1 0x0 PUSH1 0x20 DUP3 ADD SWAP1 POP DUP2 DUP2 SUB PUSH1 0x0 DUP4 ADD MSTORE PUSH2 0x476E DUP2 PUSH2 0x4732 JUMP JUMPDEST SWAP1 POP SWAP2 SWAP1 POP JUMP JUMPDEST PUSH1 0x0 DUP2 SWAP1 POP DUP2 PUSH1 0x0 MSTORE PUSH1 0x20 PUSH1 0x0 KECCAK256 SWAP1 POP SWAP2 SWAP1 POP JUMP JUMPDEST PUSH1 0x0 PUSH1 0x20 PUSH1 0x1F DUP4 ADD DIV SWAP1 POP SWAP2 SWAP1 POP JUMP JUMPDEST PUSH1 0x0 DUP3 DUP3 SHL SWAP1 POP SWAP3 SWAP2 POP POP JUMP JUMPDEST PUSH1 0x0 PUSH1 0x8 DUP4 MUL PUSH2 0x47D7 PUSH32 0xFFFFFFFFFFFFFFFFFFFFFFFFFFFFFFFFFFFFFFFFFFFFFFFFFFFFFFFFFFFFFFFF DUP3 PUSH2 0x479A JUMP JUMPDEST PUSH2 0x47E1 DUP7 DUP4 PUSH2 0x479A JUMP JUMPDEST SWAP6 POP DUP1 NOT DUP5 AND SWAP4 POP DUP1 DUP7 AND DUP5 OR SWAP3 POP POP POP SWAP4 SWAP3 POP POP POP JUMP JUMPDEST PUSH1 0x0 DUP2 SWAP1 POP SWAP2 SWAP1 POP JUMP JUMPDEST PUSH1 0x0 PUSH2 0x481E PUSH2 0x4819 PUSH2 0x4814 DUP5 PUSH2 0x387F JUMP JUMPDEST PUSH2 0x47F9 JUMP JUMPDEST PUSH2 0x387F JUMP JUMPDEST SWAP1 POP SWAP2 SWAP1 POP JUMP JUMPDEST PUSH1 0x0 DUP2 SWAP1 POP SWAP2 SWAP1 POP JUMP JUMPDEST PUSH2 0x4838 DUP4 PUSH2 0x4803 JUMP JUMPDEST PUSH2 0x484C PUSH2 0x4844 DUP3 PUSH2 0x4825 JUMP JUMPDEST DUP5 DUP5 SLOAD PUSH2 0x47A7 JUMP JUMPDEST DUP3 SSTORE POP POP POP POP JUMP JUMPDEST PUSH1 0x0 SWAP1 JUMP JUMPDEST PUSH2 0x4861 PUSH2 0x4854 JUMP JUMPDEST PUSH2 0x486C DUP2 DUP5 DUP5 PUSH2 0x482F JUMP JUMPDEST POP POP POP JUMP JUMPDEST JUMPDEST DUP2 DUP2 LT ISZERO PUSH2 0x4890 JUMPI PUSH2 0x4885 PUSH1 0x0 DUP3 PUSH2 0x4859 JUMP JUMPDEST PUSH1 0x1 DUP2 ADD SWAP1 POP PUSH2 0x4872 JUMP JUMPDEST POP POP JUMP JUMPDEST PUSH1 0x1F DUP3 GT ISZERO PUSH2 0x48D5 JUMPI PUSH2 0x48A6 DUP2 PUSH2 0x4775 JUMP JUMPDEST PUSH2 0x48AF DUP5 PUSH2 0x478A JUMP JUMPDEST DUP2 ADD PUSH1 0x20 DUP6 LT ISZERO PUSH2 0x48BE JUMPI DUP2 SWAP1 POP JUMPDEST PUSH2 0x48D2 PUSH2 0x48CA DUP6 PUSH2 0x478A JUMP JUMPDEST DUP4 ADD DUP3 PUSH2 0x4871 JUMP JUMPDEST POP POP JUMPDEST POP POP POP JUMP JUMPDEST PUSH1 0x0 DUP3 DUP3 SHR SWAP1 POP SWAP3 SWAP2 POP POP JUMP JUMPDEST PUSH1 0x0 PUSH2 0x48F8 PUSH1 0x0 NOT DUP5 PUSH1 0x8 MUL PUSH2 0x48DA JUMP JUMPDEST NOT DUP1 DUP4 AND SWAP2 POP POP SWAP3 SWAP2 POP POP JUMP JUMPDEST PUSH1 0x0 PUSH2 0x4911 DUP4 DUP4 PUSH2 0x48E7 JUMP JUMPDEST SWAP2 POP DUP3 PUSH1 0x2 MUL DUP3 OR SWAP1 POP SWAP3 SWAP2 POP POP JUMP JUMPDEST PUSH2 0x492A DUP3 PUSH2 0x37CD JUMP JUMPDEST PUSH8 0xFFFFFFFFFFFFFFFF DUP2 GT ISZERO PUSH2 0x4943 JUMPI PUSH2 0x4942 PUSH2 0x3BA9 JUMP JUMPDEST JUMPDEST PUSH2 0x494D DUP3 SLOAD PUSH2 0x3F5C JUMP JUMPDEST PUSH2 0x4958 DUP3 DUP3 DUP6 PUSH2 0x4894 JUMP JUMPDEST PUSH1 0x0 PUSH1 0x20 SWAP1 POP PUSH1 0x1F DUP4 GT PUSH1 0x1 DUP2 EQ PUSH2 0x498B JUMPI PUSH1 0x0 DUP5 ISZERO PUSH2 0x4979 JUMPI DUP3 DUP8 ADD MLOAD SWAP1 POP JUMPDEST PUSH2 0x4983 DUP6 DUP3 PUSH2 0x4905 JUMP JUMPDEST DUP7 SSTORE POP PUSH2 0x49EB JUMP JUMPDEST PUSH1 0x1F NOT DUP5 AND PUSH2 0x4999 DUP7 PUSH2 0x4775 JUMP JUMPDEST PUSH1 0x0 JUMPDEST DUP3 DUP2 LT ISZERO PUSH2 0x49C1 JUMPI DUP5 DUP10 ADD MLOAD DUP3 SSTORE PUSH1 0x1 DUP3 ADD SWAP2 POP PUSH1 0x20 DUP6 ADD SWAP5 POP PUSH1 0x20 DUP2 ADD SWAP1 POP PUSH2 0x499C JUMP JUMPDEST DUP7 DUP4 LT ISZERO PUSH2 0x49DE JUMPI DUP5 DUP10 ADD MLOAD PUSH2 0x49DA PUSH1 0x1F DUP10 AND DUP3 PUSH2 0x48E7 JUMP JUMPDEST DUP4 SSTORE POP JUMPDEST PUSH1 0x1 PUSH1 0x2 DUP9 MUL ADD DUP9 SSTORE POP POP POP JUMPDEST POP POP POP POP POP POP JUMP JUMPDEST PUSH32 0x4B495031373A206F776E657220717565727920666F72206E6F6E657869737465 PUSH1 0x0 DUP3 ADD MSTORE PUSH32 0x6E7420746F6B656E000000000000000000000000000000000000000000000000 PUSH1 0x20 DUP3 ADD MSTORE POP JUMP JUMPDEST PUSH1 0x0 PUSH2 0x4A4F PUSH1 0x28 DUP4 PUSH2 0x37D8 JUMP JUMPDEST SWAP2 POP PUSH2 0x4A5A DUP3 PUSH2 0x49F3 JUMP JUMPDEST PUSH1 0x40 DUP3 ADD SWAP1 POP SWAP2 SWAP1 POP JUMP JUMPDEST PUSH1 0x0 PUSH1 0x20 DUP3 ADD SWAP1 POP DUP2 DUP2 SUB PUSH1 0x0 DUP4 ADD MSTORE PUSH2 0x4A7E DUP2 PUSH2 0x4A42 JUMP JUMPDEST SWAP1 POP SWAP2 SWAP1 POP JUMP JUMPDEST PUSH32 0x4B495031373A2061646472657373207A65726F206973206E6F7420612076616C PUSH1 0x0 DUP3 ADD MSTORE PUSH32 0x6964206F776E6572000000000000000000000000000000000000000000000000 PUSH1 0x20 DUP3 ADD MSTORE POP JUMP JUMPDEST PUSH1 0x0 PUSH2 0x4AE1 PUSH1 0x28 DUP4 PUSH2 0x37D8 JUMP JUMPDEST SWAP2 POP PUSH2 0x4AEC DUP3 PUSH2 0x4A85 JUMP JUMPDEST PUSH1 0x40 DUP3 ADD SWAP1 POP SWAP2 SWAP1 POP JUMP JUMPDEST PUSH1 0x0 PUSH1 0x20 DUP3 ADD SWAP1 POP DUP2 DUP2 SUB PUSH1 0x0 DUP4 ADD MSTORE PUSH2 0x4B10 DUP2 PUSH2 0x4AD4 JUMP JUMPDEST SWAP1 POP SWAP2 SWAP1 POP JUMP JUMPDEST PUSH32 0x4B49503137206D657461646174613A2055524920717565727920666F72206E6F PUSH1 0x0 DUP3 ADD MSTORE PUSH32 0x6E6578697374656E7420746F6B656E0000000000000000000000000000000000 PUSH1 0x20 DUP3 ADD MSTORE POP JUMP JUMPDEST PUSH1 0x0 PUSH2 0x4B73 PUSH1 0x2F DUP4 PUSH2 0x37D8 JUMP JUMPDEST SWAP2 POP PUSH2 0x4B7E DUP3 PUSH2 0x4B17 JUMP JUMPDEST PUSH1 0x40 DUP3 ADD SWAP1 POP SWAP2 SWAP1 POP JUMP JUMPDEST PUSH1 0x0 PUSH1 0x20 DUP3 ADD SWAP1 POP DUP2 DUP2 SUB PUSH1 0x0 DUP4 ADD MSTORE PUSH2 0x4BA2 DUP2 PUSH2 0x4B66 JUMP JUMPDEST SWAP1 POP SWAP2 SWAP1 POP JUMP JUMPDEST PUSH1 0x0 DUP2 SWAP1 POP SWAP3 SWAP2 POP POP JUMP JUMPDEST PUSH1 0x0 PUSH2 0x4BBF DUP3 PUSH2 0x37CD JUMP JUMPDEST PUSH2 0x4BC9 DUP2 DUP6 PUSH2 0x4BA9 JUMP JUMPDEST SWAP4 POP PUSH2 0x4BD9 DUP2 DUP6 PUSH1 0x20 DUP7 ADD PUSH2 0x37E9 JUMP JUMPDEST DUP1 DUP5 ADD SWAP2 POP POP SWAP3 SWAP2 POP POP JUMP JUMPDEST PUSH1 0x0 DUP2 SLOAD PUSH2 0x4BF2 DUP2 PUSH2 0x3F5C JUMP JUMPDEST PUSH2 0x4BFC DUP2 DUP7 PUSH2 0x4BA9 JUMP JUMPDEST SWAP5 POP PUSH1 0x1 DUP3 AND PUSH1 0x0 DUP2 EQ PUSH2 0x4C17 JUMPI PUSH1 0x1 DUP2 EQ PUSH2 0x4C2C JUMPI PUSH2 0x4C5F JUMP JUMPDEST PUSH1 0xFF NOT DUP4 AND DUP7 MSTORE DUP2 ISZERO ISZERO DUP3 MUL DUP7 ADD SWAP4 POP PUSH2 0x4C5F JUMP JUMPDEST PUSH2 0x4C35 DUP6 PUSH2 0x4775 JUMP JUMPDEST PUSH1 0x0 JUMPDEST DUP4 DUP2 LT ISZERO PUSH2 0x4C57 JUMPI DUP2 SLOAD DUP2 DUP10 ADD MSTORE PUSH1 0x1 DUP3 ADD SWAP2 POP PUSH1 0x20 DUP2 ADD SWAP1 POP PUSH2 0x4C38 JUMP JUMPDEST DUP4 DUP9 ADD SWAP6 POP POP POP JUMPDEST POP POP POP SWAP3 SWAP2 POP POP JUMP JUMPDEST PUSH1 0x0 PUSH2 0x4C74 DUP3 DUP7 PUSH2 0x4BB4 JUMP JUMPDEST SWAP2 POP PUSH2 0x4C80 DUP3 DUP6 PUSH2 0x4BB4 JUMP JUMPDEST SWAP2 POP PUSH2 0x4C8C DUP3 DUP5 PUSH2 0x4BE5 JUMP JUMPDEST SWAP2 POP DUP2 SWAP1 POP SWAP5 SWAP4 POP POP POP POP JUMP JUMPDEST PUSH32 0x4F776E61626C653A206E6577206F776E657220697320746865207A65726F2061 PUSH1 0x0 DUP3 ADD MSTORE PUSH32 0x6464726573730000000000000000000000000000000000000000000000000000 PUSH1 0x20 DUP3 ADD MSTORE POP JUMP JUMPDEST PUSH1 0x0 PUSH2 0x4CF5 PUSH1 0x26 DUP4 PUSH2 0x37D8 JUMP JUMPDEST SWAP2 POP PUSH2 0x4D00 DUP3 PUSH2 0x4C99 JUMP JUMPDEST PUSH1 0x40 DUP3 ADD SWAP1 POP SWAP2 SWAP1 POP JUMP JUMPDEST PUSH1 0x0 PUSH1 0x20 DUP3 ADD SWAP1 POP DUP2 DUP2 SUB PUSH1 0x0 DUP4 ADD MSTORE PUSH2 0x4D24 DUP2 PUSH2 0x4CE8 JUMP JUMPDEST SWAP1 POP SWAP2 SWAP1 POP JUMP JUMPDEST PUSH32 0x4B495031373A206F70657261746F7220717565727920666F72206E6F6E657869 PUSH1 0x0 DUP3 ADD MSTORE PUSH32 0x7374656E7420746F6B656E000000000000000000000000000000000000000000 PUSH1 0x20 DUP3 ADD MSTORE POP JUMP JUMPDEST PUSH1 0x0 PUSH2 0x4D87 PUSH1 0x2B DUP4 PUSH2 0x37D8 JUMP JUMPDEST SWAP2 POP PUSH2 0x4D92 DUP3 PUSH2 0x4D2B JUMP JUMPDEST PUSH1 0x40 DUP3 ADD SWAP1 POP SWAP2 SWAP1 POP JUMP JUMPDEST PUSH1 0x0 PUSH1 0x20 DUP3 ADD SWAP1 POP DUP2 DUP2 SUB PUSH1 0x0 DUP4 ADD MSTORE PUSH2 0x4DB6 DUP2 PUSH2 0x4D7A JUMP JUMPDEST SWAP1 POP SWAP2 SWAP1 POP JUMP JUMPDEST PUSH32 0x4B495031373A207472616E736665722066726F6D20696E636F7272656374206F PUSH1 0x0 DUP3 ADD MSTORE PUSH32 0x776E657200000000000000000000000000000000000000000000000000000000 PUSH1 0x20 DUP3 ADD MSTORE POP JUMP JUMPDEST PUSH1 0x0 PUSH2 0x4E19 PUSH1 0x24 DUP4 PUSH2 0x37D8 JUMP JUMPDEST SWAP2 POP PUSH2 0x4E24 DUP3 PUSH2 0x4DBD JUMP JUMPDEST PUSH1 0x40 DUP3 ADD SWAP1 POP SWAP2 SWAP1 POP JUMP JUMPDEST PUSH1 0x0 PUSH1 0x20 DUP3 ADD SWAP1 POP DUP2 DUP2 SUB PUSH1 0x0 DUP4 ADD MSTORE PUSH2 0x4E48 DUP2 PUSH2 0x4E0C JUMP JUMPDEST SWAP1 POP SWAP2 SWAP1 POP JUMP JUMPDEST PUSH32 0x4B495031373A207472616E7366657220746F20746865207A65726F2061646472 PUSH1 0x0 DUP3 ADD MSTORE PUSH32 0x6573730000000000000000000000000000000000000000000000000000000000 PUSH1 0x20 DUP3 ADD MSTORE POP JUMP JUMPDEST PUSH1 0x0 PUSH2 0x4EAB PUSH1 0x23 DUP4 PUSH2 0x37D8 JUMP JUMPDEST SWAP2 POP PUSH2 0x4EB6 DUP3 PUSH2 0x4E4F JUMP JUMPDEST PUSH1 0x40 DUP3 ADD SWAP1 POP SWAP2 SWAP1 POP JUMP JUMPDEST PUSH1 0x0 PUSH1 0x20 DUP3 ADD SWAP1 POP DUP2 DUP2 SUB PUSH1 0x0 DUP4 ADD MSTORE PUSH2 0x4EDA DUP2 PUSH2 0x4E9E JUMP JUMPDEST SWAP1 POP SWAP2 SWAP1 POP JUMP JUMPDEST PUSH1 0x0 PUSH2 0x4EEC DUP3 PUSH2 0x387F JUMP JUMPDEST SWAP2 POP PUSH2 0x4EF7 DUP4 PUSH2 0x387F JUMP JUMPDEST SWAP3 POP DUP3 DUP3 SUB SWAP1 POP DUP2 DUP2 GT ISZERO PUSH2 0x4F0F JUMPI PUSH2 0x4F0E PUSH2 0x43AB JUMP JUMPDEST JUMPDEST SWAP3 SWAP2 POP POP JUMP JUMPDEST PUSH32 0x4B495031373A20617070726F766520746F2063616C6C65720000000000000000 PUSH1 0x0 DUP3 ADD MSTORE POP JUMP JUMPDEST PUSH1 0x0 PUSH2 0x4F4B PUSH1 0x18 DUP4 PUSH2 0x37D8 JUMP JUMPDEST SWAP2 POP PUSH2 0x4F56 DUP3 PUSH2 0x4F15 JUMP JUMPDEST PUSH1 0x20 DUP3 ADD SWAP1 POP SWAP2 SWAP1 POP JUMP JUMPDEST PUSH1 0x0 PUSH1 0x20 DUP3 ADD SWAP1 POP DUP2 DUP2 SUB PUSH1 0x0 DUP4 ADD MSTORE PUSH2 0x4F7A DUP2 PUSH2 0x4F3E JUMP JUMPDEST SWAP1 POP SWAP2 SWAP1 POP JUMP JUMPDEST PUSH32 0x4B495031373A207472616E7366657220746F206E6F6E20494B49503137526563 PUSH1 0x0 DUP3 ADD MSTORE PUSH32 0x65697665722F49455243373231526563656976657220696D706C656D656E7465 PUSH1 0x20 DUP3 ADD MSTORE PUSH32 0x7200000000000000000000000000000000000000000000000000000000000000 PUSH1 0x40 DUP3 ADD MSTORE POP JUMP JUMPDEST PUSH1 0x0 PUSH2 0x5003 PUSH1 0x41 DUP4 PUSH2 0x37D8 JUMP JUMPDEST SWAP2 POP PUSH2 0x500E DUP3 PUSH2 0x4F81 JUMP JUMPDEST PUSH1 0x60 DUP3 ADD SWAP1 POP SWAP2 SWAP1 POP JUMP JUMPDEST PUSH1 0x0 PUSH1 0x20 DUP3 ADD SWAP1 POP DUP2 DUP2 SUB PUSH1 0x0 DUP4 ADD MSTORE PUSH2 0x5032 DUP2 PUSH2 0x4FF6 JUMP JUMPDEST SWAP1 POP SWAP2 SWAP1 POP JUMP JUMPDEST PUSH32 0x4E487B7100000000000000000000000000000000000000000000000000000000 PUSH1 0x0 MSTORE PUSH1 0x12 PUSH1 0x4 MSTORE PUSH1 0x24 PUSH1 0x0 REVERT JUMPDEST PUSH1 0x0 PUSH2 0x5073 DUP3 PUSH2 0x387F JUMP JUMPDEST SWAP2 POP PUSH2 0x507E DUP4 PUSH2 0x387F JUMP JUMPDEST SWAP3 POP DUP3 PUSH2 0x508E JUMPI PUSH2 0x508D PUSH2 0x5039 JUMP JUMPDEST JUMPDEST DUP3 DUP3 DIV SWAP1 POP SWAP3 SWAP2 POP POP JUMP JUMPDEST PUSH1 0x0 PUSH2 0x50A4 DUP3 PUSH2 0x387F JUMP JUMPDEST SWAP2 POP PUSH2 0x50AF DUP4 PUSH2 0x387F JUMP JUMPDEST SWAP3 POP DUP3 PUSH2 0x50BF JUMPI PUSH2 0x50BE PUSH2 0x5039 JUMP JUMPDEST JUMPDEST DUP3 DUP3 MOD SWAP1 POP SWAP3 SWAP2 POP POP JUMP JUMPDEST PUSH1 0x0 DUP2 MLOAD SWAP1 POP SWAP2 SWAP1 POP JUMP JUMPDEST PUSH1 0x0 DUP3 DUP3 MSTORE PUSH1 0x20 DUP3 ADD SWAP1 POP SWAP3 SWAP2 POP POP JUMP JUMPDEST PUSH1 0x0 PUSH2 0x50F1 DUP3 PUSH2 0x50CA JUMP JUMPDEST PUSH2 0x50FB DUP2 DUP6 PUSH2 0x50D5 JUMP JUMPDEST SWAP4 POP PUSH2 0x510B DUP2 DUP6 PUSH1 0x20 DUP7 ADD PUSH2 0x37E9 JUMP JUMPDEST PUSH2 0x5114 DUP2 PUSH2 0x3813 JUMP JUMPDEST DUP5 ADD SWAP2 POP POP SWAP3 SWAP2 POP POP JUMP JUMPDEST PUSH1 0x0 PUSH1 0x80 DUP3 ADD SWAP1 POP PUSH2 0x5134 PUSH1 0x0 DUP4 ADD DUP8 PUSH2 0x3914 JUMP JUMPDEST PUSH2 0x5141 PUSH1 0x20 DUP4 ADD DUP7 PUSH2 0x3914 JUMP JUMPDEST PUSH2 0x514E PUSH1 0x40 DUP4 ADD DUP6 PUSH2 0x39AA JUMP JUMPDEST DUP2 DUP2 SUB PUSH1 0x60 DUP4 ADD MSTORE PUSH2 0x5160 DUP2 DUP5 PUSH2 0x50E6 JUMP JUMPDEST SWAP1 POP SWAP6 SWAP5 POP POP POP POP POP JUMP JUMPDEST PUSH1 0x0 DUP2 MLOAD SWAP1 POP PUSH2 0x517A DUP2 PUSH2 0x36E5 JUMP JUMPDEST SWAP3 SWAP2 POP POP JUMP JUMPDEST PUSH1 0x0 PUSH1 0x20 DUP3 DUP5 SUB SLT ISZERO PUSH2 0x5196 JUMPI PUSH2 0x5195 PUSH2 0x36AF JUMP JUMPDEST JUMPDEST PUSH1 0x0 PUSH2 0x51A4 DUP5 DUP3 DUP6 ADD PUSH2 0x516B JUMP JUMPDEST SWAP2 POP POP SWAP3 SWAP2 POP POP JUMP JUMPDEST PUSH32 0x4E487B7100000000000000000000000000000000000000000000000000000000 PUSH1 0x0 MSTORE PUSH1 0x31 PUSH1 0x4 MSTORE PUSH1 0x24 PUSH1 0x0 REVERT JUMPDEST PUSH32 0x4B495031373A206D696E7420746F20746865207A65726F206164647265737300 PUSH1 0x0 DUP3 ADD MSTORE POP JUMP JUMPDEST PUSH1 0x0 PUSH2 0x5212 PUSH1 0x1F DUP4 PUSH2 0x37D8 JUMP JUMPDEST SWAP2 POP PUSH2 0x521D DUP3 PUSH2 0x51DC JUMP JUMPDEST PUSH1 0x20 DUP3 ADD SWAP1 POP SWAP2 SWAP1 POP JUMP JUMPDEST PUSH1 0x0 PUSH1 0x20 DUP3 ADD SWAP1 POP DUP2 DUP2 SUB PUSH1 0x0 DUP4 ADD MSTORE PUSH2 0x5241 DUP2 PUSH2 0x5205 JUMP JUMPDEST SWAP1 POP SWAP2 SWAP1 POP JUMP JUMPDEST PUSH32 0x4B495031373A20746F6B656E20616C7265616479206D696E7465640000000000 PUSH1 0x0 DUP3 ADD MSTORE POP JUMP JUMPDEST PUSH1 0x0 PUSH2 0x527E PUSH1 0x1B DUP4 PUSH2 0x37D8 JUMP JUMPDEST SWAP2 POP PUSH2 0x5289 DUP3 PUSH2 0x5248 JUMP JUMPDEST PUSH1 0x20 DUP3 ADD SWAP1 POP SWAP2 SWAP1 POP JUMP JUMPDEST PUSH1 0x0 PUSH1 0x20 DUP3 ADD SWAP1 POP DUP2 DUP2 SUB PUSH1 0x0 DUP4 ADD MSTORE PUSH2 0x52AD DUP2 PUSH2 0x5271 JUMP JUMPDEST SWAP1 POP SWAP2 SWAP1 POP JUMP INVALID LOG2 PUSH5 0x6970667358 0x22 SLT KECCAK256 LOG1 MSTORE8 0xC8 PUSH21 0xD057905C26E10391E48FD4341740256CE93171E6FA 0xDB 0x21 PUSH26 0xFBC0C4A364736F6C634300081100330000000000000000000000 "
		},
		"gasEstimates": {
			"creation": {
				"codeDepositCost": "4245200",
				"executionCost": "infinite",
				"totalCost": "infinite"
			},
			"external": {
				"addWhitelist(address)": "27206",
				"addressMintedBalance(address)": "2904",
				"addressTimedlay(address)": "2859",
				"approve(address,uint256)": "infinite",
				"balanceOf(address)": "2988",
				"baseExtension()": "infinite",
				"baseURI()": "infinite",
				"getApproved(uint256)": "5273",
				"isApprovedForAll(address,address)": "infinite",
				"maxMintAmount()": "2541",
				"maxSupply()": "2473",
				"mint(address,uint256)": "infinite",
				"mintPrice()": "2497",
				"name()": "infinite",
				"nftPerAddressLimit()": "2496",
				"notRevealedUri()": "infinite",
				"onlyWhitelisted()": "2582",
				"owner()": "2589",
				"ownerOf(uint256)": "3020",
				"pause(bool)": "26988",
				"paused()": "2626",
				"renounceOwnership()": "30508",
				"reveal()": "26856",
				"revealed()": "2610",
				"safeTransferFrom(address,address,uint256)": "infinite",
				"safeTransferFrom(address,address,uint256,bytes)": "infinite",
				"setApprovalForAll(address,bool)": "infinite",
				"setBaseExtension(string)": "infinite",
				"setBaseURI(string)": "infinite",
				"setCost(uint256)": "24894",
				"setNotRevealedURI(string)": "infinite",
				"setOnlyWhitelisted(bool)": "26965",
				"setWhitelistLimit(uint256)": "24893",
				"setmaxMintAmount(uint256)": "24805",
				"supportsInterface(bytes4)": "909",
				"symbol()": "infinite",
				"tokenByIndex(uint256)": "infinite",
				"tokenOfOwnerByIndex(address,uint256)": "infinite",
				"tokenURI(uint256)": "infinite",
				"totalSupply()": "2513",
				"transferFrom(address,address,uint256)": "infinite",
				"transferOwnership(address)": "30852",
				"walletOfOwner(address)": "infinite",
				"withdraw(address)": "infinite"
			},
			"internal": {
				"_baseURI()": "infinite"
			}
		},
		"methodIdentifiers": {
			"addWhitelist(address)": "f80f5dd5",
			"addressMintedBalance(address)": "18cae269",
			"addressTimedlay(address)": "47fc73fd",
			"approve(address,uint256)": "095ea7b3",
			"balanceOf(address)": "70a08231",
			"baseExtension()": "c6682862",
			"baseURI()": "6c0360eb",
			"getApproved(uint256)": "081812fc",
			"isApprovedForAll(address,address)": "e985e9c5",
			"maxMintAmount()": "239c70ae",
			"maxSupply()": "d5abeb01",
			"mint(address,uint256)": "40c10f19",
			"mintPrice()": "6817c76c",
			"name()": "06fdde03",
			"nftPerAddressLimit()": "ba7d2c76",
			"notRevealedUri()": "081c8c44",
			"onlyWhitelisted()": "9c70b512",
			"owner()": "8da5cb5b",
			"ownerOf(uint256)": "6352211e",
			"pause(bool)": "02329a29",
			"paused()": "5c975abb",
			"renounceOwnership()": "715018a6",
			"reveal()": "a475b5dd",
			"revealed()": "51830227",
			"safeTransferFrom(address,address,uint256)": "42842e0e",
			"safeTransferFrom(address,address,uint256,bytes)": "b88d4fde",
			"setApprovalForAll(address,bool)": "a22cb465",
			"setBaseExtension(string)": "da3ef23f",
			"setBaseURI(string)": "55f804b3",
			"setCost(uint256)": "44a0d68a",
			"setNotRevealedURI(string)": "f2c4ce1e",
			"setOnlyWhitelisted(bool)": "3c952764",
			"setWhitelistLimit(uint256)": "d2521ae8",
			"setmaxMintAmount(uint256)": "7f00c7a6",
			"supportsInterface(bytes4)": "01ffc9a7",
			"symbol()": "95d89b41",
			"tokenByIndex(uint256)": "4f6ccce7",
			"tokenOfOwnerByIndex(address,uint256)": "2f745c59",
			"tokenURI(uint256)": "c87b56dd",
			"totalSupply()": "18160ddd",
			"transferFrom(address,address,uint256)": "23b872dd",
			"transferOwnership(address)": "f2fde38b",
			"walletOfOwner(address)": "438b6300",
			"withdraw(address)": "51cff8d9"
		}
	},
	"abi": [
		{
			"inputs": [
				{
					"internalType": "string",
					"name": "_name",
					"type": "string"
				},
				{
					"internalType": "string",
					"name": "_symbol",
					"type": "string"
				},
				{
					"internalType": "string",
					"name": "_initBaseURI",
					"type": "string"
				},
				{
					"internalType": "string",
					"name": "_initNotRevealedUri",
					"type": "string"
				}
			],
			"stateMutability": "nonpayable",
			"type": "constructor"
		},
		{
			"anonymous": false,
			"inputs": [
				{
					"indexed": true,
					"internalType": "address",
					"name": "owner",
					"type": "address"
				},
				{
					"indexed": true,
					"internalType": "address",
					"name": "approved",
					"type": "address"
				},
				{
					"indexed": true,
					"internalType": "uint256",
					"name": "tokenId",
					"type": "uint256"
				}
			],
			"name": "Approval",
			"type": "event"
		},
		{
			"anonymous": false,
			"inputs": [
				{
					"indexed": true,
					"internalType": "address",
					"name": "owner",
					"type": "address"
				},
				{
					"indexed": true,
					"internalType": "address",
					"name": "operator",
					"type": "address"
				},
				{
					"indexed": false,
					"internalType": "bool",
					"name": "approved",
					"type": "bool"
				}
			],
			"name": "ApprovalForAll",
			"type": "event"
		},
		{
			"anonymous": false,
			"inputs": [
				{
					"indexed": false,
					"internalType": "address",
					"name": "_to",
					"type": "address"
				},
				{
					"indexed": false,
					"internalType": "uint256",
					"name": "tokenId",
					"type": "uint256"
				}
			],
			"name": "Klaytn17Burn",
			"type": "event"
		},
		{
			"anonymous": false,
			"inputs": [
				{
					"indexed": true,
					"internalType": "address",
					"name": "previousOwner",
					"type": "address"
				},
				{
					"indexed": true,
					"internalType": "address",
					"name": "newOwner",
					"type": "address"
				}
			],
			"name": "OwnershipTransferred",
			"type": "event"
		},
		{
			"anonymous": false,
			"inputs": [
				{
					"indexed": true,
					"internalType": "address",
					"name": "from",
					"type": "address"
				},
				{
					"indexed": true,
					"internalType": "address",
					"name": "to",
					"type": "address"
				},
				{
					"indexed": true,
					"internalType": "uint256",
					"name": "tokenId",
					"type": "uint256"
				}
			],
			"name": "Transfer",
			"type": "event"
		},
		{
			"inputs": [
				{
					"internalType": "address",
					"name": "user",
					"type": "address"
				}
			],
			"name": "addWhitelist",
			"outputs": [],
			"stateMutability": "nonpayable",
			"type": "function"
		},
		{
			"inputs": [
				{
					"internalType": "address",
					"name": "",
					"type": "address"
				}
			],
			"name": "addressMintedBalance",
			"outputs": [
				{
					"internalType": "uint256",
					"name": "",
					"type": "uint256"
				}
			],
			"stateMutability": "view",
			"type": "function"
		},
		{
			"inputs": [
				{
					"internalType": "address",
					"name": "",
					"type": "address"
				}
			],
			"name": "addressTimedlay",
			"outputs": [
				{
					"internalType": "uint256",
					"name": "",
					"type": "uint256"
				}
			],
			"stateMutability": "view",
			"type": "function"
		},
		{
			"inputs": [
				{
					"internalType": "address",
					"name": "to",
					"type": "address"
				},
				{
					"internalType": "uint256",
					"name": "tokenId",
					"type": "uint256"
				}
			],
			"name": "approve",
			"outputs": [],
			"stateMutability": "nonpayable",
			"type": "function"
		},
		{
			"inputs": [
				{
					"internalType": "address",
					"name": "owner",
					"type": "address"
				}
			],
			"name": "balanceOf",
			"outputs": [
				{
					"internalType": "uint256",
					"name": "",
					"type": "uint256"
				}
			],
			"stateMutability": "view",
			"type": "function"
		},
		{
			"inputs": [],
			"name": "baseExtension",
			"outputs": [
				{
					"internalType": "string",
					"name": "",
					"type": "string"
				}
			],
			"stateMutability": "view",
			"type": "function"
		},
		{
			"inputs": [],
			"name": "baseURI",
			"outputs": [
				{
					"internalType": "string",
					"name": "",
					"type": "string"
				}
			],
			"stateMutability": "view",
			"type": "function"
		},
		{
			"inputs": [
				{
					"internalType": "uint256",
					"name": "tokenId",
					"type": "uint256"
				}
			],
			"name": "getApproved",
			"outputs": [
				{
					"internalType": "address",
					"name": "",
					"type": "address"
				}
			],
			"stateMutability": "view",
			"type": "function"
		},
		{
			"inputs": [
				{
					"internalType": "address",
					"name": "owner",
					"type": "address"
				},
				{
					"internalType": "address",
					"name": "operator",
					"type": "address"
				}
			],
			"name": "isApprovedForAll",
			"outputs": [
				{
					"internalType": "bool",
					"name": "",
					"type": "bool"
				}
			],
			"stateMutability": "view",
			"type": "function"
		},
		{
			"inputs": [],
			"name": "maxMintAmount",
			"outputs": [
				{
					"internalType": "uint256",
					"name": "",
					"type": "uint256"
				}
			],
			"stateMutability": "view",
			"type": "function"
		},
		{
			"inputs": [],
			"name": "maxSupply",
			"outputs": [
				{
					"internalType": "uint256",
					"name": "",
					"type": "uint256"
				}
			],
			"stateMutability": "view",
			"type": "function"
		},
		{
			"inputs": [
				{
					"internalType": "address",
					"name": "_to",
					"type": "address"
				},
				{
					"internalType": "uint256",
					"name": "_mintAmount",
					"type": "uint256"
				}
			],
			"name": "mint",
			"outputs": [],
			"stateMutability": "payable",
			"type": "function"
		},
		{
			"inputs": [],
			"name": "mintPrice",
			"outputs": [
				{
					"internalType": "uint256",
					"name": "",
					"type": "uint256"
				}
			],
			"stateMutability": "view",
			"type": "function"
		},
		{
			"inputs": [],
			"name": "name",
			"outputs": [
				{
					"internalType": "string",
					"name": "",
					"type": "string"
				}
			],
			"stateMutability": "view",
			"type": "function"
		},
		{
			"inputs": [],
			"name": "nftPerAddressLimit",
			"outputs": [
				{
					"internalType": "uint256",
					"name": "",
					"type": "uint256"
				}
			],
			"stateMutability": "view",
			"type": "function"
		},
		{
			"inputs": [],
			"name": "notRevealedUri",
			"outputs": [
				{
					"internalType": "string",
					"name": "",
					"type": "string"
				}
			],
			"stateMutability": "view",
			"type": "function"
		},
		{
			"inputs": [],
			"name": "onlyWhitelisted",
			"outputs": [
				{
					"internalType": "bool",
					"name": "",
					"type": "bool"
				}
			],
			"stateMutability": "view",
			"type": "function"
		},
		{
			"inputs": [],
			"name": "owner",
			"outputs": [
				{
					"internalType": "address",
					"name": "",
					"type": "address"
				}
			],
			"stateMutability": "view",
			"type": "function"
		},
		{
			"inputs": [
				{
					"internalType": "uint256",
					"name": "tokenId",
					"type": "uint256"
				}
			],
			"name": "ownerOf",
			"outputs": [
				{
					"internalType": "address",
					"name": "",
					"type": "address"
				}
			],
			"stateMutability": "view",
			"type": "function"
		},
		{
			"inputs": [
				{
					"internalType": "bool",
					"name": "_state",
					"type": "bool"
				}
			],
			"name": "pause",
			"outputs": [],
			"stateMutability": "nonpayable",
			"type": "function"
		},
		{
			"inputs": [],
			"name": "paused",
			"outputs": [
				{
					"internalType": "bool",
					"name": "",
					"type": "bool"
				}
			],
			"stateMutability": "view",
			"type": "function"
		},
		{
			"inputs": [],
			"name": "renounceOwnership",
			"outputs": [],
			"stateMutability": "nonpayable",
			"type": "function"
		},
		{
			"inputs": [],
			"name": "reveal",
			"outputs": [],
			"stateMutability": "nonpayable",
			"type": "function"
		},
		{
			"inputs": [],
			"name": "revealed",
			"outputs": [
				{
					"internalType": "bool",
					"name": "",
					"type": "bool"
				}
			],
			"stateMutability": "view",
			"type": "function"
		},
		{
			"inputs": [
				{
					"internalType": "address",
					"name": "from",
					"type": "address"
				},
				{
					"internalType": "address",
					"name": "to",
					"type": "address"
				},
				{
					"internalType": "uint256",
					"name": "tokenId",
					"type": "uint256"
				}
			],
			"name": "safeTransferFrom",
			"outputs": [],
			"stateMutability": "nonpayable",
			"type": "function"
		},
		{
			"inputs": [
				{
					"internalType": "address",
					"name": "from",
					"type": "address"
				},
				{
					"internalType": "address",
					"name": "to",
					"type": "address"
				},
				{
					"internalType": "uint256",
					"name": "tokenId",
					"type": "uint256"
				},
				{
					"internalType": "bytes",
					"name": "_data",
					"type": "bytes"
				}
			],
			"name": "safeTransferFrom",
			"outputs": [],
			"stateMutability": "nonpayable",
			"type": "function"
		},
		{
			"inputs": [
				{
					"internalType": "address",
					"name": "operator",
					"type": "address"
				},
				{
					"internalType": "bool",
					"name": "approved",
					"type": "bool"
				}
			],
			"name": "setApprovalForAll",
			"outputs": [],
			"stateMutability": "nonpayable",
			"type": "function"
		},
		{
			"inputs": [
				{
					"internalType": "string",
					"name": "_newBaseExtension",
					"type": "string"
				}
			],
			"name": "setBaseExtension",
			"outputs": [],
			"stateMutability": "nonpayable",
			"type": "function"
		},
		{
			"inputs": [
				{
					"internalType": "string",
					"name": "_newBaseURI",
					"type": "string"
				}
			],
			"name": "setBaseURI",
			"outputs": [],
			"stateMutability": "nonpayable",
			"type": "function"
		},
		{
			"inputs": [
				{
					"internalType": "uint256",
					"name": "_newMintPrice",
					"type": "uint256"
				}
			],
			"name": "setCost",
			"outputs": [],
			"stateMutability": "nonpayable",
			"type": "function"
		},
		{
			"inputs": [
				{
					"internalType": "string",
					"name": "_notRevealedURI",
					"type": "string"
				}
			],
			"name": "setNotRevealedURI",
			"outputs": [],
			"stateMutability": "nonpayable",
			"type": "function"
		},
		{
			"inputs": [
				{
					"internalType": "bool",
					"name": "_state",
					"type": "bool"
				}
			],
			"name": "setOnlyWhitelisted",
			"outputs": [],
			"stateMutability": "nonpayable",
			"type": "function"
		},
		{
			"inputs": [
				{
					"internalType": "uint256",
					"name": "_newLimit",
					"type": "uint256"
				}
			],
			"name": "setWhitelistLimit",
			"outputs": [],
			"stateMutability": "nonpayable",
			"type": "function"
		},
		{
			"inputs": [
				{
					"internalType": "uint256",
					"name": "_newmaxMintAmount",
					"type": "uint256"
				}
			],
			"name": "setmaxMintAmount",
			"outputs": [],
			"stateMutability": "nonpayable",
			"type": "function"
		},
		{
			"inputs": [
				{
					"internalType": "bytes4",
					"name": "interfaceId",
					"type": "bytes4"
				}
			],
			"name": "supportsInterface",
			"outputs": [
				{
					"internalType": "bool",
					"name": "",
					"type": "bool"
				}
			],
			"stateMutability": "view",
			"type": "function"
		},
		{
			"inputs": [],
			"name": "symbol",
			"outputs": [
				{
					"internalType": "string",
					"name": "",
					"type": "string"
				}
			],
			"stateMutability": "view",
			"type": "function"
		},
		{
			"inputs": [
				{
					"internalType": "uint256",
					"name": "index",
					"type": "uint256"
				}
			],
			"name": "tokenByIndex",
			"outputs": [
				{
					"internalType": "uint256",
					"name": "",
					"type": "uint256"
				}
			],
			"stateMutability": "view",
			"type": "function"
		},
		{
			"inputs": [
				{
					"internalType": "address",
					"name": "owner",
					"type": "address"
				},
				{
					"internalType": "uint256",
					"name": "index",
					"type": "uint256"
				}
			],
			"name": "tokenOfOwnerByIndex",
			"outputs": [
				{
					"internalType": "uint256",
					"name": "",
					"type": "uint256"
				}
			],
			"stateMutability": "view",
			"type": "function"
		},
		{
			"inputs": [
				{
					"internalType": "uint256",
					"name": "tokenId",
					"type": "uint256"
				}
			],
			"name": "tokenURI",
			"outputs": [
				{
					"internalType": "string",
					"name": "",
					"type": "string"
				}
			],
			"stateMutability": "view",
			"type": "function"
		},
		{
			"inputs": [],
			"name": "totalSupply",
			"outputs": [
				{
					"internalType": "uint256",
					"name": "",
					"type": "uint256"
				}
			],
			"stateMutability": "view",
			"type": "function"
		},
		{
			"inputs": [
				{
					"internalType": "address",
					"name": "from",
					"type": "address"
				},
				{
					"internalType": "address",
					"name": "to",
					"type": "address"
				},
				{
					"internalType": "uint256",
					"name": "tokenId",
					"type": "uint256"
				}
			],
			"name": "transferFrom",
			"outputs": [],
			"stateMutability": "nonpayable",
			"type": "function"
		},
		{
			"inputs": [
				{
					"internalType": "address",
					"name": "newOwner",
					"type": "address"
				}
			],
			"name": "transferOwnership",
			"outputs": [],
			"stateMutability": "nonpayable",
			"type": "function"
		},
		{
			"inputs": [
				{
					"internalType": "address",
					"name": "_owner",
					"type": "address"
				}
			],
			"name": "walletOfOwner",
			"outputs": [
				{
					"internalType": "uint256[]",
					"name": "",
					"type": "uint256[]"
				}
			],
			"stateMutability": "view",
			"type": "function"
		},
		{
			"inputs": [
				{
					"internalType": "address payable",
					"name": "toAdress",
					"type": "address"
				}
			],
			"name": "withdraw",
			"outputs": [],
			"stateMutability": "nonpayable",
			"type": "function"
		}
	]
}