{
	"data": {
		"bytecode": {
			"linkReferences": {},
			"object": "60806040526012600255662386f26fc1000060035562015180600254600a62000029919062000290565b6121c0620000389190620002e1565b6200004491906200035b565b6004553480156200005457600080fd5b5060405162001c2638038062001c2683398181016040528101906200007a9190620003fd565b816000806101000a81548173ffffffffffffffffffffffffffffffffffffffff021916908373ffffffffffffffffffffffffffffffffffffffff16021790555080600160006101000a81548173ffffffffffffffffffffffffffffffffffffffff021916908373ffffffffffffffffffffffffffffffffffffffff160217905550505062000444565b7f4e487b7100000000000000000000000000000000000000000000000000000000600052601160045260246000fd5b60008160011c9050919050565b6000808291508390505b6001851115620001915780860481111562000169576200016862000103565b5b6001851615620001795780820291505b8081029050620001898562000132565b945062000149565b94509492505050565b600082620001ac57600190506200027f565b81620001bc57600090506200027f565b8160018114620001d55760028114620001e05762000216565b60019150506200027f565b60ff841115620001f557620001f462000103565b5b8360020a9150848211156200020f576200020e62000103565b5b506200027f565b5060208310610133831016604e8410600b8410161715620002505782820a9050838111156200024a576200024962000103565b5b6200027f565b6200025f84848460016200013f565b9250905081840481111562000279576200027862000103565b5b81810290505b9392505050565b6000819050919050565b60006200029d8262000286565b9150620002aa8362000286565b9250620002d97fffffffffffffffffffffffffffffffffffffffffffffffffffffffffffffffff84846200019a565b905092915050565b6000620002ee8262000286565b9150620002fb8362000286565b92508282026200030b8162000286565b9150828204841483151762000325576200032462000103565b5b5092915050565b7f4e487b7100000000000000000000000000000000000000000000000000000000600052601260045260246000fd5b6000620003688262000286565b9150620003758362000286565b9250826200038857620003876200032c565b5b828204905092915050565b600080fd5b600073ffffffffffffffffffffffffffffffffffffffff82169050919050565b6000620003c58262000398565b9050919050565b620003d781620003b8565b8114620003e357600080fd5b50565b600081519050620003f781620003cc565b92915050565b6000806040838503121562000417576200041662000393565b5b60006200042785828601620003e6565b92505060206200043a85828601620003e6565b9150509250929050565b6117d280620004546000396000f3fe608060405234801561001057600080fd5b50600436106100ea5760003560e01c80636745782b1161008c578063a694fc3a11610066578063a694fc3a1461024d578063d5abeb0114610269578063ef5cfb8c14610287578063f7c618c1146102a3576100ea565b80636745782b146101e15780638dcb4061146102115780639168ae721461021b576100ea565b806335322f37116100c857806335322f371461015957806347ccca021461016357806363c28db11461018157806364ab8675146101b1576100ea565b80631caaa487146100ef5780632c4e722e1461011f5780632e17de781461013d575b600080fd5b61010960048036038101906101049190610f0c565b6102c1565b6040516101169190610f7a565b60405180910390f35b6101276102f4565b6040516101349190610fa4565b60405180910390f35b61015760048036038101906101529190610f0c565b6102fa565b005b6101616103a8565b005b61016b6104c2565b604051610178919061101e565b60405180910390f35b61019b60048036038101906101969190611065565b6104e6565b6040516101a89190611150565b60405180910390f35b6101cb60048036038101906101c69190611065565b610580565b6040516101d89190610fa4565b60405180910390f35b6101fb60048036038101906101f691906112b8565b610636565b6040516102089190611376565b60405180910390f35b61021961064a565b005b61023560048036038101906102309190611065565b610857565b60405161024493929190611391565b60405180910390f35b61026760048036038101906102629190610f0c565b610881565b005b61027161088e565b60405161027e9190610fa4565b60405180910390f35b6102a1600480360381019061029c9190611065565b610894565b005b6102ab610a28565b6040516102b891906113e9565b60405180910390f35b60066020528060005260406000206000915054906101000a900473ffffffffffffffffffffffffffffffffffffffff1681565b60045481565b3373ffffffffffffffffffffffffffffffffffffffff166006600083815260200190815260200160002060009054906101000a900473ffffffffffffffffffffffffffffffffffffffff1673ffffffffffffffffffffffffffffffffffffffff161461039b576040517f08c379a000000000000000000000000000000000000000000000000000000000815260040161039290611461565b60405180910390fd5b6103a53382610a4e565b50565b6000600560003373ffffffffffffffffffffffffffffffffffffffff1673ffffffffffffffffffffffffffffffffffffffff168152602001908152602001600020905060005b81600101548110156104be573373ffffffffffffffffffffffffffffffffffffffff166006600084600001848154811061042b5761042a611481565b5b9060005260206000200154815260200190815260200160002060009054906101000a900473ffffffffffffffffffffffffffffffffffffffff1673ffffffffffffffffffffffffffffffffffffffff16036104ab576104aa3383600001838154811061049a57610499611481565b5b9060005260206000200154610a4e565b5b80806104b6906114df565b9150506103ee565b5050565b60008054906101000a900473ffffffffffffffffffffffffffffffffffffffff1681565b6060600560008373ffffffffffffffffffffffffffffffffffffffff1673ffffffffffffffffffffffffffffffffffffffff16815260200190815260200160002060000180548060200260200160405190810160405280929190818152602001828054801561057457602002820191906000526020600020905b815481526020019060010190808311610560575b50505050509050919050565b600080600560008473ffffffffffffffffffffffffffffffffffffffff1673ffffffffffffffffffffffffffffffffffffffff16815260200190815260200160002060010154600560008573ffffffffffffffffffffffffffffffffffffffff1673ffffffffffffffffffffffffffffffffffffffff16815260200190815260200160002060020154426106149190611527565b61061e919061155b565b90506004548161062e919061155b565b915050919050565b6000636745782b60e01b9050949350505050565b60008060009054906101000a900473ffffffffffffffffffffffffffffffffffffffff1673ffffffffffffffffffffffffffffffffffffffff166370a08231336040518263ffffffff1660e01b81526004016106a69190610f7a565b602060405180830381865afa1580156106c3573d6000803e3d6000fd5b505050506040513d601f19601f820116820180604052508101906106e791906115b2565b905060008167ffffffffffffffff8111156107055761070461118d565b5b6040519080825280602002602001820160405280156107335781602001602082028036833780820191505090505b50905060005b8281101561080f5760008054906101000a900473ffffffffffffffffffffffffffffffffffffffff1673ffffffffffffffffffffffffffffffffffffffff16632f745c5933836040518363ffffffff1660e01b815260040161079c9291906115df565b602060405180830381865afa1580156107b9573d6000803e3d6000fd5b505050506040513d601f19601f820116820180604052508101906107dd91906115b2565b8282815181106107f0576107ef611481565b5b6020026020010181815250508080610807906114df565b915050610739565b5060005b828110156108525761083f3383838151811061083257610831611481565b5b6020026020010151610c61565b808061084a906114df565b915050610813565b505050565b60056020528060005260406000206000915090508060010154908060020154908060030154905083565b61088b3382610c61565b50565b60035481565b6000600560008373ffffffffffffffffffffffffffffffffffffffff1673ffffffffffffffffffffffffffffffffffffffff1681526020019081526020016000209050600081600301546108e784610580565b6108f19190611608565b905060008111610936576040517f08c379a000000000000000000000000000000000000000000000000000000000815260040161092d90611688565b60405180910390fd5b42826002018190555060008260030181905550600160009054906101000a900473ffffffffffffffffffffffffffffffffffffffff1673ffffffffffffffffffffffffffffffffffffffff1663a9059cbb84836040518363ffffffff1660e01b81526004016109a69291906115df565b6020604051808303816000875af11580156109c5573d6000803e3d6000fd5b505050506040513d601f19601f820116820180604052508101906109e991906116e0565b507fe2403640ba68fed3a2f88b7557551d1993f84b99bb10ff833f0cf8db0c5e04868382604051610a1b9291906115df565b60405180910390a1505050565b600160009054906101000a900473ffffffffffffffffffffffffffffffffffffffff1681565b6000600560008473ffffffffffffffffffffffffffffffffffffffff1673ffffffffffffffffffffffffffffffffffffffff1681526020019081526020016000209050610a9a83610894565b806001016000815480929190610aaf9061170d565b919050555080600001805480610ac857610ac7611736565b5b600190038181906000526020600020016000905590554281600201819055506000816001015403610b5e57600560008473ffffffffffffffffffffffffffffffffffffffff1673ffffffffffffffffffffffffffffffffffffffff16815260200190815260200160002060008082016000610b439190610e84565b60018201600090556002820160009055600382016000905550505b6006600083815260200190815260200160002060006101000a81549073ffffffffffffffffffffffffffffffffffffffff021916905560008054906101000a900473ffffffffffffffffffffffffffffffffffffffff1673ffffffffffffffffffffffffffffffffffffffff166342842e0e3085856040518463ffffffff1660e01b8152600401610bf193929190611765565b600060405180830381600087803b158015610c0b57600080fd5b505af1158015610c1f573d6000803e3d6000fd5b505050507f0f5bb82176feb1b5e747e28471aa92156a04d9f3ab9f45f28e2d704232b93f758383604051610c549291906115df565b60405180910390a1505050565b6000600560008473ffffffffffffffffffffffffffffffffffffffff1673ffffffffffffffffffffffffffffffffffffffff1681526020019081526020016000209050610cad83610e11565b806001016000815480929190610cc2906114df565b919050555080600001829080600181540180825580915050600190039060005260206000200160009091909190915055826006600084815260200190815260200160002060006101000a81548173ffffffffffffffffffffffffffffffffffffffff021916908373ffffffffffffffffffffffffffffffffffffffff16021790555060008054906101000a900473ffffffffffffffffffffffffffffffffffffffff1673ffffffffffffffffffffffffffffffffffffffff166342842e0e8430856040518463ffffffff1660e01b8152600401610da193929190611765565b600060405180830381600087803b158015610dbb57600080fd5b505af1158015610dcf573d6000803e3d6000fd5b505050507f9e71bc8eea02a63969f509818f2dafb9254532904319f9dbda79b67bd34a5f3d8383604051610e049291906115df565b60405180910390a1505050565b6000600560008373ffffffffffffffffffffffffffffffffffffffff1673ffffffffffffffffffffffffffffffffffffffff1681526020019081526020016000209050610e5d82610580565b816003016000828254610e709190611608565b925050819055504281600201819055505050565b5080546000825590600052602060002090810190610ea29190610ea5565b50565b5b80821115610ebe576000816000905550600101610ea6565b5090565b6000604051905090565b600080fd5b600080fd5b6000819050919050565b610ee981610ed6565b8114610ef457600080fd5b50565b600081359050610f0681610ee0565b92915050565b600060208284031215610f2257610f21610ecc565b5b6000610f3084828501610ef7565b91505092915050565b600073ffffffffffffffffffffffffffffffffffffffff82169050919050565b6000610f6482610f39565b9050919050565b610f7481610f59565b82525050565b6000602082019050610f8f6000830184610f6b565b92915050565b610f9e81610ed6565b82525050565b6000602082019050610fb96000830184610f95565b92915050565b6000819050919050565b6000610fe4610fdf610fda84610f39565b610fbf565b610f39565b9050919050565b6000610ff682610fc9565b9050919050565b600061100882610feb565b9050919050565b61101881610ffd565b82525050565b6000602082019050611033600083018461100f565b92915050565b61104281610f59565b811461104d57600080fd5b50565b60008135905061105f81611039565b92915050565b60006020828403121561107b5761107a610ecc565b5b600061108984828501611050565b91505092915050565b600081519050919050565b600082825260208201905092915050565b6000819050602082019050919050565b6110c781610ed6565b82525050565b60006110d983836110be565b60208301905092915050565b6000602082019050919050565b60006110fd82611092565b611107818561109d565b9350611112836110ae565b8060005b8381101561114357815161112a88826110cd565b9750611135836110e5565b925050600181019050611116565b5085935050505092915050565b6000602082019050818103600083015261116a81846110f2565b905092915050565b600080fd5b600080fd5b6000601f19601f8301169050919050565b7f4e487b7100000000000000000000000000000000000000000000000000000000600052604160045260246000fd5b6111c58261117c565b810181811067ffffffffffffffff821117156111e4576111e361118d565b5b80604052505050565b60006111f7610ec2565b905061120382826111bc565b919050565b600067ffffffffffffffff8211156112235761122261118d565b5b61122c8261117c565b9050602081019050919050565b82818337600083830152505050565b600061125b61125684611208565b6111ed565b90508281526020810184848401111561127757611276611177565b5b611282848285611239565b509392505050565b600082601f83011261129f5761129e611172565b5b81356112af848260208601611248565b91505092915050565b600080600080608085870312156112d2576112d1610ecc565b5b60006112e087828801611050565b94505060206112f187828801611050565b935050604061130287828801610ef7565b925050606085013567ffffffffffffffff81111561132357611322610ed1565b5b61132f8782880161128a565b91505092959194509250565b60007fffffffff0000000000000000000000000000000000000000000000000000000082169050919050565b6113708161133b565b82525050565b600060208201905061138b6000830184611367565b92915050565b60006060820190506113a66000830186610f95565b6113b36020830185610f95565b6113c06040830184610f95565b949350505050565b60006113d382610feb565b9050919050565b6113e3816113c8565b82525050565b60006020820190506113fe60008301846113da565b92915050565b600082825260208201905092915050565b7f596f752063616e277420756e7374616b65207468697320746f6b656e00000000600082015250565b600061144b601c83611404565b915061145682611415565b602082019050919050565b6000602082019050818103600083015261147a8161143e565b9050919050565b7f4e487b7100000000000000000000000000000000000000000000000000000000600052603260045260246000fd5b7f4e487b7100000000000000000000000000000000000000000000000000000000600052601160045260246000fd5b60006114ea82610ed6565b91507fffffffffffffffffffffffffffffffffffffffffffffffffffffffffffffffff820361151c5761151b6114b0565b5b600182019050919050565b600061153282610ed6565b915061153d83610ed6565b9250828203905081811115611555576115546114b0565b5b92915050565b600061156682610ed6565b915061157183610ed6565b925082820261157f81610ed6565b91508282048414831517611596576115956114b0565b5b5092915050565b6000815190506115ac81610ee0565b92915050565b6000602082840312156115c8576115c7610ecc565b5b60006115d68482850161159d565b91505092915050565b60006040820190506115f46000830185610f6b565b6116016020830184610f95565b9392505050565b600061161382610ed6565b915061161e83610ed6565b9250828201905080821115611636576116356114b0565b5b92915050565b7f596f752068617665206e6f207265776172647320746f20636c61696d00000000600082015250565b6000611672601c83611404565b915061167d8261163c565b602082019050919050565b600060208201905081810360008301526116a181611665565b9050919050565b60008115159050919050565b6116bd816116a8565b81146116c857600080fd5b50565b6000815190506116da816116b4565b92915050565b6000602082840312156116f6576116f5610ecc565b5b6000611704848285016116cb565b91505092915050565b600061171882610ed6565b91506000820361172b5761172a6114b0565b5b600182039050919050565b7f4e487b7100000000000000000000000000000000000000000000000000000000600052603160045260246000fd5b600060608201905061177a6000830186610f6b565b6117876020830185610f6b565b6117946040830184610f95565b94935050505056fea2646970667358221220d33c0ca930aeff0da801012c7286513e08deb4c92917756f9eda0783e81c2a2564736f6c63430008120033",
			"opcodes": "PUSH1 0x80 PUSH1 0x40 MSTORE PUSH1 0x12 PUSH1 0x2 SSTORE PUSH7 0x2386F26FC10000 PUSH1 0x3 SSTORE PUSH3 0x15180 PUSH1 0x2 SLOAD PUSH1 0xA PUSH3 0x29 SWAP2 SWAP1 PUSH3 0x290 JUMP JUMPDEST PUSH2 0x21C0 PUSH3 0x38 SWAP2 SWAP1 PUSH3 0x2E1 JUMP JUMPDEST PUSH3 0x44 SWAP2 SWAP1 PUSH3 0x35B JUMP JUMPDEST PUSH1 0x4 SSTORE CALLVALUE DUP1 ISZERO PUSH3 0x54 JUMPI PUSH1 0x0 DUP1 REVERT JUMPDEST POP PUSH1 0x40 MLOAD PUSH3 0x1C26 CODESIZE SUB DUP1 PUSH3 0x1C26 DUP4 CODECOPY DUP2 DUP2 ADD PUSH1 0x40 MSTORE DUP2 ADD SWAP1 PUSH3 0x7A SWAP2 SWAP1 PUSH3 0x3FD JUMP JUMPDEST DUP2 PUSH1 0x0 DUP1 PUSH2 0x100 EXP DUP2 SLOAD DUP2 PUSH20 0xFFFFFFFFFFFFFFFFFFFFFFFFFFFFFFFFFFFFFFFF MUL NOT AND SWAP1 DUP4 PUSH20 0xFFFFFFFFFFFFFFFFFFFFFFFFFFFFFFFFFFFFFFFF AND MUL OR SWAP1 SSTORE POP DUP1 PUSH1 0x1 PUSH1 0x0 PUSH2 0x100 EXP DUP2 SLOAD DUP2 PUSH20 0xFFFFFFFFFFFFFFFFFFFFFFFFFFFFFFFFFFFFFFFF MUL NOT AND SWAP1 DUP4 PUSH20 0xFFFFFFFFFFFFFFFFFFFFFFFFFFFFFFFFFFFFFFFF AND MUL OR SWAP1 SSTORE POP POP POP PUSH3 0x444 JUMP JUMPDEST PUSH32 0x4E487B7100000000000000000000000000000000000000000000000000000000 PUSH1 0x0 MSTORE PUSH1 0x11 PUSH1 0x4 MSTORE PUSH1 0x24 PUSH1 0x0 REVERT JUMPDEST PUSH1 0x0 DUP2 PUSH1 0x1 SHR SWAP1 POP SWAP2 SWAP1 POP JUMP JUMPDEST PUSH1 0x0 DUP1 DUP3 SWAP2 POP DUP4 SWAP1 POP JUMPDEST PUSH1 0x1 DUP6 GT ISZERO PUSH3 0x191 JUMPI DUP1 DUP7 DIV DUP2 GT ISZERO PUSH3 0x169 JUMPI PUSH3 0x168 PUSH3 0x103 JUMP JUMPDEST JUMPDEST PUSH1 0x1 DUP6 AND ISZERO PUSH3 0x179 JUMPI DUP1 DUP3 MUL SWAP2 POP JUMPDEST DUP1 DUP2 MUL SWAP1 POP PUSH3 0x189 DUP6 PUSH3 0x132 JUMP JUMPDEST SWAP5 POP PUSH3 0x149 JUMP JUMPDEST SWAP5 POP SWAP5 SWAP3 POP POP POP JUMP JUMPDEST PUSH1 0x0 DUP3 PUSH3 0x1AC JUMPI PUSH1 0x1 SWAP1 POP PUSH3 0x27F JUMP JUMPDEST DUP2 PUSH3 0x1BC JUMPI PUSH1 0x0 SWAP1 POP PUSH3 0x27F JUMP JUMPDEST DUP2 PUSH1 0x1 DUP2 EQ PUSH3 0x1D5 JUMPI PUSH1 0x2 DUP2 EQ PUSH3 0x1E0 JUMPI PUSH3 0x216 JUMP JUMPDEST PUSH1 0x1 SWAP2 POP POP PUSH3 0x27F JUMP JUMPDEST PUSH1 0xFF DUP5 GT ISZERO PUSH3 0x1F5 JUMPI PUSH3 0x1F4 PUSH3 0x103 JUMP JUMPDEST JUMPDEST DUP4 PUSH1 0x2 EXP SWAP2 POP DUP5 DUP3 GT ISZERO PUSH3 0x20F JUMPI PUSH3 0x20E PUSH3 0x103 JUMP JUMPDEST JUMPDEST POP PUSH3 0x27F JUMP JUMPDEST POP PUSH1 0x20 DUP4 LT PUSH2 0x133 DUP4 LT AND PUSH1 0x4E DUP5 LT PUSH1 0xB DUP5 LT AND OR ISZERO PUSH3 0x250 JUMPI DUP3 DUP3 EXP SWAP1 POP DUP4 DUP2 GT ISZERO PUSH3 0x24A JUMPI PUSH3 0x249 PUSH3 0x103 JUMP JUMPDEST JUMPDEST PUSH3 0x27F JUMP JUMPDEST PUSH3 0x25F DUP5 DUP5 DUP5 PUSH1 0x1 PUSH3 0x13F JUMP JUMPDEST SWAP3 POP SWAP1 POP DUP2 DUP5 DIV DUP2 GT ISZERO PUSH3 0x279 JUMPI PUSH3 0x278 PUSH3 0x103 JUMP JUMPDEST JUMPDEST DUP2 DUP2 MUL SWAP1 POP JUMPDEST SWAP4 SWAP3 POP POP POP JUMP JUMPDEST PUSH1 0x0 DUP2 SWAP1 POP SWAP2 SWAP1 POP JUMP JUMPDEST PUSH1 0x0 PUSH3 0x29D DUP3 PUSH3 0x286 JUMP JUMPDEST SWAP2 POP PUSH3 0x2AA DUP4 PUSH3 0x286 JUMP JUMPDEST SWAP3 POP PUSH3 0x2D9 PUSH32 0xFFFFFFFFFFFFFFFFFFFFFFFFFFFFFFFFFFFFFFFFFFFFFFFFFFFFFFFFFFFFFFFF DUP5 DUP5 PUSH3 0x19A JUMP JUMPDEST SWAP1 POP SWAP3 SWAP2 POP POP JUMP JUMPDEST PUSH1 0x0 PUSH3 0x2EE DUP3 PUSH3 0x286 JUMP JUMPDEST SWAP2 POP PUSH3 0x2FB DUP4 PUSH3 0x286 JUMP JUMPDEST SWAP3 POP DUP3 DUP3 MUL PUSH3 0x30B DUP2 PUSH3 0x286 JUMP JUMPDEST SWAP2 POP DUP3 DUP3 DIV DUP5 EQ DUP4 ISZERO OR PUSH3 0x325 JUMPI PUSH3 0x324 PUSH3 0x103 JUMP JUMPDEST JUMPDEST POP SWAP3 SWAP2 POP POP JUMP JUMPDEST PUSH32 0x4E487B7100000000000000000000000000000000000000000000000000000000 PUSH1 0x0 MSTORE PUSH1 0x12 PUSH1 0x4 MSTORE PUSH1 0x24 PUSH1 0x0 REVERT JUMPDEST PUSH1 0x0 PUSH3 0x368 DUP3 PUSH3 0x286 JUMP JUMPDEST SWAP2 POP PUSH3 0x375 DUP4 PUSH3 0x286 JUMP JUMPDEST SWAP3 POP DUP3 PUSH3 0x388 JUMPI PUSH3 0x387 PUSH3 0x32C JUMP JUMPDEST JUMPDEST DUP3 DUP3 DIV SWAP1 POP SWAP3 SWAP2 POP POP JUMP JUMPDEST PUSH1 0x0 DUP1 REVERT JUMPDEST PUSH1 0x0 PUSH20 0xFFFFFFFFFFFFFFFFFFFFFFFFFFFFFFFFFFFFFFFF DUP3 AND SWAP1 POP SWAP2 SWAP1 POP JUMP JUMPDEST PUSH1 0x0 PUSH3 0x3C5 DUP3 PUSH3 0x398 JUMP JUMPDEST SWAP1 POP SWAP2 SWAP1 POP JUMP JUMPDEST PUSH3 0x3D7 DUP2 PUSH3 0x3B8 JUMP JUMPDEST DUP2 EQ PUSH3 0x3E3 JUMPI PUSH1 0x0 DUP1 REVERT JUMPDEST POP JUMP JUMPDEST PUSH1 0x0 DUP2 MLOAD SWAP1 POP PUSH3 0x3F7 DUP2 PUSH3 0x3CC JUMP JUMPDEST SWAP3 SWAP2 POP POP JUMP JUMPDEST PUSH1 0x0 DUP1 PUSH1 0x40 DUP4 DUP6 SUB SLT ISZERO PUSH3 0x417 JUMPI PUSH3 0x416 PUSH3 0x393 JUMP JUMPDEST JUMPDEST PUSH1 0x0 PUSH3 0x427 DUP6 DUP3 DUP7 ADD PUSH3 0x3E6 JUMP JUMPDEST SWAP3 POP POP PUSH1 0x20 PUSH3 0x43A DUP6 DUP3 DUP7 ADD PUSH3 0x3E6 JUMP JUMPDEST SWAP2 POP POP SWAP3 POP SWAP3 SWAP1 POP JUMP JUMPDEST PUSH2 0x17D2 DUP1 PUSH3 0x454 PUSH1 0x0 CODECOPY PUSH1 0x0 RETURN INVALID PUSH1 0x80 PUSH1 0x40 MSTORE CALLVALUE DUP1 ISZERO PUSH2 0x10 JUMPI PUSH1 0x0 DUP1 REVERT JUMPDEST POP PUSH1 0x4 CALLDATASIZE LT PUSH2 0xEA JUMPI PUSH1 0x0 CALLDATALOAD PUSH1 0xE0 SHR DUP1 PUSH4 0x6745782B GT PUSH2 0x8C JUMPI DUP1 PUSH4 0xA694FC3A GT PUSH2 0x66 JUMPI DUP1 PUSH4 0xA694FC3A EQ PUSH2 0x24D JUMPI DUP1 PUSH4 0xD5ABEB01 EQ PUSH2 0x269 JUMPI DUP1 PUSH4 0xEF5CFB8C EQ PUSH2 0x287 JUMPI DUP1 PUSH4 0xF7C618C1 EQ PUSH2 0x2A3 JUMPI PUSH2 0xEA JUMP JUMPDEST DUP1 PUSH4 0x6745782B EQ PUSH2 0x1E1 JUMPI DUP1 PUSH4 0x8DCB4061 EQ PUSH2 0x211 JUMPI DUP1 PUSH4 0x9168AE72 EQ PUSH2 0x21B JUMPI PUSH2 0xEA JUMP JUMPDEST DUP1 PUSH4 0x35322F37 GT PUSH2 0xC8 JUMPI DUP1 PUSH4 0x35322F37 EQ PUSH2 0x159 JUMPI DUP1 PUSH4 0x47CCCA02 EQ PUSH2 0x163 JUMPI DUP1 PUSH4 0x63C28DB1 EQ PUSH2 0x181 JUMPI DUP1 PUSH4 0x64AB8675 EQ PUSH2 0x1B1 JUMPI PUSH2 0xEA JUMP JUMPDEST DUP1 PUSH4 0x1CAAA487 EQ PUSH2 0xEF JUMPI DUP1 PUSH4 0x2C4E722E EQ PUSH2 0x11F JUMPI DUP1 PUSH4 0x2E17DE78 EQ PUSH2 0x13D JUMPI JUMPDEST PUSH1 0x0 DUP1 REVERT JUMPDEST PUSH2 0x109 PUSH1 0x4 DUP1 CALLDATASIZE SUB DUP2 ADD SWAP1 PUSH2 0x104 SWAP2 SWAP1 PUSH2 0xF0C JUMP JUMPDEST PUSH2 0x2C1 JUMP JUMPDEST PUSH1 0x40 MLOAD PUSH2 0x116 SWAP2 SWAP1 PUSH2 0xF7A JUMP JUMPDEST PUSH1 0x40 MLOAD DUP1 SWAP2 SUB SWAP1 RETURN JUMPDEST PUSH2 0x127 PUSH2 0x2F4 JUMP JUMPDEST PUSH1 0x40 MLOAD PUSH2 0x134 SWAP2 SWAP1 PUSH2 0xFA4 JUMP JUMPDEST PUSH1 0x40 MLOAD DUP1 SWAP2 SUB SWAP1 RETURN JUMPDEST PUSH2 0x157 PUSH1 0x4 DUP1 CALLDATASIZE SUB DUP2 ADD SWAP1 PUSH2 0x152 SWAP2 SWAP1 PUSH2 0xF0C JUMP JUMPDEST PUSH2 0x2FA JUMP JUMPDEST STOP JUMPDEST PUSH2 0x161 PUSH2 0x3A8 JUMP JUMPDEST STOP JUMPDEST PUSH2 0x16B PUSH2 0x4C2 JUMP JUMPDEST PUSH1 0x40 MLOAD PUSH2 0x178 SWAP2 SWAP1 PUSH2 0x101E JUMP JUMPDEST PUSH1 0x40 MLOAD DUP1 SWAP2 SUB SWAP1 RETURN JUMPDEST PUSH2 0x19B PUSH1 0x4 DUP1 CALLDATASIZE SUB DUP2 ADD SWAP1 PUSH2 0x196 SWAP2 SWAP1 PUSH2 0x1065 JUMP JUMPDEST PUSH2 0x4E6 JUMP JUMPDEST PUSH1 0x40 MLOAD PUSH2 0x1A8 SWAP2 SWAP1 PUSH2 0x1150 JUMP JUMPDEST PUSH1 0x40 MLOAD DUP1 SWAP2 SUB SWAP1 RETURN JUMPDEST PUSH2 0x1CB PUSH1 0x4 DUP1 CALLDATASIZE SUB DUP2 ADD SWAP1 PUSH2 0x1C6 SWAP2 SWAP1 PUSH2 0x1065 JUMP JUMPDEST PUSH2 0x580 JUMP JUMPDEST PUSH1 0x40 MLOAD PUSH2 0x1D8 SWAP2 SWAP1 PUSH2 0xFA4 JUMP JUMPDEST PUSH1 0x40 MLOAD DUP1 SWAP2 SUB SWAP1 RETURN JUMPDEST PUSH2 0x1FB PUSH1 0x4 DUP1 CALLDATASIZE SUB DUP2 ADD SWAP1 PUSH2 0x1F6 SWAP2 SWAP1 PUSH2 0x12B8 JUMP JUMPDEST PUSH2 0x636 JUMP JUMPDEST PUSH1 0x40 MLOAD PUSH2 0x208 SWAP2 SWAP1 PUSH2 0x1376 JUMP JUMPDEST PUSH1 0x40 MLOAD DUP1 SWAP2 SUB SWAP1 RETURN JUMPDEST PUSH2 0x219 PUSH2 0x64A JUMP JUMPDEST STOP JUMPDEST PUSH2 0x235 PUSH1 0x4 DUP1 CALLDATASIZE SUB DUP2 ADD SWAP1 PUSH2 0x230 SWAP2 SWAP1 PUSH2 0x1065 JUMP JUMPDEST PUSH2 0x857 JUMP JUMPDEST PUSH1 0x40 MLOAD PUSH2 0x244 SWAP4 SWAP3 SWAP2 SWAP1 PUSH2 0x1391 JUMP JUMPDEST PUSH1 0x40 MLOAD DUP1 SWAP2 SUB SWAP1 RETURN JUMPDEST PUSH2 0x267 PUSH1 0x4 DUP1 CALLDATASIZE SUB DUP2 ADD SWAP1 PUSH2 0x262 SWAP2 SWAP1 PUSH2 0xF0C JUMP JUMPDEST PUSH2 0x881 JUMP JUMPDEST STOP JUMPDEST PUSH2 0x271 PUSH2 0x88E JUMP JUMPDEST PUSH1 0x40 MLOAD PUSH2 0x27E SWAP2 SWAP1 PUSH2 0xFA4 JUMP JUMPDEST PUSH1 0x40 MLOAD DUP1 SWAP2 SUB SWAP1 RETURN JUMPDEST PUSH2 0x2A1 PUSH1 0x4 DUP1 CALLDATASIZE SUB DUP2 ADD SWAP1 PUSH2 0x29C SWAP2 SWAP1 PUSH2 0x1065 JUMP JUMPDEST PUSH2 0x894 JUMP JUMPDEST STOP JUMPDEST PUSH2 0x2AB PUSH2 0xA28 JUMP JUMPDEST PUSH1 0x40 MLOAD PUSH2 0x2B8 SWAP2 SWAP1 PUSH2 0x13E9 JUMP JUMPDEST PUSH1 0x40 MLOAD DUP1 SWAP2 SUB SWAP1 RETURN JUMPDEST PUSH1 0x6 PUSH1 0x20 MSTORE DUP1 PUSH1 0x0 MSTORE PUSH1 0x40 PUSH1 0x0 KECCAK256 PUSH1 0x0 SWAP2 POP SLOAD SWAP1 PUSH2 0x100 EXP SWAP1 DIV PUSH20 0xFFFFFFFFFFFFFFFFFFFFFFFFFFFFFFFFFFFFFFFF AND DUP2 JUMP JUMPDEST PUSH1 0x4 SLOAD DUP2 JUMP JUMPDEST CALLER PUSH20 0xFFFFFFFFFFFFFFFFFFFFFFFFFFFFFFFFFFFFFFFF AND PUSH1 0x6 PUSH1 0x0 DUP4 DUP2 MSTORE PUSH1 0x20 ADD SWAP1 DUP2 MSTORE PUSH1 0x20 ADD PUSH1 0x0 KECCAK256 PUSH1 0x0 SWAP1 SLOAD SWAP1 PUSH2 0x100 EXP SWAP1 DIV PUSH20 0xFFFFFFFFFFFFFFFFFFFFFFFFFFFFFFFFFFFFFFFF AND PUSH20 0xFFFFFFFFFFFFFFFFFFFFFFFFFFFFFFFFFFFFFFFF AND EQ PUSH2 0x39B JUMPI PUSH1 0x40 MLOAD PUSH32 0x8C379A000000000000000000000000000000000000000000000000000000000 DUP2 MSTORE PUSH1 0x4 ADD PUSH2 0x392 SWAP1 PUSH2 0x1461 JUMP JUMPDEST PUSH1 0x40 MLOAD DUP1 SWAP2 SUB SWAP1 REVERT JUMPDEST PUSH2 0x3A5 CALLER DUP3 PUSH2 0xA4E JUMP JUMPDEST POP JUMP JUMPDEST PUSH1 0x0 PUSH1 0x5 PUSH1 0x0 CALLER PUSH20 0xFFFFFFFFFFFFFFFFFFFFFFFFFFFFFFFFFFFFFFFF AND PUSH20 0xFFFFFFFFFFFFFFFFFFFFFFFFFFFFFFFFFFFFFFFF AND DUP2 MSTORE PUSH1 0x20 ADD SWAP1 DUP2 MSTORE PUSH1 0x20 ADD PUSH1 0x0 KECCAK256 SWAP1 POP PUSH1 0x0 JUMPDEST DUP2 PUSH1 0x1 ADD SLOAD DUP2 LT ISZERO PUSH2 0x4BE JUMPI CALLER PUSH20 0xFFFFFFFFFFFFFFFFFFFFFFFFFFFFFFFFFFFFFFFF AND PUSH1 0x6 PUSH1 0x0 DUP5 PUSH1 0x0 ADD DUP5 DUP2 SLOAD DUP2 LT PUSH2 0x42B JUMPI PUSH2 0x42A PUSH2 0x1481 JUMP JUMPDEST JUMPDEST SWAP1 PUSH1 0x0 MSTORE PUSH1 0x20 PUSH1 0x0 KECCAK256 ADD SLOAD DUP2 MSTORE PUSH1 0x20 ADD SWAP1 DUP2 MSTORE PUSH1 0x20 ADD PUSH1 0x0 KECCAK256 PUSH1 0x0 SWAP1 SLOAD SWAP1 PUSH2 0x100 EXP SWAP1 DIV PUSH20 0xFFFFFFFFFFFFFFFFFFFFFFFFFFFFFFFFFFFFFFFF AND PUSH20 0xFFFFFFFFFFFFFFFFFFFFFFFFFFFFFFFFFFFFFFFF AND SUB PUSH2 0x4AB JUMPI PUSH2 0x4AA CALLER DUP4 PUSH1 0x0 ADD DUP4 DUP2 SLOAD DUP2 LT PUSH2 0x49A JUMPI PUSH2 0x499 PUSH2 0x1481 JUMP JUMPDEST JUMPDEST SWAP1 PUSH1 0x0 MSTORE PUSH1 0x20 PUSH1 0x0 KECCAK256 ADD SLOAD PUSH2 0xA4E JUMP JUMPDEST JUMPDEST DUP1 DUP1 PUSH2 0x4B6 SWAP1 PUSH2 0x14DF JUMP JUMPDEST SWAP2 POP POP PUSH2 0x3EE JUMP JUMPDEST POP POP JUMP JUMPDEST PUSH1 0x0 DUP1 SLOAD SWAP1 PUSH2 0x100 EXP SWAP1 DIV PUSH20 0xFFFFFFFFFFFFFFFFFFFFFFFFFFFFFFFFFFFFFFFF AND DUP2 JUMP JUMPDEST PUSH1 0x60 PUSH1 0x5 PUSH1 0x0 DUP4 PUSH20 0xFFFFFFFFFFFFFFFFFFFFFFFFFFFFFFFFFFFFFFFF AND PUSH20 0xFFFFFFFFFFFFFFFFFFFFFFFFFFFFFFFFFFFFFFFF AND DUP2 MSTORE PUSH1 0x20 ADD SWAP1 DUP2 MSTORE PUSH1 0x20 ADD PUSH1 0x0 KECCAK256 PUSH1 0x0 ADD DUP1 SLOAD DUP1 PUSH1 0x20 MUL PUSH1 0x20 ADD PUSH1 0x40 MLOAD SWAP1 DUP2 ADD PUSH1 0x40 MSTORE DUP1 SWAP3 SWAP2 SWAP1 DUP2 DUP2 MSTORE PUSH1 0x20 ADD DUP3 DUP1 SLOAD DUP1 ISZERO PUSH2 0x574 JUMPI PUSH1 0x20 MUL DUP3 ADD SWAP2 SWAP1 PUSH1 0x0 MSTORE PUSH1 0x20 PUSH1 0x0 KECCAK256 SWAP1 JUMPDEST DUP2 SLOAD DUP2 MSTORE PUSH1 0x20 ADD SWAP1 PUSH1 0x1 ADD SWAP1 DUP1 DUP4 GT PUSH2 0x560 JUMPI JUMPDEST POP POP POP POP POP SWAP1 POP SWAP2 SWAP1 POP JUMP JUMPDEST PUSH1 0x0 DUP1 PUSH1 0x5 PUSH1 0x0 DUP5 PUSH20 0xFFFFFFFFFFFFFFFFFFFFFFFFFFFFFFFFFFFFFFFF AND PUSH20 0xFFFFFFFFFFFFFFFFFFFFFFFFFFFFFFFFFFFFFFFF AND DUP2 MSTORE PUSH1 0x20 ADD SWAP1 DUP2 MSTORE PUSH1 0x20 ADD PUSH1 0x0 KECCAK256 PUSH1 0x1 ADD SLOAD PUSH1 0x5 PUSH1 0x0 DUP6 PUSH20 0xFFFFFFFFFFFFFFFFFFFFFFFFFFFFFFFFFFFFFFFF AND PUSH20 0xFFFFFFFFFFFFFFFFFFFFFFFFFFFFFFFFFFFFFFFF AND DUP2 MSTORE PUSH1 0x20 ADD SWAP1 DUP2 MSTORE PUSH1 0x20 ADD PUSH1 0x0 KECCAK256 PUSH1 0x2 ADD SLOAD TIMESTAMP PUSH2 0x614 SWAP2 SWAP1 PUSH2 0x1527 JUMP JUMPDEST PUSH2 0x61E SWAP2 SWAP1 PUSH2 0x155B JUMP JUMPDEST SWAP1 POP PUSH1 0x4 SLOAD DUP2 PUSH2 0x62E SWAP2 SWAP1 PUSH2 0x155B JUMP JUMPDEST SWAP2 POP POP SWAP2 SWAP1 POP JUMP JUMPDEST PUSH1 0x0 PUSH4 0x6745782B PUSH1 0xE0 SHL SWAP1 POP SWAP5 SWAP4 POP POP POP POP JUMP JUMPDEST PUSH1 0x0 DUP1 PUSH1 0x0 SWAP1 SLOAD SWAP1 PUSH2 0x100 EXP SWAP1 DIV PUSH20 0xFFFFFFFFFFFFFFFFFFFFFFFFFFFFFFFFFFFFFFFF AND PUSH20 0xFFFFFFFFFFFFFFFFFFFFFFFFFFFFFFFFFFFFFFFF AND PUSH4 0x70A08231 CALLER PUSH1 0x40 MLOAD DUP3 PUSH4 0xFFFFFFFF AND PUSH1 0xE0 SHL DUP2 MSTORE PUSH1 0x4 ADD PUSH2 0x6A6 SWAP2 SWAP1 PUSH2 0xF7A JUMP JUMPDEST PUSH1 0x20 PUSH1 0x40 MLOAD DUP1 DUP4 SUB DUP2 DUP7 GAS STATICCALL ISZERO DUP1 ISZERO PUSH2 0x6C3 JUMPI RETURNDATASIZE PUSH1 0x0 DUP1 RETURNDATACOPY RETURNDATASIZE PUSH1 0x0 REVERT JUMPDEST POP POP POP POP PUSH1 0x40 MLOAD RETURNDATASIZE PUSH1 0x1F NOT PUSH1 0x1F DUP3 ADD AND DUP3 ADD DUP1 PUSH1 0x40 MSTORE POP DUP2 ADD SWAP1 PUSH2 0x6E7 SWAP2 SWAP1 PUSH2 0x15B2 JUMP JUMPDEST SWAP1 POP PUSH1 0x0 DUP2 PUSH8 0xFFFFFFFFFFFFFFFF DUP2 GT ISZERO PUSH2 0x705 JUMPI PUSH2 0x704 PUSH2 0x118D JUMP JUMPDEST JUMPDEST PUSH1 0x40 MLOAD SWAP1 DUP1 DUP3 MSTORE DUP1 PUSH1 0x20 MUL PUSH1 0x20 ADD DUP3 ADD PUSH1 0x40 MSTORE DUP1 ISZERO PUSH2 0x733 JUMPI DUP2 PUSH1 0x20 ADD PUSH1 0x20 DUP3 MUL DUP1 CALLDATASIZE DUP4 CALLDATACOPY DUP1 DUP3 ADD SWAP2 POP POP SWAP1 POP JUMPDEST POP SWAP1 POP PUSH1 0x0 JUMPDEST DUP3 DUP2 LT ISZERO PUSH2 0x80F JUMPI PUSH1 0x0 DUP1 SLOAD SWAP1 PUSH2 0x100 EXP SWAP1 DIV PUSH20 0xFFFFFFFFFFFFFFFFFFFFFFFFFFFFFFFFFFFFFFFF AND PUSH20 0xFFFFFFFFFFFFFFFFFFFFFFFFFFFFFFFFFFFFFFFF AND PUSH4 0x2F745C59 CALLER DUP4 PUSH1 0x40 MLOAD DUP4 PUSH4 0xFFFFFFFF AND PUSH1 0xE0 SHL DUP2 MSTORE PUSH1 0x4 ADD PUSH2 0x79C SWAP3 SWAP2 SWAP1 PUSH2 0x15DF JUMP JUMPDEST PUSH1 0x20 PUSH1 0x40 MLOAD DUP1 DUP4 SUB DUP2 DUP7 GAS STATICCALL ISZERO DUP1 ISZERO PUSH2 0x7B9 JUMPI RETURNDATASIZE PUSH1 0x0 DUP1 RETURNDATACOPY RETURNDATASIZE PUSH1 0x0 REVERT JUMPDEST POP POP POP POP PUSH1 0x40 MLOAD RETURNDATASIZE PUSH1 0x1F NOT PUSH1 0x1F DUP3 ADD AND DUP3 ADD DUP1 PUSH1 0x40 MSTORE POP DUP2 ADD SWAP1 PUSH2 0x7DD SWAP2 SWAP1 PUSH2 0x15B2 JUMP JUMPDEST DUP3 DUP3 DUP2 MLOAD DUP2 LT PUSH2 0x7F0 JUMPI PUSH2 0x7EF PUSH2 0x1481 JUMP JUMPDEST JUMPDEST PUSH1 0x20 MUL PUSH1 0x20 ADD ADD DUP2 DUP2 MSTORE POP POP DUP1 DUP1 PUSH2 0x807 SWAP1 PUSH2 0x14DF JUMP JUMPDEST SWAP2 POP POP PUSH2 0x739 JUMP JUMPDEST POP PUSH1 0x0 JUMPDEST DUP3 DUP2 LT ISZERO PUSH2 0x852 JUMPI PUSH2 0x83F CALLER DUP4 DUP4 DUP2 MLOAD DUP2 LT PUSH2 0x832 JUMPI PUSH2 0x831 PUSH2 0x1481 JUMP JUMPDEST JUMPDEST PUSH1 0x20 MUL PUSH1 0x20 ADD ADD MLOAD PUSH2 0xC61 JUMP JUMPDEST DUP1 DUP1 PUSH2 0x84A SWAP1 PUSH2 0x14DF JUMP JUMPDEST SWAP2 POP POP PUSH2 0x813 JUMP JUMPDEST POP POP POP JUMP JUMPDEST PUSH1 0x5 PUSH1 0x20 MSTORE DUP1 PUSH1 0x0 MSTORE PUSH1 0x40 PUSH1 0x0 KECCAK256 PUSH1 0x0 SWAP2 POP SWAP1 POP DUP1 PUSH1 0x1 ADD SLOAD SWAP1 DUP1 PUSH1 0x2 ADD SLOAD SWAP1 DUP1 PUSH1 0x3 ADD SLOAD SWAP1 POP DUP4 JUMP JUMPDEST PUSH2 0x88B CALLER DUP3 PUSH2 0xC61 JUMP JUMPDEST POP JUMP JUMPDEST PUSH1 0x3 SLOAD DUP2 JUMP JUMPDEST PUSH1 0x0 PUSH1 0x5 PUSH1 0x0 DUP4 PUSH20 0xFFFFFFFFFFFFFFFFFFFFFFFFFFFFFFFFFFFFFFFF AND PUSH20 0xFFFFFFFFFFFFFFFFFFFFFFFFFFFFFFFFFFFFFFFF AND DUP2 MSTORE PUSH1 0x20 ADD SWAP1 DUP2 MSTORE PUSH1 0x20 ADD PUSH1 0x0 KECCAK256 SWAP1 POP PUSH1 0x0 DUP2 PUSH1 0x3 ADD SLOAD PUSH2 0x8E7 DUP5 PUSH2 0x580 JUMP JUMPDEST PUSH2 0x8F1 SWAP2 SWAP1 PUSH2 0x1608 JUMP JUMPDEST SWAP1 POP PUSH1 0x0 DUP2 GT PUSH2 0x936 JUMPI PUSH1 0x40 MLOAD PUSH32 0x8C379A000000000000000000000000000000000000000000000000000000000 DUP2 MSTORE PUSH1 0x4 ADD PUSH2 0x92D SWAP1 PUSH2 0x1688 JUMP JUMPDEST PUSH1 0x40 MLOAD DUP1 SWAP2 SUB SWAP1 REVERT JUMPDEST TIMESTAMP DUP3 PUSH1 0x2 ADD DUP2 SWAP1 SSTORE POP PUSH1 0x0 DUP3 PUSH1 0x3 ADD DUP2 SWAP1 SSTORE POP PUSH1 0x1 PUSH1 0x0 SWAP1 SLOAD SWAP1 PUSH2 0x100 EXP SWAP1 DIV PUSH20 0xFFFFFFFFFFFFFFFFFFFFFFFFFFFFFFFFFFFFFFFF AND PUSH20 0xFFFFFFFFFFFFFFFFFFFFFFFFFFFFFFFFFFFFFFFF AND PUSH4 0xA9059CBB DUP5 DUP4 PUSH1 0x40 MLOAD DUP4 PUSH4 0xFFFFFFFF AND PUSH1 0xE0 SHL DUP2 MSTORE PUSH1 0x4 ADD PUSH2 0x9A6 SWAP3 SWAP2 SWAP1 PUSH2 0x15DF JUMP JUMPDEST PUSH1 0x20 PUSH1 0x40 MLOAD DUP1 DUP4 SUB DUP2 PUSH1 0x0 DUP8 GAS CALL ISZERO DUP1 ISZERO PUSH2 0x9C5 JUMPI RETURNDATASIZE PUSH1 0x0 DUP1 RETURNDATACOPY RETURNDATASIZE PUSH1 0x0 REVERT JUMPDEST POP POP POP POP PUSH1 0x40 MLOAD RETURNDATASIZE PUSH1 0x1F NOT PUSH1 0x1F DUP3 ADD AND DUP3 ADD DUP1 PUSH1 0x40 MSTORE POP DUP2 ADD SWAP1 PUSH2 0x9E9 SWAP2 SWAP1 PUSH2 0x16E0 JUMP JUMPDEST POP PUSH32 0xE2403640BA68FED3A2F88B7557551D1993F84B99BB10FF833F0CF8DB0C5E0486 DUP4 DUP3 PUSH1 0x40 MLOAD PUSH2 0xA1B SWAP3 SWAP2 SWAP1 PUSH2 0x15DF JUMP JUMPDEST PUSH1 0x40 MLOAD DUP1 SWAP2 SUB SWAP1 LOG1 POP POP POP JUMP JUMPDEST PUSH1 0x1 PUSH1 0x0 SWAP1 SLOAD SWAP1 PUSH2 0x100 EXP SWAP1 DIV PUSH20 0xFFFFFFFFFFFFFFFFFFFFFFFFFFFFFFFFFFFFFFFF AND DUP2 JUMP JUMPDEST PUSH1 0x0 PUSH1 0x5 PUSH1 0x0 DUP5 PUSH20 0xFFFFFFFFFFFFFFFFFFFFFFFFFFFFFFFFFFFFFFFF AND PUSH20 0xFFFFFFFFFFFFFFFFFFFFFFFFFFFFFFFFFFFFFFFF AND DUP2 MSTORE PUSH1 0x20 ADD SWAP1 DUP2 MSTORE PUSH1 0x20 ADD PUSH1 0x0 KECCAK256 SWAP1 POP PUSH2 0xA9A DUP4 PUSH2 0x894 JUMP JUMPDEST DUP1 PUSH1 0x1 ADD PUSH1 0x0 DUP2 SLOAD DUP1 SWAP3 SWAP2 SWAP1 PUSH2 0xAAF SWAP1 PUSH2 0x170D JUMP JUMPDEST SWAP2 SWAP1 POP SSTORE POP DUP1 PUSH1 0x0 ADD DUP1 SLOAD DUP1 PUSH2 0xAC8 JUMPI PUSH2 0xAC7 PUSH2 0x1736 JUMP JUMPDEST JUMPDEST PUSH1 0x1 SWAP1 SUB DUP2 DUP2 SWAP1 PUSH1 0x0 MSTORE PUSH1 0x20 PUSH1 0x0 KECCAK256 ADD PUSH1 0x0 SWAP1 SSTORE SWAP1 SSTORE TIMESTAMP DUP2 PUSH1 0x2 ADD DUP2 SWAP1 SSTORE POP PUSH1 0x0 DUP2 PUSH1 0x1 ADD SLOAD SUB PUSH2 0xB5E JUMPI PUSH1 0x5 PUSH1 0x0 DUP5 PUSH20 0xFFFFFFFFFFFFFFFFFFFFFFFFFFFFFFFFFFFFFFFF AND PUSH20 0xFFFFFFFFFFFFFFFFFFFFFFFFFFFFFFFFFFFFFFFF AND DUP2 MSTORE PUSH1 0x20 ADD SWAP1 DUP2 MSTORE PUSH1 0x20 ADD PUSH1 0x0 KECCAK256 PUSH1 0x0 DUP1 DUP3 ADD PUSH1 0x0 PUSH2 0xB43 SWAP2 SWAP1 PUSH2 0xE84 JUMP JUMPDEST PUSH1 0x1 DUP3 ADD PUSH1 0x0 SWAP1 SSTORE PUSH1 0x2 DUP3 ADD PUSH1 0x0 SWAP1 SSTORE PUSH1 0x3 DUP3 ADD PUSH1 0x0 SWAP1 SSTORE POP POP JUMPDEST PUSH1 0x6 PUSH1 0x0 DUP4 DUP2 MSTORE PUSH1 0x20 ADD SWAP1 DUP2 MSTORE PUSH1 0x20 ADD PUSH1 0x0 KECCAK256 PUSH1 0x0 PUSH2 0x100 EXP DUP2 SLOAD SWAP1 PUSH20 0xFFFFFFFFFFFFFFFFFFFFFFFFFFFFFFFFFFFFFFFF MUL NOT AND SWAP1 SSTORE PUSH1 0x0 DUP1 SLOAD SWAP1 PUSH2 0x100 EXP SWAP1 DIV PUSH20 0xFFFFFFFFFFFFFFFFFFFFFFFFFFFFFFFFFFFFFFFF AND PUSH20 0xFFFFFFFFFFFFFFFFFFFFFFFFFFFFFFFFFFFFFFFF AND PUSH4 0x42842E0E ADDRESS DUP6 DUP6 PUSH1 0x40 MLOAD DUP5 PUSH4 0xFFFFFFFF AND PUSH1 0xE0 SHL DUP2 MSTORE PUSH1 0x4 ADD PUSH2 0xBF1 SWAP4 SWAP3 SWAP2 SWAP1 PUSH2 0x1765 JUMP JUMPDEST PUSH1 0x0 PUSH1 0x40 MLOAD DUP1 DUP4 SUB DUP2 PUSH1 0x0 DUP8 DUP1 EXTCODESIZE ISZERO DUP1 ISZERO PUSH2 0xC0B JUMPI PUSH1 0x0 DUP1 REVERT JUMPDEST POP GAS CALL ISZERO DUP1 ISZERO PUSH2 0xC1F JUMPI RETURNDATASIZE PUSH1 0x0 DUP1 RETURNDATACOPY RETURNDATASIZE PUSH1 0x0 REVERT JUMPDEST POP POP POP POP PUSH32 0xF5BB82176FEB1B5E747E28471AA92156A04D9F3AB9F45F28E2D704232B93F75 DUP4 DUP4 PUSH1 0x40 MLOAD PUSH2 0xC54 SWAP3 SWAP2 SWAP1 PUSH2 0x15DF JUMP JUMPDEST PUSH1 0x40 MLOAD DUP1 SWAP2 SUB SWAP1 LOG1 POP POP POP JUMP JUMPDEST PUSH1 0x0 PUSH1 0x5 PUSH1 0x0 DUP5 PUSH20 0xFFFFFFFFFFFFFFFFFFFFFFFFFFFFFFFFFFFFFFFF AND PUSH20 0xFFFFFFFFFFFFFFFFFFFFFFFFFFFFFFFFFFFFFFFF AND DUP2 MSTORE PUSH1 0x20 ADD SWAP1 DUP2 MSTORE PUSH1 0x20 ADD PUSH1 0x0 KECCAK256 SWAP1 POP PUSH2 0xCAD DUP4 PUSH2 0xE11 JUMP JUMPDEST DUP1 PUSH1 0x1 ADD PUSH1 0x0 DUP2 SLOAD DUP1 SWAP3 SWAP2 SWAP1 PUSH2 0xCC2 SWAP1 PUSH2 0x14DF JUMP JUMPDEST SWAP2 SWAP1 POP SSTORE POP DUP1 PUSH1 0x0 ADD DUP3 SWAP1 DUP1 PUSH1 0x1 DUP2 SLOAD ADD DUP1 DUP3 SSTORE DUP1 SWAP2 POP POP PUSH1 0x1 SWAP1 SUB SWAP1 PUSH1 0x0 MSTORE PUSH1 0x20 PUSH1 0x0 KECCAK256 ADD PUSH1 0x0 SWAP1 SWAP2 SWAP1 SWAP2 SWAP1 SWAP2 POP SSTORE DUP3 PUSH1 0x6 PUSH1 0x0 DUP5 DUP2 MSTORE PUSH1 0x20 ADD SWAP1 DUP2 MSTORE PUSH1 0x20 ADD PUSH1 0x0 KECCAK256 PUSH1 0x0 PUSH2 0x100 EXP DUP2 SLOAD DUP2 PUSH20 0xFFFFFFFFFFFFFFFFFFFFFFFFFFFFFFFFFFFFFFFF MUL NOT AND SWAP1 DUP4 PUSH20 0xFFFFFFFFFFFFFFFFFFFFFFFFFFFFFFFFFFFFFFFF AND MUL OR SWAP1 SSTORE POP PUSH1 0x0 DUP1 SLOAD SWAP1 PUSH2 0x100 EXP SWAP1 DIV PUSH20 0xFFFFFFFFFFFFFFFFFFFFFFFFFFFFFFFFFFFFFFFF AND PUSH20 0xFFFFFFFFFFFFFFFFFFFFFFFFFFFFFFFFFFFFFFFF AND PUSH4 0x42842E0E DUP5 ADDRESS DUP6 PUSH1 0x40 MLOAD DUP5 PUSH4 0xFFFFFFFF AND PUSH1 0xE0 SHL DUP2 MSTORE PUSH1 0x4 ADD PUSH2 0xDA1 SWAP4 SWAP3 SWAP2 SWAP1 PUSH2 0x1765 JUMP JUMPDEST PUSH1 0x0 PUSH1 0x40 MLOAD DUP1 DUP4 SUB DUP2 PUSH1 0x0 DUP8 DUP1 EXTCODESIZE ISZERO DUP1 ISZERO PUSH2 0xDBB JUMPI PUSH1 0x0 DUP1 REVERT JUMPDEST POP GAS CALL ISZERO DUP1 ISZERO PUSH2 0xDCF JUMPI RETURNDATASIZE PUSH1 0x0 DUP1 RETURNDATACOPY RETURNDATASIZE PUSH1 0x0 REVERT JUMPDEST POP POP POP POP PUSH32 0x9E71BC8EEA02A63969F509818F2DAFB9254532904319F9DBDA79B67BD34A5F3D DUP4 DUP4 PUSH1 0x40 MLOAD PUSH2 0xE04 SWAP3 SWAP2 SWAP1 PUSH2 0x15DF JUMP JUMPDEST PUSH1 0x40 MLOAD DUP1 SWAP2 SUB SWAP1 LOG1 POP POP POP JUMP JUMPDEST PUSH1 0x0 PUSH1 0x5 PUSH1 0x0 DUP4 PUSH20 0xFFFFFFFFFFFFFFFFFFFFFFFFFFFFFFFFFFFFFFFF AND PUSH20 0xFFFFFFFFFFFFFFFFFFFFFFFFFFFFFFFFFFFFFFFF AND DUP2 MSTORE PUSH1 0x20 ADD SWAP1 DUP2 MSTORE PUSH1 0x20 ADD PUSH1 0x0 KECCAK256 SWAP1 POP PUSH2 0xE5D DUP3 PUSH2 0x580 JUMP JUMPDEST DUP2 PUSH1 0x3 ADD PUSH1 0x0 DUP3 DUP3 SLOAD PUSH2 0xE70 SWAP2 SWAP1 PUSH2 0x1608 JUMP JUMPDEST SWAP3 POP POP DUP2 SWAP1 SSTORE POP TIMESTAMP DUP2 PUSH1 0x2 ADD DUP2 SWAP1 SSTORE POP POP POP JUMP JUMPDEST POP DUP1 SLOAD PUSH1 0x0 DUP3 SSTORE SWAP1 PUSH1 0x0 MSTORE PUSH1 0x20 PUSH1 0x0 KECCAK256 SWAP1 DUP2 ADD SWAP1 PUSH2 0xEA2 SWAP2 SWAP1 PUSH2 0xEA5 JUMP JUMPDEST POP JUMP JUMPDEST JUMPDEST DUP1 DUP3 GT ISZERO PUSH2 0xEBE JUMPI PUSH1 0x0 DUP2 PUSH1 0x0 SWAP1 SSTORE POP PUSH1 0x1 ADD PUSH2 0xEA6 JUMP JUMPDEST POP SWAP1 JUMP JUMPDEST PUSH1 0x0 PUSH1 0x40 MLOAD SWAP1 POP SWAP1 JUMP JUMPDEST PUSH1 0x0 DUP1 REVERT JUMPDEST PUSH1 0x0 DUP1 REVERT JUMPDEST PUSH1 0x0 DUP2 SWAP1 POP SWAP2 SWAP1 POP JUMP JUMPDEST PUSH2 0xEE9 DUP2 PUSH2 0xED6 JUMP JUMPDEST DUP2 EQ PUSH2 0xEF4 JUMPI PUSH1 0x0 DUP1 REVERT JUMPDEST POP JUMP JUMPDEST PUSH1 0x0 DUP2 CALLDATALOAD SWAP1 POP PUSH2 0xF06 DUP2 PUSH2 0xEE0 JUMP JUMPDEST SWAP3 SWAP2 POP POP JUMP JUMPDEST PUSH1 0x0 PUSH1 0x20 DUP3 DUP5 SUB SLT ISZERO PUSH2 0xF22 JUMPI PUSH2 0xF21 PUSH2 0xECC JUMP JUMPDEST JUMPDEST PUSH1 0x0 PUSH2 0xF30 DUP5 DUP3 DUP6 ADD PUSH2 0xEF7 JUMP JUMPDEST SWAP2 POP POP SWAP3 SWAP2 POP POP JUMP JUMPDEST PUSH1 0x0 PUSH20 0xFFFFFFFFFFFFFFFFFFFFFFFFFFFFFFFFFFFFFFFF DUP3 AND SWAP1 POP SWAP2 SWAP1 POP JUMP JUMPDEST PUSH1 0x0 PUSH2 0xF64 DUP3 PUSH2 0xF39 JUMP JUMPDEST SWAP1 POP SWAP2 SWAP1 POP JUMP JUMPDEST PUSH2 0xF74 DUP2 PUSH2 0xF59 JUMP JUMPDEST DUP3 MSTORE POP POP JUMP JUMPDEST PUSH1 0x0 PUSH1 0x20 DUP3 ADD SWAP1 POP PUSH2 0xF8F PUSH1 0x0 DUP4 ADD DUP5 PUSH2 0xF6B JUMP JUMPDEST SWAP3 SWAP2 POP POP JUMP JUMPDEST PUSH2 0xF9E DUP2 PUSH2 0xED6 JUMP JUMPDEST DUP3 MSTORE POP POP JUMP JUMPDEST PUSH1 0x0 PUSH1 0x20 DUP3 ADD SWAP1 POP PUSH2 0xFB9 PUSH1 0x0 DUP4 ADD DUP5 PUSH2 0xF95 JUMP JUMPDEST SWAP3 SWAP2 POP POP JUMP JUMPDEST PUSH1 0x0 DUP2 SWAP1 POP SWAP2 SWAP1 POP JUMP JUMPDEST PUSH1 0x0 PUSH2 0xFE4 PUSH2 0xFDF PUSH2 0xFDA DUP5 PUSH2 0xF39 JUMP JUMPDEST PUSH2 0xFBF JUMP JUMPDEST PUSH2 0xF39 JUMP JUMPDEST SWAP1 POP SWAP2 SWAP1 POP JUMP JUMPDEST PUSH1 0x0 PUSH2 0xFF6 DUP3 PUSH2 0xFC9 JUMP JUMPDEST SWAP1 POP SWAP2 SWAP1 POP JUMP JUMPDEST PUSH1 0x0 PUSH2 0x1008 DUP3 PUSH2 0xFEB JUMP JUMPDEST SWAP1 POP SWAP2 SWAP1 POP JUMP JUMPDEST PUSH2 0x1018 DUP2 PUSH2 0xFFD JUMP JUMPDEST DUP3 MSTORE POP POP JUMP JUMPDEST PUSH1 0x0 PUSH1 0x20 DUP3 ADD SWAP1 POP PUSH2 0x1033 PUSH1 0x0 DUP4 ADD DUP5 PUSH2 0x100F JUMP JUMPDEST SWAP3 SWAP2 POP POP JUMP JUMPDEST PUSH2 0x1042 DUP2 PUSH2 0xF59 JUMP JUMPDEST DUP2 EQ PUSH2 0x104D JUMPI PUSH1 0x0 DUP1 REVERT JUMPDEST POP JUMP JUMPDEST PUSH1 0x0 DUP2 CALLDATALOAD SWAP1 POP PUSH2 0x105F DUP2 PUSH2 0x1039 JUMP JUMPDEST SWAP3 SWAP2 POP POP JUMP JUMPDEST PUSH1 0x0 PUSH1 0x20 DUP3 DUP5 SUB SLT ISZERO PUSH2 0x107B JUMPI PUSH2 0x107A PUSH2 0xECC JUMP JUMPDEST JUMPDEST PUSH1 0x0 PUSH2 0x1089 DUP5 DUP3 DUP6 ADD PUSH2 0x1050 JUMP JUMPDEST SWAP2 POP POP SWAP3 SWAP2 POP POP JUMP JUMPDEST PUSH1 0x0 DUP2 MLOAD SWAP1 POP SWAP2 SWAP1 POP JUMP JUMPDEST PUSH1 0x0 DUP3 DUP3 MSTORE PUSH1 0x20 DUP3 ADD SWAP1 POP SWAP3 SWAP2 POP POP JUMP JUMPDEST PUSH1 0x0 DUP2 SWAP1 POP PUSH1 0x20 DUP3 ADD SWAP1 POP SWAP2 SWAP1 POP JUMP JUMPDEST PUSH2 0x10C7 DUP2 PUSH2 0xED6 JUMP JUMPDEST DUP3 MSTORE POP POP JUMP JUMPDEST PUSH1 0x0 PUSH2 0x10D9 DUP4 DUP4 PUSH2 0x10BE JUMP JUMPDEST PUSH1 0x20 DUP4 ADD SWAP1 POP SWAP3 SWAP2 POP POP JUMP JUMPDEST PUSH1 0x0 PUSH1 0x20 DUP3 ADD SWAP1 POP SWAP2 SWAP1 POP JUMP JUMPDEST PUSH1 0x0 PUSH2 0x10FD DUP3 PUSH2 0x1092 JUMP JUMPDEST PUSH2 0x1107 DUP2 DUP6 PUSH2 0x109D JUMP JUMPDEST SWAP4 POP PUSH2 0x1112 DUP4 PUSH2 0x10AE JUMP JUMPDEST DUP1 PUSH1 0x0 JUMPDEST DUP4 DUP2 LT ISZERO PUSH2 0x1143 JUMPI DUP2 MLOAD PUSH2 0x112A DUP9 DUP3 PUSH2 0x10CD JUMP JUMPDEST SWAP8 POP PUSH2 0x1135 DUP4 PUSH2 0x10E5 JUMP JUMPDEST SWAP3 POP POP PUSH1 0x1 DUP2 ADD SWAP1 POP PUSH2 0x1116 JUMP JUMPDEST POP DUP6 SWAP4 POP POP POP POP SWAP3 SWAP2 POP POP JUMP JUMPDEST PUSH1 0x0 PUSH1 0x20 DUP3 ADD SWAP1 POP DUP2 DUP2 SUB PUSH1 0x0 DUP4 ADD MSTORE PUSH2 0x116A DUP2 DUP5 PUSH2 0x10F2 JUMP JUMPDEST SWAP1 POP SWAP3 SWAP2 POP POP JUMP JUMPDEST PUSH1 0x0 DUP1 REVERT JUMPDEST PUSH1 0x0 DUP1 REVERT JUMPDEST PUSH1 0x0 PUSH1 0x1F NOT PUSH1 0x1F DUP4 ADD AND SWAP1 POP SWAP2 SWAP1 POP JUMP JUMPDEST PUSH32 0x4E487B7100000000000000000000000000000000000000000000000000000000 PUSH1 0x0 MSTORE PUSH1 0x41 PUSH1 0x4 MSTORE PUSH1 0x24 PUSH1 0x0 REVERT JUMPDEST PUSH2 0x11C5 DUP3 PUSH2 0x117C JUMP JUMPDEST DUP2 ADD DUP2 DUP2 LT PUSH8 0xFFFFFFFFFFFFFFFF DUP3 GT OR ISZERO PUSH2 0x11E4 JUMPI PUSH2 0x11E3 PUSH2 0x118D JUMP JUMPDEST JUMPDEST DUP1 PUSH1 0x40 MSTORE POP POP POP JUMP JUMPDEST PUSH1 0x0 PUSH2 0x11F7 PUSH2 0xEC2 JUMP JUMPDEST SWAP1 POP PUSH2 0x1203 DUP3 DUP3 PUSH2 0x11BC JUMP JUMPDEST SWAP2 SWAP1 POP JUMP JUMPDEST PUSH1 0x0 PUSH8 0xFFFFFFFFFFFFFFFF DUP3 GT ISZERO PUSH2 0x1223 JUMPI PUSH2 0x1222 PUSH2 0x118D JUMP JUMPDEST JUMPDEST PUSH2 0x122C DUP3 PUSH2 0x117C JUMP JUMPDEST SWAP1 POP PUSH1 0x20 DUP2 ADD SWAP1 POP SWAP2 SWAP1 POP JUMP JUMPDEST DUP3 DUP2 DUP4 CALLDATACOPY PUSH1 0x0 DUP4 DUP4 ADD MSTORE POP POP POP JUMP JUMPDEST PUSH1 0x0 PUSH2 0x125B PUSH2 0x1256 DUP5 PUSH2 0x1208 JUMP JUMPDEST PUSH2 0x11ED JUMP JUMPDEST SWAP1 POP DUP3 DUP2 MSTORE PUSH1 0x20 DUP2 ADD DUP5 DUP5 DUP5 ADD GT ISZERO PUSH2 0x1277 JUMPI PUSH2 0x1276 PUSH2 0x1177 JUMP JUMPDEST JUMPDEST PUSH2 0x1282 DUP5 DUP3 DUP6 PUSH2 0x1239 JUMP JUMPDEST POP SWAP4 SWAP3 POP POP POP JUMP JUMPDEST PUSH1 0x0 DUP3 PUSH1 0x1F DUP4 ADD SLT PUSH2 0x129F JUMPI PUSH2 0x129E PUSH2 0x1172 JUMP JUMPDEST JUMPDEST DUP2 CALLDATALOAD PUSH2 0x12AF DUP5 DUP3 PUSH1 0x20 DUP7 ADD PUSH2 0x1248 JUMP JUMPDEST SWAP2 POP POP SWAP3 SWAP2 POP POP JUMP JUMPDEST PUSH1 0x0 DUP1 PUSH1 0x0 DUP1 PUSH1 0x80 DUP6 DUP8 SUB SLT ISZERO PUSH2 0x12D2 JUMPI PUSH2 0x12D1 PUSH2 0xECC JUMP JUMPDEST JUMPDEST PUSH1 0x0 PUSH2 0x12E0 DUP8 DUP3 DUP9 ADD PUSH2 0x1050 JUMP JUMPDEST SWAP5 POP POP PUSH1 0x20 PUSH2 0x12F1 DUP8 DUP3 DUP9 ADD PUSH2 0x1050 JUMP JUMPDEST SWAP4 POP POP PUSH1 0x40 PUSH2 0x1302 DUP8 DUP3 DUP9 ADD PUSH2 0xEF7 JUMP JUMPDEST SWAP3 POP POP PUSH1 0x60 DUP6 ADD CALLDATALOAD PUSH8 0xFFFFFFFFFFFFFFFF DUP2 GT ISZERO PUSH2 0x1323 JUMPI PUSH2 0x1322 PUSH2 0xED1 JUMP JUMPDEST JUMPDEST PUSH2 0x132F DUP8 DUP3 DUP9 ADD PUSH2 0x128A JUMP JUMPDEST SWAP2 POP POP SWAP3 SWAP6 SWAP2 SWAP5 POP SWAP3 POP JUMP JUMPDEST PUSH1 0x0 PUSH32 0xFFFFFFFF00000000000000000000000000000000000000000000000000000000 DUP3 AND SWAP1 POP SWAP2 SWAP1 POP JUMP JUMPDEST PUSH2 0x1370 DUP2 PUSH2 0x133B JUMP JUMPDEST DUP3 MSTORE POP POP JUMP JUMPDEST PUSH1 0x0 PUSH1 0x20 DUP3 ADD SWAP1 POP PUSH2 0x138B PUSH1 0x0 DUP4 ADD DUP5 PUSH2 0x1367 JUMP JUMPDEST SWAP3 SWAP2 POP POP JUMP JUMPDEST PUSH1 0x0 PUSH1 0x60 DUP3 ADD SWAP1 POP PUSH2 0x13A6 PUSH1 0x0 DUP4 ADD DUP7 PUSH2 0xF95 JUMP JUMPDEST PUSH2 0x13B3 PUSH1 0x20 DUP4 ADD DUP6 PUSH2 0xF95 JUMP JUMPDEST PUSH2 0x13C0 PUSH1 0x40 DUP4 ADD DUP5 PUSH2 0xF95 JUMP JUMPDEST SWAP5 SWAP4 POP POP POP POP JUMP JUMPDEST PUSH1 0x0 PUSH2 0x13D3 DUP3 PUSH2 0xFEB JUMP JUMPDEST SWAP1 POP SWAP2 SWAP1 POP JUMP JUMPDEST PUSH2 0x13E3 DUP2 PUSH2 0x13C8 JUMP JUMPDEST DUP3 MSTORE POP POP JUMP JUMPDEST PUSH1 0x0 PUSH1 0x20 DUP3 ADD SWAP1 POP PUSH2 0x13FE PUSH1 0x0 DUP4 ADD DUP5 PUSH2 0x13DA JUMP JUMPDEST SWAP3 SWAP2 POP POP JUMP JUMPDEST PUSH1 0x0 DUP3 DUP3 MSTORE PUSH1 0x20 DUP3 ADD SWAP1 POP SWAP3 SWAP2 POP POP JUMP JUMPDEST PUSH32 0x596F752063616E277420756E7374616B65207468697320746F6B656E00000000 PUSH1 0x0 DUP3 ADD MSTORE POP JUMP JUMPDEST PUSH1 0x0 PUSH2 0x144B PUSH1 0x1C DUP4 PUSH2 0x1404 JUMP JUMPDEST SWAP2 POP PUSH2 0x1456 DUP3 PUSH2 0x1415 JUMP JUMPDEST PUSH1 0x20 DUP3 ADD SWAP1 POP SWAP2 SWAP1 POP JUMP JUMPDEST PUSH1 0x0 PUSH1 0x20 DUP3 ADD SWAP1 POP DUP2 DUP2 SUB PUSH1 0x0 DUP4 ADD MSTORE PUSH2 0x147A DUP2 PUSH2 0x143E JUMP JUMPDEST SWAP1 POP SWAP2 SWAP1 POP JUMP JUMPDEST PUSH32 0x4E487B7100000000000000000000000000000000000000000000000000000000 PUSH1 0x0 MSTORE PUSH1 0x32 PUSH1 0x4 MSTORE PUSH1 0x24 PUSH1 0x0 REVERT JUMPDEST PUSH32 0x4E487B7100000000000000000000000000000000000000000000000000000000 PUSH1 0x0 MSTORE PUSH1 0x11 PUSH1 0x4 MSTORE PUSH1 0x24 PUSH1 0x0 REVERT JUMPDEST PUSH1 0x0 PUSH2 0x14EA DUP3 PUSH2 0xED6 JUMP JUMPDEST SWAP2 POP PUSH32 0xFFFFFFFFFFFFFFFFFFFFFFFFFFFFFFFFFFFFFFFFFFFFFFFFFFFFFFFFFFFFFFFF DUP3 SUB PUSH2 0x151C JUMPI PUSH2 0x151B PUSH2 0x14B0 JUMP JUMPDEST JUMPDEST PUSH1 0x1 DUP3 ADD SWAP1 POP SWAP2 SWAP1 POP JUMP JUMPDEST PUSH1 0x0 PUSH2 0x1532 DUP3 PUSH2 0xED6 JUMP JUMPDEST SWAP2 POP PUSH2 0x153D DUP4 PUSH2 0xED6 JUMP JUMPDEST SWAP3 POP DUP3 DUP3 SUB SWAP1 POP DUP2 DUP2 GT ISZERO PUSH2 0x1555 JUMPI PUSH2 0x1554 PUSH2 0x14B0 JUMP JUMPDEST JUMPDEST SWAP3 SWAP2 POP POP JUMP JUMPDEST PUSH1 0x0 PUSH2 0x1566 DUP3 PUSH2 0xED6 JUMP JUMPDEST SWAP2 POP PUSH2 0x1571 DUP4 PUSH2 0xED6 JUMP JUMPDEST SWAP3 POP DUP3 DUP3 MUL PUSH2 0x157F DUP2 PUSH2 0xED6 JUMP JUMPDEST SWAP2 POP DUP3 DUP3 DIV DUP5 EQ DUP4 ISZERO OR PUSH2 0x1596 JUMPI PUSH2 0x1595 PUSH2 0x14B0 JUMP JUMPDEST JUMPDEST POP SWAP3 SWAP2 POP POP JUMP JUMPDEST PUSH1 0x0 DUP2 MLOAD SWAP1 POP PUSH2 0x15AC DUP2 PUSH2 0xEE0 JUMP JUMPDEST SWAP3 SWAP2 POP POP JUMP JUMPDEST PUSH1 0x0 PUSH1 0x20 DUP3 DUP5 SUB SLT ISZERO PUSH2 0x15C8 JUMPI PUSH2 0x15C7 PUSH2 0xECC JUMP JUMPDEST JUMPDEST PUSH1 0x0 PUSH2 0x15D6 DUP5 DUP3 DUP6 ADD PUSH2 0x159D JUMP JUMPDEST SWAP2 POP POP SWAP3 SWAP2 POP POP JUMP JUMPDEST PUSH1 0x0 PUSH1 0x40 DUP3 ADD SWAP1 POP PUSH2 0x15F4 PUSH1 0x0 DUP4 ADD DUP6 PUSH2 0xF6B JUMP JUMPDEST PUSH2 0x1601 PUSH1 0x20 DUP4 ADD DUP5 PUSH2 0xF95 JUMP JUMPDEST SWAP4 SWAP3 POP POP POP JUMP JUMPDEST PUSH1 0x0 PUSH2 0x1613 DUP3 PUSH2 0xED6 JUMP JUMPDEST SWAP2 POP PUSH2 0x161E DUP4 PUSH2 0xED6 JUMP JUMPDEST SWAP3 POP DUP3 DUP3 ADD SWAP1 POP DUP1 DUP3 GT ISZERO PUSH2 0x1636 JUMPI PUSH2 0x1635 PUSH2 0x14B0 JUMP JUMPDEST JUMPDEST SWAP3 SWAP2 POP POP JUMP JUMPDEST PUSH32 0x596F752068617665206E6F207265776172647320746F20636C61696D00000000 PUSH1 0x0 DUP3 ADD MSTORE POP JUMP JUMPDEST PUSH1 0x0 PUSH2 0x1672 PUSH1 0x1C DUP4 PUSH2 0x1404 JUMP JUMPDEST SWAP2 POP PUSH2 0x167D DUP3 PUSH2 0x163C JUMP JUMPDEST PUSH1 0x20 DUP3 ADD SWAP1 POP SWAP2 SWAP1 POP JUMP JUMPDEST PUSH1 0x0 PUSH1 0x20 DUP3 ADD SWAP1 POP DUP2 DUP2 SUB PUSH1 0x0 DUP4 ADD MSTORE PUSH2 0x16A1 DUP2 PUSH2 0x1665 JUMP JUMPDEST SWAP1 POP SWAP2 SWAP1 POP JUMP JUMPDEST PUSH1 0x0 DUP2 ISZERO ISZERO SWAP1 POP SWAP2 SWAP1 POP JUMP JUMPDEST PUSH2 0x16BD DUP2 PUSH2 0x16A8 JUMP JUMPDEST DUP2 EQ PUSH2 0x16C8 JUMPI PUSH1 0x0 DUP1 REVERT JUMPDEST POP JUMP JUMPDEST PUSH1 0x0 DUP2 MLOAD SWAP1 POP PUSH2 0x16DA DUP2 PUSH2 0x16B4 JUMP JUMPDEST SWAP3 SWAP2 POP POP JUMP JUMPDEST PUSH1 0x0 PUSH1 0x20 DUP3 DUP5 SUB SLT ISZERO PUSH2 0x16F6 JUMPI PUSH2 0x16F5 PUSH2 0xECC JUMP JUMPDEST JUMPDEST PUSH1 0x0 PUSH2 0x1704 DUP5 DUP3 DUP6 ADD PUSH2 0x16CB JUMP JUMPDEST SWAP2 POP POP SWAP3 SWAP2 POP POP JUMP JUMPDEST PUSH1 0x0 PUSH2 0x1718 DUP3 PUSH2 0xED6 JUMP JUMPDEST SWAP2 POP PUSH1 0x0 DUP3 SUB PUSH2 0x172B JUMPI PUSH2 0x172A PUSH2 0x14B0 JUMP JUMPDEST JUMPDEST PUSH1 0x1 DUP3 SUB SWAP1 POP SWAP2 SWAP1 POP JUMP JUMPDEST PUSH32 0x4E487B7100000000000000000000000000000000000000000000000000000000 PUSH1 0x0 MSTORE PUSH1 0x31 PUSH1 0x4 MSTORE PUSH1 0x24 PUSH1 0x0 REVERT JUMPDEST PUSH1 0x0 PUSH1 0x60 DUP3 ADD SWAP1 POP PUSH2 0x177A PUSH1 0x0 DUP4 ADD DUP7 PUSH2 0xF6B JUMP JUMPDEST PUSH2 0x1787 PUSH1 0x20 DUP4 ADD DUP6 PUSH2 0xF6B JUMP JUMPDEST PUSH2 0x1794 PUSH1 0x40 DUP4 ADD DUP5 PUSH2 0xF95 JUMP JUMPDEST SWAP5 SWAP4 POP POP POP POP JUMP INVALID LOG2 PUSH5 0x6970667358 0x22 SLT KECCAK256 0xD3 EXTCODECOPY 0xC 0xA9 ADDRESS 0xAE SELFDESTRUCT 0xD 0xA8 ADD ADD 0x2C PUSH19 0x86513E08DEB4C92917756F9EDA0783E81C2A25 PUSH5 0x736F6C6343 STOP ADDMOD SLT STOP CALLER "
		},
		"gasEstimates": {
			"creation": {
				"codeDepositCost": "1219600",
				"executionCost": "infinite",
				"totalCost": "infinite"
			},
			"external": {
				"calculateRewards(address)": "infinite",
				"claimRewards(address)": "infinite",
				"getStakedTokens(address)": "infinite",
				"maxSupply()": "2473",
				"nft()": "infinite",
				"onKIP17Received(address,address,uint256,bytes)": "infinite",
				"rate()": "2475",
				"rewardToken()": "infinite",
				"stake(uint256)": "infinite",
				"stakeAll()": "infinite",
				"stakers(address)": "infinite",
				"tokenOwner(uint256)": "2863",
				"unstake(uint256)": "infinite",
				"unstakeAll()": "infinite"
			},
			"internal": {
				"_stake(address,uint256)": "infinite",
				"_unstake(address,uint256)": "infinite",
				"updateRewards(address)": "infinite"
			}
		},
		"methodIdentifiers": {
			"calculateRewards(address)": "64ab8675",
			"claimRewards(address)": "ef5cfb8c",
			"getStakedTokens(address)": "63c28db1",
			"maxSupply()": "d5abeb01",
			"nft()": "47ccca02",
			"onKIP17Received(address,address,uint256,bytes)": "6745782b",
			"rate()": "2c4e722e",
			"rewardToken()": "f7c618c1",
			"stake(uint256)": "a694fc3a",
			"stakeAll()": "8dcb4061",
			"stakers(address)": "9168ae72",
			"tokenOwner(uint256)": "1caaa487",
			"unstake(uint256)": "2e17de78",
			"unstakeAll()": "35322f37"
		}
	},
	"abi": [
		{
			"inputs": [
				{
					"internalType": "address",
					"name": "_nft",
					"type": "address"
				},
				{
					"internalType": "address",
					"name": "_rewardToken",
					"type": "address"
				}
			],
			"stateMutability": "nonpayable",
			"type": "constructor"
		},
		{
			"anonymous": false,
			"inputs": [
				{
					"indexed": false,
					"internalType": "address",
					"name": "user",
					"type": "address"
				},
				{
					"indexed": false,
					"internalType": "uint256",
					"name": "reward",
					"type": "uint256"
				}
			],
			"name": "RewardPaid",
			"type": "event"
		},
		{
			"anonymous": false,
			"inputs": [
				{
					"indexed": false,
					"internalType": "address",
					"name": "owner",
					"type": "address"
				},
				{
					"indexed": false,
					"internalType": "uint256",
					"name": "amount",
					"type": "uint256"
				}
			],
			"name": "Staked",
			"type": "event"
		},
		{
			"anonymous": false,
			"inputs": [
				{
					"indexed": false,
					"internalType": "address",
					"name": "owner",
					"type": "address"
				},
				{
					"indexed": false,
					"internalType": "uint256",
					"name": "amount",
					"type": "uint256"
				}
			],
			"name": "Unstaked",
			"type": "event"
		},
		{
			"inputs": [
				{
					"internalType": "address",
					"name": "_user",
					"type": "address"
				}
			],
			"name": "calculateRewards",
			"outputs": [
				{
					"internalType": "uint256",
					"name": "",
					"type": "uint256"
				}
			],
			"stateMutability": "view",
			"type": "function"
		},
		{
			"inputs": [
				{
					"internalType": "address",
					"name": "_user",
					"type": "address"
				}
			],
			"name": "claimRewards",
			"outputs": [],
			"stateMutability": "nonpayable",
			"type": "function"
		},
		{
			"inputs": [
				{
					"internalType": "address",
					"name": "_user",
					"type": "address"
				}
			],
			"name": "getStakedTokens",
			"outputs": [
				{
					"internalType": "uint256[]",
					"name": "tokenIds",
					"type": "uint256[]"
				}
			],
			"stateMutability": "view",
			"type": "function"
		},
		{
			"inputs": [],
			"name": "maxSupply",
			"outputs": [
				{
					"internalType": "uint256",
					"name": "",
					"type": "uint256"
				}
			],
			"stateMutability": "view",
			"type": "function"
		},
		{
			"inputs": [],
			"name": "nft",
			"outputs": [
				{
					"internalType": "contract IKIP17Enumerable",
					"name": "",
					"type": "address"
				}
			],
			"stateMutability": "view",
			"type": "function"
		},
		{
			"inputs": [
				{
					"internalType": "address",
					"name": "",
					"type": "address"
				},
				{
					"internalType": "address",
					"name": "",
					"type": "address"
				},
				{
					"internalType": "uint256",
					"name": "",
					"type": "uint256"
				},
				{
					"internalType": "bytes",
					"name": "",
					"type": "bytes"
				}
			],
			"name": "onKIP17Received",
			"outputs": [
				{
					"internalType": "bytes4",
					"name": "",
					"type": "bytes4"
				}
			],
			"stateMutability": "nonpayable",
			"type": "function"
		},
		{
			"inputs": [],
			"name": "rate",
			"outputs": [
				{
					"internalType": "uint256",
					"name": "",
					"type": "uint256"
				}
			],
			"stateMutability": "view",
			"type": "function"
		},
		{
			"inputs": [],
			"name": "rewardToken",
			"outputs": [
				{
					"internalType": "contract IKIP7",
					"name": "",
					"type": "address"
				}
			],
			"stateMutability": "view",
			"type": "function"
		},
		{
			"inputs": [
				{
					"internalType": "uint256",
					"name": "tokenId",
					"type": "uint256"
				}
			],
			"name": "stake",
			"outputs": [],
			"stateMutability": "nonpayable",
			"type": "function"
		},
		{
			"inputs": [],
			"name": "stakeAll",
			"outputs": [],
			"stateMutability": "nonpayable",
			"type": "function"
		},
		{
			"inputs": [
				{
					"internalType": "address",
					"name": "",
					"type": "address"
				}
			],
			"name": "stakers",
			"outputs": [
				{
					"internalType": "uint256",
					"name": "balance",
					"type": "uint256"
				},
				{
					"internalType": "uint256",
					"name": "tokenStakeAt",
					"type": "uint256"
				},
				{
					"internalType": "uint256",
					"name": "unclaimedRewards",
					"type": "uint256"
				}
			],
			"stateMutability": "view",
			"type": "function"
		},
		{
			"inputs": [
				{
					"internalType": "uint256",
					"name": "",
					"type": "uint256"
				}
			],
			"name": "tokenOwner",
			"outputs": [
				{
					"internalType": "address",
					"name": "",
					"type": "address"
				}
			],
			"stateMutability": "view",
			"type": "function"
		},
		{
			"inputs": [
				{
					"internalType": "uint256",
					"name": "_tokenId",
					"type": "uint256"
				}
			],
			"name": "unstake",
			"outputs": [],
			"stateMutability": "nonpayable",
			"type": "function"
		},
		{
			"inputs": [],
			"name": "unstakeAll",
			"outputs": [],
			"stateMutability": "nonpayable",
			"type": "function"
		}
	]
}